{
	"contracts/Ballot/Ballot.sol": {
		"MyBallot": {
			"abi": [
				{
					"inputs": [
						{
							"internalType": "string[]",
							"name": "_candidates",
							"type": "string[]"
						},
						{
							"internalType": "uint256",
							"name": "_maxVotes",
							"type": "uint256"
						}
					],
					"stateMutability": "nonpayable",
					"type": "constructor"
				},
				{
					"inputs": [
						{
							"internalType": "uint256",
							"name": "",
							"type": "uint256"
						}
					],
					"name": "candidates",
					"outputs": [
						{
							"internalType": "string",
							"name": "nameProject",
							"type": "string"
						},
						{
							"internalType": "uint256",
							"name": "votesCount",
							"type": "uint256"
						}
					],
					"stateMutability": "view",
					"type": "function"
				},
				{
					"inputs": [
						{
							"internalType": "string",
							"name": "s1",
							"type": "string"
						},
						{
							"internalType": "string",
							"name": "s2",
							"type": "string"
						}
					],
					"name": "concatenateStrings",
					"outputs": [
						{
							"internalType": "string",
							"name": "",
							"type": "string"
						}
					],
					"stateMutability": "pure",
					"type": "function"
				},
				{
					"inputs": [],
					"name": "getCandidatesListName",
					"outputs": [
						{
							"internalType": "string[]",
							"name": "",
							"type": "string[]"
						}
					],
					"stateMutability": "view",
					"type": "function"
				},
				{
					"inputs": [],
					"name": "getWinnerName",
					"outputs": [
						{
							"internalType": "string",
							"name": "winnerName",
							"type": "string"
						},
						{
							"internalType": "address",
							"name": "",
							"type": "address"
						}
					],
					"stateMutability": "view",
					"type": "function"
				},
				{
					"inputs": [],
					"name": "getWinningCandidate",
					"outputs": [
						{
							"components": [
								{
									"internalType": "string",
									"name": "nameProject",
									"type": "string"
								},
								{
									"internalType": "uint256",
									"name": "votesCount",
									"type": "uint256"
								}
							],
							"internalType": "struct MyBallot.Candidate",
							"name": "winningCandidate",
							"type": "tuple"
						}
					],
					"stateMutability": "view",
					"type": "function"
				},
				{
					"inputs": [
						{
							"internalType": "address",
							"name": "voterAddress",
							"type": "address"
						},
						{
							"internalType": "string",
							"name": "_nameVoter",
							"type": "string"
						}
					],
					"name": "giveRightToVote",
					"outputs": [],
					"stateMutability": "nonpayable",
					"type": "function"
				},
				{
					"inputs": [
						{
							"internalType": "string",
							"name": "_nameProject",
							"type": "string"
						},
						{
							"internalType": "bool",
							"name": "isCandidateExist",
							"type": "bool"
						}
					],
					"name": "vote",
					"outputs": [],
					"stateMutability": "nonpayable",
					"type": "function"
				},
				{
					"inputs": [
						{
							"internalType": "address",
							"name": "",
							"type": "address"
						}
					],
					"name": "voters",
					"outputs": [
						{
							"internalType": "string",
							"name": "nameVoter",
							"type": "string"
						},
						{
							"internalType": "bool",
							"name": "canVote",
							"type": "bool"
						},
						{
							"internalType": "bool",
							"name": "hasVoted",
							"type": "bool"
						}
					],
					"stateMutability": "view",
					"type": "function"
				}
			],
			"devdoc": {
				"kind": "dev",
				"methods": {},
				"version": 1
			},
			"evm": {
				"assembly": "    /* \"contracts/Ballot/Ballot.sol\":70:7484  contract MyBallot {\r... */\n  mstore(0x40, 0x80)\n    /* \"contracts/Ballot/Ballot.sol\":533:722  constructor(string[] memory _candidates, uint _maxVotes) {\r... */\n  callvalue\n  dup1\n  iszero\n  tag_1\n  jumpi\n  0x00\n  dup1\n  revert\ntag_1:\n  pop\n  mload(0x40)\n  sub(codesize, bytecodeSize)\n  dup1\n  bytecodeSize\n  dup4\n  codecopy\n  dup2\n  dup2\n  add\n  0x40\n  mstore\n  dup2\n  add\n  swap1\n  tag_2\n  swap2\n  swap1\n  tag_3\n  jump\t// in\ntag_2:\n    /* \"contracts/Ballot/Ballot.sol\":617:627  msg.sender */\n  caller\n    /* \"contracts/Ballot/Ballot.sol\":601:614  contractOwner */\n  0x00\n  dup1\n    /* \"contracts/Ballot/Ballot.sol\":601:627  contractOwner = msg.sender */\n  0x0100\n  exp\n  dup2\n  sload\n  dup2\n  0xffffffffffffffffffffffffffffffffffffffff\n  mul\n  not\n  and\n  swap1\n  dup4\n  0xffffffffffffffffffffffffffffffffffffffff\n  and\n  mul\n  or\n  swap1\n  sstore\n  pop\n    /* \"contracts/Ballot/Ballot.sol\":638:675  setCandidatesIntoStorage(_candidates) */\n  tag_6\n    /* \"contracts/Ballot/Ballot.sol\":663:674  _candidates */\n  dup3\n    /* \"contracts/Ballot/Ballot.sol\":638:662  setCandidatesIntoStorage */\n  shl(0x20, tag_7)\n    /* \"contracts/Ballot/Ballot.sol\":638:675  setCandidatesIntoStorage(_candidates) */\n  0x20\n  shr\n  jump\t// in\ntag_6:\n    /* \"contracts/Ballot/Ballot.sol\":705:714  _maxVotes */\n  dup1\n    /* \"contracts/Ballot/Ballot.sol\":694:702  maxVotes */\n  0x04\n    /* \"contracts/Ballot/Ballot.sol\":694:714  maxVotes = _maxVotes */\n  dup2\n  swap1\n  sstore\n  pop\n    /* \"contracts/Ballot/Ballot.sol\":533:722  constructor(string[] memory _candidates, uint _maxVotes) {\r... */\n  pop\n  pop\n    /* \"contracts/Ballot/Ballot.sol\":70:7484  contract MyBallot {\r... */\n  jump(tag_8)\n    /* \"contracts/Ballot/Ballot.sol\":2423:2722  function setCandidatesIntoStorage(string[] memory _candidates) private {\r... */\ntag_7:\n    /* \"contracts/Ballot/Ballot.sol\":2510:2520  uint index */\n  0x00\n    /* \"contracts/Ballot/Ballot.sol\":2505:2715  for (uint index = 0; index < _candidates.length; index++) {\r... */\ntag_10:\n    /* \"contracts/Ballot/Ballot.sol\":2534:2545  _candidates */\n  dup2\n    /* \"contracts/Ballot/Ballot.sol\":2534:2552  _candidates.length */\n  mload\n    /* \"contracts/Ballot/Ballot.sol\":2526:2531  index */\n  dup2\n    /* \"contracts/Ballot/Ballot.sol\":2526:2552  index < _candidates.length */\n  lt\n    /* \"contracts/Ballot/Ballot.sol\":2505:2715  for (uint index = 0; index < _candidates.length; index++) {\r... */\n  iszero\n  tag_11\n  jumpi\n    /* \"contracts/Ballot/Ballot.sol\":2578:2588  candidates */\n  0x02\n    /* \"contracts/Ballot/Ballot.sol\":2594:2702  Candidate({\r... */\n  mload(0x40)\n  dup1\n  0x40\n  add\n  0x40\n  mstore\n  dup1\n    /* \"contracts/Ballot/Ballot.sol\":2636:2647  _candidates */\n  dup5\n    /* \"contracts/Ballot/Ballot.sol\":2648:2653  index */\n  dup5\n    /* \"contracts/Ballot/Ballot.sol\":2636:2654  _candidates[index] */\n  dup2\n  mload\n  dup2\n  lt\n  tag_13\n  jumpi\n  tag_14\n  tag_15\n  jump\t// in\ntag_14:\ntag_13:\n  0x20\n  mul\n  0x20\n  add\n  add\n  mload\n    /* \"contracts/Ballot/Ballot.sol\":2594:2702  Candidate({\r... */\n  dup2\n  mstore\n  0x20\n  add\n    /* \"contracts/Ballot/Ballot.sol\":2685:2686  0 */\n  0x00\n    /* \"contracts/Ballot/Ballot.sol\":2594:2702  Candidate({\r... */\n  dup2\n  mstore\n  pop\n    /* \"contracts/Ballot/Ballot.sol\":2578:2703  candidates.push(Candidate({\r... */\n  swap1\n  dup1\n  0x01\n  dup2\n  sload\n  add\n  dup1\n  dup3\n  sstore\n  dup1\n  swap2\n  pop\n  pop\n  0x01\n  swap1\n  sub\n  swap1\n  0x00\n  mstore\n  keccak256(0x00, 0x20)\n  swap1\n  0x02\n  mul\n  add\n  0x00\n  swap1\n  swap2\n  swap1\n  swap2\n  swap1\n  swap2\n  pop\n  0x00\n  dup3\n  add\n  mload\n  dup2\n  0x00\n  add\n  swap1\n  dup1\n  mload\n  swap1\n  0x20\n  add\n  swap1\n  tag_17\n  swap3\n  swap2\n  swap1\n  tag_18\n  jump\t// in\ntag_17:\n  pop\n  0x20\n  dup3\n  add\n  mload\n  dup2\n  0x01\n  add\n  sstore\n  pop\n  pop\n    /* \"contracts/Ballot/Ballot.sol\":2554:2561  index++ */\n  dup1\n  dup1\n  tag_19\n  swap1\n  tag_20\n  jump\t// in\ntag_19:\n  swap2\n  pop\n  pop\n    /* \"contracts/Ballot/Ballot.sol\":2505:2715  for (uint index = 0; index < _candidates.length; index++) {\r... */\n  jump(tag_10)\ntag_11:\n  pop\n    /* \"contracts/Ballot/Ballot.sol\":2423:2722  function setCandidatesIntoStorage(string[] memory _candidates) private {\r... */\n  pop\n  jump\t// out\n    /* \"contracts/Ballot/Ballot.sol\":70:7484  contract MyBallot {\r... */\ntag_18:\n  dup3\n  dup1\n  sload\n  tag_21\n  swap1\n  tag_22\n  jump\t// in\ntag_21:\n  swap1\n  0x00\n  mstore\n  keccak256(0x00, 0x20)\n  swap1\n  0x1f\n  add\n  0x20\n  swap1\n  div\n  dup2\n  add\n  swap3\n  dup3\n  tag_24\n  jumpi\n  0x00\n  dup6\n  sstore\n  jump(tag_23)\ntag_24:\n  dup3\n  0x1f\n  lt\n  tag_25\n  jumpi\n  dup1\n  mload\n  not(0xff)\n  and\n  dup4\n  dup1\n  add\n  or\n  dup6\n  sstore\n  jump(tag_23)\ntag_25:\n  dup3\n  dup1\n  add\n  0x01\n  add\n  dup6\n  sstore\n  dup3\n  iszero\n  tag_23\n  jumpi\n  swap2\n  dup3\n  add\ntag_26:\n  dup3\n  dup2\n  gt\n  iszero\n  tag_27\n  jumpi\n  dup3\n  mload\n  dup3\n  sstore\n  swap2\n  0x20\n  add\n  swap2\n  swap1\n  0x01\n  add\n  swap1\n  jump(tag_26)\ntag_27:\ntag_23:\n  pop\n  swap1\n  pop\n  tag_28\n  swap2\n  swap1\n  tag_29\n  jump\t// in\ntag_28:\n  pop\n  swap1\n  jump\t// out\ntag_29:\ntag_30:\n  dup1\n  dup3\n  gt\n  iszero\n  tag_31\n  jumpi\n  0x00\n  dup2\n  0x00\n  swap1\n  sstore\n  pop\n  0x01\n  add\n  jump(tag_30)\ntag_31:\n  pop\n  swap1\n  jump\t// out\n    /* \"#utility.yul\":23:995   */\ntag_33:\n    /* \"#utility.yul\":140:145   */\n  0x00\n    /* \"#utility.yul\":165:256   */\n  tag_35\n    /* \"#utility.yul\":181:255   */\n  tag_36\n    /* \"#utility.yul\":248:254   */\n  dup5\n    /* \"#utility.yul\":181:255   */\n  tag_37\n  jump\t// in\ntag_36:\n    /* \"#utility.yul\":165:256   */\n  tag_38\n  jump\t// in\ntag_35:\n    /* \"#utility.yul\":156:256   */\n  swap1\n  pop\n    /* \"#utility.yul\":276:281   */\n  dup1\n    /* \"#utility.yul\":305:311   */\n  dup4\n    /* \"#utility.yul\":298:303   */\n  dup3\n    /* \"#utility.yul\":291:312   */\n  mstore\n    /* \"#utility.yul\":339:343   */\n  0x20\n    /* \"#utility.yul\":332:337   */\n  dup3\n    /* \"#utility.yul\":328:344   */\n  add\n    /* \"#utility.yul\":321:344   */\n  swap1\n  pop\n    /* \"#utility.yul\":365:371   */\n  dup3\n    /* \"#utility.yul\":415:418   */\n  dup6\n    /* \"#utility.yul\":407:411   */\n  0x20\n    /* \"#utility.yul\":399:405   */\n  dup7\n    /* \"#utility.yul\":395:412   */\n  mul\n    /* \"#utility.yul\":390:393   */\n  dup3\n    /* \"#utility.yul\":386:413   */\n  add\n    /* \"#utility.yul\":383:419   */\n  gt\n    /* \"#utility.yul\":380:523   */\n  iszero\n  tag_39\n  jumpi\n    /* \"#utility.yul\":434:513   */\n  tag_40\n  tag_41\n  jump\t// in\ntag_40:\n    /* \"#utility.yul\":380:523   */\ntag_39:\n    /* \"#utility.yul\":547:548   */\n  0x00\n    /* \"#utility.yul\":532:989   */\ntag_42:\n    /* \"#utility.yul\":557:563   */\n  dup6\n    /* \"#utility.yul\":554:555   */\n  dup2\n    /* \"#utility.yul\":551:564   */\n  lt\n    /* \"#utility.yul\":532:989   */\n  iszero\n  tag_44\n  jumpi\n    /* \"#utility.yul\":632:635   */\n  dup2\n    /* \"#utility.yul\":626:636   */\n  mload\n    /* \"#utility.yul\":668:686   */\n  0xffffffffffffffff\n    /* \"#utility.yul\":655:666   */\n  dup2\n    /* \"#utility.yul\":652:687   */\n  gt\n    /* \"#utility.yul\":649:771   */\n  iszero\n  tag_45\n  jumpi\n    /* \"#utility.yul\":690:769   */\n  tag_46\n  tag_47\n  jump\t// in\ntag_46:\n    /* \"#utility.yul\":649:771   */\ntag_45:\n    /* \"#utility.yul\":814:825   */\n  dup1\n    /* \"#utility.yul\":806:812   */\n  dup7\n    /* \"#utility.yul\":802:826   */\n  add\n    /* \"#utility.yul\":852:910   */\n  tag_48\n    /* \"#utility.yul\":906:909   */\n  dup10\n    /* \"#utility.yul\":894:904   */\n  dup3\n    /* \"#utility.yul\":852:910   */\n  tag_49\n  jump\t// in\ntag_48:\n    /* \"#utility.yul\":847:850   */\n  dup6\n    /* \"#utility.yul\":840:911   */\n  mstore\n    /* \"#utility.yul\":940:944   */\n  0x20\n    /* \"#utility.yul\":935:938   */\n  dup6\n    /* \"#utility.yul\":931:945   */\n  add\n    /* \"#utility.yul\":924:945   */\n  swap5\n  pop\n    /* \"#utility.yul\":974:978   */\n  0x20\n    /* \"#utility.yul\":969:972   */\n  dup5\n    /* \"#utility.yul\":965:979   */\n  add\n    /* \"#utility.yul\":958:979   */\n  swap4\n  pop\n    /* \"#utility.yul\":592:989   */\n  pop\n  pop\n    /* \"#utility.yul\":579:580   */\n  0x01\n    /* \"#utility.yul\":576:577   */\n  dup2\n    /* \"#utility.yul\":572:581   */\n  add\n    /* \"#utility.yul\":567:581   */\n  swap1\n  pop\n    /* \"#utility.yul\":532:989   */\n  jump(tag_42)\ntag_44:\n    /* \"#utility.yul\":536:550   */\n  pop\n    /* \"#utility.yul\":146:995   */\n  pop\n  pop\n    /* \"#utility.yul\":23:995   */\n  swap4\n  swap3\n  pop\n  pop\n  pop\n  jump\t// out\n    /* \"#utility.yul\":1001:1422   */\ntag_50:\n    /* \"#utility.yul\":1090:1095   */\n  0x00\n    /* \"#utility.yul\":1115:1181   */\n  tag_52\n    /* \"#utility.yul\":1131:1180   */\n  tag_53\n    /* \"#utility.yul\":1173:1179   */\n  dup5\n    /* \"#utility.yul\":1131:1180   */\n  tag_54\n  jump\t// in\ntag_53:\n    /* \"#utility.yul\":1115:1181   */\n  tag_38\n  jump\t// in\ntag_52:\n    /* \"#utility.yul\":1106:1181   */\n  swap1\n  pop\n    /* \"#utility.yul\":1204:1210   */\n  dup3\n    /* \"#utility.yul\":1197:1202   */\n  dup2\n    /* \"#utility.yul\":1190:1211   */\n  mstore\n    /* \"#utility.yul\":1242:1246   */\n  0x20\n    /* \"#utility.yul\":1235:1240   */\n  dup2\n    /* \"#utility.yul\":1231:1247   */\n  add\n    /* \"#utility.yul\":1280:1283   */\n  dup5\n    /* \"#utility.yul\":1271:1277   */\n  dup5\n    /* \"#utility.yul\":1266:1269   */\n  dup5\n    /* \"#utility.yul\":1262:1278   */\n  add\n    /* \"#utility.yul\":1259:1284   */\n  gt\n    /* \"#utility.yul\":1256:1368   */\n  iszero\n  tag_55\n  jumpi\n    /* \"#utility.yul\":1287:1366   */\n  tag_56\n  tag_57\n  jump\t// in\ntag_56:\n    /* \"#utility.yul\":1256:1368   */\ntag_55:\n    /* \"#utility.yul\":1377:1416   */\n  tag_58\n    /* \"#utility.yul\":1409:1415   */\n  dup5\n    /* \"#utility.yul\":1404:1407   */\n  dup3\n    /* \"#utility.yul\":1399:1402   */\n  dup6\n    /* \"#utility.yul\":1377:1416   */\n  tag_59\n  jump\t// in\ntag_58:\n    /* \"#utility.yul\":1096:1422   */\n  pop\n    /* \"#utility.yul\":1001:1422   */\n  swap4\n  swap3\n  pop\n  pop\n  pop\n  jump\t// out\n    /* \"#utility.yul\":1444:1849   */\ntag_60:\n    /* \"#utility.yul\":1536:1541   */\n  0x00\n    /* \"#utility.yul\":1585:1588   */\n  dup3\n    /* \"#utility.yul\":1578:1582   */\n  0x1f\n    /* \"#utility.yul\":1570:1576   */\n  dup4\n    /* \"#utility.yul\":1566:1583   */\n  add\n    /* \"#utility.yul\":1562:1589   */\n  slt\n    /* \"#utility.yul\":1552:1674   */\n  tag_62\n  jumpi\n    /* \"#utility.yul\":1593:1672   */\n  tag_63\n  tag_47\n  jump\t// in\ntag_63:\n    /* \"#utility.yul\":1552:1674   */\ntag_62:\n    /* \"#utility.yul\":1703:1709   */\n  dup2\n    /* \"#utility.yul\":1697:1710   */\n  mload\n    /* \"#utility.yul\":1728:1843   */\n  tag_64\n    /* \"#utility.yul\":1839:1842   */\n  dup5\n    /* \"#utility.yul\":1831:1837   */\n  dup3\n    /* \"#utility.yul\":1824:1828   */\n  0x20\n    /* \"#utility.yul\":1816:1822   */\n  dup7\n    /* \"#utility.yul\":1812:1829   */\n  add\n    /* \"#utility.yul\":1728:1843   */\n  tag_33\n  jump\t// in\ntag_64:\n    /* \"#utility.yul\":1719:1843   */\n  swap2\n  pop\n    /* \"#utility.yul\":1542:1849   */\n  pop\n    /* \"#utility.yul\":1444:1849   */\n  swap3\n  swap2\n  pop\n  pop\n  jump\t// out\n    /* \"#utility.yul\":1869:2224   */\ntag_49:\n    /* \"#utility.yul\":1936:1941   */\n  0x00\n    /* \"#utility.yul\":1985:1988   */\n  dup3\n    /* \"#utility.yul\":1978:1982   */\n  0x1f\n    /* \"#utility.yul\":1970:1976   */\n  dup4\n    /* \"#utility.yul\":1966:1983   */\n  add\n    /* \"#utility.yul\":1962:1989   */\n  slt\n    /* \"#utility.yul\":1952:2074   */\n  tag_66\n  jumpi\n    /* \"#utility.yul\":1993:2072   */\n  tag_67\n  tag_47\n  jump\t// in\ntag_67:\n    /* \"#utility.yul\":1952:2074   */\ntag_66:\n    /* \"#utility.yul\":2103:2109   */\n  dup2\n    /* \"#utility.yul\":2097:2110   */\n  mload\n    /* \"#utility.yul\":2128:2218   */\n  tag_68\n    /* \"#utility.yul\":2214:2217   */\n  dup5\n    /* \"#utility.yul\":2206:2212   */\n  dup3\n    /* \"#utility.yul\":2199:2203   */\n  0x20\n    /* \"#utility.yul\":2191:2197   */\n  dup7\n    /* \"#utility.yul\":2187:2204   */\n  add\n    /* \"#utility.yul\":2128:2218   */\n  tag_50\n  jump\t// in\ntag_68:\n    /* \"#utility.yul\":2119:2218   */\n  swap2\n  pop\n    /* \"#utility.yul\":1942:2224   */\n  pop\n    /* \"#utility.yul\":1869:2224   */\n  swap3\n  swap2\n  pop\n  pop\n  jump\t// out\n    /* \"#utility.yul\":2230:2373   */\ntag_69:\n    /* \"#utility.yul\":2287:2292   */\n  0x00\n    /* \"#utility.yul\":2318:2324   */\n  dup2\n    /* \"#utility.yul\":2312:2325   */\n  mload\n    /* \"#utility.yul\":2303:2325   */\n  swap1\n  pop\n    /* \"#utility.yul\":2334:2367   */\n  tag_71\n    /* \"#utility.yul\":2361:2366   */\n  dup2\n    /* \"#utility.yul\":2334:2367   */\n  tag_72\n  jump\t// in\ntag_71:\n    /* \"#utility.yul\":2230:2373   */\n  swap3\n  swap2\n  pop\n  pop\n  jump\t// out\n    /* \"#utility.yul\":2379:3109   */\ntag_3:\n    /* \"#utility.yul\":2493:2499   */\n  0x00\n    /* \"#utility.yul\":2501:2507   */\n  dup1\n    /* \"#utility.yul\":2550:2552   */\n  0x40\n    /* \"#utility.yul\":2538:2547   */\n  dup4\n    /* \"#utility.yul\":2529:2536   */\n  dup6\n    /* \"#utility.yul\":2525:2548   */\n  sub\n    /* \"#utility.yul\":2521:2553   */\n  slt\n    /* \"#utility.yul\":2518:2637   */\n  iszero\n  tag_74\n  jumpi\n    /* \"#utility.yul\":2556:2635   */\n  tag_75\n  tag_76\n  jump\t// in\ntag_75:\n    /* \"#utility.yul\":2518:2637   */\ntag_74:\n    /* \"#utility.yul\":2697:2698   */\n  0x00\n    /* \"#utility.yul\":2686:2695   */\n  dup4\n    /* \"#utility.yul\":2682:2699   */\n  add\n    /* \"#utility.yul\":2676:2700   */\n  mload\n    /* \"#utility.yul\":2727:2745   */\n  0xffffffffffffffff\n    /* \"#utility.yul\":2719:2725   */\n  dup2\n    /* \"#utility.yul\":2716:2746   */\n  gt\n    /* \"#utility.yul\":2713:2830   */\n  iszero\n  tag_77\n  jumpi\n    /* \"#utility.yul\":2749:2828   */\n  tag_78\n  tag_79\n  jump\t// in\ntag_78:\n    /* \"#utility.yul\":2713:2830   */\ntag_77:\n    /* \"#utility.yul\":2854:2953   */\n  tag_80\n    /* \"#utility.yul\":2945:2952   */\n  dup6\n    /* \"#utility.yul\":2936:2942   */\n  dup3\n    /* \"#utility.yul\":2925:2934   */\n  dup7\n    /* \"#utility.yul\":2921:2943   */\n  add\n    /* \"#utility.yul\":2854:2953   */\n  tag_60\n  jump\t// in\ntag_80:\n    /* \"#utility.yul\":2844:2953   */\n  swap3\n  pop\n    /* \"#utility.yul\":2647:2963   */\n  pop\n    /* \"#utility.yul\":3002:3004   */\n  0x20\n    /* \"#utility.yul\":3028:3092   */\n  tag_81\n    /* \"#utility.yul\":3084:3091   */\n  dup6\n    /* \"#utility.yul\":3075:3081   */\n  dup3\n    /* \"#utility.yul\":3064:3073   */\n  dup7\n    /* \"#utility.yul\":3060:3082   */\n  add\n    /* \"#utility.yul\":3028:3092   */\n  tag_69\n  jump\t// in\ntag_81:\n    /* \"#utility.yul\":3018:3092   */\n  swap2\n  pop\n    /* \"#utility.yul\":2973:3102   */\n  pop\n    /* \"#utility.yul\":2379:3109   */\n  swap3\n  pop\n  swap3\n  swap1\n  pop\n  jump\t// out\n    /* \"#utility.yul\":3115:3244   */\ntag_38:\n    /* \"#utility.yul\":3149:3155   */\n  0x00\n    /* \"#utility.yul\":3176:3196   */\n  tag_83\n  tag_84\n  jump\t// in\ntag_83:\n    /* \"#utility.yul\":3166:3196   */\n  swap1\n  pop\n    /* \"#utility.yul\":3205:3238   */\n  tag_85\n    /* \"#utility.yul\":3233:3237   */\n  dup3\n    /* \"#utility.yul\":3225:3231   */\n  dup3\n    /* \"#utility.yul\":3205:3238   */\n  tag_86\n  jump\t// in\ntag_85:\n    /* \"#utility.yul\":3115:3244   */\n  swap2\n  swap1\n  pop\n  jump\t// out\n    /* \"#utility.yul\":3250:3325   */\ntag_84:\n    /* \"#utility.yul\":3283:3289   */\n  0x00\n    /* \"#utility.yul\":3316:3318   */\n  0x40\n    /* \"#utility.yul\":3310:3319   */\n  mload\n    /* \"#utility.yul\":3300:3319   */\n  swap1\n  pop\n    /* \"#utility.yul\":3250:3325   */\n  swap1\n  jump\t// out\n    /* \"#utility.yul\":3331:3652   */\ntag_37:\n    /* \"#utility.yul\":3418:3422   */\n  0x00\n    /* \"#utility.yul\":3508:3526   */\n  0xffffffffffffffff\n    /* \"#utility.yul\":3500:3506   */\n  dup3\n    /* \"#utility.yul\":3497:3527   */\n  gt\n    /* \"#utility.yul\":3494:3550   */\n  iszero\n  tag_89\n  jumpi\n    /* \"#utility.yul\":3530:3548   */\n  tag_90\n  tag_91\n  jump\t// in\ntag_90:\n    /* \"#utility.yul\":3494:3550   */\ntag_89:\n    /* \"#utility.yul\":3580:3584   */\n  0x20\n    /* \"#utility.yul\":3572:3578   */\n  dup3\n    /* \"#utility.yul\":3568:3585   */\n  mul\n    /* \"#utility.yul\":3560:3585   */\n  swap1\n  pop\n    /* \"#utility.yul\":3640:3644   */\n  0x20\n    /* \"#utility.yul\":3634:3638   */\n  dup2\n    /* \"#utility.yul\":3630:3645   */\n  add\n    /* \"#utility.yul\":3622:3645   */\n  swap1\n  pop\n    /* \"#utility.yul\":3331:3652   */\n  swap2\n  swap1\n  pop\n  jump\t// out\n    /* \"#utility.yul\":3658:3966   */\ntag_54:\n    /* \"#utility.yul\":3720:3724   */\n  0x00\n    /* \"#utility.yul\":3810:3828   */\n  0xffffffffffffffff\n    /* \"#utility.yul\":3802:3808   */\n  dup3\n    /* \"#utility.yul\":3799:3829   */\n  gt\n    /* \"#utility.yul\":3796:3852   */\n  iszero\n  tag_93\n  jumpi\n    /* \"#utility.yul\":3832:3850   */\n  tag_94\n  tag_91\n  jump\t// in\ntag_94:\n    /* \"#utility.yul\":3796:3852   */\ntag_93:\n    /* \"#utility.yul\":3870:3899   */\n  tag_95\n    /* \"#utility.yul\":3892:3898   */\n  dup3\n    /* \"#utility.yul\":3870:3899   */\n  tag_96\n  jump\t// in\ntag_95:\n    /* \"#utility.yul\":3862:3899   */\n  swap1\n  pop\n    /* \"#utility.yul\":3954:3958   */\n  0x20\n    /* \"#utility.yul\":3948:3952   */\n  dup2\n    /* \"#utility.yul\":3944:3959   */\n  add\n    /* \"#utility.yul\":3936:3959   */\n  swap1\n  pop\n    /* \"#utility.yul\":3658:3966   */\n  swap2\n  swap1\n  pop\n  jump\t// out\n    /* \"#utility.yul\":3972:4049   */\ntag_97:\n    /* \"#utility.yul\":4009:4016   */\n  0x00\n    /* \"#utility.yul\":4038:4043   */\n  dup2\n    /* \"#utility.yul\":4027:4043   */\n  swap1\n  pop\n    /* \"#utility.yul\":3972:4049   */\n  swap2\n  swap1\n  pop\n  jump\t// out\n    /* \"#utility.yul\":4055:4362   */\ntag_59:\n    /* \"#utility.yul\":4123:4124   */\n  0x00\n    /* \"#utility.yul\":4133:4246   */\ntag_100:\n    /* \"#utility.yul\":4147:4153   */\n  dup4\n    /* \"#utility.yul\":4144:4145   */\n  dup2\n    /* \"#utility.yul\":4141:4154   */\n  lt\n    /* \"#utility.yul\":4133:4246   */\n  iszero\n  tag_102\n  jumpi\n    /* \"#utility.yul\":4232:4233   */\n  dup1\n    /* \"#utility.yul\":4227:4230   */\n  dup3\n    /* \"#utility.yul\":4223:4234   */\n  add\n    /* \"#utility.yul\":4217:4235   */\n  mload\n    /* \"#utility.yul\":4213:4214   */\n  dup2\n    /* \"#utility.yul\":4208:4211   */\n  dup5\n    /* \"#utility.yul\":4204:4215   */\n  add\n    /* \"#utility.yul\":4197:4236   */\n  mstore\n    /* \"#utility.yul\":4169:4171   */\n  0x20\n    /* \"#utility.yul\":4166:4167   */\n  dup2\n    /* \"#utility.yul\":4162:4172   */\n  add\n    /* \"#utility.yul\":4157:4172   */\n  swap1\n  pop\n    /* \"#utility.yul\":4133:4246   */\n  jump(tag_100)\ntag_102:\n    /* \"#utility.yul\":4264:4270   */\n  dup4\n    /* \"#utility.yul\":4261:4262   */\n  dup2\n    /* \"#utility.yul\":4258:4271   */\n  gt\n    /* \"#utility.yul\":4255:4356   */\n  iszero\n  tag_103\n  jumpi\n    /* \"#utility.yul\":4344:4345   */\n  0x00\n    /* \"#utility.yul\":4335:4341   */\n  dup5\n    /* \"#utility.yul\":4330:4333   */\n  dup5\n    /* \"#utility.yul\":4326:4342   */\n  add\n    /* \"#utility.yul\":4319:4346   */\n  mstore\n    /* \"#utility.yul\":4255:4356   */\ntag_103:\n    /* \"#utility.yul\":4104:4362   */\n  pop\n    /* \"#utility.yul\":4055:4362   */\n  pop\n  pop\n  pop\n  jump\t// out\n    /* \"#utility.yul\":4368:4688   */\ntag_22:\n    /* \"#utility.yul\":4412:4418   */\n  0x00\n    /* \"#utility.yul\":4449:4450   */\n  0x02\n    /* \"#utility.yul\":4443:4447   */\n  dup3\n    /* \"#utility.yul\":4439:4451   */\n  div\n    /* \"#utility.yul\":4429:4451   */\n  swap1\n  pop\n    /* \"#utility.yul\":4496:4497   */\n  0x01\n    /* \"#utility.yul\":4490:4494   */\n  dup3\n    /* \"#utility.yul\":4486:4498   */\n  and\n    /* \"#utility.yul\":4517:4535   */\n  dup1\n    /* \"#utility.yul\":4507:4588   */\n  tag_105\n  jumpi\n    /* \"#utility.yul\":4573:4577   */\n  0x7f\n    /* \"#utility.yul\":4565:4571   */\n  dup3\n    /* \"#utility.yul\":4561:4578   */\n  and\n    /* \"#utility.yul\":4551:4578   */\n  swap2\n  pop\n    /* \"#utility.yul\":4507:4588   */\ntag_105:\n    /* \"#utility.yul\":4635:4637   */\n  0x20\n    /* \"#utility.yul\":4627:4633   */\n  dup3\n    /* \"#utility.yul\":4624:4638   */\n  lt\n    /* \"#utility.yul\":4604:4622   */\n  dup2\n    /* \"#utility.yul\":4601:4639   */\n  eq\n    /* \"#utility.yul\":4598:4682   */\n  iszero\n  tag_106\n  jumpi\n    /* \"#utility.yul\":4654:4672   */\n  tag_107\n  tag_108\n  jump\t// in\ntag_107:\n    /* \"#utility.yul\":4598:4682   */\ntag_106:\n    /* \"#utility.yul\":4419:4688   */\n  pop\n    /* \"#utility.yul\":4368:4688   */\n  swap2\n  swap1\n  pop\n  jump\t// out\n    /* \"#utility.yul\":4694:4975   */\ntag_86:\n    /* \"#utility.yul\":4777:4804   */\n  tag_110\n    /* \"#utility.yul\":4799:4803   */\n  dup3\n    /* \"#utility.yul\":4777:4804   */\n  tag_96\n  jump\t// in\ntag_110:\n    /* \"#utility.yul\":4769:4775   */\n  dup2\n    /* \"#utility.yul\":4765:4805   */\n  add\n    /* \"#utility.yul\":4907:4913   */\n  dup2\n    /* \"#utility.yul\":4895:4905   */\n  dup2\n    /* \"#utility.yul\":4892:4914   */\n  lt\n    /* \"#utility.yul\":4871:4889   */\n  0xffffffffffffffff\n    /* \"#utility.yul\":4859:4869   */\n  dup3\n    /* \"#utility.yul\":4856:4890   */\n  gt\n    /* \"#utility.yul\":4853:4915   */\n  or\n    /* \"#utility.yul\":4850:4938   */\n  iszero\n  tag_111\n  jumpi\n    /* \"#utility.yul\":4918:4936   */\n  tag_112\n  tag_91\n  jump\t// in\ntag_112:\n    /* \"#utility.yul\":4850:4938   */\ntag_111:\n    /* \"#utility.yul\":4958:4968   */\n  dup1\n    /* \"#utility.yul\":4954:4956   */\n  0x40\n    /* \"#utility.yul\":4947:4969   */\n  mstore\n    /* \"#utility.yul\":4737:4975   */\n  pop\n    /* \"#utility.yul\":4694:4975   */\n  pop\n  pop\n  jump\t// out\n    /* \"#utility.yul\":4981:5214   */\ntag_20:\n    /* \"#utility.yul\":5020:5023   */\n  0x00\n    /* \"#utility.yul\":5043:5067   */\n  tag_114\n    /* \"#utility.yul\":5061:5066   */\n  dup3\n    /* \"#utility.yul\":5043:5067   */\n  tag_97\n  jump\t// in\ntag_114:\n    /* \"#utility.yul\":5034:5067   */\n  swap2\n  pop\n    /* \"#utility.yul\":5089:5155   */\n  0xffffffffffffffffffffffffffffffffffffffffffffffffffffffffffffffff\n    /* \"#utility.yul\":5082:5087   */\n  dup3\n    /* \"#utility.yul\":5079:5156   */\n  eq\n    /* \"#utility.yul\":5076:5179   */\n  iszero\n  tag_115\n  jumpi\n    /* \"#utility.yul\":5159:5177   */\n  tag_116\n  tag_117\n  jump\t// in\ntag_116:\n    /* \"#utility.yul\":5076:5179   */\ntag_115:\n    /* \"#utility.yul\":5206:5207   */\n  0x01\n    /* \"#utility.yul\":5199:5204   */\n  dup3\n    /* \"#utility.yul\":5195:5208   */\n  add\n    /* \"#utility.yul\":5188:5208   */\n  swap1\n  pop\n    /* \"#utility.yul\":4981:5214   */\n  swap2\n  swap1\n  pop\n  jump\t// out\n    /* \"#utility.yul\":5220:5400   */\ntag_117:\n    /* \"#utility.yul\":5268:5345   */\n  0x4e487b7100000000000000000000000000000000000000000000000000000000\n    /* \"#utility.yul\":5265:5266   */\n  0x00\n    /* \"#utility.yul\":5258:5346   */\n  mstore\n    /* \"#utility.yul\":5365:5369   */\n  0x11\n    /* \"#utility.yul\":5362:5363   */\n  0x04\n    /* \"#utility.yul\":5355:5370   */\n  mstore\n    /* \"#utility.yul\":5389:5393   */\n  0x24\n    /* \"#utility.yul\":5386:5387   */\n  0x00\n    /* \"#utility.yul\":5379:5394   */\n  revert\n    /* \"#utility.yul\":5406:5586   */\ntag_108:\n    /* \"#utility.yul\":5454:5531   */\n  0x4e487b7100000000000000000000000000000000000000000000000000000000\n    /* \"#utility.yul\":5451:5452   */\n  0x00\n    /* \"#utility.yul\":5444:5532   */\n  mstore\n    /* \"#utility.yul\":5551:5555   */\n  0x22\n    /* \"#utility.yul\":5548:5549   */\n  0x04\n    /* \"#utility.yul\":5541:5556   */\n  mstore\n    /* \"#utility.yul\":5575:5579   */\n  0x24\n    /* \"#utility.yul\":5572:5573   */\n  0x00\n    /* \"#utility.yul\":5565:5580   */\n  revert\n    /* \"#utility.yul\":5592:5772   */\ntag_15:\n    /* \"#utility.yul\":5640:5717   */\n  0x4e487b7100000000000000000000000000000000000000000000000000000000\n    /* \"#utility.yul\":5637:5638   */\n  0x00\n    /* \"#utility.yul\":5630:5718   */\n  mstore\n    /* \"#utility.yul\":5737:5741   */\n  0x32\n    /* \"#utility.yul\":5734:5735   */\n  0x04\n    /* \"#utility.yul\":5727:5742   */\n  mstore\n    /* \"#utility.yul\":5761:5765   */\n  0x24\n    /* \"#utility.yul\":5758:5759   */\n  0x00\n    /* \"#utility.yul\":5751:5766   */\n  revert\n    /* \"#utility.yul\":5778:5958   */\ntag_91:\n    /* \"#utility.yul\":5826:5903   */\n  0x4e487b7100000000000000000000000000000000000000000000000000000000\n    /* \"#utility.yul\":5823:5824   */\n  0x00\n    /* \"#utility.yul\":5816:5904   */\n  mstore\n    /* \"#utility.yul\":5923:5927   */\n  0x41\n    /* \"#utility.yul\":5920:5921   */\n  0x04\n    /* \"#utility.yul\":5913:5928   */\n  mstore\n    /* \"#utility.yul\":5947:5951   */\n  0x24\n    /* \"#utility.yul\":5944:5945   */\n  0x00\n    /* \"#utility.yul\":5937:5952   */\n  revert\n    /* \"#utility.yul\":5964:6081   */\ntag_47:\n    /* \"#utility.yul\":6073:6074   */\n  0x00\n    /* \"#utility.yul\":6070:6071   */\n  dup1\n    /* \"#utility.yul\":6063:6075   */\n  revert\n    /* \"#utility.yul\":6087:6204   */\ntag_41:\n    /* \"#utility.yul\":6196:6197   */\n  0x00\n    /* \"#utility.yul\":6193:6194   */\n  dup1\n    /* \"#utility.yul\":6186:6198   */\n  revert\n    /* \"#utility.yul\":6210:6327   */\ntag_57:\n    /* \"#utility.yul\":6319:6320   */\n  0x00\n    /* \"#utility.yul\":6316:6317   */\n  dup1\n    /* \"#utility.yul\":6309:6321   */\n  revert\n    /* \"#utility.yul\":6333:6450   */\ntag_79:\n    /* \"#utility.yul\":6442:6443   */\n  0x00\n    /* \"#utility.yul\":6439:6440   */\n  dup1\n    /* \"#utility.yul\":6432:6444   */\n  revert\n    /* \"#utility.yul\":6456:6573   */\ntag_76:\n    /* \"#utility.yul\":6565:6566   */\n  0x00\n    /* \"#utility.yul\":6562:6563   */\n  dup1\n    /* \"#utility.yul\":6555:6567   */\n  revert\n    /* \"#utility.yul\":6579:6681   */\ntag_96:\n    /* \"#utility.yul\":6620:6626   */\n  0x00\n    /* \"#utility.yul\":6671:6673   */\n  0x1f\n    /* \"#utility.yul\":6667:6674   */\n  not\n    /* \"#utility.yul\":6662:6664   */\n  0x1f\n    /* \"#utility.yul\":6655:6660   */\n  dup4\n    /* \"#utility.yul\":6651:6665   */\n  add\n    /* \"#utility.yul\":6647:6675   */\n  and\n    /* \"#utility.yul\":6637:6675   */\n  swap1\n  pop\n    /* \"#utility.yul\":6579:6681   */\n  swap2\n  swap1\n  pop\n  jump\t// out\n    /* \"#utility.yul\":6687:6809   */\ntag_72:\n    /* \"#utility.yul\":6760:6784   */\n  tag_129\n    /* \"#utility.yul\":6778:6783   */\n  dup2\n    /* \"#utility.yul\":6760:6784   */\n  tag_97\n  jump\t// in\ntag_129:\n    /* \"#utility.yul\":6753:6758   */\n  dup2\n    /* \"#utility.yul\":6750:6785   */\n  eq\n    /* \"#utility.yul\":6740:6803   */\n  tag_130\n  jumpi\n    /* \"#utility.yul\":6799:6800   */\n  0x00\n    /* \"#utility.yul\":6796:6797   */\n  dup1\n    /* \"#utility.yul\":6789:6801   */\n  revert\n    /* \"#utility.yul\":6740:6803   */\ntag_130:\n    /* \"#utility.yul\":6687:6809   */\n  pop\n  jump\t// out\n    /* \"contracts/Ballot/Ballot.sol\":70:7484  contract MyBallot {\r... */\ntag_8:\n  dataSize(sub_0)\n  dup1\n  dataOffset(sub_0)\n  0x00\n  codecopy\n  0x00\n  return\nstop\n\nsub_0: assembly {\n        /* \"contracts/Ballot/Ballot.sol\":70:7484  contract MyBallot {\r... */\n      mstore(0x40, 0x80)\n      callvalue\n      dup1\n      iszero\n      tag_1\n      jumpi\n      0x00\n      dup1\n      revert\n    tag_1:\n      pop\n      jumpi(tag_2, lt(calldatasize, 0x04))\n      shr(0xe0, calldataload(0x00))\n      dup1\n      0x68957b20\n      gt\n      tag_11\n      jumpi\n      dup1\n      0x68957b20\n      eq\n      tag_7\n      jumpi\n      dup1\n      0x7a36b3ee\n      eq\n      tag_8\n      jumpi\n      dup1\n      0xa3ec138d\n      eq\n      tag_9\n      jumpi\n      dup1\n      0xf927cc29\n      eq\n      tag_10\n      jumpi\n      jump(tag_2)\n    tag_11:\n      dup1\n      0x011d1023\n      eq\n      tag_3\n      jumpi\n      dup1\n      0x27d3410c\n      eq\n      tag_4\n      jumpi\n      dup1\n      0x2bfda515\n      eq\n      tag_5\n      jumpi\n      dup1\n      0x3477ee2e\n      eq\n      tag_6\n      jumpi\n    tag_2:\n      0x00\n      dup1\n      revert\n        /* \"contracts/Ballot/Ballot.sol\":5958:6365  function getCandidatesListName() public view returns (string[] memory) {\r... */\n    tag_3:\n      tag_12\n      tag_13\n      jump\t// in\n    tag_12:\n      mload(0x40)\n      tag_14\n      swap2\n      swap1\n      tag_15\n      jump\t// in\n    tag_14:\n      mload(0x40)\n      dup1\n      swap2\n      sub\n      swap1\n      return\n        /* \"contracts/Ballot/Ballot.sol\":2968:3642  function vote(string memory _nameProject, bool isCandidateExist) public voteModifierBefore(msg.sender) voteModifierAfter(isCandidateExist){\r... */\n    tag_4:\n      tag_16\n      0x04\n      dup1\n      calldatasize\n      sub\n      dup2\n      add\n      swap1\n      tag_17\n      swap2\n      swap1\n      tag_18\n      jump\t// in\n    tag_17:\n      tag_19\n      jump\t// in\n    tag_16:\n      stop\n        /* \"contracts/Ballot/Ballot.sol\":3650:3913  function getWinnerName() public view returns (string memory winnerName, address) {\r... */\n    tag_5:\n      tag_20\n      tag_21\n      jump\t// in\n    tag_20:\n      mload(0x40)\n      tag_22\n      swap3\n      swap2\n      swap1\n      tag_23\n      jump\t// in\n    tag_22:\n      mload(0x40)\n      dup1\n      swap2\n      sub\n      swap1\n      return\n        /* \"contracts/Ballot/Ballot.sol\":402:431  Candidate[] public candidates */\n    tag_6:\n      tag_24\n      0x04\n      dup1\n      calldatasize\n      sub\n      dup2\n      add\n      swap1\n      tag_25\n      swap2\n      swap1\n      tag_26\n      jump\t// in\n    tag_25:\n      tag_27\n      jump\t// in\n    tag_24:\n      mload(0x40)\n      tag_28\n      swap3\n      swap2\n      swap1\n      tag_29\n      jump\t// in\n    tag_28:\n      mload(0x40)\n      dup1\n      swap2\n      sub\n      swap1\n      return\n        /* \"contracts/Ballot/Ballot.sol\":2734:2960  function giveRightToVote(address voterAddress, string memory _nameVoter) public giveRightToVoteModifier(voterAddress) {\r... */\n    tag_7:\n      tag_30\n      0x04\n      dup1\n      calldatasize\n      sub\n      dup2\n      add\n      swap1\n      tag_31\n      swap2\n      swap1\n      tag_32\n      jump\t// in\n    tag_31:\n      tag_33\n      jump\t// in\n    tag_30:\n      stop\n        /* \"contracts/Ballot/Ballot.sol\":7317:7481  function concatenateStrings(string memory s1, string memory s2) public pure returns (string memory) {\r... */\n    tag_8:\n      tag_34\n      0x04\n      dup1\n      calldatasize\n      sub\n      dup2\n      add\n      swap1\n      tag_35\n      swap2\n      swap1\n      tag_36\n      jump\t// in\n    tag_35:\n      tag_37\n      jump\t// in\n    tag_34:\n      mload(0x40)\n      tag_38\n      swap2\n      swap1\n      tag_39\n      jump\t// in\n    tag_38:\n      mload(0x40)\n      dup1\n      swap2\n      sub\n      swap1\n      return\n        /* \"contracts/Ballot/Ballot.sol\":354:393  mapping(address => Voter) public voters */\n    tag_9:\n      tag_40\n      0x04\n      dup1\n      calldatasize\n      sub\n      dup2\n      add\n      swap1\n      tag_41\n      swap2\n      swap1\n      tag_42\n      jump\t// in\n    tag_41:\n      tag_43\n      jump\t// in\n    tag_40:\n      mload(0x40)\n      tag_44\n      swap4\n      swap3\n      swap2\n      swap1\n      tag_45\n      jump\t// in\n    tag_44:\n      mload(0x40)\n      dup1\n      swap2\n      sub\n      swap1\n      return\n        /* \"contracts/Ballot/Ballot.sol\":3921:5950  function getWinningCandidate() public view returns (Candidate memory winningCandidate) {        \r... */\n    tag_10:\n      tag_46\n      tag_47\n      jump\t// in\n    tag_46:\n      mload(0x40)\n      tag_48\n      swap2\n      swap1\n      tag_49\n      jump\t// in\n    tag_48:\n      mload(0x40)\n      dup1\n      swap2\n      sub\n      swap1\n      return\n        /* \"contracts/Ballot/Ballot.sol\":5958:6365  function getCandidatesListName() public view returns (string[] memory) {\r... */\n    tag_13:\n        /* \"contracts/Ballot/Ballot.sol\":6012:6027  string[] memory */\n      0x60\n        /* \"contracts/Ballot/Ballot.sol\":6040:6061  uint candidatesLength */\n      0x00\n        /* \"contracts/Ballot/Ballot.sol\":6064:6074  candidates */\n      0x02\n        /* \"contracts/Ballot/Ballot.sol\":6064:6081  candidates.length */\n      dup1\n      sload\n      swap1\n      pop\n        /* \"contracts/Ballot/Ballot.sol\":6040:6081  uint candidatesLength = candidates.length */\n      swap1\n      pop\n        /* \"contracts/Ballot/Ballot.sol\":6092:6126  string[] memory candidatesListName */\n      0x00\n        /* \"contracts/Ballot/Ballot.sol\":6142:6158  candidatesLength */\n      dup2\n        /* \"contracts/Ballot/Ballot.sol\":6129:6159  new string[](candidatesLength) */\n      0xffffffffffffffff\n      dup2\n      gt\n      iszero\n      tag_51\n      jumpi\n      tag_52\n      tag_53\n      jump\t// in\n    tag_52:\n    tag_51:\n      mload(0x40)\n      swap1\n      dup1\n      dup3\n      mstore\n      dup1\n      0x20\n      mul\n      0x20\n      add\n      dup3\n      add\n      0x40\n      mstore\n      dup1\n      iszero\n      tag_54\n      jumpi\n      dup2\n      0x20\n      add\n    tag_55:\n      0x60\n      dup2\n      mstore\n      0x20\n      add\n      swap1\n      0x01\n      swap1\n      sub\n      swap1\n      dup2\n      tag_55\n      jumpi\n      swap1\n      pop\n    tag_54:\n      pop\n        /* \"contracts/Ballot/Ballot.sol\":6092:6159  string[] memory candidatesListName = new string[](candidatesLength) */\n      swap1\n      pop\n        /* \"contracts/Ballot/Ballot.sol\":6185:6195  uint index */\n      0x00\n        /* \"contracts/Ballot/Ballot.sol\":6180:6320  for (uint index = 0; index < candidatesLength; index++) {\r... */\n    tag_56:\n        /* \"contracts/Ballot/Ballot.sol\":6209:6225  candidatesLength */\n      dup3\n        /* \"contracts/Ballot/Ballot.sol\":6201:6206  index */\n      dup2\n        /* \"contracts/Ballot/Ballot.sol\":6201:6225  index < candidatesLength */\n      lt\n        /* \"contracts/Ballot/Ballot.sol\":6180:6320  for (uint index = 0; index < candidatesLength; index++) {\r... */\n      iszero\n      tag_57\n      jumpi\n        /* \"contracts/Ballot/Ballot.sol\":6279:6289  candidates */\n      0x02\n        /* \"contracts/Ballot/Ballot.sol\":6290:6295  index */\n      dup2\n        /* \"contracts/Ballot/Ballot.sol\":6279:6296  candidates[index] */\n      dup2\n      sload\n      dup2\n      lt\n      tag_59\n      jumpi\n      tag_60\n      tag_61\n      jump\t// in\n    tag_60:\n    tag_59:\n      swap1\n      0x00\n      mstore\n      keccak256(0x00, 0x20)\n      swap1\n      0x02\n      mul\n      add\n        /* \"contracts/Ballot/Ballot.sol\":6279:6308  candidates[index].nameProject */\n      0x00\n      add\n        /* \"contracts/Ballot/Ballot.sol\":6251:6308  candidatesListName[index] = candidates[index].nameProject */\n      dup1\n      sload\n      tag_63\n      swap1\n      tag_64\n      jump\t// in\n    tag_63:\n      dup1\n      0x1f\n      add\n      0x20\n      dup1\n      swap2\n      div\n      mul\n      0x20\n      add\n      mload(0x40)\n      swap1\n      dup2\n      add\n      0x40\n      mstore\n      dup1\n      swap3\n      swap2\n      swap1\n      dup2\n      dup2\n      mstore\n      0x20\n      add\n      dup3\n      dup1\n      sload\n      tag_65\n      swap1\n      tag_64\n      jump\t// in\n    tag_65:\n      dup1\n      iszero\n      tag_66\n      jumpi\n      dup1\n      0x1f\n      lt\n      tag_67\n      jumpi\n      0x0100\n      dup1\n      dup4\n      sload\n      div\n      mul\n      dup4\n      mstore\n      swap2\n      0x20\n      add\n      swap2\n      jump(tag_66)\n    tag_67:\n      dup3\n      add\n      swap2\n      swap1\n      0x00\n      mstore\n      keccak256(0x00, 0x20)\n      swap1\n    tag_68:\n      dup2\n      sload\n      dup2\n      mstore\n      swap1\n      0x01\n      add\n      swap1\n      0x20\n      add\n      dup1\n      dup4\n      gt\n      tag_68\n      jumpi\n      dup3\n      swap1\n      sub\n      0x1f\n      and\n      dup3\n      add\n      swap2\n    tag_66:\n      pop\n      pop\n      pop\n      pop\n      pop\n        /* \"contracts/Ballot/Ballot.sol\":6251:6269  candidatesListName */\n      dup3\n        /* \"contracts/Ballot/Ballot.sol\":6270:6275  index */\n      dup3\n        /* \"contracts/Ballot/Ballot.sol\":6251:6276  candidatesListName[index] */\n      dup2\n      mload\n      dup2\n      lt\n      tag_69\n      jumpi\n      tag_70\n      tag_61\n      jump\t// in\n    tag_70:\n    tag_69:\n      0x20\n      mul\n      0x20\n      add\n      add\n        /* \"contracts/Ballot/Ballot.sol\":6251:6308  candidatesListName[index] = candidates[index].nameProject */\n      dup2\n      swap1\n      mstore\n      pop\n        /* \"contracts/Ballot/Ballot.sol\":6227:6234  index++ */\n      dup1\n      dup1\n      tag_71\n      swap1\n      tag_72\n      jump\t// in\n    tag_71:\n      swap2\n      pop\n      pop\n        /* \"contracts/Ballot/Ballot.sol\":6180:6320  for (uint index = 0; index < candidatesLength; index++) {\r... */\n      jump(tag_56)\n    tag_57:\n      pop\n        /* \"contracts/Ballot/Ballot.sol\":6339:6357  candidatesListName */\n      dup1\n        /* \"contracts/Ballot/Ballot.sol\":6332:6357  return candidatesListName */\n      swap3\n      pop\n      pop\n      pop\n        /* \"contracts/Ballot/Ballot.sol\":5958:6365  function getCandidatesListName() public view returns (string[] memory) {\r... */\n      swap1\n      jump\t// out\n        /* \"contracts/Ballot/Ballot.sol\":2968:3642  function vote(string memory _nameProject, bool isCandidateExist) public voteModifierBefore(msg.sender) voteModifierAfter(isCandidateExist){\r... */\n    tag_19:\n        /* \"contracts/Ballot/Ballot.sol\":3059:3069  msg.sender */\n      caller\n        /* \"contracts/Ballot/Ballot.sol\":1436:1472  getTotalVotesCounterReachedRequire() */\n      tag_74\n        /* \"contracts/Ballot/Ballot.sol\":1436:1470  getTotalVotesCounterReachedRequire */\n      tag_75\n        /* \"contracts/Ballot/Ballot.sol\":1436:1472  getTotalVotesCounterReachedRequire() */\n      jump\t// in\n    tag_74:\n        /* \"contracts/Ballot/Ballot.sol\":1505:1528  areYouHaveRigthToVote() */\n      tag_76\n        /* \"contracts/Ballot/Ballot.sol\":1505:1526  areYouHaveRigthToVote */\n      tag_77\n        /* \"contracts/Ballot/Ballot.sol\":1505:1528  areYouHaveRigthToVote() */\n      jump\t// in\n    tag_76:\n        /* \"contracts/Ballot/Ballot.sol\":1483:1583  require(\r... */\n      tag_78\n      jumpi\n      mload(0x40)\n      0x08c379a000000000000000000000000000000000000000000000000000000000\n      dup2\n      mstore\n      0x04\n      add\n      tag_79\n      swap1\n      tag_80\n      jump\t// in\n    tag_79:\n      mload(0x40)\n      dup1\n      swap2\n      sub\n      swap1\n      revert\n    tag_78:\n        /* \"contracts/Ballot/Ballot.sol\":1594:1628  getVoterVotedRequire(voterAddress) */\n      tag_81\n        /* \"contracts/Ballot/Ballot.sol\":1615:1627  voterAddress */\n      dup2\n        /* \"contracts/Ballot/Ballot.sol\":1594:1614  getVoterVotedRequire */\n      tag_82\n        /* \"contracts/Ballot/Ballot.sol\":1594:1628  getVoterVotedRequire(voterAddress) */\n      jump\t// in\n    tag_81:\n        /* \"contracts/Ballot/Ballot.sol\":3089:3105  isCandidateExist */\n      dup2\n        /* \"contracts/Ballot/Ballot.sol\":3117:3137  Voter storage sender */\n      0x00\n        /* \"contracts/Ballot/Ballot.sol\":3140:3146  voters */\n      0x01\n        /* \"contracts/Ballot/Ballot.sol\":3140:3158  voters[msg.sender] */\n      0x00\n        /* \"contracts/Ballot/Ballot.sol\":3147:3157  msg.sender */\n      caller\n        /* \"contracts/Ballot/Ballot.sol\":3140:3158  voters[msg.sender] */\n      0xffffffffffffffffffffffffffffffffffffffff\n      and\n      0xffffffffffffffffffffffffffffffffffffffff\n      and\n      dup2\n      mstore\n      0x20\n      add\n      swap1\n      dup2\n      mstore\n      0x20\n      add\n      0x00\n      keccak256\n        /* \"contracts/Ballot/Ballot.sol\":3117:3158  Voter storage sender = voters[msg.sender] */\n      swap1\n      pop\n        /* \"contracts/Ballot/Ballot.sol\":3260:3281  bool isCandidateExist */\n      0x00\n        /* \"contracts/Ballot/Ballot.sol\":3307:3317  uint index */\n      dup1\n        /* \"contracts/Ballot/Ballot.sol\":3320:3321  0 */\n      0x00\n        /* \"contracts/Ballot/Ballot.sol\":3307:3321  uint index = 0 */\n      swap1\n      pop\n        /* \"contracts/Ballot/Ballot.sol\":3302:3635  for (uint index = 0; index < candidates.length; index++) {\r... */\n    tag_85:\n        /* \"contracts/Ballot/Ballot.sol\":3331:3341  candidates */\n      0x02\n        /* \"contracts/Ballot/Ballot.sol\":3331:3348  candidates.length */\n      dup1\n      sload\n      swap1\n      pop\n        /* \"contracts/Ballot/Ballot.sol\":3323:3328  index */\n      dup2\n        /* \"contracts/Ballot/Ballot.sol\":3323:3348  index < candidates.length */\n      lt\n        /* \"contracts/Ballot/Ballot.sol\":3302:3635  for (uint index = 0; index < candidates.length; index++) {\r... */\n      iszero\n      tag_86\n      jumpi\n        /* \"contracts/Ballot/Ballot.sol\":3378:3436  stringEqualTo(candidates[index].nameProject, _nameProject) */\n      tag_88\n        /* \"contracts/Ballot/Ballot.sol\":3392:3402  candidates */\n      0x02\n        /* \"contracts/Ballot/Ballot.sol\":3403:3408  index */\n      dup3\n        /* \"contracts/Ballot/Ballot.sol\":3392:3409  candidates[index] */\n      dup2\n      sload\n      dup2\n      lt\n      tag_89\n      jumpi\n      tag_90\n      tag_61\n      jump\t// in\n    tag_90:\n    tag_89:\n      swap1\n      0x00\n      mstore\n      keccak256(0x00, 0x20)\n      swap1\n      0x02\n      mul\n      add\n        /* \"contracts/Ballot/Ballot.sol\":3392:3421  candidates[index].nameProject */\n      0x00\n      add\n        /* \"contracts/Ballot/Ballot.sol\":3378:3436  stringEqualTo(candidates[index].nameProject, _nameProject) */\n      dup1\n      sload\n      tag_92\n      swap1\n      tag_64\n      jump\t// in\n    tag_92:\n      dup1\n      0x1f\n      add\n      0x20\n      dup1\n      swap2\n      div\n      mul\n      0x20\n      add\n      mload(0x40)\n      swap1\n      dup2\n      add\n      0x40\n      mstore\n      dup1\n      swap3\n      swap2\n      swap1\n      dup2\n      dup2\n      mstore\n      0x20\n      add\n      dup3\n      dup1\n      sload\n      tag_93\n      swap1\n      tag_64\n      jump\t// in\n    tag_93:\n      dup1\n      iszero\n      tag_94\n      jumpi\n      dup1\n      0x1f\n      lt\n      tag_95\n      jumpi\n      0x0100\n      dup1\n      dup4\n      sload\n      div\n      mul\n      dup4\n      mstore\n      swap2\n      0x20\n      add\n      swap2\n      jump(tag_94)\n    tag_95:\n      dup3\n      add\n      swap2\n      swap1\n      0x00\n      mstore\n      keccak256(0x00, 0x20)\n      swap1\n    tag_96:\n      dup2\n      sload\n      dup2\n      mstore\n      swap1\n      0x01\n      add\n      swap1\n      0x20\n      add\n      dup1\n      dup4\n      gt\n      tag_96\n      jumpi\n      dup3\n      swap1\n      sub\n      0x1f\n      and\n      dup3\n      add\n      swap2\n    tag_94:\n      pop\n      pop\n      pop\n      pop\n      pop\n        /* \"contracts/Ballot/Ballot.sol\":3423:3435  _nameProject */\n      dup9\n        /* \"contracts/Ballot/Ballot.sol\":3378:3391  stringEqualTo */\n      tag_97\n        /* \"contracts/Ballot/Ballot.sol\":3378:3436  stringEqualTo(candidates[index].nameProject, _nameProject) */\n      jump\t// in\n    tag_88:\n        /* \"contracts/Ballot/Ballot.sol\":3374:3624  if (stringEqualTo(candidates[index].nameProject, _nameProject)) {\r... */\n      iszero\n      tag_98\n      jumpi\n        /* \"contracts/Ballot/Ballot.sol\":3457:3467  candidates */\n      0x02\n        /* \"contracts/Ballot/Ballot.sol\":3468:3473  index */\n      dup2\n        /* \"contracts/Ballot/Ballot.sol\":3457:3474  candidates[index] */\n      dup2\n      sload\n      dup2\n      lt\n      tag_99\n      jumpi\n      tag_100\n      tag_61\n      jump\t// in\n    tag_100:\n    tag_99:\n      swap1\n      0x00\n      mstore\n      keccak256(0x00, 0x20)\n      swap1\n      0x02\n      mul\n      add\n        /* \"contracts/Ballot/Ballot.sol\":3457:3485  candidates[index].votesCount */\n      0x01\n      add\n      0x00\n        /* \"contracts/Ballot/Ballot.sol\":3457:3487  candidates[index].votesCount++ */\n      dup2\n      sload\n      dup1\n      swap3\n      swap2\n      swap1\n      tag_102\n      swap1\n      tag_72\n      jump\t// in\n    tag_102:\n      swap2\n      swap1\n      pop\n      sstore\n      pop\n        /* \"contracts/Ballot/Ballot.sol\":3524:3528  true */\n      0x01\n        /* \"contracts/Ballot/Ballot.sol\":3506:3512  sender */\n      dup4\n        /* \"contracts/Ballot/Ballot.sol\":3506:3521  sender.hasVoted */\n      0x01\n      add\n      0x01\n        /* \"contracts/Ballot/Ballot.sol\":3506:3528  sender.hasVoted = true */\n      0x0100\n      exp\n      dup2\n      sload\n      dup2\n      0xff\n      mul\n      not\n      and\n      swap1\n      dup4\n      iszero\n      iszero\n      mul\n      or\n      swap1\n      sstore\n      pop\n        /* \"contracts/Ballot/Ballot.sol\":3547:3564  totalVotesCounter */\n      0x03\n      0x00\n        /* \"contracts/Ballot/Ballot.sol\":3547:3566  totalVotesCounter++ */\n      dup2\n      sload\n      dup1\n      swap3\n      swap2\n      swap1\n      tag_103\n      swap1\n      tag_72\n      jump\t// in\n    tag_103:\n      swap2\n      swap1\n      pop\n      sstore\n      pop\n        /* \"contracts/Ballot/Ballot.sol\":3604:3608  true */\n      0x01\n        /* \"contracts/Ballot/Ballot.sol\":3585:3608  isCandidateExist = true */\n      swap2\n      pop\n        /* \"contracts/Ballot/Ballot.sol\":3374:3624  if (stringEqualTo(candidates[index].nameProject, _nameProject)) {\r... */\n    tag_98:\n        /* \"contracts/Ballot/Ballot.sol\":3350:3357  index++ */\n      dup1\n      dup1\n      tag_104\n      swap1\n      tag_72\n      jump\t// in\n    tag_104:\n      swap2\n      pop\n      pop\n        /* \"contracts/Ballot/Ballot.sol\":3302:3635  for (uint index = 0; index < candidates.length; index++) {\r... */\n      jump(tag_85)\n    tag_86:\n      pop\n        /* \"contracts/Ballot/Ballot.sol\":3106:3642  {\r... */\n      pop\n      pop\n        /* \"contracts/Ballot/Ballot.sol\":1728:1760  isCandidateExistRequire(isExist) */\n      tag_105\n        /* \"contracts/Ballot/Ballot.sol\":1752:1759  isExist */\n      dup2\n        /* \"contracts/Ballot/Ballot.sol\":1728:1751  isCandidateExistRequire */\n      tag_106\n        /* \"contracts/Ballot/Ballot.sol\":1728:1760  isCandidateExistRequire(isExist) */\n      jump\t// in\n    tag_105:\n        /* \"contracts/Ballot/Ballot.sol\":1639:1640  _ */\n      pop\n        /* \"contracts/Ballot/Ballot.sol\":2968:3642  function vote(string memory _nameProject, bool isCandidateExist) public voteModifierBefore(msg.sender) voteModifierAfter(isCandidateExist){\r... */\n      pop\n      pop\n      pop\n      jump\t// out\n        /* \"contracts/Ballot/Ballot.sol\":3650:3913  function getWinnerName() public view returns (string memory winnerName, address) {\r... */\n    tag_21:\n        /* \"contracts/Ballot/Ballot.sol\":3696:3720  string memory winnerName */\n      0x60\n        /* \"contracts/Ballot/Ballot.sol\":3722:3729  address */\n      0x00\n        /* \"contracts/Ballot/Ballot.sol\":3743:3776  Candidate memory winningCandidate */\n      dup1\n        /* \"contracts/Ballot/Ballot.sol\":3780:3801  getWinningCandidate() */\n      tag_108\n        /* \"contracts/Ballot/Ballot.sol\":3780:3799  getWinningCandidate */\n      tag_47\n        /* \"contracts/Ballot/Ballot.sol\":3780:3801  getWinningCandidate() */\n      jump\t// in\n    tag_108:\n        /* \"contracts/Ballot/Ballot.sol\":3742:3801  (Candidate memory winningCandidate) = getWinningCandidate() */\n      swap1\n      pop\n        /* \"contracts/Ballot/Ballot.sol\":3825:3841  winningCandidate */\n      dup1\n        /* \"contracts/Ballot/Ballot.sol\":3825:3853  winningCandidate.nameProject */\n      0x00\n      add\n      mload\n        /* \"contracts/Ballot/Ballot.sol\":3812:3853  winnerName = winningCandidate.nameProject */\n      swap3\n      pop\n        /* \"contracts/Ballot/Ballot.sol\":3872:3882  winnerName */\n      dup3\n        /* \"contracts/Ballot/Ballot.sol\":3884:3904  getContractAddress() */\n      tag_109\n        /* \"contracts/Ballot/Ballot.sol\":3884:3902  getContractAddress */\n      tag_110\n        /* \"contracts/Ballot/Ballot.sol\":3884:3904  getContractAddress() */\n      jump\t// in\n    tag_109:\n        /* \"contracts/Ballot/Ballot.sol\":3864:3905  return (winnerName, getContractAddress()) */\n      swap3\n      pop\n      swap3\n      pop\n      pop\n        /* \"contracts/Ballot/Ballot.sol\":3650:3913  function getWinnerName() public view returns (string memory winnerName, address) {\r... */\n      swap1\n      swap2\n      jump\t// out\n        /* \"contracts/Ballot/Ballot.sol\":402:431  Candidate[] public candidates */\n    tag_27:\n      0x02\n      dup2\n      dup2\n      sload\n      dup2\n      lt\n      tag_111\n      jumpi\n      0x00\n      dup1\n      revert\n    tag_111:\n      swap1\n      0x00\n      mstore\n      keccak256(0x00, 0x20)\n      swap1\n      0x02\n      mul\n      add\n      0x00\n      swap2\n      pop\n      swap1\n      pop\n      dup1\n      0x00\n      add\n      dup1\n      sload\n      tag_113\n      swap1\n      tag_64\n      jump\t// in\n    tag_113:\n      dup1\n      0x1f\n      add\n      0x20\n      dup1\n      swap2\n      div\n      mul\n      0x20\n      add\n      mload(0x40)\n      swap1\n      dup2\n      add\n      0x40\n      mstore\n      dup1\n      swap3\n      swap2\n      swap1\n      dup2\n      dup2\n      mstore\n      0x20\n      add\n      dup3\n      dup1\n      sload\n      tag_114\n      swap1\n      tag_64\n      jump\t// in\n    tag_114:\n      dup1\n      iszero\n      tag_115\n      jumpi\n      dup1\n      0x1f\n      lt\n      tag_116\n      jumpi\n      0x0100\n      dup1\n      dup4\n      sload\n      div\n      mul\n      dup4\n      mstore\n      swap2\n      0x20\n      add\n      swap2\n      jump(tag_115)\n    tag_116:\n      dup3\n      add\n      swap2\n      swap1\n      0x00\n      mstore\n      keccak256(0x00, 0x20)\n      swap1\n    tag_117:\n      dup2\n      sload\n      dup2\n      mstore\n      swap1\n      0x01\n      add\n      swap1\n      0x20\n      add\n      dup1\n      dup4\n      gt\n      tag_117\n      jumpi\n      dup3\n      swap1\n      sub\n      0x1f\n      and\n      dup3\n      add\n      swap2\n    tag_115:\n      pop\n      pop\n      pop\n      pop\n      pop\n      swap1\n      dup1\n      0x01\n      add\n      sload\n      swap1\n      pop\n      dup3\n      jump\t// out\n        /* \"contracts/Ballot/Ballot.sol\":2734:2960  function giveRightToVote(address voterAddress, string memory _nameVoter) public giveRightToVoteModifier(voterAddress) {\r... */\n    tag_33:\n        /* \"contracts/Ballot/Ballot.sol\":2838:2850  voterAddress */\n      dup2\n        /* \"contracts/Ballot/Ballot.sol\":1010:1046  getTotalVotesCounterReachedRequire() */\n      tag_119\n        /* \"contracts/Ballot/Ballot.sol\":1010:1044  getTotalVotesCounterReachedRequire */\n      tag_75\n        /* \"contracts/Ballot/Ballot.sol\":1010:1046  getTotalVotesCounterReachedRequire() */\n      jump\t// in\n    tag_119:\n        /* \"contracts/Ballot/Ballot.sol\":1079:1100  areYouContractOwner() */\n      tag_120\n        /* \"contracts/Ballot/Ballot.sol\":1079:1098  areYouContractOwner */\n      tag_121\n        /* \"contracts/Ballot/Ballot.sol\":1079:1100  areYouContractOwner() */\n      jump\t// in\n    tag_120:\n        /* \"contracts/Ballot/Ballot.sol\":1057:1175  require(\r... */\n      tag_122\n      jumpi\n      mload(0x40)\n      0x08c379a000000000000000000000000000000000000000000000000000000000\n      dup2\n      mstore\n      0x04\n      add\n      tag_123\n      swap1\n      tag_124\n      jump\t// in\n    tag_123:\n      mload(0x40)\n      dup1\n      swap2\n      sub\n      swap1\n      revert\n    tag_122:\n        /* \"contracts/Ballot/Ballot.sol\":1209:1215  voters */\n      0x01\n        /* \"contracts/Ballot/Ballot.sol\":1209:1229  voters[voterAddress] */\n      0x00\n        /* \"contracts/Ballot/Ballot.sol\":1216:1228  voterAddress */\n      dup3\n        /* \"contracts/Ballot/Ballot.sol\":1209:1229  voters[voterAddress] */\n      0xffffffffffffffffffffffffffffffffffffffff\n      and\n      0xffffffffffffffffffffffffffffffffffffffff\n      and\n      dup2\n      mstore\n      0x20\n      add\n      swap1\n      dup2\n      mstore\n      0x20\n      add\n      0x00\n      keccak256\n        /* \"contracts/Ballot/Ballot.sol\":1209:1237  voters[voterAddress].canVote */\n      0x01\n      add\n      0x00\n      swap1\n      sload\n      swap1\n      0x0100\n      exp\n      swap1\n      div\n      0xff\n      and\n        /* \"contracts/Ballot/Ballot.sol\":1208:1237  !voters[voterAddress].canVote */\n      iszero\n        /* \"contracts/Ballot/Ballot.sol\":1186:1302  require(\r... */\n      tag_125\n      jumpi\n      mload(0x40)\n      0x08c379a000000000000000000000000000000000000000000000000000000000\n      dup2\n      mstore\n      0x04\n      add\n      tag_126\n      swap1\n      tag_127\n      jump\t// in\n    tag_126:\n      mload(0x40)\n      dup1\n      swap2\n      sub\n      swap1\n      revert\n    tag_125:\n        /* \"contracts/Ballot/Ballot.sol\":1313:1347  getVoterVotedRequire(voterAddress) */\n      tag_128\n        /* \"contracts/Ballot/Ballot.sol\":1334:1346  voterAddress */\n      dup2\n        /* \"contracts/Ballot/Ballot.sol\":1313:1333  getVoterVotedRequire */\n      tag_82\n        /* \"contracts/Ballot/Ballot.sol\":1313:1347  getVoterVotedRequire(voterAddress) */\n      jump\t// in\n    tag_128:\n        /* \"contracts/Ballot/Ballot.sol\":2896:2906  _nameVoter */\n      dup2\n        /* \"contracts/Ballot/Ballot.sol\":2863:2869  voters */\n      0x01\n        /* \"contracts/Ballot/Ballot.sol\":2863:2883  voters[voterAddress] */\n      0x00\n        /* \"contracts/Ballot/Ballot.sol\":2870:2882  voterAddress */\n      dup6\n        /* \"contracts/Ballot/Ballot.sol\":2863:2883  voters[voterAddress] */\n      0xffffffffffffffffffffffffffffffffffffffff\n      and\n      0xffffffffffffffffffffffffffffffffffffffff\n      and\n      dup2\n      mstore\n      0x20\n      add\n      swap1\n      dup2\n      mstore\n      0x20\n      add\n      0x00\n      keccak256\n        /* \"contracts/Ballot/Ballot.sol\":2863:2893  voters[voterAddress].nameVoter */\n      0x00\n      add\n        /* \"contracts/Ballot/Ballot.sol\":2863:2906  voters[voterAddress].nameVoter = _nameVoter */\n      swap1\n      dup1\n      mload\n      swap1\n      0x20\n      add\n      swap1\n      tag_130\n      swap3\n      swap2\n      swap1\n      tag_131\n      jump\t// in\n    tag_130:\n      pop\n        /* \"contracts/Ballot/Ballot.sol\":2948:2952  true */\n      0x01\n        /* \"contracts/Ballot/Ballot.sol\":2917:2923  voters */\n      dup1\n        /* \"contracts/Ballot/Ballot.sol\":2917:2937  voters[voterAddress] */\n      0x00\n        /* \"contracts/Ballot/Ballot.sol\":2924:2936  voterAddress */\n      dup6\n        /* \"contracts/Ballot/Ballot.sol\":2917:2937  voters[voterAddress] */\n      0xffffffffffffffffffffffffffffffffffffffff\n      and\n      0xffffffffffffffffffffffffffffffffffffffff\n      and\n      dup2\n      mstore\n      0x20\n      add\n      swap1\n      dup2\n      mstore\n      0x20\n      add\n      0x00\n      keccak256\n        /* \"contracts/Ballot/Ballot.sol\":2917:2945  voters[voterAddress].canVote */\n      0x01\n      add\n      0x00\n        /* \"contracts/Ballot/Ballot.sol\":2917:2952  voters[voterAddress].canVote = true */\n      0x0100\n      exp\n      dup2\n      sload\n      dup2\n      0xff\n      mul\n      not\n      and\n      swap1\n      dup4\n      iszero\n      iszero\n      mul\n      or\n      swap1\n      sstore\n      pop\n        /* \"contracts/Ballot/Ballot.sol\":2734:2960  function giveRightToVote(address voterAddress, string memory _nameVoter) public giveRightToVoteModifier(voterAddress) {\r... */\n      pop\n      pop\n      pop\n      jump\t// out\n        /* \"contracts/Ballot/Ballot.sol\":7317:7481  function concatenateStrings(string memory s1, string memory s2) public pure returns (string memory) {\r... */\n    tag_37:\n        /* \"contracts/Ballot/Ballot.sol\":7402:7415  string memory */\n      0x60\n        /* \"contracts/Ballot/Ballot.sol\":7459:7461  s1 */\n      dup3\n        /* \"contracts/Ballot/Ballot.sol\":7469:7471  s2 */\n      dup3\n        /* \"contracts/Ballot/Ballot.sol\":7442:7472  abi.encodePacked(s1, \" \" , s2) */\n      add(0x20, mload(0x40))\n      tag_133\n      swap3\n      swap2\n      swap1\n      tag_134\n      jump\t// in\n    tag_133:\n      mload(0x40)\n      0x20\n      dup2\n      dup4\n      sub\n      sub\n      dup2\n      mstore\n      swap1\n      0x40\n      mstore\n        /* \"contracts/Ballot/Ballot.sol\":7428:7473  return string(abi.encodePacked(s1, \" \" , s2)) */\n      swap1\n      pop\n        /* \"contracts/Ballot/Ballot.sol\":7317:7481  function concatenateStrings(string memory s1, string memory s2) public pure returns (string memory) {\r... */\n      swap3\n      swap2\n      pop\n      pop\n      jump\t// out\n        /* \"contracts/Ballot/Ballot.sol\":354:393  mapping(address => Voter) public voters */\n    tag_43:\n      mstore(0x20, 0x01)\n      dup1\n      0x00\n      mstore\n      keccak256(0x00, 0x40)\n      0x00\n      swap2\n      pop\n      swap1\n      pop\n      dup1\n      0x00\n      add\n      dup1\n      sload\n      tag_135\n      swap1\n      tag_64\n      jump\t// in\n    tag_135:\n      dup1\n      0x1f\n      add\n      0x20\n      dup1\n      swap2\n      div\n      mul\n      0x20\n      add\n      mload(0x40)\n      swap1\n      dup2\n      add\n      0x40\n      mstore\n      dup1\n      swap3\n      swap2\n      swap1\n      dup2\n      dup2\n      mstore\n      0x20\n      add\n      dup3\n      dup1\n      sload\n      tag_136\n      swap1\n      tag_64\n      jump\t// in\n    tag_136:\n      dup1\n      iszero\n      tag_137\n      jumpi\n      dup1\n      0x1f\n      lt\n      tag_138\n      jumpi\n      0x0100\n      dup1\n      dup4\n      sload\n      div\n      mul\n      dup4\n      mstore\n      swap2\n      0x20\n      add\n      swap2\n      jump(tag_137)\n    tag_138:\n      dup3\n      add\n      swap2\n      swap1\n      0x00\n      mstore\n      keccak256(0x00, 0x20)\n      swap1\n    tag_139:\n      dup2\n      sload\n      dup2\n      mstore\n      swap1\n      0x01\n      add\n      swap1\n      0x20\n      add\n      dup1\n      dup4\n      gt\n      tag_139\n      jumpi\n      dup3\n      swap1\n      sub\n      0x1f\n      and\n      dup3\n      add\n      swap2\n    tag_137:\n      pop\n      pop\n      pop\n      pop\n      pop\n      swap1\n      dup1\n      0x01\n      add\n      0x00\n      swap1\n      sload\n      swap1\n      0x0100\n      exp\n      swap1\n      div\n      0xff\n      and\n      swap1\n      dup1\n      0x01\n      add\n      0x01\n      swap1\n      sload\n      swap1\n      0x0100\n      exp\n      swap1\n      div\n      0xff\n      and\n      swap1\n      pop\n      dup4\n      jump\t// out\n        /* \"contracts/Ballot/Ballot.sol\":3921:5950  function getWinningCandidate() public view returns (Candidate memory winningCandidate) {        \r... */\n    tag_47:\n        /* \"contracts/Ballot/Ballot.sol\":3973:4006  Candidate memory winningCandidate */\n      tag_140\n      tag_141\n      jump\t// in\n    tag_140:\n        /* \"contracts/Ballot/Ballot.sol\":4027:4048  uint winningVoteCount */\n      0x00\n        /* \"contracts/Ballot/Ballot.sol\":4059:4085  uint winningCandidateIndex */\n      dup1\n        /* \"contracts/Ballot/Ballot.sol\":4098:4119  uint candidatesLength */\n      0x00\n        /* \"contracts/Ballot/Ballot.sol\":4122:4132  candidates */\n      0x02\n        /* \"contracts/Ballot/Ballot.sol\":4122:4139  candidates.length */\n      dup1\n      sload\n      swap1\n      pop\n        /* \"contracts/Ballot/Ballot.sol\":4098:4139  uint candidatesLength = candidates.length */\n      swap1\n      pop\n        /* \"contracts/Ballot/Ballot.sol\":4160:4193  string[] memory tieCandidatesList */\n      0x00\n        /* \"contracts/Ballot/Ballot.sol\":4209:4225  candidatesLength */\n      dup2\n        /* \"contracts/Ballot/Ballot.sol\":4196:4226  new string[](candidatesLength) */\n      0xffffffffffffffff\n      dup2\n      gt\n      iszero\n      tag_143\n      jumpi\n      tag_144\n      tag_53\n      jump\t// in\n    tag_144:\n    tag_143:\n      mload(0x40)\n      swap1\n      dup1\n      dup3\n      mstore\n      dup1\n      0x20\n      mul\n      0x20\n      add\n      dup3\n      add\n      0x40\n      mstore\n      dup1\n      iszero\n      tag_145\n      jumpi\n      dup2\n      0x20\n      add\n    tag_146:\n      0x60\n      dup2\n      mstore\n      0x20\n      add\n      swap1\n      0x01\n      swap1\n      sub\n      swap1\n      dup2\n      tag_146\n      jumpi\n      swap1\n      pop\n    tag_145:\n      pop\n        /* \"contracts/Ballot/Ballot.sol\":4160:4226  string[] memory tieCandidatesList = new string[](candidatesLength) */\n      swap1\n      pop\n        /* \"contracts/Ballot/Ballot.sol\":4237:4264  uint tieCandidatesListIndex */\n      0x00\n        /* \"contracts/Ballot/Ballot.sol\":4275:4285  bool isTie */\n      dup1\n        /* \"contracts/Ballot/Ballot.sol\":4288:4292  true */\n      0x01\n        /* \"contracts/Ballot/Ballot.sol\":4275:4292  bool isTie = true */\n      swap1\n      pop\n        /* \"contracts/Ballot/Ballot.sol\":4303:4339  string memory tieCandidatesListNames */\n      0x60\n        /* \"contracts/Ballot/Ballot.sol\":4357:4376  uint indexCandidate */\n      0x00\n        /* \"contracts/Ballot/Ballot.sol\":4352:5302  for (uint indexCandidate = 0; indexCandidate < candidatesLength; indexCandidate++) {\r... */\n    tag_147:\n        /* \"contracts/Ballot/Ballot.sol\":4399:4415  candidatesLength */\n      dup6\n        /* \"contracts/Ballot/Ballot.sol\":4382:4396  indexCandidate */\n      dup2\n        /* \"contracts/Ballot/Ballot.sol\":4382:4415  indexCandidate < candidatesLength */\n      lt\n        /* \"contracts/Ballot/Ballot.sol\":4352:5302  for (uint indexCandidate = 0; indexCandidate < candidatesLength; indexCandidate++) {\r... */\n      iszero\n      tag_148\n      jumpi\n        /* \"contracts/Ballot/Ballot.sol\":4494:4510  winningVoteCount */\n      dup8\n        /* \"contracts/Ballot/Ballot.sol\":4454:4464  candidates */\n      0x02\n        /* \"contracts/Ballot/Ballot.sol\":4465:4479  indexCandidate */\n      dup3\n        /* \"contracts/Ballot/Ballot.sol\":4454:4480  candidates[indexCandidate] */\n      dup2\n      sload\n      dup2\n      lt\n      tag_150\n      jumpi\n      tag_151\n      tag_61\n      jump\t// in\n    tag_151:\n    tag_150:\n      swap1\n      0x00\n      mstore\n      keccak256(0x00, 0x20)\n      swap1\n      0x02\n      mul\n      add\n        /* \"contracts/Ballot/Ballot.sol\":4454:4491  candidates[indexCandidate].votesCount */\n      0x01\n      add\n      sload\n        /* \"contracts/Ballot/Ballot.sol\":4454:4510  candidates[indexCandidate].votesCount > winningVoteCount */\n      gt\n        /* \"contracts/Ballot/Ballot.sol\":4450:5279  if (candidates[indexCandidate].votesCount > winningVoteCount) {\r... */\n      iszero\n      tag_153\n      jumpi\n        /* \"contracts/Ballot/Ballot.sol\":4550:4560  candidates */\n      0x02\n        /* \"contracts/Ballot/Ballot.sol\":4561:4575  indexCandidate */\n      dup2\n        /* \"contracts/Ballot/Ballot.sol\":4550:4576  candidates[indexCandidate] */\n      dup2\n      sload\n      dup2\n      lt\n      tag_154\n      jumpi\n      tag_155\n      tag_61\n      jump\t// in\n    tag_155:\n    tag_154:\n      swap1\n      0x00\n      mstore\n      keccak256(0x00, 0x20)\n      swap1\n      0x02\n      mul\n      add\n        /* \"contracts/Ballot/Ballot.sol\":4550:4587  candidates[indexCandidate].votesCount */\n      0x01\n      add\n      sload\n        /* \"contracts/Ballot/Ballot.sol\":4531:4587  winningVoteCount = candidates[indexCandidate].votesCount */\n      swap8\n      pop\n        /* \"contracts/Ballot/Ballot.sol\":4630:4644  indexCandidate */\n      dup1\n        /* \"contracts/Ballot/Ballot.sol\":4606:4644  winningCandidateIndex = indexCandidate */\n      swap7\n      pop\n        /* \"contracts/Ballot/Ballot.sol\":4667:4672  isTie */\n      dup3\n        /* \"contracts/Ballot/Ballot.sol\":4663:5004  if (isTie) {\r... */\n      iszero\n      tag_157\n      jumpi\n        /* \"contracts/Ballot/Ballot.sol\":4705:4710  false */\n      0x00\n        /* \"contracts/Ballot/Ballot.sol\":4697:4710  isTie = false */\n      swap3\n      pop\n        /* \"contracts/Ballot/Ballot.sol\":4758:4759  0 */\n      0x00\n        /* \"contracts/Ballot/Ballot.sol\":4733:4759  tieCandidatesListIndex = 0 */\n      swap4\n      pop\n        /* \"contracts/Ballot/Ballot.sol\":4815:4831  candidatesLength */\n      dup6\n        /* \"contracts/Ballot/Ballot.sol\":4802:4832  new string[](candidatesLength) */\n      0xffffffffffffffff\n      dup2\n      gt\n      iszero\n      tag_158\n      jumpi\n      tag_159\n      tag_53\n      jump\t// in\n    tag_159:\n    tag_158:\n      mload(0x40)\n      swap1\n      dup1\n      dup3\n      mstore\n      dup1\n      0x20\n      mul\n      0x20\n      add\n      dup3\n      add\n      0x40\n      mstore\n      dup1\n      iszero\n      tag_160\n      jumpi\n      dup2\n      0x20\n      add\n    tag_161:\n      0x60\n      dup2\n      mstore\n      0x20\n      add\n      swap1\n      0x01\n      swap1\n      sub\n      swap1\n      dup2\n      tag_161\n      jumpi\n      swap1\n      pop\n    tag_160:\n      pop\n        /* \"contracts/Ballot/Ballot.sol\":4782:4832  tieCandidatesList = new string[](candidatesLength) */\n      swap5\n      pop\n        /* \"contracts/Ballot/Ballot.sol\":4899:4909  candidates */\n      0x02\n        /* \"contracts/Ballot/Ballot.sol\":4910:4924  indexCandidate */\n      dup2\n        /* \"contracts/Ballot/Ballot.sol\":4899:4925  candidates[indexCandidate] */\n      dup2\n      sload\n      dup2\n      lt\n      tag_162\n      jumpi\n      tag_163\n      tag_61\n      jump\t// in\n    tag_163:\n    tag_162:\n      swap1\n      0x00\n      mstore\n      keccak256(0x00, 0x20)\n      swap1\n      0x02\n      mul\n      add\n        /* \"contracts/Ballot/Ballot.sol\":4899:4937  candidates[indexCandidate].nameProject */\n      0x00\n      add\n        /* \"contracts/Ballot/Ballot.sol\":4855:4937  tieCandidatesList[tieCandidatesListIndex] = candidates[indexCandidate].nameProject */\n      dup1\n      sload\n      tag_165\n      swap1\n      tag_64\n      jump\t// in\n    tag_165:\n      dup1\n      0x1f\n      add\n      0x20\n      dup1\n      swap2\n      div\n      mul\n      0x20\n      add\n      mload(0x40)\n      swap1\n      dup2\n      add\n      0x40\n      mstore\n      dup1\n      swap3\n      swap2\n      swap1\n      dup2\n      dup2\n      mstore\n      0x20\n      add\n      dup3\n      dup1\n      sload\n      tag_166\n      swap1\n      tag_64\n      jump\t// in\n    tag_166:\n      dup1\n      iszero\n      tag_167\n      jumpi\n      dup1\n      0x1f\n      lt\n      tag_168\n      jumpi\n      0x0100\n      dup1\n      dup4\n      sload\n      div\n      mul\n      dup4\n      mstore\n      swap2\n      0x20\n      add\n      swap2\n      jump(tag_167)\n    tag_168:\n      dup3\n      add\n      swap2\n      swap1\n      0x00\n      mstore\n      keccak256(0x00, 0x20)\n      swap1\n    tag_169:\n      dup2\n      sload\n      dup2\n      mstore\n      swap1\n      0x01\n      add\n      swap1\n      0x20\n      add\n      dup1\n      dup4\n      gt\n      tag_169\n      jumpi\n      dup3\n      swap1\n      sub\n      0x1f\n      and\n      dup3\n      add\n      swap2\n    tag_167:\n      pop\n      pop\n      pop\n      pop\n      pop\n        /* \"contracts/Ballot/Ballot.sol\":4855:4872  tieCandidatesList */\n      dup6\n        /* \"contracts/Ballot/Ballot.sol\":4873:4895  tieCandidatesListIndex */\n      dup6\n        /* \"contracts/Ballot/Ballot.sol\":4855:4896  tieCandidatesList[tieCandidatesListIndex] */\n      dup2\n      mload\n      dup2\n      lt\n      tag_170\n      jumpi\n      tag_171\n      tag_61\n      jump\t// in\n    tag_171:\n    tag_170:\n      0x20\n      mul\n      0x20\n      add\n      add\n        /* \"contracts/Ballot/Ballot.sol\":4855:4937  tieCandidatesList[tieCandidatesListIndex] = candidates[indexCandidate].nameProject */\n      dup2\n      swap1\n      mstore\n      pop\n        /* \"contracts/Ballot/Ballot.sol\":4960:4984  tieCandidatesListIndex++ */\n      dup4\n      dup1\n      tag_172\n      swap1\n      tag_72\n      jump\t// in\n    tag_172:\n      swap5\n      pop\n      pop\n        /* \"contracts/Ballot/Ballot.sol\":4663:5004  if (isTie) {\r... */\n    tag_157:\n        /* \"contracts/Ballot/Ballot.sol\":4450:5279  if (candidates[indexCandidate].votesCount > winningVoteCount) {\r... */\n      jump(tag_173)\n    tag_153:\n        /* \"contracts/Ballot/Ballot.sol\":5070:5086  winningVoteCount */\n      dup8\n        /* \"contracts/Ballot/Ballot.sol\":5029:5039  candidates */\n      0x02\n        /* \"contracts/Ballot/Ballot.sol\":5040:5054  indexCandidate */\n      dup3\n        /* \"contracts/Ballot/Ballot.sol\":5029:5055  candidates[indexCandidate] */\n      dup2\n      sload\n      dup2\n      lt\n      tag_174\n      jumpi\n      tag_175\n      tag_61\n      jump\t// in\n    tag_175:\n    tag_174:\n      swap1\n      0x00\n      mstore\n      keccak256(0x00, 0x20)\n      swap1\n      0x02\n      mul\n      add\n        /* \"contracts/Ballot/Ballot.sol\":5029:5066  candidates[indexCandidate].votesCount */\n      0x01\n      add\n      sload\n        /* \"contracts/Ballot/Ballot.sol\":5029:5086  candidates[indexCandidate].votesCount == winningVoteCount */\n      eq\n        /* \"contracts/Ballot/Ballot.sol\":5025:5279  if (candidates[indexCandidate].votesCount == winningVoteCount) {\r... */\n      iszero\n      tag_177\n      jumpi\n        /* \"contracts/Ballot/Ballot.sol\":5115:5119  true */\n      0x01\n        /* \"contracts/Ballot/Ballot.sol\":5107:5119  isTie = true */\n      swap3\n      pop\n        /* \"contracts/Ballot/Ballot.sol\":5182:5192  candidates */\n      0x02\n        /* \"contracts/Ballot/Ballot.sol\":5193:5207  indexCandidate */\n      dup2\n        /* \"contracts/Ballot/Ballot.sol\":5182:5208  candidates[indexCandidate] */\n      dup2\n      sload\n      dup2\n      lt\n      tag_178\n      jumpi\n      tag_179\n      tag_61\n      jump\t// in\n    tag_179:\n    tag_178:\n      swap1\n      0x00\n      mstore\n      keccak256(0x00, 0x20)\n      swap1\n      0x02\n      mul\n      add\n        /* \"contracts/Ballot/Ballot.sol\":5182:5220  candidates[indexCandidate].nameProject */\n      0x00\n      add\n        /* \"contracts/Ballot/Ballot.sol\":5138:5220  tieCandidatesList[tieCandidatesListIndex] = candidates[indexCandidate].nameProject */\n      dup1\n      sload\n      tag_181\n      swap1\n      tag_64\n      jump\t// in\n    tag_181:\n      dup1\n      0x1f\n      add\n      0x20\n      dup1\n      swap2\n      div\n      mul\n      0x20\n      add\n      mload(0x40)\n      swap1\n      dup2\n      add\n      0x40\n      mstore\n      dup1\n      swap3\n      swap2\n      swap1\n      dup2\n      dup2\n      mstore\n      0x20\n      add\n      dup3\n      dup1\n      sload\n      tag_182\n      swap1\n      tag_64\n      jump\t// in\n    tag_182:\n      dup1\n      iszero\n      tag_183\n      jumpi\n      dup1\n      0x1f\n      lt\n      tag_184\n      jumpi\n      0x0100\n      dup1\n      dup4\n      sload\n      div\n      mul\n      dup4\n      mstore\n      swap2\n      0x20\n      add\n      swap2\n      jump(tag_183)\n    tag_184:\n      dup3\n      add\n      swap2\n      swap1\n      0x00\n      mstore\n      keccak256(0x00, 0x20)\n      swap1\n    tag_185:\n      dup2\n      sload\n      dup2\n      mstore\n      swap1\n      0x01\n      add\n      swap1\n      0x20\n      add\n      dup1\n      dup4\n      gt\n      tag_185\n      jumpi\n      dup3\n      swap1\n      sub\n      0x1f\n      and\n      dup3\n      add\n      swap2\n    tag_183:\n      pop\n      pop\n      pop\n      pop\n      pop\n        /* \"contracts/Ballot/Ballot.sol\":5138:5155  tieCandidatesList */\n      dup6\n        /* \"contracts/Ballot/Ballot.sol\":5156:5178  tieCandidatesListIndex */\n      dup6\n        /* \"contracts/Ballot/Ballot.sol\":5138:5179  tieCandidatesList[tieCandidatesListIndex] */\n      dup2\n      mload\n      dup2\n      lt\n      tag_186\n      jumpi\n      tag_187\n      tag_61\n      jump\t// in\n    tag_187:\n    tag_186:\n      0x20\n      mul\n      0x20\n      add\n      add\n        /* \"contracts/Ballot/Ballot.sol\":5138:5220  tieCandidatesList[tieCandidatesListIndex] = candidates[indexCandidate].nameProject */\n      dup2\n      swap1\n      mstore\n      pop\n        /* \"contracts/Ballot/Ballot.sol\":5239:5263  tieCandidatesListIndex++ */\n      dup4\n      dup1\n      tag_188\n      swap1\n      tag_72\n      jump\t// in\n    tag_188:\n      swap5\n      pop\n      pop\n        /* \"contracts/Ballot/Ballot.sol\":5025:5279  if (candidates[indexCandidate].votesCount == winningVoteCount) {\r... */\n    tag_177:\n        /* \"contracts/Ballot/Ballot.sol\":4450:5279  if (candidates[indexCandidate].votesCount > winningVoteCount) {\r... */\n    tag_173:\n        /* \"contracts/Ballot/Ballot.sol\":4417:4433  indexCandidate++ */\n      dup1\n      dup1\n      tag_189\n      swap1\n      tag_72\n      jump\t// in\n    tag_189:\n      swap2\n      pop\n      pop\n        /* \"contracts/Ballot/Ballot.sol\":4352:5302  for (uint indexCandidate = 0; indexCandidate < candidatesLength; indexCandidate++) {\r... */\n      jump(tag_147)\n    tag_148:\n      pop\n        /* \"contracts/Ballot/Ballot.sol\":5320:5325  isTie */\n      dup2\n        /* \"contracts/Ballot/Ballot.sol\":5316:5943  if (isTie) {\r... */\n      iszero\n      tag_190\n      jumpi\n        /* \"contracts/Ballot/Ballot.sol\":5347:5366  uint indexCandidate */\n      0x00\n        /* \"contracts/Ballot/Ballot.sol\":5342:5569  for (uint indexCandidate = 0; indexCandidate < tieCandidatesList.length; indexCandidate++) {\r... */\n    tag_191:\n        /* \"contracts/Ballot/Ballot.sol\":5389:5406  tieCandidatesList */\n      dup5\n        /* \"contracts/Ballot/Ballot.sol\":5389:5413  tieCandidatesList.length */\n      mload\n        /* \"contracts/Ballot/Ballot.sol\":5372:5386  indexCandidate */\n      dup2\n        /* \"contracts/Ballot/Ballot.sol\":5372:5413  indexCandidate < tieCandidatesList.length */\n      lt\n        /* \"contracts/Ballot/Ballot.sol\":5342:5569  for (uint indexCandidate = 0; indexCandidate < tieCandidatesList.length; indexCandidate++) {\r... */\n      iszero\n      tag_192\n      jumpi\n        /* \"contracts/Ballot/Ballot.sol\":5477:5553  concatenateStrings(tieCandidatesListNames,tieCandidatesList[indexCandidate]) */\n      tag_194\n        /* \"contracts/Ballot/Ballot.sol\":5496:5518  tieCandidatesListNames */\n      dup3\n        /* \"contracts/Ballot/Ballot.sol\":5519:5536  tieCandidatesList */\n      dup7\n        /* \"contracts/Ballot/Ballot.sol\":5537:5551  indexCandidate */\n      dup4\n        /* \"contracts/Ballot/Ballot.sol\":5519:5552  tieCandidatesList[indexCandidate] */\n      dup2\n      mload\n      dup2\n      lt\n      tag_195\n      jumpi\n      tag_196\n      tag_61\n      jump\t// in\n    tag_196:\n    tag_195:\n      0x20\n      mul\n      0x20\n      add\n      add\n      mload\n        /* \"contracts/Ballot/Ballot.sol\":5477:5495  concatenateStrings */\n      tag_37\n        /* \"contracts/Ballot/Ballot.sol\":5477:5553  concatenateStrings(tieCandidatesListNames,tieCandidatesList[indexCandidate]) */\n      jump\t// in\n    tag_194:\n        /* \"contracts/Ballot/Ballot.sol\":5452:5553  tieCandidatesListNames = concatenateStrings(tieCandidatesListNames,tieCandidatesList[indexCandidate]) */\n      swap2\n      pop\n        /* \"contracts/Ballot/Ballot.sol\":5415:5431  indexCandidate++ */\n      dup1\n      dup1\n      tag_197\n      swap1\n      tag_72\n      jump\t// in\n    tag_197:\n      swap2\n      pop\n      pop\n        /* \"contracts/Ballot/Ballot.sol\":5342:5569  for (uint indexCandidate = 0; indexCandidate < tieCandidatesList.length; indexCandidate++) {\r... */\n      jump(tag_191)\n    tag_192:\n      pop\n        /* \"contracts/Ballot/Ballot.sol\":5597:5621  string memory tieMessage */\n      0x00\n        /* \"contracts/Ballot/Ballot.sol\":5624:5746  concatenateStrings(\"There is a tie on Ballot. You should start a new ballot with tie candidates:\", tieCandidatesListNames) */\n      tag_198\n      mload(0x40)\n      dup1\n      0x80\n      add\n      0x40\n      mstore\n      dup1\n      0x4c\n      dup2\n      mstore\n      0x20\n      add\n      data_2acf605e5cd1b7b0e6ec2502e1f86c81c25a2363f294a2e9f46595fbaefb5b6c\n      0x4c\n      swap2\n      codecopy\n        /* \"contracts/Ballot/Ballot.sol\":5723:5745  tieCandidatesListNames */\n      dup4\n        /* \"contracts/Ballot/Ballot.sol\":5624:5642  concatenateStrings */\n      tag_37\n        /* \"contracts/Ballot/Ballot.sol\":5624:5746  concatenateStrings(\"There is a tie on Ballot. You should start a new ballot with tie candidates:\", tieCandidatesListNames) */\n      jump\t// in\n    tag_198:\n        /* \"contracts/Ballot/Ballot.sol\":5597:5746  string memory tieMessage = concatenateStrings(\"There is a tie on Ballot. You should start a new ballot with tie candidates:\", tieCandidatesListNames) */\n      swap1\n      pop\n        /* \"contracts/Ballot/Ballot.sol\":5797:5802  false */\n      0x00\n        /* \"contracts/Ballot/Ballot.sol\":5821:5831  tieMessage */\n      dup2\n        /* \"contracts/Ballot/Ballot.sol\":5771:5846  require(\r... */\n      swap1\n      tag_199\n      jumpi\n      mload(0x40)\n      0x08c379a000000000000000000000000000000000000000000000000000000000\n      dup2\n      mstore\n      0x04\n      add\n      tag_200\n      swap2\n      swap1\n      tag_39\n      jump\t// in\n    tag_200:\n      mload(0x40)\n      dup1\n      swap2\n      sub\n      swap1\n      revert\n    tag_199:\n      pop\n        /* \"contracts/Ballot/Ballot.sol\":5327:5858  {\r... */\n      pop\n        /* \"contracts/Ballot/Ballot.sol\":5316:5943  if (isTie) {\r... */\n      jump(tag_201)\n    tag_190:\n        /* \"contracts/Ballot/Ballot.sol\":5898:5908  candidates */\n      0x02\n        /* \"contracts/Ballot/Ballot.sol\":5909:5930  winningCandidateIndex */\n      dup7\n        /* \"contracts/Ballot/Ballot.sol\":5898:5931  candidates[winningCandidateIndex] */\n      dup2\n      sload\n      dup2\n      lt\n      tag_202\n      jumpi\n      tag_203\n      tag_61\n      jump\t// in\n    tag_203:\n    tag_202:\n      swap1\n      0x00\n      mstore\n      keccak256(0x00, 0x20)\n      swap1\n      0x02\n      mul\n      add\n        /* \"contracts/Ballot/Ballot.sol\":5879:5931  winningCandidate = candidates[winningCandidateIndex] */\n      mload(0x40)\n      dup1\n      0x40\n      add\n      0x40\n      mstore\n      swap1\n      dup2\n      0x00\n      dup3\n      add\n      dup1\n      sload\n      tag_205\n      swap1\n      tag_64\n      jump\t// in\n    tag_205:\n      dup1\n      0x1f\n      add\n      0x20\n      dup1\n      swap2\n      div\n      mul\n      0x20\n      add\n      mload(0x40)\n      swap1\n      dup2\n      add\n      0x40\n      mstore\n      dup1\n      swap3\n      swap2\n      swap1\n      dup2\n      dup2\n      mstore\n      0x20\n      add\n      dup3\n      dup1\n      sload\n      tag_206\n      swap1\n      tag_64\n      jump\t// in\n    tag_206:\n      dup1\n      iszero\n      tag_207\n      jumpi\n      dup1\n      0x1f\n      lt\n      tag_208\n      jumpi\n      0x0100\n      dup1\n      dup4\n      sload\n      div\n      mul\n      dup4\n      mstore\n      swap2\n      0x20\n      add\n      swap2\n      jump(tag_207)\n    tag_208:\n      dup3\n      add\n      swap2\n      swap1\n      0x00\n      mstore\n      keccak256(0x00, 0x20)\n      swap1\n    tag_209:\n      dup2\n      sload\n      dup2\n      mstore\n      swap1\n      0x01\n      add\n      swap1\n      0x20\n      add\n      dup1\n      dup4\n      gt\n      tag_209\n      jumpi\n      dup3\n      swap1\n      sub\n      0x1f\n      and\n      dup3\n      add\n      swap2\n    tag_207:\n      pop\n      pop\n      pop\n      pop\n      pop\n      dup2\n      mstore\n      0x20\n      add\n      0x01\n      dup3\n      add\n      sload\n      dup2\n      mstore\n      pop\n      pop\n      swap8\n      pop\n        /* \"contracts/Ballot/Ballot.sol\":5316:5943  if (isTie) {\r... */\n    tag_201:\n        /* \"contracts/Ballot/Ballot.sol\":4008:5950  {        \r... */\n      pop\n      pop\n      pop\n      pop\n      pop\n      pop\n      pop\n        /* \"contracts/Ballot/Ballot.sol\":3921:5950  function getWinningCandidate() public view returns (Candidate memory winningCandidate) {        \r... */\n      swap1\n      jump\t// out\n        /* \"contracts/Ballot/Ballot.sol\":1998:2209  function getTotalVotesCounterReachedRequire() private view {\r... */\n    tag_75:\n        /* \"contracts/Ballot/Ballot.sol\":2117:2125  maxVotes */\n      sload(0x04)\n        /* \"contracts/Ballot/Ballot.sol\":2097:2114  totalVotesCounter */\n      sload(0x03)\n        /* \"contracts/Ballot/Ballot.sol\":2097:2125  totalVotesCounter < maxVotes */\n      lt\n        /* \"contracts/Ballot/Ballot.sol\":2075:2201  require(\r... */\n      tag_211\n      jumpi\n      mload(0x40)\n      0x08c379a000000000000000000000000000000000000000000000000000000000\n      dup2\n      mstore\n      0x04\n      add\n      tag_212\n      swap1\n      tag_213\n      jump\t// in\n    tag_212:\n      mload(0x40)\n      dup1\n      swap2\n      sub\n      swap1\n      revert\n    tag_211:\n        /* \"contracts/Ballot/Ballot.sol\":1998:2209  function getTotalVotesCounterReachedRequire() private view {\r... */\n      jump\t// out\n        /* \"contracts/Ballot/Ballot.sol\":6601:6719  function areYouHaveRigthToVote() private view returns (bool) {\r... */\n    tag_77:\n        /* \"contracts/Ballot/Ballot.sol\":6656:6660  bool */\n      0x00\n        /* \"contracts/Ballot/Ballot.sol\":6680:6711  getVoterRigthToVote(msg.sender) */\n      tag_215\n        /* \"contracts/Ballot/Ballot.sol\":6700:6710  msg.sender */\n      caller\n        /* \"contracts/Ballot/Ballot.sol\":6680:6699  getVoterRigthToVote */\n      tag_216\n        /* \"contracts/Ballot/Ballot.sol\":6680:6711  getVoterRigthToVote(msg.sender) */\n      jump\t// in\n    tag_215:\n        /* \"contracts/Ballot/Ballot.sol\":6673:6711  return getVoterRigthToVote(msg.sender) */\n      swap1\n      pop\n        /* \"contracts/Ballot/Ballot.sol\":6601:6719  function areYouHaveRigthToVote() private view returns (bool) {\r... */\n      swap1\n      jump\t// out\n        /* \"contracts/Ballot/Ballot.sol\":1801:1990  function getVoterVotedRequire(address voterAddress) private view {\r... */\n    tag_82:\n        /* \"contracts/Ballot/Ballot.sol\":1907:1934  getVoterVoted(voterAddress) */\n      tag_218\n        /* \"contracts/Ballot/Ballot.sol\":1921:1933  voterAddress */\n      dup2\n        /* \"contracts/Ballot/Ballot.sol\":1907:1920  getVoterVoted */\n      tag_219\n        /* \"contracts/Ballot/Ballot.sol\":1907:1934  getVoterVoted(voterAddress) */\n      jump\t// in\n    tag_218:\n        /* \"contracts/Ballot/Ballot.sol\":1906:1934  !getVoterVoted(voterAddress) */\n      iszero\n        /* \"contracts/Ballot/Ballot.sol\":1884:1982  require(\r... */\n      tag_220\n      jumpi\n      mload(0x40)\n      0x08c379a000000000000000000000000000000000000000000000000000000000\n      dup2\n      mstore\n      0x04\n      add\n      tag_221\n      swap1\n      tag_222\n      jump\t// in\n    tag_221:\n      mload(0x40)\n      dup1\n      swap2\n      sub\n      swap1\n      revert\n    tag_220:\n        /* \"contracts/Ballot/Ballot.sol\":1801:1990  function getVoterVotedRequire(address voterAddress) private view {\r... */\n      pop\n      jump\t// out\n        /* \"contracts/Ballot/Ballot.sol\":7142:7309  function stringEqualTo(string memory s1, string memory s2) private pure returns (bool) {\r... */\n    tag_97:\n        /* \"contracts/Ballot/Ballot.sol\":7223:7227  bool */\n      0x00\n        /* \"contracts/Ballot/Ballot.sol\":7297:7299  s2 */\n      dup2\n        /* \"contracts/Ballot/Ballot.sol\":7286:7300  abi.encode(s2) */\n      add(0x20, mload(0x40))\n      tag_224\n      swap2\n      swap1\n      tag_39\n      jump\t// in\n    tag_224:\n      mload(0x40)\n      0x20\n      dup2\n      dup4\n      sub\n      sub\n      dup2\n      mstore\n      swap1\n      0x40\n      mstore\n        /* \"contracts/Ballot/Ballot.sol\":7276:7301  keccak256(abi.encode(s2)) */\n      dup1\n      mload\n      swap1\n      0x20\n      add\n      keccak256\n        /* \"contracts/Ballot/Ballot.sol\":7268:7270  s1 */\n      dup4\n        /* \"contracts/Ballot/Ballot.sol\":7257:7271  abi.encode(s1) */\n      add(0x20, mload(0x40))\n      tag_225\n      swap2\n      swap1\n      tag_39\n      jump\t// in\n    tag_225:\n      mload(0x40)\n      0x20\n      dup2\n      dup4\n      sub\n      sub\n      dup2\n      mstore\n      swap1\n      0x40\n      mstore\n        /* \"contracts/Ballot/Ballot.sol\":7247:7272  keccak256(abi.encode(s1)) */\n      dup1\n      mload\n      swap1\n      0x20\n      add\n      keccak256\n        /* \"contracts/Ballot/Ballot.sol\":7247:7301  keccak256(abi.encode(s1)) == keccak256(abi.encode(s2)) */\n      eq\n        /* \"contracts/Ballot/Ballot.sol\":7240:7301  return keccak256(abi.encode(s1)) == keccak256(abi.encode(s2)) */\n      swap1\n      pop\n        /* \"contracts/Ballot/Ballot.sol\":7142:7309  function stringEqualTo(string memory s1, string memory s2) private pure returns (bool) {\r... */\n      swap3\n      swap2\n      pop\n      pop\n      jump\t// out\n        /* \"contracts/Ballot/Ballot.sol\":2217:2393  function isCandidateExistRequire(bool isExist) private pure {\r... */\n    tag_106:\n        /* \"contracts/Ballot/Ballot.sol\":2317:2324  isExist */\n      dup1\n        /* \"contracts/Ballot/Ballot.sol\":2295:2385  require(\r... */\n      tag_227\n      jumpi\n      mload(0x40)\n      0x08c379a000000000000000000000000000000000000000000000000000000000\n      dup2\n      mstore\n      0x04\n      add\n      tag_228\n      swap1\n      tag_229\n      jump\t// in\n    tag_228:\n      mload(0x40)\n      dup1\n      swap2\n      sub\n      swap1\n      revert\n    tag_227:\n        /* \"contracts/Ballot/Ballot.sol\":2217:2393  function isCandidateExistRequire(bool isExist) private pure {\r... */\n      pop\n      jump\t// out\n        /* \"contracts/Ballot/Ballot.sol\":6373:6473  function getContractAddress() private view returns (address) {\r... */\n    tag_110:\n        /* \"contracts/Ballot/Ballot.sol\":6425:6432  address */\n      0x00\n        /* \"contracts/Ballot/Ballot.sol\":6460:6464  this */\n      address\n        /* \"contracts/Ballot/Ballot.sol\":6445:6465  return address(this) */\n      swap1\n      pop\n        /* \"contracts/Ballot/Ballot.sol\":6373:6473  function getContractAddress() private view returns (address) {\r... */\n      swap1\n      jump\t// out\n        /* \"contracts/Ballot/Ballot.sol\":6481:6593  function areYouContractOwner() private view returns (bool) {\r... */\n    tag_121:\n        /* \"contracts/Ballot/Ballot.sol\":6534:6538  bool */\n      0x00\n        /* \"contracts/Ballot/Ballot.sol\":6572:6585  contractOwner */\n      dup1\n      0x00\n      swap1\n      sload\n      swap1\n      0x0100\n      exp\n      swap1\n      div\n      0xffffffffffffffffffffffffffffffffffffffff\n      and\n        /* \"contracts/Ballot/Ballot.sol\":6558:6585  msg.sender == contractOwner */\n      0xffffffffffffffffffffffffffffffffffffffff\n      and\n        /* \"contracts/Ballot/Ballot.sol\":6558:6568  msg.sender */\n      caller\n        /* \"contracts/Ballot/Ballot.sol\":6558:6585  msg.sender == contractOwner */\n      0xffffffffffffffffffffffffffffffffffffffff\n      and\n      eq\n        /* \"contracts/Ballot/Ballot.sol\":6551:6585  return msg.sender == contractOwner */\n      swap1\n      pop\n        /* \"contracts/Ballot/Ballot.sol\":6481:6593  function areYouContractOwner() private view returns (bool) {\r... */\n      swap1\n      jump\t// out\n        /* \"contracts/Ballot/Ballot.sol\":6727:6860  function getVoterRigthToVote(address voterAddress) private view returns (bool) {\r... */\n    tag_216:\n        /* \"contracts/Ballot/Ballot.sol\":6800:6804  bool */\n      0x00\n        /* \"contracts/Ballot/Ballot.sol\":6824:6830  voters */\n      0x01\n        /* \"contracts/Ballot/Ballot.sol\":6824:6844  voters[voterAddress] */\n      0x00\n        /* \"contracts/Ballot/Ballot.sol\":6831:6843  voterAddress */\n      dup4\n        /* \"contracts/Ballot/Ballot.sol\":6824:6844  voters[voterAddress] */\n      0xffffffffffffffffffffffffffffffffffffffff\n      and\n      0xffffffffffffffffffffffffffffffffffffffff\n      and\n      dup2\n      mstore\n      0x20\n      add\n      swap1\n      dup2\n      mstore\n      0x20\n      add\n      0x00\n      keccak256\n        /* \"contracts/Ballot/Ballot.sol\":6824:6852  voters[voterAddress].canVote */\n      0x01\n      add\n      0x00\n      swap1\n      sload\n      swap1\n      0x0100\n      exp\n      swap1\n      div\n      0xff\n      and\n        /* \"contracts/Ballot/Ballot.sol\":6817:6852  return voters[voterAddress].canVote */\n      swap1\n      pop\n        /* \"contracts/Ballot/Ballot.sol\":6727:6860  function getVoterRigthToVote(address voterAddress) private view returns (bool) {\r... */\n      swap2\n      swap1\n      pop\n      jump\t// out\n        /* \"contracts/Ballot/Ballot.sol\":6978:7106  function getVoterVoted(address voterAddress) private view returns (bool) {\r... */\n    tag_219:\n        /* \"contracts/Ballot/Ballot.sol\":7045:7049  bool */\n      0x00\n        /* \"contracts/Ballot/Ballot.sol\":7069:7075  voters */\n      0x01\n        /* \"contracts/Ballot/Ballot.sol\":7069:7089  voters[voterAddress] */\n      0x00\n        /* \"contracts/Ballot/Ballot.sol\":7076:7088  voterAddress */\n      dup4\n        /* \"contracts/Ballot/Ballot.sol\":7069:7089  voters[voterAddress] */\n      0xffffffffffffffffffffffffffffffffffffffff\n      and\n      0xffffffffffffffffffffffffffffffffffffffff\n      and\n      dup2\n      mstore\n      0x20\n      add\n      swap1\n      dup2\n      mstore\n      0x20\n      add\n      0x00\n      keccak256\n        /* \"contracts/Ballot/Ballot.sol\":7069:7098  voters[voterAddress].hasVoted */\n      0x01\n      add\n      0x01\n      swap1\n      sload\n      swap1\n      0x0100\n      exp\n      swap1\n      div\n      0xff\n      and\n        /* \"contracts/Ballot/Ballot.sol\":7062:7098  return voters[voterAddress].hasVoted */\n      swap1\n      pop\n        /* \"contracts/Ballot/Ballot.sol\":6978:7106  function getVoterVoted(address voterAddress) private view returns (bool) {\r... */\n      swap2\n      swap1\n      pop\n      jump\t// out\n    tag_131:\n      dup3\n      dup1\n      sload\n      tag_234\n      swap1\n      tag_64\n      jump\t// in\n    tag_234:\n      swap1\n      0x00\n      mstore\n      keccak256(0x00, 0x20)\n      swap1\n      0x1f\n      add\n      0x20\n      swap1\n      div\n      dup2\n      add\n      swap3\n      dup3\n      tag_236\n      jumpi\n      0x00\n      dup6\n      sstore\n      jump(tag_235)\n    tag_236:\n      dup3\n      0x1f\n      lt\n      tag_237\n      jumpi\n      dup1\n      mload\n      not(0xff)\n      and\n      dup4\n      dup1\n      add\n      or\n      dup6\n      sstore\n      jump(tag_235)\n    tag_237:\n      dup3\n      dup1\n      add\n      0x01\n      add\n      dup6\n      sstore\n      dup3\n      iszero\n      tag_235\n      jumpi\n      swap2\n      dup3\n      add\n    tag_238:\n      dup3\n      dup2\n      gt\n      iszero\n      tag_239\n      jumpi\n      dup3\n      mload\n      dup3\n      sstore\n      swap2\n      0x20\n      add\n      swap2\n      swap1\n      0x01\n      add\n      swap1\n      jump(tag_238)\n    tag_239:\n    tag_235:\n      pop\n      swap1\n      pop\n      tag_240\n      swap2\n      swap1\n      tag_241\n      jump\t// in\n    tag_240:\n      pop\n      swap1\n      jump\t// out\n    tag_141:\n      mload(0x40)\n      dup1\n      0x40\n      add\n      0x40\n      mstore\n      dup1\n      0x60\n      dup2\n      mstore\n      0x20\n      add\n      0x00\n      dup2\n      mstore\n      pop\n      swap1\n      jump\t// out\n    tag_241:\n    tag_242:\n      dup1\n      dup3\n      gt\n      iszero\n      tag_243\n      jumpi\n      0x00\n      dup2\n      0x00\n      swap1\n      sstore\n      pop\n      0x01\n      add\n      jump(tag_242)\n    tag_243:\n      pop\n      swap1\n      jump\t// out\n        /* \"#utility.yul\":7:419   */\n    tag_245:\n        /* \"#utility.yul\":85:90   */\n      0x00\n        /* \"#utility.yul\":110:176   */\n      tag_247\n        /* \"#utility.yul\":126:175   */\n      tag_248\n        /* \"#utility.yul\":168:174   */\n      dup5\n        /* \"#utility.yul\":126:175   */\n      tag_249\n      jump\t// in\n    tag_248:\n        /* \"#utility.yul\":110:176   */\n      tag_250\n      jump\t// in\n    tag_247:\n        /* \"#utility.yul\":101:176   */\n      swap1\n      pop\n        /* \"#utility.yul\":199:205   */\n      dup3\n        /* \"#utility.yul\":192:197   */\n      dup2\n        /* \"#utility.yul\":185:206   */\n      mstore\n        /* \"#utility.yul\":237:241   */\n      0x20\n        /* \"#utility.yul\":230:235   */\n      dup2\n        /* \"#utility.yul\":226:242   */\n      add\n        /* \"#utility.yul\":275:278   */\n      dup5\n        /* \"#utility.yul\":266:272   */\n      dup5\n        /* \"#utility.yul\":261:264   */\n      dup5\n        /* \"#utility.yul\":257:273   */\n      add\n        /* \"#utility.yul\":254:279   */\n      gt\n        /* \"#utility.yul\":251:363   */\n      iszero\n      tag_251\n      jumpi\n        /* \"#utility.yul\":282:361   */\n      tag_252\n      tag_253\n      jump\t// in\n    tag_252:\n        /* \"#utility.yul\":251:363   */\n    tag_251:\n        /* \"#utility.yul\":372:413   */\n      tag_254\n        /* \"#utility.yul\":406:412   */\n      dup5\n        /* \"#utility.yul\":401:404   */\n      dup3\n        /* \"#utility.yul\":396:399   */\n      dup6\n        /* \"#utility.yul\":372:413   */\n      tag_255\n      jump\t// in\n    tag_254:\n        /* \"#utility.yul\":91:419   */\n      pop\n        /* \"#utility.yul\":7:419   */\n      swap4\n      swap3\n      pop\n      pop\n      pop\n      jump\t// out\n        /* \"#utility.yul\":425:564   */\n    tag_256:\n        /* \"#utility.yul\":471:476   */\n      0x00\n        /* \"#utility.yul\":509:515   */\n      dup2\n        /* \"#utility.yul\":496:516   */\n      calldataload\n        /* \"#utility.yul\":487:516   */\n      swap1\n      pop\n        /* \"#utility.yul\":525:558   */\n      tag_258\n        /* \"#utility.yul\":552:557   */\n      dup2\n        /* \"#utility.yul\":525:558   */\n      tag_259\n      jump\t// in\n    tag_258:\n        /* \"#utility.yul\":425:564   */\n      swap3\n      swap2\n      pop\n      pop\n      jump\t// out\n        /* \"#utility.yul\":570:703   */\n    tag_260:\n        /* \"#utility.yul\":613:618   */\n      0x00\n        /* \"#utility.yul\":651:657   */\n      dup2\n        /* \"#utility.yul\":638:658   */\n      calldataload\n        /* \"#utility.yul\":629:658   */\n      swap1\n      pop\n        /* \"#utility.yul\":667:697   */\n      tag_262\n        /* \"#utility.yul\":691:696   */\n      dup2\n        /* \"#utility.yul\":667:697   */\n      tag_263\n      jump\t// in\n    tag_262:\n        /* \"#utility.yul\":570:703   */\n      swap3\n      swap2\n      pop\n      pop\n      jump\t// out\n        /* \"#utility.yul\":723:1063   */\n    tag_264:\n        /* \"#utility.yul\":779:784   */\n      0x00\n        /* \"#utility.yul\":828:831   */\n      dup3\n        /* \"#utility.yul\":821:825   */\n      0x1f\n        /* \"#utility.yul\":813:819   */\n      dup4\n        /* \"#utility.yul\":809:826   */\n      add\n        /* \"#utility.yul\":805:832   */\n      slt\n        /* \"#utility.yul\":795:917   */\n      tag_266\n      jumpi\n        /* \"#utility.yul\":836:915   */\n      tag_267\n      tag_268\n      jump\t// in\n    tag_267:\n        /* \"#utility.yul\":795:917   */\n    tag_266:\n        /* \"#utility.yul\":953:959   */\n      dup2\n        /* \"#utility.yul\":940:960   */\n      calldataload\n        /* \"#utility.yul\":978:1057   */\n      tag_269\n        /* \"#utility.yul\":1053:1056   */\n      dup5\n        /* \"#utility.yul\":1045:1051   */\n      dup3\n        /* \"#utility.yul\":1038:1042   */\n      0x20\n        /* \"#utility.yul\":1030:1036   */\n      dup7\n        /* \"#utility.yul\":1026:1043   */\n      add\n        /* \"#utility.yul\":978:1057   */\n      tag_245\n      jump\t// in\n    tag_269:\n        /* \"#utility.yul\":969:1057   */\n      swap2\n      pop\n        /* \"#utility.yul\":785:1063   */\n      pop\n        /* \"#utility.yul\":723:1063   */\n      swap3\n      swap2\n      pop\n      pop\n      jump\t// out\n        /* \"#utility.yul\":1069:1208   */\n    tag_270:\n        /* \"#utility.yul\":1115:1120   */\n      0x00\n        /* \"#utility.yul\":1153:1159   */\n      dup2\n        /* \"#utility.yul\":1140:1160   */\n      calldataload\n        /* \"#utility.yul\":1131:1160   */\n      swap1\n      pop\n        /* \"#utility.yul\":1169:1202   */\n      tag_272\n        /* \"#utility.yul\":1196:1201   */\n      dup2\n        /* \"#utility.yul\":1169:1202   */\n      tag_273\n      jump\t// in\n    tag_272:\n        /* \"#utility.yul\":1069:1208   */\n      swap3\n      swap2\n      pop\n      pop\n      jump\t// out\n        /* \"#utility.yul\":1214:1543   */\n    tag_42:\n        /* \"#utility.yul\":1273:1279   */\n      0x00\n        /* \"#utility.yul\":1322:1324   */\n      0x20\n        /* \"#utility.yul\":1310:1319   */\n      dup3\n        /* \"#utility.yul\":1301:1308   */\n      dup5\n        /* \"#utility.yul\":1297:1320   */\n      sub\n        /* \"#utility.yul\":1293:1325   */\n      slt\n        /* \"#utility.yul\":1290:1409   */\n      iszero\n      tag_275\n      jumpi\n        /* \"#utility.yul\":1328:1407   */\n      tag_276\n      tag_277\n      jump\t// in\n    tag_276:\n        /* \"#utility.yul\":1290:1409   */\n    tag_275:\n        /* \"#utility.yul\":1448:1449   */\n      0x00\n        /* \"#utility.yul\":1473:1526   */\n      tag_278\n        /* \"#utility.yul\":1518:1525   */\n      dup5\n        /* \"#utility.yul\":1509:1515   */\n      dup3\n        /* \"#utility.yul\":1498:1507   */\n      dup6\n        /* \"#utility.yul\":1494:1516   */\n      add\n        /* \"#utility.yul\":1473:1526   */\n      tag_256\n      jump\t// in\n    tag_278:\n        /* \"#utility.yul\":1463:1526   */\n      swap2\n      pop\n        /* \"#utility.yul\":1419:1536   */\n      pop\n        /* \"#utility.yul\":1214:1543   */\n      swap3\n      swap2\n      pop\n      pop\n      jump\t// out\n        /* \"#utility.yul\":1549:2203   */\n    tag_32:\n        /* \"#utility.yul\":1627:1633   */\n      0x00\n        /* \"#utility.yul\":1635:1641   */\n      dup1\n        /* \"#utility.yul\":1684:1686   */\n      0x40\n        /* \"#utility.yul\":1672:1681   */\n      dup4\n        /* \"#utility.yul\":1663:1670   */\n      dup6\n        /* \"#utility.yul\":1659:1682   */\n      sub\n        /* \"#utility.yul\":1655:1687   */\n      slt\n        /* \"#utility.yul\":1652:1771   */\n      iszero\n      tag_280\n      jumpi\n        /* \"#utility.yul\":1690:1769   */\n      tag_281\n      tag_277\n      jump\t// in\n    tag_281:\n        /* \"#utility.yul\":1652:1771   */\n    tag_280:\n        /* \"#utility.yul\":1810:1811   */\n      0x00\n        /* \"#utility.yul\":1835:1888   */\n      tag_282\n        /* \"#utility.yul\":1880:1887   */\n      dup6\n        /* \"#utility.yul\":1871:1877   */\n      dup3\n        /* \"#utility.yul\":1860:1869   */\n      dup7\n        /* \"#utility.yul\":1856:1878   */\n      add\n        /* \"#utility.yul\":1835:1888   */\n      tag_256\n      jump\t// in\n    tag_282:\n        /* \"#utility.yul\":1825:1888   */\n      swap3\n      pop\n        /* \"#utility.yul\":1781:1898   */\n      pop\n        /* \"#utility.yul\":1965:1967   */\n      0x20\n        /* \"#utility.yul\":1954:1963   */\n      dup4\n        /* \"#utility.yul\":1950:1968   */\n      add\n        /* \"#utility.yul\":1937:1969   */\n      calldataload\n        /* \"#utility.yul\":1996:2014   */\n      0xffffffffffffffff\n        /* \"#utility.yul\":1988:1994   */\n      dup2\n        /* \"#utility.yul\":1985:2015   */\n      gt\n        /* \"#utility.yul\":1982:2099   */\n      iszero\n      tag_283\n      jumpi\n        /* \"#utility.yul\":2018:2097   */\n      tag_284\n      tag_285\n      jump\t// in\n    tag_284:\n        /* \"#utility.yul\":1982:2099   */\n    tag_283:\n        /* \"#utility.yul\":2123:2186   */\n      tag_286\n        /* \"#utility.yul\":2178:2185   */\n      dup6\n        /* \"#utility.yul\":2169:2175   */\n      dup3\n        /* \"#utility.yul\":2158:2167   */\n      dup7\n        /* \"#utility.yul\":2154:2176   */\n      add\n        /* \"#utility.yul\":2123:2186   */\n      tag_264\n      jump\t// in\n    tag_286:\n        /* \"#utility.yul\":2113:2186   */\n      swap2\n      pop\n        /* \"#utility.yul\":1908:2196   */\n      pop\n        /* \"#utility.yul\":1549:2203   */\n      swap3\n      pop\n      swap3\n      swap1\n      pop\n      jump\t// out\n        /* \"#utility.yul\":2209:2857   */\n    tag_18:\n        /* \"#utility.yul\":2284:2290   */\n      0x00\n        /* \"#utility.yul\":2292:2298   */\n      dup1\n        /* \"#utility.yul\":2341:2343   */\n      0x40\n        /* \"#utility.yul\":2329:2338   */\n      dup4\n        /* \"#utility.yul\":2320:2327   */\n      dup6\n        /* \"#utility.yul\":2316:2339   */\n      sub\n        /* \"#utility.yul\":2312:2344   */\n      slt\n        /* \"#utility.yul\":2309:2428   */\n      iszero\n      tag_288\n      jumpi\n        /* \"#utility.yul\":2347:2426   */\n      tag_289\n      tag_277\n      jump\t// in\n    tag_289:\n        /* \"#utility.yul\":2309:2428   */\n    tag_288:\n        /* \"#utility.yul\":2495:2496   */\n      0x00\n        /* \"#utility.yul\":2484:2493   */\n      dup4\n        /* \"#utility.yul\":2480:2497   */\n      add\n        /* \"#utility.yul\":2467:2498   */\n      calldataload\n        /* \"#utility.yul\":2525:2543   */\n      0xffffffffffffffff\n        /* \"#utility.yul\":2517:2523   */\n      dup2\n        /* \"#utility.yul\":2514:2544   */\n      gt\n        /* \"#utility.yul\":2511:2628   */\n      iszero\n      tag_290\n      jumpi\n        /* \"#utility.yul\":2547:2626   */\n      tag_291\n      tag_285\n      jump\t// in\n    tag_291:\n        /* \"#utility.yul\":2511:2628   */\n    tag_290:\n        /* \"#utility.yul\":2652:2715   */\n      tag_292\n        /* \"#utility.yul\":2707:2714   */\n      dup6\n        /* \"#utility.yul\":2698:2704   */\n      dup3\n        /* \"#utility.yul\":2687:2696   */\n      dup7\n        /* \"#utility.yul\":2683:2705   */\n      add\n        /* \"#utility.yul\":2652:2715   */\n      tag_264\n      jump\t// in\n    tag_292:\n        /* \"#utility.yul\":2642:2715   */\n      swap3\n      pop\n        /* \"#utility.yul\":2438:2725   */\n      pop\n        /* \"#utility.yul\":2764:2766   */\n      0x20\n        /* \"#utility.yul\":2790:2840   */\n      tag_293\n        /* \"#utility.yul\":2832:2839   */\n      dup6\n        /* \"#utility.yul\":2823:2829   */\n      dup3\n        /* \"#utility.yul\":2812:2821   */\n      dup7\n        /* \"#utility.yul\":2808:2830   */\n      add\n        /* \"#utility.yul\":2790:2840   */\n      tag_260\n      jump\t// in\n    tag_293:\n        /* \"#utility.yul\":2780:2840   */\n      swap2\n      pop\n        /* \"#utility.yul\":2735:2850   */\n      pop\n        /* \"#utility.yul\":2209:2857   */\n      swap3\n      pop\n      swap3\n      swap1\n      pop\n      jump\t// out\n        /* \"#utility.yul\":2863:3697   */\n    tag_36:\n        /* \"#utility.yul\":2951:2957   */\n      0x00\n        /* \"#utility.yul\":2959:2965   */\n      dup1\n        /* \"#utility.yul\":3008:3010   */\n      0x40\n        /* \"#utility.yul\":2996:3005   */\n      dup4\n        /* \"#utility.yul\":2987:2994   */\n      dup6\n        /* \"#utility.yul\":2983:3006   */\n      sub\n        /* \"#utility.yul\":2979:3011   */\n      slt\n        /* \"#utility.yul\":2976:3095   */\n      iszero\n      tag_295\n      jumpi\n        /* \"#utility.yul\":3014:3093   */\n      tag_296\n      tag_277\n      jump\t// in\n    tag_296:\n        /* \"#utility.yul\":2976:3095   */\n    tag_295:\n        /* \"#utility.yul\":3162:3163   */\n      0x00\n        /* \"#utility.yul\":3151:3160   */\n      dup4\n        /* \"#utility.yul\":3147:3164   */\n      add\n        /* \"#utility.yul\":3134:3165   */\n      calldataload\n        /* \"#utility.yul\":3192:3210   */\n      0xffffffffffffffff\n        /* \"#utility.yul\":3184:3190   */\n      dup2\n        /* \"#utility.yul\":3181:3211   */\n      gt\n        /* \"#utility.yul\":3178:3295   */\n      iszero\n      tag_297\n      jumpi\n        /* \"#utility.yul\":3214:3293   */\n      tag_298\n      tag_285\n      jump\t// in\n    tag_298:\n        /* \"#utility.yul\":3178:3295   */\n    tag_297:\n        /* \"#utility.yul\":3319:3382   */\n      tag_299\n        /* \"#utility.yul\":3374:3381   */\n      dup6\n        /* \"#utility.yul\":3365:3371   */\n      dup3\n        /* \"#utility.yul\":3354:3363   */\n      dup7\n        /* \"#utility.yul\":3350:3372   */\n      add\n        /* \"#utility.yul\":3319:3382   */\n      tag_264\n      jump\t// in\n    tag_299:\n        /* \"#utility.yul\":3309:3382   */\n      swap3\n      pop\n        /* \"#utility.yul\":3105:3392   */\n      pop\n        /* \"#utility.yul\":3459:3461   */\n      0x20\n        /* \"#utility.yul\":3448:3457   */\n      dup4\n        /* \"#utility.yul\":3444:3462   */\n      add\n        /* \"#utility.yul\":3431:3463   */\n      calldataload\n        /* \"#utility.yul\":3490:3508   */\n      0xffffffffffffffff\n        /* \"#utility.yul\":3482:3488   */\n      dup2\n        /* \"#utility.yul\":3479:3509   */\n      gt\n        /* \"#utility.yul\":3476:3593   */\n      iszero\n      tag_300\n      jumpi\n        /* \"#utility.yul\":3512:3591   */\n      tag_301\n      tag_285\n      jump\t// in\n    tag_301:\n        /* \"#utility.yul\":3476:3593   */\n    tag_300:\n        /* \"#utility.yul\":3617:3680   */\n      tag_302\n        /* \"#utility.yul\":3672:3679   */\n      dup6\n        /* \"#utility.yul\":3663:3669   */\n      dup3\n        /* \"#utility.yul\":3652:3661   */\n      dup7\n        /* \"#utility.yul\":3648:3670   */\n      add\n        /* \"#utility.yul\":3617:3680   */\n      tag_264\n      jump\t// in\n    tag_302:\n        /* \"#utility.yul\":3607:3680   */\n      swap2\n      pop\n        /* \"#utility.yul\":3402:3690   */\n      pop\n        /* \"#utility.yul\":2863:3697   */\n      swap3\n      pop\n      swap3\n      swap1\n      pop\n      jump\t// out\n        /* \"#utility.yul\":3703:4032   */\n    tag_26:\n        /* \"#utility.yul\":3762:3768   */\n      0x00\n        /* \"#utility.yul\":3811:3813   */\n      0x20\n        /* \"#utility.yul\":3799:3808   */\n      dup3\n        /* \"#utility.yul\":3790:3797   */\n      dup5\n        /* \"#utility.yul\":3786:3809   */\n      sub\n        /* \"#utility.yul\":3782:3814   */\n      slt\n        /* \"#utility.yul\":3779:3898   */\n      iszero\n      tag_304\n      jumpi\n        /* \"#utility.yul\":3817:3896   */\n      tag_305\n      tag_277\n      jump\t// in\n    tag_305:\n        /* \"#utility.yul\":3779:3898   */\n    tag_304:\n        /* \"#utility.yul\":3937:3938   */\n      0x00\n        /* \"#utility.yul\":3962:4015   */\n      tag_306\n        /* \"#utility.yul\":4007:4014   */\n      dup5\n        /* \"#utility.yul\":3998:4004   */\n      dup3\n        /* \"#utility.yul\":3987:3996   */\n      dup6\n        /* \"#utility.yul\":3983:4005   */\n      add\n        /* \"#utility.yul\":3962:4015   */\n      tag_270\n      jump\t// in\n    tag_306:\n        /* \"#utility.yul\":3952:4015   */\n      swap2\n      pop\n        /* \"#utility.yul\":3908:4025   */\n      pop\n        /* \"#utility.yul\":3703:4032   */\n      swap3\n      swap2\n      pop\n      pop\n      jump\t// out\n        /* \"#utility.yul\":4038:4234   */\n    tag_307:\n        /* \"#utility.yul\":4127:4137   */\n      0x00\n        /* \"#utility.yul\":4162:4228   */\n      tag_309\n        /* \"#utility.yul\":4224:4227   */\n      dup4\n        /* \"#utility.yul\":4216:4222   */\n      dup4\n        /* \"#utility.yul\":4162:4228   */\n      tag_310\n      jump\t// in\n    tag_309:\n        /* \"#utility.yul\":4148:4228   */\n      swap1\n      pop\n        /* \"#utility.yul\":4038:4234   */\n      swap3\n      swap2\n      pop\n      pop\n      jump\t// out\n        /* \"#utility.yul\":4240:4358   */\n    tag_311:\n        /* \"#utility.yul\":4327:4351   */\n      tag_313\n        /* \"#utility.yul\":4345:4350   */\n      dup2\n        /* \"#utility.yul\":4327:4351   */\n      tag_314\n      jump\t// in\n    tag_313:\n        /* \"#utility.yul\":4322:4325   */\n      dup3\n        /* \"#utility.yul\":4315:4352   */\n      mstore\n        /* \"#utility.yul\":4240:4358   */\n      pop\n      pop\n      jump\t// out\n        /* \"#utility.yul\":4392:5383   */\n    tag_315:\n        /* \"#utility.yul\":4531:4534   */\n      0x00\n        /* \"#utility.yul\":4560:4624   */\n      tag_317\n        /* \"#utility.yul\":4618:4623   */\n      dup3\n        /* \"#utility.yul\":4560:4624   */\n      tag_318\n      jump\t// in\n    tag_317:\n        /* \"#utility.yul\":4640:4736   */\n      tag_319\n        /* \"#utility.yul\":4729:4735   */\n      dup2\n        /* \"#utility.yul\":4724:4727   */\n      dup6\n        /* \"#utility.yul\":4640:4736   */\n      tag_320\n      jump\t// in\n    tag_319:\n        /* \"#utility.yul\":4633:4736   */\n      swap4\n      pop\n        /* \"#utility.yul\":4762:4765   */\n      dup4\n        /* \"#utility.yul\":4807:4811   */\n      0x20\n        /* \"#utility.yul\":4799:4805   */\n      dup3\n        /* \"#utility.yul\":4795:4812   */\n      mul\n        /* \"#utility.yul\":4790:4793   */\n      dup6\n        /* \"#utility.yul\":4786:4813   */\n      add\n        /* \"#utility.yul\":4837:4903   */\n      tag_321\n        /* \"#utility.yul\":4897:4902   */\n      dup6\n        /* \"#utility.yul\":4837:4903   */\n      tag_322\n      jump\t// in\n    tag_321:\n        /* \"#utility.yul\":4926:4933   */\n      dup1\n        /* \"#utility.yul\":4957:4958   */\n      0x00\n        /* \"#utility.yul\":4942:5338   */\n    tag_323:\n        /* \"#utility.yul\":4967:4973   */\n      dup6\n        /* \"#utility.yul\":4964:4965   */\n      dup2\n        /* \"#utility.yul\":4961:4974   */\n      lt\n        /* \"#utility.yul\":4942:5338   */\n      iszero\n      tag_325\n      jumpi\n        /* \"#utility.yul\":5038:5047   */\n      dup5\n        /* \"#utility.yul\":5032:5036   */\n      dup5\n        /* \"#utility.yul\":5028:5048   */\n      sub\n        /* \"#utility.yul\":5023:5026   */\n      dup10\n        /* \"#utility.yul\":5016:5049   */\n      mstore\n        /* \"#utility.yul\":5089:5095   */\n      dup2\n        /* \"#utility.yul\":5083:5096   */\n      mload\n        /* \"#utility.yul\":5117:5201   */\n      tag_326\n        /* \"#utility.yul\":5196:5200   */\n      dup6\n        /* \"#utility.yul\":5181:5194   */\n      dup3\n        /* \"#utility.yul\":5117:5201   */\n      tag_307\n      jump\t// in\n    tag_326:\n        /* \"#utility.yul\":5109:5201   */\n      swap5\n      pop\n        /* \"#utility.yul\":5224:5294   */\n      tag_327\n        /* \"#utility.yul\":5287:5293   */\n      dup4\n        /* \"#utility.yul\":5224:5294   */\n      tag_328\n      jump\t// in\n    tag_327:\n        /* \"#utility.yul\":5214:5294   */\n      swap3\n      pop\n        /* \"#utility.yul\":5323:5327   */\n      0x20\n        /* \"#utility.yul\":5318:5321   */\n      dup11\n        /* \"#utility.yul\":5314:5328   */\n      add\n        /* \"#utility.yul\":5307:5328   */\n      swap10\n      pop\n        /* \"#utility.yul\":5002:5338   */\n      pop\n        /* \"#utility.yul\":4989:4990   */\n      0x01\n        /* \"#utility.yul\":4986:4987   */\n      dup2\n        /* \"#utility.yul\":4982:4991   */\n      add\n        /* \"#utility.yul\":4977:4991   */\n      swap1\n      pop\n        /* \"#utility.yul\":4942:5338   */\n      jump(tag_323)\n    tag_325:\n        /* \"#utility.yul\":4946:4960   */\n      pop\n        /* \"#utility.yul\":5354:5358   */\n      dup3\n        /* \"#utility.yul\":5347:5358   */\n      swap8\n      pop\n        /* \"#utility.yul\":5374:5377   */\n      dup8\n        /* \"#utility.yul\":5367:5377   */\n      swap6\n      pop\n        /* \"#utility.yul\":4536:5383   */\n      pop\n      pop\n      pop\n      pop\n      pop\n        /* \"#utility.yul\":4392:5383   */\n      swap3\n      swap2\n      pop\n      pop\n      jump\t// out\n        /* \"#utility.yul\":5389:5498   */\n    tag_329:\n        /* \"#utility.yul\":5470:5491   */\n      tag_331\n        /* \"#utility.yul\":5485:5490   */\n      dup2\n        /* \"#utility.yul\":5470:5491   */\n      tag_332\n      jump\t// in\n    tag_331:\n        /* \"#utility.yul\":5465:5468   */\n      dup3\n        /* \"#utility.yul\":5458:5492   */\n      mstore\n        /* \"#utility.yul\":5389:5498   */\n      pop\n      pop\n      jump\t// out\n        /* \"#utility.yul\":5504:5848   */\n    tag_310:\n        /* \"#utility.yul\":5582:5585   */\n      0x00\n        /* \"#utility.yul\":5610:5649   */\n      tag_334\n        /* \"#utility.yul\":5643:5648   */\n      dup3\n        /* \"#utility.yul\":5610:5649   */\n      tag_335\n      jump\t// in\n    tag_334:\n        /* \"#utility.yul\":5665:5726   */\n      tag_336\n        /* \"#utility.yul\":5719:5725   */\n      dup2\n        /* \"#utility.yul\":5714:5717   */\n      dup6\n        /* \"#utility.yul\":5665:5726   */\n      tag_337\n      jump\t// in\n    tag_336:\n        /* \"#utility.yul\":5658:5726   */\n      swap4\n      pop\n        /* \"#utility.yul\":5735:5787   */\n      tag_338\n        /* \"#utility.yul\":5780:5786   */\n      dup2\n        /* \"#utility.yul\":5775:5778   */\n      dup6\n        /* \"#utility.yul\":5768:5772   */\n      0x20\n        /* \"#utility.yul\":5761:5766   */\n      dup7\n        /* \"#utility.yul\":5757:5773   */\n      add\n        /* \"#utility.yul\":5735:5787   */\n      tag_339\n      jump\t// in\n    tag_338:\n        /* \"#utility.yul\":5812:5841   */\n      tag_340\n        /* \"#utility.yul\":5834:5840   */\n      dup2\n        /* \"#utility.yul\":5812:5841   */\n      tag_341\n      jump\t// in\n    tag_340:\n        /* \"#utility.yul\":5807:5810   */\n      dup5\n        /* \"#utility.yul\":5803:5842   */\n      add\n        /* \"#utility.yul\":5796:5842   */\n      swap2\n      pop\n        /* \"#utility.yul\":5586:5848   */\n      pop\n        /* \"#utility.yul\":5504:5848   */\n      swap3\n      swap2\n      pop\n      pop\n      jump\t// out\n        /* \"#utility.yul\":5854:6218   */\n    tag_342:\n        /* \"#utility.yul\":5942:5945   */\n      0x00\n        /* \"#utility.yul\":5970:6009   */\n      tag_344\n        /* \"#utility.yul\":6003:6008   */\n      dup3\n        /* \"#utility.yul\":5970:6009   */\n      tag_335\n      jump\t// in\n    tag_344:\n        /* \"#utility.yul\":6025:6096   */\n      tag_345\n        /* \"#utility.yul\":6089:6095   */\n      dup2\n        /* \"#utility.yul\":6084:6087   */\n      dup6\n        /* \"#utility.yul\":6025:6096   */\n      tag_346\n      jump\t// in\n    tag_345:\n        /* \"#utility.yul\":6018:6096   */\n      swap4\n      pop\n        /* \"#utility.yul\":6105:6157   */\n      tag_347\n        /* \"#utility.yul\":6150:6156   */\n      dup2\n        /* \"#utility.yul\":6145:6148   */\n      dup6\n        /* \"#utility.yul\":6138:6142   */\n      0x20\n        /* \"#utility.yul\":6131:6136   */\n      dup7\n        /* \"#utility.yul\":6127:6143   */\n      add\n        /* \"#utility.yul\":6105:6157   */\n      tag_339\n      jump\t// in\n    tag_347:\n        /* \"#utility.yul\":6182:6211   */\n      tag_348\n        /* \"#utility.yul\":6204:6210   */\n      dup2\n        /* \"#utility.yul\":6182:6211   */\n      tag_341\n      jump\t// in\n    tag_348:\n        /* \"#utility.yul\":6177:6180   */\n      dup5\n        /* \"#utility.yul\":6173:6212   */\n      add\n        /* \"#utility.yul\":6166:6212   */\n      swap2\n      pop\n        /* \"#utility.yul\":5946:6218   */\n      pop\n        /* \"#utility.yul\":5854:6218   */\n      swap3\n      swap2\n      pop\n      pop\n      jump\t// out\n        /* \"#utility.yul\":6224:6601   */\n    tag_349:\n        /* \"#utility.yul\":6330:6333   */\n      0x00\n        /* \"#utility.yul\":6358:6397   */\n      tag_351\n        /* \"#utility.yul\":6391:6396   */\n      dup3\n        /* \"#utility.yul\":6358:6397   */\n      tag_335\n      jump\t// in\n    tag_351:\n        /* \"#utility.yul\":6413:6502   */\n      tag_352\n        /* \"#utility.yul\":6495:6501   */\n      dup2\n        /* \"#utility.yul\":6490:6493   */\n      dup6\n        /* \"#utility.yul\":6413:6502   */\n      tag_353\n      jump\t// in\n    tag_352:\n        /* \"#utility.yul\":6406:6502   */\n      swap4\n      pop\n        /* \"#utility.yul\":6511:6563   */\n      tag_354\n        /* \"#utility.yul\":6556:6562   */\n      dup2\n        /* \"#utility.yul\":6551:6554   */\n      dup6\n        /* \"#utility.yul\":6544:6548   */\n      0x20\n        /* \"#utility.yul\":6537:6542   */\n      dup7\n        /* \"#utility.yul\":6533:6549   */\n      add\n        /* \"#utility.yul\":6511:6563   */\n      tag_339\n      jump\t// in\n    tag_354:\n        /* \"#utility.yul\":6588:6594   */\n      dup1\n        /* \"#utility.yul\":6583:6586   */\n      dup5\n        /* \"#utility.yul\":6579:6595   */\n      add\n        /* \"#utility.yul\":6572:6595   */\n      swap2\n      pop\n        /* \"#utility.yul\":6334:6601   */\n      pop\n        /* \"#utility.yul\":6224:6601   */\n      swap3\n      swap2\n      pop\n      pop\n      jump\t// out\n        /* \"#utility.yul\":6607:6973   */\n    tag_355:\n        /* \"#utility.yul\":6749:6752   */\n      0x00\n        /* \"#utility.yul\":6770:6837   */\n      tag_357\n        /* \"#utility.yul\":6834:6836   */\n      0x25\n        /* \"#utility.yul\":6829:6832   */\n      dup4\n        /* \"#utility.yul\":6770:6837   */\n      tag_346\n      jump\t// in\n    tag_357:\n        /* \"#utility.yul\":6763:6837   */\n      swap2\n      pop\n        /* \"#utility.yul\":6846:6939   */\n      tag_358\n        /* \"#utility.yul\":6935:6938   */\n      dup3\n        /* \"#utility.yul\":6846:6939   */\n      tag_359\n      jump\t// in\n    tag_358:\n        /* \"#utility.yul\":6964:6966   */\n      0x40\n        /* \"#utility.yul\":6959:6962   */\n      dup3\n        /* \"#utility.yul\":6955:6967   */\n      add\n        /* \"#utility.yul\":6948:6967   */\n      swap1\n      pop\n        /* \"#utility.yul\":6607:6973   */\n      swap2\n      swap1\n      pop\n      jump\t// out\n        /* \"#utility.yul\":6979:7345   */\n    tag_360:\n        /* \"#utility.yul\":7121:7124   */\n      0x00\n        /* \"#utility.yul\":7142:7209   */\n      tag_362\n        /* \"#utility.yul\":7206:7208   */\n      0x21\n        /* \"#utility.yul\":7201:7204   */\n      dup4\n        /* \"#utility.yul\":7142:7209   */\n      tag_346\n      jump\t// in\n    tag_362:\n        /* \"#utility.yul\":7135:7209   */\n      swap2\n      pop\n        /* \"#utility.yul\":7218:7311   */\n      tag_363\n        /* \"#utility.yul\":7307:7310   */\n      dup3\n        /* \"#utility.yul\":7218:7311   */\n      tag_364\n      jump\t// in\n    tag_363:\n        /* \"#utility.yul\":7336:7338   */\n      0x40\n        /* \"#utility.yul\":7331:7334   */\n      dup3\n        /* \"#utility.yul\":7327:7339   */\n      add\n        /* \"#utility.yul\":7320:7339   */\n      swap1\n      pop\n        /* \"#utility.yul\":6979:7345   */\n      swap2\n      swap1\n      pop\n      jump\t// out\n        /* \"#utility.yul\":7351:7717   */\n    tag_365:\n        /* \"#utility.yul\":7493:7496   */\n      0x00\n        /* \"#utility.yul\":7514:7581   */\n      tag_367\n        /* \"#utility.yul\":7578:7580   */\n      0x2f\n        /* \"#utility.yul\":7573:7576   */\n      dup4\n        /* \"#utility.yul\":7514:7581   */\n      tag_346\n      jump\t// in\n    tag_367:\n        /* \"#utility.yul\":7507:7581   */\n      swap2\n      pop\n        /* \"#utility.yul\":7590:7683   */\n      tag_368\n        /* \"#utility.yul\":7679:7682   */\n      dup3\n        /* \"#utility.yul\":7590:7683   */\n      tag_369\n      jump\t// in\n    tag_368:\n        /* \"#utility.yul\":7708:7710   */\n      0x40\n        /* \"#utility.yul\":7703:7706   */\n      dup3\n        /* \"#utility.yul\":7699:7711   */\n      add\n        /* \"#utility.yul\":7692:7711   */\n      swap1\n      pop\n        /* \"#utility.yul\":7351:7717   */\n      swap2\n      swap1\n      pop\n      jump\t// out\n        /* \"#utility.yul\":7723:8089   */\n    tag_370:\n        /* \"#utility.yul\":7865:7868   */\n      0x00\n        /* \"#utility.yul\":7886:7953   */\n      tag_372\n        /* \"#utility.yul\":7950:7952   */\n      0x2f\n        /* \"#utility.yul\":7945:7948   */\n      dup4\n        /* \"#utility.yul\":7886:7953   */\n      tag_346\n      jump\t// in\n    tag_372:\n        /* \"#utility.yul\":7879:7953   */\n      swap2\n      pop\n        /* \"#utility.yul\":7962:8055   */\n      tag_373\n        /* \"#utility.yul\":8051:8054   */\n      dup3\n        /* \"#utility.yul\":7962:8055   */\n      tag_374\n      jump\t// in\n    tag_373:\n        /* \"#utility.yul\":8080:8082   */\n      0x40\n        /* \"#utility.yul\":8075:8078   */\n      dup3\n        /* \"#utility.yul\":8071:8083   */\n      add\n        /* \"#utility.yul\":8064:8083   */\n      swap1\n      pop\n        /* \"#utility.yul\":7723:8089   */\n      swap2\n      swap1\n      pop\n      jump\t// out\n        /* \"#utility.yul\":8095:8495   */\n    tag_375:\n        /* \"#utility.yul\":8255:8258   */\n      0x00\n        /* \"#utility.yul\":8276:8360   */\n      tag_377\n        /* \"#utility.yul\":8358:8359   */\n      0x01\n        /* \"#utility.yul\":8353:8356   */\n      dup4\n        /* \"#utility.yul\":8276:8360   */\n      tag_353\n      jump\t// in\n    tag_377:\n        /* \"#utility.yul\":8269:8360   */\n      swap2\n      pop\n        /* \"#utility.yul\":8369:8462   */\n      tag_378\n        /* \"#utility.yul\":8458:8461   */\n      dup3\n        /* \"#utility.yul\":8369:8462   */\n      tag_379\n      jump\t// in\n    tag_378:\n        /* \"#utility.yul\":8487:8488   */\n      0x01\n        /* \"#utility.yul\":8482:8485   */\n      dup3\n        /* \"#utility.yul\":8478:8489   */\n      add\n        /* \"#utility.yul\":8471:8489   */\n      swap1\n      pop\n        /* \"#utility.yul\":8095:8495   */\n      swap2\n      swap1\n      pop\n      jump\t// out\n        /* \"#utility.yul\":8501:8867   */\n    tag_380:\n        /* \"#utility.yul\":8643:8646   */\n      0x00\n        /* \"#utility.yul\":8664:8731   */\n      tag_382\n        /* \"#utility.yul\":8728:8730   */\n      0x14\n        /* \"#utility.yul\":8723:8726   */\n      dup4\n        /* \"#utility.yul\":8664:8731   */\n      tag_346\n      jump\t// in\n    tag_382:\n        /* \"#utility.yul\":8657:8731   */\n      swap2\n      pop\n        /* \"#utility.yul\":8740:8833   */\n      tag_383\n        /* \"#utility.yul\":8829:8832   */\n      dup3\n        /* \"#utility.yul\":8740:8833   */\n      tag_384\n      jump\t// in\n    tag_383:\n        /* \"#utility.yul\":8858:8860   */\n      0x20\n        /* \"#utility.yul\":8853:8856   */\n      dup3\n        /* \"#utility.yul\":8849:8861   */\n      add\n        /* \"#utility.yul\":8842:8861   */\n      swap1\n      pop\n        /* \"#utility.yul\":8501:8867   */\n      swap2\n      swap1\n      pop\n      jump\t// out\n        /* \"#utility.yul\":8873:9239   */\n    tag_385:\n        /* \"#utility.yul\":9015:9018   */\n      0x00\n        /* \"#utility.yul\":9036:9103   */\n      tag_387\n        /* \"#utility.yul\":9100:9102   */\n      0x1a\n        /* \"#utility.yul\":9095:9098   */\n      dup4\n        /* \"#utility.yul\":9036:9103   */\n      tag_346\n      jump\t// in\n    tag_387:\n        /* \"#utility.yul\":9029:9103   */\n      swap2\n      pop\n        /* \"#utility.yul\":9112:9205   */\n      tag_388\n        /* \"#utility.yul\":9201:9204   */\n      dup3\n        /* \"#utility.yul\":9112:9205   */\n      tag_389\n      jump\t// in\n    tag_388:\n        /* \"#utility.yul\":9230:9232   */\n      0x20\n        /* \"#utility.yul\":9225:9228   */\n      dup3\n        /* \"#utility.yul\":9221:9233   */\n      add\n        /* \"#utility.yul\":9214:9233   */\n      swap1\n      pop\n        /* \"#utility.yul\":8873:9239   */\n      swap2\n      swap1\n      pop\n      jump\t// out\n        /* \"#utility.yul\":9307:9926   */\n    tag_390:\n        /* \"#utility.yul\":9426:9429   */\n      0x00\n        /* \"#utility.yul\":9462:9466   */\n      0x40\n        /* \"#utility.yul\":9457:9460   */\n      dup4\n        /* \"#utility.yul\":9453:9467   */\n      add\n        /* \"#utility.yul\":9556:9560   */\n      0x00\n        /* \"#utility.yul\":9549:9554   */\n      dup4\n        /* \"#utility.yul\":9545:9561   */\n      add\n        /* \"#utility.yul\":9539:9562   */\n      mload\n        /* \"#utility.yul\":9609:9612   */\n      dup5\n        /* \"#utility.yul\":9603:9607   */\n      dup3\n        /* \"#utility.yul\":9599:9613   */\n      sub\n        /* \"#utility.yul\":9592:9596   */\n      0x00\n        /* \"#utility.yul\":9587:9590   */\n      dup7\n        /* \"#utility.yul\":9583:9597   */\n      add\n        /* \"#utility.yul\":9576:9614   */\n      mstore\n        /* \"#utility.yul\":9635:9708   */\n      tag_392\n        /* \"#utility.yul\":9703:9707   */\n      dup3\n        /* \"#utility.yul\":9689:9701   */\n      dup3\n        /* \"#utility.yul\":9635:9708   */\n      tag_310\n      jump\t// in\n    tag_392:\n        /* \"#utility.yul\":9627:9708   */\n      swap2\n      pop\n        /* \"#utility.yul\":9477:9719   */\n      pop\n        /* \"#utility.yul\":9807:9811   */\n      0x20\n        /* \"#utility.yul\":9800:9805   */\n      dup4\n        /* \"#utility.yul\":9796:9812   */\n      add\n        /* \"#utility.yul\":9790:9813   */\n      mload\n        /* \"#utility.yul\":9826:9889   */\n      tag_393\n        /* \"#utility.yul\":9883:9887   */\n      0x20\n        /* \"#utility.yul\":9878:9881   */\n      dup7\n        /* \"#utility.yul\":9874:9888   */\n      add\n        /* \"#utility.yul\":9860:9872   */\n      dup3\n        /* \"#utility.yul\":9826:9889   */\n      tag_394\n      jump\t// in\n    tag_393:\n        /* \"#utility.yul\":9729:9899   */\n      pop\n        /* \"#utility.yul\":9916:9920   */\n      dup1\n        /* \"#utility.yul\":9909:9920   */\n      swap2\n      pop\n        /* \"#utility.yul\":9431:9926   */\n      pop\n        /* \"#utility.yul\":9307:9926   */\n      swap3\n      swap2\n      pop\n      pop\n      jump\t// out\n        /* \"#utility.yul\":9932:10040   */\n    tag_394:\n        /* \"#utility.yul\":10009:10033   */\n      tag_396\n        /* \"#utility.yul\":10027:10032   */\n      dup2\n        /* \"#utility.yul\":10009:10033   */\n      tag_397\n      jump\t// in\n    tag_396:\n        /* \"#utility.yul\":10004:10007   */\n      dup3\n        /* \"#utility.yul\":9997:10034   */\n      mstore\n        /* \"#utility.yul\":9932:10040   */\n      pop\n      pop\n      jump\t// out\n        /* \"#utility.yul\":10046:10164   */\n    tag_398:\n        /* \"#utility.yul\":10133:10157   */\n      tag_400\n        /* \"#utility.yul\":10151:10156   */\n      dup2\n        /* \"#utility.yul\":10133:10157   */\n      tag_397\n      jump\t// in\n    tag_400:\n        /* \"#utility.yul\":10128:10131   */\n      dup3\n        /* \"#utility.yul\":10121:10158   */\n      mstore\n        /* \"#utility.yul\":10046:10164   */\n      pop\n      pop\n      jump\t// out\n        /* \"#utility.yul\":10170:10871   */\n    tag_134:\n        /* \"#utility.yul\":10451:10454   */\n      0x00\n        /* \"#utility.yul\":10473:10568   */\n      tag_402\n        /* \"#utility.yul\":10564:10567   */\n      dup3\n        /* \"#utility.yul\":10555:10561   */\n      dup6\n        /* \"#utility.yul\":10473:10568   */\n      tag_349\n      jump\t// in\n    tag_402:\n        /* \"#utility.yul\":10466:10568   */\n      swap2\n      pop\n        /* \"#utility.yul\":10585:10733   */\n      tag_403\n        /* \"#utility.yul\":10729:10732   */\n      dup3\n        /* \"#utility.yul\":10585:10733   */\n      tag_375\n      jump\t// in\n    tag_403:\n        /* \"#utility.yul\":10578:10733   */\n      swap2\n      pop\n        /* \"#utility.yul\":10750:10845   */\n      tag_404\n        /* \"#utility.yul\":10841:10844   */\n      dup3\n        /* \"#utility.yul\":10832:10838   */\n      dup5\n        /* \"#utility.yul\":10750:10845   */\n      tag_349\n      jump\t// in\n    tag_404:\n        /* \"#utility.yul\":10743:10845   */\n      swap2\n      pop\n        /* \"#utility.yul\":10862:10865   */\n      dup2\n        /* \"#utility.yul\":10855:10865   */\n      swap1\n      pop\n        /* \"#utility.yul\":10170:10871   */\n      swap4\n      swap3\n      pop\n      pop\n      pop\n      jump\t// out\n        /* \"#utility.yul\":10877:11290   */\n    tag_15:\n        /* \"#utility.yul\":11040:11044   */\n      0x00\n        /* \"#utility.yul\":11078:11080   */\n      0x20\n        /* \"#utility.yul\":11067:11076   */\n      dup3\n        /* \"#utility.yul\":11063:11081   */\n      add\n        /* \"#utility.yul\":11055:11081   */\n      swap1\n      pop\n        /* \"#utility.yul\":11127:11136   */\n      dup2\n        /* \"#utility.yul\":11121:11125   */\n      dup2\n        /* \"#utility.yul\":11117:11137   */\n      sub\n        /* \"#utility.yul\":11113:11114   */\n      0x00\n        /* \"#utility.yul\":11102:11111   */\n      dup4\n        /* \"#utility.yul\":11098:11115   */\n      add\n        /* \"#utility.yul\":11091:11138   */\n      mstore\n        /* \"#utility.yul\":11155:11283   */\n      tag_406\n        /* \"#utility.yul\":11278:11282   */\n      dup2\n        /* \"#utility.yul\":11269:11275   */\n      dup5\n        /* \"#utility.yul\":11155:11283   */\n      tag_315\n      jump\t// in\n    tag_406:\n        /* \"#utility.yul\":11147:11283   */\n      swap1\n      pop\n        /* \"#utility.yul\":10877:11290   */\n      swap3\n      swap2\n      pop\n      pop\n      jump\t// out\n        /* \"#utility.yul\":11296:11609   */\n    tag_39:\n        /* \"#utility.yul\":11409:11413   */\n      0x00\n        /* \"#utility.yul\":11447:11449   */\n      0x20\n        /* \"#utility.yul\":11436:11445   */\n      dup3\n        /* \"#utility.yul\":11432:11450   */\n      add\n        /* \"#utility.yul\":11424:11450   */\n      swap1\n      pop\n        /* \"#utility.yul\":11496:11505   */\n      dup2\n        /* \"#utility.yul\":11490:11494   */\n      dup2\n        /* \"#utility.yul\":11486:11506   */\n      sub\n        /* \"#utility.yul\":11482:11483   */\n      0x00\n        /* \"#utility.yul\":11471:11480   */\n      dup4\n        /* \"#utility.yul\":11467:11484   */\n      add\n        /* \"#utility.yul\":11460:11507   */\n      mstore\n        /* \"#utility.yul\":11524:11602   */\n      tag_408\n        /* \"#utility.yul\":11597:11601   */\n      dup2\n        /* \"#utility.yul\":11588:11594   */\n      dup5\n        /* \"#utility.yul\":11524:11602   */\n      tag_342\n      jump\t// in\n    tag_408:\n        /* \"#utility.yul\":11516:11602   */\n      swap1\n      pop\n        /* \"#utility.yul\":11296:11609   */\n      swap3\n      swap2\n      pop\n      pop\n      jump\t// out\n        /* \"#utility.yul\":11615:12038   */\n    tag_23:\n        /* \"#utility.yul\":11756:11760   */\n      0x00\n        /* \"#utility.yul\":11794:11796   */\n      0x40\n        /* \"#utility.yul\":11783:11792   */\n      dup3\n        /* \"#utility.yul\":11779:11797   */\n      add\n        /* \"#utility.yul\":11771:11797   */\n      swap1\n      pop\n        /* \"#utility.yul\":11843:11852   */\n      dup2\n        /* \"#utility.yul\":11837:11841   */\n      dup2\n        /* \"#utility.yul\":11833:11853   */\n      sub\n        /* \"#utility.yul\":11829:11830   */\n      0x00\n        /* \"#utility.yul\":11818:11827   */\n      dup4\n        /* \"#utility.yul\":11814:11831   */\n      add\n        /* \"#utility.yul\":11807:11854   */\n      mstore\n        /* \"#utility.yul\":11871:11949   */\n      tag_410\n        /* \"#utility.yul\":11944:11948   */\n      dup2\n        /* \"#utility.yul\":11935:11941   */\n      dup6\n        /* \"#utility.yul\":11871:11949   */\n      tag_342\n      jump\t// in\n    tag_410:\n        /* \"#utility.yul\":11863:11949   */\n      swap1\n      pop\n        /* \"#utility.yul\":11959:12031   */\n      tag_411\n        /* \"#utility.yul\":12027:12029   */\n      0x20\n        /* \"#utility.yul\":12016:12025   */\n      dup4\n        /* \"#utility.yul\":12012:12030   */\n      add\n        /* \"#utility.yul\":12003:12009   */\n      dup5\n        /* \"#utility.yul\":11959:12031   */\n      tag_311\n      jump\t// in\n    tag_411:\n        /* \"#utility.yul\":11615:12038   */\n      swap4\n      swap3\n      pop\n      pop\n      pop\n      jump\t// out\n        /* \"#utility.yul\":12044:12553   */\n    tag_45:\n        /* \"#utility.yul\":12201:12205   */\n      0x00\n        /* \"#utility.yul\":12239:12241   */\n      0x60\n        /* \"#utility.yul\":12228:12237   */\n      dup3\n        /* \"#utility.yul\":12224:12242   */\n      add\n        /* \"#utility.yul\":12216:12242   */\n      swap1\n      pop\n        /* \"#utility.yul\":12288:12297   */\n      dup2\n        /* \"#utility.yul\":12282:12286   */\n      dup2\n        /* \"#utility.yul\":12278:12298   */\n      sub\n        /* \"#utility.yul\":12274:12275   */\n      0x00\n        /* \"#utility.yul\":12263:12272   */\n      dup4\n        /* \"#utility.yul\":12259:12276   */\n      add\n        /* \"#utility.yul\":12252:12299   */\n      mstore\n        /* \"#utility.yul\":12316:12394   */\n      tag_413\n        /* \"#utility.yul\":12389:12393   */\n      dup2\n        /* \"#utility.yul\":12380:12386   */\n      dup7\n        /* \"#utility.yul\":12316:12394   */\n      tag_342\n      jump\t// in\n    tag_413:\n        /* \"#utility.yul\":12308:12394   */\n      swap1\n      pop\n        /* \"#utility.yul\":12404:12470   */\n      tag_414\n        /* \"#utility.yul\":12466:12468   */\n      0x20\n        /* \"#utility.yul\":12455:12464   */\n      dup4\n        /* \"#utility.yul\":12451:12469   */\n      add\n        /* \"#utility.yul\":12442:12448   */\n      dup6\n        /* \"#utility.yul\":12404:12470   */\n      tag_329\n      jump\t// in\n    tag_414:\n        /* \"#utility.yul\":12480:12546   */\n      tag_415\n        /* \"#utility.yul\":12542:12544   */\n      0x40\n        /* \"#utility.yul\":12531:12540   */\n      dup4\n        /* \"#utility.yul\":12527:12545   */\n      add\n        /* \"#utility.yul\":12518:12524   */\n      dup5\n        /* \"#utility.yul\":12480:12546   */\n      tag_329\n      jump\t// in\n    tag_415:\n        /* \"#utility.yul\":12044:12553   */\n      swap5\n      swap4\n      pop\n      pop\n      pop\n      pop\n      jump\t// out\n        /* \"#utility.yul\":12559:12982   */\n    tag_29:\n        /* \"#utility.yul\":12700:12704   */\n      0x00\n        /* \"#utility.yul\":12738:12740   */\n      0x40\n        /* \"#utility.yul\":12727:12736   */\n      dup3\n        /* \"#utility.yul\":12723:12741   */\n      add\n        /* \"#utility.yul\":12715:12741   */\n      swap1\n      pop\n        /* \"#utility.yul\":12787:12796   */\n      dup2\n        /* \"#utility.yul\":12781:12785   */\n      dup2\n        /* \"#utility.yul\":12777:12797   */\n      sub\n        /* \"#utility.yul\":12773:12774   */\n      0x00\n        /* \"#utility.yul\":12762:12771   */\n      dup4\n        /* \"#utility.yul\":12758:12775   */\n      add\n        /* \"#utility.yul\":12751:12798   */\n      mstore\n        /* \"#utility.yul\":12815:12893   */\n      tag_417\n        /* \"#utility.yul\":12888:12892   */\n      dup2\n        /* \"#utility.yul\":12879:12885   */\n      dup6\n        /* \"#utility.yul\":12815:12893   */\n      tag_342\n      jump\t// in\n    tag_417:\n        /* \"#utility.yul\":12807:12893   */\n      swap1\n      pop\n        /* \"#utility.yul\":12903:12975   */\n      tag_418\n        /* \"#utility.yul\":12971:12973   */\n      0x20\n        /* \"#utility.yul\":12960:12969   */\n      dup4\n        /* \"#utility.yul\":12956:12974   */\n      add\n        /* \"#utility.yul\":12947:12953   */\n      dup5\n        /* \"#utility.yul\":12903:12975   */\n      tag_398\n      jump\t// in\n    tag_418:\n        /* \"#utility.yul\":12559:12982   */\n      swap4\n      swap3\n      pop\n      pop\n      pop\n      jump\t// out\n        /* \"#utility.yul\":12988:13407   */\n    tag_127:\n        /* \"#utility.yul\":13154:13158   */\n      0x00\n        /* \"#utility.yul\":13192:13194   */\n      0x20\n        /* \"#utility.yul\":13181:13190   */\n      dup3\n        /* \"#utility.yul\":13177:13195   */\n      add\n        /* \"#utility.yul\":13169:13195   */\n      swap1\n      pop\n        /* \"#utility.yul\":13241:13250   */\n      dup2\n        /* \"#utility.yul\":13235:13239   */\n      dup2\n        /* \"#utility.yul\":13231:13251   */\n      sub\n        /* \"#utility.yul\":13227:13228   */\n      0x00\n        /* \"#utility.yul\":13216:13225   */\n      dup4\n        /* \"#utility.yul\":13212:13229   */\n      add\n        /* \"#utility.yul\":13205:13252   */\n      mstore\n        /* \"#utility.yul\":13269:13400   */\n      tag_420\n        /* \"#utility.yul\":13395:13399   */\n      dup2\n        /* \"#utility.yul\":13269:13400   */\n      tag_355\n      jump\t// in\n    tag_420:\n        /* \"#utility.yul\":13261:13400   */\n      swap1\n      pop\n        /* \"#utility.yul\":12988:13407   */\n      swap2\n      swap1\n      pop\n      jump\t// out\n        /* \"#utility.yul\":13413:13832   */\n    tag_229:\n        /* \"#utility.yul\":13579:13583   */\n      0x00\n        /* \"#utility.yul\":13617:13619   */\n      0x20\n        /* \"#utility.yul\":13606:13615   */\n      dup3\n        /* \"#utility.yul\":13602:13620   */\n      add\n        /* \"#utility.yul\":13594:13620   */\n      swap1\n      pop\n        /* \"#utility.yul\":13666:13675   */\n      dup2\n        /* \"#utility.yul\":13660:13664   */\n      dup2\n        /* \"#utility.yul\":13656:13676   */\n      sub\n        /* \"#utility.yul\":13652:13653   */\n      0x00\n        /* \"#utility.yul\":13641:13650   */\n      dup4\n        /* \"#utility.yul\":13637:13654   */\n      add\n        /* \"#utility.yul\":13630:13677   */\n      mstore\n        /* \"#utility.yul\":13694:13825   */\n      tag_422\n        /* \"#utility.yul\":13820:13824   */\n      dup2\n        /* \"#utility.yul\":13694:13825   */\n      tag_360\n      jump\t// in\n    tag_422:\n        /* \"#utility.yul\":13686:13825   */\n      swap1\n      pop\n        /* \"#utility.yul\":13413:13832   */\n      swap2\n      swap1\n      pop\n      jump\t// out\n        /* \"#utility.yul\":13838:14257   */\n    tag_213:\n        /* \"#utility.yul\":14004:14008   */\n      0x00\n        /* \"#utility.yul\":14042:14044   */\n      0x20\n        /* \"#utility.yul\":14031:14040   */\n      dup3\n        /* \"#utility.yul\":14027:14045   */\n      add\n        /* \"#utility.yul\":14019:14045   */\n      swap1\n      pop\n        /* \"#utility.yul\":14091:14100   */\n      dup2\n        /* \"#utility.yul\":14085:14089   */\n      dup2\n        /* \"#utility.yul\":14081:14101   */\n      sub\n        /* \"#utility.yul\":14077:14078   */\n      0x00\n        /* \"#utility.yul\":14066:14075   */\n      dup4\n        /* \"#utility.yul\":14062:14079   */\n      add\n        /* \"#utility.yul\":14055:14102   */\n      mstore\n        /* \"#utility.yul\":14119:14250   */\n      tag_424\n        /* \"#utility.yul\":14245:14249   */\n      dup2\n        /* \"#utility.yul\":14119:14250   */\n      tag_365\n      jump\t// in\n    tag_424:\n        /* \"#utility.yul\":14111:14250   */\n      swap1\n      pop\n        /* \"#utility.yul\":13838:14257   */\n      swap2\n      swap1\n      pop\n      jump\t// out\n        /* \"#utility.yul\":14263:14682   */\n    tag_124:\n        /* \"#utility.yul\":14429:14433   */\n      0x00\n        /* \"#utility.yul\":14467:14469   */\n      0x20\n        /* \"#utility.yul\":14456:14465   */\n      dup3\n        /* \"#utility.yul\":14452:14470   */\n      add\n        /* \"#utility.yul\":14444:14470   */\n      swap1\n      pop\n        /* \"#utility.yul\":14516:14525   */\n      dup2\n        /* \"#utility.yul\":14510:14514   */\n      dup2\n        /* \"#utility.yul\":14506:14526   */\n      sub\n        /* \"#utility.yul\":14502:14503   */\n      0x00\n        /* \"#utility.yul\":14491:14500   */\n      dup4\n        /* \"#utility.yul\":14487:14504   */\n      add\n        /* \"#utility.yul\":14480:14527   */\n      mstore\n        /* \"#utility.yul\":14544:14675   */\n      tag_426\n        /* \"#utility.yul\":14670:14674   */\n      dup2\n        /* \"#utility.yul\":14544:14675   */\n      tag_370\n      jump\t// in\n    tag_426:\n        /* \"#utility.yul\":14536:14675   */\n      swap1\n      pop\n        /* \"#utility.yul\":14263:14682   */\n      swap2\n      swap1\n      pop\n      jump\t// out\n        /* \"#utility.yul\":14688:15107   */\n    tag_222:\n        /* \"#utility.yul\":14854:14858   */\n      0x00\n        /* \"#utility.yul\":14892:14894   */\n      0x20\n        /* \"#utility.yul\":14881:14890   */\n      dup3\n        /* \"#utility.yul\":14877:14895   */\n      add\n        /* \"#utility.yul\":14869:14895   */\n      swap1\n      pop\n        /* \"#utility.yul\":14941:14950   */\n      dup2\n        /* \"#utility.yul\":14935:14939   */\n      dup2\n        /* \"#utility.yul\":14931:14951   */\n      sub\n        /* \"#utility.yul\":14927:14928   */\n      0x00\n        /* \"#utility.yul\":14916:14925   */\n      dup4\n        /* \"#utility.yul\":14912:14929   */\n      add\n        /* \"#utility.yul\":14905:14952   */\n      mstore\n        /* \"#utility.yul\":14969:15100   */\n      tag_428\n        /* \"#utility.yul\":15095:15099   */\n      dup2\n        /* \"#utility.yul\":14969:15100   */\n      tag_380\n      jump\t// in\n    tag_428:\n        /* \"#utility.yul\":14961:15100   */\n      swap1\n      pop\n        /* \"#utility.yul\":14688:15107   */\n      swap2\n      swap1\n      pop\n      jump\t// out\n        /* \"#utility.yul\":15113:15532   */\n    tag_80:\n        /* \"#utility.yul\":15279:15283   */\n      0x00\n        /* \"#utility.yul\":15317:15319   */\n      0x20\n        /* \"#utility.yul\":15306:15315   */\n      dup3\n        /* \"#utility.yul\":15302:15320   */\n      add\n        /* \"#utility.yul\":15294:15320   */\n      swap1\n      pop\n        /* \"#utility.yul\":15366:15375   */\n      dup2\n        /* \"#utility.yul\":15360:15364   */\n      dup2\n        /* \"#utility.yul\":15356:15376   */\n      sub\n        /* \"#utility.yul\":15352:15353   */\n      0x00\n        /* \"#utility.yul\":15341:15350   */\n      dup4\n        /* \"#utility.yul\":15337:15354   */\n      add\n        /* \"#utility.yul\":15330:15377   */\n      mstore\n        /* \"#utility.yul\":15394:15525   */\n      tag_430\n        /* \"#utility.yul\":15520:15524   */\n      dup2\n        /* \"#utility.yul\":15394:15525   */\n      tag_385\n      jump\t// in\n    tag_430:\n        /* \"#utility.yul\":15386:15525   */\n      swap1\n      pop\n        /* \"#utility.yul\":15113:15532   */\n      swap2\n      swap1\n      pop\n      jump\t// out\n        /* \"#utility.yul\":15538:15911   */\n    tag_49:\n        /* \"#utility.yul\":15681:15685   */\n      0x00\n        /* \"#utility.yul\":15719:15721   */\n      0x20\n        /* \"#utility.yul\":15708:15717   */\n      dup3\n        /* \"#utility.yul\":15704:15722   */\n      add\n        /* \"#utility.yul\":15696:15722   */\n      swap1\n      pop\n        /* \"#utility.yul\":15768:15777   */\n      dup2\n        /* \"#utility.yul\":15762:15766   */\n      dup2\n        /* \"#utility.yul\":15758:15778   */\n      sub\n        /* \"#utility.yul\":15754:15755   */\n      0x00\n        /* \"#utility.yul\":15743:15752   */\n      dup4\n        /* \"#utility.yul\":15739:15756   */\n      add\n        /* \"#utility.yul\":15732:15779   */\n      mstore\n        /* \"#utility.yul\":15796:15904   */\n      tag_432\n        /* \"#utility.yul\":15899:15903   */\n      dup2\n        /* \"#utility.yul\":15890:15896   */\n      dup5\n        /* \"#utility.yul\":15796:15904   */\n      tag_390\n      jump\t// in\n    tag_432:\n        /* \"#utility.yul\":15788:15904   */\n      swap1\n      pop\n        /* \"#utility.yul\":15538:15911   */\n      swap3\n      swap2\n      pop\n      pop\n      jump\t// out\n        /* \"#utility.yul\":15917:16046   */\n    tag_250:\n        /* \"#utility.yul\":15951:15957   */\n      0x00\n        /* \"#utility.yul\":15978:15998   */\n      tag_434\n      tag_435\n      jump\t// in\n    tag_434:\n        /* \"#utility.yul\":15968:15998   */\n      swap1\n      pop\n        /* \"#utility.yul\":16007:16040   */\n      tag_436\n        /* \"#utility.yul\":16035:16039   */\n      dup3\n        /* \"#utility.yul\":16027:16033   */\n      dup3\n        /* \"#utility.yul\":16007:16040   */\n      tag_437\n      jump\t// in\n    tag_436:\n        /* \"#utility.yul\":15917:16046   */\n      swap2\n      swap1\n      pop\n      jump\t// out\n        /* \"#utility.yul\":16052:16127   */\n    tag_435:\n        /* \"#utility.yul\":16085:16091   */\n      0x00\n        /* \"#utility.yul\":16118:16120   */\n      0x40\n        /* \"#utility.yul\":16112:16121   */\n      mload\n        /* \"#utility.yul\":16102:16121   */\n      swap1\n      pop\n        /* \"#utility.yul\":16052:16127   */\n      swap1\n      jump\t// out\n        /* \"#utility.yul\":16133:16441   */\n    tag_249:\n        /* \"#utility.yul\":16195:16199   */\n      0x00\n        /* \"#utility.yul\":16285:16303   */\n      0xffffffffffffffff\n        /* \"#utility.yul\":16277:16283   */\n      dup3\n        /* \"#utility.yul\":16274:16304   */\n      gt\n        /* \"#utility.yul\":16271:16327   */\n      iszero\n      tag_440\n      jumpi\n        /* \"#utility.yul\":16307:16325   */\n      tag_441\n      tag_53\n      jump\t// in\n    tag_441:\n        /* \"#utility.yul\":16271:16327   */\n    tag_440:\n        /* \"#utility.yul\":16345:16374   */\n      tag_442\n        /* \"#utility.yul\":16367:16373   */\n      dup3\n        /* \"#utility.yul\":16345:16374   */\n      tag_341\n      jump\t// in\n    tag_442:\n        /* \"#utility.yul\":16337:16374   */\n      swap1\n      pop\n        /* \"#utility.yul\":16429:16433   */\n      0x20\n        /* \"#utility.yul\":16423:16427   */\n      dup2\n        /* \"#utility.yul\":16419:16434   */\n      add\n        /* \"#utility.yul\":16411:16434   */\n      swap1\n      pop\n        /* \"#utility.yul\":16133:16441   */\n      swap2\n      swap1\n      pop\n      jump\t// out\n        /* \"#utility.yul\":16447:16589   */\n    tag_322:\n        /* \"#utility.yul\":16524:16528   */\n      0x00\n        /* \"#utility.yul\":16547:16550   */\n      dup2\n        /* \"#utility.yul\":16539:16550   */\n      swap1\n      pop\n        /* \"#utility.yul\":16577:16581   */\n      0x20\n        /* \"#utility.yul\":16572:16575   */\n      dup3\n        /* \"#utility.yul\":16568:16582   */\n      add\n        /* \"#utility.yul\":16560:16582   */\n      swap1\n      pop\n        /* \"#utility.yul\":16447:16589   */\n      swap2\n      swap1\n      pop\n      jump\t// out\n        /* \"#utility.yul\":16595:16719   */\n    tag_318:\n        /* \"#utility.yul\":16672:16678   */\n      0x00\n        /* \"#utility.yul\":16706:16711   */\n      dup2\n        /* \"#utility.yul\":16700:16712   */\n      mload\n        /* \"#utility.yul\":16690:16712   */\n      swap1\n      pop\n        /* \"#utility.yul\":16595:16719   */\n      swap2\n      swap1\n      pop\n      jump\t// out\n        /* \"#utility.yul\":16725:16824   */\n    tag_335:\n        /* \"#utility.yul\":16777:16783   */\n      0x00\n        /* \"#utility.yul\":16811:16816   */\n      dup2\n        /* \"#utility.yul\":16805:16817   */\n      mload\n        /* \"#utility.yul\":16795:16817   */\n      swap1\n      pop\n        /* \"#utility.yul\":16725:16824   */\n      swap2\n      swap1\n      pop\n      jump\t// out\n        /* \"#utility.yul\":16830:16953   */\n    tag_328:\n        /* \"#utility.yul\":16910:16914   */\n      0x00\n        /* \"#utility.yul\":16942:16946   */\n      0x20\n        /* \"#utility.yul\":16937:16940   */\n      dup3\n        /* \"#utility.yul\":16933:16947   */\n      add\n        /* \"#utility.yul\":16925:16947   */\n      swap1\n      pop\n        /* \"#utility.yul\":16830:16953   */\n      swap2\n      swap1\n      pop\n      jump\t// out\n        /* \"#utility.yul\":16959:17153   */\n    tag_320:\n        /* \"#utility.yul\":17068:17079   */\n      0x00\n        /* \"#utility.yul\":17102:17108   */\n      dup3\n        /* \"#utility.yul\":17097:17100   */\n      dup3\n        /* \"#utility.yul\":17090:17109   */\n      mstore\n        /* \"#utility.yul\":17142:17146   */\n      0x20\n        /* \"#utility.yul\":17137:17140   */\n      dup3\n        /* \"#utility.yul\":17133:17147   */\n      add\n        /* \"#utility.yul\":17118:17147   */\n      swap1\n      pop\n        /* \"#utility.yul\":16959:17153   */\n      swap3\n      swap2\n      pop\n      pop\n      jump\t// out\n        /* \"#utility.yul\":17159:17318   */\n    tag_337:\n        /* \"#utility.yul\":17233:17244   */\n      0x00\n        /* \"#utility.yul\":17267:17273   */\n      dup3\n        /* \"#utility.yul\":17262:17265   */\n      dup3\n        /* \"#utility.yul\":17255:17274   */\n      mstore\n        /* \"#utility.yul\":17307:17311   */\n      0x20\n        /* \"#utility.yul\":17302:17305   */\n      dup3\n        /* \"#utility.yul\":17298:17312   */\n      add\n        /* \"#utility.yul\":17283:17312   */\n      swap1\n      pop\n        /* \"#utility.yul\":17159:17318   */\n      swap3\n      swap2\n      pop\n      pop\n      jump\t// out\n        /* \"#utility.yul\":17324:17493   */\n    tag_346:\n        /* \"#utility.yul\":17408:17419   */\n      0x00\n        /* \"#utility.yul\":17442:17448   */\n      dup3\n        /* \"#utility.yul\":17437:17440   */\n      dup3\n        /* \"#utility.yul\":17430:17449   */\n      mstore\n        /* \"#utility.yul\":17482:17486   */\n      0x20\n        /* \"#utility.yul\":17477:17480   */\n      dup3\n        /* \"#utility.yul\":17473:17487   */\n      add\n        /* \"#utility.yul\":17458:17487   */\n      swap1\n      pop\n        /* \"#utility.yul\":17324:17493   */\n      swap3\n      swap2\n      pop\n      pop\n      jump\t// out\n        /* \"#utility.yul\":17499:17647   */\n    tag_353:\n        /* \"#utility.yul\":17601:17612   */\n      0x00\n        /* \"#utility.yul\":17638:17641   */\n      dup2\n        /* \"#utility.yul\":17623:17641   */\n      swap1\n      pop\n        /* \"#utility.yul\":17499:17647   */\n      swap3\n      swap2\n      pop\n      pop\n      jump\t// out\n        /* \"#utility.yul\":17653:17749   */\n    tag_314:\n        /* \"#utility.yul\":17690:17697   */\n      0x00\n        /* \"#utility.yul\":17719:17743   */\n      tag_452\n        /* \"#utility.yul\":17737:17742   */\n      dup3\n        /* \"#utility.yul\":17719:17743   */\n      tag_453\n      jump\t// in\n    tag_452:\n        /* \"#utility.yul\":17708:17743   */\n      swap1\n      pop\n        /* \"#utility.yul\":17653:17749   */\n      swap2\n      swap1\n      pop\n      jump\t// out\n        /* \"#utility.yul\":17755:17845   */\n    tag_332:\n        /* \"#utility.yul\":17789:17796   */\n      0x00\n        /* \"#utility.yul\":17832:17837   */\n      dup2\n        /* \"#utility.yul\":17825:17838   */\n      iszero\n        /* \"#utility.yul\":17818:17839   */\n      iszero\n        /* \"#utility.yul\":17807:17839   */\n      swap1\n      pop\n        /* \"#utility.yul\":17755:17845   */\n      swap2\n      swap1\n      pop\n      jump\t// out\n        /* \"#utility.yul\":17851:17977   */\n    tag_453:\n        /* \"#utility.yul\":17888:17895   */\n      0x00\n        /* \"#utility.yul\":17928:17970   */\n      0xffffffffffffffffffffffffffffffffffffffff\n        /* \"#utility.yul\":17921:17926   */\n      dup3\n        /* \"#utility.yul\":17917:17971   */\n      and\n        /* \"#utility.yul\":17906:17971   */\n      swap1\n      pop\n        /* \"#utility.yul\":17851:17977   */\n      swap2\n      swap1\n      pop\n      jump\t// out\n        /* \"#utility.yul\":17983:18060   */\n    tag_397:\n        /* \"#utility.yul\":18020:18027   */\n      0x00\n        /* \"#utility.yul\":18049:18054   */\n      dup2\n        /* \"#utility.yul\":18038:18054   */\n      swap1\n      pop\n        /* \"#utility.yul\":17983:18060   */\n      swap2\n      swap1\n      pop\n      jump\t// out\n        /* \"#utility.yul\":18066:18220   */\n    tag_255:\n        /* \"#utility.yul\":18150:18156   */\n      dup3\n        /* \"#utility.yul\":18145:18148   */\n      dup2\n        /* \"#utility.yul\":18140:18143   */\n      dup4\n        /* \"#utility.yul\":18127:18157   */\n      calldatacopy\n        /* \"#utility.yul\":18212:18213   */\n      0x00\n        /* \"#utility.yul\":18203:18209   */\n      dup4\n        /* \"#utility.yul\":18198:18201   */\n      dup4\n        /* \"#utility.yul\":18194:18210   */\n      add\n        /* \"#utility.yul\":18187:18214   */\n      mstore\n        /* \"#utility.yul\":18066:18220   */\n      pop\n      pop\n      pop\n      jump\t// out\n        /* \"#utility.yul\":18226:18533   */\n    tag_339:\n        /* \"#utility.yul\":18294:18295   */\n      0x00\n        /* \"#utility.yul\":18304:18417   */\n    tag_459:\n        /* \"#utility.yul\":18318:18324   */\n      dup4\n        /* \"#utility.yul\":18315:18316   */\n      dup2\n        /* \"#utility.yul\":18312:18325   */\n      lt\n        /* \"#utility.yul\":18304:18417   */\n      iszero\n      tag_461\n      jumpi\n        /* \"#utility.yul\":18403:18404   */\n      dup1\n        /* \"#utility.yul\":18398:18401   */\n      dup3\n        /* \"#utility.yul\":18394:18405   */\n      add\n        /* \"#utility.yul\":18388:18406   */\n      mload\n        /* \"#utility.yul\":18384:18385   */\n      dup2\n        /* \"#utility.yul\":18379:18382   */\n      dup5\n        /* \"#utility.yul\":18375:18386   */\n      add\n        /* \"#utility.yul\":18368:18407   */\n      mstore\n        /* \"#utility.yul\":18340:18342   */\n      0x20\n        /* \"#utility.yul\":18337:18338   */\n      dup2\n        /* \"#utility.yul\":18333:18343   */\n      add\n        /* \"#utility.yul\":18328:18343   */\n      swap1\n      pop\n        /* \"#utility.yul\":18304:18417   */\n      jump(tag_459)\n    tag_461:\n        /* \"#utility.yul\":18435:18441   */\n      dup4\n        /* \"#utility.yul\":18432:18433   */\n      dup2\n        /* \"#utility.yul\":18429:18442   */\n      gt\n        /* \"#utility.yul\":18426:18527   */\n      iszero\n      tag_462\n      jumpi\n        /* \"#utility.yul\":18515:18516   */\n      0x00\n        /* \"#utility.yul\":18506:18512   */\n      dup5\n        /* \"#utility.yul\":18501:18504   */\n      dup5\n        /* \"#utility.yul\":18497:18513   */\n      add\n        /* \"#utility.yul\":18490:18517   */\n      mstore\n        /* \"#utility.yul\":18426:18527   */\n    tag_462:\n        /* \"#utility.yul\":18275:18533   */\n      pop\n        /* \"#utility.yul\":18226:18533   */\n      pop\n      pop\n      pop\n      jump\t// out\n        /* \"#utility.yul\":18539:18859   */\n    tag_64:\n        /* \"#utility.yul\":18583:18589   */\n      0x00\n        /* \"#utility.yul\":18620:18621   */\n      0x02\n        /* \"#utility.yul\":18614:18618   */\n      dup3\n        /* \"#utility.yul\":18610:18622   */\n      div\n        /* \"#utility.yul\":18600:18622   */\n      swap1\n      pop\n        /* \"#utility.yul\":18667:18668   */\n      0x01\n        /* \"#utility.yul\":18661:18665   */\n      dup3\n        /* \"#utility.yul\":18657:18669   */\n      and\n        /* \"#utility.yul\":18688:18706   */\n      dup1\n        /* \"#utility.yul\":18678:18759   */\n      tag_464\n      jumpi\n        /* \"#utility.yul\":18744:18748   */\n      0x7f\n        /* \"#utility.yul\":18736:18742   */\n      dup3\n        /* \"#utility.yul\":18732:18749   */\n      and\n        /* \"#utility.yul\":18722:18749   */\n      swap2\n      pop\n        /* \"#utility.yul\":18678:18759   */\n    tag_464:\n        /* \"#utility.yul\":18806:18808   */\n      0x20\n        /* \"#utility.yul\":18798:18804   */\n      dup3\n        /* \"#utility.yul\":18795:18809   */\n      lt\n        /* \"#utility.yul\":18775:18793   */\n      dup2\n        /* \"#utility.yul\":18772:18810   */\n      eq\n        /* \"#utility.yul\":18769:18853   */\n      iszero\n      tag_465\n      jumpi\n        /* \"#utility.yul\":18825:18843   */\n      tag_466\n      tag_467\n      jump\t// in\n    tag_466:\n        /* \"#utility.yul\":18769:18853   */\n    tag_465:\n        /* \"#utility.yul\":18590:18859   */\n      pop\n        /* \"#utility.yul\":18539:18859   */\n      swap2\n      swap1\n      pop\n      jump\t// out\n        /* \"#utility.yul\":18865:19146   */\n    tag_437:\n        /* \"#utility.yul\":18948:18975   */\n      tag_469\n        /* \"#utility.yul\":18970:18974   */\n      dup3\n        /* \"#utility.yul\":18948:18975   */\n      tag_341\n      jump\t// in\n    tag_469:\n        /* \"#utility.yul\":18940:18946   */\n      dup2\n        /* \"#utility.yul\":18936:18976   */\n      add\n        /* \"#utility.yul\":19078:19084   */\n      dup2\n        /* \"#utility.yul\":19066:19076   */\n      dup2\n        /* \"#utility.yul\":19063:19085   */\n      lt\n        /* \"#utility.yul\":19042:19060   */\n      0xffffffffffffffff\n        /* \"#utility.yul\":19030:19040   */\n      dup3\n        /* \"#utility.yul\":19027:19061   */\n      gt\n        /* \"#utility.yul\":19024:19086   */\n      or\n        /* \"#utility.yul\":19021:19109   */\n      iszero\n      tag_470\n      jumpi\n        /* \"#utility.yul\":19089:19107   */\n      tag_471\n      tag_53\n      jump\t// in\n    tag_471:\n        /* \"#utility.yul\":19021:19109   */\n    tag_470:\n        /* \"#utility.yul\":19129:19139   */\n      dup1\n        /* \"#utility.yul\":19125:19127   */\n      0x40\n        /* \"#utility.yul\":19118:19140   */\n      mstore\n        /* \"#utility.yul\":18908:19146   */\n      pop\n        /* \"#utility.yul\":18865:19146   */\n      pop\n      pop\n      jump\t// out\n        /* \"#utility.yul\":19152:19385   */\n    tag_72:\n        /* \"#utility.yul\":19191:19194   */\n      0x00\n        /* \"#utility.yul\":19214:19238   */\n      tag_473\n        /* \"#utility.yul\":19232:19237   */\n      dup3\n        /* \"#utility.yul\":19214:19238   */\n      tag_397\n      jump\t// in\n    tag_473:\n        /* \"#utility.yul\":19205:19238   */\n      swap2\n      pop\n        /* \"#utility.yul\":19260:19326   */\n      0xffffffffffffffffffffffffffffffffffffffffffffffffffffffffffffffff\n        /* \"#utility.yul\":19253:19258   */\n      dup3\n        /* \"#utility.yul\":19250:19327   */\n      eq\n        /* \"#utility.yul\":19247:19350   */\n      iszero\n      tag_474\n      jumpi\n        /* \"#utility.yul\":19330:19348   */\n      tag_475\n      tag_476\n      jump\t// in\n    tag_475:\n        /* \"#utility.yul\":19247:19350   */\n    tag_474:\n        /* \"#utility.yul\":19377:19378   */\n      0x01\n        /* \"#utility.yul\":19370:19375   */\n      dup3\n        /* \"#utility.yul\":19366:19379   */\n      add\n        /* \"#utility.yul\":19359:19379   */\n      swap1\n      pop\n        /* \"#utility.yul\":19152:19385   */\n      swap2\n      swap1\n      pop\n      jump\t// out\n        /* \"#utility.yul\":19391:19571   */\n    tag_476:\n        /* \"#utility.yul\":19439:19516   */\n      0x4e487b7100000000000000000000000000000000000000000000000000000000\n        /* \"#utility.yul\":19436:19437   */\n      0x00\n        /* \"#utility.yul\":19429:19517   */\n      mstore\n        /* \"#utility.yul\":19536:19540   */\n      0x11\n        /* \"#utility.yul\":19533:19534   */\n      0x04\n        /* \"#utility.yul\":19526:19541   */\n      mstore\n        /* \"#utility.yul\":19560:19564   */\n      0x24\n        /* \"#utility.yul\":19557:19558   */\n      0x00\n        /* \"#utility.yul\":19550:19565   */\n      revert\n        /* \"#utility.yul\":19577:19757   */\n    tag_467:\n        /* \"#utility.yul\":19625:19702   */\n      0x4e487b7100000000000000000000000000000000000000000000000000000000\n        /* \"#utility.yul\":19622:19623   */\n      0x00\n        /* \"#utility.yul\":19615:19703   */\n      mstore\n        /* \"#utility.yul\":19722:19726   */\n      0x22\n        /* \"#utility.yul\":19719:19720   */\n      0x04\n        /* \"#utility.yul\":19712:19727   */\n      mstore\n        /* \"#utility.yul\":19746:19750   */\n      0x24\n        /* \"#utility.yul\":19743:19744   */\n      0x00\n        /* \"#utility.yul\":19736:19751   */\n      revert\n        /* \"#utility.yul\":19763:19943   */\n    tag_61:\n        /* \"#utility.yul\":19811:19888   */\n      0x4e487b7100000000000000000000000000000000000000000000000000000000\n        /* \"#utility.yul\":19808:19809   */\n      0x00\n        /* \"#utility.yul\":19801:19889   */\n      mstore\n        /* \"#utility.yul\":19908:19912   */\n      0x32\n        /* \"#utility.yul\":19905:19906   */\n      0x04\n        /* \"#utility.yul\":19898:19913   */\n      mstore\n        /* \"#utility.yul\":19932:19936   */\n      0x24\n        /* \"#utility.yul\":19929:19930   */\n      0x00\n        /* \"#utility.yul\":19922:19937   */\n      revert\n        /* \"#utility.yul\":19949:20129   */\n    tag_53:\n        /* \"#utility.yul\":19997:20074   */\n      0x4e487b7100000000000000000000000000000000000000000000000000000000\n        /* \"#utility.yul\":19994:19995   */\n      0x00\n        /* \"#utility.yul\":19987:20075   */\n      mstore\n        /* \"#utility.yul\":20094:20098   */\n      0x41\n        /* \"#utility.yul\":20091:20092   */\n      0x04\n        /* \"#utility.yul\":20084:20099   */\n      mstore\n        /* \"#utility.yul\":20118:20122   */\n      0x24\n        /* \"#utility.yul\":20115:20116   */\n      0x00\n        /* \"#utility.yul\":20108:20123   */\n      revert\n        /* \"#utility.yul\":20135:20252   */\n    tag_268:\n        /* \"#utility.yul\":20244:20245   */\n      0x00\n        /* \"#utility.yul\":20241:20242   */\n      dup1\n        /* \"#utility.yul\":20234:20246   */\n      revert\n        /* \"#utility.yul\":20258:20375   */\n    tag_253:\n        /* \"#utility.yul\":20367:20368   */\n      0x00\n        /* \"#utility.yul\":20364:20365   */\n      dup1\n        /* \"#utility.yul\":20357:20369   */\n      revert\n        /* \"#utility.yul\":20381:20498   */\n    tag_285:\n        /* \"#utility.yul\":20490:20491   */\n      0x00\n        /* \"#utility.yul\":20487:20488   */\n      dup1\n        /* \"#utility.yul\":20480:20492   */\n      revert\n        /* \"#utility.yul\":20504:20621   */\n    tag_277:\n        /* \"#utility.yul\":20613:20614   */\n      0x00\n        /* \"#utility.yul\":20610:20611   */\n      dup1\n        /* \"#utility.yul\":20603:20615   */\n      revert\n        /* \"#utility.yul\":20627:20729   */\n    tag_341:\n        /* \"#utility.yul\":20668:20674   */\n      0x00\n        /* \"#utility.yul\":20719:20721   */\n      0x1f\n        /* \"#utility.yul\":20715:20722   */\n      not\n        /* \"#utility.yul\":20710:20712   */\n      0x1f\n        /* \"#utility.yul\":20703:20708   */\n      dup4\n        /* \"#utility.yul\":20699:20713   */\n      add\n        /* \"#utility.yul\":20695:20723   */\n      and\n        /* \"#utility.yul\":20685:20723   */\n      swap1\n      pop\n        /* \"#utility.yul\":20627:20729   */\n      swap2\n      swap1\n      pop\n      jump\t// out\n        /* \"#utility.yul\":20735:20959   */\n    tag_359:\n        /* \"#utility.yul\":20875:20909   */\n      0x566f746572206861766520616c72656164792068617320726967687420746f20\n        /* \"#utility.yul\":20871:20872   */\n      0x00\n        /* \"#utility.yul\":20863:20869   */\n      dup3\n        /* \"#utility.yul\":20859:20873   */\n      add\n        /* \"#utility.yul\":20852:20910   */\n      mstore\n        /* \"#utility.yul\":20944:20951   */\n      0x766f74652e000000000000000000000000000000000000000000000000000000\n        /* \"#utility.yul\":20939:20941   */\n      0x20\n        /* \"#utility.yul\":20931:20937   */\n      dup3\n        /* \"#utility.yul\":20927:20942   */\n      add\n        /* \"#utility.yul\":20920:20952   */\n      mstore\n        /* \"#utility.yul\":20735:20959   */\n      pop\n      jump\t// out\n        /* \"#utility.yul\":20965:21185   */\n    tag_364:\n        /* \"#utility.yul\":21105:21139   */\n      0x43616e64696461746520796f752073656e7420646f6573206e6f742065786973\n        /* \"#utility.yul\":21101:21102   */\n      0x00\n        /* \"#utility.yul\":21093:21099   */\n      dup3\n        /* \"#utility.yul\":21089:21103   */\n      add\n        /* \"#utility.yul\":21082:21140   */\n      mstore\n        /* \"#utility.yul\":21174:21177   */\n      0x7400000000000000000000000000000000000000000000000000000000000000\n        /* \"#utility.yul\":21169:21171   */\n      0x20\n        /* \"#utility.yul\":21161:21167   */\n      dup3\n        /* \"#utility.yul\":21157:21172   */\n      add\n        /* \"#utility.yul\":21150:21178   */\n      mstore\n        /* \"#utility.yul\":20965:21185   */\n      pop\n      jump\t// out\n        /* \"#utility.yul\":21191:21425   */\n    tag_369:\n        /* \"#utility.yul\":21331:21365   */\n      0x4d6178206163636f756e7420766f74657320697320726561636865642e204261\n        /* \"#utility.yul\":21327:21328   */\n      0x00\n        /* \"#utility.yul\":21319:21325   */\n      dup3\n        /* \"#utility.yul\":21315:21329   */\n      add\n        /* \"#utility.yul\":21308:21366   */\n      mstore\n        /* \"#utility.yul\":21400:21417   */\n      0x6c6c6f7420697320434c4f5345442e0000000000000000000000000000000000\n        /* \"#utility.yul\":21395:21397   */\n      0x20\n        /* \"#utility.yul\":21387:21393   */\n      dup3\n        /* \"#utility.yul\":21383:21398   */\n      add\n        /* \"#utility.yul\":21376:21418   */\n      mstore\n        /* \"#utility.yul\":21191:21425   */\n      pop\n      jump\t// out\n        /* \"#utility.yul\":21431:21665   */\n    tag_374:\n        /* \"#utility.yul\":21571:21605   */\n      0x4f6e6c792074686520636f6e7472616374206f776e65722063616e2067697665\n        /* \"#utility.yul\":21567:21568   */\n      0x00\n        /* \"#utility.yul\":21559:21565   */\n      dup3\n        /* \"#utility.yul\":21555:21569   */\n      add\n        /* \"#utility.yul\":21548:21606   */\n      mstore\n        /* \"#utility.yul\":21640:21657   */\n      0x20726967687420746f20766f74652e0000000000000000000000000000000000\n        /* \"#utility.yul\":21635:21637   */\n      0x20\n        /* \"#utility.yul\":21627:21633   */\n      dup3\n        /* \"#utility.yul\":21623:21638   */\n      add\n        /* \"#utility.yul\":21616:21658   */\n      mstore\n        /* \"#utility.yul\":21431:21665   */\n      pop\n      jump\t// out\n        /* \"#utility.yul\":21671:21822   */\n    tag_379:\n        /* \"#utility.yul\":21811:21814   */\n      0x2000000000000000000000000000000000000000000000000000000000000000\n        /* \"#utility.yul\":21807:21808   */\n      0x00\n        /* \"#utility.yul\":21799:21805   */\n      dup3\n        /* \"#utility.yul\":21795:21809   */\n      add\n        /* \"#utility.yul\":21788:21815   */\n      mstore\n        /* \"#utility.yul\":21671:21822   */\n      pop\n      jump\t// out\n        /* \"#utility.yul\":21828:21998   */\n    tag_384:\n        /* \"#utility.yul\":21968:21990   */\n      0x566f74657220616c726561647920766f7465642e000000000000000000000000\n        /* \"#utility.yul\":21964:21965   */\n      0x00\n        /* \"#utility.yul\":21956:21962   */\n      dup3\n        /* \"#utility.yul\":21952:21966   */\n      add\n        /* \"#utility.yul\":21945:21991   */\n      mstore\n        /* \"#utility.yul\":21828:21998   */\n      pop\n      jump\t// out\n        /* \"#utility.yul\":22004:22180   */\n    tag_389:\n        /* \"#utility.yul\":22144:22172   */\n      0x596f752068617665206e6f7420726967687420746f20766f7465000000000000\n        /* \"#utility.yul\":22140:22141   */\n      0x00\n        /* \"#utility.yul\":22132:22138   */\n      dup3\n        /* \"#utility.yul\":22128:22142   */\n      add\n        /* \"#utility.yul\":22121:22173   */\n      mstore\n        /* \"#utility.yul\":22004:22180   */\n      pop\n      jump\t// out\n        /* \"#utility.yul\":22186:22308   */\n    tag_259:\n        /* \"#utility.yul\":22259:22283   */\n      tag_494\n        /* \"#utility.yul\":22277:22282   */\n      dup2\n        /* \"#utility.yul\":22259:22283   */\n      tag_314\n      jump\t// in\n    tag_494:\n        /* \"#utility.yul\":22252:22257   */\n      dup2\n        /* \"#utility.yul\":22249:22284   */\n      eq\n        /* \"#utility.yul\":22239:22302   */\n      tag_495\n      jumpi\n        /* \"#utility.yul\":22298:22299   */\n      0x00\n        /* \"#utility.yul\":22295:22296   */\n      dup1\n        /* \"#utility.yul\":22288:22300   */\n      revert\n        /* \"#utility.yul\":22239:22302   */\n    tag_495:\n        /* \"#utility.yul\":22186:22308   */\n      pop\n      jump\t// out\n        /* \"#utility.yul\":22314:22430   */\n    tag_263:\n        /* \"#utility.yul\":22384:22405   */\n      tag_497\n        /* \"#utility.yul\":22399:22404   */\n      dup2\n        /* \"#utility.yul\":22384:22405   */\n      tag_332\n      jump\t// in\n    tag_497:\n        /* \"#utility.yul\":22377:22382   */\n      dup2\n        /* \"#utility.yul\":22374:22406   */\n      eq\n        /* \"#utility.yul\":22364:22424   */\n      tag_498\n      jumpi\n        /* \"#utility.yul\":22420:22421   */\n      0x00\n        /* \"#utility.yul\":22417:22418   */\n      dup1\n        /* \"#utility.yul\":22410:22422   */\n      revert\n        /* \"#utility.yul\":22364:22424   */\n    tag_498:\n        /* \"#utility.yul\":22314:22430   */\n      pop\n      jump\t// out\n        /* \"#utility.yul\":22436:22558   */\n    tag_273:\n        /* \"#utility.yul\":22509:22533   */\n      tag_500\n        /* \"#utility.yul\":22527:22532   */\n      dup2\n        /* \"#utility.yul\":22509:22533   */\n      tag_397\n      jump\t// in\n    tag_500:\n        /* \"#utility.yul\":22502:22507   */\n      dup2\n        /* \"#utility.yul\":22499:22534   */\n      eq\n        /* \"#utility.yul\":22489:22552   */\n      tag_501\n      jumpi\n        /* \"#utility.yul\":22548:22549   */\n      0x00\n        /* \"#utility.yul\":22545:22546   */\n      dup1\n        /* \"#utility.yul\":22538:22550   */\n      revert\n        /* \"#utility.yul\":22489:22552   */\n    tag_501:\n        /* \"#utility.yul\":22436:22558   */\n      pop\n      jump\t// out\n    stop\n    data_2acf605e5cd1b7b0e6ec2502e1f86c81c25a2363f294a2e9f46595fbaefb5b6c 5468657265206973206120746965206f6e2042616c6c6f742e20596f752073686f756c642073746172742061206e65772062616c6c6f742077697468207469652063616e646964617465733a\n\n    auxdata: 0xa264697066735822122009c350cb6944fd4dea3c69459154355481e521524618aa82f8ec9da890aeb10a64736f6c63430008070033\n}\n",
				"bytecode": {
					"linkReferences": {},
					"object": "60806040523480156200001157600080fd5b50604051620022d5380380620022d583398181016040528101906200003791906200035b565b336000806101000a81548173ffffffffffffffffffffffffffffffffffffffff021916908373ffffffffffffffffffffffffffffffffffffffff16021790555062000088826200009760201b60201c565b80600481905550505062000649565b60005b8151811015620001435760026040518060400160405280848481518110620000c757620000c6620005a7565b5b602002602001015181526020016000815250908060018154018082558091505060019003906000526020600020906002020160009091909190915060008201518160000190805190602001906200012092919062000147565b5060208201518160010155505080806200013a90620004fb565b9150506200009a565b5050565b82805462000155906200048f565b90600052602060002090601f016020900481019282620001795760008555620001c5565b82601f106200019457805160ff1916838001178555620001c5565b82800160010185558215620001c5579182015b82811115620001c4578251825591602001919060010190620001a7565b5b509050620001d49190620001d8565b5090565b5b80821115620001f3576000816000905550600101620001d9565b5090565b60006200020e6200020884620003ea565b620003c1565b905080838252602082019050828560208602820111156200023457620002336200060a565b5b60005b858110156200028957815167ffffffffffffffff8111156200025e576200025d62000605565b5b8086016200026d898262000311565b8552602085019450602084019350505060018101905062000237565b5050509392505050565b6000620002aa620002a48462000419565b620003c1565b905082815260208101848484011115620002c957620002c86200060f565b5b620002d684828562000459565b509392505050565b600082601f830112620002f657620002f562000605565b5b815162000308848260208601620001f7565b91505092915050565b600082601f83011262000329576200032862000605565b5b81516200033b84826020860162000293565b91505092915050565b60008151905062000355816200062f565b92915050565b6000806040838503121562000375576200037462000619565b5b600083015167ffffffffffffffff81111562000396576200039562000614565b5b620003a485828601620002de565b9250506020620003b78582860162000344565b9150509250929050565b6000620003cd620003e0565b9050620003db8282620004c5565b919050565b6000604051905090565b600067ffffffffffffffff821115620004085762000407620005d6565b5b602082029050602081019050919050565b600067ffffffffffffffff821115620004375762000436620005d6565b5b62000442826200061e565b9050602081019050919050565b6000819050919050565b60005b83811015620004795780820151818401526020810190506200045c565b8381111562000489576000848401525b50505050565b60006002820490506001821680620004a857607f821691505b60208210811415620004bf57620004be62000578565b5b50919050565b620004d0826200061e565b810181811067ffffffffffffffff82111715620004f257620004f1620005d6565b5b80604052505050565b600062000508826200044f565b91507fffffffffffffffffffffffffffffffffffffffffffffffffffffffffffffffff8214156200053e576200053d62000549565b5b600182019050919050565b7f4e487b7100000000000000000000000000000000000000000000000000000000600052601160045260246000fd5b7f4e487b7100000000000000000000000000000000000000000000000000000000600052602260045260246000fd5b7f4e487b7100000000000000000000000000000000000000000000000000000000600052603260045260246000fd5b7f4e487b7100000000000000000000000000000000000000000000000000000000600052604160045260246000fd5b600080fd5b600080fd5b600080fd5b600080fd5b600080fd5b6000601f19601f8301169050919050565b6200063a816200044f565b81146200064657600080fd5b50565b611c7c80620006596000396000f3fe608060405234801561001057600080fd5b50600436106100885760003560e01c806368957b201161005b57806368957b20146101175780637a36b3ee14610133578063a3ec138d14610163578063f927cc291461019557610088565b8063011d10231461008d57806327d3410c146100ab5780632bfda515146100c75780633477ee2e146100e6575b600080fd5b6100956101b3565b6040516100a2919061155c565b60405180910390f35b6100c560048036038101906100c09190611192565b610304565b005b6100cf61050c565b6040516100dd9291906115a0565b60405180910390f35b61010060048036038101906100fb9190611266565b610534565b60405161010e92919061160e565b60405180910390f35b610131600480360381019061012c9190611136565b6105f0565b005b61014d600480360381019061014891906111ee565b61078f565b60405161015a919061157e565b60405180910390f35b61017d60048036038101906101789190611109565b6107bb565b60405161018c939291906115d0565b60405180910390f35b61019d610887565b6040516101aa91906116fe565b60405180910390f35b60606000600280549050905060008167ffffffffffffffff8111156101db576101da6119aa565b5b60405190808252806020026020018201604052801561020e57816020015b60608152602001906001900390816101f95790505b50905060005b828110156102fb57600281815481106102305761022f61197b565b5b9060005260206000209060020201600001805461024c90611871565b80601f016020809104026020016040519081016040528092919081815260200182805461027890611871565b80156102c55780601f1061029a576101008083540402835291602001916102c5565b820191906000526020600020905b8154815290600101906020018083116102a857829003601f168201915b50505050508282815181106102dd576102dc61197b565b5b602002602001018190525080806102f3906118d4565b915050610214565b50809250505090565b3361030d610d4c565b610315610d94565b610354576040517f08c379a000000000000000000000000000000000000000000000000000000000815260040161034b906116de565b60405180910390fd5b61035d81610da4565b816000600160003373ffffffffffffffffffffffffffffffffffffffff1673ffffffffffffffffffffffffffffffffffffffff1681526020019081526020016000209050600080600090505b6002805490508110156104fa5761046d600282815481106103cd576103cc61197b565b5b906000526020600020906002020160000180546103e990611871565b80601f016020809104026020016040519081016040528092919081815260200182805461041590611871565b80156104625780601f1061043757610100808354040283529160200191610462565b820191906000526020600020905b81548152906001019060200180831161044557829003601f168201915b505050505088610df0565b156104e757600281815481106104865761048561197b565b5b906000526020600020906002020160010160008154809291906104a8906118d4565b919050555060018360010160016101000a81548160ff021916908315150217905550600360008154809291906104dd906118d4565b9190505550600191505b80806104f2906118d4565b9150506103a9565b50505061050681610e49565b50505050565b6060600080610519610887565b9050806000015192508261052b610e8c565b92509250509091565b6002818154811061054457600080fd5b906000526020600020906002020160009150905080600001805461056790611871565b80601f016020809104026020016040519081016040528092919081815260200182805461059390611871565b80156105e05780601f106105b5576101008083540402835291602001916105e0565b820191906000526020600020905b8154815290600101906020018083116105c357829003601f168201915b5050505050908060010154905082565b816105f9610d4c565b610601610e94565b610640576040517f08c379a00000000000000000000000000000000000000000000000000000000081526004016106379061169e565b60405180910390fd5b600160008273ffffffffffffffffffffffffffffffffffffffff1673ffffffffffffffffffffffffffffffffffffffff16815260200190815260200160002060010160009054906101000a900460ff16156106d0576040517f08c379a00000000000000000000000000000000000000000000000000000000081526004016106c79061163e565b60405180910390fd5b6106d981610da4565b81600160008573ffffffffffffffffffffffffffffffffffffffff1673ffffffffffffffffffffffffffffffffffffffff168152602001908152602001600020600001908051906020019061072f929190610f9d565b5060018060008573ffffffffffffffffffffffffffffffffffffffff1673ffffffffffffffffffffffffffffffffffffffff16815260200190815260200160002060010160006101000a81548160ff021916908315150217905550505050565b606082826040516020016107a492919061152d565b604051602081830303815290604052905092915050565b60016020528060005260406000206000915090508060000180546107de90611871565b80601f016020809104026020016040519081016040528092919081815260200182805461080a90611871565b80156108575780601f1061082c57610100808354040283529160200191610857565b820191906000526020600020905b81548152906001019060200180831161083a57829003601f168201915b5050505050908060010160009054906101000a900460ff16908060010160019054906101000a900460ff16905083565b61088f611023565b6000806000600280549050905060008167ffffffffffffffff8111156108b8576108b76119aa565b5b6040519080825280602002602001820160405280156108eb57816020015b60608152602001906001900390816108d65790505b50905060008060019050606060005b85811015610bb85787600282815481106109175761091661197b565b5b9060005260206000209060020201600101541115610a9857600281815481106109435761094261197b565b5b90600052602060002090600202016001015497508096508215610a935760009250600093508567ffffffffffffffff811115610982576109816119aa565b5b6040519080825280602002602001820160405280156109b557816020015b60608152602001906001900390816109a05790505b509450600281815481106109cc576109cb61197b565b5b906000526020600020906002020160000180546109e890611871565b80601f0160208091040260200160405190810160405280929190818152602001828054610a1490611871565b8015610a615780601f10610a3657610100808354040283529160200191610a61565b820191906000526020600020905b815481529060010190602001808311610a4457829003601f168201915b5050505050858581518110610a7957610a7861197b565b5b60200260200101819052508380610a8f906118d4565b9450505b610ba5565b8760028281548110610aad57610aac61197b565b5b9060005260206000209060020201600101541415610ba4576001925060028181548110610add57610adc61197b565b5b90600052602060002090600202016000018054610af990611871565b80601f0160208091040260200160405190810160405280929190818152602001828054610b2590611871565b8015610b725780601f10610b4757610100808354040283529160200191610b72565b820191906000526020600020905b815481529060010190602001808311610b5557829003601f168201915b5050505050858581518110610b8a57610b8961197b565b5b60200260200101819052508380610ba0906118d4565b9450505b5b8080610bb0906118d4565b9150506108fa565b508115610c765760005b8451811015610c0457610bef82868381518110610be257610be161197b565b5b602002602001015161078f565b91508080610bfc906118d4565b915050610bc2565b506000610c296040518060800160405280604c8152602001611bfb604c91398361078f565b905060008190610c6f576040517f08c379a0000000000000000000000000000000000000000000000000000000008152600401610c66919061157e565b60405180910390fd5b5050610d42565b60028681548110610c8a57610c8961197b565b5b9060005260206000209060020201604051806040016040529081600082018054610cb390611871565b80601f0160208091040260200160405190810160405280929190818152602001828054610cdf90611871565b8015610d2c5780601f10610d0157610100808354040283529160200191610d2c565b820191906000526020600020905b815481529060010190602001808311610d0f57829003601f168201915b5050505050815260200160018201548152505097505b5050505050505090565b60045460035410610d92576040517f08c379a0000000000000000000000000000000000000000000000000000000008152600401610d899061167e565b60405180910390fd5b565b6000610d9f33610eeb565b905090565b610dad81610f44565b15610ded576040517f08c379a0000000000000000000000000000000000000000000000000000000008152600401610de4906116be565b60405180910390fd5b50565b600081604051602001610e03919061157e565b6040516020818303038152906040528051906020012083604051602001610e2a919061157e565b6040516020818303038152906040528051906020012014905092915050565b80610e89576040517f08c379a0000000000000000000000000000000000000000000000000000000008152600401610e809061165e565b60405180910390fd5b50565b600030905090565b60008060009054906101000a900473ffffffffffffffffffffffffffffffffffffffff1673ffffffffffffffffffffffffffffffffffffffff163373ffffffffffffffffffffffffffffffffffffffff1614905090565b6000600160008373ffffffffffffffffffffffffffffffffffffffff1673ffffffffffffffffffffffffffffffffffffffff16815260200190815260200160002060010160009054906101000a900460ff169050919050565b6000600160008373ffffffffffffffffffffffffffffffffffffffff1673ffffffffffffffffffffffffffffffffffffffff16815260200190815260200160002060010160019054906101000a900460ff169050919050565b828054610fa990611871565b90600052602060002090601f016020900481019282610fcb5760008555611012565b82601f10610fe457805160ff1916838001178555611012565b82800160010185558215611012579182015b82811115611011578251825591602001919060010190610ff6565b5b50905061101f919061103d565b5090565b604051806040016040528060608152602001600081525090565b5b8082111561105657600081600090555060010161103e565b5090565b600061106d61106884611745565b611720565b905082815260208101848484011115611089576110886119de565b5b61109484828561182f565b509392505050565b6000813590506110ab81611bb5565b92915050565b6000813590506110c081611bcc565b92915050565b600082601f8301126110db576110da6119d9565b5b81356110eb84826020860161105a565b91505092915050565b60008135905061110381611be3565b92915050565b60006020828403121561111f5761111e6119e8565b5b600061112d8482850161109c565b91505092915050565b6000806040838503121561114d5761114c6119e8565b5b600061115b8582860161109c565b925050602083013567ffffffffffffffff81111561117c5761117b6119e3565b5b611188858286016110c6565b9150509250929050565b600080604083850312156111a9576111a86119e8565b5b600083013567ffffffffffffffff8111156111c7576111c66119e3565b5b6111d3858286016110c6565b92505060206111e4858286016110b1565b9150509250929050565b60008060408385031215611205576112046119e8565b5b600083013567ffffffffffffffff811115611223576112226119e3565b5b61122f858286016110c6565b925050602083013567ffffffffffffffff8111156112505761124f6119e3565b5b61125c858286016110c6565b9150509250929050565b60006020828403121561127c5761127b6119e8565b5b600061128a848285016110f4565b91505092915050565b600061129f838361133a565b905092915050565b6112b0816117e7565b82525050565b60006112c182611786565b6112cb81856117a9565b9350836020820285016112dd85611776565b8060005b8581101561131957848403895281516112fa8582611293565b94506113058361179c565b925060208a019950506001810190506112e1565b50829750879550505050505092915050565b611334816117f9565b82525050565b600061134582611791565b61134f81856117ba565b935061135f81856020860161183e565b611368816119ed565b840191505092915050565b600061137e82611791565b61138881856117cb565b935061139881856020860161183e565b6113a1816119ed565b840191505092915050565b60006113b782611791565b6113c181856117dc565b93506113d181856020860161183e565b80840191505092915050565b60006113ea6025836117cb565b91506113f5826119fe565b604082019050919050565b600061140d6021836117cb565b915061141882611a4d565b604082019050919050565b6000611430602f836117cb565b915061143b82611a9c565b604082019050919050565b6000611453602f836117cb565b915061145e82611aeb565b604082019050919050565b60006114766001836117dc565b915061148182611b3a565b600182019050919050565b60006114996014836117cb565b91506114a482611b63565b602082019050919050565b60006114bc601a836117cb565b91506114c782611b8c565b602082019050919050565b600060408301600083015184820360008601526114ef828261133a565b9150506020830151611504602086018261150f565b508091505092915050565b61151881611825565b82525050565b61152781611825565b82525050565b600061153982856113ac565b915061154482611469565b915061155082846113ac565b91508190509392505050565b6000602082019050818103600083015261157681846112b6565b905092915050565b600060208201905081810360008301526115988184611373565b905092915050565b600060408201905081810360008301526115ba8185611373565b90506115c960208301846112a7565b9392505050565b600060608201905081810360008301526115ea8186611373565b90506115f9602083018561132b565b611606604083018461132b565b949350505050565b600060408201905081810360008301526116288185611373565b9050611637602083018461151e565b9392505050565b60006020820190508181036000830152611657816113dd565b9050919050565b6000602082019050818103600083015261167781611400565b9050919050565b6000602082019050818103600083015261169781611423565b9050919050565b600060208201905081810360008301526116b781611446565b9050919050565b600060208201905081810360008301526116d78161148c565b9050919050565b600060208201905081810360008301526116f7816114af565b9050919050565b6000602082019050818103600083015261171881846114d2565b905092915050565b600061172a61173b565b905061173682826118a3565b919050565b6000604051905090565b600067ffffffffffffffff8211156117605761175f6119aa565b5b611769826119ed565b9050602081019050919050565b6000819050602082019050919050565b600081519050919050565b600081519050919050565b6000602082019050919050565b600082825260208201905092915050565b600082825260208201905092915050565b600082825260208201905092915050565b600081905092915050565b60006117f282611805565b9050919050565b60008115159050919050565b600073ffffffffffffffffffffffffffffffffffffffff82169050919050565b6000819050919050565b82818337600083830152505050565b60005b8381101561185c578082015181840152602081019050611841565b8381111561186b576000848401525b50505050565b6000600282049050600182168061188957607f821691505b6020821081141561189d5761189c61194c565b5b50919050565b6118ac826119ed565b810181811067ffffffffffffffff821117156118cb576118ca6119aa565b5b80604052505050565b60006118df82611825565b91507fffffffffffffffffffffffffffffffffffffffffffffffffffffffffffffffff8214156119125761191161191d565b5b600182019050919050565b7f4e487b7100000000000000000000000000000000000000000000000000000000600052601160045260246000fd5b7f4e487b7100000000000000000000000000000000000000000000000000000000600052602260045260246000fd5b7f4e487b7100000000000000000000000000000000000000000000000000000000600052603260045260246000fd5b7f4e487b7100000000000000000000000000000000000000000000000000000000600052604160045260246000fd5b600080fd5b600080fd5b600080fd5b600080fd5b6000601f19601f8301169050919050565b7f566f746572206861766520616c72656164792068617320726967687420746f2060008201527f766f74652e000000000000000000000000000000000000000000000000000000602082015250565b7f43616e64696461746520796f752073656e7420646f6573206e6f74206578697360008201527f7400000000000000000000000000000000000000000000000000000000000000602082015250565b7f4d6178206163636f756e7420766f74657320697320726561636865642e20426160008201527f6c6c6f7420697320434c4f5345442e0000000000000000000000000000000000602082015250565b7f4f6e6c792074686520636f6e7472616374206f776e65722063616e206769766560008201527f20726967687420746f20766f74652e0000000000000000000000000000000000602082015250565b7f2000000000000000000000000000000000000000000000000000000000000000600082015250565b7f566f74657220616c726561647920766f7465642e000000000000000000000000600082015250565b7f596f752068617665206e6f7420726967687420746f20766f7465000000000000600082015250565b611bbe816117e7565b8114611bc957600080fd5b50565b611bd5816117f9565b8114611be057600080fd5b50565b611bec81611825565b8114611bf757600080fd5b5056fe5468657265206973206120746965206f6e2042616c6c6f742e20596f752073686f756c642073746172742061206e65772062616c6c6f742077697468207469652063616e646964617465733aa264697066735822122009c350cb6944fd4dea3c69459154355481e521524618aa82f8ec9da890aeb10a64736f6c63430008070033",
					"opcodes": "PUSH1 0x80 PUSH1 0x40 MSTORE CALLVALUE DUP1 ISZERO PUSH3 0x11 JUMPI PUSH1 0x0 DUP1 REVERT JUMPDEST POP PUSH1 0x40 MLOAD PUSH3 0x22D5 CODESIZE SUB DUP1 PUSH3 0x22D5 DUP4 CODECOPY DUP2 DUP2 ADD PUSH1 0x40 MSTORE DUP2 ADD SWAP1 PUSH3 0x37 SWAP2 SWAP1 PUSH3 0x35B JUMP JUMPDEST CALLER PUSH1 0x0 DUP1 PUSH2 0x100 EXP DUP2 SLOAD DUP2 PUSH20 0xFFFFFFFFFFFFFFFFFFFFFFFFFFFFFFFFFFFFFFFF MUL NOT AND SWAP1 DUP4 PUSH20 0xFFFFFFFFFFFFFFFFFFFFFFFFFFFFFFFFFFFFFFFF AND MUL OR SWAP1 SSTORE POP PUSH3 0x88 DUP3 PUSH3 0x97 PUSH1 0x20 SHL PUSH1 0x20 SHR JUMP JUMPDEST DUP1 PUSH1 0x4 DUP2 SWAP1 SSTORE POP POP POP PUSH3 0x649 JUMP JUMPDEST PUSH1 0x0 JUMPDEST DUP2 MLOAD DUP2 LT ISZERO PUSH3 0x143 JUMPI PUSH1 0x2 PUSH1 0x40 MLOAD DUP1 PUSH1 0x40 ADD PUSH1 0x40 MSTORE DUP1 DUP5 DUP5 DUP2 MLOAD DUP2 LT PUSH3 0xC7 JUMPI PUSH3 0xC6 PUSH3 0x5A7 JUMP JUMPDEST JUMPDEST PUSH1 0x20 MUL PUSH1 0x20 ADD ADD MLOAD DUP2 MSTORE PUSH1 0x20 ADD PUSH1 0x0 DUP2 MSTORE POP SWAP1 DUP1 PUSH1 0x1 DUP2 SLOAD ADD DUP1 DUP3 SSTORE DUP1 SWAP2 POP POP PUSH1 0x1 SWAP1 SUB SWAP1 PUSH1 0x0 MSTORE PUSH1 0x20 PUSH1 0x0 KECCAK256 SWAP1 PUSH1 0x2 MUL ADD PUSH1 0x0 SWAP1 SWAP2 SWAP1 SWAP2 SWAP1 SWAP2 POP PUSH1 0x0 DUP3 ADD MLOAD DUP2 PUSH1 0x0 ADD SWAP1 DUP1 MLOAD SWAP1 PUSH1 0x20 ADD SWAP1 PUSH3 0x120 SWAP3 SWAP2 SWAP1 PUSH3 0x147 JUMP JUMPDEST POP PUSH1 0x20 DUP3 ADD MLOAD DUP2 PUSH1 0x1 ADD SSTORE POP POP DUP1 DUP1 PUSH3 0x13A SWAP1 PUSH3 0x4FB JUMP JUMPDEST SWAP2 POP POP PUSH3 0x9A JUMP JUMPDEST POP POP JUMP JUMPDEST DUP3 DUP1 SLOAD PUSH3 0x155 SWAP1 PUSH3 0x48F JUMP JUMPDEST SWAP1 PUSH1 0x0 MSTORE PUSH1 0x20 PUSH1 0x0 KECCAK256 SWAP1 PUSH1 0x1F ADD PUSH1 0x20 SWAP1 DIV DUP2 ADD SWAP3 DUP3 PUSH3 0x179 JUMPI PUSH1 0x0 DUP6 SSTORE PUSH3 0x1C5 JUMP JUMPDEST DUP3 PUSH1 0x1F LT PUSH3 0x194 JUMPI DUP1 MLOAD PUSH1 0xFF NOT AND DUP4 DUP1 ADD OR DUP6 SSTORE PUSH3 0x1C5 JUMP JUMPDEST DUP3 DUP1 ADD PUSH1 0x1 ADD DUP6 SSTORE DUP3 ISZERO PUSH3 0x1C5 JUMPI SWAP2 DUP3 ADD JUMPDEST DUP3 DUP2 GT ISZERO PUSH3 0x1C4 JUMPI DUP3 MLOAD DUP3 SSTORE SWAP2 PUSH1 0x20 ADD SWAP2 SWAP1 PUSH1 0x1 ADD SWAP1 PUSH3 0x1A7 JUMP JUMPDEST JUMPDEST POP SWAP1 POP PUSH3 0x1D4 SWAP2 SWAP1 PUSH3 0x1D8 JUMP JUMPDEST POP SWAP1 JUMP JUMPDEST JUMPDEST DUP1 DUP3 GT ISZERO PUSH3 0x1F3 JUMPI PUSH1 0x0 DUP2 PUSH1 0x0 SWAP1 SSTORE POP PUSH1 0x1 ADD PUSH3 0x1D9 JUMP JUMPDEST POP SWAP1 JUMP JUMPDEST PUSH1 0x0 PUSH3 0x20E PUSH3 0x208 DUP5 PUSH3 0x3EA JUMP JUMPDEST PUSH3 0x3C1 JUMP JUMPDEST SWAP1 POP DUP1 DUP4 DUP3 MSTORE PUSH1 0x20 DUP3 ADD SWAP1 POP DUP3 DUP6 PUSH1 0x20 DUP7 MUL DUP3 ADD GT ISZERO PUSH3 0x234 JUMPI PUSH3 0x233 PUSH3 0x60A JUMP JUMPDEST JUMPDEST PUSH1 0x0 JUMPDEST DUP6 DUP2 LT ISZERO PUSH3 0x289 JUMPI DUP2 MLOAD PUSH8 0xFFFFFFFFFFFFFFFF DUP2 GT ISZERO PUSH3 0x25E JUMPI PUSH3 0x25D PUSH3 0x605 JUMP JUMPDEST JUMPDEST DUP1 DUP7 ADD PUSH3 0x26D DUP10 DUP3 PUSH3 0x311 JUMP JUMPDEST DUP6 MSTORE PUSH1 0x20 DUP6 ADD SWAP5 POP PUSH1 0x20 DUP5 ADD SWAP4 POP POP POP PUSH1 0x1 DUP2 ADD SWAP1 POP PUSH3 0x237 JUMP JUMPDEST POP POP POP SWAP4 SWAP3 POP POP POP JUMP JUMPDEST PUSH1 0x0 PUSH3 0x2AA PUSH3 0x2A4 DUP5 PUSH3 0x419 JUMP JUMPDEST PUSH3 0x3C1 JUMP JUMPDEST SWAP1 POP DUP3 DUP2 MSTORE PUSH1 0x20 DUP2 ADD DUP5 DUP5 DUP5 ADD GT ISZERO PUSH3 0x2C9 JUMPI PUSH3 0x2C8 PUSH3 0x60F JUMP JUMPDEST JUMPDEST PUSH3 0x2D6 DUP5 DUP3 DUP6 PUSH3 0x459 JUMP JUMPDEST POP SWAP4 SWAP3 POP POP POP JUMP JUMPDEST PUSH1 0x0 DUP3 PUSH1 0x1F DUP4 ADD SLT PUSH3 0x2F6 JUMPI PUSH3 0x2F5 PUSH3 0x605 JUMP JUMPDEST JUMPDEST DUP2 MLOAD PUSH3 0x308 DUP5 DUP3 PUSH1 0x20 DUP7 ADD PUSH3 0x1F7 JUMP JUMPDEST SWAP2 POP POP SWAP3 SWAP2 POP POP JUMP JUMPDEST PUSH1 0x0 DUP3 PUSH1 0x1F DUP4 ADD SLT PUSH3 0x329 JUMPI PUSH3 0x328 PUSH3 0x605 JUMP JUMPDEST JUMPDEST DUP2 MLOAD PUSH3 0x33B DUP5 DUP3 PUSH1 0x20 DUP7 ADD PUSH3 0x293 JUMP JUMPDEST SWAP2 POP POP SWAP3 SWAP2 POP POP JUMP JUMPDEST PUSH1 0x0 DUP2 MLOAD SWAP1 POP PUSH3 0x355 DUP2 PUSH3 0x62F JUMP JUMPDEST SWAP3 SWAP2 POP POP JUMP JUMPDEST PUSH1 0x0 DUP1 PUSH1 0x40 DUP4 DUP6 SUB SLT ISZERO PUSH3 0x375 JUMPI PUSH3 0x374 PUSH3 0x619 JUMP JUMPDEST JUMPDEST PUSH1 0x0 DUP4 ADD MLOAD PUSH8 0xFFFFFFFFFFFFFFFF DUP2 GT ISZERO PUSH3 0x396 JUMPI PUSH3 0x395 PUSH3 0x614 JUMP JUMPDEST JUMPDEST PUSH3 0x3A4 DUP6 DUP3 DUP7 ADD PUSH3 0x2DE JUMP JUMPDEST SWAP3 POP POP PUSH1 0x20 PUSH3 0x3B7 DUP6 DUP3 DUP7 ADD PUSH3 0x344 JUMP JUMPDEST SWAP2 POP POP SWAP3 POP SWAP3 SWAP1 POP JUMP JUMPDEST PUSH1 0x0 PUSH3 0x3CD PUSH3 0x3E0 JUMP JUMPDEST SWAP1 POP PUSH3 0x3DB DUP3 DUP3 PUSH3 0x4C5 JUMP JUMPDEST SWAP2 SWAP1 POP JUMP JUMPDEST PUSH1 0x0 PUSH1 0x40 MLOAD SWAP1 POP SWAP1 JUMP JUMPDEST PUSH1 0x0 PUSH8 0xFFFFFFFFFFFFFFFF DUP3 GT ISZERO PUSH3 0x408 JUMPI PUSH3 0x407 PUSH3 0x5D6 JUMP JUMPDEST JUMPDEST PUSH1 0x20 DUP3 MUL SWAP1 POP PUSH1 0x20 DUP2 ADD SWAP1 POP SWAP2 SWAP1 POP JUMP JUMPDEST PUSH1 0x0 PUSH8 0xFFFFFFFFFFFFFFFF DUP3 GT ISZERO PUSH3 0x437 JUMPI PUSH3 0x436 PUSH3 0x5D6 JUMP JUMPDEST JUMPDEST PUSH3 0x442 DUP3 PUSH3 0x61E JUMP JUMPDEST SWAP1 POP PUSH1 0x20 DUP2 ADD SWAP1 POP SWAP2 SWAP1 POP JUMP JUMPDEST PUSH1 0x0 DUP2 SWAP1 POP SWAP2 SWAP1 POP JUMP JUMPDEST PUSH1 0x0 JUMPDEST DUP4 DUP2 LT ISZERO PUSH3 0x479 JUMPI DUP1 DUP3 ADD MLOAD DUP2 DUP5 ADD MSTORE PUSH1 0x20 DUP2 ADD SWAP1 POP PUSH3 0x45C JUMP JUMPDEST DUP4 DUP2 GT ISZERO PUSH3 0x489 JUMPI PUSH1 0x0 DUP5 DUP5 ADD MSTORE JUMPDEST POP POP POP POP JUMP JUMPDEST PUSH1 0x0 PUSH1 0x2 DUP3 DIV SWAP1 POP PUSH1 0x1 DUP3 AND DUP1 PUSH3 0x4A8 JUMPI PUSH1 0x7F DUP3 AND SWAP2 POP JUMPDEST PUSH1 0x20 DUP3 LT DUP2 EQ ISZERO PUSH3 0x4BF JUMPI PUSH3 0x4BE PUSH3 0x578 JUMP JUMPDEST JUMPDEST POP SWAP2 SWAP1 POP JUMP JUMPDEST PUSH3 0x4D0 DUP3 PUSH3 0x61E JUMP JUMPDEST DUP2 ADD DUP2 DUP2 LT PUSH8 0xFFFFFFFFFFFFFFFF DUP3 GT OR ISZERO PUSH3 0x4F2 JUMPI PUSH3 0x4F1 PUSH3 0x5D6 JUMP JUMPDEST JUMPDEST DUP1 PUSH1 0x40 MSTORE POP POP POP JUMP JUMPDEST PUSH1 0x0 PUSH3 0x508 DUP3 PUSH3 0x44F JUMP JUMPDEST SWAP2 POP PUSH32 0xFFFFFFFFFFFFFFFFFFFFFFFFFFFFFFFFFFFFFFFFFFFFFFFFFFFFFFFFFFFFFFFF DUP3 EQ ISZERO PUSH3 0x53E JUMPI PUSH3 0x53D PUSH3 0x549 JUMP JUMPDEST JUMPDEST PUSH1 0x1 DUP3 ADD SWAP1 POP SWAP2 SWAP1 POP JUMP JUMPDEST PUSH32 0x4E487B7100000000000000000000000000000000000000000000000000000000 PUSH1 0x0 MSTORE PUSH1 0x11 PUSH1 0x4 MSTORE PUSH1 0x24 PUSH1 0x0 REVERT JUMPDEST PUSH32 0x4E487B7100000000000000000000000000000000000000000000000000000000 PUSH1 0x0 MSTORE PUSH1 0x22 PUSH1 0x4 MSTORE PUSH1 0x24 PUSH1 0x0 REVERT JUMPDEST PUSH32 0x4E487B7100000000000000000000000000000000000000000000000000000000 PUSH1 0x0 MSTORE PUSH1 0x32 PUSH1 0x4 MSTORE PUSH1 0x24 PUSH1 0x0 REVERT JUMPDEST PUSH32 0x4E487B7100000000000000000000000000000000000000000000000000000000 PUSH1 0x0 MSTORE PUSH1 0x41 PUSH1 0x4 MSTORE PUSH1 0x24 PUSH1 0x0 REVERT JUMPDEST PUSH1 0x0 DUP1 REVERT JUMPDEST PUSH1 0x0 DUP1 REVERT JUMPDEST PUSH1 0x0 DUP1 REVERT JUMPDEST PUSH1 0x0 DUP1 REVERT JUMPDEST PUSH1 0x0 DUP1 REVERT JUMPDEST PUSH1 0x0 PUSH1 0x1F NOT PUSH1 0x1F DUP4 ADD AND SWAP1 POP SWAP2 SWAP1 POP JUMP JUMPDEST PUSH3 0x63A DUP2 PUSH3 0x44F JUMP JUMPDEST DUP2 EQ PUSH3 0x646 JUMPI PUSH1 0x0 DUP1 REVERT JUMPDEST POP JUMP JUMPDEST PUSH2 0x1C7C DUP1 PUSH3 0x659 PUSH1 0x0 CODECOPY PUSH1 0x0 RETURN INVALID PUSH1 0x80 PUSH1 0x40 MSTORE CALLVALUE DUP1 ISZERO PUSH2 0x10 JUMPI PUSH1 0x0 DUP1 REVERT JUMPDEST POP PUSH1 0x4 CALLDATASIZE LT PUSH2 0x88 JUMPI PUSH1 0x0 CALLDATALOAD PUSH1 0xE0 SHR DUP1 PUSH4 0x68957B20 GT PUSH2 0x5B JUMPI DUP1 PUSH4 0x68957B20 EQ PUSH2 0x117 JUMPI DUP1 PUSH4 0x7A36B3EE EQ PUSH2 0x133 JUMPI DUP1 PUSH4 0xA3EC138D EQ PUSH2 0x163 JUMPI DUP1 PUSH4 0xF927CC29 EQ PUSH2 0x195 JUMPI PUSH2 0x88 JUMP JUMPDEST DUP1 PUSH4 0x11D1023 EQ PUSH2 0x8D JUMPI DUP1 PUSH4 0x27D3410C EQ PUSH2 0xAB JUMPI DUP1 PUSH4 0x2BFDA515 EQ PUSH2 0xC7 JUMPI DUP1 PUSH4 0x3477EE2E EQ PUSH2 0xE6 JUMPI JUMPDEST PUSH1 0x0 DUP1 REVERT JUMPDEST PUSH2 0x95 PUSH2 0x1B3 JUMP JUMPDEST PUSH1 0x40 MLOAD PUSH2 0xA2 SWAP2 SWAP1 PUSH2 0x155C JUMP JUMPDEST PUSH1 0x40 MLOAD DUP1 SWAP2 SUB SWAP1 RETURN JUMPDEST PUSH2 0xC5 PUSH1 0x4 DUP1 CALLDATASIZE SUB DUP2 ADD SWAP1 PUSH2 0xC0 SWAP2 SWAP1 PUSH2 0x1192 JUMP JUMPDEST PUSH2 0x304 JUMP JUMPDEST STOP JUMPDEST PUSH2 0xCF PUSH2 0x50C JUMP JUMPDEST PUSH1 0x40 MLOAD PUSH2 0xDD SWAP3 SWAP2 SWAP1 PUSH2 0x15A0 JUMP JUMPDEST PUSH1 0x40 MLOAD DUP1 SWAP2 SUB SWAP1 RETURN JUMPDEST PUSH2 0x100 PUSH1 0x4 DUP1 CALLDATASIZE SUB DUP2 ADD SWAP1 PUSH2 0xFB SWAP2 SWAP1 PUSH2 0x1266 JUMP JUMPDEST PUSH2 0x534 JUMP JUMPDEST PUSH1 0x40 MLOAD PUSH2 0x10E SWAP3 SWAP2 SWAP1 PUSH2 0x160E JUMP JUMPDEST PUSH1 0x40 MLOAD DUP1 SWAP2 SUB SWAP1 RETURN JUMPDEST PUSH2 0x131 PUSH1 0x4 DUP1 CALLDATASIZE SUB DUP2 ADD SWAP1 PUSH2 0x12C SWAP2 SWAP1 PUSH2 0x1136 JUMP JUMPDEST PUSH2 0x5F0 JUMP JUMPDEST STOP JUMPDEST PUSH2 0x14D PUSH1 0x4 DUP1 CALLDATASIZE SUB DUP2 ADD SWAP1 PUSH2 0x148 SWAP2 SWAP1 PUSH2 0x11EE JUMP JUMPDEST PUSH2 0x78F JUMP JUMPDEST PUSH1 0x40 MLOAD PUSH2 0x15A SWAP2 SWAP1 PUSH2 0x157E JUMP JUMPDEST PUSH1 0x40 MLOAD DUP1 SWAP2 SUB SWAP1 RETURN JUMPDEST PUSH2 0x17D PUSH1 0x4 DUP1 CALLDATASIZE SUB DUP2 ADD SWAP1 PUSH2 0x178 SWAP2 SWAP1 PUSH2 0x1109 JUMP JUMPDEST PUSH2 0x7BB JUMP JUMPDEST PUSH1 0x40 MLOAD PUSH2 0x18C SWAP4 SWAP3 SWAP2 SWAP1 PUSH2 0x15D0 JUMP JUMPDEST PUSH1 0x40 MLOAD DUP1 SWAP2 SUB SWAP1 RETURN JUMPDEST PUSH2 0x19D PUSH2 0x887 JUMP JUMPDEST PUSH1 0x40 MLOAD PUSH2 0x1AA SWAP2 SWAP1 PUSH2 0x16FE JUMP JUMPDEST PUSH1 0x40 MLOAD DUP1 SWAP2 SUB SWAP1 RETURN JUMPDEST PUSH1 0x60 PUSH1 0x0 PUSH1 0x2 DUP1 SLOAD SWAP1 POP SWAP1 POP PUSH1 0x0 DUP2 PUSH8 0xFFFFFFFFFFFFFFFF DUP2 GT ISZERO PUSH2 0x1DB JUMPI PUSH2 0x1DA PUSH2 0x19AA JUMP JUMPDEST JUMPDEST PUSH1 0x40 MLOAD SWAP1 DUP1 DUP3 MSTORE DUP1 PUSH1 0x20 MUL PUSH1 0x20 ADD DUP3 ADD PUSH1 0x40 MSTORE DUP1 ISZERO PUSH2 0x20E JUMPI DUP2 PUSH1 0x20 ADD JUMPDEST PUSH1 0x60 DUP2 MSTORE PUSH1 0x20 ADD SWAP1 PUSH1 0x1 SWAP1 SUB SWAP1 DUP2 PUSH2 0x1F9 JUMPI SWAP1 POP JUMPDEST POP SWAP1 POP PUSH1 0x0 JUMPDEST DUP3 DUP2 LT ISZERO PUSH2 0x2FB JUMPI PUSH1 0x2 DUP2 DUP2 SLOAD DUP2 LT PUSH2 0x230 JUMPI PUSH2 0x22F PUSH2 0x197B JUMP JUMPDEST JUMPDEST SWAP1 PUSH1 0x0 MSTORE PUSH1 0x20 PUSH1 0x0 KECCAK256 SWAP1 PUSH1 0x2 MUL ADD PUSH1 0x0 ADD DUP1 SLOAD PUSH2 0x24C SWAP1 PUSH2 0x1871 JUMP JUMPDEST DUP1 PUSH1 0x1F ADD PUSH1 0x20 DUP1 SWAP2 DIV MUL PUSH1 0x20 ADD PUSH1 0x40 MLOAD SWAP1 DUP2 ADD PUSH1 0x40 MSTORE DUP1 SWAP3 SWAP2 SWAP1 DUP2 DUP2 MSTORE PUSH1 0x20 ADD DUP3 DUP1 SLOAD PUSH2 0x278 SWAP1 PUSH2 0x1871 JUMP JUMPDEST DUP1 ISZERO PUSH2 0x2C5 JUMPI DUP1 PUSH1 0x1F LT PUSH2 0x29A JUMPI PUSH2 0x100 DUP1 DUP4 SLOAD DIV MUL DUP4 MSTORE SWAP2 PUSH1 0x20 ADD SWAP2 PUSH2 0x2C5 JUMP JUMPDEST DUP3 ADD SWAP2 SWAP1 PUSH1 0x0 MSTORE PUSH1 0x20 PUSH1 0x0 KECCAK256 SWAP1 JUMPDEST DUP2 SLOAD DUP2 MSTORE SWAP1 PUSH1 0x1 ADD SWAP1 PUSH1 0x20 ADD DUP1 DUP4 GT PUSH2 0x2A8 JUMPI DUP3 SWAP1 SUB PUSH1 0x1F AND DUP3 ADD SWAP2 JUMPDEST POP POP POP POP POP DUP3 DUP3 DUP2 MLOAD DUP2 LT PUSH2 0x2DD JUMPI PUSH2 0x2DC PUSH2 0x197B JUMP JUMPDEST JUMPDEST PUSH1 0x20 MUL PUSH1 0x20 ADD ADD DUP2 SWAP1 MSTORE POP DUP1 DUP1 PUSH2 0x2F3 SWAP1 PUSH2 0x18D4 JUMP JUMPDEST SWAP2 POP POP PUSH2 0x214 JUMP JUMPDEST POP DUP1 SWAP3 POP POP POP SWAP1 JUMP JUMPDEST CALLER PUSH2 0x30D PUSH2 0xD4C JUMP JUMPDEST PUSH2 0x315 PUSH2 0xD94 JUMP JUMPDEST PUSH2 0x354 JUMPI PUSH1 0x40 MLOAD PUSH32 0x8C379A000000000000000000000000000000000000000000000000000000000 DUP2 MSTORE PUSH1 0x4 ADD PUSH2 0x34B SWAP1 PUSH2 0x16DE JUMP JUMPDEST PUSH1 0x40 MLOAD DUP1 SWAP2 SUB SWAP1 REVERT JUMPDEST PUSH2 0x35D DUP2 PUSH2 0xDA4 JUMP JUMPDEST DUP2 PUSH1 0x0 PUSH1 0x1 PUSH1 0x0 CALLER PUSH20 0xFFFFFFFFFFFFFFFFFFFFFFFFFFFFFFFFFFFFFFFF AND PUSH20 0xFFFFFFFFFFFFFFFFFFFFFFFFFFFFFFFFFFFFFFFF AND DUP2 MSTORE PUSH1 0x20 ADD SWAP1 DUP2 MSTORE PUSH1 0x20 ADD PUSH1 0x0 KECCAK256 SWAP1 POP PUSH1 0x0 DUP1 PUSH1 0x0 SWAP1 POP JUMPDEST PUSH1 0x2 DUP1 SLOAD SWAP1 POP DUP2 LT ISZERO PUSH2 0x4FA JUMPI PUSH2 0x46D PUSH1 0x2 DUP3 DUP2 SLOAD DUP2 LT PUSH2 0x3CD JUMPI PUSH2 0x3CC PUSH2 0x197B JUMP JUMPDEST JUMPDEST SWAP1 PUSH1 0x0 MSTORE PUSH1 0x20 PUSH1 0x0 KECCAK256 SWAP1 PUSH1 0x2 MUL ADD PUSH1 0x0 ADD DUP1 SLOAD PUSH2 0x3E9 SWAP1 PUSH2 0x1871 JUMP JUMPDEST DUP1 PUSH1 0x1F ADD PUSH1 0x20 DUP1 SWAP2 DIV MUL PUSH1 0x20 ADD PUSH1 0x40 MLOAD SWAP1 DUP2 ADD PUSH1 0x40 MSTORE DUP1 SWAP3 SWAP2 SWAP1 DUP2 DUP2 MSTORE PUSH1 0x20 ADD DUP3 DUP1 SLOAD PUSH2 0x415 SWAP1 PUSH2 0x1871 JUMP JUMPDEST DUP1 ISZERO PUSH2 0x462 JUMPI DUP1 PUSH1 0x1F LT PUSH2 0x437 JUMPI PUSH2 0x100 DUP1 DUP4 SLOAD DIV MUL DUP4 MSTORE SWAP2 PUSH1 0x20 ADD SWAP2 PUSH2 0x462 JUMP JUMPDEST DUP3 ADD SWAP2 SWAP1 PUSH1 0x0 MSTORE PUSH1 0x20 PUSH1 0x0 KECCAK256 SWAP1 JUMPDEST DUP2 SLOAD DUP2 MSTORE SWAP1 PUSH1 0x1 ADD SWAP1 PUSH1 0x20 ADD DUP1 DUP4 GT PUSH2 0x445 JUMPI DUP3 SWAP1 SUB PUSH1 0x1F AND DUP3 ADD SWAP2 JUMPDEST POP POP POP POP POP DUP9 PUSH2 0xDF0 JUMP JUMPDEST ISZERO PUSH2 0x4E7 JUMPI PUSH1 0x2 DUP2 DUP2 SLOAD DUP2 LT PUSH2 0x486 JUMPI PUSH2 0x485 PUSH2 0x197B JUMP JUMPDEST JUMPDEST SWAP1 PUSH1 0x0 MSTORE PUSH1 0x20 PUSH1 0x0 KECCAK256 SWAP1 PUSH1 0x2 MUL ADD PUSH1 0x1 ADD PUSH1 0x0 DUP2 SLOAD DUP1 SWAP3 SWAP2 SWAP1 PUSH2 0x4A8 SWAP1 PUSH2 0x18D4 JUMP JUMPDEST SWAP2 SWAP1 POP SSTORE POP PUSH1 0x1 DUP4 PUSH1 0x1 ADD PUSH1 0x1 PUSH2 0x100 EXP DUP2 SLOAD DUP2 PUSH1 0xFF MUL NOT AND SWAP1 DUP4 ISZERO ISZERO MUL OR SWAP1 SSTORE POP PUSH1 0x3 PUSH1 0x0 DUP2 SLOAD DUP1 SWAP3 SWAP2 SWAP1 PUSH2 0x4DD SWAP1 PUSH2 0x18D4 JUMP JUMPDEST SWAP2 SWAP1 POP SSTORE POP PUSH1 0x1 SWAP2 POP JUMPDEST DUP1 DUP1 PUSH2 0x4F2 SWAP1 PUSH2 0x18D4 JUMP JUMPDEST SWAP2 POP POP PUSH2 0x3A9 JUMP JUMPDEST POP POP POP PUSH2 0x506 DUP2 PUSH2 0xE49 JUMP JUMPDEST POP POP POP POP JUMP JUMPDEST PUSH1 0x60 PUSH1 0x0 DUP1 PUSH2 0x519 PUSH2 0x887 JUMP JUMPDEST SWAP1 POP DUP1 PUSH1 0x0 ADD MLOAD SWAP3 POP DUP3 PUSH2 0x52B PUSH2 0xE8C JUMP JUMPDEST SWAP3 POP SWAP3 POP POP SWAP1 SWAP2 JUMP JUMPDEST PUSH1 0x2 DUP2 DUP2 SLOAD DUP2 LT PUSH2 0x544 JUMPI PUSH1 0x0 DUP1 REVERT JUMPDEST SWAP1 PUSH1 0x0 MSTORE PUSH1 0x20 PUSH1 0x0 KECCAK256 SWAP1 PUSH1 0x2 MUL ADD PUSH1 0x0 SWAP2 POP SWAP1 POP DUP1 PUSH1 0x0 ADD DUP1 SLOAD PUSH2 0x567 SWAP1 PUSH2 0x1871 JUMP JUMPDEST DUP1 PUSH1 0x1F ADD PUSH1 0x20 DUP1 SWAP2 DIV MUL PUSH1 0x20 ADD PUSH1 0x40 MLOAD SWAP1 DUP2 ADD PUSH1 0x40 MSTORE DUP1 SWAP3 SWAP2 SWAP1 DUP2 DUP2 MSTORE PUSH1 0x20 ADD DUP3 DUP1 SLOAD PUSH2 0x593 SWAP1 PUSH2 0x1871 JUMP JUMPDEST DUP1 ISZERO PUSH2 0x5E0 JUMPI DUP1 PUSH1 0x1F LT PUSH2 0x5B5 JUMPI PUSH2 0x100 DUP1 DUP4 SLOAD DIV MUL DUP4 MSTORE SWAP2 PUSH1 0x20 ADD SWAP2 PUSH2 0x5E0 JUMP JUMPDEST DUP3 ADD SWAP2 SWAP1 PUSH1 0x0 MSTORE PUSH1 0x20 PUSH1 0x0 KECCAK256 SWAP1 JUMPDEST DUP2 SLOAD DUP2 MSTORE SWAP1 PUSH1 0x1 ADD SWAP1 PUSH1 0x20 ADD DUP1 DUP4 GT PUSH2 0x5C3 JUMPI DUP3 SWAP1 SUB PUSH1 0x1F AND DUP3 ADD SWAP2 JUMPDEST POP POP POP POP POP SWAP1 DUP1 PUSH1 0x1 ADD SLOAD SWAP1 POP DUP3 JUMP JUMPDEST DUP2 PUSH2 0x5F9 PUSH2 0xD4C JUMP JUMPDEST PUSH2 0x601 PUSH2 0xE94 JUMP JUMPDEST PUSH2 0x640 JUMPI PUSH1 0x40 MLOAD PUSH32 0x8C379A000000000000000000000000000000000000000000000000000000000 DUP2 MSTORE PUSH1 0x4 ADD PUSH2 0x637 SWAP1 PUSH2 0x169E JUMP JUMPDEST PUSH1 0x40 MLOAD DUP1 SWAP2 SUB SWAP1 REVERT JUMPDEST PUSH1 0x1 PUSH1 0x0 DUP3 PUSH20 0xFFFFFFFFFFFFFFFFFFFFFFFFFFFFFFFFFFFFFFFF AND PUSH20 0xFFFFFFFFFFFFFFFFFFFFFFFFFFFFFFFFFFFFFFFF AND DUP2 MSTORE PUSH1 0x20 ADD SWAP1 DUP2 MSTORE PUSH1 0x20 ADD PUSH1 0x0 KECCAK256 PUSH1 0x1 ADD PUSH1 0x0 SWAP1 SLOAD SWAP1 PUSH2 0x100 EXP SWAP1 DIV PUSH1 0xFF AND ISZERO PUSH2 0x6D0 JUMPI PUSH1 0x40 MLOAD PUSH32 0x8C379A000000000000000000000000000000000000000000000000000000000 DUP2 MSTORE PUSH1 0x4 ADD PUSH2 0x6C7 SWAP1 PUSH2 0x163E JUMP JUMPDEST PUSH1 0x40 MLOAD DUP1 SWAP2 SUB SWAP1 REVERT JUMPDEST PUSH2 0x6D9 DUP2 PUSH2 0xDA4 JUMP JUMPDEST DUP2 PUSH1 0x1 PUSH1 0x0 DUP6 PUSH20 0xFFFFFFFFFFFFFFFFFFFFFFFFFFFFFFFFFFFFFFFF AND PUSH20 0xFFFFFFFFFFFFFFFFFFFFFFFFFFFFFFFFFFFFFFFF AND DUP2 MSTORE PUSH1 0x20 ADD SWAP1 DUP2 MSTORE PUSH1 0x20 ADD PUSH1 0x0 KECCAK256 PUSH1 0x0 ADD SWAP1 DUP1 MLOAD SWAP1 PUSH1 0x20 ADD SWAP1 PUSH2 0x72F SWAP3 SWAP2 SWAP1 PUSH2 0xF9D JUMP JUMPDEST POP PUSH1 0x1 DUP1 PUSH1 0x0 DUP6 PUSH20 0xFFFFFFFFFFFFFFFFFFFFFFFFFFFFFFFFFFFFFFFF AND PUSH20 0xFFFFFFFFFFFFFFFFFFFFFFFFFFFFFFFFFFFFFFFF AND DUP2 MSTORE PUSH1 0x20 ADD SWAP1 DUP2 MSTORE PUSH1 0x20 ADD PUSH1 0x0 KECCAK256 PUSH1 0x1 ADD PUSH1 0x0 PUSH2 0x100 EXP DUP2 SLOAD DUP2 PUSH1 0xFF MUL NOT AND SWAP1 DUP4 ISZERO ISZERO MUL OR SWAP1 SSTORE POP POP POP POP JUMP JUMPDEST PUSH1 0x60 DUP3 DUP3 PUSH1 0x40 MLOAD PUSH1 0x20 ADD PUSH2 0x7A4 SWAP3 SWAP2 SWAP1 PUSH2 0x152D JUMP JUMPDEST PUSH1 0x40 MLOAD PUSH1 0x20 DUP2 DUP4 SUB SUB DUP2 MSTORE SWAP1 PUSH1 0x40 MSTORE SWAP1 POP SWAP3 SWAP2 POP POP JUMP JUMPDEST PUSH1 0x1 PUSH1 0x20 MSTORE DUP1 PUSH1 0x0 MSTORE PUSH1 0x40 PUSH1 0x0 KECCAK256 PUSH1 0x0 SWAP2 POP SWAP1 POP DUP1 PUSH1 0x0 ADD DUP1 SLOAD PUSH2 0x7DE SWAP1 PUSH2 0x1871 JUMP JUMPDEST DUP1 PUSH1 0x1F ADD PUSH1 0x20 DUP1 SWAP2 DIV MUL PUSH1 0x20 ADD PUSH1 0x40 MLOAD SWAP1 DUP2 ADD PUSH1 0x40 MSTORE DUP1 SWAP3 SWAP2 SWAP1 DUP2 DUP2 MSTORE PUSH1 0x20 ADD DUP3 DUP1 SLOAD PUSH2 0x80A SWAP1 PUSH2 0x1871 JUMP JUMPDEST DUP1 ISZERO PUSH2 0x857 JUMPI DUP1 PUSH1 0x1F LT PUSH2 0x82C JUMPI PUSH2 0x100 DUP1 DUP4 SLOAD DIV MUL DUP4 MSTORE SWAP2 PUSH1 0x20 ADD SWAP2 PUSH2 0x857 JUMP JUMPDEST DUP3 ADD SWAP2 SWAP1 PUSH1 0x0 MSTORE PUSH1 0x20 PUSH1 0x0 KECCAK256 SWAP1 JUMPDEST DUP2 SLOAD DUP2 MSTORE SWAP1 PUSH1 0x1 ADD SWAP1 PUSH1 0x20 ADD DUP1 DUP4 GT PUSH2 0x83A JUMPI DUP3 SWAP1 SUB PUSH1 0x1F AND DUP3 ADD SWAP2 JUMPDEST POP POP POP POP POP SWAP1 DUP1 PUSH1 0x1 ADD PUSH1 0x0 SWAP1 SLOAD SWAP1 PUSH2 0x100 EXP SWAP1 DIV PUSH1 0xFF AND SWAP1 DUP1 PUSH1 0x1 ADD PUSH1 0x1 SWAP1 SLOAD SWAP1 PUSH2 0x100 EXP SWAP1 DIV PUSH1 0xFF AND SWAP1 POP DUP4 JUMP JUMPDEST PUSH2 0x88F PUSH2 0x1023 JUMP JUMPDEST PUSH1 0x0 DUP1 PUSH1 0x0 PUSH1 0x2 DUP1 SLOAD SWAP1 POP SWAP1 POP PUSH1 0x0 DUP2 PUSH8 0xFFFFFFFFFFFFFFFF DUP2 GT ISZERO PUSH2 0x8B8 JUMPI PUSH2 0x8B7 PUSH2 0x19AA JUMP JUMPDEST JUMPDEST PUSH1 0x40 MLOAD SWAP1 DUP1 DUP3 MSTORE DUP1 PUSH1 0x20 MUL PUSH1 0x20 ADD DUP3 ADD PUSH1 0x40 MSTORE DUP1 ISZERO PUSH2 0x8EB JUMPI DUP2 PUSH1 0x20 ADD JUMPDEST PUSH1 0x60 DUP2 MSTORE PUSH1 0x20 ADD SWAP1 PUSH1 0x1 SWAP1 SUB SWAP1 DUP2 PUSH2 0x8D6 JUMPI SWAP1 POP JUMPDEST POP SWAP1 POP PUSH1 0x0 DUP1 PUSH1 0x1 SWAP1 POP PUSH1 0x60 PUSH1 0x0 JUMPDEST DUP6 DUP2 LT ISZERO PUSH2 0xBB8 JUMPI DUP8 PUSH1 0x2 DUP3 DUP2 SLOAD DUP2 LT PUSH2 0x917 JUMPI PUSH2 0x916 PUSH2 0x197B JUMP JUMPDEST JUMPDEST SWAP1 PUSH1 0x0 MSTORE PUSH1 0x20 PUSH1 0x0 KECCAK256 SWAP1 PUSH1 0x2 MUL ADD PUSH1 0x1 ADD SLOAD GT ISZERO PUSH2 0xA98 JUMPI PUSH1 0x2 DUP2 DUP2 SLOAD DUP2 LT PUSH2 0x943 JUMPI PUSH2 0x942 PUSH2 0x197B JUMP JUMPDEST JUMPDEST SWAP1 PUSH1 0x0 MSTORE PUSH1 0x20 PUSH1 0x0 KECCAK256 SWAP1 PUSH1 0x2 MUL ADD PUSH1 0x1 ADD SLOAD SWAP8 POP DUP1 SWAP7 POP DUP3 ISZERO PUSH2 0xA93 JUMPI PUSH1 0x0 SWAP3 POP PUSH1 0x0 SWAP4 POP DUP6 PUSH8 0xFFFFFFFFFFFFFFFF DUP2 GT ISZERO PUSH2 0x982 JUMPI PUSH2 0x981 PUSH2 0x19AA JUMP JUMPDEST JUMPDEST PUSH1 0x40 MLOAD SWAP1 DUP1 DUP3 MSTORE DUP1 PUSH1 0x20 MUL PUSH1 0x20 ADD DUP3 ADD PUSH1 0x40 MSTORE DUP1 ISZERO PUSH2 0x9B5 JUMPI DUP2 PUSH1 0x20 ADD JUMPDEST PUSH1 0x60 DUP2 MSTORE PUSH1 0x20 ADD SWAP1 PUSH1 0x1 SWAP1 SUB SWAP1 DUP2 PUSH2 0x9A0 JUMPI SWAP1 POP JUMPDEST POP SWAP5 POP PUSH1 0x2 DUP2 DUP2 SLOAD DUP2 LT PUSH2 0x9CC JUMPI PUSH2 0x9CB PUSH2 0x197B JUMP JUMPDEST JUMPDEST SWAP1 PUSH1 0x0 MSTORE PUSH1 0x20 PUSH1 0x0 KECCAK256 SWAP1 PUSH1 0x2 MUL ADD PUSH1 0x0 ADD DUP1 SLOAD PUSH2 0x9E8 SWAP1 PUSH2 0x1871 JUMP JUMPDEST DUP1 PUSH1 0x1F ADD PUSH1 0x20 DUP1 SWAP2 DIV MUL PUSH1 0x20 ADD PUSH1 0x40 MLOAD SWAP1 DUP2 ADD PUSH1 0x40 MSTORE DUP1 SWAP3 SWAP2 SWAP1 DUP2 DUP2 MSTORE PUSH1 0x20 ADD DUP3 DUP1 SLOAD PUSH2 0xA14 SWAP1 PUSH2 0x1871 JUMP JUMPDEST DUP1 ISZERO PUSH2 0xA61 JUMPI DUP1 PUSH1 0x1F LT PUSH2 0xA36 JUMPI PUSH2 0x100 DUP1 DUP4 SLOAD DIV MUL DUP4 MSTORE SWAP2 PUSH1 0x20 ADD SWAP2 PUSH2 0xA61 JUMP JUMPDEST DUP3 ADD SWAP2 SWAP1 PUSH1 0x0 MSTORE PUSH1 0x20 PUSH1 0x0 KECCAK256 SWAP1 JUMPDEST DUP2 SLOAD DUP2 MSTORE SWAP1 PUSH1 0x1 ADD SWAP1 PUSH1 0x20 ADD DUP1 DUP4 GT PUSH2 0xA44 JUMPI DUP3 SWAP1 SUB PUSH1 0x1F AND DUP3 ADD SWAP2 JUMPDEST POP POP POP POP POP DUP6 DUP6 DUP2 MLOAD DUP2 LT PUSH2 0xA79 JUMPI PUSH2 0xA78 PUSH2 0x197B JUMP JUMPDEST JUMPDEST PUSH1 0x20 MUL PUSH1 0x20 ADD ADD DUP2 SWAP1 MSTORE POP DUP4 DUP1 PUSH2 0xA8F SWAP1 PUSH2 0x18D4 JUMP JUMPDEST SWAP5 POP POP JUMPDEST PUSH2 0xBA5 JUMP JUMPDEST DUP8 PUSH1 0x2 DUP3 DUP2 SLOAD DUP2 LT PUSH2 0xAAD JUMPI PUSH2 0xAAC PUSH2 0x197B JUMP JUMPDEST JUMPDEST SWAP1 PUSH1 0x0 MSTORE PUSH1 0x20 PUSH1 0x0 KECCAK256 SWAP1 PUSH1 0x2 MUL ADD PUSH1 0x1 ADD SLOAD EQ ISZERO PUSH2 0xBA4 JUMPI PUSH1 0x1 SWAP3 POP PUSH1 0x2 DUP2 DUP2 SLOAD DUP2 LT PUSH2 0xADD JUMPI PUSH2 0xADC PUSH2 0x197B JUMP JUMPDEST JUMPDEST SWAP1 PUSH1 0x0 MSTORE PUSH1 0x20 PUSH1 0x0 KECCAK256 SWAP1 PUSH1 0x2 MUL ADD PUSH1 0x0 ADD DUP1 SLOAD PUSH2 0xAF9 SWAP1 PUSH2 0x1871 JUMP JUMPDEST DUP1 PUSH1 0x1F ADD PUSH1 0x20 DUP1 SWAP2 DIV MUL PUSH1 0x20 ADD PUSH1 0x40 MLOAD SWAP1 DUP2 ADD PUSH1 0x40 MSTORE DUP1 SWAP3 SWAP2 SWAP1 DUP2 DUP2 MSTORE PUSH1 0x20 ADD DUP3 DUP1 SLOAD PUSH2 0xB25 SWAP1 PUSH2 0x1871 JUMP JUMPDEST DUP1 ISZERO PUSH2 0xB72 JUMPI DUP1 PUSH1 0x1F LT PUSH2 0xB47 JUMPI PUSH2 0x100 DUP1 DUP4 SLOAD DIV MUL DUP4 MSTORE SWAP2 PUSH1 0x20 ADD SWAP2 PUSH2 0xB72 JUMP JUMPDEST DUP3 ADD SWAP2 SWAP1 PUSH1 0x0 MSTORE PUSH1 0x20 PUSH1 0x0 KECCAK256 SWAP1 JUMPDEST DUP2 SLOAD DUP2 MSTORE SWAP1 PUSH1 0x1 ADD SWAP1 PUSH1 0x20 ADD DUP1 DUP4 GT PUSH2 0xB55 JUMPI DUP3 SWAP1 SUB PUSH1 0x1F AND DUP3 ADD SWAP2 JUMPDEST POP POP POP POP POP DUP6 DUP6 DUP2 MLOAD DUP2 LT PUSH2 0xB8A JUMPI PUSH2 0xB89 PUSH2 0x197B JUMP JUMPDEST JUMPDEST PUSH1 0x20 MUL PUSH1 0x20 ADD ADD DUP2 SWAP1 MSTORE POP DUP4 DUP1 PUSH2 0xBA0 SWAP1 PUSH2 0x18D4 JUMP JUMPDEST SWAP5 POP POP JUMPDEST JUMPDEST DUP1 DUP1 PUSH2 0xBB0 SWAP1 PUSH2 0x18D4 JUMP JUMPDEST SWAP2 POP POP PUSH2 0x8FA JUMP JUMPDEST POP DUP2 ISZERO PUSH2 0xC76 JUMPI PUSH1 0x0 JUMPDEST DUP5 MLOAD DUP2 LT ISZERO PUSH2 0xC04 JUMPI PUSH2 0xBEF DUP3 DUP7 DUP4 DUP2 MLOAD DUP2 LT PUSH2 0xBE2 JUMPI PUSH2 0xBE1 PUSH2 0x197B JUMP JUMPDEST JUMPDEST PUSH1 0x20 MUL PUSH1 0x20 ADD ADD MLOAD PUSH2 0x78F JUMP JUMPDEST SWAP2 POP DUP1 DUP1 PUSH2 0xBFC SWAP1 PUSH2 0x18D4 JUMP JUMPDEST SWAP2 POP POP PUSH2 0xBC2 JUMP JUMPDEST POP PUSH1 0x0 PUSH2 0xC29 PUSH1 0x40 MLOAD DUP1 PUSH1 0x80 ADD PUSH1 0x40 MSTORE DUP1 PUSH1 0x4C DUP2 MSTORE PUSH1 0x20 ADD PUSH2 0x1BFB PUSH1 0x4C SWAP2 CODECOPY DUP4 PUSH2 0x78F JUMP JUMPDEST SWAP1 POP PUSH1 0x0 DUP2 SWAP1 PUSH2 0xC6F JUMPI PUSH1 0x40 MLOAD PUSH32 0x8C379A000000000000000000000000000000000000000000000000000000000 DUP2 MSTORE PUSH1 0x4 ADD PUSH2 0xC66 SWAP2 SWAP1 PUSH2 0x157E JUMP JUMPDEST PUSH1 0x40 MLOAD DUP1 SWAP2 SUB SWAP1 REVERT JUMPDEST POP POP PUSH2 0xD42 JUMP JUMPDEST PUSH1 0x2 DUP7 DUP2 SLOAD DUP2 LT PUSH2 0xC8A JUMPI PUSH2 0xC89 PUSH2 0x197B JUMP JUMPDEST JUMPDEST SWAP1 PUSH1 0x0 MSTORE PUSH1 0x20 PUSH1 0x0 KECCAK256 SWAP1 PUSH1 0x2 MUL ADD PUSH1 0x40 MLOAD DUP1 PUSH1 0x40 ADD PUSH1 0x40 MSTORE SWAP1 DUP2 PUSH1 0x0 DUP3 ADD DUP1 SLOAD PUSH2 0xCB3 SWAP1 PUSH2 0x1871 JUMP JUMPDEST DUP1 PUSH1 0x1F ADD PUSH1 0x20 DUP1 SWAP2 DIV MUL PUSH1 0x20 ADD PUSH1 0x40 MLOAD SWAP1 DUP2 ADD PUSH1 0x40 MSTORE DUP1 SWAP3 SWAP2 SWAP1 DUP2 DUP2 MSTORE PUSH1 0x20 ADD DUP3 DUP1 SLOAD PUSH2 0xCDF SWAP1 PUSH2 0x1871 JUMP JUMPDEST DUP1 ISZERO PUSH2 0xD2C JUMPI DUP1 PUSH1 0x1F LT PUSH2 0xD01 JUMPI PUSH2 0x100 DUP1 DUP4 SLOAD DIV MUL DUP4 MSTORE SWAP2 PUSH1 0x20 ADD SWAP2 PUSH2 0xD2C JUMP JUMPDEST DUP3 ADD SWAP2 SWAP1 PUSH1 0x0 MSTORE PUSH1 0x20 PUSH1 0x0 KECCAK256 SWAP1 JUMPDEST DUP2 SLOAD DUP2 MSTORE SWAP1 PUSH1 0x1 ADD SWAP1 PUSH1 0x20 ADD DUP1 DUP4 GT PUSH2 0xD0F JUMPI DUP3 SWAP1 SUB PUSH1 0x1F AND DUP3 ADD SWAP2 JUMPDEST POP POP POP POP POP DUP2 MSTORE PUSH1 0x20 ADD PUSH1 0x1 DUP3 ADD SLOAD DUP2 MSTORE POP POP SWAP8 POP JUMPDEST POP POP POP POP POP POP POP SWAP1 JUMP JUMPDEST PUSH1 0x4 SLOAD PUSH1 0x3 SLOAD LT PUSH2 0xD92 JUMPI PUSH1 0x40 MLOAD PUSH32 0x8C379A000000000000000000000000000000000000000000000000000000000 DUP2 MSTORE PUSH1 0x4 ADD PUSH2 0xD89 SWAP1 PUSH2 0x167E JUMP JUMPDEST PUSH1 0x40 MLOAD DUP1 SWAP2 SUB SWAP1 REVERT JUMPDEST JUMP JUMPDEST PUSH1 0x0 PUSH2 0xD9F CALLER PUSH2 0xEEB JUMP JUMPDEST SWAP1 POP SWAP1 JUMP JUMPDEST PUSH2 0xDAD DUP2 PUSH2 0xF44 JUMP JUMPDEST ISZERO PUSH2 0xDED JUMPI PUSH1 0x40 MLOAD PUSH32 0x8C379A000000000000000000000000000000000000000000000000000000000 DUP2 MSTORE PUSH1 0x4 ADD PUSH2 0xDE4 SWAP1 PUSH2 0x16BE JUMP JUMPDEST PUSH1 0x40 MLOAD DUP1 SWAP2 SUB SWAP1 REVERT JUMPDEST POP JUMP JUMPDEST PUSH1 0x0 DUP2 PUSH1 0x40 MLOAD PUSH1 0x20 ADD PUSH2 0xE03 SWAP2 SWAP1 PUSH2 0x157E JUMP JUMPDEST PUSH1 0x40 MLOAD PUSH1 0x20 DUP2 DUP4 SUB SUB DUP2 MSTORE SWAP1 PUSH1 0x40 MSTORE DUP1 MLOAD SWAP1 PUSH1 0x20 ADD KECCAK256 DUP4 PUSH1 0x40 MLOAD PUSH1 0x20 ADD PUSH2 0xE2A SWAP2 SWAP1 PUSH2 0x157E JUMP JUMPDEST PUSH1 0x40 MLOAD PUSH1 0x20 DUP2 DUP4 SUB SUB DUP2 MSTORE SWAP1 PUSH1 0x40 MSTORE DUP1 MLOAD SWAP1 PUSH1 0x20 ADD KECCAK256 EQ SWAP1 POP SWAP3 SWAP2 POP POP JUMP JUMPDEST DUP1 PUSH2 0xE89 JUMPI PUSH1 0x40 MLOAD PUSH32 0x8C379A000000000000000000000000000000000000000000000000000000000 DUP2 MSTORE PUSH1 0x4 ADD PUSH2 0xE80 SWAP1 PUSH2 0x165E JUMP JUMPDEST PUSH1 0x40 MLOAD DUP1 SWAP2 SUB SWAP1 REVERT JUMPDEST POP JUMP JUMPDEST PUSH1 0x0 ADDRESS SWAP1 POP SWAP1 JUMP JUMPDEST PUSH1 0x0 DUP1 PUSH1 0x0 SWAP1 SLOAD SWAP1 PUSH2 0x100 EXP SWAP1 DIV PUSH20 0xFFFFFFFFFFFFFFFFFFFFFFFFFFFFFFFFFFFFFFFF AND PUSH20 0xFFFFFFFFFFFFFFFFFFFFFFFFFFFFFFFFFFFFFFFF AND CALLER PUSH20 0xFFFFFFFFFFFFFFFFFFFFFFFFFFFFFFFFFFFFFFFF AND EQ SWAP1 POP SWAP1 JUMP JUMPDEST PUSH1 0x0 PUSH1 0x1 PUSH1 0x0 DUP4 PUSH20 0xFFFFFFFFFFFFFFFFFFFFFFFFFFFFFFFFFFFFFFFF AND PUSH20 0xFFFFFFFFFFFFFFFFFFFFFFFFFFFFFFFFFFFFFFFF AND DUP2 MSTORE PUSH1 0x20 ADD SWAP1 DUP2 MSTORE PUSH1 0x20 ADD PUSH1 0x0 KECCAK256 PUSH1 0x1 ADD PUSH1 0x0 SWAP1 SLOAD SWAP1 PUSH2 0x100 EXP SWAP1 DIV PUSH1 0xFF AND SWAP1 POP SWAP2 SWAP1 POP JUMP JUMPDEST PUSH1 0x0 PUSH1 0x1 PUSH1 0x0 DUP4 PUSH20 0xFFFFFFFFFFFFFFFFFFFFFFFFFFFFFFFFFFFFFFFF AND PUSH20 0xFFFFFFFFFFFFFFFFFFFFFFFFFFFFFFFFFFFFFFFF AND DUP2 MSTORE PUSH1 0x20 ADD SWAP1 DUP2 MSTORE PUSH1 0x20 ADD PUSH1 0x0 KECCAK256 PUSH1 0x1 ADD PUSH1 0x1 SWAP1 SLOAD SWAP1 PUSH2 0x100 EXP SWAP1 DIV PUSH1 0xFF AND SWAP1 POP SWAP2 SWAP1 POP JUMP JUMPDEST DUP3 DUP1 SLOAD PUSH2 0xFA9 SWAP1 PUSH2 0x1871 JUMP JUMPDEST SWAP1 PUSH1 0x0 MSTORE PUSH1 0x20 PUSH1 0x0 KECCAK256 SWAP1 PUSH1 0x1F ADD PUSH1 0x20 SWAP1 DIV DUP2 ADD SWAP3 DUP3 PUSH2 0xFCB JUMPI PUSH1 0x0 DUP6 SSTORE PUSH2 0x1012 JUMP JUMPDEST DUP3 PUSH1 0x1F LT PUSH2 0xFE4 JUMPI DUP1 MLOAD PUSH1 0xFF NOT AND DUP4 DUP1 ADD OR DUP6 SSTORE PUSH2 0x1012 JUMP JUMPDEST DUP3 DUP1 ADD PUSH1 0x1 ADD DUP6 SSTORE DUP3 ISZERO PUSH2 0x1012 JUMPI SWAP2 DUP3 ADD JUMPDEST DUP3 DUP2 GT ISZERO PUSH2 0x1011 JUMPI DUP3 MLOAD DUP3 SSTORE SWAP2 PUSH1 0x20 ADD SWAP2 SWAP1 PUSH1 0x1 ADD SWAP1 PUSH2 0xFF6 JUMP JUMPDEST JUMPDEST POP SWAP1 POP PUSH2 0x101F SWAP2 SWAP1 PUSH2 0x103D JUMP JUMPDEST POP SWAP1 JUMP JUMPDEST PUSH1 0x40 MLOAD DUP1 PUSH1 0x40 ADD PUSH1 0x40 MSTORE DUP1 PUSH1 0x60 DUP2 MSTORE PUSH1 0x20 ADD PUSH1 0x0 DUP2 MSTORE POP SWAP1 JUMP JUMPDEST JUMPDEST DUP1 DUP3 GT ISZERO PUSH2 0x1056 JUMPI PUSH1 0x0 DUP2 PUSH1 0x0 SWAP1 SSTORE POP PUSH1 0x1 ADD PUSH2 0x103E JUMP JUMPDEST POP SWAP1 JUMP JUMPDEST PUSH1 0x0 PUSH2 0x106D PUSH2 0x1068 DUP5 PUSH2 0x1745 JUMP JUMPDEST PUSH2 0x1720 JUMP JUMPDEST SWAP1 POP DUP3 DUP2 MSTORE PUSH1 0x20 DUP2 ADD DUP5 DUP5 DUP5 ADD GT ISZERO PUSH2 0x1089 JUMPI PUSH2 0x1088 PUSH2 0x19DE JUMP JUMPDEST JUMPDEST PUSH2 0x1094 DUP5 DUP3 DUP6 PUSH2 0x182F JUMP JUMPDEST POP SWAP4 SWAP3 POP POP POP JUMP JUMPDEST PUSH1 0x0 DUP2 CALLDATALOAD SWAP1 POP PUSH2 0x10AB DUP2 PUSH2 0x1BB5 JUMP JUMPDEST SWAP3 SWAP2 POP POP JUMP JUMPDEST PUSH1 0x0 DUP2 CALLDATALOAD SWAP1 POP PUSH2 0x10C0 DUP2 PUSH2 0x1BCC JUMP JUMPDEST SWAP3 SWAP2 POP POP JUMP JUMPDEST PUSH1 0x0 DUP3 PUSH1 0x1F DUP4 ADD SLT PUSH2 0x10DB JUMPI PUSH2 0x10DA PUSH2 0x19D9 JUMP JUMPDEST JUMPDEST DUP2 CALLDATALOAD PUSH2 0x10EB DUP5 DUP3 PUSH1 0x20 DUP7 ADD PUSH2 0x105A JUMP JUMPDEST SWAP2 POP POP SWAP3 SWAP2 POP POP JUMP JUMPDEST PUSH1 0x0 DUP2 CALLDATALOAD SWAP1 POP PUSH2 0x1103 DUP2 PUSH2 0x1BE3 JUMP JUMPDEST SWAP3 SWAP2 POP POP JUMP JUMPDEST PUSH1 0x0 PUSH1 0x20 DUP3 DUP5 SUB SLT ISZERO PUSH2 0x111F JUMPI PUSH2 0x111E PUSH2 0x19E8 JUMP JUMPDEST JUMPDEST PUSH1 0x0 PUSH2 0x112D DUP5 DUP3 DUP6 ADD PUSH2 0x109C JUMP JUMPDEST SWAP2 POP POP SWAP3 SWAP2 POP POP JUMP JUMPDEST PUSH1 0x0 DUP1 PUSH1 0x40 DUP4 DUP6 SUB SLT ISZERO PUSH2 0x114D JUMPI PUSH2 0x114C PUSH2 0x19E8 JUMP JUMPDEST JUMPDEST PUSH1 0x0 PUSH2 0x115B DUP6 DUP3 DUP7 ADD PUSH2 0x109C JUMP JUMPDEST SWAP3 POP POP PUSH1 0x20 DUP4 ADD CALLDATALOAD PUSH8 0xFFFFFFFFFFFFFFFF DUP2 GT ISZERO PUSH2 0x117C JUMPI PUSH2 0x117B PUSH2 0x19E3 JUMP JUMPDEST JUMPDEST PUSH2 0x1188 DUP6 DUP3 DUP7 ADD PUSH2 0x10C6 JUMP JUMPDEST SWAP2 POP POP SWAP3 POP SWAP3 SWAP1 POP JUMP JUMPDEST PUSH1 0x0 DUP1 PUSH1 0x40 DUP4 DUP6 SUB SLT ISZERO PUSH2 0x11A9 JUMPI PUSH2 0x11A8 PUSH2 0x19E8 JUMP JUMPDEST JUMPDEST PUSH1 0x0 DUP4 ADD CALLDATALOAD PUSH8 0xFFFFFFFFFFFFFFFF DUP2 GT ISZERO PUSH2 0x11C7 JUMPI PUSH2 0x11C6 PUSH2 0x19E3 JUMP JUMPDEST JUMPDEST PUSH2 0x11D3 DUP6 DUP3 DUP7 ADD PUSH2 0x10C6 JUMP JUMPDEST SWAP3 POP POP PUSH1 0x20 PUSH2 0x11E4 DUP6 DUP3 DUP7 ADD PUSH2 0x10B1 JUMP JUMPDEST SWAP2 POP POP SWAP3 POP SWAP3 SWAP1 POP JUMP JUMPDEST PUSH1 0x0 DUP1 PUSH1 0x40 DUP4 DUP6 SUB SLT ISZERO PUSH2 0x1205 JUMPI PUSH2 0x1204 PUSH2 0x19E8 JUMP JUMPDEST JUMPDEST PUSH1 0x0 DUP4 ADD CALLDATALOAD PUSH8 0xFFFFFFFFFFFFFFFF DUP2 GT ISZERO PUSH2 0x1223 JUMPI PUSH2 0x1222 PUSH2 0x19E3 JUMP JUMPDEST JUMPDEST PUSH2 0x122F DUP6 DUP3 DUP7 ADD PUSH2 0x10C6 JUMP JUMPDEST SWAP3 POP POP PUSH1 0x20 DUP4 ADD CALLDATALOAD PUSH8 0xFFFFFFFFFFFFFFFF DUP2 GT ISZERO PUSH2 0x1250 JUMPI PUSH2 0x124F PUSH2 0x19E3 JUMP JUMPDEST JUMPDEST PUSH2 0x125C DUP6 DUP3 DUP7 ADD PUSH2 0x10C6 JUMP JUMPDEST SWAP2 POP POP SWAP3 POP SWAP3 SWAP1 POP JUMP JUMPDEST PUSH1 0x0 PUSH1 0x20 DUP3 DUP5 SUB SLT ISZERO PUSH2 0x127C JUMPI PUSH2 0x127B PUSH2 0x19E8 JUMP JUMPDEST JUMPDEST PUSH1 0x0 PUSH2 0x128A DUP5 DUP3 DUP6 ADD PUSH2 0x10F4 JUMP JUMPDEST SWAP2 POP POP SWAP3 SWAP2 POP POP JUMP JUMPDEST PUSH1 0x0 PUSH2 0x129F DUP4 DUP4 PUSH2 0x133A JUMP JUMPDEST SWAP1 POP SWAP3 SWAP2 POP POP JUMP JUMPDEST PUSH2 0x12B0 DUP2 PUSH2 0x17E7 JUMP JUMPDEST DUP3 MSTORE POP POP JUMP JUMPDEST PUSH1 0x0 PUSH2 0x12C1 DUP3 PUSH2 0x1786 JUMP JUMPDEST PUSH2 0x12CB DUP2 DUP6 PUSH2 0x17A9 JUMP JUMPDEST SWAP4 POP DUP4 PUSH1 0x20 DUP3 MUL DUP6 ADD PUSH2 0x12DD DUP6 PUSH2 0x1776 JUMP JUMPDEST DUP1 PUSH1 0x0 JUMPDEST DUP6 DUP2 LT ISZERO PUSH2 0x1319 JUMPI DUP5 DUP5 SUB DUP10 MSTORE DUP2 MLOAD PUSH2 0x12FA DUP6 DUP3 PUSH2 0x1293 JUMP JUMPDEST SWAP5 POP PUSH2 0x1305 DUP4 PUSH2 0x179C JUMP JUMPDEST SWAP3 POP PUSH1 0x20 DUP11 ADD SWAP10 POP POP PUSH1 0x1 DUP2 ADD SWAP1 POP PUSH2 0x12E1 JUMP JUMPDEST POP DUP3 SWAP8 POP DUP8 SWAP6 POP POP POP POP POP POP SWAP3 SWAP2 POP POP JUMP JUMPDEST PUSH2 0x1334 DUP2 PUSH2 0x17F9 JUMP JUMPDEST DUP3 MSTORE POP POP JUMP JUMPDEST PUSH1 0x0 PUSH2 0x1345 DUP3 PUSH2 0x1791 JUMP JUMPDEST PUSH2 0x134F DUP2 DUP6 PUSH2 0x17BA JUMP JUMPDEST SWAP4 POP PUSH2 0x135F DUP2 DUP6 PUSH1 0x20 DUP7 ADD PUSH2 0x183E JUMP JUMPDEST PUSH2 0x1368 DUP2 PUSH2 0x19ED JUMP JUMPDEST DUP5 ADD SWAP2 POP POP SWAP3 SWAP2 POP POP JUMP JUMPDEST PUSH1 0x0 PUSH2 0x137E DUP3 PUSH2 0x1791 JUMP JUMPDEST PUSH2 0x1388 DUP2 DUP6 PUSH2 0x17CB JUMP JUMPDEST SWAP4 POP PUSH2 0x1398 DUP2 DUP6 PUSH1 0x20 DUP7 ADD PUSH2 0x183E JUMP JUMPDEST PUSH2 0x13A1 DUP2 PUSH2 0x19ED JUMP JUMPDEST DUP5 ADD SWAP2 POP POP SWAP3 SWAP2 POP POP JUMP JUMPDEST PUSH1 0x0 PUSH2 0x13B7 DUP3 PUSH2 0x1791 JUMP JUMPDEST PUSH2 0x13C1 DUP2 DUP6 PUSH2 0x17DC JUMP JUMPDEST SWAP4 POP PUSH2 0x13D1 DUP2 DUP6 PUSH1 0x20 DUP7 ADD PUSH2 0x183E JUMP JUMPDEST DUP1 DUP5 ADD SWAP2 POP POP SWAP3 SWAP2 POP POP JUMP JUMPDEST PUSH1 0x0 PUSH2 0x13EA PUSH1 0x25 DUP4 PUSH2 0x17CB JUMP JUMPDEST SWAP2 POP PUSH2 0x13F5 DUP3 PUSH2 0x19FE JUMP JUMPDEST PUSH1 0x40 DUP3 ADD SWAP1 POP SWAP2 SWAP1 POP JUMP JUMPDEST PUSH1 0x0 PUSH2 0x140D PUSH1 0x21 DUP4 PUSH2 0x17CB JUMP JUMPDEST SWAP2 POP PUSH2 0x1418 DUP3 PUSH2 0x1A4D JUMP JUMPDEST PUSH1 0x40 DUP3 ADD SWAP1 POP SWAP2 SWAP1 POP JUMP JUMPDEST PUSH1 0x0 PUSH2 0x1430 PUSH1 0x2F DUP4 PUSH2 0x17CB JUMP JUMPDEST SWAP2 POP PUSH2 0x143B DUP3 PUSH2 0x1A9C JUMP JUMPDEST PUSH1 0x40 DUP3 ADD SWAP1 POP SWAP2 SWAP1 POP JUMP JUMPDEST PUSH1 0x0 PUSH2 0x1453 PUSH1 0x2F DUP4 PUSH2 0x17CB JUMP JUMPDEST SWAP2 POP PUSH2 0x145E DUP3 PUSH2 0x1AEB JUMP JUMPDEST PUSH1 0x40 DUP3 ADD SWAP1 POP SWAP2 SWAP1 POP JUMP JUMPDEST PUSH1 0x0 PUSH2 0x1476 PUSH1 0x1 DUP4 PUSH2 0x17DC JUMP JUMPDEST SWAP2 POP PUSH2 0x1481 DUP3 PUSH2 0x1B3A JUMP JUMPDEST PUSH1 0x1 DUP3 ADD SWAP1 POP SWAP2 SWAP1 POP JUMP JUMPDEST PUSH1 0x0 PUSH2 0x1499 PUSH1 0x14 DUP4 PUSH2 0x17CB JUMP JUMPDEST SWAP2 POP PUSH2 0x14A4 DUP3 PUSH2 0x1B63 JUMP JUMPDEST PUSH1 0x20 DUP3 ADD SWAP1 POP SWAP2 SWAP1 POP JUMP JUMPDEST PUSH1 0x0 PUSH2 0x14BC PUSH1 0x1A DUP4 PUSH2 0x17CB JUMP JUMPDEST SWAP2 POP PUSH2 0x14C7 DUP3 PUSH2 0x1B8C JUMP JUMPDEST PUSH1 0x20 DUP3 ADD SWAP1 POP SWAP2 SWAP1 POP JUMP JUMPDEST PUSH1 0x0 PUSH1 0x40 DUP4 ADD PUSH1 0x0 DUP4 ADD MLOAD DUP5 DUP3 SUB PUSH1 0x0 DUP7 ADD MSTORE PUSH2 0x14EF DUP3 DUP3 PUSH2 0x133A JUMP JUMPDEST SWAP2 POP POP PUSH1 0x20 DUP4 ADD MLOAD PUSH2 0x1504 PUSH1 0x20 DUP7 ADD DUP3 PUSH2 0x150F JUMP JUMPDEST POP DUP1 SWAP2 POP POP SWAP3 SWAP2 POP POP JUMP JUMPDEST PUSH2 0x1518 DUP2 PUSH2 0x1825 JUMP JUMPDEST DUP3 MSTORE POP POP JUMP JUMPDEST PUSH2 0x1527 DUP2 PUSH2 0x1825 JUMP JUMPDEST DUP3 MSTORE POP POP JUMP JUMPDEST PUSH1 0x0 PUSH2 0x1539 DUP3 DUP6 PUSH2 0x13AC JUMP JUMPDEST SWAP2 POP PUSH2 0x1544 DUP3 PUSH2 0x1469 JUMP JUMPDEST SWAP2 POP PUSH2 0x1550 DUP3 DUP5 PUSH2 0x13AC JUMP JUMPDEST SWAP2 POP DUP2 SWAP1 POP SWAP4 SWAP3 POP POP POP JUMP JUMPDEST PUSH1 0x0 PUSH1 0x20 DUP3 ADD SWAP1 POP DUP2 DUP2 SUB PUSH1 0x0 DUP4 ADD MSTORE PUSH2 0x1576 DUP2 DUP5 PUSH2 0x12B6 JUMP JUMPDEST SWAP1 POP SWAP3 SWAP2 POP POP JUMP JUMPDEST PUSH1 0x0 PUSH1 0x20 DUP3 ADD SWAP1 POP DUP2 DUP2 SUB PUSH1 0x0 DUP4 ADD MSTORE PUSH2 0x1598 DUP2 DUP5 PUSH2 0x1373 JUMP JUMPDEST SWAP1 POP SWAP3 SWAP2 POP POP JUMP JUMPDEST PUSH1 0x0 PUSH1 0x40 DUP3 ADD SWAP1 POP DUP2 DUP2 SUB PUSH1 0x0 DUP4 ADD MSTORE PUSH2 0x15BA DUP2 DUP6 PUSH2 0x1373 JUMP JUMPDEST SWAP1 POP PUSH2 0x15C9 PUSH1 0x20 DUP4 ADD DUP5 PUSH2 0x12A7 JUMP JUMPDEST SWAP4 SWAP3 POP POP POP JUMP JUMPDEST PUSH1 0x0 PUSH1 0x60 DUP3 ADD SWAP1 POP DUP2 DUP2 SUB PUSH1 0x0 DUP4 ADD MSTORE PUSH2 0x15EA DUP2 DUP7 PUSH2 0x1373 JUMP JUMPDEST SWAP1 POP PUSH2 0x15F9 PUSH1 0x20 DUP4 ADD DUP6 PUSH2 0x132B JUMP JUMPDEST PUSH2 0x1606 PUSH1 0x40 DUP4 ADD DUP5 PUSH2 0x132B JUMP JUMPDEST SWAP5 SWAP4 POP POP POP POP JUMP JUMPDEST PUSH1 0x0 PUSH1 0x40 DUP3 ADD SWAP1 POP DUP2 DUP2 SUB PUSH1 0x0 DUP4 ADD MSTORE PUSH2 0x1628 DUP2 DUP6 PUSH2 0x1373 JUMP JUMPDEST SWAP1 POP PUSH2 0x1637 PUSH1 0x20 DUP4 ADD DUP5 PUSH2 0x151E JUMP JUMPDEST SWAP4 SWAP3 POP POP POP JUMP JUMPDEST PUSH1 0x0 PUSH1 0x20 DUP3 ADD SWAP1 POP DUP2 DUP2 SUB PUSH1 0x0 DUP4 ADD MSTORE PUSH2 0x1657 DUP2 PUSH2 0x13DD JUMP JUMPDEST SWAP1 POP SWAP2 SWAP1 POP JUMP JUMPDEST PUSH1 0x0 PUSH1 0x20 DUP3 ADD SWAP1 POP DUP2 DUP2 SUB PUSH1 0x0 DUP4 ADD MSTORE PUSH2 0x1677 DUP2 PUSH2 0x1400 JUMP JUMPDEST SWAP1 POP SWAP2 SWAP1 POP JUMP JUMPDEST PUSH1 0x0 PUSH1 0x20 DUP3 ADD SWAP1 POP DUP2 DUP2 SUB PUSH1 0x0 DUP4 ADD MSTORE PUSH2 0x1697 DUP2 PUSH2 0x1423 JUMP JUMPDEST SWAP1 POP SWAP2 SWAP1 POP JUMP JUMPDEST PUSH1 0x0 PUSH1 0x20 DUP3 ADD SWAP1 POP DUP2 DUP2 SUB PUSH1 0x0 DUP4 ADD MSTORE PUSH2 0x16B7 DUP2 PUSH2 0x1446 JUMP JUMPDEST SWAP1 POP SWAP2 SWAP1 POP JUMP JUMPDEST PUSH1 0x0 PUSH1 0x20 DUP3 ADD SWAP1 POP DUP2 DUP2 SUB PUSH1 0x0 DUP4 ADD MSTORE PUSH2 0x16D7 DUP2 PUSH2 0x148C JUMP JUMPDEST SWAP1 POP SWAP2 SWAP1 POP JUMP JUMPDEST PUSH1 0x0 PUSH1 0x20 DUP3 ADD SWAP1 POP DUP2 DUP2 SUB PUSH1 0x0 DUP4 ADD MSTORE PUSH2 0x16F7 DUP2 PUSH2 0x14AF JUMP JUMPDEST SWAP1 POP SWAP2 SWAP1 POP JUMP JUMPDEST PUSH1 0x0 PUSH1 0x20 DUP3 ADD SWAP1 POP DUP2 DUP2 SUB PUSH1 0x0 DUP4 ADD MSTORE PUSH2 0x1718 DUP2 DUP5 PUSH2 0x14D2 JUMP JUMPDEST SWAP1 POP SWAP3 SWAP2 POP POP JUMP JUMPDEST PUSH1 0x0 PUSH2 0x172A PUSH2 0x173B JUMP JUMPDEST SWAP1 POP PUSH2 0x1736 DUP3 DUP3 PUSH2 0x18A3 JUMP JUMPDEST SWAP2 SWAP1 POP JUMP JUMPDEST PUSH1 0x0 PUSH1 0x40 MLOAD SWAP1 POP SWAP1 JUMP JUMPDEST PUSH1 0x0 PUSH8 0xFFFFFFFFFFFFFFFF DUP3 GT ISZERO PUSH2 0x1760 JUMPI PUSH2 0x175F PUSH2 0x19AA JUMP JUMPDEST JUMPDEST PUSH2 0x1769 DUP3 PUSH2 0x19ED JUMP JUMPDEST SWAP1 POP PUSH1 0x20 DUP2 ADD SWAP1 POP SWAP2 SWAP1 POP JUMP JUMPDEST PUSH1 0x0 DUP2 SWAP1 POP PUSH1 0x20 DUP3 ADD SWAP1 POP SWAP2 SWAP1 POP JUMP JUMPDEST PUSH1 0x0 DUP2 MLOAD SWAP1 POP SWAP2 SWAP1 POP JUMP JUMPDEST PUSH1 0x0 DUP2 MLOAD SWAP1 POP SWAP2 SWAP1 POP JUMP JUMPDEST PUSH1 0x0 PUSH1 0x20 DUP3 ADD SWAP1 POP SWAP2 SWAP1 POP JUMP JUMPDEST PUSH1 0x0 DUP3 DUP3 MSTORE PUSH1 0x20 DUP3 ADD SWAP1 POP SWAP3 SWAP2 POP POP JUMP JUMPDEST PUSH1 0x0 DUP3 DUP3 MSTORE PUSH1 0x20 DUP3 ADD SWAP1 POP SWAP3 SWAP2 POP POP JUMP JUMPDEST PUSH1 0x0 DUP3 DUP3 MSTORE PUSH1 0x20 DUP3 ADD SWAP1 POP SWAP3 SWAP2 POP POP JUMP JUMPDEST PUSH1 0x0 DUP2 SWAP1 POP SWAP3 SWAP2 POP POP JUMP JUMPDEST PUSH1 0x0 PUSH2 0x17F2 DUP3 PUSH2 0x1805 JUMP JUMPDEST SWAP1 POP SWAP2 SWAP1 POP JUMP JUMPDEST PUSH1 0x0 DUP2 ISZERO ISZERO SWAP1 POP SWAP2 SWAP1 POP JUMP JUMPDEST PUSH1 0x0 PUSH20 0xFFFFFFFFFFFFFFFFFFFFFFFFFFFFFFFFFFFFFFFF DUP3 AND SWAP1 POP SWAP2 SWAP1 POP JUMP JUMPDEST PUSH1 0x0 DUP2 SWAP1 POP SWAP2 SWAP1 POP JUMP JUMPDEST DUP3 DUP2 DUP4 CALLDATACOPY PUSH1 0x0 DUP4 DUP4 ADD MSTORE POP POP POP JUMP JUMPDEST PUSH1 0x0 JUMPDEST DUP4 DUP2 LT ISZERO PUSH2 0x185C JUMPI DUP1 DUP3 ADD MLOAD DUP2 DUP5 ADD MSTORE PUSH1 0x20 DUP2 ADD SWAP1 POP PUSH2 0x1841 JUMP JUMPDEST DUP4 DUP2 GT ISZERO PUSH2 0x186B JUMPI PUSH1 0x0 DUP5 DUP5 ADD MSTORE JUMPDEST POP POP POP POP JUMP JUMPDEST PUSH1 0x0 PUSH1 0x2 DUP3 DIV SWAP1 POP PUSH1 0x1 DUP3 AND DUP1 PUSH2 0x1889 JUMPI PUSH1 0x7F DUP3 AND SWAP2 POP JUMPDEST PUSH1 0x20 DUP3 LT DUP2 EQ ISZERO PUSH2 0x189D JUMPI PUSH2 0x189C PUSH2 0x194C JUMP JUMPDEST JUMPDEST POP SWAP2 SWAP1 POP JUMP JUMPDEST PUSH2 0x18AC DUP3 PUSH2 0x19ED JUMP JUMPDEST DUP2 ADD DUP2 DUP2 LT PUSH8 0xFFFFFFFFFFFFFFFF DUP3 GT OR ISZERO PUSH2 0x18CB JUMPI PUSH2 0x18CA PUSH2 0x19AA JUMP JUMPDEST JUMPDEST DUP1 PUSH1 0x40 MSTORE POP POP POP JUMP JUMPDEST PUSH1 0x0 PUSH2 0x18DF DUP3 PUSH2 0x1825 JUMP JUMPDEST SWAP2 POP PUSH32 0xFFFFFFFFFFFFFFFFFFFFFFFFFFFFFFFFFFFFFFFFFFFFFFFFFFFFFFFFFFFFFFFF DUP3 EQ ISZERO PUSH2 0x1912 JUMPI PUSH2 0x1911 PUSH2 0x191D JUMP JUMPDEST JUMPDEST PUSH1 0x1 DUP3 ADD SWAP1 POP SWAP2 SWAP1 POP JUMP JUMPDEST PUSH32 0x4E487B7100000000000000000000000000000000000000000000000000000000 PUSH1 0x0 MSTORE PUSH1 0x11 PUSH1 0x4 MSTORE PUSH1 0x24 PUSH1 0x0 REVERT JUMPDEST PUSH32 0x4E487B7100000000000000000000000000000000000000000000000000000000 PUSH1 0x0 MSTORE PUSH1 0x22 PUSH1 0x4 MSTORE PUSH1 0x24 PUSH1 0x0 REVERT JUMPDEST PUSH32 0x4E487B7100000000000000000000000000000000000000000000000000000000 PUSH1 0x0 MSTORE PUSH1 0x32 PUSH1 0x4 MSTORE PUSH1 0x24 PUSH1 0x0 REVERT JUMPDEST PUSH32 0x4E487B7100000000000000000000000000000000000000000000000000000000 PUSH1 0x0 MSTORE PUSH1 0x41 PUSH1 0x4 MSTORE PUSH1 0x24 PUSH1 0x0 REVERT JUMPDEST PUSH1 0x0 DUP1 REVERT JUMPDEST PUSH1 0x0 DUP1 REVERT JUMPDEST PUSH1 0x0 DUP1 REVERT JUMPDEST PUSH1 0x0 DUP1 REVERT JUMPDEST PUSH1 0x0 PUSH1 0x1F NOT PUSH1 0x1F DUP4 ADD AND SWAP1 POP SWAP2 SWAP1 POP JUMP JUMPDEST PUSH32 0x566F746572206861766520616C72656164792068617320726967687420746F20 PUSH1 0x0 DUP3 ADD MSTORE PUSH32 0x766F74652E000000000000000000000000000000000000000000000000000000 PUSH1 0x20 DUP3 ADD MSTORE POP JUMP JUMPDEST PUSH32 0x43616E64696461746520796F752073656E7420646F6573206E6F742065786973 PUSH1 0x0 DUP3 ADD MSTORE PUSH32 0x7400000000000000000000000000000000000000000000000000000000000000 PUSH1 0x20 DUP3 ADD MSTORE POP JUMP JUMPDEST PUSH32 0x4D6178206163636F756E7420766F74657320697320726561636865642E204261 PUSH1 0x0 DUP3 ADD MSTORE PUSH32 0x6C6C6F7420697320434C4F5345442E0000000000000000000000000000000000 PUSH1 0x20 DUP3 ADD MSTORE POP JUMP JUMPDEST PUSH32 0x4F6E6C792074686520636F6E7472616374206F776E65722063616E2067697665 PUSH1 0x0 DUP3 ADD MSTORE PUSH32 0x20726967687420746F20766F74652E0000000000000000000000000000000000 PUSH1 0x20 DUP3 ADD MSTORE POP JUMP JUMPDEST PUSH32 0x2000000000000000000000000000000000000000000000000000000000000000 PUSH1 0x0 DUP3 ADD MSTORE POP JUMP JUMPDEST PUSH32 0x566F74657220616C726561647920766F7465642E000000000000000000000000 PUSH1 0x0 DUP3 ADD MSTORE POP JUMP JUMPDEST PUSH32 0x596F752068617665206E6F7420726967687420746F20766F7465000000000000 PUSH1 0x0 DUP3 ADD MSTORE POP JUMP JUMPDEST PUSH2 0x1BBE DUP2 PUSH2 0x17E7 JUMP JUMPDEST DUP2 EQ PUSH2 0x1BC9 JUMPI PUSH1 0x0 DUP1 REVERT JUMPDEST POP JUMP JUMPDEST PUSH2 0x1BD5 DUP2 PUSH2 0x17F9 JUMP JUMPDEST DUP2 EQ PUSH2 0x1BE0 JUMPI PUSH1 0x0 DUP1 REVERT JUMPDEST POP JUMP JUMPDEST PUSH2 0x1BEC DUP2 PUSH2 0x1825 JUMP JUMPDEST DUP2 EQ PUSH2 0x1BF7 JUMPI PUSH1 0x0 DUP1 REVERT JUMPDEST POP JUMP INVALID SLOAD PUSH9 0x657265206973206120 PUSH21 0x6965206F6E2042616C6C6F742E20596F752073686F PUSH22 0x6C642073746172742061206E65772062616C6C6F7420 PUSH24 0x697468207469652063616E646964617465733AA264697066 PUSH20 0x5822122009C350CB6944FD4DEA3C694591543554 DUP2 0xE5 0x21 MSTORE CHAINID XOR 0xAA DUP3 0xF8 0xEC SWAP14 0xA8 SWAP1 0xAE 0xB1 EXP PUSH5 0x736F6C6343 STOP ADDMOD SMOD STOP CALLER "
				},
				"gasEstimates": {
					"creation": {
						"codeDepositCost": "1458400",
						"executionCost": "infinite",
						"totalCost": "infinite"
					},
					"external": {
						"candidates(uint256)": "infinite",
						"concatenateStrings(string,string)": "infinite",
						"getCandidatesListName()": "infinite",
						"getWinnerName()": "infinite",
						"getWinningCandidate()": "infinite",
						"giveRightToVote(address,string)": "infinite",
						"vote(string,bool)": "infinite",
						"voters(address)": "infinite"
					},
					"internal": {
						"areYouContractOwner()": "2176",
						"areYouHaveRigthToVote()": "2303",
						"areYouVoted()": "infinite",
						"getContractAddress()": "22",
						"getTotalVotesCounterReachedRequire()": "infinite",
						"getVoterRigthToVote(address)": "2266",
						"getVoterVoted(address)": "2316",
						"getVoterVotedRequire(address)": "infinite",
						"isCandidateExistRequire(bool)": "infinite",
						"setCandidatesIntoStorage(string memory[] memory)": "infinite",
						"stringEqualTo(string memory,string memory)": "infinite"
					}
				},
				"methodIdentifiers": {
					"candidates(uint256)": "3477ee2e",
					"concatenateStrings(string,string)": "7a36b3ee",
					"getCandidatesListName()": "011d1023",
					"getWinnerName()": "2bfda515",
					"getWinningCandidate()": "f927cc29",
					"giveRightToVote(address,string)": "68957b20",
					"vote(string,bool)": "27d3410c",
					"voters(address)": "a3ec138d"
				}
			},
			"storageLayout": {
				"storage": [
					{
						"astId": 15,
						"contract": "contracts/Ballot/Ballot.sol:MyBallot",
						"label": "contractOwner",
						"offset": 0,
						"slot": "0",
						"type": "t_address"
					},
					{
						"astId": 20,
						"contract": "contracts/Ballot/Ballot.sol:MyBallot",
						"label": "voters",
						"offset": 0,
						"slot": "1",
						"type": "t_mapping(t_address,t_struct(Voter)8_storage)"
					},
					{
						"astId": 24,
						"contract": "contracts/Ballot/Ballot.sol:MyBallot",
						"label": "candidates",
						"offset": 0,
						"slot": "2",
						"type": "t_array(t_struct(Candidate)13_storage)dyn_storage"
					},
					{
						"astId": 26,
						"contract": "contracts/Ballot/Ballot.sol:MyBallot",
						"label": "totalVotesCounter",
						"offset": 0,
						"slot": "3",
						"type": "t_uint256"
					},
					{
						"astId": 28,
						"contract": "contracts/Ballot/Ballot.sol:MyBallot",
						"label": "maxVotes",
						"offset": 0,
						"slot": "4",
						"type": "t_uint256"
					}
				],
				"types": {
					"t_address": {
						"encoding": "inplace",
						"label": "address",
						"numberOfBytes": "20"
					},
					"t_array(t_struct(Candidate)13_storage)dyn_storage": {
						"base": "t_struct(Candidate)13_storage",
						"encoding": "dynamic_array",
						"label": "struct MyBallot.Candidate[]",
						"numberOfBytes": "32"
					},
					"t_bool": {
						"encoding": "inplace",
						"label": "bool",
						"numberOfBytes": "1"
					},
					"t_mapping(t_address,t_struct(Voter)8_storage)": {
						"encoding": "mapping",
						"key": "t_address",
						"label": "mapping(address => struct MyBallot.Voter)",
						"numberOfBytes": "32",
						"value": "t_struct(Voter)8_storage"
					},
					"t_string_storage": {
						"encoding": "bytes",
						"label": "string",
						"numberOfBytes": "32"
					},
					"t_struct(Candidate)13_storage": {
						"encoding": "inplace",
						"label": "struct MyBallot.Candidate",
						"members": [
							{
								"astId": 10,
								"contract": "contracts/Ballot/Ballot.sol:MyBallot",
								"label": "nameProject",
								"offset": 0,
								"slot": "0",
								"type": "t_string_storage"
							},
							{
								"astId": 12,
								"contract": "contracts/Ballot/Ballot.sol:MyBallot",
								"label": "votesCount",
								"offset": 0,
								"slot": "1",
								"type": "t_uint256"
							}
						],
						"numberOfBytes": "64"
					},
					"t_struct(Voter)8_storage": {
						"encoding": "inplace",
						"label": "struct MyBallot.Voter",
						"members": [
							{
								"astId": 3,
								"contract": "contracts/Ballot/Ballot.sol:MyBallot",
								"label": "nameVoter",
								"offset": 0,
								"slot": "0",
								"type": "t_string_storage"
							},
							{
								"astId": 5,
								"contract": "contracts/Ballot/Ballot.sol:MyBallot",
								"label": "canVote",
								"offset": 0,
								"slot": "1",
								"type": "t_bool"
							},
							{
								"astId": 7,
								"contract": "contracts/Ballot/Ballot.sol:MyBallot",
								"label": "hasVoted",
								"offset": 1,
								"slot": "1",
								"type": "t_bool"
							}
						],
						"numberOfBytes": "64"
					},
					"t_uint256": {
						"encoding": "inplace",
						"label": "uint256",
						"numberOfBytes": "32"
					}
				}
			},
			"userdoc": {
				"kind": "user",
				"methods": {},
				"version": 1
			}
		}
	}
}