{
	"contracts/Ballot/Ballot.sol": {
		"MyBallot": {
			"abi": [
				{
					"inputs": [
						{
							"components": [
								{
									"internalType": "string",
									"name": "name",
									"type": "string"
								},
								{
									"internalType": "string",
									"name": "party",
									"type": "string"
								},
								{
									"internalType": "uint256",
									"name": "votesCount",
									"type": "uint256"
								}
							],
							"internalType": "struct MyBallot.Candidate[]",
							"name": "_candidates",
							"type": "tuple[]"
						},
						{
							"internalType": "uint256",
							"name": "_maxVotes",
							"type": "uint256"
						}
					],
					"stateMutability": "nonpayable",
					"type": "constructor"
				},
				{
					"inputs": [
						{
							"components": [
								{
									"internalType": "string",
									"name": "name",
									"type": "string"
								},
								{
									"internalType": "string",
									"name": "party",
									"type": "string"
								},
								{
									"internalType": "uint256",
									"name": "votesCount",
									"type": "uint256"
								}
							],
							"internalType": "struct MyBallot.Candidate",
							"name": "newCandidate",
							"type": "tuple"
						}
					],
					"name": "addCandidateAsStruct",
					"outputs": [],
					"stateMutability": "nonpayable",
					"type": "function"
				},
				{
					"inputs": [
						{
							"internalType": "string",
							"name": "name",
							"type": "string"
						},
						{
							"internalType": "string",
							"name": "party",
							"type": "string"
						}
					],
					"name": "addCandidateWithSpreadParameters",
					"outputs": [],
					"stateMutability": "nonpayable",
					"type": "function"
				},
				{
					"inputs": [],
					"name": "areYouContractOwner",
					"outputs": [
						{
							"internalType": "bool",
							"name": "",
							"type": "bool"
						}
					],
					"stateMutability": "view",
					"type": "function"
				},
				{
					"inputs": [],
					"name": "areYouHaveRigthToVote",
					"outputs": [
						{
							"internalType": "bool",
							"name": "",
							"type": "bool"
						}
					],
					"stateMutability": "view",
					"type": "function"
				},
				{
					"inputs": [],
					"name": "areYouVoted",
					"outputs": [
						{
							"internalType": "bool",
							"name": "",
							"type": "bool"
						}
					],
					"stateMutability": "view",
					"type": "function"
				},
				{
					"inputs": [],
					"name": "calculateAmountOfTotalVotes",
					"outputs": [
						{
							"internalType": "uint256",
							"name": "total",
							"type": "uint256"
						}
					],
					"stateMutability": "view",
					"type": "function"
				},
				{
					"inputs": [
						{
							"internalType": "uint256",
							"name": "",
							"type": "uint256"
						}
					],
					"name": "candidates",
					"outputs": [
						{
							"internalType": "string",
							"name": "name",
							"type": "string"
						},
						{
							"internalType": "string",
							"name": "party",
							"type": "string"
						},
						{
							"internalType": "uint256",
							"name": "votesCount",
							"type": "uint256"
						}
					],
					"stateMutability": "view",
					"type": "function"
				},
				{
					"inputs": [],
					"name": "contractOwner",
					"outputs": [
						{
							"internalType": "address",
							"name": "",
							"type": "address"
						}
					],
					"stateMutability": "view",
					"type": "function"
				},
				{
					"inputs": [],
					"name": "getCandidatesList",
					"outputs": [
						{
							"components": [
								{
									"internalType": "string",
									"name": "name",
									"type": "string"
								},
								{
									"internalType": "string",
									"name": "party",
									"type": "string"
								},
								{
									"internalType": "uint256",
									"name": "votesCount",
									"type": "uint256"
								}
							],
							"internalType": "struct MyBallot.Candidate[]",
							"name": "",
							"type": "tuple[]"
						}
					],
					"stateMutability": "view",
					"type": "function"
				},
				{
					"inputs": [],
					"name": "getContractAddress",
					"outputs": [
						{
							"internalType": "address",
							"name": "",
							"type": "address"
						}
					],
					"stateMutability": "view",
					"type": "function"
				},
				{
					"inputs": [
						{
							"internalType": "address",
							"name": "voterAddress",
							"type": "address"
						}
					],
					"name": "getVoterRigthToVote",
					"outputs": [
						{
							"internalType": "bool",
							"name": "",
							"type": "bool"
						}
					],
					"stateMutability": "view",
					"type": "function"
				},
				{
					"inputs": [
						{
							"internalType": "address",
							"name": "voterAddress",
							"type": "address"
						}
					],
					"name": "getVoterVoter",
					"outputs": [
						{
							"internalType": "bool",
							"name": "",
							"type": "bool"
						}
					],
					"stateMutability": "view",
					"type": "function"
				},
				{
					"inputs": [],
					"name": "getWinnerName",
					"outputs": [
						{
							"internalType": "string",
							"name": "winnerName",
							"type": "string"
						}
					],
					"stateMutability": "view",
					"type": "function"
				},
				{
					"inputs": [],
					"name": "getWinningCandidate",
					"outputs": [
						{
							"internalType": "uint256",
							"name": "winningProposal",
							"type": "uint256"
						},
						{
							"internalType": "bool",
							"name": "isTie",
							"type": "bool"
						}
					],
					"stateMutability": "view",
					"type": "function"
				},
				{
					"inputs": [
						{
							"internalType": "address",
							"name": "voterAddress",
							"type": "address"
						}
					],
					"name": "giveRightToVote",
					"outputs": [],
					"stateMutability": "nonpayable",
					"type": "function"
				},
				{
					"inputs": [
						{
							"internalType": "string",
							"name": "name",
							"type": "string"
						}
					],
					"name": "vote",
					"outputs": [],
					"stateMutability": "nonpayable",
					"type": "function"
				},
				{
					"inputs": [
						{
							"internalType": "address",
							"name": "",
							"type": "address"
						}
					],
					"name": "voters",
					"outputs": [
						{
							"internalType": "bool",
							"name": "canVote",
							"type": "bool"
						},
						{
							"internalType": "bool",
							"name": "hasVoted",
							"type": "bool"
						}
					],
					"stateMutability": "view",
					"type": "function"
				}
			],
			"devdoc": {
				"kind": "dev",
				"methods": {},
				"version": 1
			},
			"evm": {
				"assembly": "    /* \"contracts/Ballot/Ballot.sol\":70:5449  contract MyBallot {... */\n  mstore(0x40, 0x80)\n    /* \"contracts/Ballot/Ballot.sol\":491:909  constructor(Candidate[] memory _candidates, uint _maxVotes) {... */\n  callvalue\n  dup1\n  iszero\n  tag_1\n  jumpi\n  0x00\n  dup1\n  revert\ntag_1:\n  pop\n  mload(0x40)\n  sub(codesize, bytecodeSize)\n  dup1\n  bytecodeSize\n  dup4\n  codecopy\n  dup2\n  dup2\n  add\n  0x40\n  mstore\n  dup2\n  add\n  swap1\n  tag_2\n  swap2\n  swap1\n  tag_3\n  jump\t// in\ntag_2:\n    /* \"contracts/Ballot/Ballot.sol\":588:598  msg.sender */\n  caller\n    /* \"contracts/Ballot/Ballot.sol\":572:585  contractOwner */\n  0x00\n  dup1\n    /* \"contracts/Ballot/Ballot.sol\":572:598  contractOwner = msg.sender */\n  0x0100\n  exp\n  dup2\n  sload\n  dup2\n  0xffffffffffffffffffffffffffffffffffffffff\n  mul\n  not\n  and\n  swap1\n  dup4\n  0xffffffffffffffffffffffffffffffffffffffff\n  and\n  mul\n  or\n  swap1\n  sstore\n  pop\n    /* \"contracts/Ballot/Ballot.sol\":616:626  uint index */\n  0x00\n    /* \"contracts/Ballot/Ballot.sol\":611:869  for (uint index = 0; index < _candidates.length; index++) {... */\ntag_6:\n    /* \"contracts/Ballot/Ballot.sol\":640:651  _candidates */\n  dup3\n    /* \"contracts/Ballot/Ballot.sol\":640:658  _candidates.length */\n  mload\n    /* \"contracts/Ballot/Ballot.sol\":632:637  index */\n  dup2\n    /* \"contracts/Ballot/Ballot.sol\":632:658  index < _candidates.length */\n  lt\n    /* \"contracts/Ballot/Ballot.sol\":611:869  for (uint index = 0; index < _candidates.length; index++) {... */\n  iszero\n  tag_7\n  jumpi\n    /* \"contracts/Ballot/Ballot.sol\":684:694  candidates */\n  0x02\n    /* \"contracts/Ballot/Ballot.sol\":700:856  Candidate({... */\n  mload(0x40)\n  dup1\n  0x60\n  add\n  0x40\n  mstore\n  dup1\n    /* \"contracts/Ballot/Ballot.sol\":735:746  _candidates */\n  dup6\n    /* \"contracts/Ballot/Ballot.sol\":747:752  index */\n  dup5\n    /* \"contracts/Ballot/Ballot.sol\":735:753  _candidates[index] */\n  dup2\n  mload\n  dup2\n  lt\n  tag_9\n  jumpi\n  tag_10\n  tag_11\n  jump\t// in\ntag_10:\ntag_9:\n  0x20\n  mul\n  0x20\n  add\n  add\n  mload\n    /* \"contracts/Ballot/Ballot.sol\":735:758  _candidates[index].name */\n  0x00\n  add\n  mload\n    /* \"contracts/Ballot/Ballot.sol\":700:856  Candidate({... */\n  dup2\n  mstore\n  0x20\n  add\n    /* \"contracts/Ballot/Ballot.sol\":784:795  _candidates */\n  dup6\n    /* \"contracts/Ballot/Ballot.sol\":796:801  index */\n  dup5\n    /* \"contracts/Ballot/Ballot.sol\":784:802  _candidates[index] */\n  dup2\n  mload\n  dup2\n  lt\n  tag_12\n  jumpi\n  tag_13\n  tag_11\n  jump\t// in\ntag_13:\ntag_12:\n  0x20\n  mul\n  0x20\n  add\n  add\n  mload\n    /* \"contracts/Ballot/Ballot.sol\":784:808  _candidates[index].party */\n  0x20\n  add\n  mload\n    /* \"contracts/Ballot/Ballot.sol\":700:856  Candidate({... */\n  dup2\n  mstore\n  0x20\n  add\n    /* \"contracts/Ballot/Ballot.sol\":839:840  0 */\n  0x00\n    /* \"contracts/Ballot/Ballot.sol\":700:856  Candidate({... */\n  dup2\n  mstore\n  pop\n    /* \"contracts/Ballot/Ballot.sol\":684:857  candidates.push(Candidate({... */\n  swap1\n  dup1\n  0x01\n  dup2\n  sload\n  add\n  dup1\n  dup3\n  sstore\n  dup1\n  swap2\n  pop\n  pop\n  0x01\n  swap1\n  sub\n  swap1\n  0x00\n  mstore\n  keccak256(0x00, 0x20)\n  swap1\n  0x03\n  mul\n  add\n  0x00\n  swap1\n  swap2\n  swap1\n  swap2\n  swap1\n  swap2\n  pop\n  0x00\n  dup3\n  add\n  mload\n  dup2\n  0x00\n  add\n  swap1\n  dup2\n  tag_15\n  swap2\n  swap1\n  tag_16\n  jump\t// in\ntag_15:\n  pop\n  0x20\n  dup3\n  add\n  mload\n  dup2\n  0x01\n  add\n  swap1\n  dup2\n  tag_17\n  swap2\n  swap1\n  tag_16\n  jump\t// in\ntag_17:\n  pop\n  0x40\n  dup3\n  add\n  mload\n  dup2\n  0x02\n  add\n  sstore\n  pop\n  pop\n    /* \"contracts/Ballot/Ballot.sol\":660:667  index++ */\n  dup1\n  dup1\n  tag_18\n  swap1\n  tag_19\n  jump\t// in\ntag_18:\n  swap2\n  pop\n  pop\n    /* \"contracts/Ballot/Ballot.sol\":611:869  for (uint index = 0; index < _candidates.length; index++) {... */\n  jump(tag_6)\ntag_7:\n  pop\n    /* \"contracts/Ballot/Ballot.sol\":892:901  _maxVotes */\n  dup1\n    /* \"contracts/Ballot/Ballot.sol\":881:889  maxVotes */\n  0x04\n    /* \"contracts/Ballot/Ballot.sol\":881:901  maxVotes = _maxVotes */\n  dup2\n  swap1\n  sstore\n  pop\n    /* \"contracts/Ballot/Ballot.sol\":491:909  constructor(Candidate[] memory _candidates, uint _maxVotes) {... */\n  pop\n  pop\n    /* \"contracts/Ballot/Ballot.sol\":70:5449  contract MyBallot {... */\n  jump(tag_20)\n    /* \"#utility.yul\":7:82   */\ntag_21:\n    /* \"#utility.yul\":40:46   */\n  0x00\n    /* \"#utility.yul\":73:75   */\n  0x40\n    /* \"#utility.yul\":67:76   */\n  mload\n    /* \"#utility.yul\":57:76   */\n  swap1\n  pop\n    /* \"#utility.yul\":7:82   */\n  swap1\n  jump\t// out\n    /* \"#utility.yul\":88:205   */\ntag_22:\n    /* \"#utility.yul\":197:198   */\n  0x00\n    /* \"#utility.yul\":194:195   */\n  dup1\n    /* \"#utility.yul\":187:199   */\n  revert\n    /* \"#utility.yul\":211:328   */\ntag_23:\n    /* \"#utility.yul\":320:321   */\n  0x00\n    /* \"#utility.yul\":317:318   */\n  dup1\n    /* \"#utility.yul\":310:322   */\n  revert\n    /* \"#utility.yul\":334:451   */\ntag_24:\n    /* \"#utility.yul\":443:444   */\n  0x00\n    /* \"#utility.yul\":440:441   */\n  dup1\n    /* \"#utility.yul\":433:445   */\n  revert\n    /* \"#utility.yul\":457:559   */\ntag_25:\n    /* \"#utility.yul\":498:504   */\n  0x00\n    /* \"#utility.yul\":549:551   */\n  0x1f\n    /* \"#utility.yul\":545:552   */\n  not\n    /* \"#utility.yul\":540:542   */\n  0x1f\n    /* \"#utility.yul\":533:538   */\n  dup4\n    /* \"#utility.yul\":529:543   */\n  add\n    /* \"#utility.yul\":525:553   */\n  and\n    /* \"#utility.yul\":515:553   */\n  swap1\n  pop\n    /* \"#utility.yul\":457:559   */\n  swap2\n  swap1\n  pop\n  jump\t// out\n    /* \"#utility.yul\":565:745   */\ntag_26:\n    /* \"#utility.yul\":613:690   */\n  0x4e487b7100000000000000000000000000000000000000000000000000000000\n    /* \"#utility.yul\":610:611   */\n  0x00\n    /* \"#utility.yul\":603:691   */\n  mstore\n    /* \"#utility.yul\":710:714   */\n  0x41\n    /* \"#utility.yul\":707:708   */\n  0x04\n    /* \"#utility.yul\":700:715   */\n  mstore\n    /* \"#utility.yul\":734:738   */\n  0x24\n    /* \"#utility.yul\":731:732   */\n  0x00\n    /* \"#utility.yul\":724:739   */\n  revert\n    /* \"#utility.yul\":751:1032   */\ntag_27:\n    /* \"#utility.yul\":834:861   */\n  tag_71\n    /* \"#utility.yul\":856:860   */\n  dup3\n    /* \"#utility.yul\":834:861   */\n  tag_25\n  jump\t// in\ntag_71:\n    /* \"#utility.yul\":826:832   */\n  dup2\n    /* \"#utility.yul\":822:862   */\n  add\n    /* \"#utility.yul\":964:970   */\n  dup2\n    /* \"#utility.yul\":952:962   */\n  dup2\n    /* \"#utility.yul\":949:971   */\n  lt\n    /* \"#utility.yul\":928:946   */\n  0xffffffffffffffff\n    /* \"#utility.yul\":916:926   */\n  dup3\n    /* \"#utility.yul\":913:947   */\n  gt\n    /* \"#utility.yul\":910:972   */\n  or\n    /* \"#utility.yul\":907:995   */\n  iszero\n  tag_72\n  jumpi\n    /* \"#utility.yul\":975:993   */\n  tag_73\n  tag_26\n  jump\t// in\ntag_73:\n    /* \"#utility.yul\":907:995   */\ntag_72:\n    /* \"#utility.yul\":1015:1025   */\n  dup1\n    /* \"#utility.yul\":1011:1013   */\n  0x40\n    /* \"#utility.yul\":1004:1026   */\n  mstore\n    /* \"#utility.yul\":794:1032   */\n  pop\n    /* \"#utility.yul\":751:1032   */\n  pop\n  pop\n  jump\t// out\n    /* \"#utility.yul\":1038:1167   */\ntag_28:\n    /* \"#utility.yul\":1072:1078   */\n  0x00\n    /* \"#utility.yul\":1099:1119   */\n  tag_75\n  tag_21\n  jump\t// in\ntag_75:\n    /* \"#utility.yul\":1089:1119   */\n  swap1\n  pop\n    /* \"#utility.yul\":1128:1161   */\n  tag_76\n    /* \"#utility.yul\":1156:1160   */\n  dup3\n    /* \"#utility.yul\":1148:1154   */\n  dup3\n    /* \"#utility.yul\":1128:1161   */\n  tag_27\n  jump\t// in\ntag_76:\n    /* \"#utility.yul\":1038:1167   */\n  swap2\n  swap1\n  pop\n  jump\t// out\n    /* \"#utility.yul\":1173:1509   */\ntag_29:\n    /* \"#utility.yul\":1275:1279   */\n  0x00\n    /* \"#utility.yul\":1365:1383   */\n  0xffffffffffffffff\n    /* \"#utility.yul\":1357:1363   */\n  dup3\n    /* \"#utility.yul\":1354:1384   */\n  gt\n    /* \"#utility.yul\":1351:1407   */\n  iszero\n  tag_78\n  jumpi\n    /* \"#utility.yul\":1387:1405   */\n  tag_79\n  tag_26\n  jump\t// in\ntag_79:\n    /* \"#utility.yul\":1351:1407   */\ntag_78:\n    /* \"#utility.yul\":1437:1441   */\n  0x20\n    /* \"#utility.yul\":1429:1435   */\n  dup3\n    /* \"#utility.yul\":1425:1442   */\n  mul\n    /* \"#utility.yul\":1417:1442   */\n  swap1\n  pop\n    /* \"#utility.yul\":1497:1501   */\n  0x20\n    /* \"#utility.yul\":1491:1495   */\n  dup2\n    /* \"#utility.yul\":1487:1502   */\n  add\n    /* \"#utility.yul\":1479:1502   */\n  swap1\n  pop\n    /* \"#utility.yul\":1173:1509   */\n  swap2\n  swap1\n  pop\n  jump\t// out\n    /* \"#utility.yul\":1515:1632   */\ntag_30:\n    /* \"#utility.yul\":1624:1625   */\n  0x00\n    /* \"#utility.yul\":1621:1622   */\n  dup1\n    /* \"#utility.yul\":1614:1626   */\n  revert\n    /* \"#utility.yul\":1638:1755   */\ntag_31:\n    /* \"#utility.yul\":1747:1748   */\n  0x00\n    /* \"#utility.yul\":1744:1745   */\n  dup1\n    /* \"#utility.yul\":1737:1749   */\n  revert\n    /* \"#utility.yul\":1761:1878   */\ntag_32:\n    /* \"#utility.yul\":1870:1871   */\n  0x00\n    /* \"#utility.yul\":1867:1868   */\n  dup1\n    /* \"#utility.yul\":1860:1872   */\n  revert\n    /* \"#utility.yul\":1884:2001   */\ntag_33:\n    /* \"#utility.yul\":1993:1994   */\n  0x00\n    /* \"#utility.yul\":1990:1991   */\n  dup1\n    /* \"#utility.yul\":1983:1995   */\n  revert\n    /* \"#utility.yul\":2007:2315   */\ntag_34:\n    /* \"#utility.yul\":2069:2073   */\n  0x00\n    /* \"#utility.yul\":2159:2177   */\n  0xffffffffffffffff\n    /* \"#utility.yul\":2151:2157   */\n  dup3\n    /* \"#utility.yul\":2148:2178   */\n  gt\n    /* \"#utility.yul\":2145:2201   */\n  iszero\n  tag_85\n  jumpi\n    /* \"#utility.yul\":2181:2199   */\n  tag_86\n  tag_26\n  jump\t// in\ntag_86:\n    /* \"#utility.yul\":2145:2201   */\ntag_85:\n    /* \"#utility.yul\":2219:2248   */\n  tag_87\n    /* \"#utility.yul\":2241:2247   */\n  dup3\n    /* \"#utility.yul\":2219:2248   */\n  tag_25\n  jump\t// in\ntag_87:\n    /* \"#utility.yul\":2211:2248   */\n  swap1\n  pop\n    /* \"#utility.yul\":2303:2307   */\n  0x20\n    /* \"#utility.yul\":2297:2301   */\n  dup2\n    /* \"#utility.yul\":2293:2308   */\n  add\n    /* \"#utility.yul\":2285:2308   */\n  swap1\n  pop\n    /* \"#utility.yul\":2007:2315   */\n  swap2\n  swap1\n  pop\n  jump\t// out\n    /* \"#utility.yul\":2321:2567   */\ntag_35:\n    /* \"#utility.yul\":2402:2403   */\n  0x00\n    /* \"#utility.yul\":2412:2525   */\ntag_89:\n    /* \"#utility.yul\":2426:2432   */\n  dup4\n    /* \"#utility.yul\":2423:2424   */\n  dup2\n    /* \"#utility.yul\":2420:2433   */\n  lt\n    /* \"#utility.yul\":2412:2525   */\n  iszero\n  tag_91\n  jumpi\n    /* \"#utility.yul\":2511:2512   */\n  dup1\n    /* \"#utility.yul\":2506:2509   */\n  dup3\n    /* \"#utility.yul\":2502:2513   */\n  add\n    /* \"#utility.yul\":2496:2514   */\n  mload\n    /* \"#utility.yul\":2492:2493   */\n  dup2\n    /* \"#utility.yul\":2487:2490   */\n  dup5\n    /* \"#utility.yul\":2483:2494   */\n  add\n    /* \"#utility.yul\":2476:2515   */\n  mstore\n    /* \"#utility.yul\":2448:2450   */\n  0x20\n    /* \"#utility.yul\":2445:2446   */\n  dup2\n    /* \"#utility.yul\":2441:2451   */\n  add\n    /* \"#utility.yul\":2436:2451   */\n  swap1\n  pop\n    /* \"#utility.yul\":2412:2525   */\n  jump(tag_89)\ntag_91:\n    /* \"#utility.yul\":2559:2560   */\n  0x00\n    /* \"#utility.yul\":2550:2556   */\n  dup5\n    /* \"#utility.yul\":2545:2548   */\n  dup5\n    /* \"#utility.yul\":2541:2557   */\n  add\n    /* \"#utility.yul\":2534:2561   */\n  mstore\n    /* \"#utility.yul\":2383:2567   */\n  pop\n    /* \"#utility.yul\":2321:2567   */\n  pop\n  pop\n  pop\n  jump\t// out\n    /* \"#utility.yul\":2573:3007   */\ntag_36:\n    /* \"#utility.yul\":2662:2667   */\n  0x00\n    /* \"#utility.yul\":2687:2753   */\n  tag_93\n    /* \"#utility.yul\":2703:2752   */\n  tag_94\n    /* \"#utility.yul\":2745:2751   */\n  dup5\n    /* \"#utility.yul\":2703:2752   */\n  tag_34\n  jump\t// in\ntag_94:\n    /* \"#utility.yul\":2687:2753   */\n  tag_28\n  jump\t// in\ntag_93:\n    /* \"#utility.yul\":2678:2753   */\n  swap1\n  pop\n    /* \"#utility.yul\":2776:2782   */\n  dup3\n    /* \"#utility.yul\":2769:2774   */\n  dup2\n    /* \"#utility.yul\":2762:2783   */\n  mstore\n    /* \"#utility.yul\":2814:2818   */\n  0x20\n    /* \"#utility.yul\":2807:2812   */\n  dup2\n    /* \"#utility.yul\":2803:2819   */\n  add\n    /* \"#utility.yul\":2852:2855   */\n  dup5\n    /* \"#utility.yul\":2843:2849   */\n  dup5\n    /* \"#utility.yul\":2838:2841   */\n  dup5\n    /* \"#utility.yul\":2834:2850   */\n  add\n    /* \"#utility.yul\":2831:2856   */\n  gt\n    /* \"#utility.yul\":2828:2940   */\n  iszero\n  tag_95\n  jumpi\n    /* \"#utility.yul\":2859:2938   */\n  tag_96\n  tag_33\n  jump\t// in\ntag_96:\n    /* \"#utility.yul\":2828:2940   */\ntag_95:\n    /* \"#utility.yul\":2949:3001   */\n  tag_97\n    /* \"#utility.yul\":2994:3000   */\n  dup5\n    /* \"#utility.yul\":2989:2992   */\n  dup3\n    /* \"#utility.yul\":2984:2987   */\n  dup6\n    /* \"#utility.yul\":2949:3001   */\n  tag_35\n  jump\t// in\ntag_97:\n    /* \"#utility.yul\":2668:3007   */\n  pop\n    /* \"#utility.yul\":2573:3007   */\n  swap4\n  swap3\n  pop\n  pop\n  pop\n  jump\t// out\n    /* \"#utility.yul\":3027:3382   */\ntag_37:\n    /* \"#utility.yul\":3094:3099   */\n  0x00\n    /* \"#utility.yul\":3143:3146   */\n  dup3\n    /* \"#utility.yul\":3136:3140   */\n  0x1f\n    /* \"#utility.yul\":3128:3134   */\n  dup4\n    /* \"#utility.yul\":3124:3141   */\n  add\n    /* \"#utility.yul\":3120:3147   */\n  slt\n    /* \"#utility.yul\":3110:3232   */\n  tag_99\n  jumpi\n    /* \"#utility.yul\":3151:3230   */\n  tag_100\n  tag_24\n  jump\t// in\ntag_100:\n    /* \"#utility.yul\":3110:3232   */\ntag_99:\n    /* \"#utility.yul\":3261:3267   */\n  dup2\n    /* \"#utility.yul\":3255:3268   */\n  mload\n    /* \"#utility.yul\":3286:3376   */\n  tag_101\n    /* \"#utility.yul\":3372:3375   */\n  dup5\n    /* \"#utility.yul\":3364:3370   */\n  dup3\n    /* \"#utility.yul\":3357:3361   */\n  0x20\n    /* \"#utility.yul\":3349:3355   */\n  dup7\n    /* \"#utility.yul\":3345:3362   */\n  add\n    /* \"#utility.yul\":3286:3376   */\n  tag_36\n  jump\t// in\ntag_101:\n    /* \"#utility.yul\":3277:3376   */\n  swap2\n  pop\n    /* \"#utility.yul\":3100:3382   */\n  pop\n    /* \"#utility.yul\":3027:3382   */\n  swap3\n  swap2\n  pop\n  pop\n  jump\t// out\n    /* \"#utility.yul\":3388:3465   */\ntag_38:\n    /* \"#utility.yul\":3425:3432   */\n  0x00\n    /* \"#utility.yul\":3454:3459   */\n  dup2\n    /* \"#utility.yul\":3443:3459   */\n  swap1\n  pop\n    /* \"#utility.yul\":3388:3465   */\n  swap2\n  swap1\n  pop\n  jump\t// out\n    /* \"#utility.yul\":3471:3593   */\ntag_39:\n    /* \"#utility.yul\":3544:3568   */\n  tag_104\n    /* \"#utility.yul\":3562:3567   */\n  dup2\n    /* \"#utility.yul\":3544:3568   */\n  tag_38\n  jump\t// in\ntag_104:\n    /* \"#utility.yul\":3537:3542   */\n  dup2\n    /* \"#utility.yul\":3534:3569   */\n  eq\n    /* \"#utility.yul\":3524:3587   */\n  tag_105\n  jumpi\n    /* \"#utility.yul\":3583:3584   */\n  0x00\n    /* \"#utility.yul\":3580:3581   */\n  dup1\n    /* \"#utility.yul\":3573:3585   */\n  revert\n    /* \"#utility.yul\":3524:3587   */\ntag_105:\n    /* \"#utility.yul\":3471:3593   */\n  pop\n  jump\t// out\n    /* \"#utility.yul\":3599:3742   */\ntag_40:\n    /* \"#utility.yul\":3656:3661   */\n  0x00\n    /* \"#utility.yul\":3687:3693   */\n  dup2\n    /* \"#utility.yul\":3681:3694   */\n  mload\n    /* \"#utility.yul\":3672:3694   */\n  swap1\n  pop\n    /* \"#utility.yul\":3703:3736   */\n  tag_107\n    /* \"#utility.yul\":3730:3735   */\n  dup2\n    /* \"#utility.yul\":3703:3736   */\n  tag_39\n  jump\t// in\ntag_107:\n    /* \"#utility.yul\":3599:3742   */\n  swap3\n  swap2\n  pop\n  pop\n  jump\t// out\n    /* \"#utility.yul\":3781:4893   */\ntag_41:\n    /* \"#utility.yul\":3866:3871   */\n  0x00\n    /* \"#utility.yul\":3910:3914   */\n  0x60\n    /* \"#utility.yul\":3898:3907   */\n  dup3\n    /* \"#utility.yul\":3893:3896   */\n  dup5\n    /* \"#utility.yul\":3889:3908   */\n  sub\n    /* \"#utility.yul\":3885:3915   */\n  slt\n    /* \"#utility.yul\":3882:3999   */\n  iszero\n  tag_109\n  jumpi\n    /* \"#utility.yul\":3918:3997   */\n  tag_110\n  tag_31\n  jump\t// in\ntag_110:\n    /* \"#utility.yul\":3882:3999   */\ntag_109:\n    /* \"#utility.yul\":4017:4038   */\n  tag_111\n    /* \"#utility.yul\":4033:4037   */\n  0x60\n    /* \"#utility.yul\":4017:4038   */\n  tag_28\n  jump\t// in\ntag_111:\n    /* \"#utility.yul\":4008:4038   */\n  swap1\n  pop\n    /* \"#utility.yul\":4118:4119   */\n  0x00\n    /* \"#utility.yul\":4107:4116   */\n  dup3\n    /* \"#utility.yul\":4103:4120   */\n  add\n    /* \"#utility.yul\":4097:4121   */\n  mload\n    /* \"#utility.yul\":4148:4166   */\n  0xffffffffffffffff\n    /* \"#utility.yul\":4140:4146   */\n  dup2\n    /* \"#utility.yul\":4137:4167   */\n  gt\n    /* \"#utility.yul\":4134:4251   */\n  iszero\n  tag_112\n  jumpi\n    /* \"#utility.yul\":4170:4249   */\n  tag_113\n  tag_32\n  jump\t// in\ntag_113:\n    /* \"#utility.yul\":4134:4251   */\ntag_112:\n    /* \"#utility.yul\":4290:4360   */\n  tag_114\n    /* \"#utility.yul\":4356:4359   */\n  dup5\n    /* \"#utility.yul\":4347:4353   */\n  dup3\n    /* \"#utility.yul\":4336:4345   */\n  dup6\n    /* \"#utility.yul\":4332:4354   */\n  add\n    /* \"#utility.yul\":4290:4360   */\n  tag_37\n  jump\t// in\ntag_114:\n    /* \"#utility.yul\":4283:4287   */\n  0x00\n    /* \"#utility.yul\":4276:4281   */\n  dup4\n    /* \"#utility.yul\":4272:4288   */\n  add\n    /* \"#utility.yul\":4265:4361   */\n  mstore\n    /* \"#utility.yul\":4048:4372   */\n  pop\n    /* \"#utility.yul\":4453:4455   */\n  0x20\n    /* \"#utility.yul\":4442:4451   */\n  dup3\n    /* \"#utility.yul\":4438:4456   */\n  add\n    /* \"#utility.yul\":4432:4457   */\n  mload\n    /* \"#utility.yul\":4484:4502   */\n  0xffffffffffffffff\n    /* \"#utility.yul\":4476:4482   */\n  dup2\n    /* \"#utility.yul\":4473:4503   */\n  gt\n    /* \"#utility.yul\":4470:4587   */\n  iszero\n  tag_115\n  jumpi\n    /* \"#utility.yul\":4506:4585   */\n  tag_116\n  tag_32\n  jump\t// in\ntag_116:\n    /* \"#utility.yul\":4470:4587   */\ntag_115:\n    /* \"#utility.yul\":4626:4696   */\n  tag_117\n    /* \"#utility.yul\":4692:4695   */\n  dup5\n    /* \"#utility.yul\":4683:4689   */\n  dup3\n    /* \"#utility.yul\":4672:4681   */\n  dup6\n    /* \"#utility.yul\":4668:4690   */\n  add\n    /* \"#utility.yul\":4626:4696   */\n  tag_37\n  jump\t// in\ntag_117:\n    /* \"#utility.yul\":4619:4623   */\n  0x20\n    /* \"#utility.yul\":4612:4617   */\n  dup4\n    /* \"#utility.yul\":4608:4624   */\n  add\n    /* \"#utility.yul\":4601:4697   */\n  mstore\n    /* \"#utility.yul\":4382:4708   */\n  pop\n    /* \"#utility.yul\":4773:4775   */\n  0x40\n    /* \"#utility.yul\":4814:4874   */\n  tag_118\n    /* \"#utility.yul\":4870:4873   */\n  dup5\n    /* \"#utility.yul\":4861:4867   */\n  dup3\n    /* \"#utility.yul\":4850:4859   */\n  dup6\n    /* \"#utility.yul\":4846:4868   */\n  add\n    /* \"#utility.yul\":4814:4874   */\n  tag_40\n  jump\t// in\ntag_118:\n    /* \"#utility.yul\":4807:4811   */\n  0x40\n    /* \"#utility.yul\":4800:4805   */\n  dup4\n    /* \"#utility.yul\":4796:4812   */\n  add\n    /* \"#utility.yul\":4789:4875   */\n  mstore\n    /* \"#utility.yul\":4718:4886   */\n  pop\n    /* \"#utility.yul\":3781:4893   */\n  swap3\n  swap2\n  pop\n  pop\n  jump\t// out\n    /* \"#utility.yul\":4934:5939   */\ntag_42:\n    /* \"#utility.yul\":5066:5071   */\n  0x00\n    /* \"#utility.yul\":5091:5197   */\n  tag_120\n    /* \"#utility.yul\":5107:5196   */\n  tag_121\n    /* \"#utility.yul\":5189:5195   */\n  dup5\n    /* \"#utility.yul\":5107:5196   */\n  tag_29\n  jump\t// in\ntag_121:\n    /* \"#utility.yul\":5091:5197   */\n  tag_28\n  jump\t// in\ntag_120:\n    /* \"#utility.yul\":5082:5197   */\n  swap1\n  pop\n    /* \"#utility.yul\":5217:5222   */\n  dup1\n    /* \"#utility.yul\":5246:5252   */\n  dup4\n    /* \"#utility.yul\":5239:5244   */\n  dup3\n    /* \"#utility.yul\":5232:5253   */\n  mstore\n    /* \"#utility.yul\":5280:5284   */\n  0x20\n    /* \"#utility.yul\":5273:5278   */\n  dup3\n    /* \"#utility.yul\":5269:5285   */\n  add\n    /* \"#utility.yul\":5262:5285   */\n  swap1\n  pop\n    /* \"#utility.yul\":5333:5337   */\n  0x20\n    /* \"#utility.yul\":5325:5331   */\n  dup5\n    /* \"#utility.yul\":5321:5338   */\n  mul\n    /* \"#utility.yul\":5313:5319   */\n  dup4\n    /* \"#utility.yul\":5309:5339   */\n  add\n    /* \"#utility.yul\":5362:5365   */\n  dup6\n    /* \"#utility.yul\":5354:5360   */\n  dup2\n    /* \"#utility.yul\":5351:5366   */\n  gt\n    /* \"#utility.yul\":5348:5470   */\n  iszero\n  tag_122\n  jumpi\n    /* \"#utility.yul\":5381:5460   */\n  tag_123\n  tag_30\n  jump\t// in\ntag_123:\n    /* \"#utility.yul\":5348:5470   */\ntag_122:\n    /* \"#utility.yul\":5496:5502   */\n  dup4\n    /* \"#utility.yul\":5479:5933   */\ntag_124:\n    /* \"#utility.yul\":5513:5519   */\n  dup2\n    /* \"#utility.yul\":5508:5511   */\n  dup2\n    /* \"#utility.yul\":5505:5520   */\n  lt\n    /* \"#utility.yul\":5479:5933   */\n  iszero\n  tag_126\n  jumpi\n    /* \"#utility.yul\":5595:5598   */\n  dup1\n    /* \"#utility.yul\":5589:5599   */\n  mload\n    /* \"#utility.yul\":5631:5649   */\n  0xffffffffffffffff\n    /* \"#utility.yul\":5618:5629   */\n  dup2\n    /* \"#utility.yul\":5615:5650   */\n  gt\n    /* \"#utility.yul\":5612:5734   */\n  iszero\n  tag_127\n  jumpi\n    /* \"#utility.yul\":5653:5732   */\n  tag_128\n  tag_24\n  jump\t// in\ntag_128:\n    /* \"#utility.yul\":5612:5734   */\ntag_127:\n    /* \"#utility.yul\":5777:5788   */\n  dup1\n    /* \"#utility.yul\":5769:5775   */\n  dup7\n    /* \"#utility.yul\":5765:5789   */\n  add\n    /* \"#utility.yul\":5815:5888   */\n  tag_129\n    /* \"#utility.yul\":5884:5887   */\n  dup10\n    /* \"#utility.yul\":5872:5882   */\n  dup3\n    /* \"#utility.yul\":5815:5888   */\n  tag_41\n  jump\t// in\ntag_129:\n    /* \"#utility.yul\":5810:5813   */\n  dup6\n    /* \"#utility.yul\":5803:5889   */\n  mstore\n    /* \"#utility.yul\":5918:5922   */\n  0x20\n    /* \"#utility.yul\":5913:5916   */\n  dup6\n    /* \"#utility.yul\":5909:5923   */\n  add\n    /* \"#utility.yul\":5902:5923   */\n  swap5\n  pop\n    /* \"#utility.yul\":5555:5933   */\n  pop\n  pop\n    /* \"#utility.yul\":5539:5543   */\n  0x20\n    /* \"#utility.yul\":5534:5537   */\n  dup2\n    /* \"#utility.yul\":5530:5544   */\n  add\n    /* \"#utility.yul\":5523:5544   */\n  swap1\n  pop\n    /* \"#utility.yul\":5479:5933   */\n  jump(tag_124)\ntag_126:\n    /* \"#utility.yul\":5483:5504   */\n  pop\n    /* \"#utility.yul\":5072:5939   */\n  pop\n  pop\n    /* \"#utility.yul\":4934:5939   */\n  swap4\n  swap3\n  pop\n  pop\n  pop\n  jump\t// out\n    /* \"#utility.yul\":5980:6415   */\ntag_43:\n    /* \"#utility.yul\":6087:6092   */\n  0x00\n    /* \"#utility.yul\":6136:6139   */\n  dup3\n    /* \"#utility.yul\":6129:6133   */\n  0x1f\n    /* \"#utility.yul\":6121:6127   */\n  dup4\n    /* \"#utility.yul\":6117:6134   */\n  add\n    /* \"#utility.yul\":6113:6140   */\n  slt\n    /* \"#utility.yul\":6103:6225   */\n  tag_131\n  jumpi\n    /* \"#utility.yul\":6144:6223   */\n  tag_132\n  tag_24\n  jump\t// in\ntag_132:\n    /* \"#utility.yul\":6103:6225   */\ntag_131:\n    /* \"#utility.yul\":6254:6260   */\n  dup2\n    /* \"#utility.yul\":6248:6261   */\n  mload\n    /* \"#utility.yul\":6279:6409   */\n  tag_133\n    /* \"#utility.yul\":6405:6408   */\n  dup5\n    /* \"#utility.yul\":6397:6403   */\n  dup3\n    /* \"#utility.yul\":6390:6394   */\n  0x20\n    /* \"#utility.yul\":6382:6388   */\n  dup7\n    /* \"#utility.yul\":6378:6395   */\n  add\n    /* \"#utility.yul\":6279:6409   */\n  tag_42\n  jump\t// in\ntag_133:\n    /* \"#utility.yul\":6270:6409   */\n  swap2\n  pop\n    /* \"#utility.yul\":6093:6415   */\n  pop\n    /* \"#utility.yul\":5980:6415   */\n  swap3\n  swap2\n  pop\n  pop\n  jump\t// out\n    /* \"#utility.yul\":6421:7181   */\ntag_3:\n    /* \"#utility.yul\":6550:6556   */\n  0x00\n    /* \"#utility.yul\":6558:6564   */\n  dup1\n    /* \"#utility.yul\":6607:6609   */\n  0x40\n    /* \"#utility.yul\":6595:6604   */\n  dup4\n    /* \"#utility.yul\":6586:6593   */\n  dup6\n    /* \"#utility.yul\":6582:6605   */\n  sub\n    /* \"#utility.yul\":6578:6610   */\n  slt\n    /* \"#utility.yul\":6575:6694   */\n  iszero\n  tag_135\n  jumpi\n    /* \"#utility.yul\":6613:6692   */\n  tag_136\n  tag_22\n  jump\t// in\ntag_136:\n    /* \"#utility.yul\":6575:6694   */\ntag_135:\n    /* \"#utility.yul\":6754:6755   */\n  0x00\n    /* \"#utility.yul\":6743:6752   */\n  dup4\n    /* \"#utility.yul\":6739:6756   */\n  add\n    /* \"#utility.yul\":6733:6757   */\n  mload\n    /* \"#utility.yul\":6784:6802   */\n  0xffffffffffffffff\n    /* \"#utility.yul\":6776:6782   */\n  dup2\n    /* \"#utility.yul\":6773:6803   */\n  gt\n    /* \"#utility.yul\":6770:6887   */\n  iszero\n  tag_137\n  jumpi\n    /* \"#utility.yul\":6806:6885   */\n  tag_138\n  tag_23\n  jump\t// in\ntag_138:\n    /* \"#utility.yul\":6770:6887   */\ntag_137:\n    /* \"#utility.yul\":6911:7025   */\n  tag_139\n    /* \"#utility.yul\":7017:7024   */\n  dup6\n    /* \"#utility.yul\":7008:7014   */\n  dup3\n    /* \"#utility.yul\":6997:7006   */\n  dup7\n    /* \"#utility.yul\":6993:7015   */\n  add\n    /* \"#utility.yul\":6911:7025   */\n  tag_43\n  jump\t// in\ntag_139:\n    /* \"#utility.yul\":6901:7025   */\n  swap3\n  pop\n    /* \"#utility.yul\":6704:7035   */\n  pop\n    /* \"#utility.yul\":7074:7076   */\n  0x20\n    /* \"#utility.yul\":7100:7164   */\n  tag_140\n    /* \"#utility.yul\":7156:7163   */\n  dup6\n    /* \"#utility.yul\":7147:7153   */\n  dup3\n    /* \"#utility.yul\":7136:7145   */\n  dup7\n    /* \"#utility.yul\":7132:7154   */\n  add\n    /* \"#utility.yul\":7100:7164   */\n  tag_40\n  jump\t// in\ntag_140:\n    /* \"#utility.yul\":7090:7164   */\n  swap2\n  pop\n    /* \"#utility.yul\":7045:7174   */\n  pop\n    /* \"#utility.yul\":6421:7181   */\n  swap3\n  pop\n  swap3\n  swap1\n  pop\n  jump\t// out\n    /* \"#utility.yul\":7187:7367   */\ntag_11:\n    /* \"#utility.yul\":7235:7312   */\n  0x4e487b7100000000000000000000000000000000000000000000000000000000\n    /* \"#utility.yul\":7232:7233   */\n  0x00\n    /* \"#utility.yul\":7225:7313   */\n  mstore\n    /* \"#utility.yul\":7332:7336   */\n  0x32\n    /* \"#utility.yul\":7329:7330   */\n  0x04\n    /* \"#utility.yul\":7322:7337   */\n  mstore\n    /* \"#utility.yul\":7356:7360   */\n  0x24\n    /* \"#utility.yul\":7353:7354   */\n  0x00\n    /* \"#utility.yul\":7346:7361   */\n  revert\n    /* \"#utility.yul\":7373:7472   */\ntag_44:\n    /* \"#utility.yul\":7425:7431   */\n  0x00\n    /* \"#utility.yul\":7459:7464   */\n  dup2\n    /* \"#utility.yul\":7453:7465   */\n  mload\n    /* \"#utility.yul\":7443:7465   */\n  swap1\n  pop\n    /* \"#utility.yul\":7373:7472   */\n  swap2\n  swap1\n  pop\n  jump\t// out\n    /* \"#utility.yul\":7478:7658   */\ntag_45:\n    /* \"#utility.yul\":7526:7603   */\n  0x4e487b7100000000000000000000000000000000000000000000000000000000\n    /* \"#utility.yul\":7523:7524   */\n  0x00\n    /* \"#utility.yul\":7516:7604   */\n  mstore\n    /* \"#utility.yul\":7623:7627   */\n  0x22\n    /* \"#utility.yul\":7620:7621   */\n  0x04\n    /* \"#utility.yul\":7613:7628   */\n  mstore\n    /* \"#utility.yul\":7647:7651   */\n  0x24\n    /* \"#utility.yul\":7644:7645   */\n  0x00\n    /* \"#utility.yul\":7637:7652   */\n  revert\n    /* \"#utility.yul\":7664:7984   */\ntag_46:\n    /* \"#utility.yul\":7708:7714   */\n  0x00\n    /* \"#utility.yul\":7745:7746   */\n  0x02\n    /* \"#utility.yul\":7739:7743   */\n  dup3\n    /* \"#utility.yul\":7735:7747   */\n  div\n    /* \"#utility.yul\":7725:7747   */\n  swap1\n  pop\n    /* \"#utility.yul\":7792:7793   */\n  0x01\n    /* \"#utility.yul\":7786:7790   */\n  dup3\n    /* \"#utility.yul\":7782:7794   */\n  and\n    /* \"#utility.yul\":7813:7831   */\n  dup1\n    /* \"#utility.yul\":7803:7884   */\n  tag_145\n  jumpi\n    /* \"#utility.yul\":7869:7873   */\n  0x7f\n    /* \"#utility.yul\":7861:7867   */\n  dup3\n    /* \"#utility.yul\":7857:7874   */\n  and\n    /* \"#utility.yul\":7847:7874   */\n  swap2\n  pop\n    /* \"#utility.yul\":7803:7884   */\ntag_145:\n    /* \"#utility.yul\":7931:7933   */\n  0x20\n    /* \"#utility.yul\":7923:7929   */\n  dup3\n    /* \"#utility.yul\":7920:7934   */\n  lt\n    /* \"#utility.yul\":7900:7918   */\n  dup2\n    /* \"#utility.yul\":7897:7935   */\n  sub\n    /* \"#utility.yul\":7894:7978   */\n  tag_146\n  jumpi\n    /* \"#utility.yul\":7950:7968   */\n  tag_147\n  tag_45\n  jump\t// in\ntag_147:\n    /* \"#utility.yul\":7894:7978   */\ntag_146:\n    /* \"#utility.yul\":7715:7984   */\n  pop\n    /* \"#utility.yul\":7664:7984   */\n  swap2\n  swap1\n  pop\n  jump\t// out\n    /* \"#utility.yul\":7990:8131   */\ntag_47:\n    /* \"#utility.yul\":8039:8043   */\n  0x00\n    /* \"#utility.yul\":8062:8065   */\n  dup2\n    /* \"#utility.yul\":8054:8065   */\n  swap1\n  pop\n    /* \"#utility.yul\":8085:8088   */\n  dup2\n    /* \"#utility.yul\":8082:8083   */\n  0x00\n    /* \"#utility.yul\":8075:8089   */\n  mstore\n    /* \"#utility.yul\":8119:8123   */\n  0x20\n    /* \"#utility.yul\":8116:8117   */\n  0x00\n    /* \"#utility.yul\":8106:8124   */\n  keccak256\n    /* \"#utility.yul\":8098:8124   */\n  swap1\n  pop\n    /* \"#utility.yul\":7990:8131   */\n  swap2\n  swap1\n  pop\n  jump\t// out\n    /* \"#utility.yul\":8137:8230   */\ntag_48:\n    /* \"#utility.yul\":8174:8180   */\n  0x00\n    /* \"#utility.yul\":8221:8223   */\n  0x20\n    /* \"#utility.yul\":8216:8218   */\n  0x1f\n    /* \"#utility.yul\":8209:8214   */\n  dup4\n    /* \"#utility.yul\":8205:8219   */\n  add\n    /* \"#utility.yul\":8201:8224   */\n  div\n    /* \"#utility.yul\":8191:8224   */\n  swap1\n  pop\n    /* \"#utility.yul\":8137:8230   */\n  swap2\n  swap1\n  pop\n  jump\t// out\n    /* \"#utility.yul\":8236:8343   */\ntag_49:\n    /* \"#utility.yul\":8280:8288   */\n  0x00\n    /* \"#utility.yul\":8330:8335   */\n  dup3\n    /* \"#utility.yul\":8324:8328   */\n  dup3\n    /* \"#utility.yul\":8320:8336   */\n  shl\n    /* \"#utility.yul\":8299:8336   */\n  swap1\n  pop\n    /* \"#utility.yul\":8236:8343   */\n  swap3\n  swap2\n  pop\n  pop\n  jump\t// out\n    /* \"#utility.yul\":8349:8742   */\ntag_50:\n    /* \"#utility.yul\":8418:8424   */\n  0x00\n    /* \"#utility.yul\":8468:8469   */\n  0x08\n    /* \"#utility.yul\":8456:8466   */\n  dup4\n    /* \"#utility.yul\":8452:8470   */\n  mul\n    /* \"#utility.yul\":8491:8588   */\n  tag_152\n    /* \"#utility.yul\":8521:8587   */\n  0xffffffffffffffffffffffffffffffffffffffffffffffffffffffffffffffff\n    /* \"#utility.yul\":8510:8519   */\n  dup3\n    /* \"#utility.yul\":8491:8588   */\n  tag_49\n  jump\t// in\ntag_152:\n    /* \"#utility.yul\":8609:8648   */\n  tag_153\n    /* \"#utility.yul\":8639:8647   */\n  dup7\n    /* \"#utility.yul\":8628:8637   */\n  dup4\n    /* \"#utility.yul\":8609:8648   */\n  tag_49\n  jump\t// in\ntag_153:\n    /* \"#utility.yul\":8597:8648   */\n  swap6\n  pop\n    /* \"#utility.yul\":8681:8685   */\n  dup1\n    /* \"#utility.yul\":8677:8686   */\n  not\n    /* \"#utility.yul\":8670:8675   */\n  dup5\n    /* \"#utility.yul\":8666:8687   */\n  and\n    /* \"#utility.yul\":8657:8687   */\n  swap4\n  pop\n    /* \"#utility.yul\":8730:8734   */\n  dup1\n    /* \"#utility.yul\":8720:8728   */\n  dup7\n    /* \"#utility.yul\":8716:8735   */\n  and\n    /* \"#utility.yul\":8709:8714   */\n  dup5\n    /* \"#utility.yul\":8706:8736   */\n  or\n    /* \"#utility.yul\":8696:8736   */\n  swap3\n  pop\n    /* \"#utility.yul\":8425:8742   */\n  pop\n  pop\n    /* \"#utility.yul\":8349:8742   */\n  swap4\n  swap3\n  pop\n  pop\n  pop\n  jump\t// out\n    /* \"#utility.yul\":8748:8808   */\ntag_51:\n    /* \"#utility.yul\":8776:8779   */\n  0x00\n    /* \"#utility.yul\":8797:8802   */\n  dup2\n    /* \"#utility.yul\":8790:8802   */\n  swap1\n  pop\n    /* \"#utility.yul\":8748:8808   */\n  swap2\n  swap1\n  pop\n  jump\t// out\n    /* \"#utility.yul\":8814:8956   */\ntag_52:\n    /* \"#utility.yul\":8864:8873   */\n  0x00\n    /* \"#utility.yul\":8897:8950   */\n  tag_156\n    /* \"#utility.yul\":8915:8949   */\n  tag_157\n    /* \"#utility.yul\":8924:8948   */\n  tag_158\n    /* \"#utility.yul\":8942:8947   */\n  dup5\n    /* \"#utility.yul\":8924:8948   */\n  tag_38\n  jump\t// in\ntag_158:\n    /* \"#utility.yul\":8915:8949   */\n  tag_51\n  jump\t// in\ntag_157:\n    /* \"#utility.yul\":8897:8950   */\n  tag_38\n  jump\t// in\ntag_156:\n    /* \"#utility.yul\":8884:8950   */\n  swap1\n  pop\n    /* \"#utility.yul\":8814:8956   */\n  swap2\n  swap1\n  pop\n  jump\t// out\n    /* \"#utility.yul\":8962:9037   */\ntag_53:\n    /* \"#utility.yul\":9005:9008   */\n  0x00\n    /* \"#utility.yul\":9026:9031   */\n  dup2\n    /* \"#utility.yul\":9019:9031   */\n  swap1\n  pop\n    /* \"#utility.yul\":8962:9037   */\n  swap2\n  swap1\n  pop\n  jump\t// out\n    /* \"#utility.yul\":9043:9312   */\ntag_54:\n    /* \"#utility.yul\":9153:9192   */\n  tag_161\n    /* \"#utility.yul\":9184:9191   */\n  dup4\n    /* \"#utility.yul\":9153:9192   */\n  tag_52\n  jump\t// in\ntag_161:\n    /* \"#utility.yul\":9214:9305   */\n  tag_162\n    /* \"#utility.yul\":9263:9304   */\n  tag_163\n    /* \"#utility.yul\":9287:9303   */\n  dup3\n    /* \"#utility.yul\":9263:9304   */\n  tag_53\n  jump\t// in\ntag_163:\n    /* \"#utility.yul\":9255:9261   */\n  dup5\n    /* \"#utility.yul\":9248:9252   */\n  dup5\n    /* \"#utility.yul\":9242:9253   */\n  sload\n    /* \"#utility.yul\":9214:9305   */\n  tag_50\n  jump\t// in\ntag_162:\n    /* \"#utility.yul\":9208:9212   */\n  dup3\n    /* \"#utility.yul\":9201:9306   */\n  sstore\n    /* \"#utility.yul\":9119:9312   */\n  pop\n    /* \"#utility.yul\":9043:9312   */\n  pop\n  pop\n  pop\n  jump\t// out\n    /* \"#utility.yul\":9318:9391   */\ntag_55:\n    /* \"#utility.yul\":9363:9366   */\n  0x00\n    /* \"#utility.yul\":9318:9391   */\n  swap1\n  jump\t// out\n    /* \"#utility.yul\":9397:9586   */\ntag_56:\n    /* \"#utility.yul\":9474:9506   */\n  tag_166\n  tag_55\n  jump\t// in\ntag_166:\n    /* \"#utility.yul\":9515:9580   */\n  tag_167\n    /* \"#utility.yul\":9573:9579   */\n  dup2\n    /* \"#utility.yul\":9565:9571   */\n  dup5\n    /* \"#utility.yul\":9559:9563   */\n  dup5\n    /* \"#utility.yul\":9515:9580   */\n  tag_54\n  jump\t// in\ntag_167:\n    /* \"#utility.yul\":9450:9586   */\n  pop\n    /* \"#utility.yul\":9397:9586   */\n  pop\n  pop\n  jump\t// out\n    /* \"#utility.yul\":9592:9778   */\ntag_57:\n    /* \"#utility.yul\":9652:9772   */\ntag_169:\n    /* \"#utility.yul\":9669:9672   */\n  dup2\n    /* \"#utility.yul\":9662:9667   */\n  dup2\n    /* \"#utility.yul\":9659:9673   */\n  lt\n    /* \"#utility.yul\":9652:9772   */\n  iszero\n  tag_171\n  jumpi\n    /* \"#utility.yul\":9723:9762   */\n  tag_172\n    /* \"#utility.yul\":9760:9761   */\n  0x00\n    /* \"#utility.yul\":9753:9758   */\n  dup3\n    /* \"#utility.yul\":9723:9762   */\n  tag_56\n  jump\t// in\ntag_172:\n    /* \"#utility.yul\":9696:9697   */\n  0x01\n    /* \"#utility.yul\":9689:9694   */\n  dup2\n    /* \"#utility.yul\":9685:9698   */\n  add\n    /* \"#utility.yul\":9676:9698   */\n  swap1\n  pop\n    /* \"#utility.yul\":9652:9772   */\n  jump(tag_169)\ntag_171:\n    /* \"#utility.yul\":9592:9778   */\n  pop\n  pop\n  jump\t// out\n    /* \"#utility.yul\":9784:10327   */\ntag_58:\n    /* \"#utility.yul\":9885:9887   */\n  0x1f\n    /* \"#utility.yul\":9880:9883   */\n  dup3\n    /* \"#utility.yul\":9877:9888   */\n  gt\n    /* \"#utility.yul\":9874:10320   */\n  iszero\n  tag_174\n  jumpi\n    /* \"#utility.yul\":9919:9957   */\n  tag_175\n    /* \"#utility.yul\":9951:9956   */\n  dup2\n    /* \"#utility.yul\":9919:9957   */\n  tag_47\n  jump\t// in\ntag_175:\n    /* \"#utility.yul\":10003:10032   */\n  tag_176\n    /* \"#utility.yul\":10021:10031   */\n  dup5\n    /* \"#utility.yul\":10003:10032   */\n  tag_48\n  jump\t// in\ntag_176:\n    /* \"#utility.yul\":9993:10001   */\n  dup2\n    /* \"#utility.yul\":9989:10033   */\n  add\n    /* \"#utility.yul\":10186:10188   */\n  0x20\n    /* \"#utility.yul\":10174:10184   */\n  dup6\n    /* \"#utility.yul\":10171:10189   */\n  lt\n    /* \"#utility.yul\":10168:10217   */\n  iszero\n  tag_177\n  jumpi\n    /* \"#utility.yul\":10207:10215   */\n  dup2\n    /* \"#utility.yul\":10192:10215   */\n  swap1\n  pop\n    /* \"#utility.yul\":10168:10217   */\ntag_177:\n    /* \"#utility.yul\":10230:10310   */\n  tag_178\n    /* \"#utility.yul\":10286:10308   */\n  tag_179\n    /* \"#utility.yul\":10304:10307   */\n  dup6\n    /* \"#utility.yul\":10286:10308   */\n  tag_48\n  jump\t// in\ntag_179:\n    /* \"#utility.yul\":10276:10284   */\n  dup4\n    /* \"#utility.yul\":10272:10309   */\n  add\n    /* \"#utility.yul\":10259:10270   */\n  dup3\n    /* \"#utility.yul\":10230:10310   */\n  tag_57\n  jump\t// in\ntag_178:\n    /* \"#utility.yul\":9889:10320   */\n  pop\n  pop\n    /* \"#utility.yul\":9874:10320   */\ntag_174:\n    /* \"#utility.yul\":9784:10327   */\n  pop\n  pop\n  pop\n  jump\t// out\n    /* \"#utility.yul\":10333:10450   */\ntag_59:\n    /* \"#utility.yul\":10387:10395   */\n  0x00\n    /* \"#utility.yul\":10437:10442   */\n  dup3\n    /* \"#utility.yul\":10431:10435   */\n  dup3\n    /* \"#utility.yul\":10427:10443   */\n  shr\n    /* \"#utility.yul\":10406:10443   */\n  swap1\n  pop\n    /* \"#utility.yul\":10333:10450   */\n  swap3\n  swap2\n  pop\n  pop\n  jump\t// out\n    /* \"#utility.yul\":10456:10625   */\ntag_60:\n    /* \"#utility.yul\":10500:10506   */\n  0x00\n    /* \"#utility.yul\":10533:10584   */\n  tag_182\n    /* \"#utility.yul\":10581:10582   */\n  0x00\n    /* \"#utility.yul\":10577:10583   */\n  not\n    /* \"#utility.yul\":10569:10574   */\n  dup5\n    /* \"#utility.yul\":10566:10567   */\n  0x08\n    /* \"#utility.yul\":10562:10575   */\n  mul\n    /* \"#utility.yul\":10533:10584   */\n  tag_59\n  jump\t// in\ntag_182:\n    /* \"#utility.yul\":10529:10585   */\n  not\n    /* \"#utility.yul\":10614:10618   */\n  dup1\n    /* \"#utility.yul\":10608:10612   */\n  dup4\n    /* \"#utility.yul\":10604:10619   */\n  and\n    /* \"#utility.yul\":10594:10619   */\n  swap2\n  pop\n    /* \"#utility.yul\":10507:10625   */\n  pop\n    /* \"#utility.yul\":10456:10625   */\n  swap3\n  swap2\n  pop\n  pop\n  jump\t// out\n    /* \"#utility.yul\":10630:10925   */\ntag_61:\n    /* \"#utility.yul\":10706:10710   */\n  0x00\n    /* \"#utility.yul\":10852:10881   */\n  tag_184\n    /* \"#utility.yul\":10877:10880   */\n  dup4\n    /* \"#utility.yul\":10871:10875   */\n  dup4\n    /* \"#utility.yul\":10852:10881   */\n  tag_60\n  jump\t// in\ntag_184:\n    /* \"#utility.yul\":10844:10881   */\n  swap2\n  pop\n    /* \"#utility.yul\":10914:10917   */\n  dup3\n    /* \"#utility.yul\":10911:10912   */\n  0x02\n    /* \"#utility.yul\":10907:10918   */\n  mul\n    /* \"#utility.yul\":10901:10905   */\n  dup3\n    /* \"#utility.yul\":10898:10919   */\n  or\n    /* \"#utility.yul\":10890:10919   */\n  swap1\n  pop\n    /* \"#utility.yul\":10630:10925   */\n  swap3\n  swap2\n  pop\n  pop\n  jump\t// out\n    /* \"#utility.yul\":10930:12325   */\ntag_16:\n    /* \"#utility.yul\":11047:11084   */\n  tag_186\n    /* \"#utility.yul\":11080:11083   */\n  dup3\n    /* \"#utility.yul\":11047:11084   */\n  tag_44\n  jump\t// in\ntag_186:\n    /* \"#utility.yul\":11149:11167   */\n  0xffffffffffffffff\n    /* \"#utility.yul\":11141:11147   */\n  dup2\n    /* \"#utility.yul\":11138:11168   */\n  gt\n    /* \"#utility.yul\":11135:11191   */\n  iszero\n  tag_187\n  jumpi\n    /* \"#utility.yul\":11171:11189   */\n  tag_188\n  tag_26\n  jump\t// in\ntag_188:\n    /* \"#utility.yul\":11135:11191   */\ntag_187:\n    /* \"#utility.yul\":11215:11253   */\n  tag_189\n    /* \"#utility.yul\":11247:11251   */\n  dup3\n    /* \"#utility.yul\":11241:11252   */\n  sload\n    /* \"#utility.yul\":11215:11253   */\n  tag_46\n  jump\t// in\ntag_189:\n    /* \"#utility.yul\":11300:11367   */\n  tag_190\n    /* \"#utility.yul\":11360:11366   */\n  dup3\n    /* \"#utility.yul\":11352:11358   */\n  dup3\n    /* \"#utility.yul\":11346:11350   */\n  dup6\n    /* \"#utility.yul\":11300:11367   */\n  tag_58\n  jump\t// in\ntag_190:\n    /* \"#utility.yul\":11394:11395   */\n  0x00\n    /* \"#utility.yul\":11418:11422   */\n  0x20\n    /* \"#utility.yul\":11405:11422   */\n  swap1\n  pop\n    /* \"#utility.yul\":11450:11452   */\n  0x1f\n    /* \"#utility.yul\":11442:11448   */\n  dup4\n    /* \"#utility.yul\":11439:11453   */\n  gt\n    /* \"#utility.yul\":11467:11468   */\n  0x01\n    /* \"#utility.yul\":11462:12080   */\n  dup2\n  eq\n  tag_192\n  jumpi\n    /* \"#utility.yul\":12124:12125   */\n  0x00\n    /* \"#utility.yul\":12141:12147   */\n  dup5\n    /* \"#utility.yul\":12138:12215   */\n  iszero\n  tag_193\n  jumpi\n    /* \"#utility.yul\":12190:12199   */\n  dup3\n    /* \"#utility.yul\":12185:12188   */\n  dup8\n    /* \"#utility.yul\":12181:12200   */\n  add\n    /* \"#utility.yul\":12175:12201   */\n  mload\n    /* \"#utility.yul\":12166:12201   */\n  swap1\n  pop\n    /* \"#utility.yul\":12138:12215   */\ntag_193:\n    /* \"#utility.yul\":12241:12308   */\n  tag_194\n    /* \"#utility.yul\":12301:12307   */\n  dup6\n    /* \"#utility.yul\":12294:12299   */\n  dup3\n    /* \"#utility.yul\":12241:12308   */\n  tag_61\n  jump\t// in\ntag_194:\n    /* \"#utility.yul\":12235:12239   */\n  dup7\n    /* \"#utility.yul\":12228:12309   */\n  sstore\n    /* \"#utility.yul\":12097:12319   */\n  pop\n    /* \"#utility.yul\":11432:12319   */\n  jump(tag_191)\n    /* \"#utility.yul\":11462:12080   */\ntag_192:\n    /* \"#utility.yul\":11514:11518   */\n  0x1f\n    /* \"#utility.yul\":11510:11519   */\n  not\n    /* \"#utility.yul\":11502:11508   */\n  dup5\n    /* \"#utility.yul\":11498:11520   */\n  and\n    /* \"#utility.yul\":11548:11585   */\n  tag_195\n    /* \"#utility.yul\":11580:11584   */\n  dup7\n    /* \"#utility.yul\":11548:11585   */\n  tag_47\n  jump\t// in\ntag_195:\n    /* \"#utility.yul\":11607:11608   */\n  0x00\n    /* \"#utility.yul\":11621:11829   */\ntag_196:\n    /* \"#utility.yul\":11635:11642   */\n  dup3\n    /* \"#utility.yul\":11632:11633   */\n  dup2\n    /* \"#utility.yul\":11629:11643   */\n  lt\n    /* \"#utility.yul\":11621:11829   */\n  iszero\n  tag_198\n  jumpi\n    /* \"#utility.yul\":11714:11723   */\n  dup5\n    /* \"#utility.yul\":11709:11712   */\n  dup10\n    /* \"#utility.yul\":11705:11724   */\n  add\n    /* \"#utility.yul\":11699:11725   */\n  mload\n    /* \"#utility.yul\":11691:11697   */\n  dup3\n    /* \"#utility.yul\":11684:11726   */\n  sstore\n    /* \"#utility.yul\":11765:11766   */\n  0x01\n    /* \"#utility.yul\":11757:11763   */\n  dup3\n    /* \"#utility.yul\":11753:11767   */\n  add\n    /* \"#utility.yul\":11743:11767   */\n  swap2\n  pop\n    /* \"#utility.yul\":11812:11814   */\n  0x20\n    /* \"#utility.yul\":11801:11810   */\n  dup6\n    /* \"#utility.yul\":11797:11815   */\n  add\n    /* \"#utility.yul\":11784:11815   */\n  swap5\n  pop\n    /* \"#utility.yul\":11658:11662   */\n  0x20\n    /* \"#utility.yul\":11655:11656   */\n  dup2\n    /* \"#utility.yul\":11651:11663   */\n  add\n    /* \"#utility.yul\":11646:11663   */\n  swap1\n  pop\n    /* \"#utility.yul\":11621:11829   */\n  jump(tag_196)\ntag_198:\n    /* \"#utility.yul\":11857:11863   */\n  dup7\n    /* \"#utility.yul\":11848:11855   */\n  dup4\n    /* \"#utility.yul\":11845:11864   */\n  lt\n    /* \"#utility.yul\":11842:12021   */\n  iszero\n  tag_199\n  jumpi\n    /* \"#utility.yul\":11915:11924   */\n  dup5\n    /* \"#utility.yul\":11910:11913   */\n  dup10\n    /* \"#utility.yul\":11906:11925   */\n  add\n    /* \"#utility.yul\":11900:11926   */\n  mload\n    /* \"#utility.yul\":11958:12006   */\n  tag_200\n    /* \"#utility.yul\":12000:12004   */\n  0x1f\n    /* \"#utility.yul\":11992:11998   */\n  dup10\n    /* \"#utility.yul\":11988:12005   */\n  and\n    /* \"#utility.yul\":11977:11986   */\n  dup3\n    /* \"#utility.yul\":11958:12006   */\n  tag_60\n  jump\t// in\ntag_200:\n    /* \"#utility.yul\":11950:11956   */\n  dup4\n    /* \"#utility.yul\":11943:12007   */\n  sstore\n    /* \"#utility.yul\":11865:12021   */\n  pop\n    /* \"#utility.yul\":11842:12021   */\ntag_199:\n    /* \"#utility.yul\":12067:12068   */\n  0x01\n    /* \"#utility.yul\":12063:12064   */\n  0x02\n    /* \"#utility.yul\":12055:12061   */\n  dup9\n    /* \"#utility.yul\":12051:12065   */\n  mul\n    /* \"#utility.yul\":12047:12069   */\n  add\n    /* \"#utility.yul\":12041:12045   */\n  dup9\n    /* \"#utility.yul\":12034:12070   */\n  sstore\n    /* \"#utility.yul\":11469:12080   */\n  pop\n  pop\n  pop\n    /* \"#utility.yul\":11432:12319   */\ntag_191:\n  pop\n    /* \"#utility.yul\":11022:12325   */\n  pop\n  pop\n  pop\n    /* \"#utility.yul\":10930:12325   */\n  pop\n  pop\n  jump\t// out\n    /* \"#utility.yul\":12331:12511   */\ntag_62:\n    /* \"#utility.yul\":12379:12456   */\n  0x4e487b7100000000000000000000000000000000000000000000000000000000\n    /* \"#utility.yul\":12376:12377   */\n  0x00\n    /* \"#utility.yul\":12369:12457   */\n  mstore\n    /* \"#utility.yul\":12476:12480   */\n  0x11\n    /* \"#utility.yul\":12473:12474   */\n  0x04\n    /* \"#utility.yul\":12466:12481   */\n  mstore\n    /* \"#utility.yul\":12500:12504   */\n  0x24\n    /* \"#utility.yul\":12497:12498   */\n  0x00\n    /* \"#utility.yul\":12490:12505   */\n  revert\n    /* \"#utility.yul\":12517:12750   */\ntag_19:\n    /* \"#utility.yul\":12556:12559   */\n  0x00\n    /* \"#utility.yul\":12579:12603   */\n  tag_203\n    /* \"#utility.yul\":12597:12602   */\n  dup3\n    /* \"#utility.yul\":12579:12603   */\n  tag_38\n  jump\t// in\ntag_203:\n    /* \"#utility.yul\":12570:12603   */\n  swap2\n  pop\n    /* \"#utility.yul\":12625:12691   */\n  0xffffffffffffffffffffffffffffffffffffffffffffffffffffffffffffffff\n    /* \"#utility.yul\":12618:12623   */\n  dup3\n    /* \"#utility.yul\":12615:12692   */\n  sub\n    /* \"#utility.yul\":12612:12715   */\n  tag_204\n  jumpi\n    /* \"#utility.yul\":12695:12713   */\n  tag_205\n  tag_62\n  jump\t// in\ntag_205:\n    /* \"#utility.yul\":12612:12715   */\ntag_204:\n    /* \"#utility.yul\":12742:12743   */\n  0x01\n    /* \"#utility.yul\":12735:12740   */\n  dup3\n    /* \"#utility.yul\":12731:12744   */\n  add\n    /* \"#utility.yul\":12724:12744   */\n  swap1\n  pop\n    /* \"#utility.yul\":12517:12750   */\n  swap2\n  swap1\n  pop\n  jump\t// out\n    /* \"contracts/Ballot/Ballot.sol\":70:5449  contract MyBallot {... */\ntag_20:\n  dataSize(sub_0)\n  dup1\n  dataOffset(sub_0)\n  0x00\n  codecopy\n  0x00\n  return\nstop\n\nsub_0: assembly {\n        /* \"contracts/Ballot/Ballot.sol\":70:5449  contract MyBallot {... */\n      mstore(0x40, 0x80)\n      callvalue\n      dup1\n      iszero\n      tag_1\n      jumpi\n      0x00\n      dup1\n      revert\n    tag_1:\n      pop\n      jumpi(tag_2, lt(calldatasize, 0x04))\n      shr(0xe0, calldataload(0x00))\n      dup1\n      0x954115f2\n      gt\n      tag_20\n      jumpi\n      dup1\n      0xda265430\n      gt\n      tag_21\n      jumpi\n      dup1\n      0xda265430\n      eq\n      tag_15\n      jumpi\n      dup1\n      0xdf703622\n      eq\n      tag_16\n      jumpi\n      dup1\n      0xf0ee4577\n      eq\n      tag_17\n      jumpi\n      dup1\n      0xf927cc29\n      eq\n      tag_18\n      jumpi\n      dup1\n      0xfc36e15b\n      eq\n      tag_19\n      jumpi\n      jump(tag_2)\n    tag_21:\n      dup1\n      0x954115f2\n      eq\n      tag_11\n      jumpi\n      dup1\n      0x9e7b8d61\n      eq\n      tag_12\n      jumpi\n      dup1\n      0xa3ec138d\n      eq\n      tag_13\n      jumpi\n      dup1\n      0xce606ee0\n      eq\n      tag_14\n      jumpi\n      jump(tag_2)\n    tag_20:\n      dup1\n      0x3477ee2e\n      gt\n      tag_22\n      jumpi\n      dup1\n      0x3477ee2e\n      eq\n      tag_7\n      jumpi\n      dup1\n      0x3ddf3822\n      eq\n      tag_8\n      jumpi\n      dup1\n      0x4aba5f34\n      eq\n      tag_9\n      jumpi\n      dup1\n      0x94b04e7d\n      eq\n      tag_10\n      jumpi\n      jump(tag_2)\n    tag_22:\n      dup1\n      0x01c5556a\n      eq\n      tag_3\n      jumpi\n      dup1\n      0x10508439\n      eq\n      tag_4\n      jumpi\n      dup1\n      0x2bfda515\n      eq\n      tag_5\n      jumpi\n      dup1\n      0x32a2c5d0\n      eq\n      tag_6\n      jumpi\n    tag_2:\n      0x00\n      dup1\n      revert\n        /* \"contracts/Ballot/Ballot.sol\":4385:4614  function calculateAmountOfTotalVotes() public view returns (uint total) {... */\n    tag_3:\n      tag_23\n      tag_24\n      jump\t// in\n    tag_23:\n      mload(0x40)\n      tag_25\n      swap2\n      swap1\n      tag_26\n      jump\t// in\n    tag_25:\n      mload(0x40)\n      dup1\n      swap2\n      sub\n      swap1\n      return\n        /* \"contracts/Ballot/Ballot.sol\":1980:2238  function addCandidateWithSpreadParameters(string memory name, string memory party) public isContractOwnerAddCandidate() {... */\n    tag_4:\n      tag_27\n      0x04\n      dup1\n      calldatasize\n      sub\n      dup2\n      add\n      swap1\n      tag_28\n      swap2\n      swap1\n      tag_29\n      jump\t// in\n    tag_28:\n      tag_30\n      jump\t// in\n    tag_27:\n      stop\n        /* \"contracts/Ballot/Ballot.sol\":3244:3540  function getWinnerName() public view returns (string memory winnerName) {... */\n    tag_5:\n      tag_31\n      tag_32\n      jump\t// in\n    tag_31:\n      mload(0x40)\n      tag_33\n      swap2\n      swap1\n      tag_34\n      jump\t// in\n    tag_33:\n      mload(0x40)\n      dup1\n      swap2\n      sub\n      swap1\n      return\n        /* \"contracts/Ballot/Ballot.sol\":4278:4377  function getContractAddress() public view returns (address) {... */\n    tag_6:\n      tag_35\n      tag_36\n      jump\t// in\n    tag_35:\n      mload(0x40)\n      tag_37\n      swap2\n      swap1\n      tag_38\n      jump\t// in\n    tag_37:\n      mload(0x40)\n      dup1\n      swap2\n      sub\n      swap1\n      return\n        /* \"contracts/Ballot/Ballot.sol\":362:391  Candidate[] public candidates */\n    tag_7:\n      tag_39\n      0x04\n      dup1\n      calldatasize\n      sub\n      dup2\n      add\n      swap1\n      tag_40\n      swap2\n      swap1\n      tag_41\n      jump\t// in\n    tag_40:\n      tag_42\n      jump\t// in\n    tag_39:\n      mload(0x40)\n      tag_43\n      swap4\n      swap3\n      swap2\n      swap1\n      tag_44\n      jump\t// in\n    tag_43:\n      mload(0x40)\n      dup1\n      swap2\n      sub\n      swap1\n      return\n        /* \"contracts/Ballot/Ballot.sol\":4622:4733  function areYouContractOwner() public view returns (bool) {... */\n    tag_8:\n      tag_45\n      tag_46\n      jump\t// in\n    tag_45:\n      mload(0x40)\n      tag_47\n      swap2\n      swap1\n      tag_48\n      jump\t// in\n    tag_47:\n      mload(0x40)\n      dup1\n      swap2\n      sub\n      swap1\n      return\n        /* \"contracts/Ballot/Ballot.sol\":4164:4270  function getCandidatesList() public view returns (Candidate[] memory) {... */\n    tag_9:\n      tag_49\n      tag_50\n      jump\t// in\n    tag_49:\n      mload(0x40)\n      tag_51\n      swap2\n      swap1\n      tag_52\n      jump\t// in\n    tag_51:\n      mload(0x40)\n      dup1\n      swap2\n      sub\n      swap1\n      return\n        /* \"contracts/Ballot/Ballot.sol\":4866:4998  function getVoterRigthToVote(address voterAddress) public view returns (bool) {... */\n    tag_10:\n      tag_53\n      0x04\n      dup1\n      calldatasize\n      sub\n      dup2\n      add\n      swap1\n      tag_54\n      swap2\n      swap1\n      tag_55\n      jump\t// in\n    tag_54:\n      tag_56\n      jump\t// in\n    tag_53:\n      mload(0x40)\n      tag_57\n      swap2\n      swap1\n      tag_48\n      jump\t// in\n    tag_57:\n      mload(0x40)\n      dup1\n      swap2\n      sub\n      swap1\n      return\n        /* \"contracts/Ballot/Ballot.sol\":2412:2558  function addCandidateAsStruct(Candidate memory newCandidate) public isContractOwnerAddCandidate() {... */\n    tag_11:\n      tag_58\n      0x04\n      dup1\n      calldatasize\n      sub\n      dup2\n      add\n      swap1\n      tag_59\n      swap2\n      swap1\n      tag_60\n      jump\t// in\n    tag_59:\n      tag_61\n      jump\t// in\n    tag_58:\n      stop\n        /* \"contracts/Ballot/Ballot.sol\":2570:2716  function giveRightToVote(address voterAddress) public giveRightToVoteModifier(voterAddress) {... */\n    tag_12:\n      tag_62\n      0x04\n      dup1\n      calldatasize\n      sub\n      dup2\n      add\n      swap1\n      tag_63\n      swap2\n      swap1\n      tag_55\n      jump\t// in\n    tag_63:\n      tag_64\n      jump\t// in\n    tag_62:\n      stop\n        /* \"contracts/Ballot/Ballot.sol\":314:353  mapping(address => Voter) public voters */\n    tag_13:\n      tag_65\n      0x04\n      dup1\n      calldatasize\n      sub\n      dup2\n      add\n      swap1\n      tag_66\n      swap2\n      swap1\n      tag_55\n      jump\t// in\n    tag_66:\n      tag_67\n      jump\t// in\n    tag_65:\n      mload(0x40)\n      tag_68\n      swap3\n      swap2\n      swap1\n      tag_69\n      jump\t// in\n    tag_68:\n      mload(0x40)\n      dup1\n      swap2\n      sub\n      swap1\n      return\n        /* \"contracts/Ballot/Ballot.sol\":277:305  address public contractOwner */\n    tag_14:\n      tag_70\n      tag_71\n      jump\t// in\n    tag_70:\n      mload(0x40)\n      tag_72\n      swap2\n      swap1\n      tag_38\n      jump\t// in\n    tag_72:\n      mload(0x40)\n      dup1\n      swap2\n      sub\n      swap1\n      return\n        /* \"contracts/Ballot/Ballot.sol\":5006:5107  function areYouVoted() public view returns (bool) {... */\n    tag_15:\n      tag_73\n      tag_74\n      jump\t// in\n    tag_73:\n      mload(0x40)\n      tag_75\n      swap2\n      swap1\n      tag_48\n      jump\t// in\n    tag_75:\n      mload(0x40)\n      dup1\n      swap2\n      sub\n      swap1\n      return\n        /* \"contracts/Ballot/Ballot.sol\":4741:4858  function areYouHaveRigthToVote() public view returns (bool) {... */\n    tag_16:\n      tag_76\n      tag_77\n      jump\t// in\n    tag_76:\n      mload(0x40)\n      tag_78\n      swap2\n      swap1\n      tag_48\n      jump\t// in\n    tag_78:\n      mload(0x40)\n      dup1\n      swap2\n      sub\n      swap1\n      return\n        /* \"contracts/Ballot/Ballot.sol\":5115:5242  function getVoterVoter(address voterAddress) public view returns (bool) {... */\n    tag_17:\n      tag_79\n      0x04\n      dup1\n      calldatasize\n      sub\n      dup2\n      add\n      swap1\n      tag_80\n      swap2\n      swap1\n      tag_55\n      jump\t// in\n    tag_80:\n      tag_81\n      jump\t// in\n    tag_79:\n      mload(0x40)\n      tag_82\n      swap2\n      swap1\n      tag_48\n      jump\t// in\n    tag_82:\n      mload(0x40)\n      dup1\n      swap2\n      sub\n      swap1\n      return\n        /* \"contracts/Ballot/Ballot.sol\":3548:4156  function getWinningCandidate() public view returns (uint winningProposal, bool isTie) {        ... */\n    tag_18:\n      tag_83\n      tag_84\n      jump\t// in\n    tag_83:\n      mload(0x40)\n      tag_85\n      swap3\n      swap2\n      swap1\n      tag_86\n      jump\t// in\n    tag_85:\n      mload(0x40)\n      dup1\n      swap2\n      sub\n      swap1\n      return\n        /* \"contracts/Ballot/Ballot.sol\":2724:3236  function vote(string memory name) public voteModifier(msg.sender) {... */\n    tag_19:\n      tag_87\n      0x04\n      dup1\n      calldatasize\n      sub\n      dup2\n      add\n      swap1\n      tag_88\n      swap2\n      swap1\n      tag_89\n      jump\t// in\n    tag_88:\n      tag_90\n      jump\t// in\n    tag_87:\n      stop\n        /* \"contracts/Ballot/Ballot.sol\":4385:4614  function calculateAmountOfTotalVotes() public view returns (uint total) {... */\n    tag_24:\n        /* \"contracts/Ballot/Ballot.sol\":4445:4455  uint total */\n      0x00\n        /* \"contracts/Ballot/Ballot.sol\":4491:4501  uint index */\n      dup1\n        /* \"contracts/Ballot/Ballot.sol\":4504:4505  0 */\n      0x00\n        /* \"contracts/Ballot/Ballot.sol\":4491:4505  uint index = 0 */\n      swap1\n      pop\n        /* \"contracts/Ballot/Ballot.sol\":4486:4607  for (uint index = 0; index < candidates.length; index++) {... */\n    tag_92:\n        /* \"contracts/Ballot/Ballot.sol\":4515:4525  candidates */\n      0x02\n        /* \"contracts/Ballot/Ballot.sol\":4515:4532  candidates.length */\n      dup1\n      sload\n      swap1\n      pop\n        /* \"contracts/Ballot/Ballot.sol\":4507:4512  index */\n      dup2\n        /* \"contracts/Ballot/Ballot.sol\":4507:4532  index < candidates.length */\n      lt\n        /* \"contracts/Ballot/Ballot.sol\":4486:4607  for (uint index = 0; index < candidates.length; index++) {... */\n      iszero\n      tag_93\n      jumpi\n        /* \"contracts/Ballot/Ballot.sol\":4567:4577  candidates */\n      0x02\n        /* \"contracts/Ballot/Ballot.sol\":4578:4583  index */\n      dup2\n        /* \"contracts/Ballot/Ballot.sol\":4567:4584  candidates[index] */\n      dup2\n      sload\n      dup2\n      lt\n      tag_95\n      jumpi\n      tag_96\n      tag_97\n      jump\t// in\n    tag_96:\n    tag_95:\n      swap1\n      0x00\n      mstore\n      keccak256(0x00, 0x20)\n      swap1\n      0x03\n      mul\n      add\n        /* \"contracts/Ballot/Ballot.sol\":4567:4595  candidates[index].votesCount */\n      0x02\n      add\n      sload\n        /* \"contracts/Ballot/Ballot.sol\":4558:4595  total += candidates[index].votesCount */\n      dup3\n      tag_99\n      swap2\n      swap1\n      tag_100\n      jump\t// in\n    tag_99:\n      swap2\n      pop\n        /* \"contracts/Ballot/Ballot.sol\":4534:4541  index++ */\n      dup1\n      dup1\n      tag_101\n      swap1\n      tag_102\n      jump\t// in\n    tag_101:\n      swap2\n      pop\n      pop\n        /* \"contracts/Ballot/Ballot.sol\":4486:4607  for (uint index = 0; index < candidates.length; index++) {... */\n      jump(tag_92)\n    tag_93:\n      pop\n        /* \"contracts/Ballot/Ballot.sol\":4385:4614  function calculateAmountOfTotalVotes() public view returns (uint total) {... */\n      swap1\n      jump\t// out\n        /* \"contracts/Ballot/Ballot.sol\":1980:2238  function addCandidateWithSpreadParameters(string memory name, string memory party) public isContractOwnerAddCandidate() {... */\n    tag_30:\n        /* \"contracts/Ballot/Ballot.sol\":1011:1032  areYouContractOwner() */\n      tag_104\n        /* \"contracts/Ballot/Ballot.sol\":1011:1030  areYouContractOwner */\n      tag_46\n        /* \"contracts/Ballot/Ballot.sol\":1011:1032  areYouContractOwner() */\n      jump\t// in\n    tag_104:\n        /* \"contracts/Ballot/Ballot.sol\":989:1103  require(... */\n      tag_105\n      jumpi\n      mload(0x40)\n      0x08c379a000000000000000000000000000000000000000000000000000000000\n      dup2\n      mstore\n      0x04\n      add\n      tag_106\n      swap1\n      tag_107\n      jump\t// in\n    tag_106:\n      mload(0x40)\n      dup1\n      swap2\n      sub\n      swap1\n      revert\n    tag_105:\n        /* \"contracts/Ballot/Ballot.sol\":2111:2121  candidates */\n      0x02\n        /* \"contracts/Ballot/Ballot.sol\":2127:2229  Candidate({... */\n      mload(0x40)\n      dup1\n      0x60\n      add\n      0x40\n      mstore\n      dup1\n        /* \"contracts/Ballot/Ballot.sol\":2158:2162  name */\n      dup5\n        /* \"contracts/Ballot/Ballot.sol\":2127:2229  Candidate({... */\n      dup2\n      mstore\n      0x20\n      add\n        /* \"contracts/Ballot/Ballot.sol\":2184:2189  party */\n      dup4\n        /* \"contracts/Ballot/Ballot.sol\":2127:2229  Candidate({... */\n      dup2\n      mstore\n      0x20\n      add\n        /* \"contracts/Ballot/Ballot.sol\":2216:2217  0 */\n      0x00\n        /* \"contracts/Ballot/Ballot.sol\":2127:2229  Candidate({... */\n      dup2\n      mstore\n      pop\n        /* \"contracts/Ballot/Ballot.sol\":2111:2230  candidates.push(Candidate({... */\n      swap1\n      dup1\n      0x01\n      dup2\n      sload\n      add\n      dup1\n      dup3\n      sstore\n      dup1\n      swap2\n      pop\n      pop\n      0x01\n      swap1\n      sub\n      swap1\n      0x00\n      mstore\n      keccak256(0x00, 0x20)\n      swap1\n      0x03\n      mul\n      add\n      0x00\n      swap1\n      swap2\n      swap1\n      swap2\n      swap1\n      swap2\n      pop\n      0x00\n      dup3\n      add\n      mload\n      dup2\n      0x00\n      add\n      swap1\n      dup2\n      tag_110\n      swap2\n      swap1\n      tag_111\n      jump\t// in\n    tag_110:\n      pop\n      0x20\n      dup3\n      add\n      mload\n      dup2\n      0x01\n      add\n      swap1\n      dup2\n      tag_112\n      swap2\n      swap1\n      tag_111\n      jump\t// in\n    tag_112:\n      pop\n      0x40\n      dup3\n      add\n      mload\n      dup2\n      0x02\n      add\n      sstore\n      pop\n      pop\n        /* \"contracts/Ballot/Ballot.sol\":1980:2238  function addCandidateWithSpreadParameters(string memory name, string memory party) public isContractOwnerAddCandidate() {... */\n      pop\n      pop\n      jump\t// out\n        /* \"contracts/Ballot/Ballot.sol\":3244:3540  function getWinnerName() public view returns (string memory winnerName) {... */\n    tag_32:\n        /* \"contracts/Ballot/Ballot.sol\":3290:3314  string memory winnerName */\n      0x60\n        /* \"contracts/Ballot/Ballot.sol\":3328:3348  uint winningProposal */\n      0x00\n        /* \"contracts/Ballot/Ballot.sol\":3350:3360  bool isTie */\n      dup1\n        /* \"contracts/Ballot/Ballot.sol\":3364:3385  getWinningCandidate() */\n      tag_114\n        /* \"contracts/Ballot/Ballot.sol\":3364:3383  getWinningCandidate */\n      tag_84\n        /* \"contracts/Ballot/Ballot.sol\":3364:3385  getWinningCandidate() */\n      jump\t// in\n    tag_114:\n        /* \"contracts/Ballot/Ballot.sol\":3327:3385  (uint winningProposal, bool isTie) = getWinningCandidate() */\n      swap2\n      pop\n      swap2\n      pop\n        /* \"contracts/Ballot/Ballot.sol\":3419:3424  isTie */\n      dup1\n        /* \"contracts/Ballot/Ballot.sol\":3418:3424  !isTie */\n      iszero\n        /* \"contracts/Ballot/Ballot.sol\":3396:3476  require(... */\n      tag_115\n      jumpi\n      mload(0x40)\n      0x08c379a000000000000000000000000000000000000000000000000000000000\n      dup2\n      mstore\n      0x04\n      add\n      tag_116\n      swap1\n      tag_117\n      jump\t// in\n    tag_116:\n      mload(0x40)\n      dup1\n      swap2\n      sub\n      swap1\n      revert\n    tag_115:\n        /* \"contracts/Ballot/Ballot.sol\":3500:3510  candidates */\n      0x02\n        /* \"contracts/Ballot/Ballot.sol\":3511:3526  winningProposal */\n      dup3\n        /* \"contracts/Ballot/Ballot.sol\":3500:3527  candidates[winningProposal] */\n      dup2\n      sload\n      dup2\n      lt\n      tag_118\n      jumpi\n      tag_119\n      tag_97\n      jump\t// in\n    tag_119:\n    tag_118:\n      swap1\n      0x00\n      mstore\n      keccak256(0x00, 0x20)\n      swap1\n      0x03\n      mul\n      add\n        /* \"contracts/Ballot/Ballot.sol\":3500:3532  candidates[winningProposal].name */\n      0x00\n      add\n        /* \"contracts/Ballot/Ballot.sol\":3487:3532  winnerName = candidates[winningProposal].name */\n      dup1\n      sload\n      tag_121\n      swap1\n      tag_122\n      jump\t// in\n    tag_121:\n      dup1\n      0x1f\n      add\n      0x20\n      dup1\n      swap2\n      div\n      mul\n      0x20\n      add\n      mload(0x40)\n      swap1\n      dup2\n      add\n      0x40\n      mstore\n      dup1\n      swap3\n      swap2\n      swap1\n      dup2\n      dup2\n      mstore\n      0x20\n      add\n      dup3\n      dup1\n      sload\n      tag_123\n      swap1\n      tag_122\n      jump\t// in\n    tag_123:\n      dup1\n      iszero\n      tag_124\n      jumpi\n      dup1\n      0x1f\n      lt\n      tag_125\n      jumpi\n      0x0100\n      dup1\n      dup4\n      sload\n      div\n      mul\n      dup4\n      mstore\n      swap2\n      0x20\n      add\n      swap2\n      jump(tag_124)\n    tag_125:\n      dup3\n      add\n      swap2\n      swap1\n      0x00\n      mstore\n      keccak256(0x00, 0x20)\n      swap1\n    tag_126:\n      dup2\n      sload\n      dup2\n      mstore\n      swap1\n      0x01\n      add\n      swap1\n      0x20\n      add\n      dup1\n      dup4\n      gt\n      tag_126\n      jumpi\n      dup3\n      swap1\n      sub\n      0x1f\n      and\n      dup3\n      add\n      swap2\n    tag_124:\n      pop\n      pop\n      pop\n      pop\n      pop\n      swap3\n      pop\n        /* \"contracts/Ballot/Ballot.sol\":3316:3540  {... */\n      pop\n      pop\n        /* \"contracts/Ballot/Ballot.sol\":3244:3540  function getWinnerName() public view returns (string memory winnerName) {... */\n      swap1\n      jump\t// out\n        /* \"contracts/Ballot/Ballot.sol\":4278:4377  function getContractAddress() public view returns (address) {... */\n    tag_36:\n        /* \"contracts/Ballot/Ballot.sol\":4329:4336  address */\n      0x00\n        /* \"contracts/Ballot/Ballot.sol\":4364:4368  this */\n      address\n        /* \"contracts/Ballot/Ballot.sol\":4349:4369  return address(this) */\n      swap1\n      pop\n        /* \"contracts/Ballot/Ballot.sol\":4278:4377  function getContractAddress() public view returns (address) {... */\n      swap1\n      jump\t// out\n        /* \"contracts/Ballot/Ballot.sol\":362:391  Candidate[] public candidates */\n    tag_42:\n      0x02\n      dup2\n      dup2\n      sload\n      dup2\n      lt\n      tag_128\n      jumpi\n      0x00\n      dup1\n      revert\n    tag_128:\n      swap1\n      0x00\n      mstore\n      keccak256(0x00, 0x20)\n      swap1\n      0x03\n      mul\n      add\n      0x00\n      swap2\n      pop\n      swap1\n      pop\n      dup1\n      0x00\n      add\n      dup1\n      sload\n      tag_130\n      swap1\n      tag_122\n      jump\t// in\n    tag_130:\n      dup1\n      0x1f\n      add\n      0x20\n      dup1\n      swap2\n      div\n      mul\n      0x20\n      add\n      mload(0x40)\n      swap1\n      dup2\n      add\n      0x40\n      mstore\n      dup1\n      swap3\n      swap2\n      swap1\n      dup2\n      dup2\n      mstore\n      0x20\n      add\n      dup3\n      dup1\n      sload\n      tag_131\n      swap1\n      tag_122\n      jump\t// in\n    tag_131:\n      dup1\n      iszero\n      tag_132\n      jumpi\n      dup1\n      0x1f\n      lt\n      tag_133\n      jumpi\n      0x0100\n      dup1\n      dup4\n      sload\n      div\n      mul\n      dup4\n      mstore\n      swap2\n      0x20\n      add\n      swap2\n      jump(tag_132)\n    tag_133:\n      dup3\n      add\n      swap2\n      swap1\n      0x00\n      mstore\n      keccak256(0x00, 0x20)\n      swap1\n    tag_134:\n      dup2\n      sload\n      dup2\n      mstore\n      swap1\n      0x01\n      add\n      swap1\n      0x20\n      add\n      dup1\n      dup4\n      gt\n      tag_134\n      jumpi\n      dup3\n      swap1\n      sub\n      0x1f\n      and\n      dup3\n      add\n      swap2\n    tag_132:\n      pop\n      pop\n      pop\n      pop\n      pop\n      swap1\n      dup1\n      0x01\n      add\n      dup1\n      sload\n      tag_135\n      swap1\n      tag_122\n      jump\t// in\n    tag_135:\n      dup1\n      0x1f\n      add\n      0x20\n      dup1\n      swap2\n      div\n      mul\n      0x20\n      add\n      mload(0x40)\n      swap1\n      dup2\n      add\n      0x40\n      mstore\n      dup1\n      swap3\n      swap2\n      swap1\n      dup2\n      dup2\n      mstore\n      0x20\n      add\n      dup3\n      dup1\n      sload\n      tag_136\n      swap1\n      tag_122\n      jump\t// in\n    tag_136:\n      dup1\n      iszero\n      tag_137\n      jumpi\n      dup1\n      0x1f\n      lt\n      tag_138\n      jumpi\n      0x0100\n      dup1\n      dup4\n      sload\n      div\n      mul\n      dup4\n      mstore\n      swap2\n      0x20\n      add\n      swap2\n      jump(tag_137)\n    tag_138:\n      dup3\n      add\n      swap2\n      swap1\n      0x00\n      mstore\n      keccak256(0x00, 0x20)\n      swap1\n    tag_139:\n      dup2\n      sload\n      dup2\n      mstore\n      swap1\n      0x01\n      add\n      swap1\n      0x20\n      add\n      dup1\n      dup4\n      gt\n      tag_139\n      jumpi\n      dup3\n      swap1\n      sub\n      0x1f\n      and\n      dup3\n      add\n      swap2\n    tag_137:\n      pop\n      pop\n      pop\n      pop\n      pop\n      swap1\n      dup1\n      0x02\n      add\n      sload\n      swap1\n      pop\n      dup4\n      jump\t// out\n        /* \"contracts/Ballot/Ballot.sol\":4622:4733  function areYouContractOwner() public view returns (bool) {... */\n    tag_46:\n        /* \"contracts/Ballot/Ballot.sol\":4674:4678  bool */\n      0x00\n        /* \"contracts/Ballot/Ballot.sol\":4712:4725  contractOwner */\n      dup1\n      0x00\n      swap1\n      sload\n      swap1\n      0x0100\n      exp\n      swap1\n      div\n      0xffffffffffffffffffffffffffffffffffffffff\n      and\n        /* \"contracts/Ballot/Ballot.sol\":4698:4725  msg.sender == contractOwner */\n      0xffffffffffffffffffffffffffffffffffffffff\n      and\n        /* \"contracts/Ballot/Ballot.sol\":4698:4708  msg.sender */\n      caller\n        /* \"contracts/Ballot/Ballot.sol\":4698:4725  msg.sender == contractOwner */\n      0xffffffffffffffffffffffffffffffffffffffff\n      and\n      eq\n        /* \"contracts/Ballot/Ballot.sol\":4691:4725  return msg.sender == contractOwner */\n      swap1\n      pop\n        /* \"contracts/Ballot/Ballot.sol\":4622:4733  function areYouContractOwner() public view returns (bool) {... */\n      swap1\n      jump\t// out\n        /* \"contracts/Ballot/Ballot.sol\":4164:4270  function getCandidatesList() public view returns (Candidate[] memory) {... */\n    tag_50:\n        /* \"contracts/Ballot/Ballot.sol\":4214:4232  Candidate[] memory */\n      0x60\n        /* \"contracts/Ballot/Ballot.sol\":4252:4262  candidates */\n      0x02\n        /* \"contracts/Ballot/Ballot.sol\":4245:4262  return candidates */\n      dup1\n      sload\n      dup1\n      0x20\n      mul\n      0x20\n      add\n      mload(0x40)\n      swap1\n      dup2\n      add\n      0x40\n      mstore\n      dup1\n      swap3\n      swap2\n      swap1\n      dup2\n      dup2\n      mstore\n      0x20\n      add\n      0x00\n      swap1\n    tag_142:\n      dup3\n      dup3\n      lt\n      iszero\n      tag_143\n      jumpi\n      dup4\n      dup3\n      swap1\n      0x00\n      mstore\n      keccak256(0x00, 0x20)\n      swap1\n      0x03\n      mul\n      add\n      mload(0x40)\n      dup1\n      0x60\n      add\n      0x40\n      mstore\n      swap1\n      dup2\n      0x00\n      dup3\n      add\n      dup1\n      sload\n      tag_145\n      swap1\n      tag_122\n      jump\t// in\n    tag_145:\n      dup1\n      0x1f\n      add\n      0x20\n      dup1\n      swap2\n      div\n      mul\n      0x20\n      add\n      mload(0x40)\n      swap1\n      dup2\n      add\n      0x40\n      mstore\n      dup1\n      swap3\n      swap2\n      swap1\n      dup2\n      dup2\n      mstore\n      0x20\n      add\n      dup3\n      dup1\n      sload\n      tag_146\n      swap1\n      tag_122\n      jump\t// in\n    tag_146:\n      dup1\n      iszero\n      tag_147\n      jumpi\n      dup1\n      0x1f\n      lt\n      tag_148\n      jumpi\n      0x0100\n      dup1\n      dup4\n      sload\n      div\n      mul\n      dup4\n      mstore\n      swap2\n      0x20\n      add\n      swap2\n      jump(tag_147)\n    tag_148:\n      dup3\n      add\n      swap2\n      swap1\n      0x00\n      mstore\n      keccak256(0x00, 0x20)\n      swap1\n    tag_149:\n      dup2\n      sload\n      dup2\n      mstore\n      swap1\n      0x01\n      add\n      swap1\n      0x20\n      add\n      dup1\n      dup4\n      gt\n      tag_149\n      jumpi\n      dup3\n      swap1\n      sub\n      0x1f\n      and\n      dup3\n      add\n      swap2\n    tag_147:\n      pop\n      pop\n      pop\n      pop\n      pop\n      dup2\n      mstore\n      0x20\n      add\n      0x01\n      dup3\n      add\n      dup1\n      sload\n      tag_150\n      swap1\n      tag_122\n      jump\t// in\n    tag_150:\n      dup1\n      0x1f\n      add\n      0x20\n      dup1\n      swap2\n      div\n      mul\n      0x20\n      add\n      mload(0x40)\n      swap1\n      dup2\n      add\n      0x40\n      mstore\n      dup1\n      swap3\n      swap2\n      swap1\n      dup2\n      dup2\n      mstore\n      0x20\n      add\n      dup3\n      dup1\n      sload\n      tag_151\n      swap1\n      tag_122\n      jump\t// in\n    tag_151:\n      dup1\n      iszero\n      tag_152\n      jumpi\n      dup1\n      0x1f\n      lt\n      tag_153\n      jumpi\n      0x0100\n      dup1\n      dup4\n      sload\n      div\n      mul\n      dup4\n      mstore\n      swap2\n      0x20\n      add\n      swap2\n      jump(tag_152)\n    tag_153:\n      dup3\n      add\n      swap2\n      swap1\n      0x00\n      mstore\n      keccak256(0x00, 0x20)\n      swap1\n    tag_154:\n      dup2\n      sload\n      dup2\n      mstore\n      swap1\n      0x01\n      add\n      swap1\n      0x20\n      add\n      dup1\n      dup4\n      gt\n      tag_154\n      jumpi\n      dup3\n      swap1\n      sub\n      0x1f\n      and\n      dup3\n      add\n      swap2\n    tag_152:\n      pop\n      pop\n      pop\n      pop\n      pop\n      dup2\n      mstore\n      0x20\n      add\n      0x02\n      dup3\n      add\n      sload\n      dup2\n      mstore\n      pop\n      pop\n      dup2\n      mstore\n      0x20\n      add\n      swap1\n      0x01\n      add\n      swap1\n      jump(tag_142)\n    tag_143:\n      pop\n      pop\n      pop\n      pop\n      swap1\n      pop\n        /* \"contracts/Ballot/Ballot.sol\":4164:4270  function getCandidatesList() public view returns (Candidate[] memory) {... */\n      swap1\n      jump\t// out\n        /* \"contracts/Ballot/Ballot.sol\":4866:4998  function getVoterRigthToVote(address voterAddress) public view returns (bool) {... */\n    tag_56:\n        /* \"contracts/Ballot/Ballot.sol\":4938:4942  bool */\n      0x00\n        /* \"contracts/Ballot/Ballot.sol\":4962:4968  voters */\n      0x01\n        /* \"contracts/Ballot/Ballot.sol\":4962:4982  voters[voterAddress] */\n      0x00\n        /* \"contracts/Ballot/Ballot.sol\":4969:4981  voterAddress */\n      dup4\n        /* \"contracts/Ballot/Ballot.sol\":4962:4982  voters[voterAddress] */\n      0xffffffffffffffffffffffffffffffffffffffff\n      and\n      0xffffffffffffffffffffffffffffffffffffffff\n      and\n      dup2\n      mstore\n      0x20\n      add\n      swap1\n      dup2\n      mstore\n      0x20\n      add\n      0x00\n      keccak256\n        /* \"contracts/Ballot/Ballot.sol\":4962:4990  voters[voterAddress].canVote */\n      0x00\n      add\n      0x00\n      swap1\n      sload\n      swap1\n      0x0100\n      exp\n      swap1\n      div\n      0xff\n      and\n        /* \"contracts/Ballot/Ballot.sol\":4955:4990  return voters[voterAddress].canVote */\n      swap1\n      pop\n        /* \"contracts/Ballot/Ballot.sol\":4866:4998  function getVoterRigthToVote(address voterAddress) public view returns (bool) {... */\n      swap2\n      swap1\n      pop\n      jump\t// out\n        /* \"contracts/Ballot/Ballot.sol\":2412:2558  function addCandidateAsStruct(Candidate memory newCandidate) public isContractOwnerAddCandidate() {... */\n    tag_61:\n        /* \"contracts/Ballot/Ballot.sol\":1011:1032  areYouContractOwner() */\n      tag_157\n        /* \"contracts/Ballot/Ballot.sol\":1011:1030  areYouContractOwner */\n      tag_46\n        /* \"contracts/Ballot/Ballot.sol\":1011:1032  areYouContractOwner() */\n      jump\t// in\n    tag_157:\n        /* \"contracts/Ballot/Ballot.sol\":989:1103  require(... */\n      tag_158\n      jumpi\n      mload(0x40)\n      0x08c379a000000000000000000000000000000000000000000000000000000000\n      dup2\n      mstore\n      0x04\n      add\n      tag_159\n      swap1\n      tag_107\n      jump\t// in\n    tag_159:\n      mload(0x40)\n      dup1\n      swap2\n      sub\n      swap1\n      revert\n    tag_158:\n        /* \"contracts/Ballot/Ballot.sol\":2521:2531  candidates */\n      0x02\n        /* \"contracts/Ballot/Ballot.sol\":2537:2549  newCandidate */\n      dup2\n        /* \"contracts/Ballot/Ballot.sol\":2521:2550  candidates.push(newCandidate) */\n      swap1\n      dup1\n      0x01\n      dup2\n      sload\n      add\n      dup1\n      dup3\n      sstore\n      dup1\n      swap2\n      pop\n      pop\n      0x01\n      swap1\n      sub\n      swap1\n      0x00\n      mstore\n      keccak256(0x00, 0x20)\n      swap1\n      0x03\n      mul\n      add\n      0x00\n      swap1\n      swap2\n      swap1\n      swap2\n      swap1\n      swap2\n      pop\n      0x00\n      dup3\n      add\n      mload\n      dup2\n      0x00\n      add\n      swap1\n      dup2\n      tag_162\n      swap2\n      swap1\n      tag_111\n      jump\t// in\n    tag_162:\n      pop\n      0x20\n      dup3\n      add\n      mload\n      dup2\n      0x01\n      add\n      swap1\n      dup2\n      tag_163\n      swap2\n      swap1\n      tag_111\n      jump\t// in\n    tag_163:\n      pop\n      0x40\n      dup3\n      add\n      mload\n      dup2\n      0x02\n      add\n      sstore\n      pop\n      pop\n        /* \"contracts/Ballot/Ballot.sol\":2412:2558  function addCandidateAsStruct(Candidate memory newCandidate) public isContractOwnerAddCandidate() {... */\n      pop\n      jump\t// out\n        /* \"contracts/Ballot/Ballot.sol\":2570:2716  function giveRightToVote(address voterAddress) public giveRightToVoteModifier(voterAddress) {... */\n    tag_64:\n        /* \"contracts/Ballot/Ballot.sol\":2648:2660  voterAddress */\n      dup1\n        /* \"contracts/Ballot/Ballot.sol\":1219:1240  areYouContractOwner() */\n      tag_165\n        /* \"contracts/Ballot/Ballot.sol\":1219:1238  areYouContractOwner */\n      tag_46\n        /* \"contracts/Ballot/Ballot.sol\":1219:1240  areYouContractOwner() */\n      jump\t// in\n    tag_165:\n        /* \"contracts/Ballot/Ballot.sol\":1197:1315  require(... */\n      tag_166\n      jumpi\n      mload(0x40)\n      0x08c379a000000000000000000000000000000000000000000000000000000000\n      dup2\n      mstore\n      0x04\n      add\n      tag_167\n      swap1\n      tag_168\n      jump\t// in\n    tag_167:\n      mload(0x40)\n      dup1\n      swap2\n      sub\n      swap1\n      revert\n    tag_166:\n        /* \"contracts/Ballot/Ballot.sol\":1326:1360  getVoterVotedRequire(voterAddress) */\n      tag_169\n        /* \"contracts/Ballot/Ballot.sol\":1347:1359  voterAddress */\n      dup2\n        /* \"contracts/Ballot/Ballot.sol\":1326:1346  getVoterVotedRequire */\n      tag_170\n        /* \"contracts/Ballot/Ballot.sol\":1326:1360  getVoterVotedRequire(voterAddress) */\n      jump\t// in\n    tag_169:\n        /* \"contracts/Ballot/Ballot.sol\":2704:2708  true */\n      0x01\n        /* \"contracts/Ballot/Ballot.sol\":2673:2679  voters */\n      dup1\n        /* \"contracts/Ballot/Ballot.sol\":2673:2693  voters[voterAddress] */\n      0x00\n        /* \"contracts/Ballot/Ballot.sol\":2680:2692  voterAddress */\n      dup5\n        /* \"contracts/Ballot/Ballot.sol\":2673:2693  voters[voterAddress] */\n      0xffffffffffffffffffffffffffffffffffffffff\n      and\n      0xffffffffffffffffffffffffffffffffffffffff\n      and\n      dup2\n      mstore\n      0x20\n      add\n      swap1\n      dup2\n      mstore\n      0x20\n      add\n      0x00\n      keccak256\n        /* \"contracts/Ballot/Ballot.sol\":2673:2701  voters[voterAddress].canVote */\n      0x00\n      add\n      0x00\n        /* \"contracts/Ballot/Ballot.sol\":2673:2708  voters[voterAddress].canVote = true */\n      0x0100\n      exp\n      dup2\n      sload\n      dup2\n      0xff\n      mul\n      not\n      and\n      swap1\n      dup4\n      iszero\n      iszero\n      mul\n      or\n      swap1\n      sstore\n      pop\n        /* \"contracts/Ballot/Ballot.sol\":2570:2716  function giveRightToVote(address voterAddress) public giveRightToVoteModifier(voterAddress) {... */\n      pop\n      pop\n      jump\t// out\n        /* \"contracts/Ballot/Ballot.sol\":314:353  mapping(address => Voter) public voters */\n    tag_67:\n      mstore(0x20, 0x01)\n      dup1\n      0x00\n      mstore\n      keccak256(0x00, 0x40)\n      0x00\n      swap2\n      pop\n      swap1\n      pop\n      dup1\n      0x00\n      add\n      0x00\n      swap1\n      sload\n      swap1\n      0x0100\n      exp\n      swap1\n      div\n      0xff\n      and\n      swap1\n      dup1\n      0x00\n      add\n      0x01\n      swap1\n      sload\n      swap1\n      0x0100\n      exp\n      swap1\n      div\n      0xff\n      and\n      swap1\n      pop\n      dup3\n      jump\t// out\n        /* \"contracts/Ballot/Ballot.sol\":277:305  address public contractOwner */\n    tag_71:\n      0x00\n      dup1\n      sload\n      swap1\n      0x0100\n      exp\n      swap1\n      div\n      0xffffffffffffffffffffffffffffffffffffffff\n      and\n      dup2\n      jump\t// out\n        /* \"contracts/Ballot/Ballot.sol\":5006:5107  function areYouVoted() public view returns (bool) {... */\n    tag_74:\n        /* \"contracts/Ballot/Ballot.sol\":5050:5054  bool */\n      0x00\n        /* \"contracts/Ballot/Ballot.sol\":5074:5099  getVoterVoter(msg.sender) */\n      tag_173\n        /* \"contracts/Ballot/Ballot.sol\":5088:5098  msg.sender */\n      caller\n        /* \"contracts/Ballot/Ballot.sol\":5074:5087  getVoterVoter */\n      tag_81\n        /* \"contracts/Ballot/Ballot.sol\":5074:5099  getVoterVoter(msg.sender) */\n      jump\t// in\n    tag_173:\n        /* \"contracts/Ballot/Ballot.sol\":5067:5099  return getVoterVoter(msg.sender) */\n      swap1\n      pop\n        /* \"contracts/Ballot/Ballot.sol\":5006:5107  function areYouVoted() public view returns (bool) {... */\n      swap1\n      jump\t// out\n        /* \"contracts/Ballot/Ballot.sol\":4741:4858  function areYouHaveRigthToVote() public view returns (bool) {... */\n    tag_77:\n        /* \"contracts/Ballot/Ballot.sol\":4795:4799  bool */\n      0x00\n        /* \"contracts/Ballot/Ballot.sol\":4819:4850  getVoterRigthToVote(msg.sender) */\n      tag_175\n        /* \"contracts/Ballot/Ballot.sol\":4839:4849  msg.sender */\n      caller\n        /* \"contracts/Ballot/Ballot.sol\":4819:4838  getVoterRigthToVote */\n      tag_56\n        /* \"contracts/Ballot/Ballot.sol\":4819:4850  getVoterRigthToVote(msg.sender) */\n      jump\t// in\n    tag_175:\n        /* \"contracts/Ballot/Ballot.sol\":4812:4850  return getVoterRigthToVote(msg.sender) */\n      swap1\n      pop\n        /* \"contracts/Ballot/Ballot.sol\":4741:4858  function areYouHaveRigthToVote() public view returns (bool) {... */\n      swap1\n      jump\t// out\n        /* \"contracts/Ballot/Ballot.sol\":5115:5242  function getVoterVoter(address voterAddress) public view returns (bool) {... */\n    tag_81:\n        /* \"contracts/Ballot/Ballot.sol\":5181:5185  bool */\n      0x00\n        /* \"contracts/Ballot/Ballot.sol\":5205:5211  voters */\n      0x01\n        /* \"contracts/Ballot/Ballot.sol\":5205:5225  voters[voterAddress] */\n      0x00\n        /* \"contracts/Ballot/Ballot.sol\":5212:5224  voterAddress */\n      dup4\n        /* \"contracts/Ballot/Ballot.sol\":5205:5225  voters[voterAddress] */\n      0xffffffffffffffffffffffffffffffffffffffff\n      and\n      0xffffffffffffffffffffffffffffffffffffffff\n      and\n      dup2\n      mstore\n      0x20\n      add\n      swap1\n      dup2\n      mstore\n      0x20\n      add\n      0x00\n      keccak256\n        /* \"contracts/Ballot/Ballot.sol\":5205:5234  voters[voterAddress].hasVoted */\n      0x00\n      add\n      0x01\n      swap1\n      sload\n      swap1\n      0x0100\n      exp\n      swap1\n      div\n      0xff\n      and\n        /* \"contracts/Ballot/Ballot.sol\":5198:5234  return voters[voterAddress].hasVoted */\n      swap1\n      pop\n        /* \"contracts/Ballot/Ballot.sol\":5115:5242  function getVoterVoter(address voterAddress) public view returns (bool) {... */\n      swap2\n      swap1\n      pop\n      jump\t// out\n        /* \"contracts/Ballot/Ballot.sol\":3548:4156  function getWinningCandidate() public view returns (uint winningProposal, bool isTie) {        ... */\n    tag_84:\n        /* \"contracts/Ballot/Ballot.sol\":3600:3620  uint winningProposal */\n      0x00\n        /* \"contracts/Ballot/Ballot.sol\":3622:3632  bool isTie */\n      dup1\n        /* \"contracts/Ballot/Ballot.sol\":3653:3674  uint winningVoteCount */\n      0x00\n        /* \"contracts/Ballot/Ballot.sol\":3692:3711  uint indexCandidate */\n      dup1\n        /* \"contracts/Ballot/Ballot.sol\":3714:3715  0 */\n      0x00\n        /* \"contracts/Ballot/Ballot.sol\":3692:3715  uint indexCandidate = 0 */\n      swap1\n      pop\n        /* \"contracts/Ballot/Ballot.sol\":3687:4149  for (uint indexCandidate = 0; indexCandidate < candidates.length; indexCandidate++) {... */\n    tag_178:\n        /* \"contracts/Ballot/Ballot.sol\":3734:3744  candidates */\n      0x02\n        /* \"contracts/Ballot/Ballot.sol\":3734:3751  candidates.length */\n      dup1\n      sload\n      swap1\n      pop\n        /* \"contracts/Ballot/Ballot.sol\":3717:3731  indexCandidate */\n      dup2\n        /* \"contracts/Ballot/Ballot.sol\":3717:3751  indexCandidate < candidates.length */\n      lt\n        /* \"contracts/Ballot/Ballot.sol\":3687:4149  for (uint indexCandidate = 0; indexCandidate < candidates.length; indexCandidate++) {... */\n      iszero\n      tag_179\n      jumpi\n        /* \"contracts/Ballot/Ballot.sol\":3830:3846  winningVoteCount */\n      dup2\n        /* \"contracts/Ballot/Ballot.sol\":3790:3800  candidates */\n      0x02\n        /* \"contracts/Ballot/Ballot.sol\":3801:3815  indexCandidate */\n      dup3\n        /* \"contracts/Ballot/Ballot.sol\":3790:3816  candidates[indexCandidate] */\n      dup2\n      sload\n      dup2\n      lt\n      tag_181\n      jumpi\n      tag_182\n      tag_97\n      jump\t// in\n    tag_182:\n    tag_181:\n      swap1\n      0x00\n      mstore\n      keccak256(0x00, 0x20)\n      swap1\n      0x03\n      mul\n      add\n        /* \"contracts/Ballot/Ballot.sol\":3790:3827  candidates[indexCandidate].votesCount */\n      0x02\n      add\n      sload\n        /* \"contracts/Ballot/Ballot.sol\":3790:3846  candidates[indexCandidate].votesCount > winningVoteCount */\n      gt\n        /* \"contracts/Ballot/Ballot.sol\":3786:4138  if (candidates[indexCandidate].votesCount > winningVoteCount) {... */\n      iszero\n      tag_184\n      jumpi\n        /* \"contracts/Ballot/Ballot.sol\":3886:3896  candidates */\n      0x02\n        /* \"contracts/Ballot/Ballot.sol\":3897:3911  indexCandidate */\n      dup2\n        /* \"contracts/Ballot/Ballot.sol\":3886:3912  candidates[indexCandidate] */\n      dup2\n      sload\n      dup2\n      lt\n      tag_185\n      jumpi\n      tag_186\n      tag_97\n      jump\t// in\n    tag_186:\n    tag_185:\n      swap1\n      0x00\n      mstore\n      keccak256(0x00, 0x20)\n      swap1\n      0x03\n      mul\n      add\n        /* \"contracts/Ballot/Ballot.sol\":3886:3923  candidates[indexCandidate].votesCount */\n      0x02\n      add\n      sload\n        /* \"contracts/Ballot/Ballot.sol\":3867:3923  winningVoteCount = candidates[indexCandidate].votesCount */\n      swap2\n      pop\n        /* \"contracts/Ballot/Ballot.sol\":3960:3974  indexCandidate */\n      dup1\n        /* \"contracts/Ballot/Ballot.sol\":3942:3974  winningProposal = indexCandidate */\n      swap4\n      pop\n        /* \"contracts/Ballot/Ballot.sol\":4001:4006  false */\n      0x00\n        /* \"contracts/Ballot/Ballot.sol\":3993:4006  isTie = false */\n      swap3\n      pop\n        /* \"contracts/Ballot/Ballot.sol\":3786:4138  if (candidates[indexCandidate].votesCount > winningVoteCount) {... */\n      jump(tag_188)\n    tag_184:\n        /* \"contracts/Ballot/Ballot.sol\":4073:4089  winningVoteCount */\n      dup2\n        /* \"contracts/Ballot/Ballot.sol\":4032:4042  candidates */\n      0x02\n        /* \"contracts/Ballot/Ballot.sol\":4043:4057  indexCandidate */\n      dup3\n        /* \"contracts/Ballot/Ballot.sol\":4032:4058  candidates[indexCandidate] */\n      dup2\n      sload\n      dup2\n      lt\n      tag_189\n      jumpi\n      tag_190\n      tag_97\n      jump\t// in\n    tag_190:\n    tag_189:\n      swap1\n      0x00\n      mstore\n      keccak256(0x00, 0x20)\n      swap1\n      0x03\n      mul\n      add\n        /* \"contracts/Ballot/Ballot.sol\":4032:4069  candidates[indexCandidate].votesCount */\n      0x02\n      add\n      sload\n        /* \"contracts/Ballot/Ballot.sol\":4032:4089  candidates[indexCandidate].votesCount == winningVoteCount */\n      sub\n        /* \"contracts/Ballot/Ballot.sol\":4028:4138  if (candidates[indexCandidate].votesCount == winningVoteCount) {... */\n      tag_192\n      jumpi\n        /* \"contracts/Ballot/Ballot.sol\":4118:4122  true */\n      0x01\n        /* \"contracts/Ballot/Ballot.sol\":4110:4122  isTie = true */\n      swap3\n      pop\n        /* \"contracts/Ballot/Ballot.sol\":4028:4138  if (candidates[indexCandidate].votesCount == winningVoteCount) {... */\n    tag_192:\n        /* \"contracts/Ballot/Ballot.sol\":3786:4138  if (candidates[indexCandidate].votesCount > winningVoteCount) {... */\n    tag_188:\n        /* \"contracts/Ballot/Ballot.sol\":3753:3769  indexCandidate++ */\n      dup1\n      dup1\n      tag_193\n      swap1\n      tag_102\n      jump\t// in\n    tag_193:\n      swap2\n      pop\n      pop\n        /* \"contracts/Ballot/Ballot.sol\":3687:4149  for (uint indexCandidate = 0; indexCandidate < candidates.length; indexCandidate++) {... */\n      jump(tag_178)\n    tag_179:\n      pop\n        /* \"contracts/Ballot/Ballot.sol\":3634:4156  {        ... */\n      pop\n        /* \"contracts/Ballot/Ballot.sol\":3548:4156  function getWinningCandidate() public view returns (uint winningProposal, bool isTie) {        ... */\n      swap1\n      swap2\n      jump\t// out\n        /* \"contracts/Ballot/Ballot.sol\":2724:3236  function vote(string memory name) public voteModifier(msg.sender) {... */\n    tag_90:\n        /* \"contracts/Ballot/Ballot.sol\":2778:2788  msg.sender */\n      caller\n        /* \"contracts/Ballot/Ballot.sol\":1485:1493  maxVotes */\n      sload(0x04)\n        /* \"contracts/Ballot/Ballot.sol\":1465:1482  totalVotesCounter */\n      sload(0x03)\n        /* \"contracts/Ballot/Ballot.sol\":1465:1493  totalVotesCounter < maxVotes */\n      lt\n        /* \"contracts/Ballot/Ballot.sol\":1443:1550  require(... */\n      tag_195\n      jumpi\n      mload(0x40)\n      0x08c379a000000000000000000000000000000000000000000000000000000000\n      dup2\n      mstore\n      0x04\n      add\n      tag_196\n      swap1\n      tag_197\n      jump\t// in\n    tag_196:\n      mload(0x40)\n      dup1\n      swap2\n      sub\n      swap1\n      revert\n    tag_195:\n        /* \"contracts/Ballot/Ballot.sol\":1583:1606  areYouHaveRigthToVote() */\n      tag_198\n        /* \"contracts/Ballot/Ballot.sol\":1583:1604  areYouHaveRigthToVote */\n      tag_77\n        /* \"contracts/Ballot/Ballot.sol\":1583:1606  areYouHaveRigthToVote() */\n      jump\t// in\n    tag_198:\n        /* \"contracts/Ballot/Ballot.sol\":1561:1661  require(... */\n      tag_199\n      jumpi\n      mload(0x40)\n      0x08c379a000000000000000000000000000000000000000000000000000000000\n      dup2\n      mstore\n      0x04\n      add\n      tag_200\n      swap1\n      tag_201\n      jump\t// in\n    tag_200:\n      mload(0x40)\n      dup1\n      swap2\n      sub\n      swap1\n      revert\n    tag_199:\n        /* \"contracts/Ballot/Ballot.sol\":1672:1706  getVoterVotedRequire(voterAddress) */\n      tag_202\n        /* \"contracts/Ballot/Ballot.sol\":1693:1705  voterAddress */\n      dup2\n        /* \"contracts/Ballot/Ballot.sol\":1672:1692  getVoterVotedRequire */\n      tag_170\n        /* \"contracts/Ballot/Ballot.sol\":1672:1706  getVoterVotedRequire(voterAddress) */\n      jump\t// in\n    tag_202:\n        /* \"contracts/Ballot/Ballot.sol\":2801:2821  Voter storage sender */\n      0x00\n        /* \"contracts/Ballot/Ballot.sol\":2824:2830  voters */\n      0x01\n        /* \"contracts/Ballot/Ballot.sol\":2824:2842  voters[msg.sender] */\n      0x00\n        /* \"contracts/Ballot/Ballot.sol\":2831:2841  msg.sender */\n      caller\n        /* \"contracts/Ballot/Ballot.sol\":2824:2842  voters[msg.sender] */\n      0xffffffffffffffffffffffffffffffffffffffff\n      and\n      0xffffffffffffffffffffffffffffffffffffffff\n      and\n      dup2\n      mstore\n      0x20\n      add\n      swap1\n      dup2\n      mstore\n      0x20\n      add\n      0x00\n      keccak256\n        /* \"contracts/Ballot/Ballot.sol\":2801:2842  Voter storage sender = voters[msg.sender] */\n      swap1\n      pop\n        /* \"contracts/Ballot/Ballot.sol\":2959:2969  uint index */\n      0x00\n        /* \"contracts/Ballot/Ballot.sol\":2954:3229  for (uint index = 0; index < candidates.length; index++) {... */\n    tag_204:\n        /* \"contracts/Ballot/Ballot.sol\":2983:2993  candidates */\n      0x02\n        /* \"contracts/Ballot/Ballot.sol\":2983:3000  candidates.length */\n      dup1\n      sload\n      swap1\n      pop\n        /* \"contracts/Ballot/Ballot.sol\":2975:2980  index */\n      dup2\n        /* \"contracts/Ballot/Ballot.sol\":2975:3000  index < candidates.length */\n      lt\n        /* \"contracts/Ballot/Ballot.sol\":2954:3229  for (uint index = 0; index < candidates.length; index++) {... */\n      iszero\n      tag_205\n      jumpi\n        /* \"contracts/Ballot/Ballot.sol\":3030:3072  stringEqualTo(candidates[index].name,name) */\n      tag_207\n        /* \"contracts/Ballot/Ballot.sol\":3044:3054  candidates */\n      0x02\n        /* \"contracts/Ballot/Ballot.sol\":3055:3060  index */\n      dup3\n        /* \"contracts/Ballot/Ballot.sol\":3044:3061  candidates[index] */\n      dup2\n      sload\n      dup2\n      lt\n      tag_208\n      jumpi\n      tag_209\n      tag_97\n      jump\t// in\n    tag_209:\n    tag_208:\n      swap1\n      0x00\n      mstore\n      keccak256(0x00, 0x20)\n      swap1\n      0x03\n      mul\n      add\n        /* \"contracts/Ballot/Ballot.sol\":3044:3066  candidates[index].name */\n      0x00\n      add\n        /* \"contracts/Ballot/Ballot.sol\":3030:3072  stringEqualTo(candidates[index].name,name) */\n      dup1\n      sload\n      tag_211\n      swap1\n      tag_122\n      jump\t// in\n    tag_211:\n      dup1\n      0x1f\n      add\n      0x20\n      dup1\n      swap2\n      div\n      mul\n      0x20\n      add\n      mload(0x40)\n      swap1\n      dup2\n      add\n      0x40\n      mstore\n      dup1\n      swap3\n      swap2\n      swap1\n      dup2\n      dup2\n      mstore\n      0x20\n      add\n      dup3\n      dup1\n      sload\n      tag_212\n      swap1\n      tag_122\n      jump\t// in\n    tag_212:\n      dup1\n      iszero\n      tag_213\n      jumpi\n      dup1\n      0x1f\n      lt\n      tag_214\n      jumpi\n      0x0100\n      dup1\n      dup4\n      sload\n      div\n      mul\n      dup4\n      mstore\n      swap2\n      0x20\n      add\n      swap2\n      jump(tag_213)\n    tag_214:\n      dup3\n      add\n      swap2\n      swap1\n      0x00\n      mstore\n      keccak256(0x00, 0x20)\n      swap1\n    tag_215:\n      dup2\n      sload\n      dup2\n      mstore\n      swap1\n      0x01\n      add\n      swap1\n      0x20\n      add\n      dup1\n      dup4\n      gt\n      tag_215\n      jumpi\n      dup3\n      swap1\n      sub\n      0x1f\n      and\n      dup3\n      add\n      swap2\n    tag_213:\n      pop\n      pop\n      pop\n      pop\n      pop\n        /* \"contracts/Ballot/Ballot.sol\":3067:3071  name */\n      dup6\n        /* \"contracts/Ballot/Ballot.sol\":3030:3043  stringEqualTo */\n      tag_216\n        /* \"contracts/Ballot/Ballot.sol\":3030:3072  stringEqualTo(candidates[index].name,name) */\n      jump\t// in\n    tag_207:\n        /* \"contracts/Ballot/Ballot.sol\":3026:3218  if (stringEqualTo(candidates[index].name,name)) {... */\n      iszero\n      tag_217\n      jumpi\n        /* \"contracts/Ballot/Ballot.sol\":3093:3103  candidates */\n      0x02\n        /* \"contracts/Ballot/Ballot.sol\":3104:3109  index */\n      dup2\n        /* \"contracts/Ballot/Ballot.sol\":3093:3110  candidates[index] */\n      dup2\n      sload\n      dup2\n      lt\n      tag_218\n      jumpi\n      tag_219\n      tag_97\n      jump\t// in\n    tag_219:\n    tag_218:\n      swap1\n      0x00\n      mstore\n      keccak256(0x00, 0x20)\n      swap1\n      0x03\n      mul\n      add\n        /* \"contracts/Ballot/Ballot.sol\":3093:3121  candidates[index].votesCount */\n      0x02\n      add\n      0x00\n        /* \"contracts/Ballot/Ballot.sol\":3093:3123  candidates[index].votesCount++ */\n      dup2\n      sload\n      dup1\n      swap3\n      swap2\n      swap1\n      tag_221\n      swap1\n      tag_102\n      jump\t// in\n    tag_221:\n      swap2\n      swap1\n      pop\n      sstore\n      pop\n        /* \"contracts/Ballot/Ballot.sol\":3160:3164  true */\n      0x01\n        /* \"contracts/Ballot/Ballot.sol\":3142:3148  sender */\n      dup3\n        /* \"contracts/Ballot/Ballot.sol\":3142:3157  sender.hasVoted */\n      0x00\n      add\n      0x01\n        /* \"contracts/Ballot/Ballot.sol\":3142:3164  sender.hasVoted = true */\n      0x0100\n      exp\n      dup2\n      sload\n      dup2\n      0xff\n      mul\n      not\n      and\n      swap1\n      dup4\n      iszero\n      iszero\n      mul\n      or\n      swap1\n      sstore\n      pop\n        /* \"contracts/Ballot/Ballot.sol\":3183:3200  totalVotesCounter */\n      0x03\n      0x00\n        /* \"contracts/Ballot/Ballot.sol\":3183:3202  totalVotesCounter++ */\n      dup2\n      sload\n      dup1\n      swap3\n      swap2\n      swap1\n      tag_222\n      swap1\n      tag_102\n      jump\t// in\n    tag_222:\n      swap2\n      swap1\n      pop\n      sstore\n      pop\n        /* \"contracts/Ballot/Ballot.sol\":3026:3218  if (stringEqualTo(candidates[index].name,name)) {... */\n    tag_217:\n        /* \"contracts/Ballot/Ballot.sol\":3002:3009  index++ */\n      dup1\n      dup1\n      tag_223\n      swap1\n      tag_102\n      jump\t// in\n    tag_223:\n      swap2\n      pop\n      pop\n        /* \"contracts/Ballot/Ballot.sol\":2954:3229  for (uint index = 0; index < candidates.length; index++) {... */\n      jump(tag_204)\n    tag_205:\n      pop\n        /* \"contracts/Ballot/Ballot.sol\":2790:3236  {... */\n      pop\n        /* \"contracts/Ballot/Ballot.sol\":2724:3236  function vote(string memory name) public voteModifier(msg.sender) {... */\n      pop\n      pop\n      jump\t// out\n        /* \"contracts/Ballot/Ballot.sol\":1763:1952  function getVoterVotedRequire(address voterAddress) private view {... */\n    tag_170:\n        /* \"contracts/Ballot/Ballot.sol\":1869:1896  getVoterVoter(voterAddress) */\n      tag_225\n        /* \"contracts/Ballot/Ballot.sol\":1883:1895  voterAddress */\n      dup2\n        /* \"contracts/Ballot/Ballot.sol\":1869:1882  getVoterVoter */\n      tag_81\n        /* \"contracts/Ballot/Ballot.sol\":1869:1896  getVoterVoter(voterAddress) */\n      jump\t// in\n    tag_225:\n        /* \"contracts/Ballot/Ballot.sol\":1868:1896  !getVoterVoter(voterAddress) */\n      iszero\n        /* \"contracts/Ballot/Ballot.sol\":1846:1944  require(... */\n      tag_226\n      jumpi\n      mload(0x40)\n      0x08c379a000000000000000000000000000000000000000000000000000000000\n      dup2\n      mstore\n      0x04\n      add\n      tag_227\n      swap1\n      tag_228\n      jump\t// in\n    tag_227:\n      mload(0x40)\n      dup1\n      swap2\n      sub\n      swap1\n      revert\n    tag_226:\n        /* \"contracts/Ballot/Ballot.sol\":1763:1952  function getVoterVotedRequire(address voterAddress) private view {... */\n      pop\n      jump\t// out\n        /* \"contracts/Ballot/Ballot.sol\":5278:5446  function stringEqualTo(string memory s1, string memory s2) internal pure returns (bool) {... */\n    tag_216:\n        /* \"contracts/Ballot/Ballot.sol\":5360:5364  bool */\n      0x00\n        /* \"contracts/Ballot/Ballot.sol\":5434:5436  s2 */\n      dup2\n        /* \"contracts/Ballot/Ballot.sol\":5423:5437  abi.encode(s2) */\n      add(0x20, mload(0x40))\n      tag_230\n      swap2\n      swap1\n      tag_34\n      jump\t// in\n    tag_230:\n      mload(0x40)\n      0x20\n      dup2\n      dup4\n      sub\n      sub\n      dup2\n      mstore\n      swap1\n      0x40\n      mstore\n        /* \"contracts/Ballot/Ballot.sol\":5413:5438  keccak256(abi.encode(s2)) */\n      dup1\n      mload\n      swap1\n      0x20\n      add\n      keccak256\n        /* \"contracts/Ballot/Ballot.sol\":5405:5407  s1 */\n      dup4\n        /* \"contracts/Ballot/Ballot.sol\":5394:5408  abi.encode(s1) */\n      add(0x20, mload(0x40))\n      tag_231\n      swap2\n      swap1\n      tag_34\n      jump\t// in\n    tag_231:\n      mload(0x40)\n      0x20\n      dup2\n      dup4\n      sub\n      sub\n      dup2\n      mstore\n      swap1\n      0x40\n      mstore\n        /* \"contracts/Ballot/Ballot.sol\":5384:5409  keccak256(abi.encode(s1)) */\n      dup1\n      mload\n      swap1\n      0x20\n      add\n      keccak256\n        /* \"contracts/Ballot/Ballot.sol\":5384:5438  keccak256(abi.encode(s1)) == keccak256(abi.encode(s2)) */\n      eq\n        /* \"contracts/Ballot/Ballot.sol\":5377:5438  return keccak256(abi.encode(s1)) == keccak256(abi.encode(s2)) */\n      swap1\n      pop\n        /* \"contracts/Ballot/Ballot.sol\":5278:5446  function stringEqualTo(string memory s1, string memory s2) internal pure returns (bool) {... */\n      swap3\n      swap2\n      pop\n      pop\n      jump\t// out\n        /* \"#utility.yul\":7:84   */\n    tag_232:\n        /* \"#utility.yul\":44:51   */\n      0x00\n        /* \"#utility.yul\":73:78   */\n      dup2\n        /* \"#utility.yul\":62:78   */\n      swap1\n      pop\n        /* \"#utility.yul\":7:84   */\n      swap2\n      swap1\n      pop\n      jump\t// out\n        /* \"#utility.yul\":90:208   */\n    tag_233:\n        /* \"#utility.yul\":177:201   */\n      tag_305\n        /* \"#utility.yul\":195:200   */\n      dup2\n        /* \"#utility.yul\":177:201   */\n      tag_232\n      jump\t// in\n    tag_305:\n        /* \"#utility.yul\":172:175   */\n      dup3\n        /* \"#utility.yul\":165:202   */\n      mstore\n        /* \"#utility.yul\":90:208   */\n      pop\n      pop\n      jump\t// out\n        /* \"#utility.yul\":214:436   */\n    tag_26:\n        /* \"#utility.yul\":307:311   */\n      0x00\n        /* \"#utility.yul\":345:347   */\n      0x20\n        /* \"#utility.yul\":334:343   */\n      dup3\n        /* \"#utility.yul\":330:348   */\n      add\n        /* \"#utility.yul\":322:348   */\n      swap1\n      pop\n        /* \"#utility.yul\":358:429   */\n      tag_307\n        /* \"#utility.yul\":426:427   */\n      0x00\n        /* \"#utility.yul\":415:424   */\n      dup4\n        /* \"#utility.yul\":411:428   */\n      add\n        /* \"#utility.yul\":402:408   */\n      dup5\n        /* \"#utility.yul\":358:429   */\n      tag_233\n      jump\t// in\n    tag_307:\n        /* \"#utility.yul\":214:436   */\n      swap3\n      swap2\n      pop\n      pop\n      jump\t// out\n        /* \"#utility.yul\":442:517   */\n    tag_234:\n        /* \"#utility.yul\":475:481   */\n      0x00\n        /* \"#utility.yul\":508:510   */\n      0x40\n        /* \"#utility.yul\":502:511   */\n      mload\n        /* \"#utility.yul\":492:511   */\n      swap1\n      pop\n        /* \"#utility.yul\":442:517   */\n      swap1\n      jump\t// out\n        /* \"#utility.yul\":523:640   */\n    tag_235:\n        /* \"#utility.yul\":632:633   */\n      0x00\n        /* \"#utility.yul\":629:630   */\n      dup1\n        /* \"#utility.yul\":622:634   */\n      revert\n        /* \"#utility.yul\":646:763   */\n    tag_236:\n        /* \"#utility.yul\":755:756   */\n      0x00\n        /* \"#utility.yul\":752:753   */\n      dup1\n        /* \"#utility.yul\":745:757   */\n      revert\n        /* \"#utility.yul\":769:886   */\n    tag_237:\n        /* \"#utility.yul\":878:879   */\n      0x00\n        /* \"#utility.yul\":875:876   */\n      dup1\n        /* \"#utility.yul\":868:880   */\n      revert\n        /* \"#utility.yul\":892:1009   */\n    tag_238:\n        /* \"#utility.yul\":1001:1002   */\n      0x00\n        /* \"#utility.yul\":998:999   */\n      dup1\n        /* \"#utility.yul\":991:1003   */\n      revert\n        /* \"#utility.yul\":1015:1117   */\n    tag_239:\n        /* \"#utility.yul\":1056:1062   */\n      0x00\n        /* \"#utility.yul\":1107:1109   */\n      0x1f\n        /* \"#utility.yul\":1103:1110   */\n      not\n        /* \"#utility.yul\":1098:1100   */\n      0x1f\n        /* \"#utility.yul\":1091:1096   */\n      dup4\n        /* \"#utility.yul\":1087:1101   */\n      add\n        /* \"#utility.yul\":1083:1111   */\n      and\n        /* \"#utility.yul\":1073:1111   */\n      swap1\n      pop\n        /* \"#utility.yul\":1015:1117   */\n      swap2\n      swap1\n      pop\n      jump\t// out\n        /* \"#utility.yul\":1123:1303   */\n    tag_240:\n        /* \"#utility.yul\":1171:1248   */\n      0x4e487b7100000000000000000000000000000000000000000000000000000000\n        /* \"#utility.yul\":1168:1169   */\n      0x00\n        /* \"#utility.yul\":1161:1249   */\n      mstore\n        /* \"#utility.yul\":1268:1272   */\n      0x41\n        /* \"#utility.yul\":1265:1266   */\n      0x04\n        /* \"#utility.yul\":1258:1273   */\n      mstore\n        /* \"#utility.yul\":1292:1296   */\n      0x24\n        /* \"#utility.yul\":1289:1290   */\n      0x00\n        /* \"#utility.yul\":1282:1297   */\n      revert\n        /* \"#utility.yul\":1309:1590   */\n    tag_241:\n        /* \"#utility.yul\":1392:1419   */\n      tag_316\n        /* \"#utility.yul\":1414:1418   */\n      dup3\n        /* \"#utility.yul\":1392:1419   */\n      tag_239\n      jump\t// in\n    tag_316:\n        /* \"#utility.yul\":1384:1390   */\n      dup2\n        /* \"#utility.yul\":1380:1420   */\n      add\n        /* \"#utility.yul\":1522:1528   */\n      dup2\n        /* \"#utility.yul\":1510:1520   */\n      dup2\n        /* \"#utility.yul\":1507:1529   */\n      lt\n        /* \"#utility.yul\":1486:1504   */\n      0xffffffffffffffff\n        /* \"#utility.yul\":1474:1484   */\n      dup3\n        /* \"#utility.yul\":1471:1505   */\n      gt\n        /* \"#utility.yul\":1468:1530   */\n      or\n        /* \"#utility.yul\":1465:1553   */\n      iszero\n      tag_317\n      jumpi\n        /* \"#utility.yul\":1533:1551   */\n      tag_318\n      tag_240\n      jump\t// in\n    tag_318:\n        /* \"#utility.yul\":1465:1553   */\n    tag_317:\n        /* \"#utility.yul\":1573:1583   */\n      dup1\n        /* \"#utility.yul\":1569:1571   */\n      0x40\n        /* \"#utility.yul\":1562:1584   */\n      mstore\n        /* \"#utility.yul\":1352:1590   */\n      pop\n        /* \"#utility.yul\":1309:1590   */\n      pop\n      pop\n      jump\t// out\n        /* \"#utility.yul\":1596:1725   */\n    tag_242:\n        /* \"#utility.yul\":1630:1636   */\n      0x00\n        /* \"#utility.yul\":1657:1677   */\n      tag_320\n      tag_234\n      jump\t// in\n    tag_320:\n        /* \"#utility.yul\":1647:1677   */\n      swap1\n      pop\n        /* \"#utility.yul\":1686:1719   */\n      tag_321\n        /* \"#utility.yul\":1714:1718   */\n      dup3\n        /* \"#utility.yul\":1706:1712   */\n      dup3\n        /* \"#utility.yul\":1686:1719   */\n      tag_241\n      jump\t// in\n    tag_321:\n        /* \"#utility.yul\":1596:1725   */\n      swap2\n      swap1\n      pop\n      jump\t// out\n        /* \"#utility.yul\":1731:2039   */\n    tag_243:\n        /* \"#utility.yul\":1793:1797   */\n      0x00\n        /* \"#utility.yul\":1883:1901   */\n      0xffffffffffffffff\n        /* \"#utility.yul\":1875:1881   */\n      dup3\n        /* \"#utility.yul\":1872:1902   */\n      gt\n        /* \"#utility.yul\":1869:1925   */\n      iszero\n      tag_323\n      jumpi\n        /* \"#utility.yul\":1905:1923   */\n      tag_324\n      tag_240\n      jump\t// in\n    tag_324:\n        /* \"#utility.yul\":1869:1925   */\n    tag_323:\n        /* \"#utility.yul\":1943:1972   */\n      tag_325\n        /* \"#utility.yul\":1965:1971   */\n      dup3\n        /* \"#utility.yul\":1943:1972   */\n      tag_239\n      jump\t// in\n    tag_325:\n        /* \"#utility.yul\":1935:1972   */\n      swap1\n      pop\n        /* \"#utility.yul\":2027:2031   */\n      0x20\n        /* \"#utility.yul\":2021:2025   */\n      dup2\n        /* \"#utility.yul\":2017:2032   */\n      add\n        /* \"#utility.yul\":2009:2032   */\n      swap1\n      pop\n        /* \"#utility.yul\":1731:2039   */\n      swap2\n      swap1\n      pop\n      jump\t// out\n        /* \"#utility.yul\":2045:2191   */\n    tag_244:\n        /* \"#utility.yul\":2142:2148   */\n      dup3\n        /* \"#utility.yul\":2137:2140   */\n      dup2\n        /* \"#utility.yul\":2132:2135   */\n      dup4\n        /* \"#utility.yul\":2119:2149   */\n      calldatacopy\n        /* \"#utility.yul\":2183:2184   */\n      0x00\n        /* \"#utility.yul\":2174:2180   */\n      dup4\n        /* \"#utility.yul\":2169:2172   */\n      dup4\n        /* \"#utility.yul\":2165:2181   */\n      add\n        /* \"#utility.yul\":2158:2185   */\n      mstore\n        /* \"#utility.yul\":2045:2191   */\n      pop\n      pop\n      pop\n      jump\t// out\n        /* \"#utility.yul\":2197:2622   */\n    tag_245:\n        /* \"#utility.yul\":2275:2280   */\n      0x00\n        /* \"#utility.yul\":2300:2366   */\n      tag_328\n        /* \"#utility.yul\":2316:2365   */\n      tag_329\n        /* \"#utility.yul\":2358:2364   */\n      dup5\n        /* \"#utility.yul\":2316:2365   */\n      tag_243\n      jump\t// in\n    tag_329:\n        /* \"#utility.yul\":2300:2366   */\n      tag_242\n      jump\t// in\n    tag_328:\n        /* \"#utility.yul\":2291:2366   */\n      swap1\n      pop\n        /* \"#utility.yul\":2389:2395   */\n      dup3\n        /* \"#utility.yul\":2382:2387   */\n      dup2\n        /* \"#utility.yul\":2375:2396   */\n      mstore\n        /* \"#utility.yul\":2427:2431   */\n      0x20\n        /* \"#utility.yul\":2420:2425   */\n      dup2\n        /* \"#utility.yul\":2416:2432   */\n      add\n        /* \"#utility.yul\":2465:2468   */\n      dup5\n        /* \"#utility.yul\":2456:2462   */\n      dup5\n        /* \"#utility.yul\":2451:2454   */\n      dup5\n        /* \"#utility.yul\":2447:2463   */\n      add\n        /* \"#utility.yul\":2444:2469   */\n      gt\n        /* \"#utility.yul\":2441:2553   */\n      iszero\n      tag_330\n      jumpi\n        /* \"#utility.yul\":2472:2551   */\n      tag_331\n      tag_238\n      jump\t// in\n    tag_331:\n        /* \"#utility.yul\":2441:2553   */\n    tag_330:\n        /* \"#utility.yul\":2562:2616   */\n      tag_332\n        /* \"#utility.yul\":2609:2615   */\n      dup5\n        /* \"#utility.yul\":2604:2607   */\n      dup3\n        /* \"#utility.yul\":2599:2602   */\n      dup6\n        /* \"#utility.yul\":2562:2616   */\n      tag_244\n      jump\t// in\n    tag_332:\n        /* \"#utility.yul\":2281:2622   */\n      pop\n        /* \"#utility.yul\":2197:2622   */\n      swap4\n      swap3\n      pop\n      pop\n      pop\n      jump\t// out\n        /* \"#utility.yul\":2642:2982   */\n    tag_246:\n        /* \"#utility.yul\":2698:2703   */\n      0x00\n        /* \"#utility.yul\":2747:2750   */\n      dup3\n        /* \"#utility.yul\":2740:2744   */\n      0x1f\n        /* \"#utility.yul\":2732:2738   */\n      dup4\n        /* \"#utility.yul\":2728:2745   */\n      add\n        /* \"#utility.yul\":2724:2751   */\n      slt\n        /* \"#utility.yul\":2714:2836   */\n      tag_334\n      jumpi\n        /* \"#utility.yul\":2755:2834   */\n      tag_335\n      tag_237\n      jump\t// in\n    tag_335:\n        /* \"#utility.yul\":2714:2836   */\n    tag_334:\n        /* \"#utility.yul\":2872:2878   */\n      dup2\n        /* \"#utility.yul\":2859:2879   */\n      calldataload\n        /* \"#utility.yul\":2897:2976   */\n      tag_336\n        /* \"#utility.yul\":2972:2975   */\n      dup5\n        /* \"#utility.yul\":2964:2970   */\n      dup3\n        /* \"#utility.yul\":2957:2961   */\n      0x20\n        /* \"#utility.yul\":2949:2955   */\n      dup7\n        /* \"#utility.yul\":2945:2962   */\n      add\n        /* \"#utility.yul\":2897:2976   */\n      tag_245\n      jump\t// in\n    tag_336:\n        /* \"#utility.yul\":2888:2976   */\n      swap2\n      pop\n        /* \"#utility.yul\":2704:2982   */\n      pop\n        /* \"#utility.yul\":2642:2982   */\n      swap3\n      swap2\n      pop\n      pop\n      jump\t// out\n        /* \"#utility.yul\":2988:3822   */\n    tag_29:\n        /* \"#utility.yul\":3076:3082   */\n      0x00\n        /* \"#utility.yul\":3084:3090   */\n      dup1\n        /* \"#utility.yul\":3133:3135   */\n      0x40\n        /* \"#utility.yul\":3121:3130   */\n      dup4\n        /* \"#utility.yul\":3112:3119   */\n      dup6\n        /* \"#utility.yul\":3108:3131   */\n      sub\n        /* \"#utility.yul\":3104:3136   */\n      slt\n        /* \"#utility.yul\":3101:3220   */\n      iszero\n      tag_338\n      jumpi\n        /* \"#utility.yul\":3139:3218   */\n      tag_339\n      tag_235\n      jump\t// in\n    tag_339:\n        /* \"#utility.yul\":3101:3220   */\n    tag_338:\n        /* \"#utility.yul\":3287:3288   */\n      0x00\n        /* \"#utility.yul\":3276:3285   */\n      dup4\n        /* \"#utility.yul\":3272:3289   */\n      add\n        /* \"#utility.yul\":3259:3290   */\n      calldataload\n        /* \"#utility.yul\":3317:3335   */\n      0xffffffffffffffff\n        /* \"#utility.yul\":3309:3315   */\n      dup2\n        /* \"#utility.yul\":3306:3336   */\n      gt\n        /* \"#utility.yul\":3303:3420   */\n      iszero\n      tag_340\n      jumpi\n        /* \"#utility.yul\":3339:3418   */\n      tag_341\n      tag_236\n      jump\t// in\n    tag_341:\n        /* \"#utility.yul\":3303:3420   */\n    tag_340:\n        /* \"#utility.yul\":3444:3507   */\n      tag_342\n        /* \"#utility.yul\":3499:3506   */\n      dup6\n        /* \"#utility.yul\":3490:3496   */\n      dup3\n        /* \"#utility.yul\":3479:3488   */\n      dup7\n        /* \"#utility.yul\":3475:3497   */\n      add\n        /* \"#utility.yul\":3444:3507   */\n      tag_246\n      jump\t// in\n    tag_342:\n        /* \"#utility.yul\":3434:3507   */\n      swap3\n      pop\n        /* \"#utility.yul\":3230:3517   */\n      pop\n        /* \"#utility.yul\":3584:3586   */\n      0x20\n        /* \"#utility.yul\":3573:3582   */\n      dup4\n        /* \"#utility.yul\":3569:3587   */\n      add\n        /* \"#utility.yul\":3556:3588   */\n      calldataload\n        /* \"#utility.yul\":3615:3633   */\n      0xffffffffffffffff\n        /* \"#utility.yul\":3607:3613   */\n      dup2\n        /* \"#utility.yul\":3604:3634   */\n      gt\n        /* \"#utility.yul\":3601:3718   */\n      iszero\n      tag_343\n      jumpi\n        /* \"#utility.yul\":3637:3716   */\n      tag_344\n      tag_236\n      jump\t// in\n    tag_344:\n        /* \"#utility.yul\":3601:3718   */\n    tag_343:\n        /* \"#utility.yul\":3742:3805   */\n      tag_345\n        /* \"#utility.yul\":3797:3804   */\n      dup6\n        /* \"#utility.yul\":3788:3794   */\n      dup3\n        /* \"#utility.yul\":3777:3786   */\n      dup7\n        /* \"#utility.yul\":3773:3795   */\n      add\n        /* \"#utility.yul\":3742:3805   */\n      tag_246\n      jump\t// in\n    tag_345:\n        /* \"#utility.yul\":3732:3805   */\n      swap2\n      pop\n        /* \"#utility.yul\":3527:3815   */\n      pop\n        /* \"#utility.yul\":2988:3822   */\n      swap3\n      pop\n      swap3\n      swap1\n      pop\n      jump\t// out\n        /* \"#utility.yul\":3828:3927   */\n    tag_247:\n        /* \"#utility.yul\":3880:3886   */\n      0x00\n        /* \"#utility.yul\":3914:3919   */\n      dup2\n        /* \"#utility.yul\":3908:3920   */\n      mload\n        /* \"#utility.yul\":3898:3920   */\n      swap1\n      pop\n        /* \"#utility.yul\":3828:3927   */\n      swap2\n      swap1\n      pop\n      jump\t// out\n        /* \"#utility.yul\":3933:4102   */\n    tag_248:\n        /* \"#utility.yul\":4017:4028   */\n      0x00\n        /* \"#utility.yul\":4051:4057   */\n      dup3\n        /* \"#utility.yul\":4046:4049   */\n      dup3\n        /* \"#utility.yul\":4039:4058   */\n      mstore\n        /* \"#utility.yul\":4091:4095   */\n      0x20\n        /* \"#utility.yul\":4086:4089   */\n      dup3\n        /* \"#utility.yul\":4082:4096   */\n      add\n        /* \"#utility.yul\":4067:4096   */\n      swap1\n      pop\n        /* \"#utility.yul\":3933:4102   */\n      swap3\n      swap2\n      pop\n      pop\n      jump\t// out\n        /* \"#utility.yul\":4108:4354   */\n    tag_249:\n        /* \"#utility.yul\":4189:4190   */\n      0x00\n        /* \"#utility.yul\":4199:4312   */\n    tag_349:\n        /* \"#utility.yul\":4213:4219   */\n      dup4\n        /* \"#utility.yul\":4210:4211   */\n      dup2\n        /* \"#utility.yul\":4207:4220   */\n      lt\n        /* \"#utility.yul\":4199:4312   */\n      iszero\n      tag_351\n      jumpi\n        /* \"#utility.yul\":4298:4299   */\n      dup1\n        /* \"#utility.yul\":4293:4296   */\n      dup3\n        /* \"#utility.yul\":4289:4300   */\n      add\n        /* \"#utility.yul\":4283:4301   */\n      mload\n        /* \"#utility.yul\":4279:4280   */\n      dup2\n        /* \"#utility.yul\":4274:4277   */\n      dup5\n        /* \"#utility.yul\":4270:4281   */\n      add\n        /* \"#utility.yul\":4263:4302   */\n      mstore\n        /* \"#utility.yul\":4235:4237   */\n      0x20\n        /* \"#utility.yul\":4232:4233   */\n      dup2\n        /* \"#utility.yul\":4228:4238   */\n      add\n        /* \"#utility.yul\":4223:4238   */\n      swap1\n      pop\n        /* \"#utility.yul\":4199:4312   */\n      jump(tag_349)\n    tag_351:\n        /* \"#utility.yul\":4346:4347   */\n      0x00\n        /* \"#utility.yul\":4337:4343   */\n      dup5\n        /* \"#utility.yul\":4332:4335   */\n      dup5\n        /* \"#utility.yul\":4328:4344   */\n      add\n        /* \"#utility.yul\":4321:4348   */\n      mstore\n        /* \"#utility.yul\":4170:4354   */\n      pop\n        /* \"#utility.yul\":4108:4354   */\n      pop\n      pop\n      pop\n      jump\t// out\n        /* \"#utility.yul\":4360:4737   */\n    tag_250:\n        /* \"#utility.yul\":4448:4451   */\n      0x00\n        /* \"#utility.yul\":4476:4515   */\n      tag_353\n        /* \"#utility.yul\":4509:4514   */\n      dup3\n        /* \"#utility.yul\":4476:4515   */\n      tag_247\n      jump\t// in\n    tag_353:\n        /* \"#utility.yul\":4531:4602   */\n      tag_354\n        /* \"#utility.yul\":4595:4601   */\n      dup2\n        /* \"#utility.yul\":4590:4593   */\n      dup6\n        /* \"#utility.yul\":4531:4602   */\n      tag_248\n      jump\t// in\n    tag_354:\n        /* \"#utility.yul\":4524:4602   */\n      swap4\n      pop\n        /* \"#utility.yul\":4611:4676   */\n      tag_355\n        /* \"#utility.yul\":4669:4675   */\n      dup2\n        /* \"#utility.yul\":4664:4667   */\n      dup6\n        /* \"#utility.yul\":4657:4661   */\n      0x20\n        /* \"#utility.yul\":4650:4655   */\n      dup7\n        /* \"#utility.yul\":4646:4662   */\n      add\n        /* \"#utility.yul\":4611:4676   */\n      tag_249\n      jump\t// in\n    tag_355:\n        /* \"#utility.yul\":4701:4730   */\n      tag_356\n        /* \"#utility.yul\":4723:4729   */\n      dup2\n        /* \"#utility.yul\":4701:4730   */\n      tag_239\n      jump\t// in\n    tag_356:\n        /* \"#utility.yul\":4696:4699   */\n      dup5\n        /* \"#utility.yul\":4692:4731   */\n      add\n        /* \"#utility.yul\":4685:4731   */\n      swap2\n      pop\n        /* \"#utility.yul\":4452:4737   */\n      pop\n        /* \"#utility.yul\":4360:4737   */\n      swap3\n      swap2\n      pop\n      pop\n      jump\t// out\n        /* \"#utility.yul\":4743:5056   */\n    tag_34:\n        /* \"#utility.yul\":4856:4860   */\n      0x00\n        /* \"#utility.yul\":4894:4896   */\n      0x20\n        /* \"#utility.yul\":4883:4892   */\n      dup3\n        /* \"#utility.yul\":4879:4897   */\n      add\n        /* \"#utility.yul\":4871:4897   */\n      swap1\n      pop\n        /* \"#utility.yul\":4943:4952   */\n      dup2\n        /* \"#utility.yul\":4937:4941   */\n      dup2\n        /* \"#utility.yul\":4933:4953   */\n      sub\n        /* \"#utility.yul\":4929:4930   */\n      0x00\n        /* \"#utility.yul\":4918:4927   */\n      dup4\n        /* \"#utility.yul\":4914:4931   */\n      add\n        /* \"#utility.yul\":4907:4954   */\n      mstore\n        /* \"#utility.yul\":4971:5049   */\n      tag_358\n        /* \"#utility.yul\":5044:5048   */\n      dup2\n        /* \"#utility.yul\":5035:5041   */\n      dup5\n        /* \"#utility.yul\":4971:5049   */\n      tag_250\n      jump\t// in\n    tag_358:\n        /* \"#utility.yul\":4963:5049   */\n      swap1\n      pop\n        /* \"#utility.yul\":4743:5056   */\n      swap3\n      swap2\n      pop\n      pop\n      jump\t// out\n        /* \"#utility.yul\":5062:5188   */\n    tag_251:\n        /* \"#utility.yul\":5099:5106   */\n      0x00\n        /* \"#utility.yul\":5139:5181   */\n      0xffffffffffffffffffffffffffffffffffffffff\n        /* \"#utility.yul\":5132:5137   */\n      dup3\n        /* \"#utility.yul\":5128:5182   */\n      and\n        /* \"#utility.yul\":5117:5182   */\n      swap1\n      pop\n        /* \"#utility.yul\":5062:5188   */\n      swap2\n      swap1\n      pop\n      jump\t// out\n        /* \"#utility.yul\":5194:5290   */\n    tag_252:\n        /* \"#utility.yul\":5231:5238   */\n      0x00\n        /* \"#utility.yul\":5260:5284   */\n      tag_361\n        /* \"#utility.yul\":5278:5283   */\n      dup3\n        /* \"#utility.yul\":5260:5284   */\n      tag_251\n      jump\t// in\n    tag_361:\n        /* \"#utility.yul\":5249:5284   */\n      swap1\n      pop\n        /* \"#utility.yul\":5194:5290   */\n      swap2\n      swap1\n      pop\n      jump\t// out\n        /* \"#utility.yul\":5296:5414   */\n    tag_253:\n        /* \"#utility.yul\":5383:5407   */\n      tag_363\n        /* \"#utility.yul\":5401:5406   */\n      dup2\n        /* \"#utility.yul\":5383:5407   */\n      tag_252\n      jump\t// in\n    tag_363:\n        /* \"#utility.yul\":5378:5381   */\n      dup3\n        /* \"#utility.yul\":5371:5408   */\n      mstore\n        /* \"#utility.yul\":5296:5414   */\n      pop\n      pop\n      jump\t// out\n        /* \"#utility.yul\":5420:5642   */\n    tag_38:\n        /* \"#utility.yul\":5513:5517   */\n      0x00\n        /* \"#utility.yul\":5551:5553   */\n      0x20\n        /* \"#utility.yul\":5540:5549   */\n      dup3\n        /* \"#utility.yul\":5536:5554   */\n      add\n        /* \"#utility.yul\":5528:5554   */\n      swap1\n      pop\n        /* \"#utility.yul\":5564:5635   */\n      tag_365\n        /* \"#utility.yul\":5632:5633   */\n      0x00\n        /* \"#utility.yul\":5621:5630   */\n      dup4\n        /* \"#utility.yul\":5617:5634   */\n      add\n        /* \"#utility.yul\":5608:5614   */\n      dup5\n        /* \"#utility.yul\":5564:5635   */\n      tag_253\n      jump\t// in\n    tag_365:\n        /* \"#utility.yul\":5420:5642   */\n      swap3\n      swap2\n      pop\n      pop\n      jump\t// out\n        /* \"#utility.yul\":5648:5770   */\n    tag_254:\n        /* \"#utility.yul\":5721:5745   */\n      tag_367\n        /* \"#utility.yul\":5739:5744   */\n      dup2\n        /* \"#utility.yul\":5721:5745   */\n      tag_232\n      jump\t// in\n    tag_367:\n        /* \"#utility.yul\":5714:5719   */\n      dup2\n        /* \"#utility.yul\":5711:5746   */\n      eq\n        /* \"#utility.yul\":5701:5764   */\n      tag_368\n      jumpi\n        /* \"#utility.yul\":5760:5761   */\n      0x00\n        /* \"#utility.yul\":5757:5758   */\n      dup1\n        /* \"#utility.yul\":5750:5762   */\n      revert\n        /* \"#utility.yul\":5701:5764   */\n    tag_368:\n        /* \"#utility.yul\":5648:5770   */\n      pop\n      jump\t// out\n        /* \"#utility.yul\":5776:5915   */\n    tag_255:\n        /* \"#utility.yul\":5822:5827   */\n      0x00\n        /* \"#utility.yul\":5860:5866   */\n      dup2\n        /* \"#utility.yul\":5847:5867   */\n      calldataload\n        /* \"#utility.yul\":5838:5867   */\n      swap1\n      pop\n        /* \"#utility.yul\":5876:5909   */\n      tag_370\n        /* \"#utility.yul\":5903:5908   */\n      dup2\n        /* \"#utility.yul\":5876:5909   */\n      tag_254\n      jump\t// in\n    tag_370:\n        /* \"#utility.yul\":5776:5915   */\n      swap3\n      swap2\n      pop\n      pop\n      jump\t// out\n        /* \"#utility.yul\":5921:6250   */\n    tag_41:\n        /* \"#utility.yul\":5980:5986   */\n      0x00\n        /* \"#utility.yul\":6029:6031   */\n      0x20\n        /* \"#utility.yul\":6017:6026   */\n      dup3\n        /* \"#utility.yul\":6008:6015   */\n      dup5\n        /* \"#utility.yul\":6004:6027   */\n      sub\n        /* \"#utility.yul\":6000:6032   */\n      slt\n        /* \"#utility.yul\":5997:6116   */\n      iszero\n      tag_372\n      jumpi\n        /* \"#utility.yul\":6035:6114   */\n      tag_373\n      tag_235\n      jump\t// in\n    tag_373:\n        /* \"#utility.yul\":5997:6116   */\n    tag_372:\n        /* \"#utility.yul\":6155:6156   */\n      0x00\n        /* \"#utility.yul\":6180:6233   */\n      tag_374\n        /* \"#utility.yul\":6225:6232   */\n      dup5\n        /* \"#utility.yul\":6216:6222   */\n      dup3\n        /* \"#utility.yul\":6205:6214   */\n      dup6\n        /* \"#utility.yul\":6201:6223   */\n      add\n        /* \"#utility.yul\":6180:6233   */\n      tag_255\n      jump\t// in\n    tag_374:\n        /* \"#utility.yul\":6170:6233   */\n      swap2\n      pop\n        /* \"#utility.yul\":6126:6243   */\n      pop\n        /* \"#utility.yul\":5921:6250   */\n      swap3\n      swap2\n      pop\n      pop\n      jump\t// out\n        /* \"#utility.yul\":6256:6880   */\n    tag_44:\n        /* \"#utility.yul\":6445:6449   */\n      0x00\n        /* \"#utility.yul\":6483:6485   */\n      0x60\n        /* \"#utility.yul\":6472:6481   */\n      dup3\n        /* \"#utility.yul\":6468:6486   */\n      add\n        /* \"#utility.yul\":6460:6486   */\n      swap1\n      pop\n        /* \"#utility.yul\":6532:6541   */\n      dup2\n        /* \"#utility.yul\":6526:6530   */\n      dup2\n        /* \"#utility.yul\":6522:6542   */\n      sub\n        /* \"#utility.yul\":6518:6519   */\n      0x00\n        /* \"#utility.yul\":6507:6516   */\n      dup4\n        /* \"#utility.yul\":6503:6520   */\n      add\n        /* \"#utility.yul\":6496:6543   */\n      mstore\n        /* \"#utility.yul\":6560:6638   */\n      tag_376\n        /* \"#utility.yul\":6633:6637   */\n      dup2\n        /* \"#utility.yul\":6624:6630   */\n      dup7\n        /* \"#utility.yul\":6560:6638   */\n      tag_250\n      jump\t// in\n    tag_376:\n        /* \"#utility.yul\":6552:6638   */\n      swap1\n      pop\n        /* \"#utility.yul\":6685:6694   */\n      dup2\n        /* \"#utility.yul\":6679:6683   */\n      dup2\n        /* \"#utility.yul\":6675:6695   */\n      sub\n        /* \"#utility.yul\":6670:6672   */\n      0x20\n        /* \"#utility.yul\":6659:6668   */\n      dup4\n        /* \"#utility.yul\":6655:6673   */\n      add\n        /* \"#utility.yul\":6648:6696   */\n      mstore\n        /* \"#utility.yul\":6713:6791   */\n      tag_377\n        /* \"#utility.yul\":6786:6790   */\n      dup2\n        /* \"#utility.yul\":6777:6783   */\n      dup6\n        /* \"#utility.yul\":6713:6791   */\n      tag_250\n      jump\t// in\n    tag_377:\n        /* \"#utility.yul\":6705:6791   */\n      swap1\n      pop\n        /* \"#utility.yul\":6801:6873   */\n      tag_378\n        /* \"#utility.yul\":6869:6871   */\n      0x40\n        /* \"#utility.yul\":6858:6867   */\n      dup4\n        /* \"#utility.yul\":6854:6872   */\n      add\n        /* \"#utility.yul\":6845:6851   */\n      dup5\n        /* \"#utility.yul\":6801:6873   */\n      tag_233\n      jump\t// in\n    tag_378:\n        /* \"#utility.yul\":6256:6880   */\n      swap5\n      swap4\n      pop\n      pop\n      pop\n      pop\n      jump\t// out\n        /* \"#utility.yul\":6886:6976   */\n    tag_256:\n        /* \"#utility.yul\":6920:6927   */\n      0x00\n        /* \"#utility.yul\":6963:6968   */\n      dup2\n        /* \"#utility.yul\":6956:6969   */\n      iszero\n        /* \"#utility.yul\":6949:6970   */\n      iszero\n        /* \"#utility.yul\":6938:6970   */\n      swap1\n      pop\n        /* \"#utility.yul\":6886:6976   */\n      swap2\n      swap1\n      pop\n      jump\t// out\n        /* \"#utility.yul\":6982:7091   */\n    tag_257:\n        /* \"#utility.yul\":7063:7084   */\n      tag_381\n        /* \"#utility.yul\":7078:7083   */\n      dup2\n        /* \"#utility.yul\":7063:7084   */\n      tag_256\n      jump\t// in\n    tag_381:\n        /* \"#utility.yul\":7058:7061   */\n      dup3\n        /* \"#utility.yul\":7051:7085   */\n      mstore\n        /* \"#utility.yul\":6982:7091   */\n      pop\n      pop\n      jump\t// out\n        /* \"#utility.yul\":7097:7307   */\n    tag_48:\n        /* \"#utility.yul\":7184:7188   */\n      0x00\n        /* \"#utility.yul\":7222:7224   */\n      0x20\n        /* \"#utility.yul\":7211:7220   */\n      dup3\n        /* \"#utility.yul\":7207:7225   */\n      add\n        /* \"#utility.yul\":7199:7225   */\n      swap1\n      pop\n        /* \"#utility.yul\":7235:7300   */\n      tag_383\n        /* \"#utility.yul\":7297:7298   */\n      0x00\n        /* \"#utility.yul\":7286:7295   */\n      dup4\n        /* \"#utility.yul\":7282:7299   */\n      add\n        /* \"#utility.yul\":7273:7279   */\n      dup5\n        /* \"#utility.yul\":7235:7300   */\n      tag_257\n      jump\t// in\n    tag_383:\n        /* \"#utility.yul\":7097:7307   */\n      swap3\n      swap2\n      pop\n      pop\n      jump\t// out\n        /* \"#utility.yul\":7313:7452   */\n    tag_258:\n        /* \"#utility.yul\":7405:7411   */\n      0x00\n        /* \"#utility.yul\":7439:7444   */\n      dup2\n        /* \"#utility.yul\":7433:7445   */\n      mload\n        /* \"#utility.yul\":7423:7445   */\n      swap1\n      pop\n        /* \"#utility.yul\":7313:7452   */\n      swap2\n      swap1\n      pop\n      jump\t// out\n        /* \"#utility.yul\":7458:7667   */\n    tag_259:\n        /* \"#utility.yul\":7582:7593   */\n      0x00\n        /* \"#utility.yul\":7616:7622   */\n      dup3\n        /* \"#utility.yul\":7611:7614   */\n      dup3\n        /* \"#utility.yul\":7604:7623   */\n      mstore\n        /* \"#utility.yul\":7656:7660   */\n      0x20\n        /* \"#utility.yul\":7651:7654   */\n      dup3\n        /* \"#utility.yul\":7647:7661   */\n      add\n        /* \"#utility.yul\":7632:7661   */\n      swap1\n      pop\n        /* \"#utility.yul\":7458:7667   */\n      swap3\n      swap2\n      pop\n      pop\n      jump\t// out\n        /* \"#utility.yul\":7673:7830   */\n    tag_260:\n        /* \"#utility.yul\":7765:7769   */\n      0x00\n        /* \"#utility.yul\":7788:7791   */\n      dup2\n        /* \"#utility.yul\":7780:7791   */\n      swap1\n      pop\n        /* \"#utility.yul\":7818:7822   */\n      0x20\n        /* \"#utility.yul\":7813:7816   */\n      dup3\n        /* \"#utility.yul\":7809:7823   */\n      add\n        /* \"#utility.yul\":7801:7823   */\n      swap1\n      pop\n        /* \"#utility.yul\":7673:7830   */\n      swap2\n      swap1\n      pop\n      jump\t// out\n        /* \"#utility.yul\":7836:7995   */\n    tag_261:\n        /* \"#utility.yul\":7910:7921   */\n      0x00\n        /* \"#utility.yul\":7944:7950   */\n      dup3\n        /* \"#utility.yul\":7939:7942   */\n      dup3\n        /* \"#utility.yul\":7932:7951   */\n      mstore\n        /* \"#utility.yul\":7984:7988   */\n      0x20\n        /* \"#utility.yul\":7979:7982   */\n      dup3\n        /* \"#utility.yul\":7975:7989   */\n      add\n        /* \"#utility.yul\":7960:7989   */\n      swap1\n      pop\n        /* \"#utility.yul\":7836:7995   */\n      swap3\n      swap2\n      pop\n      pop\n      jump\t// out\n        /* \"#utility.yul\":8001:8358   */\n    tag_262:\n        /* \"#utility.yul\":8079:8082   */\n      0x00\n        /* \"#utility.yul\":8107:8146   */\n      tag_389\n        /* \"#utility.yul\":8140:8145   */\n      dup3\n        /* \"#utility.yul\":8107:8146   */\n      tag_247\n      jump\t// in\n    tag_389:\n        /* \"#utility.yul\":8162:8223   */\n      tag_390\n        /* \"#utility.yul\":8216:8222   */\n      dup2\n        /* \"#utility.yul\":8211:8214   */\n      dup6\n        /* \"#utility.yul\":8162:8223   */\n      tag_261\n      jump\t// in\n    tag_390:\n        /* \"#utility.yul\":8155:8223   */\n      swap4\n      pop\n        /* \"#utility.yul\":8232:8297   */\n      tag_391\n        /* \"#utility.yul\":8290:8296   */\n      dup2\n        /* \"#utility.yul\":8285:8288   */\n      dup6\n        /* \"#utility.yul\":8278:8282   */\n      0x20\n        /* \"#utility.yul\":8271:8276   */\n      dup7\n        /* \"#utility.yul\":8267:8283   */\n      add\n        /* \"#utility.yul\":8232:8297   */\n      tag_249\n      jump\t// in\n    tag_391:\n        /* \"#utility.yul\":8322:8351   */\n      tag_392\n        /* \"#utility.yul\":8344:8350   */\n      dup2\n        /* \"#utility.yul\":8322:8351   */\n      tag_239\n      jump\t// in\n    tag_392:\n        /* \"#utility.yul\":8317:8320   */\n      dup5\n        /* \"#utility.yul\":8313:8352   */\n      add\n        /* \"#utility.yul\":8306:8352   */\n      swap2\n      pop\n        /* \"#utility.yul\":8083:8358   */\n      pop\n        /* \"#utility.yul\":8001:8358   */\n      swap3\n      swap2\n      pop\n      pop\n      jump\t// out\n        /* \"#utility.yul\":8364:8472   */\n    tag_263:\n        /* \"#utility.yul\":8441:8465   */\n      tag_394\n        /* \"#utility.yul\":8459:8464   */\n      dup2\n        /* \"#utility.yul\":8441:8465   */\n      tag_232\n      jump\t// in\n    tag_394:\n        /* \"#utility.yul\":8436:8439   */\n      dup3\n        /* \"#utility.yul\":8429:8466   */\n      mstore\n        /* \"#utility.yul\":8364:8472   */\n      pop\n      pop\n      jump\t// out\n        /* \"#utility.yul\":8540:9388   */\n    tag_264:\n        /* \"#utility.yul\":8649:8652   */\n      0x00\n        /* \"#utility.yul\":8685:8689   */\n      0x60\n        /* \"#utility.yul\":8680:8683   */\n      dup4\n        /* \"#utility.yul\":8676:8690   */\n      add\n        /* \"#utility.yul\":8772:8776   */\n      0x00\n        /* \"#utility.yul\":8765:8770   */\n      dup4\n        /* \"#utility.yul\":8761:8777   */\n      add\n        /* \"#utility.yul\":8755:8778   */\n      mload\n        /* \"#utility.yul\":8825:8828   */\n      dup5\n        /* \"#utility.yul\":8819:8823   */\n      dup3\n        /* \"#utility.yul\":8815:8829   */\n      sub\n        /* \"#utility.yul\":8808:8812   */\n      0x00\n        /* \"#utility.yul\":8803:8806   */\n      dup7\n        /* \"#utility.yul\":8799:8813   */\n      add\n        /* \"#utility.yul\":8792:8830   */\n      mstore\n        /* \"#utility.yul\":8851:8924   */\n      tag_396\n        /* \"#utility.yul\":8919:8923   */\n      dup3\n        /* \"#utility.yul\":8905:8917   */\n      dup3\n        /* \"#utility.yul\":8851:8924   */\n      tag_262\n      jump\t// in\n    tag_396:\n        /* \"#utility.yul\":8843:8924   */\n      swap2\n      pop\n        /* \"#utility.yul\":8700:8935   */\n      pop\n        /* \"#utility.yul\":9018:9022   */\n      0x20\n        /* \"#utility.yul\":9011:9016   */\n      dup4\n        /* \"#utility.yul\":9007:9023   */\n      add\n        /* \"#utility.yul\":9001:9024   */\n      mload\n        /* \"#utility.yul\":9071:9074   */\n      dup5\n        /* \"#utility.yul\":9065:9069   */\n      dup3\n        /* \"#utility.yul\":9061:9075   */\n      sub\n        /* \"#utility.yul\":9054:9058   */\n      0x20\n        /* \"#utility.yul\":9049:9052   */\n      dup7\n        /* \"#utility.yul\":9045:9059   */\n      add\n        /* \"#utility.yul\":9038:9076   */\n      mstore\n        /* \"#utility.yul\":9097:9170   */\n      tag_397\n        /* \"#utility.yul\":9165:9169   */\n      dup3\n        /* \"#utility.yul\":9151:9163   */\n      dup3\n        /* \"#utility.yul\":9097:9170   */\n      tag_262\n      jump\t// in\n    tag_397:\n        /* \"#utility.yul\":9089:9170   */\n      swap2\n      pop\n        /* \"#utility.yul\":8945:9181   */\n      pop\n        /* \"#utility.yul\":9269:9273   */\n      0x40\n        /* \"#utility.yul\":9262:9267   */\n      dup4\n        /* \"#utility.yul\":9258:9274   */\n      add\n        /* \"#utility.yul\":9252:9275   */\n      mload\n        /* \"#utility.yul\":9288:9351   */\n      tag_398\n        /* \"#utility.yul\":9345:9349   */\n      0x40\n        /* \"#utility.yul\":9340:9343   */\n      dup7\n        /* \"#utility.yul\":9336:9350   */\n      add\n        /* \"#utility.yul\":9322:9334   */\n      dup3\n        /* \"#utility.yul\":9288:9351   */\n      tag_263\n      jump\t// in\n    tag_398:\n        /* \"#utility.yul\":9191:9361   */\n      pop\n        /* \"#utility.yul\":9378:9382   */\n      dup1\n        /* \"#utility.yul\":9371:9382   */\n      swap2\n      pop\n        /* \"#utility.yul\":8654:9388   */\n      pop\n        /* \"#utility.yul\":8540:9388   */\n      swap3\n      swap2\n      pop\n      pop\n      jump\t// out\n        /* \"#utility.yul\":9394:9650   */\n    tag_265:\n        /* \"#utility.yul\":9513:9523   */\n      0x00\n        /* \"#utility.yul\":9548:9644   */\n      tag_400\n        /* \"#utility.yul\":9640:9643   */\n      dup4\n        /* \"#utility.yul\":9632:9638   */\n      dup4\n        /* \"#utility.yul\":9548:9644   */\n      tag_264\n      jump\t// in\n    tag_400:\n        /* \"#utility.yul\":9534:9644   */\n      swap1\n      pop\n        /* \"#utility.yul\":9394:9650   */\n      swap3\n      swap2\n      pop\n      pop\n      jump\t// out\n        /* \"#utility.yul\":9656:9794   */\n    tag_266:\n        /* \"#utility.yul\":9751:9755   */\n      0x00\n        /* \"#utility.yul\":9783:9787   */\n      0x20\n        /* \"#utility.yul\":9778:9781   */\n      dup3\n        /* \"#utility.yul\":9774:9788   */\n      add\n        /* \"#utility.yul\":9766:9788   */\n      swap1\n      pop\n        /* \"#utility.yul\":9656:9794   */\n      swap2\n      swap1\n      pop\n      jump\t// out\n        /* \"#utility.yul\":9866:10977   */\n    tag_267:\n        /* \"#utility.yul\":10035:10038   */\n      0x00\n        /* \"#utility.yul\":10064:10143   */\n      tag_403\n        /* \"#utility.yul\":10137:10142   */\n      dup3\n        /* \"#utility.yul\":10064:10143   */\n      tag_258\n      jump\t// in\n    tag_403:\n        /* \"#utility.yul\":10159:10270   */\n      tag_404\n        /* \"#utility.yul\":10263:10269   */\n      dup2\n        /* \"#utility.yul\":10258:10261   */\n      dup6\n        /* \"#utility.yul\":10159:10270   */\n      tag_259\n      jump\t// in\n    tag_404:\n        /* \"#utility.yul\":10152:10270   */\n      swap4\n      pop\n        /* \"#utility.yul\":10296:10299   */\n      dup4\n        /* \"#utility.yul\":10341:10345   */\n      0x20\n        /* \"#utility.yul\":10333:10339   */\n      dup3\n        /* \"#utility.yul\":10329:10346   */\n      mul\n        /* \"#utility.yul\":10324:10327   */\n      dup6\n        /* \"#utility.yul\":10320:10347   */\n      add\n        /* \"#utility.yul\":10371:10452   */\n      tag_405\n        /* \"#utility.yul\":10446:10451   */\n      dup6\n        /* \"#utility.yul\":10371:10452   */\n      tag_260\n      jump\t// in\n    tag_405:\n        /* \"#utility.yul\":10475:10482   */\n      dup1\n        /* \"#utility.yul\":10506:10507   */\n      0x00\n        /* \"#utility.yul\":10491:10932   */\n    tag_406:\n        /* \"#utility.yul\":10516:10522   */\n      dup6\n        /* \"#utility.yul\":10513:10514   */\n      dup2\n        /* \"#utility.yul\":10510:10523   */\n      lt\n        /* \"#utility.yul\":10491:10932   */\n      iszero\n      tag_408\n      jumpi\n        /* \"#utility.yul\":10587:10596   */\n      dup5\n        /* \"#utility.yul\":10581:10585   */\n      dup5\n        /* \"#utility.yul\":10577:10597   */\n      sub\n        /* \"#utility.yul\":10572:10575   */\n      dup10\n        /* \"#utility.yul\":10565:10598   */\n      mstore\n        /* \"#utility.yul\":10638:10644   */\n      dup2\n        /* \"#utility.yul\":10632:10645   */\n      mload\n        /* \"#utility.yul\":10666:10780   */\n      tag_409\n        /* \"#utility.yul\":10775:10779   */\n      dup6\n        /* \"#utility.yul\":10760:10773   */\n      dup3\n        /* \"#utility.yul\":10666:10780   */\n      tag_265\n      jump\t// in\n    tag_409:\n        /* \"#utility.yul\":10658:10780   */\n      swap5\n      pop\n        /* \"#utility.yul\":10803:10888   */\n      tag_410\n        /* \"#utility.yul\":10881:10887   */\n      dup4\n        /* \"#utility.yul\":10803:10888   */\n      tag_266\n      jump\t// in\n    tag_410:\n        /* \"#utility.yul\":10793:10888   */\n      swap3\n      pop\n        /* \"#utility.yul\":10917:10921   */\n      0x20\n        /* \"#utility.yul\":10912:10915   */\n      dup11\n        /* \"#utility.yul\":10908:10922   */\n      add\n        /* \"#utility.yul\":10901:10922   */\n      swap10\n      pop\n        /* \"#utility.yul\":10551:10932   */\n      pop\n        /* \"#utility.yul\":10538:10539   */\n      0x01\n        /* \"#utility.yul\":10535:10536   */\n      dup2\n        /* \"#utility.yul\":10531:10540   */\n      add\n        /* \"#utility.yul\":10526:10540   */\n      swap1\n      pop\n        /* \"#utility.yul\":10491:10932   */\n      jump(tag_406)\n    tag_408:\n        /* \"#utility.yul\":10495:10509   */\n      pop\n        /* \"#utility.yul\":10948:10952   */\n      dup3\n        /* \"#utility.yul\":10941:10952   */\n      swap8\n      pop\n        /* \"#utility.yul\":10968:10971   */\n      dup8\n        /* \"#utility.yul\":10961:10971   */\n      swap6\n      pop\n        /* \"#utility.yul\":10040:10977   */\n      pop\n      pop\n      pop\n      pop\n      pop\n        /* \"#utility.yul\":9866:10977   */\n      swap3\n      swap2\n      pop\n      pop\n      jump\t// out\n        /* \"#utility.yul\":10983:11456   */\n    tag_52:\n        /* \"#utility.yul\":11176:11180   */\n      0x00\n        /* \"#utility.yul\":11214:11216   */\n      0x20\n        /* \"#utility.yul\":11203:11212   */\n      dup3\n        /* \"#utility.yul\":11199:11217   */\n      add\n        /* \"#utility.yul\":11191:11217   */\n      swap1\n      pop\n        /* \"#utility.yul\":11263:11272   */\n      dup2\n        /* \"#utility.yul\":11257:11261   */\n      dup2\n        /* \"#utility.yul\":11253:11273   */\n      sub\n        /* \"#utility.yul\":11249:11250   */\n      0x00\n        /* \"#utility.yul\":11238:11247   */\n      dup4\n        /* \"#utility.yul\":11234:11251   */\n      add\n        /* \"#utility.yul\":11227:11274   */\n      mstore\n        /* \"#utility.yul\":11291:11449   */\n      tag_412\n        /* \"#utility.yul\":11444:11448   */\n      dup2\n        /* \"#utility.yul\":11435:11441   */\n      dup5\n        /* \"#utility.yul\":11291:11449   */\n      tag_267\n      jump\t// in\n    tag_412:\n        /* \"#utility.yul\":11283:11449   */\n      swap1\n      pop\n        /* \"#utility.yul\":10983:11456   */\n      swap3\n      swap2\n      pop\n      pop\n      jump\t// out\n        /* \"#utility.yul\":11462:11584   */\n    tag_268:\n        /* \"#utility.yul\":11535:11559   */\n      tag_414\n        /* \"#utility.yul\":11553:11558   */\n      dup2\n        /* \"#utility.yul\":11535:11559   */\n      tag_252\n      jump\t// in\n    tag_414:\n        /* \"#utility.yul\":11528:11533   */\n      dup2\n        /* \"#utility.yul\":11525:11560   */\n      eq\n        /* \"#utility.yul\":11515:11578   */\n      tag_415\n      jumpi\n        /* \"#utility.yul\":11574:11575   */\n      0x00\n        /* \"#utility.yul\":11571:11572   */\n      dup1\n        /* \"#utility.yul\":11564:11576   */\n      revert\n        /* \"#utility.yul\":11515:11578   */\n    tag_415:\n        /* \"#utility.yul\":11462:11584   */\n      pop\n      jump\t// out\n        /* \"#utility.yul\":11590:11729   */\n    tag_269:\n        /* \"#utility.yul\":11636:11641   */\n      0x00\n        /* \"#utility.yul\":11674:11680   */\n      dup2\n        /* \"#utility.yul\":11661:11681   */\n      calldataload\n        /* \"#utility.yul\":11652:11681   */\n      swap1\n      pop\n        /* \"#utility.yul\":11690:11723   */\n      tag_417\n        /* \"#utility.yul\":11717:11722   */\n      dup2\n        /* \"#utility.yul\":11690:11723   */\n      tag_268\n      jump\t// in\n    tag_417:\n        /* \"#utility.yul\":11590:11729   */\n      swap3\n      swap2\n      pop\n      pop\n      jump\t// out\n        /* \"#utility.yul\":11735:12064   */\n    tag_55:\n        /* \"#utility.yul\":11794:11800   */\n      0x00\n        /* \"#utility.yul\":11843:11845   */\n      0x20\n        /* \"#utility.yul\":11831:11840   */\n      dup3\n        /* \"#utility.yul\":11822:11829   */\n      dup5\n        /* \"#utility.yul\":11818:11841   */\n      sub\n        /* \"#utility.yul\":11814:11846   */\n      slt\n        /* \"#utility.yul\":11811:11930   */\n      iszero\n      tag_419\n      jumpi\n        /* \"#utility.yul\":11849:11928   */\n      tag_420\n      tag_235\n      jump\t// in\n    tag_420:\n        /* \"#utility.yul\":11811:11930   */\n    tag_419:\n        /* \"#utility.yul\":11969:11970   */\n      0x00\n        /* \"#utility.yul\":11994:12047   */\n      tag_421\n        /* \"#utility.yul\":12039:12046   */\n      dup5\n        /* \"#utility.yul\":12030:12036   */\n      dup3\n        /* \"#utility.yul\":12019:12028   */\n      dup6\n        /* \"#utility.yul\":12015:12037   */\n      add\n        /* \"#utility.yul\":11994:12047   */\n      tag_269\n      jump\t// in\n    tag_421:\n        /* \"#utility.yul\":11984:12047   */\n      swap2\n      pop\n        /* \"#utility.yul\":11940:12057   */\n      pop\n        /* \"#utility.yul\":11735:12064   */\n      swap3\n      swap2\n      pop\n      pop\n      jump\t// out\n        /* \"#utility.yul\":12070:12187   */\n    tag_270:\n        /* \"#utility.yul\":12179:12180   */\n      0x00\n        /* \"#utility.yul\":12176:12177   */\n      dup1\n        /* \"#utility.yul\":12169:12181   */\n      revert\n        /* \"#utility.yul\":12193:12310   */\n    tag_271:\n        /* \"#utility.yul\":12302:12303   */\n      0x00\n        /* \"#utility.yul\":12299:12300   */\n      dup1\n        /* \"#utility.yul\":12292:12304   */\n      revert\n        /* \"#utility.yul\":12349:13431   */\n    tag_272:\n        /* \"#utility.yul\":12423:12428   */\n      0x00\n        /* \"#utility.yul\":12467:12471   */\n      0x60\n        /* \"#utility.yul\":12455:12464   */\n      dup3\n        /* \"#utility.yul\":12450:12453   */\n      dup5\n        /* \"#utility.yul\":12446:12465   */\n      sub\n        /* \"#utility.yul\":12442:12472   */\n      slt\n        /* \"#utility.yul\":12439:12556   */\n      iszero\n      tag_425\n      jumpi\n        /* \"#utility.yul\":12475:12554   */\n      tag_426\n      tag_270\n      jump\t// in\n    tag_426:\n        /* \"#utility.yul\":12439:12556   */\n    tag_425:\n        /* \"#utility.yul\":12574:12595   */\n      tag_427\n        /* \"#utility.yul\":12590:12594   */\n      0x60\n        /* \"#utility.yul\":12574:12595   */\n      tag_242\n      jump\t// in\n    tag_427:\n        /* \"#utility.yul\":12565:12595   */\n      swap1\n      pop\n        /* \"#utility.yul\":12682:12683   */\n      0x00\n        /* \"#utility.yul\":12671:12680   */\n      dup3\n        /* \"#utility.yul\":12667:12684   */\n      add\n        /* \"#utility.yul\":12654:12685   */\n      calldataload\n        /* \"#utility.yul\":12712:12730   */\n      0xffffffffffffffff\n        /* \"#utility.yul\":12704:12710   */\n      dup2\n        /* \"#utility.yul\":12701:12731   */\n      gt\n        /* \"#utility.yul\":12698:12815   */\n      iszero\n      tag_428\n      jumpi\n        /* \"#utility.yul\":12734:12813   */\n      tag_429\n      tag_271\n      jump\t// in\n    tag_429:\n        /* \"#utility.yul\":12698:12815   */\n    tag_428:\n        /* \"#utility.yul\":12854:12913   */\n      tag_430\n        /* \"#utility.yul\":12909:12912   */\n      dup5\n        /* \"#utility.yul\":12900:12906   */\n      dup3\n        /* \"#utility.yul\":12889:12898   */\n      dup6\n        /* \"#utility.yul\":12885:12907   */\n      add\n        /* \"#utility.yul\":12854:12913   */\n      tag_246\n      jump\t// in\n    tag_430:\n        /* \"#utility.yul\":12847:12851   */\n      0x00\n        /* \"#utility.yul\":12840:12845   */\n      dup4\n        /* \"#utility.yul\":12836:12852   */\n      add\n        /* \"#utility.yul\":12829:12914   */\n      mstore\n        /* \"#utility.yul\":12605:12925   */\n      pop\n        /* \"#utility.yul\":13013:13015   */\n      0x20\n        /* \"#utility.yul\":13002:13011   */\n      dup3\n        /* \"#utility.yul\":12998:13016   */\n      add\n        /* \"#utility.yul\":12985:13017   */\n      calldataload\n        /* \"#utility.yul\":13044:13062   */\n      0xffffffffffffffff\n        /* \"#utility.yul\":13036:13042   */\n      dup2\n        /* \"#utility.yul\":13033:13063   */\n      gt\n        /* \"#utility.yul\":13030:13147   */\n      iszero\n      tag_431\n      jumpi\n        /* \"#utility.yul\":13066:13145   */\n      tag_432\n      tag_271\n      jump\t// in\n    tag_432:\n        /* \"#utility.yul\":13030:13147   */\n    tag_431:\n        /* \"#utility.yul\":13186:13245   */\n      tag_433\n        /* \"#utility.yul\":13241:13244   */\n      dup5\n        /* \"#utility.yul\":13232:13238   */\n      dup3\n        /* \"#utility.yul\":13221:13230   */\n      dup6\n        /* \"#utility.yul\":13217:13239   */\n      add\n        /* \"#utility.yul\":13186:13245   */\n      tag_246\n      jump\t// in\n    tag_433:\n        /* \"#utility.yul\":13179:13183   */\n      0x20\n        /* \"#utility.yul\":13172:13177   */\n      dup4\n        /* \"#utility.yul\":13168:13184   */\n      add\n        /* \"#utility.yul\":13161:13246   */\n      mstore\n        /* \"#utility.yul\":12935:13257   */\n      pop\n        /* \"#utility.yul\":13322:13324   */\n      0x40\n        /* \"#utility.yul\":13363:13412   */\n      tag_434\n        /* \"#utility.yul\":13408:13411   */\n      dup5\n        /* \"#utility.yul\":13399:13405   */\n      dup3\n        /* \"#utility.yul\":13388:13397   */\n      dup6\n        /* \"#utility.yul\":13384:13406   */\n      add\n        /* \"#utility.yul\":13363:13412   */\n      tag_255\n      jump\t// in\n    tag_434:\n        /* \"#utility.yul\":13356:13360   */\n      0x40\n        /* \"#utility.yul\":13349:13354   */\n      dup4\n        /* \"#utility.yul\":13345:13361   */\n      add\n        /* \"#utility.yul\":13338:13413   */\n      mstore\n        /* \"#utility.yul\":13267:13424   */\n      pop\n        /* \"#utility.yul\":12349:13431   */\n      swap3\n      swap2\n      pop\n      pop\n      jump\t// out\n        /* \"#utility.yul\":13437:13976   */\n    tag_60:\n        /* \"#utility.yul\":13521:13527   */\n      0x00\n        /* \"#utility.yul\":13570:13572   */\n      0x20\n        /* \"#utility.yul\":13558:13567   */\n      dup3\n        /* \"#utility.yul\":13549:13556   */\n      dup5\n        /* \"#utility.yul\":13545:13568   */\n      sub\n        /* \"#utility.yul\":13541:13573   */\n      slt\n        /* \"#utility.yul\":13538:13657   */\n      iszero\n      tag_436\n      jumpi\n        /* \"#utility.yul\":13576:13655   */\n      tag_437\n      tag_235\n      jump\t// in\n    tag_437:\n        /* \"#utility.yul\":13538:13657   */\n    tag_436:\n        /* \"#utility.yul\":13724:13725   */\n      0x00\n        /* \"#utility.yul\":13713:13722   */\n      dup3\n        /* \"#utility.yul\":13709:13726   */\n      add\n        /* \"#utility.yul\":13696:13727   */\n      calldataload\n        /* \"#utility.yul\":13754:13772   */\n      0xffffffffffffffff\n        /* \"#utility.yul\":13746:13752   */\n      dup2\n        /* \"#utility.yul\":13743:13773   */\n      gt\n        /* \"#utility.yul\":13740:13857   */\n      iszero\n      tag_438\n      jumpi\n        /* \"#utility.yul\":13776:13855   */\n      tag_439\n      tag_236\n      jump\t// in\n    tag_439:\n        /* \"#utility.yul\":13740:13857   */\n    tag_438:\n        /* \"#utility.yul\":13881:13959   */\n      tag_440\n        /* \"#utility.yul\":13951:13958   */\n      dup5\n        /* \"#utility.yul\":13942:13948   */\n      dup3\n        /* \"#utility.yul\":13931:13940   */\n      dup6\n        /* \"#utility.yul\":13927:13949   */\n      add\n        /* \"#utility.yul\":13881:13959   */\n      tag_272\n      jump\t// in\n    tag_440:\n        /* \"#utility.yul\":13871:13959   */\n      swap2\n      pop\n        /* \"#utility.yul\":13667:13969   */\n      pop\n        /* \"#utility.yul\":13437:13976   */\n      swap3\n      swap2\n      pop\n      pop\n      jump\t// out\n        /* \"#utility.yul\":13982:14290   */\n    tag_69:\n        /* \"#utility.yul\":14091:14095   */\n      0x00\n        /* \"#utility.yul\":14129:14131   */\n      0x40\n        /* \"#utility.yul\":14118:14127   */\n      dup3\n        /* \"#utility.yul\":14114:14132   */\n      add\n        /* \"#utility.yul\":14106:14132   */\n      swap1\n      pop\n        /* \"#utility.yul\":14142:14207   */\n      tag_442\n        /* \"#utility.yul\":14204:14205   */\n      0x00\n        /* \"#utility.yul\":14193:14202   */\n      dup4\n        /* \"#utility.yul\":14189:14206   */\n      add\n        /* \"#utility.yul\":14180:14186   */\n      dup6\n        /* \"#utility.yul\":14142:14207   */\n      tag_257\n      jump\t// in\n    tag_442:\n        /* \"#utility.yul\":14217:14283   */\n      tag_443\n        /* \"#utility.yul\":14279:14281   */\n      0x20\n        /* \"#utility.yul\":14268:14277   */\n      dup4\n        /* \"#utility.yul\":14264:14282   */\n      add\n        /* \"#utility.yul\":14255:14261   */\n      dup5\n        /* \"#utility.yul\":14217:14283   */\n      tag_257\n      jump\t// in\n    tag_443:\n        /* \"#utility.yul\":13982:14290   */\n      swap4\n      swap3\n      pop\n      pop\n      pop\n      jump\t// out\n        /* \"#utility.yul\":14296:14616   */\n    tag_86:\n        /* \"#utility.yul\":14411:14415   */\n      0x00\n        /* \"#utility.yul\":14449:14451   */\n      0x40\n        /* \"#utility.yul\":14438:14447   */\n      dup3\n        /* \"#utility.yul\":14434:14452   */\n      add\n        /* \"#utility.yul\":14426:14452   */\n      swap1\n      pop\n        /* \"#utility.yul\":14462:14533   */\n      tag_445\n        /* \"#utility.yul\":14530:14531   */\n      0x00\n        /* \"#utility.yul\":14519:14528   */\n      dup4\n        /* \"#utility.yul\":14515:14532   */\n      add\n        /* \"#utility.yul\":14506:14512   */\n      dup6\n        /* \"#utility.yul\":14462:14533   */\n      tag_233\n      jump\t// in\n    tag_445:\n        /* \"#utility.yul\":14543:14609   */\n      tag_446\n        /* \"#utility.yul\":14605:14607   */\n      0x20\n        /* \"#utility.yul\":14594:14603   */\n      dup4\n        /* \"#utility.yul\":14590:14608   */\n      add\n        /* \"#utility.yul\":14581:14587   */\n      dup5\n        /* \"#utility.yul\":14543:14609   */\n      tag_257\n      jump\t// in\n    tag_446:\n        /* \"#utility.yul\":14296:14616   */\n      swap4\n      swap3\n      pop\n      pop\n      pop\n      jump\t// out\n        /* \"#utility.yul\":14622:15131   */\n    tag_89:\n        /* \"#utility.yul\":14691:14697   */\n      0x00\n        /* \"#utility.yul\":14740:14742   */\n      0x20\n        /* \"#utility.yul\":14728:14737   */\n      dup3\n        /* \"#utility.yul\":14719:14726   */\n      dup5\n        /* \"#utility.yul\":14715:14738   */\n      sub\n        /* \"#utility.yul\":14711:14743   */\n      slt\n        /* \"#utility.yul\":14708:14827   */\n      iszero\n      tag_448\n      jumpi\n        /* \"#utility.yul\":14746:14825   */\n      tag_449\n      tag_235\n      jump\t// in\n    tag_449:\n        /* \"#utility.yul\":14708:14827   */\n    tag_448:\n        /* \"#utility.yul\":14894:14895   */\n      0x00\n        /* \"#utility.yul\":14883:14892   */\n      dup3\n        /* \"#utility.yul\":14879:14896   */\n      add\n        /* \"#utility.yul\":14866:14897   */\n      calldataload\n        /* \"#utility.yul\":14924:14942   */\n      0xffffffffffffffff\n        /* \"#utility.yul\":14916:14922   */\n      dup2\n        /* \"#utility.yul\":14913:14943   */\n      gt\n        /* \"#utility.yul\":14910:15027   */\n      iszero\n      tag_450\n      jumpi\n        /* \"#utility.yul\":14946:15025   */\n      tag_451\n      tag_236\n      jump\t// in\n    tag_451:\n        /* \"#utility.yul\":14910:15027   */\n    tag_450:\n        /* \"#utility.yul\":15051:15114   */\n      tag_452\n        /* \"#utility.yul\":15106:15113   */\n      dup5\n        /* \"#utility.yul\":15097:15103   */\n      dup3\n        /* \"#utility.yul\":15086:15095   */\n      dup6\n        /* \"#utility.yul\":15082:15104   */\n      add\n        /* \"#utility.yul\":15051:15114   */\n      tag_246\n      jump\t// in\n    tag_452:\n        /* \"#utility.yul\":15041:15114   */\n      swap2\n      pop\n        /* \"#utility.yul\":14837:15124   */\n      pop\n        /* \"#utility.yul\":14622:15131   */\n      swap3\n      swap2\n      pop\n      pop\n      jump\t// out\n        /* \"#utility.yul\":15137:15317   */\n    tag_97:\n        /* \"#utility.yul\":15185:15262   */\n      0x4e487b7100000000000000000000000000000000000000000000000000000000\n        /* \"#utility.yul\":15182:15183   */\n      0x00\n        /* \"#utility.yul\":15175:15263   */\n      mstore\n        /* \"#utility.yul\":15282:15286   */\n      0x32\n        /* \"#utility.yul\":15279:15280   */\n      0x04\n        /* \"#utility.yul\":15272:15287   */\n      mstore\n        /* \"#utility.yul\":15306:15310   */\n      0x24\n        /* \"#utility.yul\":15303:15304   */\n      0x00\n        /* \"#utility.yul\":15296:15311   */\n      revert\n        /* \"#utility.yul\":15323:15503   */\n    tag_273:\n        /* \"#utility.yul\":15371:15448   */\n      0x4e487b7100000000000000000000000000000000000000000000000000000000\n        /* \"#utility.yul\":15368:15369   */\n      0x00\n        /* \"#utility.yul\":15361:15449   */\n      mstore\n        /* \"#utility.yul\":15468:15472   */\n      0x11\n        /* \"#utility.yul\":15465:15466   */\n      0x04\n        /* \"#utility.yul\":15458:15473   */\n      mstore\n        /* \"#utility.yul\":15492:15496   */\n      0x24\n        /* \"#utility.yul\":15489:15490   */\n      0x00\n        /* \"#utility.yul\":15482:15497   */\n      revert\n        /* \"#utility.yul\":15509:15700   */\n    tag_100:\n        /* \"#utility.yul\":15549:15552   */\n      0x00\n        /* \"#utility.yul\":15568:15588   */\n      tag_456\n        /* \"#utility.yul\":15586:15587   */\n      dup3\n        /* \"#utility.yul\":15568:15588   */\n      tag_232\n      jump\t// in\n    tag_456:\n        /* \"#utility.yul\":15563:15588   */\n      swap2\n      pop\n        /* \"#utility.yul\":15602:15622   */\n      tag_457\n        /* \"#utility.yul\":15620:15621   */\n      dup4\n        /* \"#utility.yul\":15602:15622   */\n      tag_232\n      jump\t// in\n    tag_457:\n        /* \"#utility.yul\":15597:15622   */\n      swap3\n      pop\n        /* \"#utility.yul\":15645:15646   */\n      dup3\n        /* \"#utility.yul\":15642:15643   */\n      dup3\n        /* \"#utility.yul\":15638:15647   */\n      add\n        /* \"#utility.yul\":15631:15647   */\n      swap1\n      pop\n        /* \"#utility.yul\":15666:15669   */\n      dup1\n        /* \"#utility.yul\":15663:15664   */\n      dup3\n        /* \"#utility.yul\":15660:15670   */\n      gt\n        /* \"#utility.yul\":15657:15693   */\n      iszero\n      tag_458\n      jumpi\n        /* \"#utility.yul\":15673:15691   */\n      tag_459\n      tag_273\n      jump\t// in\n    tag_459:\n        /* \"#utility.yul\":15657:15693   */\n    tag_458:\n        /* \"#utility.yul\":15509:15700   */\n      swap3\n      swap2\n      pop\n      pop\n      jump\t// out\n        /* \"#utility.yul\":15706:15939   */\n    tag_102:\n        /* \"#utility.yul\":15745:15748   */\n      0x00\n        /* \"#utility.yul\":15768:15792   */\n      tag_461\n        /* \"#utility.yul\":15786:15791   */\n      dup3\n        /* \"#utility.yul\":15768:15792   */\n      tag_232\n      jump\t// in\n    tag_461:\n        /* \"#utility.yul\":15759:15792   */\n      swap2\n      pop\n        /* \"#utility.yul\":15814:15880   */\n      0xffffffffffffffffffffffffffffffffffffffffffffffffffffffffffffffff\n        /* \"#utility.yul\":15807:15812   */\n      dup3\n        /* \"#utility.yul\":15804:15881   */\n      sub\n        /* \"#utility.yul\":15801:15904   */\n      tag_462\n      jumpi\n        /* \"#utility.yul\":15884:15902   */\n      tag_463\n      tag_273\n      jump\t// in\n    tag_463:\n        /* \"#utility.yul\":15801:15904   */\n    tag_462:\n        /* \"#utility.yul\":15931:15932   */\n      0x01\n        /* \"#utility.yul\":15924:15929   */\n      dup3\n        /* \"#utility.yul\":15920:15933   */\n      add\n        /* \"#utility.yul\":15913:15933   */\n      swap1\n      pop\n        /* \"#utility.yul\":15706:15939   */\n      swap2\n      swap1\n      pop\n      jump\t// out\n        /* \"#utility.yul\":15945:16175   */\n    tag_274:\n        /* \"#utility.yul\":16085:16119   */\n      0x4f6e6c792074686520636f6e7472616374206f776e65722063616e2061646420\n        /* \"#utility.yul\":16081:16082   */\n      0x00\n        /* \"#utility.yul\":16073:16079   */\n      dup3\n        /* \"#utility.yul\":16069:16083   */\n      add\n        /* \"#utility.yul\":16062:16120   */\n      mstore\n        /* \"#utility.yul\":16154:16167   */\n      0x63616e646964617465732e000000000000000000000000000000000000000000\n        /* \"#utility.yul\":16149:16151   */\n      0x20\n        /* \"#utility.yul\":16141:16147   */\n      dup3\n        /* \"#utility.yul\":16137:16152   */\n      add\n        /* \"#utility.yul\":16130:16168   */\n      mstore\n        /* \"#utility.yul\":15945:16175   */\n      pop\n      jump\t// out\n        /* \"#utility.yul\":16181:16547   */\n    tag_275:\n        /* \"#utility.yul\":16323:16326   */\n      0x00\n        /* \"#utility.yul\":16344:16411   */\n      tag_466\n        /* \"#utility.yul\":16408:16410   */\n      0x2b\n        /* \"#utility.yul\":16403:16406   */\n      dup4\n        /* \"#utility.yul\":16344:16411   */\n      tag_248\n      jump\t// in\n    tag_466:\n        /* \"#utility.yul\":16337:16411   */\n      swap2\n      pop\n        /* \"#utility.yul\":16420:16513   */\n      tag_467\n        /* \"#utility.yul\":16509:16512   */\n      dup3\n        /* \"#utility.yul\":16420:16513   */\n      tag_274\n      jump\t// in\n    tag_467:\n        /* \"#utility.yul\":16538:16540   */\n      0x40\n        /* \"#utility.yul\":16533:16536   */\n      dup3\n        /* \"#utility.yul\":16529:16541   */\n      add\n        /* \"#utility.yul\":16522:16541   */\n      swap1\n      pop\n        /* \"#utility.yul\":16181:16547   */\n      swap2\n      swap1\n      pop\n      jump\t// out\n        /* \"#utility.yul\":16553:16972   */\n    tag_107:\n        /* \"#utility.yul\":16719:16723   */\n      0x00\n        /* \"#utility.yul\":16757:16759   */\n      0x20\n        /* \"#utility.yul\":16746:16755   */\n      dup3\n        /* \"#utility.yul\":16742:16760   */\n      add\n        /* \"#utility.yul\":16734:16760   */\n      swap1\n      pop\n        /* \"#utility.yul\":16806:16815   */\n      dup2\n        /* \"#utility.yul\":16800:16804   */\n      dup2\n        /* \"#utility.yul\":16796:16816   */\n      sub\n        /* \"#utility.yul\":16792:16793   */\n      0x00\n        /* \"#utility.yul\":16781:16790   */\n      dup4\n        /* \"#utility.yul\":16777:16794   */\n      add\n        /* \"#utility.yul\":16770:16817   */\n      mstore\n        /* \"#utility.yul\":16834:16965   */\n      tag_469\n        /* \"#utility.yul\":16960:16964   */\n      dup2\n        /* \"#utility.yul\":16834:16965   */\n      tag_275\n      jump\t// in\n    tag_469:\n        /* \"#utility.yul\":16826:16965   */\n      swap1\n      pop\n        /* \"#utility.yul\":16553:16972   */\n      swap2\n      swap1\n      pop\n      jump\t// out\n        /* \"#utility.yul\":16978:17158   */\n    tag_276:\n        /* \"#utility.yul\":17026:17103   */\n      0x4e487b7100000000000000000000000000000000000000000000000000000000\n        /* \"#utility.yul\":17023:17024   */\n      0x00\n        /* \"#utility.yul\":17016:17104   */\n      mstore\n        /* \"#utility.yul\":17123:17127   */\n      0x22\n        /* \"#utility.yul\":17120:17121   */\n      0x04\n        /* \"#utility.yul\":17113:17128   */\n      mstore\n        /* \"#utility.yul\":17147:17151   */\n      0x24\n        /* \"#utility.yul\":17144:17145   */\n      0x00\n        /* \"#utility.yul\":17137:17152   */\n      revert\n        /* \"#utility.yul\":17164:17484   */\n    tag_122:\n        /* \"#utility.yul\":17208:17214   */\n      0x00\n        /* \"#utility.yul\":17245:17246   */\n      0x02\n        /* \"#utility.yul\":17239:17243   */\n      dup3\n        /* \"#utility.yul\":17235:17247   */\n      div\n        /* \"#utility.yul\":17225:17247   */\n      swap1\n      pop\n        /* \"#utility.yul\":17292:17293   */\n      0x01\n        /* \"#utility.yul\":17286:17290   */\n      dup3\n        /* \"#utility.yul\":17282:17294   */\n      and\n        /* \"#utility.yul\":17313:17331   */\n      dup1\n        /* \"#utility.yul\":17303:17384   */\n      tag_472\n      jumpi\n        /* \"#utility.yul\":17369:17373   */\n      0x7f\n        /* \"#utility.yul\":17361:17367   */\n      dup3\n        /* \"#utility.yul\":17357:17374   */\n      and\n        /* \"#utility.yul\":17347:17374   */\n      swap2\n      pop\n        /* \"#utility.yul\":17303:17384   */\n    tag_472:\n        /* \"#utility.yul\":17431:17433   */\n      0x20\n        /* \"#utility.yul\":17423:17429   */\n      dup3\n        /* \"#utility.yul\":17420:17434   */\n      lt\n        /* \"#utility.yul\":17400:17418   */\n      dup2\n        /* \"#utility.yul\":17397:17435   */\n      sub\n        /* \"#utility.yul\":17394:17478   */\n      tag_473\n      jumpi\n        /* \"#utility.yul\":17450:17468   */\n      tag_474\n      tag_276\n      jump\t// in\n    tag_474:\n        /* \"#utility.yul\":17394:17478   */\n    tag_473:\n        /* \"#utility.yul\":17215:17484   */\n      pop\n        /* \"#utility.yul\":17164:17484   */\n      swap2\n      swap1\n      pop\n      jump\t// out\n        /* \"#utility.yul\":17490:17631   */\n    tag_277:\n        /* \"#utility.yul\":17539:17543   */\n      0x00\n        /* \"#utility.yul\":17562:17565   */\n      dup2\n        /* \"#utility.yul\":17554:17565   */\n      swap1\n      pop\n        /* \"#utility.yul\":17585:17588   */\n      dup2\n        /* \"#utility.yul\":17582:17583   */\n      0x00\n        /* \"#utility.yul\":17575:17589   */\n      mstore\n        /* \"#utility.yul\":17619:17623   */\n      0x20\n        /* \"#utility.yul\":17616:17617   */\n      0x00\n        /* \"#utility.yul\":17606:17624   */\n      keccak256\n        /* \"#utility.yul\":17598:17624   */\n      swap1\n      pop\n        /* \"#utility.yul\":17490:17631   */\n      swap2\n      swap1\n      pop\n      jump\t// out\n        /* \"#utility.yul\":17637:17730   */\n    tag_278:\n        /* \"#utility.yul\":17674:17680   */\n      0x00\n        /* \"#utility.yul\":17721:17723   */\n      0x20\n        /* \"#utility.yul\":17716:17718   */\n      0x1f\n        /* \"#utility.yul\":17709:17714   */\n      dup4\n        /* \"#utility.yul\":17705:17719   */\n      add\n        /* \"#utility.yul\":17701:17724   */\n      div\n        /* \"#utility.yul\":17691:17724   */\n      swap1\n      pop\n        /* \"#utility.yul\":17637:17730   */\n      swap2\n      swap1\n      pop\n      jump\t// out\n        /* \"#utility.yul\":17736:17843   */\n    tag_279:\n        /* \"#utility.yul\":17780:17788   */\n      0x00\n        /* \"#utility.yul\":17830:17835   */\n      dup3\n        /* \"#utility.yul\":17824:17828   */\n      dup3\n        /* \"#utility.yul\":17820:17836   */\n      shl\n        /* \"#utility.yul\":17799:17836   */\n      swap1\n      pop\n        /* \"#utility.yul\":17736:17843   */\n      swap3\n      swap2\n      pop\n      pop\n      jump\t// out\n        /* \"#utility.yul\":17849:18242   */\n    tag_280:\n        /* \"#utility.yul\":17918:17924   */\n      0x00\n        /* \"#utility.yul\":17968:17969   */\n      0x08\n        /* \"#utility.yul\":17956:17966   */\n      dup4\n        /* \"#utility.yul\":17952:17970   */\n      mul\n        /* \"#utility.yul\":17991:18088   */\n      tag_479\n        /* \"#utility.yul\":18021:18087   */\n      0xffffffffffffffffffffffffffffffffffffffffffffffffffffffffffffffff\n        /* \"#utility.yul\":18010:18019   */\n      dup3\n        /* \"#utility.yul\":17991:18088   */\n      tag_279\n      jump\t// in\n    tag_479:\n        /* \"#utility.yul\":18109:18148   */\n      tag_480\n        /* \"#utility.yul\":18139:18147   */\n      dup7\n        /* \"#utility.yul\":18128:18137   */\n      dup4\n        /* \"#utility.yul\":18109:18148   */\n      tag_279\n      jump\t// in\n    tag_480:\n        /* \"#utility.yul\":18097:18148   */\n      swap6\n      pop\n        /* \"#utility.yul\":18181:18185   */\n      dup1\n        /* \"#utility.yul\":18177:18186   */\n      not\n        /* \"#utility.yul\":18170:18175   */\n      dup5\n        /* \"#utility.yul\":18166:18187   */\n      and\n        /* \"#utility.yul\":18157:18187   */\n      swap4\n      pop\n        /* \"#utility.yul\":18230:18234   */\n      dup1\n        /* \"#utility.yul\":18220:18228   */\n      dup7\n        /* \"#utility.yul\":18216:18235   */\n      and\n        /* \"#utility.yul\":18209:18214   */\n      dup5\n        /* \"#utility.yul\":18206:18236   */\n      or\n        /* \"#utility.yul\":18196:18236   */\n      swap3\n      pop\n        /* \"#utility.yul\":17925:18242   */\n      pop\n      pop\n        /* \"#utility.yul\":17849:18242   */\n      swap4\n      swap3\n      pop\n      pop\n      pop\n      jump\t// out\n        /* \"#utility.yul\":18248:18308   */\n    tag_281:\n        /* \"#utility.yul\":18276:18279   */\n      0x00\n        /* \"#utility.yul\":18297:18302   */\n      dup2\n        /* \"#utility.yul\":18290:18302   */\n      swap1\n      pop\n        /* \"#utility.yul\":18248:18308   */\n      swap2\n      swap1\n      pop\n      jump\t// out\n        /* \"#utility.yul\":18314:18456   */\n    tag_282:\n        /* \"#utility.yul\":18364:18373   */\n      0x00\n        /* \"#utility.yul\":18397:18450   */\n      tag_483\n        /* \"#utility.yul\":18415:18449   */\n      tag_484\n        /* \"#utility.yul\":18424:18448   */\n      tag_485\n        /* \"#utility.yul\":18442:18447   */\n      dup5\n        /* \"#utility.yul\":18424:18448   */\n      tag_232\n      jump\t// in\n    tag_485:\n        /* \"#utility.yul\":18415:18449   */\n      tag_281\n      jump\t// in\n    tag_484:\n        /* \"#utility.yul\":18397:18450   */\n      tag_232\n      jump\t// in\n    tag_483:\n        /* \"#utility.yul\":18384:18450   */\n      swap1\n      pop\n        /* \"#utility.yul\":18314:18456   */\n      swap2\n      swap1\n      pop\n      jump\t// out\n        /* \"#utility.yul\":18462:18537   */\n    tag_283:\n        /* \"#utility.yul\":18505:18508   */\n      0x00\n        /* \"#utility.yul\":18526:18531   */\n      dup2\n        /* \"#utility.yul\":18519:18531   */\n      swap1\n      pop\n        /* \"#utility.yul\":18462:18537   */\n      swap2\n      swap1\n      pop\n      jump\t// out\n        /* \"#utility.yul\":18543:18812   */\n    tag_284:\n        /* \"#utility.yul\":18653:18692   */\n      tag_488\n        /* \"#utility.yul\":18684:18691   */\n      dup4\n        /* \"#utility.yul\":18653:18692   */\n      tag_282\n      jump\t// in\n    tag_488:\n        /* \"#utility.yul\":18714:18805   */\n      tag_489\n        /* \"#utility.yul\":18763:18804   */\n      tag_490\n        /* \"#utility.yul\":18787:18803   */\n      dup3\n        /* \"#utility.yul\":18763:18804   */\n      tag_283\n      jump\t// in\n    tag_490:\n        /* \"#utility.yul\":18755:18761   */\n      dup5\n        /* \"#utility.yul\":18748:18752   */\n      dup5\n        /* \"#utility.yul\":18742:18753   */\n      sload\n        /* \"#utility.yul\":18714:18805   */\n      tag_280\n      jump\t// in\n    tag_489:\n        /* \"#utility.yul\":18708:18712   */\n      dup3\n        /* \"#utility.yul\":18701:18806   */\n      sstore\n        /* \"#utility.yul\":18619:18812   */\n      pop\n        /* \"#utility.yul\":18543:18812   */\n      pop\n      pop\n      pop\n      jump\t// out\n        /* \"#utility.yul\":18818:18891   */\n    tag_285:\n        /* \"#utility.yul\":18863:18866   */\n      0x00\n        /* \"#utility.yul\":18818:18891   */\n      swap1\n      jump\t// out\n        /* \"#utility.yul\":18897:19086   */\n    tag_286:\n        /* \"#utility.yul\":18974:19006   */\n      tag_493\n      tag_285\n      jump\t// in\n    tag_493:\n        /* \"#utility.yul\":19015:19080   */\n      tag_494\n        /* \"#utility.yul\":19073:19079   */\n      dup2\n        /* \"#utility.yul\":19065:19071   */\n      dup5\n        /* \"#utility.yul\":19059:19063   */\n      dup5\n        /* \"#utility.yul\":19015:19080   */\n      tag_284\n      jump\t// in\n    tag_494:\n        /* \"#utility.yul\":18950:19086   */\n      pop\n        /* \"#utility.yul\":18897:19086   */\n      pop\n      pop\n      jump\t// out\n        /* \"#utility.yul\":19092:19278   */\n    tag_287:\n        /* \"#utility.yul\":19152:19272   */\n    tag_496:\n        /* \"#utility.yul\":19169:19172   */\n      dup2\n        /* \"#utility.yul\":19162:19167   */\n      dup2\n        /* \"#utility.yul\":19159:19173   */\n      lt\n        /* \"#utility.yul\":19152:19272   */\n      iszero\n      tag_498\n      jumpi\n        /* \"#utility.yul\":19223:19262   */\n      tag_499\n        /* \"#utility.yul\":19260:19261   */\n      0x00\n        /* \"#utility.yul\":19253:19258   */\n      dup3\n        /* \"#utility.yul\":19223:19262   */\n      tag_286\n      jump\t// in\n    tag_499:\n        /* \"#utility.yul\":19196:19197   */\n      0x01\n        /* \"#utility.yul\":19189:19194   */\n      dup2\n        /* \"#utility.yul\":19185:19198   */\n      add\n        /* \"#utility.yul\":19176:19198   */\n      swap1\n      pop\n        /* \"#utility.yul\":19152:19272   */\n      jump(tag_496)\n    tag_498:\n        /* \"#utility.yul\":19092:19278   */\n      pop\n      pop\n      jump\t// out\n        /* \"#utility.yul\":19284:19827   */\n    tag_288:\n        /* \"#utility.yul\":19385:19387   */\n      0x1f\n        /* \"#utility.yul\":19380:19383   */\n      dup3\n        /* \"#utility.yul\":19377:19388   */\n      gt\n        /* \"#utility.yul\":19374:19820   */\n      iszero\n      tag_501\n      jumpi\n        /* \"#utility.yul\":19419:19457   */\n      tag_502\n        /* \"#utility.yul\":19451:19456   */\n      dup2\n        /* \"#utility.yul\":19419:19457   */\n      tag_277\n      jump\t// in\n    tag_502:\n        /* \"#utility.yul\":19503:19532   */\n      tag_503\n        /* \"#utility.yul\":19521:19531   */\n      dup5\n        /* \"#utility.yul\":19503:19532   */\n      tag_278\n      jump\t// in\n    tag_503:\n        /* \"#utility.yul\":19493:19501   */\n      dup2\n        /* \"#utility.yul\":19489:19533   */\n      add\n        /* \"#utility.yul\":19686:19688   */\n      0x20\n        /* \"#utility.yul\":19674:19684   */\n      dup6\n        /* \"#utility.yul\":19671:19689   */\n      lt\n        /* \"#utility.yul\":19668:19717   */\n      iszero\n      tag_504\n      jumpi\n        /* \"#utility.yul\":19707:19715   */\n      dup2\n        /* \"#utility.yul\":19692:19715   */\n      swap1\n      pop\n        /* \"#utility.yul\":19668:19717   */\n    tag_504:\n        /* \"#utility.yul\":19730:19810   */\n      tag_505\n        /* \"#utility.yul\":19786:19808   */\n      tag_506\n        /* \"#utility.yul\":19804:19807   */\n      dup6\n        /* \"#utility.yul\":19786:19808   */\n      tag_278\n      jump\t// in\n    tag_506:\n        /* \"#utility.yul\":19776:19784   */\n      dup4\n        /* \"#utility.yul\":19772:19809   */\n      add\n        /* \"#utility.yul\":19759:19770   */\n      dup3\n        /* \"#utility.yul\":19730:19810   */\n      tag_287\n      jump\t// in\n    tag_505:\n        /* \"#utility.yul\":19389:19820   */\n      pop\n      pop\n        /* \"#utility.yul\":19374:19820   */\n    tag_501:\n        /* \"#utility.yul\":19284:19827   */\n      pop\n      pop\n      pop\n      jump\t// out\n        /* \"#utility.yul\":19833:19950   */\n    tag_289:\n        /* \"#utility.yul\":19887:19895   */\n      0x00\n        /* \"#utility.yul\":19937:19942   */\n      dup3\n        /* \"#utility.yul\":19931:19935   */\n      dup3\n        /* \"#utility.yul\":19927:19943   */\n      shr\n        /* \"#utility.yul\":19906:19943   */\n      swap1\n      pop\n        /* \"#utility.yul\":19833:19950   */\n      swap3\n      swap2\n      pop\n      pop\n      jump\t// out\n        /* \"#utility.yul\":19956:20125   */\n    tag_290:\n        /* \"#utility.yul\":20000:20006   */\n      0x00\n        /* \"#utility.yul\":20033:20084   */\n      tag_509\n        /* \"#utility.yul\":20081:20082   */\n      0x00\n        /* \"#utility.yul\":20077:20083   */\n      not\n        /* \"#utility.yul\":20069:20074   */\n      dup5\n        /* \"#utility.yul\":20066:20067   */\n      0x08\n        /* \"#utility.yul\":20062:20075   */\n      mul\n        /* \"#utility.yul\":20033:20084   */\n      tag_289\n      jump\t// in\n    tag_509:\n        /* \"#utility.yul\":20029:20085   */\n      not\n        /* \"#utility.yul\":20114:20118   */\n      dup1\n        /* \"#utility.yul\":20108:20112   */\n      dup4\n        /* \"#utility.yul\":20104:20119   */\n      and\n        /* \"#utility.yul\":20094:20119   */\n      swap2\n      pop\n        /* \"#utility.yul\":20007:20125   */\n      pop\n        /* \"#utility.yul\":19956:20125   */\n      swap3\n      swap2\n      pop\n      pop\n      jump\t// out\n        /* \"#utility.yul\":20130:20425   */\n    tag_291:\n        /* \"#utility.yul\":20206:20210   */\n      0x00\n        /* \"#utility.yul\":20352:20381   */\n      tag_511\n        /* \"#utility.yul\":20377:20380   */\n      dup4\n        /* \"#utility.yul\":20371:20375   */\n      dup4\n        /* \"#utility.yul\":20352:20381   */\n      tag_290\n      jump\t// in\n    tag_511:\n        /* \"#utility.yul\":20344:20381   */\n      swap2\n      pop\n        /* \"#utility.yul\":20414:20417   */\n      dup3\n        /* \"#utility.yul\":20411:20412   */\n      0x02\n        /* \"#utility.yul\":20407:20418   */\n      mul\n        /* \"#utility.yul\":20401:20405   */\n      dup3\n        /* \"#utility.yul\":20398:20419   */\n      or\n        /* \"#utility.yul\":20390:20419   */\n      swap1\n      pop\n        /* \"#utility.yul\":20130:20425   */\n      swap3\n      swap2\n      pop\n      pop\n      jump\t// out\n        /* \"#utility.yul\":20430:21825   */\n    tag_111:\n        /* \"#utility.yul\":20547:20584   */\n      tag_513\n        /* \"#utility.yul\":20580:20583   */\n      dup3\n        /* \"#utility.yul\":20547:20584   */\n      tag_247\n      jump\t// in\n    tag_513:\n        /* \"#utility.yul\":20649:20667   */\n      0xffffffffffffffff\n        /* \"#utility.yul\":20641:20647   */\n      dup2\n        /* \"#utility.yul\":20638:20668   */\n      gt\n        /* \"#utility.yul\":20635:20691   */\n      iszero\n      tag_514\n      jumpi\n        /* \"#utility.yul\":20671:20689   */\n      tag_515\n      tag_240\n      jump\t// in\n    tag_515:\n        /* \"#utility.yul\":20635:20691   */\n    tag_514:\n        /* \"#utility.yul\":20715:20753   */\n      tag_516\n        /* \"#utility.yul\":20747:20751   */\n      dup3\n        /* \"#utility.yul\":20741:20752   */\n      sload\n        /* \"#utility.yul\":20715:20753   */\n      tag_122\n      jump\t// in\n    tag_516:\n        /* \"#utility.yul\":20800:20867   */\n      tag_517\n        /* \"#utility.yul\":20860:20866   */\n      dup3\n        /* \"#utility.yul\":20852:20858   */\n      dup3\n        /* \"#utility.yul\":20846:20850   */\n      dup6\n        /* \"#utility.yul\":20800:20867   */\n      tag_288\n      jump\t// in\n    tag_517:\n        /* \"#utility.yul\":20894:20895   */\n      0x00\n        /* \"#utility.yul\":20918:20922   */\n      0x20\n        /* \"#utility.yul\":20905:20922   */\n      swap1\n      pop\n        /* \"#utility.yul\":20950:20952   */\n      0x1f\n        /* \"#utility.yul\":20942:20948   */\n      dup4\n        /* \"#utility.yul\":20939:20953   */\n      gt\n        /* \"#utility.yul\":20967:20968   */\n      0x01\n        /* \"#utility.yul\":20962:21580   */\n      dup2\n      eq\n      tag_519\n      jumpi\n        /* \"#utility.yul\":21624:21625   */\n      0x00\n        /* \"#utility.yul\":21641:21647   */\n      dup5\n        /* \"#utility.yul\":21638:21715   */\n      iszero\n      tag_520\n      jumpi\n        /* \"#utility.yul\":21690:21699   */\n      dup3\n        /* \"#utility.yul\":21685:21688   */\n      dup8\n        /* \"#utility.yul\":21681:21700   */\n      add\n        /* \"#utility.yul\":21675:21701   */\n      mload\n        /* \"#utility.yul\":21666:21701   */\n      swap1\n      pop\n        /* \"#utility.yul\":21638:21715   */\n    tag_520:\n        /* \"#utility.yul\":21741:21808   */\n      tag_521\n        /* \"#utility.yul\":21801:21807   */\n      dup6\n        /* \"#utility.yul\":21794:21799   */\n      dup3\n        /* \"#utility.yul\":21741:21808   */\n      tag_291\n      jump\t// in\n    tag_521:\n        /* \"#utility.yul\":21735:21739   */\n      dup7\n        /* \"#utility.yul\":21728:21809   */\n      sstore\n        /* \"#utility.yul\":21597:21819   */\n      pop\n        /* \"#utility.yul\":20932:21819   */\n      jump(tag_518)\n        /* \"#utility.yul\":20962:21580   */\n    tag_519:\n        /* \"#utility.yul\":21014:21018   */\n      0x1f\n        /* \"#utility.yul\":21010:21019   */\n      not\n        /* \"#utility.yul\":21002:21008   */\n      dup5\n        /* \"#utility.yul\":20998:21020   */\n      and\n        /* \"#utility.yul\":21048:21085   */\n      tag_522\n        /* \"#utility.yul\":21080:21084   */\n      dup7\n        /* \"#utility.yul\":21048:21085   */\n      tag_277\n      jump\t// in\n    tag_522:\n        /* \"#utility.yul\":21107:21108   */\n      0x00\n        /* \"#utility.yul\":21121:21329   */\n    tag_523:\n        /* \"#utility.yul\":21135:21142   */\n      dup3\n        /* \"#utility.yul\":21132:21133   */\n      dup2\n        /* \"#utility.yul\":21129:21143   */\n      lt\n        /* \"#utility.yul\":21121:21329   */\n      iszero\n      tag_525\n      jumpi\n        /* \"#utility.yul\":21214:21223   */\n      dup5\n        /* \"#utility.yul\":21209:21212   */\n      dup10\n        /* \"#utility.yul\":21205:21224   */\n      add\n        /* \"#utility.yul\":21199:21225   */\n      mload\n        /* \"#utility.yul\":21191:21197   */\n      dup3\n        /* \"#utility.yul\":21184:21226   */\n      sstore\n        /* \"#utility.yul\":21265:21266   */\n      0x01\n        /* \"#utility.yul\":21257:21263   */\n      dup3\n        /* \"#utility.yul\":21253:21267   */\n      add\n        /* \"#utility.yul\":21243:21267   */\n      swap2\n      pop\n        /* \"#utility.yul\":21312:21314   */\n      0x20\n        /* \"#utility.yul\":21301:21310   */\n      dup6\n        /* \"#utility.yul\":21297:21315   */\n      add\n        /* \"#utility.yul\":21284:21315   */\n      swap5\n      pop\n        /* \"#utility.yul\":21158:21162   */\n      0x20\n        /* \"#utility.yul\":21155:21156   */\n      dup2\n        /* \"#utility.yul\":21151:21163   */\n      add\n        /* \"#utility.yul\":21146:21163   */\n      swap1\n      pop\n        /* \"#utility.yul\":21121:21329   */\n      jump(tag_523)\n    tag_525:\n        /* \"#utility.yul\":21357:21363   */\n      dup7\n        /* \"#utility.yul\":21348:21355   */\n      dup4\n        /* \"#utility.yul\":21345:21364   */\n      lt\n        /* \"#utility.yul\":21342:21521   */\n      iszero\n      tag_526\n      jumpi\n        /* \"#utility.yul\":21415:21424   */\n      dup5\n        /* \"#utility.yul\":21410:21413   */\n      dup10\n        /* \"#utility.yul\":21406:21425   */\n      add\n        /* \"#utility.yul\":21400:21426   */\n      mload\n        /* \"#utility.yul\":21458:21506   */\n      tag_527\n        /* \"#utility.yul\":21500:21504   */\n      0x1f\n        /* \"#utility.yul\":21492:21498   */\n      dup10\n        /* \"#utility.yul\":21488:21505   */\n      and\n        /* \"#utility.yul\":21477:21486   */\n      dup3\n        /* \"#utility.yul\":21458:21506   */\n      tag_290\n      jump\t// in\n    tag_527:\n        /* \"#utility.yul\":21450:21456   */\n      dup4\n        /* \"#utility.yul\":21443:21507   */\n      sstore\n        /* \"#utility.yul\":21365:21521   */\n      pop\n        /* \"#utility.yul\":21342:21521   */\n    tag_526:\n        /* \"#utility.yul\":21567:21568   */\n      0x01\n        /* \"#utility.yul\":21563:21564   */\n      0x02\n        /* \"#utility.yul\":21555:21561   */\n      dup9\n        /* \"#utility.yul\":21551:21565   */\n      mul\n        /* \"#utility.yul\":21547:21569   */\n      add\n        /* \"#utility.yul\":21541:21545   */\n      dup9\n        /* \"#utility.yul\":21534:21570   */\n      sstore\n        /* \"#utility.yul\":20969:21580   */\n      pop\n      pop\n      pop\n        /* \"#utility.yul\":20932:21819   */\n    tag_518:\n      pop\n        /* \"#utility.yul\":20522:21825   */\n      pop\n      pop\n      pop\n        /* \"#utility.yul\":20430:21825   */\n      pop\n      pop\n      jump\t// out\n        /* \"#utility.yul\":21831:22005   */\n    tag_292:\n        /* \"#utility.yul\":21971:21997   */\n      0x5468657265206973206120746965206f6e2042616c6c6f740000000000000000\n        /* \"#utility.yul\":21967:21968   */\n      0x00\n        /* \"#utility.yul\":21959:21965   */\n      dup3\n        /* \"#utility.yul\":21955:21969   */\n      add\n        /* \"#utility.yul\":21948:21998   */\n      mstore\n        /* \"#utility.yul\":21831:22005   */\n      pop\n      jump\t// out\n        /* \"#utility.yul\":22011:22377   */\n    tag_293:\n        /* \"#utility.yul\":22153:22156   */\n      0x00\n        /* \"#utility.yul\":22174:22241   */\n      tag_530\n        /* \"#utility.yul\":22238:22240   */\n      0x18\n        /* \"#utility.yul\":22233:22236   */\n      dup4\n        /* \"#utility.yul\":22174:22241   */\n      tag_248\n      jump\t// in\n    tag_530:\n        /* \"#utility.yul\":22167:22241   */\n      swap2\n      pop\n        /* \"#utility.yul\":22250:22343   */\n      tag_531\n        /* \"#utility.yul\":22339:22342   */\n      dup3\n        /* \"#utility.yul\":22250:22343   */\n      tag_292\n      jump\t// in\n    tag_531:\n        /* \"#utility.yul\":22368:22370   */\n      0x20\n        /* \"#utility.yul\":22363:22366   */\n      dup3\n        /* \"#utility.yul\":22359:22371   */\n      add\n        /* \"#utility.yul\":22352:22371   */\n      swap1\n      pop\n        /* \"#utility.yul\":22011:22377   */\n      swap2\n      swap1\n      pop\n      jump\t// out\n        /* \"#utility.yul\":22383:22802   */\n    tag_117:\n        /* \"#utility.yul\":22549:22553   */\n      0x00\n        /* \"#utility.yul\":22587:22589   */\n      0x20\n        /* \"#utility.yul\":22576:22585   */\n      dup3\n        /* \"#utility.yul\":22572:22590   */\n      add\n        /* \"#utility.yul\":22564:22590   */\n      swap1\n      pop\n        /* \"#utility.yul\":22636:22645   */\n      dup2\n        /* \"#utility.yul\":22630:22634   */\n      dup2\n        /* \"#utility.yul\":22626:22646   */\n      sub\n        /* \"#utility.yul\":22622:22623   */\n      0x00\n        /* \"#utility.yul\":22611:22620   */\n      dup4\n        /* \"#utility.yul\":22607:22624   */\n      add\n        /* \"#utility.yul\":22600:22647   */\n      mstore\n        /* \"#utility.yul\":22664:22795   */\n      tag_533\n        /* \"#utility.yul\":22790:22794   */\n      dup2\n        /* \"#utility.yul\":22664:22795   */\n      tag_293\n      jump\t// in\n    tag_533:\n        /* \"#utility.yul\":22656:22795   */\n      swap1\n      pop\n        /* \"#utility.yul\":22383:22802   */\n      swap2\n      swap1\n      pop\n      jump\t// out\n        /* \"#utility.yul\":22808:23042   */\n    tag_294:\n        /* \"#utility.yul\":22948:22982   */\n      0x4f6e6c792074686520636f6e7472616374206f776e65722063616e2067697665\n        /* \"#utility.yul\":22944:22945   */\n      0x00\n        /* \"#utility.yul\":22936:22942   */\n      dup3\n        /* \"#utility.yul\":22932:22946   */\n      add\n        /* \"#utility.yul\":22925:22983   */\n      mstore\n        /* \"#utility.yul\":23017:23034   */\n      0x20726967687420746f20766f74652e0000000000000000000000000000000000\n        /* \"#utility.yul\":23012:23014   */\n      0x20\n        /* \"#utility.yul\":23004:23010   */\n      dup3\n        /* \"#utility.yul\":23000:23015   */\n      add\n        /* \"#utility.yul\":22993:23035   */\n      mstore\n        /* \"#utility.yul\":22808:23042   */\n      pop\n      jump\t// out\n        /* \"#utility.yul\":23048:23414   */\n    tag_295:\n        /* \"#utility.yul\":23190:23193   */\n      0x00\n        /* \"#utility.yul\":23211:23278   */\n      tag_536\n        /* \"#utility.yul\":23275:23277   */\n      0x2f\n        /* \"#utility.yul\":23270:23273   */\n      dup4\n        /* \"#utility.yul\":23211:23278   */\n      tag_248\n      jump\t// in\n    tag_536:\n        /* \"#utility.yul\":23204:23278   */\n      swap2\n      pop\n        /* \"#utility.yul\":23287:23380   */\n      tag_537\n        /* \"#utility.yul\":23376:23379   */\n      dup3\n        /* \"#utility.yul\":23287:23380   */\n      tag_294\n      jump\t// in\n    tag_537:\n        /* \"#utility.yul\":23405:23407   */\n      0x40\n        /* \"#utility.yul\":23400:23403   */\n      dup3\n        /* \"#utility.yul\":23396:23408   */\n      add\n        /* \"#utility.yul\":23389:23408   */\n      swap1\n      pop\n        /* \"#utility.yul\":23048:23414   */\n      swap2\n      swap1\n      pop\n      jump\t// out\n        /* \"#utility.yul\":23420:23839   */\n    tag_168:\n        /* \"#utility.yul\":23586:23590   */\n      0x00\n        /* \"#utility.yul\":23624:23626   */\n      0x20\n        /* \"#utility.yul\":23613:23622   */\n      dup3\n        /* \"#utility.yul\":23609:23627   */\n      add\n        /* \"#utility.yul\":23601:23627   */\n      swap1\n      pop\n        /* \"#utility.yul\":23673:23682   */\n      dup2\n        /* \"#utility.yul\":23667:23671   */\n      dup2\n        /* \"#utility.yul\":23663:23683   */\n      sub\n        /* \"#utility.yul\":23659:23660   */\n      0x00\n        /* \"#utility.yul\":23648:23657   */\n      dup4\n        /* \"#utility.yul\":23644:23661   */\n      add\n        /* \"#utility.yul\":23637:23684   */\n      mstore\n        /* \"#utility.yul\":23701:23832   */\n      tag_539\n        /* \"#utility.yul\":23827:23831   */\n      dup2\n        /* \"#utility.yul\":23701:23832   */\n      tag_295\n      jump\t// in\n    tag_539:\n        /* \"#utility.yul\":23693:23832   */\n      swap1\n      pop\n        /* \"#utility.yul\":23420:23839   */\n      swap2\n      swap1\n      pop\n      jump\t// out\n        /* \"#utility.yul\":23845:24023   */\n    tag_296:\n        /* \"#utility.yul\":23985:24015   */\n      0x4d6178206163636f756e7420766f746573206973207265616368656400000000\n        /* \"#utility.yul\":23981:23982   */\n      0x00\n        /* \"#utility.yul\":23973:23979   */\n      dup3\n        /* \"#utility.yul\":23969:23983   */\n      add\n        /* \"#utility.yul\":23962:24016   */\n      mstore\n        /* \"#utility.yul\":23845:24023   */\n      pop\n      jump\t// out\n        /* \"#utility.yul\":24029:24395   */\n    tag_297:\n        /* \"#utility.yul\":24171:24174   */\n      0x00\n        /* \"#utility.yul\":24192:24259   */\n      tag_542\n        /* \"#utility.yul\":24256:24258   */\n      0x1c\n        /* \"#utility.yul\":24251:24254   */\n      dup4\n        /* \"#utility.yul\":24192:24259   */\n      tag_248\n      jump\t// in\n    tag_542:\n        /* \"#utility.yul\":24185:24259   */\n      swap2\n      pop\n        /* \"#utility.yul\":24268:24361   */\n      tag_543\n        /* \"#utility.yul\":24357:24360   */\n      dup3\n        /* \"#utility.yul\":24268:24361   */\n      tag_296\n      jump\t// in\n    tag_543:\n        /* \"#utility.yul\":24386:24388   */\n      0x20\n        /* \"#utility.yul\":24381:24384   */\n      dup3\n        /* \"#utility.yul\":24377:24389   */\n      add\n        /* \"#utility.yul\":24370:24389   */\n      swap1\n      pop\n        /* \"#utility.yul\":24029:24395   */\n      swap2\n      swap1\n      pop\n      jump\t// out\n        /* \"#utility.yul\":24401:24820   */\n    tag_197:\n        /* \"#utility.yul\":24567:24571   */\n      0x00\n        /* \"#utility.yul\":24605:24607   */\n      0x20\n        /* \"#utility.yul\":24594:24603   */\n      dup3\n        /* \"#utility.yul\":24590:24608   */\n      add\n        /* \"#utility.yul\":24582:24608   */\n      swap1\n      pop\n        /* \"#utility.yul\":24654:24663   */\n      dup2\n        /* \"#utility.yul\":24648:24652   */\n      dup2\n        /* \"#utility.yul\":24644:24664   */\n      sub\n        /* \"#utility.yul\":24640:24641   */\n      0x00\n        /* \"#utility.yul\":24629:24638   */\n      dup4\n        /* \"#utility.yul\":24625:24642   */\n      add\n        /* \"#utility.yul\":24618:24665   */\n      mstore\n        /* \"#utility.yul\":24682:24813   */\n      tag_545\n        /* \"#utility.yul\":24808:24812   */\n      dup2\n        /* \"#utility.yul\":24682:24813   */\n      tag_297\n      jump\t// in\n    tag_545:\n        /* \"#utility.yul\":24674:24813   */\n      swap1\n      pop\n        /* \"#utility.yul\":24401:24820   */\n      swap2\n      swap1\n      pop\n      jump\t// out\n        /* \"#utility.yul\":24826:25002   */\n    tag_298:\n        /* \"#utility.yul\":24966:24994   */\n      0x596f752068617665206e6f7420726967687420746f20766f7465000000000000\n        /* \"#utility.yul\":24962:24963   */\n      0x00\n        /* \"#utility.yul\":24954:24960   */\n      dup3\n        /* \"#utility.yul\":24950:24964   */\n      add\n        /* \"#utility.yul\":24943:24995   */\n      mstore\n        /* \"#utility.yul\":24826:25002   */\n      pop\n      jump\t// out\n        /* \"#utility.yul\":25008:25374   */\n    tag_299:\n        /* \"#utility.yul\":25150:25153   */\n      0x00\n        /* \"#utility.yul\":25171:25238   */\n      tag_548\n        /* \"#utility.yul\":25235:25237   */\n      0x1a\n        /* \"#utility.yul\":25230:25233   */\n      dup4\n        /* \"#utility.yul\":25171:25238   */\n      tag_248\n      jump\t// in\n    tag_548:\n        /* \"#utility.yul\":25164:25238   */\n      swap2\n      pop\n        /* \"#utility.yul\":25247:25340   */\n      tag_549\n        /* \"#utility.yul\":25336:25339   */\n      dup3\n        /* \"#utility.yul\":25247:25340   */\n      tag_298\n      jump\t// in\n    tag_549:\n        /* \"#utility.yul\":25365:25367   */\n      0x20\n        /* \"#utility.yul\":25360:25363   */\n      dup3\n        /* \"#utility.yul\":25356:25368   */\n      add\n        /* \"#utility.yul\":25349:25368   */\n      swap1\n      pop\n        /* \"#utility.yul\":25008:25374   */\n      swap2\n      swap1\n      pop\n      jump\t// out\n        /* \"#utility.yul\":25380:25799   */\n    tag_201:\n        /* \"#utility.yul\":25546:25550   */\n      0x00\n        /* \"#utility.yul\":25584:25586   */\n      0x20\n        /* \"#utility.yul\":25573:25582   */\n      dup3\n        /* \"#utility.yul\":25569:25587   */\n      add\n        /* \"#utility.yul\":25561:25587   */\n      swap1\n      pop\n        /* \"#utility.yul\":25633:25642   */\n      dup2\n        /* \"#utility.yul\":25627:25631   */\n      dup2\n        /* \"#utility.yul\":25623:25643   */\n      sub\n        /* \"#utility.yul\":25619:25620   */\n      0x00\n        /* \"#utility.yul\":25608:25617   */\n      dup4\n        /* \"#utility.yul\":25604:25621   */\n      add\n        /* \"#utility.yul\":25597:25644   */\n      mstore\n        /* \"#utility.yul\":25661:25792   */\n      tag_551\n        /* \"#utility.yul\":25787:25791   */\n      dup2\n        /* \"#utility.yul\":25661:25792   */\n      tag_299\n      jump\t// in\n    tag_551:\n        /* \"#utility.yul\":25653:25792   */\n      swap1\n      pop\n        /* \"#utility.yul\":25380:25799   */\n      swap2\n      swap1\n      pop\n      jump\t// out\n        /* \"#utility.yul\":25805:25975   */\n    tag_300:\n        /* \"#utility.yul\":25945:25967   */\n      0x566f74657220616c726561647920766f7465642e000000000000000000000000\n        /* \"#utility.yul\":25941:25942   */\n      0x00\n        /* \"#utility.yul\":25933:25939   */\n      dup3\n        /* \"#utility.yul\":25929:25943   */\n      add\n        /* \"#utility.yul\":25922:25968   */\n      mstore\n        /* \"#utility.yul\":25805:25975   */\n      pop\n      jump\t// out\n        /* \"#utility.yul\":25981:26347   */\n    tag_301:\n        /* \"#utility.yul\":26123:26126   */\n      0x00\n        /* \"#utility.yul\":26144:26211   */\n      tag_554\n        /* \"#utility.yul\":26208:26210   */\n      0x14\n        /* \"#utility.yul\":26203:26206   */\n      dup4\n        /* \"#utility.yul\":26144:26211   */\n      tag_248\n      jump\t// in\n    tag_554:\n        /* \"#utility.yul\":26137:26211   */\n      swap2\n      pop\n        /* \"#utility.yul\":26220:26313   */\n      tag_555\n        /* \"#utility.yul\":26309:26312   */\n      dup3\n        /* \"#utility.yul\":26220:26313   */\n      tag_300\n      jump\t// in\n    tag_555:\n        /* \"#utility.yul\":26338:26340   */\n      0x20\n        /* \"#utility.yul\":26333:26336   */\n      dup3\n        /* \"#utility.yul\":26329:26341   */\n      add\n        /* \"#utility.yul\":26322:26341   */\n      swap1\n      pop\n        /* \"#utility.yul\":25981:26347   */\n      swap2\n      swap1\n      pop\n      jump\t// out\n        /* \"#utility.yul\":26353:26772   */\n    tag_228:\n        /* \"#utility.yul\":26519:26523   */\n      0x00\n        /* \"#utility.yul\":26557:26559   */\n      0x20\n        /* \"#utility.yul\":26546:26555   */\n      dup3\n        /* \"#utility.yul\":26542:26560   */\n      add\n        /* \"#utility.yul\":26534:26560   */\n      swap1\n      pop\n        /* \"#utility.yul\":26606:26615   */\n      dup2\n        /* \"#utility.yul\":26600:26604   */\n      dup2\n        /* \"#utility.yul\":26596:26616   */\n      sub\n        /* \"#utility.yul\":26592:26593   */\n      0x00\n        /* \"#utility.yul\":26581:26590   */\n      dup4\n        /* \"#utility.yul\":26577:26594   */\n      add\n        /* \"#utility.yul\":26570:26617   */\n      mstore\n        /* \"#utility.yul\":26634:26765   */\n      tag_557\n        /* \"#utility.yul\":26760:26764   */\n      dup2\n        /* \"#utility.yul\":26634:26765   */\n      tag_301\n      jump\t// in\n    tag_557:\n        /* \"#utility.yul\":26626:26765   */\n      swap1\n      pop\n        /* \"#utility.yul\":26353:26772   */\n      swap2\n      swap1\n      pop\n      jump\t// out\n\n    auxdata: 0xa2646970667358221220ab4f1f1ad80e3477cb5f42bb4ca36b1bfa156d60b7614f9c74779e203deb330e64736f6c63430008110033\n}\n",
				"bytecode": {
					"linkReferences": {},
					"object": "60806040523480156200001157600080fd5b506040516200262b3803806200262b8339818101604052810190620000379190620004f0565b336000806101000a81548173ffffffffffffffffffffffffffffffffffffffff021916908373ffffffffffffffffffffffffffffffffffffffff16021790555060005b82518110156200015f5760026040518060600160405280858481518110620000a757620000a662000556565b5b6020026020010151600001518152602001858481518110620000ce57620000cd62000556565b5b6020026020010151602001518152602001600081525090806001815401808255809150506001900390600052602060002090600302016000909190919091506000820151816000019081620001249190620007c6565b5060208201518160010190816200013c9190620007c6565b5060408201518160020155505080806200015690620008dc565b9150506200007a565b5080600481905550505062000929565b6000604051905090565b600080fd5b600080fd5b600080fd5b6000601f19601f8301169050919050565b7f4e487b7100000000000000000000000000000000000000000000000000000000600052604160045260246000fd5b620001d38262000188565b810181811067ffffffffffffffff82111715620001f557620001f462000199565b5b80604052505050565b60006200020a6200016f565b9050620002188282620001c8565b919050565b600067ffffffffffffffff8211156200023b576200023a62000199565b5b602082029050602081019050919050565b600080fd5b600080fd5b600080fd5b600080fd5b600067ffffffffffffffff8211156200027e576200027d62000199565b5b620002898262000188565b9050602081019050919050565b60005b83811015620002b657808201518184015260208101905062000299565b60008484015250505050565b6000620002d9620002d38462000260565b620001fe565b905082815260208101848484011115620002f857620002f76200025b565b5b6200030584828562000296565b509392505050565b600082601f83011262000325576200032462000183565b5b815162000337848260208601620002c2565b91505092915050565b6000819050919050565b620003558162000340565b81146200036157600080fd5b50565b60008151905062000375816200034a565b92915050565b60006060828403121562000394576200039362000251565b5b620003a06060620001fe565b9050600082015167ffffffffffffffff811115620003c357620003c262000256565b5b620003d1848285016200030d565b600083015250602082015167ffffffffffffffff811115620003f857620003f762000256565b5b62000406848285016200030d565b60208301525060406200041c8482850162000364565b60408301525092915050565b60006200043f62000439846200021d565b620001fe565b905080838252602082019050602084028301858111156200046557620004646200024c565b5b835b81811015620004b357805167ffffffffffffffff8111156200048e576200048d62000183565b5b8086016200049d89826200037b565b8552602085019450505060208101905062000467565b5050509392505050565b600082601f830112620004d557620004d462000183565b5b8151620004e784826020860162000428565b91505092915050565b600080604083850312156200050a576200050962000179565b5b600083015167ffffffffffffffff8111156200052b576200052a6200017e565b5b6200053985828601620004bd565b92505060206200054c8582860162000364565b9150509250929050565b7f4e487b7100000000000000000000000000000000000000000000000000000000600052603260045260246000fd5b600081519050919050565b7f4e487b7100000000000000000000000000000000000000000000000000000000600052602260045260246000fd5b60006002820490506001821680620005d857607f821691505b602082108103620005ee57620005ed62000590565b5b50919050565b60008190508160005260206000209050919050565b60006020601f8301049050919050565b600082821b905092915050565b600060088302620006587fffffffffffffffffffffffffffffffffffffffffffffffffffffffffffffffff8262000619565b62000664868362000619565b95508019841693508086168417925050509392505050565b6000819050919050565b6000620006a7620006a16200069b8462000340565b6200067c565b62000340565b9050919050565b6000819050919050565b620006c38362000686565b620006db620006d282620006ae565b84845462000626565b825550505050565b600090565b620006f2620006e3565b620006ff818484620006b8565b505050565b5b8181101562000727576200071b600082620006e8565b60018101905062000705565b5050565b601f82111562000776576200074081620005f4565b6200074b8462000609565b810160208510156200075b578190505b620007736200076a8562000609565b83018262000704565b50505b505050565b600082821c905092915050565b60006200079b600019846008026200077b565b1980831691505092915050565b6000620007b6838362000788565b9150826002028217905092915050565b620007d18262000585565b67ffffffffffffffff811115620007ed57620007ec62000199565b5b620007f98254620005bf565b620008068282856200072b565b600060209050601f8311600181146200083e576000841562000829578287015190505b620008358582620007a8565b865550620008a5565b601f1984166200084e86620005f4565b60005b82811015620008785784890151825560018201915060208501945060208101905062000851565b8683101562000898578489015162000894601f89168262000788565b8355505b6001600288020188555050505b505050505050565b7f4e487b7100000000000000000000000000000000000000000000000000000000600052601160045260246000fd5b6000620008e98262000340565b91507fffffffffffffffffffffffffffffffffffffffffffffffffffffffffffffffff82036200091e576200091d620008ad565b5b600182019050919050565b611cf280620009396000396000f3fe608060405234801561001057600080fd5b506004361061010b5760003560e01c8063954115f2116100a2578063da26543011610071578063da265430146102ab578063df703622146102c9578063f0ee4577146102e7578063f927cc2914610317578063fc36e15b146103365761010b565b8063954115f2146102245780639e7b8d6114610240578063a3ec138d1461025c578063ce606ee01461028d5761010b565b80633477ee2e116100de5780633477ee2e146101865780633ddf3822146101b85780634aba5f34146101d657806394b04e7d146101f45761010b565b806301c5556a14610110578063105084391461012e5780632bfda5151461014a57806332a2c5d014610168575b600080fd5b610118610352565b6040516101259190610efb565b60405180910390f35b61014860048036038101906101439190611070565b6103b1565b005b61015261047b565b60405161015f9190611167565b60405180910390f35b610170610582565b60405161017d91906111ca565b60405180910390f35b6101a0600480360381019061019b9190611211565b61058a565b6040516101af9392919061123e565b60405180910390f35b6101c06106d4565b6040516101cd919061129e565b60405180910390f35b6101de61072b565b6040516101eb919061142b565b60405180910390f35b61020e60048036038101906102099190611479565b6108b8565b60405161021b919061129e565b60405180910390f35b61023e6004803603810190610239919061154c565b610911565b005b61025a60048036038101906102559190611479565b6109bf565b005b61027660048036038101906102719190611479565b610a6e565b604051610284929190611595565b60405180910390f35b610295610aac565b6040516102a291906111ca565b60405180910390f35b6102b3610ad0565b6040516102c0919061129e565b60405180910390f35b6102d1610ae0565b6040516102de919061129e565b60405180910390f35b61030160048036038101906102fc9190611479565b610af0565b60405161030e919061129e565b60405180910390f35b61031f610b49565b60405161032d9291906115be565b60405180910390f35b610350600480360381019061034b91906115e7565b610c0d565b005b600080600090505b6002805490508110156103ad576002818154811061037b5761037a611630565b5b90600052602060002090600302016002015482610398919061168e565b915080806103a5906116c2565b91505061035a565b5090565b6103b96106d4565b6103f8576040517f08c379a00000000000000000000000000000000000000000000000000000000081526004016103ef9061177c565b60405180910390fd5b6002604051806060016040528084815260200183815260200160008152509080600181540180825580915050600190039060005260206000209060030201600090919091909150600082015181600001908161045491906119a8565b50602082015181600101908161046a91906119a8565b506040820151816002015550505050565b6060600080610488610b49565b9150915080156104cd576040517f08c379a00000000000000000000000000000000000000000000000000000000081526004016104c490611ac6565b60405180910390fd5b600282815481106104e1576104e0611630565b5b906000526020600020906003020160000180546104fd906117cb565b80601f0160208091040260200160405190810160405280929190818152602001828054610529906117cb565b80156105765780601f1061054b57610100808354040283529160200191610576565b820191906000526020600020905b81548152906001019060200180831161055957829003601f168201915b50505050509250505090565b600030905090565b6002818154811061059a57600080fd5b90600052602060002090600302016000915090508060000180546105bd906117cb565b80601f01602080910402602001604051908101604052809291908181526020018280546105e9906117cb565b80156106365780601f1061060b57610100808354040283529160200191610636565b820191906000526020600020905b81548152906001019060200180831161061957829003601f168201915b50505050509080600101805461064b906117cb565b80601f0160208091040260200160405190810160405280929190818152602001828054610677906117cb565b80156106c45780601f10610699576101008083540402835291602001916106c4565b820191906000526020600020905b8154815290600101906020018083116106a757829003601f168201915b5050505050908060020154905083565b60008060009054906101000a900473ffffffffffffffffffffffffffffffffffffffff1673ffffffffffffffffffffffffffffffffffffffff163373ffffffffffffffffffffffffffffffffffffffff1614905090565b60606002805480602002602001604051908101604052809291908181526020016000905b828210156108af5783829060005260206000209060030201604051806060016040529081600082018054610782906117cb565b80601f01602080910402602001604051908101604052809291908181526020018280546107ae906117cb565b80156107fb5780601f106107d0576101008083540402835291602001916107fb565b820191906000526020600020905b8154815290600101906020018083116107de57829003601f168201915b50505050508152602001600182018054610814906117cb565b80601f0160208091040260200160405190810160405280929190818152602001828054610840906117cb565b801561088d5780601f106108625761010080835404028352916020019161088d565b820191906000526020600020905b81548152906001019060200180831161087057829003601f168201915b505050505081526020016002820154815250508152602001906001019061074f565b50505050905090565b6000600160008373ffffffffffffffffffffffffffffffffffffffff1673ffffffffffffffffffffffffffffffffffffffff16815260200190815260200160002060000160009054906101000a900460ff169050919050565b6109196106d4565b610958576040517f08c379a000000000000000000000000000000000000000000000000000000000815260040161094f9061177c565b60405180910390fd5b6002819080600181540180825580915050600190039060005260206000209060030201600090919091909150600082015181600001908161099991906119a8565b5060208201518160010190816109af91906119a8565b5060408201518160020155505050565b806109c86106d4565b610a07576040517f08c379a00000000000000000000000000000000000000000000000000000000081526004016109fe90611b58565b60405180910390fd5b610a1081610e3d565b60018060008473ffffffffffffffffffffffffffffffffffffffff1673ffffffffffffffffffffffffffffffffffffffff16815260200190815260200160002060000160006101000a81548160ff0219169083151502179055505050565b60016020528060005260406000206000915090508060000160009054906101000a900460ff16908060000160019054906101000a900460ff16905082565b60008054906101000a900473ffffffffffffffffffffffffffffffffffffffff1681565b6000610adb33610af0565b905090565b6000610aeb336108b8565b905090565b6000600160008373ffffffffffffffffffffffffffffffffffffffff1673ffffffffffffffffffffffffffffffffffffffff16815260200190815260200160002060000160019054906101000a900460ff169050919050565b600080600080600090505b600280549050811015610c07578160028281548110610b7657610b75611630565b5b9060005260206000209060030201600201541115610bc25760028181548110610ba257610ba1611630565b5b906000526020600020906003020160020154915080935060009250610bf4565b8160028281548110610bd757610bd6611630565b5b90600052602060002090600302016002015403610bf357600192505b5b8080610bff906116c2565b915050610b54565b50509091565b3360045460035410610c54576040517f08c379a0000000000000000000000000000000000000000000000000000000008152600401610c4b90611bc4565b60405180910390fd5b610c5c610ae0565b610c9b576040517f08c379a0000000000000000000000000000000000000000000000000000000008152600401610c9290611c30565b60405180910390fd5b610ca481610e3d565b6000600160003373ffffffffffffffffffffffffffffffffffffffff1673ffffffffffffffffffffffffffffffffffffffff168152602001908152602001600020905060005b600280549050811015610e3757610dae60028281548110610d0e57610d0d611630565b5b90600052602060002090600302016000018054610d2a906117cb565b80601f0160208091040260200160405190810160405280929190818152602001828054610d56906117cb565b8015610da35780601f10610d7857610100808354040283529160200191610da3565b820191906000526020600020905b815481529060010190602001808311610d8657829003601f168201915b505050505085610e89565b15610e245760028181548110610dc757610dc6611630565b5b90600052602060002090600302016002016000815480929190610de9906116c2565b919050555060018260000160016101000a81548160ff02191690831515021790555060036000815480929190610e1e906116c2565b91905055505b8080610e2f906116c2565b915050610cea565b50505050565b610e4681610af0565b15610e86576040517f08c379a0000000000000000000000000000000000000000000000000000000008152600401610e7d90611c9c565b60405180910390fd5b50565b600081604051602001610e9c9190611167565b6040516020818303038152906040528051906020012083604051602001610ec39190611167565b6040516020818303038152906040528051906020012014905092915050565b6000819050919050565b610ef581610ee2565b82525050565b6000602082019050610f106000830184610eec565b92915050565b6000604051905090565b600080fd5b600080fd5b600080fd5b600080fd5b6000601f19601f8301169050919050565b7f4e487b7100000000000000000000000000000000000000000000000000000000600052604160045260246000fd5b610f7d82610f34565b810181811067ffffffffffffffff82111715610f9c57610f9b610f45565b5b80604052505050565b6000610faf610f16565b9050610fbb8282610f74565b919050565b600067ffffffffffffffff821115610fdb57610fda610f45565b5b610fe482610f34565b9050602081019050919050565b82818337600083830152505050565b600061101361100e84610fc0565b610fa5565b90508281526020810184848401111561102f5761102e610f2f565b5b61103a848285610ff1565b509392505050565b600082601f83011261105757611056610f2a565b5b8135611067848260208601611000565b91505092915050565b6000806040838503121561108757611086610f20565b5b600083013567ffffffffffffffff8111156110a5576110a4610f25565b5b6110b185828601611042565b925050602083013567ffffffffffffffff8111156110d2576110d1610f25565b5b6110de85828601611042565b9150509250929050565b600081519050919050565b600082825260208201905092915050565b60005b83811015611122578082015181840152602081019050611107565b60008484015250505050565b6000611139826110e8565b61114381856110f3565b9350611153818560208601611104565b61115c81610f34565b840191505092915050565b60006020820190508181036000830152611181818461112e565b905092915050565b600073ffffffffffffffffffffffffffffffffffffffff82169050919050565b60006111b482611189565b9050919050565b6111c4816111a9565b82525050565b60006020820190506111df60008301846111bb565b92915050565b6111ee81610ee2565b81146111f957600080fd5b50565b60008135905061120b816111e5565b92915050565b60006020828403121561122757611226610f20565b5b6000611235848285016111fc565b91505092915050565b60006060820190508181036000830152611258818661112e565b9050818103602083015261126c818561112e565b905061127b6040830184610eec565b949350505050565b60008115159050919050565b61129881611283565b82525050565b60006020820190506112b3600083018461128f565b92915050565b600081519050919050565b600082825260208201905092915050565b6000819050602082019050919050565b600082825260208201905092915050565b6000611301826110e8565b61130b81856112e5565b935061131b818560208601611104565b61132481610f34565b840191505092915050565b61133881610ee2565b82525050565b6000606083016000830151848203600086015261135b82826112f6565b9150506020830151848203602086015261137582826112f6565b915050604083015161138a604086018261132f565b508091505092915050565b60006113a1838361133e565b905092915050565b6000602082019050919050565b60006113c1826112b9565b6113cb81856112c4565b9350836020820285016113dd856112d5565b8060005b8581101561141957848403895281516113fa8582611395565b9450611405836113a9565b925060208a019950506001810190506113e1565b50829750879550505050505092915050565b6000602082019050818103600083015261144581846113b6565b905092915050565b611456816111a9565b811461146157600080fd5b50565b6000813590506114738161144d565b92915050565b60006020828403121561148f5761148e610f20565b5b600061149d84828501611464565b91505092915050565b600080fd5b600080fd5b6000606082840312156114c6576114c56114a6565b5b6114d06060610fa5565b9050600082013567ffffffffffffffff8111156114f0576114ef6114ab565b5b6114fc84828501611042565b600083015250602082013567ffffffffffffffff8111156115205761151f6114ab565b5b61152c84828501611042565b6020830152506040611540848285016111fc565b60408301525092915050565b60006020828403121561156257611561610f20565b5b600082013567ffffffffffffffff8111156115805761157f610f25565b5b61158c848285016114b0565b91505092915050565b60006040820190506115aa600083018561128f565b6115b7602083018461128f565b9392505050565b60006040820190506115d36000830185610eec565b6115e0602083018461128f565b9392505050565b6000602082840312156115fd576115fc610f20565b5b600082013567ffffffffffffffff81111561161b5761161a610f25565b5b61162784828501611042565b91505092915050565b7f4e487b7100000000000000000000000000000000000000000000000000000000600052603260045260246000fd5b7f4e487b7100000000000000000000000000000000000000000000000000000000600052601160045260246000fd5b600061169982610ee2565b91506116a483610ee2565b92508282019050808211156116bc576116bb61165f565b5b92915050565b60006116cd82610ee2565b91507fffffffffffffffffffffffffffffffffffffffffffffffffffffffffffffffff82036116ff576116fe61165f565b5b600182019050919050565b7f4f6e6c792074686520636f6e7472616374206f776e65722063616e206164642060008201527f63616e646964617465732e000000000000000000000000000000000000000000602082015250565b6000611766602b836110f3565b91506117718261170a565b604082019050919050565b6000602082019050818103600083015261179581611759565b9050919050565b7f4e487b7100000000000000000000000000000000000000000000000000000000600052602260045260246000fd5b600060028204905060018216806117e357607f821691505b6020821081036117f6576117f561179c565b5b50919050565b60008190508160005260206000209050919050565b60006020601f8301049050919050565b600082821b905092915050565b60006008830261185e7fffffffffffffffffffffffffffffffffffffffffffffffffffffffffffffffff82611821565b6118688683611821565b95508019841693508086168417925050509392505050565b6000819050919050565b60006118a56118a061189b84610ee2565b611880565b610ee2565b9050919050565b6000819050919050565b6118bf8361188a565b6118d36118cb826118ac565b84845461182e565b825550505050565b600090565b6118e86118db565b6118f38184846118b6565b505050565b5b818110156119175761190c6000826118e0565b6001810190506118f9565b5050565b601f82111561195c5761192d816117fc565b61193684611811565b81016020851015611945578190505b61195961195185611811565b8301826118f8565b50505b505050565b600082821c905092915050565b600061197f60001984600802611961565b1980831691505092915050565b6000611998838361196e565b9150826002028217905092915050565b6119b1826110e8565b67ffffffffffffffff8111156119ca576119c9610f45565b5b6119d482546117cb565b6119df82828561191b565b600060209050601f831160018114611a125760008415611a00578287015190505b611a0a858261198c565b865550611a72565b601f198416611a20866117fc565b60005b82811015611a4857848901518255600182019150602085019450602081019050611a23565b86831015611a655784890151611a61601f89168261196e565b8355505b6001600288020188555050505b505050505050565b7f5468657265206973206120746965206f6e2042616c6c6f740000000000000000600082015250565b6000611ab06018836110f3565b9150611abb82611a7a565b602082019050919050565b60006020820190508181036000830152611adf81611aa3565b9050919050565b7f4f6e6c792074686520636f6e7472616374206f776e65722063616e206769766560008201527f20726967687420746f20766f74652e0000000000000000000000000000000000602082015250565b6000611b42602f836110f3565b9150611b4d82611ae6565b604082019050919050565b60006020820190508181036000830152611b7181611b35565b9050919050565b7f4d6178206163636f756e7420766f746573206973207265616368656400000000600082015250565b6000611bae601c836110f3565b9150611bb982611b78565b602082019050919050565b60006020820190508181036000830152611bdd81611ba1565b9050919050565b7f596f752068617665206e6f7420726967687420746f20766f7465000000000000600082015250565b6000611c1a601a836110f3565b9150611c2582611be4565b602082019050919050565b60006020820190508181036000830152611c4981611c0d565b9050919050565b7f566f74657220616c726561647920766f7465642e000000000000000000000000600082015250565b6000611c866014836110f3565b9150611c9182611c50565b602082019050919050565b60006020820190508181036000830152611cb581611c79565b905091905056fea2646970667358221220ab4f1f1ad80e3477cb5f42bb4ca36b1bfa156d60b7614f9c74779e203deb330e64736f6c63430008110033",
					"opcodes": "PUSH1 0x80 PUSH1 0x40 MSTORE CALLVALUE DUP1 ISZERO PUSH3 0x11 JUMPI PUSH1 0x0 DUP1 REVERT JUMPDEST POP PUSH1 0x40 MLOAD PUSH3 0x262B CODESIZE SUB DUP1 PUSH3 0x262B DUP4 CODECOPY DUP2 DUP2 ADD PUSH1 0x40 MSTORE DUP2 ADD SWAP1 PUSH3 0x37 SWAP2 SWAP1 PUSH3 0x4F0 JUMP JUMPDEST CALLER PUSH1 0x0 DUP1 PUSH2 0x100 EXP DUP2 SLOAD DUP2 PUSH20 0xFFFFFFFFFFFFFFFFFFFFFFFFFFFFFFFFFFFFFFFF MUL NOT AND SWAP1 DUP4 PUSH20 0xFFFFFFFFFFFFFFFFFFFFFFFFFFFFFFFFFFFFFFFF AND MUL OR SWAP1 SSTORE POP PUSH1 0x0 JUMPDEST DUP3 MLOAD DUP2 LT ISZERO PUSH3 0x15F JUMPI PUSH1 0x2 PUSH1 0x40 MLOAD DUP1 PUSH1 0x60 ADD PUSH1 0x40 MSTORE DUP1 DUP6 DUP5 DUP2 MLOAD DUP2 LT PUSH3 0xA7 JUMPI PUSH3 0xA6 PUSH3 0x556 JUMP JUMPDEST JUMPDEST PUSH1 0x20 MUL PUSH1 0x20 ADD ADD MLOAD PUSH1 0x0 ADD MLOAD DUP2 MSTORE PUSH1 0x20 ADD DUP6 DUP5 DUP2 MLOAD DUP2 LT PUSH3 0xCE JUMPI PUSH3 0xCD PUSH3 0x556 JUMP JUMPDEST JUMPDEST PUSH1 0x20 MUL PUSH1 0x20 ADD ADD MLOAD PUSH1 0x20 ADD MLOAD DUP2 MSTORE PUSH1 0x20 ADD PUSH1 0x0 DUP2 MSTORE POP SWAP1 DUP1 PUSH1 0x1 DUP2 SLOAD ADD DUP1 DUP3 SSTORE DUP1 SWAP2 POP POP PUSH1 0x1 SWAP1 SUB SWAP1 PUSH1 0x0 MSTORE PUSH1 0x20 PUSH1 0x0 KECCAK256 SWAP1 PUSH1 0x3 MUL ADD PUSH1 0x0 SWAP1 SWAP2 SWAP1 SWAP2 SWAP1 SWAP2 POP PUSH1 0x0 DUP3 ADD MLOAD DUP2 PUSH1 0x0 ADD SWAP1 DUP2 PUSH3 0x124 SWAP2 SWAP1 PUSH3 0x7C6 JUMP JUMPDEST POP PUSH1 0x20 DUP3 ADD MLOAD DUP2 PUSH1 0x1 ADD SWAP1 DUP2 PUSH3 0x13C SWAP2 SWAP1 PUSH3 0x7C6 JUMP JUMPDEST POP PUSH1 0x40 DUP3 ADD MLOAD DUP2 PUSH1 0x2 ADD SSTORE POP POP DUP1 DUP1 PUSH3 0x156 SWAP1 PUSH3 0x8DC JUMP JUMPDEST SWAP2 POP POP PUSH3 0x7A JUMP JUMPDEST POP DUP1 PUSH1 0x4 DUP2 SWAP1 SSTORE POP POP POP PUSH3 0x929 JUMP JUMPDEST PUSH1 0x0 PUSH1 0x40 MLOAD SWAP1 POP SWAP1 JUMP JUMPDEST PUSH1 0x0 DUP1 REVERT JUMPDEST PUSH1 0x0 DUP1 REVERT JUMPDEST PUSH1 0x0 DUP1 REVERT JUMPDEST PUSH1 0x0 PUSH1 0x1F NOT PUSH1 0x1F DUP4 ADD AND SWAP1 POP SWAP2 SWAP1 POP JUMP JUMPDEST PUSH32 0x4E487B7100000000000000000000000000000000000000000000000000000000 PUSH1 0x0 MSTORE PUSH1 0x41 PUSH1 0x4 MSTORE PUSH1 0x24 PUSH1 0x0 REVERT JUMPDEST PUSH3 0x1D3 DUP3 PUSH3 0x188 JUMP JUMPDEST DUP2 ADD DUP2 DUP2 LT PUSH8 0xFFFFFFFFFFFFFFFF DUP3 GT OR ISZERO PUSH3 0x1F5 JUMPI PUSH3 0x1F4 PUSH3 0x199 JUMP JUMPDEST JUMPDEST DUP1 PUSH1 0x40 MSTORE POP POP POP JUMP JUMPDEST PUSH1 0x0 PUSH3 0x20A PUSH3 0x16F JUMP JUMPDEST SWAP1 POP PUSH3 0x218 DUP3 DUP3 PUSH3 0x1C8 JUMP JUMPDEST SWAP2 SWAP1 POP JUMP JUMPDEST PUSH1 0x0 PUSH8 0xFFFFFFFFFFFFFFFF DUP3 GT ISZERO PUSH3 0x23B JUMPI PUSH3 0x23A PUSH3 0x199 JUMP JUMPDEST JUMPDEST PUSH1 0x20 DUP3 MUL SWAP1 POP PUSH1 0x20 DUP2 ADD SWAP1 POP SWAP2 SWAP1 POP JUMP JUMPDEST PUSH1 0x0 DUP1 REVERT JUMPDEST PUSH1 0x0 DUP1 REVERT JUMPDEST PUSH1 0x0 DUP1 REVERT JUMPDEST PUSH1 0x0 DUP1 REVERT JUMPDEST PUSH1 0x0 PUSH8 0xFFFFFFFFFFFFFFFF DUP3 GT ISZERO PUSH3 0x27E JUMPI PUSH3 0x27D PUSH3 0x199 JUMP JUMPDEST JUMPDEST PUSH3 0x289 DUP3 PUSH3 0x188 JUMP JUMPDEST SWAP1 POP PUSH1 0x20 DUP2 ADD SWAP1 POP SWAP2 SWAP1 POP JUMP JUMPDEST PUSH1 0x0 JUMPDEST DUP4 DUP2 LT ISZERO PUSH3 0x2B6 JUMPI DUP1 DUP3 ADD MLOAD DUP2 DUP5 ADD MSTORE PUSH1 0x20 DUP2 ADD SWAP1 POP PUSH3 0x299 JUMP JUMPDEST PUSH1 0x0 DUP5 DUP5 ADD MSTORE POP POP POP POP JUMP JUMPDEST PUSH1 0x0 PUSH3 0x2D9 PUSH3 0x2D3 DUP5 PUSH3 0x260 JUMP JUMPDEST PUSH3 0x1FE JUMP JUMPDEST SWAP1 POP DUP3 DUP2 MSTORE PUSH1 0x20 DUP2 ADD DUP5 DUP5 DUP5 ADD GT ISZERO PUSH3 0x2F8 JUMPI PUSH3 0x2F7 PUSH3 0x25B JUMP JUMPDEST JUMPDEST PUSH3 0x305 DUP5 DUP3 DUP6 PUSH3 0x296 JUMP JUMPDEST POP SWAP4 SWAP3 POP POP POP JUMP JUMPDEST PUSH1 0x0 DUP3 PUSH1 0x1F DUP4 ADD SLT PUSH3 0x325 JUMPI PUSH3 0x324 PUSH3 0x183 JUMP JUMPDEST JUMPDEST DUP2 MLOAD PUSH3 0x337 DUP5 DUP3 PUSH1 0x20 DUP7 ADD PUSH3 0x2C2 JUMP JUMPDEST SWAP2 POP POP SWAP3 SWAP2 POP POP JUMP JUMPDEST PUSH1 0x0 DUP2 SWAP1 POP SWAP2 SWAP1 POP JUMP JUMPDEST PUSH3 0x355 DUP2 PUSH3 0x340 JUMP JUMPDEST DUP2 EQ PUSH3 0x361 JUMPI PUSH1 0x0 DUP1 REVERT JUMPDEST POP JUMP JUMPDEST PUSH1 0x0 DUP2 MLOAD SWAP1 POP PUSH3 0x375 DUP2 PUSH3 0x34A JUMP JUMPDEST SWAP3 SWAP2 POP POP JUMP JUMPDEST PUSH1 0x0 PUSH1 0x60 DUP3 DUP5 SUB SLT ISZERO PUSH3 0x394 JUMPI PUSH3 0x393 PUSH3 0x251 JUMP JUMPDEST JUMPDEST PUSH3 0x3A0 PUSH1 0x60 PUSH3 0x1FE JUMP JUMPDEST SWAP1 POP PUSH1 0x0 DUP3 ADD MLOAD PUSH8 0xFFFFFFFFFFFFFFFF DUP2 GT ISZERO PUSH3 0x3C3 JUMPI PUSH3 0x3C2 PUSH3 0x256 JUMP JUMPDEST JUMPDEST PUSH3 0x3D1 DUP5 DUP3 DUP6 ADD PUSH3 0x30D JUMP JUMPDEST PUSH1 0x0 DUP4 ADD MSTORE POP PUSH1 0x20 DUP3 ADD MLOAD PUSH8 0xFFFFFFFFFFFFFFFF DUP2 GT ISZERO PUSH3 0x3F8 JUMPI PUSH3 0x3F7 PUSH3 0x256 JUMP JUMPDEST JUMPDEST PUSH3 0x406 DUP5 DUP3 DUP6 ADD PUSH3 0x30D JUMP JUMPDEST PUSH1 0x20 DUP4 ADD MSTORE POP PUSH1 0x40 PUSH3 0x41C DUP5 DUP3 DUP6 ADD PUSH3 0x364 JUMP JUMPDEST PUSH1 0x40 DUP4 ADD MSTORE POP SWAP3 SWAP2 POP POP JUMP JUMPDEST PUSH1 0x0 PUSH3 0x43F PUSH3 0x439 DUP5 PUSH3 0x21D JUMP JUMPDEST PUSH3 0x1FE JUMP JUMPDEST SWAP1 POP DUP1 DUP4 DUP3 MSTORE PUSH1 0x20 DUP3 ADD SWAP1 POP PUSH1 0x20 DUP5 MUL DUP4 ADD DUP6 DUP2 GT ISZERO PUSH3 0x465 JUMPI PUSH3 0x464 PUSH3 0x24C JUMP JUMPDEST JUMPDEST DUP4 JUMPDEST DUP2 DUP2 LT ISZERO PUSH3 0x4B3 JUMPI DUP1 MLOAD PUSH8 0xFFFFFFFFFFFFFFFF DUP2 GT ISZERO PUSH3 0x48E JUMPI PUSH3 0x48D PUSH3 0x183 JUMP JUMPDEST JUMPDEST DUP1 DUP7 ADD PUSH3 0x49D DUP10 DUP3 PUSH3 0x37B JUMP JUMPDEST DUP6 MSTORE PUSH1 0x20 DUP6 ADD SWAP5 POP POP POP PUSH1 0x20 DUP2 ADD SWAP1 POP PUSH3 0x467 JUMP JUMPDEST POP POP POP SWAP4 SWAP3 POP POP POP JUMP JUMPDEST PUSH1 0x0 DUP3 PUSH1 0x1F DUP4 ADD SLT PUSH3 0x4D5 JUMPI PUSH3 0x4D4 PUSH3 0x183 JUMP JUMPDEST JUMPDEST DUP2 MLOAD PUSH3 0x4E7 DUP5 DUP3 PUSH1 0x20 DUP7 ADD PUSH3 0x428 JUMP JUMPDEST SWAP2 POP POP SWAP3 SWAP2 POP POP JUMP JUMPDEST PUSH1 0x0 DUP1 PUSH1 0x40 DUP4 DUP6 SUB SLT ISZERO PUSH3 0x50A JUMPI PUSH3 0x509 PUSH3 0x179 JUMP JUMPDEST JUMPDEST PUSH1 0x0 DUP4 ADD MLOAD PUSH8 0xFFFFFFFFFFFFFFFF DUP2 GT ISZERO PUSH3 0x52B JUMPI PUSH3 0x52A PUSH3 0x17E JUMP JUMPDEST JUMPDEST PUSH3 0x539 DUP6 DUP3 DUP7 ADD PUSH3 0x4BD JUMP JUMPDEST SWAP3 POP POP PUSH1 0x20 PUSH3 0x54C DUP6 DUP3 DUP7 ADD PUSH3 0x364 JUMP JUMPDEST SWAP2 POP POP SWAP3 POP SWAP3 SWAP1 POP JUMP JUMPDEST PUSH32 0x4E487B7100000000000000000000000000000000000000000000000000000000 PUSH1 0x0 MSTORE PUSH1 0x32 PUSH1 0x4 MSTORE PUSH1 0x24 PUSH1 0x0 REVERT JUMPDEST PUSH1 0x0 DUP2 MLOAD SWAP1 POP SWAP2 SWAP1 POP JUMP JUMPDEST PUSH32 0x4E487B7100000000000000000000000000000000000000000000000000000000 PUSH1 0x0 MSTORE PUSH1 0x22 PUSH1 0x4 MSTORE PUSH1 0x24 PUSH1 0x0 REVERT JUMPDEST PUSH1 0x0 PUSH1 0x2 DUP3 DIV SWAP1 POP PUSH1 0x1 DUP3 AND DUP1 PUSH3 0x5D8 JUMPI PUSH1 0x7F DUP3 AND SWAP2 POP JUMPDEST PUSH1 0x20 DUP3 LT DUP2 SUB PUSH3 0x5EE JUMPI PUSH3 0x5ED PUSH3 0x590 JUMP JUMPDEST JUMPDEST POP SWAP2 SWAP1 POP JUMP JUMPDEST PUSH1 0x0 DUP2 SWAP1 POP DUP2 PUSH1 0x0 MSTORE PUSH1 0x20 PUSH1 0x0 KECCAK256 SWAP1 POP SWAP2 SWAP1 POP JUMP JUMPDEST PUSH1 0x0 PUSH1 0x20 PUSH1 0x1F DUP4 ADD DIV SWAP1 POP SWAP2 SWAP1 POP JUMP JUMPDEST PUSH1 0x0 DUP3 DUP3 SHL SWAP1 POP SWAP3 SWAP2 POP POP JUMP JUMPDEST PUSH1 0x0 PUSH1 0x8 DUP4 MUL PUSH3 0x658 PUSH32 0xFFFFFFFFFFFFFFFFFFFFFFFFFFFFFFFFFFFFFFFFFFFFFFFFFFFFFFFFFFFFFFFF DUP3 PUSH3 0x619 JUMP JUMPDEST PUSH3 0x664 DUP7 DUP4 PUSH3 0x619 JUMP JUMPDEST SWAP6 POP DUP1 NOT DUP5 AND SWAP4 POP DUP1 DUP7 AND DUP5 OR SWAP3 POP POP POP SWAP4 SWAP3 POP POP POP JUMP JUMPDEST PUSH1 0x0 DUP2 SWAP1 POP SWAP2 SWAP1 POP JUMP JUMPDEST PUSH1 0x0 PUSH3 0x6A7 PUSH3 0x6A1 PUSH3 0x69B DUP5 PUSH3 0x340 JUMP JUMPDEST PUSH3 0x67C JUMP JUMPDEST PUSH3 0x340 JUMP JUMPDEST SWAP1 POP SWAP2 SWAP1 POP JUMP JUMPDEST PUSH1 0x0 DUP2 SWAP1 POP SWAP2 SWAP1 POP JUMP JUMPDEST PUSH3 0x6C3 DUP4 PUSH3 0x686 JUMP JUMPDEST PUSH3 0x6DB PUSH3 0x6D2 DUP3 PUSH3 0x6AE JUMP JUMPDEST DUP5 DUP5 SLOAD PUSH3 0x626 JUMP JUMPDEST DUP3 SSTORE POP POP POP POP JUMP JUMPDEST PUSH1 0x0 SWAP1 JUMP JUMPDEST PUSH3 0x6F2 PUSH3 0x6E3 JUMP JUMPDEST PUSH3 0x6FF DUP2 DUP5 DUP5 PUSH3 0x6B8 JUMP JUMPDEST POP POP POP JUMP JUMPDEST JUMPDEST DUP2 DUP2 LT ISZERO PUSH3 0x727 JUMPI PUSH3 0x71B PUSH1 0x0 DUP3 PUSH3 0x6E8 JUMP JUMPDEST PUSH1 0x1 DUP2 ADD SWAP1 POP PUSH3 0x705 JUMP JUMPDEST POP POP JUMP JUMPDEST PUSH1 0x1F DUP3 GT ISZERO PUSH3 0x776 JUMPI PUSH3 0x740 DUP2 PUSH3 0x5F4 JUMP JUMPDEST PUSH3 0x74B DUP5 PUSH3 0x609 JUMP JUMPDEST DUP2 ADD PUSH1 0x20 DUP6 LT ISZERO PUSH3 0x75B JUMPI DUP2 SWAP1 POP JUMPDEST PUSH3 0x773 PUSH3 0x76A DUP6 PUSH3 0x609 JUMP JUMPDEST DUP4 ADD DUP3 PUSH3 0x704 JUMP JUMPDEST POP POP JUMPDEST POP POP POP JUMP JUMPDEST PUSH1 0x0 DUP3 DUP3 SHR SWAP1 POP SWAP3 SWAP2 POP POP JUMP JUMPDEST PUSH1 0x0 PUSH3 0x79B PUSH1 0x0 NOT DUP5 PUSH1 0x8 MUL PUSH3 0x77B JUMP JUMPDEST NOT DUP1 DUP4 AND SWAP2 POP POP SWAP3 SWAP2 POP POP JUMP JUMPDEST PUSH1 0x0 PUSH3 0x7B6 DUP4 DUP4 PUSH3 0x788 JUMP JUMPDEST SWAP2 POP DUP3 PUSH1 0x2 MUL DUP3 OR SWAP1 POP SWAP3 SWAP2 POP POP JUMP JUMPDEST PUSH3 0x7D1 DUP3 PUSH3 0x585 JUMP JUMPDEST PUSH8 0xFFFFFFFFFFFFFFFF DUP2 GT ISZERO PUSH3 0x7ED JUMPI PUSH3 0x7EC PUSH3 0x199 JUMP JUMPDEST JUMPDEST PUSH3 0x7F9 DUP3 SLOAD PUSH3 0x5BF JUMP JUMPDEST PUSH3 0x806 DUP3 DUP3 DUP6 PUSH3 0x72B JUMP JUMPDEST PUSH1 0x0 PUSH1 0x20 SWAP1 POP PUSH1 0x1F DUP4 GT PUSH1 0x1 DUP2 EQ PUSH3 0x83E JUMPI PUSH1 0x0 DUP5 ISZERO PUSH3 0x829 JUMPI DUP3 DUP8 ADD MLOAD SWAP1 POP JUMPDEST PUSH3 0x835 DUP6 DUP3 PUSH3 0x7A8 JUMP JUMPDEST DUP7 SSTORE POP PUSH3 0x8A5 JUMP JUMPDEST PUSH1 0x1F NOT DUP5 AND PUSH3 0x84E DUP7 PUSH3 0x5F4 JUMP JUMPDEST PUSH1 0x0 JUMPDEST DUP3 DUP2 LT ISZERO PUSH3 0x878 JUMPI DUP5 DUP10 ADD MLOAD DUP3 SSTORE PUSH1 0x1 DUP3 ADD SWAP2 POP PUSH1 0x20 DUP6 ADD SWAP5 POP PUSH1 0x20 DUP2 ADD SWAP1 POP PUSH3 0x851 JUMP JUMPDEST DUP7 DUP4 LT ISZERO PUSH3 0x898 JUMPI DUP5 DUP10 ADD MLOAD PUSH3 0x894 PUSH1 0x1F DUP10 AND DUP3 PUSH3 0x788 JUMP JUMPDEST DUP4 SSTORE POP JUMPDEST PUSH1 0x1 PUSH1 0x2 DUP9 MUL ADD DUP9 SSTORE POP POP POP JUMPDEST POP POP POP POP POP POP JUMP JUMPDEST PUSH32 0x4E487B7100000000000000000000000000000000000000000000000000000000 PUSH1 0x0 MSTORE PUSH1 0x11 PUSH1 0x4 MSTORE PUSH1 0x24 PUSH1 0x0 REVERT JUMPDEST PUSH1 0x0 PUSH3 0x8E9 DUP3 PUSH3 0x340 JUMP JUMPDEST SWAP2 POP PUSH32 0xFFFFFFFFFFFFFFFFFFFFFFFFFFFFFFFFFFFFFFFFFFFFFFFFFFFFFFFFFFFFFFFF DUP3 SUB PUSH3 0x91E JUMPI PUSH3 0x91D PUSH3 0x8AD JUMP JUMPDEST JUMPDEST PUSH1 0x1 DUP3 ADD SWAP1 POP SWAP2 SWAP1 POP JUMP JUMPDEST PUSH2 0x1CF2 DUP1 PUSH3 0x939 PUSH1 0x0 CODECOPY PUSH1 0x0 RETURN INVALID PUSH1 0x80 PUSH1 0x40 MSTORE CALLVALUE DUP1 ISZERO PUSH2 0x10 JUMPI PUSH1 0x0 DUP1 REVERT JUMPDEST POP PUSH1 0x4 CALLDATASIZE LT PUSH2 0x10B JUMPI PUSH1 0x0 CALLDATALOAD PUSH1 0xE0 SHR DUP1 PUSH4 0x954115F2 GT PUSH2 0xA2 JUMPI DUP1 PUSH4 0xDA265430 GT PUSH2 0x71 JUMPI DUP1 PUSH4 0xDA265430 EQ PUSH2 0x2AB JUMPI DUP1 PUSH4 0xDF703622 EQ PUSH2 0x2C9 JUMPI DUP1 PUSH4 0xF0EE4577 EQ PUSH2 0x2E7 JUMPI DUP1 PUSH4 0xF927CC29 EQ PUSH2 0x317 JUMPI DUP1 PUSH4 0xFC36E15B EQ PUSH2 0x336 JUMPI PUSH2 0x10B JUMP JUMPDEST DUP1 PUSH4 0x954115F2 EQ PUSH2 0x224 JUMPI DUP1 PUSH4 0x9E7B8D61 EQ PUSH2 0x240 JUMPI DUP1 PUSH4 0xA3EC138D EQ PUSH2 0x25C JUMPI DUP1 PUSH4 0xCE606EE0 EQ PUSH2 0x28D JUMPI PUSH2 0x10B JUMP JUMPDEST DUP1 PUSH4 0x3477EE2E GT PUSH2 0xDE JUMPI DUP1 PUSH4 0x3477EE2E EQ PUSH2 0x186 JUMPI DUP1 PUSH4 0x3DDF3822 EQ PUSH2 0x1B8 JUMPI DUP1 PUSH4 0x4ABA5F34 EQ PUSH2 0x1D6 JUMPI DUP1 PUSH4 0x94B04E7D EQ PUSH2 0x1F4 JUMPI PUSH2 0x10B JUMP JUMPDEST DUP1 PUSH4 0x1C5556A EQ PUSH2 0x110 JUMPI DUP1 PUSH4 0x10508439 EQ PUSH2 0x12E JUMPI DUP1 PUSH4 0x2BFDA515 EQ PUSH2 0x14A JUMPI DUP1 PUSH4 0x32A2C5D0 EQ PUSH2 0x168 JUMPI JUMPDEST PUSH1 0x0 DUP1 REVERT JUMPDEST PUSH2 0x118 PUSH2 0x352 JUMP JUMPDEST PUSH1 0x40 MLOAD PUSH2 0x125 SWAP2 SWAP1 PUSH2 0xEFB JUMP JUMPDEST PUSH1 0x40 MLOAD DUP1 SWAP2 SUB SWAP1 RETURN JUMPDEST PUSH2 0x148 PUSH1 0x4 DUP1 CALLDATASIZE SUB DUP2 ADD SWAP1 PUSH2 0x143 SWAP2 SWAP1 PUSH2 0x1070 JUMP JUMPDEST PUSH2 0x3B1 JUMP JUMPDEST STOP JUMPDEST PUSH2 0x152 PUSH2 0x47B JUMP JUMPDEST PUSH1 0x40 MLOAD PUSH2 0x15F SWAP2 SWAP1 PUSH2 0x1167 JUMP JUMPDEST PUSH1 0x40 MLOAD DUP1 SWAP2 SUB SWAP1 RETURN JUMPDEST PUSH2 0x170 PUSH2 0x582 JUMP JUMPDEST PUSH1 0x40 MLOAD PUSH2 0x17D SWAP2 SWAP1 PUSH2 0x11CA JUMP JUMPDEST PUSH1 0x40 MLOAD DUP1 SWAP2 SUB SWAP1 RETURN JUMPDEST PUSH2 0x1A0 PUSH1 0x4 DUP1 CALLDATASIZE SUB DUP2 ADD SWAP1 PUSH2 0x19B SWAP2 SWAP1 PUSH2 0x1211 JUMP JUMPDEST PUSH2 0x58A JUMP JUMPDEST PUSH1 0x40 MLOAD PUSH2 0x1AF SWAP4 SWAP3 SWAP2 SWAP1 PUSH2 0x123E JUMP JUMPDEST PUSH1 0x40 MLOAD DUP1 SWAP2 SUB SWAP1 RETURN JUMPDEST PUSH2 0x1C0 PUSH2 0x6D4 JUMP JUMPDEST PUSH1 0x40 MLOAD PUSH2 0x1CD SWAP2 SWAP1 PUSH2 0x129E JUMP JUMPDEST PUSH1 0x40 MLOAD DUP1 SWAP2 SUB SWAP1 RETURN JUMPDEST PUSH2 0x1DE PUSH2 0x72B JUMP JUMPDEST PUSH1 0x40 MLOAD PUSH2 0x1EB SWAP2 SWAP1 PUSH2 0x142B JUMP JUMPDEST PUSH1 0x40 MLOAD DUP1 SWAP2 SUB SWAP1 RETURN JUMPDEST PUSH2 0x20E PUSH1 0x4 DUP1 CALLDATASIZE SUB DUP2 ADD SWAP1 PUSH2 0x209 SWAP2 SWAP1 PUSH2 0x1479 JUMP JUMPDEST PUSH2 0x8B8 JUMP JUMPDEST PUSH1 0x40 MLOAD PUSH2 0x21B SWAP2 SWAP1 PUSH2 0x129E JUMP JUMPDEST PUSH1 0x40 MLOAD DUP1 SWAP2 SUB SWAP1 RETURN JUMPDEST PUSH2 0x23E PUSH1 0x4 DUP1 CALLDATASIZE SUB DUP2 ADD SWAP1 PUSH2 0x239 SWAP2 SWAP1 PUSH2 0x154C JUMP JUMPDEST PUSH2 0x911 JUMP JUMPDEST STOP JUMPDEST PUSH2 0x25A PUSH1 0x4 DUP1 CALLDATASIZE SUB DUP2 ADD SWAP1 PUSH2 0x255 SWAP2 SWAP1 PUSH2 0x1479 JUMP JUMPDEST PUSH2 0x9BF JUMP JUMPDEST STOP JUMPDEST PUSH2 0x276 PUSH1 0x4 DUP1 CALLDATASIZE SUB DUP2 ADD SWAP1 PUSH2 0x271 SWAP2 SWAP1 PUSH2 0x1479 JUMP JUMPDEST PUSH2 0xA6E JUMP JUMPDEST PUSH1 0x40 MLOAD PUSH2 0x284 SWAP3 SWAP2 SWAP1 PUSH2 0x1595 JUMP JUMPDEST PUSH1 0x40 MLOAD DUP1 SWAP2 SUB SWAP1 RETURN JUMPDEST PUSH2 0x295 PUSH2 0xAAC JUMP JUMPDEST PUSH1 0x40 MLOAD PUSH2 0x2A2 SWAP2 SWAP1 PUSH2 0x11CA JUMP JUMPDEST PUSH1 0x40 MLOAD DUP1 SWAP2 SUB SWAP1 RETURN JUMPDEST PUSH2 0x2B3 PUSH2 0xAD0 JUMP JUMPDEST PUSH1 0x40 MLOAD PUSH2 0x2C0 SWAP2 SWAP1 PUSH2 0x129E JUMP JUMPDEST PUSH1 0x40 MLOAD DUP1 SWAP2 SUB SWAP1 RETURN JUMPDEST PUSH2 0x2D1 PUSH2 0xAE0 JUMP JUMPDEST PUSH1 0x40 MLOAD PUSH2 0x2DE SWAP2 SWAP1 PUSH2 0x129E JUMP JUMPDEST PUSH1 0x40 MLOAD DUP1 SWAP2 SUB SWAP1 RETURN JUMPDEST PUSH2 0x301 PUSH1 0x4 DUP1 CALLDATASIZE SUB DUP2 ADD SWAP1 PUSH2 0x2FC SWAP2 SWAP1 PUSH2 0x1479 JUMP JUMPDEST PUSH2 0xAF0 JUMP JUMPDEST PUSH1 0x40 MLOAD PUSH2 0x30E SWAP2 SWAP1 PUSH2 0x129E JUMP JUMPDEST PUSH1 0x40 MLOAD DUP1 SWAP2 SUB SWAP1 RETURN JUMPDEST PUSH2 0x31F PUSH2 0xB49 JUMP JUMPDEST PUSH1 0x40 MLOAD PUSH2 0x32D SWAP3 SWAP2 SWAP1 PUSH2 0x15BE JUMP JUMPDEST PUSH1 0x40 MLOAD DUP1 SWAP2 SUB SWAP1 RETURN JUMPDEST PUSH2 0x350 PUSH1 0x4 DUP1 CALLDATASIZE SUB DUP2 ADD SWAP1 PUSH2 0x34B SWAP2 SWAP1 PUSH2 0x15E7 JUMP JUMPDEST PUSH2 0xC0D JUMP JUMPDEST STOP JUMPDEST PUSH1 0x0 DUP1 PUSH1 0x0 SWAP1 POP JUMPDEST PUSH1 0x2 DUP1 SLOAD SWAP1 POP DUP2 LT ISZERO PUSH2 0x3AD JUMPI PUSH1 0x2 DUP2 DUP2 SLOAD DUP2 LT PUSH2 0x37B JUMPI PUSH2 0x37A PUSH2 0x1630 JUMP JUMPDEST JUMPDEST SWAP1 PUSH1 0x0 MSTORE PUSH1 0x20 PUSH1 0x0 KECCAK256 SWAP1 PUSH1 0x3 MUL ADD PUSH1 0x2 ADD SLOAD DUP3 PUSH2 0x398 SWAP2 SWAP1 PUSH2 0x168E JUMP JUMPDEST SWAP2 POP DUP1 DUP1 PUSH2 0x3A5 SWAP1 PUSH2 0x16C2 JUMP JUMPDEST SWAP2 POP POP PUSH2 0x35A JUMP JUMPDEST POP SWAP1 JUMP JUMPDEST PUSH2 0x3B9 PUSH2 0x6D4 JUMP JUMPDEST PUSH2 0x3F8 JUMPI PUSH1 0x40 MLOAD PUSH32 0x8C379A000000000000000000000000000000000000000000000000000000000 DUP2 MSTORE PUSH1 0x4 ADD PUSH2 0x3EF SWAP1 PUSH2 0x177C JUMP JUMPDEST PUSH1 0x40 MLOAD DUP1 SWAP2 SUB SWAP1 REVERT JUMPDEST PUSH1 0x2 PUSH1 0x40 MLOAD DUP1 PUSH1 0x60 ADD PUSH1 0x40 MSTORE DUP1 DUP5 DUP2 MSTORE PUSH1 0x20 ADD DUP4 DUP2 MSTORE PUSH1 0x20 ADD PUSH1 0x0 DUP2 MSTORE POP SWAP1 DUP1 PUSH1 0x1 DUP2 SLOAD ADD DUP1 DUP3 SSTORE DUP1 SWAP2 POP POP PUSH1 0x1 SWAP1 SUB SWAP1 PUSH1 0x0 MSTORE PUSH1 0x20 PUSH1 0x0 KECCAK256 SWAP1 PUSH1 0x3 MUL ADD PUSH1 0x0 SWAP1 SWAP2 SWAP1 SWAP2 SWAP1 SWAP2 POP PUSH1 0x0 DUP3 ADD MLOAD DUP2 PUSH1 0x0 ADD SWAP1 DUP2 PUSH2 0x454 SWAP2 SWAP1 PUSH2 0x19A8 JUMP JUMPDEST POP PUSH1 0x20 DUP3 ADD MLOAD DUP2 PUSH1 0x1 ADD SWAP1 DUP2 PUSH2 0x46A SWAP2 SWAP1 PUSH2 0x19A8 JUMP JUMPDEST POP PUSH1 0x40 DUP3 ADD MLOAD DUP2 PUSH1 0x2 ADD SSTORE POP POP POP POP JUMP JUMPDEST PUSH1 0x60 PUSH1 0x0 DUP1 PUSH2 0x488 PUSH2 0xB49 JUMP JUMPDEST SWAP2 POP SWAP2 POP DUP1 ISZERO PUSH2 0x4CD JUMPI PUSH1 0x40 MLOAD PUSH32 0x8C379A000000000000000000000000000000000000000000000000000000000 DUP2 MSTORE PUSH1 0x4 ADD PUSH2 0x4C4 SWAP1 PUSH2 0x1AC6 JUMP JUMPDEST PUSH1 0x40 MLOAD DUP1 SWAP2 SUB SWAP1 REVERT JUMPDEST PUSH1 0x2 DUP3 DUP2 SLOAD DUP2 LT PUSH2 0x4E1 JUMPI PUSH2 0x4E0 PUSH2 0x1630 JUMP JUMPDEST JUMPDEST SWAP1 PUSH1 0x0 MSTORE PUSH1 0x20 PUSH1 0x0 KECCAK256 SWAP1 PUSH1 0x3 MUL ADD PUSH1 0x0 ADD DUP1 SLOAD PUSH2 0x4FD SWAP1 PUSH2 0x17CB JUMP JUMPDEST DUP1 PUSH1 0x1F ADD PUSH1 0x20 DUP1 SWAP2 DIV MUL PUSH1 0x20 ADD PUSH1 0x40 MLOAD SWAP1 DUP2 ADD PUSH1 0x40 MSTORE DUP1 SWAP3 SWAP2 SWAP1 DUP2 DUP2 MSTORE PUSH1 0x20 ADD DUP3 DUP1 SLOAD PUSH2 0x529 SWAP1 PUSH2 0x17CB JUMP JUMPDEST DUP1 ISZERO PUSH2 0x576 JUMPI DUP1 PUSH1 0x1F LT PUSH2 0x54B JUMPI PUSH2 0x100 DUP1 DUP4 SLOAD DIV MUL DUP4 MSTORE SWAP2 PUSH1 0x20 ADD SWAP2 PUSH2 0x576 JUMP JUMPDEST DUP3 ADD SWAP2 SWAP1 PUSH1 0x0 MSTORE PUSH1 0x20 PUSH1 0x0 KECCAK256 SWAP1 JUMPDEST DUP2 SLOAD DUP2 MSTORE SWAP1 PUSH1 0x1 ADD SWAP1 PUSH1 0x20 ADD DUP1 DUP4 GT PUSH2 0x559 JUMPI DUP3 SWAP1 SUB PUSH1 0x1F AND DUP3 ADD SWAP2 JUMPDEST POP POP POP POP POP SWAP3 POP POP POP SWAP1 JUMP JUMPDEST PUSH1 0x0 ADDRESS SWAP1 POP SWAP1 JUMP JUMPDEST PUSH1 0x2 DUP2 DUP2 SLOAD DUP2 LT PUSH2 0x59A JUMPI PUSH1 0x0 DUP1 REVERT JUMPDEST SWAP1 PUSH1 0x0 MSTORE PUSH1 0x20 PUSH1 0x0 KECCAK256 SWAP1 PUSH1 0x3 MUL ADD PUSH1 0x0 SWAP2 POP SWAP1 POP DUP1 PUSH1 0x0 ADD DUP1 SLOAD PUSH2 0x5BD SWAP1 PUSH2 0x17CB JUMP JUMPDEST DUP1 PUSH1 0x1F ADD PUSH1 0x20 DUP1 SWAP2 DIV MUL PUSH1 0x20 ADD PUSH1 0x40 MLOAD SWAP1 DUP2 ADD PUSH1 0x40 MSTORE DUP1 SWAP3 SWAP2 SWAP1 DUP2 DUP2 MSTORE PUSH1 0x20 ADD DUP3 DUP1 SLOAD PUSH2 0x5E9 SWAP1 PUSH2 0x17CB JUMP JUMPDEST DUP1 ISZERO PUSH2 0x636 JUMPI DUP1 PUSH1 0x1F LT PUSH2 0x60B JUMPI PUSH2 0x100 DUP1 DUP4 SLOAD DIV MUL DUP4 MSTORE SWAP2 PUSH1 0x20 ADD SWAP2 PUSH2 0x636 JUMP JUMPDEST DUP3 ADD SWAP2 SWAP1 PUSH1 0x0 MSTORE PUSH1 0x20 PUSH1 0x0 KECCAK256 SWAP1 JUMPDEST DUP2 SLOAD DUP2 MSTORE SWAP1 PUSH1 0x1 ADD SWAP1 PUSH1 0x20 ADD DUP1 DUP4 GT PUSH2 0x619 JUMPI DUP3 SWAP1 SUB PUSH1 0x1F AND DUP3 ADD SWAP2 JUMPDEST POP POP POP POP POP SWAP1 DUP1 PUSH1 0x1 ADD DUP1 SLOAD PUSH2 0x64B SWAP1 PUSH2 0x17CB JUMP JUMPDEST DUP1 PUSH1 0x1F ADD PUSH1 0x20 DUP1 SWAP2 DIV MUL PUSH1 0x20 ADD PUSH1 0x40 MLOAD SWAP1 DUP2 ADD PUSH1 0x40 MSTORE DUP1 SWAP3 SWAP2 SWAP1 DUP2 DUP2 MSTORE PUSH1 0x20 ADD DUP3 DUP1 SLOAD PUSH2 0x677 SWAP1 PUSH2 0x17CB JUMP JUMPDEST DUP1 ISZERO PUSH2 0x6C4 JUMPI DUP1 PUSH1 0x1F LT PUSH2 0x699 JUMPI PUSH2 0x100 DUP1 DUP4 SLOAD DIV MUL DUP4 MSTORE SWAP2 PUSH1 0x20 ADD SWAP2 PUSH2 0x6C4 JUMP JUMPDEST DUP3 ADD SWAP2 SWAP1 PUSH1 0x0 MSTORE PUSH1 0x20 PUSH1 0x0 KECCAK256 SWAP1 JUMPDEST DUP2 SLOAD DUP2 MSTORE SWAP1 PUSH1 0x1 ADD SWAP1 PUSH1 0x20 ADD DUP1 DUP4 GT PUSH2 0x6A7 JUMPI DUP3 SWAP1 SUB PUSH1 0x1F AND DUP3 ADD SWAP2 JUMPDEST POP POP POP POP POP SWAP1 DUP1 PUSH1 0x2 ADD SLOAD SWAP1 POP DUP4 JUMP JUMPDEST PUSH1 0x0 DUP1 PUSH1 0x0 SWAP1 SLOAD SWAP1 PUSH2 0x100 EXP SWAP1 DIV PUSH20 0xFFFFFFFFFFFFFFFFFFFFFFFFFFFFFFFFFFFFFFFF AND PUSH20 0xFFFFFFFFFFFFFFFFFFFFFFFFFFFFFFFFFFFFFFFF AND CALLER PUSH20 0xFFFFFFFFFFFFFFFFFFFFFFFFFFFFFFFFFFFFFFFF AND EQ SWAP1 POP SWAP1 JUMP JUMPDEST PUSH1 0x60 PUSH1 0x2 DUP1 SLOAD DUP1 PUSH1 0x20 MUL PUSH1 0x20 ADD PUSH1 0x40 MLOAD SWAP1 DUP2 ADD PUSH1 0x40 MSTORE DUP1 SWAP3 SWAP2 SWAP1 DUP2 DUP2 MSTORE PUSH1 0x20 ADD PUSH1 0x0 SWAP1 JUMPDEST DUP3 DUP3 LT ISZERO PUSH2 0x8AF JUMPI DUP4 DUP3 SWAP1 PUSH1 0x0 MSTORE PUSH1 0x20 PUSH1 0x0 KECCAK256 SWAP1 PUSH1 0x3 MUL ADD PUSH1 0x40 MLOAD DUP1 PUSH1 0x60 ADD PUSH1 0x40 MSTORE SWAP1 DUP2 PUSH1 0x0 DUP3 ADD DUP1 SLOAD PUSH2 0x782 SWAP1 PUSH2 0x17CB JUMP JUMPDEST DUP1 PUSH1 0x1F ADD PUSH1 0x20 DUP1 SWAP2 DIV MUL PUSH1 0x20 ADD PUSH1 0x40 MLOAD SWAP1 DUP2 ADD PUSH1 0x40 MSTORE DUP1 SWAP3 SWAP2 SWAP1 DUP2 DUP2 MSTORE PUSH1 0x20 ADD DUP3 DUP1 SLOAD PUSH2 0x7AE SWAP1 PUSH2 0x17CB JUMP JUMPDEST DUP1 ISZERO PUSH2 0x7FB JUMPI DUP1 PUSH1 0x1F LT PUSH2 0x7D0 JUMPI PUSH2 0x100 DUP1 DUP4 SLOAD DIV MUL DUP4 MSTORE SWAP2 PUSH1 0x20 ADD SWAP2 PUSH2 0x7FB JUMP JUMPDEST DUP3 ADD SWAP2 SWAP1 PUSH1 0x0 MSTORE PUSH1 0x20 PUSH1 0x0 KECCAK256 SWAP1 JUMPDEST DUP2 SLOAD DUP2 MSTORE SWAP1 PUSH1 0x1 ADD SWAP1 PUSH1 0x20 ADD DUP1 DUP4 GT PUSH2 0x7DE JUMPI DUP3 SWAP1 SUB PUSH1 0x1F AND DUP3 ADD SWAP2 JUMPDEST POP POP POP POP POP DUP2 MSTORE PUSH1 0x20 ADD PUSH1 0x1 DUP3 ADD DUP1 SLOAD PUSH2 0x814 SWAP1 PUSH2 0x17CB JUMP JUMPDEST DUP1 PUSH1 0x1F ADD PUSH1 0x20 DUP1 SWAP2 DIV MUL PUSH1 0x20 ADD PUSH1 0x40 MLOAD SWAP1 DUP2 ADD PUSH1 0x40 MSTORE DUP1 SWAP3 SWAP2 SWAP1 DUP2 DUP2 MSTORE PUSH1 0x20 ADD DUP3 DUP1 SLOAD PUSH2 0x840 SWAP1 PUSH2 0x17CB JUMP JUMPDEST DUP1 ISZERO PUSH2 0x88D JUMPI DUP1 PUSH1 0x1F LT PUSH2 0x862 JUMPI PUSH2 0x100 DUP1 DUP4 SLOAD DIV MUL DUP4 MSTORE SWAP2 PUSH1 0x20 ADD SWAP2 PUSH2 0x88D JUMP JUMPDEST DUP3 ADD SWAP2 SWAP1 PUSH1 0x0 MSTORE PUSH1 0x20 PUSH1 0x0 KECCAK256 SWAP1 JUMPDEST DUP2 SLOAD DUP2 MSTORE SWAP1 PUSH1 0x1 ADD SWAP1 PUSH1 0x20 ADD DUP1 DUP4 GT PUSH2 0x870 JUMPI DUP3 SWAP1 SUB PUSH1 0x1F AND DUP3 ADD SWAP2 JUMPDEST POP POP POP POP POP DUP2 MSTORE PUSH1 0x20 ADD PUSH1 0x2 DUP3 ADD SLOAD DUP2 MSTORE POP POP DUP2 MSTORE PUSH1 0x20 ADD SWAP1 PUSH1 0x1 ADD SWAP1 PUSH2 0x74F JUMP JUMPDEST POP POP POP POP SWAP1 POP SWAP1 JUMP JUMPDEST PUSH1 0x0 PUSH1 0x1 PUSH1 0x0 DUP4 PUSH20 0xFFFFFFFFFFFFFFFFFFFFFFFFFFFFFFFFFFFFFFFF AND PUSH20 0xFFFFFFFFFFFFFFFFFFFFFFFFFFFFFFFFFFFFFFFF AND DUP2 MSTORE PUSH1 0x20 ADD SWAP1 DUP2 MSTORE PUSH1 0x20 ADD PUSH1 0x0 KECCAK256 PUSH1 0x0 ADD PUSH1 0x0 SWAP1 SLOAD SWAP1 PUSH2 0x100 EXP SWAP1 DIV PUSH1 0xFF AND SWAP1 POP SWAP2 SWAP1 POP JUMP JUMPDEST PUSH2 0x919 PUSH2 0x6D4 JUMP JUMPDEST PUSH2 0x958 JUMPI PUSH1 0x40 MLOAD PUSH32 0x8C379A000000000000000000000000000000000000000000000000000000000 DUP2 MSTORE PUSH1 0x4 ADD PUSH2 0x94F SWAP1 PUSH2 0x177C JUMP JUMPDEST PUSH1 0x40 MLOAD DUP1 SWAP2 SUB SWAP1 REVERT JUMPDEST PUSH1 0x2 DUP2 SWAP1 DUP1 PUSH1 0x1 DUP2 SLOAD ADD DUP1 DUP3 SSTORE DUP1 SWAP2 POP POP PUSH1 0x1 SWAP1 SUB SWAP1 PUSH1 0x0 MSTORE PUSH1 0x20 PUSH1 0x0 KECCAK256 SWAP1 PUSH1 0x3 MUL ADD PUSH1 0x0 SWAP1 SWAP2 SWAP1 SWAP2 SWAP1 SWAP2 POP PUSH1 0x0 DUP3 ADD MLOAD DUP2 PUSH1 0x0 ADD SWAP1 DUP2 PUSH2 0x999 SWAP2 SWAP1 PUSH2 0x19A8 JUMP JUMPDEST POP PUSH1 0x20 DUP3 ADD MLOAD DUP2 PUSH1 0x1 ADD SWAP1 DUP2 PUSH2 0x9AF SWAP2 SWAP1 PUSH2 0x19A8 JUMP JUMPDEST POP PUSH1 0x40 DUP3 ADD MLOAD DUP2 PUSH1 0x2 ADD SSTORE POP POP POP JUMP JUMPDEST DUP1 PUSH2 0x9C8 PUSH2 0x6D4 JUMP JUMPDEST PUSH2 0xA07 JUMPI PUSH1 0x40 MLOAD PUSH32 0x8C379A000000000000000000000000000000000000000000000000000000000 DUP2 MSTORE PUSH1 0x4 ADD PUSH2 0x9FE SWAP1 PUSH2 0x1B58 JUMP JUMPDEST PUSH1 0x40 MLOAD DUP1 SWAP2 SUB SWAP1 REVERT JUMPDEST PUSH2 0xA10 DUP2 PUSH2 0xE3D JUMP JUMPDEST PUSH1 0x1 DUP1 PUSH1 0x0 DUP5 PUSH20 0xFFFFFFFFFFFFFFFFFFFFFFFFFFFFFFFFFFFFFFFF AND PUSH20 0xFFFFFFFFFFFFFFFFFFFFFFFFFFFFFFFFFFFFFFFF AND DUP2 MSTORE PUSH1 0x20 ADD SWAP1 DUP2 MSTORE PUSH1 0x20 ADD PUSH1 0x0 KECCAK256 PUSH1 0x0 ADD PUSH1 0x0 PUSH2 0x100 EXP DUP2 SLOAD DUP2 PUSH1 0xFF MUL NOT AND SWAP1 DUP4 ISZERO ISZERO MUL OR SWAP1 SSTORE POP POP POP JUMP JUMPDEST PUSH1 0x1 PUSH1 0x20 MSTORE DUP1 PUSH1 0x0 MSTORE PUSH1 0x40 PUSH1 0x0 KECCAK256 PUSH1 0x0 SWAP2 POP SWAP1 POP DUP1 PUSH1 0x0 ADD PUSH1 0x0 SWAP1 SLOAD SWAP1 PUSH2 0x100 EXP SWAP1 DIV PUSH1 0xFF AND SWAP1 DUP1 PUSH1 0x0 ADD PUSH1 0x1 SWAP1 SLOAD SWAP1 PUSH2 0x100 EXP SWAP1 DIV PUSH1 0xFF AND SWAP1 POP DUP3 JUMP JUMPDEST PUSH1 0x0 DUP1 SLOAD SWAP1 PUSH2 0x100 EXP SWAP1 DIV PUSH20 0xFFFFFFFFFFFFFFFFFFFFFFFFFFFFFFFFFFFFFFFF AND DUP2 JUMP JUMPDEST PUSH1 0x0 PUSH2 0xADB CALLER PUSH2 0xAF0 JUMP JUMPDEST SWAP1 POP SWAP1 JUMP JUMPDEST PUSH1 0x0 PUSH2 0xAEB CALLER PUSH2 0x8B8 JUMP JUMPDEST SWAP1 POP SWAP1 JUMP JUMPDEST PUSH1 0x0 PUSH1 0x1 PUSH1 0x0 DUP4 PUSH20 0xFFFFFFFFFFFFFFFFFFFFFFFFFFFFFFFFFFFFFFFF AND PUSH20 0xFFFFFFFFFFFFFFFFFFFFFFFFFFFFFFFFFFFFFFFF AND DUP2 MSTORE PUSH1 0x20 ADD SWAP1 DUP2 MSTORE PUSH1 0x20 ADD PUSH1 0x0 KECCAK256 PUSH1 0x0 ADD PUSH1 0x1 SWAP1 SLOAD SWAP1 PUSH2 0x100 EXP SWAP1 DIV PUSH1 0xFF AND SWAP1 POP SWAP2 SWAP1 POP JUMP JUMPDEST PUSH1 0x0 DUP1 PUSH1 0x0 DUP1 PUSH1 0x0 SWAP1 POP JUMPDEST PUSH1 0x2 DUP1 SLOAD SWAP1 POP DUP2 LT ISZERO PUSH2 0xC07 JUMPI DUP2 PUSH1 0x2 DUP3 DUP2 SLOAD DUP2 LT PUSH2 0xB76 JUMPI PUSH2 0xB75 PUSH2 0x1630 JUMP JUMPDEST JUMPDEST SWAP1 PUSH1 0x0 MSTORE PUSH1 0x20 PUSH1 0x0 KECCAK256 SWAP1 PUSH1 0x3 MUL ADD PUSH1 0x2 ADD SLOAD GT ISZERO PUSH2 0xBC2 JUMPI PUSH1 0x2 DUP2 DUP2 SLOAD DUP2 LT PUSH2 0xBA2 JUMPI PUSH2 0xBA1 PUSH2 0x1630 JUMP JUMPDEST JUMPDEST SWAP1 PUSH1 0x0 MSTORE PUSH1 0x20 PUSH1 0x0 KECCAK256 SWAP1 PUSH1 0x3 MUL ADD PUSH1 0x2 ADD SLOAD SWAP2 POP DUP1 SWAP4 POP PUSH1 0x0 SWAP3 POP PUSH2 0xBF4 JUMP JUMPDEST DUP2 PUSH1 0x2 DUP3 DUP2 SLOAD DUP2 LT PUSH2 0xBD7 JUMPI PUSH2 0xBD6 PUSH2 0x1630 JUMP JUMPDEST JUMPDEST SWAP1 PUSH1 0x0 MSTORE PUSH1 0x20 PUSH1 0x0 KECCAK256 SWAP1 PUSH1 0x3 MUL ADD PUSH1 0x2 ADD SLOAD SUB PUSH2 0xBF3 JUMPI PUSH1 0x1 SWAP3 POP JUMPDEST JUMPDEST DUP1 DUP1 PUSH2 0xBFF SWAP1 PUSH2 0x16C2 JUMP JUMPDEST SWAP2 POP POP PUSH2 0xB54 JUMP JUMPDEST POP POP SWAP1 SWAP2 JUMP JUMPDEST CALLER PUSH1 0x4 SLOAD PUSH1 0x3 SLOAD LT PUSH2 0xC54 JUMPI PUSH1 0x40 MLOAD PUSH32 0x8C379A000000000000000000000000000000000000000000000000000000000 DUP2 MSTORE PUSH1 0x4 ADD PUSH2 0xC4B SWAP1 PUSH2 0x1BC4 JUMP JUMPDEST PUSH1 0x40 MLOAD DUP1 SWAP2 SUB SWAP1 REVERT JUMPDEST PUSH2 0xC5C PUSH2 0xAE0 JUMP JUMPDEST PUSH2 0xC9B JUMPI PUSH1 0x40 MLOAD PUSH32 0x8C379A000000000000000000000000000000000000000000000000000000000 DUP2 MSTORE PUSH1 0x4 ADD PUSH2 0xC92 SWAP1 PUSH2 0x1C30 JUMP JUMPDEST PUSH1 0x40 MLOAD DUP1 SWAP2 SUB SWAP1 REVERT JUMPDEST PUSH2 0xCA4 DUP2 PUSH2 0xE3D JUMP JUMPDEST PUSH1 0x0 PUSH1 0x1 PUSH1 0x0 CALLER PUSH20 0xFFFFFFFFFFFFFFFFFFFFFFFFFFFFFFFFFFFFFFFF AND PUSH20 0xFFFFFFFFFFFFFFFFFFFFFFFFFFFFFFFFFFFFFFFF AND DUP2 MSTORE PUSH1 0x20 ADD SWAP1 DUP2 MSTORE PUSH1 0x20 ADD PUSH1 0x0 KECCAK256 SWAP1 POP PUSH1 0x0 JUMPDEST PUSH1 0x2 DUP1 SLOAD SWAP1 POP DUP2 LT ISZERO PUSH2 0xE37 JUMPI PUSH2 0xDAE PUSH1 0x2 DUP3 DUP2 SLOAD DUP2 LT PUSH2 0xD0E JUMPI PUSH2 0xD0D PUSH2 0x1630 JUMP JUMPDEST JUMPDEST SWAP1 PUSH1 0x0 MSTORE PUSH1 0x20 PUSH1 0x0 KECCAK256 SWAP1 PUSH1 0x3 MUL ADD PUSH1 0x0 ADD DUP1 SLOAD PUSH2 0xD2A SWAP1 PUSH2 0x17CB JUMP JUMPDEST DUP1 PUSH1 0x1F ADD PUSH1 0x20 DUP1 SWAP2 DIV MUL PUSH1 0x20 ADD PUSH1 0x40 MLOAD SWAP1 DUP2 ADD PUSH1 0x40 MSTORE DUP1 SWAP3 SWAP2 SWAP1 DUP2 DUP2 MSTORE PUSH1 0x20 ADD DUP3 DUP1 SLOAD PUSH2 0xD56 SWAP1 PUSH2 0x17CB JUMP JUMPDEST DUP1 ISZERO PUSH2 0xDA3 JUMPI DUP1 PUSH1 0x1F LT PUSH2 0xD78 JUMPI PUSH2 0x100 DUP1 DUP4 SLOAD DIV MUL DUP4 MSTORE SWAP2 PUSH1 0x20 ADD SWAP2 PUSH2 0xDA3 JUMP JUMPDEST DUP3 ADD SWAP2 SWAP1 PUSH1 0x0 MSTORE PUSH1 0x20 PUSH1 0x0 KECCAK256 SWAP1 JUMPDEST DUP2 SLOAD DUP2 MSTORE SWAP1 PUSH1 0x1 ADD SWAP1 PUSH1 0x20 ADD DUP1 DUP4 GT PUSH2 0xD86 JUMPI DUP3 SWAP1 SUB PUSH1 0x1F AND DUP3 ADD SWAP2 JUMPDEST POP POP POP POP POP DUP6 PUSH2 0xE89 JUMP JUMPDEST ISZERO PUSH2 0xE24 JUMPI PUSH1 0x2 DUP2 DUP2 SLOAD DUP2 LT PUSH2 0xDC7 JUMPI PUSH2 0xDC6 PUSH2 0x1630 JUMP JUMPDEST JUMPDEST SWAP1 PUSH1 0x0 MSTORE PUSH1 0x20 PUSH1 0x0 KECCAK256 SWAP1 PUSH1 0x3 MUL ADD PUSH1 0x2 ADD PUSH1 0x0 DUP2 SLOAD DUP1 SWAP3 SWAP2 SWAP1 PUSH2 0xDE9 SWAP1 PUSH2 0x16C2 JUMP JUMPDEST SWAP2 SWAP1 POP SSTORE POP PUSH1 0x1 DUP3 PUSH1 0x0 ADD PUSH1 0x1 PUSH2 0x100 EXP DUP2 SLOAD DUP2 PUSH1 0xFF MUL NOT AND SWAP1 DUP4 ISZERO ISZERO MUL OR SWAP1 SSTORE POP PUSH1 0x3 PUSH1 0x0 DUP2 SLOAD DUP1 SWAP3 SWAP2 SWAP1 PUSH2 0xE1E SWAP1 PUSH2 0x16C2 JUMP JUMPDEST SWAP2 SWAP1 POP SSTORE POP JUMPDEST DUP1 DUP1 PUSH2 0xE2F SWAP1 PUSH2 0x16C2 JUMP JUMPDEST SWAP2 POP POP PUSH2 0xCEA JUMP JUMPDEST POP POP POP POP JUMP JUMPDEST PUSH2 0xE46 DUP2 PUSH2 0xAF0 JUMP JUMPDEST ISZERO PUSH2 0xE86 JUMPI PUSH1 0x40 MLOAD PUSH32 0x8C379A000000000000000000000000000000000000000000000000000000000 DUP2 MSTORE PUSH1 0x4 ADD PUSH2 0xE7D SWAP1 PUSH2 0x1C9C JUMP JUMPDEST PUSH1 0x40 MLOAD DUP1 SWAP2 SUB SWAP1 REVERT JUMPDEST POP JUMP JUMPDEST PUSH1 0x0 DUP2 PUSH1 0x40 MLOAD PUSH1 0x20 ADD PUSH2 0xE9C SWAP2 SWAP1 PUSH2 0x1167 JUMP JUMPDEST PUSH1 0x40 MLOAD PUSH1 0x20 DUP2 DUP4 SUB SUB DUP2 MSTORE SWAP1 PUSH1 0x40 MSTORE DUP1 MLOAD SWAP1 PUSH1 0x20 ADD KECCAK256 DUP4 PUSH1 0x40 MLOAD PUSH1 0x20 ADD PUSH2 0xEC3 SWAP2 SWAP1 PUSH2 0x1167 JUMP JUMPDEST PUSH1 0x40 MLOAD PUSH1 0x20 DUP2 DUP4 SUB SUB DUP2 MSTORE SWAP1 PUSH1 0x40 MSTORE DUP1 MLOAD SWAP1 PUSH1 0x20 ADD KECCAK256 EQ SWAP1 POP SWAP3 SWAP2 POP POP JUMP JUMPDEST PUSH1 0x0 DUP2 SWAP1 POP SWAP2 SWAP1 POP JUMP JUMPDEST PUSH2 0xEF5 DUP2 PUSH2 0xEE2 JUMP JUMPDEST DUP3 MSTORE POP POP JUMP JUMPDEST PUSH1 0x0 PUSH1 0x20 DUP3 ADD SWAP1 POP PUSH2 0xF10 PUSH1 0x0 DUP4 ADD DUP5 PUSH2 0xEEC JUMP JUMPDEST SWAP3 SWAP2 POP POP JUMP JUMPDEST PUSH1 0x0 PUSH1 0x40 MLOAD SWAP1 POP SWAP1 JUMP JUMPDEST PUSH1 0x0 DUP1 REVERT JUMPDEST PUSH1 0x0 DUP1 REVERT JUMPDEST PUSH1 0x0 DUP1 REVERT JUMPDEST PUSH1 0x0 DUP1 REVERT JUMPDEST PUSH1 0x0 PUSH1 0x1F NOT PUSH1 0x1F DUP4 ADD AND SWAP1 POP SWAP2 SWAP1 POP JUMP JUMPDEST PUSH32 0x4E487B7100000000000000000000000000000000000000000000000000000000 PUSH1 0x0 MSTORE PUSH1 0x41 PUSH1 0x4 MSTORE PUSH1 0x24 PUSH1 0x0 REVERT JUMPDEST PUSH2 0xF7D DUP3 PUSH2 0xF34 JUMP JUMPDEST DUP2 ADD DUP2 DUP2 LT PUSH8 0xFFFFFFFFFFFFFFFF DUP3 GT OR ISZERO PUSH2 0xF9C JUMPI PUSH2 0xF9B PUSH2 0xF45 JUMP JUMPDEST JUMPDEST DUP1 PUSH1 0x40 MSTORE POP POP POP JUMP JUMPDEST PUSH1 0x0 PUSH2 0xFAF PUSH2 0xF16 JUMP JUMPDEST SWAP1 POP PUSH2 0xFBB DUP3 DUP3 PUSH2 0xF74 JUMP JUMPDEST SWAP2 SWAP1 POP JUMP JUMPDEST PUSH1 0x0 PUSH8 0xFFFFFFFFFFFFFFFF DUP3 GT ISZERO PUSH2 0xFDB JUMPI PUSH2 0xFDA PUSH2 0xF45 JUMP JUMPDEST JUMPDEST PUSH2 0xFE4 DUP3 PUSH2 0xF34 JUMP JUMPDEST SWAP1 POP PUSH1 0x20 DUP2 ADD SWAP1 POP SWAP2 SWAP1 POP JUMP JUMPDEST DUP3 DUP2 DUP4 CALLDATACOPY PUSH1 0x0 DUP4 DUP4 ADD MSTORE POP POP POP JUMP JUMPDEST PUSH1 0x0 PUSH2 0x1013 PUSH2 0x100E DUP5 PUSH2 0xFC0 JUMP JUMPDEST PUSH2 0xFA5 JUMP JUMPDEST SWAP1 POP DUP3 DUP2 MSTORE PUSH1 0x20 DUP2 ADD DUP5 DUP5 DUP5 ADD GT ISZERO PUSH2 0x102F JUMPI PUSH2 0x102E PUSH2 0xF2F JUMP JUMPDEST JUMPDEST PUSH2 0x103A DUP5 DUP3 DUP6 PUSH2 0xFF1 JUMP JUMPDEST POP SWAP4 SWAP3 POP POP POP JUMP JUMPDEST PUSH1 0x0 DUP3 PUSH1 0x1F DUP4 ADD SLT PUSH2 0x1057 JUMPI PUSH2 0x1056 PUSH2 0xF2A JUMP JUMPDEST JUMPDEST DUP2 CALLDATALOAD PUSH2 0x1067 DUP5 DUP3 PUSH1 0x20 DUP7 ADD PUSH2 0x1000 JUMP JUMPDEST SWAP2 POP POP SWAP3 SWAP2 POP POP JUMP JUMPDEST PUSH1 0x0 DUP1 PUSH1 0x40 DUP4 DUP6 SUB SLT ISZERO PUSH2 0x1087 JUMPI PUSH2 0x1086 PUSH2 0xF20 JUMP JUMPDEST JUMPDEST PUSH1 0x0 DUP4 ADD CALLDATALOAD PUSH8 0xFFFFFFFFFFFFFFFF DUP2 GT ISZERO PUSH2 0x10A5 JUMPI PUSH2 0x10A4 PUSH2 0xF25 JUMP JUMPDEST JUMPDEST PUSH2 0x10B1 DUP6 DUP3 DUP7 ADD PUSH2 0x1042 JUMP JUMPDEST SWAP3 POP POP PUSH1 0x20 DUP4 ADD CALLDATALOAD PUSH8 0xFFFFFFFFFFFFFFFF DUP2 GT ISZERO PUSH2 0x10D2 JUMPI PUSH2 0x10D1 PUSH2 0xF25 JUMP JUMPDEST JUMPDEST PUSH2 0x10DE DUP6 DUP3 DUP7 ADD PUSH2 0x1042 JUMP JUMPDEST SWAP2 POP POP SWAP3 POP SWAP3 SWAP1 POP JUMP JUMPDEST PUSH1 0x0 DUP2 MLOAD SWAP1 POP SWAP2 SWAP1 POP JUMP JUMPDEST PUSH1 0x0 DUP3 DUP3 MSTORE PUSH1 0x20 DUP3 ADD SWAP1 POP SWAP3 SWAP2 POP POP JUMP JUMPDEST PUSH1 0x0 JUMPDEST DUP4 DUP2 LT ISZERO PUSH2 0x1122 JUMPI DUP1 DUP3 ADD MLOAD DUP2 DUP5 ADD MSTORE PUSH1 0x20 DUP2 ADD SWAP1 POP PUSH2 0x1107 JUMP JUMPDEST PUSH1 0x0 DUP5 DUP5 ADD MSTORE POP POP POP POP JUMP JUMPDEST PUSH1 0x0 PUSH2 0x1139 DUP3 PUSH2 0x10E8 JUMP JUMPDEST PUSH2 0x1143 DUP2 DUP6 PUSH2 0x10F3 JUMP JUMPDEST SWAP4 POP PUSH2 0x1153 DUP2 DUP6 PUSH1 0x20 DUP7 ADD PUSH2 0x1104 JUMP JUMPDEST PUSH2 0x115C DUP2 PUSH2 0xF34 JUMP JUMPDEST DUP5 ADD SWAP2 POP POP SWAP3 SWAP2 POP POP JUMP JUMPDEST PUSH1 0x0 PUSH1 0x20 DUP3 ADD SWAP1 POP DUP2 DUP2 SUB PUSH1 0x0 DUP4 ADD MSTORE PUSH2 0x1181 DUP2 DUP5 PUSH2 0x112E JUMP JUMPDEST SWAP1 POP SWAP3 SWAP2 POP POP JUMP JUMPDEST PUSH1 0x0 PUSH20 0xFFFFFFFFFFFFFFFFFFFFFFFFFFFFFFFFFFFFFFFF DUP3 AND SWAP1 POP SWAP2 SWAP1 POP JUMP JUMPDEST PUSH1 0x0 PUSH2 0x11B4 DUP3 PUSH2 0x1189 JUMP JUMPDEST SWAP1 POP SWAP2 SWAP1 POP JUMP JUMPDEST PUSH2 0x11C4 DUP2 PUSH2 0x11A9 JUMP JUMPDEST DUP3 MSTORE POP POP JUMP JUMPDEST PUSH1 0x0 PUSH1 0x20 DUP3 ADD SWAP1 POP PUSH2 0x11DF PUSH1 0x0 DUP4 ADD DUP5 PUSH2 0x11BB JUMP JUMPDEST SWAP3 SWAP2 POP POP JUMP JUMPDEST PUSH2 0x11EE DUP2 PUSH2 0xEE2 JUMP JUMPDEST DUP2 EQ PUSH2 0x11F9 JUMPI PUSH1 0x0 DUP1 REVERT JUMPDEST POP JUMP JUMPDEST PUSH1 0x0 DUP2 CALLDATALOAD SWAP1 POP PUSH2 0x120B DUP2 PUSH2 0x11E5 JUMP JUMPDEST SWAP3 SWAP2 POP POP JUMP JUMPDEST PUSH1 0x0 PUSH1 0x20 DUP3 DUP5 SUB SLT ISZERO PUSH2 0x1227 JUMPI PUSH2 0x1226 PUSH2 0xF20 JUMP JUMPDEST JUMPDEST PUSH1 0x0 PUSH2 0x1235 DUP5 DUP3 DUP6 ADD PUSH2 0x11FC JUMP JUMPDEST SWAP2 POP POP SWAP3 SWAP2 POP POP JUMP JUMPDEST PUSH1 0x0 PUSH1 0x60 DUP3 ADD SWAP1 POP DUP2 DUP2 SUB PUSH1 0x0 DUP4 ADD MSTORE PUSH2 0x1258 DUP2 DUP7 PUSH2 0x112E JUMP JUMPDEST SWAP1 POP DUP2 DUP2 SUB PUSH1 0x20 DUP4 ADD MSTORE PUSH2 0x126C DUP2 DUP6 PUSH2 0x112E JUMP JUMPDEST SWAP1 POP PUSH2 0x127B PUSH1 0x40 DUP4 ADD DUP5 PUSH2 0xEEC JUMP JUMPDEST SWAP5 SWAP4 POP POP POP POP JUMP JUMPDEST PUSH1 0x0 DUP2 ISZERO ISZERO SWAP1 POP SWAP2 SWAP1 POP JUMP JUMPDEST PUSH2 0x1298 DUP2 PUSH2 0x1283 JUMP JUMPDEST DUP3 MSTORE POP POP JUMP JUMPDEST PUSH1 0x0 PUSH1 0x20 DUP3 ADD SWAP1 POP PUSH2 0x12B3 PUSH1 0x0 DUP4 ADD DUP5 PUSH2 0x128F JUMP JUMPDEST SWAP3 SWAP2 POP POP JUMP JUMPDEST PUSH1 0x0 DUP2 MLOAD SWAP1 POP SWAP2 SWAP1 POP JUMP JUMPDEST PUSH1 0x0 DUP3 DUP3 MSTORE PUSH1 0x20 DUP3 ADD SWAP1 POP SWAP3 SWAP2 POP POP JUMP JUMPDEST PUSH1 0x0 DUP2 SWAP1 POP PUSH1 0x20 DUP3 ADD SWAP1 POP SWAP2 SWAP1 POP JUMP JUMPDEST PUSH1 0x0 DUP3 DUP3 MSTORE PUSH1 0x20 DUP3 ADD SWAP1 POP SWAP3 SWAP2 POP POP JUMP JUMPDEST PUSH1 0x0 PUSH2 0x1301 DUP3 PUSH2 0x10E8 JUMP JUMPDEST PUSH2 0x130B DUP2 DUP6 PUSH2 0x12E5 JUMP JUMPDEST SWAP4 POP PUSH2 0x131B DUP2 DUP6 PUSH1 0x20 DUP7 ADD PUSH2 0x1104 JUMP JUMPDEST PUSH2 0x1324 DUP2 PUSH2 0xF34 JUMP JUMPDEST DUP5 ADD SWAP2 POP POP SWAP3 SWAP2 POP POP JUMP JUMPDEST PUSH2 0x1338 DUP2 PUSH2 0xEE2 JUMP JUMPDEST DUP3 MSTORE POP POP JUMP JUMPDEST PUSH1 0x0 PUSH1 0x60 DUP4 ADD PUSH1 0x0 DUP4 ADD MLOAD DUP5 DUP3 SUB PUSH1 0x0 DUP7 ADD MSTORE PUSH2 0x135B DUP3 DUP3 PUSH2 0x12F6 JUMP JUMPDEST SWAP2 POP POP PUSH1 0x20 DUP4 ADD MLOAD DUP5 DUP3 SUB PUSH1 0x20 DUP7 ADD MSTORE PUSH2 0x1375 DUP3 DUP3 PUSH2 0x12F6 JUMP JUMPDEST SWAP2 POP POP PUSH1 0x40 DUP4 ADD MLOAD PUSH2 0x138A PUSH1 0x40 DUP7 ADD DUP3 PUSH2 0x132F JUMP JUMPDEST POP DUP1 SWAP2 POP POP SWAP3 SWAP2 POP POP JUMP JUMPDEST PUSH1 0x0 PUSH2 0x13A1 DUP4 DUP4 PUSH2 0x133E JUMP JUMPDEST SWAP1 POP SWAP3 SWAP2 POP POP JUMP JUMPDEST PUSH1 0x0 PUSH1 0x20 DUP3 ADD SWAP1 POP SWAP2 SWAP1 POP JUMP JUMPDEST PUSH1 0x0 PUSH2 0x13C1 DUP3 PUSH2 0x12B9 JUMP JUMPDEST PUSH2 0x13CB DUP2 DUP6 PUSH2 0x12C4 JUMP JUMPDEST SWAP4 POP DUP4 PUSH1 0x20 DUP3 MUL DUP6 ADD PUSH2 0x13DD DUP6 PUSH2 0x12D5 JUMP JUMPDEST DUP1 PUSH1 0x0 JUMPDEST DUP6 DUP2 LT ISZERO PUSH2 0x1419 JUMPI DUP5 DUP5 SUB DUP10 MSTORE DUP2 MLOAD PUSH2 0x13FA DUP6 DUP3 PUSH2 0x1395 JUMP JUMPDEST SWAP5 POP PUSH2 0x1405 DUP4 PUSH2 0x13A9 JUMP JUMPDEST SWAP3 POP PUSH1 0x20 DUP11 ADD SWAP10 POP POP PUSH1 0x1 DUP2 ADD SWAP1 POP PUSH2 0x13E1 JUMP JUMPDEST POP DUP3 SWAP8 POP DUP8 SWAP6 POP POP POP POP POP POP SWAP3 SWAP2 POP POP JUMP JUMPDEST PUSH1 0x0 PUSH1 0x20 DUP3 ADD SWAP1 POP DUP2 DUP2 SUB PUSH1 0x0 DUP4 ADD MSTORE PUSH2 0x1445 DUP2 DUP5 PUSH2 0x13B6 JUMP JUMPDEST SWAP1 POP SWAP3 SWAP2 POP POP JUMP JUMPDEST PUSH2 0x1456 DUP2 PUSH2 0x11A9 JUMP JUMPDEST DUP2 EQ PUSH2 0x1461 JUMPI PUSH1 0x0 DUP1 REVERT JUMPDEST POP JUMP JUMPDEST PUSH1 0x0 DUP2 CALLDATALOAD SWAP1 POP PUSH2 0x1473 DUP2 PUSH2 0x144D JUMP JUMPDEST SWAP3 SWAP2 POP POP JUMP JUMPDEST PUSH1 0x0 PUSH1 0x20 DUP3 DUP5 SUB SLT ISZERO PUSH2 0x148F JUMPI PUSH2 0x148E PUSH2 0xF20 JUMP JUMPDEST JUMPDEST PUSH1 0x0 PUSH2 0x149D DUP5 DUP3 DUP6 ADD PUSH2 0x1464 JUMP JUMPDEST SWAP2 POP POP SWAP3 SWAP2 POP POP JUMP JUMPDEST PUSH1 0x0 DUP1 REVERT JUMPDEST PUSH1 0x0 DUP1 REVERT JUMPDEST PUSH1 0x0 PUSH1 0x60 DUP3 DUP5 SUB SLT ISZERO PUSH2 0x14C6 JUMPI PUSH2 0x14C5 PUSH2 0x14A6 JUMP JUMPDEST JUMPDEST PUSH2 0x14D0 PUSH1 0x60 PUSH2 0xFA5 JUMP JUMPDEST SWAP1 POP PUSH1 0x0 DUP3 ADD CALLDATALOAD PUSH8 0xFFFFFFFFFFFFFFFF DUP2 GT ISZERO PUSH2 0x14F0 JUMPI PUSH2 0x14EF PUSH2 0x14AB JUMP JUMPDEST JUMPDEST PUSH2 0x14FC DUP5 DUP3 DUP6 ADD PUSH2 0x1042 JUMP JUMPDEST PUSH1 0x0 DUP4 ADD MSTORE POP PUSH1 0x20 DUP3 ADD CALLDATALOAD PUSH8 0xFFFFFFFFFFFFFFFF DUP2 GT ISZERO PUSH2 0x1520 JUMPI PUSH2 0x151F PUSH2 0x14AB JUMP JUMPDEST JUMPDEST PUSH2 0x152C DUP5 DUP3 DUP6 ADD PUSH2 0x1042 JUMP JUMPDEST PUSH1 0x20 DUP4 ADD MSTORE POP PUSH1 0x40 PUSH2 0x1540 DUP5 DUP3 DUP6 ADD PUSH2 0x11FC JUMP JUMPDEST PUSH1 0x40 DUP4 ADD MSTORE POP SWAP3 SWAP2 POP POP JUMP JUMPDEST PUSH1 0x0 PUSH1 0x20 DUP3 DUP5 SUB SLT ISZERO PUSH2 0x1562 JUMPI PUSH2 0x1561 PUSH2 0xF20 JUMP JUMPDEST JUMPDEST PUSH1 0x0 DUP3 ADD CALLDATALOAD PUSH8 0xFFFFFFFFFFFFFFFF DUP2 GT ISZERO PUSH2 0x1580 JUMPI PUSH2 0x157F PUSH2 0xF25 JUMP JUMPDEST JUMPDEST PUSH2 0x158C DUP5 DUP3 DUP6 ADD PUSH2 0x14B0 JUMP JUMPDEST SWAP2 POP POP SWAP3 SWAP2 POP POP JUMP JUMPDEST PUSH1 0x0 PUSH1 0x40 DUP3 ADD SWAP1 POP PUSH2 0x15AA PUSH1 0x0 DUP4 ADD DUP6 PUSH2 0x128F JUMP JUMPDEST PUSH2 0x15B7 PUSH1 0x20 DUP4 ADD DUP5 PUSH2 0x128F JUMP JUMPDEST SWAP4 SWAP3 POP POP POP JUMP JUMPDEST PUSH1 0x0 PUSH1 0x40 DUP3 ADD SWAP1 POP PUSH2 0x15D3 PUSH1 0x0 DUP4 ADD DUP6 PUSH2 0xEEC JUMP JUMPDEST PUSH2 0x15E0 PUSH1 0x20 DUP4 ADD DUP5 PUSH2 0x128F JUMP JUMPDEST SWAP4 SWAP3 POP POP POP JUMP JUMPDEST PUSH1 0x0 PUSH1 0x20 DUP3 DUP5 SUB SLT ISZERO PUSH2 0x15FD JUMPI PUSH2 0x15FC PUSH2 0xF20 JUMP JUMPDEST JUMPDEST PUSH1 0x0 DUP3 ADD CALLDATALOAD PUSH8 0xFFFFFFFFFFFFFFFF DUP2 GT ISZERO PUSH2 0x161B JUMPI PUSH2 0x161A PUSH2 0xF25 JUMP JUMPDEST JUMPDEST PUSH2 0x1627 DUP5 DUP3 DUP6 ADD PUSH2 0x1042 JUMP JUMPDEST SWAP2 POP POP SWAP3 SWAP2 POP POP JUMP JUMPDEST PUSH32 0x4E487B7100000000000000000000000000000000000000000000000000000000 PUSH1 0x0 MSTORE PUSH1 0x32 PUSH1 0x4 MSTORE PUSH1 0x24 PUSH1 0x0 REVERT JUMPDEST PUSH32 0x4E487B7100000000000000000000000000000000000000000000000000000000 PUSH1 0x0 MSTORE PUSH1 0x11 PUSH1 0x4 MSTORE PUSH1 0x24 PUSH1 0x0 REVERT JUMPDEST PUSH1 0x0 PUSH2 0x1699 DUP3 PUSH2 0xEE2 JUMP JUMPDEST SWAP2 POP PUSH2 0x16A4 DUP4 PUSH2 0xEE2 JUMP JUMPDEST SWAP3 POP DUP3 DUP3 ADD SWAP1 POP DUP1 DUP3 GT ISZERO PUSH2 0x16BC JUMPI PUSH2 0x16BB PUSH2 0x165F JUMP JUMPDEST JUMPDEST SWAP3 SWAP2 POP POP JUMP JUMPDEST PUSH1 0x0 PUSH2 0x16CD DUP3 PUSH2 0xEE2 JUMP JUMPDEST SWAP2 POP PUSH32 0xFFFFFFFFFFFFFFFFFFFFFFFFFFFFFFFFFFFFFFFFFFFFFFFFFFFFFFFFFFFFFFFF DUP3 SUB PUSH2 0x16FF JUMPI PUSH2 0x16FE PUSH2 0x165F JUMP JUMPDEST JUMPDEST PUSH1 0x1 DUP3 ADD SWAP1 POP SWAP2 SWAP1 POP JUMP JUMPDEST PUSH32 0x4F6E6C792074686520636F6E7472616374206F776E65722063616E2061646420 PUSH1 0x0 DUP3 ADD MSTORE PUSH32 0x63616E646964617465732E000000000000000000000000000000000000000000 PUSH1 0x20 DUP3 ADD MSTORE POP JUMP JUMPDEST PUSH1 0x0 PUSH2 0x1766 PUSH1 0x2B DUP4 PUSH2 0x10F3 JUMP JUMPDEST SWAP2 POP PUSH2 0x1771 DUP3 PUSH2 0x170A JUMP JUMPDEST PUSH1 0x40 DUP3 ADD SWAP1 POP SWAP2 SWAP1 POP JUMP JUMPDEST PUSH1 0x0 PUSH1 0x20 DUP3 ADD SWAP1 POP DUP2 DUP2 SUB PUSH1 0x0 DUP4 ADD MSTORE PUSH2 0x1795 DUP2 PUSH2 0x1759 JUMP JUMPDEST SWAP1 POP SWAP2 SWAP1 POP JUMP JUMPDEST PUSH32 0x4E487B7100000000000000000000000000000000000000000000000000000000 PUSH1 0x0 MSTORE PUSH1 0x22 PUSH1 0x4 MSTORE PUSH1 0x24 PUSH1 0x0 REVERT JUMPDEST PUSH1 0x0 PUSH1 0x2 DUP3 DIV SWAP1 POP PUSH1 0x1 DUP3 AND DUP1 PUSH2 0x17E3 JUMPI PUSH1 0x7F DUP3 AND SWAP2 POP JUMPDEST PUSH1 0x20 DUP3 LT DUP2 SUB PUSH2 0x17F6 JUMPI PUSH2 0x17F5 PUSH2 0x179C JUMP JUMPDEST JUMPDEST POP SWAP2 SWAP1 POP JUMP JUMPDEST PUSH1 0x0 DUP2 SWAP1 POP DUP2 PUSH1 0x0 MSTORE PUSH1 0x20 PUSH1 0x0 KECCAK256 SWAP1 POP SWAP2 SWAP1 POP JUMP JUMPDEST PUSH1 0x0 PUSH1 0x20 PUSH1 0x1F DUP4 ADD DIV SWAP1 POP SWAP2 SWAP1 POP JUMP JUMPDEST PUSH1 0x0 DUP3 DUP3 SHL SWAP1 POP SWAP3 SWAP2 POP POP JUMP JUMPDEST PUSH1 0x0 PUSH1 0x8 DUP4 MUL PUSH2 0x185E PUSH32 0xFFFFFFFFFFFFFFFFFFFFFFFFFFFFFFFFFFFFFFFFFFFFFFFFFFFFFFFFFFFFFFFF DUP3 PUSH2 0x1821 JUMP JUMPDEST PUSH2 0x1868 DUP7 DUP4 PUSH2 0x1821 JUMP JUMPDEST SWAP6 POP DUP1 NOT DUP5 AND SWAP4 POP DUP1 DUP7 AND DUP5 OR SWAP3 POP POP POP SWAP4 SWAP3 POP POP POP JUMP JUMPDEST PUSH1 0x0 DUP2 SWAP1 POP SWAP2 SWAP1 POP JUMP JUMPDEST PUSH1 0x0 PUSH2 0x18A5 PUSH2 0x18A0 PUSH2 0x189B DUP5 PUSH2 0xEE2 JUMP JUMPDEST PUSH2 0x1880 JUMP JUMPDEST PUSH2 0xEE2 JUMP JUMPDEST SWAP1 POP SWAP2 SWAP1 POP JUMP JUMPDEST PUSH1 0x0 DUP2 SWAP1 POP SWAP2 SWAP1 POP JUMP JUMPDEST PUSH2 0x18BF DUP4 PUSH2 0x188A JUMP JUMPDEST PUSH2 0x18D3 PUSH2 0x18CB DUP3 PUSH2 0x18AC JUMP JUMPDEST DUP5 DUP5 SLOAD PUSH2 0x182E JUMP JUMPDEST DUP3 SSTORE POP POP POP POP JUMP JUMPDEST PUSH1 0x0 SWAP1 JUMP JUMPDEST PUSH2 0x18E8 PUSH2 0x18DB JUMP JUMPDEST PUSH2 0x18F3 DUP2 DUP5 DUP5 PUSH2 0x18B6 JUMP JUMPDEST POP POP POP JUMP JUMPDEST JUMPDEST DUP2 DUP2 LT ISZERO PUSH2 0x1917 JUMPI PUSH2 0x190C PUSH1 0x0 DUP3 PUSH2 0x18E0 JUMP JUMPDEST PUSH1 0x1 DUP2 ADD SWAP1 POP PUSH2 0x18F9 JUMP JUMPDEST POP POP JUMP JUMPDEST PUSH1 0x1F DUP3 GT ISZERO PUSH2 0x195C JUMPI PUSH2 0x192D DUP2 PUSH2 0x17FC JUMP JUMPDEST PUSH2 0x1936 DUP5 PUSH2 0x1811 JUMP JUMPDEST DUP2 ADD PUSH1 0x20 DUP6 LT ISZERO PUSH2 0x1945 JUMPI DUP2 SWAP1 POP JUMPDEST PUSH2 0x1959 PUSH2 0x1951 DUP6 PUSH2 0x1811 JUMP JUMPDEST DUP4 ADD DUP3 PUSH2 0x18F8 JUMP JUMPDEST POP POP JUMPDEST POP POP POP JUMP JUMPDEST PUSH1 0x0 DUP3 DUP3 SHR SWAP1 POP SWAP3 SWAP2 POP POP JUMP JUMPDEST PUSH1 0x0 PUSH2 0x197F PUSH1 0x0 NOT DUP5 PUSH1 0x8 MUL PUSH2 0x1961 JUMP JUMPDEST NOT DUP1 DUP4 AND SWAP2 POP POP SWAP3 SWAP2 POP POP JUMP JUMPDEST PUSH1 0x0 PUSH2 0x1998 DUP4 DUP4 PUSH2 0x196E JUMP JUMPDEST SWAP2 POP DUP3 PUSH1 0x2 MUL DUP3 OR SWAP1 POP SWAP3 SWAP2 POP POP JUMP JUMPDEST PUSH2 0x19B1 DUP3 PUSH2 0x10E8 JUMP JUMPDEST PUSH8 0xFFFFFFFFFFFFFFFF DUP2 GT ISZERO PUSH2 0x19CA JUMPI PUSH2 0x19C9 PUSH2 0xF45 JUMP JUMPDEST JUMPDEST PUSH2 0x19D4 DUP3 SLOAD PUSH2 0x17CB JUMP JUMPDEST PUSH2 0x19DF DUP3 DUP3 DUP6 PUSH2 0x191B JUMP JUMPDEST PUSH1 0x0 PUSH1 0x20 SWAP1 POP PUSH1 0x1F DUP4 GT PUSH1 0x1 DUP2 EQ PUSH2 0x1A12 JUMPI PUSH1 0x0 DUP5 ISZERO PUSH2 0x1A00 JUMPI DUP3 DUP8 ADD MLOAD SWAP1 POP JUMPDEST PUSH2 0x1A0A DUP6 DUP3 PUSH2 0x198C JUMP JUMPDEST DUP7 SSTORE POP PUSH2 0x1A72 JUMP JUMPDEST PUSH1 0x1F NOT DUP5 AND PUSH2 0x1A20 DUP7 PUSH2 0x17FC JUMP JUMPDEST PUSH1 0x0 JUMPDEST DUP3 DUP2 LT ISZERO PUSH2 0x1A48 JUMPI DUP5 DUP10 ADD MLOAD DUP3 SSTORE PUSH1 0x1 DUP3 ADD SWAP2 POP PUSH1 0x20 DUP6 ADD SWAP5 POP PUSH1 0x20 DUP2 ADD SWAP1 POP PUSH2 0x1A23 JUMP JUMPDEST DUP7 DUP4 LT ISZERO PUSH2 0x1A65 JUMPI DUP5 DUP10 ADD MLOAD PUSH2 0x1A61 PUSH1 0x1F DUP10 AND DUP3 PUSH2 0x196E JUMP JUMPDEST DUP4 SSTORE POP JUMPDEST PUSH1 0x1 PUSH1 0x2 DUP9 MUL ADD DUP9 SSTORE POP POP POP JUMPDEST POP POP POP POP POP POP JUMP JUMPDEST PUSH32 0x5468657265206973206120746965206F6E2042616C6C6F740000000000000000 PUSH1 0x0 DUP3 ADD MSTORE POP JUMP JUMPDEST PUSH1 0x0 PUSH2 0x1AB0 PUSH1 0x18 DUP4 PUSH2 0x10F3 JUMP JUMPDEST SWAP2 POP PUSH2 0x1ABB DUP3 PUSH2 0x1A7A JUMP JUMPDEST PUSH1 0x20 DUP3 ADD SWAP1 POP SWAP2 SWAP1 POP JUMP JUMPDEST PUSH1 0x0 PUSH1 0x20 DUP3 ADD SWAP1 POP DUP2 DUP2 SUB PUSH1 0x0 DUP4 ADD MSTORE PUSH2 0x1ADF DUP2 PUSH2 0x1AA3 JUMP JUMPDEST SWAP1 POP SWAP2 SWAP1 POP JUMP JUMPDEST PUSH32 0x4F6E6C792074686520636F6E7472616374206F776E65722063616E2067697665 PUSH1 0x0 DUP3 ADD MSTORE PUSH32 0x20726967687420746F20766F74652E0000000000000000000000000000000000 PUSH1 0x20 DUP3 ADD MSTORE POP JUMP JUMPDEST PUSH1 0x0 PUSH2 0x1B42 PUSH1 0x2F DUP4 PUSH2 0x10F3 JUMP JUMPDEST SWAP2 POP PUSH2 0x1B4D DUP3 PUSH2 0x1AE6 JUMP JUMPDEST PUSH1 0x40 DUP3 ADD SWAP1 POP SWAP2 SWAP1 POP JUMP JUMPDEST PUSH1 0x0 PUSH1 0x20 DUP3 ADD SWAP1 POP DUP2 DUP2 SUB PUSH1 0x0 DUP4 ADD MSTORE PUSH2 0x1B71 DUP2 PUSH2 0x1B35 JUMP JUMPDEST SWAP1 POP SWAP2 SWAP1 POP JUMP JUMPDEST PUSH32 0x4D6178206163636F756E7420766F746573206973207265616368656400000000 PUSH1 0x0 DUP3 ADD MSTORE POP JUMP JUMPDEST PUSH1 0x0 PUSH2 0x1BAE PUSH1 0x1C DUP4 PUSH2 0x10F3 JUMP JUMPDEST SWAP2 POP PUSH2 0x1BB9 DUP3 PUSH2 0x1B78 JUMP JUMPDEST PUSH1 0x20 DUP3 ADD SWAP1 POP SWAP2 SWAP1 POP JUMP JUMPDEST PUSH1 0x0 PUSH1 0x20 DUP3 ADD SWAP1 POP DUP2 DUP2 SUB PUSH1 0x0 DUP4 ADD MSTORE PUSH2 0x1BDD DUP2 PUSH2 0x1BA1 JUMP JUMPDEST SWAP1 POP SWAP2 SWAP1 POP JUMP JUMPDEST PUSH32 0x596F752068617665206E6F7420726967687420746F20766F7465000000000000 PUSH1 0x0 DUP3 ADD MSTORE POP JUMP JUMPDEST PUSH1 0x0 PUSH2 0x1C1A PUSH1 0x1A DUP4 PUSH2 0x10F3 JUMP JUMPDEST SWAP2 POP PUSH2 0x1C25 DUP3 PUSH2 0x1BE4 JUMP JUMPDEST PUSH1 0x20 DUP3 ADD SWAP1 POP SWAP2 SWAP1 POP JUMP JUMPDEST PUSH1 0x0 PUSH1 0x20 DUP3 ADD SWAP1 POP DUP2 DUP2 SUB PUSH1 0x0 DUP4 ADD MSTORE PUSH2 0x1C49 DUP2 PUSH2 0x1C0D JUMP JUMPDEST SWAP1 POP SWAP2 SWAP1 POP JUMP JUMPDEST PUSH32 0x566F74657220616C726561647920766F7465642E000000000000000000000000 PUSH1 0x0 DUP3 ADD MSTORE POP JUMP JUMPDEST PUSH1 0x0 PUSH2 0x1C86 PUSH1 0x14 DUP4 PUSH2 0x10F3 JUMP JUMPDEST SWAP2 POP PUSH2 0x1C91 DUP3 PUSH2 0x1C50 JUMP JUMPDEST PUSH1 0x20 DUP3 ADD SWAP1 POP SWAP2 SWAP1 POP JUMP JUMPDEST PUSH1 0x0 PUSH1 0x20 DUP3 ADD SWAP1 POP DUP2 DUP2 SUB PUSH1 0x0 DUP4 ADD MSTORE PUSH2 0x1CB5 DUP2 PUSH2 0x1C79 JUMP JUMPDEST SWAP1 POP SWAP2 SWAP1 POP JUMP INVALID LOG2 PUSH5 0x6970667358 0x22 SLT KECCAK256 0xAB 0x4F 0x1F BYTE 0xD8 0xE CALLVALUE PUSH24 0xCB5F42BB4CA36B1BFA156D60B7614F9C74779E203DEB330E PUSH5 0x736F6C6343 STOP ADDMOD GT STOP CALLER "
				},
				"gasEstimates": {
					"creation": {
						"codeDepositCost": "1482000",
						"executionCost": "infinite",
						"totalCost": "infinite"
					},
					"external": {
						"addCandidateAsStruct((string,string,uint256))": "infinite",
						"addCandidateWithSpreadParameters(string,string)": "infinite",
						"areYouContractOwner()": "2541",
						"areYouHaveRigthToVote()": "2661",
						"areYouVoted()": "2689",
						"calculateAmountOfTotalVotes()": "infinite",
						"candidates(uint256)": "infinite",
						"contractOwner()": "2600",
						"getCandidatesList()": "infinite",
						"getContractAddress()": "475",
						"getVoterRigthToVote(address)": "2978",
						"getVoterVoter(address)": "3005",
						"getWinnerName()": "infinite",
						"getWinningCandidate()": "infinite",
						"giveRightToVote(address)": "29447",
						"vote(string)": "infinite",
						"voters(address)": "infinite"
					},
					"internal": {
						"getVoterVotedRequire(address)": "infinite",
						"stringEqualTo(string memory,string memory)": "infinite"
					}
				},
				"methodIdentifiers": {
					"addCandidateAsStruct((string,string,uint256))": "954115f2",
					"addCandidateWithSpreadParameters(string,string)": "10508439",
					"areYouContractOwner()": "3ddf3822",
					"areYouHaveRigthToVote()": "df703622",
					"areYouVoted()": "da265430",
					"calculateAmountOfTotalVotes()": "01c5556a",
					"candidates(uint256)": "3477ee2e",
					"contractOwner()": "ce606ee0",
					"getCandidatesList()": "4aba5f34",
					"getContractAddress()": "32a2c5d0",
					"getVoterRigthToVote(address)": "94b04e7d",
					"getVoterVoter(address)": "f0ee4577",
					"getWinnerName()": "2bfda515",
					"getWinningCandidate()": "f927cc29",
					"giveRightToVote(address)": "9e7b8d61",
					"vote(string)": "fc36e15b",
					"voters(address)": "a3ec138d"
				}
			},
			"storageLayout": {
				"storage": [
					{
						"astId": 15,
						"contract": "contracts/Ballot/Ballot.sol:MyBallot",
						"label": "contractOwner",
						"offset": 0,
						"slot": "0",
						"type": "t_address"
					},
					{
						"astId": 20,
						"contract": "contracts/Ballot/Ballot.sol:MyBallot",
						"label": "voters",
						"offset": 0,
						"slot": "1",
						"type": "t_mapping(t_address,t_struct(Voter)6_storage)"
					},
					{
						"astId": 24,
						"contract": "contracts/Ballot/Ballot.sol:MyBallot",
						"label": "candidates",
						"offset": 0,
						"slot": "2",
						"type": "t_array(t_struct(Candidate)13_storage)dyn_storage"
					},
					{
						"astId": 26,
						"contract": "contracts/Ballot/Ballot.sol:MyBallot",
						"label": "totalVotesCounter",
						"offset": 0,
						"slot": "3",
						"type": "t_uint256"
					},
					{
						"astId": 28,
						"contract": "contracts/Ballot/Ballot.sol:MyBallot",
						"label": "maxVotes",
						"offset": 0,
						"slot": "4",
						"type": "t_uint256"
					}
				],
				"types": {
					"t_address": {
						"encoding": "inplace",
						"label": "address",
						"numberOfBytes": "20"
					},
					"t_array(t_struct(Candidate)13_storage)dyn_storage": {
						"base": "t_struct(Candidate)13_storage",
						"encoding": "dynamic_array",
						"label": "struct MyBallot.Candidate[]",
						"numberOfBytes": "32"
					},
					"t_bool": {
						"encoding": "inplace",
						"label": "bool",
						"numberOfBytes": "1"
					},
					"t_mapping(t_address,t_struct(Voter)6_storage)": {
						"encoding": "mapping",
						"key": "t_address",
						"label": "mapping(address => struct MyBallot.Voter)",
						"numberOfBytes": "32",
						"value": "t_struct(Voter)6_storage"
					},
					"t_string_storage": {
						"encoding": "bytes",
						"label": "string",
						"numberOfBytes": "32"
					},
					"t_struct(Candidate)13_storage": {
						"encoding": "inplace",
						"label": "struct MyBallot.Candidate",
						"members": [
							{
								"astId": 8,
								"contract": "contracts/Ballot/Ballot.sol:MyBallot",
								"label": "name",
								"offset": 0,
								"slot": "0",
								"type": "t_string_storage"
							},
							{
								"astId": 10,
								"contract": "contracts/Ballot/Ballot.sol:MyBallot",
								"label": "party",
								"offset": 0,
								"slot": "1",
								"type": "t_string_storage"
							},
							{
								"astId": 12,
								"contract": "contracts/Ballot/Ballot.sol:MyBallot",
								"label": "votesCount",
								"offset": 0,
								"slot": "2",
								"type": "t_uint256"
							}
						],
						"numberOfBytes": "96"
					},
					"t_struct(Voter)6_storage": {
						"encoding": "inplace",
						"label": "struct MyBallot.Voter",
						"members": [
							{
								"astId": 3,
								"contract": "contracts/Ballot/Ballot.sol:MyBallot",
								"label": "canVote",
								"offset": 0,
								"slot": "0",
								"type": "t_bool"
							},
							{
								"astId": 5,
								"contract": "contracts/Ballot/Ballot.sol:MyBallot",
								"label": "hasVoted",
								"offset": 1,
								"slot": "0",
								"type": "t_bool"
							}
						],
						"numberOfBytes": "32"
					},
					"t_uint256": {
						"encoding": "inplace",
						"label": "uint256",
						"numberOfBytes": "32"
					}
				}
			},
			"userdoc": {
				"kind": "user",
				"methods": {},
				"version": 1
			}
		}
	}
}