{
	"contracts/Ballot/Ballot.sol": {
		"MyBallot": {
			"abi": [
				{
					"inputs": [
						{
							"internalType": "string[]",
							"name": "_candidates",
							"type": "string[]"
						},
						{
							"internalType": "uint256",
							"name": "_maxVotes",
							"type": "uint256"
						}
					],
					"stateMutability": "nonpayable",
					"type": "constructor"
				},
				{
					"inputs": [
						{
							"internalType": "uint256",
							"name": "",
							"type": "uint256"
						}
					],
					"name": "candidates",
					"outputs": [
						{
							"internalType": "string",
							"name": "nameProject",
							"type": "string"
						},
						{
							"internalType": "uint256",
							"name": "votesCount",
							"type": "uint256"
						}
					],
					"stateMutability": "view",
					"type": "function"
				},
				{
					"inputs": [],
					"name": "getCandidatesListName",
					"outputs": [
						{
							"internalType": "string[]",
							"name": "",
							"type": "string[]"
						}
					],
					"stateMutability": "view",
					"type": "function"
				},
				{
					"inputs": [],
					"name": "getWinnerName",
					"outputs": [
						{
							"internalType": "string",
							"name": "winnerName",
							"type": "string"
						},
						{
							"internalType": "address",
							"name": "",
							"type": "address"
						}
					],
					"stateMutability": "view",
					"type": "function"
				},
				{
					"inputs": [
						{
							"internalType": "address",
							"name": "voterAddress",
							"type": "address"
						}
					],
					"name": "giveRightToVote",
					"outputs": [],
					"stateMutability": "nonpayable",
					"type": "function"
				},
				{
					"inputs": [
						{
							"internalType": "string",
							"name": "_nameProject",
							"type": "string"
						}
					],
					"name": "vote",
					"outputs": [],
					"stateMutability": "nonpayable",
					"type": "function"
				}
			],
			"devdoc": {
				"kind": "dev",
				"methods": {},
				"version": 1
			},
			"evm": {
				"assembly": "    /* \"contracts/Ballot/Ballot.sol\":70:5369  contract MyBallot {\r... */\n  mstore(0x40, 0x80)\n    /* \"contracts/Ballot/Ballot.sol\":507:696  constructor(string[] memory _candidates, uint _maxVotes) {\r... */\n  callvalue\n  dup1\n  iszero\n  tag_1\n  jumpi\n  0x00\n  dup1\n  revert\ntag_1:\n  pop\n  mload(0x40)\n  sub(codesize, bytecodeSize)\n  dup1\n  bytecodeSize\n  dup4\n  codecopy\n  dup2\n  dup2\n  add\n  0x40\n  mstore\n  dup2\n  add\n  swap1\n  tag_2\n  swap2\n  swap1\n  tag_3\n  jump\t// in\ntag_2:\n    /* \"contracts/Ballot/Ballot.sol\":591:601  msg.sender */\n  caller\n    /* \"contracts/Ballot/Ballot.sol\":575:588  contractOwner */\n  0x00\n  dup1\n    /* \"contracts/Ballot/Ballot.sol\":575:601  contractOwner = msg.sender */\n  0x0100\n  exp\n  dup2\n  sload\n  dup2\n  0xffffffffffffffffffffffffffffffffffffffff\n  mul\n  not\n  and\n  swap1\n  dup4\n  0xffffffffffffffffffffffffffffffffffffffff\n  and\n  mul\n  or\n  swap1\n  sstore\n  pop\n    /* \"contracts/Ballot/Ballot.sol\":612:649  setCandidatesIntoStorage(_candidates) */\n  tag_6\n    /* \"contracts/Ballot/Ballot.sol\":637:648  _candidates */\n  dup3\n    /* \"contracts/Ballot/Ballot.sol\":612:636  setCandidatesIntoStorage */\n  shl(0x20, tag_7)\n    /* \"contracts/Ballot/Ballot.sol\":612:649  setCandidatesIntoStorage(_candidates) */\n  0x20\n  shr\n  jump\t// in\ntag_6:\n    /* \"contracts/Ballot/Ballot.sol\":679:688  _maxVotes */\n  dup1\n    /* \"contracts/Ballot/Ballot.sol\":668:676  maxVotes */\n  0x04\n    /* \"contracts/Ballot/Ballot.sol\":668:688  maxVotes = _maxVotes */\n  dup2\n  swap1\n  sstore\n  pop\n    /* \"contracts/Ballot/Ballot.sol\":507:696  constructor(string[] memory _candidates, uint _maxVotes) {\r... */\n  pop\n  pop\n    /* \"contracts/Ballot/Ballot.sol\":70:5369  contract MyBallot {\r... */\n  jump(tag_8)\n    /* \"contracts/Ballot/Ballot.sol\":1964:2263  function setCandidatesIntoStorage(string[] memory _candidates) private {\r... */\ntag_7:\n    /* \"contracts/Ballot/Ballot.sol\":2051:2061  uint index */\n  0x00\n    /* \"contracts/Ballot/Ballot.sol\":2046:2256  for (uint index = 0; index < _candidates.length; index++) {\r... */\ntag_10:\n    /* \"contracts/Ballot/Ballot.sol\":2075:2086  _candidates */\n  dup2\n    /* \"contracts/Ballot/Ballot.sol\":2075:2093  _candidates.length */\n  mload\n    /* \"contracts/Ballot/Ballot.sol\":2067:2072  index */\n  dup2\n    /* \"contracts/Ballot/Ballot.sol\":2067:2093  index < _candidates.length */\n  lt\n    /* \"contracts/Ballot/Ballot.sol\":2046:2256  for (uint index = 0; index < _candidates.length; index++) {\r... */\n  iszero\n  tag_11\n  jumpi\n    /* \"contracts/Ballot/Ballot.sol\":2119:2129  candidates */\n  0x02\n    /* \"contracts/Ballot/Ballot.sol\":2135:2243  Candidate({\r... */\n  mload(0x40)\n  dup1\n  0x40\n  add\n  0x40\n  mstore\n  dup1\n    /* \"contracts/Ballot/Ballot.sol\":2177:2188  _candidates */\n  dup5\n    /* \"contracts/Ballot/Ballot.sol\":2189:2194  index */\n  dup5\n    /* \"contracts/Ballot/Ballot.sol\":2177:2195  _candidates[index] */\n  dup2\n  mload\n  dup2\n  lt\n  tag_13\n  jumpi\n  tag_14\n  tag_15\n  jump\t// in\ntag_14:\ntag_13:\n  0x20\n  mul\n  0x20\n  add\n  add\n  mload\n    /* \"contracts/Ballot/Ballot.sol\":2135:2243  Candidate({\r... */\n  dup2\n  mstore\n  0x20\n  add\n    /* \"contracts/Ballot/Ballot.sol\":2226:2227  0 */\n  0x00\n    /* \"contracts/Ballot/Ballot.sol\":2135:2243  Candidate({\r... */\n  dup2\n  mstore\n  pop\n    /* \"contracts/Ballot/Ballot.sol\":2119:2244  candidates.push(Candidate({\r... */\n  swap1\n  dup1\n  0x01\n  dup2\n  sload\n  add\n  dup1\n  dup3\n  sstore\n  dup1\n  swap2\n  pop\n  pop\n  0x01\n  swap1\n  sub\n  swap1\n  0x00\n  mstore\n  keccak256(0x00, 0x20)\n  swap1\n  0x02\n  mul\n  add\n  0x00\n  swap1\n  swap2\n  swap1\n  swap2\n  swap1\n  swap2\n  pop\n  0x00\n  dup3\n  add\n  mload\n  dup2\n  0x00\n  add\n  swap1\n  dup1\n  mload\n  swap1\n  0x20\n  add\n  swap1\n  tag_17\n  swap3\n  swap2\n  swap1\n  tag_18\n  jump\t// in\ntag_17:\n  pop\n  0x20\n  dup3\n  add\n  mload\n  dup2\n  0x01\n  add\n  sstore\n  pop\n  pop\n    /* \"contracts/Ballot/Ballot.sol\":2095:2102  index++ */\n  dup1\n  dup1\n  tag_19\n  swap1\n  tag_20\n  jump\t// in\ntag_19:\n  swap2\n  pop\n  pop\n    /* \"contracts/Ballot/Ballot.sol\":2046:2256  for (uint index = 0; index < _candidates.length; index++) {\r... */\n  jump(tag_10)\ntag_11:\n  pop\n    /* \"contracts/Ballot/Ballot.sol\":1964:2263  function setCandidatesIntoStorage(string[] memory _candidates) private {\r... */\n  pop\n  jump\t// out\n    /* \"contracts/Ballot/Ballot.sol\":70:5369  contract MyBallot {\r... */\ntag_18:\n  dup3\n  dup1\n  sload\n  tag_21\n  swap1\n  tag_22\n  jump\t// in\ntag_21:\n  swap1\n  0x00\n  mstore\n  keccak256(0x00, 0x20)\n  swap1\n  0x1f\n  add\n  0x20\n  swap1\n  div\n  dup2\n  add\n  swap3\n  dup3\n  tag_24\n  jumpi\n  0x00\n  dup6\n  sstore\n  jump(tag_23)\ntag_24:\n  dup3\n  0x1f\n  lt\n  tag_25\n  jumpi\n  dup1\n  mload\n  not(0xff)\n  and\n  dup4\n  dup1\n  add\n  or\n  dup6\n  sstore\n  jump(tag_23)\ntag_25:\n  dup3\n  dup1\n  add\n  0x01\n  add\n  dup6\n  sstore\n  dup3\n  iszero\n  tag_23\n  jumpi\n  swap2\n  dup3\n  add\ntag_26:\n  dup3\n  dup2\n  gt\n  iszero\n  tag_27\n  jumpi\n  dup3\n  mload\n  dup3\n  sstore\n  swap2\n  0x20\n  add\n  swap2\n  swap1\n  0x01\n  add\n  swap1\n  jump(tag_26)\ntag_27:\ntag_23:\n  pop\n  swap1\n  pop\n  tag_28\n  swap2\n  swap1\n  tag_29\n  jump\t// in\ntag_28:\n  pop\n  swap1\n  jump\t// out\ntag_29:\ntag_30:\n  dup1\n  dup3\n  gt\n  iszero\n  tag_31\n  jumpi\n  0x00\n  dup2\n  0x00\n  swap1\n  sstore\n  pop\n  0x01\n  add\n  jump(tag_30)\ntag_31:\n  pop\n  swap1\n  jump\t// out\n    /* \"#utility.yul\":23:995   */\ntag_33:\n    /* \"#utility.yul\":140:145   */\n  0x00\n    /* \"#utility.yul\":165:256   */\n  tag_35\n    /* \"#utility.yul\":181:255   */\n  tag_36\n    /* \"#utility.yul\":248:254   */\n  dup5\n    /* \"#utility.yul\":181:255   */\n  tag_37\n  jump\t// in\ntag_36:\n    /* \"#utility.yul\":165:256   */\n  tag_38\n  jump\t// in\ntag_35:\n    /* \"#utility.yul\":156:256   */\n  swap1\n  pop\n    /* \"#utility.yul\":276:281   */\n  dup1\n    /* \"#utility.yul\":305:311   */\n  dup4\n    /* \"#utility.yul\":298:303   */\n  dup3\n    /* \"#utility.yul\":291:312   */\n  mstore\n    /* \"#utility.yul\":339:343   */\n  0x20\n    /* \"#utility.yul\":332:337   */\n  dup3\n    /* \"#utility.yul\":328:344   */\n  add\n    /* \"#utility.yul\":321:344   */\n  swap1\n  pop\n    /* \"#utility.yul\":365:371   */\n  dup3\n    /* \"#utility.yul\":415:418   */\n  dup6\n    /* \"#utility.yul\":407:411   */\n  0x20\n    /* \"#utility.yul\":399:405   */\n  dup7\n    /* \"#utility.yul\":395:412   */\n  mul\n    /* \"#utility.yul\":390:393   */\n  dup3\n    /* \"#utility.yul\":386:413   */\n  add\n    /* \"#utility.yul\":383:419   */\n  gt\n    /* \"#utility.yul\":380:523   */\n  iszero\n  tag_39\n  jumpi\n    /* \"#utility.yul\":434:513   */\n  tag_40\n  tag_41\n  jump\t// in\ntag_40:\n    /* \"#utility.yul\":380:523   */\ntag_39:\n    /* \"#utility.yul\":547:548   */\n  0x00\n    /* \"#utility.yul\":532:989   */\ntag_42:\n    /* \"#utility.yul\":557:563   */\n  dup6\n    /* \"#utility.yul\":554:555   */\n  dup2\n    /* \"#utility.yul\":551:564   */\n  lt\n    /* \"#utility.yul\":532:989   */\n  iszero\n  tag_44\n  jumpi\n    /* \"#utility.yul\":632:635   */\n  dup2\n    /* \"#utility.yul\":626:636   */\n  mload\n    /* \"#utility.yul\":668:686   */\n  0xffffffffffffffff\n    /* \"#utility.yul\":655:666   */\n  dup2\n    /* \"#utility.yul\":652:687   */\n  gt\n    /* \"#utility.yul\":649:771   */\n  iszero\n  tag_45\n  jumpi\n    /* \"#utility.yul\":690:769   */\n  tag_46\n  tag_47\n  jump\t// in\ntag_46:\n    /* \"#utility.yul\":649:771   */\ntag_45:\n    /* \"#utility.yul\":814:825   */\n  dup1\n    /* \"#utility.yul\":806:812   */\n  dup7\n    /* \"#utility.yul\":802:826   */\n  add\n    /* \"#utility.yul\":852:910   */\n  tag_48\n    /* \"#utility.yul\":906:909   */\n  dup10\n    /* \"#utility.yul\":894:904   */\n  dup3\n    /* \"#utility.yul\":852:910   */\n  tag_49\n  jump\t// in\ntag_48:\n    /* \"#utility.yul\":847:850   */\n  dup6\n    /* \"#utility.yul\":840:911   */\n  mstore\n    /* \"#utility.yul\":940:944   */\n  0x20\n    /* \"#utility.yul\":935:938   */\n  dup6\n    /* \"#utility.yul\":931:945   */\n  add\n    /* \"#utility.yul\":924:945   */\n  swap5\n  pop\n    /* \"#utility.yul\":974:978   */\n  0x20\n    /* \"#utility.yul\":969:972   */\n  dup5\n    /* \"#utility.yul\":965:979   */\n  add\n    /* \"#utility.yul\":958:979   */\n  swap4\n  pop\n    /* \"#utility.yul\":592:989   */\n  pop\n  pop\n    /* \"#utility.yul\":579:580   */\n  0x01\n    /* \"#utility.yul\":576:577   */\n  dup2\n    /* \"#utility.yul\":572:581   */\n  add\n    /* \"#utility.yul\":567:581   */\n  swap1\n  pop\n    /* \"#utility.yul\":532:989   */\n  jump(tag_42)\ntag_44:\n    /* \"#utility.yul\":536:550   */\n  pop\n    /* \"#utility.yul\":146:995   */\n  pop\n  pop\n    /* \"#utility.yul\":23:995   */\n  swap4\n  swap3\n  pop\n  pop\n  pop\n  jump\t// out\n    /* \"#utility.yul\":1001:1422   */\ntag_50:\n    /* \"#utility.yul\":1090:1095   */\n  0x00\n    /* \"#utility.yul\":1115:1181   */\n  tag_52\n    /* \"#utility.yul\":1131:1180   */\n  tag_53\n    /* \"#utility.yul\":1173:1179   */\n  dup5\n    /* \"#utility.yul\":1131:1180   */\n  tag_54\n  jump\t// in\ntag_53:\n    /* \"#utility.yul\":1115:1181   */\n  tag_38\n  jump\t// in\ntag_52:\n    /* \"#utility.yul\":1106:1181   */\n  swap1\n  pop\n    /* \"#utility.yul\":1204:1210   */\n  dup3\n    /* \"#utility.yul\":1197:1202   */\n  dup2\n    /* \"#utility.yul\":1190:1211   */\n  mstore\n    /* \"#utility.yul\":1242:1246   */\n  0x20\n    /* \"#utility.yul\":1235:1240   */\n  dup2\n    /* \"#utility.yul\":1231:1247   */\n  add\n    /* \"#utility.yul\":1280:1283   */\n  dup5\n    /* \"#utility.yul\":1271:1277   */\n  dup5\n    /* \"#utility.yul\":1266:1269   */\n  dup5\n    /* \"#utility.yul\":1262:1278   */\n  add\n    /* \"#utility.yul\":1259:1284   */\n  gt\n    /* \"#utility.yul\":1256:1368   */\n  iszero\n  tag_55\n  jumpi\n    /* \"#utility.yul\":1287:1366   */\n  tag_56\n  tag_57\n  jump\t// in\ntag_56:\n    /* \"#utility.yul\":1256:1368   */\ntag_55:\n    /* \"#utility.yul\":1377:1416   */\n  tag_58\n    /* \"#utility.yul\":1409:1415   */\n  dup5\n    /* \"#utility.yul\":1404:1407   */\n  dup3\n    /* \"#utility.yul\":1399:1402   */\n  dup6\n    /* \"#utility.yul\":1377:1416   */\n  tag_59\n  jump\t// in\ntag_58:\n    /* \"#utility.yul\":1096:1422   */\n  pop\n    /* \"#utility.yul\":1001:1422   */\n  swap4\n  swap3\n  pop\n  pop\n  pop\n  jump\t// out\n    /* \"#utility.yul\":1444:1849   */\ntag_60:\n    /* \"#utility.yul\":1536:1541   */\n  0x00\n    /* \"#utility.yul\":1585:1588   */\n  dup3\n    /* \"#utility.yul\":1578:1582   */\n  0x1f\n    /* \"#utility.yul\":1570:1576   */\n  dup4\n    /* \"#utility.yul\":1566:1583   */\n  add\n    /* \"#utility.yul\":1562:1589   */\n  slt\n    /* \"#utility.yul\":1552:1674   */\n  tag_62\n  jumpi\n    /* \"#utility.yul\":1593:1672   */\n  tag_63\n  tag_47\n  jump\t// in\ntag_63:\n    /* \"#utility.yul\":1552:1674   */\ntag_62:\n    /* \"#utility.yul\":1703:1709   */\n  dup2\n    /* \"#utility.yul\":1697:1710   */\n  mload\n    /* \"#utility.yul\":1728:1843   */\n  tag_64\n    /* \"#utility.yul\":1839:1842   */\n  dup5\n    /* \"#utility.yul\":1831:1837   */\n  dup3\n    /* \"#utility.yul\":1824:1828   */\n  0x20\n    /* \"#utility.yul\":1816:1822   */\n  dup7\n    /* \"#utility.yul\":1812:1829   */\n  add\n    /* \"#utility.yul\":1728:1843   */\n  tag_33\n  jump\t// in\ntag_64:\n    /* \"#utility.yul\":1719:1843   */\n  swap2\n  pop\n    /* \"#utility.yul\":1542:1849   */\n  pop\n    /* \"#utility.yul\":1444:1849   */\n  swap3\n  swap2\n  pop\n  pop\n  jump\t// out\n    /* \"#utility.yul\":1869:2224   */\ntag_49:\n    /* \"#utility.yul\":1936:1941   */\n  0x00\n    /* \"#utility.yul\":1985:1988   */\n  dup3\n    /* \"#utility.yul\":1978:1982   */\n  0x1f\n    /* \"#utility.yul\":1970:1976   */\n  dup4\n    /* \"#utility.yul\":1966:1983   */\n  add\n    /* \"#utility.yul\":1962:1989   */\n  slt\n    /* \"#utility.yul\":1952:2074   */\n  tag_66\n  jumpi\n    /* \"#utility.yul\":1993:2072   */\n  tag_67\n  tag_47\n  jump\t// in\ntag_67:\n    /* \"#utility.yul\":1952:2074   */\ntag_66:\n    /* \"#utility.yul\":2103:2109   */\n  dup2\n    /* \"#utility.yul\":2097:2110   */\n  mload\n    /* \"#utility.yul\":2128:2218   */\n  tag_68\n    /* \"#utility.yul\":2214:2217   */\n  dup5\n    /* \"#utility.yul\":2206:2212   */\n  dup3\n    /* \"#utility.yul\":2199:2203   */\n  0x20\n    /* \"#utility.yul\":2191:2197   */\n  dup7\n    /* \"#utility.yul\":2187:2204   */\n  add\n    /* \"#utility.yul\":2128:2218   */\n  tag_50\n  jump\t// in\ntag_68:\n    /* \"#utility.yul\":2119:2218   */\n  swap2\n  pop\n    /* \"#utility.yul\":1942:2224   */\n  pop\n    /* \"#utility.yul\":1869:2224   */\n  swap3\n  swap2\n  pop\n  pop\n  jump\t// out\n    /* \"#utility.yul\":2230:2373   */\ntag_69:\n    /* \"#utility.yul\":2287:2292   */\n  0x00\n    /* \"#utility.yul\":2318:2324   */\n  dup2\n    /* \"#utility.yul\":2312:2325   */\n  mload\n    /* \"#utility.yul\":2303:2325   */\n  swap1\n  pop\n    /* \"#utility.yul\":2334:2367   */\n  tag_71\n    /* \"#utility.yul\":2361:2366   */\n  dup2\n    /* \"#utility.yul\":2334:2367   */\n  tag_72\n  jump\t// in\ntag_71:\n    /* \"#utility.yul\":2230:2373   */\n  swap3\n  swap2\n  pop\n  pop\n  jump\t// out\n    /* \"#utility.yul\":2379:3109   */\ntag_3:\n    /* \"#utility.yul\":2493:2499   */\n  0x00\n    /* \"#utility.yul\":2501:2507   */\n  dup1\n    /* \"#utility.yul\":2550:2552   */\n  0x40\n    /* \"#utility.yul\":2538:2547   */\n  dup4\n    /* \"#utility.yul\":2529:2536   */\n  dup6\n    /* \"#utility.yul\":2525:2548   */\n  sub\n    /* \"#utility.yul\":2521:2553   */\n  slt\n    /* \"#utility.yul\":2518:2637   */\n  iszero\n  tag_74\n  jumpi\n    /* \"#utility.yul\":2556:2635   */\n  tag_75\n  tag_76\n  jump\t// in\ntag_75:\n    /* \"#utility.yul\":2518:2637   */\ntag_74:\n    /* \"#utility.yul\":2697:2698   */\n  0x00\n    /* \"#utility.yul\":2686:2695   */\n  dup4\n    /* \"#utility.yul\":2682:2699   */\n  add\n    /* \"#utility.yul\":2676:2700   */\n  mload\n    /* \"#utility.yul\":2727:2745   */\n  0xffffffffffffffff\n    /* \"#utility.yul\":2719:2725   */\n  dup2\n    /* \"#utility.yul\":2716:2746   */\n  gt\n    /* \"#utility.yul\":2713:2830   */\n  iszero\n  tag_77\n  jumpi\n    /* \"#utility.yul\":2749:2828   */\n  tag_78\n  tag_79\n  jump\t// in\ntag_78:\n    /* \"#utility.yul\":2713:2830   */\ntag_77:\n    /* \"#utility.yul\":2854:2953   */\n  tag_80\n    /* \"#utility.yul\":2945:2952   */\n  dup6\n    /* \"#utility.yul\":2936:2942   */\n  dup3\n    /* \"#utility.yul\":2925:2934   */\n  dup7\n    /* \"#utility.yul\":2921:2943   */\n  add\n    /* \"#utility.yul\":2854:2953   */\n  tag_60\n  jump\t// in\ntag_80:\n    /* \"#utility.yul\":2844:2953   */\n  swap3\n  pop\n    /* \"#utility.yul\":2647:2963   */\n  pop\n    /* \"#utility.yul\":3002:3004   */\n  0x20\n    /* \"#utility.yul\":3028:3092   */\n  tag_81\n    /* \"#utility.yul\":3084:3091   */\n  dup6\n    /* \"#utility.yul\":3075:3081   */\n  dup3\n    /* \"#utility.yul\":3064:3073   */\n  dup7\n    /* \"#utility.yul\":3060:3082   */\n  add\n    /* \"#utility.yul\":3028:3092   */\n  tag_69\n  jump\t// in\ntag_81:\n    /* \"#utility.yul\":3018:3092   */\n  swap2\n  pop\n    /* \"#utility.yul\":2973:3102   */\n  pop\n    /* \"#utility.yul\":2379:3109   */\n  swap3\n  pop\n  swap3\n  swap1\n  pop\n  jump\t// out\n    /* \"#utility.yul\":3115:3244   */\ntag_38:\n    /* \"#utility.yul\":3149:3155   */\n  0x00\n    /* \"#utility.yul\":3176:3196   */\n  tag_83\n  tag_84\n  jump\t// in\ntag_83:\n    /* \"#utility.yul\":3166:3196   */\n  swap1\n  pop\n    /* \"#utility.yul\":3205:3238   */\n  tag_85\n    /* \"#utility.yul\":3233:3237   */\n  dup3\n    /* \"#utility.yul\":3225:3231   */\n  dup3\n    /* \"#utility.yul\":3205:3238   */\n  tag_86\n  jump\t// in\ntag_85:\n    /* \"#utility.yul\":3115:3244   */\n  swap2\n  swap1\n  pop\n  jump\t// out\n    /* \"#utility.yul\":3250:3325   */\ntag_84:\n    /* \"#utility.yul\":3283:3289   */\n  0x00\n    /* \"#utility.yul\":3316:3318   */\n  0x40\n    /* \"#utility.yul\":3310:3319   */\n  mload\n    /* \"#utility.yul\":3300:3319   */\n  swap1\n  pop\n    /* \"#utility.yul\":3250:3325   */\n  swap1\n  jump\t// out\n    /* \"#utility.yul\":3331:3652   */\ntag_37:\n    /* \"#utility.yul\":3418:3422   */\n  0x00\n    /* \"#utility.yul\":3508:3526   */\n  0xffffffffffffffff\n    /* \"#utility.yul\":3500:3506   */\n  dup3\n    /* \"#utility.yul\":3497:3527   */\n  gt\n    /* \"#utility.yul\":3494:3550   */\n  iszero\n  tag_89\n  jumpi\n    /* \"#utility.yul\":3530:3548   */\n  tag_90\n  tag_91\n  jump\t// in\ntag_90:\n    /* \"#utility.yul\":3494:3550   */\ntag_89:\n    /* \"#utility.yul\":3580:3584   */\n  0x20\n    /* \"#utility.yul\":3572:3578   */\n  dup3\n    /* \"#utility.yul\":3568:3585   */\n  mul\n    /* \"#utility.yul\":3560:3585   */\n  swap1\n  pop\n    /* \"#utility.yul\":3640:3644   */\n  0x20\n    /* \"#utility.yul\":3634:3638   */\n  dup2\n    /* \"#utility.yul\":3630:3645   */\n  add\n    /* \"#utility.yul\":3622:3645   */\n  swap1\n  pop\n    /* \"#utility.yul\":3331:3652   */\n  swap2\n  swap1\n  pop\n  jump\t// out\n    /* \"#utility.yul\":3658:3966   */\ntag_54:\n    /* \"#utility.yul\":3720:3724   */\n  0x00\n    /* \"#utility.yul\":3810:3828   */\n  0xffffffffffffffff\n    /* \"#utility.yul\":3802:3808   */\n  dup3\n    /* \"#utility.yul\":3799:3829   */\n  gt\n    /* \"#utility.yul\":3796:3852   */\n  iszero\n  tag_93\n  jumpi\n    /* \"#utility.yul\":3832:3850   */\n  tag_94\n  tag_91\n  jump\t// in\ntag_94:\n    /* \"#utility.yul\":3796:3852   */\ntag_93:\n    /* \"#utility.yul\":3870:3899   */\n  tag_95\n    /* \"#utility.yul\":3892:3898   */\n  dup3\n    /* \"#utility.yul\":3870:3899   */\n  tag_96\n  jump\t// in\ntag_95:\n    /* \"#utility.yul\":3862:3899   */\n  swap1\n  pop\n    /* \"#utility.yul\":3954:3958   */\n  0x20\n    /* \"#utility.yul\":3948:3952   */\n  dup2\n    /* \"#utility.yul\":3944:3959   */\n  add\n    /* \"#utility.yul\":3936:3959   */\n  swap1\n  pop\n    /* \"#utility.yul\":3658:3966   */\n  swap2\n  swap1\n  pop\n  jump\t// out\n    /* \"#utility.yul\":3972:4049   */\ntag_97:\n    /* \"#utility.yul\":4009:4016   */\n  0x00\n    /* \"#utility.yul\":4038:4043   */\n  dup2\n    /* \"#utility.yul\":4027:4043   */\n  swap1\n  pop\n    /* \"#utility.yul\":3972:4049   */\n  swap2\n  swap1\n  pop\n  jump\t// out\n    /* \"#utility.yul\":4055:4362   */\ntag_59:\n    /* \"#utility.yul\":4123:4124   */\n  0x00\n    /* \"#utility.yul\":4133:4246   */\ntag_100:\n    /* \"#utility.yul\":4147:4153   */\n  dup4\n    /* \"#utility.yul\":4144:4145   */\n  dup2\n    /* \"#utility.yul\":4141:4154   */\n  lt\n    /* \"#utility.yul\":4133:4246   */\n  iszero\n  tag_102\n  jumpi\n    /* \"#utility.yul\":4232:4233   */\n  dup1\n    /* \"#utility.yul\":4227:4230   */\n  dup3\n    /* \"#utility.yul\":4223:4234   */\n  add\n    /* \"#utility.yul\":4217:4235   */\n  mload\n    /* \"#utility.yul\":4213:4214   */\n  dup2\n    /* \"#utility.yul\":4208:4211   */\n  dup5\n    /* \"#utility.yul\":4204:4215   */\n  add\n    /* \"#utility.yul\":4197:4236   */\n  mstore\n    /* \"#utility.yul\":4169:4171   */\n  0x20\n    /* \"#utility.yul\":4166:4167   */\n  dup2\n    /* \"#utility.yul\":4162:4172   */\n  add\n    /* \"#utility.yul\":4157:4172   */\n  swap1\n  pop\n    /* \"#utility.yul\":4133:4246   */\n  jump(tag_100)\ntag_102:\n    /* \"#utility.yul\":4264:4270   */\n  dup4\n    /* \"#utility.yul\":4261:4262   */\n  dup2\n    /* \"#utility.yul\":4258:4271   */\n  gt\n    /* \"#utility.yul\":4255:4356   */\n  iszero\n  tag_103\n  jumpi\n    /* \"#utility.yul\":4344:4345   */\n  0x00\n    /* \"#utility.yul\":4335:4341   */\n  dup5\n    /* \"#utility.yul\":4330:4333   */\n  dup5\n    /* \"#utility.yul\":4326:4342   */\n  add\n    /* \"#utility.yul\":4319:4346   */\n  mstore\n    /* \"#utility.yul\":4255:4356   */\ntag_103:\n    /* \"#utility.yul\":4104:4362   */\n  pop\n    /* \"#utility.yul\":4055:4362   */\n  pop\n  pop\n  pop\n  jump\t// out\n    /* \"#utility.yul\":4368:4688   */\ntag_22:\n    /* \"#utility.yul\":4412:4418   */\n  0x00\n    /* \"#utility.yul\":4449:4450   */\n  0x02\n    /* \"#utility.yul\":4443:4447   */\n  dup3\n    /* \"#utility.yul\":4439:4451   */\n  div\n    /* \"#utility.yul\":4429:4451   */\n  swap1\n  pop\n    /* \"#utility.yul\":4496:4497   */\n  0x01\n    /* \"#utility.yul\":4490:4494   */\n  dup3\n    /* \"#utility.yul\":4486:4498   */\n  and\n    /* \"#utility.yul\":4517:4535   */\n  dup1\n    /* \"#utility.yul\":4507:4588   */\n  tag_105\n  jumpi\n    /* \"#utility.yul\":4573:4577   */\n  0x7f\n    /* \"#utility.yul\":4565:4571   */\n  dup3\n    /* \"#utility.yul\":4561:4578   */\n  and\n    /* \"#utility.yul\":4551:4578   */\n  swap2\n  pop\n    /* \"#utility.yul\":4507:4588   */\ntag_105:\n    /* \"#utility.yul\":4635:4637   */\n  0x20\n    /* \"#utility.yul\":4627:4633   */\n  dup3\n    /* \"#utility.yul\":4624:4638   */\n  lt\n    /* \"#utility.yul\":4604:4622   */\n  dup2\n    /* \"#utility.yul\":4601:4639   */\n  eq\n    /* \"#utility.yul\":4598:4682   */\n  iszero\n  tag_106\n  jumpi\n    /* \"#utility.yul\":4654:4672   */\n  tag_107\n  tag_108\n  jump\t// in\ntag_107:\n    /* \"#utility.yul\":4598:4682   */\ntag_106:\n    /* \"#utility.yul\":4419:4688   */\n  pop\n    /* \"#utility.yul\":4368:4688   */\n  swap2\n  swap1\n  pop\n  jump\t// out\n    /* \"#utility.yul\":4694:4975   */\ntag_86:\n    /* \"#utility.yul\":4777:4804   */\n  tag_110\n    /* \"#utility.yul\":4799:4803   */\n  dup3\n    /* \"#utility.yul\":4777:4804   */\n  tag_96\n  jump\t// in\ntag_110:\n    /* \"#utility.yul\":4769:4775   */\n  dup2\n    /* \"#utility.yul\":4765:4805   */\n  add\n    /* \"#utility.yul\":4907:4913   */\n  dup2\n    /* \"#utility.yul\":4895:4905   */\n  dup2\n    /* \"#utility.yul\":4892:4914   */\n  lt\n    /* \"#utility.yul\":4871:4889   */\n  0xffffffffffffffff\n    /* \"#utility.yul\":4859:4869   */\n  dup3\n    /* \"#utility.yul\":4856:4890   */\n  gt\n    /* \"#utility.yul\":4853:4915   */\n  or\n    /* \"#utility.yul\":4850:4938   */\n  iszero\n  tag_111\n  jumpi\n    /* \"#utility.yul\":4918:4936   */\n  tag_112\n  tag_91\n  jump\t// in\ntag_112:\n    /* \"#utility.yul\":4850:4938   */\ntag_111:\n    /* \"#utility.yul\":4958:4968   */\n  dup1\n    /* \"#utility.yul\":4954:4956   */\n  0x40\n    /* \"#utility.yul\":4947:4969   */\n  mstore\n    /* \"#utility.yul\":4737:4975   */\n  pop\n    /* \"#utility.yul\":4694:4975   */\n  pop\n  pop\n  jump\t// out\n    /* \"#utility.yul\":4981:5214   */\ntag_20:\n    /* \"#utility.yul\":5020:5023   */\n  0x00\n    /* \"#utility.yul\":5043:5067   */\n  tag_114\n    /* \"#utility.yul\":5061:5066   */\n  dup3\n    /* \"#utility.yul\":5043:5067   */\n  tag_97\n  jump\t// in\ntag_114:\n    /* \"#utility.yul\":5034:5067   */\n  swap2\n  pop\n    /* \"#utility.yul\":5089:5155   */\n  0xffffffffffffffffffffffffffffffffffffffffffffffffffffffffffffffff\n    /* \"#utility.yul\":5082:5087   */\n  dup3\n    /* \"#utility.yul\":5079:5156   */\n  eq\n    /* \"#utility.yul\":5076:5179   */\n  iszero\n  tag_115\n  jumpi\n    /* \"#utility.yul\":5159:5177   */\n  tag_116\n  tag_117\n  jump\t// in\ntag_116:\n    /* \"#utility.yul\":5076:5179   */\ntag_115:\n    /* \"#utility.yul\":5206:5207   */\n  0x01\n    /* \"#utility.yul\":5199:5204   */\n  dup3\n    /* \"#utility.yul\":5195:5208   */\n  add\n    /* \"#utility.yul\":5188:5208   */\n  swap1\n  pop\n    /* \"#utility.yul\":4981:5214   */\n  swap2\n  swap1\n  pop\n  jump\t// out\n    /* \"#utility.yul\":5220:5400   */\ntag_117:\n    /* \"#utility.yul\":5268:5345   */\n  0x4e487b7100000000000000000000000000000000000000000000000000000000\n    /* \"#utility.yul\":5265:5266   */\n  0x00\n    /* \"#utility.yul\":5258:5346   */\n  mstore\n    /* \"#utility.yul\":5365:5369   */\n  0x11\n    /* \"#utility.yul\":5362:5363   */\n  0x04\n    /* \"#utility.yul\":5355:5370   */\n  mstore\n    /* \"#utility.yul\":5389:5393   */\n  0x24\n    /* \"#utility.yul\":5386:5387   */\n  0x00\n    /* \"#utility.yul\":5379:5394   */\n  revert\n    /* \"#utility.yul\":5406:5586   */\ntag_108:\n    /* \"#utility.yul\":5454:5531   */\n  0x4e487b7100000000000000000000000000000000000000000000000000000000\n    /* \"#utility.yul\":5451:5452   */\n  0x00\n    /* \"#utility.yul\":5444:5532   */\n  mstore\n    /* \"#utility.yul\":5551:5555   */\n  0x22\n    /* \"#utility.yul\":5548:5549   */\n  0x04\n    /* \"#utility.yul\":5541:5556   */\n  mstore\n    /* \"#utility.yul\":5575:5579   */\n  0x24\n    /* \"#utility.yul\":5572:5573   */\n  0x00\n    /* \"#utility.yul\":5565:5580   */\n  revert\n    /* \"#utility.yul\":5592:5772   */\ntag_15:\n    /* \"#utility.yul\":5640:5717   */\n  0x4e487b7100000000000000000000000000000000000000000000000000000000\n    /* \"#utility.yul\":5637:5638   */\n  0x00\n    /* \"#utility.yul\":5630:5718   */\n  mstore\n    /* \"#utility.yul\":5737:5741   */\n  0x32\n    /* \"#utility.yul\":5734:5735   */\n  0x04\n    /* \"#utility.yul\":5727:5742   */\n  mstore\n    /* \"#utility.yul\":5761:5765   */\n  0x24\n    /* \"#utility.yul\":5758:5759   */\n  0x00\n    /* \"#utility.yul\":5751:5766   */\n  revert\n    /* \"#utility.yul\":5778:5958   */\ntag_91:\n    /* \"#utility.yul\":5826:5903   */\n  0x4e487b7100000000000000000000000000000000000000000000000000000000\n    /* \"#utility.yul\":5823:5824   */\n  0x00\n    /* \"#utility.yul\":5816:5904   */\n  mstore\n    /* \"#utility.yul\":5923:5927   */\n  0x41\n    /* \"#utility.yul\":5920:5921   */\n  0x04\n    /* \"#utility.yul\":5913:5928   */\n  mstore\n    /* \"#utility.yul\":5947:5951   */\n  0x24\n    /* \"#utility.yul\":5944:5945   */\n  0x00\n    /* \"#utility.yul\":5937:5952   */\n  revert\n    /* \"#utility.yul\":5964:6081   */\ntag_47:\n    /* \"#utility.yul\":6073:6074   */\n  0x00\n    /* \"#utility.yul\":6070:6071   */\n  dup1\n    /* \"#utility.yul\":6063:6075   */\n  revert\n    /* \"#utility.yul\":6087:6204   */\ntag_41:\n    /* \"#utility.yul\":6196:6197   */\n  0x00\n    /* \"#utility.yul\":6193:6194   */\n  dup1\n    /* \"#utility.yul\":6186:6198   */\n  revert\n    /* \"#utility.yul\":6210:6327   */\ntag_57:\n    /* \"#utility.yul\":6319:6320   */\n  0x00\n    /* \"#utility.yul\":6316:6317   */\n  dup1\n    /* \"#utility.yul\":6309:6321   */\n  revert\n    /* \"#utility.yul\":6333:6450   */\ntag_79:\n    /* \"#utility.yul\":6442:6443   */\n  0x00\n    /* \"#utility.yul\":6439:6440   */\n  dup1\n    /* \"#utility.yul\":6432:6444   */\n  revert\n    /* \"#utility.yul\":6456:6573   */\ntag_76:\n    /* \"#utility.yul\":6565:6566   */\n  0x00\n    /* \"#utility.yul\":6562:6563   */\n  dup1\n    /* \"#utility.yul\":6555:6567   */\n  revert\n    /* \"#utility.yul\":6579:6681   */\ntag_96:\n    /* \"#utility.yul\":6620:6626   */\n  0x00\n    /* \"#utility.yul\":6671:6673   */\n  0x1f\n    /* \"#utility.yul\":6667:6674   */\n  not\n    /* \"#utility.yul\":6662:6664   */\n  0x1f\n    /* \"#utility.yul\":6655:6660   */\n  dup4\n    /* \"#utility.yul\":6651:6665   */\n  add\n    /* \"#utility.yul\":6647:6675   */\n  and\n    /* \"#utility.yul\":6637:6675   */\n  swap1\n  pop\n    /* \"#utility.yul\":6579:6681   */\n  swap2\n  swap1\n  pop\n  jump\t// out\n    /* \"#utility.yul\":6687:6809   */\ntag_72:\n    /* \"#utility.yul\":6760:6784   */\n  tag_129\n    /* \"#utility.yul\":6778:6783   */\n  dup2\n    /* \"#utility.yul\":6760:6784   */\n  tag_97\n  jump\t// in\ntag_129:\n    /* \"#utility.yul\":6753:6758   */\n  dup2\n    /* \"#utility.yul\":6750:6785   */\n  eq\n    /* \"#utility.yul\":6740:6803   */\n  tag_130\n  jumpi\n    /* \"#utility.yul\":6799:6800   */\n  0x00\n    /* \"#utility.yul\":6796:6797   */\n  dup1\n    /* \"#utility.yul\":6789:6801   */\n  revert\n    /* \"#utility.yul\":6740:6803   */\ntag_130:\n    /* \"#utility.yul\":6687:6809   */\n  pop\n  jump\t// out\n    /* \"contracts/Ballot/Ballot.sol\":70:5369  contract MyBallot {\r... */\ntag_8:\n  dataSize(sub_0)\n  dup1\n  dataOffset(sub_0)\n  0x00\n  codecopy\n  0x00\n  return\nstop\n\nsub_0: assembly {\n        /* \"contracts/Ballot/Ballot.sol\":70:5369  contract MyBallot {\r... */\n      mstore(0x40, 0x80)\n      callvalue\n      dup1\n      iszero\n      tag_1\n      jumpi\n      0x00\n      dup1\n      revert\n    tag_1:\n      pop\n      jumpi(tag_2, lt(calldatasize, 0x04))\n      shr(0xe0, calldataload(0x00))\n      dup1\n      0x011d1023\n      eq\n      tag_3\n      jumpi\n      dup1\n      0x2bfda515\n      eq\n      tag_4\n      jumpi\n      dup1\n      0x3477ee2e\n      eq\n      tag_5\n      jumpi\n      dup1\n      0x9e7b8d61\n      eq\n      tag_6\n      jumpi\n      dup1\n      0xfc36e15b\n      eq\n      tag_7\n      jumpi\n    tag_2:\n      0x00\n      dup1\n      revert\n        /* \"contracts/Ballot/Ballot.sol\":4014:4422  function getCandidatesListName() public view returns (string[] memory) {\r... */\n    tag_3:\n      tag_8\n      tag_9\n      jump\t// in\n    tag_8:\n      mload(0x40)\n      tag_10\n      swap2\n      swap1\n      tag_11\n      jump\t// in\n    tag_10:\n      mload(0x40)\n      dup1\n      swap2\n      sub\n      swap1\n      return\n        /* \"contracts/Ballot/Ballot.sol\":2973:3389  function getWinnerName() public view returns (string memory winnerName, address) {\r... */\n    tag_4:\n      tag_12\n      tag_13\n      jump\t// in\n    tag_12:\n      mload(0x40)\n      tag_14\n      swap3\n      swap2\n      swap1\n      tag_15\n      jump\t// in\n    tag_14:\n      mload(0x40)\n      dup1\n      swap2\n      sub\n      swap1\n      return\n        /* \"contracts/Ballot/Ballot.sol\":376:405  Candidate[] public candidates */\n    tag_5:\n      tag_16\n      0x04\n      dup1\n      calldatasize\n      sub\n      dup2\n      add\n      swap1\n      tag_17\n      swap2\n      swap1\n      tag_18\n      jump\t// in\n    tag_17:\n      tag_19\n      jump\t// in\n    tag_16:\n      mload(0x40)\n      tag_20\n      swap3\n      swap2\n      swap1\n      tag_21\n      jump\t// in\n    tag_20:\n      mload(0x40)\n      dup1\n      swap2\n      sub\n      swap1\n      return\n        /* \"contracts/Ballot/Ballot.sol\":2275:2421  function giveRightToVote(address voterAddress) public giveRightToVoteModifier(voterAddress) {\r... */\n    tag_6:\n      tag_22\n      0x04\n      dup1\n      calldatasize\n      sub\n      dup2\n      add\n      swap1\n      tag_23\n      swap2\n      swap1\n      tag_24\n      jump\t// in\n    tag_23:\n      tag_25\n      jump\t// in\n    tag_22:\n      stop\n        /* \"contracts/Ballot/Ballot.sol\":2429:2965  function vote(string memory _nameProject) public voteModifier(msg.sender) {\r... */\n    tag_7:\n      tag_26\n      0x04\n      dup1\n      calldatasize\n      sub\n      dup2\n      add\n      swap1\n      tag_27\n      swap2\n      swap1\n      tag_28\n      jump\t// in\n    tag_27:\n      tag_29\n      jump\t// in\n    tag_26:\n      stop\n        /* \"contracts/Ballot/Ballot.sol\":4014:4422  function getCandidatesListName() public view returns (string[] memory) {\r... */\n    tag_9:\n        /* \"contracts/Ballot/Ballot.sol\":4068:4083  string[] memory */\n      0x60\n        /* \"contracts/Ballot/Ballot.sol\":4096:4117  uint candidatesLength */\n      0x00\n        /* \"contracts/Ballot/Ballot.sol\":4120:4130  candidates */\n      0x02\n        /* \"contracts/Ballot/Ballot.sol\":4120:4137  candidates.length */\n      dup1\n      sload\n      swap1\n      pop\n        /* \"contracts/Ballot/Ballot.sol\":4096:4137  uint candidatesLength = candidates.length */\n      swap1\n      pop\n        /* \"contracts/Ballot/Ballot.sol\":4148:4183  string[]  memory candidatesListName */\n      0x00\n        /* \"contracts/Ballot/Ballot.sol\":4199:4215  candidatesLength */\n      dup2\n        /* \"contracts/Ballot/Ballot.sol\":4186:4216  new string[](candidatesLength) */\n      0xffffffffffffffff\n      dup2\n      gt\n      iszero\n      tag_31\n      jumpi\n      tag_32\n      tag_33\n      jump\t// in\n    tag_32:\n    tag_31:\n      mload(0x40)\n      swap1\n      dup1\n      dup3\n      mstore\n      dup1\n      0x20\n      mul\n      0x20\n      add\n      dup3\n      add\n      0x40\n      mstore\n      dup1\n      iszero\n      tag_34\n      jumpi\n      dup2\n      0x20\n      add\n    tag_35:\n      0x60\n      dup2\n      mstore\n      0x20\n      add\n      swap1\n      0x01\n      swap1\n      sub\n      swap1\n      dup2\n      tag_35\n      jumpi\n      swap1\n      pop\n    tag_34:\n      pop\n        /* \"contracts/Ballot/Ballot.sol\":4148:4216  string[]  memory candidatesListName = new string[](candidatesLength) */\n      swap1\n      pop\n        /* \"contracts/Ballot/Ballot.sol\":4242:4252  uint index */\n      0x00\n        /* \"contracts/Ballot/Ballot.sol\":4237:4377  for (uint index = 0; index < candidatesLength; index++) {\r... */\n    tag_36:\n        /* \"contracts/Ballot/Ballot.sol\":4266:4282  candidatesLength */\n      dup3\n        /* \"contracts/Ballot/Ballot.sol\":4258:4263  index */\n      dup2\n        /* \"contracts/Ballot/Ballot.sol\":4258:4282  index < candidatesLength */\n      lt\n        /* \"contracts/Ballot/Ballot.sol\":4237:4377  for (uint index = 0; index < candidatesLength; index++) {\r... */\n      iszero\n      tag_37\n      jumpi\n        /* \"contracts/Ballot/Ballot.sol\":4336:4346  candidates */\n      0x02\n        /* \"contracts/Ballot/Ballot.sol\":4347:4352  index */\n      dup2\n        /* \"contracts/Ballot/Ballot.sol\":4336:4353  candidates[index] */\n      dup2\n      sload\n      dup2\n      lt\n      tag_39\n      jumpi\n      tag_40\n      tag_41\n      jump\t// in\n    tag_40:\n    tag_39:\n      swap1\n      0x00\n      mstore\n      keccak256(0x00, 0x20)\n      swap1\n      0x02\n      mul\n      add\n        /* \"contracts/Ballot/Ballot.sol\":4336:4365  candidates[index].nameProject */\n      0x00\n      add\n        /* \"contracts/Ballot/Ballot.sol\":4308:4365  candidatesListName[index] = candidates[index].nameProject */\n      dup1\n      sload\n      tag_43\n      swap1\n      tag_44\n      jump\t// in\n    tag_43:\n      dup1\n      0x1f\n      add\n      0x20\n      dup1\n      swap2\n      div\n      mul\n      0x20\n      add\n      mload(0x40)\n      swap1\n      dup2\n      add\n      0x40\n      mstore\n      dup1\n      swap3\n      swap2\n      swap1\n      dup2\n      dup2\n      mstore\n      0x20\n      add\n      dup3\n      dup1\n      sload\n      tag_45\n      swap1\n      tag_44\n      jump\t// in\n    tag_45:\n      dup1\n      iszero\n      tag_46\n      jumpi\n      dup1\n      0x1f\n      lt\n      tag_47\n      jumpi\n      0x0100\n      dup1\n      dup4\n      sload\n      div\n      mul\n      dup4\n      mstore\n      swap2\n      0x20\n      add\n      swap2\n      jump(tag_46)\n    tag_47:\n      dup3\n      add\n      swap2\n      swap1\n      0x00\n      mstore\n      keccak256(0x00, 0x20)\n      swap1\n    tag_48:\n      dup2\n      sload\n      dup2\n      mstore\n      swap1\n      0x01\n      add\n      swap1\n      0x20\n      add\n      dup1\n      dup4\n      gt\n      tag_48\n      jumpi\n      dup3\n      swap1\n      sub\n      0x1f\n      and\n      dup3\n      add\n      swap2\n    tag_46:\n      pop\n      pop\n      pop\n      pop\n      pop\n        /* \"contracts/Ballot/Ballot.sol\":4308:4326  candidatesListName */\n      dup3\n        /* \"contracts/Ballot/Ballot.sol\":4327:4332  index */\n      dup3\n        /* \"contracts/Ballot/Ballot.sol\":4308:4333  candidatesListName[index] */\n      dup2\n      mload\n      dup2\n      lt\n      tag_49\n      jumpi\n      tag_50\n      tag_41\n      jump\t// in\n    tag_50:\n    tag_49:\n      0x20\n      mul\n      0x20\n      add\n      add\n        /* \"contracts/Ballot/Ballot.sol\":4308:4365  candidatesListName[index] = candidates[index].nameProject */\n      dup2\n      swap1\n      mstore\n      pop\n        /* \"contracts/Ballot/Ballot.sol\":4284:4291  index++ */\n      dup1\n      dup1\n      tag_51\n      swap1\n      tag_52\n      jump\t// in\n    tag_51:\n      swap2\n      pop\n      pop\n        /* \"contracts/Ballot/Ballot.sol\":4237:4377  for (uint index = 0; index < candidatesLength; index++) {\r... */\n      jump(tag_36)\n    tag_37:\n      pop\n        /* \"contracts/Ballot/Ballot.sol\":4396:4414  candidatesListName */\n      dup1\n        /* \"contracts/Ballot/Ballot.sol\":4389:4414  return candidatesListName */\n      swap3\n      pop\n      pop\n      pop\n        /* \"contracts/Ballot/Ballot.sol\":4014:4422  function getCandidatesListName() public view returns (string[] memory) {\r... */\n      swap1\n      jump\t// out\n        /* \"contracts/Ballot/Ballot.sol\":2973:3389  function getWinnerName() public view returns (string memory winnerName, address) {\r... */\n    tag_13:\n        /* \"contracts/Ballot/Ballot.sol\":3019:3043  string memory winnerName */\n      0x60\n        /* \"contracts/Ballot/Ballot.sol\":3045:3052  address */\n      0x00\n        /* \"contracts/Ballot/Ballot.sol\":3066:3086  uint winningProposal */\n      dup1\n        /* \"contracts/Ballot/Ballot.sol\":3088:3098  bool isTie */\n      0x00\n        /* \"contracts/Ballot/Ballot.sol\":3102:3123  getWinningCandidate() */\n      tag_54\n        /* \"contracts/Ballot/Ballot.sol\":3102:3121  getWinningCandidate */\n      tag_55\n        /* \"contracts/Ballot/Ballot.sol\":3102:3123  getWinningCandidate() */\n      jump\t// in\n    tag_54:\n        /* \"contracts/Ballot/Ballot.sol\":3065:3123  (uint winningProposal, bool isTie) = getWinningCandidate() */\n      swap2\n      pop\n      swap2\n      pop\n        /* \"contracts/Ballot/Ballot.sol\":3157:3162  isTie */\n      dup1\n        /* \"contracts/Ballot/Ballot.sol\":3156:3162  !isTie */\n      iszero\n        /* \"contracts/Ballot/Ballot.sol\":3134:3266  require(\r... */\n      tag_56\n      jumpi\n      mload(0x40)\n      0x08c379a000000000000000000000000000000000000000000000000000000000\n      dup2\n      mstore\n      0x04\n      add\n      tag_57\n      swap1\n      tag_58\n      jump\t// in\n    tag_57:\n      mload(0x40)\n      dup1\n      swap2\n      sub\n      swap1\n      revert\n    tag_56:\n        /* \"contracts/Ballot/Ballot.sol\":3290:3300  candidates */\n      0x02\n        /* \"contracts/Ballot/Ballot.sol\":3301:3316  winningProposal */\n      dup3\n        /* \"contracts/Ballot/Ballot.sol\":3290:3317  candidates[winningProposal] */\n      dup2\n      sload\n      dup2\n      lt\n      tag_59\n      jumpi\n      tag_60\n      tag_41\n      jump\t// in\n    tag_60:\n    tag_59:\n      swap1\n      0x00\n      mstore\n      keccak256(0x00, 0x20)\n      swap1\n      0x02\n      mul\n      add\n        /* \"contracts/Ballot/Ballot.sol\":3290:3329  candidates[winningProposal].nameProject */\n      0x00\n      add\n        /* \"contracts/Ballot/Ballot.sol\":3277:3329  winnerName = candidates[winningProposal].nameProject */\n      dup1\n      sload\n      tag_62\n      swap1\n      tag_44\n      jump\t// in\n    tag_62:\n      dup1\n      0x1f\n      add\n      0x20\n      dup1\n      swap2\n      div\n      mul\n      0x20\n      add\n      mload(0x40)\n      swap1\n      dup2\n      add\n      0x40\n      mstore\n      dup1\n      swap3\n      swap2\n      swap1\n      dup2\n      dup2\n      mstore\n      0x20\n      add\n      dup3\n      dup1\n      sload\n      tag_63\n      swap1\n      tag_44\n      jump\t// in\n    tag_63:\n      dup1\n      iszero\n      tag_64\n      jumpi\n      dup1\n      0x1f\n      lt\n      tag_65\n      jumpi\n      0x0100\n      dup1\n      dup4\n      sload\n      div\n      mul\n      dup4\n      mstore\n      swap2\n      0x20\n      add\n      swap2\n      jump(tag_64)\n    tag_65:\n      dup3\n      add\n      swap2\n      swap1\n      0x00\n      mstore\n      keccak256(0x00, 0x20)\n      swap1\n    tag_66:\n      dup2\n      sload\n      dup2\n      mstore\n      swap1\n      0x01\n      add\n      swap1\n      0x20\n      add\n      dup1\n      dup4\n      gt\n      tag_66\n      jumpi\n      dup3\n      swap1\n      sub\n      0x1f\n      and\n      dup3\n      add\n      swap2\n    tag_64:\n      pop\n      pop\n      pop\n      pop\n      pop\n      swap4\n      pop\n        /* \"contracts/Ballot/Ballot.sol\":3348:3358  winnerName */\n      dup4\n        /* \"contracts/Ballot/Ballot.sol\":3360:3380  getContractAddress() */\n      tag_67\n        /* \"contracts/Ballot/Ballot.sol\":3360:3378  getContractAddress */\n      tag_68\n        /* \"contracts/Ballot/Ballot.sol\":3360:3380  getContractAddress() */\n      jump\t// in\n    tag_67:\n        /* \"contracts/Ballot/Ballot.sol\":3340:3381  return (winnerName, getContractAddress()) */\n      swap4\n      pop\n      swap4\n      pop\n      pop\n      pop\n        /* \"contracts/Ballot/Ballot.sol\":2973:3389  function getWinnerName() public view returns (string memory winnerName, address) {\r... */\n      swap1\n      swap2\n      jump\t// out\n        /* \"contracts/Ballot/Ballot.sol\":376:405  Candidate[] public candidates */\n    tag_19:\n      0x02\n      dup2\n      dup2\n      sload\n      dup2\n      lt\n      tag_69\n      jumpi\n      0x00\n      dup1\n      revert\n    tag_69:\n      swap1\n      0x00\n      mstore\n      keccak256(0x00, 0x20)\n      swap1\n      0x02\n      mul\n      add\n      0x00\n      swap2\n      pop\n      swap1\n      pop\n      dup1\n      0x00\n      add\n      dup1\n      sload\n      tag_71\n      swap1\n      tag_44\n      jump\t// in\n    tag_71:\n      dup1\n      0x1f\n      add\n      0x20\n      dup1\n      swap2\n      div\n      mul\n      0x20\n      add\n      mload(0x40)\n      swap1\n      dup2\n      add\n      0x40\n      mstore\n      dup1\n      swap3\n      swap2\n      swap1\n      dup2\n      dup2\n      mstore\n      0x20\n      add\n      dup3\n      dup1\n      sload\n      tag_72\n      swap1\n      tag_44\n      jump\t// in\n    tag_72:\n      dup1\n      iszero\n      tag_73\n      jumpi\n      dup1\n      0x1f\n      lt\n      tag_74\n      jumpi\n      0x0100\n      dup1\n      dup4\n      sload\n      div\n      mul\n      dup4\n      mstore\n      swap2\n      0x20\n      add\n      swap2\n      jump(tag_73)\n    tag_74:\n      dup3\n      add\n      swap2\n      swap1\n      0x00\n      mstore\n      keccak256(0x00, 0x20)\n      swap1\n    tag_75:\n      dup2\n      sload\n      dup2\n      mstore\n      swap1\n      0x01\n      add\n      swap1\n      0x20\n      add\n      dup1\n      dup4\n      gt\n      tag_75\n      jumpi\n      dup3\n      swap1\n      sub\n      0x1f\n      and\n      dup3\n      add\n      swap2\n    tag_73:\n      pop\n      pop\n      pop\n      pop\n      pop\n      swap1\n      dup1\n      0x01\n      add\n      sload\n      swap1\n      pop\n      dup3\n      jump\t// out\n        /* \"contracts/Ballot/Ballot.sol\":2275:2421  function giveRightToVote(address voterAddress) public giveRightToVoteModifier(voterAddress) {\r... */\n    tag_25:\n        /* \"contracts/Ballot/Ballot.sol\":2353:2365  voterAddress */\n      dup1\n        /* \"contracts/Ballot/Ballot.sol\":984:1020  getTotalVotesCounterReachedRequire() */\n      tag_77\n        /* \"contracts/Ballot/Ballot.sol\":984:1018  getTotalVotesCounterReachedRequire */\n      tag_78\n        /* \"contracts/Ballot/Ballot.sol\":984:1020  getTotalVotesCounterReachedRequire() */\n      jump\t// in\n    tag_77:\n        /* \"contracts/Ballot/Ballot.sol\":1053:1074  areYouContractOwner() */\n      tag_79\n        /* \"contracts/Ballot/Ballot.sol\":1053:1072  areYouContractOwner */\n      tag_80\n        /* \"contracts/Ballot/Ballot.sol\":1053:1074  areYouContractOwner() */\n      jump\t// in\n    tag_79:\n        /* \"contracts/Ballot/Ballot.sol\":1031:1149  require(\r... */\n      tag_81\n      jumpi\n      mload(0x40)\n      0x08c379a000000000000000000000000000000000000000000000000000000000\n      dup2\n      mstore\n      0x04\n      add\n      tag_82\n      swap1\n      tag_83\n      jump\t// in\n    tag_82:\n      mload(0x40)\n      dup1\n      swap2\n      sub\n      swap1\n      revert\n    tag_81:\n        /* \"contracts/Ballot/Ballot.sol\":1160:1194  getVoterVotedRequire(voterAddress) */\n      tag_84\n        /* \"contracts/Ballot/Ballot.sol\":1181:1193  voterAddress */\n      dup2\n        /* \"contracts/Ballot/Ballot.sol\":1160:1180  getVoterVotedRequire */\n      tag_85\n        /* \"contracts/Ballot/Ballot.sol\":1160:1194  getVoterVotedRequire(voterAddress) */\n      jump\t// in\n    tag_84:\n        /* \"contracts/Ballot/Ballot.sol\":2409:2413  true */\n      0x01\n        /* \"contracts/Ballot/Ballot.sol\":2378:2384  voters */\n      dup1\n        /* \"contracts/Ballot/Ballot.sol\":2378:2398  voters[voterAddress] */\n      0x00\n        /* \"contracts/Ballot/Ballot.sol\":2385:2397  voterAddress */\n      dup5\n        /* \"contracts/Ballot/Ballot.sol\":2378:2398  voters[voterAddress] */\n      0xffffffffffffffffffffffffffffffffffffffff\n      and\n      0xffffffffffffffffffffffffffffffffffffffff\n      and\n      dup2\n      mstore\n      0x20\n      add\n      swap1\n      dup2\n      mstore\n      0x20\n      add\n      0x00\n      keccak256\n        /* \"contracts/Ballot/Ballot.sol\":2378:2406  voters[voterAddress].canVote */\n      0x00\n      add\n      0x00\n        /* \"contracts/Ballot/Ballot.sol\":2378:2413  voters[voterAddress].canVote = true */\n      0x0100\n      exp\n      dup2\n      sload\n      dup2\n      0xff\n      mul\n      not\n      and\n      swap1\n      dup4\n      iszero\n      iszero\n      mul\n      or\n      swap1\n      sstore\n      pop\n        /* \"contracts/Ballot/Ballot.sol\":2275:2421  function giveRightToVote(address voterAddress) public giveRightToVoteModifier(voterAddress) {\r... */\n      pop\n      pop\n      jump\t// out\n        /* \"contracts/Ballot/Ballot.sol\":2429:2965  function vote(string memory _nameProject) public voteModifier(msg.sender) {\r... */\n    tag_29:\n        /* \"contracts/Ballot/Ballot.sol\":2491:2501  msg.sender */\n      caller\n        /* \"contracts/Ballot/Ballot.sol\":1277:1313  getTotalVotesCounterReachedRequire() */\n      tag_88\n        /* \"contracts/Ballot/Ballot.sol\":1277:1311  getTotalVotesCounterReachedRequire */\n      tag_78\n        /* \"contracts/Ballot/Ballot.sol\":1277:1313  getTotalVotesCounterReachedRequire() */\n      jump\t// in\n    tag_88:\n        /* \"contracts/Ballot/Ballot.sol\":1346:1369  areYouHaveRigthToVote() */\n      tag_89\n        /* \"contracts/Ballot/Ballot.sol\":1346:1367  areYouHaveRigthToVote */\n      tag_90\n        /* \"contracts/Ballot/Ballot.sol\":1346:1369  areYouHaveRigthToVote() */\n      jump\t// in\n    tag_89:\n        /* \"contracts/Ballot/Ballot.sol\":1324:1424  require(\r... */\n      tag_91\n      jumpi\n      mload(0x40)\n      0x08c379a000000000000000000000000000000000000000000000000000000000\n      dup2\n      mstore\n      0x04\n      add\n      tag_92\n      swap1\n      tag_93\n      jump\t// in\n    tag_92:\n      mload(0x40)\n      dup1\n      swap2\n      sub\n      swap1\n      revert\n    tag_91:\n        /* \"contracts/Ballot/Ballot.sol\":1435:1469  getVoterVotedRequire(voterAddress) */\n      tag_94\n        /* \"contracts/Ballot/Ballot.sol\":1456:1468  voterAddress */\n      dup2\n        /* \"contracts/Ballot/Ballot.sol\":1435:1455  getVoterVotedRequire */\n      tag_85\n        /* \"contracts/Ballot/Ballot.sol\":1435:1469  getVoterVotedRequire(voterAddress) */\n      jump\t// in\n    tag_94:\n        /* \"contracts/Ballot/Ballot.sol\":2514:2534  Voter storage sender */\n      0x00\n        /* \"contracts/Ballot/Ballot.sol\":2537:2543  voters */\n      0x01\n        /* \"contracts/Ballot/Ballot.sol\":2537:2555  voters[msg.sender] */\n      0x00\n        /* \"contracts/Ballot/Ballot.sol\":2544:2554  msg.sender */\n      caller\n        /* \"contracts/Ballot/Ballot.sol\":2537:2555  voters[msg.sender] */\n      0xffffffffffffffffffffffffffffffffffffffff\n      and\n      0xffffffffffffffffffffffffffffffffffffffff\n      and\n      dup2\n      mstore\n      0x20\n      add\n      swap1\n      dup2\n      mstore\n      0x20\n      add\n      0x00\n      keccak256\n        /* \"contracts/Ballot/Ballot.sol\":2514:2555  Voter storage sender = voters[msg.sender] */\n      swap1\n      pop\n        /* \"contracts/Ballot/Ballot.sol\":2672:2682  uint index */\n      0x00\n        /* \"contracts/Ballot/Ballot.sol\":2667:2958  for (uint index = 0; index < candidates.length; index++) {\r... */\n    tag_96:\n        /* \"contracts/Ballot/Ballot.sol\":2696:2706  candidates */\n      0x02\n        /* \"contracts/Ballot/Ballot.sol\":2696:2713  candidates.length */\n      dup1\n      sload\n      swap1\n      pop\n        /* \"contracts/Ballot/Ballot.sol\":2688:2693  index */\n      dup2\n        /* \"contracts/Ballot/Ballot.sol\":2688:2713  index < candidates.length */\n      lt\n        /* \"contracts/Ballot/Ballot.sol\":2667:2958  for (uint index = 0; index < candidates.length; index++) {\r... */\n      iszero\n      tag_97\n      jumpi\n        /* \"contracts/Ballot/Ballot.sol\":2743:2801  stringEqualTo(candidates[index].nameProject, _nameProject) */\n      tag_99\n        /* \"contracts/Ballot/Ballot.sol\":2757:2767  candidates */\n      0x02\n        /* \"contracts/Ballot/Ballot.sol\":2768:2773  index */\n      dup3\n        /* \"contracts/Ballot/Ballot.sol\":2757:2774  candidates[index] */\n      dup2\n      sload\n      dup2\n      lt\n      tag_100\n      jumpi\n      tag_101\n      tag_41\n      jump\t// in\n    tag_101:\n    tag_100:\n      swap1\n      0x00\n      mstore\n      keccak256(0x00, 0x20)\n      swap1\n      0x02\n      mul\n      add\n        /* \"contracts/Ballot/Ballot.sol\":2757:2786  candidates[index].nameProject */\n      0x00\n      add\n        /* \"contracts/Ballot/Ballot.sol\":2743:2801  stringEqualTo(candidates[index].nameProject, _nameProject) */\n      dup1\n      sload\n      tag_103\n      swap1\n      tag_44\n      jump\t// in\n    tag_103:\n      dup1\n      0x1f\n      add\n      0x20\n      dup1\n      swap2\n      div\n      mul\n      0x20\n      add\n      mload(0x40)\n      swap1\n      dup2\n      add\n      0x40\n      mstore\n      dup1\n      swap3\n      swap2\n      swap1\n      dup2\n      dup2\n      mstore\n      0x20\n      add\n      dup3\n      dup1\n      sload\n      tag_104\n      swap1\n      tag_44\n      jump\t// in\n    tag_104:\n      dup1\n      iszero\n      tag_105\n      jumpi\n      dup1\n      0x1f\n      lt\n      tag_106\n      jumpi\n      0x0100\n      dup1\n      dup4\n      sload\n      div\n      mul\n      dup4\n      mstore\n      swap2\n      0x20\n      add\n      swap2\n      jump(tag_105)\n    tag_106:\n      dup3\n      add\n      swap2\n      swap1\n      0x00\n      mstore\n      keccak256(0x00, 0x20)\n      swap1\n    tag_107:\n      dup2\n      sload\n      dup2\n      mstore\n      swap1\n      0x01\n      add\n      swap1\n      0x20\n      add\n      dup1\n      dup4\n      gt\n      tag_107\n      jumpi\n      dup3\n      swap1\n      sub\n      0x1f\n      and\n      dup3\n      add\n      swap2\n    tag_105:\n      pop\n      pop\n      pop\n      pop\n      pop\n        /* \"contracts/Ballot/Ballot.sol\":2788:2800  _nameProject */\n      dup6\n        /* \"contracts/Ballot/Ballot.sol\":2743:2756  stringEqualTo */\n      tag_108\n        /* \"contracts/Ballot/Ballot.sol\":2743:2801  stringEqualTo(candidates[index].nameProject, _nameProject) */\n      jump\t// in\n    tag_99:\n        /* \"contracts/Ballot/Ballot.sol\":2739:2947  if (stringEqualTo(candidates[index].nameProject, _nameProject)) {\r... */\n      iszero\n      tag_109\n      jumpi\n        /* \"contracts/Ballot/Ballot.sol\":2822:2832  candidates */\n      0x02\n        /* \"contracts/Ballot/Ballot.sol\":2833:2838  index */\n      dup2\n        /* \"contracts/Ballot/Ballot.sol\":2822:2839  candidates[index] */\n      dup2\n      sload\n      dup2\n      lt\n      tag_110\n      jumpi\n      tag_111\n      tag_41\n      jump\t// in\n    tag_111:\n    tag_110:\n      swap1\n      0x00\n      mstore\n      keccak256(0x00, 0x20)\n      swap1\n      0x02\n      mul\n      add\n        /* \"contracts/Ballot/Ballot.sol\":2822:2850  candidates[index].votesCount */\n      0x01\n      add\n      0x00\n        /* \"contracts/Ballot/Ballot.sol\":2822:2852  candidates[index].votesCount++ */\n      dup2\n      sload\n      dup1\n      swap3\n      swap2\n      swap1\n      tag_113\n      swap1\n      tag_52\n      jump\t// in\n    tag_113:\n      swap2\n      swap1\n      pop\n      sstore\n      pop\n        /* \"contracts/Ballot/Ballot.sol\":2889:2893  true */\n      0x01\n        /* \"contracts/Ballot/Ballot.sol\":2871:2877  sender */\n      dup3\n        /* \"contracts/Ballot/Ballot.sol\":2871:2886  sender.hasVoted */\n      0x00\n      add\n      0x01\n        /* \"contracts/Ballot/Ballot.sol\":2871:2893  sender.hasVoted = true */\n      0x0100\n      exp\n      dup2\n      sload\n      dup2\n      0xff\n      mul\n      not\n      and\n      swap1\n      dup4\n      iszero\n      iszero\n      mul\n      or\n      swap1\n      sstore\n      pop\n        /* \"contracts/Ballot/Ballot.sol\":2912:2929  totalVotesCounter */\n      0x03\n      0x00\n        /* \"contracts/Ballot/Ballot.sol\":2912:2931  totalVotesCounter++ */\n      dup2\n      sload\n      dup1\n      swap3\n      swap2\n      swap1\n      tag_114\n      swap1\n      tag_52\n      jump\t// in\n    tag_114:\n      swap2\n      swap1\n      pop\n      sstore\n      pop\n        /* \"contracts/Ballot/Ballot.sol\":2739:2947  if (stringEqualTo(candidates[index].nameProject, _nameProject)) {\r... */\n    tag_109:\n        /* \"contracts/Ballot/Ballot.sol\":2715:2722  index++ */\n      dup1\n      dup1\n      tag_115\n      swap1\n      tag_52\n      jump\t// in\n    tag_115:\n      swap2\n      pop\n      pop\n        /* \"contracts/Ballot/Ballot.sol\":2667:2958  for (uint index = 0; index < candidates.length; index++) {\r... */\n      jump(tag_96)\n    tag_97:\n      pop\n        /* \"contracts/Ballot/Ballot.sol\":2503:2965  {\r... */\n      pop\n        /* \"contracts/Ballot/Ballot.sol\":2429:2965  function vote(string memory _nameProject) public voteModifier(msg.sender) {\r... */\n      pop\n      pop\n      jump\t// out\n        /* \"contracts/Ballot/Ballot.sol\":3397:4006  function getWinningCandidate() private view returns (uint winningProposal, bool isTie) {        \r... */\n    tag_55:\n        /* \"contracts/Ballot/Ballot.sol\":3450:3470  uint winningProposal */\n      0x00\n        /* \"contracts/Ballot/Ballot.sol\":3472:3482  bool isTie */\n      dup1\n        /* \"contracts/Ballot/Ballot.sol\":3503:3524  uint winningVoteCount */\n      0x00\n        /* \"contracts/Ballot/Ballot.sol\":3542:3561  uint indexCandidate */\n      dup1\n        /* \"contracts/Ballot/Ballot.sol\":3564:3565  0 */\n      0x00\n        /* \"contracts/Ballot/Ballot.sol\":3542:3565  uint indexCandidate = 0 */\n      swap1\n      pop\n        /* \"contracts/Ballot/Ballot.sol\":3537:3999  for (uint indexCandidate = 0; indexCandidate < candidates.length; indexCandidate++) {\r... */\n    tag_117:\n        /* \"contracts/Ballot/Ballot.sol\":3584:3594  candidates */\n      0x02\n        /* \"contracts/Ballot/Ballot.sol\":3584:3601  candidates.length */\n      dup1\n      sload\n      swap1\n      pop\n        /* \"contracts/Ballot/Ballot.sol\":3567:3581  indexCandidate */\n      dup2\n        /* \"contracts/Ballot/Ballot.sol\":3567:3601  indexCandidate < candidates.length */\n      lt\n        /* \"contracts/Ballot/Ballot.sol\":3537:3999  for (uint indexCandidate = 0; indexCandidate < candidates.length; indexCandidate++) {\r... */\n      iszero\n      tag_118\n      jumpi\n        /* \"contracts/Ballot/Ballot.sol\":3680:3696  winningVoteCount */\n      dup2\n        /* \"contracts/Ballot/Ballot.sol\":3640:3650  candidates */\n      0x02\n        /* \"contracts/Ballot/Ballot.sol\":3651:3665  indexCandidate */\n      dup3\n        /* \"contracts/Ballot/Ballot.sol\":3640:3666  candidates[indexCandidate] */\n      dup2\n      sload\n      dup2\n      lt\n      tag_120\n      jumpi\n      tag_121\n      tag_41\n      jump\t// in\n    tag_121:\n    tag_120:\n      swap1\n      0x00\n      mstore\n      keccak256(0x00, 0x20)\n      swap1\n      0x02\n      mul\n      add\n        /* \"contracts/Ballot/Ballot.sol\":3640:3677  candidates[indexCandidate].votesCount */\n      0x01\n      add\n      sload\n        /* \"contracts/Ballot/Ballot.sol\":3640:3696  candidates[indexCandidate].votesCount > winningVoteCount */\n      gt\n        /* \"contracts/Ballot/Ballot.sol\":3636:3988  if (candidates[indexCandidate].votesCount > winningVoteCount) {\r... */\n      iszero\n      tag_123\n      jumpi\n        /* \"contracts/Ballot/Ballot.sol\":3736:3746  candidates */\n      0x02\n        /* \"contracts/Ballot/Ballot.sol\":3747:3761  indexCandidate */\n      dup2\n        /* \"contracts/Ballot/Ballot.sol\":3736:3762  candidates[indexCandidate] */\n      dup2\n      sload\n      dup2\n      lt\n      tag_124\n      jumpi\n      tag_125\n      tag_41\n      jump\t// in\n    tag_125:\n    tag_124:\n      swap1\n      0x00\n      mstore\n      keccak256(0x00, 0x20)\n      swap1\n      0x02\n      mul\n      add\n        /* \"contracts/Ballot/Ballot.sol\":3736:3773  candidates[indexCandidate].votesCount */\n      0x01\n      add\n      sload\n        /* \"contracts/Ballot/Ballot.sol\":3717:3773  winningVoteCount = candidates[indexCandidate].votesCount */\n      swap2\n      pop\n        /* \"contracts/Ballot/Ballot.sol\":3810:3824  indexCandidate */\n      dup1\n        /* \"contracts/Ballot/Ballot.sol\":3792:3824  winningProposal = indexCandidate */\n      swap4\n      pop\n        /* \"contracts/Ballot/Ballot.sol\":3851:3856  false */\n      0x00\n        /* \"contracts/Ballot/Ballot.sol\":3843:3856  isTie = false */\n      swap3\n      pop\n        /* \"contracts/Ballot/Ballot.sol\":3636:3988  if (candidates[indexCandidate].votesCount > winningVoteCount) {\r... */\n      jump(tag_127)\n    tag_123:\n        /* \"contracts/Ballot/Ballot.sol\":3923:3939  winningVoteCount */\n      dup2\n        /* \"contracts/Ballot/Ballot.sol\":3882:3892  candidates */\n      0x02\n        /* \"contracts/Ballot/Ballot.sol\":3893:3907  indexCandidate */\n      dup3\n        /* \"contracts/Ballot/Ballot.sol\":3882:3908  candidates[indexCandidate] */\n      dup2\n      sload\n      dup2\n      lt\n      tag_128\n      jumpi\n      tag_129\n      tag_41\n      jump\t// in\n    tag_129:\n    tag_128:\n      swap1\n      0x00\n      mstore\n      keccak256(0x00, 0x20)\n      swap1\n      0x02\n      mul\n      add\n        /* \"contracts/Ballot/Ballot.sol\":3882:3919  candidates[indexCandidate].votesCount */\n      0x01\n      add\n      sload\n        /* \"contracts/Ballot/Ballot.sol\":3882:3939  candidates[indexCandidate].votesCount == winningVoteCount */\n      eq\n        /* \"contracts/Ballot/Ballot.sol\":3878:3988  if (candidates[indexCandidate].votesCount == winningVoteCount) {\r... */\n      iszero\n      tag_131\n      jumpi\n        /* \"contracts/Ballot/Ballot.sol\":3968:3972  true */\n      0x01\n        /* \"contracts/Ballot/Ballot.sol\":3960:3972  isTie = true */\n      swap3\n      pop\n        /* \"contracts/Ballot/Ballot.sol\":3878:3988  if (candidates[indexCandidate].votesCount == winningVoteCount) {\r... */\n    tag_131:\n        /* \"contracts/Ballot/Ballot.sol\":3636:3988  if (candidates[indexCandidate].votesCount > winningVoteCount) {\r... */\n    tag_127:\n        /* \"contracts/Ballot/Ballot.sol\":3603:3619  indexCandidate++ */\n      dup1\n      dup1\n      tag_132\n      swap1\n      tag_52\n      jump\t// in\n    tag_132:\n      swap2\n      pop\n      pop\n        /* \"contracts/Ballot/Ballot.sol\":3537:3999  for (uint indexCandidate = 0; indexCandidate < candidates.length; indexCandidate++) {\r... */\n      jump(tag_117)\n    tag_118:\n      pop\n        /* \"contracts/Ballot/Ballot.sol\":3484:4006  {        \r... */\n      pop\n        /* \"contracts/Ballot/Ballot.sol\":3397:4006  function getWinningCandidate() private view returns (uint winningProposal, bool isTie) {        \r... */\n      swap1\n      swap2\n      jump\t// out\n        /* \"contracts/Ballot/Ballot.sol\":4430:4530  function getContractAddress() private view returns (address) {\r... */\n    tag_68:\n        /* \"contracts/Ballot/Ballot.sol\":4482:4489  address */\n      0x00\n        /* \"contracts/Ballot/Ballot.sol\":4517:4521  this */\n      address\n        /* \"contracts/Ballot/Ballot.sol\":4502:4522  return address(this) */\n      swap1\n      pop\n        /* \"contracts/Ballot/Ballot.sol\":4430:4530  function getContractAddress() private view returns (address) {\r... */\n      swap1\n      jump\t// out\n        /* \"contracts/Ballot/Ballot.sol\":1723:1934  function getTotalVotesCounterReachedRequire() private view {\r... */\n    tag_78:\n        /* \"contracts/Ballot/Ballot.sol\":1842:1850  maxVotes */\n      sload(0x04)\n        /* \"contracts/Ballot/Ballot.sol\":1822:1839  totalVotesCounter */\n      sload(0x03)\n        /* \"contracts/Ballot/Ballot.sol\":1822:1850  totalVotesCounter < maxVotes */\n      lt\n        /* \"contracts/Ballot/Ballot.sol\":1800:1926  require(\r... */\n      tag_135\n      jumpi\n      mload(0x40)\n      0x08c379a000000000000000000000000000000000000000000000000000000000\n      dup2\n      mstore\n      0x04\n      add\n      tag_136\n      swap1\n      tag_137\n      jump\t// in\n    tag_136:\n      mload(0x40)\n      dup1\n      swap2\n      sub\n      swap1\n      revert\n    tag_135:\n        /* \"contracts/Ballot/Ballot.sol\":1723:1934  function getTotalVotesCounterReachedRequire() private view {\r... */\n      jump\t// out\n        /* \"contracts/Ballot/Ballot.sol\":4538:4650  function areYouContractOwner() private view returns (bool) {\r... */\n    tag_80:\n        /* \"contracts/Ballot/Ballot.sol\":4591:4595  bool */\n      0x00\n        /* \"contracts/Ballot/Ballot.sol\":4629:4642  contractOwner */\n      dup1\n      0x00\n      swap1\n      sload\n      swap1\n      0x0100\n      exp\n      swap1\n      div\n      0xffffffffffffffffffffffffffffffffffffffff\n      and\n        /* \"contracts/Ballot/Ballot.sol\":4615:4642  msg.sender == contractOwner */\n      0xffffffffffffffffffffffffffffffffffffffff\n      and\n        /* \"contracts/Ballot/Ballot.sol\":4615:4625  msg.sender */\n      caller\n        /* \"contracts/Ballot/Ballot.sol\":4615:4642  msg.sender == contractOwner */\n      0xffffffffffffffffffffffffffffffffffffffff\n      and\n      eq\n        /* \"contracts/Ballot/Ballot.sol\":4608:4642  return msg.sender == contractOwner */\n      swap1\n      pop\n        /* \"contracts/Ballot/Ballot.sol\":4538:4650  function areYouContractOwner() private view returns (bool) {\r... */\n      swap1\n      jump\t// out\n        /* \"contracts/Ballot/Ballot.sol\":1526:1715  function getVoterVotedRequire(address voterAddress) private view {\r... */\n    tag_85:\n        /* \"contracts/Ballot/Ballot.sol\":1632:1659  getVoterVoted(voterAddress) */\n      tag_140\n        /* \"contracts/Ballot/Ballot.sol\":1646:1658  voterAddress */\n      dup2\n        /* \"contracts/Ballot/Ballot.sol\":1632:1645  getVoterVoted */\n      tag_141\n        /* \"contracts/Ballot/Ballot.sol\":1632:1659  getVoterVoted(voterAddress) */\n      jump\t// in\n    tag_140:\n        /* \"contracts/Ballot/Ballot.sol\":1631:1659  !getVoterVoted(voterAddress) */\n      iszero\n        /* \"contracts/Ballot/Ballot.sol\":1609:1707  require(\r... */\n      tag_142\n      jumpi\n      mload(0x40)\n      0x08c379a000000000000000000000000000000000000000000000000000000000\n      dup2\n      mstore\n      0x04\n      add\n      tag_143\n      swap1\n      tag_144\n      jump\t// in\n    tag_143:\n      mload(0x40)\n      dup1\n      swap2\n      sub\n      swap1\n      revert\n    tag_142:\n        /* \"contracts/Ballot/Ballot.sol\":1526:1715  function getVoterVotedRequire(address voterAddress) private view {\r... */\n      pop\n      jump\t// out\n        /* \"contracts/Ballot/Ballot.sol\":4658:4776  function areYouHaveRigthToVote() private view returns (bool) {\r... */\n    tag_90:\n        /* \"contracts/Ballot/Ballot.sol\":4713:4717  bool */\n      0x00\n        /* \"contracts/Ballot/Ballot.sol\":4737:4768  getVoterRigthToVote(msg.sender) */\n      tag_146\n        /* \"contracts/Ballot/Ballot.sol\":4757:4767  msg.sender */\n      caller\n        /* \"contracts/Ballot/Ballot.sol\":4737:4756  getVoterRigthToVote */\n      tag_147\n        /* \"contracts/Ballot/Ballot.sol\":4737:4768  getVoterRigthToVote(msg.sender) */\n      jump\t// in\n    tag_146:\n        /* \"contracts/Ballot/Ballot.sol\":4730:4768  return getVoterRigthToVote(msg.sender) */\n      swap1\n      pop\n        /* \"contracts/Ballot/Ballot.sol\":4658:4776  function areYouHaveRigthToVote() private view returns (bool) {\r... */\n      swap1\n      jump\t// out\n        /* \"contracts/Ballot/Ballot.sol\":5199:5366  function stringEqualTo(string memory s1, string memory s2) private pure returns (bool) {\r... */\n    tag_108:\n        /* \"contracts/Ballot/Ballot.sol\":5280:5284  bool */\n      0x00\n        /* \"contracts/Ballot/Ballot.sol\":5354:5356  s2 */\n      dup2\n        /* \"contracts/Ballot/Ballot.sol\":5343:5357  abi.encode(s2) */\n      add(0x20, mload(0x40))\n      tag_149\n      swap2\n      swap1\n      tag_150\n      jump\t// in\n    tag_149:\n      mload(0x40)\n      0x20\n      dup2\n      dup4\n      sub\n      sub\n      dup2\n      mstore\n      swap1\n      0x40\n      mstore\n        /* \"contracts/Ballot/Ballot.sol\":5333:5358  keccak256(abi.encode(s2)) */\n      dup1\n      mload\n      swap1\n      0x20\n      add\n      keccak256\n        /* \"contracts/Ballot/Ballot.sol\":5325:5327  s1 */\n      dup4\n        /* \"contracts/Ballot/Ballot.sol\":5314:5328  abi.encode(s1) */\n      add(0x20, mload(0x40))\n      tag_151\n      swap2\n      swap1\n      tag_150\n      jump\t// in\n    tag_151:\n      mload(0x40)\n      0x20\n      dup2\n      dup4\n      sub\n      sub\n      dup2\n      mstore\n      swap1\n      0x40\n      mstore\n        /* \"contracts/Ballot/Ballot.sol\":5304:5329  keccak256(abi.encode(s1)) */\n      dup1\n      mload\n      swap1\n      0x20\n      add\n      keccak256\n        /* \"contracts/Ballot/Ballot.sol\":5304:5358  keccak256(abi.encode(s1)) == keccak256(abi.encode(s2)) */\n      eq\n        /* \"contracts/Ballot/Ballot.sol\":5297:5358  return keccak256(abi.encode(s1)) == keccak256(abi.encode(s2)) */\n      swap1\n      pop\n        /* \"contracts/Ballot/Ballot.sol\":5199:5366  function stringEqualTo(string memory s1, string memory s2) private pure returns (bool) {\r... */\n      swap3\n      swap2\n      pop\n      pop\n      jump\t// out\n        /* \"contracts/Ballot/Ballot.sol\":5035:5163  function getVoterVoted(address voterAddress) private view returns (bool) {\r... */\n    tag_141:\n        /* \"contracts/Ballot/Ballot.sol\":5102:5106  bool */\n      0x00\n        /* \"contracts/Ballot/Ballot.sol\":5126:5132  voters */\n      0x01\n        /* \"contracts/Ballot/Ballot.sol\":5126:5146  voters[voterAddress] */\n      0x00\n        /* \"contracts/Ballot/Ballot.sol\":5133:5145  voterAddress */\n      dup4\n        /* \"contracts/Ballot/Ballot.sol\":5126:5146  voters[voterAddress] */\n      0xffffffffffffffffffffffffffffffffffffffff\n      and\n      0xffffffffffffffffffffffffffffffffffffffff\n      and\n      dup2\n      mstore\n      0x20\n      add\n      swap1\n      dup2\n      mstore\n      0x20\n      add\n      0x00\n      keccak256\n        /* \"contracts/Ballot/Ballot.sol\":5126:5155  voters[voterAddress].hasVoted */\n      0x00\n      add\n      0x01\n      swap1\n      sload\n      swap1\n      0x0100\n      exp\n      swap1\n      div\n      0xff\n      and\n        /* \"contracts/Ballot/Ballot.sol\":5119:5155  return voters[voterAddress].hasVoted */\n      swap1\n      pop\n        /* \"contracts/Ballot/Ballot.sol\":5035:5163  function getVoterVoted(address voterAddress) private view returns (bool) {\r... */\n      swap2\n      swap1\n      pop\n      jump\t// out\n        /* \"contracts/Ballot/Ballot.sol\":4784:4917  function getVoterRigthToVote(address voterAddress) private view returns (bool) {\r... */\n    tag_147:\n        /* \"contracts/Ballot/Ballot.sol\":4857:4861  bool */\n      0x00\n        /* \"contracts/Ballot/Ballot.sol\":4881:4887  voters */\n      0x01\n        /* \"contracts/Ballot/Ballot.sol\":4881:4901  voters[voterAddress] */\n      0x00\n        /* \"contracts/Ballot/Ballot.sol\":4888:4900  voterAddress */\n      dup4\n        /* \"contracts/Ballot/Ballot.sol\":4881:4901  voters[voterAddress] */\n      0xffffffffffffffffffffffffffffffffffffffff\n      and\n      0xffffffffffffffffffffffffffffffffffffffff\n      and\n      dup2\n      mstore\n      0x20\n      add\n      swap1\n      dup2\n      mstore\n      0x20\n      add\n      0x00\n      keccak256\n        /* \"contracts/Ballot/Ballot.sol\":4881:4909  voters[voterAddress].canVote */\n      0x00\n      add\n      0x00\n      swap1\n      sload\n      swap1\n      0x0100\n      exp\n      swap1\n      div\n      0xff\n      and\n        /* \"contracts/Ballot/Ballot.sol\":4874:4909  return voters[voterAddress].canVote */\n      swap1\n      pop\n        /* \"contracts/Ballot/Ballot.sol\":4784:4917  function getVoterRigthToVote(address voterAddress) private view returns (bool) {\r... */\n      swap2\n      swap1\n      pop\n      jump\t// out\n        /* \"#utility.yul\":7:419   */\n    tag_155:\n        /* \"#utility.yul\":85:90   */\n      0x00\n        /* \"#utility.yul\":110:176   */\n      tag_157\n        /* \"#utility.yul\":126:175   */\n      tag_158\n        /* \"#utility.yul\":168:174   */\n      dup5\n        /* \"#utility.yul\":126:175   */\n      tag_159\n      jump\t// in\n    tag_158:\n        /* \"#utility.yul\":110:176   */\n      tag_160\n      jump\t// in\n    tag_157:\n        /* \"#utility.yul\":101:176   */\n      swap1\n      pop\n        /* \"#utility.yul\":199:205   */\n      dup3\n        /* \"#utility.yul\":192:197   */\n      dup2\n        /* \"#utility.yul\":185:206   */\n      mstore\n        /* \"#utility.yul\":237:241   */\n      0x20\n        /* \"#utility.yul\":230:235   */\n      dup2\n        /* \"#utility.yul\":226:242   */\n      add\n        /* \"#utility.yul\":275:278   */\n      dup5\n        /* \"#utility.yul\":266:272   */\n      dup5\n        /* \"#utility.yul\":261:264   */\n      dup5\n        /* \"#utility.yul\":257:273   */\n      add\n        /* \"#utility.yul\":254:279   */\n      gt\n        /* \"#utility.yul\":251:363   */\n      iszero\n      tag_161\n      jumpi\n        /* \"#utility.yul\":282:361   */\n      tag_162\n      tag_163\n      jump\t// in\n    tag_162:\n        /* \"#utility.yul\":251:363   */\n    tag_161:\n        /* \"#utility.yul\":372:413   */\n      tag_164\n        /* \"#utility.yul\":406:412   */\n      dup5\n        /* \"#utility.yul\":401:404   */\n      dup3\n        /* \"#utility.yul\":396:399   */\n      dup6\n        /* \"#utility.yul\":372:413   */\n      tag_165\n      jump\t// in\n    tag_164:\n        /* \"#utility.yul\":91:419   */\n      pop\n        /* \"#utility.yul\":7:419   */\n      swap4\n      swap3\n      pop\n      pop\n      pop\n      jump\t// out\n        /* \"#utility.yul\":425:564   */\n    tag_166:\n        /* \"#utility.yul\":471:476   */\n      0x00\n        /* \"#utility.yul\":509:515   */\n      dup2\n        /* \"#utility.yul\":496:516   */\n      calldataload\n        /* \"#utility.yul\":487:516   */\n      swap1\n      pop\n        /* \"#utility.yul\":525:558   */\n      tag_168\n        /* \"#utility.yul\":552:557   */\n      dup2\n        /* \"#utility.yul\":525:558   */\n      tag_169\n      jump\t// in\n    tag_168:\n        /* \"#utility.yul\":425:564   */\n      swap3\n      swap2\n      pop\n      pop\n      jump\t// out\n        /* \"#utility.yul\":584:924   */\n    tag_170:\n        /* \"#utility.yul\":640:645   */\n      0x00\n        /* \"#utility.yul\":689:692   */\n      dup3\n        /* \"#utility.yul\":682:686   */\n      0x1f\n        /* \"#utility.yul\":674:680   */\n      dup4\n        /* \"#utility.yul\":670:687   */\n      add\n        /* \"#utility.yul\":666:693   */\n      slt\n        /* \"#utility.yul\":656:778   */\n      tag_172\n      jumpi\n        /* \"#utility.yul\":697:776   */\n      tag_173\n      tag_174\n      jump\t// in\n    tag_173:\n        /* \"#utility.yul\":656:778   */\n    tag_172:\n        /* \"#utility.yul\":814:820   */\n      dup2\n        /* \"#utility.yul\":801:821   */\n      calldataload\n        /* \"#utility.yul\":839:918   */\n      tag_175\n        /* \"#utility.yul\":914:917   */\n      dup5\n        /* \"#utility.yul\":906:912   */\n      dup3\n        /* \"#utility.yul\":899:903   */\n      0x20\n        /* \"#utility.yul\":891:897   */\n      dup7\n        /* \"#utility.yul\":887:904   */\n      add\n        /* \"#utility.yul\":839:918   */\n      tag_155\n      jump\t// in\n    tag_175:\n        /* \"#utility.yul\":830:918   */\n      swap2\n      pop\n        /* \"#utility.yul\":646:924   */\n      pop\n        /* \"#utility.yul\":584:924   */\n      swap3\n      swap2\n      pop\n      pop\n      jump\t// out\n        /* \"#utility.yul\":930:1069   */\n    tag_176:\n        /* \"#utility.yul\":976:981   */\n      0x00\n        /* \"#utility.yul\":1014:1020   */\n      dup2\n        /* \"#utility.yul\":1001:1021   */\n      calldataload\n        /* \"#utility.yul\":992:1021   */\n      swap1\n      pop\n        /* \"#utility.yul\":1030:1063   */\n      tag_178\n        /* \"#utility.yul\":1057:1062   */\n      dup2\n        /* \"#utility.yul\":1030:1063   */\n      tag_179\n      jump\t// in\n    tag_178:\n        /* \"#utility.yul\":930:1069   */\n      swap3\n      swap2\n      pop\n      pop\n      jump\t// out\n        /* \"#utility.yul\":1075:1404   */\n    tag_24:\n        /* \"#utility.yul\":1134:1140   */\n      0x00\n        /* \"#utility.yul\":1183:1185   */\n      0x20\n        /* \"#utility.yul\":1171:1180   */\n      dup3\n        /* \"#utility.yul\":1162:1169   */\n      dup5\n        /* \"#utility.yul\":1158:1181   */\n      sub\n        /* \"#utility.yul\":1154:1186   */\n      slt\n        /* \"#utility.yul\":1151:1270   */\n      iszero\n      tag_181\n      jumpi\n        /* \"#utility.yul\":1189:1268   */\n      tag_182\n      tag_183\n      jump\t// in\n    tag_182:\n        /* \"#utility.yul\":1151:1270   */\n    tag_181:\n        /* \"#utility.yul\":1309:1310   */\n      0x00\n        /* \"#utility.yul\":1334:1387   */\n      tag_184\n        /* \"#utility.yul\":1379:1386   */\n      dup5\n        /* \"#utility.yul\":1370:1376   */\n      dup3\n        /* \"#utility.yul\":1359:1368   */\n      dup6\n        /* \"#utility.yul\":1355:1377   */\n      add\n        /* \"#utility.yul\":1334:1387   */\n      tag_166\n      jump\t// in\n    tag_184:\n        /* \"#utility.yul\":1324:1387   */\n      swap2\n      pop\n        /* \"#utility.yul\":1280:1397   */\n      pop\n        /* \"#utility.yul\":1075:1404   */\n      swap3\n      swap2\n      pop\n      pop\n      jump\t// out\n        /* \"#utility.yul\":1410:1919   */\n    tag_28:\n        /* \"#utility.yul\":1479:1485   */\n      0x00\n        /* \"#utility.yul\":1528:1530   */\n      0x20\n        /* \"#utility.yul\":1516:1525   */\n      dup3\n        /* \"#utility.yul\":1507:1514   */\n      dup5\n        /* \"#utility.yul\":1503:1526   */\n      sub\n        /* \"#utility.yul\":1499:1531   */\n      slt\n        /* \"#utility.yul\":1496:1615   */\n      iszero\n      tag_186\n      jumpi\n        /* \"#utility.yul\":1534:1613   */\n      tag_187\n      tag_183\n      jump\t// in\n    tag_187:\n        /* \"#utility.yul\":1496:1615   */\n    tag_186:\n        /* \"#utility.yul\":1682:1683   */\n      0x00\n        /* \"#utility.yul\":1671:1680   */\n      dup3\n        /* \"#utility.yul\":1667:1684   */\n      add\n        /* \"#utility.yul\":1654:1685   */\n      calldataload\n        /* \"#utility.yul\":1712:1730   */\n      0xffffffffffffffff\n        /* \"#utility.yul\":1704:1710   */\n      dup2\n        /* \"#utility.yul\":1701:1731   */\n      gt\n        /* \"#utility.yul\":1698:1815   */\n      iszero\n      tag_188\n      jumpi\n        /* \"#utility.yul\":1734:1813   */\n      tag_189\n      tag_190\n      jump\t// in\n    tag_189:\n        /* \"#utility.yul\":1698:1815   */\n    tag_188:\n        /* \"#utility.yul\":1839:1902   */\n      tag_191\n        /* \"#utility.yul\":1894:1901   */\n      dup5\n        /* \"#utility.yul\":1885:1891   */\n      dup3\n        /* \"#utility.yul\":1874:1883   */\n      dup6\n        /* \"#utility.yul\":1870:1892   */\n      add\n        /* \"#utility.yul\":1839:1902   */\n      tag_170\n      jump\t// in\n    tag_191:\n        /* \"#utility.yul\":1829:1902   */\n      swap2\n      pop\n        /* \"#utility.yul\":1625:1912   */\n      pop\n        /* \"#utility.yul\":1410:1919   */\n      swap3\n      swap2\n      pop\n      pop\n      jump\t// out\n        /* \"#utility.yul\":1925:2254   */\n    tag_18:\n        /* \"#utility.yul\":1984:1990   */\n      0x00\n        /* \"#utility.yul\":2033:2035   */\n      0x20\n        /* \"#utility.yul\":2021:2030   */\n      dup3\n        /* \"#utility.yul\":2012:2019   */\n      dup5\n        /* \"#utility.yul\":2008:2031   */\n      sub\n        /* \"#utility.yul\":2004:2036   */\n      slt\n        /* \"#utility.yul\":2001:2120   */\n      iszero\n      tag_193\n      jumpi\n        /* \"#utility.yul\":2039:2118   */\n      tag_194\n      tag_183\n      jump\t// in\n    tag_194:\n        /* \"#utility.yul\":2001:2120   */\n    tag_193:\n        /* \"#utility.yul\":2159:2160   */\n      0x00\n        /* \"#utility.yul\":2184:2237   */\n      tag_195\n        /* \"#utility.yul\":2229:2236   */\n      dup5\n        /* \"#utility.yul\":2220:2226   */\n      dup3\n        /* \"#utility.yul\":2209:2218   */\n      dup6\n        /* \"#utility.yul\":2205:2227   */\n      add\n        /* \"#utility.yul\":2184:2237   */\n      tag_176\n      jump\t// in\n    tag_195:\n        /* \"#utility.yul\":2174:2237   */\n      swap2\n      pop\n        /* \"#utility.yul\":2130:2247   */\n      pop\n        /* \"#utility.yul\":1925:2254   */\n      swap3\n      swap2\n      pop\n      pop\n      jump\t// out\n        /* \"#utility.yul\":2260:2456   */\n    tag_196:\n        /* \"#utility.yul\":2349:2359   */\n      0x00\n        /* \"#utility.yul\":2384:2450   */\n      tag_198\n        /* \"#utility.yul\":2446:2449   */\n      dup4\n        /* \"#utility.yul\":2438:2444   */\n      dup4\n        /* \"#utility.yul\":2384:2450   */\n      tag_199\n      jump\t// in\n    tag_198:\n        /* \"#utility.yul\":2370:2450   */\n      swap1\n      pop\n        /* \"#utility.yul\":2260:2456   */\n      swap3\n      swap2\n      pop\n      pop\n      jump\t// out\n        /* \"#utility.yul\":2462:2580   */\n    tag_200:\n        /* \"#utility.yul\":2549:2573   */\n      tag_202\n        /* \"#utility.yul\":2567:2572   */\n      dup2\n        /* \"#utility.yul\":2549:2573   */\n      tag_203\n      jump\t// in\n    tag_202:\n        /* \"#utility.yul\":2544:2547   */\n      dup3\n        /* \"#utility.yul\":2537:2574   */\n      mstore\n        /* \"#utility.yul\":2462:2580   */\n      pop\n      pop\n      jump\t// out\n        /* \"#utility.yul\":2614:3605   */\n    tag_204:\n        /* \"#utility.yul\":2753:2756   */\n      0x00\n        /* \"#utility.yul\":2782:2846   */\n      tag_206\n        /* \"#utility.yul\":2840:2845   */\n      dup3\n        /* \"#utility.yul\":2782:2846   */\n      tag_207\n      jump\t// in\n    tag_206:\n        /* \"#utility.yul\":2862:2958   */\n      tag_208\n        /* \"#utility.yul\":2951:2957   */\n      dup2\n        /* \"#utility.yul\":2946:2949   */\n      dup6\n        /* \"#utility.yul\":2862:2958   */\n      tag_209\n      jump\t// in\n    tag_208:\n        /* \"#utility.yul\":2855:2958   */\n      swap4\n      pop\n        /* \"#utility.yul\":2984:2987   */\n      dup4\n        /* \"#utility.yul\":3029:3033   */\n      0x20\n        /* \"#utility.yul\":3021:3027   */\n      dup3\n        /* \"#utility.yul\":3017:3034   */\n      mul\n        /* \"#utility.yul\":3012:3015   */\n      dup6\n        /* \"#utility.yul\":3008:3035   */\n      add\n        /* \"#utility.yul\":3059:3125   */\n      tag_210\n        /* \"#utility.yul\":3119:3124   */\n      dup6\n        /* \"#utility.yul\":3059:3125   */\n      tag_211\n      jump\t// in\n    tag_210:\n        /* \"#utility.yul\":3148:3155   */\n      dup1\n        /* \"#utility.yul\":3179:3180   */\n      0x00\n        /* \"#utility.yul\":3164:3560   */\n    tag_212:\n        /* \"#utility.yul\":3189:3195   */\n      dup6\n        /* \"#utility.yul\":3186:3187   */\n      dup2\n        /* \"#utility.yul\":3183:3196   */\n      lt\n        /* \"#utility.yul\":3164:3560   */\n      iszero\n      tag_214\n      jumpi\n        /* \"#utility.yul\":3260:3269   */\n      dup5\n        /* \"#utility.yul\":3254:3258   */\n      dup5\n        /* \"#utility.yul\":3250:3270   */\n      sub\n        /* \"#utility.yul\":3245:3248   */\n      dup10\n        /* \"#utility.yul\":3238:3271   */\n      mstore\n        /* \"#utility.yul\":3311:3317   */\n      dup2\n        /* \"#utility.yul\":3305:3318   */\n      mload\n        /* \"#utility.yul\":3339:3423   */\n      tag_215\n        /* \"#utility.yul\":3418:3422   */\n      dup6\n        /* \"#utility.yul\":3403:3416   */\n      dup3\n        /* \"#utility.yul\":3339:3423   */\n      tag_196\n      jump\t// in\n    tag_215:\n        /* \"#utility.yul\":3331:3423   */\n      swap5\n      pop\n        /* \"#utility.yul\":3446:3516   */\n      tag_216\n        /* \"#utility.yul\":3509:3515   */\n      dup4\n        /* \"#utility.yul\":3446:3516   */\n      tag_217\n      jump\t// in\n    tag_216:\n        /* \"#utility.yul\":3436:3516   */\n      swap3\n      pop\n        /* \"#utility.yul\":3545:3549   */\n      0x20\n        /* \"#utility.yul\":3540:3543   */\n      dup11\n        /* \"#utility.yul\":3536:3550   */\n      add\n        /* \"#utility.yul\":3529:3550   */\n      swap10\n      pop\n        /* \"#utility.yul\":3224:3560   */\n      pop\n        /* \"#utility.yul\":3211:3212   */\n      0x01\n        /* \"#utility.yul\":3208:3209   */\n      dup2\n        /* \"#utility.yul\":3204:3213   */\n      add\n        /* \"#utility.yul\":3199:3213   */\n      swap1\n      pop\n        /* \"#utility.yul\":3164:3560   */\n      jump(tag_212)\n    tag_214:\n        /* \"#utility.yul\":3168:3182   */\n      pop\n        /* \"#utility.yul\":3576:3580   */\n      dup3\n        /* \"#utility.yul\":3569:3580   */\n      swap8\n      pop\n        /* \"#utility.yul\":3596:3599   */\n      dup8\n        /* \"#utility.yul\":3589:3599   */\n      swap6\n      pop\n        /* \"#utility.yul\":2758:3605   */\n      pop\n      pop\n      pop\n      pop\n      pop\n        /* \"#utility.yul\":2614:3605   */\n      swap3\n      swap2\n      pop\n      pop\n      jump\t// out\n        /* \"#utility.yul\":3611:3955   */\n    tag_199:\n        /* \"#utility.yul\":3689:3692   */\n      0x00\n        /* \"#utility.yul\":3717:3756   */\n      tag_219\n        /* \"#utility.yul\":3750:3755   */\n      dup3\n        /* \"#utility.yul\":3717:3756   */\n      tag_220\n      jump\t// in\n    tag_219:\n        /* \"#utility.yul\":3772:3833   */\n      tag_221\n        /* \"#utility.yul\":3826:3832   */\n      dup2\n        /* \"#utility.yul\":3821:3824   */\n      dup6\n        /* \"#utility.yul\":3772:3833   */\n      tag_222\n      jump\t// in\n    tag_221:\n        /* \"#utility.yul\":3765:3833   */\n      swap4\n      pop\n        /* \"#utility.yul\":3842:3894   */\n      tag_223\n        /* \"#utility.yul\":3887:3893   */\n      dup2\n        /* \"#utility.yul\":3882:3885   */\n      dup6\n        /* \"#utility.yul\":3875:3879   */\n      0x20\n        /* \"#utility.yul\":3868:3873   */\n      dup7\n        /* \"#utility.yul\":3864:3880   */\n      add\n        /* \"#utility.yul\":3842:3894   */\n      tag_224\n      jump\t// in\n    tag_223:\n        /* \"#utility.yul\":3919:3948   */\n      tag_225\n        /* \"#utility.yul\":3941:3947   */\n      dup2\n        /* \"#utility.yul\":3919:3948   */\n      tag_226\n      jump\t// in\n    tag_225:\n        /* \"#utility.yul\":3914:3917   */\n      dup5\n        /* \"#utility.yul\":3910:3949   */\n      add\n        /* \"#utility.yul\":3903:3949   */\n      swap2\n      pop\n        /* \"#utility.yul\":3693:3955   */\n      pop\n        /* \"#utility.yul\":3611:3955   */\n      swap3\n      swap2\n      pop\n      pop\n      jump\t// out\n        /* \"#utility.yul\":3961:4325   */\n    tag_227:\n        /* \"#utility.yul\":4049:4052   */\n      0x00\n        /* \"#utility.yul\":4077:4116   */\n      tag_229\n        /* \"#utility.yul\":4110:4115   */\n      dup3\n        /* \"#utility.yul\":4077:4116   */\n      tag_220\n      jump\t// in\n    tag_229:\n        /* \"#utility.yul\":4132:4203   */\n      tag_230\n        /* \"#utility.yul\":4196:4202   */\n      dup2\n        /* \"#utility.yul\":4191:4194   */\n      dup6\n        /* \"#utility.yul\":4132:4203   */\n      tag_231\n      jump\t// in\n    tag_230:\n        /* \"#utility.yul\":4125:4203   */\n      swap4\n      pop\n        /* \"#utility.yul\":4212:4264   */\n      tag_232\n        /* \"#utility.yul\":4257:4263   */\n      dup2\n        /* \"#utility.yul\":4252:4255   */\n      dup6\n        /* \"#utility.yul\":4245:4249   */\n      0x20\n        /* \"#utility.yul\":4238:4243   */\n      dup7\n        /* \"#utility.yul\":4234:4250   */\n      add\n        /* \"#utility.yul\":4212:4264   */\n      tag_224\n      jump\t// in\n    tag_232:\n        /* \"#utility.yul\":4289:4318   */\n      tag_233\n        /* \"#utility.yul\":4311:4317   */\n      dup2\n        /* \"#utility.yul\":4289:4318   */\n      tag_226\n      jump\t// in\n    tag_233:\n        /* \"#utility.yul\":4284:4287   */\n      dup5\n        /* \"#utility.yul\":4280:4319   */\n      add\n        /* \"#utility.yul\":4273:4319   */\n      swap2\n      pop\n        /* \"#utility.yul\":4053:4325   */\n      pop\n        /* \"#utility.yul\":3961:4325   */\n      swap3\n      swap2\n      pop\n      pop\n      jump\t// out\n        /* \"#utility.yul\":4331:4697   */\n    tag_234:\n        /* \"#utility.yul\":4473:4476   */\n      0x00\n        /* \"#utility.yul\":4494:4561   */\n      tag_236\n        /* \"#utility.yul\":4558:4560   */\n      0x2f\n        /* \"#utility.yul\":4553:4556   */\n      dup4\n        /* \"#utility.yul\":4494:4561   */\n      tag_231\n      jump\t// in\n    tag_236:\n        /* \"#utility.yul\":4487:4561   */\n      swap2\n      pop\n        /* \"#utility.yul\":4570:4663   */\n      tag_237\n        /* \"#utility.yul\":4659:4662   */\n      dup3\n        /* \"#utility.yul\":4570:4663   */\n      tag_238\n      jump\t// in\n    tag_237:\n        /* \"#utility.yul\":4688:4690   */\n      0x40\n        /* \"#utility.yul\":4683:4686   */\n      dup3\n        /* \"#utility.yul\":4679:4691   */\n      add\n        /* \"#utility.yul\":4672:4691   */\n      swap1\n      pop\n        /* \"#utility.yul\":4331:4697   */\n      swap2\n      swap1\n      pop\n      jump\t// out\n        /* \"#utility.yul\":4703:5069   */\n    tag_239:\n        /* \"#utility.yul\":4845:4848   */\n      0x00\n        /* \"#utility.yul\":4866:4933   */\n      tag_241\n        /* \"#utility.yul\":4930:4932   */\n      0x2f\n        /* \"#utility.yul\":4925:4928   */\n      dup4\n        /* \"#utility.yul\":4866:4933   */\n      tag_231\n      jump\t// in\n    tag_241:\n        /* \"#utility.yul\":4859:4933   */\n      swap2\n      pop\n        /* \"#utility.yul\":4942:5035   */\n      tag_242\n        /* \"#utility.yul\":5031:5034   */\n      dup3\n        /* \"#utility.yul\":4942:5035   */\n      tag_243\n      jump\t// in\n    tag_242:\n        /* \"#utility.yul\":5060:5062   */\n      0x40\n        /* \"#utility.yul\":5055:5058   */\n      dup3\n        /* \"#utility.yul\":5051:5063   */\n      add\n        /* \"#utility.yul\":5044:5063   */\n      swap1\n      pop\n        /* \"#utility.yul\":4703:5069   */\n      swap2\n      swap1\n      pop\n      jump\t// out\n        /* \"#utility.yul\":5075:5441   */\n    tag_244:\n        /* \"#utility.yul\":5217:5220   */\n      0x00\n        /* \"#utility.yul\":5238:5305   */\n      tag_246\n        /* \"#utility.yul\":5302:5304   */\n      0x14\n        /* \"#utility.yul\":5297:5300   */\n      dup4\n        /* \"#utility.yul\":5238:5305   */\n      tag_231\n      jump\t// in\n    tag_246:\n        /* \"#utility.yul\":5231:5305   */\n      swap2\n      pop\n        /* \"#utility.yul\":5314:5407   */\n      tag_247\n        /* \"#utility.yul\":5403:5406   */\n      dup3\n        /* \"#utility.yul\":5314:5407   */\n      tag_248\n      jump\t// in\n    tag_247:\n        /* \"#utility.yul\":5432:5434   */\n      0x20\n        /* \"#utility.yul\":5427:5430   */\n      dup3\n        /* \"#utility.yul\":5423:5435   */\n      add\n        /* \"#utility.yul\":5416:5435   */\n      swap1\n      pop\n        /* \"#utility.yul\":5075:5441   */\n      swap2\n      swap1\n      pop\n      jump\t// out\n        /* \"#utility.yul\":5447:5813   */\n    tag_249:\n        /* \"#utility.yul\":5589:5592   */\n      0x00\n        /* \"#utility.yul\":5610:5677   */\n      tag_251\n        /* \"#utility.yul\":5674:5676   */\n      0x1a\n        /* \"#utility.yul\":5669:5672   */\n      dup4\n        /* \"#utility.yul\":5610:5677   */\n      tag_231\n      jump\t// in\n    tag_251:\n        /* \"#utility.yul\":5603:5677   */\n      swap2\n      pop\n        /* \"#utility.yul\":5686:5779   */\n      tag_252\n        /* \"#utility.yul\":5775:5778   */\n      dup3\n        /* \"#utility.yul\":5686:5779   */\n      tag_253\n      jump\t// in\n    tag_252:\n        /* \"#utility.yul\":5804:5806   */\n      0x20\n        /* \"#utility.yul\":5799:5802   */\n      dup3\n        /* \"#utility.yul\":5795:5807   */\n      add\n        /* \"#utility.yul\":5788:5807   */\n      swap1\n      pop\n        /* \"#utility.yul\":5447:5813   */\n      swap2\n      swap1\n      pop\n      jump\t// out\n        /* \"#utility.yul\":5819:6185   */\n    tag_254:\n        /* \"#utility.yul\":5961:5964   */\n      0x00\n        /* \"#utility.yul\":5982:6049   */\n      tag_256\n        /* \"#utility.yul\":6046:6048   */\n      0x4c\n        /* \"#utility.yul\":6041:6044   */\n      dup4\n        /* \"#utility.yul\":5982:6049   */\n      tag_231\n      jump\t// in\n    tag_256:\n        /* \"#utility.yul\":5975:6049   */\n      swap2\n      pop\n        /* \"#utility.yul\":6058:6151   */\n      tag_257\n        /* \"#utility.yul\":6147:6150   */\n      dup3\n        /* \"#utility.yul\":6058:6151   */\n      tag_258\n      jump\t// in\n    tag_257:\n        /* \"#utility.yul\":6176:6178   */\n      0x60\n        /* \"#utility.yul\":6171:6174   */\n      dup3\n        /* \"#utility.yul\":6167:6179   */\n      add\n        /* \"#utility.yul\":6160:6179   */\n      swap1\n      pop\n        /* \"#utility.yul\":5819:6185   */\n      swap2\n      swap1\n      pop\n      jump\t// out\n        /* \"#utility.yul\":6191:6309   */\n    tag_259:\n        /* \"#utility.yul\":6278:6302   */\n      tag_261\n        /* \"#utility.yul\":6296:6301   */\n      dup2\n        /* \"#utility.yul\":6278:6302   */\n      tag_262\n      jump\t// in\n    tag_261:\n        /* \"#utility.yul\":6273:6276   */\n      dup3\n        /* \"#utility.yul\":6266:6303   */\n      mstore\n        /* \"#utility.yul\":6191:6309   */\n      pop\n      pop\n      jump\t// out\n        /* \"#utility.yul\":6315:6728   */\n    tag_11:\n        /* \"#utility.yul\":6478:6482   */\n      0x00\n        /* \"#utility.yul\":6516:6518   */\n      0x20\n        /* \"#utility.yul\":6505:6514   */\n      dup3\n        /* \"#utility.yul\":6501:6519   */\n      add\n        /* \"#utility.yul\":6493:6519   */\n      swap1\n      pop\n        /* \"#utility.yul\":6565:6574   */\n      dup2\n        /* \"#utility.yul\":6559:6563   */\n      dup2\n        /* \"#utility.yul\":6555:6575   */\n      sub\n        /* \"#utility.yul\":6551:6552   */\n      0x00\n        /* \"#utility.yul\":6540:6549   */\n      dup4\n        /* \"#utility.yul\":6536:6553   */\n      add\n        /* \"#utility.yul\":6529:6576   */\n      mstore\n        /* \"#utility.yul\":6593:6721   */\n      tag_264\n        /* \"#utility.yul\":6716:6720   */\n      dup2\n        /* \"#utility.yul\":6707:6713   */\n      dup5\n        /* \"#utility.yul\":6593:6721   */\n      tag_204\n      jump\t// in\n    tag_264:\n        /* \"#utility.yul\":6585:6721   */\n      swap1\n      pop\n        /* \"#utility.yul\":6315:6728   */\n      swap3\n      swap2\n      pop\n      pop\n      jump\t// out\n        /* \"#utility.yul\":6734:7047   */\n    tag_150:\n        /* \"#utility.yul\":6847:6851   */\n      0x00\n        /* \"#utility.yul\":6885:6887   */\n      0x20\n        /* \"#utility.yul\":6874:6883   */\n      dup3\n        /* \"#utility.yul\":6870:6888   */\n      add\n        /* \"#utility.yul\":6862:6888   */\n      swap1\n      pop\n        /* \"#utility.yul\":6934:6943   */\n      dup2\n        /* \"#utility.yul\":6928:6932   */\n      dup2\n        /* \"#utility.yul\":6924:6944   */\n      sub\n        /* \"#utility.yul\":6920:6921   */\n      0x00\n        /* \"#utility.yul\":6909:6918   */\n      dup4\n        /* \"#utility.yul\":6905:6922   */\n      add\n        /* \"#utility.yul\":6898:6945   */\n      mstore\n        /* \"#utility.yul\":6962:7040   */\n      tag_266\n        /* \"#utility.yul\":7035:7039   */\n      dup2\n        /* \"#utility.yul\":7026:7032   */\n      dup5\n        /* \"#utility.yul\":6962:7040   */\n      tag_227\n      jump\t// in\n    tag_266:\n        /* \"#utility.yul\":6954:7040   */\n      swap1\n      pop\n        /* \"#utility.yul\":6734:7047   */\n      swap3\n      swap2\n      pop\n      pop\n      jump\t// out\n        /* \"#utility.yul\":7053:7476   */\n    tag_15:\n        /* \"#utility.yul\":7194:7198   */\n      0x00\n        /* \"#utility.yul\":7232:7234   */\n      0x40\n        /* \"#utility.yul\":7221:7230   */\n      dup3\n        /* \"#utility.yul\":7217:7235   */\n      add\n        /* \"#utility.yul\":7209:7235   */\n      swap1\n      pop\n        /* \"#utility.yul\":7281:7290   */\n      dup2\n        /* \"#utility.yul\":7275:7279   */\n      dup2\n        /* \"#utility.yul\":7271:7291   */\n      sub\n        /* \"#utility.yul\":7267:7268   */\n      0x00\n        /* \"#utility.yul\":7256:7265   */\n      dup4\n        /* \"#utility.yul\":7252:7269   */\n      add\n        /* \"#utility.yul\":7245:7292   */\n      mstore\n        /* \"#utility.yul\":7309:7387   */\n      tag_268\n        /* \"#utility.yul\":7382:7386   */\n      dup2\n        /* \"#utility.yul\":7373:7379   */\n      dup6\n        /* \"#utility.yul\":7309:7387   */\n      tag_227\n      jump\t// in\n    tag_268:\n        /* \"#utility.yul\":7301:7387   */\n      swap1\n      pop\n        /* \"#utility.yul\":7397:7469   */\n      tag_269\n        /* \"#utility.yul\":7465:7467   */\n      0x20\n        /* \"#utility.yul\":7454:7463   */\n      dup4\n        /* \"#utility.yul\":7450:7468   */\n      add\n        /* \"#utility.yul\":7441:7447   */\n      dup5\n        /* \"#utility.yul\":7397:7469   */\n      tag_200\n      jump\t// in\n    tag_269:\n        /* \"#utility.yul\":7053:7476   */\n      swap4\n      swap3\n      pop\n      pop\n      pop\n      jump\t// out\n        /* \"#utility.yul\":7482:7905   */\n    tag_21:\n        /* \"#utility.yul\":7623:7627   */\n      0x00\n        /* \"#utility.yul\":7661:7663   */\n      0x40\n        /* \"#utility.yul\":7650:7659   */\n      dup3\n        /* \"#utility.yul\":7646:7664   */\n      add\n        /* \"#utility.yul\":7638:7664   */\n      swap1\n      pop\n        /* \"#utility.yul\":7710:7719   */\n      dup2\n        /* \"#utility.yul\":7704:7708   */\n      dup2\n        /* \"#utility.yul\":7700:7720   */\n      sub\n        /* \"#utility.yul\":7696:7697   */\n      0x00\n        /* \"#utility.yul\":7685:7694   */\n      dup4\n        /* \"#utility.yul\":7681:7698   */\n      add\n        /* \"#utility.yul\":7674:7721   */\n      mstore\n        /* \"#utility.yul\":7738:7816   */\n      tag_271\n        /* \"#utility.yul\":7811:7815   */\n      dup2\n        /* \"#utility.yul\":7802:7808   */\n      dup6\n        /* \"#utility.yul\":7738:7816   */\n      tag_227\n      jump\t// in\n    tag_271:\n        /* \"#utility.yul\":7730:7816   */\n      swap1\n      pop\n        /* \"#utility.yul\":7826:7898   */\n      tag_272\n        /* \"#utility.yul\":7894:7896   */\n      0x20\n        /* \"#utility.yul\":7883:7892   */\n      dup4\n        /* \"#utility.yul\":7879:7897   */\n      add\n        /* \"#utility.yul\":7870:7876   */\n      dup5\n        /* \"#utility.yul\":7826:7898   */\n      tag_259\n      jump\t// in\n    tag_272:\n        /* \"#utility.yul\":7482:7905   */\n      swap4\n      swap3\n      pop\n      pop\n      pop\n      jump\t// out\n        /* \"#utility.yul\":7911:8330   */\n    tag_137:\n        /* \"#utility.yul\":8077:8081   */\n      0x00\n        /* \"#utility.yul\":8115:8117   */\n      0x20\n        /* \"#utility.yul\":8104:8113   */\n      dup3\n        /* \"#utility.yul\":8100:8118   */\n      add\n        /* \"#utility.yul\":8092:8118   */\n      swap1\n      pop\n        /* \"#utility.yul\":8164:8173   */\n      dup2\n        /* \"#utility.yul\":8158:8162   */\n      dup2\n        /* \"#utility.yul\":8154:8174   */\n      sub\n        /* \"#utility.yul\":8150:8151   */\n      0x00\n        /* \"#utility.yul\":8139:8148   */\n      dup4\n        /* \"#utility.yul\":8135:8152   */\n      add\n        /* \"#utility.yul\":8128:8175   */\n      mstore\n        /* \"#utility.yul\":8192:8323   */\n      tag_274\n        /* \"#utility.yul\":8318:8322   */\n      dup2\n        /* \"#utility.yul\":8192:8323   */\n      tag_234\n      jump\t// in\n    tag_274:\n        /* \"#utility.yul\":8184:8323   */\n      swap1\n      pop\n        /* \"#utility.yul\":7911:8330   */\n      swap2\n      swap1\n      pop\n      jump\t// out\n        /* \"#utility.yul\":8336:8755   */\n    tag_83:\n        /* \"#utility.yul\":8502:8506   */\n      0x00\n        /* \"#utility.yul\":8540:8542   */\n      0x20\n        /* \"#utility.yul\":8529:8538   */\n      dup3\n        /* \"#utility.yul\":8525:8543   */\n      add\n        /* \"#utility.yul\":8517:8543   */\n      swap1\n      pop\n        /* \"#utility.yul\":8589:8598   */\n      dup2\n        /* \"#utility.yul\":8583:8587   */\n      dup2\n        /* \"#utility.yul\":8579:8599   */\n      sub\n        /* \"#utility.yul\":8575:8576   */\n      0x00\n        /* \"#utility.yul\":8564:8573   */\n      dup4\n        /* \"#utility.yul\":8560:8577   */\n      add\n        /* \"#utility.yul\":8553:8600   */\n      mstore\n        /* \"#utility.yul\":8617:8748   */\n      tag_276\n        /* \"#utility.yul\":8743:8747   */\n      dup2\n        /* \"#utility.yul\":8617:8748   */\n      tag_239\n      jump\t// in\n    tag_276:\n        /* \"#utility.yul\":8609:8748   */\n      swap1\n      pop\n        /* \"#utility.yul\":8336:8755   */\n      swap2\n      swap1\n      pop\n      jump\t// out\n        /* \"#utility.yul\":8761:9180   */\n    tag_144:\n        /* \"#utility.yul\":8927:8931   */\n      0x00\n        /* \"#utility.yul\":8965:8967   */\n      0x20\n        /* \"#utility.yul\":8954:8963   */\n      dup3\n        /* \"#utility.yul\":8950:8968   */\n      add\n        /* \"#utility.yul\":8942:8968   */\n      swap1\n      pop\n        /* \"#utility.yul\":9014:9023   */\n      dup2\n        /* \"#utility.yul\":9008:9012   */\n      dup2\n        /* \"#utility.yul\":9004:9024   */\n      sub\n        /* \"#utility.yul\":9000:9001   */\n      0x00\n        /* \"#utility.yul\":8989:8998   */\n      dup4\n        /* \"#utility.yul\":8985:9002   */\n      add\n        /* \"#utility.yul\":8978:9025   */\n      mstore\n        /* \"#utility.yul\":9042:9173   */\n      tag_278\n        /* \"#utility.yul\":9168:9172   */\n      dup2\n        /* \"#utility.yul\":9042:9173   */\n      tag_244\n      jump\t// in\n    tag_278:\n        /* \"#utility.yul\":9034:9173   */\n      swap1\n      pop\n        /* \"#utility.yul\":8761:9180   */\n      swap2\n      swap1\n      pop\n      jump\t// out\n        /* \"#utility.yul\":9186:9605   */\n    tag_93:\n        /* \"#utility.yul\":9352:9356   */\n      0x00\n        /* \"#utility.yul\":9390:9392   */\n      0x20\n        /* \"#utility.yul\":9379:9388   */\n      dup3\n        /* \"#utility.yul\":9375:9393   */\n      add\n        /* \"#utility.yul\":9367:9393   */\n      swap1\n      pop\n        /* \"#utility.yul\":9439:9448   */\n      dup2\n        /* \"#utility.yul\":9433:9437   */\n      dup2\n        /* \"#utility.yul\":9429:9449   */\n      sub\n        /* \"#utility.yul\":9425:9426   */\n      0x00\n        /* \"#utility.yul\":9414:9423   */\n      dup4\n        /* \"#utility.yul\":9410:9427   */\n      add\n        /* \"#utility.yul\":9403:9450   */\n      mstore\n        /* \"#utility.yul\":9467:9598   */\n      tag_280\n        /* \"#utility.yul\":9593:9597   */\n      dup2\n        /* \"#utility.yul\":9467:9598   */\n      tag_249\n      jump\t// in\n    tag_280:\n        /* \"#utility.yul\":9459:9598   */\n      swap1\n      pop\n        /* \"#utility.yul\":9186:9605   */\n      swap2\n      swap1\n      pop\n      jump\t// out\n        /* \"#utility.yul\":9611:10030   */\n    tag_58:\n        /* \"#utility.yul\":9777:9781   */\n      0x00\n        /* \"#utility.yul\":9815:9817   */\n      0x20\n        /* \"#utility.yul\":9804:9813   */\n      dup3\n        /* \"#utility.yul\":9800:9818   */\n      add\n        /* \"#utility.yul\":9792:9818   */\n      swap1\n      pop\n        /* \"#utility.yul\":9864:9873   */\n      dup2\n        /* \"#utility.yul\":9858:9862   */\n      dup2\n        /* \"#utility.yul\":9854:9874   */\n      sub\n        /* \"#utility.yul\":9850:9851   */\n      0x00\n        /* \"#utility.yul\":9839:9848   */\n      dup4\n        /* \"#utility.yul\":9835:9852   */\n      add\n        /* \"#utility.yul\":9828:9875   */\n      mstore\n        /* \"#utility.yul\":9892:10023   */\n      tag_282\n        /* \"#utility.yul\":10018:10022   */\n      dup2\n        /* \"#utility.yul\":9892:10023   */\n      tag_254\n      jump\t// in\n    tag_282:\n        /* \"#utility.yul\":9884:10023   */\n      swap1\n      pop\n        /* \"#utility.yul\":9611:10030   */\n      swap2\n      swap1\n      pop\n      jump\t// out\n        /* \"#utility.yul\":10036:10165   */\n    tag_160:\n        /* \"#utility.yul\":10070:10076   */\n      0x00\n        /* \"#utility.yul\":10097:10117   */\n      tag_284\n      tag_285\n      jump\t// in\n    tag_284:\n        /* \"#utility.yul\":10087:10117   */\n      swap1\n      pop\n        /* \"#utility.yul\":10126:10159   */\n      tag_286\n        /* \"#utility.yul\":10154:10158   */\n      dup3\n        /* \"#utility.yul\":10146:10152   */\n      dup3\n        /* \"#utility.yul\":10126:10159   */\n      tag_287\n      jump\t// in\n    tag_286:\n        /* \"#utility.yul\":10036:10165   */\n      swap2\n      swap1\n      pop\n      jump\t// out\n        /* \"#utility.yul\":10171:10246   */\n    tag_285:\n        /* \"#utility.yul\":10204:10210   */\n      0x00\n        /* \"#utility.yul\":10237:10239   */\n      0x40\n        /* \"#utility.yul\":10231:10240   */\n      mload\n        /* \"#utility.yul\":10221:10240   */\n      swap1\n      pop\n        /* \"#utility.yul\":10171:10246   */\n      swap1\n      jump\t// out\n        /* \"#utility.yul\":10252:10560   */\n    tag_159:\n        /* \"#utility.yul\":10314:10318   */\n      0x00\n        /* \"#utility.yul\":10404:10422   */\n      0xffffffffffffffff\n        /* \"#utility.yul\":10396:10402   */\n      dup3\n        /* \"#utility.yul\":10393:10423   */\n      gt\n        /* \"#utility.yul\":10390:10446   */\n      iszero\n      tag_290\n      jumpi\n        /* \"#utility.yul\":10426:10444   */\n      tag_291\n      tag_33\n      jump\t// in\n    tag_291:\n        /* \"#utility.yul\":10390:10446   */\n    tag_290:\n        /* \"#utility.yul\":10464:10493   */\n      tag_292\n        /* \"#utility.yul\":10486:10492   */\n      dup3\n        /* \"#utility.yul\":10464:10493   */\n      tag_226\n      jump\t// in\n    tag_292:\n        /* \"#utility.yul\":10456:10493   */\n      swap1\n      pop\n        /* \"#utility.yul\":10548:10552   */\n      0x20\n        /* \"#utility.yul\":10542:10546   */\n      dup2\n        /* \"#utility.yul\":10538:10553   */\n      add\n        /* \"#utility.yul\":10530:10553   */\n      swap1\n      pop\n        /* \"#utility.yul\":10252:10560   */\n      swap2\n      swap1\n      pop\n      jump\t// out\n        /* \"#utility.yul\":10566:10708   */\n    tag_211:\n        /* \"#utility.yul\":10643:10647   */\n      0x00\n        /* \"#utility.yul\":10666:10669   */\n      dup2\n        /* \"#utility.yul\":10658:10669   */\n      swap1\n      pop\n        /* \"#utility.yul\":10696:10700   */\n      0x20\n        /* \"#utility.yul\":10691:10694   */\n      dup3\n        /* \"#utility.yul\":10687:10701   */\n      add\n        /* \"#utility.yul\":10679:10701   */\n      swap1\n      pop\n        /* \"#utility.yul\":10566:10708   */\n      swap2\n      swap1\n      pop\n      jump\t// out\n        /* \"#utility.yul\":10714:10838   */\n    tag_207:\n        /* \"#utility.yul\":10791:10797   */\n      0x00\n        /* \"#utility.yul\":10825:10830   */\n      dup2\n        /* \"#utility.yul\":10819:10831   */\n      mload\n        /* \"#utility.yul\":10809:10831   */\n      swap1\n      pop\n        /* \"#utility.yul\":10714:10838   */\n      swap2\n      swap1\n      pop\n      jump\t// out\n        /* \"#utility.yul\":10844:10943   */\n    tag_220:\n        /* \"#utility.yul\":10896:10902   */\n      0x00\n        /* \"#utility.yul\":10930:10935   */\n      dup2\n        /* \"#utility.yul\":10924:10936   */\n      mload\n        /* \"#utility.yul\":10914:10936   */\n      swap1\n      pop\n        /* \"#utility.yul\":10844:10943   */\n      swap2\n      swap1\n      pop\n      jump\t// out\n        /* \"#utility.yul\":10949:11072   */\n    tag_217:\n        /* \"#utility.yul\":11029:11033   */\n      0x00\n        /* \"#utility.yul\":11061:11065   */\n      0x20\n        /* \"#utility.yul\":11056:11059   */\n      dup3\n        /* \"#utility.yul\":11052:11066   */\n      add\n        /* \"#utility.yul\":11044:11066   */\n      swap1\n      pop\n        /* \"#utility.yul\":10949:11072   */\n      swap2\n      swap1\n      pop\n      jump\t// out\n        /* \"#utility.yul\":11078:11272   */\n    tag_209:\n        /* \"#utility.yul\":11187:11198   */\n      0x00\n        /* \"#utility.yul\":11221:11227   */\n      dup3\n        /* \"#utility.yul\":11216:11219   */\n      dup3\n        /* \"#utility.yul\":11209:11228   */\n      mstore\n        /* \"#utility.yul\":11261:11265   */\n      0x20\n        /* \"#utility.yul\":11256:11259   */\n      dup3\n        /* \"#utility.yul\":11252:11266   */\n      add\n        /* \"#utility.yul\":11237:11266   */\n      swap1\n      pop\n        /* \"#utility.yul\":11078:11272   */\n      swap3\n      swap2\n      pop\n      pop\n      jump\t// out\n        /* \"#utility.yul\":11278:11437   */\n    tag_222:\n        /* \"#utility.yul\":11352:11363   */\n      0x00\n        /* \"#utility.yul\":11386:11392   */\n      dup3\n        /* \"#utility.yul\":11381:11384   */\n      dup3\n        /* \"#utility.yul\":11374:11393   */\n      mstore\n        /* \"#utility.yul\":11426:11430   */\n      0x20\n        /* \"#utility.yul\":11421:11424   */\n      dup3\n        /* \"#utility.yul\":11417:11431   */\n      add\n        /* \"#utility.yul\":11402:11431   */\n      swap1\n      pop\n        /* \"#utility.yul\":11278:11437   */\n      swap3\n      swap2\n      pop\n      pop\n      jump\t// out\n        /* \"#utility.yul\":11443:11612   */\n    tag_231:\n        /* \"#utility.yul\":11527:11538   */\n      0x00\n        /* \"#utility.yul\":11561:11567   */\n      dup3\n        /* \"#utility.yul\":11556:11559   */\n      dup3\n        /* \"#utility.yul\":11549:11568   */\n      mstore\n        /* \"#utility.yul\":11601:11605   */\n      0x20\n        /* \"#utility.yul\":11596:11599   */\n      dup3\n        /* \"#utility.yul\":11592:11606   */\n      add\n        /* \"#utility.yul\":11577:11606   */\n      swap1\n      pop\n        /* \"#utility.yul\":11443:11612   */\n      swap3\n      swap2\n      pop\n      pop\n      jump\t// out\n        /* \"#utility.yul\":11618:11714   */\n    tag_203:\n        /* \"#utility.yul\":11655:11662   */\n      0x00\n        /* \"#utility.yul\":11684:11708   */\n      tag_301\n        /* \"#utility.yul\":11702:11707   */\n      dup3\n        /* \"#utility.yul\":11684:11708   */\n      tag_302\n      jump\t// in\n    tag_301:\n        /* \"#utility.yul\":11673:11708   */\n      swap1\n      pop\n        /* \"#utility.yul\":11618:11714   */\n      swap2\n      swap1\n      pop\n      jump\t// out\n        /* \"#utility.yul\":11720:11846   */\n    tag_302:\n        /* \"#utility.yul\":11757:11764   */\n      0x00\n        /* \"#utility.yul\":11797:11839   */\n      0xffffffffffffffffffffffffffffffffffffffff\n        /* \"#utility.yul\":11790:11795   */\n      dup3\n        /* \"#utility.yul\":11786:11840   */\n      and\n        /* \"#utility.yul\":11775:11840   */\n      swap1\n      pop\n        /* \"#utility.yul\":11720:11846   */\n      swap2\n      swap1\n      pop\n      jump\t// out\n        /* \"#utility.yul\":11852:11929   */\n    tag_262:\n        /* \"#utility.yul\":11889:11896   */\n      0x00\n        /* \"#utility.yul\":11918:11923   */\n      dup2\n        /* \"#utility.yul\":11907:11923   */\n      swap1\n      pop\n        /* \"#utility.yul\":11852:11929   */\n      swap2\n      swap1\n      pop\n      jump\t// out\n        /* \"#utility.yul\":11935:12089   */\n    tag_165:\n        /* \"#utility.yul\":12019:12025   */\n      dup3\n        /* \"#utility.yul\":12014:12017   */\n      dup2\n        /* \"#utility.yul\":12009:12012   */\n      dup4\n        /* \"#utility.yul\":11996:12026   */\n      calldatacopy\n        /* \"#utility.yul\":12081:12082   */\n      0x00\n        /* \"#utility.yul\":12072:12078   */\n      dup4\n        /* \"#utility.yul\":12067:12070   */\n      dup4\n        /* \"#utility.yul\":12063:12079   */\n      add\n        /* \"#utility.yul\":12056:12083   */\n      mstore\n        /* \"#utility.yul\":11935:12089   */\n      pop\n      pop\n      pop\n      jump\t// out\n        /* \"#utility.yul\":12095:12402   */\n    tag_224:\n        /* \"#utility.yul\":12163:12164   */\n      0x00\n        /* \"#utility.yul\":12173:12286   */\n    tag_307:\n        /* \"#utility.yul\":12187:12193   */\n      dup4\n        /* \"#utility.yul\":12184:12185   */\n      dup2\n        /* \"#utility.yul\":12181:12194   */\n      lt\n        /* \"#utility.yul\":12173:12286   */\n      iszero\n      tag_309\n      jumpi\n        /* \"#utility.yul\":12272:12273   */\n      dup1\n        /* \"#utility.yul\":12267:12270   */\n      dup3\n        /* \"#utility.yul\":12263:12274   */\n      add\n        /* \"#utility.yul\":12257:12275   */\n      mload\n        /* \"#utility.yul\":12253:12254   */\n      dup2\n        /* \"#utility.yul\":12248:12251   */\n      dup5\n        /* \"#utility.yul\":12244:12255   */\n      add\n        /* \"#utility.yul\":12237:12276   */\n      mstore\n        /* \"#utility.yul\":12209:12211   */\n      0x20\n        /* \"#utility.yul\":12206:12207   */\n      dup2\n        /* \"#utility.yul\":12202:12212   */\n      add\n        /* \"#utility.yul\":12197:12212   */\n      swap1\n      pop\n        /* \"#utility.yul\":12173:12286   */\n      jump(tag_307)\n    tag_309:\n        /* \"#utility.yul\":12304:12310   */\n      dup4\n        /* \"#utility.yul\":12301:12302   */\n      dup2\n        /* \"#utility.yul\":12298:12311   */\n      gt\n        /* \"#utility.yul\":12295:12396   */\n      iszero\n      tag_310\n      jumpi\n        /* \"#utility.yul\":12384:12385   */\n      0x00\n        /* \"#utility.yul\":12375:12381   */\n      dup5\n        /* \"#utility.yul\":12370:12373   */\n      dup5\n        /* \"#utility.yul\":12366:12382   */\n      add\n        /* \"#utility.yul\":12359:12386   */\n      mstore\n        /* \"#utility.yul\":12295:12396   */\n    tag_310:\n        /* \"#utility.yul\":12144:12402   */\n      pop\n        /* \"#utility.yul\":12095:12402   */\n      pop\n      pop\n      pop\n      jump\t// out\n        /* \"#utility.yul\":12408:12728   */\n    tag_44:\n        /* \"#utility.yul\":12452:12458   */\n      0x00\n        /* \"#utility.yul\":12489:12490   */\n      0x02\n        /* \"#utility.yul\":12483:12487   */\n      dup3\n        /* \"#utility.yul\":12479:12491   */\n      div\n        /* \"#utility.yul\":12469:12491   */\n      swap1\n      pop\n        /* \"#utility.yul\":12536:12537   */\n      0x01\n        /* \"#utility.yul\":12530:12534   */\n      dup3\n        /* \"#utility.yul\":12526:12538   */\n      and\n        /* \"#utility.yul\":12557:12575   */\n      dup1\n        /* \"#utility.yul\":12547:12628   */\n      tag_312\n      jumpi\n        /* \"#utility.yul\":12613:12617   */\n      0x7f\n        /* \"#utility.yul\":12605:12611   */\n      dup3\n        /* \"#utility.yul\":12601:12618   */\n      and\n        /* \"#utility.yul\":12591:12618   */\n      swap2\n      pop\n        /* \"#utility.yul\":12547:12628   */\n    tag_312:\n        /* \"#utility.yul\":12675:12677   */\n      0x20\n        /* \"#utility.yul\":12667:12673   */\n      dup3\n        /* \"#utility.yul\":12664:12678   */\n      lt\n        /* \"#utility.yul\":12644:12662   */\n      dup2\n        /* \"#utility.yul\":12641:12679   */\n      eq\n        /* \"#utility.yul\":12638:12722   */\n      iszero\n      tag_313\n      jumpi\n        /* \"#utility.yul\":12694:12712   */\n      tag_314\n      tag_315\n      jump\t// in\n    tag_314:\n        /* \"#utility.yul\":12638:12722   */\n    tag_313:\n        /* \"#utility.yul\":12459:12728   */\n      pop\n        /* \"#utility.yul\":12408:12728   */\n      swap2\n      swap1\n      pop\n      jump\t// out\n        /* \"#utility.yul\":12734:13015   */\n    tag_287:\n        /* \"#utility.yul\":12817:12844   */\n      tag_317\n        /* \"#utility.yul\":12839:12843   */\n      dup3\n        /* \"#utility.yul\":12817:12844   */\n      tag_226\n      jump\t// in\n    tag_317:\n        /* \"#utility.yul\":12809:12815   */\n      dup2\n        /* \"#utility.yul\":12805:12845   */\n      add\n        /* \"#utility.yul\":12947:12953   */\n      dup2\n        /* \"#utility.yul\":12935:12945   */\n      dup2\n        /* \"#utility.yul\":12932:12954   */\n      lt\n        /* \"#utility.yul\":12911:12929   */\n      0xffffffffffffffff\n        /* \"#utility.yul\":12899:12909   */\n      dup3\n        /* \"#utility.yul\":12896:12930   */\n      gt\n        /* \"#utility.yul\":12893:12955   */\n      or\n        /* \"#utility.yul\":12890:12978   */\n      iszero\n      tag_318\n      jumpi\n        /* \"#utility.yul\":12958:12976   */\n      tag_319\n      tag_33\n      jump\t// in\n    tag_319:\n        /* \"#utility.yul\":12890:12978   */\n    tag_318:\n        /* \"#utility.yul\":12998:13008   */\n      dup1\n        /* \"#utility.yul\":12994:12996   */\n      0x40\n        /* \"#utility.yul\":12987:13009   */\n      mstore\n        /* \"#utility.yul\":12777:13015   */\n      pop\n        /* \"#utility.yul\":12734:13015   */\n      pop\n      pop\n      jump\t// out\n        /* \"#utility.yul\":13021:13254   */\n    tag_52:\n        /* \"#utility.yul\":13060:13063   */\n      0x00\n        /* \"#utility.yul\":13083:13107   */\n      tag_321\n        /* \"#utility.yul\":13101:13106   */\n      dup3\n        /* \"#utility.yul\":13083:13107   */\n      tag_262\n      jump\t// in\n    tag_321:\n        /* \"#utility.yul\":13074:13107   */\n      swap2\n      pop\n        /* \"#utility.yul\":13129:13195   */\n      0xffffffffffffffffffffffffffffffffffffffffffffffffffffffffffffffff\n        /* \"#utility.yul\":13122:13127   */\n      dup3\n        /* \"#utility.yul\":13119:13196   */\n      eq\n        /* \"#utility.yul\":13116:13219   */\n      iszero\n      tag_322\n      jumpi\n        /* \"#utility.yul\":13199:13217   */\n      tag_323\n      tag_324\n      jump\t// in\n    tag_323:\n        /* \"#utility.yul\":13116:13219   */\n    tag_322:\n        /* \"#utility.yul\":13246:13247   */\n      0x01\n        /* \"#utility.yul\":13239:13244   */\n      dup3\n        /* \"#utility.yul\":13235:13248   */\n      add\n        /* \"#utility.yul\":13228:13248   */\n      swap1\n      pop\n        /* \"#utility.yul\":13021:13254   */\n      swap2\n      swap1\n      pop\n      jump\t// out\n        /* \"#utility.yul\":13260:13440   */\n    tag_324:\n        /* \"#utility.yul\":13308:13385   */\n      0x4e487b7100000000000000000000000000000000000000000000000000000000\n        /* \"#utility.yul\":13305:13306   */\n      0x00\n        /* \"#utility.yul\":13298:13386   */\n      mstore\n        /* \"#utility.yul\":13405:13409   */\n      0x11\n        /* \"#utility.yul\":13402:13403   */\n      0x04\n        /* \"#utility.yul\":13395:13410   */\n      mstore\n        /* \"#utility.yul\":13429:13433   */\n      0x24\n        /* \"#utility.yul\":13426:13427   */\n      0x00\n        /* \"#utility.yul\":13419:13434   */\n      revert\n        /* \"#utility.yul\":13446:13626   */\n    tag_315:\n        /* \"#utility.yul\":13494:13571   */\n      0x4e487b7100000000000000000000000000000000000000000000000000000000\n        /* \"#utility.yul\":13491:13492   */\n      0x00\n        /* \"#utility.yul\":13484:13572   */\n      mstore\n        /* \"#utility.yul\":13591:13595   */\n      0x22\n        /* \"#utility.yul\":13588:13589   */\n      0x04\n        /* \"#utility.yul\":13581:13596   */\n      mstore\n        /* \"#utility.yul\":13615:13619   */\n      0x24\n        /* \"#utility.yul\":13612:13613   */\n      0x00\n        /* \"#utility.yul\":13605:13620   */\n      revert\n        /* \"#utility.yul\":13632:13812   */\n    tag_41:\n        /* \"#utility.yul\":13680:13757   */\n      0x4e487b7100000000000000000000000000000000000000000000000000000000\n        /* \"#utility.yul\":13677:13678   */\n      0x00\n        /* \"#utility.yul\":13670:13758   */\n      mstore\n        /* \"#utility.yul\":13777:13781   */\n      0x32\n        /* \"#utility.yul\":13774:13775   */\n      0x04\n        /* \"#utility.yul\":13767:13782   */\n      mstore\n        /* \"#utility.yul\":13801:13805   */\n      0x24\n        /* \"#utility.yul\":13798:13799   */\n      0x00\n        /* \"#utility.yul\":13791:13806   */\n      revert\n        /* \"#utility.yul\":13818:13998   */\n    tag_33:\n        /* \"#utility.yul\":13866:13943   */\n      0x4e487b7100000000000000000000000000000000000000000000000000000000\n        /* \"#utility.yul\":13863:13864   */\n      0x00\n        /* \"#utility.yul\":13856:13944   */\n      mstore\n        /* \"#utility.yul\":13963:13967   */\n      0x41\n        /* \"#utility.yul\":13960:13961   */\n      0x04\n        /* \"#utility.yul\":13953:13968   */\n      mstore\n        /* \"#utility.yul\":13987:13991   */\n      0x24\n        /* \"#utility.yul\":13984:13985   */\n      0x00\n        /* \"#utility.yul\":13977:13992   */\n      revert\n        /* \"#utility.yul\":14004:14121   */\n    tag_174:\n        /* \"#utility.yul\":14113:14114   */\n      0x00\n        /* \"#utility.yul\":14110:14111   */\n      dup1\n        /* \"#utility.yul\":14103:14115   */\n      revert\n        /* \"#utility.yul\":14127:14244   */\n    tag_163:\n        /* \"#utility.yul\":14236:14237   */\n      0x00\n        /* \"#utility.yul\":14233:14234   */\n      dup1\n        /* \"#utility.yul\":14226:14238   */\n      revert\n        /* \"#utility.yul\":14250:14367   */\n    tag_190:\n        /* \"#utility.yul\":14359:14360   */\n      0x00\n        /* \"#utility.yul\":14356:14357   */\n      dup1\n        /* \"#utility.yul\":14349:14361   */\n      revert\n        /* \"#utility.yul\":14373:14490   */\n    tag_183:\n        /* \"#utility.yul\":14482:14483   */\n      0x00\n        /* \"#utility.yul\":14479:14480   */\n      dup1\n        /* \"#utility.yul\":14472:14484   */\n      revert\n        /* \"#utility.yul\":14496:14598   */\n    tag_226:\n        /* \"#utility.yul\":14537:14543   */\n      0x00\n        /* \"#utility.yul\":14588:14590   */\n      0x1f\n        /* \"#utility.yul\":14584:14591   */\n      not\n        /* \"#utility.yul\":14579:14581   */\n      0x1f\n        /* \"#utility.yul\":14572:14577   */\n      dup4\n        /* \"#utility.yul\":14568:14582   */\n      add\n        /* \"#utility.yul\":14564:14592   */\n      and\n        /* \"#utility.yul\":14554:14592   */\n      swap1\n      pop\n        /* \"#utility.yul\":14496:14598   */\n      swap2\n      swap1\n      pop\n      jump\t// out\n        /* \"#utility.yul\":14604:14838   */\n    tag_238:\n        /* \"#utility.yul\":14744:14778   */\n      0x4d6178206163636f756e7420766f74657320697320726561636865642e204261\n        /* \"#utility.yul\":14740:14741   */\n      0x00\n        /* \"#utility.yul\":14732:14738   */\n      dup3\n        /* \"#utility.yul\":14728:14742   */\n      add\n        /* \"#utility.yul\":14721:14779   */\n      mstore\n        /* \"#utility.yul\":14813:14830   */\n      0x6c6c6f7420697320434c4f5345442e0000000000000000000000000000000000\n        /* \"#utility.yul\":14808:14810   */\n      0x20\n        /* \"#utility.yul\":14800:14806   */\n      dup3\n        /* \"#utility.yul\":14796:14811   */\n      add\n        /* \"#utility.yul\":14789:14831   */\n      mstore\n        /* \"#utility.yul\":14604:14838   */\n      pop\n      jump\t// out\n        /* \"#utility.yul\":14844:15078   */\n    tag_243:\n        /* \"#utility.yul\":14984:15018   */\n      0x4f6e6c792074686520636f6e7472616374206f776e65722063616e2067697665\n        /* \"#utility.yul\":14980:14981   */\n      0x00\n        /* \"#utility.yul\":14972:14978   */\n      dup3\n        /* \"#utility.yul\":14968:14982   */\n      add\n        /* \"#utility.yul\":14961:15019   */\n      mstore\n        /* \"#utility.yul\":15053:15070   */\n      0x20726967687420746f20766f74652e0000000000000000000000000000000000\n        /* \"#utility.yul\":15048:15050   */\n      0x20\n        /* \"#utility.yul\":15040:15046   */\n      dup3\n        /* \"#utility.yul\":15036:15051   */\n      add\n        /* \"#utility.yul\":15029:15071   */\n      mstore\n        /* \"#utility.yul\":14844:15078   */\n      pop\n      jump\t// out\n        /* \"#utility.yul\":15084:15254   */\n    tag_248:\n        /* \"#utility.yul\":15224:15246   */\n      0x566f74657220616c726561647920766f7465642e000000000000000000000000\n        /* \"#utility.yul\":15220:15221   */\n      0x00\n        /* \"#utility.yul\":15212:15218   */\n      dup3\n        /* \"#utility.yul\":15208:15222   */\n      add\n        /* \"#utility.yul\":15201:15247   */\n      mstore\n        /* \"#utility.yul\":15084:15254   */\n      pop\n      jump\t// out\n        /* \"#utility.yul\":15260:15436   */\n    tag_253:\n        /* \"#utility.yul\":15400:15428   */\n      0x596f752068617665206e6f7420726967687420746f20766f7465000000000000\n        /* \"#utility.yul\":15396:15397   */\n      0x00\n        /* \"#utility.yul\":15388:15394   */\n      dup3\n        /* \"#utility.yul\":15384:15398   */\n      add\n        /* \"#utility.yul\":15377:15429   */\n      mstore\n        /* \"#utility.yul\":15260:15436   */\n      pop\n      jump\t// out\n        /* \"#utility.yul\":15442:15742   */\n    tag_258:\n        /* \"#utility.yul\":15582:15616   */\n      0x5468657265206973206120746965206f6e2042616c6c6f742e20596f75207368\n        /* \"#utility.yul\":15578:15579   */\n      0x00\n        /* \"#utility.yul\":15570:15576   */\n      dup3\n        /* \"#utility.yul\":15566:15580   */\n      add\n        /* \"#utility.yul\":15559:15617   */\n      mstore\n        /* \"#utility.yul\":15651:15685   */\n      0x6f756c642073746172742061206e65772062616c6c6f74207769746820746965\n        /* \"#utility.yul\":15646:15648   */\n      0x20\n        /* \"#utility.yul\":15638:15644   */\n      dup3\n        /* \"#utility.yul\":15634:15649   */\n      add\n        /* \"#utility.yul\":15627:15686   */\n      mstore\n        /* \"#utility.yul\":15720:15734   */\n      0x2063616e646964617465732e0000000000000000000000000000000000000000\n        /* \"#utility.yul\":15715:15717   */\n      0x40\n        /* \"#utility.yul\":15707:15713   */\n      dup3\n        /* \"#utility.yul\":15703:15718   */\n      add\n        /* \"#utility.yul\":15696:15735   */\n      mstore\n        /* \"#utility.yul\":15442:15742   */\n      pop\n      jump\t// out\n        /* \"#utility.yul\":15748:15870   */\n    tag_169:\n        /* \"#utility.yul\":15821:15845   */\n      tag_340\n        /* \"#utility.yul\":15839:15844   */\n      dup2\n        /* \"#utility.yul\":15821:15845   */\n      tag_203\n      jump\t// in\n    tag_340:\n        /* \"#utility.yul\":15814:15819   */\n      dup2\n        /* \"#utility.yul\":15811:15846   */\n      eq\n        /* \"#utility.yul\":15801:15864   */\n      tag_341\n      jumpi\n        /* \"#utility.yul\":15860:15861   */\n      0x00\n        /* \"#utility.yul\":15857:15858   */\n      dup1\n        /* \"#utility.yul\":15850:15862   */\n      revert\n        /* \"#utility.yul\":15801:15864   */\n    tag_341:\n        /* \"#utility.yul\":15748:15870   */\n      pop\n      jump\t// out\n        /* \"#utility.yul\":15876:15998   */\n    tag_179:\n        /* \"#utility.yul\":15949:15973   */\n      tag_343\n        /* \"#utility.yul\":15967:15972   */\n      dup2\n        /* \"#utility.yul\":15949:15973   */\n      tag_262\n      jump\t// in\n    tag_343:\n        /* \"#utility.yul\":15942:15947   */\n      dup2\n        /* \"#utility.yul\":15939:15974   */\n      eq\n        /* \"#utility.yul\":15929:15992   */\n      tag_344\n      jumpi\n        /* \"#utility.yul\":15988:15989   */\n      0x00\n        /* \"#utility.yul\":15985:15986   */\n      dup1\n        /* \"#utility.yul\":15978:15990   */\n      revert\n        /* \"#utility.yul\":15929:15992   */\n    tag_344:\n        /* \"#utility.yul\":15876:15998   */\n      pop\n      jump\t// out\n\n    auxdata: 0xa264697066735822122035720795eb5c3f697c2c6e0a1a9bd5106c5fc31d30d43f26f92f78d86d289e4864736f6c63430008070033\n}\n",
				"bytecode": {
					"linkReferences": {},
					"object": "60806040523480156200001157600080fd5b50604051620018d4380380620018d483398181016040528101906200003791906200035b565b336000806101000a81548173ffffffffffffffffffffffffffffffffffffffff021916908373ffffffffffffffffffffffffffffffffffffffff16021790555062000088826200009760201b60201c565b80600481905550505062000649565b60005b8151811015620001435760026040518060400160405280848481518110620000c757620000c6620005a7565b5b602002602001015181526020016000815250908060018154018082558091505060019003906000526020600020906002020160009091909190915060008201518160000190805190602001906200012092919062000147565b5060208201518160010155505080806200013a90620004fb565b9150506200009a565b5050565b82805462000155906200048f565b90600052602060002090601f016020900481019282620001795760008555620001c5565b82601f106200019457805160ff1916838001178555620001c5565b82800160010185558215620001c5579182015b82811115620001c4578251825591602001919060010190620001a7565b5b509050620001d49190620001d8565b5090565b5b80821115620001f3576000816000905550600101620001d9565b5090565b60006200020e6200020884620003ea565b620003c1565b905080838252602082019050828560208602820111156200023457620002336200060a565b5b60005b858110156200028957815167ffffffffffffffff8111156200025e576200025d62000605565b5b8086016200026d898262000311565b8552602085019450602084019350505060018101905062000237565b5050509392505050565b6000620002aa620002a48462000419565b620003c1565b905082815260208101848484011115620002c957620002c86200060f565b5b620002d684828562000459565b509392505050565b600082601f830112620002f657620002f562000605565b5b815162000308848260208601620001f7565b91505092915050565b600082601f83011262000329576200032862000605565b5b81516200033b84826020860162000293565b91505092915050565b60008151905062000355816200062f565b92915050565b6000806040838503121562000375576200037462000619565b5b600083015167ffffffffffffffff81111562000396576200039562000614565b5b620003a485828601620002de565b9250506020620003b78582860162000344565b9150509250929050565b6000620003cd620003e0565b9050620003db8282620004c5565b919050565b6000604051905090565b600067ffffffffffffffff821115620004085762000407620005d6565b5b602082029050602081019050919050565b600067ffffffffffffffff821115620004375762000436620005d6565b5b62000442826200061e565b9050602081019050919050565b6000819050919050565b60005b83811015620004795780820151818401526020810190506200045c565b8381111562000489576000848401525b50505050565b60006002820490506001821680620004a857607f821691505b60208210811415620004bf57620004be62000578565b5b50919050565b620004d0826200061e565b810181811067ffffffffffffffff82111715620004f257620004f1620005d6565b5b80604052505050565b600062000508826200044f565b91507fffffffffffffffffffffffffffffffffffffffffffffffffffffffffffffffff8214156200053e576200053d62000549565b5b600182019050919050565b7f4e487b7100000000000000000000000000000000000000000000000000000000600052601160045260246000fd5b7f4e487b7100000000000000000000000000000000000000000000000000000000600052602260045260246000fd5b7f4e487b7100000000000000000000000000000000000000000000000000000000600052603260045260246000fd5b7f4e487b7100000000000000000000000000000000000000000000000000000000600052604160045260246000fd5b600080fd5b600080fd5b600080fd5b600080fd5b600080fd5b6000601f19601f8301169050919050565b6200063a816200044f565b81146200064657600080fd5b50565b61127b80620006596000396000f3fe608060405234801561001057600080fd5b50600436106100575760003560e01c8063011d10231461005c5780632bfda5151461007a5780633477ee2e146100995780639e7b8d61146100ca578063fc36e15b146100e6575b600080fd5b610064610102565b6040516100719190610ca7565b60405180910390f35b610082610253565b604051610090929190610ceb565b60405180910390f35b6100b360048036038101906100ae9190610ab2565b61036a565b6040516100c1929190610d1b565b60405180910390f35b6100e460048036038101906100df9190610a3c565b610426565b005b61010060048036038101906100fb9190610a69565b6104dd565b005b60606000600280549050905060008167ffffffffffffffff81111561012a5761012961105e565b5b60405190808252806020026020018201604052801561015d57816020015b60608152602001906001900390816101485790505b50905060005b8281101561024a576002818154811061017f5761017e61102f565b5b9060005260206000209060020201600001805461019b90610f25565b80601f01602080910402602001604051908101604052809291908181526020018280546101c790610f25565b80156102145780601f106101e957610100808354040283529160200191610214565b820191906000526020600020905b8154815290600101906020018083116101f757829003601f168201915b505050505082828151811061022c5761022b61102f565b5b6020026020010181905250808061024290610f88565b915050610163565b50809250505090565b606060008060006102626106cf565b9150915080156102a7576040517f08c379a000000000000000000000000000000000000000000000000000000000815260040161029e90610dcb565b60405180910390fd5b600282815481106102bb576102ba61102f565b5b906000526020600020906002020160000180546102d790610f25565b80601f016020809104026020016040519081016040528092919081815260200182805461030390610f25565b80156103505780601f1061032557610100808354040283529160200191610350565b820191906000526020600020905b81548152906001019060200180831161033357829003601f168201915b5050505050935083610360610794565b9350935050509091565b6002818154811061037a57600080fd5b906000526020600020906002020160009150905080600001805461039d90610f25565b80601f01602080910402602001604051908101604052809291908181526020018280546103c990610f25565b80156104165780601f106103eb57610100808354040283529160200191610416565b820191906000526020600020905b8154815290600101906020018083116103f957829003601f168201915b5050505050908060010154905082565b8061042f61079c565b6104376107e4565b610476576040517f08c379a000000000000000000000000000000000000000000000000000000000815260040161046d90610d6b565b60405180910390fd5b61047f8161083b565b60018060008473ffffffffffffffffffffffffffffffffffffffff1673ffffffffffffffffffffffffffffffffffffffff16815260200190815260200160002060000160006101000a81548160ff0219169083151502179055505050565b336104e661079c565b6104ee610887565b61052d576040517f08c379a000000000000000000000000000000000000000000000000000000000815260040161052490610dab565b60405180910390fd5b6105368161083b565b6000600160003373ffffffffffffffffffffffffffffffffffffffff1673ffffffffffffffffffffffffffffffffffffffff168152602001908152602001600020905060005b6002805490508110156106c957610640600282815481106105a05761059f61102f565b5b906000526020600020906002020160000180546105bc90610f25565b80601f01602080910402602001604051908101604052809291908181526020018280546105e890610f25565b80156106355780601f1061060a57610100808354040283529160200191610635565b820191906000526020600020905b81548152906001019060200180831161061857829003601f168201915b505050505085610897565b156106b657600281815481106106595761065861102f565b5b9060005260206000209060020201600101600081548092919061067b90610f88565b919050555060018260000160016101000a81548160ff021916908315150217905550600360008154809291906106b090610f88565b91905055505b80806106c190610f88565b91505061057c565b50505050565b600080600080600090505b60028054905081101561078e5781600282815481106106fc576106fb61102f565b5b906000526020600020906002020160010154111561074857600281815481106107285761072761102f565b5b90600052602060002090600202016001015491508093506000925061077b565b816002828154811061075d5761075c61102f565b5b906000526020600020906002020160010154141561077a57600192505b5b808061078690610f88565b9150506106da565b50509091565b600030905090565b600454600354106107e2576040517f08c379a00000000000000000000000000000000000000000000000000000000081526004016107d990610d4b565b60405180910390fd5b565b60008060009054906101000a900473ffffffffffffffffffffffffffffffffffffffff1673ffffffffffffffffffffffffffffffffffffffff163373ffffffffffffffffffffffffffffffffffffffff1614905090565b610844816108f0565b15610884576040517f08c379a000000000000000000000000000000000000000000000000000000000815260040161087b90610d8b565b60405180910390fd5b50565b600061089233610949565b905090565b6000816040516020016108aa9190610cc9565b60405160208183030381529060405280519060200120836040516020016108d19190610cc9565b6040516020818303038152906040528051906020012014905092915050565b6000600160008373ffffffffffffffffffffffffffffffffffffffff1673ffffffffffffffffffffffffffffffffffffffff16815260200190815260200160002060000160019054906101000a900460ff169050919050565b6000600160008373ffffffffffffffffffffffffffffffffffffffff1673ffffffffffffffffffffffffffffffffffffffff16815260200190815260200160002060000160009054906101000a900460ff169050919050565b60006109b56109b084610e10565b610deb565b9050828152602081018484840111156109d1576109d0611092565b5b6109dc848285610ee3565b509392505050565b6000813590506109f381611217565b92915050565b600082601f830112610a0e57610a0d61108d565b5b8135610a1e8482602086016109a2565b91505092915050565b600081359050610a368161122e565b92915050565b600060208284031215610a5257610a5161109c565b5b6000610a60848285016109e4565b91505092915050565b600060208284031215610a7f57610a7e61109c565b5b600082013567ffffffffffffffff811115610a9d57610a9c611097565b5b610aa9848285016109f9565b91505092915050565b600060208284031215610ac857610ac761109c565b5b6000610ad684828501610a27565b91505092915050565b6000610aeb8383610b77565b905092915050565b610afc81610ea7565b82525050565b6000610b0d82610e51565b610b178185610e74565b935083602082028501610b2985610e41565b8060005b85811015610b655784840389528151610b468582610adf565b9450610b5183610e67565b925060208a01995050600181019050610b2d565b50829750879550505050505092915050565b6000610b8282610e5c565b610b8c8185610e85565b9350610b9c818560208601610ef2565b610ba5816110a1565b840191505092915050565b6000610bbb82610e5c565b610bc58185610e96565b9350610bd5818560208601610ef2565b610bde816110a1565b840191505092915050565b6000610bf6602f83610e96565b9150610c01826110b2565b604082019050919050565b6000610c19602f83610e96565b9150610c2482611101565b604082019050919050565b6000610c3c601483610e96565b9150610c4782611150565b602082019050919050565b6000610c5f601a83610e96565b9150610c6a82611179565b602082019050919050565b6000610c82604c83610e96565b9150610c8d826111a2565b606082019050919050565b610ca181610ed9565b82525050565b60006020820190508181036000830152610cc18184610b02565b905092915050565b60006020820190508181036000830152610ce38184610bb0565b905092915050565b60006040820190508181036000830152610d058185610bb0565b9050610d146020830184610af3565b9392505050565b60006040820190508181036000830152610d358185610bb0565b9050610d446020830184610c98565b9392505050565b60006020820190508181036000830152610d6481610be9565b9050919050565b60006020820190508181036000830152610d8481610c0c565b9050919050565b60006020820190508181036000830152610da481610c2f565b9050919050565b60006020820190508181036000830152610dc481610c52565b9050919050565b60006020820190508181036000830152610de481610c75565b9050919050565b6000610df5610e06565b9050610e018282610f57565b919050565b6000604051905090565b600067ffffffffffffffff821115610e2b57610e2a61105e565b5b610e34826110a1565b9050602081019050919050565b6000819050602082019050919050565b600081519050919050565b600081519050919050565b6000602082019050919050565b600082825260208201905092915050565b600082825260208201905092915050565b600082825260208201905092915050565b6000610eb282610eb9565b9050919050565b600073ffffffffffffffffffffffffffffffffffffffff82169050919050565b6000819050919050565b82818337600083830152505050565b60005b83811015610f10578082015181840152602081019050610ef5565b83811115610f1f576000848401525b50505050565b60006002820490506001821680610f3d57607f821691505b60208210811415610f5157610f50611000565b5b50919050565b610f60826110a1565b810181811067ffffffffffffffff82111715610f7f57610f7e61105e565b5b80604052505050565b6000610f9382610ed9565b91507fffffffffffffffffffffffffffffffffffffffffffffffffffffffffffffffff821415610fc657610fc5610fd1565b5b600182019050919050565b7f4e487b7100000000000000000000000000000000000000000000000000000000600052601160045260246000fd5b7f4e487b7100000000000000000000000000000000000000000000000000000000600052602260045260246000fd5b7f4e487b7100000000000000000000000000000000000000000000000000000000600052603260045260246000fd5b7f4e487b7100000000000000000000000000000000000000000000000000000000600052604160045260246000fd5b600080fd5b600080fd5b600080fd5b600080fd5b6000601f19601f8301169050919050565b7f4d6178206163636f756e7420766f74657320697320726561636865642e20426160008201527f6c6c6f7420697320434c4f5345442e0000000000000000000000000000000000602082015250565b7f4f6e6c792074686520636f6e7472616374206f776e65722063616e206769766560008201527f20726967687420746f20766f74652e0000000000000000000000000000000000602082015250565b7f566f74657220616c726561647920766f7465642e000000000000000000000000600082015250565b7f596f752068617665206e6f7420726967687420746f20766f7465000000000000600082015250565b7f5468657265206973206120746965206f6e2042616c6c6f742e20596f7520736860008201527f6f756c642073746172742061206e65772062616c6c6f7420776974682074696560208201527f2063616e646964617465732e0000000000000000000000000000000000000000604082015250565b61122081610ea7565b811461122b57600080fd5b50565b61123781610ed9565b811461124257600080fd5b5056fea264697066735822122035720795eb5c3f697c2c6e0a1a9bd5106c5fc31d30d43f26f92f78d86d289e4864736f6c63430008070033",
					"opcodes": "PUSH1 0x80 PUSH1 0x40 MSTORE CALLVALUE DUP1 ISZERO PUSH3 0x11 JUMPI PUSH1 0x0 DUP1 REVERT JUMPDEST POP PUSH1 0x40 MLOAD PUSH3 0x18D4 CODESIZE SUB DUP1 PUSH3 0x18D4 DUP4 CODECOPY DUP2 DUP2 ADD PUSH1 0x40 MSTORE DUP2 ADD SWAP1 PUSH3 0x37 SWAP2 SWAP1 PUSH3 0x35B JUMP JUMPDEST CALLER PUSH1 0x0 DUP1 PUSH2 0x100 EXP DUP2 SLOAD DUP2 PUSH20 0xFFFFFFFFFFFFFFFFFFFFFFFFFFFFFFFFFFFFFFFF MUL NOT AND SWAP1 DUP4 PUSH20 0xFFFFFFFFFFFFFFFFFFFFFFFFFFFFFFFFFFFFFFFF AND MUL OR SWAP1 SSTORE POP PUSH3 0x88 DUP3 PUSH3 0x97 PUSH1 0x20 SHL PUSH1 0x20 SHR JUMP JUMPDEST DUP1 PUSH1 0x4 DUP2 SWAP1 SSTORE POP POP POP PUSH3 0x649 JUMP JUMPDEST PUSH1 0x0 JUMPDEST DUP2 MLOAD DUP2 LT ISZERO PUSH3 0x143 JUMPI PUSH1 0x2 PUSH1 0x40 MLOAD DUP1 PUSH1 0x40 ADD PUSH1 0x40 MSTORE DUP1 DUP5 DUP5 DUP2 MLOAD DUP2 LT PUSH3 0xC7 JUMPI PUSH3 0xC6 PUSH3 0x5A7 JUMP JUMPDEST JUMPDEST PUSH1 0x20 MUL PUSH1 0x20 ADD ADD MLOAD DUP2 MSTORE PUSH1 0x20 ADD PUSH1 0x0 DUP2 MSTORE POP SWAP1 DUP1 PUSH1 0x1 DUP2 SLOAD ADD DUP1 DUP3 SSTORE DUP1 SWAP2 POP POP PUSH1 0x1 SWAP1 SUB SWAP1 PUSH1 0x0 MSTORE PUSH1 0x20 PUSH1 0x0 KECCAK256 SWAP1 PUSH1 0x2 MUL ADD PUSH1 0x0 SWAP1 SWAP2 SWAP1 SWAP2 SWAP1 SWAP2 POP PUSH1 0x0 DUP3 ADD MLOAD DUP2 PUSH1 0x0 ADD SWAP1 DUP1 MLOAD SWAP1 PUSH1 0x20 ADD SWAP1 PUSH3 0x120 SWAP3 SWAP2 SWAP1 PUSH3 0x147 JUMP JUMPDEST POP PUSH1 0x20 DUP3 ADD MLOAD DUP2 PUSH1 0x1 ADD SSTORE POP POP DUP1 DUP1 PUSH3 0x13A SWAP1 PUSH3 0x4FB JUMP JUMPDEST SWAP2 POP POP PUSH3 0x9A JUMP JUMPDEST POP POP JUMP JUMPDEST DUP3 DUP1 SLOAD PUSH3 0x155 SWAP1 PUSH3 0x48F JUMP JUMPDEST SWAP1 PUSH1 0x0 MSTORE PUSH1 0x20 PUSH1 0x0 KECCAK256 SWAP1 PUSH1 0x1F ADD PUSH1 0x20 SWAP1 DIV DUP2 ADD SWAP3 DUP3 PUSH3 0x179 JUMPI PUSH1 0x0 DUP6 SSTORE PUSH3 0x1C5 JUMP JUMPDEST DUP3 PUSH1 0x1F LT PUSH3 0x194 JUMPI DUP1 MLOAD PUSH1 0xFF NOT AND DUP4 DUP1 ADD OR DUP6 SSTORE PUSH3 0x1C5 JUMP JUMPDEST DUP3 DUP1 ADD PUSH1 0x1 ADD DUP6 SSTORE DUP3 ISZERO PUSH3 0x1C5 JUMPI SWAP2 DUP3 ADD JUMPDEST DUP3 DUP2 GT ISZERO PUSH3 0x1C4 JUMPI DUP3 MLOAD DUP3 SSTORE SWAP2 PUSH1 0x20 ADD SWAP2 SWAP1 PUSH1 0x1 ADD SWAP1 PUSH3 0x1A7 JUMP JUMPDEST JUMPDEST POP SWAP1 POP PUSH3 0x1D4 SWAP2 SWAP1 PUSH3 0x1D8 JUMP JUMPDEST POP SWAP1 JUMP JUMPDEST JUMPDEST DUP1 DUP3 GT ISZERO PUSH3 0x1F3 JUMPI PUSH1 0x0 DUP2 PUSH1 0x0 SWAP1 SSTORE POP PUSH1 0x1 ADD PUSH3 0x1D9 JUMP JUMPDEST POP SWAP1 JUMP JUMPDEST PUSH1 0x0 PUSH3 0x20E PUSH3 0x208 DUP5 PUSH3 0x3EA JUMP JUMPDEST PUSH3 0x3C1 JUMP JUMPDEST SWAP1 POP DUP1 DUP4 DUP3 MSTORE PUSH1 0x20 DUP3 ADD SWAP1 POP DUP3 DUP6 PUSH1 0x20 DUP7 MUL DUP3 ADD GT ISZERO PUSH3 0x234 JUMPI PUSH3 0x233 PUSH3 0x60A JUMP JUMPDEST JUMPDEST PUSH1 0x0 JUMPDEST DUP6 DUP2 LT ISZERO PUSH3 0x289 JUMPI DUP2 MLOAD PUSH8 0xFFFFFFFFFFFFFFFF DUP2 GT ISZERO PUSH3 0x25E JUMPI PUSH3 0x25D PUSH3 0x605 JUMP JUMPDEST JUMPDEST DUP1 DUP7 ADD PUSH3 0x26D DUP10 DUP3 PUSH3 0x311 JUMP JUMPDEST DUP6 MSTORE PUSH1 0x20 DUP6 ADD SWAP5 POP PUSH1 0x20 DUP5 ADD SWAP4 POP POP POP PUSH1 0x1 DUP2 ADD SWAP1 POP PUSH3 0x237 JUMP JUMPDEST POP POP POP SWAP4 SWAP3 POP POP POP JUMP JUMPDEST PUSH1 0x0 PUSH3 0x2AA PUSH3 0x2A4 DUP5 PUSH3 0x419 JUMP JUMPDEST PUSH3 0x3C1 JUMP JUMPDEST SWAP1 POP DUP3 DUP2 MSTORE PUSH1 0x20 DUP2 ADD DUP5 DUP5 DUP5 ADD GT ISZERO PUSH3 0x2C9 JUMPI PUSH3 0x2C8 PUSH3 0x60F JUMP JUMPDEST JUMPDEST PUSH3 0x2D6 DUP5 DUP3 DUP6 PUSH3 0x459 JUMP JUMPDEST POP SWAP4 SWAP3 POP POP POP JUMP JUMPDEST PUSH1 0x0 DUP3 PUSH1 0x1F DUP4 ADD SLT PUSH3 0x2F6 JUMPI PUSH3 0x2F5 PUSH3 0x605 JUMP JUMPDEST JUMPDEST DUP2 MLOAD PUSH3 0x308 DUP5 DUP3 PUSH1 0x20 DUP7 ADD PUSH3 0x1F7 JUMP JUMPDEST SWAP2 POP POP SWAP3 SWAP2 POP POP JUMP JUMPDEST PUSH1 0x0 DUP3 PUSH1 0x1F DUP4 ADD SLT PUSH3 0x329 JUMPI PUSH3 0x328 PUSH3 0x605 JUMP JUMPDEST JUMPDEST DUP2 MLOAD PUSH3 0x33B DUP5 DUP3 PUSH1 0x20 DUP7 ADD PUSH3 0x293 JUMP JUMPDEST SWAP2 POP POP SWAP3 SWAP2 POP POP JUMP JUMPDEST PUSH1 0x0 DUP2 MLOAD SWAP1 POP PUSH3 0x355 DUP2 PUSH3 0x62F JUMP JUMPDEST SWAP3 SWAP2 POP POP JUMP JUMPDEST PUSH1 0x0 DUP1 PUSH1 0x40 DUP4 DUP6 SUB SLT ISZERO PUSH3 0x375 JUMPI PUSH3 0x374 PUSH3 0x619 JUMP JUMPDEST JUMPDEST PUSH1 0x0 DUP4 ADD MLOAD PUSH8 0xFFFFFFFFFFFFFFFF DUP2 GT ISZERO PUSH3 0x396 JUMPI PUSH3 0x395 PUSH3 0x614 JUMP JUMPDEST JUMPDEST PUSH3 0x3A4 DUP6 DUP3 DUP7 ADD PUSH3 0x2DE JUMP JUMPDEST SWAP3 POP POP PUSH1 0x20 PUSH3 0x3B7 DUP6 DUP3 DUP7 ADD PUSH3 0x344 JUMP JUMPDEST SWAP2 POP POP SWAP3 POP SWAP3 SWAP1 POP JUMP JUMPDEST PUSH1 0x0 PUSH3 0x3CD PUSH3 0x3E0 JUMP JUMPDEST SWAP1 POP PUSH3 0x3DB DUP3 DUP3 PUSH3 0x4C5 JUMP JUMPDEST SWAP2 SWAP1 POP JUMP JUMPDEST PUSH1 0x0 PUSH1 0x40 MLOAD SWAP1 POP SWAP1 JUMP JUMPDEST PUSH1 0x0 PUSH8 0xFFFFFFFFFFFFFFFF DUP3 GT ISZERO PUSH3 0x408 JUMPI PUSH3 0x407 PUSH3 0x5D6 JUMP JUMPDEST JUMPDEST PUSH1 0x20 DUP3 MUL SWAP1 POP PUSH1 0x20 DUP2 ADD SWAP1 POP SWAP2 SWAP1 POP JUMP JUMPDEST PUSH1 0x0 PUSH8 0xFFFFFFFFFFFFFFFF DUP3 GT ISZERO PUSH3 0x437 JUMPI PUSH3 0x436 PUSH3 0x5D6 JUMP JUMPDEST JUMPDEST PUSH3 0x442 DUP3 PUSH3 0x61E JUMP JUMPDEST SWAP1 POP PUSH1 0x20 DUP2 ADD SWAP1 POP SWAP2 SWAP1 POP JUMP JUMPDEST PUSH1 0x0 DUP2 SWAP1 POP SWAP2 SWAP1 POP JUMP JUMPDEST PUSH1 0x0 JUMPDEST DUP4 DUP2 LT ISZERO PUSH3 0x479 JUMPI DUP1 DUP3 ADD MLOAD DUP2 DUP5 ADD MSTORE PUSH1 0x20 DUP2 ADD SWAP1 POP PUSH3 0x45C JUMP JUMPDEST DUP4 DUP2 GT ISZERO PUSH3 0x489 JUMPI PUSH1 0x0 DUP5 DUP5 ADD MSTORE JUMPDEST POP POP POP POP JUMP JUMPDEST PUSH1 0x0 PUSH1 0x2 DUP3 DIV SWAP1 POP PUSH1 0x1 DUP3 AND DUP1 PUSH3 0x4A8 JUMPI PUSH1 0x7F DUP3 AND SWAP2 POP JUMPDEST PUSH1 0x20 DUP3 LT DUP2 EQ ISZERO PUSH3 0x4BF JUMPI PUSH3 0x4BE PUSH3 0x578 JUMP JUMPDEST JUMPDEST POP SWAP2 SWAP1 POP JUMP JUMPDEST PUSH3 0x4D0 DUP3 PUSH3 0x61E JUMP JUMPDEST DUP2 ADD DUP2 DUP2 LT PUSH8 0xFFFFFFFFFFFFFFFF DUP3 GT OR ISZERO PUSH3 0x4F2 JUMPI PUSH3 0x4F1 PUSH3 0x5D6 JUMP JUMPDEST JUMPDEST DUP1 PUSH1 0x40 MSTORE POP POP POP JUMP JUMPDEST PUSH1 0x0 PUSH3 0x508 DUP3 PUSH3 0x44F JUMP JUMPDEST SWAP2 POP PUSH32 0xFFFFFFFFFFFFFFFFFFFFFFFFFFFFFFFFFFFFFFFFFFFFFFFFFFFFFFFFFFFFFFFF DUP3 EQ ISZERO PUSH3 0x53E JUMPI PUSH3 0x53D PUSH3 0x549 JUMP JUMPDEST JUMPDEST PUSH1 0x1 DUP3 ADD SWAP1 POP SWAP2 SWAP1 POP JUMP JUMPDEST PUSH32 0x4E487B7100000000000000000000000000000000000000000000000000000000 PUSH1 0x0 MSTORE PUSH1 0x11 PUSH1 0x4 MSTORE PUSH1 0x24 PUSH1 0x0 REVERT JUMPDEST PUSH32 0x4E487B7100000000000000000000000000000000000000000000000000000000 PUSH1 0x0 MSTORE PUSH1 0x22 PUSH1 0x4 MSTORE PUSH1 0x24 PUSH1 0x0 REVERT JUMPDEST PUSH32 0x4E487B7100000000000000000000000000000000000000000000000000000000 PUSH1 0x0 MSTORE PUSH1 0x32 PUSH1 0x4 MSTORE PUSH1 0x24 PUSH1 0x0 REVERT JUMPDEST PUSH32 0x4E487B7100000000000000000000000000000000000000000000000000000000 PUSH1 0x0 MSTORE PUSH1 0x41 PUSH1 0x4 MSTORE PUSH1 0x24 PUSH1 0x0 REVERT JUMPDEST PUSH1 0x0 DUP1 REVERT JUMPDEST PUSH1 0x0 DUP1 REVERT JUMPDEST PUSH1 0x0 DUP1 REVERT JUMPDEST PUSH1 0x0 DUP1 REVERT JUMPDEST PUSH1 0x0 DUP1 REVERT JUMPDEST PUSH1 0x0 PUSH1 0x1F NOT PUSH1 0x1F DUP4 ADD AND SWAP1 POP SWAP2 SWAP1 POP JUMP JUMPDEST PUSH3 0x63A DUP2 PUSH3 0x44F JUMP JUMPDEST DUP2 EQ PUSH3 0x646 JUMPI PUSH1 0x0 DUP1 REVERT JUMPDEST POP JUMP JUMPDEST PUSH2 0x127B DUP1 PUSH3 0x659 PUSH1 0x0 CODECOPY PUSH1 0x0 RETURN INVALID PUSH1 0x80 PUSH1 0x40 MSTORE CALLVALUE DUP1 ISZERO PUSH2 0x10 JUMPI PUSH1 0x0 DUP1 REVERT JUMPDEST POP PUSH1 0x4 CALLDATASIZE LT PUSH2 0x57 JUMPI PUSH1 0x0 CALLDATALOAD PUSH1 0xE0 SHR DUP1 PUSH4 0x11D1023 EQ PUSH2 0x5C JUMPI DUP1 PUSH4 0x2BFDA515 EQ PUSH2 0x7A JUMPI DUP1 PUSH4 0x3477EE2E EQ PUSH2 0x99 JUMPI DUP1 PUSH4 0x9E7B8D61 EQ PUSH2 0xCA JUMPI DUP1 PUSH4 0xFC36E15B EQ PUSH2 0xE6 JUMPI JUMPDEST PUSH1 0x0 DUP1 REVERT JUMPDEST PUSH2 0x64 PUSH2 0x102 JUMP JUMPDEST PUSH1 0x40 MLOAD PUSH2 0x71 SWAP2 SWAP1 PUSH2 0xCA7 JUMP JUMPDEST PUSH1 0x40 MLOAD DUP1 SWAP2 SUB SWAP1 RETURN JUMPDEST PUSH2 0x82 PUSH2 0x253 JUMP JUMPDEST PUSH1 0x40 MLOAD PUSH2 0x90 SWAP3 SWAP2 SWAP1 PUSH2 0xCEB JUMP JUMPDEST PUSH1 0x40 MLOAD DUP1 SWAP2 SUB SWAP1 RETURN JUMPDEST PUSH2 0xB3 PUSH1 0x4 DUP1 CALLDATASIZE SUB DUP2 ADD SWAP1 PUSH2 0xAE SWAP2 SWAP1 PUSH2 0xAB2 JUMP JUMPDEST PUSH2 0x36A JUMP JUMPDEST PUSH1 0x40 MLOAD PUSH2 0xC1 SWAP3 SWAP2 SWAP1 PUSH2 0xD1B JUMP JUMPDEST PUSH1 0x40 MLOAD DUP1 SWAP2 SUB SWAP1 RETURN JUMPDEST PUSH2 0xE4 PUSH1 0x4 DUP1 CALLDATASIZE SUB DUP2 ADD SWAP1 PUSH2 0xDF SWAP2 SWAP1 PUSH2 0xA3C JUMP JUMPDEST PUSH2 0x426 JUMP JUMPDEST STOP JUMPDEST PUSH2 0x100 PUSH1 0x4 DUP1 CALLDATASIZE SUB DUP2 ADD SWAP1 PUSH2 0xFB SWAP2 SWAP1 PUSH2 0xA69 JUMP JUMPDEST PUSH2 0x4DD JUMP JUMPDEST STOP JUMPDEST PUSH1 0x60 PUSH1 0x0 PUSH1 0x2 DUP1 SLOAD SWAP1 POP SWAP1 POP PUSH1 0x0 DUP2 PUSH8 0xFFFFFFFFFFFFFFFF DUP2 GT ISZERO PUSH2 0x12A JUMPI PUSH2 0x129 PUSH2 0x105E JUMP JUMPDEST JUMPDEST PUSH1 0x40 MLOAD SWAP1 DUP1 DUP3 MSTORE DUP1 PUSH1 0x20 MUL PUSH1 0x20 ADD DUP3 ADD PUSH1 0x40 MSTORE DUP1 ISZERO PUSH2 0x15D JUMPI DUP2 PUSH1 0x20 ADD JUMPDEST PUSH1 0x60 DUP2 MSTORE PUSH1 0x20 ADD SWAP1 PUSH1 0x1 SWAP1 SUB SWAP1 DUP2 PUSH2 0x148 JUMPI SWAP1 POP JUMPDEST POP SWAP1 POP PUSH1 0x0 JUMPDEST DUP3 DUP2 LT ISZERO PUSH2 0x24A JUMPI PUSH1 0x2 DUP2 DUP2 SLOAD DUP2 LT PUSH2 0x17F JUMPI PUSH2 0x17E PUSH2 0x102F JUMP JUMPDEST JUMPDEST SWAP1 PUSH1 0x0 MSTORE PUSH1 0x20 PUSH1 0x0 KECCAK256 SWAP1 PUSH1 0x2 MUL ADD PUSH1 0x0 ADD DUP1 SLOAD PUSH2 0x19B SWAP1 PUSH2 0xF25 JUMP JUMPDEST DUP1 PUSH1 0x1F ADD PUSH1 0x20 DUP1 SWAP2 DIV MUL PUSH1 0x20 ADD PUSH1 0x40 MLOAD SWAP1 DUP2 ADD PUSH1 0x40 MSTORE DUP1 SWAP3 SWAP2 SWAP1 DUP2 DUP2 MSTORE PUSH1 0x20 ADD DUP3 DUP1 SLOAD PUSH2 0x1C7 SWAP1 PUSH2 0xF25 JUMP JUMPDEST DUP1 ISZERO PUSH2 0x214 JUMPI DUP1 PUSH1 0x1F LT PUSH2 0x1E9 JUMPI PUSH2 0x100 DUP1 DUP4 SLOAD DIV MUL DUP4 MSTORE SWAP2 PUSH1 0x20 ADD SWAP2 PUSH2 0x214 JUMP JUMPDEST DUP3 ADD SWAP2 SWAP1 PUSH1 0x0 MSTORE PUSH1 0x20 PUSH1 0x0 KECCAK256 SWAP1 JUMPDEST DUP2 SLOAD DUP2 MSTORE SWAP1 PUSH1 0x1 ADD SWAP1 PUSH1 0x20 ADD DUP1 DUP4 GT PUSH2 0x1F7 JUMPI DUP3 SWAP1 SUB PUSH1 0x1F AND DUP3 ADD SWAP2 JUMPDEST POP POP POP POP POP DUP3 DUP3 DUP2 MLOAD DUP2 LT PUSH2 0x22C JUMPI PUSH2 0x22B PUSH2 0x102F JUMP JUMPDEST JUMPDEST PUSH1 0x20 MUL PUSH1 0x20 ADD ADD DUP2 SWAP1 MSTORE POP DUP1 DUP1 PUSH2 0x242 SWAP1 PUSH2 0xF88 JUMP JUMPDEST SWAP2 POP POP PUSH2 0x163 JUMP JUMPDEST POP DUP1 SWAP3 POP POP POP SWAP1 JUMP JUMPDEST PUSH1 0x60 PUSH1 0x0 DUP1 PUSH1 0x0 PUSH2 0x262 PUSH2 0x6CF JUMP JUMPDEST SWAP2 POP SWAP2 POP DUP1 ISZERO PUSH2 0x2A7 JUMPI PUSH1 0x40 MLOAD PUSH32 0x8C379A000000000000000000000000000000000000000000000000000000000 DUP2 MSTORE PUSH1 0x4 ADD PUSH2 0x29E SWAP1 PUSH2 0xDCB JUMP JUMPDEST PUSH1 0x40 MLOAD DUP1 SWAP2 SUB SWAP1 REVERT JUMPDEST PUSH1 0x2 DUP3 DUP2 SLOAD DUP2 LT PUSH2 0x2BB JUMPI PUSH2 0x2BA PUSH2 0x102F JUMP JUMPDEST JUMPDEST SWAP1 PUSH1 0x0 MSTORE PUSH1 0x20 PUSH1 0x0 KECCAK256 SWAP1 PUSH1 0x2 MUL ADD PUSH1 0x0 ADD DUP1 SLOAD PUSH2 0x2D7 SWAP1 PUSH2 0xF25 JUMP JUMPDEST DUP1 PUSH1 0x1F ADD PUSH1 0x20 DUP1 SWAP2 DIV MUL PUSH1 0x20 ADD PUSH1 0x40 MLOAD SWAP1 DUP2 ADD PUSH1 0x40 MSTORE DUP1 SWAP3 SWAP2 SWAP1 DUP2 DUP2 MSTORE PUSH1 0x20 ADD DUP3 DUP1 SLOAD PUSH2 0x303 SWAP1 PUSH2 0xF25 JUMP JUMPDEST DUP1 ISZERO PUSH2 0x350 JUMPI DUP1 PUSH1 0x1F LT PUSH2 0x325 JUMPI PUSH2 0x100 DUP1 DUP4 SLOAD DIV MUL DUP4 MSTORE SWAP2 PUSH1 0x20 ADD SWAP2 PUSH2 0x350 JUMP JUMPDEST DUP3 ADD SWAP2 SWAP1 PUSH1 0x0 MSTORE PUSH1 0x20 PUSH1 0x0 KECCAK256 SWAP1 JUMPDEST DUP2 SLOAD DUP2 MSTORE SWAP1 PUSH1 0x1 ADD SWAP1 PUSH1 0x20 ADD DUP1 DUP4 GT PUSH2 0x333 JUMPI DUP3 SWAP1 SUB PUSH1 0x1F AND DUP3 ADD SWAP2 JUMPDEST POP POP POP POP POP SWAP4 POP DUP4 PUSH2 0x360 PUSH2 0x794 JUMP JUMPDEST SWAP4 POP SWAP4 POP POP POP SWAP1 SWAP2 JUMP JUMPDEST PUSH1 0x2 DUP2 DUP2 SLOAD DUP2 LT PUSH2 0x37A JUMPI PUSH1 0x0 DUP1 REVERT JUMPDEST SWAP1 PUSH1 0x0 MSTORE PUSH1 0x20 PUSH1 0x0 KECCAK256 SWAP1 PUSH1 0x2 MUL ADD PUSH1 0x0 SWAP2 POP SWAP1 POP DUP1 PUSH1 0x0 ADD DUP1 SLOAD PUSH2 0x39D SWAP1 PUSH2 0xF25 JUMP JUMPDEST DUP1 PUSH1 0x1F ADD PUSH1 0x20 DUP1 SWAP2 DIV MUL PUSH1 0x20 ADD PUSH1 0x40 MLOAD SWAP1 DUP2 ADD PUSH1 0x40 MSTORE DUP1 SWAP3 SWAP2 SWAP1 DUP2 DUP2 MSTORE PUSH1 0x20 ADD DUP3 DUP1 SLOAD PUSH2 0x3C9 SWAP1 PUSH2 0xF25 JUMP JUMPDEST DUP1 ISZERO PUSH2 0x416 JUMPI DUP1 PUSH1 0x1F LT PUSH2 0x3EB JUMPI PUSH2 0x100 DUP1 DUP4 SLOAD DIV MUL DUP4 MSTORE SWAP2 PUSH1 0x20 ADD SWAP2 PUSH2 0x416 JUMP JUMPDEST DUP3 ADD SWAP2 SWAP1 PUSH1 0x0 MSTORE PUSH1 0x20 PUSH1 0x0 KECCAK256 SWAP1 JUMPDEST DUP2 SLOAD DUP2 MSTORE SWAP1 PUSH1 0x1 ADD SWAP1 PUSH1 0x20 ADD DUP1 DUP4 GT PUSH2 0x3F9 JUMPI DUP3 SWAP1 SUB PUSH1 0x1F AND DUP3 ADD SWAP2 JUMPDEST POP POP POP POP POP SWAP1 DUP1 PUSH1 0x1 ADD SLOAD SWAP1 POP DUP3 JUMP JUMPDEST DUP1 PUSH2 0x42F PUSH2 0x79C JUMP JUMPDEST PUSH2 0x437 PUSH2 0x7E4 JUMP JUMPDEST PUSH2 0x476 JUMPI PUSH1 0x40 MLOAD PUSH32 0x8C379A000000000000000000000000000000000000000000000000000000000 DUP2 MSTORE PUSH1 0x4 ADD PUSH2 0x46D SWAP1 PUSH2 0xD6B JUMP JUMPDEST PUSH1 0x40 MLOAD DUP1 SWAP2 SUB SWAP1 REVERT JUMPDEST PUSH2 0x47F DUP2 PUSH2 0x83B JUMP JUMPDEST PUSH1 0x1 DUP1 PUSH1 0x0 DUP5 PUSH20 0xFFFFFFFFFFFFFFFFFFFFFFFFFFFFFFFFFFFFFFFF AND PUSH20 0xFFFFFFFFFFFFFFFFFFFFFFFFFFFFFFFFFFFFFFFF AND DUP2 MSTORE PUSH1 0x20 ADD SWAP1 DUP2 MSTORE PUSH1 0x20 ADD PUSH1 0x0 KECCAK256 PUSH1 0x0 ADD PUSH1 0x0 PUSH2 0x100 EXP DUP2 SLOAD DUP2 PUSH1 0xFF MUL NOT AND SWAP1 DUP4 ISZERO ISZERO MUL OR SWAP1 SSTORE POP POP POP JUMP JUMPDEST CALLER PUSH2 0x4E6 PUSH2 0x79C JUMP JUMPDEST PUSH2 0x4EE PUSH2 0x887 JUMP JUMPDEST PUSH2 0x52D JUMPI PUSH1 0x40 MLOAD PUSH32 0x8C379A000000000000000000000000000000000000000000000000000000000 DUP2 MSTORE PUSH1 0x4 ADD PUSH2 0x524 SWAP1 PUSH2 0xDAB JUMP JUMPDEST PUSH1 0x40 MLOAD DUP1 SWAP2 SUB SWAP1 REVERT JUMPDEST PUSH2 0x536 DUP2 PUSH2 0x83B JUMP JUMPDEST PUSH1 0x0 PUSH1 0x1 PUSH1 0x0 CALLER PUSH20 0xFFFFFFFFFFFFFFFFFFFFFFFFFFFFFFFFFFFFFFFF AND PUSH20 0xFFFFFFFFFFFFFFFFFFFFFFFFFFFFFFFFFFFFFFFF AND DUP2 MSTORE PUSH1 0x20 ADD SWAP1 DUP2 MSTORE PUSH1 0x20 ADD PUSH1 0x0 KECCAK256 SWAP1 POP PUSH1 0x0 JUMPDEST PUSH1 0x2 DUP1 SLOAD SWAP1 POP DUP2 LT ISZERO PUSH2 0x6C9 JUMPI PUSH2 0x640 PUSH1 0x2 DUP3 DUP2 SLOAD DUP2 LT PUSH2 0x5A0 JUMPI PUSH2 0x59F PUSH2 0x102F JUMP JUMPDEST JUMPDEST SWAP1 PUSH1 0x0 MSTORE PUSH1 0x20 PUSH1 0x0 KECCAK256 SWAP1 PUSH1 0x2 MUL ADD PUSH1 0x0 ADD DUP1 SLOAD PUSH2 0x5BC SWAP1 PUSH2 0xF25 JUMP JUMPDEST DUP1 PUSH1 0x1F ADD PUSH1 0x20 DUP1 SWAP2 DIV MUL PUSH1 0x20 ADD PUSH1 0x40 MLOAD SWAP1 DUP2 ADD PUSH1 0x40 MSTORE DUP1 SWAP3 SWAP2 SWAP1 DUP2 DUP2 MSTORE PUSH1 0x20 ADD DUP3 DUP1 SLOAD PUSH2 0x5E8 SWAP1 PUSH2 0xF25 JUMP JUMPDEST DUP1 ISZERO PUSH2 0x635 JUMPI DUP1 PUSH1 0x1F LT PUSH2 0x60A JUMPI PUSH2 0x100 DUP1 DUP4 SLOAD DIV MUL DUP4 MSTORE SWAP2 PUSH1 0x20 ADD SWAP2 PUSH2 0x635 JUMP JUMPDEST DUP3 ADD SWAP2 SWAP1 PUSH1 0x0 MSTORE PUSH1 0x20 PUSH1 0x0 KECCAK256 SWAP1 JUMPDEST DUP2 SLOAD DUP2 MSTORE SWAP1 PUSH1 0x1 ADD SWAP1 PUSH1 0x20 ADD DUP1 DUP4 GT PUSH2 0x618 JUMPI DUP3 SWAP1 SUB PUSH1 0x1F AND DUP3 ADD SWAP2 JUMPDEST POP POP POP POP POP DUP6 PUSH2 0x897 JUMP JUMPDEST ISZERO PUSH2 0x6B6 JUMPI PUSH1 0x2 DUP2 DUP2 SLOAD DUP2 LT PUSH2 0x659 JUMPI PUSH2 0x658 PUSH2 0x102F JUMP JUMPDEST JUMPDEST SWAP1 PUSH1 0x0 MSTORE PUSH1 0x20 PUSH1 0x0 KECCAK256 SWAP1 PUSH1 0x2 MUL ADD PUSH1 0x1 ADD PUSH1 0x0 DUP2 SLOAD DUP1 SWAP3 SWAP2 SWAP1 PUSH2 0x67B SWAP1 PUSH2 0xF88 JUMP JUMPDEST SWAP2 SWAP1 POP SSTORE POP PUSH1 0x1 DUP3 PUSH1 0x0 ADD PUSH1 0x1 PUSH2 0x100 EXP DUP2 SLOAD DUP2 PUSH1 0xFF MUL NOT AND SWAP1 DUP4 ISZERO ISZERO MUL OR SWAP1 SSTORE POP PUSH1 0x3 PUSH1 0x0 DUP2 SLOAD DUP1 SWAP3 SWAP2 SWAP1 PUSH2 0x6B0 SWAP1 PUSH2 0xF88 JUMP JUMPDEST SWAP2 SWAP1 POP SSTORE POP JUMPDEST DUP1 DUP1 PUSH2 0x6C1 SWAP1 PUSH2 0xF88 JUMP JUMPDEST SWAP2 POP POP PUSH2 0x57C JUMP JUMPDEST POP POP POP POP JUMP JUMPDEST PUSH1 0x0 DUP1 PUSH1 0x0 DUP1 PUSH1 0x0 SWAP1 POP JUMPDEST PUSH1 0x2 DUP1 SLOAD SWAP1 POP DUP2 LT ISZERO PUSH2 0x78E JUMPI DUP2 PUSH1 0x2 DUP3 DUP2 SLOAD DUP2 LT PUSH2 0x6FC JUMPI PUSH2 0x6FB PUSH2 0x102F JUMP JUMPDEST JUMPDEST SWAP1 PUSH1 0x0 MSTORE PUSH1 0x20 PUSH1 0x0 KECCAK256 SWAP1 PUSH1 0x2 MUL ADD PUSH1 0x1 ADD SLOAD GT ISZERO PUSH2 0x748 JUMPI PUSH1 0x2 DUP2 DUP2 SLOAD DUP2 LT PUSH2 0x728 JUMPI PUSH2 0x727 PUSH2 0x102F JUMP JUMPDEST JUMPDEST SWAP1 PUSH1 0x0 MSTORE PUSH1 0x20 PUSH1 0x0 KECCAK256 SWAP1 PUSH1 0x2 MUL ADD PUSH1 0x1 ADD SLOAD SWAP2 POP DUP1 SWAP4 POP PUSH1 0x0 SWAP3 POP PUSH2 0x77B JUMP JUMPDEST DUP2 PUSH1 0x2 DUP3 DUP2 SLOAD DUP2 LT PUSH2 0x75D JUMPI PUSH2 0x75C PUSH2 0x102F JUMP JUMPDEST JUMPDEST SWAP1 PUSH1 0x0 MSTORE PUSH1 0x20 PUSH1 0x0 KECCAK256 SWAP1 PUSH1 0x2 MUL ADD PUSH1 0x1 ADD SLOAD EQ ISZERO PUSH2 0x77A JUMPI PUSH1 0x1 SWAP3 POP JUMPDEST JUMPDEST DUP1 DUP1 PUSH2 0x786 SWAP1 PUSH2 0xF88 JUMP JUMPDEST SWAP2 POP POP PUSH2 0x6DA JUMP JUMPDEST POP POP SWAP1 SWAP2 JUMP JUMPDEST PUSH1 0x0 ADDRESS SWAP1 POP SWAP1 JUMP JUMPDEST PUSH1 0x4 SLOAD PUSH1 0x3 SLOAD LT PUSH2 0x7E2 JUMPI PUSH1 0x40 MLOAD PUSH32 0x8C379A000000000000000000000000000000000000000000000000000000000 DUP2 MSTORE PUSH1 0x4 ADD PUSH2 0x7D9 SWAP1 PUSH2 0xD4B JUMP JUMPDEST PUSH1 0x40 MLOAD DUP1 SWAP2 SUB SWAP1 REVERT JUMPDEST JUMP JUMPDEST PUSH1 0x0 DUP1 PUSH1 0x0 SWAP1 SLOAD SWAP1 PUSH2 0x100 EXP SWAP1 DIV PUSH20 0xFFFFFFFFFFFFFFFFFFFFFFFFFFFFFFFFFFFFFFFF AND PUSH20 0xFFFFFFFFFFFFFFFFFFFFFFFFFFFFFFFFFFFFFFFF AND CALLER PUSH20 0xFFFFFFFFFFFFFFFFFFFFFFFFFFFFFFFFFFFFFFFF AND EQ SWAP1 POP SWAP1 JUMP JUMPDEST PUSH2 0x844 DUP2 PUSH2 0x8F0 JUMP JUMPDEST ISZERO PUSH2 0x884 JUMPI PUSH1 0x40 MLOAD PUSH32 0x8C379A000000000000000000000000000000000000000000000000000000000 DUP2 MSTORE PUSH1 0x4 ADD PUSH2 0x87B SWAP1 PUSH2 0xD8B JUMP JUMPDEST PUSH1 0x40 MLOAD DUP1 SWAP2 SUB SWAP1 REVERT JUMPDEST POP JUMP JUMPDEST PUSH1 0x0 PUSH2 0x892 CALLER PUSH2 0x949 JUMP JUMPDEST SWAP1 POP SWAP1 JUMP JUMPDEST PUSH1 0x0 DUP2 PUSH1 0x40 MLOAD PUSH1 0x20 ADD PUSH2 0x8AA SWAP2 SWAP1 PUSH2 0xCC9 JUMP JUMPDEST PUSH1 0x40 MLOAD PUSH1 0x20 DUP2 DUP4 SUB SUB DUP2 MSTORE SWAP1 PUSH1 0x40 MSTORE DUP1 MLOAD SWAP1 PUSH1 0x20 ADD KECCAK256 DUP4 PUSH1 0x40 MLOAD PUSH1 0x20 ADD PUSH2 0x8D1 SWAP2 SWAP1 PUSH2 0xCC9 JUMP JUMPDEST PUSH1 0x40 MLOAD PUSH1 0x20 DUP2 DUP4 SUB SUB DUP2 MSTORE SWAP1 PUSH1 0x40 MSTORE DUP1 MLOAD SWAP1 PUSH1 0x20 ADD KECCAK256 EQ SWAP1 POP SWAP3 SWAP2 POP POP JUMP JUMPDEST PUSH1 0x0 PUSH1 0x1 PUSH1 0x0 DUP4 PUSH20 0xFFFFFFFFFFFFFFFFFFFFFFFFFFFFFFFFFFFFFFFF AND PUSH20 0xFFFFFFFFFFFFFFFFFFFFFFFFFFFFFFFFFFFFFFFF AND DUP2 MSTORE PUSH1 0x20 ADD SWAP1 DUP2 MSTORE PUSH1 0x20 ADD PUSH1 0x0 KECCAK256 PUSH1 0x0 ADD PUSH1 0x1 SWAP1 SLOAD SWAP1 PUSH2 0x100 EXP SWAP1 DIV PUSH1 0xFF AND SWAP1 POP SWAP2 SWAP1 POP JUMP JUMPDEST PUSH1 0x0 PUSH1 0x1 PUSH1 0x0 DUP4 PUSH20 0xFFFFFFFFFFFFFFFFFFFFFFFFFFFFFFFFFFFFFFFF AND PUSH20 0xFFFFFFFFFFFFFFFFFFFFFFFFFFFFFFFFFFFFFFFF AND DUP2 MSTORE PUSH1 0x20 ADD SWAP1 DUP2 MSTORE PUSH1 0x20 ADD PUSH1 0x0 KECCAK256 PUSH1 0x0 ADD PUSH1 0x0 SWAP1 SLOAD SWAP1 PUSH2 0x100 EXP SWAP1 DIV PUSH1 0xFF AND SWAP1 POP SWAP2 SWAP1 POP JUMP JUMPDEST PUSH1 0x0 PUSH2 0x9B5 PUSH2 0x9B0 DUP5 PUSH2 0xE10 JUMP JUMPDEST PUSH2 0xDEB JUMP JUMPDEST SWAP1 POP DUP3 DUP2 MSTORE PUSH1 0x20 DUP2 ADD DUP5 DUP5 DUP5 ADD GT ISZERO PUSH2 0x9D1 JUMPI PUSH2 0x9D0 PUSH2 0x1092 JUMP JUMPDEST JUMPDEST PUSH2 0x9DC DUP5 DUP3 DUP6 PUSH2 0xEE3 JUMP JUMPDEST POP SWAP4 SWAP3 POP POP POP JUMP JUMPDEST PUSH1 0x0 DUP2 CALLDATALOAD SWAP1 POP PUSH2 0x9F3 DUP2 PUSH2 0x1217 JUMP JUMPDEST SWAP3 SWAP2 POP POP JUMP JUMPDEST PUSH1 0x0 DUP3 PUSH1 0x1F DUP4 ADD SLT PUSH2 0xA0E JUMPI PUSH2 0xA0D PUSH2 0x108D JUMP JUMPDEST JUMPDEST DUP2 CALLDATALOAD PUSH2 0xA1E DUP5 DUP3 PUSH1 0x20 DUP7 ADD PUSH2 0x9A2 JUMP JUMPDEST SWAP2 POP POP SWAP3 SWAP2 POP POP JUMP JUMPDEST PUSH1 0x0 DUP2 CALLDATALOAD SWAP1 POP PUSH2 0xA36 DUP2 PUSH2 0x122E JUMP JUMPDEST SWAP3 SWAP2 POP POP JUMP JUMPDEST PUSH1 0x0 PUSH1 0x20 DUP3 DUP5 SUB SLT ISZERO PUSH2 0xA52 JUMPI PUSH2 0xA51 PUSH2 0x109C JUMP JUMPDEST JUMPDEST PUSH1 0x0 PUSH2 0xA60 DUP5 DUP3 DUP6 ADD PUSH2 0x9E4 JUMP JUMPDEST SWAP2 POP POP SWAP3 SWAP2 POP POP JUMP JUMPDEST PUSH1 0x0 PUSH1 0x20 DUP3 DUP5 SUB SLT ISZERO PUSH2 0xA7F JUMPI PUSH2 0xA7E PUSH2 0x109C JUMP JUMPDEST JUMPDEST PUSH1 0x0 DUP3 ADD CALLDATALOAD PUSH8 0xFFFFFFFFFFFFFFFF DUP2 GT ISZERO PUSH2 0xA9D JUMPI PUSH2 0xA9C PUSH2 0x1097 JUMP JUMPDEST JUMPDEST PUSH2 0xAA9 DUP5 DUP3 DUP6 ADD PUSH2 0x9F9 JUMP JUMPDEST SWAP2 POP POP SWAP3 SWAP2 POP POP JUMP JUMPDEST PUSH1 0x0 PUSH1 0x20 DUP3 DUP5 SUB SLT ISZERO PUSH2 0xAC8 JUMPI PUSH2 0xAC7 PUSH2 0x109C JUMP JUMPDEST JUMPDEST PUSH1 0x0 PUSH2 0xAD6 DUP5 DUP3 DUP6 ADD PUSH2 0xA27 JUMP JUMPDEST SWAP2 POP POP SWAP3 SWAP2 POP POP JUMP JUMPDEST PUSH1 0x0 PUSH2 0xAEB DUP4 DUP4 PUSH2 0xB77 JUMP JUMPDEST SWAP1 POP SWAP3 SWAP2 POP POP JUMP JUMPDEST PUSH2 0xAFC DUP2 PUSH2 0xEA7 JUMP JUMPDEST DUP3 MSTORE POP POP JUMP JUMPDEST PUSH1 0x0 PUSH2 0xB0D DUP3 PUSH2 0xE51 JUMP JUMPDEST PUSH2 0xB17 DUP2 DUP6 PUSH2 0xE74 JUMP JUMPDEST SWAP4 POP DUP4 PUSH1 0x20 DUP3 MUL DUP6 ADD PUSH2 0xB29 DUP6 PUSH2 0xE41 JUMP JUMPDEST DUP1 PUSH1 0x0 JUMPDEST DUP6 DUP2 LT ISZERO PUSH2 0xB65 JUMPI DUP5 DUP5 SUB DUP10 MSTORE DUP2 MLOAD PUSH2 0xB46 DUP6 DUP3 PUSH2 0xADF JUMP JUMPDEST SWAP5 POP PUSH2 0xB51 DUP4 PUSH2 0xE67 JUMP JUMPDEST SWAP3 POP PUSH1 0x20 DUP11 ADD SWAP10 POP POP PUSH1 0x1 DUP2 ADD SWAP1 POP PUSH2 0xB2D JUMP JUMPDEST POP DUP3 SWAP8 POP DUP8 SWAP6 POP POP POP POP POP POP SWAP3 SWAP2 POP POP JUMP JUMPDEST PUSH1 0x0 PUSH2 0xB82 DUP3 PUSH2 0xE5C JUMP JUMPDEST PUSH2 0xB8C DUP2 DUP6 PUSH2 0xE85 JUMP JUMPDEST SWAP4 POP PUSH2 0xB9C DUP2 DUP6 PUSH1 0x20 DUP7 ADD PUSH2 0xEF2 JUMP JUMPDEST PUSH2 0xBA5 DUP2 PUSH2 0x10A1 JUMP JUMPDEST DUP5 ADD SWAP2 POP POP SWAP3 SWAP2 POP POP JUMP JUMPDEST PUSH1 0x0 PUSH2 0xBBB DUP3 PUSH2 0xE5C JUMP JUMPDEST PUSH2 0xBC5 DUP2 DUP6 PUSH2 0xE96 JUMP JUMPDEST SWAP4 POP PUSH2 0xBD5 DUP2 DUP6 PUSH1 0x20 DUP7 ADD PUSH2 0xEF2 JUMP JUMPDEST PUSH2 0xBDE DUP2 PUSH2 0x10A1 JUMP JUMPDEST DUP5 ADD SWAP2 POP POP SWAP3 SWAP2 POP POP JUMP JUMPDEST PUSH1 0x0 PUSH2 0xBF6 PUSH1 0x2F DUP4 PUSH2 0xE96 JUMP JUMPDEST SWAP2 POP PUSH2 0xC01 DUP3 PUSH2 0x10B2 JUMP JUMPDEST PUSH1 0x40 DUP3 ADD SWAP1 POP SWAP2 SWAP1 POP JUMP JUMPDEST PUSH1 0x0 PUSH2 0xC19 PUSH1 0x2F DUP4 PUSH2 0xE96 JUMP JUMPDEST SWAP2 POP PUSH2 0xC24 DUP3 PUSH2 0x1101 JUMP JUMPDEST PUSH1 0x40 DUP3 ADD SWAP1 POP SWAP2 SWAP1 POP JUMP JUMPDEST PUSH1 0x0 PUSH2 0xC3C PUSH1 0x14 DUP4 PUSH2 0xE96 JUMP JUMPDEST SWAP2 POP PUSH2 0xC47 DUP3 PUSH2 0x1150 JUMP JUMPDEST PUSH1 0x20 DUP3 ADD SWAP1 POP SWAP2 SWAP1 POP JUMP JUMPDEST PUSH1 0x0 PUSH2 0xC5F PUSH1 0x1A DUP4 PUSH2 0xE96 JUMP JUMPDEST SWAP2 POP PUSH2 0xC6A DUP3 PUSH2 0x1179 JUMP JUMPDEST PUSH1 0x20 DUP3 ADD SWAP1 POP SWAP2 SWAP1 POP JUMP JUMPDEST PUSH1 0x0 PUSH2 0xC82 PUSH1 0x4C DUP4 PUSH2 0xE96 JUMP JUMPDEST SWAP2 POP PUSH2 0xC8D DUP3 PUSH2 0x11A2 JUMP JUMPDEST PUSH1 0x60 DUP3 ADD SWAP1 POP SWAP2 SWAP1 POP JUMP JUMPDEST PUSH2 0xCA1 DUP2 PUSH2 0xED9 JUMP JUMPDEST DUP3 MSTORE POP POP JUMP JUMPDEST PUSH1 0x0 PUSH1 0x20 DUP3 ADD SWAP1 POP DUP2 DUP2 SUB PUSH1 0x0 DUP4 ADD MSTORE PUSH2 0xCC1 DUP2 DUP5 PUSH2 0xB02 JUMP JUMPDEST SWAP1 POP SWAP3 SWAP2 POP POP JUMP JUMPDEST PUSH1 0x0 PUSH1 0x20 DUP3 ADD SWAP1 POP DUP2 DUP2 SUB PUSH1 0x0 DUP4 ADD MSTORE PUSH2 0xCE3 DUP2 DUP5 PUSH2 0xBB0 JUMP JUMPDEST SWAP1 POP SWAP3 SWAP2 POP POP JUMP JUMPDEST PUSH1 0x0 PUSH1 0x40 DUP3 ADD SWAP1 POP DUP2 DUP2 SUB PUSH1 0x0 DUP4 ADD MSTORE PUSH2 0xD05 DUP2 DUP6 PUSH2 0xBB0 JUMP JUMPDEST SWAP1 POP PUSH2 0xD14 PUSH1 0x20 DUP4 ADD DUP5 PUSH2 0xAF3 JUMP JUMPDEST SWAP4 SWAP3 POP POP POP JUMP JUMPDEST PUSH1 0x0 PUSH1 0x40 DUP3 ADD SWAP1 POP DUP2 DUP2 SUB PUSH1 0x0 DUP4 ADD MSTORE PUSH2 0xD35 DUP2 DUP6 PUSH2 0xBB0 JUMP JUMPDEST SWAP1 POP PUSH2 0xD44 PUSH1 0x20 DUP4 ADD DUP5 PUSH2 0xC98 JUMP JUMPDEST SWAP4 SWAP3 POP POP POP JUMP JUMPDEST PUSH1 0x0 PUSH1 0x20 DUP3 ADD SWAP1 POP DUP2 DUP2 SUB PUSH1 0x0 DUP4 ADD MSTORE PUSH2 0xD64 DUP2 PUSH2 0xBE9 JUMP JUMPDEST SWAP1 POP SWAP2 SWAP1 POP JUMP JUMPDEST PUSH1 0x0 PUSH1 0x20 DUP3 ADD SWAP1 POP DUP2 DUP2 SUB PUSH1 0x0 DUP4 ADD MSTORE PUSH2 0xD84 DUP2 PUSH2 0xC0C JUMP JUMPDEST SWAP1 POP SWAP2 SWAP1 POP JUMP JUMPDEST PUSH1 0x0 PUSH1 0x20 DUP3 ADD SWAP1 POP DUP2 DUP2 SUB PUSH1 0x0 DUP4 ADD MSTORE PUSH2 0xDA4 DUP2 PUSH2 0xC2F JUMP JUMPDEST SWAP1 POP SWAP2 SWAP1 POP JUMP JUMPDEST PUSH1 0x0 PUSH1 0x20 DUP3 ADD SWAP1 POP DUP2 DUP2 SUB PUSH1 0x0 DUP4 ADD MSTORE PUSH2 0xDC4 DUP2 PUSH2 0xC52 JUMP JUMPDEST SWAP1 POP SWAP2 SWAP1 POP JUMP JUMPDEST PUSH1 0x0 PUSH1 0x20 DUP3 ADD SWAP1 POP DUP2 DUP2 SUB PUSH1 0x0 DUP4 ADD MSTORE PUSH2 0xDE4 DUP2 PUSH2 0xC75 JUMP JUMPDEST SWAP1 POP SWAP2 SWAP1 POP JUMP JUMPDEST PUSH1 0x0 PUSH2 0xDF5 PUSH2 0xE06 JUMP JUMPDEST SWAP1 POP PUSH2 0xE01 DUP3 DUP3 PUSH2 0xF57 JUMP JUMPDEST SWAP2 SWAP1 POP JUMP JUMPDEST PUSH1 0x0 PUSH1 0x40 MLOAD SWAP1 POP SWAP1 JUMP JUMPDEST PUSH1 0x0 PUSH8 0xFFFFFFFFFFFFFFFF DUP3 GT ISZERO PUSH2 0xE2B JUMPI PUSH2 0xE2A PUSH2 0x105E JUMP JUMPDEST JUMPDEST PUSH2 0xE34 DUP3 PUSH2 0x10A1 JUMP JUMPDEST SWAP1 POP PUSH1 0x20 DUP2 ADD SWAP1 POP SWAP2 SWAP1 POP JUMP JUMPDEST PUSH1 0x0 DUP2 SWAP1 POP PUSH1 0x20 DUP3 ADD SWAP1 POP SWAP2 SWAP1 POP JUMP JUMPDEST PUSH1 0x0 DUP2 MLOAD SWAP1 POP SWAP2 SWAP1 POP JUMP JUMPDEST PUSH1 0x0 DUP2 MLOAD SWAP1 POP SWAP2 SWAP1 POP JUMP JUMPDEST PUSH1 0x0 PUSH1 0x20 DUP3 ADD SWAP1 POP SWAP2 SWAP1 POP JUMP JUMPDEST PUSH1 0x0 DUP3 DUP3 MSTORE PUSH1 0x20 DUP3 ADD SWAP1 POP SWAP3 SWAP2 POP POP JUMP JUMPDEST PUSH1 0x0 DUP3 DUP3 MSTORE PUSH1 0x20 DUP3 ADD SWAP1 POP SWAP3 SWAP2 POP POP JUMP JUMPDEST PUSH1 0x0 DUP3 DUP3 MSTORE PUSH1 0x20 DUP3 ADD SWAP1 POP SWAP3 SWAP2 POP POP JUMP JUMPDEST PUSH1 0x0 PUSH2 0xEB2 DUP3 PUSH2 0xEB9 JUMP JUMPDEST SWAP1 POP SWAP2 SWAP1 POP JUMP JUMPDEST PUSH1 0x0 PUSH20 0xFFFFFFFFFFFFFFFFFFFFFFFFFFFFFFFFFFFFFFFF DUP3 AND SWAP1 POP SWAP2 SWAP1 POP JUMP JUMPDEST PUSH1 0x0 DUP2 SWAP1 POP SWAP2 SWAP1 POP JUMP JUMPDEST DUP3 DUP2 DUP4 CALLDATACOPY PUSH1 0x0 DUP4 DUP4 ADD MSTORE POP POP POP JUMP JUMPDEST PUSH1 0x0 JUMPDEST DUP4 DUP2 LT ISZERO PUSH2 0xF10 JUMPI DUP1 DUP3 ADD MLOAD DUP2 DUP5 ADD MSTORE PUSH1 0x20 DUP2 ADD SWAP1 POP PUSH2 0xEF5 JUMP JUMPDEST DUP4 DUP2 GT ISZERO PUSH2 0xF1F JUMPI PUSH1 0x0 DUP5 DUP5 ADD MSTORE JUMPDEST POP POP POP POP JUMP JUMPDEST PUSH1 0x0 PUSH1 0x2 DUP3 DIV SWAP1 POP PUSH1 0x1 DUP3 AND DUP1 PUSH2 0xF3D JUMPI PUSH1 0x7F DUP3 AND SWAP2 POP JUMPDEST PUSH1 0x20 DUP3 LT DUP2 EQ ISZERO PUSH2 0xF51 JUMPI PUSH2 0xF50 PUSH2 0x1000 JUMP JUMPDEST JUMPDEST POP SWAP2 SWAP1 POP JUMP JUMPDEST PUSH2 0xF60 DUP3 PUSH2 0x10A1 JUMP JUMPDEST DUP2 ADD DUP2 DUP2 LT PUSH8 0xFFFFFFFFFFFFFFFF DUP3 GT OR ISZERO PUSH2 0xF7F JUMPI PUSH2 0xF7E PUSH2 0x105E JUMP JUMPDEST JUMPDEST DUP1 PUSH1 0x40 MSTORE POP POP POP JUMP JUMPDEST PUSH1 0x0 PUSH2 0xF93 DUP3 PUSH2 0xED9 JUMP JUMPDEST SWAP2 POP PUSH32 0xFFFFFFFFFFFFFFFFFFFFFFFFFFFFFFFFFFFFFFFFFFFFFFFFFFFFFFFFFFFFFFFF DUP3 EQ ISZERO PUSH2 0xFC6 JUMPI PUSH2 0xFC5 PUSH2 0xFD1 JUMP JUMPDEST JUMPDEST PUSH1 0x1 DUP3 ADD SWAP1 POP SWAP2 SWAP1 POP JUMP JUMPDEST PUSH32 0x4E487B7100000000000000000000000000000000000000000000000000000000 PUSH1 0x0 MSTORE PUSH1 0x11 PUSH1 0x4 MSTORE PUSH1 0x24 PUSH1 0x0 REVERT JUMPDEST PUSH32 0x4E487B7100000000000000000000000000000000000000000000000000000000 PUSH1 0x0 MSTORE PUSH1 0x22 PUSH1 0x4 MSTORE PUSH1 0x24 PUSH1 0x0 REVERT JUMPDEST PUSH32 0x4E487B7100000000000000000000000000000000000000000000000000000000 PUSH1 0x0 MSTORE PUSH1 0x32 PUSH1 0x4 MSTORE PUSH1 0x24 PUSH1 0x0 REVERT JUMPDEST PUSH32 0x4E487B7100000000000000000000000000000000000000000000000000000000 PUSH1 0x0 MSTORE PUSH1 0x41 PUSH1 0x4 MSTORE PUSH1 0x24 PUSH1 0x0 REVERT JUMPDEST PUSH1 0x0 DUP1 REVERT JUMPDEST PUSH1 0x0 DUP1 REVERT JUMPDEST PUSH1 0x0 DUP1 REVERT JUMPDEST PUSH1 0x0 DUP1 REVERT JUMPDEST PUSH1 0x0 PUSH1 0x1F NOT PUSH1 0x1F DUP4 ADD AND SWAP1 POP SWAP2 SWAP1 POP JUMP JUMPDEST PUSH32 0x4D6178206163636F756E7420766F74657320697320726561636865642E204261 PUSH1 0x0 DUP3 ADD MSTORE PUSH32 0x6C6C6F7420697320434C4F5345442E0000000000000000000000000000000000 PUSH1 0x20 DUP3 ADD MSTORE POP JUMP JUMPDEST PUSH32 0x4F6E6C792074686520636F6E7472616374206F776E65722063616E2067697665 PUSH1 0x0 DUP3 ADD MSTORE PUSH32 0x20726967687420746F20766F74652E0000000000000000000000000000000000 PUSH1 0x20 DUP3 ADD MSTORE POP JUMP JUMPDEST PUSH32 0x566F74657220616C726561647920766F7465642E000000000000000000000000 PUSH1 0x0 DUP3 ADD MSTORE POP JUMP JUMPDEST PUSH32 0x596F752068617665206E6F7420726967687420746F20766F7465000000000000 PUSH1 0x0 DUP3 ADD MSTORE POP JUMP JUMPDEST PUSH32 0x5468657265206973206120746965206F6E2042616C6C6F742E20596F75207368 PUSH1 0x0 DUP3 ADD MSTORE PUSH32 0x6F756C642073746172742061206E65772062616C6C6F74207769746820746965 PUSH1 0x20 DUP3 ADD MSTORE PUSH32 0x2063616E646964617465732E0000000000000000000000000000000000000000 PUSH1 0x40 DUP3 ADD MSTORE POP JUMP JUMPDEST PUSH2 0x1220 DUP2 PUSH2 0xEA7 JUMP JUMPDEST DUP2 EQ PUSH2 0x122B JUMPI PUSH1 0x0 DUP1 REVERT JUMPDEST POP JUMP JUMPDEST PUSH2 0x1237 DUP2 PUSH2 0xED9 JUMP JUMPDEST DUP2 EQ PUSH2 0x1242 JUMPI PUSH1 0x0 DUP1 REVERT JUMPDEST POP JUMP INVALID LOG2 PUSH5 0x6970667358 0x22 SLT KECCAK256 CALLDATALOAD PUSH19 0x795EB5C3F697C2C6E0A1A9BD5106C5FC31D30 0xD4 EXTCODEHASH 0x26 0xF9 0x2F PUSH25 0xD86D289E4864736F6C63430008070033000000000000000000 "
				},
				"gasEstimates": {
					"creation": {
						"codeDepositCost": "946200",
						"executionCost": "infinite",
						"totalCost": "infinite"
					},
					"external": {
						"candidates(uint256)": "infinite",
						"getCandidatesListName()": "infinite",
						"getWinnerName()": "infinite",
						"giveRightToVote(address)": "33693",
						"vote(string)": "infinite"
					},
					"internal": {
						"areYouContractOwner()": "2176",
						"areYouHaveRigthToVote()": "2303",
						"areYouVoted()": "infinite",
						"getContractAddress()": "22",
						"getTotalVotesCounterReachedRequire()": "infinite",
						"getVoterRigthToVote(address)": "2266",
						"getVoterVoted(address)": "2316",
						"getVoterVotedRequire(address)": "infinite",
						"getWinningCandidate()": "infinite",
						"setCandidatesIntoStorage(string memory[] memory)": "infinite",
						"stringEqualTo(string memory,string memory)": "infinite"
					}
				},
				"methodIdentifiers": {
					"candidates(uint256)": "3477ee2e",
					"getCandidatesListName()": "011d1023",
					"getWinnerName()": "2bfda515",
					"giveRightToVote(address)": "9e7b8d61",
					"vote(string)": "fc36e15b"
				}
			},
			"storageLayout": {
				"storage": [
					{
						"astId": 13,
						"contract": "contracts/Ballot/Ballot.sol:MyBallot",
						"label": "contractOwner",
						"offset": 0,
						"slot": "0",
						"type": "t_address"
					},
					{
						"astId": 18,
						"contract": "contracts/Ballot/Ballot.sol:MyBallot",
						"label": "voters",
						"offset": 0,
						"slot": "1",
						"type": "t_mapping(t_address,t_struct(Voter)6_storage)"
					},
					{
						"astId": 22,
						"contract": "contracts/Ballot/Ballot.sol:MyBallot",
						"label": "candidates",
						"offset": 0,
						"slot": "2",
						"type": "t_array(t_struct(Candidate)11_storage)dyn_storage"
					},
					{
						"astId": 24,
						"contract": "contracts/Ballot/Ballot.sol:MyBallot",
						"label": "totalVotesCounter",
						"offset": 0,
						"slot": "3",
						"type": "t_uint256"
					},
					{
						"astId": 26,
						"contract": "contracts/Ballot/Ballot.sol:MyBallot",
						"label": "maxVotes",
						"offset": 0,
						"slot": "4",
						"type": "t_uint256"
					}
				],
				"types": {
					"t_address": {
						"encoding": "inplace",
						"label": "address",
						"numberOfBytes": "20"
					},
					"t_array(t_struct(Candidate)11_storage)dyn_storage": {
						"base": "t_struct(Candidate)11_storage",
						"encoding": "dynamic_array",
						"label": "struct MyBallot.Candidate[]",
						"numberOfBytes": "32"
					},
					"t_bool": {
						"encoding": "inplace",
						"label": "bool",
						"numberOfBytes": "1"
					},
					"t_mapping(t_address,t_struct(Voter)6_storage)": {
						"encoding": "mapping",
						"key": "t_address",
						"label": "mapping(address => struct MyBallot.Voter)",
						"numberOfBytes": "32",
						"value": "t_struct(Voter)6_storage"
					},
					"t_string_storage": {
						"encoding": "bytes",
						"label": "string",
						"numberOfBytes": "32"
					},
					"t_struct(Candidate)11_storage": {
						"encoding": "inplace",
						"label": "struct MyBallot.Candidate",
						"members": [
							{
								"astId": 8,
								"contract": "contracts/Ballot/Ballot.sol:MyBallot",
								"label": "nameProject",
								"offset": 0,
								"slot": "0",
								"type": "t_string_storage"
							},
							{
								"astId": 10,
								"contract": "contracts/Ballot/Ballot.sol:MyBallot",
								"label": "votesCount",
								"offset": 0,
								"slot": "1",
								"type": "t_uint256"
							}
						],
						"numberOfBytes": "64"
					},
					"t_struct(Voter)6_storage": {
						"encoding": "inplace",
						"label": "struct MyBallot.Voter",
						"members": [
							{
								"astId": 3,
								"contract": "contracts/Ballot/Ballot.sol:MyBallot",
								"label": "canVote",
								"offset": 0,
								"slot": "0",
								"type": "t_bool"
							},
							{
								"astId": 5,
								"contract": "contracts/Ballot/Ballot.sol:MyBallot",
								"label": "hasVoted",
								"offset": 1,
								"slot": "0",
								"type": "t_bool"
							}
						],
						"numberOfBytes": "32"
					},
					"t_uint256": {
						"encoding": "inplace",
						"label": "uint256",
						"numberOfBytes": "32"
					}
				}
			},
			"userdoc": {
				"kind": "user",
				"methods": {},
				"version": 1
			}
		}
	}
}