{
	"contracts/Ballot/Ballot.sol": {
		"MyBallot": {
			"abi": [
				{
					"inputs": [
						{
							"components": [
								{
									"internalType": "string",
									"name": "name",
									"type": "string"
								},
								{
									"internalType": "string",
									"name": "party",
									"type": "string"
								},
								{
									"internalType": "uint256",
									"name": "votesCount",
									"type": "uint256"
								}
							],
							"internalType": "struct MyBallot.Candidate[]",
							"name": "_candidates",
							"type": "tuple[]"
						}
					],
					"stateMutability": "nonpayable",
					"type": "constructor"
				},
				{
					"inputs": [
						{
							"components": [
								{
									"internalType": "string",
									"name": "name",
									"type": "string"
								},
								{
									"internalType": "string",
									"name": "party",
									"type": "string"
								},
								{
									"internalType": "uint256",
									"name": "votesCount",
									"type": "uint256"
								}
							],
							"internalType": "struct MyBallot.Candidate",
							"name": "newCandidate",
							"type": "tuple"
						}
					],
					"name": "addCandidateAsStruct",
					"outputs": [],
					"stateMutability": "nonpayable",
					"type": "function"
				},
				{
					"inputs": [
						{
							"internalType": "string",
							"name": "name",
							"type": "string"
						},
						{
							"internalType": "string",
							"name": "party",
							"type": "string"
						}
					],
					"name": "addCandidateWithSpreadParameters",
					"outputs": [],
					"stateMutability": "nonpayable",
					"type": "function"
				},
				{
					"inputs": [],
					"name": "areYouContractOwner",
					"outputs": [
						{
							"internalType": "bool",
							"name": "",
							"type": "bool"
						}
					],
					"stateMutability": "view",
					"type": "function"
				},
				{
					"inputs": [],
					"name": "areYouHaveRigthToVote",
					"outputs": [
						{
							"internalType": "bool",
							"name": "",
							"type": "bool"
						}
					],
					"stateMutability": "view",
					"type": "function"
				},
				{
					"inputs": [],
					"name": "areYouVoted",
					"outputs": [
						{
							"internalType": "bool",
							"name": "",
							"type": "bool"
						}
					],
					"stateMutability": "view",
					"type": "function"
				},
				{
					"inputs": [],
					"name": "calculateAmountOfTotalVotes",
					"outputs": [
						{
							"internalType": "uint256",
							"name": "total",
							"type": "uint256"
						}
					],
					"stateMutability": "view",
					"type": "function"
				},
				{
					"inputs": [
						{
							"internalType": "uint256",
							"name": "",
							"type": "uint256"
						}
					],
					"name": "candidates",
					"outputs": [
						{
							"internalType": "string",
							"name": "name",
							"type": "string"
						},
						{
							"internalType": "string",
							"name": "party",
							"type": "string"
						},
						{
							"internalType": "uint256",
							"name": "votesCount",
							"type": "uint256"
						}
					],
					"stateMutability": "view",
					"type": "function"
				},
				{
					"inputs": [],
					"name": "contractOwner",
					"outputs": [
						{
							"internalType": "address",
							"name": "",
							"type": "address"
						}
					],
					"stateMutability": "view",
					"type": "function"
				},
				{
					"inputs": [],
					"name": "getCandidatesList",
					"outputs": [
						{
							"components": [
								{
									"internalType": "string",
									"name": "name",
									"type": "string"
								},
								{
									"internalType": "string",
									"name": "party",
									"type": "string"
								},
								{
									"internalType": "uint256",
									"name": "votesCount",
									"type": "uint256"
								}
							],
							"internalType": "struct MyBallot.Candidate[]",
							"name": "",
							"type": "tuple[]"
						}
					],
					"stateMutability": "view",
					"type": "function"
				},
				{
					"inputs": [],
					"name": "getContractAddress",
					"outputs": [
						{
							"internalType": "address",
							"name": "",
							"type": "address"
						}
					],
					"stateMutability": "view",
					"type": "function"
				},
				{
					"inputs": [
						{
							"internalType": "address",
							"name": "voterAddress",
							"type": "address"
						}
					],
					"name": "getVoterRigthToVote",
					"outputs": [
						{
							"internalType": "bool",
							"name": "",
							"type": "bool"
						}
					],
					"stateMutability": "view",
					"type": "function"
				},
				{
					"inputs": [
						{
							"internalType": "address",
							"name": "voterAddress",
							"type": "address"
						}
					],
					"name": "getVoterVoter",
					"outputs": [
						{
							"internalType": "bool",
							"name": "",
							"type": "bool"
						}
					],
					"stateMutability": "view",
					"type": "function"
				},
				{
					"inputs": [],
					"name": "getWinnerName",
					"outputs": [
						{
							"internalType": "string",
							"name": "winnerName",
							"type": "string"
						}
					],
					"stateMutability": "view",
					"type": "function"
				},
				{
					"inputs": [],
					"name": "getWinningCandidate",
					"outputs": [
						{
							"internalType": "uint256",
							"name": "winningProposal",
							"type": "uint256"
						},
						{
							"internalType": "bool",
							"name": "isTie",
							"type": "bool"
						}
					],
					"stateMutability": "view",
					"type": "function"
				},
				{
					"inputs": [
						{
							"internalType": "address",
							"name": "voterAddress",
							"type": "address"
						}
					],
					"name": "giveRightToVote",
					"outputs": [],
					"stateMutability": "nonpayable",
					"type": "function"
				},
				{
					"inputs": [],
					"name": "totalVotes",
					"outputs": [
						{
							"internalType": "uint256",
							"name": "",
							"type": "uint256"
						}
					],
					"stateMutability": "view",
					"type": "function"
				},
				{
					"inputs": [
						{
							"internalType": "string",
							"name": "name",
							"type": "string"
						}
					],
					"name": "vote",
					"outputs": [],
					"stateMutability": "nonpayable",
					"type": "function"
				},
				{
					"inputs": [
						{
							"internalType": "address",
							"name": "",
							"type": "address"
						}
					],
					"name": "voters",
					"outputs": [
						{
							"internalType": "bool",
							"name": "canVote",
							"type": "bool"
						},
						{
							"internalType": "bool",
							"name": "hasVoted",
							"type": "bool"
						}
					],
					"stateMutability": "view",
					"type": "function"
				}
			],
			"devdoc": {
				"kind": "dev",
				"methods": {},
				"version": 1
			},
			"evm": {
				"assembly": "    /* \"contracts/Ballot/Ballot.sol\":70:5284  contract MyBallot {... */\n  mstore(0x40, 0x80)\n    /* \"contracts/Ballot/Ballot.sol\":500:869  constructor(Candidate[] memory _candidates) {... */\n  callvalue\n  dup1\n  iszero\n  tag_1\n  jumpi\n  0x00\n  dup1\n  revert\ntag_1:\n  pop\n  mload(0x40)\n  sub(codesize, bytecodeSize)\n  dup1\n  bytecodeSize\n  dup4\n  codecopy\n  dup2\n  dup2\n  add\n  0x40\n  mstore\n  dup2\n  add\n  swap1\n  tag_2\n  swap2\n  swap1\n  tag_3\n  jump\t// in\ntag_2:\n    /* \"contracts/Ballot/Ballot.sol\":581:591  msg.sender */\n  caller\n    /* \"contracts/Ballot/Ballot.sol\":565:578  contractOwner */\n  0x00\n  dup1\n    /* \"contracts/Ballot/Ballot.sol\":565:591  contractOwner = msg.sender */\n  0x0100\n  exp\n  dup2\n  sload\n  dup2\n  0xffffffffffffffffffffffffffffffffffffffff\n  mul\n  not\n  and\n  swap1\n  dup4\n  0xffffffffffffffffffffffffffffffffffffffff\n  and\n  mul\n  or\n  swap1\n  sstore\n  pop\n    /* \"contracts/Ballot/Ballot.sol\":609:619  uint index */\n  0x00\n    /* \"contracts/Ballot/Ballot.sol\":604:862  for (uint index = 0; index < _candidates.length; index++) {... */\ntag_6:\n    /* \"contracts/Ballot/Ballot.sol\":633:644  _candidates */\n  dup2\n    /* \"contracts/Ballot/Ballot.sol\":633:651  _candidates.length */\n  mload\n    /* \"contracts/Ballot/Ballot.sol\":625:630  index */\n  dup2\n    /* \"contracts/Ballot/Ballot.sol\":625:651  index < _candidates.length */\n  lt\n    /* \"contracts/Ballot/Ballot.sol\":604:862  for (uint index = 0; index < _candidates.length; index++) {... */\n  iszero\n  tag_7\n  jumpi\n    /* \"contracts/Ballot/Ballot.sol\":677:687  candidates */\n  0x02\n    /* \"contracts/Ballot/Ballot.sol\":693:849  Candidate({... */\n  mload(0x40)\n  dup1\n  0x60\n  add\n  0x40\n  mstore\n  dup1\n    /* \"contracts/Ballot/Ballot.sol\":728:739  _candidates */\n  dup5\n    /* \"contracts/Ballot/Ballot.sol\":740:745  index */\n  dup5\n    /* \"contracts/Ballot/Ballot.sol\":728:746  _candidates[index] */\n  dup2\n  mload\n  dup2\n  lt\n  tag_9\n  jumpi\n  tag_10\n  tag_11\n  jump\t// in\ntag_10:\ntag_9:\n  0x20\n  mul\n  0x20\n  add\n  add\n  mload\n    /* \"contracts/Ballot/Ballot.sol\":728:751  _candidates[index].name */\n  0x00\n  add\n  mload\n    /* \"contracts/Ballot/Ballot.sol\":693:849  Candidate({... */\n  dup2\n  mstore\n  0x20\n  add\n    /* \"contracts/Ballot/Ballot.sol\":777:788  _candidates */\n  dup5\n    /* \"contracts/Ballot/Ballot.sol\":789:794  index */\n  dup5\n    /* \"contracts/Ballot/Ballot.sol\":777:795  _candidates[index] */\n  dup2\n  mload\n  dup2\n  lt\n  tag_12\n  jumpi\n  tag_13\n  tag_11\n  jump\t// in\ntag_13:\ntag_12:\n  0x20\n  mul\n  0x20\n  add\n  add\n  mload\n    /* \"contracts/Ballot/Ballot.sol\":777:801  _candidates[index].party */\n  0x20\n  add\n  mload\n    /* \"contracts/Ballot/Ballot.sol\":693:849  Candidate({... */\n  dup2\n  mstore\n  0x20\n  add\n    /* \"contracts/Ballot/Ballot.sol\":832:833  0 */\n  0x00\n    /* \"contracts/Ballot/Ballot.sol\":693:849  Candidate({... */\n  dup2\n  mstore\n  pop\n    /* \"contracts/Ballot/Ballot.sol\":677:850  candidates.push(Candidate({... */\n  swap1\n  dup1\n  0x01\n  dup2\n  sload\n  add\n  dup1\n  dup3\n  sstore\n  dup1\n  swap2\n  pop\n  pop\n  0x01\n  swap1\n  sub\n  swap1\n  0x00\n  mstore\n  keccak256(0x00, 0x20)\n  swap1\n  0x03\n  mul\n  add\n  0x00\n  swap1\n  swap2\n  swap1\n  swap2\n  swap1\n  swap2\n  pop\n  0x00\n  dup3\n  add\n  mload\n  dup2\n  0x00\n  add\n  swap1\n  dup2\n  tag_15\n  swap2\n  swap1\n  tag_16\n  jump\t// in\ntag_15:\n  pop\n  0x20\n  dup3\n  add\n  mload\n  dup2\n  0x01\n  add\n  swap1\n  dup2\n  tag_17\n  swap2\n  swap1\n  tag_16\n  jump\t// in\ntag_17:\n  pop\n  0x40\n  dup3\n  add\n  mload\n  dup2\n  0x02\n  add\n  sstore\n  pop\n  pop\n    /* \"contracts/Ballot/Ballot.sol\":653:660  index++ */\n  dup1\n  dup1\n  tag_18\n  swap1\n  tag_19\n  jump\t// in\ntag_18:\n  swap2\n  pop\n  pop\n    /* \"contracts/Ballot/Ballot.sol\":604:862  for (uint index = 0; index < _candidates.length; index++) {... */\n  jump(tag_6)\ntag_7:\n  pop\n    /* \"contracts/Ballot/Ballot.sol\":500:869  constructor(Candidate[] memory _candidates) {... */\n  pop\n    /* \"contracts/Ballot/Ballot.sol\":70:5284  contract MyBallot {... */\n  jump(tag_20)\n    /* \"#utility.yul\":7:82   */\ntag_21:\n    /* \"#utility.yul\":40:46   */\n  0x00\n    /* \"#utility.yul\":73:75   */\n  0x40\n    /* \"#utility.yul\":67:76   */\n  mload\n    /* \"#utility.yul\":57:76   */\n  swap1\n  pop\n    /* \"#utility.yul\":7:82   */\n  swap1\n  jump\t// out\n    /* \"#utility.yul\":88:205   */\ntag_22:\n    /* \"#utility.yul\":197:198   */\n  0x00\n    /* \"#utility.yul\":194:195   */\n  dup1\n    /* \"#utility.yul\":187:199   */\n  revert\n    /* \"#utility.yul\":211:328   */\ntag_23:\n    /* \"#utility.yul\":320:321   */\n  0x00\n    /* \"#utility.yul\":317:318   */\n  dup1\n    /* \"#utility.yul\":310:322   */\n  revert\n    /* \"#utility.yul\":334:451   */\ntag_24:\n    /* \"#utility.yul\":443:444   */\n  0x00\n    /* \"#utility.yul\":440:441   */\n  dup1\n    /* \"#utility.yul\":433:445   */\n  revert\n    /* \"#utility.yul\":457:559   */\ntag_25:\n    /* \"#utility.yul\":498:504   */\n  0x00\n    /* \"#utility.yul\":549:551   */\n  0x1f\n    /* \"#utility.yul\":545:552   */\n  not\n    /* \"#utility.yul\":540:542   */\n  0x1f\n    /* \"#utility.yul\":533:538   */\n  dup4\n    /* \"#utility.yul\":529:543   */\n  add\n    /* \"#utility.yul\":525:553   */\n  and\n    /* \"#utility.yul\":515:553   */\n  swap1\n  pop\n    /* \"#utility.yul\":457:559   */\n  swap2\n  swap1\n  pop\n  jump\t// out\n    /* \"#utility.yul\":565:745   */\ntag_26:\n    /* \"#utility.yul\":613:690   */\n  0x4e487b7100000000000000000000000000000000000000000000000000000000\n    /* \"#utility.yul\":610:611   */\n  0x00\n    /* \"#utility.yul\":603:691   */\n  mstore\n    /* \"#utility.yul\":710:714   */\n  0x41\n    /* \"#utility.yul\":707:708   */\n  0x04\n    /* \"#utility.yul\":700:715   */\n  mstore\n    /* \"#utility.yul\":734:738   */\n  0x24\n    /* \"#utility.yul\":731:732   */\n  0x00\n    /* \"#utility.yul\":724:739   */\n  revert\n    /* \"#utility.yul\":751:1032   */\ntag_27:\n    /* \"#utility.yul\":834:861   */\n  tag_71\n    /* \"#utility.yul\":856:860   */\n  dup3\n    /* \"#utility.yul\":834:861   */\n  tag_25\n  jump\t// in\ntag_71:\n    /* \"#utility.yul\":826:832   */\n  dup2\n    /* \"#utility.yul\":822:862   */\n  add\n    /* \"#utility.yul\":964:970   */\n  dup2\n    /* \"#utility.yul\":952:962   */\n  dup2\n    /* \"#utility.yul\":949:971   */\n  lt\n    /* \"#utility.yul\":928:946   */\n  0xffffffffffffffff\n    /* \"#utility.yul\":916:926   */\n  dup3\n    /* \"#utility.yul\":913:947   */\n  gt\n    /* \"#utility.yul\":910:972   */\n  or\n    /* \"#utility.yul\":907:995   */\n  iszero\n  tag_72\n  jumpi\n    /* \"#utility.yul\":975:993   */\n  tag_73\n  tag_26\n  jump\t// in\ntag_73:\n    /* \"#utility.yul\":907:995   */\ntag_72:\n    /* \"#utility.yul\":1015:1025   */\n  dup1\n    /* \"#utility.yul\":1011:1013   */\n  0x40\n    /* \"#utility.yul\":1004:1026   */\n  mstore\n    /* \"#utility.yul\":794:1032   */\n  pop\n    /* \"#utility.yul\":751:1032   */\n  pop\n  pop\n  jump\t// out\n    /* \"#utility.yul\":1038:1167   */\ntag_28:\n    /* \"#utility.yul\":1072:1078   */\n  0x00\n    /* \"#utility.yul\":1099:1119   */\n  tag_75\n  tag_21\n  jump\t// in\ntag_75:\n    /* \"#utility.yul\":1089:1119   */\n  swap1\n  pop\n    /* \"#utility.yul\":1128:1161   */\n  tag_76\n    /* \"#utility.yul\":1156:1160   */\n  dup3\n    /* \"#utility.yul\":1148:1154   */\n  dup3\n    /* \"#utility.yul\":1128:1161   */\n  tag_27\n  jump\t// in\ntag_76:\n    /* \"#utility.yul\":1038:1167   */\n  swap2\n  swap1\n  pop\n  jump\t// out\n    /* \"#utility.yul\":1173:1509   */\ntag_29:\n    /* \"#utility.yul\":1275:1279   */\n  0x00\n    /* \"#utility.yul\":1365:1383   */\n  0xffffffffffffffff\n    /* \"#utility.yul\":1357:1363   */\n  dup3\n    /* \"#utility.yul\":1354:1384   */\n  gt\n    /* \"#utility.yul\":1351:1407   */\n  iszero\n  tag_78\n  jumpi\n    /* \"#utility.yul\":1387:1405   */\n  tag_79\n  tag_26\n  jump\t// in\ntag_79:\n    /* \"#utility.yul\":1351:1407   */\ntag_78:\n    /* \"#utility.yul\":1437:1441   */\n  0x20\n    /* \"#utility.yul\":1429:1435   */\n  dup3\n    /* \"#utility.yul\":1425:1442   */\n  mul\n    /* \"#utility.yul\":1417:1442   */\n  swap1\n  pop\n    /* \"#utility.yul\":1497:1501   */\n  0x20\n    /* \"#utility.yul\":1491:1495   */\n  dup2\n    /* \"#utility.yul\":1487:1502   */\n  add\n    /* \"#utility.yul\":1479:1502   */\n  swap1\n  pop\n    /* \"#utility.yul\":1173:1509   */\n  swap2\n  swap1\n  pop\n  jump\t// out\n    /* \"#utility.yul\":1515:1632   */\ntag_30:\n    /* \"#utility.yul\":1624:1625   */\n  0x00\n    /* \"#utility.yul\":1621:1622   */\n  dup1\n    /* \"#utility.yul\":1614:1626   */\n  revert\n    /* \"#utility.yul\":1638:1755   */\ntag_31:\n    /* \"#utility.yul\":1747:1748   */\n  0x00\n    /* \"#utility.yul\":1744:1745   */\n  dup1\n    /* \"#utility.yul\":1737:1749   */\n  revert\n    /* \"#utility.yul\":1761:1878   */\ntag_32:\n    /* \"#utility.yul\":1870:1871   */\n  0x00\n    /* \"#utility.yul\":1867:1868   */\n  dup1\n    /* \"#utility.yul\":1860:1872   */\n  revert\n    /* \"#utility.yul\":1884:2001   */\ntag_33:\n    /* \"#utility.yul\":1993:1994   */\n  0x00\n    /* \"#utility.yul\":1990:1991   */\n  dup1\n    /* \"#utility.yul\":1983:1995   */\n  revert\n    /* \"#utility.yul\":2007:2315   */\ntag_34:\n    /* \"#utility.yul\":2069:2073   */\n  0x00\n    /* \"#utility.yul\":2159:2177   */\n  0xffffffffffffffff\n    /* \"#utility.yul\":2151:2157   */\n  dup3\n    /* \"#utility.yul\":2148:2178   */\n  gt\n    /* \"#utility.yul\":2145:2201   */\n  iszero\n  tag_85\n  jumpi\n    /* \"#utility.yul\":2181:2199   */\n  tag_86\n  tag_26\n  jump\t// in\ntag_86:\n    /* \"#utility.yul\":2145:2201   */\ntag_85:\n    /* \"#utility.yul\":2219:2248   */\n  tag_87\n    /* \"#utility.yul\":2241:2247   */\n  dup3\n    /* \"#utility.yul\":2219:2248   */\n  tag_25\n  jump\t// in\ntag_87:\n    /* \"#utility.yul\":2211:2248   */\n  swap1\n  pop\n    /* \"#utility.yul\":2303:2307   */\n  0x20\n    /* \"#utility.yul\":2297:2301   */\n  dup2\n    /* \"#utility.yul\":2293:2308   */\n  add\n    /* \"#utility.yul\":2285:2308   */\n  swap1\n  pop\n    /* \"#utility.yul\":2007:2315   */\n  swap2\n  swap1\n  pop\n  jump\t// out\n    /* \"#utility.yul\":2321:2567   */\ntag_35:\n    /* \"#utility.yul\":2402:2403   */\n  0x00\n    /* \"#utility.yul\":2412:2525   */\ntag_89:\n    /* \"#utility.yul\":2426:2432   */\n  dup4\n    /* \"#utility.yul\":2423:2424   */\n  dup2\n    /* \"#utility.yul\":2420:2433   */\n  lt\n    /* \"#utility.yul\":2412:2525   */\n  iszero\n  tag_91\n  jumpi\n    /* \"#utility.yul\":2511:2512   */\n  dup1\n    /* \"#utility.yul\":2506:2509   */\n  dup3\n    /* \"#utility.yul\":2502:2513   */\n  add\n    /* \"#utility.yul\":2496:2514   */\n  mload\n    /* \"#utility.yul\":2492:2493   */\n  dup2\n    /* \"#utility.yul\":2487:2490   */\n  dup5\n    /* \"#utility.yul\":2483:2494   */\n  add\n    /* \"#utility.yul\":2476:2515   */\n  mstore\n    /* \"#utility.yul\":2448:2450   */\n  0x20\n    /* \"#utility.yul\":2445:2446   */\n  dup2\n    /* \"#utility.yul\":2441:2451   */\n  add\n    /* \"#utility.yul\":2436:2451   */\n  swap1\n  pop\n    /* \"#utility.yul\":2412:2525   */\n  jump(tag_89)\ntag_91:\n    /* \"#utility.yul\":2559:2560   */\n  0x00\n    /* \"#utility.yul\":2550:2556   */\n  dup5\n    /* \"#utility.yul\":2545:2548   */\n  dup5\n    /* \"#utility.yul\":2541:2557   */\n  add\n    /* \"#utility.yul\":2534:2561   */\n  mstore\n    /* \"#utility.yul\":2383:2567   */\n  pop\n    /* \"#utility.yul\":2321:2567   */\n  pop\n  pop\n  pop\n  jump\t// out\n    /* \"#utility.yul\":2573:3007   */\ntag_36:\n    /* \"#utility.yul\":2662:2667   */\n  0x00\n    /* \"#utility.yul\":2687:2753   */\n  tag_93\n    /* \"#utility.yul\":2703:2752   */\n  tag_94\n    /* \"#utility.yul\":2745:2751   */\n  dup5\n    /* \"#utility.yul\":2703:2752   */\n  tag_34\n  jump\t// in\ntag_94:\n    /* \"#utility.yul\":2687:2753   */\n  tag_28\n  jump\t// in\ntag_93:\n    /* \"#utility.yul\":2678:2753   */\n  swap1\n  pop\n    /* \"#utility.yul\":2776:2782   */\n  dup3\n    /* \"#utility.yul\":2769:2774   */\n  dup2\n    /* \"#utility.yul\":2762:2783   */\n  mstore\n    /* \"#utility.yul\":2814:2818   */\n  0x20\n    /* \"#utility.yul\":2807:2812   */\n  dup2\n    /* \"#utility.yul\":2803:2819   */\n  add\n    /* \"#utility.yul\":2852:2855   */\n  dup5\n    /* \"#utility.yul\":2843:2849   */\n  dup5\n    /* \"#utility.yul\":2838:2841   */\n  dup5\n    /* \"#utility.yul\":2834:2850   */\n  add\n    /* \"#utility.yul\":2831:2856   */\n  gt\n    /* \"#utility.yul\":2828:2940   */\n  iszero\n  tag_95\n  jumpi\n    /* \"#utility.yul\":2859:2938   */\n  tag_96\n  tag_33\n  jump\t// in\ntag_96:\n    /* \"#utility.yul\":2828:2940   */\ntag_95:\n    /* \"#utility.yul\":2949:3001   */\n  tag_97\n    /* \"#utility.yul\":2994:3000   */\n  dup5\n    /* \"#utility.yul\":2989:2992   */\n  dup3\n    /* \"#utility.yul\":2984:2987   */\n  dup6\n    /* \"#utility.yul\":2949:3001   */\n  tag_35\n  jump\t// in\ntag_97:\n    /* \"#utility.yul\":2668:3007   */\n  pop\n    /* \"#utility.yul\":2573:3007   */\n  swap4\n  swap3\n  pop\n  pop\n  pop\n  jump\t// out\n    /* \"#utility.yul\":3027:3382   */\ntag_37:\n    /* \"#utility.yul\":3094:3099   */\n  0x00\n    /* \"#utility.yul\":3143:3146   */\n  dup3\n    /* \"#utility.yul\":3136:3140   */\n  0x1f\n    /* \"#utility.yul\":3128:3134   */\n  dup4\n    /* \"#utility.yul\":3124:3141   */\n  add\n    /* \"#utility.yul\":3120:3147   */\n  slt\n    /* \"#utility.yul\":3110:3232   */\n  tag_99\n  jumpi\n    /* \"#utility.yul\":3151:3230   */\n  tag_100\n  tag_24\n  jump\t// in\ntag_100:\n    /* \"#utility.yul\":3110:3232   */\ntag_99:\n    /* \"#utility.yul\":3261:3267   */\n  dup2\n    /* \"#utility.yul\":3255:3268   */\n  mload\n    /* \"#utility.yul\":3286:3376   */\n  tag_101\n    /* \"#utility.yul\":3372:3375   */\n  dup5\n    /* \"#utility.yul\":3364:3370   */\n  dup3\n    /* \"#utility.yul\":3357:3361   */\n  0x20\n    /* \"#utility.yul\":3349:3355   */\n  dup7\n    /* \"#utility.yul\":3345:3362   */\n  add\n    /* \"#utility.yul\":3286:3376   */\n  tag_36\n  jump\t// in\ntag_101:\n    /* \"#utility.yul\":3277:3376   */\n  swap2\n  pop\n    /* \"#utility.yul\":3100:3382   */\n  pop\n    /* \"#utility.yul\":3027:3382   */\n  swap3\n  swap2\n  pop\n  pop\n  jump\t// out\n    /* \"#utility.yul\":3388:3465   */\ntag_38:\n    /* \"#utility.yul\":3425:3432   */\n  0x00\n    /* \"#utility.yul\":3454:3459   */\n  dup2\n    /* \"#utility.yul\":3443:3459   */\n  swap1\n  pop\n    /* \"#utility.yul\":3388:3465   */\n  swap2\n  swap1\n  pop\n  jump\t// out\n    /* \"#utility.yul\":3471:3593   */\ntag_39:\n    /* \"#utility.yul\":3544:3568   */\n  tag_104\n    /* \"#utility.yul\":3562:3567   */\n  dup2\n    /* \"#utility.yul\":3544:3568   */\n  tag_38\n  jump\t// in\ntag_104:\n    /* \"#utility.yul\":3537:3542   */\n  dup2\n    /* \"#utility.yul\":3534:3569   */\n  eq\n    /* \"#utility.yul\":3524:3587   */\n  tag_105\n  jumpi\n    /* \"#utility.yul\":3583:3584   */\n  0x00\n    /* \"#utility.yul\":3580:3581   */\n  dup1\n    /* \"#utility.yul\":3573:3585   */\n  revert\n    /* \"#utility.yul\":3524:3587   */\ntag_105:\n    /* \"#utility.yul\":3471:3593   */\n  pop\n  jump\t// out\n    /* \"#utility.yul\":3599:3742   */\ntag_40:\n    /* \"#utility.yul\":3656:3661   */\n  0x00\n    /* \"#utility.yul\":3687:3693   */\n  dup2\n    /* \"#utility.yul\":3681:3694   */\n  mload\n    /* \"#utility.yul\":3672:3694   */\n  swap1\n  pop\n    /* \"#utility.yul\":3703:3736   */\n  tag_107\n    /* \"#utility.yul\":3730:3735   */\n  dup2\n    /* \"#utility.yul\":3703:3736   */\n  tag_39\n  jump\t// in\ntag_107:\n    /* \"#utility.yul\":3599:3742   */\n  swap3\n  swap2\n  pop\n  pop\n  jump\t// out\n    /* \"#utility.yul\":3781:4893   */\ntag_41:\n    /* \"#utility.yul\":3866:3871   */\n  0x00\n    /* \"#utility.yul\":3910:3914   */\n  0x60\n    /* \"#utility.yul\":3898:3907   */\n  dup3\n    /* \"#utility.yul\":3893:3896   */\n  dup5\n    /* \"#utility.yul\":3889:3908   */\n  sub\n    /* \"#utility.yul\":3885:3915   */\n  slt\n    /* \"#utility.yul\":3882:3999   */\n  iszero\n  tag_109\n  jumpi\n    /* \"#utility.yul\":3918:3997   */\n  tag_110\n  tag_31\n  jump\t// in\ntag_110:\n    /* \"#utility.yul\":3882:3999   */\ntag_109:\n    /* \"#utility.yul\":4017:4038   */\n  tag_111\n    /* \"#utility.yul\":4033:4037   */\n  0x60\n    /* \"#utility.yul\":4017:4038   */\n  tag_28\n  jump\t// in\ntag_111:\n    /* \"#utility.yul\":4008:4038   */\n  swap1\n  pop\n    /* \"#utility.yul\":4118:4119   */\n  0x00\n    /* \"#utility.yul\":4107:4116   */\n  dup3\n    /* \"#utility.yul\":4103:4120   */\n  add\n    /* \"#utility.yul\":4097:4121   */\n  mload\n    /* \"#utility.yul\":4148:4166   */\n  0xffffffffffffffff\n    /* \"#utility.yul\":4140:4146   */\n  dup2\n    /* \"#utility.yul\":4137:4167   */\n  gt\n    /* \"#utility.yul\":4134:4251   */\n  iszero\n  tag_112\n  jumpi\n    /* \"#utility.yul\":4170:4249   */\n  tag_113\n  tag_32\n  jump\t// in\ntag_113:\n    /* \"#utility.yul\":4134:4251   */\ntag_112:\n    /* \"#utility.yul\":4290:4360   */\n  tag_114\n    /* \"#utility.yul\":4356:4359   */\n  dup5\n    /* \"#utility.yul\":4347:4353   */\n  dup3\n    /* \"#utility.yul\":4336:4345   */\n  dup6\n    /* \"#utility.yul\":4332:4354   */\n  add\n    /* \"#utility.yul\":4290:4360   */\n  tag_37\n  jump\t// in\ntag_114:\n    /* \"#utility.yul\":4283:4287   */\n  0x00\n    /* \"#utility.yul\":4276:4281   */\n  dup4\n    /* \"#utility.yul\":4272:4288   */\n  add\n    /* \"#utility.yul\":4265:4361   */\n  mstore\n    /* \"#utility.yul\":4048:4372   */\n  pop\n    /* \"#utility.yul\":4453:4455   */\n  0x20\n    /* \"#utility.yul\":4442:4451   */\n  dup3\n    /* \"#utility.yul\":4438:4456   */\n  add\n    /* \"#utility.yul\":4432:4457   */\n  mload\n    /* \"#utility.yul\":4484:4502   */\n  0xffffffffffffffff\n    /* \"#utility.yul\":4476:4482   */\n  dup2\n    /* \"#utility.yul\":4473:4503   */\n  gt\n    /* \"#utility.yul\":4470:4587   */\n  iszero\n  tag_115\n  jumpi\n    /* \"#utility.yul\":4506:4585   */\n  tag_116\n  tag_32\n  jump\t// in\ntag_116:\n    /* \"#utility.yul\":4470:4587   */\ntag_115:\n    /* \"#utility.yul\":4626:4696   */\n  tag_117\n    /* \"#utility.yul\":4692:4695   */\n  dup5\n    /* \"#utility.yul\":4683:4689   */\n  dup3\n    /* \"#utility.yul\":4672:4681   */\n  dup6\n    /* \"#utility.yul\":4668:4690   */\n  add\n    /* \"#utility.yul\":4626:4696   */\n  tag_37\n  jump\t// in\ntag_117:\n    /* \"#utility.yul\":4619:4623   */\n  0x20\n    /* \"#utility.yul\":4612:4617   */\n  dup4\n    /* \"#utility.yul\":4608:4624   */\n  add\n    /* \"#utility.yul\":4601:4697   */\n  mstore\n    /* \"#utility.yul\":4382:4708   */\n  pop\n    /* \"#utility.yul\":4773:4775   */\n  0x40\n    /* \"#utility.yul\":4814:4874   */\n  tag_118\n    /* \"#utility.yul\":4870:4873   */\n  dup5\n    /* \"#utility.yul\":4861:4867   */\n  dup3\n    /* \"#utility.yul\":4850:4859   */\n  dup6\n    /* \"#utility.yul\":4846:4868   */\n  add\n    /* \"#utility.yul\":4814:4874   */\n  tag_40\n  jump\t// in\ntag_118:\n    /* \"#utility.yul\":4807:4811   */\n  0x40\n    /* \"#utility.yul\":4800:4805   */\n  dup4\n    /* \"#utility.yul\":4796:4812   */\n  add\n    /* \"#utility.yul\":4789:4875   */\n  mstore\n    /* \"#utility.yul\":4718:4886   */\n  pop\n    /* \"#utility.yul\":3781:4893   */\n  swap3\n  swap2\n  pop\n  pop\n  jump\t// out\n    /* \"#utility.yul\":4934:5939   */\ntag_42:\n    /* \"#utility.yul\":5066:5071   */\n  0x00\n    /* \"#utility.yul\":5091:5197   */\n  tag_120\n    /* \"#utility.yul\":5107:5196   */\n  tag_121\n    /* \"#utility.yul\":5189:5195   */\n  dup5\n    /* \"#utility.yul\":5107:5196   */\n  tag_29\n  jump\t// in\ntag_121:\n    /* \"#utility.yul\":5091:5197   */\n  tag_28\n  jump\t// in\ntag_120:\n    /* \"#utility.yul\":5082:5197   */\n  swap1\n  pop\n    /* \"#utility.yul\":5217:5222   */\n  dup1\n    /* \"#utility.yul\":5246:5252   */\n  dup4\n    /* \"#utility.yul\":5239:5244   */\n  dup3\n    /* \"#utility.yul\":5232:5253   */\n  mstore\n    /* \"#utility.yul\":5280:5284   */\n  0x20\n    /* \"#utility.yul\":5273:5278   */\n  dup3\n    /* \"#utility.yul\":5269:5285   */\n  add\n    /* \"#utility.yul\":5262:5285   */\n  swap1\n  pop\n    /* \"#utility.yul\":5333:5337   */\n  0x20\n    /* \"#utility.yul\":5325:5331   */\n  dup5\n    /* \"#utility.yul\":5321:5338   */\n  mul\n    /* \"#utility.yul\":5313:5319   */\n  dup4\n    /* \"#utility.yul\":5309:5339   */\n  add\n    /* \"#utility.yul\":5362:5365   */\n  dup6\n    /* \"#utility.yul\":5354:5360   */\n  dup2\n    /* \"#utility.yul\":5351:5366   */\n  gt\n    /* \"#utility.yul\":5348:5470   */\n  iszero\n  tag_122\n  jumpi\n    /* \"#utility.yul\":5381:5460   */\n  tag_123\n  tag_30\n  jump\t// in\ntag_123:\n    /* \"#utility.yul\":5348:5470   */\ntag_122:\n    /* \"#utility.yul\":5496:5502   */\n  dup4\n    /* \"#utility.yul\":5479:5933   */\ntag_124:\n    /* \"#utility.yul\":5513:5519   */\n  dup2\n    /* \"#utility.yul\":5508:5511   */\n  dup2\n    /* \"#utility.yul\":5505:5520   */\n  lt\n    /* \"#utility.yul\":5479:5933   */\n  iszero\n  tag_126\n  jumpi\n    /* \"#utility.yul\":5595:5598   */\n  dup1\n    /* \"#utility.yul\":5589:5599   */\n  mload\n    /* \"#utility.yul\":5631:5649   */\n  0xffffffffffffffff\n    /* \"#utility.yul\":5618:5629   */\n  dup2\n    /* \"#utility.yul\":5615:5650   */\n  gt\n    /* \"#utility.yul\":5612:5734   */\n  iszero\n  tag_127\n  jumpi\n    /* \"#utility.yul\":5653:5732   */\n  tag_128\n  tag_24\n  jump\t// in\ntag_128:\n    /* \"#utility.yul\":5612:5734   */\ntag_127:\n    /* \"#utility.yul\":5777:5788   */\n  dup1\n    /* \"#utility.yul\":5769:5775   */\n  dup7\n    /* \"#utility.yul\":5765:5789   */\n  add\n    /* \"#utility.yul\":5815:5888   */\n  tag_129\n    /* \"#utility.yul\":5884:5887   */\n  dup10\n    /* \"#utility.yul\":5872:5882   */\n  dup3\n    /* \"#utility.yul\":5815:5888   */\n  tag_41\n  jump\t// in\ntag_129:\n    /* \"#utility.yul\":5810:5813   */\n  dup6\n    /* \"#utility.yul\":5803:5889   */\n  mstore\n    /* \"#utility.yul\":5918:5922   */\n  0x20\n    /* \"#utility.yul\":5913:5916   */\n  dup6\n    /* \"#utility.yul\":5909:5923   */\n  add\n    /* \"#utility.yul\":5902:5923   */\n  swap5\n  pop\n    /* \"#utility.yul\":5555:5933   */\n  pop\n  pop\n    /* \"#utility.yul\":5539:5543   */\n  0x20\n    /* \"#utility.yul\":5534:5537   */\n  dup2\n    /* \"#utility.yul\":5530:5544   */\n  add\n    /* \"#utility.yul\":5523:5544   */\n  swap1\n  pop\n    /* \"#utility.yul\":5479:5933   */\n  jump(tag_124)\ntag_126:\n    /* \"#utility.yul\":5483:5504   */\n  pop\n    /* \"#utility.yul\":5072:5939   */\n  pop\n  pop\n    /* \"#utility.yul\":4934:5939   */\n  swap4\n  swap3\n  pop\n  pop\n  pop\n  jump\t// out\n    /* \"#utility.yul\":5980:6415   */\ntag_43:\n    /* \"#utility.yul\":6087:6092   */\n  0x00\n    /* \"#utility.yul\":6136:6139   */\n  dup3\n    /* \"#utility.yul\":6129:6133   */\n  0x1f\n    /* \"#utility.yul\":6121:6127   */\n  dup4\n    /* \"#utility.yul\":6117:6134   */\n  add\n    /* \"#utility.yul\":6113:6140   */\n  slt\n    /* \"#utility.yul\":6103:6225   */\n  tag_131\n  jumpi\n    /* \"#utility.yul\":6144:6223   */\n  tag_132\n  tag_24\n  jump\t// in\ntag_132:\n    /* \"#utility.yul\":6103:6225   */\ntag_131:\n    /* \"#utility.yul\":6254:6260   */\n  dup2\n    /* \"#utility.yul\":6248:6261   */\n  mload\n    /* \"#utility.yul\":6279:6409   */\n  tag_133\n    /* \"#utility.yul\":6405:6408   */\n  dup5\n    /* \"#utility.yul\":6397:6403   */\n  dup3\n    /* \"#utility.yul\":6390:6394   */\n  0x20\n    /* \"#utility.yul\":6382:6388   */\n  dup7\n    /* \"#utility.yul\":6378:6395   */\n  add\n    /* \"#utility.yul\":6279:6409   */\n  tag_42\n  jump\t// in\ntag_133:\n    /* \"#utility.yul\":6270:6409   */\n  swap2\n  pop\n    /* \"#utility.yul\":6093:6415   */\n  pop\n    /* \"#utility.yul\":5980:6415   */\n  swap3\n  swap2\n  pop\n  pop\n  jump\t// out\n    /* \"#utility.yul\":6421:7025   */\ntag_3:\n    /* \"#utility.yul\":6541:6547   */\n  0x00\n    /* \"#utility.yul\":6590:6592   */\n  0x20\n    /* \"#utility.yul\":6578:6587   */\n  dup3\n    /* \"#utility.yul\":6569:6576   */\n  dup5\n    /* \"#utility.yul\":6565:6588   */\n  sub\n    /* \"#utility.yul\":6561:6593   */\n  slt\n    /* \"#utility.yul\":6558:6677   */\n  iszero\n  tag_135\n  jumpi\n    /* \"#utility.yul\":6596:6675   */\n  tag_136\n  tag_22\n  jump\t// in\ntag_136:\n    /* \"#utility.yul\":6558:6677   */\ntag_135:\n    /* \"#utility.yul\":6737:6738   */\n  0x00\n    /* \"#utility.yul\":6726:6735   */\n  dup3\n    /* \"#utility.yul\":6722:6739   */\n  add\n    /* \"#utility.yul\":6716:6740   */\n  mload\n    /* \"#utility.yul\":6767:6785   */\n  0xffffffffffffffff\n    /* \"#utility.yul\":6759:6765   */\n  dup2\n    /* \"#utility.yul\":6756:6786   */\n  gt\n    /* \"#utility.yul\":6753:6870   */\n  iszero\n  tag_137\n  jumpi\n    /* \"#utility.yul\":6789:6868   */\n  tag_138\n  tag_23\n  jump\t// in\ntag_138:\n    /* \"#utility.yul\":6753:6870   */\ntag_137:\n    /* \"#utility.yul\":6894:7008   */\n  tag_139\n    /* \"#utility.yul\":7000:7007   */\n  dup5\n    /* \"#utility.yul\":6991:6997   */\n  dup3\n    /* \"#utility.yul\":6980:6989   */\n  dup6\n    /* \"#utility.yul\":6976:6998   */\n  add\n    /* \"#utility.yul\":6894:7008   */\n  tag_43\n  jump\t// in\ntag_139:\n    /* \"#utility.yul\":6884:7008   */\n  swap2\n  pop\n    /* \"#utility.yul\":6687:7018   */\n  pop\n    /* \"#utility.yul\":6421:7025   */\n  swap3\n  swap2\n  pop\n  pop\n  jump\t// out\n    /* \"#utility.yul\":7031:7211   */\ntag_11:\n    /* \"#utility.yul\":7079:7156   */\n  0x4e487b7100000000000000000000000000000000000000000000000000000000\n    /* \"#utility.yul\":7076:7077   */\n  0x00\n    /* \"#utility.yul\":7069:7157   */\n  mstore\n    /* \"#utility.yul\":7176:7180   */\n  0x32\n    /* \"#utility.yul\":7173:7174   */\n  0x04\n    /* \"#utility.yul\":7166:7181   */\n  mstore\n    /* \"#utility.yul\":7200:7204   */\n  0x24\n    /* \"#utility.yul\":7197:7198   */\n  0x00\n    /* \"#utility.yul\":7190:7205   */\n  revert\n    /* \"#utility.yul\":7217:7316   */\ntag_44:\n    /* \"#utility.yul\":7269:7275   */\n  0x00\n    /* \"#utility.yul\":7303:7308   */\n  dup2\n    /* \"#utility.yul\":7297:7309   */\n  mload\n    /* \"#utility.yul\":7287:7309   */\n  swap1\n  pop\n    /* \"#utility.yul\":7217:7316   */\n  swap2\n  swap1\n  pop\n  jump\t// out\n    /* \"#utility.yul\":7322:7502   */\ntag_45:\n    /* \"#utility.yul\":7370:7447   */\n  0x4e487b7100000000000000000000000000000000000000000000000000000000\n    /* \"#utility.yul\":7367:7368   */\n  0x00\n    /* \"#utility.yul\":7360:7448   */\n  mstore\n    /* \"#utility.yul\":7467:7471   */\n  0x22\n    /* \"#utility.yul\":7464:7465   */\n  0x04\n    /* \"#utility.yul\":7457:7472   */\n  mstore\n    /* \"#utility.yul\":7491:7495   */\n  0x24\n    /* \"#utility.yul\":7488:7489   */\n  0x00\n    /* \"#utility.yul\":7481:7496   */\n  revert\n    /* \"#utility.yul\":7508:7828   */\ntag_46:\n    /* \"#utility.yul\":7552:7558   */\n  0x00\n    /* \"#utility.yul\":7589:7590   */\n  0x02\n    /* \"#utility.yul\":7583:7587   */\n  dup3\n    /* \"#utility.yul\":7579:7591   */\n  div\n    /* \"#utility.yul\":7569:7591   */\n  swap1\n  pop\n    /* \"#utility.yul\":7636:7637   */\n  0x01\n    /* \"#utility.yul\":7630:7634   */\n  dup3\n    /* \"#utility.yul\":7626:7638   */\n  and\n    /* \"#utility.yul\":7657:7675   */\n  dup1\n    /* \"#utility.yul\":7647:7728   */\n  tag_144\n  jumpi\n    /* \"#utility.yul\":7713:7717   */\n  0x7f\n    /* \"#utility.yul\":7705:7711   */\n  dup3\n    /* \"#utility.yul\":7701:7718   */\n  and\n    /* \"#utility.yul\":7691:7718   */\n  swap2\n  pop\n    /* \"#utility.yul\":7647:7728   */\ntag_144:\n    /* \"#utility.yul\":7775:7777   */\n  0x20\n    /* \"#utility.yul\":7767:7773   */\n  dup3\n    /* \"#utility.yul\":7764:7778   */\n  lt\n    /* \"#utility.yul\":7744:7762   */\n  dup2\n    /* \"#utility.yul\":7741:7779   */\n  sub\n    /* \"#utility.yul\":7738:7822   */\n  tag_145\n  jumpi\n    /* \"#utility.yul\":7794:7812   */\n  tag_146\n  tag_45\n  jump\t// in\ntag_146:\n    /* \"#utility.yul\":7738:7822   */\ntag_145:\n    /* \"#utility.yul\":7559:7828   */\n  pop\n    /* \"#utility.yul\":7508:7828   */\n  swap2\n  swap1\n  pop\n  jump\t// out\n    /* \"#utility.yul\":7834:7975   */\ntag_47:\n    /* \"#utility.yul\":7883:7887   */\n  0x00\n    /* \"#utility.yul\":7906:7909   */\n  dup2\n    /* \"#utility.yul\":7898:7909   */\n  swap1\n  pop\n    /* \"#utility.yul\":7929:7932   */\n  dup2\n    /* \"#utility.yul\":7926:7927   */\n  0x00\n    /* \"#utility.yul\":7919:7933   */\n  mstore\n    /* \"#utility.yul\":7963:7967   */\n  0x20\n    /* \"#utility.yul\":7960:7961   */\n  0x00\n    /* \"#utility.yul\":7950:7968   */\n  keccak256\n    /* \"#utility.yul\":7942:7968   */\n  swap1\n  pop\n    /* \"#utility.yul\":7834:7975   */\n  swap2\n  swap1\n  pop\n  jump\t// out\n    /* \"#utility.yul\":7981:8074   */\ntag_48:\n    /* \"#utility.yul\":8018:8024   */\n  0x00\n    /* \"#utility.yul\":8065:8067   */\n  0x20\n    /* \"#utility.yul\":8060:8062   */\n  0x1f\n    /* \"#utility.yul\":8053:8058   */\n  dup4\n    /* \"#utility.yul\":8049:8063   */\n  add\n    /* \"#utility.yul\":8045:8068   */\n  div\n    /* \"#utility.yul\":8035:8068   */\n  swap1\n  pop\n    /* \"#utility.yul\":7981:8074   */\n  swap2\n  swap1\n  pop\n  jump\t// out\n    /* \"#utility.yul\":8080:8187   */\ntag_49:\n    /* \"#utility.yul\":8124:8132   */\n  0x00\n    /* \"#utility.yul\":8174:8179   */\n  dup3\n    /* \"#utility.yul\":8168:8172   */\n  dup3\n    /* \"#utility.yul\":8164:8180   */\n  shl\n    /* \"#utility.yul\":8143:8180   */\n  swap1\n  pop\n    /* \"#utility.yul\":8080:8187   */\n  swap3\n  swap2\n  pop\n  pop\n  jump\t// out\n    /* \"#utility.yul\":8193:8586   */\ntag_50:\n    /* \"#utility.yul\":8262:8268   */\n  0x00\n    /* \"#utility.yul\":8312:8313   */\n  0x08\n    /* \"#utility.yul\":8300:8310   */\n  dup4\n    /* \"#utility.yul\":8296:8314   */\n  mul\n    /* \"#utility.yul\":8335:8432   */\n  tag_151\n    /* \"#utility.yul\":8365:8431   */\n  0xffffffffffffffffffffffffffffffffffffffffffffffffffffffffffffffff\n    /* \"#utility.yul\":8354:8363   */\n  dup3\n    /* \"#utility.yul\":8335:8432   */\n  tag_49\n  jump\t// in\ntag_151:\n    /* \"#utility.yul\":8453:8492   */\n  tag_152\n    /* \"#utility.yul\":8483:8491   */\n  dup7\n    /* \"#utility.yul\":8472:8481   */\n  dup4\n    /* \"#utility.yul\":8453:8492   */\n  tag_49\n  jump\t// in\ntag_152:\n    /* \"#utility.yul\":8441:8492   */\n  swap6\n  pop\n    /* \"#utility.yul\":8525:8529   */\n  dup1\n    /* \"#utility.yul\":8521:8530   */\n  not\n    /* \"#utility.yul\":8514:8519   */\n  dup5\n    /* \"#utility.yul\":8510:8531   */\n  and\n    /* \"#utility.yul\":8501:8531   */\n  swap4\n  pop\n    /* \"#utility.yul\":8574:8578   */\n  dup1\n    /* \"#utility.yul\":8564:8572   */\n  dup7\n    /* \"#utility.yul\":8560:8579   */\n  and\n    /* \"#utility.yul\":8553:8558   */\n  dup5\n    /* \"#utility.yul\":8550:8580   */\n  or\n    /* \"#utility.yul\":8540:8580   */\n  swap3\n  pop\n    /* \"#utility.yul\":8269:8586   */\n  pop\n  pop\n    /* \"#utility.yul\":8193:8586   */\n  swap4\n  swap3\n  pop\n  pop\n  pop\n  jump\t// out\n    /* \"#utility.yul\":8592:8652   */\ntag_51:\n    /* \"#utility.yul\":8620:8623   */\n  0x00\n    /* \"#utility.yul\":8641:8646   */\n  dup2\n    /* \"#utility.yul\":8634:8646   */\n  swap1\n  pop\n    /* \"#utility.yul\":8592:8652   */\n  swap2\n  swap1\n  pop\n  jump\t// out\n    /* \"#utility.yul\":8658:8800   */\ntag_52:\n    /* \"#utility.yul\":8708:8717   */\n  0x00\n    /* \"#utility.yul\":8741:8794   */\n  tag_155\n    /* \"#utility.yul\":8759:8793   */\n  tag_156\n    /* \"#utility.yul\":8768:8792   */\n  tag_157\n    /* \"#utility.yul\":8786:8791   */\n  dup5\n    /* \"#utility.yul\":8768:8792   */\n  tag_38\n  jump\t// in\ntag_157:\n    /* \"#utility.yul\":8759:8793   */\n  tag_51\n  jump\t// in\ntag_156:\n    /* \"#utility.yul\":8741:8794   */\n  tag_38\n  jump\t// in\ntag_155:\n    /* \"#utility.yul\":8728:8794   */\n  swap1\n  pop\n    /* \"#utility.yul\":8658:8800   */\n  swap2\n  swap1\n  pop\n  jump\t// out\n    /* \"#utility.yul\":8806:8881   */\ntag_53:\n    /* \"#utility.yul\":8849:8852   */\n  0x00\n    /* \"#utility.yul\":8870:8875   */\n  dup2\n    /* \"#utility.yul\":8863:8875   */\n  swap1\n  pop\n    /* \"#utility.yul\":8806:8881   */\n  swap2\n  swap1\n  pop\n  jump\t// out\n    /* \"#utility.yul\":8887:9156   */\ntag_54:\n    /* \"#utility.yul\":8997:9036   */\n  tag_160\n    /* \"#utility.yul\":9028:9035   */\n  dup4\n    /* \"#utility.yul\":8997:9036   */\n  tag_52\n  jump\t// in\ntag_160:\n    /* \"#utility.yul\":9058:9149   */\n  tag_161\n    /* \"#utility.yul\":9107:9148   */\n  tag_162\n    /* \"#utility.yul\":9131:9147   */\n  dup3\n    /* \"#utility.yul\":9107:9148   */\n  tag_53\n  jump\t// in\ntag_162:\n    /* \"#utility.yul\":9099:9105   */\n  dup5\n    /* \"#utility.yul\":9092:9096   */\n  dup5\n    /* \"#utility.yul\":9086:9097   */\n  sload\n    /* \"#utility.yul\":9058:9149   */\n  tag_50\n  jump\t// in\ntag_161:\n    /* \"#utility.yul\":9052:9056   */\n  dup3\n    /* \"#utility.yul\":9045:9150   */\n  sstore\n    /* \"#utility.yul\":8963:9156   */\n  pop\n    /* \"#utility.yul\":8887:9156   */\n  pop\n  pop\n  pop\n  jump\t// out\n    /* \"#utility.yul\":9162:9235   */\ntag_55:\n    /* \"#utility.yul\":9207:9210   */\n  0x00\n    /* \"#utility.yul\":9162:9235   */\n  swap1\n  jump\t// out\n    /* \"#utility.yul\":9241:9430   */\ntag_56:\n    /* \"#utility.yul\":9318:9350   */\n  tag_165\n  tag_55\n  jump\t// in\ntag_165:\n    /* \"#utility.yul\":9359:9424   */\n  tag_166\n    /* \"#utility.yul\":9417:9423   */\n  dup2\n    /* \"#utility.yul\":9409:9415   */\n  dup5\n    /* \"#utility.yul\":9403:9407   */\n  dup5\n    /* \"#utility.yul\":9359:9424   */\n  tag_54\n  jump\t// in\ntag_166:\n    /* \"#utility.yul\":9294:9430   */\n  pop\n    /* \"#utility.yul\":9241:9430   */\n  pop\n  pop\n  jump\t// out\n    /* \"#utility.yul\":9436:9622   */\ntag_57:\n    /* \"#utility.yul\":9496:9616   */\ntag_168:\n    /* \"#utility.yul\":9513:9516   */\n  dup2\n    /* \"#utility.yul\":9506:9511   */\n  dup2\n    /* \"#utility.yul\":9503:9517   */\n  lt\n    /* \"#utility.yul\":9496:9616   */\n  iszero\n  tag_170\n  jumpi\n    /* \"#utility.yul\":9567:9606   */\n  tag_171\n    /* \"#utility.yul\":9604:9605   */\n  0x00\n    /* \"#utility.yul\":9597:9602   */\n  dup3\n    /* \"#utility.yul\":9567:9606   */\n  tag_56\n  jump\t// in\ntag_171:\n    /* \"#utility.yul\":9540:9541   */\n  0x01\n    /* \"#utility.yul\":9533:9538   */\n  dup2\n    /* \"#utility.yul\":9529:9542   */\n  add\n    /* \"#utility.yul\":9520:9542   */\n  swap1\n  pop\n    /* \"#utility.yul\":9496:9616   */\n  jump(tag_168)\ntag_170:\n    /* \"#utility.yul\":9436:9622   */\n  pop\n  pop\n  jump\t// out\n    /* \"#utility.yul\":9628:10171   */\ntag_58:\n    /* \"#utility.yul\":9729:9731   */\n  0x1f\n    /* \"#utility.yul\":9724:9727   */\n  dup3\n    /* \"#utility.yul\":9721:9732   */\n  gt\n    /* \"#utility.yul\":9718:10164   */\n  iszero\n  tag_173\n  jumpi\n    /* \"#utility.yul\":9763:9801   */\n  tag_174\n    /* \"#utility.yul\":9795:9800   */\n  dup2\n    /* \"#utility.yul\":9763:9801   */\n  tag_47\n  jump\t// in\ntag_174:\n    /* \"#utility.yul\":9847:9876   */\n  tag_175\n    /* \"#utility.yul\":9865:9875   */\n  dup5\n    /* \"#utility.yul\":9847:9876   */\n  tag_48\n  jump\t// in\ntag_175:\n    /* \"#utility.yul\":9837:9845   */\n  dup2\n    /* \"#utility.yul\":9833:9877   */\n  add\n    /* \"#utility.yul\":10030:10032   */\n  0x20\n    /* \"#utility.yul\":10018:10028   */\n  dup6\n    /* \"#utility.yul\":10015:10033   */\n  lt\n    /* \"#utility.yul\":10012:10061   */\n  iszero\n  tag_176\n  jumpi\n    /* \"#utility.yul\":10051:10059   */\n  dup2\n    /* \"#utility.yul\":10036:10059   */\n  swap1\n  pop\n    /* \"#utility.yul\":10012:10061   */\ntag_176:\n    /* \"#utility.yul\":10074:10154   */\n  tag_177\n    /* \"#utility.yul\":10130:10152   */\n  tag_178\n    /* \"#utility.yul\":10148:10151   */\n  dup6\n    /* \"#utility.yul\":10130:10152   */\n  tag_48\n  jump\t// in\ntag_178:\n    /* \"#utility.yul\":10120:10128   */\n  dup4\n    /* \"#utility.yul\":10116:10153   */\n  add\n    /* \"#utility.yul\":10103:10114   */\n  dup3\n    /* \"#utility.yul\":10074:10154   */\n  tag_57\n  jump\t// in\ntag_177:\n    /* \"#utility.yul\":9733:10164   */\n  pop\n  pop\n    /* \"#utility.yul\":9718:10164   */\ntag_173:\n    /* \"#utility.yul\":9628:10171   */\n  pop\n  pop\n  pop\n  jump\t// out\n    /* \"#utility.yul\":10177:10294   */\ntag_59:\n    /* \"#utility.yul\":10231:10239   */\n  0x00\n    /* \"#utility.yul\":10281:10286   */\n  dup3\n    /* \"#utility.yul\":10275:10279   */\n  dup3\n    /* \"#utility.yul\":10271:10287   */\n  shr\n    /* \"#utility.yul\":10250:10287   */\n  swap1\n  pop\n    /* \"#utility.yul\":10177:10294   */\n  swap3\n  swap2\n  pop\n  pop\n  jump\t// out\n    /* \"#utility.yul\":10300:10469   */\ntag_60:\n    /* \"#utility.yul\":10344:10350   */\n  0x00\n    /* \"#utility.yul\":10377:10428   */\n  tag_181\n    /* \"#utility.yul\":10425:10426   */\n  0x00\n    /* \"#utility.yul\":10421:10427   */\n  not\n    /* \"#utility.yul\":10413:10418   */\n  dup5\n    /* \"#utility.yul\":10410:10411   */\n  0x08\n    /* \"#utility.yul\":10406:10419   */\n  mul\n    /* \"#utility.yul\":10377:10428   */\n  tag_59\n  jump\t// in\ntag_181:\n    /* \"#utility.yul\":10373:10429   */\n  not\n    /* \"#utility.yul\":10458:10462   */\n  dup1\n    /* \"#utility.yul\":10452:10456   */\n  dup4\n    /* \"#utility.yul\":10448:10463   */\n  and\n    /* \"#utility.yul\":10438:10463   */\n  swap2\n  pop\n    /* \"#utility.yul\":10351:10469   */\n  pop\n    /* \"#utility.yul\":10300:10469   */\n  swap3\n  swap2\n  pop\n  pop\n  jump\t// out\n    /* \"#utility.yul\":10474:10769   */\ntag_61:\n    /* \"#utility.yul\":10550:10554   */\n  0x00\n    /* \"#utility.yul\":10696:10725   */\n  tag_183\n    /* \"#utility.yul\":10721:10724   */\n  dup4\n    /* \"#utility.yul\":10715:10719   */\n  dup4\n    /* \"#utility.yul\":10696:10725   */\n  tag_60\n  jump\t// in\ntag_183:\n    /* \"#utility.yul\":10688:10725   */\n  swap2\n  pop\n    /* \"#utility.yul\":10758:10761   */\n  dup3\n    /* \"#utility.yul\":10755:10756   */\n  0x02\n    /* \"#utility.yul\":10751:10762   */\n  mul\n    /* \"#utility.yul\":10745:10749   */\n  dup3\n    /* \"#utility.yul\":10742:10763   */\n  or\n    /* \"#utility.yul\":10734:10763   */\n  swap1\n  pop\n    /* \"#utility.yul\":10474:10769   */\n  swap3\n  swap2\n  pop\n  pop\n  jump\t// out\n    /* \"#utility.yul\":10774:12169   */\ntag_16:\n    /* \"#utility.yul\":10891:10928   */\n  tag_185\n    /* \"#utility.yul\":10924:10927   */\n  dup3\n    /* \"#utility.yul\":10891:10928   */\n  tag_44\n  jump\t// in\ntag_185:\n    /* \"#utility.yul\":10993:11011   */\n  0xffffffffffffffff\n    /* \"#utility.yul\":10985:10991   */\n  dup2\n    /* \"#utility.yul\":10982:11012   */\n  gt\n    /* \"#utility.yul\":10979:11035   */\n  iszero\n  tag_186\n  jumpi\n    /* \"#utility.yul\":11015:11033   */\n  tag_187\n  tag_26\n  jump\t// in\ntag_187:\n    /* \"#utility.yul\":10979:11035   */\ntag_186:\n    /* \"#utility.yul\":11059:11097   */\n  tag_188\n    /* \"#utility.yul\":11091:11095   */\n  dup3\n    /* \"#utility.yul\":11085:11096   */\n  sload\n    /* \"#utility.yul\":11059:11097   */\n  tag_46\n  jump\t// in\ntag_188:\n    /* \"#utility.yul\":11144:11211   */\n  tag_189\n    /* \"#utility.yul\":11204:11210   */\n  dup3\n    /* \"#utility.yul\":11196:11202   */\n  dup3\n    /* \"#utility.yul\":11190:11194   */\n  dup6\n    /* \"#utility.yul\":11144:11211   */\n  tag_58\n  jump\t// in\ntag_189:\n    /* \"#utility.yul\":11238:11239   */\n  0x00\n    /* \"#utility.yul\":11262:11266   */\n  0x20\n    /* \"#utility.yul\":11249:11266   */\n  swap1\n  pop\n    /* \"#utility.yul\":11294:11296   */\n  0x1f\n    /* \"#utility.yul\":11286:11292   */\n  dup4\n    /* \"#utility.yul\":11283:11297   */\n  gt\n    /* \"#utility.yul\":11311:11312   */\n  0x01\n    /* \"#utility.yul\":11306:11924   */\n  dup2\n  eq\n  tag_191\n  jumpi\n    /* \"#utility.yul\":11968:11969   */\n  0x00\n    /* \"#utility.yul\":11985:11991   */\n  dup5\n    /* \"#utility.yul\":11982:12059   */\n  iszero\n  tag_192\n  jumpi\n    /* \"#utility.yul\":12034:12043   */\n  dup3\n    /* \"#utility.yul\":12029:12032   */\n  dup8\n    /* \"#utility.yul\":12025:12044   */\n  add\n    /* \"#utility.yul\":12019:12045   */\n  mload\n    /* \"#utility.yul\":12010:12045   */\n  swap1\n  pop\n    /* \"#utility.yul\":11982:12059   */\ntag_192:\n    /* \"#utility.yul\":12085:12152   */\n  tag_193\n    /* \"#utility.yul\":12145:12151   */\n  dup6\n    /* \"#utility.yul\":12138:12143   */\n  dup3\n    /* \"#utility.yul\":12085:12152   */\n  tag_61\n  jump\t// in\ntag_193:\n    /* \"#utility.yul\":12079:12083   */\n  dup7\n    /* \"#utility.yul\":12072:12153   */\n  sstore\n    /* \"#utility.yul\":11941:12163   */\n  pop\n    /* \"#utility.yul\":11276:12163   */\n  jump(tag_190)\n    /* \"#utility.yul\":11306:11924   */\ntag_191:\n    /* \"#utility.yul\":11358:11362   */\n  0x1f\n    /* \"#utility.yul\":11354:11363   */\n  not\n    /* \"#utility.yul\":11346:11352   */\n  dup5\n    /* \"#utility.yul\":11342:11364   */\n  and\n    /* \"#utility.yul\":11392:11429   */\n  tag_194\n    /* \"#utility.yul\":11424:11428   */\n  dup7\n    /* \"#utility.yul\":11392:11429   */\n  tag_47\n  jump\t// in\ntag_194:\n    /* \"#utility.yul\":11451:11452   */\n  0x00\n    /* \"#utility.yul\":11465:11673   */\ntag_195:\n    /* \"#utility.yul\":11479:11486   */\n  dup3\n    /* \"#utility.yul\":11476:11477   */\n  dup2\n    /* \"#utility.yul\":11473:11487   */\n  lt\n    /* \"#utility.yul\":11465:11673   */\n  iszero\n  tag_197\n  jumpi\n    /* \"#utility.yul\":11558:11567   */\n  dup5\n    /* \"#utility.yul\":11553:11556   */\n  dup10\n    /* \"#utility.yul\":11549:11568   */\n  add\n    /* \"#utility.yul\":11543:11569   */\n  mload\n    /* \"#utility.yul\":11535:11541   */\n  dup3\n    /* \"#utility.yul\":11528:11570   */\n  sstore\n    /* \"#utility.yul\":11609:11610   */\n  0x01\n    /* \"#utility.yul\":11601:11607   */\n  dup3\n    /* \"#utility.yul\":11597:11611   */\n  add\n    /* \"#utility.yul\":11587:11611   */\n  swap2\n  pop\n    /* \"#utility.yul\":11656:11658   */\n  0x20\n    /* \"#utility.yul\":11645:11654   */\n  dup6\n    /* \"#utility.yul\":11641:11659   */\n  add\n    /* \"#utility.yul\":11628:11659   */\n  swap5\n  pop\n    /* \"#utility.yul\":11502:11506   */\n  0x20\n    /* \"#utility.yul\":11499:11500   */\n  dup2\n    /* \"#utility.yul\":11495:11507   */\n  add\n    /* \"#utility.yul\":11490:11507   */\n  swap1\n  pop\n    /* \"#utility.yul\":11465:11673   */\n  jump(tag_195)\ntag_197:\n    /* \"#utility.yul\":11701:11707   */\n  dup7\n    /* \"#utility.yul\":11692:11699   */\n  dup4\n    /* \"#utility.yul\":11689:11708   */\n  lt\n    /* \"#utility.yul\":11686:11865   */\n  iszero\n  tag_198\n  jumpi\n    /* \"#utility.yul\":11759:11768   */\n  dup5\n    /* \"#utility.yul\":11754:11757   */\n  dup10\n    /* \"#utility.yul\":11750:11769   */\n  add\n    /* \"#utility.yul\":11744:11770   */\n  mload\n    /* \"#utility.yul\":11802:11850   */\n  tag_199\n    /* \"#utility.yul\":11844:11848   */\n  0x1f\n    /* \"#utility.yul\":11836:11842   */\n  dup10\n    /* \"#utility.yul\":11832:11849   */\n  and\n    /* \"#utility.yul\":11821:11830   */\n  dup3\n    /* \"#utility.yul\":11802:11850   */\n  tag_60\n  jump\t// in\ntag_199:\n    /* \"#utility.yul\":11794:11800   */\n  dup4\n    /* \"#utility.yul\":11787:11851   */\n  sstore\n    /* \"#utility.yul\":11709:11865   */\n  pop\n    /* \"#utility.yul\":11686:11865   */\ntag_198:\n    /* \"#utility.yul\":11911:11912   */\n  0x01\n    /* \"#utility.yul\":11907:11908   */\n  0x02\n    /* \"#utility.yul\":11899:11905   */\n  dup9\n    /* \"#utility.yul\":11895:11909   */\n  mul\n    /* \"#utility.yul\":11891:11913   */\n  add\n    /* \"#utility.yul\":11885:11889   */\n  dup9\n    /* \"#utility.yul\":11878:11914   */\n  sstore\n    /* \"#utility.yul\":11313:11924   */\n  pop\n  pop\n  pop\n    /* \"#utility.yul\":11276:12163   */\ntag_190:\n  pop\n    /* \"#utility.yul\":10866:12169   */\n  pop\n  pop\n  pop\n    /* \"#utility.yul\":10774:12169   */\n  pop\n  pop\n  jump\t// out\n    /* \"#utility.yul\":12175:12355   */\ntag_62:\n    /* \"#utility.yul\":12223:12300   */\n  0x4e487b7100000000000000000000000000000000000000000000000000000000\n    /* \"#utility.yul\":12220:12221   */\n  0x00\n    /* \"#utility.yul\":12213:12301   */\n  mstore\n    /* \"#utility.yul\":12320:12324   */\n  0x11\n    /* \"#utility.yul\":12317:12318   */\n  0x04\n    /* \"#utility.yul\":12310:12325   */\n  mstore\n    /* \"#utility.yul\":12344:12348   */\n  0x24\n    /* \"#utility.yul\":12341:12342   */\n  0x00\n    /* \"#utility.yul\":12334:12349   */\n  revert\n    /* \"#utility.yul\":12361:12594   */\ntag_19:\n    /* \"#utility.yul\":12400:12403   */\n  0x00\n    /* \"#utility.yul\":12423:12447   */\n  tag_202\n    /* \"#utility.yul\":12441:12446   */\n  dup3\n    /* \"#utility.yul\":12423:12447   */\n  tag_38\n  jump\t// in\ntag_202:\n    /* \"#utility.yul\":12414:12447   */\n  swap2\n  pop\n    /* \"#utility.yul\":12469:12535   */\n  0xffffffffffffffffffffffffffffffffffffffffffffffffffffffffffffffff\n    /* \"#utility.yul\":12462:12467   */\n  dup3\n    /* \"#utility.yul\":12459:12536   */\n  sub\n    /* \"#utility.yul\":12456:12559   */\n  tag_203\n  jumpi\n    /* \"#utility.yul\":12539:12557   */\n  tag_204\n  tag_62\n  jump\t// in\ntag_204:\n    /* \"#utility.yul\":12456:12559   */\ntag_203:\n    /* \"#utility.yul\":12586:12587   */\n  0x01\n    /* \"#utility.yul\":12579:12584   */\n  dup3\n    /* \"#utility.yul\":12575:12588   */\n  add\n    /* \"#utility.yul\":12568:12588   */\n  swap1\n  pop\n    /* \"#utility.yul\":12361:12594   */\n  swap2\n  swap1\n  pop\n  jump\t// out\n    /* \"contracts/Ballot/Ballot.sol\":70:5284  contract MyBallot {... */\ntag_20:\n  dataSize(sub_0)\n  dup1\n  dataOffset(sub_0)\n  0x00\n  codecopy\n  0x00\n  return\nstop\n\nsub_0: assembly {\n        /* \"contracts/Ballot/Ballot.sol\":70:5284  contract MyBallot {... */\n      mstore(0x40, 0x80)\n      callvalue\n      dup1\n      iszero\n      tag_1\n      jumpi\n      0x00\n      dup1\n      revert\n    tag_1:\n      pop\n      jumpi(tag_2, lt(calldatasize, 0x04))\n      shr(0xe0, calldataload(0x00))\n      dup1\n      0x954115f2\n      gt\n      tag_21\n      jumpi\n      dup1\n      0xda265430\n      gt\n      tag_22\n      jumpi\n      dup1\n      0xda265430\n      eq\n      tag_16\n      jumpi\n      dup1\n      0xdf703622\n      eq\n      tag_17\n      jumpi\n      dup1\n      0xf0ee4577\n      eq\n      tag_18\n      jumpi\n      dup1\n      0xf927cc29\n      eq\n      tag_19\n      jumpi\n      dup1\n      0xfc36e15b\n      eq\n      tag_20\n      jumpi\n      jump(tag_2)\n    tag_22:\n      dup1\n      0x954115f2\n      eq\n      tag_12\n      jumpi\n      dup1\n      0x9e7b8d61\n      eq\n      tag_13\n      jumpi\n      dup1\n      0xa3ec138d\n      eq\n      tag_14\n      jumpi\n      dup1\n      0xce606ee0\n      eq\n      tag_15\n      jumpi\n      jump(tag_2)\n    tag_21:\n      dup1\n      0x32a2c5d0\n      gt\n      tag_23\n      jumpi\n      dup1\n      0x32a2c5d0\n      eq\n      tag_7\n      jumpi\n      dup1\n      0x3477ee2e\n      eq\n      tag_8\n      jumpi\n      dup1\n      0x3ddf3822\n      eq\n      tag_9\n      jumpi\n      dup1\n      0x4aba5f34\n      eq\n      tag_10\n      jumpi\n      dup1\n      0x94b04e7d\n      eq\n      tag_11\n      jumpi\n      jump(tag_2)\n    tag_23:\n      dup1\n      0x01c5556a\n      eq\n      tag_3\n      jumpi\n      dup1\n      0x0d15fd77\n      eq\n      tag_4\n      jumpi\n      dup1\n      0x10508439\n      eq\n      tag_5\n      jumpi\n      dup1\n      0x2bfda515\n      eq\n      tag_6\n      jumpi\n    tag_2:\n      0x00\n      dup1\n      revert\n        /* \"contracts/Ballot/Ballot.sol\":4220:4449  function calculateAmountOfTotalVotes() public view returns (uint total) {... */\n    tag_3:\n      tag_24\n      tag_25\n      jump\t// in\n    tag_24:\n      mload(0x40)\n      tag_26\n      swap2\n      swap1\n      tag_27\n      jump\t// in\n    tag_26:\n      mload(0x40)\n      dup1\n      swap2\n      sub\n      swap1\n      return\n        /* \"contracts/Ballot/Ballot.sol\":400:422  uint public totalVotes */\n    tag_4:\n      tag_28\n      tag_29\n      jump\t// in\n    tag_28:\n      mload(0x40)\n      tag_30\n      swap2\n      swap1\n      tag_27\n      jump\t// in\n    tag_30:\n      mload(0x40)\n      dup1\n      swap2\n      sub\n      swap1\n      return\n        /* \"contracts/Ballot/Ballot.sol\":1822:2080  function addCandidateWithSpreadParameters(string memory name, string memory party) public isContractOwnerAddCandidate() {... */\n    tag_5:\n      tag_31\n      0x04\n      dup1\n      calldatasize\n      sub\n      dup2\n      add\n      swap1\n      tag_32\n      swap2\n      swap1\n      tag_33\n      jump\t// in\n    tag_32:\n      tag_34\n      jump\t// in\n    tag_31:\n      stop\n        /* \"contracts/Ballot/Ballot.sol\":3079:3375  function getWinnerName() public view returns (string memory winnerName) {... */\n    tag_6:\n      tag_35\n      tag_36\n      jump\t// in\n    tag_35:\n      mload(0x40)\n      tag_37\n      swap2\n      swap1\n      tag_38\n      jump\t// in\n    tag_37:\n      mload(0x40)\n      dup1\n      swap2\n      sub\n      swap1\n      return\n        /* \"contracts/Ballot/Ballot.sol\":4113:4212  function getContractAddress() public view returns (address) {... */\n    tag_7:\n      tag_39\n      tag_40\n      jump\t// in\n    tag_39:\n      mload(0x40)\n      tag_41\n      swap2\n      swap1\n      tag_42\n      jump\t// in\n    tag_41:\n      mload(0x40)\n      dup1\n      swap2\n      sub\n      swap1\n      return\n        /* \"contracts/Ballot/Ballot.sol\":362:391  Candidate[] public candidates */\n    tag_8:\n      tag_43\n      0x04\n      dup1\n      calldatasize\n      sub\n      dup2\n      add\n      swap1\n      tag_44\n      swap2\n      swap1\n      tag_45\n      jump\t// in\n    tag_44:\n      tag_46\n      jump\t// in\n    tag_43:\n      mload(0x40)\n      tag_47\n      swap4\n      swap3\n      swap2\n      swap1\n      tag_48\n      jump\t// in\n    tag_47:\n      mload(0x40)\n      dup1\n      swap2\n      sub\n      swap1\n      return\n        /* \"contracts/Ballot/Ballot.sol\":4457:4568  function areYouContractOwner() public view returns (bool) {... */\n    tag_9:\n      tag_49\n      tag_50\n      jump\t// in\n    tag_49:\n      mload(0x40)\n      tag_51\n      swap2\n      swap1\n      tag_52\n      jump\t// in\n    tag_51:\n      mload(0x40)\n      dup1\n      swap2\n      sub\n      swap1\n      return\n        /* \"contracts/Ballot/Ballot.sol\":3999:4105  function getCandidatesList() public view returns (Candidate[] memory) {... */\n    tag_10:\n      tag_53\n      tag_54\n      jump\t// in\n    tag_53:\n      mload(0x40)\n      tag_55\n      swap2\n      swap1\n      tag_56\n      jump\t// in\n    tag_55:\n      mload(0x40)\n      dup1\n      swap2\n      sub\n      swap1\n      return\n        /* \"contracts/Ballot/Ballot.sol\":4701:4833  function getVoterRigthToVote(address voterAddress) public view returns (bool) {... */\n    tag_11:\n      tag_57\n      0x04\n      dup1\n      calldatasize\n      sub\n      dup2\n      add\n      swap1\n      tag_58\n      swap2\n      swap1\n      tag_59\n      jump\t// in\n    tag_58:\n      tag_60\n      jump\t// in\n    tag_57:\n      mload(0x40)\n      tag_61\n      swap2\n      swap1\n      tag_52\n      jump\t// in\n    tag_61:\n      mload(0x40)\n      dup1\n      swap2\n      sub\n      swap1\n      return\n        /* \"contracts/Ballot/Ballot.sol\":2254:2400  function addCandidateAsStruct(Candidate memory newCandidate) public isContractOwnerAddCandidate() {... */\n    tag_12:\n      tag_62\n      0x04\n      dup1\n      calldatasize\n      sub\n      dup2\n      add\n      swap1\n      tag_63\n      swap2\n      swap1\n      tag_64\n      jump\t// in\n    tag_63:\n      tag_65\n      jump\t// in\n    tag_62:\n      stop\n        /* \"contracts/Ballot/Ballot.sol\":2412:2558  function giveRightToVote(address voterAddress) public giveRightToVoteModifier(voterAddress) {... */\n    tag_13:\n      tag_66\n      0x04\n      dup1\n      calldatasize\n      sub\n      dup2\n      add\n      swap1\n      tag_67\n      swap2\n      swap1\n      tag_59\n      jump\t// in\n    tag_67:\n      tag_68\n      jump\t// in\n    tag_66:\n      stop\n        /* \"contracts/Ballot/Ballot.sol\":314:353  mapping(address => Voter) public voters */\n    tag_14:\n      tag_69\n      0x04\n      dup1\n      calldatasize\n      sub\n      dup2\n      add\n      swap1\n      tag_70\n      swap2\n      swap1\n      tag_59\n      jump\t// in\n    tag_70:\n      tag_71\n      jump\t// in\n    tag_69:\n      mload(0x40)\n      tag_72\n      swap3\n      swap2\n      swap1\n      tag_73\n      jump\t// in\n    tag_72:\n      mload(0x40)\n      dup1\n      swap2\n      sub\n      swap1\n      return\n        /* \"contracts/Ballot/Ballot.sol\":277:305  address public contractOwner */\n    tag_15:\n      tag_74\n      tag_75\n      jump\t// in\n    tag_74:\n      mload(0x40)\n      tag_76\n      swap2\n      swap1\n      tag_42\n      jump\t// in\n    tag_76:\n      mload(0x40)\n      dup1\n      swap2\n      sub\n      swap1\n      return\n        /* \"contracts/Ballot/Ballot.sol\":4841:4942  function areYouVoted() public view returns (bool) {... */\n    tag_16:\n      tag_77\n      tag_78\n      jump\t// in\n    tag_77:\n      mload(0x40)\n      tag_79\n      swap2\n      swap1\n      tag_52\n      jump\t// in\n    tag_79:\n      mload(0x40)\n      dup1\n      swap2\n      sub\n      swap1\n      return\n        /* \"contracts/Ballot/Ballot.sol\":4576:4693  function areYouHaveRigthToVote() public view returns (bool) {... */\n    tag_17:\n      tag_80\n      tag_81\n      jump\t// in\n    tag_80:\n      mload(0x40)\n      tag_82\n      swap2\n      swap1\n      tag_52\n      jump\t// in\n    tag_82:\n      mload(0x40)\n      dup1\n      swap2\n      sub\n      swap1\n      return\n        /* \"contracts/Ballot/Ballot.sol\":4950:5077  function getVoterVoter(address voterAddress) public view returns (bool) {... */\n    tag_18:\n      tag_83\n      0x04\n      dup1\n      calldatasize\n      sub\n      dup2\n      add\n      swap1\n      tag_84\n      swap2\n      swap1\n      tag_59\n      jump\t// in\n    tag_84:\n      tag_85\n      jump\t// in\n    tag_83:\n      mload(0x40)\n      tag_86\n      swap2\n      swap1\n      tag_52\n      jump\t// in\n    tag_86:\n      mload(0x40)\n      dup1\n      swap2\n      sub\n      swap1\n      return\n        /* \"contracts/Ballot/Ballot.sol\":3383:3991  function getWinningCandidate() public view returns (uint winningProposal, bool isTie) {        ... */\n    tag_19:\n      tag_87\n      tag_88\n      jump\t// in\n    tag_87:\n      mload(0x40)\n      tag_89\n      swap3\n      swap2\n      swap1\n      tag_90\n      jump\t// in\n    tag_89:\n      mload(0x40)\n      dup1\n      swap2\n      sub\n      swap1\n      return\n        /* \"contracts/Ballot/Ballot.sol\":2566:3071  function vote(string memory name) public voteModifier(msg.sender) {... */\n    tag_20:\n      tag_91\n      0x04\n      dup1\n      calldatasize\n      sub\n      dup2\n      add\n      swap1\n      tag_92\n      swap2\n      swap1\n      tag_93\n      jump\t// in\n    tag_92:\n      tag_94\n      jump\t// in\n    tag_91:\n      stop\n        /* \"contracts/Ballot/Ballot.sol\":4220:4449  function calculateAmountOfTotalVotes() public view returns (uint total) {... */\n    tag_25:\n        /* \"contracts/Ballot/Ballot.sol\":4280:4290  uint total */\n      0x00\n        /* \"contracts/Ballot/Ballot.sol\":4326:4336  uint index */\n      dup1\n        /* \"contracts/Ballot/Ballot.sol\":4339:4340  0 */\n      0x00\n        /* \"contracts/Ballot/Ballot.sol\":4326:4340  uint index = 0 */\n      swap1\n      pop\n        /* \"contracts/Ballot/Ballot.sol\":4321:4442  for (uint index = 0; index < candidates.length; index++) {... */\n    tag_96:\n        /* \"contracts/Ballot/Ballot.sol\":4350:4360  candidates */\n      0x02\n        /* \"contracts/Ballot/Ballot.sol\":4350:4367  candidates.length */\n      dup1\n      sload\n      swap1\n      pop\n        /* \"contracts/Ballot/Ballot.sol\":4342:4347  index */\n      dup2\n        /* \"contracts/Ballot/Ballot.sol\":4342:4367  index < candidates.length */\n      lt\n        /* \"contracts/Ballot/Ballot.sol\":4321:4442  for (uint index = 0; index < candidates.length; index++) {... */\n      iszero\n      tag_97\n      jumpi\n        /* \"contracts/Ballot/Ballot.sol\":4402:4412  candidates */\n      0x02\n        /* \"contracts/Ballot/Ballot.sol\":4413:4418  index */\n      dup2\n        /* \"contracts/Ballot/Ballot.sol\":4402:4419  candidates[index] */\n      dup2\n      sload\n      dup2\n      lt\n      tag_99\n      jumpi\n      tag_100\n      tag_101\n      jump\t// in\n    tag_100:\n    tag_99:\n      swap1\n      0x00\n      mstore\n      keccak256(0x00, 0x20)\n      swap1\n      0x03\n      mul\n      add\n        /* \"contracts/Ballot/Ballot.sol\":4402:4430  candidates[index].votesCount */\n      0x02\n      add\n      sload\n        /* \"contracts/Ballot/Ballot.sol\":4393:4430  total += candidates[index].votesCount */\n      dup3\n      tag_103\n      swap2\n      swap1\n      tag_104\n      jump\t// in\n    tag_103:\n      swap2\n      pop\n        /* \"contracts/Ballot/Ballot.sol\":4369:4376  index++ */\n      dup1\n      dup1\n      tag_105\n      swap1\n      tag_106\n      jump\t// in\n    tag_105:\n      swap2\n      pop\n      pop\n        /* \"contracts/Ballot/Ballot.sol\":4321:4442  for (uint index = 0; index < candidates.length; index++) {... */\n      jump(tag_96)\n    tag_97:\n      pop\n        /* \"contracts/Ballot/Ballot.sol\":4220:4449  function calculateAmountOfTotalVotes() public view returns (uint total) {... */\n      swap1\n      jump\t// out\n        /* \"contracts/Ballot/Ballot.sol\":400:422  uint public totalVotes */\n    tag_29:\n      sload(0x03)\n      dup2\n      jump\t// out\n        /* \"contracts/Ballot/Ballot.sol\":1822:2080  function addCandidateWithSpreadParameters(string memory name, string memory party) public isContractOwnerAddCandidate() {... */\n    tag_34:\n        /* \"contracts/Ballot/Ballot.sol\":971:992  areYouContractOwner() */\n      tag_108\n        /* \"contracts/Ballot/Ballot.sol\":971:990  areYouContractOwner */\n      tag_50\n        /* \"contracts/Ballot/Ballot.sol\":971:992  areYouContractOwner() */\n      jump\t// in\n    tag_108:\n        /* \"contracts/Ballot/Ballot.sol\":949:1063  require(... */\n      tag_109\n      jumpi\n      mload(0x40)\n      0x08c379a000000000000000000000000000000000000000000000000000000000\n      dup2\n      mstore\n      0x04\n      add\n      tag_110\n      swap1\n      tag_111\n      jump\t// in\n    tag_110:\n      mload(0x40)\n      dup1\n      swap2\n      sub\n      swap1\n      revert\n    tag_109:\n        /* \"contracts/Ballot/Ballot.sol\":1953:1963  candidates */\n      0x02\n        /* \"contracts/Ballot/Ballot.sol\":1969:2071  Candidate({... */\n      mload(0x40)\n      dup1\n      0x60\n      add\n      0x40\n      mstore\n      dup1\n        /* \"contracts/Ballot/Ballot.sol\":2000:2004  name */\n      dup5\n        /* \"contracts/Ballot/Ballot.sol\":1969:2071  Candidate({... */\n      dup2\n      mstore\n      0x20\n      add\n        /* \"contracts/Ballot/Ballot.sol\":2026:2031  party */\n      dup4\n        /* \"contracts/Ballot/Ballot.sol\":1969:2071  Candidate({... */\n      dup2\n      mstore\n      0x20\n      add\n        /* \"contracts/Ballot/Ballot.sol\":2058:2059  0 */\n      0x00\n        /* \"contracts/Ballot/Ballot.sol\":1969:2071  Candidate({... */\n      dup2\n      mstore\n      pop\n        /* \"contracts/Ballot/Ballot.sol\":1953:2072  candidates.push(Candidate({... */\n      swap1\n      dup1\n      0x01\n      dup2\n      sload\n      add\n      dup1\n      dup3\n      sstore\n      dup1\n      swap2\n      pop\n      pop\n      0x01\n      swap1\n      sub\n      swap1\n      0x00\n      mstore\n      keccak256(0x00, 0x20)\n      swap1\n      0x03\n      mul\n      add\n      0x00\n      swap1\n      swap2\n      swap1\n      swap2\n      swap1\n      swap2\n      pop\n      0x00\n      dup3\n      add\n      mload\n      dup2\n      0x00\n      add\n      swap1\n      dup2\n      tag_114\n      swap2\n      swap1\n      tag_115\n      jump\t// in\n    tag_114:\n      pop\n      0x20\n      dup3\n      add\n      mload\n      dup2\n      0x01\n      add\n      swap1\n      dup2\n      tag_116\n      swap2\n      swap1\n      tag_115\n      jump\t// in\n    tag_116:\n      pop\n      0x40\n      dup3\n      add\n      mload\n      dup2\n      0x02\n      add\n      sstore\n      pop\n      pop\n        /* \"contracts/Ballot/Ballot.sol\":1822:2080  function addCandidateWithSpreadParameters(string memory name, string memory party) public isContractOwnerAddCandidate() {... */\n      pop\n      pop\n      jump\t// out\n        /* \"contracts/Ballot/Ballot.sol\":3079:3375  function getWinnerName() public view returns (string memory winnerName) {... */\n    tag_36:\n        /* \"contracts/Ballot/Ballot.sol\":3125:3149  string memory winnerName */\n      0x60\n        /* \"contracts/Ballot/Ballot.sol\":3163:3183  uint winningProposal */\n      0x00\n        /* \"contracts/Ballot/Ballot.sol\":3185:3195  bool isTie */\n      dup1\n        /* \"contracts/Ballot/Ballot.sol\":3199:3220  getWinningCandidate() */\n      tag_118\n        /* \"contracts/Ballot/Ballot.sol\":3199:3218  getWinningCandidate */\n      tag_88\n        /* \"contracts/Ballot/Ballot.sol\":3199:3220  getWinningCandidate() */\n      jump\t// in\n    tag_118:\n        /* \"contracts/Ballot/Ballot.sol\":3162:3220  (uint winningProposal, bool isTie) = getWinningCandidate() */\n      swap2\n      pop\n      swap2\n      pop\n        /* \"contracts/Ballot/Ballot.sol\":3254:3259  isTie */\n      dup1\n        /* \"contracts/Ballot/Ballot.sol\":3253:3259  !isTie */\n      iszero\n        /* \"contracts/Ballot/Ballot.sol\":3231:3311  require(... */\n      tag_119\n      jumpi\n      mload(0x40)\n      0x08c379a000000000000000000000000000000000000000000000000000000000\n      dup2\n      mstore\n      0x04\n      add\n      tag_120\n      swap1\n      tag_121\n      jump\t// in\n    tag_120:\n      mload(0x40)\n      dup1\n      swap2\n      sub\n      swap1\n      revert\n    tag_119:\n        /* \"contracts/Ballot/Ballot.sol\":3335:3345  candidates */\n      0x02\n        /* \"contracts/Ballot/Ballot.sol\":3346:3361  winningProposal */\n      dup3\n        /* \"contracts/Ballot/Ballot.sol\":3335:3362  candidates[winningProposal] */\n      dup2\n      sload\n      dup2\n      lt\n      tag_122\n      jumpi\n      tag_123\n      tag_101\n      jump\t// in\n    tag_123:\n    tag_122:\n      swap1\n      0x00\n      mstore\n      keccak256(0x00, 0x20)\n      swap1\n      0x03\n      mul\n      add\n        /* \"contracts/Ballot/Ballot.sol\":3335:3367  candidates[winningProposal].name */\n      0x00\n      add\n        /* \"contracts/Ballot/Ballot.sol\":3322:3367  winnerName = candidates[winningProposal].name */\n      dup1\n      sload\n      tag_125\n      swap1\n      tag_126\n      jump\t// in\n    tag_125:\n      dup1\n      0x1f\n      add\n      0x20\n      dup1\n      swap2\n      div\n      mul\n      0x20\n      add\n      mload(0x40)\n      swap1\n      dup2\n      add\n      0x40\n      mstore\n      dup1\n      swap3\n      swap2\n      swap1\n      dup2\n      dup2\n      mstore\n      0x20\n      add\n      dup3\n      dup1\n      sload\n      tag_127\n      swap1\n      tag_126\n      jump\t// in\n    tag_127:\n      dup1\n      iszero\n      tag_128\n      jumpi\n      dup1\n      0x1f\n      lt\n      tag_129\n      jumpi\n      0x0100\n      dup1\n      dup4\n      sload\n      div\n      mul\n      dup4\n      mstore\n      swap2\n      0x20\n      add\n      swap2\n      jump(tag_128)\n    tag_129:\n      dup3\n      add\n      swap2\n      swap1\n      0x00\n      mstore\n      keccak256(0x00, 0x20)\n      swap1\n    tag_130:\n      dup2\n      sload\n      dup2\n      mstore\n      swap1\n      0x01\n      add\n      swap1\n      0x20\n      add\n      dup1\n      dup4\n      gt\n      tag_130\n      jumpi\n      dup3\n      swap1\n      sub\n      0x1f\n      and\n      dup3\n      add\n      swap2\n    tag_128:\n      pop\n      pop\n      pop\n      pop\n      pop\n      swap3\n      pop\n        /* \"contracts/Ballot/Ballot.sol\":3151:3375  {... */\n      pop\n      pop\n        /* \"contracts/Ballot/Ballot.sol\":3079:3375  function getWinnerName() public view returns (string memory winnerName) {... */\n      swap1\n      jump\t// out\n        /* \"contracts/Ballot/Ballot.sol\":4113:4212  function getContractAddress() public view returns (address) {... */\n    tag_40:\n        /* \"contracts/Ballot/Ballot.sol\":4164:4171  address */\n      0x00\n        /* \"contracts/Ballot/Ballot.sol\":4199:4203  this */\n      address\n        /* \"contracts/Ballot/Ballot.sol\":4184:4204  return address(this) */\n      swap1\n      pop\n        /* \"contracts/Ballot/Ballot.sol\":4113:4212  function getContractAddress() public view returns (address) {... */\n      swap1\n      jump\t// out\n        /* \"contracts/Ballot/Ballot.sol\":362:391  Candidate[] public candidates */\n    tag_46:\n      0x02\n      dup2\n      dup2\n      sload\n      dup2\n      lt\n      tag_132\n      jumpi\n      0x00\n      dup1\n      revert\n    tag_132:\n      swap1\n      0x00\n      mstore\n      keccak256(0x00, 0x20)\n      swap1\n      0x03\n      mul\n      add\n      0x00\n      swap2\n      pop\n      swap1\n      pop\n      dup1\n      0x00\n      add\n      dup1\n      sload\n      tag_134\n      swap1\n      tag_126\n      jump\t// in\n    tag_134:\n      dup1\n      0x1f\n      add\n      0x20\n      dup1\n      swap2\n      div\n      mul\n      0x20\n      add\n      mload(0x40)\n      swap1\n      dup2\n      add\n      0x40\n      mstore\n      dup1\n      swap3\n      swap2\n      swap1\n      dup2\n      dup2\n      mstore\n      0x20\n      add\n      dup3\n      dup1\n      sload\n      tag_135\n      swap1\n      tag_126\n      jump\t// in\n    tag_135:\n      dup1\n      iszero\n      tag_136\n      jumpi\n      dup1\n      0x1f\n      lt\n      tag_137\n      jumpi\n      0x0100\n      dup1\n      dup4\n      sload\n      div\n      mul\n      dup4\n      mstore\n      swap2\n      0x20\n      add\n      swap2\n      jump(tag_136)\n    tag_137:\n      dup3\n      add\n      swap2\n      swap1\n      0x00\n      mstore\n      keccak256(0x00, 0x20)\n      swap1\n    tag_138:\n      dup2\n      sload\n      dup2\n      mstore\n      swap1\n      0x01\n      add\n      swap1\n      0x20\n      add\n      dup1\n      dup4\n      gt\n      tag_138\n      jumpi\n      dup3\n      swap1\n      sub\n      0x1f\n      and\n      dup3\n      add\n      swap2\n    tag_136:\n      pop\n      pop\n      pop\n      pop\n      pop\n      swap1\n      dup1\n      0x01\n      add\n      dup1\n      sload\n      tag_139\n      swap1\n      tag_126\n      jump\t// in\n    tag_139:\n      dup1\n      0x1f\n      add\n      0x20\n      dup1\n      swap2\n      div\n      mul\n      0x20\n      add\n      mload(0x40)\n      swap1\n      dup2\n      add\n      0x40\n      mstore\n      dup1\n      swap3\n      swap2\n      swap1\n      dup2\n      dup2\n      mstore\n      0x20\n      add\n      dup3\n      dup1\n      sload\n      tag_140\n      swap1\n      tag_126\n      jump\t// in\n    tag_140:\n      dup1\n      iszero\n      tag_141\n      jumpi\n      dup1\n      0x1f\n      lt\n      tag_142\n      jumpi\n      0x0100\n      dup1\n      dup4\n      sload\n      div\n      mul\n      dup4\n      mstore\n      swap2\n      0x20\n      add\n      swap2\n      jump(tag_141)\n    tag_142:\n      dup3\n      add\n      swap2\n      swap1\n      0x00\n      mstore\n      keccak256(0x00, 0x20)\n      swap1\n    tag_143:\n      dup2\n      sload\n      dup2\n      mstore\n      swap1\n      0x01\n      add\n      swap1\n      0x20\n      add\n      dup1\n      dup4\n      gt\n      tag_143\n      jumpi\n      dup3\n      swap1\n      sub\n      0x1f\n      and\n      dup3\n      add\n      swap2\n    tag_141:\n      pop\n      pop\n      pop\n      pop\n      pop\n      swap1\n      dup1\n      0x02\n      add\n      sload\n      swap1\n      pop\n      dup4\n      jump\t// out\n        /* \"contracts/Ballot/Ballot.sol\":4457:4568  function areYouContractOwner() public view returns (bool) {... */\n    tag_50:\n        /* \"contracts/Ballot/Ballot.sol\":4509:4513  bool */\n      0x00\n        /* \"contracts/Ballot/Ballot.sol\":4547:4560  contractOwner */\n      dup1\n      0x00\n      swap1\n      sload\n      swap1\n      0x0100\n      exp\n      swap1\n      div\n      0xffffffffffffffffffffffffffffffffffffffff\n      and\n        /* \"contracts/Ballot/Ballot.sol\":4533:4560  msg.sender == contractOwner */\n      0xffffffffffffffffffffffffffffffffffffffff\n      and\n        /* \"contracts/Ballot/Ballot.sol\":4533:4543  msg.sender */\n      caller\n        /* \"contracts/Ballot/Ballot.sol\":4533:4560  msg.sender == contractOwner */\n      0xffffffffffffffffffffffffffffffffffffffff\n      and\n      eq\n        /* \"contracts/Ballot/Ballot.sol\":4526:4560  return msg.sender == contractOwner */\n      swap1\n      pop\n        /* \"contracts/Ballot/Ballot.sol\":4457:4568  function areYouContractOwner() public view returns (bool) {... */\n      swap1\n      jump\t// out\n        /* \"contracts/Ballot/Ballot.sol\":3999:4105  function getCandidatesList() public view returns (Candidate[] memory) {... */\n    tag_54:\n        /* \"contracts/Ballot/Ballot.sol\":4049:4067  Candidate[] memory */\n      0x60\n        /* \"contracts/Ballot/Ballot.sol\":4087:4097  candidates */\n      0x02\n        /* \"contracts/Ballot/Ballot.sol\":4080:4097  return candidates */\n      dup1\n      sload\n      dup1\n      0x20\n      mul\n      0x20\n      add\n      mload(0x40)\n      swap1\n      dup2\n      add\n      0x40\n      mstore\n      dup1\n      swap3\n      swap2\n      swap1\n      dup2\n      dup2\n      mstore\n      0x20\n      add\n      0x00\n      swap1\n    tag_146:\n      dup3\n      dup3\n      lt\n      iszero\n      tag_147\n      jumpi\n      dup4\n      dup3\n      swap1\n      0x00\n      mstore\n      keccak256(0x00, 0x20)\n      swap1\n      0x03\n      mul\n      add\n      mload(0x40)\n      dup1\n      0x60\n      add\n      0x40\n      mstore\n      swap1\n      dup2\n      0x00\n      dup3\n      add\n      dup1\n      sload\n      tag_149\n      swap1\n      tag_126\n      jump\t// in\n    tag_149:\n      dup1\n      0x1f\n      add\n      0x20\n      dup1\n      swap2\n      div\n      mul\n      0x20\n      add\n      mload(0x40)\n      swap1\n      dup2\n      add\n      0x40\n      mstore\n      dup1\n      swap3\n      swap2\n      swap1\n      dup2\n      dup2\n      mstore\n      0x20\n      add\n      dup3\n      dup1\n      sload\n      tag_150\n      swap1\n      tag_126\n      jump\t// in\n    tag_150:\n      dup1\n      iszero\n      tag_151\n      jumpi\n      dup1\n      0x1f\n      lt\n      tag_152\n      jumpi\n      0x0100\n      dup1\n      dup4\n      sload\n      div\n      mul\n      dup4\n      mstore\n      swap2\n      0x20\n      add\n      swap2\n      jump(tag_151)\n    tag_152:\n      dup3\n      add\n      swap2\n      swap1\n      0x00\n      mstore\n      keccak256(0x00, 0x20)\n      swap1\n    tag_153:\n      dup2\n      sload\n      dup2\n      mstore\n      swap1\n      0x01\n      add\n      swap1\n      0x20\n      add\n      dup1\n      dup4\n      gt\n      tag_153\n      jumpi\n      dup3\n      swap1\n      sub\n      0x1f\n      and\n      dup3\n      add\n      swap2\n    tag_151:\n      pop\n      pop\n      pop\n      pop\n      pop\n      dup2\n      mstore\n      0x20\n      add\n      0x01\n      dup3\n      add\n      dup1\n      sload\n      tag_154\n      swap1\n      tag_126\n      jump\t// in\n    tag_154:\n      dup1\n      0x1f\n      add\n      0x20\n      dup1\n      swap2\n      div\n      mul\n      0x20\n      add\n      mload(0x40)\n      swap1\n      dup2\n      add\n      0x40\n      mstore\n      dup1\n      swap3\n      swap2\n      swap1\n      dup2\n      dup2\n      mstore\n      0x20\n      add\n      dup3\n      dup1\n      sload\n      tag_155\n      swap1\n      tag_126\n      jump\t// in\n    tag_155:\n      dup1\n      iszero\n      tag_156\n      jumpi\n      dup1\n      0x1f\n      lt\n      tag_157\n      jumpi\n      0x0100\n      dup1\n      dup4\n      sload\n      div\n      mul\n      dup4\n      mstore\n      swap2\n      0x20\n      add\n      swap2\n      jump(tag_156)\n    tag_157:\n      dup3\n      add\n      swap2\n      swap1\n      0x00\n      mstore\n      keccak256(0x00, 0x20)\n      swap1\n    tag_158:\n      dup2\n      sload\n      dup2\n      mstore\n      swap1\n      0x01\n      add\n      swap1\n      0x20\n      add\n      dup1\n      dup4\n      gt\n      tag_158\n      jumpi\n      dup3\n      swap1\n      sub\n      0x1f\n      and\n      dup3\n      add\n      swap2\n    tag_156:\n      pop\n      pop\n      pop\n      pop\n      pop\n      dup2\n      mstore\n      0x20\n      add\n      0x02\n      dup3\n      add\n      sload\n      dup2\n      mstore\n      pop\n      pop\n      dup2\n      mstore\n      0x20\n      add\n      swap1\n      0x01\n      add\n      swap1\n      jump(tag_146)\n    tag_147:\n      pop\n      pop\n      pop\n      pop\n      swap1\n      pop\n        /* \"contracts/Ballot/Ballot.sol\":3999:4105  function getCandidatesList() public view returns (Candidate[] memory) {... */\n      swap1\n      jump\t// out\n        /* \"contracts/Ballot/Ballot.sol\":4701:4833  function getVoterRigthToVote(address voterAddress) public view returns (bool) {... */\n    tag_60:\n        /* \"contracts/Ballot/Ballot.sol\":4773:4777  bool */\n      0x00\n        /* \"contracts/Ballot/Ballot.sol\":4797:4803  voters */\n      0x01\n        /* \"contracts/Ballot/Ballot.sol\":4797:4817  voters[voterAddress] */\n      0x00\n        /* \"contracts/Ballot/Ballot.sol\":4804:4816  voterAddress */\n      dup4\n        /* \"contracts/Ballot/Ballot.sol\":4797:4817  voters[voterAddress] */\n      0xffffffffffffffffffffffffffffffffffffffff\n      and\n      0xffffffffffffffffffffffffffffffffffffffff\n      and\n      dup2\n      mstore\n      0x20\n      add\n      swap1\n      dup2\n      mstore\n      0x20\n      add\n      0x00\n      keccak256\n        /* \"contracts/Ballot/Ballot.sol\":4797:4825  voters[voterAddress].canVote */\n      0x00\n      add\n      0x00\n      swap1\n      sload\n      swap1\n      0x0100\n      exp\n      swap1\n      div\n      0xff\n      and\n        /* \"contracts/Ballot/Ballot.sol\":4790:4825  return voters[voterAddress].canVote */\n      swap1\n      pop\n        /* \"contracts/Ballot/Ballot.sol\":4701:4833  function getVoterRigthToVote(address voterAddress) public view returns (bool) {... */\n      swap2\n      swap1\n      pop\n      jump\t// out\n        /* \"contracts/Ballot/Ballot.sol\":2254:2400  function addCandidateAsStruct(Candidate memory newCandidate) public isContractOwnerAddCandidate() {... */\n    tag_65:\n        /* \"contracts/Ballot/Ballot.sol\":971:992  areYouContractOwner() */\n      tag_161\n        /* \"contracts/Ballot/Ballot.sol\":971:990  areYouContractOwner */\n      tag_50\n        /* \"contracts/Ballot/Ballot.sol\":971:992  areYouContractOwner() */\n      jump\t// in\n    tag_161:\n        /* \"contracts/Ballot/Ballot.sol\":949:1063  require(... */\n      tag_162\n      jumpi\n      mload(0x40)\n      0x08c379a000000000000000000000000000000000000000000000000000000000\n      dup2\n      mstore\n      0x04\n      add\n      tag_163\n      swap1\n      tag_111\n      jump\t// in\n    tag_163:\n      mload(0x40)\n      dup1\n      swap2\n      sub\n      swap1\n      revert\n    tag_162:\n        /* \"contracts/Ballot/Ballot.sol\":2363:2373  candidates */\n      0x02\n        /* \"contracts/Ballot/Ballot.sol\":2379:2391  newCandidate */\n      dup2\n        /* \"contracts/Ballot/Ballot.sol\":2363:2392  candidates.push(newCandidate) */\n      swap1\n      dup1\n      0x01\n      dup2\n      sload\n      add\n      dup1\n      dup3\n      sstore\n      dup1\n      swap2\n      pop\n      pop\n      0x01\n      swap1\n      sub\n      swap1\n      0x00\n      mstore\n      keccak256(0x00, 0x20)\n      swap1\n      0x03\n      mul\n      add\n      0x00\n      swap1\n      swap2\n      swap1\n      swap2\n      swap1\n      swap2\n      pop\n      0x00\n      dup3\n      add\n      mload\n      dup2\n      0x00\n      add\n      swap1\n      dup2\n      tag_166\n      swap2\n      swap1\n      tag_115\n      jump\t// in\n    tag_166:\n      pop\n      0x20\n      dup3\n      add\n      mload\n      dup2\n      0x01\n      add\n      swap1\n      dup2\n      tag_167\n      swap2\n      swap1\n      tag_115\n      jump\t// in\n    tag_167:\n      pop\n      0x40\n      dup3\n      add\n      mload\n      dup2\n      0x02\n      add\n      sstore\n      pop\n      pop\n        /* \"contracts/Ballot/Ballot.sol\":2254:2400  function addCandidateAsStruct(Candidate memory newCandidate) public isContractOwnerAddCandidate() {... */\n      pop\n      jump\t// out\n        /* \"contracts/Ballot/Ballot.sol\":2412:2558  function giveRightToVote(address voterAddress) public giveRightToVoteModifier(voterAddress) {... */\n    tag_68:\n        /* \"contracts/Ballot/Ballot.sol\":2490:2502  voterAddress */\n      dup1\n        /* \"contracts/Ballot/Ballot.sol\":1179:1200  areYouContractOwner() */\n      tag_169\n        /* \"contracts/Ballot/Ballot.sol\":1179:1198  areYouContractOwner */\n      tag_50\n        /* \"contracts/Ballot/Ballot.sol\":1179:1200  areYouContractOwner() */\n      jump\t// in\n    tag_169:\n        /* \"contracts/Ballot/Ballot.sol\":1157:1275  require(... */\n      tag_170\n      jumpi\n      mload(0x40)\n      0x08c379a000000000000000000000000000000000000000000000000000000000\n      dup2\n      mstore\n      0x04\n      add\n      tag_171\n      swap1\n      tag_172\n      jump\t// in\n    tag_171:\n      mload(0x40)\n      dup1\n      swap2\n      sub\n      swap1\n      revert\n    tag_170:\n        /* \"contracts/Ballot/Ballot.sol\":1286:1320  getVoterVotedRequire(voterAddress) */\n      tag_173\n        /* \"contracts/Ballot/Ballot.sol\":1307:1319  voterAddress */\n      dup2\n        /* \"contracts/Ballot/Ballot.sol\":1286:1306  getVoterVotedRequire */\n      tag_174\n        /* \"contracts/Ballot/Ballot.sol\":1286:1320  getVoterVotedRequire(voterAddress) */\n      jump\t// in\n    tag_173:\n        /* \"contracts/Ballot/Ballot.sol\":2546:2550  true */\n      0x01\n        /* \"contracts/Ballot/Ballot.sol\":2515:2521  voters */\n      dup1\n        /* \"contracts/Ballot/Ballot.sol\":2515:2535  voters[voterAddress] */\n      0x00\n        /* \"contracts/Ballot/Ballot.sol\":2522:2534  voterAddress */\n      dup5\n        /* \"contracts/Ballot/Ballot.sol\":2515:2535  voters[voterAddress] */\n      0xffffffffffffffffffffffffffffffffffffffff\n      and\n      0xffffffffffffffffffffffffffffffffffffffff\n      and\n      dup2\n      mstore\n      0x20\n      add\n      swap1\n      dup2\n      mstore\n      0x20\n      add\n      0x00\n      keccak256\n        /* \"contracts/Ballot/Ballot.sol\":2515:2543  voters[voterAddress].canVote */\n      0x00\n      add\n      0x00\n        /* \"contracts/Ballot/Ballot.sol\":2515:2550  voters[voterAddress].canVote = true */\n      0x0100\n      exp\n      dup2\n      sload\n      dup2\n      0xff\n      mul\n      not\n      and\n      swap1\n      dup4\n      iszero\n      iszero\n      mul\n      or\n      swap1\n      sstore\n      pop\n        /* \"contracts/Ballot/Ballot.sol\":2412:2558  function giveRightToVote(address voterAddress) public giveRightToVoteModifier(voterAddress) {... */\n      pop\n      pop\n      jump\t// out\n        /* \"contracts/Ballot/Ballot.sol\":314:353  mapping(address => Voter) public voters */\n    tag_71:\n      mstore(0x20, 0x01)\n      dup1\n      0x00\n      mstore\n      keccak256(0x00, 0x40)\n      0x00\n      swap2\n      pop\n      swap1\n      pop\n      dup1\n      0x00\n      add\n      0x00\n      swap1\n      sload\n      swap1\n      0x0100\n      exp\n      swap1\n      div\n      0xff\n      and\n      swap1\n      dup1\n      0x00\n      add\n      0x01\n      swap1\n      sload\n      swap1\n      0x0100\n      exp\n      swap1\n      div\n      0xff\n      and\n      swap1\n      pop\n      dup3\n      jump\t// out\n        /* \"contracts/Ballot/Ballot.sol\":277:305  address public contractOwner */\n    tag_75:\n      0x00\n      dup1\n      sload\n      swap1\n      0x0100\n      exp\n      swap1\n      div\n      0xffffffffffffffffffffffffffffffffffffffff\n      and\n      dup2\n      jump\t// out\n        /* \"contracts/Ballot/Ballot.sol\":4841:4942  function areYouVoted() public view returns (bool) {... */\n    tag_78:\n        /* \"contracts/Ballot/Ballot.sol\":4885:4889  bool */\n      0x00\n        /* \"contracts/Ballot/Ballot.sol\":4909:4934  getVoterVoter(msg.sender) */\n      tag_177\n        /* \"contracts/Ballot/Ballot.sol\":4923:4933  msg.sender */\n      caller\n        /* \"contracts/Ballot/Ballot.sol\":4909:4922  getVoterVoter */\n      tag_85\n        /* \"contracts/Ballot/Ballot.sol\":4909:4934  getVoterVoter(msg.sender) */\n      jump\t// in\n    tag_177:\n        /* \"contracts/Ballot/Ballot.sol\":4902:4934  return getVoterVoter(msg.sender) */\n      swap1\n      pop\n        /* \"contracts/Ballot/Ballot.sol\":4841:4942  function areYouVoted() public view returns (bool) {... */\n      swap1\n      jump\t// out\n        /* \"contracts/Ballot/Ballot.sol\":4576:4693  function areYouHaveRigthToVote() public view returns (bool) {... */\n    tag_81:\n        /* \"contracts/Ballot/Ballot.sol\":4630:4634  bool */\n      0x00\n        /* \"contracts/Ballot/Ballot.sol\":4654:4685  getVoterRigthToVote(msg.sender) */\n      tag_179\n        /* \"contracts/Ballot/Ballot.sol\":4674:4684  msg.sender */\n      caller\n        /* \"contracts/Ballot/Ballot.sol\":4654:4673  getVoterRigthToVote */\n      tag_60\n        /* \"contracts/Ballot/Ballot.sol\":4654:4685  getVoterRigthToVote(msg.sender) */\n      jump\t// in\n    tag_179:\n        /* \"contracts/Ballot/Ballot.sol\":4647:4685  return getVoterRigthToVote(msg.sender) */\n      swap1\n      pop\n        /* \"contracts/Ballot/Ballot.sol\":4576:4693  function areYouHaveRigthToVote() public view returns (bool) {... */\n      swap1\n      jump\t// out\n        /* \"contracts/Ballot/Ballot.sol\":4950:5077  function getVoterVoter(address voterAddress) public view returns (bool) {... */\n    tag_85:\n        /* \"contracts/Ballot/Ballot.sol\":5016:5020  bool */\n      0x00\n        /* \"contracts/Ballot/Ballot.sol\":5040:5046  voters */\n      0x01\n        /* \"contracts/Ballot/Ballot.sol\":5040:5060  voters[voterAddress] */\n      0x00\n        /* \"contracts/Ballot/Ballot.sol\":5047:5059  voterAddress */\n      dup4\n        /* \"contracts/Ballot/Ballot.sol\":5040:5060  voters[voterAddress] */\n      0xffffffffffffffffffffffffffffffffffffffff\n      and\n      0xffffffffffffffffffffffffffffffffffffffff\n      and\n      dup2\n      mstore\n      0x20\n      add\n      swap1\n      dup2\n      mstore\n      0x20\n      add\n      0x00\n      keccak256\n        /* \"contracts/Ballot/Ballot.sol\":5040:5069  voters[voterAddress].hasVoted */\n      0x00\n      add\n      0x01\n      swap1\n      sload\n      swap1\n      0x0100\n      exp\n      swap1\n      div\n      0xff\n      and\n        /* \"contracts/Ballot/Ballot.sol\":5033:5069  return voters[voterAddress].hasVoted */\n      swap1\n      pop\n        /* \"contracts/Ballot/Ballot.sol\":4950:5077  function getVoterVoter(address voterAddress) public view returns (bool) {... */\n      swap2\n      swap1\n      pop\n      jump\t// out\n        /* \"contracts/Ballot/Ballot.sol\":3383:3991  function getWinningCandidate() public view returns (uint winningProposal, bool isTie) {        ... */\n    tag_88:\n        /* \"contracts/Ballot/Ballot.sol\":3435:3455  uint winningProposal */\n      0x00\n        /* \"contracts/Ballot/Ballot.sol\":3457:3467  bool isTie */\n      dup1\n        /* \"contracts/Ballot/Ballot.sol\":3488:3509  uint winningVoteCount */\n      0x00\n        /* \"contracts/Ballot/Ballot.sol\":3527:3546  uint indexCandidate */\n      dup1\n        /* \"contracts/Ballot/Ballot.sol\":3549:3550  0 */\n      0x00\n        /* \"contracts/Ballot/Ballot.sol\":3527:3550  uint indexCandidate = 0 */\n      swap1\n      pop\n        /* \"contracts/Ballot/Ballot.sol\":3522:3984  for (uint indexCandidate = 0; indexCandidate < candidates.length; indexCandidate++) {... */\n    tag_182:\n        /* \"contracts/Ballot/Ballot.sol\":3569:3579  candidates */\n      0x02\n        /* \"contracts/Ballot/Ballot.sol\":3569:3586  candidates.length */\n      dup1\n      sload\n      swap1\n      pop\n        /* \"contracts/Ballot/Ballot.sol\":3552:3566  indexCandidate */\n      dup2\n        /* \"contracts/Ballot/Ballot.sol\":3552:3586  indexCandidate < candidates.length */\n      lt\n        /* \"contracts/Ballot/Ballot.sol\":3522:3984  for (uint indexCandidate = 0; indexCandidate < candidates.length; indexCandidate++) {... */\n      iszero\n      tag_183\n      jumpi\n        /* \"contracts/Ballot/Ballot.sol\":3665:3681  winningVoteCount */\n      dup2\n        /* \"contracts/Ballot/Ballot.sol\":3625:3635  candidates */\n      0x02\n        /* \"contracts/Ballot/Ballot.sol\":3636:3650  indexCandidate */\n      dup3\n        /* \"contracts/Ballot/Ballot.sol\":3625:3651  candidates[indexCandidate] */\n      dup2\n      sload\n      dup2\n      lt\n      tag_185\n      jumpi\n      tag_186\n      tag_101\n      jump\t// in\n    tag_186:\n    tag_185:\n      swap1\n      0x00\n      mstore\n      keccak256(0x00, 0x20)\n      swap1\n      0x03\n      mul\n      add\n        /* \"contracts/Ballot/Ballot.sol\":3625:3662  candidates[indexCandidate].votesCount */\n      0x02\n      add\n      sload\n        /* \"contracts/Ballot/Ballot.sol\":3625:3681  candidates[indexCandidate].votesCount > winningVoteCount */\n      gt\n        /* \"contracts/Ballot/Ballot.sol\":3621:3973  if (candidates[indexCandidate].votesCount > winningVoteCount) {... */\n      iszero\n      tag_188\n      jumpi\n        /* \"contracts/Ballot/Ballot.sol\":3721:3731  candidates */\n      0x02\n        /* \"contracts/Ballot/Ballot.sol\":3732:3746  indexCandidate */\n      dup2\n        /* \"contracts/Ballot/Ballot.sol\":3721:3747  candidates[indexCandidate] */\n      dup2\n      sload\n      dup2\n      lt\n      tag_189\n      jumpi\n      tag_190\n      tag_101\n      jump\t// in\n    tag_190:\n    tag_189:\n      swap1\n      0x00\n      mstore\n      keccak256(0x00, 0x20)\n      swap1\n      0x03\n      mul\n      add\n        /* \"contracts/Ballot/Ballot.sol\":3721:3758  candidates[indexCandidate].votesCount */\n      0x02\n      add\n      sload\n        /* \"contracts/Ballot/Ballot.sol\":3702:3758  winningVoteCount = candidates[indexCandidate].votesCount */\n      swap2\n      pop\n        /* \"contracts/Ballot/Ballot.sol\":3795:3809  indexCandidate */\n      dup1\n        /* \"contracts/Ballot/Ballot.sol\":3777:3809  winningProposal = indexCandidate */\n      swap4\n      pop\n        /* \"contracts/Ballot/Ballot.sol\":3836:3841  false */\n      0x00\n        /* \"contracts/Ballot/Ballot.sol\":3828:3841  isTie = false */\n      swap3\n      pop\n        /* \"contracts/Ballot/Ballot.sol\":3621:3973  if (candidates[indexCandidate].votesCount > winningVoteCount) {... */\n      jump(tag_192)\n    tag_188:\n        /* \"contracts/Ballot/Ballot.sol\":3908:3924  winningVoteCount */\n      dup2\n        /* \"contracts/Ballot/Ballot.sol\":3867:3877  candidates */\n      0x02\n        /* \"contracts/Ballot/Ballot.sol\":3878:3892  indexCandidate */\n      dup3\n        /* \"contracts/Ballot/Ballot.sol\":3867:3893  candidates[indexCandidate] */\n      dup2\n      sload\n      dup2\n      lt\n      tag_193\n      jumpi\n      tag_194\n      tag_101\n      jump\t// in\n    tag_194:\n    tag_193:\n      swap1\n      0x00\n      mstore\n      keccak256(0x00, 0x20)\n      swap1\n      0x03\n      mul\n      add\n        /* \"contracts/Ballot/Ballot.sol\":3867:3904  candidates[indexCandidate].votesCount */\n      0x02\n      add\n      sload\n        /* \"contracts/Ballot/Ballot.sol\":3867:3924  candidates[indexCandidate].votesCount == winningVoteCount */\n      sub\n        /* \"contracts/Ballot/Ballot.sol\":3863:3973  if (candidates[indexCandidate].votesCount == winningVoteCount) {... */\n      tag_196\n      jumpi\n        /* \"contracts/Ballot/Ballot.sol\":3953:3957  true */\n      0x01\n        /* \"contracts/Ballot/Ballot.sol\":3945:3957  isTie = true */\n      swap3\n      pop\n        /* \"contracts/Ballot/Ballot.sol\":3863:3973  if (candidates[indexCandidate].votesCount == winningVoteCount) {... */\n    tag_196:\n        /* \"contracts/Ballot/Ballot.sol\":3621:3973  if (candidates[indexCandidate].votesCount > winningVoteCount) {... */\n    tag_192:\n        /* \"contracts/Ballot/Ballot.sol\":3588:3604  indexCandidate++ */\n      dup1\n      dup1\n      tag_197\n      swap1\n      tag_106\n      jump\t// in\n    tag_197:\n      swap2\n      pop\n      pop\n        /* \"contracts/Ballot/Ballot.sol\":3522:3984  for (uint indexCandidate = 0; indexCandidate < candidates.length; indexCandidate++) {... */\n      jump(tag_182)\n    tag_183:\n      pop\n        /* \"contracts/Ballot/Ballot.sol\":3469:3991  {        ... */\n      pop\n        /* \"contracts/Ballot/Ballot.sol\":3383:3991  function getWinningCandidate() public view returns (uint winningProposal, bool isTie) {        ... */\n      swap1\n      swap2\n      jump\t// out\n        /* \"contracts/Ballot/Ballot.sol\":2566:3071  function vote(string memory name) public voteModifier(msg.sender) {... */\n    tag_94:\n        /* \"contracts/Ballot/Ballot.sol\":2620:2630  msg.sender */\n      caller\n        /* \"contracts/Ballot/Ballot.sol\":1425:1448  areYouHaveRigthToVote() */\n      tag_199\n        /* \"contracts/Ballot/Ballot.sol\":1425:1446  areYouHaveRigthToVote */\n      tag_81\n        /* \"contracts/Ballot/Ballot.sol\":1425:1448  areYouHaveRigthToVote() */\n      jump\t// in\n    tag_199:\n        /* \"contracts/Ballot/Ballot.sol\":1403:1503  require(... */\n      tag_200\n      jumpi\n      mload(0x40)\n      0x08c379a000000000000000000000000000000000000000000000000000000000\n      dup2\n      mstore\n      0x04\n      add\n      tag_201\n      swap1\n      tag_202\n      jump\t// in\n    tag_201:\n      mload(0x40)\n      dup1\n      swap2\n      sub\n      swap1\n      revert\n    tag_200:\n        /* \"contracts/Ballot/Ballot.sol\":1514:1548  getVoterVotedRequire(voterAddress) */\n      tag_203\n        /* \"contracts/Ballot/Ballot.sol\":1535:1547  voterAddress */\n      dup2\n        /* \"contracts/Ballot/Ballot.sol\":1514:1534  getVoterVotedRequire */\n      tag_174\n        /* \"contracts/Ballot/Ballot.sol\":1514:1548  getVoterVotedRequire(voterAddress) */\n      jump\t// in\n    tag_203:\n        /* \"contracts/Ballot/Ballot.sol\":2643:2663  Voter storage sender */\n      0x00\n        /* \"contracts/Ballot/Ballot.sol\":2666:2672  voters */\n      0x01\n        /* \"contracts/Ballot/Ballot.sol\":2666:2684  voters[msg.sender] */\n      0x00\n        /* \"contracts/Ballot/Ballot.sol\":2673:2683  msg.sender */\n      caller\n        /* \"contracts/Ballot/Ballot.sol\":2666:2684  voters[msg.sender] */\n      0xffffffffffffffffffffffffffffffffffffffff\n      and\n      0xffffffffffffffffffffffffffffffffffffffff\n      and\n      dup2\n      mstore\n      0x20\n      add\n      swap1\n      dup2\n      mstore\n      0x20\n      add\n      0x00\n      keccak256\n        /* \"contracts/Ballot/Ballot.sol\":2643:2684  Voter storage sender = voters[msg.sender] */\n      swap1\n      pop\n        /* \"contracts/Ballot/Ballot.sol\":2801:2811  uint index */\n      0x00\n        /* \"contracts/Ballot/Ballot.sol\":2796:3064  for (uint index = 0; index < candidates.length; index++) {... */\n    tag_205:\n        /* \"contracts/Ballot/Ballot.sol\":2825:2835  candidates */\n      0x02\n        /* \"contracts/Ballot/Ballot.sol\":2825:2842  candidates.length */\n      dup1\n      sload\n      swap1\n      pop\n        /* \"contracts/Ballot/Ballot.sol\":2817:2822  index */\n      dup2\n        /* \"contracts/Ballot/Ballot.sol\":2817:2842  index < candidates.length */\n      lt\n        /* \"contracts/Ballot/Ballot.sol\":2796:3064  for (uint index = 0; index < candidates.length; index++) {... */\n      iszero\n      tag_206\n      jumpi\n        /* \"contracts/Ballot/Ballot.sol\":2872:2914  stringEqualTo(candidates[index].name,name) */\n      tag_208\n        /* \"contracts/Ballot/Ballot.sol\":2886:2896  candidates */\n      0x02\n        /* \"contracts/Ballot/Ballot.sol\":2897:2902  index */\n      dup3\n        /* \"contracts/Ballot/Ballot.sol\":2886:2903  candidates[index] */\n      dup2\n      sload\n      dup2\n      lt\n      tag_209\n      jumpi\n      tag_210\n      tag_101\n      jump\t// in\n    tag_210:\n    tag_209:\n      swap1\n      0x00\n      mstore\n      keccak256(0x00, 0x20)\n      swap1\n      0x03\n      mul\n      add\n        /* \"contracts/Ballot/Ballot.sol\":2886:2908  candidates[index].name */\n      0x00\n      add\n        /* \"contracts/Ballot/Ballot.sol\":2872:2914  stringEqualTo(candidates[index].name,name) */\n      dup1\n      sload\n      tag_212\n      swap1\n      tag_126\n      jump\t// in\n    tag_212:\n      dup1\n      0x1f\n      add\n      0x20\n      dup1\n      swap2\n      div\n      mul\n      0x20\n      add\n      mload(0x40)\n      swap1\n      dup2\n      add\n      0x40\n      mstore\n      dup1\n      swap3\n      swap2\n      swap1\n      dup2\n      dup2\n      mstore\n      0x20\n      add\n      dup3\n      dup1\n      sload\n      tag_213\n      swap1\n      tag_126\n      jump\t// in\n    tag_213:\n      dup1\n      iszero\n      tag_214\n      jumpi\n      dup1\n      0x1f\n      lt\n      tag_215\n      jumpi\n      0x0100\n      dup1\n      dup4\n      sload\n      div\n      mul\n      dup4\n      mstore\n      swap2\n      0x20\n      add\n      swap2\n      jump(tag_214)\n    tag_215:\n      dup3\n      add\n      swap2\n      swap1\n      0x00\n      mstore\n      keccak256(0x00, 0x20)\n      swap1\n    tag_216:\n      dup2\n      sload\n      dup2\n      mstore\n      swap1\n      0x01\n      add\n      swap1\n      0x20\n      add\n      dup1\n      dup4\n      gt\n      tag_216\n      jumpi\n      dup3\n      swap1\n      sub\n      0x1f\n      and\n      dup3\n      add\n      swap2\n    tag_214:\n      pop\n      pop\n      pop\n      pop\n      pop\n        /* \"contracts/Ballot/Ballot.sol\":2909:2913  name */\n      dup6\n        /* \"contracts/Ballot/Ballot.sol\":2872:2885  stringEqualTo */\n      tag_217\n        /* \"contracts/Ballot/Ballot.sol\":2872:2914  stringEqualTo(candidates[index].name,name) */\n      jump\t// in\n    tag_208:\n        /* \"contracts/Ballot/Ballot.sol\":2868:3053  if (stringEqualTo(candidates[index].name,name)) {... */\n      iszero\n      tag_218\n      jumpi\n        /* \"contracts/Ballot/Ballot.sol\":2935:2945  candidates */\n      0x02\n        /* \"contracts/Ballot/Ballot.sol\":2946:2951  index */\n      dup2\n        /* \"contracts/Ballot/Ballot.sol\":2935:2952  candidates[index] */\n      dup2\n      sload\n      dup2\n      lt\n      tag_219\n      jumpi\n      tag_220\n      tag_101\n      jump\t// in\n    tag_220:\n    tag_219:\n      swap1\n      0x00\n      mstore\n      keccak256(0x00, 0x20)\n      swap1\n      0x03\n      mul\n      add\n        /* \"contracts/Ballot/Ballot.sol\":2935:2963  candidates[index].votesCount */\n      0x02\n      add\n      0x00\n        /* \"contracts/Ballot/Ballot.sol\":2935:2965  candidates[index].votesCount++ */\n      dup2\n      sload\n      dup1\n      swap3\n      swap2\n      swap1\n      tag_222\n      swap1\n      tag_106\n      jump\t// in\n    tag_222:\n      swap2\n      swap1\n      pop\n      sstore\n      pop\n        /* \"contracts/Ballot/Ballot.sol\":3002:3006  true */\n      0x01\n        /* \"contracts/Ballot/Ballot.sol\":2984:2990  sender */\n      dup3\n        /* \"contracts/Ballot/Ballot.sol\":2984:2999  sender.hasVoted */\n      0x00\n      add\n      0x01\n        /* \"contracts/Ballot/Ballot.sol\":2984:3006  sender.hasVoted = true */\n      0x0100\n      exp\n      dup2\n      sload\n      dup2\n      0xff\n      mul\n      not\n      and\n      swap1\n      dup4\n      iszero\n      iszero\n      mul\n      or\n      swap1\n      sstore\n      pop\n        /* \"contracts/Ballot/Ballot.sol\":3025:3035  totalVotes */\n      0x03\n      0x00\n        /* \"contracts/Ballot/Ballot.sol\":3025:3037  totalVotes++ */\n      dup2\n      sload\n      dup1\n      swap3\n      swap2\n      swap1\n      tag_223\n      swap1\n      tag_106\n      jump\t// in\n    tag_223:\n      swap2\n      swap1\n      pop\n      sstore\n      pop\n        /* \"contracts/Ballot/Ballot.sol\":2868:3053  if (stringEqualTo(candidates[index].name,name)) {... */\n    tag_218:\n        /* \"contracts/Ballot/Ballot.sol\":2844:2851  index++ */\n      dup1\n      dup1\n      tag_224\n      swap1\n      tag_106\n      jump\t// in\n    tag_224:\n      swap2\n      pop\n      pop\n        /* \"contracts/Ballot/Ballot.sol\":2796:3064  for (uint index = 0; index < candidates.length; index++) {... */\n      jump(tag_205)\n    tag_206:\n      pop\n        /* \"contracts/Ballot/Ballot.sol\":2632:3071  {... */\n      pop\n        /* \"contracts/Ballot/Ballot.sol\":2566:3071  function vote(string memory name) public voteModifier(msg.sender) {... */\n      pop\n      pop\n      jump\t// out\n        /* \"contracts/Ballot/Ballot.sol\":1605:1794  function getVoterVotedRequire(address voterAddress) private view {... */\n    tag_174:\n        /* \"contracts/Ballot/Ballot.sol\":1711:1738  getVoterVoter(voterAddress) */\n      tag_226\n        /* \"contracts/Ballot/Ballot.sol\":1725:1737  voterAddress */\n      dup2\n        /* \"contracts/Ballot/Ballot.sol\":1711:1724  getVoterVoter */\n      tag_85\n        /* \"contracts/Ballot/Ballot.sol\":1711:1738  getVoterVoter(voterAddress) */\n      jump\t// in\n    tag_226:\n        /* \"contracts/Ballot/Ballot.sol\":1710:1738  !getVoterVoter(voterAddress) */\n      iszero\n        /* \"contracts/Ballot/Ballot.sol\":1688:1786  require(... */\n      tag_227\n      jumpi\n      mload(0x40)\n      0x08c379a000000000000000000000000000000000000000000000000000000000\n      dup2\n      mstore\n      0x04\n      add\n      tag_228\n      swap1\n      tag_229\n      jump\t// in\n    tag_228:\n      mload(0x40)\n      dup1\n      swap2\n      sub\n      swap1\n      revert\n    tag_227:\n        /* \"contracts/Ballot/Ballot.sol\":1605:1794  function getVoterVotedRequire(address voterAddress) private view {... */\n      pop\n      jump\t// out\n        /* \"contracts/Ballot/Ballot.sol\":5113:5281  function stringEqualTo(string memory s1, string memory s2) internal pure returns (bool) {... */\n    tag_217:\n        /* \"contracts/Ballot/Ballot.sol\":5195:5199  bool */\n      0x00\n        /* \"contracts/Ballot/Ballot.sol\":5269:5271  s2 */\n      dup2\n        /* \"contracts/Ballot/Ballot.sol\":5258:5272  abi.encode(s2) */\n      add(0x20, mload(0x40))\n      tag_231\n      swap2\n      swap1\n      tag_38\n      jump\t// in\n    tag_231:\n      mload(0x40)\n      0x20\n      dup2\n      dup4\n      sub\n      sub\n      dup2\n      mstore\n      swap1\n      0x40\n      mstore\n        /* \"contracts/Ballot/Ballot.sol\":5248:5273  keccak256(abi.encode(s2)) */\n      dup1\n      mload\n      swap1\n      0x20\n      add\n      keccak256\n        /* \"contracts/Ballot/Ballot.sol\":5240:5242  s1 */\n      dup4\n        /* \"contracts/Ballot/Ballot.sol\":5229:5243  abi.encode(s1) */\n      add(0x20, mload(0x40))\n      tag_232\n      swap2\n      swap1\n      tag_38\n      jump\t// in\n    tag_232:\n      mload(0x40)\n      0x20\n      dup2\n      dup4\n      sub\n      sub\n      dup2\n      mstore\n      swap1\n      0x40\n      mstore\n        /* \"contracts/Ballot/Ballot.sol\":5219:5244  keccak256(abi.encode(s1)) */\n      dup1\n      mload\n      swap1\n      0x20\n      add\n      keccak256\n        /* \"contracts/Ballot/Ballot.sol\":5219:5273  keccak256(abi.encode(s1)) == keccak256(abi.encode(s2)) */\n      eq\n        /* \"contracts/Ballot/Ballot.sol\":5212:5273  return keccak256(abi.encode(s1)) == keccak256(abi.encode(s2)) */\n      swap1\n      pop\n        /* \"contracts/Ballot/Ballot.sol\":5113:5281  function stringEqualTo(string memory s1, string memory s2) internal pure returns (bool) {... */\n      swap3\n      swap2\n      pop\n      pop\n      jump\t// out\n        /* \"#utility.yul\":7:84   */\n    tag_233:\n        /* \"#utility.yul\":44:51   */\n      0x00\n        /* \"#utility.yul\":73:78   */\n      dup2\n        /* \"#utility.yul\":62:78   */\n      swap1\n      pop\n        /* \"#utility.yul\":7:84   */\n      swap2\n      swap1\n      pop\n      jump\t// out\n        /* \"#utility.yul\":90:208   */\n    tag_234:\n        /* \"#utility.yul\":177:201   */\n      tag_304\n        /* \"#utility.yul\":195:200   */\n      dup2\n        /* \"#utility.yul\":177:201   */\n      tag_233\n      jump\t// in\n    tag_304:\n        /* \"#utility.yul\":172:175   */\n      dup3\n        /* \"#utility.yul\":165:202   */\n      mstore\n        /* \"#utility.yul\":90:208   */\n      pop\n      pop\n      jump\t// out\n        /* \"#utility.yul\":214:436   */\n    tag_27:\n        /* \"#utility.yul\":307:311   */\n      0x00\n        /* \"#utility.yul\":345:347   */\n      0x20\n        /* \"#utility.yul\":334:343   */\n      dup3\n        /* \"#utility.yul\":330:348   */\n      add\n        /* \"#utility.yul\":322:348   */\n      swap1\n      pop\n        /* \"#utility.yul\":358:429   */\n      tag_306\n        /* \"#utility.yul\":426:427   */\n      0x00\n        /* \"#utility.yul\":415:424   */\n      dup4\n        /* \"#utility.yul\":411:428   */\n      add\n        /* \"#utility.yul\":402:408   */\n      dup5\n        /* \"#utility.yul\":358:429   */\n      tag_234\n      jump\t// in\n    tag_306:\n        /* \"#utility.yul\":214:436   */\n      swap3\n      swap2\n      pop\n      pop\n      jump\t// out\n        /* \"#utility.yul\":442:517   */\n    tag_235:\n        /* \"#utility.yul\":475:481   */\n      0x00\n        /* \"#utility.yul\":508:510   */\n      0x40\n        /* \"#utility.yul\":502:511   */\n      mload\n        /* \"#utility.yul\":492:511   */\n      swap1\n      pop\n        /* \"#utility.yul\":442:517   */\n      swap1\n      jump\t// out\n        /* \"#utility.yul\":523:640   */\n    tag_236:\n        /* \"#utility.yul\":632:633   */\n      0x00\n        /* \"#utility.yul\":629:630   */\n      dup1\n        /* \"#utility.yul\":622:634   */\n      revert\n        /* \"#utility.yul\":646:763   */\n    tag_237:\n        /* \"#utility.yul\":755:756   */\n      0x00\n        /* \"#utility.yul\":752:753   */\n      dup1\n        /* \"#utility.yul\":745:757   */\n      revert\n        /* \"#utility.yul\":769:886   */\n    tag_238:\n        /* \"#utility.yul\":878:879   */\n      0x00\n        /* \"#utility.yul\":875:876   */\n      dup1\n        /* \"#utility.yul\":868:880   */\n      revert\n        /* \"#utility.yul\":892:1009   */\n    tag_239:\n        /* \"#utility.yul\":1001:1002   */\n      0x00\n        /* \"#utility.yul\":998:999   */\n      dup1\n        /* \"#utility.yul\":991:1003   */\n      revert\n        /* \"#utility.yul\":1015:1117   */\n    tag_240:\n        /* \"#utility.yul\":1056:1062   */\n      0x00\n        /* \"#utility.yul\":1107:1109   */\n      0x1f\n        /* \"#utility.yul\":1103:1110   */\n      not\n        /* \"#utility.yul\":1098:1100   */\n      0x1f\n        /* \"#utility.yul\":1091:1096   */\n      dup4\n        /* \"#utility.yul\":1087:1101   */\n      add\n        /* \"#utility.yul\":1083:1111   */\n      and\n        /* \"#utility.yul\":1073:1111   */\n      swap1\n      pop\n        /* \"#utility.yul\":1015:1117   */\n      swap2\n      swap1\n      pop\n      jump\t// out\n        /* \"#utility.yul\":1123:1303   */\n    tag_241:\n        /* \"#utility.yul\":1171:1248   */\n      0x4e487b7100000000000000000000000000000000000000000000000000000000\n        /* \"#utility.yul\":1168:1169   */\n      0x00\n        /* \"#utility.yul\":1161:1249   */\n      mstore\n        /* \"#utility.yul\":1268:1272   */\n      0x41\n        /* \"#utility.yul\":1265:1266   */\n      0x04\n        /* \"#utility.yul\":1258:1273   */\n      mstore\n        /* \"#utility.yul\":1292:1296   */\n      0x24\n        /* \"#utility.yul\":1289:1290   */\n      0x00\n        /* \"#utility.yul\":1282:1297   */\n      revert\n        /* \"#utility.yul\":1309:1590   */\n    tag_242:\n        /* \"#utility.yul\":1392:1419   */\n      tag_315\n        /* \"#utility.yul\":1414:1418   */\n      dup3\n        /* \"#utility.yul\":1392:1419   */\n      tag_240\n      jump\t// in\n    tag_315:\n        /* \"#utility.yul\":1384:1390   */\n      dup2\n        /* \"#utility.yul\":1380:1420   */\n      add\n        /* \"#utility.yul\":1522:1528   */\n      dup2\n        /* \"#utility.yul\":1510:1520   */\n      dup2\n        /* \"#utility.yul\":1507:1529   */\n      lt\n        /* \"#utility.yul\":1486:1504   */\n      0xffffffffffffffff\n        /* \"#utility.yul\":1474:1484   */\n      dup3\n        /* \"#utility.yul\":1471:1505   */\n      gt\n        /* \"#utility.yul\":1468:1530   */\n      or\n        /* \"#utility.yul\":1465:1553   */\n      iszero\n      tag_316\n      jumpi\n        /* \"#utility.yul\":1533:1551   */\n      tag_317\n      tag_241\n      jump\t// in\n    tag_317:\n        /* \"#utility.yul\":1465:1553   */\n    tag_316:\n        /* \"#utility.yul\":1573:1583   */\n      dup1\n        /* \"#utility.yul\":1569:1571   */\n      0x40\n        /* \"#utility.yul\":1562:1584   */\n      mstore\n        /* \"#utility.yul\":1352:1590   */\n      pop\n        /* \"#utility.yul\":1309:1590   */\n      pop\n      pop\n      jump\t// out\n        /* \"#utility.yul\":1596:1725   */\n    tag_243:\n        /* \"#utility.yul\":1630:1636   */\n      0x00\n        /* \"#utility.yul\":1657:1677   */\n      tag_319\n      tag_235\n      jump\t// in\n    tag_319:\n        /* \"#utility.yul\":1647:1677   */\n      swap1\n      pop\n        /* \"#utility.yul\":1686:1719   */\n      tag_320\n        /* \"#utility.yul\":1714:1718   */\n      dup3\n        /* \"#utility.yul\":1706:1712   */\n      dup3\n        /* \"#utility.yul\":1686:1719   */\n      tag_242\n      jump\t// in\n    tag_320:\n        /* \"#utility.yul\":1596:1725   */\n      swap2\n      swap1\n      pop\n      jump\t// out\n        /* \"#utility.yul\":1731:2039   */\n    tag_244:\n        /* \"#utility.yul\":1793:1797   */\n      0x00\n        /* \"#utility.yul\":1883:1901   */\n      0xffffffffffffffff\n        /* \"#utility.yul\":1875:1881   */\n      dup3\n        /* \"#utility.yul\":1872:1902   */\n      gt\n        /* \"#utility.yul\":1869:1925   */\n      iszero\n      tag_322\n      jumpi\n        /* \"#utility.yul\":1905:1923   */\n      tag_323\n      tag_241\n      jump\t// in\n    tag_323:\n        /* \"#utility.yul\":1869:1925   */\n    tag_322:\n        /* \"#utility.yul\":1943:1972   */\n      tag_324\n        /* \"#utility.yul\":1965:1971   */\n      dup3\n        /* \"#utility.yul\":1943:1972   */\n      tag_240\n      jump\t// in\n    tag_324:\n        /* \"#utility.yul\":1935:1972   */\n      swap1\n      pop\n        /* \"#utility.yul\":2027:2031   */\n      0x20\n        /* \"#utility.yul\":2021:2025   */\n      dup2\n        /* \"#utility.yul\":2017:2032   */\n      add\n        /* \"#utility.yul\":2009:2032   */\n      swap1\n      pop\n        /* \"#utility.yul\":1731:2039   */\n      swap2\n      swap1\n      pop\n      jump\t// out\n        /* \"#utility.yul\":2045:2191   */\n    tag_245:\n        /* \"#utility.yul\":2142:2148   */\n      dup3\n        /* \"#utility.yul\":2137:2140   */\n      dup2\n        /* \"#utility.yul\":2132:2135   */\n      dup4\n        /* \"#utility.yul\":2119:2149   */\n      calldatacopy\n        /* \"#utility.yul\":2183:2184   */\n      0x00\n        /* \"#utility.yul\":2174:2180   */\n      dup4\n        /* \"#utility.yul\":2169:2172   */\n      dup4\n        /* \"#utility.yul\":2165:2181   */\n      add\n        /* \"#utility.yul\":2158:2185   */\n      mstore\n        /* \"#utility.yul\":2045:2191   */\n      pop\n      pop\n      pop\n      jump\t// out\n        /* \"#utility.yul\":2197:2622   */\n    tag_246:\n        /* \"#utility.yul\":2275:2280   */\n      0x00\n        /* \"#utility.yul\":2300:2366   */\n      tag_327\n        /* \"#utility.yul\":2316:2365   */\n      tag_328\n        /* \"#utility.yul\":2358:2364   */\n      dup5\n        /* \"#utility.yul\":2316:2365   */\n      tag_244\n      jump\t// in\n    tag_328:\n        /* \"#utility.yul\":2300:2366   */\n      tag_243\n      jump\t// in\n    tag_327:\n        /* \"#utility.yul\":2291:2366   */\n      swap1\n      pop\n        /* \"#utility.yul\":2389:2395   */\n      dup3\n        /* \"#utility.yul\":2382:2387   */\n      dup2\n        /* \"#utility.yul\":2375:2396   */\n      mstore\n        /* \"#utility.yul\":2427:2431   */\n      0x20\n        /* \"#utility.yul\":2420:2425   */\n      dup2\n        /* \"#utility.yul\":2416:2432   */\n      add\n        /* \"#utility.yul\":2465:2468   */\n      dup5\n        /* \"#utility.yul\":2456:2462   */\n      dup5\n        /* \"#utility.yul\":2451:2454   */\n      dup5\n        /* \"#utility.yul\":2447:2463   */\n      add\n        /* \"#utility.yul\":2444:2469   */\n      gt\n        /* \"#utility.yul\":2441:2553   */\n      iszero\n      tag_329\n      jumpi\n        /* \"#utility.yul\":2472:2551   */\n      tag_330\n      tag_239\n      jump\t// in\n    tag_330:\n        /* \"#utility.yul\":2441:2553   */\n    tag_329:\n        /* \"#utility.yul\":2562:2616   */\n      tag_331\n        /* \"#utility.yul\":2609:2615   */\n      dup5\n        /* \"#utility.yul\":2604:2607   */\n      dup3\n        /* \"#utility.yul\":2599:2602   */\n      dup6\n        /* \"#utility.yul\":2562:2616   */\n      tag_245\n      jump\t// in\n    tag_331:\n        /* \"#utility.yul\":2281:2622   */\n      pop\n        /* \"#utility.yul\":2197:2622   */\n      swap4\n      swap3\n      pop\n      pop\n      pop\n      jump\t// out\n        /* \"#utility.yul\":2642:2982   */\n    tag_247:\n        /* \"#utility.yul\":2698:2703   */\n      0x00\n        /* \"#utility.yul\":2747:2750   */\n      dup3\n        /* \"#utility.yul\":2740:2744   */\n      0x1f\n        /* \"#utility.yul\":2732:2738   */\n      dup4\n        /* \"#utility.yul\":2728:2745   */\n      add\n        /* \"#utility.yul\":2724:2751   */\n      slt\n        /* \"#utility.yul\":2714:2836   */\n      tag_333\n      jumpi\n        /* \"#utility.yul\":2755:2834   */\n      tag_334\n      tag_238\n      jump\t// in\n    tag_334:\n        /* \"#utility.yul\":2714:2836   */\n    tag_333:\n        /* \"#utility.yul\":2872:2878   */\n      dup2\n        /* \"#utility.yul\":2859:2879   */\n      calldataload\n        /* \"#utility.yul\":2897:2976   */\n      tag_335\n        /* \"#utility.yul\":2972:2975   */\n      dup5\n        /* \"#utility.yul\":2964:2970   */\n      dup3\n        /* \"#utility.yul\":2957:2961   */\n      0x20\n        /* \"#utility.yul\":2949:2955   */\n      dup7\n        /* \"#utility.yul\":2945:2962   */\n      add\n        /* \"#utility.yul\":2897:2976   */\n      tag_246\n      jump\t// in\n    tag_335:\n        /* \"#utility.yul\":2888:2976   */\n      swap2\n      pop\n        /* \"#utility.yul\":2704:2982   */\n      pop\n        /* \"#utility.yul\":2642:2982   */\n      swap3\n      swap2\n      pop\n      pop\n      jump\t// out\n        /* \"#utility.yul\":2988:3822   */\n    tag_33:\n        /* \"#utility.yul\":3076:3082   */\n      0x00\n        /* \"#utility.yul\":3084:3090   */\n      dup1\n        /* \"#utility.yul\":3133:3135   */\n      0x40\n        /* \"#utility.yul\":3121:3130   */\n      dup4\n        /* \"#utility.yul\":3112:3119   */\n      dup6\n        /* \"#utility.yul\":3108:3131   */\n      sub\n        /* \"#utility.yul\":3104:3136   */\n      slt\n        /* \"#utility.yul\":3101:3220   */\n      iszero\n      tag_337\n      jumpi\n        /* \"#utility.yul\":3139:3218   */\n      tag_338\n      tag_236\n      jump\t// in\n    tag_338:\n        /* \"#utility.yul\":3101:3220   */\n    tag_337:\n        /* \"#utility.yul\":3287:3288   */\n      0x00\n        /* \"#utility.yul\":3276:3285   */\n      dup4\n        /* \"#utility.yul\":3272:3289   */\n      add\n        /* \"#utility.yul\":3259:3290   */\n      calldataload\n        /* \"#utility.yul\":3317:3335   */\n      0xffffffffffffffff\n        /* \"#utility.yul\":3309:3315   */\n      dup2\n        /* \"#utility.yul\":3306:3336   */\n      gt\n        /* \"#utility.yul\":3303:3420   */\n      iszero\n      tag_339\n      jumpi\n        /* \"#utility.yul\":3339:3418   */\n      tag_340\n      tag_237\n      jump\t// in\n    tag_340:\n        /* \"#utility.yul\":3303:3420   */\n    tag_339:\n        /* \"#utility.yul\":3444:3507   */\n      tag_341\n        /* \"#utility.yul\":3499:3506   */\n      dup6\n        /* \"#utility.yul\":3490:3496   */\n      dup3\n        /* \"#utility.yul\":3479:3488   */\n      dup7\n        /* \"#utility.yul\":3475:3497   */\n      add\n        /* \"#utility.yul\":3444:3507   */\n      tag_247\n      jump\t// in\n    tag_341:\n        /* \"#utility.yul\":3434:3507   */\n      swap3\n      pop\n        /* \"#utility.yul\":3230:3517   */\n      pop\n        /* \"#utility.yul\":3584:3586   */\n      0x20\n        /* \"#utility.yul\":3573:3582   */\n      dup4\n        /* \"#utility.yul\":3569:3587   */\n      add\n        /* \"#utility.yul\":3556:3588   */\n      calldataload\n        /* \"#utility.yul\":3615:3633   */\n      0xffffffffffffffff\n        /* \"#utility.yul\":3607:3613   */\n      dup2\n        /* \"#utility.yul\":3604:3634   */\n      gt\n        /* \"#utility.yul\":3601:3718   */\n      iszero\n      tag_342\n      jumpi\n        /* \"#utility.yul\":3637:3716   */\n      tag_343\n      tag_237\n      jump\t// in\n    tag_343:\n        /* \"#utility.yul\":3601:3718   */\n    tag_342:\n        /* \"#utility.yul\":3742:3805   */\n      tag_344\n        /* \"#utility.yul\":3797:3804   */\n      dup6\n        /* \"#utility.yul\":3788:3794   */\n      dup3\n        /* \"#utility.yul\":3777:3786   */\n      dup7\n        /* \"#utility.yul\":3773:3795   */\n      add\n        /* \"#utility.yul\":3742:3805   */\n      tag_247\n      jump\t// in\n    tag_344:\n        /* \"#utility.yul\":3732:3805   */\n      swap2\n      pop\n        /* \"#utility.yul\":3527:3815   */\n      pop\n        /* \"#utility.yul\":2988:3822   */\n      swap3\n      pop\n      swap3\n      swap1\n      pop\n      jump\t// out\n        /* \"#utility.yul\":3828:3927   */\n    tag_248:\n        /* \"#utility.yul\":3880:3886   */\n      0x00\n        /* \"#utility.yul\":3914:3919   */\n      dup2\n        /* \"#utility.yul\":3908:3920   */\n      mload\n        /* \"#utility.yul\":3898:3920   */\n      swap1\n      pop\n        /* \"#utility.yul\":3828:3927   */\n      swap2\n      swap1\n      pop\n      jump\t// out\n        /* \"#utility.yul\":3933:4102   */\n    tag_249:\n        /* \"#utility.yul\":4017:4028   */\n      0x00\n        /* \"#utility.yul\":4051:4057   */\n      dup3\n        /* \"#utility.yul\":4046:4049   */\n      dup3\n        /* \"#utility.yul\":4039:4058   */\n      mstore\n        /* \"#utility.yul\":4091:4095   */\n      0x20\n        /* \"#utility.yul\":4086:4089   */\n      dup3\n        /* \"#utility.yul\":4082:4096   */\n      add\n        /* \"#utility.yul\":4067:4096   */\n      swap1\n      pop\n        /* \"#utility.yul\":3933:4102   */\n      swap3\n      swap2\n      pop\n      pop\n      jump\t// out\n        /* \"#utility.yul\":4108:4354   */\n    tag_250:\n        /* \"#utility.yul\":4189:4190   */\n      0x00\n        /* \"#utility.yul\":4199:4312   */\n    tag_348:\n        /* \"#utility.yul\":4213:4219   */\n      dup4\n        /* \"#utility.yul\":4210:4211   */\n      dup2\n        /* \"#utility.yul\":4207:4220   */\n      lt\n        /* \"#utility.yul\":4199:4312   */\n      iszero\n      tag_350\n      jumpi\n        /* \"#utility.yul\":4298:4299   */\n      dup1\n        /* \"#utility.yul\":4293:4296   */\n      dup3\n        /* \"#utility.yul\":4289:4300   */\n      add\n        /* \"#utility.yul\":4283:4301   */\n      mload\n        /* \"#utility.yul\":4279:4280   */\n      dup2\n        /* \"#utility.yul\":4274:4277   */\n      dup5\n        /* \"#utility.yul\":4270:4281   */\n      add\n        /* \"#utility.yul\":4263:4302   */\n      mstore\n        /* \"#utility.yul\":4235:4237   */\n      0x20\n        /* \"#utility.yul\":4232:4233   */\n      dup2\n        /* \"#utility.yul\":4228:4238   */\n      add\n        /* \"#utility.yul\":4223:4238   */\n      swap1\n      pop\n        /* \"#utility.yul\":4199:4312   */\n      jump(tag_348)\n    tag_350:\n        /* \"#utility.yul\":4346:4347   */\n      0x00\n        /* \"#utility.yul\":4337:4343   */\n      dup5\n        /* \"#utility.yul\":4332:4335   */\n      dup5\n        /* \"#utility.yul\":4328:4344   */\n      add\n        /* \"#utility.yul\":4321:4348   */\n      mstore\n        /* \"#utility.yul\":4170:4354   */\n      pop\n        /* \"#utility.yul\":4108:4354   */\n      pop\n      pop\n      pop\n      jump\t// out\n        /* \"#utility.yul\":4360:4737   */\n    tag_251:\n        /* \"#utility.yul\":4448:4451   */\n      0x00\n        /* \"#utility.yul\":4476:4515   */\n      tag_352\n        /* \"#utility.yul\":4509:4514   */\n      dup3\n        /* \"#utility.yul\":4476:4515   */\n      tag_248\n      jump\t// in\n    tag_352:\n        /* \"#utility.yul\":4531:4602   */\n      tag_353\n        /* \"#utility.yul\":4595:4601   */\n      dup2\n        /* \"#utility.yul\":4590:4593   */\n      dup6\n        /* \"#utility.yul\":4531:4602   */\n      tag_249\n      jump\t// in\n    tag_353:\n        /* \"#utility.yul\":4524:4602   */\n      swap4\n      pop\n        /* \"#utility.yul\":4611:4676   */\n      tag_354\n        /* \"#utility.yul\":4669:4675   */\n      dup2\n        /* \"#utility.yul\":4664:4667   */\n      dup6\n        /* \"#utility.yul\":4657:4661   */\n      0x20\n        /* \"#utility.yul\":4650:4655   */\n      dup7\n        /* \"#utility.yul\":4646:4662   */\n      add\n        /* \"#utility.yul\":4611:4676   */\n      tag_250\n      jump\t// in\n    tag_354:\n        /* \"#utility.yul\":4701:4730   */\n      tag_355\n        /* \"#utility.yul\":4723:4729   */\n      dup2\n        /* \"#utility.yul\":4701:4730   */\n      tag_240\n      jump\t// in\n    tag_355:\n        /* \"#utility.yul\":4696:4699   */\n      dup5\n        /* \"#utility.yul\":4692:4731   */\n      add\n        /* \"#utility.yul\":4685:4731   */\n      swap2\n      pop\n        /* \"#utility.yul\":4452:4737   */\n      pop\n        /* \"#utility.yul\":4360:4737   */\n      swap3\n      swap2\n      pop\n      pop\n      jump\t// out\n        /* \"#utility.yul\":4743:5056   */\n    tag_38:\n        /* \"#utility.yul\":4856:4860   */\n      0x00\n        /* \"#utility.yul\":4894:4896   */\n      0x20\n        /* \"#utility.yul\":4883:4892   */\n      dup3\n        /* \"#utility.yul\":4879:4897   */\n      add\n        /* \"#utility.yul\":4871:4897   */\n      swap1\n      pop\n        /* \"#utility.yul\":4943:4952   */\n      dup2\n        /* \"#utility.yul\":4937:4941   */\n      dup2\n        /* \"#utility.yul\":4933:4953   */\n      sub\n        /* \"#utility.yul\":4929:4930   */\n      0x00\n        /* \"#utility.yul\":4918:4927   */\n      dup4\n        /* \"#utility.yul\":4914:4931   */\n      add\n        /* \"#utility.yul\":4907:4954   */\n      mstore\n        /* \"#utility.yul\":4971:5049   */\n      tag_357\n        /* \"#utility.yul\":5044:5048   */\n      dup2\n        /* \"#utility.yul\":5035:5041   */\n      dup5\n        /* \"#utility.yul\":4971:5049   */\n      tag_251\n      jump\t// in\n    tag_357:\n        /* \"#utility.yul\":4963:5049   */\n      swap1\n      pop\n        /* \"#utility.yul\":4743:5056   */\n      swap3\n      swap2\n      pop\n      pop\n      jump\t// out\n        /* \"#utility.yul\":5062:5188   */\n    tag_252:\n        /* \"#utility.yul\":5099:5106   */\n      0x00\n        /* \"#utility.yul\":5139:5181   */\n      0xffffffffffffffffffffffffffffffffffffffff\n        /* \"#utility.yul\":5132:5137   */\n      dup3\n        /* \"#utility.yul\":5128:5182   */\n      and\n        /* \"#utility.yul\":5117:5182   */\n      swap1\n      pop\n        /* \"#utility.yul\":5062:5188   */\n      swap2\n      swap1\n      pop\n      jump\t// out\n        /* \"#utility.yul\":5194:5290   */\n    tag_253:\n        /* \"#utility.yul\":5231:5238   */\n      0x00\n        /* \"#utility.yul\":5260:5284   */\n      tag_360\n        /* \"#utility.yul\":5278:5283   */\n      dup3\n        /* \"#utility.yul\":5260:5284   */\n      tag_252\n      jump\t// in\n    tag_360:\n        /* \"#utility.yul\":5249:5284   */\n      swap1\n      pop\n        /* \"#utility.yul\":5194:5290   */\n      swap2\n      swap1\n      pop\n      jump\t// out\n        /* \"#utility.yul\":5296:5414   */\n    tag_254:\n        /* \"#utility.yul\":5383:5407   */\n      tag_362\n        /* \"#utility.yul\":5401:5406   */\n      dup2\n        /* \"#utility.yul\":5383:5407   */\n      tag_253\n      jump\t// in\n    tag_362:\n        /* \"#utility.yul\":5378:5381   */\n      dup3\n        /* \"#utility.yul\":5371:5408   */\n      mstore\n        /* \"#utility.yul\":5296:5414   */\n      pop\n      pop\n      jump\t// out\n        /* \"#utility.yul\":5420:5642   */\n    tag_42:\n        /* \"#utility.yul\":5513:5517   */\n      0x00\n        /* \"#utility.yul\":5551:5553   */\n      0x20\n        /* \"#utility.yul\":5540:5549   */\n      dup3\n        /* \"#utility.yul\":5536:5554   */\n      add\n        /* \"#utility.yul\":5528:5554   */\n      swap1\n      pop\n        /* \"#utility.yul\":5564:5635   */\n      tag_364\n        /* \"#utility.yul\":5632:5633   */\n      0x00\n        /* \"#utility.yul\":5621:5630   */\n      dup4\n        /* \"#utility.yul\":5617:5634   */\n      add\n        /* \"#utility.yul\":5608:5614   */\n      dup5\n        /* \"#utility.yul\":5564:5635   */\n      tag_254\n      jump\t// in\n    tag_364:\n        /* \"#utility.yul\":5420:5642   */\n      swap3\n      swap2\n      pop\n      pop\n      jump\t// out\n        /* \"#utility.yul\":5648:5770   */\n    tag_255:\n        /* \"#utility.yul\":5721:5745   */\n      tag_366\n        /* \"#utility.yul\":5739:5744   */\n      dup2\n        /* \"#utility.yul\":5721:5745   */\n      tag_233\n      jump\t// in\n    tag_366:\n        /* \"#utility.yul\":5714:5719   */\n      dup2\n        /* \"#utility.yul\":5711:5746   */\n      eq\n        /* \"#utility.yul\":5701:5764   */\n      tag_367\n      jumpi\n        /* \"#utility.yul\":5760:5761   */\n      0x00\n        /* \"#utility.yul\":5757:5758   */\n      dup1\n        /* \"#utility.yul\":5750:5762   */\n      revert\n        /* \"#utility.yul\":5701:5764   */\n    tag_367:\n        /* \"#utility.yul\":5648:5770   */\n      pop\n      jump\t// out\n        /* \"#utility.yul\":5776:5915   */\n    tag_256:\n        /* \"#utility.yul\":5822:5827   */\n      0x00\n        /* \"#utility.yul\":5860:5866   */\n      dup2\n        /* \"#utility.yul\":5847:5867   */\n      calldataload\n        /* \"#utility.yul\":5838:5867   */\n      swap1\n      pop\n        /* \"#utility.yul\":5876:5909   */\n      tag_369\n        /* \"#utility.yul\":5903:5908   */\n      dup2\n        /* \"#utility.yul\":5876:5909   */\n      tag_255\n      jump\t// in\n    tag_369:\n        /* \"#utility.yul\":5776:5915   */\n      swap3\n      swap2\n      pop\n      pop\n      jump\t// out\n        /* \"#utility.yul\":5921:6250   */\n    tag_45:\n        /* \"#utility.yul\":5980:5986   */\n      0x00\n        /* \"#utility.yul\":6029:6031   */\n      0x20\n        /* \"#utility.yul\":6017:6026   */\n      dup3\n        /* \"#utility.yul\":6008:6015   */\n      dup5\n        /* \"#utility.yul\":6004:6027   */\n      sub\n        /* \"#utility.yul\":6000:6032   */\n      slt\n        /* \"#utility.yul\":5997:6116   */\n      iszero\n      tag_371\n      jumpi\n        /* \"#utility.yul\":6035:6114   */\n      tag_372\n      tag_236\n      jump\t// in\n    tag_372:\n        /* \"#utility.yul\":5997:6116   */\n    tag_371:\n        /* \"#utility.yul\":6155:6156   */\n      0x00\n        /* \"#utility.yul\":6180:6233   */\n      tag_373\n        /* \"#utility.yul\":6225:6232   */\n      dup5\n        /* \"#utility.yul\":6216:6222   */\n      dup3\n        /* \"#utility.yul\":6205:6214   */\n      dup6\n        /* \"#utility.yul\":6201:6223   */\n      add\n        /* \"#utility.yul\":6180:6233   */\n      tag_256\n      jump\t// in\n    tag_373:\n        /* \"#utility.yul\":6170:6233   */\n      swap2\n      pop\n        /* \"#utility.yul\":6126:6243   */\n      pop\n        /* \"#utility.yul\":5921:6250   */\n      swap3\n      swap2\n      pop\n      pop\n      jump\t// out\n        /* \"#utility.yul\":6256:6880   */\n    tag_48:\n        /* \"#utility.yul\":6445:6449   */\n      0x00\n        /* \"#utility.yul\":6483:6485   */\n      0x60\n        /* \"#utility.yul\":6472:6481   */\n      dup3\n        /* \"#utility.yul\":6468:6486   */\n      add\n        /* \"#utility.yul\":6460:6486   */\n      swap1\n      pop\n        /* \"#utility.yul\":6532:6541   */\n      dup2\n        /* \"#utility.yul\":6526:6530   */\n      dup2\n        /* \"#utility.yul\":6522:6542   */\n      sub\n        /* \"#utility.yul\":6518:6519   */\n      0x00\n        /* \"#utility.yul\":6507:6516   */\n      dup4\n        /* \"#utility.yul\":6503:6520   */\n      add\n        /* \"#utility.yul\":6496:6543   */\n      mstore\n        /* \"#utility.yul\":6560:6638   */\n      tag_375\n        /* \"#utility.yul\":6633:6637   */\n      dup2\n        /* \"#utility.yul\":6624:6630   */\n      dup7\n        /* \"#utility.yul\":6560:6638   */\n      tag_251\n      jump\t// in\n    tag_375:\n        /* \"#utility.yul\":6552:6638   */\n      swap1\n      pop\n        /* \"#utility.yul\":6685:6694   */\n      dup2\n        /* \"#utility.yul\":6679:6683   */\n      dup2\n        /* \"#utility.yul\":6675:6695   */\n      sub\n        /* \"#utility.yul\":6670:6672   */\n      0x20\n        /* \"#utility.yul\":6659:6668   */\n      dup4\n        /* \"#utility.yul\":6655:6673   */\n      add\n        /* \"#utility.yul\":6648:6696   */\n      mstore\n        /* \"#utility.yul\":6713:6791   */\n      tag_376\n        /* \"#utility.yul\":6786:6790   */\n      dup2\n        /* \"#utility.yul\":6777:6783   */\n      dup6\n        /* \"#utility.yul\":6713:6791   */\n      tag_251\n      jump\t// in\n    tag_376:\n        /* \"#utility.yul\":6705:6791   */\n      swap1\n      pop\n        /* \"#utility.yul\":6801:6873   */\n      tag_377\n        /* \"#utility.yul\":6869:6871   */\n      0x40\n        /* \"#utility.yul\":6858:6867   */\n      dup4\n        /* \"#utility.yul\":6854:6872   */\n      add\n        /* \"#utility.yul\":6845:6851   */\n      dup5\n        /* \"#utility.yul\":6801:6873   */\n      tag_234\n      jump\t// in\n    tag_377:\n        /* \"#utility.yul\":6256:6880   */\n      swap5\n      swap4\n      pop\n      pop\n      pop\n      pop\n      jump\t// out\n        /* \"#utility.yul\":6886:6976   */\n    tag_257:\n        /* \"#utility.yul\":6920:6927   */\n      0x00\n        /* \"#utility.yul\":6963:6968   */\n      dup2\n        /* \"#utility.yul\":6956:6969   */\n      iszero\n        /* \"#utility.yul\":6949:6970   */\n      iszero\n        /* \"#utility.yul\":6938:6970   */\n      swap1\n      pop\n        /* \"#utility.yul\":6886:6976   */\n      swap2\n      swap1\n      pop\n      jump\t// out\n        /* \"#utility.yul\":6982:7091   */\n    tag_258:\n        /* \"#utility.yul\":7063:7084   */\n      tag_380\n        /* \"#utility.yul\":7078:7083   */\n      dup2\n        /* \"#utility.yul\":7063:7084   */\n      tag_257\n      jump\t// in\n    tag_380:\n        /* \"#utility.yul\":7058:7061   */\n      dup3\n        /* \"#utility.yul\":7051:7085   */\n      mstore\n        /* \"#utility.yul\":6982:7091   */\n      pop\n      pop\n      jump\t// out\n        /* \"#utility.yul\":7097:7307   */\n    tag_52:\n        /* \"#utility.yul\":7184:7188   */\n      0x00\n        /* \"#utility.yul\":7222:7224   */\n      0x20\n        /* \"#utility.yul\":7211:7220   */\n      dup3\n        /* \"#utility.yul\":7207:7225   */\n      add\n        /* \"#utility.yul\":7199:7225   */\n      swap1\n      pop\n        /* \"#utility.yul\":7235:7300   */\n      tag_382\n        /* \"#utility.yul\":7297:7298   */\n      0x00\n        /* \"#utility.yul\":7286:7295   */\n      dup4\n        /* \"#utility.yul\":7282:7299   */\n      add\n        /* \"#utility.yul\":7273:7279   */\n      dup5\n        /* \"#utility.yul\":7235:7300   */\n      tag_258\n      jump\t// in\n    tag_382:\n        /* \"#utility.yul\":7097:7307   */\n      swap3\n      swap2\n      pop\n      pop\n      jump\t// out\n        /* \"#utility.yul\":7313:7452   */\n    tag_259:\n        /* \"#utility.yul\":7405:7411   */\n      0x00\n        /* \"#utility.yul\":7439:7444   */\n      dup2\n        /* \"#utility.yul\":7433:7445   */\n      mload\n        /* \"#utility.yul\":7423:7445   */\n      swap1\n      pop\n        /* \"#utility.yul\":7313:7452   */\n      swap2\n      swap1\n      pop\n      jump\t// out\n        /* \"#utility.yul\":7458:7667   */\n    tag_260:\n        /* \"#utility.yul\":7582:7593   */\n      0x00\n        /* \"#utility.yul\":7616:7622   */\n      dup3\n        /* \"#utility.yul\":7611:7614   */\n      dup3\n        /* \"#utility.yul\":7604:7623   */\n      mstore\n        /* \"#utility.yul\":7656:7660   */\n      0x20\n        /* \"#utility.yul\":7651:7654   */\n      dup3\n        /* \"#utility.yul\":7647:7661   */\n      add\n        /* \"#utility.yul\":7632:7661   */\n      swap1\n      pop\n        /* \"#utility.yul\":7458:7667   */\n      swap3\n      swap2\n      pop\n      pop\n      jump\t// out\n        /* \"#utility.yul\":7673:7830   */\n    tag_261:\n        /* \"#utility.yul\":7765:7769   */\n      0x00\n        /* \"#utility.yul\":7788:7791   */\n      dup2\n        /* \"#utility.yul\":7780:7791   */\n      swap1\n      pop\n        /* \"#utility.yul\":7818:7822   */\n      0x20\n        /* \"#utility.yul\":7813:7816   */\n      dup3\n        /* \"#utility.yul\":7809:7823   */\n      add\n        /* \"#utility.yul\":7801:7823   */\n      swap1\n      pop\n        /* \"#utility.yul\":7673:7830   */\n      swap2\n      swap1\n      pop\n      jump\t// out\n        /* \"#utility.yul\":7836:7995   */\n    tag_262:\n        /* \"#utility.yul\":7910:7921   */\n      0x00\n        /* \"#utility.yul\":7944:7950   */\n      dup3\n        /* \"#utility.yul\":7939:7942   */\n      dup3\n        /* \"#utility.yul\":7932:7951   */\n      mstore\n        /* \"#utility.yul\":7984:7988   */\n      0x20\n        /* \"#utility.yul\":7979:7982   */\n      dup3\n        /* \"#utility.yul\":7975:7989   */\n      add\n        /* \"#utility.yul\":7960:7989   */\n      swap1\n      pop\n        /* \"#utility.yul\":7836:7995   */\n      swap3\n      swap2\n      pop\n      pop\n      jump\t// out\n        /* \"#utility.yul\":8001:8358   */\n    tag_263:\n        /* \"#utility.yul\":8079:8082   */\n      0x00\n        /* \"#utility.yul\":8107:8146   */\n      tag_388\n        /* \"#utility.yul\":8140:8145   */\n      dup3\n        /* \"#utility.yul\":8107:8146   */\n      tag_248\n      jump\t// in\n    tag_388:\n        /* \"#utility.yul\":8162:8223   */\n      tag_389\n        /* \"#utility.yul\":8216:8222   */\n      dup2\n        /* \"#utility.yul\":8211:8214   */\n      dup6\n        /* \"#utility.yul\":8162:8223   */\n      tag_262\n      jump\t// in\n    tag_389:\n        /* \"#utility.yul\":8155:8223   */\n      swap4\n      pop\n        /* \"#utility.yul\":8232:8297   */\n      tag_390\n        /* \"#utility.yul\":8290:8296   */\n      dup2\n        /* \"#utility.yul\":8285:8288   */\n      dup6\n        /* \"#utility.yul\":8278:8282   */\n      0x20\n        /* \"#utility.yul\":8271:8276   */\n      dup7\n        /* \"#utility.yul\":8267:8283   */\n      add\n        /* \"#utility.yul\":8232:8297   */\n      tag_250\n      jump\t// in\n    tag_390:\n        /* \"#utility.yul\":8322:8351   */\n      tag_391\n        /* \"#utility.yul\":8344:8350   */\n      dup2\n        /* \"#utility.yul\":8322:8351   */\n      tag_240\n      jump\t// in\n    tag_391:\n        /* \"#utility.yul\":8317:8320   */\n      dup5\n        /* \"#utility.yul\":8313:8352   */\n      add\n        /* \"#utility.yul\":8306:8352   */\n      swap2\n      pop\n        /* \"#utility.yul\":8083:8358   */\n      pop\n        /* \"#utility.yul\":8001:8358   */\n      swap3\n      swap2\n      pop\n      pop\n      jump\t// out\n        /* \"#utility.yul\":8364:8472   */\n    tag_264:\n        /* \"#utility.yul\":8441:8465   */\n      tag_393\n        /* \"#utility.yul\":8459:8464   */\n      dup2\n        /* \"#utility.yul\":8441:8465   */\n      tag_233\n      jump\t// in\n    tag_393:\n        /* \"#utility.yul\":8436:8439   */\n      dup3\n        /* \"#utility.yul\":8429:8466   */\n      mstore\n        /* \"#utility.yul\":8364:8472   */\n      pop\n      pop\n      jump\t// out\n        /* \"#utility.yul\":8540:9388   */\n    tag_265:\n        /* \"#utility.yul\":8649:8652   */\n      0x00\n        /* \"#utility.yul\":8685:8689   */\n      0x60\n        /* \"#utility.yul\":8680:8683   */\n      dup4\n        /* \"#utility.yul\":8676:8690   */\n      add\n        /* \"#utility.yul\":8772:8776   */\n      0x00\n        /* \"#utility.yul\":8765:8770   */\n      dup4\n        /* \"#utility.yul\":8761:8777   */\n      add\n        /* \"#utility.yul\":8755:8778   */\n      mload\n        /* \"#utility.yul\":8825:8828   */\n      dup5\n        /* \"#utility.yul\":8819:8823   */\n      dup3\n        /* \"#utility.yul\":8815:8829   */\n      sub\n        /* \"#utility.yul\":8808:8812   */\n      0x00\n        /* \"#utility.yul\":8803:8806   */\n      dup7\n        /* \"#utility.yul\":8799:8813   */\n      add\n        /* \"#utility.yul\":8792:8830   */\n      mstore\n        /* \"#utility.yul\":8851:8924   */\n      tag_395\n        /* \"#utility.yul\":8919:8923   */\n      dup3\n        /* \"#utility.yul\":8905:8917   */\n      dup3\n        /* \"#utility.yul\":8851:8924   */\n      tag_263\n      jump\t// in\n    tag_395:\n        /* \"#utility.yul\":8843:8924   */\n      swap2\n      pop\n        /* \"#utility.yul\":8700:8935   */\n      pop\n        /* \"#utility.yul\":9018:9022   */\n      0x20\n        /* \"#utility.yul\":9011:9016   */\n      dup4\n        /* \"#utility.yul\":9007:9023   */\n      add\n        /* \"#utility.yul\":9001:9024   */\n      mload\n        /* \"#utility.yul\":9071:9074   */\n      dup5\n        /* \"#utility.yul\":9065:9069   */\n      dup3\n        /* \"#utility.yul\":9061:9075   */\n      sub\n        /* \"#utility.yul\":9054:9058   */\n      0x20\n        /* \"#utility.yul\":9049:9052   */\n      dup7\n        /* \"#utility.yul\":9045:9059   */\n      add\n        /* \"#utility.yul\":9038:9076   */\n      mstore\n        /* \"#utility.yul\":9097:9170   */\n      tag_396\n        /* \"#utility.yul\":9165:9169   */\n      dup3\n        /* \"#utility.yul\":9151:9163   */\n      dup3\n        /* \"#utility.yul\":9097:9170   */\n      tag_263\n      jump\t// in\n    tag_396:\n        /* \"#utility.yul\":9089:9170   */\n      swap2\n      pop\n        /* \"#utility.yul\":8945:9181   */\n      pop\n        /* \"#utility.yul\":9269:9273   */\n      0x40\n        /* \"#utility.yul\":9262:9267   */\n      dup4\n        /* \"#utility.yul\":9258:9274   */\n      add\n        /* \"#utility.yul\":9252:9275   */\n      mload\n        /* \"#utility.yul\":9288:9351   */\n      tag_397\n        /* \"#utility.yul\":9345:9349   */\n      0x40\n        /* \"#utility.yul\":9340:9343   */\n      dup7\n        /* \"#utility.yul\":9336:9350   */\n      add\n        /* \"#utility.yul\":9322:9334   */\n      dup3\n        /* \"#utility.yul\":9288:9351   */\n      tag_264\n      jump\t// in\n    tag_397:\n        /* \"#utility.yul\":9191:9361   */\n      pop\n        /* \"#utility.yul\":9378:9382   */\n      dup1\n        /* \"#utility.yul\":9371:9382   */\n      swap2\n      pop\n        /* \"#utility.yul\":8654:9388   */\n      pop\n        /* \"#utility.yul\":8540:9388   */\n      swap3\n      swap2\n      pop\n      pop\n      jump\t// out\n        /* \"#utility.yul\":9394:9650   */\n    tag_266:\n        /* \"#utility.yul\":9513:9523   */\n      0x00\n        /* \"#utility.yul\":9548:9644   */\n      tag_399\n        /* \"#utility.yul\":9640:9643   */\n      dup4\n        /* \"#utility.yul\":9632:9638   */\n      dup4\n        /* \"#utility.yul\":9548:9644   */\n      tag_265\n      jump\t// in\n    tag_399:\n        /* \"#utility.yul\":9534:9644   */\n      swap1\n      pop\n        /* \"#utility.yul\":9394:9650   */\n      swap3\n      swap2\n      pop\n      pop\n      jump\t// out\n        /* \"#utility.yul\":9656:9794   */\n    tag_267:\n        /* \"#utility.yul\":9751:9755   */\n      0x00\n        /* \"#utility.yul\":9783:9787   */\n      0x20\n        /* \"#utility.yul\":9778:9781   */\n      dup3\n        /* \"#utility.yul\":9774:9788   */\n      add\n        /* \"#utility.yul\":9766:9788   */\n      swap1\n      pop\n        /* \"#utility.yul\":9656:9794   */\n      swap2\n      swap1\n      pop\n      jump\t// out\n        /* \"#utility.yul\":9866:10977   */\n    tag_268:\n        /* \"#utility.yul\":10035:10038   */\n      0x00\n        /* \"#utility.yul\":10064:10143   */\n      tag_402\n        /* \"#utility.yul\":10137:10142   */\n      dup3\n        /* \"#utility.yul\":10064:10143   */\n      tag_259\n      jump\t// in\n    tag_402:\n        /* \"#utility.yul\":10159:10270   */\n      tag_403\n        /* \"#utility.yul\":10263:10269   */\n      dup2\n        /* \"#utility.yul\":10258:10261   */\n      dup6\n        /* \"#utility.yul\":10159:10270   */\n      tag_260\n      jump\t// in\n    tag_403:\n        /* \"#utility.yul\":10152:10270   */\n      swap4\n      pop\n        /* \"#utility.yul\":10296:10299   */\n      dup4\n        /* \"#utility.yul\":10341:10345   */\n      0x20\n        /* \"#utility.yul\":10333:10339   */\n      dup3\n        /* \"#utility.yul\":10329:10346   */\n      mul\n        /* \"#utility.yul\":10324:10327   */\n      dup6\n        /* \"#utility.yul\":10320:10347   */\n      add\n        /* \"#utility.yul\":10371:10452   */\n      tag_404\n        /* \"#utility.yul\":10446:10451   */\n      dup6\n        /* \"#utility.yul\":10371:10452   */\n      tag_261\n      jump\t// in\n    tag_404:\n        /* \"#utility.yul\":10475:10482   */\n      dup1\n        /* \"#utility.yul\":10506:10507   */\n      0x00\n        /* \"#utility.yul\":10491:10932   */\n    tag_405:\n        /* \"#utility.yul\":10516:10522   */\n      dup6\n        /* \"#utility.yul\":10513:10514   */\n      dup2\n        /* \"#utility.yul\":10510:10523   */\n      lt\n        /* \"#utility.yul\":10491:10932   */\n      iszero\n      tag_407\n      jumpi\n        /* \"#utility.yul\":10587:10596   */\n      dup5\n        /* \"#utility.yul\":10581:10585   */\n      dup5\n        /* \"#utility.yul\":10577:10597   */\n      sub\n        /* \"#utility.yul\":10572:10575   */\n      dup10\n        /* \"#utility.yul\":10565:10598   */\n      mstore\n        /* \"#utility.yul\":10638:10644   */\n      dup2\n        /* \"#utility.yul\":10632:10645   */\n      mload\n        /* \"#utility.yul\":10666:10780   */\n      tag_408\n        /* \"#utility.yul\":10775:10779   */\n      dup6\n        /* \"#utility.yul\":10760:10773   */\n      dup3\n        /* \"#utility.yul\":10666:10780   */\n      tag_266\n      jump\t// in\n    tag_408:\n        /* \"#utility.yul\":10658:10780   */\n      swap5\n      pop\n        /* \"#utility.yul\":10803:10888   */\n      tag_409\n        /* \"#utility.yul\":10881:10887   */\n      dup4\n        /* \"#utility.yul\":10803:10888   */\n      tag_267\n      jump\t// in\n    tag_409:\n        /* \"#utility.yul\":10793:10888   */\n      swap3\n      pop\n        /* \"#utility.yul\":10917:10921   */\n      0x20\n        /* \"#utility.yul\":10912:10915   */\n      dup11\n        /* \"#utility.yul\":10908:10922   */\n      add\n        /* \"#utility.yul\":10901:10922   */\n      swap10\n      pop\n        /* \"#utility.yul\":10551:10932   */\n      pop\n        /* \"#utility.yul\":10538:10539   */\n      0x01\n        /* \"#utility.yul\":10535:10536   */\n      dup2\n        /* \"#utility.yul\":10531:10540   */\n      add\n        /* \"#utility.yul\":10526:10540   */\n      swap1\n      pop\n        /* \"#utility.yul\":10491:10932   */\n      jump(tag_405)\n    tag_407:\n        /* \"#utility.yul\":10495:10509   */\n      pop\n        /* \"#utility.yul\":10948:10952   */\n      dup3\n        /* \"#utility.yul\":10941:10952   */\n      swap8\n      pop\n        /* \"#utility.yul\":10968:10971   */\n      dup8\n        /* \"#utility.yul\":10961:10971   */\n      swap6\n      pop\n        /* \"#utility.yul\":10040:10977   */\n      pop\n      pop\n      pop\n      pop\n      pop\n        /* \"#utility.yul\":9866:10977   */\n      swap3\n      swap2\n      pop\n      pop\n      jump\t// out\n        /* \"#utility.yul\":10983:11456   */\n    tag_56:\n        /* \"#utility.yul\":11176:11180   */\n      0x00\n        /* \"#utility.yul\":11214:11216   */\n      0x20\n        /* \"#utility.yul\":11203:11212   */\n      dup3\n        /* \"#utility.yul\":11199:11217   */\n      add\n        /* \"#utility.yul\":11191:11217   */\n      swap1\n      pop\n        /* \"#utility.yul\":11263:11272   */\n      dup2\n        /* \"#utility.yul\":11257:11261   */\n      dup2\n        /* \"#utility.yul\":11253:11273   */\n      sub\n        /* \"#utility.yul\":11249:11250   */\n      0x00\n        /* \"#utility.yul\":11238:11247   */\n      dup4\n        /* \"#utility.yul\":11234:11251   */\n      add\n        /* \"#utility.yul\":11227:11274   */\n      mstore\n        /* \"#utility.yul\":11291:11449   */\n      tag_411\n        /* \"#utility.yul\":11444:11448   */\n      dup2\n        /* \"#utility.yul\":11435:11441   */\n      dup5\n        /* \"#utility.yul\":11291:11449   */\n      tag_268\n      jump\t// in\n    tag_411:\n        /* \"#utility.yul\":11283:11449   */\n      swap1\n      pop\n        /* \"#utility.yul\":10983:11456   */\n      swap3\n      swap2\n      pop\n      pop\n      jump\t// out\n        /* \"#utility.yul\":11462:11584   */\n    tag_269:\n        /* \"#utility.yul\":11535:11559   */\n      tag_413\n        /* \"#utility.yul\":11553:11558   */\n      dup2\n        /* \"#utility.yul\":11535:11559   */\n      tag_253\n      jump\t// in\n    tag_413:\n        /* \"#utility.yul\":11528:11533   */\n      dup2\n        /* \"#utility.yul\":11525:11560   */\n      eq\n        /* \"#utility.yul\":11515:11578   */\n      tag_414\n      jumpi\n        /* \"#utility.yul\":11574:11575   */\n      0x00\n        /* \"#utility.yul\":11571:11572   */\n      dup1\n        /* \"#utility.yul\":11564:11576   */\n      revert\n        /* \"#utility.yul\":11515:11578   */\n    tag_414:\n        /* \"#utility.yul\":11462:11584   */\n      pop\n      jump\t// out\n        /* \"#utility.yul\":11590:11729   */\n    tag_270:\n        /* \"#utility.yul\":11636:11641   */\n      0x00\n        /* \"#utility.yul\":11674:11680   */\n      dup2\n        /* \"#utility.yul\":11661:11681   */\n      calldataload\n        /* \"#utility.yul\":11652:11681   */\n      swap1\n      pop\n        /* \"#utility.yul\":11690:11723   */\n      tag_416\n        /* \"#utility.yul\":11717:11722   */\n      dup2\n        /* \"#utility.yul\":11690:11723   */\n      tag_269\n      jump\t// in\n    tag_416:\n        /* \"#utility.yul\":11590:11729   */\n      swap3\n      swap2\n      pop\n      pop\n      jump\t// out\n        /* \"#utility.yul\":11735:12064   */\n    tag_59:\n        /* \"#utility.yul\":11794:11800   */\n      0x00\n        /* \"#utility.yul\":11843:11845   */\n      0x20\n        /* \"#utility.yul\":11831:11840   */\n      dup3\n        /* \"#utility.yul\":11822:11829   */\n      dup5\n        /* \"#utility.yul\":11818:11841   */\n      sub\n        /* \"#utility.yul\":11814:11846   */\n      slt\n        /* \"#utility.yul\":11811:11930   */\n      iszero\n      tag_418\n      jumpi\n        /* \"#utility.yul\":11849:11928   */\n      tag_419\n      tag_236\n      jump\t// in\n    tag_419:\n        /* \"#utility.yul\":11811:11930   */\n    tag_418:\n        /* \"#utility.yul\":11969:11970   */\n      0x00\n        /* \"#utility.yul\":11994:12047   */\n      tag_420\n        /* \"#utility.yul\":12039:12046   */\n      dup5\n        /* \"#utility.yul\":12030:12036   */\n      dup3\n        /* \"#utility.yul\":12019:12028   */\n      dup6\n        /* \"#utility.yul\":12015:12037   */\n      add\n        /* \"#utility.yul\":11994:12047   */\n      tag_270\n      jump\t// in\n    tag_420:\n        /* \"#utility.yul\":11984:12047   */\n      swap2\n      pop\n        /* \"#utility.yul\":11940:12057   */\n      pop\n        /* \"#utility.yul\":11735:12064   */\n      swap3\n      swap2\n      pop\n      pop\n      jump\t// out\n        /* \"#utility.yul\":12070:12187   */\n    tag_271:\n        /* \"#utility.yul\":12179:12180   */\n      0x00\n        /* \"#utility.yul\":12176:12177   */\n      dup1\n        /* \"#utility.yul\":12169:12181   */\n      revert\n        /* \"#utility.yul\":12193:12310   */\n    tag_272:\n        /* \"#utility.yul\":12302:12303   */\n      0x00\n        /* \"#utility.yul\":12299:12300   */\n      dup1\n        /* \"#utility.yul\":12292:12304   */\n      revert\n        /* \"#utility.yul\":12349:13431   */\n    tag_273:\n        /* \"#utility.yul\":12423:12428   */\n      0x00\n        /* \"#utility.yul\":12467:12471   */\n      0x60\n        /* \"#utility.yul\":12455:12464   */\n      dup3\n        /* \"#utility.yul\":12450:12453   */\n      dup5\n        /* \"#utility.yul\":12446:12465   */\n      sub\n        /* \"#utility.yul\":12442:12472   */\n      slt\n        /* \"#utility.yul\":12439:12556   */\n      iszero\n      tag_424\n      jumpi\n        /* \"#utility.yul\":12475:12554   */\n      tag_425\n      tag_271\n      jump\t// in\n    tag_425:\n        /* \"#utility.yul\":12439:12556   */\n    tag_424:\n        /* \"#utility.yul\":12574:12595   */\n      tag_426\n        /* \"#utility.yul\":12590:12594   */\n      0x60\n        /* \"#utility.yul\":12574:12595   */\n      tag_243\n      jump\t// in\n    tag_426:\n        /* \"#utility.yul\":12565:12595   */\n      swap1\n      pop\n        /* \"#utility.yul\":12682:12683   */\n      0x00\n        /* \"#utility.yul\":12671:12680   */\n      dup3\n        /* \"#utility.yul\":12667:12684   */\n      add\n        /* \"#utility.yul\":12654:12685   */\n      calldataload\n        /* \"#utility.yul\":12712:12730   */\n      0xffffffffffffffff\n        /* \"#utility.yul\":12704:12710   */\n      dup2\n        /* \"#utility.yul\":12701:12731   */\n      gt\n        /* \"#utility.yul\":12698:12815   */\n      iszero\n      tag_427\n      jumpi\n        /* \"#utility.yul\":12734:12813   */\n      tag_428\n      tag_272\n      jump\t// in\n    tag_428:\n        /* \"#utility.yul\":12698:12815   */\n    tag_427:\n        /* \"#utility.yul\":12854:12913   */\n      tag_429\n        /* \"#utility.yul\":12909:12912   */\n      dup5\n        /* \"#utility.yul\":12900:12906   */\n      dup3\n        /* \"#utility.yul\":12889:12898   */\n      dup6\n        /* \"#utility.yul\":12885:12907   */\n      add\n        /* \"#utility.yul\":12854:12913   */\n      tag_247\n      jump\t// in\n    tag_429:\n        /* \"#utility.yul\":12847:12851   */\n      0x00\n        /* \"#utility.yul\":12840:12845   */\n      dup4\n        /* \"#utility.yul\":12836:12852   */\n      add\n        /* \"#utility.yul\":12829:12914   */\n      mstore\n        /* \"#utility.yul\":12605:12925   */\n      pop\n        /* \"#utility.yul\":13013:13015   */\n      0x20\n        /* \"#utility.yul\":13002:13011   */\n      dup3\n        /* \"#utility.yul\":12998:13016   */\n      add\n        /* \"#utility.yul\":12985:13017   */\n      calldataload\n        /* \"#utility.yul\":13044:13062   */\n      0xffffffffffffffff\n        /* \"#utility.yul\":13036:13042   */\n      dup2\n        /* \"#utility.yul\":13033:13063   */\n      gt\n        /* \"#utility.yul\":13030:13147   */\n      iszero\n      tag_430\n      jumpi\n        /* \"#utility.yul\":13066:13145   */\n      tag_431\n      tag_272\n      jump\t// in\n    tag_431:\n        /* \"#utility.yul\":13030:13147   */\n    tag_430:\n        /* \"#utility.yul\":13186:13245   */\n      tag_432\n        /* \"#utility.yul\":13241:13244   */\n      dup5\n        /* \"#utility.yul\":13232:13238   */\n      dup3\n        /* \"#utility.yul\":13221:13230   */\n      dup6\n        /* \"#utility.yul\":13217:13239   */\n      add\n        /* \"#utility.yul\":13186:13245   */\n      tag_247\n      jump\t// in\n    tag_432:\n        /* \"#utility.yul\":13179:13183   */\n      0x20\n        /* \"#utility.yul\":13172:13177   */\n      dup4\n        /* \"#utility.yul\":13168:13184   */\n      add\n        /* \"#utility.yul\":13161:13246   */\n      mstore\n        /* \"#utility.yul\":12935:13257   */\n      pop\n        /* \"#utility.yul\":13322:13324   */\n      0x40\n        /* \"#utility.yul\":13363:13412   */\n      tag_433\n        /* \"#utility.yul\":13408:13411   */\n      dup5\n        /* \"#utility.yul\":13399:13405   */\n      dup3\n        /* \"#utility.yul\":13388:13397   */\n      dup6\n        /* \"#utility.yul\":13384:13406   */\n      add\n        /* \"#utility.yul\":13363:13412   */\n      tag_256\n      jump\t// in\n    tag_433:\n        /* \"#utility.yul\":13356:13360   */\n      0x40\n        /* \"#utility.yul\":13349:13354   */\n      dup4\n        /* \"#utility.yul\":13345:13361   */\n      add\n        /* \"#utility.yul\":13338:13413   */\n      mstore\n        /* \"#utility.yul\":13267:13424   */\n      pop\n        /* \"#utility.yul\":12349:13431   */\n      swap3\n      swap2\n      pop\n      pop\n      jump\t// out\n        /* \"#utility.yul\":13437:13976   */\n    tag_64:\n        /* \"#utility.yul\":13521:13527   */\n      0x00\n        /* \"#utility.yul\":13570:13572   */\n      0x20\n        /* \"#utility.yul\":13558:13567   */\n      dup3\n        /* \"#utility.yul\":13549:13556   */\n      dup5\n        /* \"#utility.yul\":13545:13568   */\n      sub\n        /* \"#utility.yul\":13541:13573   */\n      slt\n        /* \"#utility.yul\":13538:13657   */\n      iszero\n      tag_435\n      jumpi\n        /* \"#utility.yul\":13576:13655   */\n      tag_436\n      tag_236\n      jump\t// in\n    tag_436:\n        /* \"#utility.yul\":13538:13657   */\n    tag_435:\n        /* \"#utility.yul\":13724:13725   */\n      0x00\n        /* \"#utility.yul\":13713:13722   */\n      dup3\n        /* \"#utility.yul\":13709:13726   */\n      add\n        /* \"#utility.yul\":13696:13727   */\n      calldataload\n        /* \"#utility.yul\":13754:13772   */\n      0xffffffffffffffff\n        /* \"#utility.yul\":13746:13752   */\n      dup2\n        /* \"#utility.yul\":13743:13773   */\n      gt\n        /* \"#utility.yul\":13740:13857   */\n      iszero\n      tag_437\n      jumpi\n        /* \"#utility.yul\":13776:13855   */\n      tag_438\n      tag_237\n      jump\t// in\n    tag_438:\n        /* \"#utility.yul\":13740:13857   */\n    tag_437:\n        /* \"#utility.yul\":13881:13959   */\n      tag_439\n        /* \"#utility.yul\":13951:13958   */\n      dup5\n        /* \"#utility.yul\":13942:13948   */\n      dup3\n        /* \"#utility.yul\":13931:13940   */\n      dup6\n        /* \"#utility.yul\":13927:13949   */\n      add\n        /* \"#utility.yul\":13881:13959   */\n      tag_273\n      jump\t// in\n    tag_439:\n        /* \"#utility.yul\":13871:13959   */\n      swap2\n      pop\n        /* \"#utility.yul\":13667:13969   */\n      pop\n        /* \"#utility.yul\":13437:13976   */\n      swap3\n      swap2\n      pop\n      pop\n      jump\t// out\n        /* \"#utility.yul\":13982:14290   */\n    tag_73:\n        /* \"#utility.yul\":14091:14095   */\n      0x00\n        /* \"#utility.yul\":14129:14131   */\n      0x40\n        /* \"#utility.yul\":14118:14127   */\n      dup3\n        /* \"#utility.yul\":14114:14132   */\n      add\n        /* \"#utility.yul\":14106:14132   */\n      swap1\n      pop\n        /* \"#utility.yul\":14142:14207   */\n      tag_441\n        /* \"#utility.yul\":14204:14205   */\n      0x00\n        /* \"#utility.yul\":14193:14202   */\n      dup4\n        /* \"#utility.yul\":14189:14206   */\n      add\n        /* \"#utility.yul\":14180:14186   */\n      dup6\n        /* \"#utility.yul\":14142:14207   */\n      tag_258\n      jump\t// in\n    tag_441:\n        /* \"#utility.yul\":14217:14283   */\n      tag_442\n        /* \"#utility.yul\":14279:14281   */\n      0x20\n        /* \"#utility.yul\":14268:14277   */\n      dup4\n        /* \"#utility.yul\":14264:14282   */\n      add\n        /* \"#utility.yul\":14255:14261   */\n      dup5\n        /* \"#utility.yul\":14217:14283   */\n      tag_258\n      jump\t// in\n    tag_442:\n        /* \"#utility.yul\":13982:14290   */\n      swap4\n      swap3\n      pop\n      pop\n      pop\n      jump\t// out\n        /* \"#utility.yul\":14296:14616   */\n    tag_90:\n        /* \"#utility.yul\":14411:14415   */\n      0x00\n        /* \"#utility.yul\":14449:14451   */\n      0x40\n        /* \"#utility.yul\":14438:14447   */\n      dup3\n        /* \"#utility.yul\":14434:14452   */\n      add\n        /* \"#utility.yul\":14426:14452   */\n      swap1\n      pop\n        /* \"#utility.yul\":14462:14533   */\n      tag_444\n        /* \"#utility.yul\":14530:14531   */\n      0x00\n        /* \"#utility.yul\":14519:14528   */\n      dup4\n        /* \"#utility.yul\":14515:14532   */\n      add\n        /* \"#utility.yul\":14506:14512   */\n      dup6\n        /* \"#utility.yul\":14462:14533   */\n      tag_234\n      jump\t// in\n    tag_444:\n        /* \"#utility.yul\":14543:14609   */\n      tag_445\n        /* \"#utility.yul\":14605:14607   */\n      0x20\n        /* \"#utility.yul\":14594:14603   */\n      dup4\n        /* \"#utility.yul\":14590:14608   */\n      add\n        /* \"#utility.yul\":14581:14587   */\n      dup5\n        /* \"#utility.yul\":14543:14609   */\n      tag_258\n      jump\t// in\n    tag_445:\n        /* \"#utility.yul\":14296:14616   */\n      swap4\n      swap3\n      pop\n      pop\n      pop\n      jump\t// out\n        /* \"#utility.yul\":14622:15131   */\n    tag_93:\n        /* \"#utility.yul\":14691:14697   */\n      0x00\n        /* \"#utility.yul\":14740:14742   */\n      0x20\n        /* \"#utility.yul\":14728:14737   */\n      dup3\n        /* \"#utility.yul\":14719:14726   */\n      dup5\n        /* \"#utility.yul\":14715:14738   */\n      sub\n        /* \"#utility.yul\":14711:14743   */\n      slt\n        /* \"#utility.yul\":14708:14827   */\n      iszero\n      tag_447\n      jumpi\n        /* \"#utility.yul\":14746:14825   */\n      tag_448\n      tag_236\n      jump\t// in\n    tag_448:\n        /* \"#utility.yul\":14708:14827   */\n    tag_447:\n        /* \"#utility.yul\":14894:14895   */\n      0x00\n        /* \"#utility.yul\":14883:14892   */\n      dup3\n        /* \"#utility.yul\":14879:14896   */\n      add\n        /* \"#utility.yul\":14866:14897   */\n      calldataload\n        /* \"#utility.yul\":14924:14942   */\n      0xffffffffffffffff\n        /* \"#utility.yul\":14916:14922   */\n      dup2\n        /* \"#utility.yul\":14913:14943   */\n      gt\n        /* \"#utility.yul\":14910:15027   */\n      iszero\n      tag_449\n      jumpi\n        /* \"#utility.yul\":14946:15025   */\n      tag_450\n      tag_237\n      jump\t// in\n    tag_450:\n        /* \"#utility.yul\":14910:15027   */\n    tag_449:\n        /* \"#utility.yul\":15051:15114   */\n      tag_451\n        /* \"#utility.yul\":15106:15113   */\n      dup5\n        /* \"#utility.yul\":15097:15103   */\n      dup3\n        /* \"#utility.yul\":15086:15095   */\n      dup6\n        /* \"#utility.yul\":15082:15104   */\n      add\n        /* \"#utility.yul\":15051:15114   */\n      tag_247\n      jump\t// in\n    tag_451:\n        /* \"#utility.yul\":15041:15114   */\n      swap2\n      pop\n        /* \"#utility.yul\":14837:15124   */\n      pop\n        /* \"#utility.yul\":14622:15131   */\n      swap3\n      swap2\n      pop\n      pop\n      jump\t// out\n        /* \"#utility.yul\":15137:15317   */\n    tag_101:\n        /* \"#utility.yul\":15185:15262   */\n      0x4e487b7100000000000000000000000000000000000000000000000000000000\n        /* \"#utility.yul\":15182:15183   */\n      0x00\n        /* \"#utility.yul\":15175:15263   */\n      mstore\n        /* \"#utility.yul\":15282:15286   */\n      0x32\n        /* \"#utility.yul\":15279:15280   */\n      0x04\n        /* \"#utility.yul\":15272:15287   */\n      mstore\n        /* \"#utility.yul\":15306:15310   */\n      0x24\n        /* \"#utility.yul\":15303:15304   */\n      0x00\n        /* \"#utility.yul\":15296:15311   */\n      revert\n        /* \"#utility.yul\":15323:15503   */\n    tag_274:\n        /* \"#utility.yul\":15371:15448   */\n      0x4e487b7100000000000000000000000000000000000000000000000000000000\n        /* \"#utility.yul\":15368:15369   */\n      0x00\n        /* \"#utility.yul\":15361:15449   */\n      mstore\n        /* \"#utility.yul\":15468:15472   */\n      0x11\n        /* \"#utility.yul\":15465:15466   */\n      0x04\n        /* \"#utility.yul\":15458:15473   */\n      mstore\n        /* \"#utility.yul\":15492:15496   */\n      0x24\n        /* \"#utility.yul\":15489:15490   */\n      0x00\n        /* \"#utility.yul\":15482:15497   */\n      revert\n        /* \"#utility.yul\":15509:15700   */\n    tag_104:\n        /* \"#utility.yul\":15549:15552   */\n      0x00\n        /* \"#utility.yul\":15568:15588   */\n      tag_455\n        /* \"#utility.yul\":15586:15587   */\n      dup3\n        /* \"#utility.yul\":15568:15588   */\n      tag_233\n      jump\t// in\n    tag_455:\n        /* \"#utility.yul\":15563:15588   */\n      swap2\n      pop\n        /* \"#utility.yul\":15602:15622   */\n      tag_456\n        /* \"#utility.yul\":15620:15621   */\n      dup4\n        /* \"#utility.yul\":15602:15622   */\n      tag_233\n      jump\t// in\n    tag_456:\n        /* \"#utility.yul\":15597:15622   */\n      swap3\n      pop\n        /* \"#utility.yul\":15645:15646   */\n      dup3\n        /* \"#utility.yul\":15642:15643   */\n      dup3\n        /* \"#utility.yul\":15638:15647   */\n      add\n        /* \"#utility.yul\":15631:15647   */\n      swap1\n      pop\n        /* \"#utility.yul\":15666:15669   */\n      dup1\n        /* \"#utility.yul\":15663:15664   */\n      dup3\n        /* \"#utility.yul\":15660:15670   */\n      gt\n        /* \"#utility.yul\":15657:15693   */\n      iszero\n      tag_457\n      jumpi\n        /* \"#utility.yul\":15673:15691   */\n      tag_458\n      tag_274\n      jump\t// in\n    tag_458:\n        /* \"#utility.yul\":15657:15693   */\n    tag_457:\n        /* \"#utility.yul\":15509:15700   */\n      swap3\n      swap2\n      pop\n      pop\n      jump\t// out\n        /* \"#utility.yul\":15706:15939   */\n    tag_106:\n        /* \"#utility.yul\":15745:15748   */\n      0x00\n        /* \"#utility.yul\":15768:15792   */\n      tag_460\n        /* \"#utility.yul\":15786:15791   */\n      dup3\n        /* \"#utility.yul\":15768:15792   */\n      tag_233\n      jump\t// in\n    tag_460:\n        /* \"#utility.yul\":15759:15792   */\n      swap2\n      pop\n        /* \"#utility.yul\":15814:15880   */\n      0xffffffffffffffffffffffffffffffffffffffffffffffffffffffffffffffff\n        /* \"#utility.yul\":15807:15812   */\n      dup3\n        /* \"#utility.yul\":15804:15881   */\n      sub\n        /* \"#utility.yul\":15801:15904   */\n      tag_461\n      jumpi\n        /* \"#utility.yul\":15884:15902   */\n      tag_462\n      tag_274\n      jump\t// in\n    tag_462:\n        /* \"#utility.yul\":15801:15904   */\n    tag_461:\n        /* \"#utility.yul\":15931:15932   */\n      0x01\n        /* \"#utility.yul\":15924:15929   */\n      dup3\n        /* \"#utility.yul\":15920:15933   */\n      add\n        /* \"#utility.yul\":15913:15933   */\n      swap1\n      pop\n        /* \"#utility.yul\":15706:15939   */\n      swap2\n      swap1\n      pop\n      jump\t// out\n        /* \"#utility.yul\":15945:16175   */\n    tag_275:\n        /* \"#utility.yul\":16085:16119   */\n      0x4f6e6c792074686520636f6e7472616374206f776e65722063616e2061646420\n        /* \"#utility.yul\":16081:16082   */\n      0x00\n        /* \"#utility.yul\":16073:16079   */\n      dup3\n        /* \"#utility.yul\":16069:16083   */\n      add\n        /* \"#utility.yul\":16062:16120   */\n      mstore\n        /* \"#utility.yul\":16154:16167   */\n      0x63616e646964617465732e000000000000000000000000000000000000000000\n        /* \"#utility.yul\":16149:16151   */\n      0x20\n        /* \"#utility.yul\":16141:16147   */\n      dup3\n        /* \"#utility.yul\":16137:16152   */\n      add\n        /* \"#utility.yul\":16130:16168   */\n      mstore\n        /* \"#utility.yul\":15945:16175   */\n      pop\n      jump\t// out\n        /* \"#utility.yul\":16181:16547   */\n    tag_276:\n        /* \"#utility.yul\":16323:16326   */\n      0x00\n        /* \"#utility.yul\":16344:16411   */\n      tag_465\n        /* \"#utility.yul\":16408:16410   */\n      0x2b\n        /* \"#utility.yul\":16403:16406   */\n      dup4\n        /* \"#utility.yul\":16344:16411   */\n      tag_249\n      jump\t// in\n    tag_465:\n        /* \"#utility.yul\":16337:16411   */\n      swap2\n      pop\n        /* \"#utility.yul\":16420:16513   */\n      tag_466\n        /* \"#utility.yul\":16509:16512   */\n      dup3\n        /* \"#utility.yul\":16420:16513   */\n      tag_275\n      jump\t// in\n    tag_466:\n        /* \"#utility.yul\":16538:16540   */\n      0x40\n        /* \"#utility.yul\":16533:16536   */\n      dup3\n        /* \"#utility.yul\":16529:16541   */\n      add\n        /* \"#utility.yul\":16522:16541   */\n      swap1\n      pop\n        /* \"#utility.yul\":16181:16547   */\n      swap2\n      swap1\n      pop\n      jump\t// out\n        /* \"#utility.yul\":16553:16972   */\n    tag_111:\n        /* \"#utility.yul\":16719:16723   */\n      0x00\n        /* \"#utility.yul\":16757:16759   */\n      0x20\n        /* \"#utility.yul\":16746:16755   */\n      dup3\n        /* \"#utility.yul\":16742:16760   */\n      add\n        /* \"#utility.yul\":16734:16760   */\n      swap1\n      pop\n        /* \"#utility.yul\":16806:16815   */\n      dup2\n        /* \"#utility.yul\":16800:16804   */\n      dup2\n        /* \"#utility.yul\":16796:16816   */\n      sub\n        /* \"#utility.yul\":16792:16793   */\n      0x00\n        /* \"#utility.yul\":16781:16790   */\n      dup4\n        /* \"#utility.yul\":16777:16794   */\n      add\n        /* \"#utility.yul\":16770:16817   */\n      mstore\n        /* \"#utility.yul\":16834:16965   */\n      tag_468\n        /* \"#utility.yul\":16960:16964   */\n      dup2\n        /* \"#utility.yul\":16834:16965   */\n      tag_276\n      jump\t// in\n    tag_468:\n        /* \"#utility.yul\":16826:16965   */\n      swap1\n      pop\n        /* \"#utility.yul\":16553:16972   */\n      swap2\n      swap1\n      pop\n      jump\t// out\n        /* \"#utility.yul\":16978:17158   */\n    tag_277:\n        /* \"#utility.yul\":17026:17103   */\n      0x4e487b7100000000000000000000000000000000000000000000000000000000\n        /* \"#utility.yul\":17023:17024   */\n      0x00\n        /* \"#utility.yul\":17016:17104   */\n      mstore\n        /* \"#utility.yul\":17123:17127   */\n      0x22\n        /* \"#utility.yul\":17120:17121   */\n      0x04\n        /* \"#utility.yul\":17113:17128   */\n      mstore\n        /* \"#utility.yul\":17147:17151   */\n      0x24\n        /* \"#utility.yul\":17144:17145   */\n      0x00\n        /* \"#utility.yul\":17137:17152   */\n      revert\n        /* \"#utility.yul\":17164:17484   */\n    tag_126:\n        /* \"#utility.yul\":17208:17214   */\n      0x00\n        /* \"#utility.yul\":17245:17246   */\n      0x02\n        /* \"#utility.yul\":17239:17243   */\n      dup3\n        /* \"#utility.yul\":17235:17247   */\n      div\n        /* \"#utility.yul\":17225:17247   */\n      swap1\n      pop\n        /* \"#utility.yul\":17292:17293   */\n      0x01\n        /* \"#utility.yul\":17286:17290   */\n      dup3\n        /* \"#utility.yul\":17282:17294   */\n      and\n        /* \"#utility.yul\":17313:17331   */\n      dup1\n        /* \"#utility.yul\":17303:17384   */\n      tag_471\n      jumpi\n        /* \"#utility.yul\":17369:17373   */\n      0x7f\n        /* \"#utility.yul\":17361:17367   */\n      dup3\n        /* \"#utility.yul\":17357:17374   */\n      and\n        /* \"#utility.yul\":17347:17374   */\n      swap2\n      pop\n        /* \"#utility.yul\":17303:17384   */\n    tag_471:\n        /* \"#utility.yul\":17431:17433   */\n      0x20\n        /* \"#utility.yul\":17423:17429   */\n      dup3\n        /* \"#utility.yul\":17420:17434   */\n      lt\n        /* \"#utility.yul\":17400:17418   */\n      dup2\n        /* \"#utility.yul\":17397:17435   */\n      sub\n        /* \"#utility.yul\":17394:17478   */\n      tag_472\n      jumpi\n        /* \"#utility.yul\":17450:17468   */\n      tag_473\n      tag_277\n      jump\t// in\n    tag_473:\n        /* \"#utility.yul\":17394:17478   */\n    tag_472:\n        /* \"#utility.yul\":17215:17484   */\n      pop\n        /* \"#utility.yul\":17164:17484   */\n      swap2\n      swap1\n      pop\n      jump\t// out\n        /* \"#utility.yul\":17490:17631   */\n    tag_278:\n        /* \"#utility.yul\":17539:17543   */\n      0x00\n        /* \"#utility.yul\":17562:17565   */\n      dup2\n        /* \"#utility.yul\":17554:17565   */\n      swap1\n      pop\n        /* \"#utility.yul\":17585:17588   */\n      dup2\n        /* \"#utility.yul\":17582:17583   */\n      0x00\n        /* \"#utility.yul\":17575:17589   */\n      mstore\n        /* \"#utility.yul\":17619:17623   */\n      0x20\n        /* \"#utility.yul\":17616:17617   */\n      0x00\n        /* \"#utility.yul\":17606:17624   */\n      keccak256\n        /* \"#utility.yul\":17598:17624   */\n      swap1\n      pop\n        /* \"#utility.yul\":17490:17631   */\n      swap2\n      swap1\n      pop\n      jump\t// out\n        /* \"#utility.yul\":17637:17730   */\n    tag_279:\n        /* \"#utility.yul\":17674:17680   */\n      0x00\n        /* \"#utility.yul\":17721:17723   */\n      0x20\n        /* \"#utility.yul\":17716:17718   */\n      0x1f\n        /* \"#utility.yul\":17709:17714   */\n      dup4\n        /* \"#utility.yul\":17705:17719   */\n      add\n        /* \"#utility.yul\":17701:17724   */\n      div\n        /* \"#utility.yul\":17691:17724   */\n      swap1\n      pop\n        /* \"#utility.yul\":17637:17730   */\n      swap2\n      swap1\n      pop\n      jump\t// out\n        /* \"#utility.yul\":17736:17843   */\n    tag_280:\n        /* \"#utility.yul\":17780:17788   */\n      0x00\n        /* \"#utility.yul\":17830:17835   */\n      dup3\n        /* \"#utility.yul\":17824:17828   */\n      dup3\n        /* \"#utility.yul\":17820:17836   */\n      shl\n        /* \"#utility.yul\":17799:17836   */\n      swap1\n      pop\n        /* \"#utility.yul\":17736:17843   */\n      swap3\n      swap2\n      pop\n      pop\n      jump\t// out\n        /* \"#utility.yul\":17849:18242   */\n    tag_281:\n        /* \"#utility.yul\":17918:17924   */\n      0x00\n        /* \"#utility.yul\":17968:17969   */\n      0x08\n        /* \"#utility.yul\":17956:17966   */\n      dup4\n        /* \"#utility.yul\":17952:17970   */\n      mul\n        /* \"#utility.yul\":17991:18088   */\n      tag_478\n        /* \"#utility.yul\":18021:18087   */\n      0xffffffffffffffffffffffffffffffffffffffffffffffffffffffffffffffff\n        /* \"#utility.yul\":18010:18019   */\n      dup3\n        /* \"#utility.yul\":17991:18088   */\n      tag_280\n      jump\t// in\n    tag_478:\n        /* \"#utility.yul\":18109:18148   */\n      tag_479\n        /* \"#utility.yul\":18139:18147   */\n      dup7\n        /* \"#utility.yul\":18128:18137   */\n      dup4\n        /* \"#utility.yul\":18109:18148   */\n      tag_280\n      jump\t// in\n    tag_479:\n        /* \"#utility.yul\":18097:18148   */\n      swap6\n      pop\n        /* \"#utility.yul\":18181:18185   */\n      dup1\n        /* \"#utility.yul\":18177:18186   */\n      not\n        /* \"#utility.yul\":18170:18175   */\n      dup5\n        /* \"#utility.yul\":18166:18187   */\n      and\n        /* \"#utility.yul\":18157:18187   */\n      swap4\n      pop\n        /* \"#utility.yul\":18230:18234   */\n      dup1\n        /* \"#utility.yul\":18220:18228   */\n      dup7\n        /* \"#utility.yul\":18216:18235   */\n      and\n        /* \"#utility.yul\":18209:18214   */\n      dup5\n        /* \"#utility.yul\":18206:18236   */\n      or\n        /* \"#utility.yul\":18196:18236   */\n      swap3\n      pop\n        /* \"#utility.yul\":17925:18242   */\n      pop\n      pop\n        /* \"#utility.yul\":17849:18242   */\n      swap4\n      swap3\n      pop\n      pop\n      pop\n      jump\t// out\n        /* \"#utility.yul\":18248:18308   */\n    tag_282:\n        /* \"#utility.yul\":18276:18279   */\n      0x00\n        /* \"#utility.yul\":18297:18302   */\n      dup2\n        /* \"#utility.yul\":18290:18302   */\n      swap1\n      pop\n        /* \"#utility.yul\":18248:18308   */\n      swap2\n      swap1\n      pop\n      jump\t// out\n        /* \"#utility.yul\":18314:18456   */\n    tag_283:\n        /* \"#utility.yul\":18364:18373   */\n      0x00\n        /* \"#utility.yul\":18397:18450   */\n      tag_482\n        /* \"#utility.yul\":18415:18449   */\n      tag_483\n        /* \"#utility.yul\":18424:18448   */\n      tag_484\n        /* \"#utility.yul\":18442:18447   */\n      dup5\n        /* \"#utility.yul\":18424:18448   */\n      tag_233\n      jump\t// in\n    tag_484:\n        /* \"#utility.yul\":18415:18449   */\n      tag_282\n      jump\t// in\n    tag_483:\n        /* \"#utility.yul\":18397:18450   */\n      tag_233\n      jump\t// in\n    tag_482:\n        /* \"#utility.yul\":18384:18450   */\n      swap1\n      pop\n        /* \"#utility.yul\":18314:18456   */\n      swap2\n      swap1\n      pop\n      jump\t// out\n        /* \"#utility.yul\":18462:18537   */\n    tag_284:\n        /* \"#utility.yul\":18505:18508   */\n      0x00\n        /* \"#utility.yul\":18526:18531   */\n      dup2\n        /* \"#utility.yul\":18519:18531   */\n      swap1\n      pop\n        /* \"#utility.yul\":18462:18537   */\n      swap2\n      swap1\n      pop\n      jump\t// out\n        /* \"#utility.yul\":18543:18812   */\n    tag_285:\n        /* \"#utility.yul\":18653:18692   */\n      tag_487\n        /* \"#utility.yul\":18684:18691   */\n      dup4\n        /* \"#utility.yul\":18653:18692   */\n      tag_283\n      jump\t// in\n    tag_487:\n        /* \"#utility.yul\":18714:18805   */\n      tag_488\n        /* \"#utility.yul\":18763:18804   */\n      tag_489\n        /* \"#utility.yul\":18787:18803   */\n      dup3\n        /* \"#utility.yul\":18763:18804   */\n      tag_284\n      jump\t// in\n    tag_489:\n        /* \"#utility.yul\":18755:18761   */\n      dup5\n        /* \"#utility.yul\":18748:18752   */\n      dup5\n        /* \"#utility.yul\":18742:18753   */\n      sload\n        /* \"#utility.yul\":18714:18805   */\n      tag_281\n      jump\t// in\n    tag_488:\n        /* \"#utility.yul\":18708:18712   */\n      dup3\n        /* \"#utility.yul\":18701:18806   */\n      sstore\n        /* \"#utility.yul\":18619:18812   */\n      pop\n        /* \"#utility.yul\":18543:18812   */\n      pop\n      pop\n      pop\n      jump\t// out\n        /* \"#utility.yul\":18818:18891   */\n    tag_286:\n        /* \"#utility.yul\":18863:18866   */\n      0x00\n        /* \"#utility.yul\":18818:18891   */\n      swap1\n      jump\t// out\n        /* \"#utility.yul\":18897:19086   */\n    tag_287:\n        /* \"#utility.yul\":18974:19006   */\n      tag_492\n      tag_286\n      jump\t// in\n    tag_492:\n        /* \"#utility.yul\":19015:19080   */\n      tag_493\n        /* \"#utility.yul\":19073:19079   */\n      dup2\n        /* \"#utility.yul\":19065:19071   */\n      dup5\n        /* \"#utility.yul\":19059:19063   */\n      dup5\n        /* \"#utility.yul\":19015:19080   */\n      tag_285\n      jump\t// in\n    tag_493:\n        /* \"#utility.yul\":18950:19086   */\n      pop\n        /* \"#utility.yul\":18897:19086   */\n      pop\n      pop\n      jump\t// out\n        /* \"#utility.yul\":19092:19278   */\n    tag_288:\n        /* \"#utility.yul\":19152:19272   */\n    tag_495:\n        /* \"#utility.yul\":19169:19172   */\n      dup2\n        /* \"#utility.yul\":19162:19167   */\n      dup2\n        /* \"#utility.yul\":19159:19173   */\n      lt\n        /* \"#utility.yul\":19152:19272   */\n      iszero\n      tag_497\n      jumpi\n        /* \"#utility.yul\":19223:19262   */\n      tag_498\n        /* \"#utility.yul\":19260:19261   */\n      0x00\n        /* \"#utility.yul\":19253:19258   */\n      dup3\n        /* \"#utility.yul\":19223:19262   */\n      tag_287\n      jump\t// in\n    tag_498:\n        /* \"#utility.yul\":19196:19197   */\n      0x01\n        /* \"#utility.yul\":19189:19194   */\n      dup2\n        /* \"#utility.yul\":19185:19198   */\n      add\n        /* \"#utility.yul\":19176:19198   */\n      swap1\n      pop\n        /* \"#utility.yul\":19152:19272   */\n      jump(tag_495)\n    tag_497:\n        /* \"#utility.yul\":19092:19278   */\n      pop\n      pop\n      jump\t// out\n        /* \"#utility.yul\":19284:19827   */\n    tag_289:\n        /* \"#utility.yul\":19385:19387   */\n      0x1f\n        /* \"#utility.yul\":19380:19383   */\n      dup3\n        /* \"#utility.yul\":19377:19388   */\n      gt\n        /* \"#utility.yul\":19374:19820   */\n      iszero\n      tag_500\n      jumpi\n        /* \"#utility.yul\":19419:19457   */\n      tag_501\n        /* \"#utility.yul\":19451:19456   */\n      dup2\n        /* \"#utility.yul\":19419:19457   */\n      tag_278\n      jump\t// in\n    tag_501:\n        /* \"#utility.yul\":19503:19532   */\n      tag_502\n        /* \"#utility.yul\":19521:19531   */\n      dup5\n        /* \"#utility.yul\":19503:19532   */\n      tag_279\n      jump\t// in\n    tag_502:\n        /* \"#utility.yul\":19493:19501   */\n      dup2\n        /* \"#utility.yul\":19489:19533   */\n      add\n        /* \"#utility.yul\":19686:19688   */\n      0x20\n        /* \"#utility.yul\":19674:19684   */\n      dup6\n        /* \"#utility.yul\":19671:19689   */\n      lt\n        /* \"#utility.yul\":19668:19717   */\n      iszero\n      tag_503\n      jumpi\n        /* \"#utility.yul\":19707:19715   */\n      dup2\n        /* \"#utility.yul\":19692:19715   */\n      swap1\n      pop\n        /* \"#utility.yul\":19668:19717   */\n    tag_503:\n        /* \"#utility.yul\":19730:19810   */\n      tag_504\n        /* \"#utility.yul\":19786:19808   */\n      tag_505\n        /* \"#utility.yul\":19804:19807   */\n      dup6\n        /* \"#utility.yul\":19786:19808   */\n      tag_279\n      jump\t// in\n    tag_505:\n        /* \"#utility.yul\":19776:19784   */\n      dup4\n        /* \"#utility.yul\":19772:19809   */\n      add\n        /* \"#utility.yul\":19759:19770   */\n      dup3\n        /* \"#utility.yul\":19730:19810   */\n      tag_288\n      jump\t// in\n    tag_504:\n        /* \"#utility.yul\":19389:19820   */\n      pop\n      pop\n        /* \"#utility.yul\":19374:19820   */\n    tag_500:\n        /* \"#utility.yul\":19284:19827   */\n      pop\n      pop\n      pop\n      jump\t// out\n        /* \"#utility.yul\":19833:19950   */\n    tag_290:\n        /* \"#utility.yul\":19887:19895   */\n      0x00\n        /* \"#utility.yul\":19937:19942   */\n      dup3\n        /* \"#utility.yul\":19931:19935   */\n      dup3\n        /* \"#utility.yul\":19927:19943   */\n      shr\n        /* \"#utility.yul\":19906:19943   */\n      swap1\n      pop\n        /* \"#utility.yul\":19833:19950   */\n      swap3\n      swap2\n      pop\n      pop\n      jump\t// out\n        /* \"#utility.yul\":19956:20125   */\n    tag_291:\n        /* \"#utility.yul\":20000:20006   */\n      0x00\n        /* \"#utility.yul\":20033:20084   */\n      tag_508\n        /* \"#utility.yul\":20081:20082   */\n      0x00\n        /* \"#utility.yul\":20077:20083   */\n      not\n        /* \"#utility.yul\":20069:20074   */\n      dup5\n        /* \"#utility.yul\":20066:20067   */\n      0x08\n        /* \"#utility.yul\":20062:20075   */\n      mul\n        /* \"#utility.yul\":20033:20084   */\n      tag_290\n      jump\t// in\n    tag_508:\n        /* \"#utility.yul\":20029:20085   */\n      not\n        /* \"#utility.yul\":20114:20118   */\n      dup1\n        /* \"#utility.yul\":20108:20112   */\n      dup4\n        /* \"#utility.yul\":20104:20119   */\n      and\n        /* \"#utility.yul\":20094:20119   */\n      swap2\n      pop\n        /* \"#utility.yul\":20007:20125   */\n      pop\n        /* \"#utility.yul\":19956:20125   */\n      swap3\n      swap2\n      pop\n      pop\n      jump\t// out\n        /* \"#utility.yul\":20130:20425   */\n    tag_292:\n        /* \"#utility.yul\":20206:20210   */\n      0x00\n        /* \"#utility.yul\":20352:20381   */\n      tag_510\n        /* \"#utility.yul\":20377:20380   */\n      dup4\n        /* \"#utility.yul\":20371:20375   */\n      dup4\n        /* \"#utility.yul\":20352:20381   */\n      tag_291\n      jump\t// in\n    tag_510:\n        /* \"#utility.yul\":20344:20381   */\n      swap2\n      pop\n        /* \"#utility.yul\":20414:20417   */\n      dup3\n        /* \"#utility.yul\":20411:20412   */\n      0x02\n        /* \"#utility.yul\":20407:20418   */\n      mul\n        /* \"#utility.yul\":20401:20405   */\n      dup3\n        /* \"#utility.yul\":20398:20419   */\n      or\n        /* \"#utility.yul\":20390:20419   */\n      swap1\n      pop\n        /* \"#utility.yul\":20130:20425   */\n      swap3\n      swap2\n      pop\n      pop\n      jump\t// out\n        /* \"#utility.yul\":20430:21825   */\n    tag_115:\n        /* \"#utility.yul\":20547:20584   */\n      tag_512\n        /* \"#utility.yul\":20580:20583   */\n      dup3\n        /* \"#utility.yul\":20547:20584   */\n      tag_248\n      jump\t// in\n    tag_512:\n        /* \"#utility.yul\":20649:20667   */\n      0xffffffffffffffff\n        /* \"#utility.yul\":20641:20647   */\n      dup2\n        /* \"#utility.yul\":20638:20668   */\n      gt\n        /* \"#utility.yul\":20635:20691   */\n      iszero\n      tag_513\n      jumpi\n        /* \"#utility.yul\":20671:20689   */\n      tag_514\n      tag_241\n      jump\t// in\n    tag_514:\n        /* \"#utility.yul\":20635:20691   */\n    tag_513:\n        /* \"#utility.yul\":20715:20753   */\n      tag_515\n        /* \"#utility.yul\":20747:20751   */\n      dup3\n        /* \"#utility.yul\":20741:20752   */\n      sload\n        /* \"#utility.yul\":20715:20753   */\n      tag_126\n      jump\t// in\n    tag_515:\n        /* \"#utility.yul\":20800:20867   */\n      tag_516\n        /* \"#utility.yul\":20860:20866   */\n      dup3\n        /* \"#utility.yul\":20852:20858   */\n      dup3\n        /* \"#utility.yul\":20846:20850   */\n      dup6\n        /* \"#utility.yul\":20800:20867   */\n      tag_289\n      jump\t// in\n    tag_516:\n        /* \"#utility.yul\":20894:20895   */\n      0x00\n        /* \"#utility.yul\":20918:20922   */\n      0x20\n        /* \"#utility.yul\":20905:20922   */\n      swap1\n      pop\n        /* \"#utility.yul\":20950:20952   */\n      0x1f\n        /* \"#utility.yul\":20942:20948   */\n      dup4\n        /* \"#utility.yul\":20939:20953   */\n      gt\n        /* \"#utility.yul\":20967:20968   */\n      0x01\n        /* \"#utility.yul\":20962:21580   */\n      dup2\n      eq\n      tag_518\n      jumpi\n        /* \"#utility.yul\":21624:21625   */\n      0x00\n        /* \"#utility.yul\":21641:21647   */\n      dup5\n        /* \"#utility.yul\":21638:21715   */\n      iszero\n      tag_519\n      jumpi\n        /* \"#utility.yul\":21690:21699   */\n      dup3\n        /* \"#utility.yul\":21685:21688   */\n      dup8\n        /* \"#utility.yul\":21681:21700   */\n      add\n        /* \"#utility.yul\":21675:21701   */\n      mload\n        /* \"#utility.yul\":21666:21701   */\n      swap1\n      pop\n        /* \"#utility.yul\":21638:21715   */\n    tag_519:\n        /* \"#utility.yul\":21741:21808   */\n      tag_520\n        /* \"#utility.yul\":21801:21807   */\n      dup6\n        /* \"#utility.yul\":21794:21799   */\n      dup3\n        /* \"#utility.yul\":21741:21808   */\n      tag_292\n      jump\t// in\n    tag_520:\n        /* \"#utility.yul\":21735:21739   */\n      dup7\n        /* \"#utility.yul\":21728:21809   */\n      sstore\n        /* \"#utility.yul\":21597:21819   */\n      pop\n        /* \"#utility.yul\":20932:21819   */\n      jump(tag_517)\n        /* \"#utility.yul\":20962:21580   */\n    tag_518:\n        /* \"#utility.yul\":21014:21018   */\n      0x1f\n        /* \"#utility.yul\":21010:21019   */\n      not\n        /* \"#utility.yul\":21002:21008   */\n      dup5\n        /* \"#utility.yul\":20998:21020   */\n      and\n        /* \"#utility.yul\":21048:21085   */\n      tag_521\n        /* \"#utility.yul\":21080:21084   */\n      dup7\n        /* \"#utility.yul\":21048:21085   */\n      tag_278\n      jump\t// in\n    tag_521:\n        /* \"#utility.yul\":21107:21108   */\n      0x00\n        /* \"#utility.yul\":21121:21329   */\n    tag_522:\n        /* \"#utility.yul\":21135:21142   */\n      dup3\n        /* \"#utility.yul\":21132:21133   */\n      dup2\n        /* \"#utility.yul\":21129:21143   */\n      lt\n        /* \"#utility.yul\":21121:21329   */\n      iszero\n      tag_524\n      jumpi\n        /* \"#utility.yul\":21214:21223   */\n      dup5\n        /* \"#utility.yul\":21209:21212   */\n      dup10\n        /* \"#utility.yul\":21205:21224   */\n      add\n        /* \"#utility.yul\":21199:21225   */\n      mload\n        /* \"#utility.yul\":21191:21197   */\n      dup3\n        /* \"#utility.yul\":21184:21226   */\n      sstore\n        /* \"#utility.yul\":21265:21266   */\n      0x01\n        /* \"#utility.yul\":21257:21263   */\n      dup3\n        /* \"#utility.yul\":21253:21267   */\n      add\n        /* \"#utility.yul\":21243:21267   */\n      swap2\n      pop\n        /* \"#utility.yul\":21312:21314   */\n      0x20\n        /* \"#utility.yul\":21301:21310   */\n      dup6\n        /* \"#utility.yul\":21297:21315   */\n      add\n        /* \"#utility.yul\":21284:21315   */\n      swap5\n      pop\n        /* \"#utility.yul\":21158:21162   */\n      0x20\n        /* \"#utility.yul\":21155:21156   */\n      dup2\n        /* \"#utility.yul\":21151:21163   */\n      add\n        /* \"#utility.yul\":21146:21163   */\n      swap1\n      pop\n        /* \"#utility.yul\":21121:21329   */\n      jump(tag_522)\n    tag_524:\n        /* \"#utility.yul\":21357:21363   */\n      dup7\n        /* \"#utility.yul\":21348:21355   */\n      dup4\n        /* \"#utility.yul\":21345:21364   */\n      lt\n        /* \"#utility.yul\":21342:21521   */\n      iszero\n      tag_525\n      jumpi\n        /* \"#utility.yul\":21415:21424   */\n      dup5\n        /* \"#utility.yul\":21410:21413   */\n      dup10\n        /* \"#utility.yul\":21406:21425   */\n      add\n        /* \"#utility.yul\":21400:21426   */\n      mload\n        /* \"#utility.yul\":21458:21506   */\n      tag_526\n        /* \"#utility.yul\":21500:21504   */\n      0x1f\n        /* \"#utility.yul\":21492:21498   */\n      dup10\n        /* \"#utility.yul\":21488:21505   */\n      and\n        /* \"#utility.yul\":21477:21486   */\n      dup3\n        /* \"#utility.yul\":21458:21506   */\n      tag_291\n      jump\t// in\n    tag_526:\n        /* \"#utility.yul\":21450:21456   */\n      dup4\n        /* \"#utility.yul\":21443:21507   */\n      sstore\n        /* \"#utility.yul\":21365:21521   */\n      pop\n        /* \"#utility.yul\":21342:21521   */\n    tag_525:\n        /* \"#utility.yul\":21567:21568   */\n      0x01\n        /* \"#utility.yul\":21563:21564   */\n      0x02\n        /* \"#utility.yul\":21555:21561   */\n      dup9\n        /* \"#utility.yul\":21551:21565   */\n      mul\n        /* \"#utility.yul\":21547:21569   */\n      add\n        /* \"#utility.yul\":21541:21545   */\n      dup9\n        /* \"#utility.yul\":21534:21570   */\n      sstore\n        /* \"#utility.yul\":20969:21580   */\n      pop\n      pop\n      pop\n        /* \"#utility.yul\":20932:21819   */\n    tag_517:\n      pop\n        /* \"#utility.yul\":20522:21825   */\n      pop\n      pop\n      pop\n        /* \"#utility.yul\":20430:21825   */\n      pop\n      pop\n      jump\t// out\n        /* \"#utility.yul\":21831:22005   */\n    tag_293:\n        /* \"#utility.yul\":21971:21997   */\n      0x5468657265206973206120746965206f6e2042616c6c6f740000000000000000\n        /* \"#utility.yul\":21967:21968   */\n      0x00\n        /* \"#utility.yul\":21959:21965   */\n      dup3\n        /* \"#utility.yul\":21955:21969   */\n      add\n        /* \"#utility.yul\":21948:21998   */\n      mstore\n        /* \"#utility.yul\":21831:22005   */\n      pop\n      jump\t// out\n        /* \"#utility.yul\":22011:22377   */\n    tag_294:\n        /* \"#utility.yul\":22153:22156   */\n      0x00\n        /* \"#utility.yul\":22174:22241   */\n      tag_529\n        /* \"#utility.yul\":22238:22240   */\n      0x18\n        /* \"#utility.yul\":22233:22236   */\n      dup4\n        /* \"#utility.yul\":22174:22241   */\n      tag_249\n      jump\t// in\n    tag_529:\n        /* \"#utility.yul\":22167:22241   */\n      swap2\n      pop\n        /* \"#utility.yul\":22250:22343   */\n      tag_530\n        /* \"#utility.yul\":22339:22342   */\n      dup3\n        /* \"#utility.yul\":22250:22343   */\n      tag_293\n      jump\t// in\n    tag_530:\n        /* \"#utility.yul\":22368:22370   */\n      0x20\n        /* \"#utility.yul\":22363:22366   */\n      dup3\n        /* \"#utility.yul\":22359:22371   */\n      add\n        /* \"#utility.yul\":22352:22371   */\n      swap1\n      pop\n        /* \"#utility.yul\":22011:22377   */\n      swap2\n      swap1\n      pop\n      jump\t// out\n        /* \"#utility.yul\":22383:22802   */\n    tag_121:\n        /* \"#utility.yul\":22549:22553   */\n      0x00\n        /* \"#utility.yul\":22587:22589   */\n      0x20\n        /* \"#utility.yul\":22576:22585   */\n      dup3\n        /* \"#utility.yul\":22572:22590   */\n      add\n        /* \"#utility.yul\":22564:22590   */\n      swap1\n      pop\n        /* \"#utility.yul\":22636:22645   */\n      dup2\n        /* \"#utility.yul\":22630:22634   */\n      dup2\n        /* \"#utility.yul\":22626:22646   */\n      sub\n        /* \"#utility.yul\":22622:22623   */\n      0x00\n        /* \"#utility.yul\":22611:22620   */\n      dup4\n        /* \"#utility.yul\":22607:22624   */\n      add\n        /* \"#utility.yul\":22600:22647   */\n      mstore\n        /* \"#utility.yul\":22664:22795   */\n      tag_532\n        /* \"#utility.yul\":22790:22794   */\n      dup2\n        /* \"#utility.yul\":22664:22795   */\n      tag_294\n      jump\t// in\n    tag_532:\n        /* \"#utility.yul\":22656:22795   */\n      swap1\n      pop\n        /* \"#utility.yul\":22383:22802   */\n      swap2\n      swap1\n      pop\n      jump\t// out\n        /* \"#utility.yul\":22808:23042   */\n    tag_295:\n        /* \"#utility.yul\":22948:22982   */\n      0x4f6e6c792074686520636f6e7472616374206f776e65722063616e2067697665\n        /* \"#utility.yul\":22944:22945   */\n      0x00\n        /* \"#utility.yul\":22936:22942   */\n      dup3\n        /* \"#utility.yul\":22932:22946   */\n      add\n        /* \"#utility.yul\":22925:22983   */\n      mstore\n        /* \"#utility.yul\":23017:23034   */\n      0x20726967687420746f20766f74652e0000000000000000000000000000000000\n        /* \"#utility.yul\":23012:23014   */\n      0x20\n        /* \"#utility.yul\":23004:23010   */\n      dup3\n        /* \"#utility.yul\":23000:23015   */\n      add\n        /* \"#utility.yul\":22993:23035   */\n      mstore\n        /* \"#utility.yul\":22808:23042   */\n      pop\n      jump\t// out\n        /* \"#utility.yul\":23048:23414   */\n    tag_296:\n        /* \"#utility.yul\":23190:23193   */\n      0x00\n        /* \"#utility.yul\":23211:23278   */\n      tag_535\n        /* \"#utility.yul\":23275:23277   */\n      0x2f\n        /* \"#utility.yul\":23270:23273   */\n      dup4\n        /* \"#utility.yul\":23211:23278   */\n      tag_249\n      jump\t// in\n    tag_535:\n        /* \"#utility.yul\":23204:23278   */\n      swap2\n      pop\n        /* \"#utility.yul\":23287:23380   */\n      tag_536\n        /* \"#utility.yul\":23376:23379   */\n      dup3\n        /* \"#utility.yul\":23287:23380   */\n      tag_295\n      jump\t// in\n    tag_536:\n        /* \"#utility.yul\":23405:23407   */\n      0x40\n        /* \"#utility.yul\":23400:23403   */\n      dup3\n        /* \"#utility.yul\":23396:23408   */\n      add\n        /* \"#utility.yul\":23389:23408   */\n      swap1\n      pop\n        /* \"#utility.yul\":23048:23414   */\n      swap2\n      swap1\n      pop\n      jump\t// out\n        /* \"#utility.yul\":23420:23839   */\n    tag_172:\n        /* \"#utility.yul\":23586:23590   */\n      0x00\n        /* \"#utility.yul\":23624:23626   */\n      0x20\n        /* \"#utility.yul\":23613:23622   */\n      dup3\n        /* \"#utility.yul\":23609:23627   */\n      add\n        /* \"#utility.yul\":23601:23627   */\n      swap1\n      pop\n        /* \"#utility.yul\":23673:23682   */\n      dup2\n        /* \"#utility.yul\":23667:23671   */\n      dup2\n        /* \"#utility.yul\":23663:23683   */\n      sub\n        /* \"#utility.yul\":23659:23660   */\n      0x00\n        /* \"#utility.yul\":23648:23657   */\n      dup4\n        /* \"#utility.yul\":23644:23661   */\n      add\n        /* \"#utility.yul\":23637:23684   */\n      mstore\n        /* \"#utility.yul\":23701:23832   */\n      tag_538\n        /* \"#utility.yul\":23827:23831   */\n      dup2\n        /* \"#utility.yul\":23701:23832   */\n      tag_296\n      jump\t// in\n    tag_538:\n        /* \"#utility.yul\":23693:23832   */\n      swap1\n      pop\n        /* \"#utility.yul\":23420:23839   */\n      swap2\n      swap1\n      pop\n      jump\t// out\n        /* \"#utility.yul\":23845:24021   */\n    tag_297:\n        /* \"#utility.yul\":23985:24013   */\n      0x596f752068617665206e6f7420726967687420746f20766f7465000000000000\n        /* \"#utility.yul\":23981:23982   */\n      0x00\n        /* \"#utility.yul\":23973:23979   */\n      dup3\n        /* \"#utility.yul\":23969:23983   */\n      add\n        /* \"#utility.yul\":23962:24014   */\n      mstore\n        /* \"#utility.yul\":23845:24021   */\n      pop\n      jump\t// out\n        /* \"#utility.yul\":24027:24393   */\n    tag_298:\n        /* \"#utility.yul\":24169:24172   */\n      0x00\n        /* \"#utility.yul\":24190:24257   */\n      tag_541\n        /* \"#utility.yul\":24254:24256   */\n      0x1a\n        /* \"#utility.yul\":24249:24252   */\n      dup4\n        /* \"#utility.yul\":24190:24257   */\n      tag_249\n      jump\t// in\n    tag_541:\n        /* \"#utility.yul\":24183:24257   */\n      swap2\n      pop\n        /* \"#utility.yul\":24266:24359   */\n      tag_542\n        /* \"#utility.yul\":24355:24358   */\n      dup3\n        /* \"#utility.yul\":24266:24359   */\n      tag_297\n      jump\t// in\n    tag_542:\n        /* \"#utility.yul\":24384:24386   */\n      0x20\n        /* \"#utility.yul\":24379:24382   */\n      dup3\n        /* \"#utility.yul\":24375:24387   */\n      add\n        /* \"#utility.yul\":24368:24387   */\n      swap1\n      pop\n        /* \"#utility.yul\":24027:24393   */\n      swap2\n      swap1\n      pop\n      jump\t// out\n        /* \"#utility.yul\":24399:24818   */\n    tag_202:\n        /* \"#utility.yul\":24565:24569   */\n      0x00\n        /* \"#utility.yul\":24603:24605   */\n      0x20\n        /* \"#utility.yul\":24592:24601   */\n      dup3\n        /* \"#utility.yul\":24588:24606   */\n      add\n        /* \"#utility.yul\":24580:24606   */\n      swap1\n      pop\n        /* \"#utility.yul\":24652:24661   */\n      dup2\n        /* \"#utility.yul\":24646:24650   */\n      dup2\n        /* \"#utility.yul\":24642:24662   */\n      sub\n        /* \"#utility.yul\":24638:24639   */\n      0x00\n        /* \"#utility.yul\":24627:24636   */\n      dup4\n        /* \"#utility.yul\":24623:24640   */\n      add\n        /* \"#utility.yul\":24616:24663   */\n      mstore\n        /* \"#utility.yul\":24680:24811   */\n      tag_544\n        /* \"#utility.yul\":24806:24810   */\n      dup2\n        /* \"#utility.yul\":24680:24811   */\n      tag_298\n      jump\t// in\n    tag_544:\n        /* \"#utility.yul\":24672:24811   */\n      swap1\n      pop\n        /* \"#utility.yul\":24399:24818   */\n      swap2\n      swap1\n      pop\n      jump\t// out\n        /* \"#utility.yul\":24824:24994   */\n    tag_299:\n        /* \"#utility.yul\":24964:24986   */\n      0x566f74657220616c726561647920766f7465642e000000000000000000000000\n        /* \"#utility.yul\":24960:24961   */\n      0x00\n        /* \"#utility.yul\":24952:24958   */\n      dup3\n        /* \"#utility.yul\":24948:24962   */\n      add\n        /* \"#utility.yul\":24941:24987   */\n      mstore\n        /* \"#utility.yul\":24824:24994   */\n      pop\n      jump\t// out\n        /* \"#utility.yul\":25000:25366   */\n    tag_300:\n        /* \"#utility.yul\":25142:25145   */\n      0x00\n        /* \"#utility.yul\":25163:25230   */\n      tag_547\n        /* \"#utility.yul\":25227:25229   */\n      0x14\n        /* \"#utility.yul\":25222:25225   */\n      dup4\n        /* \"#utility.yul\":25163:25230   */\n      tag_249\n      jump\t// in\n    tag_547:\n        /* \"#utility.yul\":25156:25230   */\n      swap2\n      pop\n        /* \"#utility.yul\":25239:25332   */\n      tag_548\n        /* \"#utility.yul\":25328:25331   */\n      dup3\n        /* \"#utility.yul\":25239:25332   */\n      tag_299\n      jump\t// in\n    tag_548:\n        /* \"#utility.yul\":25357:25359   */\n      0x20\n        /* \"#utility.yul\":25352:25355   */\n      dup3\n        /* \"#utility.yul\":25348:25360   */\n      add\n        /* \"#utility.yul\":25341:25360   */\n      swap1\n      pop\n        /* \"#utility.yul\":25000:25366   */\n      swap2\n      swap1\n      pop\n      jump\t// out\n        /* \"#utility.yul\":25372:25791   */\n    tag_229:\n        /* \"#utility.yul\":25538:25542   */\n      0x00\n        /* \"#utility.yul\":25576:25578   */\n      0x20\n        /* \"#utility.yul\":25565:25574   */\n      dup3\n        /* \"#utility.yul\":25561:25579   */\n      add\n        /* \"#utility.yul\":25553:25579   */\n      swap1\n      pop\n        /* \"#utility.yul\":25625:25634   */\n      dup2\n        /* \"#utility.yul\":25619:25623   */\n      dup2\n        /* \"#utility.yul\":25615:25635   */\n      sub\n        /* \"#utility.yul\":25611:25612   */\n      0x00\n        /* \"#utility.yul\":25600:25609   */\n      dup4\n        /* \"#utility.yul\":25596:25613   */\n      add\n        /* \"#utility.yul\":25589:25636   */\n      mstore\n        /* \"#utility.yul\":25653:25784   */\n      tag_550\n        /* \"#utility.yul\":25779:25783   */\n      dup2\n        /* \"#utility.yul\":25653:25784   */\n      tag_300\n      jump\t// in\n    tag_550:\n        /* \"#utility.yul\":25645:25784   */\n      swap1\n      pop\n        /* \"#utility.yul\":25372:25791   */\n      swap2\n      swap1\n      pop\n      jump\t// out\n\n    auxdata: 0xa2646970667358221220906443cf49d72b17bd03d06cdafc5978846332ad9977f87b182b938e4e58797764736f6c63430008110033\n}\n",
				"bytecode": {
					"linkReferences": {},
					"object": "60806040523480156200001157600080fd5b506040516200258b3803806200258b8339818101604052810190620000379190620004e8565b336000806101000a81548173ffffffffffffffffffffffffffffffffffffffff021916908373ffffffffffffffffffffffffffffffffffffffff16021790555060005b81518110156200015f5760026040518060600160405280848481518110620000a757620000a662000539565b5b6020026020010151600001518152602001848481518110620000ce57620000cd62000539565b5b6020026020010151602001518152602001600081525090806001815401808255809150506001900390600052602060002090600302016000909190919091506000820151816000019081620001249190620007a9565b5060208201518160010190816200013c9190620007a9565b5060408201518160020155505080806200015690620008bf565b9150506200007a565b50506200090c565b6000604051905090565b600080fd5b600080fd5b600080fd5b6000601f19601f8301169050919050565b7f4e487b7100000000000000000000000000000000000000000000000000000000600052604160045260246000fd5b620001cb8262000180565b810181811067ffffffffffffffff82111715620001ed57620001ec62000191565b5b80604052505050565b60006200020262000167565b9050620002108282620001c0565b919050565b600067ffffffffffffffff82111562000233576200023262000191565b5b602082029050602081019050919050565b600080fd5b600080fd5b600080fd5b600080fd5b600067ffffffffffffffff82111562000276576200027562000191565b5b620002818262000180565b9050602081019050919050565b60005b83811015620002ae57808201518184015260208101905062000291565b60008484015250505050565b6000620002d1620002cb8462000258565b620001f6565b905082815260208101848484011115620002f057620002ef62000253565b5b620002fd8482856200028e565b509392505050565b600082601f8301126200031d576200031c6200017b565b5b81516200032f848260208601620002ba565b91505092915050565b6000819050919050565b6200034d8162000338565b81146200035957600080fd5b50565b6000815190506200036d8162000342565b92915050565b6000606082840312156200038c576200038b62000249565b5b620003986060620001f6565b9050600082015167ffffffffffffffff811115620003bb57620003ba6200024e565b5b620003c98482850162000305565b600083015250602082015167ffffffffffffffff811115620003f057620003ef6200024e565b5b620003fe8482850162000305565b602083015250604062000414848285016200035c565b60408301525092915050565b600062000437620004318462000215565b620001f6565b905080838252602082019050602084028301858111156200045d576200045c62000244565b5b835b81811015620004ab57805167ffffffffffffffff8111156200048657620004856200017b565b5b80860162000495898262000373565b855260208501945050506020810190506200045f565b5050509392505050565b600082601f830112620004cd57620004cc6200017b565b5b8151620004df84826020860162000420565b91505092915050565b60006020828403121562000501576200050062000171565b5b600082015167ffffffffffffffff81111562000522576200052162000176565b5b6200053084828501620004b5565b91505092915050565b7f4e487b7100000000000000000000000000000000000000000000000000000000600052603260045260246000fd5b600081519050919050565b7f4e487b7100000000000000000000000000000000000000000000000000000000600052602260045260246000fd5b60006002820490506001821680620005bb57607f821691505b602082108103620005d157620005d062000573565b5b50919050565b60008190508160005260206000209050919050565b60006020601f8301049050919050565b600082821b905092915050565b6000600883026200063b7fffffffffffffffffffffffffffffffffffffffffffffffffffffffffffffffff82620005fc565b620006478683620005fc565b95508019841693508086168417925050509392505050565b6000819050919050565b60006200068a620006846200067e8462000338565b6200065f565b62000338565b9050919050565b6000819050919050565b620006a68362000669565b620006be620006b58262000691565b84845462000609565b825550505050565b600090565b620006d5620006c6565b620006e28184846200069b565b505050565b5b818110156200070a57620006fe600082620006cb565b600181019050620006e8565b5050565b601f82111562000759576200072381620005d7565b6200072e84620005ec565b810160208510156200073e578190505b620007566200074d85620005ec565b830182620006e7565b50505b505050565b600082821c905092915050565b60006200077e600019846008026200075e565b1980831691505092915050565b60006200079983836200076b565b9150826002028217905092915050565b620007b48262000568565b67ffffffffffffffff811115620007d057620007cf62000191565b5b620007dc8254620005a2565b620007e98282856200070e565b600060209050601f8311600181146200082157600084156200080c578287015190505b6200081885826200078b565b86555062000888565b601f1984166200083186620005d7565b60005b828110156200085b5784890151825560018201915060208501945060208101905062000834565b868310156200087b578489015162000877601f8916826200076b565b8355505b6001600288020188555050505b505050505050565b7f4e487b7100000000000000000000000000000000000000000000000000000000600052601160045260246000fd5b6000620008cc8262000338565b91507fffffffffffffffffffffffffffffffffffffffffffffffffffffffffffffffff820362000901576200090062000890565b5b600182019050919050565b611c6f806200091c6000396000f3fe608060405234801561001057600080fd5b50600436106101165760003560e01c8063954115f2116100a2578063da26543011610071578063da265430146102d4578063df703622146102f2578063f0ee457714610310578063f927cc2914610340578063fc36e15b1461035f57610116565b8063954115f21461024d5780639e7b8d6114610269578063a3ec138d14610285578063ce606ee0146102b657610116565b806332a2c5d0116100e957806332a2c5d0146101915780633477ee2e146101af5780633ddf3822146101e15780634aba5f34146101ff57806394b04e7d1461021d57610116565b806301c5556a1461011b5780630d15fd771461013957806310508439146101575780632bfda51514610173575b600080fd5b61012361037b565b6040516101309190610ee4565b60405180910390f35b6101416103da565b60405161014e9190610ee4565b60405180910390f35b610171600480360381019061016c9190611059565b6103e0565b005b61017b6104aa565b6040516101889190611150565b60405180910390f35b6101996105b1565b6040516101a691906111b3565b60405180910390f35b6101c960048036038101906101c491906111fa565b6105b9565b6040516101d893929190611227565b60405180910390f35b6101e9610703565b6040516101f69190611287565b60405180910390f35b61020761075a565b6040516102149190611414565b60405180910390f35b61023760048036038101906102329190611462565b6108e7565b6040516102449190611287565b60405180910390f35b61026760048036038101906102629190611535565b610940565b005b610283600480360381019061027e9190611462565b6109ee565b005b61029f600480360381019061029a9190611462565b610a9d565b6040516102ad92919061157e565b60405180910390f35b6102be610adb565b6040516102cb91906111b3565b60405180910390f35b6102dc610aff565b6040516102e99190611287565b60405180910390f35b6102fa610b0f565b6040516103079190611287565b60405180910390f35b61032a60048036038101906103259190611462565b610b1f565b6040516103379190611287565b60405180910390f35b610348610b78565b6040516103569291906115a7565b60405180910390f35b610379600480360381019061037491906115d0565b610c3c565b005b600080600090505b6002805490508110156103d657600281815481106103a4576103a3611619565b5b906000526020600020906003020160020154826103c19190611677565b915080806103ce906116ab565b915050610383565b5090565b60035481565b6103e8610703565b610427576040517f08c379a000000000000000000000000000000000000000000000000000000000815260040161041e90611765565b60405180910390fd5b600260405180606001604052808481526020018381526020016000815250908060018154018082558091505060019003906000526020600020906003020160009091909190915060008201518160000190816104839190611991565b5060208201518160010190816104999190611991565b506040820151816002015550505050565b60606000806104b7610b78565b9150915080156104fc576040517f08c379a00000000000000000000000000000000000000000000000000000000081526004016104f390611aaf565b60405180910390fd5b600282815481106105105761050f611619565b5b9060005260206000209060030201600001805461052c906117b4565b80601f0160208091040260200160405190810160405280929190818152602001828054610558906117b4565b80156105a55780601f1061057a576101008083540402835291602001916105a5565b820191906000526020600020905b81548152906001019060200180831161058857829003601f168201915b50505050509250505090565b600030905090565b600281815481106105c957600080fd5b90600052602060002090600302016000915090508060000180546105ec906117b4565b80601f0160208091040260200160405190810160405280929190818152602001828054610618906117b4565b80156106655780601f1061063a57610100808354040283529160200191610665565b820191906000526020600020905b81548152906001019060200180831161064857829003601f168201915b50505050509080600101805461067a906117b4565b80601f01602080910402602001604051908101604052809291908181526020018280546106a6906117b4565b80156106f35780601f106106c8576101008083540402835291602001916106f3565b820191906000526020600020905b8154815290600101906020018083116106d657829003601f168201915b5050505050908060020154905083565b60008060009054906101000a900473ffffffffffffffffffffffffffffffffffffffff1673ffffffffffffffffffffffffffffffffffffffff163373ffffffffffffffffffffffffffffffffffffffff1614905090565b60606002805480602002602001604051908101604052809291908181526020016000905b828210156108de57838290600052602060002090600302016040518060600160405290816000820180546107b1906117b4565b80601f01602080910402602001604051908101604052809291908181526020018280546107dd906117b4565b801561082a5780601f106107ff5761010080835404028352916020019161082a565b820191906000526020600020905b81548152906001019060200180831161080d57829003601f168201915b50505050508152602001600182018054610843906117b4565b80601f016020809104026020016040519081016040528092919081815260200182805461086f906117b4565b80156108bc5780601f10610891576101008083540402835291602001916108bc565b820191906000526020600020905b81548152906001019060200180831161089f57829003601f168201915b505050505081526020016002820154815250508152602001906001019061077e565b50505050905090565b6000600160008373ffffffffffffffffffffffffffffffffffffffff1673ffffffffffffffffffffffffffffffffffffffff16815260200190815260200160002060000160009054906101000a900460ff169050919050565b610948610703565b610987576040517f08c379a000000000000000000000000000000000000000000000000000000000815260040161097e90611765565b60405180910390fd5b600281908060018154018082558091505060019003906000526020600020906003020160009091909190915060008201518160000190816109c89190611991565b5060208201518160010190816109de9190611991565b5060408201518160020155505050565b806109f7610703565b610a36576040517f08c379a0000000000000000000000000000000000000000000000000000000008152600401610a2d90611b41565b60405180910390fd5b610a3f81610e26565b60018060008473ffffffffffffffffffffffffffffffffffffffff1673ffffffffffffffffffffffffffffffffffffffff16815260200190815260200160002060000160006101000a81548160ff0219169083151502179055505050565b60016020528060005260406000206000915090508060000160009054906101000a900460ff16908060000160019054906101000a900460ff16905082565b60008054906101000a900473ffffffffffffffffffffffffffffffffffffffff1681565b6000610b0a33610b1f565b905090565b6000610b1a336108e7565b905090565b6000600160008373ffffffffffffffffffffffffffffffffffffffff1673ffffffffffffffffffffffffffffffffffffffff16815260200190815260200160002060000160019054906101000a900460ff169050919050565b600080600080600090505b600280549050811015610c36578160028281548110610ba557610ba4611619565b5b9060005260206000209060030201600201541115610bf15760028181548110610bd157610bd0611619565b5b906000526020600020906003020160020154915080935060009250610c23565b8160028281548110610c0657610c05611619565b5b90600052602060002090600302016002015403610c2257600192505b5b8080610c2e906116ab565b915050610b83565b50509091565b33610c45610b0f565b610c84576040517f08c379a0000000000000000000000000000000000000000000000000000000008152600401610c7b90611bad565b60405180910390fd5b610c8d81610e26565b6000600160003373ffffffffffffffffffffffffffffffffffffffff1673ffffffffffffffffffffffffffffffffffffffff168152602001908152602001600020905060005b600280549050811015610e2057610d9760028281548110610cf757610cf6611619565b5b90600052602060002090600302016000018054610d13906117b4565b80601f0160208091040260200160405190810160405280929190818152602001828054610d3f906117b4565b8015610d8c5780601f10610d6157610100808354040283529160200191610d8c565b820191906000526020600020905b815481529060010190602001808311610d6f57829003601f168201915b505050505085610e72565b15610e0d5760028181548110610db057610daf611619565b5b90600052602060002090600302016002016000815480929190610dd2906116ab565b919050555060018260000160016101000a81548160ff02191690831515021790555060036000815480929190610e07906116ab565b91905055505b8080610e18906116ab565b915050610cd3565b50505050565b610e2f81610b1f565b15610e6f576040517f08c379a0000000000000000000000000000000000000000000000000000000008152600401610e6690611c19565b60405180910390fd5b50565b600081604051602001610e859190611150565b6040516020818303038152906040528051906020012083604051602001610eac9190611150565b6040516020818303038152906040528051906020012014905092915050565b6000819050919050565b610ede81610ecb565b82525050565b6000602082019050610ef96000830184610ed5565b92915050565b6000604051905090565b600080fd5b600080fd5b600080fd5b600080fd5b6000601f19601f8301169050919050565b7f4e487b7100000000000000000000000000000000000000000000000000000000600052604160045260246000fd5b610f6682610f1d565b810181811067ffffffffffffffff82111715610f8557610f84610f2e565b5b80604052505050565b6000610f98610eff565b9050610fa48282610f5d565b919050565b600067ffffffffffffffff821115610fc457610fc3610f2e565b5b610fcd82610f1d565b9050602081019050919050565b82818337600083830152505050565b6000610ffc610ff784610fa9565b610f8e565b90508281526020810184848401111561101857611017610f18565b5b611023848285610fda565b509392505050565b600082601f8301126110405761103f610f13565b5b8135611050848260208601610fe9565b91505092915050565b600080604083850312156110705761106f610f09565b5b600083013567ffffffffffffffff81111561108e5761108d610f0e565b5b61109a8582860161102b565b925050602083013567ffffffffffffffff8111156110bb576110ba610f0e565b5b6110c78582860161102b565b9150509250929050565b600081519050919050565b600082825260208201905092915050565b60005b8381101561110b5780820151818401526020810190506110f0565b60008484015250505050565b6000611122826110d1565b61112c81856110dc565b935061113c8185602086016110ed565b61114581610f1d565b840191505092915050565b6000602082019050818103600083015261116a8184611117565b905092915050565b600073ffffffffffffffffffffffffffffffffffffffff82169050919050565b600061119d82611172565b9050919050565b6111ad81611192565b82525050565b60006020820190506111c860008301846111a4565b92915050565b6111d781610ecb565b81146111e257600080fd5b50565b6000813590506111f4816111ce565b92915050565b6000602082840312156112105761120f610f09565b5b600061121e848285016111e5565b91505092915050565b600060608201905081810360008301526112418186611117565b905081810360208301526112558185611117565b90506112646040830184610ed5565b949350505050565b60008115159050919050565b6112818161126c565b82525050565b600060208201905061129c6000830184611278565b92915050565b600081519050919050565b600082825260208201905092915050565b6000819050602082019050919050565b600082825260208201905092915050565b60006112ea826110d1565b6112f481856112ce565b93506113048185602086016110ed565b61130d81610f1d565b840191505092915050565b61132181610ecb565b82525050565b6000606083016000830151848203600086015261134482826112df565b9150506020830151848203602086015261135e82826112df565b91505060408301516113736040860182611318565b508091505092915050565b600061138a8383611327565b905092915050565b6000602082019050919050565b60006113aa826112a2565b6113b481856112ad565b9350836020820285016113c6856112be565b8060005b8581101561140257848403895281516113e3858261137e565b94506113ee83611392565b925060208a019950506001810190506113ca565b50829750879550505050505092915050565b6000602082019050818103600083015261142e818461139f565b905092915050565b61143f81611192565b811461144a57600080fd5b50565b60008135905061145c81611436565b92915050565b60006020828403121561147857611477610f09565b5b60006114868482850161144d565b91505092915050565b600080fd5b600080fd5b6000606082840312156114af576114ae61148f565b5b6114b96060610f8e565b9050600082013567ffffffffffffffff8111156114d9576114d8611494565b5b6114e58482850161102b565b600083015250602082013567ffffffffffffffff81111561150957611508611494565b5b6115158482850161102b565b6020830152506040611529848285016111e5565b60408301525092915050565b60006020828403121561154b5761154a610f09565b5b600082013567ffffffffffffffff81111561156957611568610f0e565b5b61157584828501611499565b91505092915050565b60006040820190506115936000830185611278565b6115a06020830184611278565b9392505050565b60006040820190506115bc6000830185610ed5565b6115c96020830184611278565b9392505050565b6000602082840312156115e6576115e5610f09565b5b600082013567ffffffffffffffff81111561160457611603610f0e565b5b6116108482850161102b565b91505092915050565b7f4e487b7100000000000000000000000000000000000000000000000000000000600052603260045260246000fd5b7f4e487b7100000000000000000000000000000000000000000000000000000000600052601160045260246000fd5b600061168282610ecb565b915061168d83610ecb565b92508282019050808211156116a5576116a4611648565b5b92915050565b60006116b682610ecb565b91507fffffffffffffffffffffffffffffffffffffffffffffffffffffffffffffffff82036116e8576116e7611648565b5b600182019050919050565b7f4f6e6c792074686520636f6e7472616374206f776e65722063616e206164642060008201527f63616e646964617465732e000000000000000000000000000000000000000000602082015250565b600061174f602b836110dc565b915061175a826116f3565b604082019050919050565b6000602082019050818103600083015261177e81611742565b9050919050565b7f4e487b7100000000000000000000000000000000000000000000000000000000600052602260045260246000fd5b600060028204905060018216806117cc57607f821691505b6020821081036117df576117de611785565b5b50919050565b60008190508160005260206000209050919050565b60006020601f8301049050919050565b600082821b905092915050565b6000600883026118477fffffffffffffffffffffffffffffffffffffffffffffffffffffffffffffffff8261180a565b611851868361180a565b95508019841693508086168417925050509392505050565b6000819050919050565b600061188e61188961188484610ecb565b611869565b610ecb565b9050919050565b6000819050919050565b6118a883611873565b6118bc6118b482611895565b848454611817565b825550505050565b600090565b6118d16118c4565b6118dc81848461189f565b505050565b5b81811015611900576118f56000826118c9565b6001810190506118e2565b5050565b601f82111561194557611916816117e5565b61191f846117fa565b8101602085101561192e578190505b61194261193a856117fa565b8301826118e1565b50505b505050565b600082821c905092915050565b60006119686000198460080261194a565b1980831691505092915050565b60006119818383611957565b9150826002028217905092915050565b61199a826110d1565b67ffffffffffffffff8111156119b3576119b2610f2e565b5b6119bd82546117b4565b6119c8828285611904565b600060209050601f8311600181146119fb57600084156119e9578287015190505b6119f38582611975565b865550611a5b565b601f198416611a09866117e5565b60005b82811015611a3157848901518255600182019150602085019450602081019050611a0c565b86831015611a4e5784890151611a4a601f891682611957565b8355505b6001600288020188555050505b505050505050565b7f5468657265206973206120746965206f6e2042616c6c6f740000000000000000600082015250565b6000611a996018836110dc565b9150611aa482611a63565b602082019050919050565b60006020820190508181036000830152611ac881611a8c565b9050919050565b7f4f6e6c792074686520636f6e7472616374206f776e65722063616e206769766560008201527f20726967687420746f20766f74652e0000000000000000000000000000000000602082015250565b6000611b2b602f836110dc565b9150611b3682611acf565b604082019050919050565b60006020820190508181036000830152611b5a81611b1e565b9050919050565b7f596f752068617665206e6f7420726967687420746f20766f7465000000000000600082015250565b6000611b97601a836110dc565b9150611ba282611b61565b602082019050919050565b60006020820190508181036000830152611bc681611b8a565b9050919050565b7f566f74657220616c726561647920766f7465642e000000000000000000000000600082015250565b6000611c036014836110dc565b9150611c0e82611bcd565b602082019050919050565b60006020820190508181036000830152611c3281611bf6565b905091905056fea2646970667358221220906443cf49d72b17bd03d06cdafc5978846332ad9977f87b182b938e4e58797764736f6c63430008110033",
					"opcodes": "PUSH1 0x80 PUSH1 0x40 MSTORE CALLVALUE DUP1 ISZERO PUSH3 0x11 JUMPI PUSH1 0x0 DUP1 REVERT JUMPDEST POP PUSH1 0x40 MLOAD PUSH3 0x258B CODESIZE SUB DUP1 PUSH3 0x258B DUP4 CODECOPY DUP2 DUP2 ADD PUSH1 0x40 MSTORE DUP2 ADD SWAP1 PUSH3 0x37 SWAP2 SWAP1 PUSH3 0x4E8 JUMP JUMPDEST CALLER PUSH1 0x0 DUP1 PUSH2 0x100 EXP DUP2 SLOAD DUP2 PUSH20 0xFFFFFFFFFFFFFFFFFFFFFFFFFFFFFFFFFFFFFFFF MUL NOT AND SWAP1 DUP4 PUSH20 0xFFFFFFFFFFFFFFFFFFFFFFFFFFFFFFFFFFFFFFFF AND MUL OR SWAP1 SSTORE POP PUSH1 0x0 JUMPDEST DUP2 MLOAD DUP2 LT ISZERO PUSH3 0x15F JUMPI PUSH1 0x2 PUSH1 0x40 MLOAD DUP1 PUSH1 0x60 ADD PUSH1 0x40 MSTORE DUP1 DUP5 DUP5 DUP2 MLOAD DUP2 LT PUSH3 0xA7 JUMPI PUSH3 0xA6 PUSH3 0x539 JUMP JUMPDEST JUMPDEST PUSH1 0x20 MUL PUSH1 0x20 ADD ADD MLOAD PUSH1 0x0 ADD MLOAD DUP2 MSTORE PUSH1 0x20 ADD DUP5 DUP5 DUP2 MLOAD DUP2 LT PUSH3 0xCE JUMPI PUSH3 0xCD PUSH3 0x539 JUMP JUMPDEST JUMPDEST PUSH1 0x20 MUL PUSH1 0x20 ADD ADD MLOAD PUSH1 0x20 ADD MLOAD DUP2 MSTORE PUSH1 0x20 ADD PUSH1 0x0 DUP2 MSTORE POP SWAP1 DUP1 PUSH1 0x1 DUP2 SLOAD ADD DUP1 DUP3 SSTORE DUP1 SWAP2 POP POP PUSH1 0x1 SWAP1 SUB SWAP1 PUSH1 0x0 MSTORE PUSH1 0x20 PUSH1 0x0 KECCAK256 SWAP1 PUSH1 0x3 MUL ADD PUSH1 0x0 SWAP1 SWAP2 SWAP1 SWAP2 SWAP1 SWAP2 POP PUSH1 0x0 DUP3 ADD MLOAD DUP2 PUSH1 0x0 ADD SWAP1 DUP2 PUSH3 0x124 SWAP2 SWAP1 PUSH3 0x7A9 JUMP JUMPDEST POP PUSH1 0x20 DUP3 ADD MLOAD DUP2 PUSH1 0x1 ADD SWAP1 DUP2 PUSH3 0x13C SWAP2 SWAP1 PUSH3 0x7A9 JUMP JUMPDEST POP PUSH1 0x40 DUP3 ADD MLOAD DUP2 PUSH1 0x2 ADD SSTORE POP POP DUP1 DUP1 PUSH3 0x156 SWAP1 PUSH3 0x8BF JUMP JUMPDEST SWAP2 POP POP PUSH3 0x7A JUMP JUMPDEST POP POP PUSH3 0x90C JUMP JUMPDEST PUSH1 0x0 PUSH1 0x40 MLOAD SWAP1 POP SWAP1 JUMP JUMPDEST PUSH1 0x0 DUP1 REVERT JUMPDEST PUSH1 0x0 DUP1 REVERT JUMPDEST PUSH1 0x0 DUP1 REVERT JUMPDEST PUSH1 0x0 PUSH1 0x1F NOT PUSH1 0x1F DUP4 ADD AND SWAP1 POP SWAP2 SWAP1 POP JUMP JUMPDEST PUSH32 0x4E487B7100000000000000000000000000000000000000000000000000000000 PUSH1 0x0 MSTORE PUSH1 0x41 PUSH1 0x4 MSTORE PUSH1 0x24 PUSH1 0x0 REVERT JUMPDEST PUSH3 0x1CB DUP3 PUSH3 0x180 JUMP JUMPDEST DUP2 ADD DUP2 DUP2 LT PUSH8 0xFFFFFFFFFFFFFFFF DUP3 GT OR ISZERO PUSH3 0x1ED JUMPI PUSH3 0x1EC PUSH3 0x191 JUMP JUMPDEST JUMPDEST DUP1 PUSH1 0x40 MSTORE POP POP POP JUMP JUMPDEST PUSH1 0x0 PUSH3 0x202 PUSH3 0x167 JUMP JUMPDEST SWAP1 POP PUSH3 0x210 DUP3 DUP3 PUSH3 0x1C0 JUMP JUMPDEST SWAP2 SWAP1 POP JUMP JUMPDEST PUSH1 0x0 PUSH8 0xFFFFFFFFFFFFFFFF DUP3 GT ISZERO PUSH3 0x233 JUMPI PUSH3 0x232 PUSH3 0x191 JUMP JUMPDEST JUMPDEST PUSH1 0x20 DUP3 MUL SWAP1 POP PUSH1 0x20 DUP2 ADD SWAP1 POP SWAP2 SWAP1 POP JUMP JUMPDEST PUSH1 0x0 DUP1 REVERT JUMPDEST PUSH1 0x0 DUP1 REVERT JUMPDEST PUSH1 0x0 DUP1 REVERT JUMPDEST PUSH1 0x0 DUP1 REVERT JUMPDEST PUSH1 0x0 PUSH8 0xFFFFFFFFFFFFFFFF DUP3 GT ISZERO PUSH3 0x276 JUMPI PUSH3 0x275 PUSH3 0x191 JUMP JUMPDEST JUMPDEST PUSH3 0x281 DUP3 PUSH3 0x180 JUMP JUMPDEST SWAP1 POP PUSH1 0x20 DUP2 ADD SWAP1 POP SWAP2 SWAP1 POP JUMP JUMPDEST PUSH1 0x0 JUMPDEST DUP4 DUP2 LT ISZERO PUSH3 0x2AE JUMPI DUP1 DUP3 ADD MLOAD DUP2 DUP5 ADD MSTORE PUSH1 0x20 DUP2 ADD SWAP1 POP PUSH3 0x291 JUMP JUMPDEST PUSH1 0x0 DUP5 DUP5 ADD MSTORE POP POP POP POP JUMP JUMPDEST PUSH1 0x0 PUSH3 0x2D1 PUSH3 0x2CB DUP5 PUSH3 0x258 JUMP JUMPDEST PUSH3 0x1F6 JUMP JUMPDEST SWAP1 POP DUP3 DUP2 MSTORE PUSH1 0x20 DUP2 ADD DUP5 DUP5 DUP5 ADD GT ISZERO PUSH3 0x2F0 JUMPI PUSH3 0x2EF PUSH3 0x253 JUMP JUMPDEST JUMPDEST PUSH3 0x2FD DUP5 DUP3 DUP6 PUSH3 0x28E JUMP JUMPDEST POP SWAP4 SWAP3 POP POP POP JUMP JUMPDEST PUSH1 0x0 DUP3 PUSH1 0x1F DUP4 ADD SLT PUSH3 0x31D JUMPI PUSH3 0x31C PUSH3 0x17B JUMP JUMPDEST JUMPDEST DUP2 MLOAD PUSH3 0x32F DUP5 DUP3 PUSH1 0x20 DUP7 ADD PUSH3 0x2BA JUMP JUMPDEST SWAP2 POP POP SWAP3 SWAP2 POP POP JUMP JUMPDEST PUSH1 0x0 DUP2 SWAP1 POP SWAP2 SWAP1 POP JUMP JUMPDEST PUSH3 0x34D DUP2 PUSH3 0x338 JUMP JUMPDEST DUP2 EQ PUSH3 0x359 JUMPI PUSH1 0x0 DUP1 REVERT JUMPDEST POP JUMP JUMPDEST PUSH1 0x0 DUP2 MLOAD SWAP1 POP PUSH3 0x36D DUP2 PUSH3 0x342 JUMP JUMPDEST SWAP3 SWAP2 POP POP JUMP JUMPDEST PUSH1 0x0 PUSH1 0x60 DUP3 DUP5 SUB SLT ISZERO PUSH3 0x38C JUMPI PUSH3 0x38B PUSH3 0x249 JUMP JUMPDEST JUMPDEST PUSH3 0x398 PUSH1 0x60 PUSH3 0x1F6 JUMP JUMPDEST SWAP1 POP PUSH1 0x0 DUP3 ADD MLOAD PUSH8 0xFFFFFFFFFFFFFFFF DUP2 GT ISZERO PUSH3 0x3BB JUMPI PUSH3 0x3BA PUSH3 0x24E JUMP JUMPDEST JUMPDEST PUSH3 0x3C9 DUP5 DUP3 DUP6 ADD PUSH3 0x305 JUMP JUMPDEST PUSH1 0x0 DUP4 ADD MSTORE POP PUSH1 0x20 DUP3 ADD MLOAD PUSH8 0xFFFFFFFFFFFFFFFF DUP2 GT ISZERO PUSH3 0x3F0 JUMPI PUSH3 0x3EF PUSH3 0x24E JUMP JUMPDEST JUMPDEST PUSH3 0x3FE DUP5 DUP3 DUP6 ADD PUSH3 0x305 JUMP JUMPDEST PUSH1 0x20 DUP4 ADD MSTORE POP PUSH1 0x40 PUSH3 0x414 DUP5 DUP3 DUP6 ADD PUSH3 0x35C JUMP JUMPDEST PUSH1 0x40 DUP4 ADD MSTORE POP SWAP3 SWAP2 POP POP JUMP JUMPDEST PUSH1 0x0 PUSH3 0x437 PUSH3 0x431 DUP5 PUSH3 0x215 JUMP JUMPDEST PUSH3 0x1F6 JUMP JUMPDEST SWAP1 POP DUP1 DUP4 DUP3 MSTORE PUSH1 0x20 DUP3 ADD SWAP1 POP PUSH1 0x20 DUP5 MUL DUP4 ADD DUP6 DUP2 GT ISZERO PUSH3 0x45D JUMPI PUSH3 0x45C PUSH3 0x244 JUMP JUMPDEST JUMPDEST DUP4 JUMPDEST DUP2 DUP2 LT ISZERO PUSH3 0x4AB JUMPI DUP1 MLOAD PUSH8 0xFFFFFFFFFFFFFFFF DUP2 GT ISZERO PUSH3 0x486 JUMPI PUSH3 0x485 PUSH3 0x17B JUMP JUMPDEST JUMPDEST DUP1 DUP7 ADD PUSH3 0x495 DUP10 DUP3 PUSH3 0x373 JUMP JUMPDEST DUP6 MSTORE PUSH1 0x20 DUP6 ADD SWAP5 POP POP POP PUSH1 0x20 DUP2 ADD SWAP1 POP PUSH3 0x45F JUMP JUMPDEST POP POP POP SWAP4 SWAP3 POP POP POP JUMP JUMPDEST PUSH1 0x0 DUP3 PUSH1 0x1F DUP4 ADD SLT PUSH3 0x4CD JUMPI PUSH3 0x4CC PUSH3 0x17B JUMP JUMPDEST JUMPDEST DUP2 MLOAD PUSH3 0x4DF DUP5 DUP3 PUSH1 0x20 DUP7 ADD PUSH3 0x420 JUMP JUMPDEST SWAP2 POP POP SWAP3 SWAP2 POP POP JUMP JUMPDEST PUSH1 0x0 PUSH1 0x20 DUP3 DUP5 SUB SLT ISZERO PUSH3 0x501 JUMPI PUSH3 0x500 PUSH3 0x171 JUMP JUMPDEST JUMPDEST PUSH1 0x0 DUP3 ADD MLOAD PUSH8 0xFFFFFFFFFFFFFFFF DUP2 GT ISZERO PUSH3 0x522 JUMPI PUSH3 0x521 PUSH3 0x176 JUMP JUMPDEST JUMPDEST PUSH3 0x530 DUP5 DUP3 DUP6 ADD PUSH3 0x4B5 JUMP JUMPDEST SWAP2 POP POP SWAP3 SWAP2 POP POP JUMP JUMPDEST PUSH32 0x4E487B7100000000000000000000000000000000000000000000000000000000 PUSH1 0x0 MSTORE PUSH1 0x32 PUSH1 0x4 MSTORE PUSH1 0x24 PUSH1 0x0 REVERT JUMPDEST PUSH1 0x0 DUP2 MLOAD SWAP1 POP SWAP2 SWAP1 POP JUMP JUMPDEST PUSH32 0x4E487B7100000000000000000000000000000000000000000000000000000000 PUSH1 0x0 MSTORE PUSH1 0x22 PUSH1 0x4 MSTORE PUSH1 0x24 PUSH1 0x0 REVERT JUMPDEST PUSH1 0x0 PUSH1 0x2 DUP3 DIV SWAP1 POP PUSH1 0x1 DUP3 AND DUP1 PUSH3 0x5BB JUMPI PUSH1 0x7F DUP3 AND SWAP2 POP JUMPDEST PUSH1 0x20 DUP3 LT DUP2 SUB PUSH3 0x5D1 JUMPI PUSH3 0x5D0 PUSH3 0x573 JUMP JUMPDEST JUMPDEST POP SWAP2 SWAP1 POP JUMP JUMPDEST PUSH1 0x0 DUP2 SWAP1 POP DUP2 PUSH1 0x0 MSTORE PUSH1 0x20 PUSH1 0x0 KECCAK256 SWAP1 POP SWAP2 SWAP1 POP JUMP JUMPDEST PUSH1 0x0 PUSH1 0x20 PUSH1 0x1F DUP4 ADD DIV SWAP1 POP SWAP2 SWAP1 POP JUMP JUMPDEST PUSH1 0x0 DUP3 DUP3 SHL SWAP1 POP SWAP3 SWAP2 POP POP JUMP JUMPDEST PUSH1 0x0 PUSH1 0x8 DUP4 MUL PUSH3 0x63B PUSH32 0xFFFFFFFFFFFFFFFFFFFFFFFFFFFFFFFFFFFFFFFFFFFFFFFFFFFFFFFFFFFFFFFF DUP3 PUSH3 0x5FC JUMP JUMPDEST PUSH3 0x647 DUP7 DUP4 PUSH3 0x5FC JUMP JUMPDEST SWAP6 POP DUP1 NOT DUP5 AND SWAP4 POP DUP1 DUP7 AND DUP5 OR SWAP3 POP POP POP SWAP4 SWAP3 POP POP POP JUMP JUMPDEST PUSH1 0x0 DUP2 SWAP1 POP SWAP2 SWAP1 POP JUMP JUMPDEST PUSH1 0x0 PUSH3 0x68A PUSH3 0x684 PUSH3 0x67E DUP5 PUSH3 0x338 JUMP JUMPDEST PUSH3 0x65F JUMP JUMPDEST PUSH3 0x338 JUMP JUMPDEST SWAP1 POP SWAP2 SWAP1 POP JUMP JUMPDEST PUSH1 0x0 DUP2 SWAP1 POP SWAP2 SWAP1 POP JUMP JUMPDEST PUSH3 0x6A6 DUP4 PUSH3 0x669 JUMP JUMPDEST PUSH3 0x6BE PUSH3 0x6B5 DUP3 PUSH3 0x691 JUMP JUMPDEST DUP5 DUP5 SLOAD PUSH3 0x609 JUMP JUMPDEST DUP3 SSTORE POP POP POP POP JUMP JUMPDEST PUSH1 0x0 SWAP1 JUMP JUMPDEST PUSH3 0x6D5 PUSH3 0x6C6 JUMP JUMPDEST PUSH3 0x6E2 DUP2 DUP5 DUP5 PUSH3 0x69B JUMP JUMPDEST POP POP POP JUMP JUMPDEST JUMPDEST DUP2 DUP2 LT ISZERO PUSH3 0x70A JUMPI PUSH3 0x6FE PUSH1 0x0 DUP3 PUSH3 0x6CB JUMP JUMPDEST PUSH1 0x1 DUP2 ADD SWAP1 POP PUSH3 0x6E8 JUMP JUMPDEST POP POP JUMP JUMPDEST PUSH1 0x1F DUP3 GT ISZERO PUSH3 0x759 JUMPI PUSH3 0x723 DUP2 PUSH3 0x5D7 JUMP JUMPDEST PUSH3 0x72E DUP5 PUSH3 0x5EC JUMP JUMPDEST DUP2 ADD PUSH1 0x20 DUP6 LT ISZERO PUSH3 0x73E JUMPI DUP2 SWAP1 POP JUMPDEST PUSH3 0x756 PUSH3 0x74D DUP6 PUSH3 0x5EC JUMP JUMPDEST DUP4 ADD DUP3 PUSH3 0x6E7 JUMP JUMPDEST POP POP JUMPDEST POP POP POP JUMP JUMPDEST PUSH1 0x0 DUP3 DUP3 SHR SWAP1 POP SWAP3 SWAP2 POP POP JUMP JUMPDEST PUSH1 0x0 PUSH3 0x77E PUSH1 0x0 NOT DUP5 PUSH1 0x8 MUL PUSH3 0x75E JUMP JUMPDEST NOT DUP1 DUP4 AND SWAP2 POP POP SWAP3 SWAP2 POP POP JUMP JUMPDEST PUSH1 0x0 PUSH3 0x799 DUP4 DUP4 PUSH3 0x76B JUMP JUMPDEST SWAP2 POP DUP3 PUSH1 0x2 MUL DUP3 OR SWAP1 POP SWAP3 SWAP2 POP POP JUMP JUMPDEST PUSH3 0x7B4 DUP3 PUSH3 0x568 JUMP JUMPDEST PUSH8 0xFFFFFFFFFFFFFFFF DUP2 GT ISZERO PUSH3 0x7D0 JUMPI PUSH3 0x7CF PUSH3 0x191 JUMP JUMPDEST JUMPDEST PUSH3 0x7DC DUP3 SLOAD PUSH3 0x5A2 JUMP JUMPDEST PUSH3 0x7E9 DUP3 DUP3 DUP6 PUSH3 0x70E JUMP JUMPDEST PUSH1 0x0 PUSH1 0x20 SWAP1 POP PUSH1 0x1F DUP4 GT PUSH1 0x1 DUP2 EQ PUSH3 0x821 JUMPI PUSH1 0x0 DUP5 ISZERO PUSH3 0x80C JUMPI DUP3 DUP8 ADD MLOAD SWAP1 POP JUMPDEST PUSH3 0x818 DUP6 DUP3 PUSH3 0x78B JUMP JUMPDEST DUP7 SSTORE POP PUSH3 0x888 JUMP JUMPDEST PUSH1 0x1F NOT DUP5 AND PUSH3 0x831 DUP7 PUSH3 0x5D7 JUMP JUMPDEST PUSH1 0x0 JUMPDEST DUP3 DUP2 LT ISZERO PUSH3 0x85B JUMPI DUP5 DUP10 ADD MLOAD DUP3 SSTORE PUSH1 0x1 DUP3 ADD SWAP2 POP PUSH1 0x20 DUP6 ADD SWAP5 POP PUSH1 0x20 DUP2 ADD SWAP1 POP PUSH3 0x834 JUMP JUMPDEST DUP7 DUP4 LT ISZERO PUSH3 0x87B JUMPI DUP5 DUP10 ADD MLOAD PUSH3 0x877 PUSH1 0x1F DUP10 AND DUP3 PUSH3 0x76B JUMP JUMPDEST DUP4 SSTORE POP JUMPDEST PUSH1 0x1 PUSH1 0x2 DUP9 MUL ADD DUP9 SSTORE POP POP POP JUMPDEST POP POP POP POP POP POP JUMP JUMPDEST PUSH32 0x4E487B7100000000000000000000000000000000000000000000000000000000 PUSH1 0x0 MSTORE PUSH1 0x11 PUSH1 0x4 MSTORE PUSH1 0x24 PUSH1 0x0 REVERT JUMPDEST PUSH1 0x0 PUSH3 0x8CC DUP3 PUSH3 0x338 JUMP JUMPDEST SWAP2 POP PUSH32 0xFFFFFFFFFFFFFFFFFFFFFFFFFFFFFFFFFFFFFFFFFFFFFFFFFFFFFFFFFFFFFFFF DUP3 SUB PUSH3 0x901 JUMPI PUSH3 0x900 PUSH3 0x890 JUMP JUMPDEST JUMPDEST PUSH1 0x1 DUP3 ADD SWAP1 POP SWAP2 SWAP1 POP JUMP JUMPDEST PUSH2 0x1C6F DUP1 PUSH3 0x91C PUSH1 0x0 CODECOPY PUSH1 0x0 RETURN INVALID PUSH1 0x80 PUSH1 0x40 MSTORE CALLVALUE DUP1 ISZERO PUSH2 0x10 JUMPI PUSH1 0x0 DUP1 REVERT JUMPDEST POP PUSH1 0x4 CALLDATASIZE LT PUSH2 0x116 JUMPI PUSH1 0x0 CALLDATALOAD PUSH1 0xE0 SHR DUP1 PUSH4 0x954115F2 GT PUSH2 0xA2 JUMPI DUP1 PUSH4 0xDA265430 GT PUSH2 0x71 JUMPI DUP1 PUSH4 0xDA265430 EQ PUSH2 0x2D4 JUMPI DUP1 PUSH4 0xDF703622 EQ PUSH2 0x2F2 JUMPI DUP1 PUSH4 0xF0EE4577 EQ PUSH2 0x310 JUMPI DUP1 PUSH4 0xF927CC29 EQ PUSH2 0x340 JUMPI DUP1 PUSH4 0xFC36E15B EQ PUSH2 0x35F JUMPI PUSH2 0x116 JUMP JUMPDEST DUP1 PUSH4 0x954115F2 EQ PUSH2 0x24D JUMPI DUP1 PUSH4 0x9E7B8D61 EQ PUSH2 0x269 JUMPI DUP1 PUSH4 0xA3EC138D EQ PUSH2 0x285 JUMPI DUP1 PUSH4 0xCE606EE0 EQ PUSH2 0x2B6 JUMPI PUSH2 0x116 JUMP JUMPDEST DUP1 PUSH4 0x32A2C5D0 GT PUSH2 0xE9 JUMPI DUP1 PUSH4 0x32A2C5D0 EQ PUSH2 0x191 JUMPI DUP1 PUSH4 0x3477EE2E EQ PUSH2 0x1AF JUMPI DUP1 PUSH4 0x3DDF3822 EQ PUSH2 0x1E1 JUMPI DUP1 PUSH4 0x4ABA5F34 EQ PUSH2 0x1FF JUMPI DUP1 PUSH4 0x94B04E7D EQ PUSH2 0x21D JUMPI PUSH2 0x116 JUMP JUMPDEST DUP1 PUSH4 0x1C5556A EQ PUSH2 0x11B JUMPI DUP1 PUSH4 0xD15FD77 EQ PUSH2 0x139 JUMPI DUP1 PUSH4 0x10508439 EQ PUSH2 0x157 JUMPI DUP1 PUSH4 0x2BFDA515 EQ PUSH2 0x173 JUMPI JUMPDEST PUSH1 0x0 DUP1 REVERT JUMPDEST PUSH2 0x123 PUSH2 0x37B JUMP JUMPDEST PUSH1 0x40 MLOAD PUSH2 0x130 SWAP2 SWAP1 PUSH2 0xEE4 JUMP JUMPDEST PUSH1 0x40 MLOAD DUP1 SWAP2 SUB SWAP1 RETURN JUMPDEST PUSH2 0x141 PUSH2 0x3DA JUMP JUMPDEST PUSH1 0x40 MLOAD PUSH2 0x14E SWAP2 SWAP1 PUSH2 0xEE4 JUMP JUMPDEST PUSH1 0x40 MLOAD DUP1 SWAP2 SUB SWAP1 RETURN JUMPDEST PUSH2 0x171 PUSH1 0x4 DUP1 CALLDATASIZE SUB DUP2 ADD SWAP1 PUSH2 0x16C SWAP2 SWAP1 PUSH2 0x1059 JUMP JUMPDEST PUSH2 0x3E0 JUMP JUMPDEST STOP JUMPDEST PUSH2 0x17B PUSH2 0x4AA JUMP JUMPDEST PUSH1 0x40 MLOAD PUSH2 0x188 SWAP2 SWAP1 PUSH2 0x1150 JUMP JUMPDEST PUSH1 0x40 MLOAD DUP1 SWAP2 SUB SWAP1 RETURN JUMPDEST PUSH2 0x199 PUSH2 0x5B1 JUMP JUMPDEST PUSH1 0x40 MLOAD PUSH2 0x1A6 SWAP2 SWAP1 PUSH2 0x11B3 JUMP JUMPDEST PUSH1 0x40 MLOAD DUP1 SWAP2 SUB SWAP1 RETURN JUMPDEST PUSH2 0x1C9 PUSH1 0x4 DUP1 CALLDATASIZE SUB DUP2 ADD SWAP1 PUSH2 0x1C4 SWAP2 SWAP1 PUSH2 0x11FA JUMP JUMPDEST PUSH2 0x5B9 JUMP JUMPDEST PUSH1 0x40 MLOAD PUSH2 0x1D8 SWAP4 SWAP3 SWAP2 SWAP1 PUSH2 0x1227 JUMP JUMPDEST PUSH1 0x40 MLOAD DUP1 SWAP2 SUB SWAP1 RETURN JUMPDEST PUSH2 0x1E9 PUSH2 0x703 JUMP JUMPDEST PUSH1 0x40 MLOAD PUSH2 0x1F6 SWAP2 SWAP1 PUSH2 0x1287 JUMP JUMPDEST PUSH1 0x40 MLOAD DUP1 SWAP2 SUB SWAP1 RETURN JUMPDEST PUSH2 0x207 PUSH2 0x75A JUMP JUMPDEST PUSH1 0x40 MLOAD PUSH2 0x214 SWAP2 SWAP1 PUSH2 0x1414 JUMP JUMPDEST PUSH1 0x40 MLOAD DUP1 SWAP2 SUB SWAP1 RETURN JUMPDEST PUSH2 0x237 PUSH1 0x4 DUP1 CALLDATASIZE SUB DUP2 ADD SWAP1 PUSH2 0x232 SWAP2 SWAP1 PUSH2 0x1462 JUMP JUMPDEST PUSH2 0x8E7 JUMP JUMPDEST PUSH1 0x40 MLOAD PUSH2 0x244 SWAP2 SWAP1 PUSH2 0x1287 JUMP JUMPDEST PUSH1 0x40 MLOAD DUP1 SWAP2 SUB SWAP1 RETURN JUMPDEST PUSH2 0x267 PUSH1 0x4 DUP1 CALLDATASIZE SUB DUP2 ADD SWAP1 PUSH2 0x262 SWAP2 SWAP1 PUSH2 0x1535 JUMP JUMPDEST PUSH2 0x940 JUMP JUMPDEST STOP JUMPDEST PUSH2 0x283 PUSH1 0x4 DUP1 CALLDATASIZE SUB DUP2 ADD SWAP1 PUSH2 0x27E SWAP2 SWAP1 PUSH2 0x1462 JUMP JUMPDEST PUSH2 0x9EE JUMP JUMPDEST STOP JUMPDEST PUSH2 0x29F PUSH1 0x4 DUP1 CALLDATASIZE SUB DUP2 ADD SWAP1 PUSH2 0x29A SWAP2 SWAP1 PUSH2 0x1462 JUMP JUMPDEST PUSH2 0xA9D JUMP JUMPDEST PUSH1 0x40 MLOAD PUSH2 0x2AD SWAP3 SWAP2 SWAP1 PUSH2 0x157E JUMP JUMPDEST PUSH1 0x40 MLOAD DUP1 SWAP2 SUB SWAP1 RETURN JUMPDEST PUSH2 0x2BE PUSH2 0xADB JUMP JUMPDEST PUSH1 0x40 MLOAD PUSH2 0x2CB SWAP2 SWAP1 PUSH2 0x11B3 JUMP JUMPDEST PUSH1 0x40 MLOAD DUP1 SWAP2 SUB SWAP1 RETURN JUMPDEST PUSH2 0x2DC PUSH2 0xAFF JUMP JUMPDEST PUSH1 0x40 MLOAD PUSH2 0x2E9 SWAP2 SWAP1 PUSH2 0x1287 JUMP JUMPDEST PUSH1 0x40 MLOAD DUP1 SWAP2 SUB SWAP1 RETURN JUMPDEST PUSH2 0x2FA PUSH2 0xB0F JUMP JUMPDEST PUSH1 0x40 MLOAD PUSH2 0x307 SWAP2 SWAP1 PUSH2 0x1287 JUMP JUMPDEST PUSH1 0x40 MLOAD DUP1 SWAP2 SUB SWAP1 RETURN JUMPDEST PUSH2 0x32A PUSH1 0x4 DUP1 CALLDATASIZE SUB DUP2 ADD SWAP1 PUSH2 0x325 SWAP2 SWAP1 PUSH2 0x1462 JUMP JUMPDEST PUSH2 0xB1F JUMP JUMPDEST PUSH1 0x40 MLOAD PUSH2 0x337 SWAP2 SWAP1 PUSH2 0x1287 JUMP JUMPDEST PUSH1 0x40 MLOAD DUP1 SWAP2 SUB SWAP1 RETURN JUMPDEST PUSH2 0x348 PUSH2 0xB78 JUMP JUMPDEST PUSH1 0x40 MLOAD PUSH2 0x356 SWAP3 SWAP2 SWAP1 PUSH2 0x15A7 JUMP JUMPDEST PUSH1 0x40 MLOAD DUP1 SWAP2 SUB SWAP1 RETURN JUMPDEST PUSH2 0x379 PUSH1 0x4 DUP1 CALLDATASIZE SUB DUP2 ADD SWAP1 PUSH2 0x374 SWAP2 SWAP1 PUSH2 0x15D0 JUMP JUMPDEST PUSH2 0xC3C JUMP JUMPDEST STOP JUMPDEST PUSH1 0x0 DUP1 PUSH1 0x0 SWAP1 POP JUMPDEST PUSH1 0x2 DUP1 SLOAD SWAP1 POP DUP2 LT ISZERO PUSH2 0x3D6 JUMPI PUSH1 0x2 DUP2 DUP2 SLOAD DUP2 LT PUSH2 0x3A4 JUMPI PUSH2 0x3A3 PUSH2 0x1619 JUMP JUMPDEST JUMPDEST SWAP1 PUSH1 0x0 MSTORE PUSH1 0x20 PUSH1 0x0 KECCAK256 SWAP1 PUSH1 0x3 MUL ADD PUSH1 0x2 ADD SLOAD DUP3 PUSH2 0x3C1 SWAP2 SWAP1 PUSH2 0x1677 JUMP JUMPDEST SWAP2 POP DUP1 DUP1 PUSH2 0x3CE SWAP1 PUSH2 0x16AB JUMP JUMPDEST SWAP2 POP POP PUSH2 0x383 JUMP JUMPDEST POP SWAP1 JUMP JUMPDEST PUSH1 0x3 SLOAD DUP2 JUMP JUMPDEST PUSH2 0x3E8 PUSH2 0x703 JUMP JUMPDEST PUSH2 0x427 JUMPI PUSH1 0x40 MLOAD PUSH32 0x8C379A000000000000000000000000000000000000000000000000000000000 DUP2 MSTORE PUSH1 0x4 ADD PUSH2 0x41E SWAP1 PUSH2 0x1765 JUMP JUMPDEST PUSH1 0x40 MLOAD DUP1 SWAP2 SUB SWAP1 REVERT JUMPDEST PUSH1 0x2 PUSH1 0x40 MLOAD DUP1 PUSH1 0x60 ADD PUSH1 0x40 MSTORE DUP1 DUP5 DUP2 MSTORE PUSH1 0x20 ADD DUP4 DUP2 MSTORE PUSH1 0x20 ADD PUSH1 0x0 DUP2 MSTORE POP SWAP1 DUP1 PUSH1 0x1 DUP2 SLOAD ADD DUP1 DUP3 SSTORE DUP1 SWAP2 POP POP PUSH1 0x1 SWAP1 SUB SWAP1 PUSH1 0x0 MSTORE PUSH1 0x20 PUSH1 0x0 KECCAK256 SWAP1 PUSH1 0x3 MUL ADD PUSH1 0x0 SWAP1 SWAP2 SWAP1 SWAP2 SWAP1 SWAP2 POP PUSH1 0x0 DUP3 ADD MLOAD DUP2 PUSH1 0x0 ADD SWAP1 DUP2 PUSH2 0x483 SWAP2 SWAP1 PUSH2 0x1991 JUMP JUMPDEST POP PUSH1 0x20 DUP3 ADD MLOAD DUP2 PUSH1 0x1 ADD SWAP1 DUP2 PUSH2 0x499 SWAP2 SWAP1 PUSH2 0x1991 JUMP JUMPDEST POP PUSH1 0x40 DUP3 ADD MLOAD DUP2 PUSH1 0x2 ADD SSTORE POP POP POP POP JUMP JUMPDEST PUSH1 0x60 PUSH1 0x0 DUP1 PUSH2 0x4B7 PUSH2 0xB78 JUMP JUMPDEST SWAP2 POP SWAP2 POP DUP1 ISZERO PUSH2 0x4FC JUMPI PUSH1 0x40 MLOAD PUSH32 0x8C379A000000000000000000000000000000000000000000000000000000000 DUP2 MSTORE PUSH1 0x4 ADD PUSH2 0x4F3 SWAP1 PUSH2 0x1AAF JUMP JUMPDEST PUSH1 0x40 MLOAD DUP1 SWAP2 SUB SWAP1 REVERT JUMPDEST PUSH1 0x2 DUP3 DUP2 SLOAD DUP2 LT PUSH2 0x510 JUMPI PUSH2 0x50F PUSH2 0x1619 JUMP JUMPDEST JUMPDEST SWAP1 PUSH1 0x0 MSTORE PUSH1 0x20 PUSH1 0x0 KECCAK256 SWAP1 PUSH1 0x3 MUL ADD PUSH1 0x0 ADD DUP1 SLOAD PUSH2 0x52C SWAP1 PUSH2 0x17B4 JUMP JUMPDEST DUP1 PUSH1 0x1F ADD PUSH1 0x20 DUP1 SWAP2 DIV MUL PUSH1 0x20 ADD PUSH1 0x40 MLOAD SWAP1 DUP2 ADD PUSH1 0x40 MSTORE DUP1 SWAP3 SWAP2 SWAP1 DUP2 DUP2 MSTORE PUSH1 0x20 ADD DUP3 DUP1 SLOAD PUSH2 0x558 SWAP1 PUSH2 0x17B4 JUMP JUMPDEST DUP1 ISZERO PUSH2 0x5A5 JUMPI DUP1 PUSH1 0x1F LT PUSH2 0x57A JUMPI PUSH2 0x100 DUP1 DUP4 SLOAD DIV MUL DUP4 MSTORE SWAP2 PUSH1 0x20 ADD SWAP2 PUSH2 0x5A5 JUMP JUMPDEST DUP3 ADD SWAP2 SWAP1 PUSH1 0x0 MSTORE PUSH1 0x20 PUSH1 0x0 KECCAK256 SWAP1 JUMPDEST DUP2 SLOAD DUP2 MSTORE SWAP1 PUSH1 0x1 ADD SWAP1 PUSH1 0x20 ADD DUP1 DUP4 GT PUSH2 0x588 JUMPI DUP3 SWAP1 SUB PUSH1 0x1F AND DUP3 ADD SWAP2 JUMPDEST POP POP POP POP POP SWAP3 POP POP POP SWAP1 JUMP JUMPDEST PUSH1 0x0 ADDRESS SWAP1 POP SWAP1 JUMP JUMPDEST PUSH1 0x2 DUP2 DUP2 SLOAD DUP2 LT PUSH2 0x5C9 JUMPI PUSH1 0x0 DUP1 REVERT JUMPDEST SWAP1 PUSH1 0x0 MSTORE PUSH1 0x20 PUSH1 0x0 KECCAK256 SWAP1 PUSH1 0x3 MUL ADD PUSH1 0x0 SWAP2 POP SWAP1 POP DUP1 PUSH1 0x0 ADD DUP1 SLOAD PUSH2 0x5EC SWAP1 PUSH2 0x17B4 JUMP JUMPDEST DUP1 PUSH1 0x1F ADD PUSH1 0x20 DUP1 SWAP2 DIV MUL PUSH1 0x20 ADD PUSH1 0x40 MLOAD SWAP1 DUP2 ADD PUSH1 0x40 MSTORE DUP1 SWAP3 SWAP2 SWAP1 DUP2 DUP2 MSTORE PUSH1 0x20 ADD DUP3 DUP1 SLOAD PUSH2 0x618 SWAP1 PUSH2 0x17B4 JUMP JUMPDEST DUP1 ISZERO PUSH2 0x665 JUMPI DUP1 PUSH1 0x1F LT PUSH2 0x63A JUMPI PUSH2 0x100 DUP1 DUP4 SLOAD DIV MUL DUP4 MSTORE SWAP2 PUSH1 0x20 ADD SWAP2 PUSH2 0x665 JUMP JUMPDEST DUP3 ADD SWAP2 SWAP1 PUSH1 0x0 MSTORE PUSH1 0x20 PUSH1 0x0 KECCAK256 SWAP1 JUMPDEST DUP2 SLOAD DUP2 MSTORE SWAP1 PUSH1 0x1 ADD SWAP1 PUSH1 0x20 ADD DUP1 DUP4 GT PUSH2 0x648 JUMPI DUP3 SWAP1 SUB PUSH1 0x1F AND DUP3 ADD SWAP2 JUMPDEST POP POP POP POP POP SWAP1 DUP1 PUSH1 0x1 ADD DUP1 SLOAD PUSH2 0x67A SWAP1 PUSH2 0x17B4 JUMP JUMPDEST DUP1 PUSH1 0x1F ADD PUSH1 0x20 DUP1 SWAP2 DIV MUL PUSH1 0x20 ADD PUSH1 0x40 MLOAD SWAP1 DUP2 ADD PUSH1 0x40 MSTORE DUP1 SWAP3 SWAP2 SWAP1 DUP2 DUP2 MSTORE PUSH1 0x20 ADD DUP3 DUP1 SLOAD PUSH2 0x6A6 SWAP1 PUSH2 0x17B4 JUMP JUMPDEST DUP1 ISZERO PUSH2 0x6F3 JUMPI DUP1 PUSH1 0x1F LT PUSH2 0x6C8 JUMPI PUSH2 0x100 DUP1 DUP4 SLOAD DIV MUL DUP4 MSTORE SWAP2 PUSH1 0x20 ADD SWAP2 PUSH2 0x6F3 JUMP JUMPDEST DUP3 ADD SWAP2 SWAP1 PUSH1 0x0 MSTORE PUSH1 0x20 PUSH1 0x0 KECCAK256 SWAP1 JUMPDEST DUP2 SLOAD DUP2 MSTORE SWAP1 PUSH1 0x1 ADD SWAP1 PUSH1 0x20 ADD DUP1 DUP4 GT PUSH2 0x6D6 JUMPI DUP3 SWAP1 SUB PUSH1 0x1F AND DUP3 ADD SWAP2 JUMPDEST POP POP POP POP POP SWAP1 DUP1 PUSH1 0x2 ADD SLOAD SWAP1 POP DUP4 JUMP JUMPDEST PUSH1 0x0 DUP1 PUSH1 0x0 SWAP1 SLOAD SWAP1 PUSH2 0x100 EXP SWAP1 DIV PUSH20 0xFFFFFFFFFFFFFFFFFFFFFFFFFFFFFFFFFFFFFFFF AND PUSH20 0xFFFFFFFFFFFFFFFFFFFFFFFFFFFFFFFFFFFFFFFF AND CALLER PUSH20 0xFFFFFFFFFFFFFFFFFFFFFFFFFFFFFFFFFFFFFFFF AND EQ SWAP1 POP SWAP1 JUMP JUMPDEST PUSH1 0x60 PUSH1 0x2 DUP1 SLOAD DUP1 PUSH1 0x20 MUL PUSH1 0x20 ADD PUSH1 0x40 MLOAD SWAP1 DUP2 ADD PUSH1 0x40 MSTORE DUP1 SWAP3 SWAP2 SWAP1 DUP2 DUP2 MSTORE PUSH1 0x20 ADD PUSH1 0x0 SWAP1 JUMPDEST DUP3 DUP3 LT ISZERO PUSH2 0x8DE JUMPI DUP4 DUP3 SWAP1 PUSH1 0x0 MSTORE PUSH1 0x20 PUSH1 0x0 KECCAK256 SWAP1 PUSH1 0x3 MUL ADD PUSH1 0x40 MLOAD DUP1 PUSH1 0x60 ADD PUSH1 0x40 MSTORE SWAP1 DUP2 PUSH1 0x0 DUP3 ADD DUP1 SLOAD PUSH2 0x7B1 SWAP1 PUSH2 0x17B4 JUMP JUMPDEST DUP1 PUSH1 0x1F ADD PUSH1 0x20 DUP1 SWAP2 DIV MUL PUSH1 0x20 ADD PUSH1 0x40 MLOAD SWAP1 DUP2 ADD PUSH1 0x40 MSTORE DUP1 SWAP3 SWAP2 SWAP1 DUP2 DUP2 MSTORE PUSH1 0x20 ADD DUP3 DUP1 SLOAD PUSH2 0x7DD SWAP1 PUSH2 0x17B4 JUMP JUMPDEST DUP1 ISZERO PUSH2 0x82A JUMPI DUP1 PUSH1 0x1F LT PUSH2 0x7FF JUMPI PUSH2 0x100 DUP1 DUP4 SLOAD DIV MUL DUP4 MSTORE SWAP2 PUSH1 0x20 ADD SWAP2 PUSH2 0x82A JUMP JUMPDEST DUP3 ADD SWAP2 SWAP1 PUSH1 0x0 MSTORE PUSH1 0x20 PUSH1 0x0 KECCAK256 SWAP1 JUMPDEST DUP2 SLOAD DUP2 MSTORE SWAP1 PUSH1 0x1 ADD SWAP1 PUSH1 0x20 ADD DUP1 DUP4 GT PUSH2 0x80D JUMPI DUP3 SWAP1 SUB PUSH1 0x1F AND DUP3 ADD SWAP2 JUMPDEST POP POP POP POP POP DUP2 MSTORE PUSH1 0x20 ADD PUSH1 0x1 DUP3 ADD DUP1 SLOAD PUSH2 0x843 SWAP1 PUSH2 0x17B4 JUMP JUMPDEST DUP1 PUSH1 0x1F ADD PUSH1 0x20 DUP1 SWAP2 DIV MUL PUSH1 0x20 ADD PUSH1 0x40 MLOAD SWAP1 DUP2 ADD PUSH1 0x40 MSTORE DUP1 SWAP3 SWAP2 SWAP1 DUP2 DUP2 MSTORE PUSH1 0x20 ADD DUP3 DUP1 SLOAD PUSH2 0x86F SWAP1 PUSH2 0x17B4 JUMP JUMPDEST DUP1 ISZERO PUSH2 0x8BC JUMPI DUP1 PUSH1 0x1F LT PUSH2 0x891 JUMPI PUSH2 0x100 DUP1 DUP4 SLOAD DIV MUL DUP4 MSTORE SWAP2 PUSH1 0x20 ADD SWAP2 PUSH2 0x8BC JUMP JUMPDEST DUP3 ADD SWAP2 SWAP1 PUSH1 0x0 MSTORE PUSH1 0x20 PUSH1 0x0 KECCAK256 SWAP1 JUMPDEST DUP2 SLOAD DUP2 MSTORE SWAP1 PUSH1 0x1 ADD SWAP1 PUSH1 0x20 ADD DUP1 DUP4 GT PUSH2 0x89F JUMPI DUP3 SWAP1 SUB PUSH1 0x1F AND DUP3 ADD SWAP2 JUMPDEST POP POP POP POP POP DUP2 MSTORE PUSH1 0x20 ADD PUSH1 0x2 DUP3 ADD SLOAD DUP2 MSTORE POP POP DUP2 MSTORE PUSH1 0x20 ADD SWAP1 PUSH1 0x1 ADD SWAP1 PUSH2 0x77E JUMP JUMPDEST POP POP POP POP SWAP1 POP SWAP1 JUMP JUMPDEST PUSH1 0x0 PUSH1 0x1 PUSH1 0x0 DUP4 PUSH20 0xFFFFFFFFFFFFFFFFFFFFFFFFFFFFFFFFFFFFFFFF AND PUSH20 0xFFFFFFFFFFFFFFFFFFFFFFFFFFFFFFFFFFFFFFFF AND DUP2 MSTORE PUSH1 0x20 ADD SWAP1 DUP2 MSTORE PUSH1 0x20 ADD PUSH1 0x0 KECCAK256 PUSH1 0x0 ADD PUSH1 0x0 SWAP1 SLOAD SWAP1 PUSH2 0x100 EXP SWAP1 DIV PUSH1 0xFF AND SWAP1 POP SWAP2 SWAP1 POP JUMP JUMPDEST PUSH2 0x948 PUSH2 0x703 JUMP JUMPDEST PUSH2 0x987 JUMPI PUSH1 0x40 MLOAD PUSH32 0x8C379A000000000000000000000000000000000000000000000000000000000 DUP2 MSTORE PUSH1 0x4 ADD PUSH2 0x97E SWAP1 PUSH2 0x1765 JUMP JUMPDEST PUSH1 0x40 MLOAD DUP1 SWAP2 SUB SWAP1 REVERT JUMPDEST PUSH1 0x2 DUP2 SWAP1 DUP1 PUSH1 0x1 DUP2 SLOAD ADD DUP1 DUP3 SSTORE DUP1 SWAP2 POP POP PUSH1 0x1 SWAP1 SUB SWAP1 PUSH1 0x0 MSTORE PUSH1 0x20 PUSH1 0x0 KECCAK256 SWAP1 PUSH1 0x3 MUL ADD PUSH1 0x0 SWAP1 SWAP2 SWAP1 SWAP2 SWAP1 SWAP2 POP PUSH1 0x0 DUP3 ADD MLOAD DUP2 PUSH1 0x0 ADD SWAP1 DUP2 PUSH2 0x9C8 SWAP2 SWAP1 PUSH2 0x1991 JUMP JUMPDEST POP PUSH1 0x20 DUP3 ADD MLOAD DUP2 PUSH1 0x1 ADD SWAP1 DUP2 PUSH2 0x9DE SWAP2 SWAP1 PUSH2 0x1991 JUMP JUMPDEST POP PUSH1 0x40 DUP3 ADD MLOAD DUP2 PUSH1 0x2 ADD SSTORE POP POP POP JUMP JUMPDEST DUP1 PUSH2 0x9F7 PUSH2 0x703 JUMP JUMPDEST PUSH2 0xA36 JUMPI PUSH1 0x40 MLOAD PUSH32 0x8C379A000000000000000000000000000000000000000000000000000000000 DUP2 MSTORE PUSH1 0x4 ADD PUSH2 0xA2D SWAP1 PUSH2 0x1B41 JUMP JUMPDEST PUSH1 0x40 MLOAD DUP1 SWAP2 SUB SWAP1 REVERT JUMPDEST PUSH2 0xA3F DUP2 PUSH2 0xE26 JUMP JUMPDEST PUSH1 0x1 DUP1 PUSH1 0x0 DUP5 PUSH20 0xFFFFFFFFFFFFFFFFFFFFFFFFFFFFFFFFFFFFFFFF AND PUSH20 0xFFFFFFFFFFFFFFFFFFFFFFFFFFFFFFFFFFFFFFFF AND DUP2 MSTORE PUSH1 0x20 ADD SWAP1 DUP2 MSTORE PUSH1 0x20 ADD PUSH1 0x0 KECCAK256 PUSH1 0x0 ADD PUSH1 0x0 PUSH2 0x100 EXP DUP2 SLOAD DUP2 PUSH1 0xFF MUL NOT AND SWAP1 DUP4 ISZERO ISZERO MUL OR SWAP1 SSTORE POP POP POP JUMP JUMPDEST PUSH1 0x1 PUSH1 0x20 MSTORE DUP1 PUSH1 0x0 MSTORE PUSH1 0x40 PUSH1 0x0 KECCAK256 PUSH1 0x0 SWAP2 POP SWAP1 POP DUP1 PUSH1 0x0 ADD PUSH1 0x0 SWAP1 SLOAD SWAP1 PUSH2 0x100 EXP SWAP1 DIV PUSH1 0xFF AND SWAP1 DUP1 PUSH1 0x0 ADD PUSH1 0x1 SWAP1 SLOAD SWAP1 PUSH2 0x100 EXP SWAP1 DIV PUSH1 0xFF AND SWAP1 POP DUP3 JUMP JUMPDEST PUSH1 0x0 DUP1 SLOAD SWAP1 PUSH2 0x100 EXP SWAP1 DIV PUSH20 0xFFFFFFFFFFFFFFFFFFFFFFFFFFFFFFFFFFFFFFFF AND DUP2 JUMP JUMPDEST PUSH1 0x0 PUSH2 0xB0A CALLER PUSH2 0xB1F JUMP JUMPDEST SWAP1 POP SWAP1 JUMP JUMPDEST PUSH1 0x0 PUSH2 0xB1A CALLER PUSH2 0x8E7 JUMP JUMPDEST SWAP1 POP SWAP1 JUMP JUMPDEST PUSH1 0x0 PUSH1 0x1 PUSH1 0x0 DUP4 PUSH20 0xFFFFFFFFFFFFFFFFFFFFFFFFFFFFFFFFFFFFFFFF AND PUSH20 0xFFFFFFFFFFFFFFFFFFFFFFFFFFFFFFFFFFFFFFFF AND DUP2 MSTORE PUSH1 0x20 ADD SWAP1 DUP2 MSTORE PUSH1 0x20 ADD PUSH1 0x0 KECCAK256 PUSH1 0x0 ADD PUSH1 0x1 SWAP1 SLOAD SWAP1 PUSH2 0x100 EXP SWAP1 DIV PUSH1 0xFF AND SWAP1 POP SWAP2 SWAP1 POP JUMP JUMPDEST PUSH1 0x0 DUP1 PUSH1 0x0 DUP1 PUSH1 0x0 SWAP1 POP JUMPDEST PUSH1 0x2 DUP1 SLOAD SWAP1 POP DUP2 LT ISZERO PUSH2 0xC36 JUMPI DUP2 PUSH1 0x2 DUP3 DUP2 SLOAD DUP2 LT PUSH2 0xBA5 JUMPI PUSH2 0xBA4 PUSH2 0x1619 JUMP JUMPDEST JUMPDEST SWAP1 PUSH1 0x0 MSTORE PUSH1 0x20 PUSH1 0x0 KECCAK256 SWAP1 PUSH1 0x3 MUL ADD PUSH1 0x2 ADD SLOAD GT ISZERO PUSH2 0xBF1 JUMPI PUSH1 0x2 DUP2 DUP2 SLOAD DUP2 LT PUSH2 0xBD1 JUMPI PUSH2 0xBD0 PUSH2 0x1619 JUMP JUMPDEST JUMPDEST SWAP1 PUSH1 0x0 MSTORE PUSH1 0x20 PUSH1 0x0 KECCAK256 SWAP1 PUSH1 0x3 MUL ADD PUSH1 0x2 ADD SLOAD SWAP2 POP DUP1 SWAP4 POP PUSH1 0x0 SWAP3 POP PUSH2 0xC23 JUMP JUMPDEST DUP2 PUSH1 0x2 DUP3 DUP2 SLOAD DUP2 LT PUSH2 0xC06 JUMPI PUSH2 0xC05 PUSH2 0x1619 JUMP JUMPDEST JUMPDEST SWAP1 PUSH1 0x0 MSTORE PUSH1 0x20 PUSH1 0x0 KECCAK256 SWAP1 PUSH1 0x3 MUL ADD PUSH1 0x2 ADD SLOAD SUB PUSH2 0xC22 JUMPI PUSH1 0x1 SWAP3 POP JUMPDEST JUMPDEST DUP1 DUP1 PUSH2 0xC2E SWAP1 PUSH2 0x16AB JUMP JUMPDEST SWAP2 POP POP PUSH2 0xB83 JUMP JUMPDEST POP POP SWAP1 SWAP2 JUMP JUMPDEST CALLER PUSH2 0xC45 PUSH2 0xB0F JUMP JUMPDEST PUSH2 0xC84 JUMPI PUSH1 0x40 MLOAD PUSH32 0x8C379A000000000000000000000000000000000000000000000000000000000 DUP2 MSTORE PUSH1 0x4 ADD PUSH2 0xC7B SWAP1 PUSH2 0x1BAD JUMP JUMPDEST PUSH1 0x40 MLOAD DUP1 SWAP2 SUB SWAP1 REVERT JUMPDEST PUSH2 0xC8D DUP2 PUSH2 0xE26 JUMP JUMPDEST PUSH1 0x0 PUSH1 0x1 PUSH1 0x0 CALLER PUSH20 0xFFFFFFFFFFFFFFFFFFFFFFFFFFFFFFFFFFFFFFFF AND PUSH20 0xFFFFFFFFFFFFFFFFFFFFFFFFFFFFFFFFFFFFFFFF AND DUP2 MSTORE PUSH1 0x20 ADD SWAP1 DUP2 MSTORE PUSH1 0x20 ADD PUSH1 0x0 KECCAK256 SWAP1 POP PUSH1 0x0 JUMPDEST PUSH1 0x2 DUP1 SLOAD SWAP1 POP DUP2 LT ISZERO PUSH2 0xE20 JUMPI PUSH2 0xD97 PUSH1 0x2 DUP3 DUP2 SLOAD DUP2 LT PUSH2 0xCF7 JUMPI PUSH2 0xCF6 PUSH2 0x1619 JUMP JUMPDEST JUMPDEST SWAP1 PUSH1 0x0 MSTORE PUSH1 0x20 PUSH1 0x0 KECCAK256 SWAP1 PUSH1 0x3 MUL ADD PUSH1 0x0 ADD DUP1 SLOAD PUSH2 0xD13 SWAP1 PUSH2 0x17B4 JUMP JUMPDEST DUP1 PUSH1 0x1F ADD PUSH1 0x20 DUP1 SWAP2 DIV MUL PUSH1 0x20 ADD PUSH1 0x40 MLOAD SWAP1 DUP2 ADD PUSH1 0x40 MSTORE DUP1 SWAP3 SWAP2 SWAP1 DUP2 DUP2 MSTORE PUSH1 0x20 ADD DUP3 DUP1 SLOAD PUSH2 0xD3F SWAP1 PUSH2 0x17B4 JUMP JUMPDEST DUP1 ISZERO PUSH2 0xD8C JUMPI DUP1 PUSH1 0x1F LT PUSH2 0xD61 JUMPI PUSH2 0x100 DUP1 DUP4 SLOAD DIV MUL DUP4 MSTORE SWAP2 PUSH1 0x20 ADD SWAP2 PUSH2 0xD8C JUMP JUMPDEST DUP3 ADD SWAP2 SWAP1 PUSH1 0x0 MSTORE PUSH1 0x20 PUSH1 0x0 KECCAK256 SWAP1 JUMPDEST DUP2 SLOAD DUP2 MSTORE SWAP1 PUSH1 0x1 ADD SWAP1 PUSH1 0x20 ADD DUP1 DUP4 GT PUSH2 0xD6F JUMPI DUP3 SWAP1 SUB PUSH1 0x1F AND DUP3 ADD SWAP2 JUMPDEST POP POP POP POP POP DUP6 PUSH2 0xE72 JUMP JUMPDEST ISZERO PUSH2 0xE0D JUMPI PUSH1 0x2 DUP2 DUP2 SLOAD DUP2 LT PUSH2 0xDB0 JUMPI PUSH2 0xDAF PUSH2 0x1619 JUMP JUMPDEST JUMPDEST SWAP1 PUSH1 0x0 MSTORE PUSH1 0x20 PUSH1 0x0 KECCAK256 SWAP1 PUSH1 0x3 MUL ADD PUSH1 0x2 ADD PUSH1 0x0 DUP2 SLOAD DUP1 SWAP3 SWAP2 SWAP1 PUSH2 0xDD2 SWAP1 PUSH2 0x16AB JUMP JUMPDEST SWAP2 SWAP1 POP SSTORE POP PUSH1 0x1 DUP3 PUSH1 0x0 ADD PUSH1 0x1 PUSH2 0x100 EXP DUP2 SLOAD DUP2 PUSH1 0xFF MUL NOT AND SWAP1 DUP4 ISZERO ISZERO MUL OR SWAP1 SSTORE POP PUSH1 0x3 PUSH1 0x0 DUP2 SLOAD DUP1 SWAP3 SWAP2 SWAP1 PUSH2 0xE07 SWAP1 PUSH2 0x16AB JUMP JUMPDEST SWAP2 SWAP1 POP SSTORE POP JUMPDEST DUP1 DUP1 PUSH2 0xE18 SWAP1 PUSH2 0x16AB JUMP JUMPDEST SWAP2 POP POP PUSH2 0xCD3 JUMP JUMPDEST POP POP POP POP JUMP JUMPDEST PUSH2 0xE2F DUP2 PUSH2 0xB1F JUMP JUMPDEST ISZERO PUSH2 0xE6F JUMPI PUSH1 0x40 MLOAD PUSH32 0x8C379A000000000000000000000000000000000000000000000000000000000 DUP2 MSTORE PUSH1 0x4 ADD PUSH2 0xE66 SWAP1 PUSH2 0x1C19 JUMP JUMPDEST PUSH1 0x40 MLOAD DUP1 SWAP2 SUB SWAP1 REVERT JUMPDEST POP JUMP JUMPDEST PUSH1 0x0 DUP2 PUSH1 0x40 MLOAD PUSH1 0x20 ADD PUSH2 0xE85 SWAP2 SWAP1 PUSH2 0x1150 JUMP JUMPDEST PUSH1 0x40 MLOAD PUSH1 0x20 DUP2 DUP4 SUB SUB DUP2 MSTORE SWAP1 PUSH1 0x40 MSTORE DUP1 MLOAD SWAP1 PUSH1 0x20 ADD KECCAK256 DUP4 PUSH1 0x40 MLOAD PUSH1 0x20 ADD PUSH2 0xEAC SWAP2 SWAP1 PUSH2 0x1150 JUMP JUMPDEST PUSH1 0x40 MLOAD PUSH1 0x20 DUP2 DUP4 SUB SUB DUP2 MSTORE SWAP1 PUSH1 0x40 MSTORE DUP1 MLOAD SWAP1 PUSH1 0x20 ADD KECCAK256 EQ SWAP1 POP SWAP3 SWAP2 POP POP JUMP JUMPDEST PUSH1 0x0 DUP2 SWAP1 POP SWAP2 SWAP1 POP JUMP JUMPDEST PUSH2 0xEDE DUP2 PUSH2 0xECB JUMP JUMPDEST DUP3 MSTORE POP POP JUMP JUMPDEST PUSH1 0x0 PUSH1 0x20 DUP3 ADD SWAP1 POP PUSH2 0xEF9 PUSH1 0x0 DUP4 ADD DUP5 PUSH2 0xED5 JUMP JUMPDEST SWAP3 SWAP2 POP POP JUMP JUMPDEST PUSH1 0x0 PUSH1 0x40 MLOAD SWAP1 POP SWAP1 JUMP JUMPDEST PUSH1 0x0 DUP1 REVERT JUMPDEST PUSH1 0x0 DUP1 REVERT JUMPDEST PUSH1 0x0 DUP1 REVERT JUMPDEST PUSH1 0x0 DUP1 REVERT JUMPDEST PUSH1 0x0 PUSH1 0x1F NOT PUSH1 0x1F DUP4 ADD AND SWAP1 POP SWAP2 SWAP1 POP JUMP JUMPDEST PUSH32 0x4E487B7100000000000000000000000000000000000000000000000000000000 PUSH1 0x0 MSTORE PUSH1 0x41 PUSH1 0x4 MSTORE PUSH1 0x24 PUSH1 0x0 REVERT JUMPDEST PUSH2 0xF66 DUP3 PUSH2 0xF1D JUMP JUMPDEST DUP2 ADD DUP2 DUP2 LT PUSH8 0xFFFFFFFFFFFFFFFF DUP3 GT OR ISZERO PUSH2 0xF85 JUMPI PUSH2 0xF84 PUSH2 0xF2E JUMP JUMPDEST JUMPDEST DUP1 PUSH1 0x40 MSTORE POP POP POP JUMP JUMPDEST PUSH1 0x0 PUSH2 0xF98 PUSH2 0xEFF JUMP JUMPDEST SWAP1 POP PUSH2 0xFA4 DUP3 DUP3 PUSH2 0xF5D JUMP JUMPDEST SWAP2 SWAP1 POP JUMP JUMPDEST PUSH1 0x0 PUSH8 0xFFFFFFFFFFFFFFFF DUP3 GT ISZERO PUSH2 0xFC4 JUMPI PUSH2 0xFC3 PUSH2 0xF2E JUMP JUMPDEST JUMPDEST PUSH2 0xFCD DUP3 PUSH2 0xF1D JUMP JUMPDEST SWAP1 POP PUSH1 0x20 DUP2 ADD SWAP1 POP SWAP2 SWAP1 POP JUMP JUMPDEST DUP3 DUP2 DUP4 CALLDATACOPY PUSH1 0x0 DUP4 DUP4 ADD MSTORE POP POP POP JUMP JUMPDEST PUSH1 0x0 PUSH2 0xFFC PUSH2 0xFF7 DUP5 PUSH2 0xFA9 JUMP JUMPDEST PUSH2 0xF8E JUMP JUMPDEST SWAP1 POP DUP3 DUP2 MSTORE PUSH1 0x20 DUP2 ADD DUP5 DUP5 DUP5 ADD GT ISZERO PUSH2 0x1018 JUMPI PUSH2 0x1017 PUSH2 0xF18 JUMP JUMPDEST JUMPDEST PUSH2 0x1023 DUP5 DUP3 DUP6 PUSH2 0xFDA JUMP JUMPDEST POP SWAP4 SWAP3 POP POP POP JUMP JUMPDEST PUSH1 0x0 DUP3 PUSH1 0x1F DUP4 ADD SLT PUSH2 0x1040 JUMPI PUSH2 0x103F PUSH2 0xF13 JUMP JUMPDEST JUMPDEST DUP2 CALLDATALOAD PUSH2 0x1050 DUP5 DUP3 PUSH1 0x20 DUP7 ADD PUSH2 0xFE9 JUMP JUMPDEST SWAP2 POP POP SWAP3 SWAP2 POP POP JUMP JUMPDEST PUSH1 0x0 DUP1 PUSH1 0x40 DUP4 DUP6 SUB SLT ISZERO PUSH2 0x1070 JUMPI PUSH2 0x106F PUSH2 0xF09 JUMP JUMPDEST JUMPDEST PUSH1 0x0 DUP4 ADD CALLDATALOAD PUSH8 0xFFFFFFFFFFFFFFFF DUP2 GT ISZERO PUSH2 0x108E JUMPI PUSH2 0x108D PUSH2 0xF0E JUMP JUMPDEST JUMPDEST PUSH2 0x109A DUP6 DUP3 DUP7 ADD PUSH2 0x102B JUMP JUMPDEST SWAP3 POP POP PUSH1 0x20 DUP4 ADD CALLDATALOAD PUSH8 0xFFFFFFFFFFFFFFFF DUP2 GT ISZERO PUSH2 0x10BB JUMPI PUSH2 0x10BA PUSH2 0xF0E JUMP JUMPDEST JUMPDEST PUSH2 0x10C7 DUP6 DUP3 DUP7 ADD PUSH2 0x102B JUMP JUMPDEST SWAP2 POP POP SWAP3 POP SWAP3 SWAP1 POP JUMP JUMPDEST PUSH1 0x0 DUP2 MLOAD SWAP1 POP SWAP2 SWAP1 POP JUMP JUMPDEST PUSH1 0x0 DUP3 DUP3 MSTORE PUSH1 0x20 DUP3 ADD SWAP1 POP SWAP3 SWAP2 POP POP JUMP JUMPDEST PUSH1 0x0 JUMPDEST DUP4 DUP2 LT ISZERO PUSH2 0x110B JUMPI DUP1 DUP3 ADD MLOAD DUP2 DUP5 ADD MSTORE PUSH1 0x20 DUP2 ADD SWAP1 POP PUSH2 0x10F0 JUMP JUMPDEST PUSH1 0x0 DUP5 DUP5 ADD MSTORE POP POP POP POP JUMP JUMPDEST PUSH1 0x0 PUSH2 0x1122 DUP3 PUSH2 0x10D1 JUMP JUMPDEST PUSH2 0x112C DUP2 DUP6 PUSH2 0x10DC JUMP JUMPDEST SWAP4 POP PUSH2 0x113C DUP2 DUP6 PUSH1 0x20 DUP7 ADD PUSH2 0x10ED JUMP JUMPDEST PUSH2 0x1145 DUP2 PUSH2 0xF1D JUMP JUMPDEST DUP5 ADD SWAP2 POP POP SWAP3 SWAP2 POP POP JUMP JUMPDEST PUSH1 0x0 PUSH1 0x20 DUP3 ADD SWAP1 POP DUP2 DUP2 SUB PUSH1 0x0 DUP4 ADD MSTORE PUSH2 0x116A DUP2 DUP5 PUSH2 0x1117 JUMP JUMPDEST SWAP1 POP SWAP3 SWAP2 POP POP JUMP JUMPDEST PUSH1 0x0 PUSH20 0xFFFFFFFFFFFFFFFFFFFFFFFFFFFFFFFFFFFFFFFF DUP3 AND SWAP1 POP SWAP2 SWAP1 POP JUMP JUMPDEST PUSH1 0x0 PUSH2 0x119D DUP3 PUSH2 0x1172 JUMP JUMPDEST SWAP1 POP SWAP2 SWAP1 POP JUMP JUMPDEST PUSH2 0x11AD DUP2 PUSH2 0x1192 JUMP JUMPDEST DUP3 MSTORE POP POP JUMP JUMPDEST PUSH1 0x0 PUSH1 0x20 DUP3 ADD SWAP1 POP PUSH2 0x11C8 PUSH1 0x0 DUP4 ADD DUP5 PUSH2 0x11A4 JUMP JUMPDEST SWAP3 SWAP2 POP POP JUMP JUMPDEST PUSH2 0x11D7 DUP2 PUSH2 0xECB JUMP JUMPDEST DUP2 EQ PUSH2 0x11E2 JUMPI PUSH1 0x0 DUP1 REVERT JUMPDEST POP JUMP JUMPDEST PUSH1 0x0 DUP2 CALLDATALOAD SWAP1 POP PUSH2 0x11F4 DUP2 PUSH2 0x11CE JUMP JUMPDEST SWAP3 SWAP2 POP POP JUMP JUMPDEST PUSH1 0x0 PUSH1 0x20 DUP3 DUP5 SUB SLT ISZERO PUSH2 0x1210 JUMPI PUSH2 0x120F PUSH2 0xF09 JUMP JUMPDEST JUMPDEST PUSH1 0x0 PUSH2 0x121E DUP5 DUP3 DUP6 ADD PUSH2 0x11E5 JUMP JUMPDEST SWAP2 POP POP SWAP3 SWAP2 POP POP JUMP JUMPDEST PUSH1 0x0 PUSH1 0x60 DUP3 ADD SWAP1 POP DUP2 DUP2 SUB PUSH1 0x0 DUP4 ADD MSTORE PUSH2 0x1241 DUP2 DUP7 PUSH2 0x1117 JUMP JUMPDEST SWAP1 POP DUP2 DUP2 SUB PUSH1 0x20 DUP4 ADD MSTORE PUSH2 0x1255 DUP2 DUP6 PUSH2 0x1117 JUMP JUMPDEST SWAP1 POP PUSH2 0x1264 PUSH1 0x40 DUP4 ADD DUP5 PUSH2 0xED5 JUMP JUMPDEST SWAP5 SWAP4 POP POP POP POP JUMP JUMPDEST PUSH1 0x0 DUP2 ISZERO ISZERO SWAP1 POP SWAP2 SWAP1 POP JUMP JUMPDEST PUSH2 0x1281 DUP2 PUSH2 0x126C JUMP JUMPDEST DUP3 MSTORE POP POP JUMP JUMPDEST PUSH1 0x0 PUSH1 0x20 DUP3 ADD SWAP1 POP PUSH2 0x129C PUSH1 0x0 DUP4 ADD DUP5 PUSH2 0x1278 JUMP JUMPDEST SWAP3 SWAP2 POP POP JUMP JUMPDEST PUSH1 0x0 DUP2 MLOAD SWAP1 POP SWAP2 SWAP1 POP JUMP JUMPDEST PUSH1 0x0 DUP3 DUP3 MSTORE PUSH1 0x20 DUP3 ADD SWAP1 POP SWAP3 SWAP2 POP POP JUMP JUMPDEST PUSH1 0x0 DUP2 SWAP1 POP PUSH1 0x20 DUP3 ADD SWAP1 POP SWAP2 SWAP1 POP JUMP JUMPDEST PUSH1 0x0 DUP3 DUP3 MSTORE PUSH1 0x20 DUP3 ADD SWAP1 POP SWAP3 SWAP2 POP POP JUMP JUMPDEST PUSH1 0x0 PUSH2 0x12EA DUP3 PUSH2 0x10D1 JUMP JUMPDEST PUSH2 0x12F4 DUP2 DUP6 PUSH2 0x12CE JUMP JUMPDEST SWAP4 POP PUSH2 0x1304 DUP2 DUP6 PUSH1 0x20 DUP7 ADD PUSH2 0x10ED JUMP JUMPDEST PUSH2 0x130D DUP2 PUSH2 0xF1D JUMP JUMPDEST DUP5 ADD SWAP2 POP POP SWAP3 SWAP2 POP POP JUMP JUMPDEST PUSH2 0x1321 DUP2 PUSH2 0xECB JUMP JUMPDEST DUP3 MSTORE POP POP JUMP JUMPDEST PUSH1 0x0 PUSH1 0x60 DUP4 ADD PUSH1 0x0 DUP4 ADD MLOAD DUP5 DUP3 SUB PUSH1 0x0 DUP7 ADD MSTORE PUSH2 0x1344 DUP3 DUP3 PUSH2 0x12DF JUMP JUMPDEST SWAP2 POP POP PUSH1 0x20 DUP4 ADD MLOAD DUP5 DUP3 SUB PUSH1 0x20 DUP7 ADD MSTORE PUSH2 0x135E DUP3 DUP3 PUSH2 0x12DF JUMP JUMPDEST SWAP2 POP POP PUSH1 0x40 DUP4 ADD MLOAD PUSH2 0x1373 PUSH1 0x40 DUP7 ADD DUP3 PUSH2 0x1318 JUMP JUMPDEST POP DUP1 SWAP2 POP POP SWAP3 SWAP2 POP POP JUMP JUMPDEST PUSH1 0x0 PUSH2 0x138A DUP4 DUP4 PUSH2 0x1327 JUMP JUMPDEST SWAP1 POP SWAP3 SWAP2 POP POP JUMP JUMPDEST PUSH1 0x0 PUSH1 0x20 DUP3 ADD SWAP1 POP SWAP2 SWAP1 POP JUMP JUMPDEST PUSH1 0x0 PUSH2 0x13AA DUP3 PUSH2 0x12A2 JUMP JUMPDEST PUSH2 0x13B4 DUP2 DUP6 PUSH2 0x12AD JUMP JUMPDEST SWAP4 POP DUP4 PUSH1 0x20 DUP3 MUL DUP6 ADD PUSH2 0x13C6 DUP6 PUSH2 0x12BE JUMP JUMPDEST DUP1 PUSH1 0x0 JUMPDEST DUP6 DUP2 LT ISZERO PUSH2 0x1402 JUMPI DUP5 DUP5 SUB DUP10 MSTORE DUP2 MLOAD PUSH2 0x13E3 DUP6 DUP3 PUSH2 0x137E JUMP JUMPDEST SWAP5 POP PUSH2 0x13EE DUP4 PUSH2 0x1392 JUMP JUMPDEST SWAP3 POP PUSH1 0x20 DUP11 ADD SWAP10 POP POP PUSH1 0x1 DUP2 ADD SWAP1 POP PUSH2 0x13CA JUMP JUMPDEST POP DUP3 SWAP8 POP DUP8 SWAP6 POP POP POP POP POP POP SWAP3 SWAP2 POP POP JUMP JUMPDEST PUSH1 0x0 PUSH1 0x20 DUP3 ADD SWAP1 POP DUP2 DUP2 SUB PUSH1 0x0 DUP4 ADD MSTORE PUSH2 0x142E DUP2 DUP5 PUSH2 0x139F JUMP JUMPDEST SWAP1 POP SWAP3 SWAP2 POP POP JUMP JUMPDEST PUSH2 0x143F DUP2 PUSH2 0x1192 JUMP JUMPDEST DUP2 EQ PUSH2 0x144A JUMPI PUSH1 0x0 DUP1 REVERT JUMPDEST POP JUMP JUMPDEST PUSH1 0x0 DUP2 CALLDATALOAD SWAP1 POP PUSH2 0x145C DUP2 PUSH2 0x1436 JUMP JUMPDEST SWAP3 SWAP2 POP POP JUMP JUMPDEST PUSH1 0x0 PUSH1 0x20 DUP3 DUP5 SUB SLT ISZERO PUSH2 0x1478 JUMPI PUSH2 0x1477 PUSH2 0xF09 JUMP JUMPDEST JUMPDEST PUSH1 0x0 PUSH2 0x1486 DUP5 DUP3 DUP6 ADD PUSH2 0x144D JUMP JUMPDEST SWAP2 POP POP SWAP3 SWAP2 POP POP JUMP JUMPDEST PUSH1 0x0 DUP1 REVERT JUMPDEST PUSH1 0x0 DUP1 REVERT JUMPDEST PUSH1 0x0 PUSH1 0x60 DUP3 DUP5 SUB SLT ISZERO PUSH2 0x14AF JUMPI PUSH2 0x14AE PUSH2 0x148F JUMP JUMPDEST JUMPDEST PUSH2 0x14B9 PUSH1 0x60 PUSH2 0xF8E JUMP JUMPDEST SWAP1 POP PUSH1 0x0 DUP3 ADD CALLDATALOAD PUSH8 0xFFFFFFFFFFFFFFFF DUP2 GT ISZERO PUSH2 0x14D9 JUMPI PUSH2 0x14D8 PUSH2 0x1494 JUMP JUMPDEST JUMPDEST PUSH2 0x14E5 DUP5 DUP3 DUP6 ADD PUSH2 0x102B JUMP JUMPDEST PUSH1 0x0 DUP4 ADD MSTORE POP PUSH1 0x20 DUP3 ADD CALLDATALOAD PUSH8 0xFFFFFFFFFFFFFFFF DUP2 GT ISZERO PUSH2 0x1509 JUMPI PUSH2 0x1508 PUSH2 0x1494 JUMP JUMPDEST JUMPDEST PUSH2 0x1515 DUP5 DUP3 DUP6 ADD PUSH2 0x102B JUMP JUMPDEST PUSH1 0x20 DUP4 ADD MSTORE POP PUSH1 0x40 PUSH2 0x1529 DUP5 DUP3 DUP6 ADD PUSH2 0x11E5 JUMP JUMPDEST PUSH1 0x40 DUP4 ADD MSTORE POP SWAP3 SWAP2 POP POP JUMP JUMPDEST PUSH1 0x0 PUSH1 0x20 DUP3 DUP5 SUB SLT ISZERO PUSH2 0x154B JUMPI PUSH2 0x154A PUSH2 0xF09 JUMP JUMPDEST JUMPDEST PUSH1 0x0 DUP3 ADD CALLDATALOAD PUSH8 0xFFFFFFFFFFFFFFFF DUP2 GT ISZERO PUSH2 0x1569 JUMPI PUSH2 0x1568 PUSH2 0xF0E JUMP JUMPDEST JUMPDEST PUSH2 0x1575 DUP5 DUP3 DUP6 ADD PUSH2 0x1499 JUMP JUMPDEST SWAP2 POP POP SWAP3 SWAP2 POP POP JUMP JUMPDEST PUSH1 0x0 PUSH1 0x40 DUP3 ADD SWAP1 POP PUSH2 0x1593 PUSH1 0x0 DUP4 ADD DUP6 PUSH2 0x1278 JUMP JUMPDEST PUSH2 0x15A0 PUSH1 0x20 DUP4 ADD DUP5 PUSH2 0x1278 JUMP JUMPDEST SWAP4 SWAP3 POP POP POP JUMP JUMPDEST PUSH1 0x0 PUSH1 0x40 DUP3 ADD SWAP1 POP PUSH2 0x15BC PUSH1 0x0 DUP4 ADD DUP6 PUSH2 0xED5 JUMP JUMPDEST PUSH2 0x15C9 PUSH1 0x20 DUP4 ADD DUP5 PUSH2 0x1278 JUMP JUMPDEST SWAP4 SWAP3 POP POP POP JUMP JUMPDEST PUSH1 0x0 PUSH1 0x20 DUP3 DUP5 SUB SLT ISZERO PUSH2 0x15E6 JUMPI PUSH2 0x15E5 PUSH2 0xF09 JUMP JUMPDEST JUMPDEST PUSH1 0x0 DUP3 ADD CALLDATALOAD PUSH8 0xFFFFFFFFFFFFFFFF DUP2 GT ISZERO PUSH2 0x1604 JUMPI PUSH2 0x1603 PUSH2 0xF0E JUMP JUMPDEST JUMPDEST PUSH2 0x1610 DUP5 DUP3 DUP6 ADD PUSH2 0x102B JUMP JUMPDEST SWAP2 POP POP SWAP3 SWAP2 POP POP JUMP JUMPDEST PUSH32 0x4E487B7100000000000000000000000000000000000000000000000000000000 PUSH1 0x0 MSTORE PUSH1 0x32 PUSH1 0x4 MSTORE PUSH1 0x24 PUSH1 0x0 REVERT JUMPDEST PUSH32 0x4E487B7100000000000000000000000000000000000000000000000000000000 PUSH1 0x0 MSTORE PUSH1 0x11 PUSH1 0x4 MSTORE PUSH1 0x24 PUSH1 0x0 REVERT JUMPDEST PUSH1 0x0 PUSH2 0x1682 DUP3 PUSH2 0xECB JUMP JUMPDEST SWAP2 POP PUSH2 0x168D DUP4 PUSH2 0xECB JUMP JUMPDEST SWAP3 POP DUP3 DUP3 ADD SWAP1 POP DUP1 DUP3 GT ISZERO PUSH2 0x16A5 JUMPI PUSH2 0x16A4 PUSH2 0x1648 JUMP JUMPDEST JUMPDEST SWAP3 SWAP2 POP POP JUMP JUMPDEST PUSH1 0x0 PUSH2 0x16B6 DUP3 PUSH2 0xECB JUMP JUMPDEST SWAP2 POP PUSH32 0xFFFFFFFFFFFFFFFFFFFFFFFFFFFFFFFFFFFFFFFFFFFFFFFFFFFFFFFFFFFFFFFF DUP3 SUB PUSH2 0x16E8 JUMPI PUSH2 0x16E7 PUSH2 0x1648 JUMP JUMPDEST JUMPDEST PUSH1 0x1 DUP3 ADD SWAP1 POP SWAP2 SWAP1 POP JUMP JUMPDEST PUSH32 0x4F6E6C792074686520636F6E7472616374206F776E65722063616E2061646420 PUSH1 0x0 DUP3 ADD MSTORE PUSH32 0x63616E646964617465732E000000000000000000000000000000000000000000 PUSH1 0x20 DUP3 ADD MSTORE POP JUMP JUMPDEST PUSH1 0x0 PUSH2 0x174F PUSH1 0x2B DUP4 PUSH2 0x10DC JUMP JUMPDEST SWAP2 POP PUSH2 0x175A DUP3 PUSH2 0x16F3 JUMP JUMPDEST PUSH1 0x40 DUP3 ADD SWAP1 POP SWAP2 SWAP1 POP JUMP JUMPDEST PUSH1 0x0 PUSH1 0x20 DUP3 ADD SWAP1 POP DUP2 DUP2 SUB PUSH1 0x0 DUP4 ADD MSTORE PUSH2 0x177E DUP2 PUSH2 0x1742 JUMP JUMPDEST SWAP1 POP SWAP2 SWAP1 POP JUMP JUMPDEST PUSH32 0x4E487B7100000000000000000000000000000000000000000000000000000000 PUSH1 0x0 MSTORE PUSH1 0x22 PUSH1 0x4 MSTORE PUSH1 0x24 PUSH1 0x0 REVERT JUMPDEST PUSH1 0x0 PUSH1 0x2 DUP3 DIV SWAP1 POP PUSH1 0x1 DUP3 AND DUP1 PUSH2 0x17CC JUMPI PUSH1 0x7F DUP3 AND SWAP2 POP JUMPDEST PUSH1 0x20 DUP3 LT DUP2 SUB PUSH2 0x17DF JUMPI PUSH2 0x17DE PUSH2 0x1785 JUMP JUMPDEST JUMPDEST POP SWAP2 SWAP1 POP JUMP JUMPDEST PUSH1 0x0 DUP2 SWAP1 POP DUP2 PUSH1 0x0 MSTORE PUSH1 0x20 PUSH1 0x0 KECCAK256 SWAP1 POP SWAP2 SWAP1 POP JUMP JUMPDEST PUSH1 0x0 PUSH1 0x20 PUSH1 0x1F DUP4 ADD DIV SWAP1 POP SWAP2 SWAP1 POP JUMP JUMPDEST PUSH1 0x0 DUP3 DUP3 SHL SWAP1 POP SWAP3 SWAP2 POP POP JUMP JUMPDEST PUSH1 0x0 PUSH1 0x8 DUP4 MUL PUSH2 0x1847 PUSH32 0xFFFFFFFFFFFFFFFFFFFFFFFFFFFFFFFFFFFFFFFFFFFFFFFFFFFFFFFFFFFFFFFF DUP3 PUSH2 0x180A JUMP JUMPDEST PUSH2 0x1851 DUP7 DUP4 PUSH2 0x180A JUMP JUMPDEST SWAP6 POP DUP1 NOT DUP5 AND SWAP4 POP DUP1 DUP7 AND DUP5 OR SWAP3 POP POP POP SWAP4 SWAP3 POP POP POP JUMP JUMPDEST PUSH1 0x0 DUP2 SWAP1 POP SWAP2 SWAP1 POP JUMP JUMPDEST PUSH1 0x0 PUSH2 0x188E PUSH2 0x1889 PUSH2 0x1884 DUP5 PUSH2 0xECB JUMP JUMPDEST PUSH2 0x1869 JUMP JUMPDEST PUSH2 0xECB JUMP JUMPDEST SWAP1 POP SWAP2 SWAP1 POP JUMP JUMPDEST PUSH1 0x0 DUP2 SWAP1 POP SWAP2 SWAP1 POP JUMP JUMPDEST PUSH2 0x18A8 DUP4 PUSH2 0x1873 JUMP JUMPDEST PUSH2 0x18BC PUSH2 0x18B4 DUP3 PUSH2 0x1895 JUMP JUMPDEST DUP5 DUP5 SLOAD PUSH2 0x1817 JUMP JUMPDEST DUP3 SSTORE POP POP POP POP JUMP JUMPDEST PUSH1 0x0 SWAP1 JUMP JUMPDEST PUSH2 0x18D1 PUSH2 0x18C4 JUMP JUMPDEST PUSH2 0x18DC DUP2 DUP5 DUP5 PUSH2 0x189F JUMP JUMPDEST POP POP POP JUMP JUMPDEST JUMPDEST DUP2 DUP2 LT ISZERO PUSH2 0x1900 JUMPI PUSH2 0x18F5 PUSH1 0x0 DUP3 PUSH2 0x18C9 JUMP JUMPDEST PUSH1 0x1 DUP2 ADD SWAP1 POP PUSH2 0x18E2 JUMP JUMPDEST POP POP JUMP JUMPDEST PUSH1 0x1F DUP3 GT ISZERO PUSH2 0x1945 JUMPI PUSH2 0x1916 DUP2 PUSH2 0x17E5 JUMP JUMPDEST PUSH2 0x191F DUP5 PUSH2 0x17FA JUMP JUMPDEST DUP2 ADD PUSH1 0x20 DUP6 LT ISZERO PUSH2 0x192E JUMPI DUP2 SWAP1 POP JUMPDEST PUSH2 0x1942 PUSH2 0x193A DUP6 PUSH2 0x17FA JUMP JUMPDEST DUP4 ADD DUP3 PUSH2 0x18E1 JUMP JUMPDEST POP POP JUMPDEST POP POP POP JUMP JUMPDEST PUSH1 0x0 DUP3 DUP3 SHR SWAP1 POP SWAP3 SWAP2 POP POP JUMP JUMPDEST PUSH1 0x0 PUSH2 0x1968 PUSH1 0x0 NOT DUP5 PUSH1 0x8 MUL PUSH2 0x194A JUMP JUMPDEST NOT DUP1 DUP4 AND SWAP2 POP POP SWAP3 SWAP2 POP POP JUMP JUMPDEST PUSH1 0x0 PUSH2 0x1981 DUP4 DUP4 PUSH2 0x1957 JUMP JUMPDEST SWAP2 POP DUP3 PUSH1 0x2 MUL DUP3 OR SWAP1 POP SWAP3 SWAP2 POP POP JUMP JUMPDEST PUSH2 0x199A DUP3 PUSH2 0x10D1 JUMP JUMPDEST PUSH8 0xFFFFFFFFFFFFFFFF DUP2 GT ISZERO PUSH2 0x19B3 JUMPI PUSH2 0x19B2 PUSH2 0xF2E JUMP JUMPDEST JUMPDEST PUSH2 0x19BD DUP3 SLOAD PUSH2 0x17B4 JUMP JUMPDEST PUSH2 0x19C8 DUP3 DUP3 DUP6 PUSH2 0x1904 JUMP JUMPDEST PUSH1 0x0 PUSH1 0x20 SWAP1 POP PUSH1 0x1F DUP4 GT PUSH1 0x1 DUP2 EQ PUSH2 0x19FB JUMPI PUSH1 0x0 DUP5 ISZERO PUSH2 0x19E9 JUMPI DUP3 DUP8 ADD MLOAD SWAP1 POP JUMPDEST PUSH2 0x19F3 DUP6 DUP3 PUSH2 0x1975 JUMP JUMPDEST DUP7 SSTORE POP PUSH2 0x1A5B JUMP JUMPDEST PUSH1 0x1F NOT DUP5 AND PUSH2 0x1A09 DUP7 PUSH2 0x17E5 JUMP JUMPDEST PUSH1 0x0 JUMPDEST DUP3 DUP2 LT ISZERO PUSH2 0x1A31 JUMPI DUP5 DUP10 ADD MLOAD DUP3 SSTORE PUSH1 0x1 DUP3 ADD SWAP2 POP PUSH1 0x20 DUP6 ADD SWAP5 POP PUSH1 0x20 DUP2 ADD SWAP1 POP PUSH2 0x1A0C JUMP JUMPDEST DUP7 DUP4 LT ISZERO PUSH2 0x1A4E JUMPI DUP5 DUP10 ADD MLOAD PUSH2 0x1A4A PUSH1 0x1F DUP10 AND DUP3 PUSH2 0x1957 JUMP JUMPDEST DUP4 SSTORE POP JUMPDEST PUSH1 0x1 PUSH1 0x2 DUP9 MUL ADD DUP9 SSTORE POP POP POP JUMPDEST POP POP POP POP POP POP JUMP JUMPDEST PUSH32 0x5468657265206973206120746965206F6E2042616C6C6F740000000000000000 PUSH1 0x0 DUP3 ADD MSTORE POP JUMP JUMPDEST PUSH1 0x0 PUSH2 0x1A99 PUSH1 0x18 DUP4 PUSH2 0x10DC JUMP JUMPDEST SWAP2 POP PUSH2 0x1AA4 DUP3 PUSH2 0x1A63 JUMP JUMPDEST PUSH1 0x20 DUP3 ADD SWAP1 POP SWAP2 SWAP1 POP JUMP JUMPDEST PUSH1 0x0 PUSH1 0x20 DUP3 ADD SWAP1 POP DUP2 DUP2 SUB PUSH1 0x0 DUP4 ADD MSTORE PUSH2 0x1AC8 DUP2 PUSH2 0x1A8C JUMP JUMPDEST SWAP1 POP SWAP2 SWAP1 POP JUMP JUMPDEST PUSH32 0x4F6E6C792074686520636F6E7472616374206F776E65722063616E2067697665 PUSH1 0x0 DUP3 ADD MSTORE PUSH32 0x20726967687420746F20766F74652E0000000000000000000000000000000000 PUSH1 0x20 DUP3 ADD MSTORE POP JUMP JUMPDEST PUSH1 0x0 PUSH2 0x1B2B PUSH1 0x2F DUP4 PUSH2 0x10DC JUMP JUMPDEST SWAP2 POP PUSH2 0x1B36 DUP3 PUSH2 0x1ACF JUMP JUMPDEST PUSH1 0x40 DUP3 ADD SWAP1 POP SWAP2 SWAP1 POP JUMP JUMPDEST PUSH1 0x0 PUSH1 0x20 DUP3 ADD SWAP1 POP DUP2 DUP2 SUB PUSH1 0x0 DUP4 ADD MSTORE PUSH2 0x1B5A DUP2 PUSH2 0x1B1E JUMP JUMPDEST SWAP1 POP SWAP2 SWAP1 POP JUMP JUMPDEST PUSH32 0x596F752068617665206E6F7420726967687420746F20766F7465000000000000 PUSH1 0x0 DUP3 ADD MSTORE POP JUMP JUMPDEST PUSH1 0x0 PUSH2 0x1B97 PUSH1 0x1A DUP4 PUSH2 0x10DC JUMP JUMPDEST SWAP2 POP PUSH2 0x1BA2 DUP3 PUSH2 0x1B61 JUMP JUMPDEST PUSH1 0x20 DUP3 ADD SWAP1 POP SWAP2 SWAP1 POP JUMP JUMPDEST PUSH1 0x0 PUSH1 0x20 DUP3 ADD SWAP1 POP DUP2 DUP2 SUB PUSH1 0x0 DUP4 ADD MSTORE PUSH2 0x1BC6 DUP2 PUSH2 0x1B8A JUMP JUMPDEST SWAP1 POP SWAP2 SWAP1 POP JUMP JUMPDEST PUSH32 0x566F74657220616C726561647920766F7465642E000000000000000000000000 PUSH1 0x0 DUP3 ADD MSTORE POP JUMP JUMPDEST PUSH1 0x0 PUSH2 0x1C03 PUSH1 0x14 DUP4 PUSH2 0x10DC JUMP JUMPDEST SWAP2 POP PUSH2 0x1C0E DUP3 PUSH2 0x1BCD JUMP JUMPDEST PUSH1 0x20 DUP3 ADD SWAP1 POP SWAP2 SWAP1 POP JUMP JUMPDEST PUSH1 0x0 PUSH1 0x20 DUP3 ADD SWAP1 POP DUP2 DUP2 SUB PUSH1 0x0 DUP4 ADD MSTORE PUSH2 0x1C32 DUP2 PUSH2 0x1BF6 JUMP JUMPDEST SWAP1 POP SWAP2 SWAP1 POP JUMP INVALID LOG2 PUSH5 0x6970667358 0x22 SLT KECCAK256 SWAP1 PUSH5 0x43CF49D72B OR 0xBD SUB 0xD0 PUSH13 0xDAFC5978846332AD9977F87B18 0x2B SWAP4 DUP15 0x4E PC PUSH26 0x7764736F6C634300081100330000000000000000000000000000 "
				},
				"gasEstimates": {
					"creation": {
						"codeDepositCost": "1455800",
						"executionCost": "infinite",
						"totalCost": "infinite"
					},
					"external": {
						"addCandidateAsStruct((string,string,uint256))": "infinite",
						"addCandidateWithSpreadParameters(string,string)": "infinite",
						"areYouContractOwner()": "2563",
						"areYouHaveRigthToVote()": "2661",
						"areYouVoted()": "2689",
						"calculateAmountOfTotalVotes()": "infinite",
						"candidates(uint256)": "infinite",
						"contractOwner()": "2600",
						"getCandidatesList()": "infinite",
						"getContractAddress()": "408",
						"getVoterRigthToVote(address)": "3000",
						"getVoterVoter(address)": "3005",
						"getWinnerName()": "infinite",
						"getWinningCandidate()": "infinite",
						"giveRightToVote(address)": "29447",
						"totalVotes()": "2475",
						"vote(string)": "infinite",
						"voters(address)": "infinite"
					},
					"internal": {
						"getVoterVotedRequire(address)": "infinite",
						"stringEqualTo(string memory,string memory)": "infinite"
					}
				},
				"methodIdentifiers": {
					"addCandidateAsStruct((string,string,uint256))": "954115f2",
					"addCandidateWithSpreadParameters(string,string)": "10508439",
					"areYouContractOwner()": "3ddf3822",
					"areYouHaveRigthToVote()": "df703622",
					"areYouVoted()": "da265430",
					"calculateAmountOfTotalVotes()": "01c5556a",
					"candidates(uint256)": "3477ee2e",
					"contractOwner()": "ce606ee0",
					"getCandidatesList()": "4aba5f34",
					"getContractAddress()": "32a2c5d0",
					"getVoterRigthToVote(address)": "94b04e7d",
					"getVoterVoter(address)": "f0ee4577",
					"getWinnerName()": "2bfda515",
					"getWinningCandidate()": "f927cc29",
					"giveRightToVote(address)": "9e7b8d61",
					"totalVotes()": "0d15fd77",
					"vote(string)": "fc36e15b",
					"voters(address)": "a3ec138d"
				}
			},
			"storageLayout": {
				"storage": [
					{
						"astId": 15,
						"contract": "contracts/Ballot/Ballot.sol:MyBallot",
						"label": "contractOwner",
						"offset": 0,
						"slot": "0",
						"type": "t_address"
					},
					{
						"astId": 20,
						"contract": "contracts/Ballot/Ballot.sol:MyBallot",
						"label": "voters",
						"offset": 0,
						"slot": "1",
						"type": "t_mapping(t_address,t_struct(Voter)6_storage)"
					},
					{
						"astId": 24,
						"contract": "contracts/Ballot/Ballot.sol:MyBallot",
						"label": "candidates",
						"offset": 0,
						"slot": "2",
						"type": "t_array(t_struct(Candidate)13_storage)dyn_storage"
					},
					{
						"astId": 26,
						"contract": "contracts/Ballot/Ballot.sol:MyBallot",
						"label": "totalVotes",
						"offset": 0,
						"slot": "3",
						"type": "t_uint256"
					}
				],
				"types": {
					"t_address": {
						"encoding": "inplace",
						"label": "address",
						"numberOfBytes": "20"
					},
					"t_array(t_struct(Candidate)13_storage)dyn_storage": {
						"base": "t_struct(Candidate)13_storage",
						"encoding": "dynamic_array",
						"label": "struct MyBallot.Candidate[]",
						"numberOfBytes": "32"
					},
					"t_bool": {
						"encoding": "inplace",
						"label": "bool",
						"numberOfBytes": "1"
					},
					"t_mapping(t_address,t_struct(Voter)6_storage)": {
						"encoding": "mapping",
						"key": "t_address",
						"label": "mapping(address => struct MyBallot.Voter)",
						"numberOfBytes": "32",
						"value": "t_struct(Voter)6_storage"
					},
					"t_string_storage": {
						"encoding": "bytes",
						"label": "string",
						"numberOfBytes": "32"
					},
					"t_struct(Candidate)13_storage": {
						"encoding": "inplace",
						"label": "struct MyBallot.Candidate",
						"members": [
							{
								"astId": 8,
								"contract": "contracts/Ballot/Ballot.sol:MyBallot",
								"label": "name",
								"offset": 0,
								"slot": "0",
								"type": "t_string_storage"
							},
							{
								"astId": 10,
								"contract": "contracts/Ballot/Ballot.sol:MyBallot",
								"label": "party",
								"offset": 0,
								"slot": "1",
								"type": "t_string_storage"
							},
							{
								"astId": 12,
								"contract": "contracts/Ballot/Ballot.sol:MyBallot",
								"label": "votesCount",
								"offset": 0,
								"slot": "2",
								"type": "t_uint256"
							}
						],
						"numberOfBytes": "96"
					},
					"t_struct(Voter)6_storage": {
						"encoding": "inplace",
						"label": "struct MyBallot.Voter",
						"members": [
							{
								"astId": 3,
								"contract": "contracts/Ballot/Ballot.sol:MyBallot",
								"label": "canVote",
								"offset": 0,
								"slot": "0",
								"type": "t_bool"
							},
							{
								"astId": 5,
								"contract": "contracts/Ballot/Ballot.sol:MyBallot",
								"label": "hasVoted",
								"offset": 1,
								"slot": "0",
								"type": "t_bool"
							}
						],
						"numberOfBytes": "32"
					},
					"t_uint256": {
						"encoding": "inplace",
						"label": "uint256",
						"numberOfBytes": "32"
					}
				}
			},
			"userdoc": {
				"kind": "user",
				"methods": {},
				"version": 1
			}
		}
	}
}