{
	"contracts/Ballot/Ballot.sol": {
		"MyBallot": {
			"abi": [
				{
					"inputs": [
						{
							"internalType": "string[]",
							"name": "_candidates",
							"type": "string[]"
						},
						{
							"internalType": "uint256",
							"name": "_maxVotes",
							"type": "uint256"
						}
					],
					"stateMutability": "nonpayable",
					"type": "constructor"
				},
				{
					"inputs": [
						{
							"internalType": "uint256",
							"name": "",
							"type": "uint256"
						}
					],
					"name": "candidates",
					"outputs": [
						{
							"internalType": "string",
							"name": "nameProject",
							"type": "string"
						},
						{
							"internalType": "uint256",
							"name": "votesCount",
							"type": "uint256"
						}
					],
					"stateMutability": "view",
					"type": "function"
				},
				{
					"inputs": [],
					"name": "getCandidatesListName",
					"outputs": [
						{
							"internalType": "string[]",
							"name": "",
							"type": "string[]"
						}
					],
					"stateMutability": "view",
					"type": "function"
				},
				{
					"inputs": [],
					"name": "getWinnerName",
					"outputs": [
						{
							"internalType": "string",
							"name": "winnerName",
							"type": "string"
						},
						{
							"internalType": "address",
							"name": "",
							"type": "address"
						}
					],
					"stateMutability": "view",
					"type": "function"
				},
				{
					"inputs": [
						{
							"internalType": "address",
							"name": "voterAddress",
							"type": "address"
						}
					],
					"name": "giveRightToVote",
					"outputs": [],
					"stateMutability": "nonpayable",
					"type": "function"
				},
				{
					"inputs": [
						{
							"internalType": "string",
							"name": "_nameProject",
							"type": "string"
						}
					],
					"name": "vote",
					"outputs": [],
					"stateMutability": "nonpayable",
					"type": "function"
				},
				{
					"inputs": [
						{
							"internalType": "address",
							"name": "",
							"type": "address"
						}
					],
					"name": "voters",
					"outputs": [
						{
							"internalType": "bool",
							"name": "canVote",
							"type": "bool"
						},
						{
							"internalType": "bool",
							"name": "hasVoted",
							"type": "bool"
						}
					],
					"stateMutability": "view",
					"type": "function"
				}
			],
			"devdoc": {
				"kind": "dev",
				"methods": {},
				"version": 1
			},
			"evm": {
				"assembly": "    /* \"contracts/Ballot/Ballot.sol\":70:5360  contract MyBallot {\r... */\n  mstore(0x40, 0x80)\n    /* \"contracts/Ballot/Ballot.sol\":498:687  constructor(string[] memory _candidates, uint _maxVotes) {\r... */\n  callvalue\n  dup1\n  iszero\n  tag_1\n  jumpi\n  0x00\n  dup1\n  revert\ntag_1:\n  pop\n  mload(0x40)\n  sub(codesize, bytecodeSize)\n  dup1\n  bytecodeSize\n  dup4\n  codecopy\n  dup2\n  dup2\n  add\n  0x40\n  mstore\n  dup2\n  add\n  swap1\n  tag_2\n  swap2\n  swap1\n  tag_3\n  jump\t// in\ntag_2:\n    /* \"contracts/Ballot/Ballot.sol\":582:592  msg.sender */\n  caller\n    /* \"contracts/Ballot/Ballot.sol\":566:579  contractOwner */\n  0x00\n  dup1\n    /* \"contracts/Ballot/Ballot.sol\":566:592  contractOwner = msg.sender */\n  0x0100\n  exp\n  dup2\n  sload\n  dup2\n  0xffffffffffffffffffffffffffffffffffffffff\n  mul\n  not\n  and\n  swap1\n  dup4\n  0xffffffffffffffffffffffffffffffffffffffff\n  and\n  mul\n  or\n  swap1\n  sstore\n  pop\n    /* \"contracts/Ballot/Ballot.sol\":603:640  setCandidatesIntoStorage(_candidates) */\n  tag_6\n    /* \"contracts/Ballot/Ballot.sol\":628:639  _candidates */\n  dup3\n    /* \"contracts/Ballot/Ballot.sol\":603:627  setCandidatesIntoStorage */\n  shl(0x20, tag_7)\n    /* \"contracts/Ballot/Ballot.sol\":603:640  setCandidatesIntoStorage(_candidates) */\n  0x20\n  shr\n  jump\t// in\ntag_6:\n    /* \"contracts/Ballot/Ballot.sol\":670:679  _maxVotes */\n  dup1\n    /* \"contracts/Ballot/Ballot.sol\":659:667  maxVotes */\n  0x04\n    /* \"contracts/Ballot/Ballot.sol\":659:679  maxVotes = _maxVotes */\n  dup2\n  swap1\n  sstore\n  pop\n    /* \"contracts/Ballot/Ballot.sol\":498:687  constructor(string[] memory _candidates, uint _maxVotes) {\r... */\n  pop\n  pop\n    /* \"contracts/Ballot/Ballot.sol\":70:5360  contract MyBallot {\r... */\n  jump(tag_8)\n    /* \"contracts/Ballot/Ballot.sol\":1955:2254  function setCandidatesIntoStorage(string[] memory _candidates) private {\r... */\ntag_7:\n    /* \"contracts/Ballot/Ballot.sol\":2042:2052  uint index */\n  0x00\n    /* \"contracts/Ballot/Ballot.sol\":2037:2247  for (uint index = 0; index < _candidates.length; index++) {\r... */\ntag_10:\n    /* \"contracts/Ballot/Ballot.sol\":2066:2077  _candidates */\n  dup2\n    /* \"contracts/Ballot/Ballot.sol\":2066:2084  _candidates.length */\n  mload\n    /* \"contracts/Ballot/Ballot.sol\":2058:2063  index */\n  dup2\n    /* \"contracts/Ballot/Ballot.sol\":2058:2084  index < _candidates.length */\n  lt\n    /* \"contracts/Ballot/Ballot.sol\":2037:2247  for (uint index = 0; index < _candidates.length; index++) {\r... */\n  iszero\n  tag_11\n  jumpi\n    /* \"contracts/Ballot/Ballot.sol\":2110:2120  candidates */\n  0x02\n    /* \"contracts/Ballot/Ballot.sol\":2126:2234  Candidate({\r... */\n  mload(0x40)\n  dup1\n  0x40\n  add\n  0x40\n  mstore\n  dup1\n    /* \"contracts/Ballot/Ballot.sol\":2168:2179  _candidates */\n  dup5\n    /* \"contracts/Ballot/Ballot.sol\":2180:2185  index */\n  dup5\n    /* \"contracts/Ballot/Ballot.sol\":2168:2186  _candidates[index] */\n  dup2\n  mload\n  dup2\n  lt\n  tag_13\n  jumpi\n  tag_14\n  tag_15\n  jump\t// in\ntag_14:\ntag_13:\n  0x20\n  mul\n  0x20\n  add\n  add\n  mload\n    /* \"contracts/Ballot/Ballot.sol\":2126:2234  Candidate({\r... */\n  dup2\n  mstore\n  0x20\n  add\n    /* \"contracts/Ballot/Ballot.sol\":2217:2218  0 */\n  0x00\n    /* \"contracts/Ballot/Ballot.sol\":2126:2234  Candidate({\r... */\n  dup2\n  mstore\n  pop\n    /* \"contracts/Ballot/Ballot.sol\":2110:2235  candidates.push(Candidate({\r... */\n  swap1\n  dup1\n  0x01\n  dup2\n  sload\n  add\n  dup1\n  dup3\n  sstore\n  dup1\n  swap2\n  pop\n  pop\n  0x01\n  swap1\n  sub\n  swap1\n  0x00\n  mstore\n  keccak256(0x00, 0x20)\n  swap1\n  0x02\n  mul\n  add\n  0x00\n  swap1\n  swap2\n  swap1\n  swap2\n  swap1\n  swap2\n  pop\n  0x00\n  dup3\n  add\n  mload\n  dup2\n  0x00\n  add\n  swap1\n  dup1\n  mload\n  swap1\n  0x20\n  add\n  swap1\n  tag_17\n  swap3\n  swap2\n  swap1\n  tag_18\n  jump\t// in\ntag_17:\n  pop\n  0x20\n  dup3\n  add\n  mload\n  dup2\n  0x01\n  add\n  sstore\n  pop\n  pop\n    /* \"contracts/Ballot/Ballot.sol\":2086:2093  index++ */\n  dup1\n  dup1\n  tag_19\n  swap1\n  tag_20\n  jump\t// in\ntag_19:\n  swap2\n  pop\n  pop\n    /* \"contracts/Ballot/Ballot.sol\":2037:2247  for (uint index = 0; index < _candidates.length; index++) {\r... */\n  jump(tag_10)\ntag_11:\n  pop\n    /* \"contracts/Ballot/Ballot.sol\":1955:2254  function setCandidatesIntoStorage(string[] memory _candidates) private {\r... */\n  pop\n  jump\t// out\n    /* \"contracts/Ballot/Ballot.sol\":70:5360  contract MyBallot {\r... */\ntag_18:\n  dup3\n  dup1\n  sload\n  tag_21\n  swap1\n  tag_22\n  jump\t// in\ntag_21:\n  swap1\n  0x00\n  mstore\n  keccak256(0x00, 0x20)\n  swap1\n  0x1f\n  add\n  0x20\n  swap1\n  div\n  dup2\n  add\n  swap3\n  dup3\n  tag_24\n  jumpi\n  0x00\n  dup6\n  sstore\n  jump(tag_23)\ntag_24:\n  dup3\n  0x1f\n  lt\n  tag_25\n  jumpi\n  dup1\n  mload\n  not(0xff)\n  and\n  dup4\n  dup1\n  add\n  or\n  dup6\n  sstore\n  jump(tag_23)\ntag_25:\n  dup3\n  dup1\n  add\n  0x01\n  add\n  dup6\n  sstore\n  dup3\n  iszero\n  tag_23\n  jumpi\n  swap2\n  dup3\n  add\ntag_26:\n  dup3\n  dup2\n  gt\n  iszero\n  tag_27\n  jumpi\n  dup3\n  mload\n  dup3\n  sstore\n  swap2\n  0x20\n  add\n  swap2\n  swap1\n  0x01\n  add\n  swap1\n  jump(tag_26)\ntag_27:\ntag_23:\n  pop\n  swap1\n  pop\n  tag_28\n  swap2\n  swap1\n  tag_29\n  jump\t// in\ntag_28:\n  pop\n  swap1\n  jump\t// out\ntag_29:\ntag_30:\n  dup1\n  dup3\n  gt\n  iszero\n  tag_31\n  jumpi\n  0x00\n  dup2\n  0x00\n  swap1\n  sstore\n  pop\n  0x01\n  add\n  jump(tag_30)\ntag_31:\n  pop\n  swap1\n  jump\t// out\n    /* \"#utility.yul\":23:995   */\ntag_33:\n    /* \"#utility.yul\":140:145   */\n  0x00\n    /* \"#utility.yul\":165:256   */\n  tag_35\n    /* \"#utility.yul\":181:255   */\n  tag_36\n    /* \"#utility.yul\":248:254   */\n  dup5\n    /* \"#utility.yul\":181:255   */\n  tag_37\n  jump\t// in\ntag_36:\n    /* \"#utility.yul\":165:256   */\n  tag_38\n  jump\t// in\ntag_35:\n    /* \"#utility.yul\":156:256   */\n  swap1\n  pop\n    /* \"#utility.yul\":276:281   */\n  dup1\n    /* \"#utility.yul\":305:311   */\n  dup4\n    /* \"#utility.yul\":298:303   */\n  dup3\n    /* \"#utility.yul\":291:312   */\n  mstore\n    /* \"#utility.yul\":339:343   */\n  0x20\n    /* \"#utility.yul\":332:337   */\n  dup3\n    /* \"#utility.yul\":328:344   */\n  add\n    /* \"#utility.yul\":321:344   */\n  swap1\n  pop\n    /* \"#utility.yul\":365:371   */\n  dup3\n    /* \"#utility.yul\":415:418   */\n  dup6\n    /* \"#utility.yul\":407:411   */\n  0x20\n    /* \"#utility.yul\":399:405   */\n  dup7\n    /* \"#utility.yul\":395:412   */\n  mul\n    /* \"#utility.yul\":390:393   */\n  dup3\n    /* \"#utility.yul\":386:413   */\n  add\n    /* \"#utility.yul\":383:419   */\n  gt\n    /* \"#utility.yul\":380:523   */\n  iszero\n  tag_39\n  jumpi\n    /* \"#utility.yul\":434:513   */\n  tag_40\n  tag_41\n  jump\t// in\ntag_40:\n    /* \"#utility.yul\":380:523   */\ntag_39:\n    /* \"#utility.yul\":547:548   */\n  0x00\n    /* \"#utility.yul\":532:989   */\ntag_42:\n    /* \"#utility.yul\":557:563   */\n  dup6\n    /* \"#utility.yul\":554:555   */\n  dup2\n    /* \"#utility.yul\":551:564   */\n  lt\n    /* \"#utility.yul\":532:989   */\n  iszero\n  tag_44\n  jumpi\n    /* \"#utility.yul\":632:635   */\n  dup2\n    /* \"#utility.yul\":626:636   */\n  mload\n    /* \"#utility.yul\":668:686   */\n  0xffffffffffffffff\n    /* \"#utility.yul\":655:666   */\n  dup2\n    /* \"#utility.yul\":652:687   */\n  gt\n    /* \"#utility.yul\":649:771   */\n  iszero\n  tag_45\n  jumpi\n    /* \"#utility.yul\":690:769   */\n  tag_46\n  tag_47\n  jump\t// in\ntag_46:\n    /* \"#utility.yul\":649:771   */\ntag_45:\n    /* \"#utility.yul\":814:825   */\n  dup1\n    /* \"#utility.yul\":806:812   */\n  dup7\n    /* \"#utility.yul\":802:826   */\n  add\n    /* \"#utility.yul\":852:910   */\n  tag_48\n    /* \"#utility.yul\":906:909   */\n  dup10\n    /* \"#utility.yul\":894:904   */\n  dup3\n    /* \"#utility.yul\":852:910   */\n  tag_49\n  jump\t// in\ntag_48:\n    /* \"#utility.yul\":847:850   */\n  dup6\n    /* \"#utility.yul\":840:911   */\n  mstore\n    /* \"#utility.yul\":940:944   */\n  0x20\n    /* \"#utility.yul\":935:938   */\n  dup6\n    /* \"#utility.yul\":931:945   */\n  add\n    /* \"#utility.yul\":924:945   */\n  swap5\n  pop\n    /* \"#utility.yul\":974:978   */\n  0x20\n    /* \"#utility.yul\":969:972   */\n  dup5\n    /* \"#utility.yul\":965:979   */\n  add\n    /* \"#utility.yul\":958:979   */\n  swap4\n  pop\n    /* \"#utility.yul\":592:989   */\n  pop\n  pop\n    /* \"#utility.yul\":579:580   */\n  0x01\n    /* \"#utility.yul\":576:577   */\n  dup2\n    /* \"#utility.yul\":572:581   */\n  add\n    /* \"#utility.yul\":567:581   */\n  swap1\n  pop\n    /* \"#utility.yul\":532:989   */\n  jump(tag_42)\ntag_44:\n    /* \"#utility.yul\":536:550   */\n  pop\n    /* \"#utility.yul\":146:995   */\n  pop\n  pop\n    /* \"#utility.yul\":23:995   */\n  swap4\n  swap3\n  pop\n  pop\n  pop\n  jump\t// out\n    /* \"#utility.yul\":1001:1422   */\ntag_50:\n    /* \"#utility.yul\":1090:1095   */\n  0x00\n    /* \"#utility.yul\":1115:1181   */\n  tag_52\n    /* \"#utility.yul\":1131:1180   */\n  tag_53\n    /* \"#utility.yul\":1173:1179   */\n  dup5\n    /* \"#utility.yul\":1131:1180   */\n  tag_54\n  jump\t// in\ntag_53:\n    /* \"#utility.yul\":1115:1181   */\n  tag_38\n  jump\t// in\ntag_52:\n    /* \"#utility.yul\":1106:1181   */\n  swap1\n  pop\n    /* \"#utility.yul\":1204:1210   */\n  dup3\n    /* \"#utility.yul\":1197:1202   */\n  dup2\n    /* \"#utility.yul\":1190:1211   */\n  mstore\n    /* \"#utility.yul\":1242:1246   */\n  0x20\n    /* \"#utility.yul\":1235:1240   */\n  dup2\n    /* \"#utility.yul\":1231:1247   */\n  add\n    /* \"#utility.yul\":1280:1283   */\n  dup5\n    /* \"#utility.yul\":1271:1277   */\n  dup5\n    /* \"#utility.yul\":1266:1269   */\n  dup5\n    /* \"#utility.yul\":1262:1278   */\n  add\n    /* \"#utility.yul\":1259:1284   */\n  gt\n    /* \"#utility.yul\":1256:1368   */\n  iszero\n  tag_55\n  jumpi\n    /* \"#utility.yul\":1287:1366   */\n  tag_56\n  tag_57\n  jump\t// in\ntag_56:\n    /* \"#utility.yul\":1256:1368   */\ntag_55:\n    /* \"#utility.yul\":1377:1416   */\n  tag_58\n    /* \"#utility.yul\":1409:1415   */\n  dup5\n    /* \"#utility.yul\":1404:1407   */\n  dup3\n    /* \"#utility.yul\":1399:1402   */\n  dup6\n    /* \"#utility.yul\":1377:1416   */\n  tag_59\n  jump\t// in\ntag_58:\n    /* \"#utility.yul\":1096:1422   */\n  pop\n    /* \"#utility.yul\":1001:1422   */\n  swap4\n  swap3\n  pop\n  pop\n  pop\n  jump\t// out\n    /* \"#utility.yul\":1444:1849   */\ntag_60:\n    /* \"#utility.yul\":1536:1541   */\n  0x00\n    /* \"#utility.yul\":1585:1588   */\n  dup3\n    /* \"#utility.yul\":1578:1582   */\n  0x1f\n    /* \"#utility.yul\":1570:1576   */\n  dup4\n    /* \"#utility.yul\":1566:1583   */\n  add\n    /* \"#utility.yul\":1562:1589   */\n  slt\n    /* \"#utility.yul\":1552:1674   */\n  tag_62\n  jumpi\n    /* \"#utility.yul\":1593:1672   */\n  tag_63\n  tag_47\n  jump\t// in\ntag_63:\n    /* \"#utility.yul\":1552:1674   */\ntag_62:\n    /* \"#utility.yul\":1703:1709   */\n  dup2\n    /* \"#utility.yul\":1697:1710   */\n  mload\n    /* \"#utility.yul\":1728:1843   */\n  tag_64\n    /* \"#utility.yul\":1839:1842   */\n  dup5\n    /* \"#utility.yul\":1831:1837   */\n  dup3\n    /* \"#utility.yul\":1824:1828   */\n  0x20\n    /* \"#utility.yul\":1816:1822   */\n  dup7\n    /* \"#utility.yul\":1812:1829   */\n  add\n    /* \"#utility.yul\":1728:1843   */\n  tag_33\n  jump\t// in\ntag_64:\n    /* \"#utility.yul\":1719:1843   */\n  swap2\n  pop\n    /* \"#utility.yul\":1542:1849   */\n  pop\n    /* \"#utility.yul\":1444:1849   */\n  swap3\n  swap2\n  pop\n  pop\n  jump\t// out\n    /* \"#utility.yul\":1869:2224   */\ntag_49:\n    /* \"#utility.yul\":1936:1941   */\n  0x00\n    /* \"#utility.yul\":1985:1988   */\n  dup3\n    /* \"#utility.yul\":1978:1982   */\n  0x1f\n    /* \"#utility.yul\":1970:1976   */\n  dup4\n    /* \"#utility.yul\":1966:1983   */\n  add\n    /* \"#utility.yul\":1962:1989   */\n  slt\n    /* \"#utility.yul\":1952:2074   */\n  tag_66\n  jumpi\n    /* \"#utility.yul\":1993:2072   */\n  tag_67\n  tag_47\n  jump\t// in\ntag_67:\n    /* \"#utility.yul\":1952:2074   */\ntag_66:\n    /* \"#utility.yul\":2103:2109   */\n  dup2\n    /* \"#utility.yul\":2097:2110   */\n  mload\n    /* \"#utility.yul\":2128:2218   */\n  tag_68\n    /* \"#utility.yul\":2214:2217   */\n  dup5\n    /* \"#utility.yul\":2206:2212   */\n  dup3\n    /* \"#utility.yul\":2199:2203   */\n  0x20\n    /* \"#utility.yul\":2191:2197   */\n  dup7\n    /* \"#utility.yul\":2187:2204   */\n  add\n    /* \"#utility.yul\":2128:2218   */\n  tag_50\n  jump\t// in\ntag_68:\n    /* \"#utility.yul\":2119:2218   */\n  swap2\n  pop\n    /* \"#utility.yul\":1942:2224   */\n  pop\n    /* \"#utility.yul\":1869:2224   */\n  swap3\n  swap2\n  pop\n  pop\n  jump\t// out\n    /* \"#utility.yul\":2230:2373   */\ntag_69:\n    /* \"#utility.yul\":2287:2292   */\n  0x00\n    /* \"#utility.yul\":2318:2324   */\n  dup2\n    /* \"#utility.yul\":2312:2325   */\n  mload\n    /* \"#utility.yul\":2303:2325   */\n  swap1\n  pop\n    /* \"#utility.yul\":2334:2367   */\n  tag_71\n    /* \"#utility.yul\":2361:2366   */\n  dup2\n    /* \"#utility.yul\":2334:2367   */\n  tag_72\n  jump\t// in\ntag_71:\n    /* \"#utility.yul\":2230:2373   */\n  swap3\n  swap2\n  pop\n  pop\n  jump\t// out\n    /* \"#utility.yul\":2379:3109   */\ntag_3:\n    /* \"#utility.yul\":2493:2499   */\n  0x00\n    /* \"#utility.yul\":2501:2507   */\n  dup1\n    /* \"#utility.yul\":2550:2552   */\n  0x40\n    /* \"#utility.yul\":2538:2547   */\n  dup4\n    /* \"#utility.yul\":2529:2536   */\n  dup6\n    /* \"#utility.yul\":2525:2548   */\n  sub\n    /* \"#utility.yul\":2521:2553   */\n  slt\n    /* \"#utility.yul\":2518:2637   */\n  iszero\n  tag_74\n  jumpi\n    /* \"#utility.yul\":2556:2635   */\n  tag_75\n  tag_76\n  jump\t// in\ntag_75:\n    /* \"#utility.yul\":2518:2637   */\ntag_74:\n    /* \"#utility.yul\":2697:2698   */\n  0x00\n    /* \"#utility.yul\":2686:2695   */\n  dup4\n    /* \"#utility.yul\":2682:2699   */\n  add\n    /* \"#utility.yul\":2676:2700   */\n  mload\n    /* \"#utility.yul\":2727:2745   */\n  0xffffffffffffffff\n    /* \"#utility.yul\":2719:2725   */\n  dup2\n    /* \"#utility.yul\":2716:2746   */\n  gt\n    /* \"#utility.yul\":2713:2830   */\n  iszero\n  tag_77\n  jumpi\n    /* \"#utility.yul\":2749:2828   */\n  tag_78\n  tag_79\n  jump\t// in\ntag_78:\n    /* \"#utility.yul\":2713:2830   */\ntag_77:\n    /* \"#utility.yul\":2854:2953   */\n  tag_80\n    /* \"#utility.yul\":2945:2952   */\n  dup6\n    /* \"#utility.yul\":2936:2942   */\n  dup3\n    /* \"#utility.yul\":2925:2934   */\n  dup7\n    /* \"#utility.yul\":2921:2943   */\n  add\n    /* \"#utility.yul\":2854:2953   */\n  tag_60\n  jump\t// in\ntag_80:\n    /* \"#utility.yul\":2844:2953   */\n  swap3\n  pop\n    /* \"#utility.yul\":2647:2963   */\n  pop\n    /* \"#utility.yul\":3002:3004   */\n  0x20\n    /* \"#utility.yul\":3028:3092   */\n  tag_81\n    /* \"#utility.yul\":3084:3091   */\n  dup6\n    /* \"#utility.yul\":3075:3081   */\n  dup3\n    /* \"#utility.yul\":3064:3073   */\n  dup7\n    /* \"#utility.yul\":3060:3082   */\n  add\n    /* \"#utility.yul\":3028:3092   */\n  tag_69\n  jump\t// in\ntag_81:\n    /* \"#utility.yul\":3018:3092   */\n  swap2\n  pop\n    /* \"#utility.yul\":2973:3102   */\n  pop\n    /* \"#utility.yul\":2379:3109   */\n  swap3\n  pop\n  swap3\n  swap1\n  pop\n  jump\t// out\n    /* \"#utility.yul\":3115:3244   */\ntag_38:\n    /* \"#utility.yul\":3149:3155   */\n  0x00\n    /* \"#utility.yul\":3176:3196   */\n  tag_83\n  tag_84\n  jump\t// in\ntag_83:\n    /* \"#utility.yul\":3166:3196   */\n  swap1\n  pop\n    /* \"#utility.yul\":3205:3238   */\n  tag_85\n    /* \"#utility.yul\":3233:3237   */\n  dup3\n    /* \"#utility.yul\":3225:3231   */\n  dup3\n    /* \"#utility.yul\":3205:3238   */\n  tag_86\n  jump\t// in\ntag_85:\n    /* \"#utility.yul\":3115:3244   */\n  swap2\n  swap1\n  pop\n  jump\t// out\n    /* \"#utility.yul\":3250:3325   */\ntag_84:\n    /* \"#utility.yul\":3283:3289   */\n  0x00\n    /* \"#utility.yul\":3316:3318   */\n  0x40\n    /* \"#utility.yul\":3310:3319   */\n  mload\n    /* \"#utility.yul\":3300:3319   */\n  swap1\n  pop\n    /* \"#utility.yul\":3250:3325   */\n  swap1\n  jump\t// out\n    /* \"#utility.yul\":3331:3652   */\ntag_37:\n    /* \"#utility.yul\":3418:3422   */\n  0x00\n    /* \"#utility.yul\":3508:3526   */\n  0xffffffffffffffff\n    /* \"#utility.yul\":3500:3506   */\n  dup3\n    /* \"#utility.yul\":3497:3527   */\n  gt\n    /* \"#utility.yul\":3494:3550   */\n  iszero\n  tag_89\n  jumpi\n    /* \"#utility.yul\":3530:3548   */\n  tag_90\n  tag_91\n  jump\t// in\ntag_90:\n    /* \"#utility.yul\":3494:3550   */\ntag_89:\n    /* \"#utility.yul\":3580:3584   */\n  0x20\n    /* \"#utility.yul\":3572:3578   */\n  dup3\n    /* \"#utility.yul\":3568:3585   */\n  mul\n    /* \"#utility.yul\":3560:3585   */\n  swap1\n  pop\n    /* \"#utility.yul\":3640:3644   */\n  0x20\n    /* \"#utility.yul\":3634:3638   */\n  dup2\n    /* \"#utility.yul\":3630:3645   */\n  add\n    /* \"#utility.yul\":3622:3645   */\n  swap1\n  pop\n    /* \"#utility.yul\":3331:3652   */\n  swap2\n  swap1\n  pop\n  jump\t// out\n    /* \"#utility.yul\":3658:3966   */\ntag_54:\n    /* \"#utility.yul\":3720:3724   */\n  0x00\n    /* \"#utility.yul\":3810:3828   */\n  0xffffffffffffffff\n    /* \"#utility.yul\":3802:3808   */\n  dup3\n    /* \"#utility.yul\":3799:3829   */\n  gt\n    /* \"#utility.yul\":3796:3852   */\n  iszero\n  tag_93\n  jumpi\n    /* \"#utility.yul\":3832:3850   */\n  tag_94\n  tag_91\n  jump\t// in\ntag_94:\n    /* \"#utility.yul\":3796:3852   */\ntag_93:\n    /* \"#utility.yul\":3870:3899   */\n  tag_95\n    /* \"#utility.yul\":3892:3898   */\n  dup3\n    /* \"#utility.yul\":3870:3899   */\n  tag_96\n  jump\t// in\ntag_95:\n    /* \"#utility.yul\":3862:3899   */\n  swap1\n  pop\n    /* \"#utility.yul\":3954:3958   */\n  0x20\n    /* \"#utility.yul\":3948:3952   */\n  dup2\n    /* \"#utility.yul\":3944:3959   */\n  add\n    /* \"#utility.yul\":3936:3959   */\n  swap1\n  pop\n    /* \"#utility.yul\":3658:3966   */\n  swap2\n  swap1\n  pop\n  jump\t// out\n    /* \"#utility.yul\":3972:4049   */\ntag_97:\n    /* \"#utility.yul\":4009:4016   */\n  0x00\n    /* \"#utility.yul\":4038:4043   */\n  dup2\n    /* \"#utility.yul\":4027:4043   */\n  swap1\n  pop\n    /* \"#utility.yul\":3972:4049   */\n  swap2\n  swap1\n  pop\n  jump\t// out\n    /* \"#utility.yul\":4055:4362   */\ntag_59:\n    /* \"#utility.yul\":4123:4124   */\n  0x00\n    /* \"#utility.yul\":4133:4246   */\ntag_100:\n    /* \"#utility.yul\":4147:4153   */\n  dup4\n    /* \"#utility.yul\":4144:4145   */\n  dup2\n    /* \"#utility.yul\":4141:4154   */\n  lt\n    /* \"#utility.yul\":4133:4246   */\n  iszero\n  tag_102\n  jumpi\n    /* \"#utility.yul\":4232:4233   */\n  dup1\n    /* \"#utility.yul\":4227:4230   */\n  dup3\n    /* \"#utility.yul\":4223:4234   */\n  add\n    /* \"#utility.yul\":4217:4235   */\n  mload\n    /* \"#utility.yul\":4213:4214   */\n  dup2\n    /* \"#utility.yul\":4208:4211   */\n  dup5\n    /* \"#utility.yul\":4204:4215   */\n  add\n    /* \"#utility.yul\":4197:4236   */\n  mstore\n    /* \"#utility.yul\":4169:4171   */\n  0x20\n    /* \"#utility.yul\":4166:4167   */\n  dup2\n    /* \"#utility.yul\":4162:4172   */\n  add\n    /* \"#utility.yul\":4157:4172   */\n  swap1\n  pop\n    /* \"#utility.yul\":4133:4246   */\n  jump(tag_100)\ntag_102:\n    /* \"#utility.yul\":4264:4270   */\n  dup4\n    /* \"#utility.yul\":4261:4262   */\n  dup2\n    /* \"#utility.yul\":4258:4271   */\n  gt\n    /* \"#utility.yul\":4255:4356   */\n  iszero\n  tag_103\n  jumpi\n    /* \"#utility.yul\":4344:4345   */\n  0x00\n    /* \"#utility.yul\":4335:4341   */\n  dup5\n    /* \"#utility.yul\":4330:4333   */\n  dup5\n    /* \"#utility.yul\":4326:4342   */\n  add\n    /* \"#utility.yul\":4319:4346   */\n  mstore\n    /* \"#utility.yul\":4255:4356   */\ntag_103:\n    /* \"#utility.yul\":4104:4362   */\n  pop\n    /* \"#utility.yul\":4055:4362   */\n  pop\n  pop\n  pop\n  jump\t// out\n    /* \"#utility.yul\":4368:4688   */\ntag_22:\n    /* \"#utility.yul\":4412:4418   */\n  0x00\n    /* \"#utility.yul\":4449:4450   */\n  0x02\n    /* \"#utility.yul\":4443:4447   */\n  dup3\n    /* \"#utility.yul\":4439:4451   */\n  div\n    /* \"#utility.yul\":4429:4451   */\n  swap1\n  pop\n    /* \"#utility.yul\":4496:4497   */\n  0x01\n    /* \"#utility.yul\":4490:4494   */\n  dup3\n    /* \"#utility.yul\":4486:4498   */\n  and\n    /* \"#utility.yul\":4517:4535   */\n  dup1\n    /* \"#utility.yul\":4507:4588   */\n  tag_105\n  jumpi\n    /* \"#utility.yul\":4573:4577   */\n  0x7f\n    /* \"#utility.yul\":4565:4571   */\n  dup3\n    /* \"#utility.yul\":4561:4578   */\n  and\n    /* \"#utility.yul\":4551:4578   */\n  swap2\n  pop\n    /* \"#utility.yul\":4507:4588   */\ntag_105:\n    /* \"#utility.yul\":4635:4637   */\n  0x20\n    /* \"#utility.yul\":4627:4633   */\n  dup3\n    /* \"#utility.yul\":4624:4638   */\n  lt\n    /* \"#utility.yul\":4604:4622   */\n  dup2\n    /* \"#utility.yul\":4601:4639   */\n  eq\n    /* \"#utility.yul\":4598:4682   */\n  iszero\n  tag_106\n  jumpi\n    /* \"#utility.yul\":4654:4672   */\n  tag_107\n  tag_108\n  jump\t// in\ntag_107:\n    /* \"#utility.yul\":4598:4682   */\ntag_106:\n    /* \"#utility.yul\":4419:4688   */\n  pop\n    /* \"#utility.yul\":4368:4688   */\n  swap2\n  swap1\n  pop\n  jump\t// out\n    /* \"#utility.yul\":4694:4975   */\ntag_86:\n    /* \"#utility.yul\":4777:4804   */\n  tag_110\n    /* \"#utility.yul\":4799:4803   */\n  dup3\n    /* \"#utility.yul\":4777:4804   */\n  tag_96\n  jump\t// in\ntag_110:\n    /* \"#utility.yul\":4769:4775   */\n  dup2\n    /* \"#utility.yul\":4765:4805   */\n  add\n    /* \"#utility.yul\":4907:4913   */\n  dup2\n    /* \"#utility.yul\":4895:4905   */\n  dup2\n    /* \"#utility.yul\":4892:4914   */\n  lt\n    /* \"#utility.yul\":4871:4889   */\n  0xffffffffffffffff\n    /* \"#utility.yul\":4859:4869   */\n  dup3\n    /* \"#utility.yul\":4856:4890   */\n  gt\n    /* \"#utility.yul\":4853:4915   */\n  or\n    /* \"#utility.yul\":4850:4938   */\n  iszero\n  tag_111\n  jumpi\n    /* \"#utility.yul\":4918:4936   */\n  tag_112\n  tag_91\n  jump\t// in\ntag_112:\n    /* \"#utility.yul\":4850:4938   */\ntag_111:\n    /* \"#utility.yul\":4958:4968   */\n  dup1\n    /* \"#utility.yul\":4954:4956   */\n  0x40\n    /* \"#utility.yul\":4947:4969   */\n  mstore\n    /* \"#utility.yul\":4737:4975   */\n  pop\n    /* \"#utility.yul\":4694:4975   */\n  pop\n  pop\n  jump\t// out\n    /* \"#utility.yul\":4981:5214   */\ntag_20:\n    /* \"#utility.yul\":5020:5023   */\n  0x00\n    /* \"#utility.yul\":5043:5067   */\n  tag_114\n    /* \"#utility.yul\":5061:5066   */\n  dup3\n    /* \"#utility.yul\":5043:5067   */\n  tag_97\n  jump\t// in\ntag_114:\n    /* \"#utility.yul\":5034:5067   */\n  swap2\n  pop\n    /* \"#utility.yul\":5089:5155   */\n  0xffffffffffffffffffffffffffffffffffffffffffffffffffffffffffffffff\n    /* \"#utility.yul\":5082:5087   */\n  dup3\n    /* \"#utility.yul\":5079:5156   */\n  eq\n    /* \"#utility.yul\":5076:5179   */\n  iszero\n  tag_115\n  jumpi\n    /* \"#utility.yul\":5159:5177   */\n  tag_116\n  tag_117\n  jump\t// in\ntag_116:\n    /* \"#utility.yul\":5076:5179   */\ntag_115:\n    /* \"#utility.yul\":5206:5207   */\n  0x01\n    /* \"#utility.yul\":5199:5204   */\n  dup3\n    /* \"#utility.yul\":5195:5208   */\n  add\n    /* \"#utility.yul\":5188:5208   */\n  swap1\n  pop\n    /* \"#utility.yul\":4981:5214   */\n  swap2\n  swap1\n  pop\n  jump\t// out\n    /* \"#utility.yul\":5220:5400   */\ntag_117:\n    /* \"#utility.yul\":5268:5345   */\n  0x4e487b7100000000000000000000000000000000000000000000000000000000\n    /* \"#utility.yul\":5265:5266   */\n  0x00\n    /* \"#utility.yul\":5258:5346   */\n  mstore\n    /* \"#utility.yul\":5365:5369   */\n  0x11\n    /* \"#utility.yul\":5362:5363   */\n  0x04\n    /* \"#utility.yul\":5355:5370   */\n  mstore\n    /* \"#utility.yul\":5389:5393   */\n  0x24\n    /* \"#utility.yul\":5386:5387   */\n  0x00\n    /* \"#utility.yul\":5379:5394   */\n  revert\n    /* \"#utility.yul\":5406:5586   */\ntag_108:\n    /* \"#utility.yul\":5454:5531   */\n  0x4e487b7100000000000000000000000000000000000000000000000000000000\n    /* \"#utility.yul\":5451:5452   */\n  0x00\n    /* \"#utility.yul\":5444:5532   */\n  mstore\n    /* \"#utility.yul\":5551:5555   */\n  0x22\n    /* \"#utility.yul\":5548:5549   */\n  0x04\n    /* \"#utility.yul\":5541:5556   */\n  mstore\n    /* \"#utility.yul\":5575:5579   */\n  0x24\n    /* \"#utility.yul\":5572:5573   */\n  0x00\n    /* \"#utility.yul\":5565:5580   */\n  revert\n    /* \"#utility.yul\":5592:5772   */\ntag_15:\n    /* \"#utility.yul\":5640:5717   */\n  0x4e487b7100000000000000000000000000000000000000000000000000000000\n    /* \"#utility.yul\":5637:5638   */\n  0x00\n    /* \"#utility.yul\":5630:5718   */\n  mstore\n    /* \"#utility.yul\":5737:5741   */\n  0x32\n    /* \"#utility.yul\":5734:5735   */\n  0x04\n    /* \"#utility.yul\":5727:5742   */\n  mstore\n    /* \"#utility.yul\":5761:5765   */\n  0x24\n    /* \"#utility.yul\":5758:5759   */\n  0x00\n    /* \"#utility.yul\":5751:5766   */\n  revert\n    /* \"#utility.yul\":5778:5958   */\ntag_91:\n    /* \"#utility.yul\":5826:5903   */\n  0x4e487b7100000000000000000000000000000000000000000000000000000000\n    /* \"#utility.yul\":5823:5824   */\n  0x00\n    /* \"#utility.yul\":5816:5904   */\n  mstore\n    /* \"#utility.yul\":5923:5927   */\n  0x41\n    /* \"#utility.yul\":5920:5921   */\n  0x04\n    /* \"#utility.yul\":5913:5928   */\n  mstore\n    /* \"#utility.yul\":5947:5951   */\n  0x24\n    /* \"#utility.yul\":5944:5945   */\n  0x00\n    /* \"#utility.yul\":5937:5952   */\n  revert\n    /* \"#utility.yul\":5964:6081   */\ntag_47:\n    /* \"#utility.yul\":6073:6074   */\n  0x00\n    /* \"#utility.yul\":6070:6071   */\n  dup1\n    /* \"#utility.yul\":6063:6075   */\n  revert\n    /* \"#utility.yul\":6087:6204   */\ntag_41:\n    /* \"#utility.yul\":6196:6197   */\n  0x00\n    /* \"#utility.yul\":6193:6194   */\n  dup1\n    /* \"#utility.yul\":6186:6198   */\n  revert\n    /* \"#utility.yul\":6210:6327   */\ntag_57:\n    /* \"#utility.yul\":6319:6320   */\n  0x00\n    /* \"#utility.yul\":6316:6317   */\n  dup1\n    /* \"#utility.yul\":6309:6321   */\n  revert\n    /* \"#utility.yul\":6333:6450   */\ntag_79:\n    /* \"#utility.yul\":6442:6443   */\n  0x00\n    /* \"#utility.yul\":6439:6440   */\n  dup1\n    /* \"#utility.yul\":6432:6444   */\n  revert\n    /* \"#utility.yul\":6456:6573   */\ntag_76:\n    /* \"#utility.yul\":6565:6566   */\n  0x00\n    /* \"#utility.yul\":6562:6563   */\n  dup1\n    /* \"#utility.yul\":6555:6567   */\n  revert\n    /* \"#utility.yul\":6579:6681   */\ntag_96:\n    /* \"#utility.yul\":6620:6626   */\n  0x00\n    /* \"#utility.yul\":6671:6673   */\n  0x1f\n    /* \"#utility.yul\":6667:6674   */\n  not\n    /* \"#utility.yul\":6662:6664   */\n  0x1f\n    /* \"#utility.yul\":6655:6660   */\n  dup4\n    /* \"#utility.yul\":6651:6665   */\n  add\n    /* \"#utility.yul\":6647:6675   */\n  and\n    /* \"#utility.yul\":6637:6675   */\n  swap1\n  pop\n    /* \"#utility.yul\":6579:6681   */\n  swap2\n  swap1\n  pop\n  jump\t// out\n    /* \"#utility.yul\":6687:6809   */\ntag_72:\n    /* \"#utility.yul\":6760:6784   */\n  tag_129\n    /* \"#utility.yul\":6778:6783   */\n  dup2\n    /* \"#utility.yul\":6760:6784   */\n  tag_97\n  jump\t// in\ntag_129:\n    /* \"#utility.yul\":6753:6758   */\n  dup2\n    /* \"#utility.yul\":6750:6785   */\n  eq\n    /* \"#utility.yul\":6740:6803   */\n  tag_130\n  jumpi\n    /* \"#utility.yul\":6799:6800   */\n  0x00\n    /* \"#utility.yul\":6796:6797   */\n  dup1\n    /* \"#utility.yul\":6789:6801   */\n  revert\n    /* \"#utility.yul\":6740:6803   */\ntag_130:\n    /* \"#utility.yul\":6687:6809   */\n  pop\n  jump\t// out\n    /* \"contracts/Ballot/Ballot.sol\":70:5360  contract MyBallot {\r... */\ntag_8:\n  dataSize(sub_0)\n  dup1\n  dataOffset(sub_0)\n  0x00\n  codecopy\n  0x00\n  return\nstop\n\nsub_0: assembly {\n        /* \"contracts/Ballot/Ballot.sol\":70:5360  contract MyBallot {\r... */\n      mstore(0x40, 0x80)\n      callvalue\n      dup1\n      iszero\n      tag_1\n      jumpi\n      0x00\n      dup1\n      revert\n    tag_1:\n      pop\n      jumpi(tag_2, lt(calldatasize, 0x04))\n      shr(0xe0, calldataload(0x00))\n      dup1\n      0x011d1023\n      eq\n      tag_3\n      jumpi\n      dup1\n      0x2bfda515\n      eq\n      tag_4\n      jumpi\n      dup1\n      0x3477ee2e\n      eq\n      tag_5\n      jumpi\n      dup1\n      0x9e7b8d61\n      eq\n      tag_6\n      jumpi\n      dup1\n      0xa3ec138d\n      eq\n      tag_7\n      jumpi\n      dup1\n      0xfc36e15b\n      eq\n      tag_8\n      jumpi\n    tag_2:\n      0x00\n      dup1\n      revert\n        /* \"contracts/Ballot/Ballot.sol\":4005:4413  function getCandidatesListName() public view returns (string[] memory) {\r... */\n    tag_3:\n      tag_9\n      tag_10\n      jump\t// in\n    tag_9:\n      mload(0x40)\n      tag_11\n      swap2\n      swap1\n      tag_12\n      jump\t// in\n    tag_11:\n      mload(0x40)\n      dup1\n      swap2\n      sub\n      swap1\n      return\n        /* \"contracts/Ballot/Ballot.sol\":2964:3380  function getWinnerName() public view returns (string memory winnerName, address) {\r... */\n    tag_4:\n      tag_13\n      tag_14\n      jump\t// in\n    tag_13:\n      mload(0x40)\n      tag_15\n      swap3\n      swap2\n      swap1\n      tag_16\n      jump\t// in\n    tag_15:\n      mload(0x40)\n      dup1\n      swap2\n      sub\n      swap1\n      return\n        /* \"contracts/Ballot/Ballot.sol\":367:396  Candidate[] public candidates */\n    tag_5:\n      tag_17\n      0x04\n      dup1\n      calldatasize\n      sub\n      dup2\n      add\n      swap1\n      tag_18\n      swap2\n      swap1\n      tag_19\n      jump\t// in\n    tag_18:\n      tag_20\n      jump\t// in\n    tag_17:\n      mload(0x40)\n      tag_21\n      swap3\n      swap2\n      swap1\n      tag_22\n      jump\t// in\n    tag_21:\n      mload(0x40)\n      dup1\n      swap2\n      sub\n      swap1\n      return\n        /* \"contracts/Ballot/Ballot.sol\":2266:2412  function giveRightToVote(address voterAddress) public giveRightToVoteModifier(voterAddress) {\r... */\n    tag_6:\n      tag_23\n      0x04\n      dup1\n      calldatasize\n      sub\n      dup2\n      add\n      swap1\n      tag_24\n      swap2\n      swap1\n      tag_25\n      jump\t// in\n    tag_24:\n      tag_26\n      jump\t// in\n    tag_23:\n      stop\n        /* \"contracts/Ballot/Ballot.sol\":319:358  mapping(address => Voter) public voters */\n    tag_7:\n      tag_27\n      0x04\n      dup1\n      calldatasize\n      sub\n      dup2\n      add\n      swap1\n      tag_28\n      swap2\n      swap1\n      tag_25\n      jump\t// in\n    tag_28:\n      tag_29\n      jump\t// in\n    tag_27:\n      mload(0x40)\n      tag_30\n      swap3\n      swap2\n      swap1\n      tag_31\n      jump\t// in\n    tag_30:\n      mload(0x40)\n      dup1\n      swap2\n      sub\n      swap1\n      return\n        /* \"contracts/Ballot/Ballot.sol\":2420:2956  function vote(string memory _nameProject) public voteModifier(msg.sender) {\r... */\n    tag_8:\n      tag_32\n      0x04\n      dup1\n      calldatasize\n      sub\n      dup2\n      add\n      swap1\n      tag_33\n      swap2\n      swap1\n      tag_34\n      jump\t// in\n    tag_33:\n      tag_35\n      jump\t// in\n    tag_32:\n      stop\n        /* \"contracts/Ballot/Ballot.sol\":4005:4413  function getCandidatesListName() public view returns (string[] memory) {\r... */\n    tag_10:\n        /* \"contracts/Ballot/Ballot.sol\":4059:4074  string[] memory */\n      0x60\n        /* \"contracts/Ballot/Ballot.sol\":4087:4108  uint candidatesLength */\n      0x00\n        /* \"contracts/Ballot/Ballot.sol\":4111:4121  candidates */\n      0x02\n        /* \"contracts/Ballot/Ballot.sol\":4111:4128  candidates.length */\n      dup1\n      sload\n      swap1\n      pop\n        /* \"contracts/Ballot/Ballot.sol\":4087:4128  uint candidatesLength = candidates.length */\n      swap1\n      pop\n        /* \"contracts/Ballot/Ballot.sol\":4139:4174  string[]  memory candidatesListName */\n      0x00\n        /* \"contracts/Ballot/Ballot.sol\":4190:4206  candidatesLength */\n      dup2\n        /* \"contracts/Ballot/Ballot.sol\":4177:4207  new string[](candidatesLength) */\n      0xffffffffffffffff\n      dup2\n      gt\n      iszero\n      tag_37\n      jumpi\n      tag_38\n      tag_39\n      jump\t// in\n    tag_38:\n    tag_37:\n      mload(0x40)\n      swap1\n      dup1\n      dup3\n      mstore\n      dup1\n      0x20\n      mul\n      0x20\n      add\n      dup3\n      add\n      0x40\n      mstore\n      dup1\n      iszero\n      tag_40\n      jumpi\n      dup2\n      0x20\n      add\n    tag_41:\n      0x60\n      dup2\n      mstore\n      0x20\n      add\n      swap1\n      0x01\n      swap1\n      sub\n      swap1\n      dup2\n      tag_41\n      jumpi\n      swap1\n      pop\n    tag_40:\n      pop\n        /* \"contracts/Ballot/Ballot.sol\":4139:4207  string[]  memory candidatesListName = new string[](candidatesLength) */\n      swap1\n      pop\n        /* \"contracts/Ballot/Ballot.sol\":4233:4243  uint index */\n      0x00\n        /* \"contracts/Ballot/Ballot.sol\":4228:4368  for (uint index = 0; index < candidatesLength; index++) {\r... */\n    tag_42:\n        /* \"contracts/Ballot/Ballot.sol\":4257:4273  candidatesLength */\n      dup3\n        /* \"contracts/Ballot/Ballot.sol\":4249:4254  index */\n      dup2\n        /* \"contracts/Ballot/Ballot.sol\":4249:4273  index < candidatesLength */\n      lt\n        /* \"contracts/Ballot/Ballot.sol\":4228:4368  for (uint index = 0; index < candidatesLength; index++) {\r... */\n      iszero\n      tag_43\n      jumpi\n        /* \"contracts/Ballot/Ballot.sol\":4327:4337  candidates */\n      0x02\n        /* \"contracts/Ballot/Ballot.sol\":4338:4343  index */\n      dup2\n        /* \"contracts/Ballot/Ballot.sol\":4327:4344  candidates[index] */\n      dup2\n      sload\n      dup2\n      lt\n      tag_45\n      jumpi\n      tag_46\n      tag_47\n      jump\t// in\n    tag_46:\n    tag_45:\n      swap1\n      0x00\n      mstore\n      keccak256(0x00, 0x20)\n      swap1\n      0x02\n      mul\n      add\n        /* \"contracts/Ballot/Ballot.sol\":4327:4356  candidates[index].nameProject */\n      0x00\n      add\n        /* \"contracts/Ballot/Ballot.sol\":4299:4356  candidatesListName[index] = candidates[index].nameProject */\n      dup1\n      sload\n      tag_49\n      swap1\n      tag_50\n      jump\t// in\n    tag_49:\n      dup1\n      0x1f\n      add\n      0x20\n      dup1\n      swap2\n      div\n      mul\n      0x20\n      add\n      mload(0x40)\n      swap1\n      dup2\n      add\n      0x40\n      mstore\n      dup1\n      swap3\n      swap2\n      swap1\n      dup2\n      dup2\n      mstore\n      0x20\n      add\n      dup3\n      dup1\n      sload\n      tag_51\n      swap1\n      tag_50\n      jump\t// in\n    tag_51:\n      dup1\n      iszero\n      tag_52\n      jumpi\n      dup1\n      0x1f\n      lt\n      tag_53\n      jumpi\n      0x0100\n      dup1\n      dup4\n      sload\n      div\n      mul\n      dup4\n      mstore\n      swap2\n      0x20\n      add\n      swap2\n      jump(tag_52)\n    tag_53:\n      dup3\n      add\n      swap2\n      swap1\n      0x00\n      mstore\n      keccak256(0x00, 0x20)\n      swap1\n    tag_54:\n      dup2\n      sload\n      dup2\n      mstore\n      swap1\n      0x01\n      add\n      swap1\n      0x20\n      add\n      dup1\n      dup4\n      gt\n      tag_54\n      jumpi\n      dup3\n      swap1\n      sub\n      0x1f\n      and\n      dup3\n      add\n      swap2\n    tag_52:\n      pop\n      pop\n      pop\n      pop\n      pop\n        /* \"contracts/Ballot/Ballot.sol\":4299:4317  candidatesListName */\n      dup3\n        /* \"contracts/Ballot/Ballot.sol\":4318:4323  index */\n      dup3\n        /* \"contracts/Ballot/Ballot.sol\":4299:4324  candidatesListName[index] */\n      dup2\n      mload\n      dup2\n      lt\n      tag_55\n      jumpi\n      tag_56\n      tag_47\n      jump\t// in\n    tag_56:\n    tag_55:\n      0x20\n      mul\n      0x20\n      add\n      add\n        /* \"contracts/Ballot/Ballot.sol\":4299:4356  candidatesListName[index] = candidates[index].nameProject */\n      dup2\n      swap1\n      mstore\n      pop\n        /* \"contracts/Ballot/Ballot.sol\":4275:4282  index++ */\n      dup1\n      dup1\n      tag_57\n      swap1\n      tag_58\n      jump\t// in\n    tag_57:\n      swap2\n      pop\n      pop\n        /* \"contracts/Ballot/Ballot.sol\":4228:4368  for (uint index = 0; index < candidatesLength; index++) {\r... */\n      jump(tag_42)\n    tag_43:\n      pop\n        /* \"contracts/Ballot/Ballot.sol\":4387:4405  candidatesListName */\n      dup1\n        /* \"contracts/Ballot/Ballot.sol\":4380:4405  return candidatesListName */\n      swap3\n      pop\n      pop\n      pop\n        /* \"contracts/Ballot/Ballot.sol\":4005:4413  function getCandidatesListName() public view returns (string[] memory) {\r... */\n      swap1\n      jump\t// out\n        /* \"contracts/Ballot/Ballot.sol\":2964:3380  function getWinnerName() public view returns (string memory winnerName, address) {\r... */\n    tag_14:\n        /* \"contracts/Ballot/Ballot.sol\":3010:3034  string memory winnerName */\n      0x60\n        /* \"contracts/Ballot/Ballot.sol\":3036:3043  address */\n      0x00\n        /* \"contracts/Ballot/Ballot.sol\":3057:3077  uint winningProposal */\n      dup1\n        /* \"contracts/Ballot/Ballot.sol\":3079:3089  bool isTie */\n      0x00\n        /* \"contracts/Ballot/Ballot.sol\":3093:3114  getWinningCandidate() */\n      tag_60\n        /* \"contracts/Ballot/Ballot.sol\":3093:3112  getWinningCandidate */\n      tag_61\n        /* \"contracts/Ballot/Ballot.sol\":3093:3114  getWinningCandidate() */\n      jump\t// in\n    tag_60:\n        /* \"contracts/Ballot/Ballot.sol\":3056:3114  (uint winningProposal, bool isTie) = getWinningCandidate() */\n      swap2\n      pop\n      swap2\n      pop\n        /* \"contracts/Ballot/Ballot.sol\":3148:3153  isTie */\n      dup1\n        /* \"contracts/Ballot/Ballot.sol\":3147:3153  !isTie */\n      iszero\n        /* \"contracts/Ballot/Ballot.sol\":3125:3257  require(\r... */\n      tag_62\n      jumpi\n      mload(0x40)\n      0x08c379a000000000000000000000000000000000000000000000000000000000\n      dup2\n      mstore\n      0x04\n      add\n      tag_63\n      swap1\n      tag_64\n      jump\t// in\n    tag_63:\n      mload(0x40)\n      dup1\n      swap2\n      sub\n      swap1\n      revert\n    tag_62:\n        /* \"contracts/Ballot/Ballot.sol\":3281:3291  candidates */\n      0x02\n        /* \"contracts/Ballot/Ballot.sol\":3292:3307  winningProposal */\n      dup3\n        /* \"contracts/Ballot/Ballot.sol\":3281:3308  candidates[winningProposal] */\n      dup2\n      sload\n      dup2\n      lt\n      tag_65\n      jumpi\n      tag_66\n      tag_47\n      jump\t// in\n    tag_66:\n    tag_65:\n      swap1\n      0x00\n      mstore\n      keccak256(0x00, 0x20)\n      swap1\n      0x02\n      mul\n      add\n        /* \"contracts/Ballot/Ballot.sol\":3281:3320  candidates[winningProposal].nameProject */\n      0x00\n      add\n        /* \"contracts/Ballot/Ballot.sol\":3268:3320  winnerName = candidates[winningProposal].nameProject */\n      dup1\n      sload\n      tag_68\n      swap1\n      tag_50\n      jump\t// in\n    tag_68:\n      dup1\n      0x1f\n      add\n      0x20\n      dup1\n      swap2\n      div\n      mul\n      0x20\n      add\n      mload(0x40)\n      swap1\n      dup2\n      add\n      0x40\n      mstore\n      dup1\n      swap3\n      swap2\n      swap1\n      dup2\n      dup2\n      mstore\n      0x20\n      add\n      dup3\n      dup1\n      sload\n      tag_69\n      swap1\n      tag_50\n      jump\t// in\n    tag_69:\n      dup1\n      iszero\n      tag_70\n      jumpi\n      dup1\n      0x1f\n      lt\n      tag_71\n      jumpi\n      0x0100\n      dup1\n      dup4\n      sload\n      div\n      mul\n      dup4\n      mstore\n      swap2\n      0x20\n      add\n      swap2\n      jump(tag_70)\n    tag_71:\n      dup3\n      add\n      swap2\n      swap1\n      0x00\n      mstore\n      keccak256(0x00, 0x20)\n      swap1\n    tag_72:\n      dup2\n      sload\n      dup2\n      mstore\n      swap1\n      0x01\n      add\n      swap1\n      0x20\n      add\n      dup1\n      dup4\n      gt\n      tag_72\n      jumpi\n      dup3\n      swap1\n      sub\n      0x1f\n      and\n      dup3\n      add\n      swap2\n    tag_70:\n      pop\n      pop\n      pop\n      pop\n      pop\n      swap4\n      pop\n        /* \"contracts/Ballot/Ballot.sol\":3339:3349  winnerName */\n      dup4\n        /* \"contracts/Ballot/Ballot.sol\":3351:3371  getContractAddress() */\n      tag_73\n        /* \"contracts/Ballot/Ballot.sol\":3351:3369  getContractAddress */\n      tag_74\n        /* \"contracts/Ballot/Ballot.sol\":3351:3371  getContractAddress() */\n      jump\t// in\n    tag_73:\n        /* \"contracts/Ballot/Ballot.sol\":3331:3372  return (winnerName, getContractAddress()) */\n      swap4\n      pop\n      swap4\n      pop\n      pop\n      pop\n        /* \"contracts/Ballot/Ballot.sol\":2964:3380  function getWinnerName() public view returns (string memory winnerName, address) {\r... */\n      swap1\n      swap2\n      jump\t// out\n        /* \"contracts/Ballot/Ballot.sol\":367:396  Candidate[] public candidates */\n    tag_20:\n      0x02\n      dup2\n      dup2\n      sload\n      dup2\n      lt\n      tag_75\n      jumpi\n      0x00\n      dup1\n      revert\n    tag_75:\n      swap1\n      0x00\n      mstore\n      keccak256(0x00, 0x20)\n      swap1\n      0x02\n      mul\n      add\n      0x00\n      swap2\n      pop\n      swap1\n      pop\n      dup1\n      0x00\n      add\n      dup1\n      sload\n      tag_77\n      swap1\n      tag_50\n      jump\t// in\n    tag_77:\n      dup1\n      0x1f\n      add\n      0x20\n      dup1\n      swap2\n      div\n      mul\n      0x20\n      add\n      mload(0x40)\n      swap1\n      dup2\n      add\n      0x40\n      mstore\n      dup1\n      swap3\n      swap2\n      swap1\n      dup2\n      dup2\n      mstore\n      0x20\n      add\n      dup3\n      dup1\n      sload\n      tag_78\n      swap1\n      tag_50\n      jump\t// in\n    tag_78:\n      dup1\n      iszero\n      tag_79\n      jumpi\n      dup1\n      0x1f\n      lt\n      tag_80\n      jumpi\n      0x0100\n      dup1\n      dup4\n      sload\n      div\n      mul\n      dup4\n      mstore\n      swap2\n      0x20\n      add\n      swap2\n      jump(tag_79)\n    tag_80:\n      dup3\n      add\n      swap2\n      swap1\n      0x00\n      mstore\n      keccak256(0x00, 0x20)\n      swap1\n    tag_81:\n      dup2\n      sload\n      dup2\n      mstore\n      swap1\n      0x01\n      add\n      swap1\n      0x20\n      add\n      dup1\n      dup4\n      gt\n      tag_81\n      jumpi\n      dup3\n      swap1\n      sub\n      0x1f\n      and\n      dup3\n      add\n      swap2\n    tag_79:\n      pop\n      pop\n      pop\n      pop\n      pop\n      swap1\n      dup1\n      0x01\n      add\n      sload\n      swap1\n      pop\n      dup3\n      jump\t// out\n        /* \"contracts/Ballot/Ballot.sol\":2266:2412  function giveRightToVote(address voterAddress) public giveRightToVoteModifier(voterAddress) {\r... */\n    tag_26:\n        /* \"contracts/Ballot/Ballot.sol\":2344:2356  voterAddress */\n      dup1\n        /* \"contracts/Ballot/Ballot.sol\":975:1011  getTotalVotesCounterReachedRequire() */\n      tag_83\n        /* \"contracts/Ballot/Ballot.sol\":975:1009  getTotalVotesCounterReachedRequire */\n      tag_84\n        /* \"contracts/Ballot/Ballot.sol\":975:1011  getTotalVotesCounterReachedRequire() */\n      jump\t// in\n    tag_83:\n        /* \"contracts/Ballot/Ballot.sol\":1044:1065  areYouContractOwner() */\n      tag_85\n        /* \"contracts/Ballot/Ballot.sol\":1044:1063  areYouContractOwner */\n      tag_86\n        /* \"contracts/Ballot/Ballot.sol\":1044:1065  areYouContractOwner() */\n      jump\t// in\n    tag_85:\n        /* \"contracts/Ballot/Ballot.sol\":1022:1140  require(\r... */\n      tag_87\n      jumpi\n      mload(0x40)\n      0x08c379a000000000000000000000000000000000000000000000000000000000\n      dup2\n      mstore\n      0x04\n      add\n      tag_88\n      swap1\n      tag_89\n      jump\t// in\n    tag_88:\n      mload(0x40)\n      dup1\n      swap2\n      sub\n      swap1\n      revert\n    tag_87:\n        /* \"contracts/Ballot/Ballot.sol\":1151:1185  getVoterVotedRequire(voterAddress) */\n      tag_90\n        /* \"contracts/Ballot/Ballot.sol\":1172:1184  voterAddress */\n      dup2\n        /* \"contracts/Ballot/Ballot.sol\":1151:1171  getVoterVotedRequire */\n      tag_91\n        /* \"contracts/Ballot/Ballot.sol\":1151:1185  getVoterVotedRequire(voterAddress) */\n      jump\t// in\n    tag_90:\n        /* \"contracts/Ballot/Ballot.sol\":2400:2404  true */\n      0x01\n        /* \"contracts/Ballot/Ballot.sol\":2369:2375  voters */\n      dup1\n        /* \"contracts/Ballot/Ballot.sol\":2369:2389  voters[voterAddress] */\n      0x00\n        /* \"contracts/Ballot/Ballot.sol\":2376:2388  voterAddress */\n      dup5\n        /* \"contracts/Ballot/Ballot.sol\":2369:2389  voters[voterAddress] */\n      0xffffffffffffffffffffffffffffffffffffffff\n      and\n      0xffffffffffffffffffffffffffffffffffffffff\n      and\n      dup2\n      mstore\n      0x20\n      add\n      swap1\n      dup2\n      mstore\n      0x20\n      add\n      0x00\n      keccak256\n        /* \"contracts/Ballot/Ballot.sol\":2369:2397  voters[voterAddress].canVote */\n      0x00\n      add\n      0x00\n        /* \"contracts/Ballot/Ballot.sol\":2369:2404  voters[voterAddress].canVote = true */\n      0x0100\n      exp\n      dup2\n      sload\n      dup2\n      0xff\n      mul\n      not\n      and\n      swap1\n      dup4\n      iszero\n      iszero\n      mul\n      or\n      swap1\n      sstore\n      pop\n        /* \"contracts/Ballot/Ballot.sol\":2266:2412  function giveRightToVote(address voterAddress) public giveRightToVoteModifier(voterAddress) {\r... */\n      pop\n      pop\n      jump\t// out\n        /* \"contracts/Ballot/Ballot.sol\":319:358  mapping(address => Voter) public voters */\n    tag_29:\n      mstore(0x20, 0x01)\n      dup1\n      0x00\n      mstore\n      keccak256(0x00, 0x40)\n      0x00\n      swap2\n      pop\n      swap1\n      pop\n      dup1\n      0x00\n      add\n      0x00\n      swap1\n      sload\n      swap1\n      0x0100\n      exp\n      swap1\n      div\n      0xff\n      and\n      swap1\n      dup1\n      0x00\n      add\n      0x01\n      swap1\n      sload\n      swap1\n      0x0100\n      exp\n      swap1\n      div\n      0xff\n      and\n      swap1\n      pop\n      dup3\n      jump\t// out\n        /* \"contracts/Ballot/Ballot.sol\":2420:2956  function vote(string memory _nameProject) public voteModifier(msg.sender) {\r... */\n    tag_35:\n        /* \"contracts/Ballot/Ballot.sol\":2482:2492  msg.sender */\n      caller\n        /* \"contracts/Ballot/Ballot.sol\":1268:1304  getTotalVotesCounterReachedRequire() */\n      tag_94\n        /* \"contracts/Ballot/Ballot.sol\":1268:1302  getTotalVotesCounterReachedRequire */\n      tag_84\n        /* \"contracts/Ballot/Ballot.sol\":1268:1304  getTotalVotesCounterReachedRequire() */\n      jump\t// in\n    tag_94:\n        /* \"contracts/Ballot/Ballot.sol\":1337:1360  areYouHaveRigthToVote() */\n      tag_95\n        /* \"contracts/Ballot/Ballot.sol\":1337:1358  areYouHaveRigthToVote */\n      tag_96\n        /* \"contracts/Ballot/Ballot.sol\":1337:1360  areYouHaveRigthToVote() */\n      jump\t// in\n    tag_95:\n        /* \"contracts/Ballot/Ballot.sol\":1315:1415  require(\r... */\n      tag_97\n      jumpi\n      mload(0x40)\n      0x08c379a000000000000000000000000000000000000000000000000000000000\n      dup2\n      mstore\n      0x04\n      add\n      tag_98\n      swap1\n      tag_99\n      jump\t// in\n    tag_98:\n      mload(0x40)\n      dup1\n      swap2\n      sub\n      swap1\n      revert\n    tag_97:\n        /* \"contracts/Ballot/Ballot.sol\":1426:1460  getVoterVotedRequire(voterAddress) */\n      tag_100\n        /* \"contracts/Ballot/Ballot.sol\":1447:1459  voterAddress */\n      dup2\n        /* \"contracts/Ballot/Ballot.sol\":1426:1446  getVoterVotedRequire */\n      tag_91\n        /* \"contracts/Ballot/Ballot.sol\":1426:1460  getVoterVotedRequire(voterAddress) */\n      jump\t// in\n    tag_100:\n        /* \"contracts/Ballot/Ballot.sol\":2505:2525  Voter storage sender */\n      0x00\n        /* \"contracts/Ballot/Ballot.sol\":2528:2534  voters */\n      0x01\n        /* \"contracts/Ballot/Ballot.sol\":2528:2546  voters[msg.sender] */\n      0x00\n        /* \"contracts/Ballot/Ballot.sol\":2535:2545  msg.sender */\n      caller\n        /* \"contracts/Ballot/Ballot.sol\":2528:2546  voters[msg.sender] */\n      0xffffffffffffffffffffffffffffffffffffffff\n      and\n      0xffffffffffffffffffffffffffffffffffffffff\n      and\n      dup2\n      mstore\n      0x20\n      add\n      swap1\n      dup2\n      mstore\n      0x20\n      add\n      0x00\n      keccak256\n        /* \"contracts/Ballot/Ballot.sol\":2505:2546  Voter storage sender = voters[msg.sender] */\n      swap1\n      pop\n        /* \"contracts/Ballot/Ballot.sol\":2663:2673  uint index */\n      0x00\n        /* \"contracts/Ballot/Ballot.sol\":2658:2949  for (uint index = 0; index < candidates.length; index++) {\r... */\n    tag_102:\n        /* \"contracts/Ballot/Ballot.sol\":2687:2697  candidates */\n      0x02\n        /* \"contracts/Ballot/Ballot.sol\":2687:2704  candidates.length */\n      dup1\n      sload\n      swap1\n      pop\n        /* \"contracts/Ballot/Ballot.sol\":2679:2684  index */\n      dup2\n        /* \"contracts/Ballot/Ballot.sol\":2679:2704  index < candidates.length */\n      lt\n        /* \"contracts/Ballot/Ballot.sol\":2658:2949  for (uint index = 0; index < candidates.length; index++) {\r... */\n      iszero\n      tag_103\n      jumpi\n        /* \"contracts/Ballot/Ballot.sol\":2734:2792  stringEqualTo(candidates[index].nameProject, _nameProject) */\n      tag_105\n        /* \"contracts/Ballot/Ballot.sol\":2748:2758  candidates */\n      0x02\n        /* \"contracts/Ballot/Ballot.sol\":2759:2764  index */\n      dup3\n        /* \"contracts/Ballot/Ballot.sol\":2748:2765  candidates[index] */\n      dup2\n      sload\n      dup2\n      lt\n      tag_106\n      jumpi\n      tag_107\n      tag_47\n      jump\t// in\n    tag_107:\n    tag_106:\n      swap1\n      0x00\n      mstore\n      keccak256(0x00, 0x20)\n      swap1\n      0x02\n      mul\n      add\n        /* \"contracts/Ballot/Ballot.sol\":2748:2777  candidates[index].nameProject */\n      0x00\n      add\n        /* \"contracts/Ballot/Ballot.sol\":2734:2792  stringEqualTo(candidates[index].nameProject, _nameProject) */\n      dup1\n      sload\n      tag_109\n      swap1\n      tag_50\n      jump\t// in\n    tag_109:\n      dup1\n      0x1f\n      add\n      0x20\n      dup1\n      swap2\n      div\n      mul\n      0x20\n      add\n      mload(0x40)\n      swap1\n      dup2\n      add\n      0x40\n      mstore\n      dup1\n      swap3\n      swap2\n      swap1\n      dup2\n      dup2\n      mstore\n      0x20\n      add\n      dup3\n      dup1\n      sload\n      tag_110\n      swap1\n      tag_50\n      jump\t// in\n    tag_110:\n      dup1\n      iszero\n      tag_111\n      jumpi\n      dup1\n      0x1f\n      lt\n      tag_112\n      jumpi\n      0x0100\n      dup1\n      dup4\n      sload\n      div\n      mul\n      dup4\n      mstore\n      swap2\n      0x20\n      add\n      swap2\n      jump(tag_111)\n    tag_112:\n      dup3\n      add\n      swap2\n      swap1\n      0x00\n      mstore\n      keccak256(0x00, 0x20)\n      swap1\n    tag_113:\n      dup2\n      sload\n      dup2\n      mstore\n      swap1\n      0x01\n      add\n      swap1\n      0x20\n      add\n      dup1\n      dup4\n      gt\n      tag_113\n      jumpi\n      dup3\n      swap1\n      sub\n      0x1f\n      and\n      dup3\n      add\n      swap2\n    tag_111:\n      pop\n      pop\n      pop\n      pop\n      pop\n        /* \"contracts/Ballot/Ballot.sol\":2779:2791  _nameProject */\n      dup6\n        /* \"contracts/Ballot/Ballot.sol\":2734:2747  stringEqualTo */\n      tag_114\n        /* \"contracts/Ballot/Ballot.sol\":2734:2792  stringEqualTo(candidates[index].nameProject, _nameProject) */\n      jump\t// in\n    tag_105:\n        /* \"contracts/Ballot/Ballot.sol\":2730:2938  if (stringEqualTo(candidates[index].nameProject, _nameProject)) {\r... */\n      iszero\n      tag_115\n      jumpi\n        /* \"contracts/Ballot/Ballot.sol\":2813:2823  candidates */\n      0x02\n        /* \"contracts/Ballot/Ballot.sol\":2824:2829  index */\n      dup2\n        /* \"contracts/Ballot/Ballot.sol\":2813:2830  candidates[index] */\n      dup2\n      sload\n      dup2\n      lt\n      tag_116\n      jumpi\n      tag_117\n      tag_47\n      jump\t// in\n    tag_117:\n    tag_116:\n      swap1\n      0x00\n      mstore\n      keccak256(0x00, 0x20)\n      swap1\n      0x02\n      mul\n      add\n        /* \"contracts/Ballot/Ballot.sol\":2813:2841  candidates[index].votesCount */\n      0x01\n      add\n      0x00\n        /* \"contracts/Ballot/Ballot.sol\":2813:2843  candidates[index].votesCount++ */\n      dup2\n      sload\n      dup1\n      swap3\n      swap2\n      swap1\n      tag_119\n      swap1\n      tag_58\n      jump\t// in\n    tag_119:\n      swap2\n      swap1\n      pop\n      sstore\n      pop\n        /* \"contracts/Ballot/Ballot.sol\":2880:2884  true */\n      0x01\n        /* \"contracts/Ballot/Ballot.sol\":2862:2868  sender */\n      dup3\n        /* \"contracts/Ballot/Ballot.sol\":2862:2877  sender.hasVoted */\n      0x00\n      add\n      0x01\n        /* \"contracts/Ballot/Ballot.sol\":2862:2884  sender.hasVoted = true */\n      0x0100\n      exp\n      dup2\n      sload\n      dup2\n      0xff\n      mul\n      not\n      and\n      swap1\n      dup4\n      iszero\n      iszero\n      mul\n      or\n      swap1\n      sstore\n      pop\n        /* \"contracts/Ballot/Ballot.sol\":2903:2920  totalVotesCounter */\n      0x03\n      0x00\n        /* \"contracts/Ballot/Ballot.sol\":2903:2922  totalVotesCounter++ */\n      dup2\n      sload\n      dup1\n      swap3\n      swap2\n      swap1\n      tag_120\n      swap1\n      tag_58\n      jump\t// in\n    tag_120:\n      swap2\n      swap1\n      pop\n      sstore\n      pop\n        /* \"contracts/Ballot/Ballot.sol\":2730:2938  if (stringEqualTo(candidates[index].nameProject, _nameProject)) {\r... */\n    tag_115:\n        /* \"contracts/Ballot/Ballot.sol\":2706:2713  index++ */\n      dup1\n      dup1\n      tag_121\n      swap1\n      tag_58\n      jump\t// in\n    tag_121:\n      swap2\n      pop\n      pop\n        /* \"contracts/Ballot/Ballot.sol\":2658:2949  for (uint index = 0; index < candidates.length; index++) {\r... */\n      jump(tag_102)\n    tag_103:\n      pop\n        /* \"contracts/Ballot/Ballot.sol\":2494:2956  {\r... */\n      pop\n        /* \"contracts/Ballot/Ballot.sol\":2420:2956  function vote(string memory _nameProject) public voteModifier(msg.sender) {\r... */\n      pop\n      pop\n      jump\t// out\n        /* \"contracts/Ballot/Ballot.sol\":3388:3997  function getWinningCandidate() private view returns (uint winningProposal, bool isTie) {        \r... */\n    tag_61:\n        /* \"contracts/Ballot/Ballot.sol\":3441:3461  uint winningProposal */\n      0x00\n        /* \"contracts/Ballot/Ballot.sol\":3463:3473  bool isTie */\n      dup1\n        /* \"contracts/Ballot/Ballot.sol\":3494:3515  uint winningVoteCount */\n      0x00\n        /* \"contracts/Ballot/Ballot.sol\":3533:3552  uint indexCandidate */\n      dup1\n        /* \"contracts/Ballot/Ballot.sol\":3555:3556  0 */\n      0x00\n        /* \"contracts/Ballot/Ballot.sol\":3533:3556  uint indexCandidate = 0 */\n      swap1\n      pop\n        /* \"contracts/Ballot/Ballot.sol\":3528:3990  for (uint indexCandidate = 0; indexCandidate < candidates.length; indexCandidate++) {\r... */\n    tag_123:\n        /* \"contracts/Ballot/Ballot.sol\":3575:3585  candidates */\n      0x02\n        /* \"contracts/Ballot/Ballot.sol\":3575:3592  candidates.length */\n      dup1\n      sload\n      swap1\n      pop\n        /* \"contracts/Ballot/Ballot.sol\":3558:3572  indexCandidate */\n      dup2\n        /* \"contracts/Ballot/Ballot.sol\":3558:3592  indexCandidate < candidates.length */\n      lt\n        /* \"contracts/Ballot/Ballot.sol\":3528:3990  for (uint indexCandidate = 0; indexCandidate < candidates.length; indexCandidate++) {\r... */\n      iszero\n      tag_124\n      jumpi\n        /* \"contracts/Ballot/Ballot.sol\":3671:3687  winningVoteCount */\n      dup2\n        /* \"contracts/Ballot/Ballot.sol\":3631:3641  candidates */\n      0x02\n        /* \"contracts/Ballot/Ballot.sol\":3642:3656  indexCandidate */\n      dup3\n        /* \"contracts/Ballot/Ballot.sol\":3631:3657  candidates[indexCandidate] */\n      dup2\n      sload\n      dup2\n      lt\n      tag_126\n      jumpi\n      tag_127\n      tag_47\n      jump\t// in\n    tag_127:\n    tag_126:\n      swap1\n      0x00\n      mstore\n      keccak256(0x00, 0x20)\n      swap1\n      0x02\n      mul\n      add\n        /* \"contracts/Ballot/Ballot.sol\":3631:3668  candidates[indexCandidate].votesCount */\n      0x01\n      add\n      sload\n        /* \"contracts/Ballot/Ballot.sol\":3631:3687  candidates[indexCandidate].votesCount > winningVoteCount */\n      gt\n        /* \"contracts/Ballot/Ballot.sol\":3627:3979  if (candidates[indexCandidate].votesCount > winningVoteCount) {\r... */\n      iszero\n      tag_129\n      jumpi\n        /* \"contracts/Ballot/Ballot.sol\":3727:3737  candidates */\n      0x02\n        /* \"contracts/Ballot/Ballot.sol\":3738:3752  indexCandidate */\n      dup2\n        /* \"contracts/Ballot/Ballot.sol\":3727:3753  candidates[indexCandidate] */\n      dup2\n      sload\n      dup2\n      lt\n      tag_130\n      jumpi\n      tag_131\n      tag_47\n      jump\t// in\n    tag_131:\n    tag_130:\n      swap1\n      0x00\n      mstore\n      keccak256(0x00, 0x20)\n      swap1\n      0x02\n      mul\n      add\n        /* \"contracts/Ballot/Ballot.sol\":3727:3764  candidates[indexCandidate].votesCount */\n      0x01\n      add\n      sload\n        /* \"contracts/Ballot/Ballot.sol\":3708:3764  winningVoteCount = candidates[indexCandidate].votesCount */\n      swap2\n      pop\n        /* \"contracts/Ballot/Ballot.sol\":3801:3815  indexCandidate */\n      dup1\n        /* \"contracts/Ballot/Ballot.sol\":3783:3815  winningProposal = indexCandidate */\n      swap4\n      pop\n        /* \"contracts/Ballot/Ballot.sol\":3842:3847  false */\n      0x00\n        /* \"contracts/Ballot/Ballot.sol\":3834:3847  isTie = false */\n      swap3\n      pop\n        /* \"contracts/Ballot/Ballot.sol\":3627:3979  if (candidates[indexCandidate].votesCount > winningVoteCount) {\r... */\n      jump(tag_133)\n    tag_129:\n        /* \"contracts/Ballot/Ballot.sol\":3914:3930  winningVoteCount */\n      dup2\n        /* \"contracts/Ballot/Ballot.sol\":3873:3883  candidates */\n      0x02\n        /* \"contracts/Ballot/Ballot.sol\":3884:3898  indexCandidate */\n      dup3\n        /* \"contracts/Ballot/Ballot.sol\":3873:3899  candidates[indexCandidate] */\n      dup2\n      sload\n      dup2\n      lt\n      tag_134\n      jumpi\n      tag_135\n      tag_47\n      jump\t// in\n    tag_135:\n    tag_134:\n      swap1\n      0x00\n      mstore\n      keccak256(0x00, 0x20)\n      swap1\n      0x02\n      mul\n      add\n        /* \"contracts/Ballot/Ballot.sol\":3873:3910  candidates[indexCandidate].votesCount */\n      0x01\n      add\n      sload\n        /* \"contracts/Ballot/Ballot.sol\":3873:3930  candidates[indexCandidate].votesCount == winningVoteCount */\n      eq\n        /* \"contracts/Ballot/Ballot.sol\":3869:3979  if (candidates[indexCandidate].votesCount == winningVoteCount) {\r... */\n      iszero\n      tag_137\n      jumpi\n        /* \"contracts/Ballot/Ballot.sol\":3959:3963  true */\n      0x01\n        /* \"contracts/Ballot/Ballot.sol\":3951:3963  isTie = true */\n      swap3\n      pop\n        /* \"contracts/Ballot/Ballot.sol\":3869:3979  if (candidates[indexCandidate].votesCount == winningVoteCount) {\r... */\n    tag_137:\n        /* \"contracts/Ballot/Ballot.sol\":3627:3979  if (candidates[indexCandidate].votesCount > winningVoteCount) {\r... */\n    tag_133:\n        /* \"contracts/Ballot/Ballot.sol\":3594:3610  indexCandidate++ */\n      dup1\n      dup1\n      tag_138\n      swap1\n      tag_58\n      jump\t// in\n    tag_138:\n      swap2\n      pop\n      pop\n        /* \"contracts/Ballot/Ballot.sol\":3528:3990  for (uint indexCandidate = 0; indexCandidate < candidates.length; indexCandidate++) {\r... */\n      jump(tag_123)\n    tag_124:\n      pop\n        /* \"contracts/Ballot/Ballot.sol\":3475:3997  {        \r... */\n      pop\n        /* \"contracts/Ballot/Ballot.sol\":3388:3997  function getWinningCandidate() private view returns (uint winningProposal, bool isTie) {        \r... */\n      swap1\n      swap2\n      jump\t// out\n        /* \"contracts/Ballot/Ballot.sol\":4421:4521  function getContractAddress() private view returns (address) {\r... */\n    tag_74:\n        /* \"contracts/Ballot/Ballot.sol\":4473:4480  address */\n      0x00\n        /* \"contracts/Ballot/Ballot.sol\":4508:4512  this */\n      address\n        /* \"contracts/Ballot/Ballot.sol\":4493:4513  return address(this) */\n      swap1\n      pop\n        /* \"contracts/Ballot/Ballot.sol\":4421:4521  function getContractAddress() private view returns (address) {\r... */\n      swap1\n      jump\t// out\n        /* \"contracts/Ballot/Ballot.sol\":1714:1925  function getTotalVotesCounterReachedRequire() private view {\r... */\n    tag_84:\n        /* \"contracts/Ballot/Ballot.sol\":1833:1841  maxVotes */\n      sload(0x04)\n        /* \"contracts/Ballot/Ballot.sol\":1813:1830  totalVotesCounter */\n      sload(0x03)\n        /* \"contracts/Ballot/Ballot.sol\":1813:1841  totalVotesCounter < maxVotes */\n      lt\n        /* \"contracts/Ballot/Ballot.sol\":1791:1917  require(\r... */\n      tag_141\n      jumpi\n      mload(0x40)\n      0x08c379a000000000000000000000000000000000000000000000000000000000\n      dup2\n      mstore\n      0x04\n      add\n      tag_142\n      swap1\n      tag_143\n      jump\t// in\n    tag_142:\n      mload(0x40)\n      dup1\n      swap2\n      sub\n      swap1\n      revert\n    tag_141:\n        /* \"contracts/Ballot/Ballot.sol\":1714:1925  function getTotalVotesCounterReachedRequire() private view {\r... */\n      jump\t// out\n        /* \"contracts/Ballot/Ballot.sol\":4529:4641  function areYouContractOwner() private view returns (bool) {\r... */\n    tag_86:\n        /* \"contracts/Ballot/Ballot.sol\":4582:4586  bool */\n      0x00\n        /* \"contracts/Ballot/Ballot.sol\":4620:4633  contractOwner */\n      dup1\n      0x00\n      swap1\n      sload\n      swap1\n      0x0100\n      exp\n      swap1\n      div\n      0xffffffffffffffffffffffffffffffffffffffff\n      and\n        /* \"contracts/Ballot/Ballot.sol\":4606:4633  msg.sender == contractOwner */\n      0xffffffffffffffffffffffffffffffffffffffff\n      and\n        /* \"contracts/Ballot/Ballot.sol\":4606:4616  msg.sender */\n      caller\n        /* \"contracts/Ballot/Ballot.sol\":4606:4633  msg.sender == contractOwner */\n      0xffffffffffffffffffffffffffffffffffffffff\n      and\n      eq\n        /* \"contracts/Ballot/Ballot.sol\":4599:4633  return msg.sender == contractOwner */\n      swap1\n      pop\n        /* \"contracts/Ballot/Ballot.sol\":4529:4641  function areYouContractOwner() private view returns (bool) {\r... */\n      swap1\n      jump\t// out\n        /* \"contracts/Ballot/Ballot.sol\":1517:1706  function getVoterVotedRequire(address voterAddress) private view {\r... */\n    tag_91:\n        /* \"contracts/Ballot/Ballot.sol\":1623:1650  getVoterVoted(voterAddress) */\n      tag_146\n        /* \"contracts/Ballot/Ballot.sol\":1637:1649  voterAddress */\n      dup2\n        /* \"contracts/Ballot/Ballot.sol\":1623:1636  getVoterVoted */\n      tag_147\n        /* \"contracts/Ballot/Ballot.sol\":1623:1650  getVoterVoted(voterAddress) */\n      jump\t// in\n    tag_146:\n        /* \"contracts/Ballot/Ballot.sol\":1622:1650  !getVoterVoted(voterAddress) */\n      iszero\n        /* \"contracts/Ballot/Ballot.sol\":1600:1698  require(\r... */\n      tag_148\n      jumpi\n      mload(0x40)\n      0x08c379a000000000000000000000000000000000000000000000000000000000\n      dup2\n      mstore\n      0x04\n      add\n      tag_149\n      swap1\n      tag_150\n      jump\t// in\n    tag_149:\n      mload(0x40)\n      dup1\n      swap2\n      sub\n      swap1\n      revert\n    tag_148:\n        /* \"contracts/Ballot/Ballot.sol\":1517:1706  function getVoterVotedRequire(address voterAddress) private view {\r... */\n      pop\n      jump\t// out\n        /* \"contracts/Ballot/Ballot.sol\":4649:4767  function areYouHaveRigthToVote() private view returns (bool) {\r... */\n    tag_96:\n        /* \"contracts/Ballot/Ballot.sol\":4704:4708  bool */\n      0x00\n        /* \"contracts/Ballot/Ballot.sol\":4728:4759  getVoterRigthToVote(msg.sender) */\n      tag_152\n        /* \"contracts/Ballot/Ballot.sol\":4748:4758  msg.sender */\n      caller\n        /* \"contracts/Ballot/Ballot.sol\":4728:4747  getVoterRigthToVote */\n      tag_153\n        /* \"contracts/Ballot/Ballot.sol\":4728:4759  getVoterRigthToVote(msg.sender) */\n      jump\t// in\n    tag_152:\n        /* \"contracts/Ballot/Ballot.sol\":4721:4759  return getVoterRigthToVote(msg.sender) */\n      swap1\n      pop\n        /* \"contracts/Ballot/Ballot.sol\":4649:4767  function areYouHaveRigthToVote() private view returns (bool) {\r... */\n      swap1\n      jump\t// out\n        /* \"contracts/Ballot/Ballot.sol\":5190:5357  function stringEqualTo(string memory s1, string memory s2) private pure returns (bool) {\r... */\n    tag_114:\n        /* \"contracts/Ballot/Ballot.sol\":5271:5275  bool */\n      0x00\n        /* \"contracts/Ballot/Ballot.sol\":5345:5347  s2 */\n      dup2\n        /* \"contracts/Ballot/Ballot.sol\":5334:5348  abi.encode(s2) */\n      add(0x20, mload(0x40))\n      tag_155\n      swap2\n      swap1\n      tag_156\n      jump\t// in\n    tag_155:\n      mload(0x40)\n      0x20\n      dup2\n      dup4\n      sub\n      sub\n      dup2\n      mstore\n      swap1\n      0x40\n      mstore\n        /* \"contracts/Ballot/Ballot.sol\":5324:5349  keccak256(abi.encode(s2)) */\n      dup1\n      mload\n      swap1\n      0x20\n      add\n      keccak256\n        /* \"contracts/Ballot/Ballot.sol\":5316:5318  s1 */\n      dup4\n        /* \"contracts/Ballot/Ballot.sol\":5305:5319  abi.encode(s1) */\n      add(0x20, mload(0x40))\n      tag_157\n      swap2\n      swap1\n      tag_156\n      jump\t// in\n    tag_157:\n      mload(0x40)\n      0x20\n      dup2\n      dup4\n      sub\n      sub\n      dup2\n      mstore\n      swap1\n      0x40\n      mstore\n        /* \"contracts/Ballot/Ballot.sol\":5295:5320  keccak256(abi.encode(s1)) */\n      dup1\n      mload\n      swap1\n      0x20\n      add\n      keccak256\n        /* \"contracts/Ballot/Ballot.sol\":5295:5349  keccak256(abi.encode(s1)) == keccak256(abi.encode(s2)) */\n      eq\n        /* \"contracts/Ballot/Ballot.sol\":5288:5349  return keccak256(abi.encode(s1)) == keccak256(abi.encode(s2)) */\n      swap1\n      pop\n        /* \"contracts/Ballot/Ballot.sol\":5190:5357  function stringEqualTo(string memory s1, string memory s2) private pure returns (bool) {\r... */\n      swap3\n      swap2\n      pop\n      pop\n      jump\t// out\n        /* \"contracts/Ballot/Ballot.sol\":5026:5154  function getVoterVoted(address voterAddress) private view returns (bool) {\r... */\n    tag_147:\n        /* \"contracts/Ballot/Ballot.sol\":5093:5097  bool */\n      0x00\n        /* \"contracts/Ballot/Ballot.sol\":5117:5123  voters */\n      0x01\n        /* \"contracts/Ballot/Ballot.sol\":5117:5137  voters[voterAddress] */\n      0x00\n        /* \"contracts/Ballot/Ballot.sol\":5124:5136  voterAddress */\n      dup4\n        /* \"contracts/Ballot/Ballot.sol\":5117:5137  voters[voterAddress] */\n      0xffffffffffffffffffffffffffffffffffffffff\n      and\n      0xffffffffffffffffffffffffffffffffffffffff\n      and\n      dup2\n      mstore\n      0x20\n      add\n      swap1\n      dup2\n      mstore\n      0x20\n      add\n      0x00\n      keccak256\n        /* \"contracts/Ballot/Ballot.sol\":5117:5146  voters[voterAddress].hasVoted */\n      0x00\n      add\n      0x01\n      swap1\n      sload\n      swap1\n      0x0100\n      exp\n      swap1\n      div\n      0xff\n      and\n        /* \"contracts/Ballot/Ballot.sol\":5110:5146  return voters[voterAddress].hasVoted */\n      swap1\n      pop\n        /* \"contracts/Ballot/Ballot.sol\":5026:5154  function getVoterVoted(address voterAddress) private view returns (bool) {\r... */\n      swap2\n      swap1\n      pop\n      jump\t// out\n        /* \"contracts/Ballot/Ballot.sol\":4775:4908  function getVoterRigthToVote(address voterAddress) private view returns (bool) {\r... */\n    tag_153:\n        /* \"contracts/Ballot/Ballot.sol\":4848:4852  bool */\n      0x00\n        /* \"contracts/Ballot/Ballot.sol\":4872:4878  voters */\n      0x01\n        /* \"contracts/Ballot/Ballot.sol\":4872:4892  voters[voterAddress] */\n      0x00\n        /* \"contracts/Ballot/Ballot.sol\":4879:4891  voterAddress */\n      dup4\n        /* \"contracts/Ballot/Ballot.sol\":4872:4892  voters[voterAddress] */\n      0xffffffffffffffffffffffffffffffffffffffff\n      and\n      0xffffffffffffffffffffffffffffffffffffffff\n      and\n      dup2\n      mstore\n      0x20\n      add\n      swap1\n      dup2\n      mstore\n      0x20\n      add\n      0x00\n      keccak256\n        /* \"contracts/Ballot/Ballot.sol\":4872:4900  voters[voterAddress].canVote */\n      0x00\n      add\n      0x00\n      swap1\n      sload\n      swap1\n      0x0100\n      exp\n      swap1\n      div\n      0xff\n      and\n        /* \"contracts/Ballot/Ballot.sol\":4865:4900  return voters[voterAddress].canVote */\n      swap1\n      pop\n        /* \"contracts/Ballot/Ballot.sol\":4775:4908  function getVoterRigthToVote(address voterAddress) private view returns (bool) {\r... */\n      swap2\n      swap1\n      pop\n      jump\t// out\n        /* \"#utility.yul\":7:419   */\n    tag_161:\n        /* \"#utility.yul\":85:90   */\n      0x00\n        /* \"#utility.yul\":110:176   */\n      tag_163\n        /* \"#utility.yul\":126:175   */\n      tag_164\n        /* \"#utility.yul\":168:174   */\n      dup5\n        /* \"#utility.yul\":126:175   */\n      tag_165\n      jump\t// in\n    tag_164:\n        /* \"#utility.yul\":110:176   */\n      tag_166\n      jump\t// in\n    tag_163:\n        /* \"#utility.yul\":101:176   */\n      swap1\n      pop\n        /* \"#utility.yul\":199:205   */\n      dup3\n        /* \"#utility.yul\":192:197   */\n      dup2\n        /* \"#utility.yul\":185:206   */\n      mstore\n        /* \"#utility.yul\":237:241   */\n      0x20\n        /* \"#utility.yul\":230:235   */\n      dup2\n        /* \"#utility.yul\":226:242   */\n      add\n        /* \"#utility.yul\":275:278   */\n      dup5\n        /* \"#utility.yul\":266:272   */\n      dup5\n        /* \"#utility.yul\":261:264   */\n      dup5\n        /* \"#utility.yul\":257:273   */\n      add\n        /* \"#utility.yul\":254:279   */\n      gt\n        /* \"#utility.yul\":251:363   */\n      iszero\n      tag_167\n      jumpi\n        /* \"#utility.yul\":282:361   */\n      tag_168\n      tag_169\n      jump\t// in\n    tag_168:\n        /* \"#utility.yul\":251:363   */\n    tag_167:\n        /* \"#utility.yul\":372:413   */\n      tag_170\n        /* \"#utility.yul\":406:412   */\n      dup5\n        /* \"#utility.yul\":401:404   */\n      dup3\n        /* \"#utility.yul\":396:399   */\n      dup6\n        /* \"#utility.yul\":372:413   */\n      tag_171\n      jump\t// in\n    tag_170:\n        /* \"#utility.yul\":91:419   */\n      pop\n        /* \"#utility.yul\":7:419   */\n      swap4\n      swap3\n      pop\n      pop\n      pop\n      jump\t// out\n        /* \"#utility.yul\":425:564   */\n    tag_172:\n        /* \"#utility.yul\":471:476   */\n      0x00\n        /* \"#utility.yul\":509:515   */\n      dup2\n        /* \"#utility.yul\":496:516   */\n      calldataload\n        /* \"#utility.yul\":487:516   */\n      swap1\n      pop\n        /* \"#utility.yul\":525:558   */\n      tag_174\n        /* \"#utility.yul\":552:557   */\n      dup2\n        /* \"#utility.yul\":525:558   */\n      tag_175\n      jump\t// in\n    tag_174:\n        /* \"#utility.yul\":425:564   */\n      swap3\n      swap2\n      pop\n      pop\n      jump\t// out\n        /* \"#utility.yul\":584:924   */\n    tag_176:\n        /* \"#utility.yul\":640:645   */\n      0x00\n        /* \"#utility.yul\":689:692   */\n      dup3\n        /* \"#utility.yul\":682:686   */\n      0x1f\n        /* \"#utility.yul\":674:680   */\n      dup4\n        /* \"#utility.yul\":670:687   */\n      add\n        /* \"#utility.yul\":666:693   */\n      slt\n        /* \"#utility.yul\":656:778   */\n      tag_178\n      jumpi\n        /* \"#utility.yul\":697:776   */\n      tag_179\n      tag_180\n      jump\t// in\n    tag_179:\n        /* \"#utility.yul\":656:778   */\n    tag_178:\n        /* \"#utility.yul\":814:820   */\n      dup2\n        /* \"#utility.yul\":801:821   */\n      calldataload\n        /* \"#utility.yul\":839:918   */\n      tag_181\n        /* \"#utility.yul\":914:917   */\n      dup5\n        /* \"#utility.yul\":906:912   */\n      dup3\n        /* \"#utility.yul\":899:903   */\n      0x20\n        /* \"#utility.yul\":891:897   */\n      dup7\n        /* \"#utility.yul\":887:904   */\n      add\n        /* \"#utility.yul\":839:918   */\n      tag_161\n      jump\t// in\n    tag_181:\n        /* \"#utility.yul\":830:918   */\n      swap2\n      pop\n        /* \"#utility.yul\":646:924   */\n      pop\n        /* \"#utility.yul\":584:924   */\n      swap3\n      swap2\n      pop\n      pop\n      jump\t// out\n        /* \"#utility.yul\":930:1069   */\n    tag_182:\n        /* \"#utility.yul\":976:981   */\n      0x00\n        /* \"#utility.yul\":1014:1020   */\n      dup2\n        /* \"#utility.yul\":1001:1021   */\n      calldataload\n        /* \"#utility.yul\":992:1021   */\n      swap1\n      pop\n        /* \"#utility.yul\":1030:1063   */\n      tag_184\n        /* \"#utility.yul\":1057:1062   */\n      dup2\n        /* \"#utility.yul\":1030:1063   */\n      tag_185\n      jump\t// in\n    tag_184:\n        /* \"#utility.yul\":930:1069   */\n      swap3\n      swap2\n      pop\n      pop\n      jump\t// out\n        /* \"#utility.yul\":1075:1404   */\n    tag_25:\n        /* \"#utility.yul\":1134:1140   */\n      0x00\n        /* \"#utility.yul\":1183:1185   */\n      0x20\n        /* \"#utility.yul\":1171:1180   */\n      dup3\n        /* \"#utility.yul\":1162:1169   */\n      dup5\n        /* \"#utility.yul\":1158:1181   */\n      sub\n        /* \"#utility.yul\":1154:1186   */\n      slt\n        /* \"#utility.yul\":1151:1270   */\n      iszero\n      tag_187\n      jumpi\n        /* \"#utility.yul\":1189:1268   */\n      tag_188\n      tag_189\n      jump\t// in\n    tag_188:\n        /* \"#utility.yul\":1151:1270   */\n    tag_187:\n        /* \"#utility.yul\":1309:1310   */\n      0x00\n        /* \"#utility.yul\":1334:1387   */\n      tag_190\n        /* \"#utility.yul\":1379:1386   */\n      dup5\n        /* \"#utility.yul\":1370:1376   */\n      dup3\n        /* \"#utility.yul\":1359:1368   */\n      dup6\n        /* \"#utility.yul\":1355:1377   */\n      add\n        /* \"#utility.yul\":1334:1387   */\n      tag_172\n      jump\t// in\n    tag_190:\n        /* \"#utility.yul\":1324:1387   */\n      swap2\n      pop\n        /* \"#utility.yul\":1280:1397   */\n      pop\n        /* \"#utility.yul\":1075:1404   */\n      swap3\n      swap2\n      pop\n      pop\n      jump\t// out\n        /* \"#utility.yul\":1410:1919   */\n    tag_34:\n        /* \"#utility.yul\":1479:1485   */\n      0x00\n        /* \"#utility.yul\":1528:1530   */\n      0x20\n        /* \"#utility.yul\":1516:1525   */\n      dup3\n        /* \"#utility.yul\":1507:1514   */\n      dup5\n        /* \"#utility.yul\":1503:1526   */\n      sub\n        /* \"#utility.yul\":1499:1531   */\n      slt\n        /* \"#utility.yul\":1496:1615   */\n      iszero\n      tag_192\n      jumpi\n        /* \"#utility.yul\":1534:1613   */\n      tag_193\n      tag_189\n      jump\t// in\n    tag_193:\n        /* \"#utility.yul\":1496:1615   */\n    tag_192:\n        /* \"#utility.yul\":1682:1683   */\n      0x00\n        /* \"#utility.yul\":1671:1680   */\n      dup3\n        /* \"#utility.yul\":1667:1684   */\n      add\n        /* \"#utility.yul\":1654:1685   */\n      calldataload\n        /* \"#utility.yul\":1712:1730   */\n      0xffffffffffffffff\n        /* \"#utility.yul\":1704:1710   */\n      dup2\n        /* \"#utility.yul\":1701:1731   */\n      gt\n        /* \"#utility.yul\":1698:1815   */\n      iszero\n      tag_194\n      jumpi\n        /* \"#utility.yul\":1734:1813   */\n      tag_195\n      tag_196\n      jump\t// in\n    tag_195:\n        /* \"#utility.yul\":1698:1815   */\n    tag_194:\n        /* \"#utility.yul\":1839:1902   */\n      tag_197\n        /* \"#utility.yul\":1894:1901   */\n      dup5\n        /* \"#utility.yul\":1885:1891   */\n      dup3\n        /* \"#utility.yul\":1874:1883   */\n      dup6\n        /* \"#utility.yul\":1870:1892   */\n      add\n        /* \"#utility.yul\":1839:1902   */\n      tag_176\n      jump\t// in\n    tag_197:\n        /* \"#utility.yul\":1829:1902   */\n      swap2\n      pop\n        /* \"#utility.yul\":1625:1912   */\n      pop\n        /* \"#utility.yul\":1410:1919   */\n      swap3\n      swap2\n      pop\n      pop\n      jump\t// out\n        /* \"#utility.yul\":1925:2254   */\n    tag_19:\n        /* \"#utility.yul\":1984:1990   */\n      0x00\n        /* \"#utility.yul\":2033:2035   */\n      0x20\n        /* \"#utility.yul\":2021:2030   */\n      dup3\n        /* \"#utility.yul\":2012:2019   */\n      dup5\n        /* \"#utility.yul\":2008:2031   */\n      sub\n        /* \"#utility.yul\":2004:2036   */\n      slt\n        /* \"#utility.yul\":2001:2120   */\n      iszero\n      tag_199\n      jumpi\n        /* \"#utility.yul\":2039:2118   */\n      tag_200\n      tag_189\n      jump\t// in\n    tag_200:\n        /* \"#utility.yul\":2001:2120   */\n    tag_199:\n        /* \"#utility.yul\":2159:2160   */\n      0x00\n        /* \"#utility.yul\":2184:2237   */\n      tag_201\n        /* \"#utility.yul\":2229:2236   */\n      dup5\n        /* \"#utility.yul\":2220:2226   */\n      dup3\n        /* \"#utility.yul\":2209:2218   */\n      dup6\n        /* \"#utility.yul\":2205:2227   */\n      add\n        /* \"#utility.yul\":2184:2237   */\n      tag_182\n      jump\t// in\n    tag_201:\n        /* \"#utility.yul\":2174:2237   */\n      swap2\n      pop\n        /* \"#utility.yul\":2130:2247   */\n      pop\n        /* \"#utility.yul\":1925:2254   */\n      swap3\n      swap2\n      pop\n      pop\n      jump\t// out\n        /* \"#utility.yul\":2260:2456   */\n    tag_202:\n        /* \"#utility.yul\":2349:2359   */\n      0x00\n        /* \"#utility.yul\":2384:2450   */\n      tag_204\n        /* \"#utility.yul\":2446:2449   */\n      dup4\n        /* \"#utility.yul\":2438:2444   */\n      dup4\n        /* \"#utility.yul\":2384:2450   */\n      tag_205\n      jump\t// in\n    tag_204:\n        /* \"#utility.yul\":2370:2450   */\n      swap1\n      pop\n        /* \"#utility.yul\":2260:2456   */\n      swap3\n      swap2\n      pop\n      pop\n      jump\t// out\n        /* \"#utility.yul\":2462:2580   */\n    tag_206:\n        /* \"#utility.yul\":2549:2573   */\n      tag_208\n        /* \"#utility.yul\":2567:2572   */\n      dup2\n        /* \"#utility.yul\":2549:2573   */\n      tag_209\n      jump\t// in\n    tag_208:\n        /* \"#utility.yul\":2544:2547   */\n      dup3\n        /* \"#utility.yul\":2537:2574   */\n      mstore\n        /* \"#utility.yul\":2462:2580   */\n      pop\n      pop\n      jump\t// out\n        /* \"#utility.yul\":2614:3605   */\n    tag_210:\n        /* \"#utility.yul\":2753:2756   */\n      0x00\n        /* \"#utility.yul\":2782:2846   */\n      tag_212\n        /* \"#utility.yul\":2840:2845   */\n      dup3\n        /* \"#utility.yul\":2782:2846   */\n      tag_213\n      jump\t// in\n    tag_212:\n        /* \"#utility.yul\":2862:2958   */\n      tag_214\n        /* \"#utility.yul\":2951:2957   */\n      dup2\n        /* \"#utility.yul\":2946:2949   */\n      dup6\n        /* \"#utility.yul\":2862:2958   */\n      tag_215\n      jump\t// in\n    tag_214:\n        /* \"#utility.yul\":2855:2958   */\n      swap4\n      pop\n        /* \"#utility.yul\":2984:2987   */\n      dup4\n        /* \"#utility.yul\":3029:3033   */\n      0x20\n        /* \"#utility.yul\":3021:3027   */\n      dup3\n        /* \"#utility.yul\":3017:3034   */\n      mul\n        /* \"#utility.yul\":3012:3015   */\n      dup6\n        /* \"#utility.yul\":3008:3035   */\n      add\n        /* \"#utility.yul\":3059:3125   */\n      tag_216\n        /* \"#utility.yul\":3119:3124   */\n      dup6\n        /* \"#utility.yul\":3059:3125   */\n      tag_217\n      jump\t// in\n    tag_216:\n        /* \"#utility.yul\":3148:3155   */\n      dup1\n        /* \"#utility.yul\":3179:3180   */\n      0x00\n        /* \"#utility.yul\":3164:3560   */\n    tag_218:\n        /* \"#utility.yul\":3189:3195   */\n      dup6\n        /* \"#utility.yul\":3186:3187   */\n      dup2\n        /* \"#utility.yul\":3183:3196   */\n      lt\n        /* \"#utility.yul\":3164:3560   */\n      iszero\n      tag_220\n      jumpi\n        /* \"#utility.yul\":3260:3269   */\n      dup5\n        /* \"#utility.yul\":3254:3258   */\n      dup5\n        /* \"#utility.yul\":3250:3270   */\n      sub\n        /* \"#utility.yul\":3245:3248   */\n      dup10\n        /* \"#utility.yul\":3238:3271   */\n      mstore\n        /* \"#utility.yul\":3311:3317   */\n      dup2\n        /* \"#utility.yul\":3305:3318   */\n      mload\n        /* \"#utility.yul\":3339:3423   */\n      tag_221\n        /* \"#utility.yul\":3418:3422   */\n      dup6\n        /* \"#utility.yul\":3403:3416   */\n      dup3\n        /* \"#utility.yul\":3339:3423   */\n      tag_202\n      jump\t// in\n    tag_221:\n        /* \"#utility.yul\":3331:3423   */\n      swap5\n      pop\n        /* \"#utility.yul\":3446:3516   */\n      tag_222\n        /* \"#utility.yul\":3509:3515   */\n      dup4\n        /* \"#utility.yul\":3446:3516   */\n      tag_223\n      jump\t// in\n    tag_222:\n        /* \"#utility.yul\":3436:3516   */\n      swap3\n      pop\n        /* \"#utility.yul\":3545:3549   */\n      0x20\n        /* \"#utility.yul\":3540:3543   */\n      dup11\n        /* \"#utility.yul\":3536:3550   */\n      add\n        /* \"#utility.yul\":3529:3550   */\n      swap10\n      pop\n        /* \"#utility.yul\":3224:3560   */\n      pop\n        /* \"#utility.yul\":3211:3212   */\n      0x01\n        /* \"#utility.yul\":3208:3209   */\n      dup2\n        /* \"#utility.yul\":3204:3213   */\n      add\n        /* \"#utility.yul\":3199:3213   */\n      swap1\n      pop\n        /* \"#utility.yul\":3164:3560   */\n      jump(tag_218)\n    tag_220:\n        /* \"#utility.yul\":3168:3182   */\n      pop\n        /* \"#utility.yul\":3576:3580   */\n      dup3\n        /* \"#utility.yul\":3569:3580   */\n      swap8\n      pop\n        /* \"#utility.yul\":3596:3599   */\n      dup8\n        /* \"#utility.yul\":3589:3599   */\n      swap6\n      pop\n        /* \"#utility.yul\":2758:3605   */\n      pop\n      pop\n      pop\n      pop\n      pop\n        /* \"#utility.yul\":2614:3605   */\n      swap3\n      swap2\n      pop\n      pop\n      jump\t// out\n        /* \"#utility.yul\":3611:3720   */\n    tag_224:\n        /* \"#utility.yul\":3692:3713   */\n      tag_226\n        /* \"#utility.yul\":3707:3712   */\n      dup2\n        /* \"#utility.yul\":3692:3713   */\n      tag_227\n      jump\t// in\n    tag_226:\n        /* \"#utility.yul\":3687:3690   */\n      dup3\n        /* \"#utility.yul\":3680:3714   */\n      mstore\n        /* \"#utility.yul\":3611:3720   */\n      pop\n      pop\n      jump\t// out\n        /* \"#utility.yul\":3726:4070   */\n    tag_205:\n        /* \"#utility.yul\":3804:3807   */\n      0x00\n        /* \"#utility.yul\":3832:3871   */\n      tag_229\n        /* \"#utility.yul\":3865:3870   */\n      dup3\n        /* \"#utility.yul\":3832:3871   */\n      tag_230\n      jump\t// in\n    tag_229:\n        /* \"#utility.yul\":3887:3948   */\n      tag_231\n        /* \"#utility.yul\":3941:3947   */\n      dup2\n        /* \"#utility.yul\":3936:3939   */\n      dup6\n        /* \"#utility.yul\":3887:3948   */\n      tag_232\n      jump\t// in\n    tag_231:\n        /* \"#utility.yul\":3880:3948   */\n      swap4\n      pop\n        /* \"#utility.yul\":3957:4009   */\n      tag_233\n        /* \"#utility.yul\":4002:4008   */\n      dup2\n        /* \"#utility.yul\":3997:4000   */\n      dup6\n        /* \"#utility.yul\":3990:3994   */\n      0x20\n        /* \"#utility.yul\":3983:3988   */\n      dup7\n        /* \"#utility.yul\":3979:3995   */\n      add\n        /* \"#utility.yul\":3957:4009   */\n      tag_234\n      jump\t// in\n    tag_233:\n        /* \"#utility.yul\":4034:4063   */\n      tag_235\n        /* \"#utility.yul\":4056:4062   */\n      dup2\n        /* \"#utility.yul\":4034:4063   */\n      tag_236\n      jump\t// in\n    tag_235:\n        /* \"#utility.yul\":4029:4032   */\n      dup5\n        /* \"#utility.yul\":4025:4064   */\n      add\n        /* \"#utility.yul\":4018:4064   */\n      swap2\n      pop\n        /* \"#utility.yul\":3808:4070   */\n      pop\n        /* \"#utility.yul\":3726:4070   */\n      swap3\n      swap2\n      pop\n      pop\n      jump\t// out\n        /* \"#utility.yul\":4076:4440   */\n    tag_237:\n        /* \"#utility.yul\":4164:4167   */\n      0x00\n        /* \"#utility.yul\":4192:4231   */\n      tag_239\n        /* \"#utility.yul\":4225:4230   */\n      dup3\n        /* \"#utility.yul\":4192:4231   */\n      tag_230\n      jump\t// in\n    tag_239:\n        /* \"#utility.yul\":4247:4318   */\n      tag_240\n        /* \"#utility.yul\":4311:4317   */\n      dup2\n        /* \"#utility.yul\":4306:4309   */\n      dup6\n        /* \"#utility.yul\":4247:4318   */\n      tag_241\n      jump\t// in\n    tag_240:\n        /* \"#utility.yul\":4240:4318   */\n      swap4\n      pop\n        /* \"#utility.yul\":4327:4379   */\n      tag_242\n        /* \"#utility.yul\":4372:4378   */\n      dup2\n        /* \"#utility.yul\":4367:4370   */\n      dup6\n        /* \"#utility.yul\":4360:4364   */\n      0x20\n        /* \"#utility.yul\":4353:4358   */\n      dup7\n        /* \"#utility.yul\":4349:4365   */\n      add\n        /* \"#utility.yul\":4327:4379   */\n      tag_234\n      jump\t// in\n    tag_242:\n        /* \"#utility.yul\":4404:4433   */\n      tag_243\n        /* \"#utility.yul\":4426:4432   */\n      dup2\n        /* \"#utility.yul\":4404:4433   */\n      tag_236\n      jump\t// in\n    tag_243:\n        /* \"#utility.yul\":4399:4402   */\n      dup5\n        /* \"#utility.yul\":4395:4434   */\n      add\n        /* \"#utility.yul\":4388:4434   */\n      swap2\n      pop\n        /* \"#utility.yul\":4168:4440   */\n      pop\n        /* \"#utility.yul\":4076:4440   */\n      swap3\n      swap2\n      pop\n      pop\n      jump\t// out\n        /* \"#utility.yul\":4446:4812   */\n    tag_244:\n        /* \"#utility.yul\":4588:4591   */\n      0x00\n        /* \"#utility.yul\":4609:4676   */\n      tag_246\n        /* \"#utility.yul\":4673:4675   */\n      0x2f\n        /* \"#utility.yul\":4668:4671   */\n      dup4\n        /* \"#utility.yul\":4609:4676   */\n      tag_241\n      jump\t// in\n    tag_246:\n        /* \"#utility.yul\":4602:4676   */\n      swap2\n      pop\n        /* \"#utility.yul\":4685:4778   */\n      tag_247\n        /* \"#utility.yul\":4774:4777   */\n      dup3\n        /* \"#utility.yul\":4685:4778   */\n      tag_248\n      jump\t// in\n    tag_247:\n        /* \"#utility.yul\":4803:4805   */\n      0x40\n        /* \"#utility.yul\":4798:4801   */\n      dup3\n        /* \"#utility.yul\":4794:4806   */\n      add\n        /* \"#utility.yul\":4787:4806   */\n      swap1\n      pop\n        /* \"#utility.yul\":4446:4812   */\n      swap2\n      swap1\n      pop\n      jump\t// out\n        /* \"#utility.yul\":4818:5184   */\n    tag_249:\n        /* \"#utility.yul\":4960:4963   */\n      0x00\n        /* \"#utility.yul\":4981:5048   */\n      tag_251\n        /* \"#utility.yul\":5045:5047   */\n      0x2f\n        /* \"#utility.yul\":5040:5043   */\n      dup4\n        /* \"#utility.yul\":4981:5048   */\n      tag_241\n      jump\t// in\n    tag_251:\n        /* \"#utility.yul\":4974:5048   */\n      swap2\n      pop\n        /* \"#utility.yul\":5057:5150   */\n      tag_252\n        /* \"#utility.yul\":5146:5149   */\n      dup3\n        /* \"#utility.yul\":5057:5150   */\n      tag_253\n      jump\t// in\n    tag_252:\n        /* \"#utility.yul\":5175:5177   */\n      0x40\n        /* \"#utility.yul\":5170:5173   */\n      dup3\n        /* \"#utility.yul\":5166:5178   */\n      add\n        /* \"#utility.yul\":5159:5178   */\n      swap1\n      pop\n        /* \"#utility.yul\":4818:5184   */\n      swap2\n      swap1\n      pop\n      jump\t// out\n        /* \"#utility.yul\":5190:5556   */\n    tag_254:\n        /* \"#utility.yul\":5332:5335   */\n      0x00\n        /* \"#utility.yul\":5353:5420   */\n      tag_256\n        /* \"#utility.yul\":5417:5419   */\n      0x14\n        /* \"#utility.yul\":5412:5415   */\n      dup4\n        /* \"#utility.yul\":5353:5420   */\n      tag_241\n      jump\t// in\n    tag_256:\n        /* \"#utility.yul\":5346:5420   */\n      swap2\n      pop\n        /* \"#utility.yul\":5429:5522   */\n      tag_257\n        /* \"#utility.yul\":5518:5521   */\n      dup3\n        /* \"#utility.yul\":5429:5522   */\n      tag_258\n      jump\t// in\n    tag_257:\n        /* \"#utility.yul\":5547:5549   */\n      0x20\n        /* \"#utility.yul\":5542:5545   */\n      dup3\n        /* \"#utility.yul\":5538:5550   */\n      add\n        /* \"#utility.yul\":5531:5550   */\n      swap1\n      pop\n        /* \"#utility.yul\":5190:5556   */\n      swap2\n      swap1\n      pop\n      jump\t// out\n        /* \"#utility.yul\":5562:5928   */\n    tag_259:\n        /* \"#utility.yul\":5704:5707   */\n      0x00\n        /* \"#utility.yul\":5725:5792   */\n      tag_261\n        /* \"#utility.yul\":5789:5791   */\n      0x1a\n        /* \"#utility.yul\":5784:5787   */\n      dup4\n        /* \"#utility.yul\":5725:5792   */\n      tag_241\n      jump\t// in\n    tag_261:\n        /* \"#utility.yul\":5718:5792   */\n      swap2\n      pop\n        /* \"#utility.yul\":5801:5894   */\n      tag_262\n        /* \"#utility.yul\":5890:5893   */\n      dup3\n        /* \"#utility.yul\":5801:5894   */\n      tag_263\n      jump\t// in\n    tag_262:\n        /* \"#utility.yul\":5919:5921   */\n      0x20\n        /* \"#utility.yul\":5914:5917   */\n      dup3\n        /* \"#utility.yul\":5910:5922   */\n      add\n        /* \"#utility.yul\":5903:5922   */\n      swap1\n      pop\n        /* \"#utility.yul\":5562:5928   */\n      swap2\n      swap1\n      pop\n      jump\t// out\n        /* \"#utility.yul\":5934:6300   */\n    tag_264:\n        /* \"#utility.yul\":6076:6079   */\n      0x00\n        /* \"#utility.yul\":6097:6164   */\n      tag_266\n        /* \"#utility.yul\":6161:6163   */\n      0x4c\n        /* \"#utility.yul\":6156:6159   */\n      dup4\n        /* \"#utility.yul\":6097:6164   */\n      tag_241\n      jump\t// in\n    tag_266:\n        /* \"#utility.yul\":6090:6164   */\n      swap2\n      pop\n        /* \"#utility.yul\":6173:6266   */\n      tag_267\n        /* \"#utility.yul\":6262:6265   */\n      dup3\n        /* \"#utility.yul\":6173:6266   */\n      tag_268\n      jump\t// in\n    tag_267:\n        /* \"#utility.yul\":6291:6293   */\n      0x60\n        /* \"#utility.yul\":6286:6289   */\n      dup3\n        /* \"#utility.yul\":6282:6294   */\n      add\n        /* \"#utility.yul\":6275:6294   */\n      swap1\n      pop\n        /* \"#utility.yul\":5934:6300   */\n      swap2\n      swap1\n      pop\n      jump\t// out\n        /* \"#utility.yul\":6306:6424   */\n    tag_269:\n        /* \"#utility.yul\":6393:6417   */\n      tag_271\n        /* \"#utility.yul\":6411:6416   */\n      dup2\n        /* \"#utility.yul\":6393:6417   */\n      tag_272\n      jump\t// in\n    tag_271:\n        /* \"#utility.yul\":6388:6391   */\n      dup3\n        /* \"#utility.yul\":6381:6418   */\n      mstore\n        /* \"#utility.yul\":6306:6424   */\n      pop\n      pop\n      jump\t// out\n        /* \"#utility.yul\":6430:6843   */\n    tag_12:\n        /* \"#utility.yul\":6593:6597   */\n      0x00\n        /* \"#utility.yul\":6631:6633   */\n      0x20\n        /* \"#utility.yul\":6620:6629   */\n      dup3\n        /* \"#utility.yul\":6616:6634   */\n      add\n        /* \"#utility.yul\":6608:6634   */\n      swap1\n      pop\n        /* \"#utility.yul\":6680:6689   */\n      dup2\n        /* \"#utility.yul\":6674:6678   */\n      dup2\n        /* \"#utility.yul\":6670:6690   */\n      sub\n        /* \"#utility.yul\":6666:6667   */\n      0x00\n        /* \"#utility.yul\":6655:6664   */\n      dup4\n        /* \"#utility.yul\":6651:6668   */\n      add\n        /* \"#utility.yul\":6644:6691   */\n      mstore\n        /* \"#utility.yul\":6708:6836   */\n      tag_274\n        /* \"#utility.yul\":6831:6835   */\n      dup2\n        /* \"#utility.yul\":6822:6828   */\n      dup5\n        /* \"#utility.yul\":6708:6836   */\n      tag_210\n      jump\t// in\n    tag_274:\n        /* \"#utility.yul\":6700:6836   */\n      swap1\n      pop\n        /* \"#utility.yul\":6430:6843   */\n      swap3\n      swap2\n      pop\n      pop\n      jump\t// out\n        /* \"#utility.yul\":6849:7157   */\n    tag_31:\n        /* \"#utility.yul\":6958:6962   */\n      0x00\n        /* \"#utility.yul\":6996:6998   */\n      0x40\n        /* \"#utility.yul\":6985:6994   */\n      dup3\n        /* \"#utility.yul\":6981:6999   */\n      add\n        /* \"#utility.yul\":6973:6999   */\n      swap1\n      pop\n        /* \"#utility.yul\":7009:7074   */\n      tag_276\n        /* \"#utility.yul\":7071:7072   */\n      0x00\n        /* \"#utility.yul\":7060:7069   */\n      dup4\n        /* \"#utility.yul\":7056:7073   */\n      add\n        /* \"#utility.yul\":7047:7053   */\n      dup6\n        /* \"#utility.yul\":7009:7074   */\n      tag_224\n      jump\t// in\n    tag_276:\n        /* \"#utility.yul\":7084:7150   */\n      tag_277\n        /* \"#utility.yul\":7146:7148   */\n      0x20\n        /* \"#utility.yul\":7135:7144   */\n      dup4\n        /* \"#utility.yul\":7131:7149   */\n      add\n        /* \"#utility.yul\":7122:7128   */\n      dup5\n        /* \"#utility.yul\":7084:7150   */\n      tag_224\n      jump\t// in\n    tag_277:\n        /* \"#utility.yul\":6849:7157   */\n      swap4\n      swap3\n      pop\n      pop\n      pop\n      jump\t// out\n        /* \"#utility.yul\":7163:7476   */\n    tag_156:\n        /* \"#utility.yul\":7276:7280   */\n      0x00\n        /* \"#utility.yul\":7314:7316   */\n      0x20\n        /* \"#utility.yul\":7303:7312   */\n      dup3\n        /* \"#utility.yul\":7299:7317   */\n      add\n        /* \"#utility.yul\":7291:7317   */\n      swap1\n      pop\n        /* \"#utility.yul\":7363:7372   */\n      dup2\n        /* \"#utility.yul\":7357:7361   */\n      dup2\n        /* \"#utility.yul\":7353:7373   */\n      sub\n        /* \"#utility.yul\":7349:7350   */\n      0x00\n        /* \"#utility.yul\":7338:7347   */\n      dup4\n        /* \"#utility.yul\":7334:7351   */\n      add\n        /* \"#utility.yul\":7327:7374   */\n      mstore\n        /* \"#utility.yul\":7391:7469   */\n      tag_279\n        /* \"#utility.yul\":7464:7468   */\n      dup2\n        /* \"#utility.yul\":7455:7461   */\n      dup5\n        /* \"#utility.yul\":7391:7469   */\n      tag_237\n      jump\t// in\n    tag_279:\n        /* \"#utility.yul\":7383:7469   */\n      swap1\n      pop\n        /* \"#utility.yul\":7163:7476   */\n      swap3\n      swap2\n      pop\n      pop\n      jump\t// out\n        /* \"#utility.yul\":7482:7905   */\n    tag_16:\n        /* \"#utility.yul\":7623:7627   */\n      0x00\n        /* \"#utility.yul\":7661:7663   */\n      0x40\n        /* \"#utility.yul\":7650:7659   */\n      dup3\n        /* \"#utility.yul\":7646:7664   */\n      add\n        /* \"#utility.yul\":7638:7664   */\n      swap1\n      pop\n        /* \"#utility.yul\":7710:7719   */\n      dup2\n        /* \"#utility.yul\":7704:7708   */\n      dup2\n        /* \"#utility.yul\":7700:7720   */\n      sub\n        /* \"#utility.yul\":7696:7697   */\n      0x00\n        /* \"#utility.yul\":7685:7694   */\n      dup4\n        /* \"#utility.yul\":7681:7698   */\n      add\n        /* \"#utility.yul\":7674:7721   */\n      mstore\n        /* \"#utility.yul\":7738:7816   */\n      tag_281\n        /* \"#utility.yul\":7811:7815   */\n      dup2\n        /* \"#utility.yul\":7802:7808   */\n      dup6\n        /* \"#utility.yul\":7738:7816   */\n      tag_237\n      jump\t// in\n    tag_281:\n        /* \"#utility.yul\":7730:7816   */\n      swap1\n      pop\n        /* \"#utility.yul\":7826:7898   */\n      tag_282\n        /* \"#utility.yul\":7894:7896   */\n      0x20\n        /* \"#utility.yul\":7883:7892   */\n      dup4\n        /* \"#utility.yul\":7879:7897   */\n      add\n        /* \"#utility.yul\":7870:7876   */\n      dup5\n        /* \"#utility.yul\":7826:7898   */\n      tag_206\n      jump\t// in\n    tag_282:\n        /* \"#utility.yul\":7482:7905   */\n      swap4\n      swap3\n      pop\n      pop\n      pop\n      jump\t// out\n        /* \"#utility.yul\":7911:8334   */\n    tag_22:\n        /* \"#utility.yul\":8052:8056   */\n      0x00\n        /* \"#utility.yul\":8090:8092   */\n      0x40\n        /* \"#utility.yul\":8079:8088   */\n      dup3\n        /* \"#utility.yul\":8075:8093   */\n      add\n        /* \"#utility.yul\":8067:8093   */\n      swap1\n      pop\n        /* \"#utility.yul\":8139:8148   */\n      dup2\n        /* \"#utility.yul\":8133:8137   */\n      dup2\n        /* \"#utility.yul\":8129:8149   */\n      sub\n        /* \"#utility.yul\":8125:8126   */\n      0x00\n        /* \"#utility.yul\":8114:8123   */\n      dup4\n        /* \"#utility.yul\":8110:8127   */\n      add\n        /* \"#utility.yul\":8103:8150   */\n      mstore\n        /* \"#utility.yul\":8167:8245   */\n      tag_284\n        /* \"#utility.yul\":8240:8244   */\n      dup2\n        /* \"#utility.yul\":8231:8237   */\n      dup6\n        /* \"#utility.yul\":8167:8245   */\n      tag_237\n      jump\t// in\n    tag_284:\n        /* \"#utility.yul\":8159:8245   */\n      swap1\n      pop\n        /* \"#utility.yul\":8255:8327   */\n      tag_285\n        /* \"#utility.yul\":8323:8325   */\n      0x20\n        /* \"#utility.yul\":8312:8321   */\n      dup4\n        /* \"#utility.yul\":8308:8326   */\n      add\n        /* \"#utility.yul\":8299:8305   */\n      dup5\n        /* \"#utility.yul\":8255:8327   */\n      tag_269\n      jump\t// in\n    tag_285:\n        /* \"#utility.yul\":7911:8334   */\n      swap4\n      swap3\n      pop\n      pop\n      pop\n      jump\t// out\n        /* \"#utility.yul\":8340:8759   */\n    tag_143:\n        /* \"#utility.yul\":8506:8510   */\n      0x00\n        /* \"#utility.yul\":8544:8546   */\n      0x20\n        /* \"#utility.yul\":8533:8542   */\n      dup3\n        /* \"#utility.yul\":8529:8547   */\n      add\n        /* \"#utility.yul\":8521:8547   */\n      swap1\n      pop\n        /* \"#utility.yul\":8593:8602   */\n      dup2\n        /* \"#utility.yul\":8587:8591   */\n      dup2\n        /* \"#utility.yul\":8583:8603   */\n      sub\n        /* \"#utility.yul\":8579:8580   */\n      0x00\n        /* \"#utility.yul\":8568:8577   */\n      dup4\n        /* \"#utility.yul\":8564:8581   */\n      add\n        /* \"#utility.yul\":8557:8604   */\n      mstore\n        /* \"#utility.yul\":8621:8752   */\n      tag_287\n        /* \"#utility.yul\":8747:8751   */\n      dup2\n        /* \"#utility.yul\":8621:8752   */\n      tag_244\n      jump\t// in\n    tag_287:\n        /* \"#utility.yul\":8613:8752   */\n      swap1\n      pop\n        /* \"#utility.yul\":8340:8759   */\n      swap2\n      swap1\n      pop\n      jump\t// out\n        /* \"#utility.yul\":8765:9184   */\n    tag_89:\n        /* \"#utility.yul\":8931:8935   */\n      0x00\n        /* \"#utility.yul\":8969:8971   */\n      0x20\n        /* \"#utility.yul\":8958:8967   */\n      dup3\n        /* \"#utility.yul\":8954:8972   */\n      add\n        /* \"#utility.yul\":8946:8972   */\n      swap1\n      pop\n        /* \"#utility.yul\":9018:9027   */\n      dup2\n        /* \"#utility.yul\":9012:9016   */\n      dup2\n        /* \"#utility.yul\":9008:9028   */\n      sub\n        /* \"#utility.yul\":9004:9005   */\n      0x00\n        /* \"#utility.yul\":8993:9002   */\n      dup4\n        /* \"#utility.yul\":8989:9006   */\n      add\n        /* \"#utility.yul\":8982:9029   */\n      mstore\n        /* \"#utility.yul\":9046:9177   */\n      tag_289\n        /* \"#utility.yul\":9172:9176   */\n      dup2\n        /* \"#utility.yul\":9046:9177   */\n      tag_249\n      jump\t// in\n    tag_289:\n        /* \"#utility.yul\":9038:9177   */\n      swap1\n      pop\n        /* \"#utility.yul\":8765:9184   */\n      swap2\n      swap1\n      pop\n      jump\t// out\n        /* \"#utility.yul\":9190:9609   */\n    tag_150:\n        /* \"#utility.yul\":9356:9360   */\n      0x00\n        /* \"#utility.yul\":9394:9396   */\n      0x20\n        /* \"#utility.yul\":9383:9392   */\n      dup3\n        /* \"#utility.yul\":9379:9397   */\n      add\n        /* \"#utility.yul\":9371:9397   */\n      swap1\n      pop\n        /* \"#utility.yul\":9443:9452   */\n      dup2\n        /* \"#utility.yul\":9437:9441   */\n      dup2\n        /* \"#utility.yul\":9433:9453   */\n      sub\n        /* \"#utility.yul\":9429:9430   */\n      0x00\n        /* \"#utility.yul\":9418:9427   */\n      dup4\n        /* \"#utility.yul\":9414:9431   */\n      add\n        /* \"#utility.yul\":9407:9454   */\n      mstore\n        /* \"#utility.yul\":9471:9602   */\n      tag_291\n        /* \"#utility.yul\":9597:9601   */\n      dup2\n        /* \"#utility.yul\":9471:9602   */\n      tag_254\n      jump\t// in\n    tag_291:\n        /* \"#utility.yul\":9463:9602   */\n      swap1\n      pop\n        /* \"#utility.yul\":9190:9609   */\n      swap2\n      swap1\n      pop\n      jump\t// out\n        /* \"#utility.yul\":9615:10034   */\n    tag_99:\n        /* \"#utility.yul\":9781:9785   */\n      0x00\n        /* \"#utility.yul\":9819:9821   */\n      0x20\n        /* \"#utility.yul\":9808:9817   */\n      dup3\n        /* \"#utility.yul\":9804:9822   */\n      add\n        /* \"#utility.yul\":9796:9822   */\n      swap1\n      pop\n        /* \"#utility.yul\":9868:9877   */\n      dup2\n        /* \"#utility.yul\":9862:9866   */\n      dup2\n        /* \"#utility.yul\":9858:9878   */\n      sub\n        /* \"#utility.yul\":9854:9855   */\n      0x00\n        /* \"#utility.yul\":9843:9852   */\n      dup4\n        /* \"#utility.yul\":9839:9856   */\n      add\n        /* \"#utility.yul\":9832:9879   */\n      mstore\n        /* \"#utility.yul\":9896:10027   */\n      tag_293\n        /* \"#utility.yul\":10022:10026   */\n      dup2\n        /* \"#utility.yul\":9896:10027   */\n      tag_259\n      jump\t// in\n    tag_293:\n        /* \"#utility.yul\":9888:10027   */\n      swap1\n      pop\n        /* \"#utility.yul\":9615:10034   */\n      swap2\n      swap1\n      pop\n      jump\t// out\n        /* \"#utility.yul\":10040:10459   */\n    tag_64:\n        /* \"#utility.yul\":10206:10210   */\n      0x00\n        /* \"#utility.yul\":10244:10246   */\n      0x20\n        /* \"#utility.yul\":10233:10242   */\n      dup3\n        /* \"#utility.yul\":10229:10247   */\n      add\n        /* \"#utility.yul\":10221:10247   */\n      swap1\n      pop\n        /* \"#utility.yul\":10293:10302   */\n      dup2\n        /* \"#utility.yul\":10287:10291   */\n      dup2\n        /* \"#utility.yul\":10283:10303   */\n      sub\n        /* \"#utility.yul\":10279:10280   */\n      0x00\n        /* \"#utility.yul\":10268:10277   */\n      dup4\n        /* \"#utility.yul\":10264:10281   */\n      add\n        /* \"#utility.yul\":10257:10304   */\n      mstore\n        /* \"#utility.yul\":10321:10452   */\n      tag_295\n        /* \"#utility.yul\":10447:10451   */\n      dup2\n        /* \"#utility.yul\":10321:10452   */\n      tag_264\n      jump\t// in\n    tag_295:\n        /* \"#utility.yul\":10313:10452   */\n      swap1\n      pop\n        /* \"#utility.yul\":10040:10459   */\n      swap2\n      swap1\n      pop\n      jump\t// out\n        /* \"#utility.yul\":10465:10594   */\n    tag_166:\n        /* \"#utility.yul\":10499:10505   */\n      0x00\n        /* \"#utility.yul\":10526:10546   */\n      tag_297\n      tag_298\n      jump\t// in\n    tag_297:\n        /* \"#utility.yul\":10516:10546   */\n      swap1\n      pop\n        /* \"#utility.yul\":10555:10588   */\n      tag_299\n        /* \"#utility.yul\":10583:10587   */\n      dup3\n        /* \"#utility.yul\":10575:10581   */\n      dup3\n        /* \"#utility.yul\":10555:10588   */\n      tag_300\n      jump\t// in\n    tag_299:\n        /* \"#utility.yul\":10465:10594   */\n      swap2\n      swap1\n      pop\n      jump\t// out\n        /* \"#utility.yul\":10600:10675   */\n    tag_298:\n        /* \"#utility.yul\":10633:10639   */\n      0x00\n        /* \"#utility.yul\":10666:10668   */\n      0x40\n        /* \"#utility.yul\":10660:10669   */\n      mload\n        /* \"#utility.yul\":10650:10669   */\n      swap1\n      pop\n        /* \"#utility.yul\":10600:10675   */\n      swap1\n      jump\t// out\n        /* \"#utility.yul\":10681:10989   */\n    tag_165:\n        /* \"#utility.yul\":10743:10747   */\n      0x00\n        /* \"#utility.yul\":10833:10851   */\n      0xffffffffffffffff\n        /* \"#utility.yul\":10825:10831   */\n      dup3\n        /* \"#utility.yul\":10822:10852   */\n      gt\n        /* \"#utility.yul\":10819:10875   */\n      iszero\n      tag_303\n      jumpi\n        /* \"#utility.yul\":10855:10873   */\n      tag_304\n      tag_39\n      jump\t// in\n    tag_304:\n        /* \"#utility.yul\":10819:10875   */\n    tag_303:\n        /* \"#utility.yul\":10893:10922   */\n      tag_305\n        /* \"#utility.yul\":10915:10921   */\n      dup3\n        /* \"#utility.yul\":10893:10922   */\n      tag_236\n      jump\t// in\n    tag_305:\n        /* \"#utility.yul\":10885:10922   */\n      swap1\n      pop\n        /* \"#utility.yul\":10977:10981   */\n      0x20\n        /* \"#utility.yul\":10971:10975   */\n      dup2\n        /* \"#utility.yul\":10967:10982   */\n      add\n        /* \"#utility.yul\":10959:10982   */\n      swap1\n      pop\n        /* \"#utility.yul\":10681:10989   */\n      swap2\n      swap1\n      pop\n      jump\t// out\n        /* \"#utility.yul\":10995:11137   */\n    tag_217:\n        /* \"#utility.yul\":11072:11076   */\n      0x00\n        /* \"#utility.yul\":11095:11098   */\n      dup2\n        /* \"#utility.yul\":11087:11098   */\n      swap1\n      pop\n        /* \"#utility.yul\":11125:11129   */\n      0x20\n        /* \"#utility.yul\":11120:11123   */\n      dup3\n        /* \"#utility.yul\":11116:11130   */\n      add\n        /* \"#utility.yul\":11108:11130   */\n      swap1\n      pop\n        /* \"#utility.yul\":10995:11137   */\n      swap2\n      swap1\n      pop\n      jump\t// out\n        /* \"#utility.yul\":11143:11267   */\n    tag_213:\n        /* \"#utility.yul\":11220:11226   */\n      0x00\n        /* \"#utility.yul\":11254:11259   */\n      dup2\n        /* \"#utility.yul\":11248:11260   */\n      mload\n        /* \"#utility.yul\":11238:11260   */\n      swap1\n      pop\n        /* \"#utility.yul\":11143:11267   */\n      swap2\n      swap1\n      pop\n      jump\t// out\n        /* \"#utility.yul\":11273:11372   */\n    tag_230:\n        /* \"#utility.yul\":11325:11331   */\n      0x00\n        /* \"#utility.yul\":11359:11364   */\n      dup2\n        /* \"#utility.yul\":11353:11365   */\n      mload\n        /* \"#utility.yul\":11343:11365   */\n      swap1\n      pop\n        /* \"#utility.yul\":11273:11372   */\n      swap2\n      swap1\n      pop\n      jump\t// out\n        /* \"#utility.yul\":11378:11501   */\n    tag_223:\n        /* \"#utility.yul\":11458:11462   */\n      0x00\n        /* \"#utility.yul\":11490:11494   */\n      0x20\n        /* \"#utility.yul\":11485:11488   */\n      dup3\n        /* \"#utility.yul\":11481:11495   */\n      add\n        /* \"#utility.yul\":11473:11495   */\n      swap1\n      pop\n        /* \"#utility.yul\":11378:11501   */\n      swap2\n      swap1\n      pop\n      jump\t// out\n        /* \"#utility.yul\":11507:11701   */\n    tag_215:\n        /* \"#utility.yul\":11616:11627   */\n      0x00\n        /* \"#utility.yul\":11650:11656   */\n      dup3\n        /* \"#utility.yul\":11645:11648   */\n      dup3\n        /* \"#utility.yul\":11638:11657   */\n      mstore\n        /* \"#utility.yul\":11690:11694   */\n      0x20\n        /* \"#utility.yul\":11685:11688   */\n      dup3\n        /* \"#utility.yul\":11681:11695   */\n      add\n        /* \"#utility.yul\":11666:11695   */\n      swap1\n      pop\n        /* \"#utility.yul\":11507:11701   */\n      swap3\n      swap2\n      pop\n      pop\n      jump\t// out\n        /* \"#utility.yul\":11707:11866   */\n    tag_232:\n        /* \"#utility.yul\":11781:11792   */\n      0x00\n        /* \"#utility.yul\":11815:11821   */\n      dup3\n        /* \"#utility.yul\":11810:11813   */\n      dup3\n        /* \"#utility.yul\":11803:11822   */\n      mstore\n        /* \"#utility.yul\":11855:11859   */\n      0x20\n        /* \"#utility.yul\":11850:11853   */\n      dup3\n        /* \"#utility.yul\":11846:11860   */\n      add\n        /* \"#utility.yul\":11831:11860   */\n      swap1\n      pop\n        /* \"#utility.yul\":11707:11866   */\n      swap3\n      swap2\n      pop\n      pop\n      jump\t// out\n        /* \"#utility.yul\":11872:12041   */\n    tag_241:\n        /* \"#utility.yul\":11956:11967   */\n      0x00\n        /* \"#utility.yul\":11990:11996   */\n      dup3\n        /* \"#utility.yul\":11985:11988   */\n      dup3\n        /* \"#utility.yul\":11978:11997   */\n      mstore\n        /* \"#utility.yul\":12030:12034   */\n      0x20\n        /* \"#utility.yul\":12025:12028   */\n      dup3\n        /* \"#utility.yul\":12021:12035   */\n      add\n        /* \"#utility.yul\":12006:12035   */\n      swap1\n      pop\n        /* \"#utility.yul\":11872:12041   */\n      swap3\n      swap2\n      pop\n      pop\n      jump\t// out\n        /* \"#utility.yul\":12047:12143   */\n    tag_209:\n        /* \"#utility.yul\":12084:12091   */\n      0x00\n        /* \"#utility.yul\":12113:12137   */\n      tag_314\n        /* \"#utility.yul\":12131:12136   */\n      dup3\n        /* \"#utility.yul\":12113:12137   */\n      tag_315\n      jump\t// in\n    tag_314:\n        /* \"#utility.yul\":12102:12137   */\n      swap1\n      pop\n        /* \"#utility.yul\":12047:12143   */\n      swap2\n      swap1\n      pop\n      jump\t// out\n        /* \"#utility.yul\":12149:12239   */\n    tag_227:\n        /* \"#utility.yul\":12183:12190   */\n      0x00\n        /* \"#utility.yul\":12226:12231   */\n      dup2\n        /* \"#utility.yul\":12219:12232   */\n      iszero\n        /* \"#utility.yul\":12212:12233   */\n      iszero\n        /* \"#utility.yul\":12201:12233   */\n      swap1\n      pop\n        /* \"#utility.yul\":12149:12239   */\n      swap2\n      swap1\n      pop\n      jump\t// out\n        /* \"#utility.yul\":12245:12371   */\n    tag_315:\n        /* \"#utility.yul\":12282:12289   */\n      0x00\n        /* \"#utility.yul\":12322:12364   */\n      0xffffffffffffffffffffffffffffffffffffffff\n        /* \"#utility.yul\":12315:12320   */\n      dup3\n        /* \"#utility.yul\":12311:12365   */\n      and\n        /* \"#utility.yul\":12300:12365   */\n      swap1\n      pop\n        /* \"#utility.yul\":12245:12371   */\n      swap2\n      swap1\n      pop\n      jump\t// out\n        /* \"#utility.yul\":12377:12454   */\n    tag_272:\n        /* \"#utility.yul\":12414:12421   */\n      0x00\n        /* \"#utility.yul\":12443:12448   */\n      dup2\n        /* \"#utility.yul\":12432:12448   */\n      swap1\n      pop\n        /* \"#utility.yul\":12377:12454   */\n      swap2\n      swap1\n      pop\n      jump\t// out\n        /* \"#utility.yul\":12460:12614   */\n    tag_171:\n        /* \"#utility.yul\":12544:12550   */\n      dup3\n        /* \"#utility.yul\":12539:12542   */\n      dup2\n        /* \"#utility.yul\":12534:12537   */\n      dup4\n        /* \"#utility.yul\":12521:12551   */\n      calldatacopy\n        /* \"#utility.yul\":12606:12607   */\n      0x00\n        /* \"#utility.yul\":12597:12603   */\n      dup4\n        /* \"#utility.yul\":12592:12595   */\n      dup4\n        /* \"#utility.yul\":12588:12604   */\n      add\n        /* \"#utility.yul\":12581:12608   */\n      mstore\n        /* \"#utility.yul\":12460:12614   */\n      pop\n      pop\n      pop\n      jump\t// out\n        /* \"#utility.yul\":12620:12927   */\n    tag_234:\n        /* \"#utility.yul\":12688:12689   */\n      0x00\n        /* \"#utility.yul\":12698:12811   */\n    tag_321:\n        /* \"#utility.yul\":12712:12718   */\n      dup4\n        /* \"#utility.yul\":12709:12710   */\n      dup2\n        /* \"#utility.yul\":12706:12719   */\n      lt\n        /* \"#utility.yul\":12698:12811   */\n      iszero\n      tag_323\n      jumpi\n        /* \"#utility.yul\":12797:12798   */\n      dup1\n        /* \"#utility.yul\":12792:12795   */\n      dup3\n        /* \"#utility.yul\":12788:12799   */\n      add\n        /* \"#utility.yul\":12782:12800   */\n      mload\n        /* \"#utility.yul\":12778:12779   */\n      dup2\n        /* \"#utility.yul\":12773:12776   */\n      dup5\n        /* \"#utility.yul\":12769:12780   */\n      add\n        /* \"#utility.yul\":12762:12801   */\n      mstore\n        /* \"#utility.yul\":12734:12736   */\n      0x20\n        /* \"#utility.yul\":12731:12732   */\n      dup2\n        /* \"#utility.yul\":12727:12737   */\n      add\n        /* \"#utility.yul\":12722:12737   */\n      swap1\n      pop\n        /* \"#utility.yul\":12698:12811   */\n      jump(tag_321)\n    tag_323:\n        /* \"#utility.yul\":12829:12835   */\n      dup4\n        /* \"#utility.yul\":12826:12827   */\n      dup2\n        /* \"#utility.yul\":12823:12836   */\n      gt\n        /* \"#utility.yul\":12820:12921   */\n      iszero\n      tag_324\n      jumpi\n        /* \"#utility.yul\":12909:12910   */\n      0x00\n        /* \"#utility.yul\":12900:12906   */\n      dup5\n        /* \"#utility.yul\":12895:12898   */\n      dup5\n        /* \"#utility.yul\":12891:12907   */\n      add\n        /* \"#utility.yul\":12884:12911   */\n      mstore\n        /* \"#utility.yul\":12820:12921   */\n    tag_324:\n        /* \"#utility.yul\":12669:12927   */\n      pop\n        /* \"#utility.yul\":12620:12927   */\n      pop\n      pop\n      pop\n      jump\t// out\n        /* \"#utility.yul\":12933:13253   */\n    tag_50:\n        /* \"#utility.yul\":12977:12983   */\n      0x00\n        /* \"#utility.yul\":13014:13015   */\n      0x02\n        /* \"#utility.yul\":13008:13012   */\n      dup3\n        /* \"#utility.yul\":13004:13016   */\n      div\n        /* \"#utility.yul\":12994:13016   */\n      swap1\n      pop\n        /* \"#utility.yul\":13061:13062   */\n      0x01\n        /* \"#utility.yul\":13055:13059   */\n      dup3\n        /* \"#utility.yul\":13051:13063   */\n      and\n        /* \"#utility.yul\":13082:13100   */\n      dup1\n        /* \"#utility.yul\":13072:13153   */\n      tag_326\n      jumpi\n        /* \"#utility.yul\":13138:13142   */\n      0x7f\n        /* \"#utility.yul\":13130:13136   */\n      dup3\n        /* \"#utility.yul\":13126:13143   */\n      and\n        /* \"#utility.yul\":13116:13143   */\n      swap2\n      pop\n        /* \"#utility.yul\":13072:13153   */\n    tag_326:\n        /* \"#utility.yul\":13200:13202   */\n      0x20\n        /* \"#utility.yul\":13192:13198   */\n      dup3\n        /* \"#utility.yul\":13189:13203   */\n      lt\n        /* \"#utility.yul\":13169:13187   */\n      dup2\n        /* \"#utility.yul\":13166:13204   */\n      eq\n        /* \"#utility.yul\":13163:13247   */\n      iszero\n      tag_327\n      jumpi\n        /* \"#utility.yul\":13219:13237   */\n      tag_328\n      tag_329\n      jump\t// in\n    tag_328:\n        /* \"#utility.yul\":13163:13247   */\n    tag_327:\n        /* \"#utility.yul\":12984:13253   */\n      pop\n        /* \"#utility.yul\":12933:13253   */\n      swap2\n      swap1\n      pop\n      jump\t// out\n        /* \"#utility.yul\":13259:13540   */\n    tag_300:\n        /* \"#utility.yul\":13342:13369   */\n      tag_331\n        /* \"#utility.yul\":13364:13368   */\n      dup3\n        /* \"#utility.yul\":13342:13369   */\n      tag_236\n      jump\t// in\n    tag_331:\n        /* \"#utility.yul\":13334:13340   */\n      dup2\n        /* \"#utility.yul\":13330:13370   */\n      add\n        /* \"#utility.yul\":13472:13478   */\n      dup2\n        /* \"#utility.yul\":13460:13470   */\n      dup2\n        /* \"#utility.yul\":13457:13479   */\n      lt\n        /* \"#utility.yul\":13436:13454   */\n      0xffffffffffffffff\n        /* \"#utility.yul\":13424:13434   */\n      dup3\n        /* \"#utility.yul\":13421:13455   */\n      gt\n        /* \"#utility.yul\":13418:13480   */\n      or\n        /* \"#utility.yul\":13415:13503   */\n      iszero\n      tag_332\n      jumpi\n        /* \"#utility.yul\":13483:13501   */\n      tag_333\n      tag_39\n      jump\t// in\n    tag_333:\n        /* \"#utility.yul\":13415:13503   */\n    tag_332:\n        /* \"#utility.yul\":13523:13533   */\n      dup1\n        /* \"#utility.yul\":13519:13521   */\n      0x40\n        /* \"#utility.yul\":13512:13534   */\n      mstore\n        /* \"#utility.yul\":13302:13540   */\n      pop\n        /* \"#utility.yul\":13259:13540   */\n      pop\n      pop\n      jump\t// out\n        /* \"#utility.yul\":13546:13779   */\n    tag_58:\n        /* \"#utility.yul\":13585:13588   */\n      0x00\n        /* \"#utility.yul\":13608:13632   */\n      tag_335\n        /* \"#utility.yul\":13626:13631   */\n      dup3\n        /* \"#utility.yul\":13608:13632   */\n      tag_272\n      jump\t// in\n    tag_335:\n        /* \"#utility.yul\":13599:13632   */\n      swap2\n      pop\n        /* \"#utility.yul\":13654:13720   */\n      0xffffffffffffffffffffffffffffffffffffffffffffffffffffffffffffffff\n        /* \"#utility.yul\":13647:13652   */\n      dup3\n        /* \"#utility.yul\":13644:13721   */\n      eq\n        /* \"#utility.yul\":13641:13744   */\n      iszero\n      tag_336\n      jumpi\n        /* \"#utility.yul\":13724:13742   */\n      tag_337\n      tag_338\n      jump\t// in\n    tag_337:\n        /* \"#utility.yul\":13641:13744   */\n    tag_336:\n        /* \"#utility.yul\":13771:13772   */\n      0x01\n        /* \"#utility.yul\":13764:13769   */\n      dup3\n        /* \"#utility.yul\":13760:13773   */\n      add\n        /* \"#utility.yul\":13753:13773   */\n      swap1\n      pop\n        /* \"#utility.yul\":13546:13779   */\n      swap2\n      swap1\n      pop\n      jump\t// out\n        /* \"#utility.yul\":13785:13965   */\n    tag_338:\n        /* \"#utility.yul\":13833:13910   */\n      0x4e487b7100000000000000000000000000000000000000000000000000000000\n        /* \"#utility.yul\":13830:13831   */\n      0x00\n        /* \"#utility.yul\":13823:13911   */\n      mstore\n        /* \"#utility.yul\":13930:13934   */\n      0x11\n        /* \"#utility.yul\":13927:13928   */\n      0x04\n        /* \"#utility.yul\":13920:13935   */\n      mstore\n        /* \"#utility.yul\":13954:13958   */\n      0x24\n        /* \"#utility.yul\":13951:13952   */\n      0x00\n        /* \"#utility.yul\":13944:13959   */\n      revert\n        /* \"#utility.yul\":13971:14151   */\n    tag_329:\n        /* \"#utility.yul\":14019:14096   */\n      0x4e487b7100000000000000000000000000000000000000000000000000000000\n        /* \"#utility.yul\":14016:14017   */\n      0x00\n        /* \"#utility.yul\":14009:14097   */\n      mstore\n        /* \"#utility.yul\":14116:14120   */\n      0x22\n        /* \"#utility.yul\":14113:14114   */\n      0x04\n        /* \"#utility.yul\":14106:14121   */\n      mstore\n        /* \"#utility.yul\":14140:14144   */\n      0x24\n        /* \"#utility.yul\":14137:14138   */\n      0x00\n        /* \"#utility.yul\":14130:14145   */\n      revert\n        /* \"#utility.yul\":14157:14337   */\n    tag_47:\n        /* \"#utility.yul\":14205:14282   */\n      0x4e487b7100000000000000000000000000000000000000000000000000000000\n        /* \"#utility.yul\":14202:14203   */\n      0x00\n        /* \"#utility.yul\":14195:14283   */\n      mstore\n        /* \"#utility.yul\":14302:14306   */\n      0x32\n        /* \"#utility.yul\":14299:14300   */\n      0x04\n        /* \"#utility.yul\":14292:14307   */\n      mstore\n        /* \"#utility.yul\":14326:14330   */\n      0x24\n        /* \"#utility.yul\":14323:14324   */\n      0x00\n        /* \"#utility.yul\":14316:14331   */\n      revert\n        /* \"#utility.yul\":14343:14523   */\n    tag_39:\n        /* \"#utility.yul\":14391:14468   */\n      0x4e487b7100000000000000000000000000000000000000000000000000000000\n        /* \"#utility.yul\":14388:14389   */\n      0x00\n        /* \"#utility.yul\":14381:14469   */\n      mstore\n        /* \"#utility.yul\":14488:14492   */\n      0x41\n        /* \"#utility.yul\":14485:14486   */\n      0x04\n        /* \"#utility.yul\":14478:14493   */\n      mstore\n        /* \"#utility.yul\":14512:14516   */\n      0x24\n        /* \"#utility.yul\":14509:14510   */\n      0x00\n        /* \"#utility.yul\":14502:14517   */\n      revert\n        /* \"#utility.yul\":14529:14646   */\n    tag_180:\n        /* \"#utility.yul\":14638:14639   */\n      0x00\n        /* \"#utility.yul\":14635:14636   */\n      dup1\n        /* \"#utility.yul\":14628:14640   */\n      revert\n        /* \"#utility.yul\":14652:14769   */\n    tag_169:\n        /* \"#utility.yul\":14761:14762   */\n      0x00\n        /* \"#utility.yul\":14758:14759   */\n      dup1\n        /* \"#utility.yul\":14751:14763   */\n      revert\n        /* \"#utility.yul\":14775:14892   */\n    tag_196:\n        /* \"#utility.yul\":14884:14885   */\n      0x00\n        /* \"#utility.yul\":14881:14882   */\n      dup1\n        /* \"#utility.yul\":14874:14886   */\n      revert\n        /* \"#utility.yul\":14898:15015   */\n    tag_189:\n        /* \"#utility.yul\":15007:15008   */\n      0x00\n        /* \"#utility.yul\":15004:15005   */\n      dup1\n        /* \"#utility.yul\":14997:15009   */\n      revert\n        /* \"#utility.yul\":15021:15123   */\n    tag_236:\n        /* \"#utility.yul\":15062:15068   */\n      0x00\n        /* \"#utility.yul\":15113:15115   */\n      0x1f\n        /* \"#utility.yul\":15109:15116   */\n      not\n        /* \"#utility.yul\":15104:15106   */\n      0x1f\n        /* \"#utility.yul\":15097:15102   */\n      dup4\n        /* \"#utility.yul\":15093:15107   */\n      add\n        /* \"#utility.yul\":15089:15117   */\n      and\n        /* \"#utility.yul\":15079:15117   */\n      swap1\n      pop\n        /* \"#utility.yul\":15021:15123   */\n      swap2\n      swap1\n      pop\n      jump\t// out\n        /* \"#utility.yul\":15129:15363   */\n    tag_248:\n        /* \"#utility.yul\":15269:15303   */\n      0x4d6178206163636f756e7420766f74657320697320726561636865642e204261\n        /* \"#utility.yul\":15265:15266   */\n      0x00\n        /* \"#utility.yul\":15257:15263   */\n      dup3\n        /* \"#utility.yul\":15253:15267   */\n      add\n        /* \"#utility.yul\":15246:15304   */\n      mstore\n        /* \"#utility.yul\":15338:15355   */\n      0x6c6c6f7420697320434c4f5345442e0000000000000000000000000000000000\n        /* \"#utility.yul\":15333:15335   */\n      0x20\n        /* \"#utility.yul\":15325:15331   */\n      dup3\n        /* \"#utility.yul\":15321:15336   */\n      add\n        /* \"#utility.yul\":15314:15356   */\n      mstore\n        /* \"#utility.yul\":15129:15363   */\n      pop\n      jump\t// out\n        /* \"#utility.yul\":15369:15603   */\n    tag_253:\n        /* \"#utility.yul\":15509:15543   */\n      0x4f6e6c792074686520636f6e7472616374206f776e65722063616e2067697665\n        /* \"#utility.yul\":15505:15506   */\n      0x00\n        /* \"#utility.yul\":15497:15503   */\n      dup3\n        /* \"#utility.yul\":15493:15507   */\n      add\n        /* \"#utility.yul\":15486:15544   */\n      mstore\n        /* \"#utility.yul\":15578:15595   */\n      0x20726967687420746f20766f74652e0000000000000000000000000000000000\n        /* \"#utility.yul\":15573:15575   */\n      0x20\n        /* \"#utility.yul\":15565:15571   */\n      dup3\n        /* \"#utility.yul\":15561:15576   */\n      add\n        /* \"#utility.yul\":15554:15596   */\n      mstore\n        /* \"#utility.yul\":15369:15603   */\n      pop\n      jump\t// out\n        /* \"#utility.yul\":15609:15779   */\n    tag_258:\n        /* \"#utility.yul\":15749:15771   */\n      0x566f74657220616c726561647920766f7465642e000000000000000000000000\n        /* \"#utility.yul\":15745:15746   */\n      0x00\n        /* \"#utility.yul\":15737:15743   */\n      dup3\n        /* \"#utility.yul\":15733:15747   */\n      add\n        /* \"#utility.yul\":15726:15772   */\n      mstore\n        /* \"#utility.yul\":15609:15779   */\n      pop\n      jump\t// out\n        /* \"#utility.yul\":15785:15961   */\n    tag_263:\n        /* \"#utility.yul\":15925:15953   */\n      0x596f752068617665206e6f7420726967687420746f20766f7465000000000000\n        /* \"#utility.yul\":15921:15922   */\n      0x00\n        /* \"#utility.yul\":15913:15919   */\n      dup3\n        /* \"#utility.yul\":15909:15923   */\n      add\n        /* \"#utility.yul\":15902:15954   */\n      mstore\n        /* \"#utility.yul\":15785:15961   */\n      pop\n      jump\t// out\n        /* \"#utility.yul\":15967:16267   */\n    tag_268:\n        /* \"#utility.yul\":16107:16141   */\n      0x5468657265206973206120746965206f6e2042616c6c6f742e20596f75207368\n        /* \"#utility.yul\":16103:16104   */\n      0x00\n        /* \"#utility.yul\":16095:16101   */\n      dup3\n        /* \"#utility.yul\":16091:16105   */\n      add\n        /* \"#utility.yul\":16084:16142   */\n      mstore\n        /* \"#utility.yul\":16176:16210   */\n      0x6f756c642073746172742061206e65772062616c6c6f74207769746820746965\n        /* \"#utility.yul\":16171:16173   */\n      0x20\n        /* \"#utility.yul\":16163:16169   */\n      dup3\n        /* \"#utility.yul\":16159:16174   */\n      add\n        /* \"#utility.yul\":16152:16211   */\n      mstore\n        /* \"#utility.yul\":16245:16259   */\n      0x2063616e646964617465732e0000000000000000000000000000000000000000\n        /* \"#utility.yul\":16240:16242   */\n      0x40\n        /* \"#utility.yul\":16232:16238   */\n      dup3\n        /* \"#utility.yul\":16228:16243   */\n      add\n        /* \"#utility.yul\":16221:16260   */\n      mstore\n        /* \"#utility.yul\":15967:16267   */\n      pop\n      jump\t// out\n        /* \"#utility.yul\":16273:16395   */\n    tag_175:\n        /* \"#utility.yul\":16346:16370   */\n      tag_354\n        /* \"#utility.yul\":16364:16369   */\n      dup2\n        /* \"#utility.yul\":16346:16370   */\n      tag_209\n      jump\t// in\n    tag_354:\n        /* \"#utility.yul\":16339:16344   */\n      dup2\n        /* \"#utility.yul\":16336:16371   */\n      eq\n        /* \"#utility.yul\":16326:16389   */\n      tag_355\n      jumpi\n        /* \"#utility.yul\":16385:16386   */\n      0x00\n        /* \"#utility.yul\":16382:16383   */\n      dup1\n        /* \"#utility.yul\":16375:16387   */\n      revert\n        /* \"#utility.yul\":16326:16389   */\n    tag_355:\n        /* \"#utility.yul\":16273:16395   */\n      pop\n      jump\t// out\n        /* \"#utility.yul\":16401:16523   */\n    tag_185:\n        /* \"#utility.yul\":16474:16498   */\n      tag_357\n        /* \"#utility.yul\":16492:16497   */\n      dup2\n        /* \"#utility.yul\":16474:16498   */\n      tag_272\n      jump\t// in\n    tag_357:\n        /* \"#utility.yul\":16467:16472   */\n      dup2\n        /* \"#utility.yul\":16464:16499   */\n      eq\n        /* \"#utility.yul\":16454:16517   */\n      tag_358\n      jumpi\n        /* \"#utility.yul\":16513:16514   */\n      0x00\n        /* \"#utility.yul\":16510:16511   */\n      dup1\n        /* \"#utility.yul\":16503:16515   */\n      revert\n        /* \"#utility.yul\":16454:16517   */\n    tag_358:\n        /* \"#utility.yul\":16401:16523   */\n      pop\n      jump\t// out\n\n    auxdata: 0xa264697066735822122047d86b739706e3232c46e0acb6ab91408f6d1e340e488c71010f75254c2bb4ce64736f6c63430008070033\n}\n",
				"bytecode": {
					"linkReferences": {},
					"object": "60806040523480156200001157600080fd5b50604051620019923803806200199283398181016040528101906200003791906200035b565b336000806101000a81548173ffffffffffffffffffffffffffffffffffffffff021916908373ffffffffffffffffffffffffffffffffffffffff16021790555062000088826200009760201b60201c565b80600481905550505062000649565b60005b8151811015620001435760026040518060400160405280848481518110620000c757620000c6620005a7565b5b602002602001015181526020016000815250908060018154018082558091505060019003906000526020600020906002020160009091909190915060008201518160000190805190602001906200012092919062000147565b5060208201518160010155505080806200013a90620004fb565b9150506200009a565b5050565b82805462000155906200048f565b90600052602060002090601f016020900481019282620001795760008555620001c5565b82601f106200019457805160ff1916838001178555620001c5565b82800160010185558215620001c5579182015b82811115620001c4578251825591602001919060010190620001a7565b5b509050620001d49190620001d8565b5090565b5b80821115620001f3576000816000905550600101620001d9565b5090565b60006200020e6200020884620003ea565b620003c1565b905080838252602082019050828560208602820111156200023457620002336200060a565b5b60005b858110156200028957815167ffffffffffffffff8111156200025e576200025d62000605565b5b8086016200026d898262000311565b8552602085019450602084019350505060018101905062000237565b5050509392505050565b6000620002aa620002a48462000419565b620003c1565b905082815260208101848484011115620002c957620002c86200060f565b5b620002d684828562000459565b509392505050565b600082601f830112620002f657620002f562000605565b5b815162000308848260208601620001f7565b91505092915050565b600082601f83011262000329576200032862000605565b5b81516200033b84826020860162000293565b91505092915050565b60008151905062000355816200062f565b92915050565b6000806040838503121562000375576200037462000619565b5b600083015167ffffffffffffffff81111562000396576200039562000614565b5b620003a485828601620002de565b9250506020620003b78582860162000344565b9150509250929050565b6000620003cd620003e0565b9050620003db8282620004c5565b919050565b6000604051905090565b600067ffffffffffffffff821115620004085762000407620005d6565b5b602082029050602081019050919050565b600067ffffffffffffffff821115620004375762000436620005d6565b5b62000442826200061e565b9050602081019050919050565b6000819050919050565b60005b83811015620004795780820151818401526020810190506200045c565b8381111562000489576000848401525b50505050565b60006002820490506001821680620004a857607f821691505b60208210811415620004bf57620004be62000578565b5b50919050565b620004d0826200061e565b810181811067ffffffffffffffff82111715620004f257620004f1620005d6565b5b80604052505050565b600062000508826200044f565b91507fffffffffffffffffffffffffffffffffffffffffffffffffffffffffffffffff8214156200053e576200053d62000549565b5b600182019050919050565b7f4e487b7100000000000000000000000000000000000000000000000000000000600052601160045260246000fd5b7f4e487b7100000000000000000000000000000000000000000000000000000000600052602260045260246000fd5b7f4e487b7100000000000000000000000000000000000000000000000000000000600052603260045260246000fd5b7f4e487b7100000000000000000000000000000000000000000000000000000000600052604160045260246000fd5b600080fd5b600080fd5b600080fd5b600080fd5b600080fd5b6000601f19601f8301169050919050565b6200063a816200044f565b81146200064657600080fd5b50565b61133980620006596000396000f3fe608060405234801561001057600080fd5b50600436106100625760003560e01c8063011d1023146100675780632bfda515146100855780633477ee2e146100a45780639e7b8d61146100d5578063a3ec138d146100f1578063fc36e15b14610122575b600080fd5b61006f61013e565b60405161007c9190610d30565b60405180910390f35b61008d61028f565b60405161009b929190610d9d565b60405180910390f35b6100be60048036038101906100b99190610b2c565b6103a6565b6040516100cc929190610dcd565b60405180910390f35b6100ef60048036038101906100ea9190610ab6565b610462565b005b61010b60048036038101906101069190610ab6565b610519565b604051610119929190610d52565b60405180910390f35b61013c60048036038101906101379190610ae3565b610557565b005b60606000600280549050905060008167ffffffffffffffff8111156101665761016561111c565b5b60405190808252806020026020018201604052801561019957816020015b60608152602001906001900390816101845790505b50905060005b8281101561028657600281815481106101bb576101ba6110ed565b5b906000526020600020906002020160000180546101d790610fe3565b80601f016020809104026020016040519081016040528092919081815260200182805461020390610fe3565b80156102505780601f1061022557610100808354040283529160200191610250565b820191906000526020600020905b81548152906001019060200180831161023357829003601f168201915b5050505050828281518110610268576102676110ed565b5b6020026020010181905250808061027e90611046565b91505061019f565b50809250505090565b6060600080600061029e610749565b9150915080156102e3576040517f08c379a00000000000000000000000000000000000000000000000000000000081526004016102da90610e7d565b60405180910390fd5b600282815481106102f7576102f66110ed565b5b9060005260206000209060020201600001805461031390610fe3565b80601f016020809104026020016040519081016040528092919081815260200182805461033f90610fe3565b801561038c5780601f106103615761010080835404028352916020019161038c565b820191906000526020600020905b81548152906001019060200180831161036f57829003601f168201915b505050505093508361039c61080e565b9350935050509091565b600281815481106103b657600080fd5b90600052602060002090600202016000915090508060000180546103d990610fe3565b80601f016020809104026020016040519081016040528092919081815260200182805461040590610fe3565b80156104525780601f1061042757610100808354040283529160200191610452565b820191906000526020600020905b81548152906001019060200180831161043557829003601f168201915b5050505050908060010154905082565b8061046b610816565b61047361085e565b6104b2576040517f08c379a00000000000000000000000000000000000000000000000000000000081526004016104a990610e1d565b60405180910390fd5b6104bb816108b5565b60018060008473ffffffffffffffffffffffffffffffffffffffff1673ffffffffffffffffffffffffffffffffffffffff16815260200190815260200160002060000160006101000a81548160ff0219169083151502179055505050565b60016020528060005260406000206000915090508060000160009054906101000a900460ff16908060000160019054906101000a900460ff16905082565b33610560610816565b610568610901565b6105a7576040517f08c379a000000000000000000000000000000000000000000000000000000000815260040161059e90610e5d565b60405180910390fd5b6105b0816108b5565b6000600160003373ffffffffffffffffffffffffffffffffffffffff1673ffffffffffffffffffffffffffffffffffffffff168152602001908152602001600020905060005b600280549050811015610743576106ba6002828154811061061a576106196110ed565b5b9060005260206000209060020201600001805461063690610fe3565b80601f016020809104026020016040519081016040528092919081815260200182805461066290610fe3565b80156106af5780601f10610684576101008083540402835291602001916106af565b820191906000526020600020905b81548152906001019060200180831161069257829003601f168201915b505050505085610911565b1561073057600281815481106106d3576106d26110ed565b5b906000526020600020906002020160010160008154809291906106f590611046565b919050555060018260000160016101000a81548160ff0219169083151502179055506003600081548092919061072a90611046565b91905055505b808061073b90611046565b9150506105f6565b50505050565b600080600080600090505b600280549050811015610808578160028281548110610776576107756110ed565b5b90600052602060002090600202016001015411156107c257600281815481106107a2576107a16110ed565b5b9060005260206000209060020201600101549150809350600092506107f5565b81600282815481106107d7576107d66110ed565b5b90600052602060002090600202016001015414156107f457600192505b5b808061080090611046565b915050610754565b50509091565b600030905090565b6004546003541061085c576040517f08c379a000000000000000000000000000000000000000000000000000000000815260040161085390610dfd565b60405180910390fd5b565b60008060009054906101000a900473ffffffffffffffffffffffffffffffffffffffff1673ffffffffffffffffffffffffffffffffffffffff163373ffffffffffffffffffffffffffffffffffffffff1614905090565b6108be8161096a565b156108fe576040517f08c379a00000000000000000000000000000000000000000000000000000000081526004016108f590610e3d565b60405180910390fd5b50565b600061090c336109c3565b905090565b6000816040516020016109249190610d7b565b604051602081830303815290604052805190602001208360405160200161094b9190610d7b565b6040516020818303038152906040528051906020012014905092915050565b6000600160008373ffffffffffffffffffffffffffffffffffffffff1673ffffffffffffffffffffffffffffffffffffffff16815260200190815260200160002060000160019054906101000a900460ff169050919050565b6000600160008373ffffffffffffffffffffffffffffffffffffffff1673ffffffffffffffffffffffffffffffffffffffff16815260200190815260200160002060000160009054906101000a900460ff169050919050565b6000610a2f610a2a84610ec2565b610e9d565b905082815260208101848484011115610a4b57610a4a611150565b5b610a56848285610fa1565b509392505050565b600081359050610a6d816112d5565b92915050565b600082601f830112610a8857610a8761114b565b5b8135610a98848260208601610a1c565b91505092915050565b600081359050610ab0816112ec565b92915050565b600060208284031215610acc57610acb61115a565b5b6000610ada84828501610a5e565b91505092915050565b600060208284031215610af957610af861115a565b5b600082013567ffffffffffffffff811115610b1757610b16611155565b5b610b2384828501610a73565b91505092915050565b600060208284031215610b4257610b4161115a565b5b6000610b5084828501610aa1565b91505092915050565b6000610b658383610c00565b905092915050565b610b7681610f59565b82525050565b6000610b8782610f03565b610b918185610f26565b935083602082028501610ba385610ef3565b8060005b85811015610bdf5784840389528151610bc08582610b59565b9450610bcb83610f19565b925060208a01995050600181019050610ba7565b50829750879550505050505092915050565b610bfa81610f6b565b82525050565b6000610c0b82610f0e565b610c158185610f37565b9350610c25818560208601610fb0565b610c2e8161115f565b840191505092915050565b6000610c4482610f0e565b610c4e8185610f48565b9350610c5e818560208601610fb0565b610c678161115f565b840191505092915050565b6000610c7f602f83610f48565b9150610c8a82611170565b604082019050919050565b6000610ca2602f83610f48565b9150610cad826111bf565b604082019050919050565b6000610cc5601483610f48565b9150610cd08261120e565b602082019050919050565b6000610ce8601a83610f48565b9150610cf382611237565b602082019050919050565b6000610d0b604c83610f48565b9150610d1682611260565b606082019050919050565b610d2a81610f97565b82525050565b60006020820190508181036000830152610d4a8184610b7c565b905092915050565b6000604082019050610d676000830185610bf1565b610d746020830184610bf1565b9392505050565b60006020820190508181036000830152610d958184610c39565b905092915050565b60006040820190508181036000830152610db78185610c39565b9050610dc66020830184610b6d565b9392505050565b60006040820190508181036000830152610de78185610c39565b9050610df66020830184610d21565b9392505050565b60006020820190508181036000830152610e1681610c72565b9050919050565b60006020820190508181036000830152610e3681610c95565b9050919050565b60006020820190508181036000830152610e5681610cb8565b9050919050565b60006020820190508181036000830152610e7681610cdb565b9050919050565b60006020820190508181036000830152610e9681610cfe565b9050919050565b6000610ea7610eb8565b9050610eb38282611015565b919050565b6000604051905090565b600067ffffffffffffffff821115610edd57610edc61111c565b5b610ee68261115f565b9050602081019050919050565b6000819050602082019050919050565b600081519050919050565b600081519050919050565b6000602082019050919050565b600082825260208201905092915050565b600082825260208201905092915050565b600082825260208201905092915050565b6000610f6482610f77565b9050919050565b60008115159050919050565b600073ffffffffffffffffffffffffffffffffffffffff82169050919050565b6000819050919050565b82818337600083830152505050565b60005b83811015610fce578082015181840152602081019050610fb3565b83811115610fdd576000848401525b50505050565b60006002820490506001821680610ffb57607f821691505b6020821081141561100f5761100e6110be565b5b50919050565b61101e8261115f565b810181811067ffffffffffffffff8211171561103d5761103c61111c565b5b80604052505050565b600061105182610f97565b91507fffffffffffffffffffffffffffffffffffffffffffffffffffffffffffffffff8214156110845761108361108f565b5b600182019050919050565b7f4e487b7100000000000000000000000000000000000000000000000000000000600052601160045260246000fd5b7f4e487b7100000000000000000000000000000000000000000000000000000000600052602260045260246000fd5b7f4e487b7100000000000000000000000000000000000000000000000000000000600052603260045260246000fd5b7f4e487b7100000000000000000000000000000000000000000000000000000000600052604160045260246000fd5b600080fd5b600080fd5b600080fd5b600080fd5b6000601f19601f8301169050919050565b7f4d6178206163636f756e7420766f74657320697320726561636865642e20426160008201527f6c6c6f7420697320434c4f5345442e0000000000000000000000000000000000602082015250565b7f4f6e6c792074686520636f6e7472616374206f776e65722063616e206769766560008201527f20726967687420746f20766f74652e0000000000000000000000000000000000602082015250565b7f566f74657220616c726561647920766f7465642e000000000000000000000000600082015250565b7f596f752068617665206e6f7420726967687420746f20766f7465000000000000600082015250565b7f5468657265206973206120746965206f6e2042616c6c6f742e20596f7520736860008201527f6f756c642073746172742061206e65772062616c6c6f7420776974682074696560208201527f2063616e646964617465732e0000000000000000000000000000000000000000604082015250565b6112de81610f59565b81146112e957600080fd5b50565b6112f581610f97565b811461130057600080fd5b5056fea264697066735822122047d86b739706e3232c46e0acb6ab91408f6d1e340e488c71010f75254c2bb4ce64736f6c63430008070033",
					"opcodes": "PUSH1 0x80 PUSH1 0x40 MSTORE CALLVALUE DUP1 ISZERO PUSH3 0x11 JUMPI PUSH1 0x0 DUP1 REVERT JUMPDEST POP PUSH1 0x40 MLOAD PUSH3 0x1992 CODESIZE SUB DUP1 PUSH3 0x1992 DUP4 CODECOPY DUP2 DUP2 ADD PUSH1 0x40 MSTORE DUP2 ADD SWAP1 PUSH3 0x37 SWAP2 SWAP1 PUSH3 0x35B JUMP JUMPDEST CALLER PUSH1 0x0 DUP1 PUSH2 0x100 EXP DUP2 SLOAD DUP2 PUSH20 0xFFFFFFFFFFFFFFFFFFFFFFFFFFFFFFFFFFFFFFFF MUL NOT AND SWAP1 DUP4 PUSH20 0xFFFFFFFFFFFFFFFFFFFFFFFFFFFFFFFFFFFFFFFF AND MUL OR SWAP1 SSTORE POP PUSH3 0x88 DUP3 PUSH3 0x97 PUSH1 0x20 SHL PUSH1 0x20 SHR JUMP JUMPDEST DUP1 PUSH1 0x4 DUP2 SWAP1 SSTORE POP POP POP PUSH3 0x649 JUMP JUMPDEST PUSH1 0x0 JUMPDEST DUP2 MLOAD DUP2 LT ISZERO PUSH3 0x143 JUMPI PUSH1 0x2 PUSH1 0x40 MLOAD DUP1 PUSH1 0x40 ADD PUSH1 0x40 MSTORE DUP1 DUP5 DUP5 DUP2 MLOAD DUP2 LT PUSH3 0xC7 JUMPI PUSH3 0xC6 PUSH3 0x5A7 JUMP JUMPDEST JUMPDEST PUSH1 0x20 MUL PUSH1 0x20 ADD ADD MLOAD DUP2 MSTORE PUSH1 0x20 ADD PUSH1 0x0 DUP2 MSTORE POP SWAP1 DUP1 PUSH1 0x1 DUP2 SLOAD ADD DUP1 DUP3 SSTORE DUP1 SWAP2 POP POP PUSH1 0x1 SWAP1 SUB SWAP1 PUSH1 0x0 MSTORE PUSH1 0x20 PUSH1 0x0 KECCAK256 SWAP1 PUSH1 0x2 MUL ADD PUSH1 0x0 SWAP1 SWAP2 SWAP1 SWAP2 SWAP1 SWAP2 POP PUSH1 0x0 DUP3 ADD MLOAD DUP2 PUSH1 0x0 ADD SWAP1 DUP1 MLOAD SWAP1 PUSH1 0x20 ADD SWAP1 PUSH3 0x120 SWAP3 SWAP2 SWAP1 PUSH3 0x147 JUMP JUMPDEST POP PUSH1 0x20 DUP3 ADD MLOAD DUP2 PUSH1 0x1 ADD SSTORE POP POP DUP1 DUP1 PUSH3 0x13A SWAP1 PUSH3 0x4FB JUMP JUMPDEST SWAP2 POP POP PUSH3 0x9A JUMP JUMPDEST POP POP JUMP JUMPDEST DUP3 DUP1 SLOAD PUSH3 0x155 SWAP1 PUSH3 0x48F JUMP JUMPDEST SWAP1 PUSH1 0x0 MSTORE PUSH1 0x20 PUSH1 0x0 KECCAK256 SWAP1 PUSH1 0x1F ADD PUSH1 0x20 SWAP1 DIV DUP2 ADD SWAP3 DUP3 PUSH3 0x179 JUMPI PUSH1 0x0 DUP6 SSTORE PUSH3 0x1C5 JUMP JUMPDEST DUP3 PUSH1 0x1F LT PUSH3 0x194 JUMPI DUP1 MLOAD PUSH1 0xFF NOT AND DUP4 DUP1 ADD OR DUP6 SSTORE PUSH3 0x1C5 JUMP JUMPDEST DUP3 DUP1 ADD PUSH1 0x1 ADD DUP6 SSTORE DUP3 ISZERO PUSH3 0x1C5 JUMPI SWAP2 DUP3 ADD JUMPDEST DUP3 DUP2 GT ISZERO PUSH3 0x1C4 JUMPI DUP3 MLOAD DUP3 SSTORE SWAP2 PUSH1 0x20 ADD SWAP2 SWAP1 PUSH1 0x1 ADD SWAP1 PUSH3 0x1A7 JUMP JUMPDEST JUMPDEST POP SWAP1 POP PUSH3 0x1D4 SWAP2 SWAP1 PUSH3 0x1D8 JUMP JUMPDEST POP SWAP1 JUMP JUMPDEST JUMPDEST DUP1 DUP3 GT ISZERO PUSH3 0x1F3 JUMPI PUSH1 0x0 DUP2 PUSH1 0x0 SWAP1 SSTORE POP PUSH1 0x1 ADD PUSH3 0x1D9 JUMP JUMPDEST POP SWAP1 JUMP JUMPDEST PUSH1 0x0 PUSH3 0x20E PUSH3 0x208 DUP5 PUSH3 0x3EA JUMP JUMPDEST PUSH3 0x3C1 JUMP JUMPDEST SWAP1 POP DUP1 DUP4 DUP3 MSTORE PUSH1 0x20 DUP3 ADD SWAP1 POP DUP3 DUP6 PUSH1 0x20 DUP7 MUL DUP3 ADD GT ISZERO PUSH3 0x234 JUMPI PUSH3 0x233 PUSH3 0x60A JUMP JUMPDEST JUMPDEST PUSH1 0x0 JUMPDEST DUP6 DUP2 LT ISZERO PUSH3 0x289 JUMPI DUP2 MLOAD PUSH8 0xFFFFFFFFFFFFFFFF DUP2 GT ISZERO PUSH3 0x25E JUMPI PUSH3 0x25D PUSH3 0x605 JUMP JUMPDEST JUMPDEST DUP1 DUP7 ADD PUSH3 0x26D DUP10 DUP3 PUSH3 0x311 JUMP JUMPDEST DUP6 MSTORE PUSH1 0x20 DUP6 ADD SWAP5 POP PUSH1 0x20 DUP5 ADD SWAP4 POP POP POP PUSH1 0x1 DUP2 ADD SWAP1 POP PUSH3 0x237 JUMP JUMPDEST POP POP POP SWAP4 SWAP3 POP POP POP JUMP JUMPDEST PUSH1 0x0 PUSH3 0x2AA PUSH3 0x2A4 DUP5 PUSH3 0x419 JUMP JUMPDEST PUSH3 0x3C1 JUMP JUMPDEST SWAP1 POP DUP3 DUP2 MSTORE PUSH1 0x20 DUP2 ADD DUP5 DUP5 DUP5 ADD GT ISZERO PUSH3 0x2C9 JUMPI PUSH3 0x2C8 PUSH3 0x60F JUMP JUMPDEST JUMPDEST PUSH3 0x2D6 DUP5 DUP3 DUP6 PUSH3 0x459 JUMP JUMPDEST POP SWAP4 SWAP3 POP POP POP JUMP JUMPDEST PUSH1 0x0 DUP3 PUSH1 0x1F DUP4 ADD SLT PUSH3 0x2F6 JUMPI PUSH3 0x2F5 PUSH3 0x605 JUMP JUMPDEST JUMPDEST DUP2 MLOAD PUSH3 0x308 DUP5 DUP3 PUSH1 0x20 DUP7 ADD PUSH3 0x1F7 JUMP JUMPDEST SWAP2 POP POP SWAP3 SWAP2 POP POP JUMP JUMPDEST PUSH1 0x0 DUP3 PUSH1 0x1F DUP4 ADD SLT PUSH3 0x329 JUMPI PUSH3 0x328 PUSH3 0x605 JUMP JUMPDEST JUMPDEST DUP2 MLOAD PUSH3 0x33B DUP5 DUP3 PUSH1 0x20 DUP7 ADD PUSH3 0x293 JUMP JUMPDEST SWAP2 POP POP SWAP3 SWAP2 POP POP JUMP JUMPDEST PUSH1 0x0 DUP2 MLOAD SWAP1 POP PUSH3 0x355 DUP2 PUSH3 0x62F JUMP JUMPDEST SWAP3 SWAP2 POP POP JUMP JUMPDEST PUSH1 0x0 DUP1 PUSH1 0x40 DUP4 DUP6 SUB SLT ISZERO PUSH3 0x375 JUMPI PUSH3 0x374 PUSH3 0x619 JUMP JUMPDEST JUMPDEST PUSH1 0x0 DUP4 ADD MLOAD PUSH8 0xFFFFFFFFFFFFFFFF DUP2 GT ISZERO PUSH3 0x396 JUMPI PUSH3 0x395 PUSH3 0x614 JUMP JUMPDEST JUMPDEST PUSH3 0x3A4 DUP6 DUP3 DUP7 ADD PUSH3 0x2DE JUMP JUMPDEST SWAP3 POP POP PUSH1 0x20 PUSH3 0x3B7 DUP6 DUP3 DUP7 ADD PUSH3 0x344 JUMP JUMPDEST SWAP2 POP POP SWAP3 POP SWAP3 SWAP1 POP JUMP JUMPDEST PUSH1 0x0 PUSH3 0x3CD PUSH3 0x3E0 JUMP JUMPDEST SWAP1 POP PUSH3 0x3DB DUP3 DUP3 PUSH3 0x4C5 JUMP JUMPDEST SWAP2 SWAP1 POP JUMP JUMPDEST PUSH1 0x0 PUSH1 0x40 MLOAD SWAP1 POP SWAP1 JUMP JUMPDEST PUSH1 0x0 PUSH8 0xFFFFFFFFFFFFFFFF DUP3 GT ISZERO PUSH3 0x408 JUMPI PUSH3 0x407 PUSH3 0x5D6 JUMP JUMPDEST JUMPDEST PUSH1 0x20 DUP3 MUL SWAP1 POP PUSH1 0x20 DUP2 ADD SWAP1 POP SWAP2 SWAP1 POP JUMP JUMPDEST PUSH1 0x0 PUSH8 0xFFFFFFFFFFFFFFFF DUP3 GT ISZERO PUSH3 0x437 JUMPI PUSH3 0x436 PUSH3 0x5D6 JUMP JUMPDEST JUMPDEST PUSH3 0x442 DUP3 PUSH3 0x61E JUMP JUMPDEST SWAP1 POP PUSH1 0x20 DUP2 ADD SWAP1 POP SWAP2 SWAP1 POP JUMP JUMPDEST PUSH1 0x0 DUP2 SWAP1 POP SWAP2 SWAP1 POP JUMP JUMPDEST PUSH1 0x0 JUMPDEST DUP4 DUP2 LT ISZERO PUSH3 0x479 JUMPI DUP1 DUP3 ADD MLOAD DUP2 DUP5 ADD MSTORE PUSH1 0x20 DUP2 ADD SWAP1 POP PUSH3 0x45C JUMP JUMPDEST DUP4 DUP2 GT ISZERO PUSH3 0x489 JUMPI PUSH1 0x0 DUP5 DUP5 ADD MSTORE JUMPDEST POP POP POP POP JUMP JUMPDEST PUSH1 0x0 PUSH1 0x2 DUP3 DIV SWAP1 POP PUSH1 0x1 DUP3 AND DUP1 PUSH3 0x4A8 JUMPI PUSH1 0x7F DUP3 AND SWAP2 POP JUMPDEST PUSH1 0x20 DUP3 LT DUP2 EQ ISZERO PUSH3 0x4BF JUMPI PUSH3 0x4BE PUSH3 0x578 JUMP JUMPDEST JUMPDEST POP SWAP2 SWAP1 POP JUMP JUMPDEST PUSH3 0x4D0 DUP3 PUSH3 0x61E JUMP JUMPDEST DUP2 ADD DUP2 DUP2 LT PUSH8 0xFFFFFFFFFFFFFFFF DUP3 GT OR ISZERO PUSH3 0x4F2 JUMPI PUSH3 0x4F1 PUSH3 0x5D6 JUMP JUMPDEST JUMPDEST DUP1 PUSH1 0x40 MSTORE POP POP POP JUMP JUMPDEST PUSH1 0x0 PUSH3 0x508 DUP3 PUSH3 0x44F JUMP JUMPDEST SWAP2 POP PUSH32 0xFFFFFFFFFFFFFFFFFFFFFFFFFFFFFFFFFFFFFFFFFFFFFFFFFFFFFFFFFFFFFFFF DUP3 EQ ISZERO PUSH3 0x53E JUMPI PUSH3 0x53D PUSH3 0x549 JUMP JUMPDEST JUMPDEST PUSH1 0x1 DUP3 ADD SWAP1 POP SWAP2 SWAP1 POP JUMP JUMPDEST PUSH32 0x4E487B7100000000000000000000000000000000000000000000000000000000 PUSH1 0x0 MSTORE PUSH1 0x11 PUSH1 0x4 MSTORE PUSH1 0x24 PUSH1 0x0 REVERT JUMPDEST PUSH32 0x4E487B7100000000000000000000000000000000000000000000000000000000 PUSH1 0x0 MSTORE PUSH1 0x22 PUSH1 0x4 MSTORE PUSH1 0x24 PUSH1 0x0 REVERT JUMPDEST PUSH32 0x4E487B7100000000000000000000000000000000000000000000000000000000 PUSH1 0x0 MSTORE PUSH1 0x32 PUSH1 0x4 MSTORE PUSH1 0x24 PUSH1 0x0 REVERT JUMPDEST PUSH32 0x4E487B7100000000000000000000000000000000000000000000000000000000 PUSH1 0x0 MSTORE PUSH1 0x41 PUSH1 0x4 MSTORE PUSH1 0x24 PUSH1 0x0 REVERT JUMPDEST PUSH1 0x0 DUP1 REVERT JUMPDEST PUSH1 0x0 DUP1 REVERT JUMPDEST PUSH1 0x0 DUP1 REVERT JUMPDEST PUSH1 0x0 DUP1 REVERT JUMPDEST PUSH1 0x0 DUP1 REVERT JUMPDEST PUSH1 0x0 PUSH1 0x1F NOT PUSH1 0x1F DUP4 ADD AND SWAP1 POP SWAP2 SWAP1 POP JUMP JUMPDEST PUSH3 0x63A DUP2 PUSH3 0x44F JUMP JUMPDEST DUP2 EQ PUSH3 0x646 JUMPI PUSH1 0x0 DUP1 REVERT JUMPDEST POP JUMP JUMPDEST PUSH2 0x1339 DUP1 PUSH3 0x659 PUSH1 0x0 CODECOPY PUSH1 0x0 RETURN INVALID PUSH1 0x80 PUSH1 0x40 MSTORE CALLVALUE DUP1 ISZERO PUSH2 0x10 JUMPI PUSH1 0x0 DUP1 REVERT JUMPDEST POP PUSH1 0x4 CALLDATASIZE LT PUSH2 0x62 JUMPI PUSH1 0x0 CALLDATALOAD PUSH1 0xE0 SHR DUP1 PUSH4 0x11D1023 EQ PUSH2 0x67 JUMPI DUP1 PUSH4 0x2BFDA515 EQ PUSH2 0x85 JUMPI DUP1 PUSH4 0x3477EE2E EQ PUSH2 0xA4 JUMPI DUP1 PUSH4 0x9E7B8D61 EQ PUSH2 0xD5 JUMPI DUP1 PUSH4 0xA3EC138D EQ PUSH2 0xF1 JUMPI DUP1 PUSH4 0xFC36E15B EQ PUSH2 0x122 JUMPI JUMPDEST PUSH1 0x0 DUP1 REVERT JUMPDEST PUSH2 0x6F PUSH2 0x13E JUMP JUMPDEST PUSH1 0x40 MLOAD PUSH2 0x7C SWAP2 SWAP1 PUSH2 0xD30 JUMP JUMPDEST PUSH1 0x40 MLOAD DUP1 SWAP2 SUB SWAP1 RETURN JUMPDEST PUSH2 0x8D PUSH2 0x28F JUMP JUMPDEST PUSH1 0x40 MLOAD PUSH2 0x9B SWAP3 SWAP2 SWAP1 PUSH2 0xD9D JUMP JUMPDEST PUSH1 0x40 MLOAD DUP1 SWAP2 SUB SWAP1 RETURN JUMPDEST PUSH2 0xBE PUSH1 0x4 DUP1 CALLDATASIZE SUB DUP2 ADD SWAP1 PUSH2 0xB9 SWAP2 SWAP1 PUSH2 0xB2C JUMP JUMPDEST PUSH2 0x3A6 JUMP JUMPDEST PUSH1 0x40 MLOAD PUSH2 0xCC SWAP3 SWAP2 SWAP1 PUSH2 0xDCD JUMP JUMPDEST PUSH1 0x40 MLOAD DUP1 SWAP2 SUB SWAP1 RETURN JUMPDEST PUSH2 0xEF PUSH1 0x4 DUP1 CALLDATASIZE SUB DUP2 ADD SWAP1 PUSH2 0xEA SWAP2 SWAP1 PUSH2 0xAB6 JUMP JUMPDEST PUSH2 0x462 JUMP JUMPDEST STOP JUMPDEST PUSH2 0x10B PUSH1 0x4 DUP1 CALLDATASIZE SUB DUP2 ADD SWAP1 PUSH2 0x106 SWAP2 SWAP1 PUSH2 0xAB6 JUMP JUMPDEST PUSH2 0x519 JUMP JUMPDEST PUSH1 0x40 MLOAD PUSH2 0x119 SWAP3 SWAP2 SWAP1 PUSH2 0xD52 JUMP JUMPDEST PUSH1 0x40 MLOAD DUP1 SWAP2 SUB SWAP1 RETURN JUMPDEST PUSH2 0x13C PUSH1 0x4 DUP1 CALLDATASIZE SUB DUP2 ADD SWAP1 PUSH2 0x137 SWAP2 SWAP1 PUSH2 0xAE3 JUMP JUMPDEST PUSH2 0x557 JUMP JUMPDEST STOP JUMPDEST PUSH1 0x60 PUSH1 0x0 PUSH1 0x2 DUP1 SLOAD SWAP1 POP SWAP1 POP PUSH1 0x0 DUP2 PUSH8 0xFFFFFFFFFFFFFFFF DUP2 GT ISZERO PUSH2 0x166 JUMPI PUSH2 0x165 PUSH2 0x111C JUMP JUMPDEST JUMPDEST PUSH1 0x40 MLOAD SWAP1 DUP1 DUP3 MSTORE DUP1 PUSH1 0x20 MUL PUSH1 0x20 ADD DUP3 ADD PUSH1 0x40 MSTORE DUP1 ISZERO PUSH2 0x199 JUMPI DUP2 PUSH1 0x20 ADD JUMPDEST PUSH1 0x60 DUP2 MSTORE PUSH1 0x20 ADD SWAP1 PUSH1 0x1 SWAP1 SUB SWAP1 DUP2 PUSH2 0x184 JUMPI SWAP1 POP JUMPDEST POP SWAP1 POP PUSH1 0x0 JUMPDEST DUP3 DUP2 LT ISZERO PUSH2 0x286 JUMPI PUSH1 0x2 DUP2 DUP2 SLOAD DUP2 LT PUSH2 0x1BB JUMPI PUSH2 0x1BA PUSH2 0x10ED JUMP JUMPDEST JUMPDEST SWAP1 PUSH1 0x0 MSTORE PUSH1 0x20 PUSH1 0x0 KECCAK256 SWAP1 PUSH1 0x2 MUL ADD PUSH1 0x0 ADD DUP1 SLOAD PUSH2 0x1D7 SWAP1 PUSH2 0xFE3 JUMP JUMPDEST DUP1 PUSH1 0x1F ADD PUSH1 0x20 DUP1 SWAP2 DIV MUL PUSH1 0x20 ADD PUSH1 0x40 MLOAD SWAP1 DUP2 ADD PUSH1 0x40 MSTORE DUP1 SWAP3 SWAP2 SWAP1 DUP2 DUP2 MSTORE PUSH1 0x20 ADD DUP3 DUP1 SLOAD PUSH2 0x203 SWAP1 PUSH2 0xFE3 JUMP JUMPDEST DUP1 ISZERO PUSH2 0x250 JUMPI DUP1 PUSH1 0x1F LT PUSH2 0x225 JUMPI PUSH2 0x100 DUP1 DUP4 SLOAD DIV MUL DUP4 MSTORE SWAP2 PUSH1 0x20 ADD SWAP2 PUSH2 0x250 JUMP JUMPDEST DUP3 ADD SWAP2 SWAP1 PUSH1 0x0 MSTORE PUSH1 0x20 PUSH1 0x0 KECCAK256 SWAP1 JUMPDEST DUP2 SLOAD DUP2 MSTORE SWAP1 PUSH1 0x1 ADD SWAP1 PUSH1 0x20 ADD DUP1 DUP4 GT PUSH2 0x233 JUMPI DUP3 SWAP1 SUB PUSH1 0x1F AND DUP3 ADD SWAP2 JUMPDEST POP POP POP POP POP DUP3 DUP3 DUP2 MLOAD DUP2 LT PUSH2 0x268 JUMPI PUSH2 0x267 PUSH2 0x10ED JUMP JUMPDEST JUMPDEST PUSH1 0x20 MUL PUSH1 0x20 ADD ADD DUP2 SWAP1 MSTORE POP DUP1 DUP1 PUSH2 0x27E SWAP1 PUSH2 0x1046 JUMP JUMPDEST SWAP2 POP POP PUSH2 0x19F JUMP JUMPDEST POP DUP1 SWAP3 POP POP POP SWAP1 JUMP JUMPDEST PUSH1 0x60 PUSH1 0x0 DUP1 PUSH1 0x0 PUSH2 0x29E PUSH2 0x749 JUMP JUMPDEST SWAP2 POP SWAP2 POP DUP1 ISZERO PUSH2 0x2E3 JUMPI PUSH1 0x40 MLOAD PUSH32 0x8C379A000000000000000000000000000000000000000000000000000000000 DUP2 MSTORE PUSH1 0x4 ADD PUSH2 0x2DA SWAP1 PUSH2 0xE7D JUMP JUMPDEST PUSH1 0x40 MLOAD DUP1 SWAP2 SUB SWAP1 REVERT JUMPDEST PUSH1 0x2 DUP3 DUP2 SLOAD DUP2 LT PUSH2 0x2F7 JUMPI PUSH2 0x2F6 PUSH2 0x10ED JUMP JUMPDEST JUMPDEST SWAP1 PUSH1 0x0 MSTORE PUSH1 0x20 PUSH1 0x0 KECCAK256 SWAP1 PUSH1 0x2 MUL ADD PUSH1 0x0 ADD DUP1 SLOAD PUSH2 0x313 SWAP1 PUSH2 0xFE3 JUMP JUMPDEST DUP1 PUSH1 0x1F ADD PUSH1 0x20 DUP1 SWAP2 DIV MUL PUSH1 0x20 ADD PUSH1 0x40 MLOAD SWAP1 DUP2 ADD PUSH1 0x40 MSTORE DUP1 SWAP3 SWAP2 SWAP1 DUP2 DUP2 MSTORE PUSH1 0x20 ADD DUP3 DUP1 SLOAD PUSH2 0x33F SWAP1 PUSH2 0xFE3 JUMP JUMPDEST DUP1 ISZERO PUSH2 0x38C JUMPI DUP1 PUSH1 0x1F LT PUSH2 0x361 JUMPI PUSH2 0x100 DUP1 DUP4 SLOAD DIV MUL DUP4 MSTORE SWAP2 PUSH1 0x20 ADD SWAP2 PUSH2 0x38C JUMP JUMPDEST DUP3 ADD SWAP2 SWAP1 PUSH1 0x0 MSTORE PUSH1 0x20 PUSH1 0x0 KECCAK256 SWAP1 JUMPDEST DUP2 SLOAD DUP2 MSTORE SWAP1 PUSH1 0x1 ADD SWAP1 PUSH1 0x20 ADD DUP1 DUP4 GT PUSH2 0x36F JUMPI DUP3 SWAP1 SUB PUSH1 0x1F AND DUP3 ADD SWAP2 JUMPDEST POP POP POP POP POP SWAP4 POP DUP4 PUSH2 0x39C PUSH2 0x80E JUMP JUMPDEST SWAP4 POP SWAP4 POP POP POP SWAP1 SWAP2 JUMP JUMPDEST PUSH1 0x2 DUP2 DUP2 SLOAD DUP2 LT PUSH2 0x3B6 JUMPI PUSH1 0x0 DUP1 REVERT JUMPDEST SWAP1 PUSH1 0x0 MSTORE PUSH1 0x20 PUSH1 0x0 KECCAK256 SWAP1 PUSH1 0x2 MUL ADD PUSH1 0x0 SWAP2 POP SWAP1 POP DUP1 PUSH1 0x0 ADD DUP1 SLOAD PUSH2 0x3D9 SWAP1 PUSH2 0xFE3 JUMP JUMPDEST DUP1 PUSH1 0x1F ADD PUSH1 0x20 DUP1 SWAP2 DIV MUL PUSH1 0x20 ADD PUSH1 0x40 MLOAD SWAP1 DUP2 ADD PUSH1 0x40 MSTORE DUP1 SWAP3 SWAP2 SWAP1 DUP2 DUP2 MSTORE PUSH1 0x20 ADD DUP3 DUP1 SLOAD PUSH2 0x405 SWAP1 PUSH2 0xFE3 JUMP JUMPDEST DUP1 ISZERO PUSH2 0x452 JUMPI DUP1 PUSH1 0x1F LT PUSH2 0x427 JUMPI PUSH2 0x100 DUP1 DUP4 SLOAD DIV MUL DUP4 MSTORE SWAP2 PUSH1 0x20 ADD SWAP2 PUSH2 0x452 JUMP JUMPDEST DUP3 ADD SWAP2 SWAP1 PUSH1 0x0 MSTORE PUSH1 0x20 PUSH1 0x0 KECCAK256 SWAP1 JUMPDEST DUP2 SLOAD DUP2 MSTORE SWAP1 PUSH1 0x1 ADD SWAP1 PUSH1 0x20 ADD DUP1 DUP4 GT PUSH2 0x435 JUMPI DUP3 SWAP1 SUB PUSH1 0x1F AND DUP3 ADD SWAP2 JUMPDEST POP POP POP POP POP SWAP1 DUP1 PUSH1 0x1 ADD SLOAD SWAP1 POP DUP3 JUMP JUMPDEST DUP1 PUSH2 0x46B PUSH2 0x816 JUMP JUMPDEST PUSH2 0x473 PUSH2 0x85E JUMP JUMPDEST PUSH2 0x4B2 JUMPI PUSH1 0x40 MLOAD PUSH32 0x8C379A000000000000000000000000000000000000000000000000000000000 DUP2 MSTORE PUSH1 0x4 ADD PUSH2 0x4A9 SWAP1 PUSH2 0xE1D JUMP JUMPDEST PUSH1 0x40 MLOAD DUP1 SWAP2 SUB SWAP1 REVERT JUMPDEST PUSH2 0x4BB DUP2 PUSH2 0x8B5 JUMP JUMPDEST PUSH1 0x1 DUP1 PUSH1 0x0 DUP5 PUSH20 0xFFFFFFFFFFFFFFFFFFFFFFFFFFFFFFFFFFFFFFFF AND PUSH20 0xFFFFFFFFFFFFFFFFFFFFFFFFFFFFFFFFFFFFFFFF AND DUP2 MSTORE PUSH1 0x20 ADD SWAP1 DUP2 MSTORE PUSH1 0x20 ADD PUSH1 0x0 KECCAK256 PUSH1 0x0 ADD PUSH1 0x0 PUSH2 0x100 EXP DUP2 SLOAD DUP2 PUSH1 0xFF MUL NOT AND SWAP1 DUP4 ISZERO ISZERO MUL OR SWAP1 SSTORE POP POP POP JUMP JUMPDEST PUSH1 0x1 PUSH1 0x20 MSTORE DUP1 PUSH1 0x0 MSTORE PUSH1 0x40 PUSH1 0x0 KECCAK256 PUSH1 0x0 SWAP2 POP SWAP1 POP DUP1 PUSH1 0x0 ADD PUSH1 0x0 SWAP1 SLOAD SWAP1 PUSH2 0x100 EXP SWAP1 DIV PUSH1 0xFF AND SWAP1 DUP1 PUSH1 0x0 ADD PUSH1 0x1 SWAP1 SLOAD SWAP1 PUSH2 0x100 EXP SWAP1 DIV PUSH1 0xFF AND SWAP1 POP DUP3 JUMP JUMPDEST CALLER PUSH2 0x560 PUSH2 0x816 JUMP JUMPDEST PUSH2 0x568 PUSH2 0x901 JUMP JUMPDEST PUSH2 0x5A7 JUMPI PUSH1 0x40 MLOAD PUSH32 0x8C379A000000000000000000000000000000000000000000000000000000000 DUP2 MSTORE PUSH1 0x4 ADD PUSH2 0x59E SWAP1 PUSH2 0xE5D JUMP JUMPDEST PUSH1 0x40 MLOAD DUP1 SWAP2 SUB SWAP1 REVERT JUMPDEST PUSH2 0x5B0 DUP2 PUSH2 0x8B5 JUMP JUMPDEST PUSH1 0x0 PUSH1 0x1 PUSH1 0x0 CALLER PUSH20 0xFFFFFFFFFFFFFFFFFFFFFFFFFFFFFFFFFFFFFFFF AND PUSH20 0xFFFFFFFFFFFFFFFFFFFFFFFFFFFFFFFFFFFFFFFF AND DUP2 MSTORE PUSH1 0x20 ADD SWAP1 DUP2 MSTORE PUSH1 0x20 ADD PUSH1 0x0 KECCAK256 SWAP1 POP PUSH1 0x0 JUMPDEST PUSH1 0x2 DUP1 SLOAD SWAP1 POP DUP2 LT ISZERO PUSH2 0x743 JUMPI PUSH2 0x6BA PUSH1 0x2 DUP3 DUP2 SLOAD DUP2 LT PUSH2 0x61A JUMPI PUSH2 0x619 PUSH2 0x10ED JUMP JUMPDEST JUMPDEST SWAP1 PUSH1 0x0 MSTORE PUSH1 0x20 PUSH1 0x0 KECCAK256 SWAP1 PUSH1 0x2 MUL ADD PUSH1 0x0 ADD DUP1 SLOAD PUSH2 0x636 SWAP1 PUSH2 0xFE3 JUMP JUMPDEST DUP1 PUSH1 0x1F ADD PUSH1 0x20 DUP1 SWAP2 DIV MUL PUSH1 0x20 ADD PUSH1 0x40 MLOAD SWAP1 DUP2 ADD PUSH1 0x40 MSTORE DUP1 SWAP3 SWAP2 SWAP1 DUP2 DUP2 MSTORE PUSH1 0x20 ADD DUP3 DUP1 SLOAD PUSH2 0x662 SWAP1 PUSH2 0xFE3 JUMP JUMPDEST DUP1 ISZERO PUSH2 0x6AF JUMPI DUP1 PUSH1 0x1F LT PUSH2 0x684 JUMPI PUSH2 0x100 DUP1 DUP4 SLOAD DIV MUL DUP4 MSTORE SWAP2 PUSH1 0x20 ADD SWAP2 PUSH2 0x6AF JUMP JUMPDEST DUP3 ADD SWAP2 SWAP1 PUSH1 0x0 MSTORE PUSH1 0x20 PUSH1 0x0 KECCAK256 SWAP1 JUMPDEST DUP2 SLOAD DUP2 MSTORE SWAP1 PUSH1 0x1 ADD SWAP1 PUSH1 0x20 ADD DUP1 DUP4 GT PUSH2 0x692 JUMPI DUP3 SWAP1 SUB PUSH1 0x1F AND DUP3 ADD SWAP2 JUMPDEST POP POP POP POP POP DUP6 PUSH2 0x911 JUMP JUMPDEST ISZERO PUSH2 0x730 JUMPI PUSH1 0x2 DUP2 DUP2 SLOAD DUP2 LT PUSH2 0x6D3 JUMPI PUSH2 0x6D2 PUSH2 0x10ED JUMP JUMPDEST JUMPDEST SWAP1 PUSH1 0x0 MSTORE PUSH1 0x20 PUSH1 0x0 KECCAK256 SWAP1 PUSH1 0x2 MUL ADD PUSH1 0x1 ADD PUSH1 0x0 DUP2 SLOAD DUP1 SWAP3 SWAP2 SWAP1 PUSH2 0x6F5 SWAP1 PUSH2 0x1046 JUMP JUMPDEST SWAP2 SWAP1 POP SSTORE POP PUSH1 0x1 DUP3 PUSH1 0x0 ADD PUSH1 0x1 PUSH2 0x100 EXP DUP2 SLOAD DUP2 PUSH1 0xFF MUL NOT AND SWAP1 DUP4 ISZERO ISZERO MUL OR SWAP1 SSTORE POP PUSH1 0x3 PUSH1 0x0 DUP2 SLOAD DUP1 SWAP3 SWAP2 SWAP1 PUSH2 0x72A SWAP1 PUSH2 0x1046 JUMP JUMPDEST SWAP2 SWAP1 POP SSTORE POP JUMPDEST DUP1 DUP1 PUSH2 0x73B SWAP1 PUSH2 0x1046 JUMP JUMPDEST SWAP2 POP POP PUSH2 0x5F6 JUMP JUMPDEST POP POP POP POP JUMP JUMPDEST PUSH1 0x0 DUP1 PUSH1 0x0 DUP1 PUSH1 0x0 SWAP1 POP JUMPDEST PUSH1 0x2 DUP1 SLOAD SWAP1 POP DUP2 LT ISZERO PUSH2 0x808 JUMPI DUP2 PUSH1 0x2 DUP3 DUP2 SLOAD DUP2 LT PUSH2 0x776 JUMPI PUSH2 0x775 PUSH2 0x10ED JUMP JUMPDEST JUMPDEST SWAP1 PUSH1 0x0 MSTORE PUSH1 0x20 PUSH1 0x0 KECCAK256 SWAP1 PUSH1 0x2 MUL ADD PUSH1 0x1 ADD SLOAD GT ISZERO PUSH2 0x7C2 JUMPI PUSH1 0x2 DUP2 DUP2 SLOAD DUP2 LT PUSH2 0x7A2 JUMPI PUSH2 0x7A1 PUSH2 0x10ED JUMP JUMPDEST JUMPDEST SWAP1 PUSH1 0x0 MSTORE PUSH1 0x20 PUSH1 0x0 KECCAK256 SWAP1 PUSH1 0x2 MUL ADD PUSH1 0x1 ADD SLOAD SWAP2 POP DUP1 SWAP4 POP PUSH1 0x0 SWAP3 POP PUSH2 0x7F5 JUMP JUMPDEST DUP2 PUSH1 0x2 DUP3 DUP2 SLOAD DUP2 LT PUSH2 0x7D7 JUMPI PUSH2 0x7D6 PUSH2 0x10ED JUMP JUMPDEST JUMPDEST SWAP1 PUSH1 0x0 MSTORE PUSH1 0x20 PUSH1 0x0 KECCAK256 SWAP1 PUSH1 0x2 MUL ADD PUSH1 0x1 ADD SLOAD EQ ISZERO PUSH2 0x7F4 JUMPI PUSH1 0x1 SWAP3 POP JUMPDEST JUMPDEST DUP1 DUP1 PUSH2 0x800 SWAP1 PUSH2 0x1046 JUMP JUMPDEST SWAP2 POP POP PUSH2 0x754 JUMP JUMPDEST POP POP SWAP1 SWAP2 JUMP JUMPDEST PUSH1 0x0 ADDRESS SWAP1 POP SWAP1 JUMP JUMPDEST PUSH1 0x4 SLOAD PUSH1 0x3 SLOAD LT PUSH2 0x85C JUMPI PUSH1 0x40 MLOAD PUSH32 0x8C379A000000000000000000000000000000000000000000000000000000000 DUP2 MSTORE PUSH1 0x4 ADD PUSH2 0x853 SWAP1 PUSH2 0xDFD JUMP JUMPDEST PUSH1 0x40 MLOAD DUP1 SWAP2 SUB SWAP1 REVERT JUMPDEST JUMP JUMPDEST PUSH1 0x0 DUP1 PUSH1 0x0 SWAP1 SLOAD SWAP1 PUSH2 0x100 EXP SWAP1 DIV PUSH20 0xFFFFFFFFFFFFFFFFFFFFFFFFFFFFFFFFFFFFFFFF AND PUSH20 0xFFFFFFFFFFFFFFFFFFFFFFFFFFFFFFFFFFFFFFFF AND CALLER PUSH20 0xFFFFFFFFFFFFFFFFFFFFFFFFFFFFFFFFFFFFFFFF AND EQ SWAP1 POP SWAP1 JUMP JUMPDEST PUSH2 0x8BE DUP2 PUSH2 0x96A JUMP JUMPDEST ISZERO PUSH2 0x8FE JUMPI PUSH1 0x40 MLOAD PUSH32 0x8C379A000000000000000000000000000000000000000000000000000000000 DUP2 MSTORE PUSH1 0x4 ADD PUSH2 0x8F5 SWAP1 PUSH2 0xE3D JUMP JUMPDEST PUSH1 0x40 MLOAD DUP1 SWAP2 SUB SWAP1 REVERT JUMPDEST POP JUMP JUMPDEST PUSH1 0x0 PUSH2 0x90C CALLER PUSH2 0x9C3 JUMP JUMPDEST SWAP1 POP SWAP1 JUMP JUMPDEST PUSH1 0x0 DUP2 PUSH1 0x40 MLOAD PUSH1 0x20 ADD PUSH2 0x924 SWAP2 SWAP1 PUSH2 0xD7B JUMP JUMPDEST PUSH1 0x40 MLOAD PUSH1 0x20 DUP2 DUP4 SUB SUB DUP2 MSTORE SWAP1 PUSH1 0x40 MSTORE DUP1 MLOAD SWAP1 PUSH1 0x20 ADD KECCAK256 DUP4 PUSH1 0x40 MLOAD PUSH1 0x20 ADD PUSH2 0x94B SWAP2 SWAP1 PUSH2 0xD7B JUMP JUMPDEST PUSH1 0x40 MLOAD PUSH1 0x20 DUP2 DUP4 SUB SUB DUP2 MSTORE SWAP1 PUSH1 0x40 MSTORE DUP1 MLOAD SWAP1 PUSH1 0x20 ADD KECCAK256 EQ SWAP1 POP SWAP3 SWAP2 POP POP JUMP JUMPDEST PUSH1 0x0 PUSH1 0x1 PUSH1 0x0 DUP4 PUSH20 0xFFFFFFFFFFFFFFFFFFFFFFFFFFFFFFFFFFFFFFFF AND PUSH20 0xFFFFFFFFFFFFFFFFFFFFFFFFFFFFFFFFFFFFFFFF AND DUP2 MSTORE PUSH1 0x20 ADD SWAP1 DUP2 MSTORE PUSH1 0x20 ADD PUSH1 0x0 KECCAK256 PUSH1 0x0 ADD PUSH1 0x1 SWAP1 SLOAD SWAP1 PUSH2 0x100 EXP SWAP1 DIV PUSH1 0xFF AND SWAP1 POP SWAP2 SWAP1 POP JUMP JUMPDEST PUSH1 0x0 PUSH1 0x1 PUSH1 0x0 DUP4 PUSH20 0xFFFFFFFFFFFFFFFFFFFFFFFFFFFFFFFFFFFFFFFF AND PUSH20 0xFFFFFFFFFFFFFFFFFFFFFFFFFFFFFFFFFFFFFFFF AND DUP2 MSTORE PUSH1 0x20 ADD SWAP1 DUP2 MSTORE PUSH1 0x20 ADD PUSH1 0x0 KECCAK256 PUSH1 0x0 ADD PUSH1 0x0 SWAP1 SLOAD SWAP1 PUSH2 0x100 EXP SWAP1 DIV PUSH1 0xFF AND SWAP1 POP SWAP2 SWAP1 POP JUMP JUMPDEST PUSH1 0x0 PUSH2 0xA2F PUSH2 0xA2A DUP5 PUSH2 0xEC2 JUMP JUMPDEST PUSH2 0xE9D JUMP JUMPDEST SWAP1 POP DUP3 DUP2 MSTORE PUSH1 0x20 DUP2 ADD DUP5 DUP5 DUP5 ADD GT ISZERO PUSH2 0xA4B JUMPI PUSH2 0xA4A PUSH2 0x1150 JUMP JUMPDEST JUMPDEST PUSH2 0xA56 DUP5 DUP3 DUP6 PUSH2 0xFA1 JUMP JUMPDEST POP SWAP4 SWAP3 POP POP POP JUMP JUMPDEST PUSH1 0x0 DUP2 CALLDATALOAD SWAP1 POP PUSH2 0xA6D DUP2 PUSH2 0x12D5 JUMP JUMPDEST SWAP3 SWAP2 POP POP JUMP JUMPDEST PUSH1 0x0 DUP3 PUSH1 0x1F DUP4 ADD SLT PUSH2 0xA88 JUMPI PUSH2 0xA87 PUSH2 0x114B JUMP JUMPDEST JUMPDEST DUP2 CALLDATALOAD PUSH2 0xA98 DUP5 DUP3 PUSH1 0x20 DUP7 ADD PUSH2 0xA1C JUMP JUMPDEST SWAP2 POP POP SWAP3 SWAP2 POP POP JUMP JUMPDEST PUSH1 0x0 DUP2 CALLDATALOAD SWAP1 POP PUSH2 0xAB0 DUP2 PUSH2 0x12EC JUMP JUMPDEST SWAP3 SWAP2 POP POP JUMP JUMPDEST PUSH1 0x0 PUSH1 0x20 DUP3 DUP5 SUB SLT ISZERO PUSH2 0xACC JUMPI PUSH2 0xACB PUSH2 0x115A JUMP JUMPDEST JUMPDEST PUSH1 0x0 PUSH2 0xADA DUP5 DUP3 DUP6 ADD PUSH2 0xA5E JUMP JUMPDEST SWAP2 POP POP SWAP3 SWAP2 POP POP JUMP JUMPDEST PUSH1 0x0 PUSH1 0x20 DUP3 DUP5 SUB SLT ISZERO PUSH2 0xAF9 JUMPI PUSH2 0xAF8 PUSH2 0x115A JUMP JUMPDEST JUMPDEST PUSH1 0x0 DUP3 ADD CALLDATALOAD PUSH8 0xFFFFFFFFFFFFFFFF DUP2 GT ISZERO PUSH2 0xB17 JUMPI PUSH2 0xB16 PUSH2 0x1155 JUMP JUMPDEST JUMPDEST PUSH2 0xB23 DUP5 DUP3 DUP6 ADD PUSH2 0xA73 JUMP JUMPDEST SWAP2 POP POP SWAP3 SWAP2 POP POP JUMP JUMPDEST PUSH1 0x0 PUSH1 0x20 DUP3 DUP5 SUB SLT ISZERO PUSH2 0xB42 JUMPI PUSH2 0xB41 PUSH2 0x115A JUMP JUMPDEST JUMPDEST PUSH1 0x0 PUSH2 0xB50 DUP5 DUP3 DUP6 ADD PUSH2 0xAA1 JUMP JUMPDEST SWAP2 POP POP SWAP3 SWAP2 POP POP JUMP JUMPDEST PUSH1 0x0 PUSH2 0xB65 DUP4 DUP4 PUSH2 0xC00 JUMP JUMPDEST SWAP1 POP SWAP3 SWAP2 POP POP JUMP JUMPDEST PUSH2 0xB76 DUP2 PUSH2 0xF59 JUMP JUMPDEST DUP3 MSTORE POP POP JUMP JUMPDEST PUSH1 0x0 PUSH2 0xB87 DUP3 PUSH2 0xF03 JUMP JUMPDEST PUSH2 0xB91 DUP2 DUP6 PUSH2 0xF26 JUMP JUMPDEST SWAP4 POP DUP4 PUSH1 0x20 DUP3 MUL DUP6 ADD PUSH2 0xBA3 DUP6 PUSH2 0xEF3 JUMP JUMPDEST DUP1 PUSH1 0x0 JUMPDEST DUP6 DUP2 LT ISZERO PUSH2 0xBDF JUMPI DUP5 DUP5 SUB DUP10 MSTORE DUP2 MLOAD PUSH2 0xBC0 DUP6 DUP3 PUSH2 0xB59 JUMP JUMPDEST SWAP5 POP PUSH2 0xBCB DUP4 PUSH2 0xF19 JUMP JUMPDEST SWAP3 POP PUSH1 0x20 DUP11 ADD SWAP10 POP POP PUSH1 0x1 DUP2 ADD SWAP1 POP PUSH2 0xBA7 JUMP JUMPDEST POP DUP3 SWAP8 POP DUP8 SWAP6 POP POP POP POP POP POP SWAP3 SWAP2 POP POP JUMP JUMPDEST PUSH2 0xBFA DUP2 PUSH2 0xF6B JUMP JUMPDEST DUP3 MSTORE POP POP JUMP JUMPDEST PUSH1 0x0 PUSH2 0xC0B DUP3 PUSH2 0xF0E JUMP JUMPDEST PUSH2 0xC15 DUP2 DUP6 PUSH2 0xF37 JUMP JUMPDEST SWAP4 POP PUSH2 0xC25 DUP2 DUP6 PUSH1 0x20 DUP7 ADD PUSH2 0xFB0 JUMP JUMPDEST PUSH2 0xC2E DUP2 PUSH2 0x115F JUMP JUMPDEST DUP5 ADD SWAP2 POP POP SWAP3 SWAP2 POP POP JUMP JUMPDEST PUSH1 0x0 PUSH2 0xC44 DUP3 PUSH2 0xF0E JUMP JUMPDEST PUSH2 0xC4E DUP2 DUP6 PUSH2 0xF48 JUMP JUMPDEST SWAP4 POP PUSH2 0xC5E DUP2 DUP6 PUSH1 0x20 DUP7 ADD PUSH2 0xFB0 JUMP JUMPDEST PUSH2 0xC67 DUP2 PUSH2 0x115F JUMP JUMPDEST DUP5 ADD SWAP2 POP POP SWAP3 SWAP2 POP POP JUMP JUMPDEST PUSH1 0x0 PUSH2 0xC7F PUSH1 0x2F DUP4 PUSH2 0xF48 JUMP JUMPDEST SWAP2 POP PUSH2 0xC8A DUP3 PUSH2 0x1170 JUMP JUMPDEST PUSH1 0x40 DUP3 ADD SWAP1 POP SWAP2 SWAP1 POP JUMP JUMPDEST PUSH1 0x0 PUSH2 0xCA2 PUSH1 0x2F DUP4 PUSH2 0xF48 JUMP JUMPDEST SWAP2 POP PUSH2 0xCAD DUP3 PUSH2 0x11BF JUMP JUMPDEST PUSH1 0x40 DUP3 ADD SWAP1 POP SWAP2 SWAP1 POP JUMP JUMPDEST PUSH1 0x0 PUSH2 0xCC5 PUSH1 0x14 DUP4 PUSH2 0xF48 JUMP JUMPDEST SWAP2 POP PUSH2 0xCD0 DUP3 PUSH2 0x120E JUMP JUMPDEST PUSH1 0x20 DUP3 ADD SWAP1 POP SWAP2 SWAP1 POP JUMP JUMPDEST PUSH1 0x0 PUSH2 0xCE8 PUSH1 0x1A DUP4 PUSH2 0xF48 JUMP JUMPDEST SWAP2 POP PUSH2 0xCF3 DUP3 PUSH2 0x1237 JUMP JUMPDEST PUSH1 0x20 DUP3 ADD SWAP1 POP SWAP2 SWAP1 POP JUMP JUMPDEST PUSH1 0x0 PUSH2 0xD0B PUSH1 0x4C DUP4 PUSH2 0xF48 JUMP JUMPDEST SWAP2 POP PUSH2 0xD16 DUP3 PUSH2 0x1260 JUMP JUMPDEST PUSH1 0x60 DUP3 ADD SWAP1 POP SWAP2 SWAP1 POP JUMP JUMPDEST PUSH2 0xD2A DUP2 PUSH2 0xF97 JUMP JUMPDEST DUP3 MSTORE POP POP JUMP JUMPDEST PUSH1 0x0 PUSH1 0x20 DUP3 ADD SWAP1 POP DUP2 DUP2 SUB PUSH1 0x0 DUP4 ADD MSTORE PUSH2 0xD4A DUP2 DUP5 PUSH2 0xB7C JUMP JUMPDEST SWAP1 POP SWAP3 SWAP2 POP POP JUMP JUMPDEST PUSH1 0x0 PUSH1 0x40 DUP3 ADD SWAP1 POP PUSH2 0xD67 PUSH1 0x0 DUP4 ADD DUP6 PUSH2 0xBF1 JUMP JUMPDEST PUSH2 0xD74 PUSH1 0x20 DUP4 ADD DUP5 PUSH2 0xBF1 JUMP JUMPDEST SWAP4 SWAP3 POP POP POP JUMP JUMPDEST PUSH1 0x0 PUSH1 0x20 DUP3 ADD SWAP1 POP DUP2 DUP2 SUB PUSH1 0x0 DUP4 ADD MSTORE PUSH2 0xD95 DUP2 DUP5 PUSH2 0xC39 JUMP JUMPDEST SWAP1 POP SWAP3 SWAP2 POP POP JUMP JUMPDEST PUSH1 0x0 PUSH1 0x40 DUP3 ADD SWAP1 POP DUP2 DUP2 SUB PUSH1 0x0 DUP4 ADD MSTORE PUSH2 0xDB7 DUP2 DUP6 PUSH2 0xC39 JUMP JUMPDEST SWAP1 POP PUSH2 0xDC6 PUSH1 0x20 DUP4 ADD DUP5 PUSH2 0xB6D JUMP JUMPDEST SWAP4 SWAP3 POP POP POP JUMP JUMPDEST PUSH1 0x0 PUSH1 0x40 DUP3 ADD SWAP1 POP DUP2 DUP2 SUB PUSH1 0x0 DUP4 ADD MSTORE PUSH2 0xDE7 DUP2 DUP6 PUSH2 0xC39 JUMP JUMPDEST SWAP1 POP PUSH2 0xDF6 PUSH1 0x20 DUP4 ADD DUP5 PUSH2 0xD21 JUMP JUMPDEST SWAP4 SWAP3 POP POP POP JUMP JUMPDEST PUSH1 0x0 PUSH1 0x20 DUP3 ADD SWAP1 POP DUP2 DUP2 SUB PUSH1 0x0 DUP4 ADD MSTORE PUSH2 0xE16 DUP2 PUSH2 0xC72 JUMP JUMPDEST SWAP1 POP SWAP2 SWAP1 POP JUMP JUMPDEST PUSH1 0x0 PUSH1 0x20 DUP3 ADD SWAP1 POP DUP2 DUP2 SUB PUSH1 0x0 DUP4 ADD MSTORE PUSH2 0xE36 DUP2 PUSH2 0xC95 JUMP JUMPDEST SWAP1 POP SWAP2 SWAP1 POP JUMP JUMPDEST PUSH1 0x0 PUSH1 0x20 DUP3 ADD SWAP1 POP DUP2 DUP2 SUB PUSH1 0x0 DUP4 ADD MSTORE PUSH2 0xE56 DUP2 PUSH2 0xCB8 JUMP JUMPDEST SWAP1 POP SWAP2 SWAP1 POP JUMP JUMPDEST PUSH1 0x0 PUSH1 0x20 DUP3 ADD SWAP1 POP DUP2 DUP2 SUB PUSH1 0x0 DUP4 ADD MSTORE PUSH2 0xE76 DUP2 PUSH2 0xCDB JUMP JUMPDEST SWAP1 POP SWAP2 SWAP1 POP JUMP JUMPDEST PUSH1 0x0 PUSH1 0x20 DUP3 ADD SWAP1 POP DUP2 DUP2 SUB PUSH1 0x0 DUP4 ADD MSTORE PUSH2 0xE96 DUP2 PUSH2 0xCFE JUMP JUMPDEST SWAP1 POP SWAP2 SWAP1 POP JUMP JUMPDEST PUSH1 0x0 PUSH2 0xEA7 PUSH2 0xEB8 JUMP JUMPDEST SWAP1 POP PUSH2 0xEB3 DUP3 DUP3 PUSH2 0x1015 JUMP JUMPDEST SWAP2 SWAP1 POP JUMP JUMPDEST PUSH1 0x0 PUSH1 0x40 MLOAD SWAP1 POP SWAP1 JUMP JUMPDEST PUSH1 0x0 PUSH8 0xFFFFFFFFFFFFFFFF DUP3 GT ISZERO PUSH2 0xEDD JUMPI PUSH2 0xEDC PUSH2 0x111C JUMP JUMPDEST JUMPDEST PUSH2 0xEE6 DUP3 PUSH2 0x115F JUMP JUMPDEST SWAP1 POP PUSH1 0x20 DUP2 ADD SWAP1 POP SWAP2 SWAP1 POP JUMP JUMPDEST PUSH1 0x0 DUP2 SWAP1 POP PUSH1 0x20 DUP3 ADD SWAP1 POP SWAP2 SWAP1 POP JUMP JUMPDEST PUSH1 0x0 DUP2 MLOAD SWAP1 POP SWAP2 SWAP1 POP JUMP JUMPDEST PUSH1 0x0 DUP2 MLOAD SWAP1 POP SWAP2 SWAP1 POP JUMP JUMPDEST PUSH1 0x0 PUSH1 0x20 DUP3 ADD SWAP1 POP SWAP2 SWAP1 POP JUMP JUMPDEST PUSH1 0x0 DUP3 DUP3 MSTORE PUSH1 0x20 DUP3 ADD SWAP1 POP SWAP3 SWAP2 POP POP JUMP JUMPDEST PUSH1 0x0 DUP3 DUP3 MSTORE PUSH1 0x20 DUP3 ADD SWAP1 POP SWAP3 SWAP2 POP POP JUMP JUMPDEST PUSH1 0x0 DUP3 DUP3 MSTORE PUSH1 0x20 DUP3 ADD SWAP1 POP SWAP3 SWAP2 POP POP JUMP JUMPDEST PUSH1 0x0 PUSH2 0xF64 DUP3 PUSH2 0xF77 JUMP JUMPDEST SWAP1 POP SWAP2 SWAP1 POP JUMP JUMPDEST PUSH1 0x0 DUP2 ISZERO ISZERO SWAP1 POP SWAP2 SWAP1 POP JUMP JUMPDEST PUSH1 0x0 PUSH20 0xFFFFFFFFFFFFFFFFFFFFFFFFFFFFFFFFFFFFFFFF DUP3 AND SWAP1 POP SWAP2 SWAP1 POP JUMP JUMPDEST PUSH1 0x0 DUP2 SWAP1 POP SWAP2 SWAP1 POP JUMP JUMPDEST DUP3 DUP2 DUP4 CALLDATACOPY PUSH1 0x0 DUP4 DUP4 ADD MSTORE POP POP POP JUMP JUMPDEST PUSH1 0x0 JUMPDEST DUP4 DUP2 LT ISZERO PUSH2 0xFCE JUMPI DUP1 DUP3 ADD MLOAD DUP2 DUP5 ADD MSTORE PUSH1 0x20 DUP2 ADD SWAP1 POP PUSH2 0xFB3 JUMP JUMPDEST DUP4 DUP2 GT ISZERO PUSH2 0xFDD JUMPI PUSH1 0x0 DUP5 DUP5 ADD MSTORE JUMPDEST POP POP POP POP JUMP JUMPDEST PUSH1 0x0 PUSH1 0x2 DUP3 DIV SWAP1 POP PUSH1 0x1 DUP3 AND DUP1 PUSH2 0xFFB JUMPI PUSH1 0x7F DUP3 AND SWAP2 POP JUMPDEST PUSH1 0x20 DUP3 LT DUP2 EQ ISZERO PUSH2 0x100F JUMPI PUSH2 0x100E PUSH2 0x10BE JUMP JUMPDEST JUMPDEST POP SWAP2 SWAP1 POP JUMP JUMPDEST PUSH2 0x101E DUP3 PUSH2 0x115F JUMP JUMPDEST DUP2 ADD DUP2 DUP2 LT PUSH8 0xFFFFFFFFFFFFFFFF DUP3 GT OR ISZERO PUSH2 0x103D JUMPI PUSH2 0x103C PUSH2 0x111C JUMP JUMPDEST JUMPDEST DUP1 PUSH1 0x40 MSTORE POP POP POP JUMP JUMPDEST PUSH1 0x0 PUSH2 0x1051 DUP3 PUSH2 0xF97 JUMP JUMPDEST SWAP2 POP PUSH32 0xFFFFFFFFFFFFFFFFFFFFFFFFFFFFFFFFFFFFFFFFFFFFFFFFFFFFFFFFFFFFFFFF DUP3 EQ ISZERO PUSH2 0x1084 JUMPI PUSH2 0x1083 PUSH2 0x108F JUMP JUMPDEST JUMPDEST PUSH1 0x1 DUP3 ADD SWAP1 POP SWAP2 SWAP1 POP JUMP JUMPDEST PUSH32 0x4E487B7100000000000000000000000000000000000000000000000000000000 PUSH1 0x0 MSTORE PUSH1 0x11 PUSH1 0x4 MSTORE PUSH1 0x24 PUSH1 0x0 REVERT JUMPDEST PUSH32 0x4E487B7100000000000000000000000000000000000000000000000000000000 PUSH1 0x0 MSTORE PUSH1 0x22 PUSH1 0x4 MSTORE PUSH1 0x24 PUSH1 0x0 REVERT JUMPDEST PUSH32 0x4E487B7100000000000000000000000000000000000000000000000000000000 PUSH1 0x0 MSTORE PUSH1 0x32 PUSH1 0x4 MSTORE PUSH1 0x24 PUSH1 0x0 REVERT JUMPDEST PUSH32 0x4E487B7100000000000000000000000000000000000000000000000000000000 PUSH1 0x0 MSTORE PUSH1 0x41 PUSH1 0x4 MSTORE PUSH1 0x24 PUSH1 0x0 REVERT JUMPDEST PUSH1 0x0 DUP1 REVERT JUMPDEST PUSH1 0x0 DUP1 REVERT JUMPDEST PUSH1 0x0 DUP1 REVERT JUMPDEST PUSH1 0x0 DUP1 REVERT JUMPDEST PUSH1 0x0 PUSH1 0x1F NOT PUSH1 0x1F DUP4 ADD AND SWAP1 POP SWAP2 SWAP1 POP JUMP JUMPDEST PUSH32 0x4D6178206163636F756E7420766F74657320697320726561636865642E204261 PUSH1 0x0 DUP3 ADD MSTORE PUSH32 0x6C6C6F7420697320434C4F5345442E0000000000000000000000000000000000 PUSH1 0x20 DUP3 ADD MSTORE POP JUMP JUMPDEST PUSH32 0x4F6E6C792074686520636F6E7472616374206F776E65722063616E2067697665 PUSH1 0x0 DUP3 ADD MSTORE PUSH32 0x20726967687420746F20766F74652E0000000000000000000000000000000000 PUSH1 0x20 DUP3 ADD MSTORE POP JUMP JUMPDEST PUSH32 0x566F74657220616C726561647920766F7465642E000000000000000000000000 PUSH1 0x0 DUP3 ADD MSTORE POP JUMP JUMPDEST PUSH32 0x596F752068617665206E6F7420726967687420746F20766F7465000000000000 PUSH1 0x0 DUP3 ADD MSTORE POP JUMP JUMPDEST PUSH32 0x5468657265206973206120746965206F6E2042616C6C6F742E20596F75207368 PUSH1 0x0 DUP3 ADD MSTORE PUSH32 0x6F756C642073746172742061206E65772062616C6C6F74207769746820746965 PUSH1 0x20 DUP3 ADD MSTORE PUSH32 0x2063616E646964617465732E0000000000000000000000000000000000000000 PUSH1 0x40 DUP3 ADD MSTORE POP JUMP JUMPDEST PUSH2 0x12DE DUP2 PUSH2 0xF59 JUMP JUMPDEST DUP2 EQ PUSH2 0x12E9 JUMPI PUSH1 0x0 DUP1 REVERT JUMPDEST POP JUMP JUMPDEST PUSH2 0x12F5 DUP2 PUSH2 0xF97 JUMP JUMPDEST DUP2 EQ PUSH2 0x1300 JUMPI PUSH1 0x0 DUP1 REVERT JUMPDEST POP JUMP INVALID LOG2 PUSH5 0x6970667358 0x22 SLT KECCAK256 SELFBALANCE 0xD8 PUSH12 0x739706E3232C46E0ACB6AB91 BLOCKHASH DUP16 PUSH14 0x1E340E488C71010F75254C2BB4CE PUSH5 0x736F6C6343 STOP ADDMOD SMOD STOP CALLER "
				},
				"gasEstimates": {
					"creation": {
						"codeDepositCost": "984200",
						"executionCost": "infinite",
						"totalCost": "infinite"
					},
					"external": {
						"candidates(uint256)": "infinite",
						"getCandidatesListName()": "infinite",
						"getWinnerName()": "infinite",
						"giveRightToVote(address)": "33693",
						"vote(string)": "infinite",
						"voters(address)": "infinite"
					},
					"internal": {
						"areYouContractOwner()": "2176",
						"areYouHaveRigthToVote()": "2303",
						"areYouVoted()": "infinite",
						"getContractAddress()": "22",
						"getTotalVotesCounterReachedRequire()": "infinite",
						"getVoterRigthToVote(address)": "2266",
						"getVoterVoted(address)": "2316",
						"getVoterVotedRequire(address)": "infinite",
						"getWinningCandidate()": "infinite",
						"setCandidatesIntoStorage(string memory[] memory)": "infinite",
						"stringEqualTo(string memory,string memory)": "infinite"
					}
				},
				"methodIdentifiers": {
					"candidates(uint256)": "3477ee2e",
					"getCandidatesListName()": "011d1023",
					"getWinnerName()": "2bfda515",
					"giveRightToVote(address)": "9e7b8d61",
					"vote(string)": "fc36e15b",
					"voters(address)": "a3ec138d"
				}
			},
			"storageLayout": {
				"storage": [
					{
						"astId": 13,
						"contract": "contracts/Ballot/Ballot.sol:MyBallot",
						"label": "contractOwner",
						"offset": 0,
						"slot": "0",
						"type": "t_address"
					},
					{
						"astId": 18,
						"contract": "contracts/Ballot/Ballot.sol:MyBallot",
						"label": "voters",
						"offset": 0,
						"slot": "1",
						"type": "t_mapping(t_address,t_struct(Voter)6_storage)"
					},
					{
						"astId": 22,
						"contract": "contracts/Ballot/Ballot.sol:MyBallot",
						"label": "candidates",
						"offset": 0,
						"slot": "2",
						"type": "t_array(t_struct(Candidate)11_storage)dyn_storage"
					},
					{
						"astId": 24,
						"contract": "contracts/Ballot/Ballot.sol:MyBallot",
						"label": "totalVotesCounter",
						"offset": 0,
						"slot": "3",
						"type": "t_uint256"
					},
					{
						"astId": 26,
						"contract": "contracts/Ballot/Ballot.sol:MyBallot",
						"label": "maxVotes",
						"offset": 0,
						"slot": "4",
						"type": "t_uint256"
					}
				],
				"types": {
					"t_address": {
						"encoding": "inplace",
						"label": "address",
						"numberOfBytes": "20"
					},
					"t_array(t_struct(Candidate)11_storage)dyn_storage": {
						"base": "t_struct(Candidate)11_storage",
						"encoding": "dynamic_array",
						"label": "struct MyBallot.Candidate[]",
						"numberOfBytes": "32"
					},
					"t_bool": {
						"encoding": "inplace",
						"label": "bool",
						"numberOfBytes": "1"
					},
					"t_mapping(t_address,t_struct(Voter)6_storage)": {
						"encoding": "mapping",
						"key": "t_address",
						"label": "mapping(address => struct MyBallot.Voter)",
						"numberOfBytes": "32",
						"value": "t_struct(Voter)6_storage"
					},
					"t_string_storage": {
						"encoding": "bytes",
						"label": "string",
						"numberOfBytes": "32"
					},
					"t_struct(Candidate)11_storage": {
						"encoding": "inplace",
						"label": "struct MyBallot.Candidate",
						"members": [
							{
								"astId": 8,
								"contract": "contracts/Ballot/Ballot.sol:MyBallot",
								"label": "nameProject",
								"offset": 0,
								"slot": "0",
								"type": "t_string_storage"
							},
							{
								"astId": 10,
								"contract": "contracts/Ballot/Ballot.sol:MyBallot",
								"label": "votesCount",
								"offset": 0,
								"slot": "1",
								"type": "t_uint256"
							}
						],
						"numberOfBytes": "64"
					},
					"t_struct(Voter)6_storage": {
						"encoding": "inplace",
						"label": "struct MyBallot.Voter",
						"members": [
							{
								"astId": 3,
								"contract": "contracts/Ballot/Ballot.sol:MyBallot",
								"label": "canVote",
								"offset": 0,
								"slot": "0",
								"type": "t_bool"
							},
							{
								"astId": 5,
								"contract": "contracts/Ballot/Ballot.sol:MyBallot",
								"label": "hasVoted",
								"offset": 1,
								"slot": "0",
								"type": "t_bool"
							}
						],
						"numberOfBytes": "32"
					},
					"t_uint256": {
						"encoding": "inplace",
						"label": "uint256",
						"numberOfBytes": "32"
					}
				}
			},
			"userdoc": {
				"kind": "user",
				"methods": {},
				"version": 1
			}
		}
	}
}