{
	"contracts/Ballot/Ballot.sol": {
		"MyBallot": {
			"abi": [
				{
					"inputs": [
						{
							"components": [
								{
									"internalType": "string",
									"name": "name",
									"type": "string"
								},
								{
									"internalType": "string",
									"name": "party",
									"type": "string"
								},
								{
									"internalType": "uint256",
									"name": "votesCount",
									"type": "uint256"
								}
							],
							"internalType": "struct MyBallot.Candidate[]",
							"name": "_candidates",
							"type": "tuple[]"
						},
						{
							"internalType": "uint256",
							"name": "_maxVotes",
							"type": "uint256"
						}
					],
					"stateMutability": "nonpayable",
					"type": "constructor"
				},
				{
					"inputs": [],
					"name": "areYouContractOwner",
					"outputs": [
						{
							"internalType": "bool",
							"name": "",
							"type": "bool"
						}
					],
					"stateMutability": "view",
					"type": "function"
				},
				{
					"inputs": [],
					"name": "areYouHaveRigthToVote",
					"outputs": [
						{
							"internalType": "bool",
							"name": "",
							"type": "bool"
						}
					],
					"stateMutability": "view",
					"type": "function"
				},
				{
					"inputs": [],
					"name": "areYouVoted",
					"outputs": [
						{
							"internalType": "bool",
							"name": "",
							"type": "bool"
						}
					],
					"stateMutability": "view",
					"type": "function"
				},
				{
					"inputs": [
						{
							"internalType": "uint256",
							"name": "",
							"type": "uint256"
						}
					],
					"name": "candidates",
					"outputs": [
						{
							"internalType": "string",
							"name": "name",
							"type": "string"
						},
						{
							"internalType": "string",
							"name": "party",
							"type": "string"
						},
						{
							"internalType": "uint256",
							"name": "votesCount",
							"type": "uint256"
						}
					],
					"stateMutability": "view",
					"type": "function"
				},
				{
					"inputs": [],
					"name": "contractOwner",
					"outputs": [
						{
							"internalType": "address",
							"name": "",
							"type": "address"
						}
					],
					"stateMutability": "view",
					"type": "function"
				},
				{
					"inputs": [],
					"name": "getCandidatesList",
					"outputs": [
						{
							"components": [
								{
									"internalType": "string",
									"name": "name",
									"type": "string"
								},
								{
									"internalType": "string",
									"name": "party",
									"type": "string"
								},
								{
									"internalType": "uint256",
									"name": "votesCount",
									"type": "uint256"
								}
							],
							"internalType": "struct MyBallot.Candidate[]",
							"name": "",
							"type": "tuple[]"
						}
					],
					"stateMutability": "view",
					"type": "function"
				},
				{
					"inputs": [],
					"name": "getContractAddress",
					"outputs": [
						{
							"internalType": "address",
							"name": "",
							"type": "address"
						}
					],
					"stateMutability": "view",
					"type": "function"
				},
				{
					"inputs": [
						{
							"internalType": "address",
							"name": "voterAddress",
							"type": "address"
						}
					],
					"name": "getVoterRigthToVote",
					"outputs": [
						{
							"internalType": "bool",
							"name": "",
							"type": "bool"
						}
					],
					"stateMutability": "view",
					"type": "function"
				},
				{
					"inputs": [
						{
							"internalType": "address",
							"name": "voterAddress",
							"type": "address"
						}
					],
					"name": "getVoterVoted",
					"outputs": [
						{
							"internalType": "bool",
							"name": "",
							"type": "bool"
						}
					],
					"stateMutability": "view",
					"type": "function"
				},
				{
					"inputs": [],
					"name": "getWinnerName",
					"outputs": [
						{
							"internalType": "string",
							"name": "winnerName",
							"type": "string"
						}
					],
					"stateMutability": "view",
					"type": "function"
				},
				{
					"inputs": [],
					"name": "getWinningCandidate",
					"outputs": [
						{
							"internalType": "uint256",
							"name": "winningProposal",
							"type": "uint256"
						},
						{
							"internalType": "bool",
							"name": "isTie",
							"type": "bool"
						}
					],
					"stateMutability": "view",
					"type": "function"
				},
				{
					"inputs": [
						{
							"internalType": "address",
							"name": "voterAddress",
							"type": "address"
						}
					],
					"name": "giveRightToVote",
					"outputs": [],
					"stateMutability": "nonpayable",
					"type": "function"
				},
				{
					"inputs": [
						{
							"internalType": "string",
							"name": "name",
							"type": "string"
						}
					],
					"name": "vote",
					"outputs": [],
					"stateMutability": "nonpayable",
					"type": "function"
				},
				{
					"inputs": [
						{
							"internalType": "address",
							"name": "",
							"type": "address"
						}
					],
					"name": "voters",
					"outputs": [
						{
							"internalType": "bool",
							"name": "canVote",
							"type": "bool"
						},
						{
							"internalType": "bool",
							"name": "hasVoted",
							"type": "bool"
						}
					],
					"stateMutability": "view",
					"type": "function"
				}
			],
			"devdoc": {
				"kind": "dev",
				"methods": {},
				"version": 1
			},
			"evm": {
				"assembly": "    /* \"contracts/Ballot/Ballot.sol\":70:4760  contract MyBallot {\r... */\n  mstore(0x40, 0x80)\n    /* \"contracts/Ballot/Ballot.sol\":491:683  constructor(Candidate[] memory _candidates, uint _maxVotes) {\r... */\n  callvalue\n  dup1\n  iszero\n  tag_1\n  jumpi\n  0x00\n  dup1\n  revert\ntag_1:\n  pop\n  mload(0x40)\n  sub(codesize, bytecodeSize)\n  dup1\n  bytecodeSize\n  dup4\n  codecopy\n  dup2\n  dup2\n  add\n  0x40\n  mstore\n  dup2\n  add\n  swap1\n  tag_2\n  swap2\n  swap1\n  tag_3\n  jump\t// in\ntag_2:\n    /* \"contracts/Ballot/Ballot.sol\":578:588  msg.sender */\n  caller\n    /* \"contracts/Ballot/Ballot.sol\":562:575  contractOwner */\n  0x00\n  dup1\n    /* \"contracts/Ballot/Ballot.sol\":562:588  contractOwner = msg.sender */\n  0x0100\n  exp\n  dup2\n  sload\n  dup2\n  0xffffffffffffffffffffffffffffffffffffffff\n  mul\n  not\n  and\n  swap1\n  dup4\n  0xffffffffffffffffffffffffffffffffffffffff\n  and\n  mul\n  or\n  swap1\n  sstore\n  pop\n    /* \"contracts/Ballot/Ballot.sol\":599:636  setCandidatesIntoStorage(_candidates) */\n  tag_6\n    /* \"contracts/Ballot/Ballot.sol\":624:635  _candidates */\n  dup3\n    /* \"contracts/Ballot/Ballot.sol\":599:623  setCandidatesIntoStorage */\n  shl(0x20, tag_7)\n    /* \"contracts/Ballot/Ballot.sol\":599:636  setCandidatesIntoStorage(_candidates) */\n  0x20\n  shr\n  jump\t// in\ntag_6:\n    /* \"contracts/Ballot/Ballot.sol\":666:675  _maxVotes */\n  dup1\n    /* \"contracts/Ballot/Ballot.sol\":655:663  maxVotes */\n  0x04\n    /* \"contracts/Ballot/Ballot.sol\":655:675  maxVotes = _maxVotes */\n  dup2\n  swap1\n  sstore\n  pop\n    /* \"contracts/Ballot/Ballot.sol\":491:683  constructor(Candidate[] memory _candidates, uint _maxVotes) {\r... */\n  pop\n  pop\n    /* \"contracts/Ballot/Ballot.sol\":70:4760  contract MyBallot {\r... */\n  jump(tag_8)\n    /* \"contracts/Ballot/Ballot.sol\":1537:1887  function setCandidatesIntoStorage(Candidate[] memory _candidates) private {\r... */\ntag_7:\n    /* \"contracts/Ballot/Ballot.sol\":1627:1637  uint index */\n  0x00\n    /* \"contracts/Ballot/Ballot.sol\":1622:1880  for (uint index = 0; index < _candidates.length; index++) {\r... */\ntag_10:\n    /* \"contracts/Ballot/Ballot.sol\":1651:1662  _candidates */\n  dup2\n    /* \"contracts/Ballot/Ballot.sol\":1651:1669  _candidates.length */\n  mload\n    /* \"contracts/Ballot/Ballot.sol\":1643:1648  index */\n  dup2\n    /* \"contracts/Ballot/Ballot.sol\":1643:1669  index < _candidates.length */\n  lt\n    /* \"contracts/Ballot/Ballot.sol\":1622:1880  for (uint index = 0; index < _candidates.length; index++) {\r... */\n  iszero\n  tag_11\n  jumpi\n    /* \"contracts/Ballot/Ballot.sol\":1695:1705  candidates */\n  0x02\n    /* \"contracts/Ballot/Ballot.sol\":1711:1867  Candidate({\r... */\n  mload(0x40)\n  dup1\n  0x60\n  add\n  0x40\n  mstore\n  dup1\n    /* \"contracts/Ballot/Ballot.sol\":1746:1757  _candidates */\n  dup5\n    /* \"contracts/Ballot/Ballot.sol\":1758:1763  index */\n  dup5\n    /* \"contracts/Ballot/Ballot.sol\":1746:1764  _candidates[index] */\n  dup2\n  mload\n  dup2\n  lt\n  tag_13\n  jumpi\n  tag_14\n  tag_15\n  jump\t// in\ntag_14:\ntag_13:\n  0x20\n  mul\n  0x20\n  add\n  add\n  mload\n    /* \"contracts/Ballot/Ballot.sol\":1746:1769  _candidates[index].name */\n  0x00\n  add\n  mload\n    /* \"contracts/Ballot/Ballot.sol\":1711:1867  Candidate({\r... */\n  dup2\n  mstore\n  0x20\n  add\n    /* \"contracts/Ballot/Ballot.sol\":1795:1806  _candidates */\n  dup5\n    /* \"contracts/Ballot/Ballot.sol\":1807:1812  index */\n  dup5\n    /* \"contracts/Ballot/Ballot.sol\":1795:1813  _candidates[index] */\n  dup2\n  mload\n  dup2\n  lt\n  tag_16\n  jumpi\n  tag_17\n  tag_15\n  jump\t// in\ntag_17:\ntag_16:\n  0x20\n  mul\n  0x20\n  add\n  add\n  mload\n    /* \"contracts/Ballot/Ballot.sol\":1795:1819  _candidates[index].party */\n  0x20\n  add\n  mload\n    /* \"contracts/Ballot/Ballot.sol\":1711:1867  Candidate({\r... */\n  dup2\n  mstore\n  0x20\n  add\n    /* \"contracts/Ballot/Ballot.sol\":1850:1851  0 */\n  0x00\n    /* \"contracts/Ballot/Ballot.sol\":1711:1867  Candidate({\r... */\n  dup2\n  mstore\n  pop\n    /* \"contracts/Ballot/Ballot.sol\":1695:1868  candidates.push(Candidate({\r... */\n  swap1\n  dup1\n  0x01\n  dup2\n  sload\n  add\n  dup1\n  dup3\n  sstore\n  dup1\n  swap2\n  pop\n  pop\n  0x01\n  swap1\n  sub\n  swap1\n  0x00\n  mstore\n  keccak256(0x00, 0x20)\n  swap1\n  0x03\n  mul\n  add\n  0x00\n  swap1\n  swap2\n  swap1\n  swap2\n  swap1\n  swap2\n  pop\n  0x00\n  dup3\n  add\n  mload\n  dup2\n  0x00\n  add\n  swap1\n  dup1\n  mload\n  swap1\n  0x20\n  add\n  swap1\n  tag_19\n  swap3\n  swap2\n  swap1\n  tag_20\n  jump\t// in\ntag_19:\n  pop\n  0x20\n  dup3\n  add\n  mload\n  dup2\n  0x01\n  add\n  swap1\n  dup1\n  mload\n  swap1\n  0x20\n  add\n  swap1\n  tag_21\n  swap3\n  swap2\n  swap1\n  tag_20\n  jump\t// in\ntag_21:\n  pop\n  0x40\n  dup3\n  add\n  mload\n  dup2\n  0x02\n  add\n  sstore\n  pop\n  pop\n    /* \"contracts/Ballot/Ballot.sol\":1671:1678  index++ */\n  dup1\n  dup1\n  tag_22\n  swap1\n  tag_23\n  jump\t// in\ntag_22:\n  swap2\n  pop\n  pop\n    /* \"contracts/Ballot/Ballot.sol\":1622:1880  for (uint index = 0; index < _candidates.length; index++) {\r... */\n  jump(tag_10)\ntag_11:\n  pop\n    /* \"contracts/Ballot/Ballot.sol\":1537:1887  function setCandidatesIntoStorage(Candidate[] memory _candidates) private {\r... */\n  pop\n  jump\t// out\n    /* \"contracts/Ballot/Ballot.sol\":70:4760  contract MyBallot {\r... */\ntag_20:\n  dup3\n  dup1\n  sload\n  tag_24\n  swap1\n  tag_25\n  jump\t// in\ntag_24:\n  swap1\n  0x00\n  mstore\n  keccak256(0x00, 0x20)\n  swap1\n  0x1f\n  add\n  0x20\n  swap1\n  div\n  dup2\n  add\n  swap3\n  dup3\n  tag_27\n  jumpi\n  0x00\n  dup6\n  sstore\n  jump(tag_26)\ntag_27:\n  dup3\n  0x1f\n  lt\n  tag_28\n  jumpi\n  dup1\n  mload\n  not(0xff)\n  and\n  dup4\n  dup1\n  add\n  or\n  dup6\n  sstore\n  jump(tag_26)\ntag_28:\n  dup3\n  dup1\n  add\n  0x01\n  add\n  dup6\n  sstore\n  dup3\n  iszero\n  tag_26\n  jumpi\n  swap2\n  dup3\n  add\ntag_29:\n  dup3\n  dup2\n  gt\n  iszero\n  tag_30\n  jumpi\n  dup3\n  mload\n  dup3\n  sstore\n  swap2\n  0x20\n  add\n  swap2\n  swap1\n  0x01\n  add\n  swap1\n  jump(tag_29)\ntag_30:\ntag_26:\n  pop\n  swap1\n  pop\n  tag_31\n  swap2\n  swap1\n  tag_32\n  jump\t// in\ntag_31:\n  pop\n  swap1\n  jump\t// out\ntag_32:\ntag_33:\n  dup1\n  dup3\n  gt\n  iszero\n  tag_34\n  jumpi\n  0x00\n  dup2\n  0x00\n  swap1\n  sstore\n  pop\n  0x01\n  add\n  jump(tag_33)\ntag_34:\n  pop\n  swap1\n  jump\t// out\n    /* \"#utility.yul\":42:1059   */\ntag_36:\n    /* \"#utility.yul\":174:179   */\n  0x00\n    /* \"#utility.yul\":199:305   */\n  tag_38\n    /* \"#utility.yul\":215:304   */\n  tag_39\n    /* \"#utility.yul\":297:303   */\n  dup5\n    /* \"#utility.yul\":215:304   */\n  tag_40\n  jump\t// in\ntag_39:\n    /* \"#utility.yul\":199:305   */\n  tag_41\n  jump\t// in\ntag_38:\n    /* \"#utility.yul\":190:305   */\n  swap1\n  pop\n    /* \"#utility.yul\":325:330   */\n  dup1\n    /* \"#utility.yul\":354:360   */\n  dup4\n    /* \"#utility.yul\":347:352   */\n  dup3\n    /* \"#utility.yul\":340:361   */\n  mstore\n    /* \"#utility.yul\":388:392   */\n  0x20\n    /* \"#utility.yul\":381:386   */\n  dup3\n    /* \"#utility.yul\":377:393   */\n  add\n    /* \"#utility.yul\":370:393   */\n  swap1\n  pop\n    /* \"#utility.yul\":414:420   */\n  dup3\n    /* \"#utility.yul\":464:467   */\n  dup6\n    /* \"#utility.yul\":456:460   */\n  0x20\n    /* \"#utility.yul\":448:454   */\n  dup7\n    /* \"#utility.yul\":444:461   */\n  mul\n    /* \"#utility.yul\":439:442   */\n  dup3\n    /* \"#utility.yul\":435:462   */\n  add\n    /* \"#utility.yul\":432:468   */\n  gt\n    /* \"#utility.yul\":429:572   */\n  iszero\n  tag_42\n  jumpi\n    /* \"#utility.yul\":483:562   */\n  tag_43\n  tag_44\n  jump\t// in\ntag_43:\n    /* \"#utility.yul\":429:572   */\ntag_42:\n    /* \"#utility.yul\":596:597   */\n  0x00\n    /* \"#utility.yul\":581:1053   */\ntag_45:\n    /* \"#utility.yul\":606:612   */\n  dup6\n    /* \"#utility.yul\":603:604   */\n  dup2\n    /* \"#utility.yul\":600:613   */\n  lt\n    /* \"#utility.yul\":581:1053   */\n  iszero\n  tag_47\n  jumpi\n    /* \"#utility.yul\":681:684   */\n  dup2\n    /* \"#utility.yul\":675:685   */\n  mload\n    /* \"#utility.yul\":717:735   */\n  0xffffffffffffffff\n    /* \"#utility.yul\":704:715   */\n  dup2\n    /* \"#utility.yul\":701:736   */\n  gt\n    /* \"#utility.yul\":698:820   */\n  iszero\n  tag_48\n  jumpi\n    /* \"#utility.yul\":739:818   */\n  tag_49\n  tag_50\n  jump\t// in\ntag_49:\n    /* \"#utility.yul\":698:820   */\ntag_48:\n    /* \"#utility.yul\":863:874   */\n  dup1\n    /* \"#utility.yul\":855:861   */\n  dup7\n    /* \"#utility.yul\":851:875   */\n  add\n    /* \"#utility.yul\":901:974   */\n  tag_51\n    /* \"#utility.yul\":970:973   */\n  dup10\n    /* \"#utility.yul\":958:968   */\n  dup3\n    /* \"#utility.yul\":901:974   */\n  tag_52\n  jump\t// in\ntag_51:\n    /* \"#utility.yul\":896:899   */\n  dup6\n    /* \"#utility.yul\":889:975   */\n  mstore\n    /* \"#utility.yul\":1004:1008   */\n  0x20\n    /* \"#utility.yul\":999:1002   */\n  dup6\n    /* \"#utility.yul\":995:1009   */\n  add\n    /* \"#utility.yul\":988:1009   */\n  swap5\n  pop\n    /* \"#utility.yul\":1038:1042   */\n  0x20\n    /* \"#utility.yul\":1033:1036   */\n  dup5\n    /* \"#utility.yul\":1029:1043   */\n  add\n    /* \"#utility.yul\":1022:1043   */\n  swap4\n  pop\n    /* \"#utility.yul\":641:1053   */\n  pop\n  pop\n    /* \"#utility.yul\":628:629   */\n  0x01\n    /* \"#utility.yul\":625:626   */\n  dup2\n    /* \"#utility.yul\":621:630   */\n  add\n    /* \"#utility.yul\":616:630   */\n  swap1\n  pop\n    /* \"#utility.yul\":581:1053   */\n  jump(tag_45)\ntag_47:\n    /* \"#utility.yul\":585:599   */\n  pop\n    /* \"#utility.yul\":180:1059   */\n  pop\n  pop\n    /* \"#utility.yul\":42:1059   */\n  swap4\n  swap3\n  pop\n  pop\n  pop\n  jump\t// out\n    /* \"#utility.yul\":1065:1486   */\ntag_53:\n    /* \"#utility.yul\":1154:1159   */\n  0x00\n    /* \"#utility.yul\":1179:1245   */\n  tag_55\n    /* \"#utility.yul\":1195:1244   */\n  tag_56\n    /* \"#utility.yul\":1237:1243   */\n  dup5\n    /* \"#utility.yul\":1195:1244   */\n  tag_57\n  jump\t// in\ntag_56:\n    /* \"#utility.yul\":1179:1245   */\n  tag_41\n  jump\t// in\ntag_55:\n    /* \"#utility.yul\":1170:1245   */\n  swap1\n  pop\n    /* \"#utility.yul\":1268:1274   */\n  dup3\n    /* \"#utility.yul\":1261:1266   */\n  dup2\n    /* \"#utility.yul\":1254:1275   */\n  mstore\n    /* \"#utility.yul\":1306:1310   */\n  0x20\n    /* \"#utility.yul\":1299:1304   */\n  dup2\n    /* \"#utility.yul\":1295:1311   */\n  add\n    /* \"#utility.yul\":1344:1347   */\n  dup5\n    /* \"#utility.yul\":1335:1341   */\n  dup5\n    /* \"#utility.yul\":1330:1333   */\n  dup5\n    /* \"#utility.yul\":1326:1342   */\n  add\n    /* \"#utility.yul\":1323:1348   */\n  gt\n    /* \"#utility.yul\":1320:1432   */\n  iszero\n  tag_58\n  jumpi\n    /* \"#utility.yul\":1351:1430   */\n  tag_59\n  tag_60\n  jump\t// in\ntag_59:\n    /* \"#utility.yul\":1320:1432   */\ntag_58:\n    /* \"#utility.yul\":1441:1480   */\n  tag_61\n    /* \"#utility.yul\":1473:1479   */\n  dup5\n    /* \"#utility.yul\":1468:1471   */\n  dup3\n    /* \"#utility.yul\":1463:1466   */\n  dup6\n    /* \"#utility.yul\":1441:1480   */\n  tag_62\n  jump\t// in\ntag_61:\n    /* \"#utility.yul\":1160:1486   */\n  pop\n    /* \"#utility.yul\":1065:1486   */\n  swap4\n  swap3\n  pop\n  pop\n  pop\n  jump\t// out\n    /* \"#utility.yul\":1527:1962   */\ntag_63:\n    /* \"#utility.yul\":1634:1639   */\n  0x00\n    /* \"#utility.yul\":1683:1686   */\n  dup3\n    /* \"#utility.yul\":1676:1680   */\n  0x1f\n    /* \"#utility.yul\":1668:1674   */\n  dup4\n    /* \"#utility.yul\":1664:1681   */\n  add\n    /* \"#utility.yul\":1660:1687   */\n  slt\n    /* \"#utility.yul\":1650:1772   */\n  tag_65\n  jumpi\n    /* \"#utility.yul\":1691:1770   */\n  tag_66\n  tag_50\n  jump\t// in\ntag_66:\n    /* \"#utility.yul\":1650:1772   */\ntag_65:\n    /* \"#utility.yul\":1801:1807   */\n  dup2\n    /* \"#utility.yul\":1795:1808   */\n  mload\n    /* \"#utility.yul\":1826:1956   */\n  tag_67\n    /* \"#utility.yul\":1952:1955   */\n  dup5\n    /* \"#utility.yul\":1944:1950   */\n  dup3\n    /* \"#utility.yul\":1937:1941   */\n  0x20\n    /* \"#utility.yul\":1929:1935   */\n  dup7\n    /* \"#utility.yul\":1925:1942   */\n  add\n    /* \"#utility.yul\":1826:1956   */\n  tag_36\n  jump\t// in\ntag_67:\n    /* \"#utility.yul\":1817:1956   */\n  swap2\n  pop\n    /* \"#utility.yul\":1640:1962   */\n  pop\n    /* \"#utility.yul\":1527:1962   */\n  swap3\n  swap2\n  pop\n  pop\n  jump\t// out\n    /* \"#utility.yul\":1982:2337   */\ntag_68:\n    /* \"#utility.yul\":2049:2054   */\n  0x00\n    /* \"#utility.yul\":2098:2101   */\n  dup3\n    /* \"#utility.yul\":2091:2095   */\n  0x1f\n    /* \"#utility.yul\":2083:2089   */\n  dup4\n    /* \"#utility.yul\":2079:2096   */\n  add\n    /* \"#utility.yul\":2075:2102   */\n  slt\n    /* \"#utility.yul\":2065:2187   */\n  tag_70\n  jumpi\n    /* \"#utility.yul\":2106:2185   */\n  tag_71\n  tag_50\n  jump\t// in\ntag_71:\n    /* \"#utility.yul\":2065:2187   */\ntag_70:\n    /* \"#utility.yul\":2216:2222   */\n  dup2\n    /* \"#utility.yul\":2210:2223   */\n  mload\n    /* \"#utility.yul\":2241:2331   */\n  tag_72\n    /* \"#utility.yul\":2327:2330   */\n  dup5\n    /* \"#utility.yul\":2319:2325   */\n  dup3\n    /* \"#utility.yul\":2312:2316   */\n  0x20\n    /* \"#utility.yul\":2304:2310   */\n  dup7\n    /* \"#utility.yul\":2300:2317   */\n  add\n    /* \"#utility.yul\":2241:2331   */\n  tag_53\n  jump\t// in\ntag_72:\n    /* \"#utility.yul\":2232:2331   */\n  swap2\n  pop\n    /* \"#utility.yul\":2055:2337   */\n  pop\n    /* \"#utility.yul\":1982:2337   */\n  swap3\n  swap2\n  pop\n  pop\n  jump\t// out\n    /* \"#utility.yul\":2376:3488   */\ntag_52:\n    /* \"#utility.yul\":2461:2466   */\n  0x00\n    /* \"#utility.yul\":2505:2509   */\n  0x60\n    /* \"#utility.yul\":2493:2502   */\n  dup3\n    /* \"#utility.yul\":2488:2491   */\n  dup5\n    /* \"#utility.yul\":2484:2503   */\n  sub\n    /* \"#utility.yul\":2480:2510   */\n  slt\n    /* \"#utility.yul\":2477:2594   */\n  iszero\n  tag_74\n  jumpi\n    /* \"#utility.yul\":2513:2592   */\n  tag_75\n  tag_76\n  jump\t// in\ntag_75:\n    /* \"#utility.yul\":2477:2594   */\ntag_74:\n    /* \"#utility.yul\":2612:2633   */\n  tag_77\n    /* \"#utility.yul\":2628:2632   */\n  0x60\n    /* \"#utility.yul\":2612:2633   */\n  tag_41\n  jump\t// in\ntag_77:\n    /* \"#utility.yul\":2603:2633   */\n  swap1\n  pop\n    /* \"#utility.yul\":2713:2714   */\n  0x00\n    /* \"#utility.yul\":2702:2711   */\n  dup3\n    /* \"#utility.yul\":2698:2715   */\n  add\n    /* \"#utility.yul\":2692:2716   */\n  mload\n    /* \"#utility.yul\":2743:2761   */\n  0xffffffffffffffff\n    /* \"#utility.yul\":2735:2741   */\n  dup2\n    /* \"#utility.yul\":2732:2762   */\n  gt\n    /* \"#utility.yul\":2729:2846   */\n  iszero\n  tag_78\n  jumpi\n    /* \"#utility.yul\":2765:2844   */\n  tag_79\n  tag_80\n  jump\t// in\ntag_79:\n    /* \"#utility.yul\":2729:2846   */\ntag_78:\n    /* \"#utility.yul\":2885:2955   */\n  tag_81\n    /* \"#utility.yul\":2951:2954   */\n  dup5\n    /* \"#utility.yul\":2942:2948   */\n  dup3\n    /* \"#utility.yul\":2931:2940   */\n  dup6\n    /* \"#utility.yul\":2927:2949   */\n  add\n    /* \"#utility.yul\":2885:2955   */\n  tag_68\n  jump\t// in\ntag_81:\n    /* \"#utility.yul\":2878:2882   */\n  0x00\n    /* \"#utility.yul\":2871:2876   */\n  dup4\n    /* \"#utility.yul\":2867:2883   */\n  add\n    /* \"#utility.yul\":2860:2956   */\n  mstore\n    /* \"#utility.yul\":2643:2967   */\n  pop\n    /* \"#utility.yul\":3048:3050   */\n  0x20\n    /* \"#utility.yul\":3037:3046   */\n  dup3\n    /* \"#utility.yul\":3033:3051   */\n  add\n    /* \"#utility.yul\":3027:3052   */\n  mload\n    /* \"#utility.yul\":3079:3097   */\n  0xffffffffffffffff\n    /* \"#utility.yul\":3071:3077   */\n  dup2\n    /* \"#utility.yul\":3068:3098   */\n  gt\n    /* \"#utility.yul\":3065:3182   */\n  iszero\n  tag_82\n  jumpi\n    /* \"#utility.yul\":3101:3180   */\n  tag_83\n  tag_80\n  jump\t// in\ntag_83:\n    /* \"#utility.yul\":3065:3182   */\ntag_82:\n    /* \"#utility.yul\":3221:3291   */\n  tag_84\n    /* \"#utility.yul\":3287:3290   */\n  dup5\n    /* \"#utility.yul\":3278:3284   */\n  dup3\n    /* \"#utility.yul\":3267:3276   */\n  dup6\n    /* \"#utility.yul\":3263:3285   */\n  add\n    /* \"#utility.yul\":3221:3291   */\n  tag_68\n  jump\t// in\ntag_84:\n    /* \"#utility.yul\":3214:3218   */\n  0x20\n    /* \"#utility.yul\":3207:3212   */\n  dup4\n    /* \"#utility.yul\":3203:3219   */\n  add\n    /* \"#utility.yul\":3196:3292   */\n  mstore\n    /* \"#utility.yul\":2977:3303   */\n  pop\n    /* \"#utility.yul\":3368:3370   */\n  0x40\n    /* \"#utility.yul\":3409:3469   */\n  tag_85\n    /* \"#utility.yul\":3465:3468   */\n  dup5\n    /* \"#utility.yul\":3456:3462   */\n  dup3\n    /* \"#utility.yul\":3445:3454   */\n  dup6\n    /* \"#utility.yul\":3441:3463   */\n  add\n    /* \"#utility.yul\":3409:3469   */\n  tag_86\n  jump\t// in\ntag_85:\n    /* \"#utility.yul\":3402:3406   */\n  0x40\n    /* \"#utility.yul\":3395:3400   */\n  dup4\n    /* \"#utility.yul\":3391:3407   */\n  add\n    /* \"#utility.yul\":3384:3470   */\n  mstore\n    /* \"#utility.yul\":3313:3481   */\n  pop\n    /* \"#utility.yul\":2376:3488   */\n  swap3\n  swap2\n  pop\n  pop\n  jump\t// out\n    /* \"#utility.yul\":3494:3637   */\ntag_86:\n    /* \"#utility.yul\":3551:3556   */\n  0x00\n    /* \"#utility.yul\":3582:3588   */\n  dup2\n    /* \"#utility.yul\":3576:3589   */\n  mload\n    /* \"#utility.yul\":3567:3589   */\n  swap1\n  pop\n    /* \"#utility.yul\":3598:3631   */\n  tag_88\n    /* \"#utility.yul\":3625:3630   */\n  dup2\n    /* \"#utility.yul\":3598:3631   */\n  tag_89\n  jump\t// in\ntag_88:\n    /* \"#utility.yul\":3494:3637   */\n  swap3\n  swap2\n  pop\n  pop\n  jump\t// out\n    /* \"#utility.yul\":3643:4403   */\ntag_3:\n    /* \"#utility.yul\":3772:3778   */\n  0x00\n    /* \"#utility.yul\":3780:3786   */\n  dup1\n    /* \"#utility.yul\":3829:3831   */\n  0x40\n    /* \"#utility.yul\":3817:3826   */\n  dup4\n    /* \"#utility.yul\":3808:3815   */\n  dup6\n    /* \"#utility.yul\":3804:3827   */\n  sub\n    /* \"#utility.yul\":3800:3832   */\n  slt\n    /* \"#utility.yul\":3797:3916   */\n  iszero\n  tag_91\n  jumpi\n    /* \"#utility.yul\":3835:3914   */\n  tag_92\n  tag_93\n  jump\t// in\ntag_92:\n    /* \"#utility.yul\":3797:3916   */\ntag_91:\n    /* \"#utility.yul\":3976:3977   */\n  0x00\n    /* \"#utility.yul\":3965:3974   */\n  dup4\n    /* \"#utility.yul\":3961:3978   */\n  add\n    /* \"#utility.yul\":3955:3979   */\n  mload\n    /* \"#utility.yul\":4006:4024   */\n  0xffffffffffffffff\n    /* \"#utility.yul\":3998:4004   */\n  dup2\n    /* \"#utility.yul\":3995:4025   */\n  gt\n    /* \"#utility.yul\":3992:4109   */\n  iszero\n  tag_94\n  jumpi\n    /* \"#utility.yul\":4028:4107   */\n  tag_95\n  tag_96\n  jump\t// in\ntag_95:\n    /* \"#utility.yul\":3992:4109   */\ntag_94:\n    /* \"#utility.yul\":4133:4247   */\n  tag_97\n    /* \"#utility.yul\":4239:4246   */\n  dup6\n    /* \"#utility.yul\":4230:4236   */\n  dup3\n    /* \"#utility.yul\":4219:4228   */\n  dup7\n    /* \"#utility.yul\":4215:4237   */\n  add\n    /* \"#utility.yul\":4133:4247   */\n  tag_63\n  jump\t// in\ntag_97:\n    /* \"#utility.yul\":4123:4247   */\n  swap3\n  pop\n    /* \"#utility.yul\":3926:4257   */\n  pop\n    /* \"#utility.yul\":4296:4298   */\n  0x20\n    /* \"#utility.yul\":4322:4386   */\n  tag_98\n    /* \"#utility.yul\":4378:4385   */\n  dup6\n    /* \"#utility.yul\":4369:4375   */\n  dup3\n    /* \"#utility.yul\":4358:4367   */\n  dup7\n    /* \"#utility.yul\":4354:4376   */\n  add\n    /* \"#utility.yul\":4322:4386   */\n  tag_86\n  jump\t// in\ntag_98:\n    /* \"#utility.yul\":4312:4386   */\n  swap2\n  pop\n    /* \"#utility.yul\":4267:4396   */\n  pop\n    /* \"#utility.yul\":3643:4403   */\n  swap3\n  pop\n  swap3\n  swap1\n  pop\n  jump\t// out\n    /* \"#utility.yul\":4409:4538   */\ntag_41:\n    /* \"#utility.yul\":4443:4449   */\n  0x00\n    /* \"#utility.yul\":4470:4490   */\n  tag_100\n  tag_101\n  jump\t// in\ntag_100:\n    /* \"#utility.yul\":4460:4490   */\n  swap1\n  pop\n    /* \"#utility.yul\":4499:4532   */\n  tag_102\n    /* \"#utility.yul\":4527:4531   */\n  dup3\n    /* \"#utility.yul\":4519:4525   */\n  dup3\n    /* \"#utility.yul\":4499:4532   */\n  tag_103\n  jump\t// in\ntag_102:\n    /* \"#utility.yul\":4409:4538   */\n  swap2\n  swap1\n  pop\n  jump\t// out\n    /* \"#utility.yul\":4544:4619   */\ntag_101:\n    /* \"#utility.yul\":4577:4583   */\n  0x00\n    /* \"#utility.yul\":4610:4612   */\n  0x40\n    /* \"#utility.yul\":4604:4613   */\n  mload\n    /* \"#utility.yul\":4594:4613   */\n  swap1\n  pop\n    /* \"#utility.yul\":4544:4619   */\n  swap1\n  jump\t// out\n    /* \"#utility.yul\":4625:4961   */\ntag_40:\n    /* \"#utility.yul\":4727:4731   */\n  0x00\n    /* \"#utility.yul\":4817:4835   */\n  0xffffffffffffffff\n    /* \"#utility.yul\":4809:4815   */\n  dup3\n    /* \"#utility.yul\":4806:4836   */\n  gt\n    /* \"#utility.yul\":4803:4859   */\n  iszero\n  tag_106\n  jumpi\n    /* \"#utility.yul\":4839:4857   */\n  tag_107\n  tag_108\n  jump\t// in\ntag_107:\n    /* \"#utility.yul\":4803:4859   */\ntag_106:\n    /* \"#utility.yul\":4889:4893   */\n  0x20\n    /* \"#utility.yul\":4881:4887   */\n  dup3\n    /* \"#utility.yul\":4877:4894   */\n  mul\n    /* \"#utility.yul\":4869:4894   */\n  swap1\n  pop\n    /* \"#utility.yul\":4949:4953   */\n  0x20\n    /* \"#utility.yul\":4943:4947   */\n  dup2\n    /* \"#utility.yul\":4939:4954   */\n  add\n    /* \"#utility.yul\":4931:4954   */\n  swap1\n  pop\n    /* \"#utility.yul\":4625:4961   */\n  swap2\n  swap1\n  pop\n  jump\t// out\n    /* \"#utility.yul\":4967:5275   */\ntag_57:\n    /* \"#utility.yul\":5029:5033   */\n  0x00\n    /* \"#utility.yul\":5119:5137   */\n  0xffffffffffffffff\n    /* \"#utility.yul\":5111:5117   */\n  dup3\n    /* \"#utility.yul\":5108:5138   */\n  gt\n    /* \"#utility.yul\":5105:5161   */\n  iszero\n  tag_110\n  jumpi\n    /* \"#utility.yul\":5141:5159   */\n  tag_111\n  tag_108\n  jump\t// in\ntag_111:\n    /* \"#utility.yul\":5105:5161   */\ntag_110:\n    /* \"#utility.yul\":5179:5208   */\n  tag_112\n    /* \"#utility.yul\":5201:5207   */\n  dup3\n    /* \"#utility.yul\":5179:5208   */\n  tag_113\n  jump\t// in\ntag_112:\n    /* \"#utility.yul\":5171:5208   */\n  swap1\n  pop\n    /* \"#utility.yul\":5263:5267   */\n  0x20\n    /* \"#utility.yul\":5257:5261   */\n  dup2\n    /* \"#utility.yul\":5253:5268   */\n  add\n    /* \"#utility.yul\":5245:5268   */\n  swap1\n  pop\n    /* \"#utility.yul\":4967:5275   */\n  swap2\n  swap1\n  pop\n  jump\t// out\n    /* \"#utility.yul\":5281:5358   */\ntag_114:\n    /* \"#utility.yul\":5318:5325   */\n  0x00\n    /* \"#utility.yul\":5347:5352   */\n  dup2\n    /* \"#utility.yul\":5336:5352   */\n  swap1\n  pop\n    /* \"#utility.yul\":5281:5358   */\n  swap2\n  swap1\n  pop\n  jump\t// out\n    /* \"#utility.yul\":5364:5671   */\ntag_62:\n    /* \"#utility.yul\":5432:5433   */\n  0x00\n    /* \"#utility.yul\":5442:5555   */\ntag_117:\n    /* \"#utility.yul\":5456:5462   */\n  dup4\n    /* \"#utility.yul\":5453:5454   */\n  dup2\n    /* \"#utility.yul\":5450:5463   */\n  lt\n    /* \"#utility.yul\":5442:5555   */\n  iszero\n  tag_119\n  jumpi\n    /* \"#utility.yul\":5541:5542   */\n  dup1\n    /* \"#utility.yul\":5536:5539   */\n  dup3\n    /* \"#utility.yul\":5532:5543   */\n  add\n    /* \"#utility.yul\":5526:5544   */\n  mload\n    /* \"#utility.yul\":5522:5523   */\n  dup2\n    /* \"#utility.yul\":5517:5520   */\n  dup5\n    /* \"#utility.yul\":5513:5524   */\n  add\n    /* \"#utility.yul\":5506:5545   */\n  mstore\n    /* \"#utility.yul\":5478:5480   */\n  0x20\n    /* \"#utility.yul\":5475:5476   */\n  dup2\n    /* \"#utility.yul\":5471:5481   */\n  add\n    /* \"#utility.yul\":5466:5481   */\n  swap1\n  pop\n    /* \"#utility.yul\":5442:5555   */\n  jump(tag_117)\ntag_119:\n    /* \"#utility.yul\":5573:5579   */\n  dup4\n    /* \"#utility.yul\":5570:5571   */\n  dup2\n    /* \"#utility.yul\":5567:5580   */\n  gt\n    /* \"#utility.yul\":5564:5665   */\n  iszero\n  tag_120\n  jumpi\n    /* \"#utility.yul\":5653:5654   */\n  0x00\n    /* \"#utility.yul\":5644:5650   */\n  dup5\n    /* \"#utility.yul\":5639:5642   */\n  dup5\n    /* \"#utility.yul\":5635:5651   */\n  add\n    /* \"#utility.yul\":5628:5655   */\n  mstore\n    /* \"#utility.yul\":5564:5665   */\ntag_120:\n    /* \"#utility.yul\":5413:5671   */\n  pop\n    /* \"#utility.yul\":5364:5671   */\n  pop\n  pop\n  pop\n  jump\t// out\n    /* \"#utility.yul\":5677:5997   */\ntag_25:\n    /* \"#utility.yul\":5721:5727   */\n  0x00\n    /* \"#utility.yul\":5758:5759   */\n  0x02\n    /* \"#utility.yul\":5752:5756   */\n  dup3\n    /* \"#utility.yul\":5748:5760   */\n  div\n    /* \"#utility.yul\":5738:5760   */\n  swap1\n  pop\n    /* \"#utility.yul\":5805:5806   */\n  0x01\n    /* \"#utility.yul\":5799:5803   */\n  dup3\n    /* \"#utility.yul\":5795:5807   */\n  and\n    /* \"#utility.yul\":5826:5844   */\n  dup1\n    /* \"#utility.yul\":5816:5897   */\n  tag_122\n  jumpi\n    /* \"#utility.yul\":5882:5886   */\n  0x7f\n    /* \"#utility.yul\":5874:5880   */\n  dup3\n    /* \"#utility.yul\":5870:5887   */\n  and\n    /* \"#utility.yul\":5860:5887   */\n  swap2\n  pop\n    /* \"#utility.yul\":5816:5897   */\ntag_122:\n    /* \"#utility.yul\":5944:5946   */\n  0x20\n    /* \"#utility.yul\":5936:5942   */\n  dup3\n    /* \"#utility.yul\":5933:5947   */\n  lt\n    /* \"#utility.yul\":5913:5931   */\n  dup2\n    /* \"#utility.yul\":5910:5948   */\n  eq\n    /* \"#utility.yul\":5907:5991   */\n  iszero\n  tag_123\n  jumpi\n    /* \"#utility.yul\":5963:5981   */\n  tag_124\n  tag_125\n  jump\t// in\ntag_124:\n    /* \"#utility.yul\":5907:5991   */\ntag_123:\n    /* \"#utility.yul\":5728:5997   */\n  pop\n    /* \"#utility.yul\":5677:5997   */\n  swap2\n  swap1\n  pop\n  jump\t// out\n    /* \"#utility.yul\":6003:6284   */\ntag_103:\n    /* \"#utility.yul\":6086:6113   */\n  tag_127\n    /* \"#utility.yul\":6108:6112   */\n  dup3\n    /* \"#utility.yul\":6086:6113   */\n  tag_113\n  jump\t// in\ntag_127:\n    /* \"#utility.yul\":6078:6084   */\n  dup2\n    /* \"#utility.yul\":6074:6114   */\n  add\n    /* \"#utility.yul\":6216:6222   */\n  dup2\n    /* \"#utility.yul\":6204:6214   */\n  dup2\n    /* \"#utility.yul\":6201:6223   */\n  lt\n    /* \"#utility.yul\":6180:6198   */\n  0xffffffffffffffff\n    /* \"#utility.yul\":6168:6178   */\n  dup3\n    /* \"#utility.yul\":6165:6199   */\n  gt\n    /* \"#utility.yul\":6162:6224   */\n  or\n    /* \"#utility.yul\":6159:6247   */\n  iszero\n  tag_128\n  jumpi\n    /* \"#utility.yul\":6227:6245   */\n  tag_129\n  tag_108\n  jump\t// in\ntag_129:\n    /* \"#utility.yul\":6159:6247   */\ntag_128:\n    /* \"#utility.yul\":6267:6277   */\n  dup1\n    /* \"#utility.yul\":6263:6265   */\n  0x40\n    /* \"#utility.yul\":6256:6278   */\n  mstore\n    /* \"#utility.yul\":6046:6284   */\n  pop\n    /* \"#utility.yul\":6003:6284   */\n  pop\n  pop\n  jump\t// out\n    /* \"#utility.yul\":6290:6523   */\ntag_23:\n    /* \"#utility.yul\":6329:6332   */\n  0x00\n    /* \"#utility.yul\":6352:6376   */\n  tag_131\n    /* \"#utility.yul\":6370:6375   */\n  dup3\n    /* \"#utility.yul\":6352:6376   */\n  tag_114\n  jump\t// in\ntag_131:\n    /* \"#utility.yul\":6343:6376   */\n  swap2\n  pop\n    /* \"#utility.yul\":6398:6464   */\n  0xffffffffffffffffffffffffffffffffffffffffffffffffffffffffffffffff\n    /* \"#utility.yul\":6391:6396   */\n  dup3\n    /* \"#utility.yul\":6388:6465   */\n  eq\n    /* \"#utility.yul\":6385:6488   */\n  iszero\n  tag_132\n  jumpi\n    /* \"#utility.yul\":6468:6486   */\n  tag_133\n  tag_134\n  jump\t// in\ntag_133:\n    /* \"#utility.yul\":6385:6488   */\ntag_132:\n    /* \"#utility.yul\":6515:6516   */\n  0x01\n    /* \"#utility.yul\":6508:6513   */\n  dup3\n    /* \"#utility.yul\":6504:6517   */\n  add\n    /* \"#utility.yul\":6497:6517   */\n  swap1\n  pop\n    /* \"#utility.yul\":6290:6523   */\n  swap2\n  swap1\n  pop\n  jump\t// out\n    /* \"#utility.yul\":6529:6709   */\ntag_134:\n    /* \"#utility.yul\":6577:6654   */\n  0x4e487b7100000000000000000000000000000000000000000000000000000000\n    /* \"#utility.yul\":6574:6575   */\n  0x00\n    /* \"#utility.yul\":6567:6655   */\n  mstore\n    /* \"#utility.yul\":6674:6678   */\n  0x11\n    /* \"#utility.yul\":6671:6672   */\n  0x04\n    /* \"#utility.yul\":6664:6679   */\n  mstore\n    /* \"#utility.yul\":6698:6702   */\n  0x24\n    /* \"#utility.yul\":6695:6696   */\n  0x00\n    /* \"#utility.yul\":6688:6703   */\n  revert\n    /* \"#utility.yul\":6715:6895   */\ntag_125:\n    /* \"#utility.yul\":6763:6840   */\n  0x4e487b7100000000000000000000000000000000000000000000000000000000\n    /* \"#utility.yul\":6760:6761   */\n  0x00\n    /* \"#utility.yul\":6753:6841   */\n  mstore\n    /* \"#utility.yul\":6860:6864   */\n  0x22\n    /* \"#utility.yul\":6857:6858   */\n  0x04\n    /* \"#utility.yul\":6850:6865   */\n  mstore\n    /* \"#utility.yul\":6884:6888   */\n  0x24\n    /* \"#utility.yul\":6881:6882   */\n  0x00\n    /* \"#utility.yul\":6874:6889   */\n  revert\n    /* \"#utility.yul\":6901:7081   */\ntag_15:\n    /* \"#utility.yul\":6949:7026   */\n  0x4e487b7100000000000000000000000000000000000000000000000000000000\n    /* \"#utility.yul\":6946:6947   */\n  0x00\n    /* \"#utility.yul\":6939:7027   */\n  mstore\n    /* \"#utility.yul\":7046:7050   */\n  0x32\n    /* \"#utility.yul\":7043:7044   */\n  0x04\n    /* \"#utility.yul\":7036:7051   */\n  mstore\n    /* \"#utility.yul\":7070:7074   */\n  0x24\n    /* \"#utility.yul\":7067:7068   */\n  0x00\n    /* \"#utility.yul\":7060:7075   */\n  revert\n    /* \"#utility.yul\":7087:7267   */\ntag_108:\n    /* \"#utility.yul\":7135:7212   */\n  0x4e487b7100000000000000000000000000000000000000000000000000000000\n    /* \"#utility.yul\":7132:7133   */\n  0x00\n    /* \"#utility.yul\":7125:7213   */\n  mstore\n    /* \"#utility.yul\":7232:7236   */\n  0x41\n    /* \"#utility.yul\":7229:7230   */\n  0x04\n    /* \"#utility.yul\":7222:7237   */\n  mstore\n    /* \"#utility.yul\":7256:7260   */\n  0x24\n    /* \"#utility.yul\":7253:7254   */\n  0x00\n    /* \"#utility.yul\":7246:7261   */\n  revert\n    /* \"#utility.yul\":7273:7390   */\ntag_50:\n    /* \"#utility.yul\":7382:7383   */\n  0x00\n    /* \"#utility.yul\":7379:7380   */\n  dup1\n    /* \"#utility.yul\":7372:7384   */\n  revert\n    /* \"#utility.yul\":7396:7513   */\ntag_76:\n    /* \"#utility.yul\":7505:7506   */\n  0x00\n    /* \"#utility.yul\":7502:7503   */\n  dup1\n    /* \"#utility.yul\":7495:7507   */\n  revert\n    /* \"#utility.yul\":7519:7636   */\ntag_80:\n    /* \"#utility.yul\":7628:7629   */\n  0x00\n    /* \"#utility.yul\":7625:7626   */\n  dup1\n    /* \"#utility.yul\":7618:7630   */\n  revert\n    /* \"#utility.yul\":7642:7759   */\ntag_44:\n    /* \"#utility.yul\":7751:7752   */\n  0x00\n    /* \"#utility.yul\":7748:7749   */\n  dup1\n    /* \"#utility.yul\":7741:7753   */\n  revert\n    /* \"#utility.yul\":7765:7882   */\ntag_60:\n    /* \"#utility.yul\":7874:7875   */\n  0x00\n    /* \"#utility.yul\":7871:7872   */\n  dup1\n    /* \"#utility.yul\":7864:7876   */\n  revert\n    /* \"#utility.yul\":7888:8005   */\ntag_96:\n    /* \"#utility.yul\":7997:7998   */\n  0x00\n    /* \"#utility.yul\":7994:7995   */\n  dup1\n    /* \"#utility.yul\":7987:7999   */\n  revert\n    /* \"#utility.yul\":8011:8128   */\ntag_93:\n    /* \"#utility.yul\":8120:8121   */\n  0x00\n    /* \"#utility.yul\":8117:8118   */\n  dup1\n    /* \"#utility.yul\":8110:8122   */\n  revert\n    /* \"#utility.yul\":8134:8236   */\ntag_113:\n    /* \"#utility.yul\":8175:8181   */\n  0x00\n    /* \"#utility.yul\":8226:8228   */\n  0x1f\n    /* \"#utility.yul\":8222:8229   */\n  not\n    /* \"#utility.yul\":8217:8219   */\n  0x1f\n    /* \"#utility.yul\":8210:8215   */\n  dup4\n    /* \"#utility.yul\":8206:8220   */\n  add\n    /* \"#utility.yul\":8202:8230   */\n  and\n    /* \"#utility.yul\":8192:8230   */\n  swap1\n  pop\n    /* \"#utility.yul\":8134:8236   */\n  swap2\n  swap1\n  pop\n  jump\t// out\n    /* \"#utility.yul\":8242:8364   */\ntag_89:\n    /* \"#utility.yul\":8315:8339   */\n  tag_148\n    /* \"#utility.yul\":8333:8338   */\n  dup2\n    /* \"#utility.yul\":8315:8339   */\n  tag_114\n  jump\t// in\ntag_148:\n    /* \"#utility.yul\":8308:8313   */\n  dup2\n    /* \"#utility.yul\":8305:8340   */\n  eq\n    /* \"#utility.yul\":8295:8358   */\n  tag_149\n  jumpi\n    /* \"#utility.yul\":8354:8355   */\n  0x00\n    /* \"#utility.yul\":8351:8352   */\n  dup1\n    /* \"#utility.yul\":8344:8356   */\n  revert\n    /* \"#utility.yul\":8295:8358   */\ntag_149:\n    /* \"#utility.yul\":8242:8364   */\n  pop\n  jump\t// out\n    /* \"contracts/Ballot/Ballot.sol\":70:4760  contract MyBallot {\r... */\ntag_8:\n  dataSize(sub_0)\n  dup1\n  dataOffset(sub_0)\n  0x00\n  codecopy\n  0x00\n  return\nstop\n\nsub_0: assembly {\n        /* \"contracts/Ballot/Ballot.sol\":70:4760  contract MyBallot {\r... */\n      mstore(0x40, 0x80)\n      callvalue\n      dup1\n      iszero\n      tag_1\n      jumpi\n      0x00\n      dup1\n      revert\n    tag_1:\n      pop\n      jumpi(tag_2, lt(calldatasize, 0x04))\n      shr(0xe0, calldataload(0x00))\n      dup1\n      0x9e7b8d61\n      gt\n      tag_17\n      jumpi\n      dup1\n      0xda265430\n      gt\n      tag_18\n      jumpi\n      dup1\n      0xda265430\n      eq\n      tag_13\n      jumpi\n      dup1\n      0xdf703622\n      eq\n      tag_14\n      jumpi\n      dup1\n      0xf927cc29\n      eq\n      tag_15\n      jumpi\n      dup1\n      0xfc36e15b\n      eq\n      tag_16\n      jumpi\n      jump(tag_2)\n    tag_18:\n      dup1\n      0x9e7b8d61\n      eq\n      tag_10\n      jumpi\n      dup1\n      0xa3ec138d\n      eq\n      tag_11\n      jumpi\n      dup1\n      0xce606ee0\n      eq\n      tag_12\n      jumpi\n      jump(tag_2)\n    tag_17:\n      dup1\n      0x3ddf3822\n      gt\n      tag_19\n      jumpi\n      dup1\n      0x3ddf3822\n      eq\n      tag_6\n      jumpi\n      dup1\n      0x4aba5f34\n      eq\n      tag_7\n      jumpi\n      dup1\n      0x8d85cc09\n      eq\n      tag_8\n      jumpi\n      dup1\n      0x94b04e7d\n      eq\n      tag_9\n      jumpi\n      jump(tag_2)\n    tag_19:\n      dup1\n      0x2bfda515\n      eq\n      tag_3\n      jumpi\n      dup1\n      0x32a2c5d0\n      eq\n      tag_4\n      jumpi\n      dup1\n      0x3477ee2e\n      eq\n      tag_5\n      jumpi\n    tag_2:\n      0x00\n      dup1\n      revert\n        /* \"contracts/Ballot/Ballot.sol\":2792:3088  function getWinnerName() public view returns (string memory winnerName) {\r... */\n    tag_3:\n      tag_20\n      tag_21\n      jump\t// in\n    tag_20:\n      mload(0x40)\n      tag_22\n      swap2\n      swap1\n      tag_23\n      jump\t// in\n    tag_22:\n      mload(0x40)\n      dup1\n      swap2\n      sub\n      swap1\n      return\n        /* \"contracts/Ballot/Ballot.sol\":3826:3925  function getContractAddress() public view returns (address) {\r... */\n    tag_4:\n      tag_24\n      tag_25\n      jump\t// in\n    tag_24:\n      mload(0x40)\n      tag_26\n      swap2\n      swap1\n      tag_27\n      jump\t// in\n    tag_26:\n      mload(0x40)\n      dup1\n      swap2\n      sub\n      swap1\n      return\n        /* \"contracts/Ballot/Ballot.sol\":362:391  Candidate[] public candidates */\n    tag_5:\n      tag_28\n      0x04\n      dup1\n      calldatasize\n      sub\n      dup2\n      add\n      swap1\n      tag_29\n      swap2\n      swap1\n      tag_30\n      jump\t// in\n    tag_29:\n      tag_31\n      jump\t// in\n    tag_28:\n      mload(0x40)\n      tag_32\n      swap4\n      swap3\n      swap2\n      swap1\n      tag_33\n      jump\t// in\n    tag_32:\n      mload(0x40)\n      dup1\n      swap2\n      sub\n      swap1\n      return\n        /* \"contracts/Ballot/Ballot.sol\":3933:4044  function areYouContractOwner() public view returns (bool) {\r... */\n    tag_6:\n      tag_34\n      tag_35\n      jump\t// in\n    tag_34:\n      mload(0x40)\n      tag_36\n      swap2\n      swap1\n      tag_37\n      jump\t// in\n    tag_36:\n      mload(0x40)\n      dup1\n      swap2\n      sub\n      swap1\n      return\n        /* \"contracts/Ballot/Ballot.sol\":3712:3818  function getCandidatesList() public view returns (Candidate[] memory) {\r... */\n    tag_7:\n      tag_38\n      tag_39\n      jump\t// in\n    tag_38:\n      mload(0x40)\n      tag_40\n      swap2\n      swap1\n      tag_41\n      jump\t// in\n    tag_40:\n      mload(0x40)\n      dup1\n      swap2\n      sub\n      swap1\n      return\n        /* \"contracts/Ballot/Ballot.sol\":4426:4553  function getVoterVoted(address voterAddress) public view returns (bool) {\r... */\n    tag_8:\n      tag_42\n      0x04\n      dup1\n      calldatasize\n      sub\n      dup2\n      add\n      swap1\n      tag_43\n      swap2\n      swap1\n      tag_44\n      jump\t// in\n    tag_43:\n      tag_45\n      jump\t// in\n    tag_42:\n      mload(0x40)\n      tag_46\n      swap2\n      swap1\n      tag_37\n      jump\t// in\n    tag_46:\n      mload(0x40)\n      dup1\n      swap2\n      sub\n      swap1\n      return\n        /* \"contracts/Ballot/Ballot.sol\":4177:4309  function getVoterRigthToVote(address voterAddress) public view returns (bool) {\r... */\n    tag_9:\n      tag_47\n      0x04\n      dup1\n      calldatasize\n      sub\n      dup2\n      add\n      swap1\n      tag_48\n      swap2\n      swap1\n      tag_44\n      jump\t// in\n    tag_48:\n      tag_49\n      jump\t// in\n    tag_47:\n      mload(0x40)\n      tag_50\n      swap2\n      swap1\n      tag_37\n      jump\t// in\n    tag_50:\n      mload(0x40)\n      dup1\n      swap2\n      sub\n      swap1\n      return\n        /* \"contracts/Ballot/Ballot.sol\":2118:2264  function giveRightToVote(address voterAddress) public giveRightToVoteModifier(voterAddress) {\r... */\n    tag_10:\n      tag_51\n      0x04\n      dup1\n      calldatasize\n      sub\n      dup2\n      add\n      swap1\n      tag_52\n      swap2\n      swap1\n      tag_44\n      jump\t// in\n    tag_52:\n      tag_53\n      jump\t// in\n    tag_51:\n      stop\n        /* \"contracts/Ballot/Ballot.sol\":314:353  mapping(address => Voter) public voters */\n    tag_11:\n      tag_54\n      0x04\n      dup1\n      calldatasize\n      sub\n      dup2\n      add\n      swap1\n      tag_55\n      swap2\n      swap1\n      tag_44\n      jump\t// in\n    tag_55:\n      tag_56\n      jump\t// in\n    tag_54:\n      mload(0x40)\n      tag_57\n      swap3\n      swap2\n      swap1\n      tag_58\n      jump\t// in\n    tag_57:\n      mload(0x40)\n      dup1\n      swap2\n      sub\n      swap1\n      return\n        /* \"contracts/Ballot/Ballot.sol\":277:305  address public contractOwner */\n    tag_12:\n      tag_59\n      tag_60\n      jump\t// in\n    tag_59:\n      mload(0x40)\n      tag_61\n      swap2\n      swap1\n      tag_27\n      jump\t// in\n    tag_61:\n      mload(0x40)\n      dup1\n      swap2\n      sub\n      swap1\n      return\n        /* \"contracts/Ballot/Ballot.sol\":4317:4418  function areYouVoted() public view returns (bool) {\r... */\n    tag_13:\n      tag_62\n      tag_63\n      jump\t// in\n    tag_62:\n      mload(0x40)\n      tag_64\n      swap2\n      swap1\n      tag_37\n      jump\t// in\n    tag_64:\n      mload(0x40)\n      dup1\n      swap2\n      sub\n      swap1\n      return\n        /* \"contracts/Ballot/Ballot.sol\":4052:4169  function areYouHaveRigthToVote() public view returns (bool) {\r... */\n    tag_14:\n      tag_65\n      tag_66\n      jump\t// in\n    tag_65:\n      mload(0x40)\n      tag_67\n      swap2\n      swap1\n      tag_37\n      jump\t// in\n    tag_67:\n      mload(0x40)\n      dup1\n      swap2\n      sub\n      swap1\n      return\n        /* \"contracts/Ballot/Ballot.sol\":3096:3704  function getWinningCandidate() public view returns (uint winningProposal, bool isTie) {        \r... */\n    tag_15:\n      tag_68\n      tag_69\n      jump\t// in\n    tag_68:\n      mload(0x40)\n      tag_70\n      swap3\n      swap2\n      swap1\n      tag_71\n      jump\t// in\n    tag_70:\n      mload(0x40)\n      dup1\n      swap2\n      sub\n      swap1\n      return\n        /* \"contracts/Ballot/Ballot.sol\":2272:2784  function vote(string memory name) public voteModifier(msg.sender) {\r... */\n    tag_16:\n      tag_72\n      0x04\n      dup1\n      calldatasize\n      sub\n      dup2\n      add\n      swap1\n      tag_73\n      swap2\n      swap1\n      tag_74\n      jump\t// in\n    tag_73:\n      tag_75\n      jump\t// in\n    tag_72:\n      stop\n        /* \"contracts/Ballot/Ballot.sol\":2792:3088  function getWinnerName() public view returns (string memory winnerName) {\r... */\n    tag_21:\n        /* \"contracts/Ballot/Ballot.sol\":2838:2862  string memory winnerName */\n      0x60\n        /* \"contracts/Ballot/Ballot.sol\":2876:2896  uint winningProposal */\n      0x00\n        /* \"contracts/Ballot/Ballot.sol\":2898:2908  bool isTie */\n      dup1\n        /* \"contracts/Ballot/Ballot.sol\":2912:2933  getWinningCandidate() */\n      tag_77\n        /* \"contracts/Ballot/Ballot.sol\":2912:2931  getWinningCandidate */\n      tag_69\n        /* \"contracts/Ballot/Ballot.sol\":2912:2933  getWinningCandidate() */\n      jump\t// in\n    tag_77:\n        /* \"contracts/Ballot/Ballot.sol\":2875:2933  (uint winningProposal, bool isTie) = getWinningCandidate() */\n      swap2\n      pop\n      swap2\n      pop\n        /* \"contracts/Ballot/Ballot.sol\":2967:2972  isTie */\n      dup1\n        /* \"contracts/Ballot/Ballot.sol\":2966:2972  !isTie */\n      iszero\n        /* \"contracts/Ballot/Ballot.sol\":2944:3024  require(\r... */\n      tag_78\n      jumpi\n      mload(0x40)\n      0x08c379a000000000000000000000000000000000000000000000000000000000\n      dup2\n      mstore\n      0x04\n      add\n      tag_79\n      swap1\n      tag_80\n      jump\t// in\n    tag_79:\n      mload(0x40)\n      dup1\n      swap2\n      sub\n      swap1\n      revert\n    tag_78:\n        /* \"contracts/Ballot/Ballot.sol\":3048:3058  candidates */\n      0x02\n        /* \"contracts/Ballot/Ballot.sol\":3059:3074  winningProposal */\n      dup3\n        /* \"contracts/Ballot/Ballot.sol\":3048:3075  candidates[winningProposal] */\n      dup2\n      sload\n      dup2\n      lt\n      tag_81\n      jumpi\n      tag_82\n      tag_83\n      jump\t// in\n    tag_82:\n    tag_81:\n      swap1\n      0x00\n      mstore\n      keccak256(0x00, 0x20)\n      swap1\n      0x03\n      mul\n      add\n        /* \"contracts/Ballot/Ballot.sol\":3048:3080  candidates[winningProposal].name */\n      0x00\n      add\n        /* \"contracts/Ballot/Ballot.sol\":3035:3080  winnerName = candidates[winningProposal].name */\n      dup1\n      sload\n      tag_85\n      swap1\n      tag_86\n      jump\t// in\n    tag_85:\n      dup1\n      0x1f\n      add\n      0x20\n      dup1\n      swap2\n      div\n      mul\n      0x20\n      add\n      mload(0x40)\n      swap1\n      dup2\n      add\n      0x40\n      mstore\n      dup1\n      swap3\n      swap2\n      swap1\n      dup2\n      dup2\n      mstore\n      0x20\n      add\n      dup3\n      dup1\n      sload\n      tag_87\n      swap1\n      tag_86\n      jump\t// in\n    tag_87:\n      dup1\n      iszero\n      tag_88\n      jumpi\n      dup1\n      0x1f\n      lt\n      tag_89\n      jumpi\n      0x0100\n      dup1\n      dup4\n      sload\n      div\n      mul\n      dup4\n      mstore\n      swap2\n      0x20\n      add\n      swap2\n      jump(tag_88)\n    tag_89:\n      dup3\n      add\n      swap2\n      swap1\n      0x00\n      mstore\n      keccak256(0x00, 0x20)\n      swap1\n    tag_90:\n      dup2\n      sload\n      dup2\n      mstore\n      swap1\n      0x01\n      add\n      swap1\n      0x20\n      add\n      dup1\n      dup4\n      gt\n      tag_90\n      jumpi\n      dup3\n      swap1\n      sub\n      0x1f\n      and\n      dup3\n      add\n      swap2\n    tag_88:\n      pop\n      pop\n      pop\n      pop\n      pop\n      swap3\n      pop\n        /* \"contracts/Ballot/Ballot.sol\":2864:3088  {\r... */\n      pop\n      pop\n        /* \"contracts/Ballot/Ballot.sol\":2792:3088  function getWinnerName() public view returns (string memory winnerName) {\r... */\n      swap1\n      jump\t// out\n        /* \"contracts/Ballot/Ballot.sol\":3826:3925  function getContractAddress() public view returns (address) {\r... */\n    tag_25:\n        /* \"contracts/Ballot/Ballot.sol\":3877:3884  address */\n      0x00\n        /* \"contracts/Ballot/Ballot.sol\":3912:3916  this */\n      address\n        /* \"contracts/Ballot/Ballot.sol\":3897:3917  return address(this) */\n      swap1\n      pop\n        /* \"contracts/Ballot/Ballot.sol\":3826:3925  function getContractAddress() public view returns (address) {\r... */\n      swap1\n      jump\t// out\n        /* \"contracts/Ballot/Ballot.sol\":362:391  Candidate[] public candidates */\n    tag_31:\n      0x02\n      dup2\n      dup2\n      sload\n      dup2\n      lt\n      tag_92\n      jumpi\n      0x00\n      dup1\n      revert\n    tag_92:\n      swap1\n      0x00\n      mstore\n      keccak256(0x00, 0x20)\n      swap1\n      0x03\n      mul\n      add\n      0x00\n      swap2\n      pop\n      swap1\n      pop\n      dup1\n      0x00\n      add\n      dup1\n      sload\n      tag_94\n      swap1\n      tag_86\n      jump\t// in\n    tag_94:\n      dup1\n      0x1f\n      add\n      0x20\n      dup1\n      swap2\n      div\n      mul\n      0x20\n      add\n      mload(0x40)\n      swap1\n      dup2\n      add\n      0x40\n      mstore\n      dup1\n      swap3\n      swap2\n      swap1\n      dup2\n      dup2\n      mstore\n      0x20\n      add\n      dup3\n      dup1\n      sload\n      tag_95\n      swap1\n      tag_86\n      jump\t// in\n    tag_95:\n      dup1\n      iszero\n      tag_96\n      jumpi\n      dup1\n      0x1f\n      lt\n      tag_97\n      jumpi\n      0x0100\n      dup1\n      dup4\n      sload\n      div\n      mul\n      dup4\n      mstore\n      swap2\n      0x20\n      add\n      swap2\n      jump(tag_96)\n    tag_97:\n      dup3\n      add\n      swap2\n      swap1\n      0x00\n      mstore\n      keccak256(0x00, 0x20)\n      swap1\n    tag_98:\n      dup2\n      sload\n      dup2\n      mstore\n      swap1\n      0x01\n      add\n      swap1\n      0x20\n      add\n      dup1\n      dup4\n      gt\n      tag_98\n      jumpi\n      dup3\n      swap1\n      sub\n      0x1f\n      and\n      dup3\n      add\n      swap2\n    tag_96:\n      pop\n      pop\n      pop\n      pop\n      pop\n      swap1\n      dup1\n      0x01\n      add\n      dup1\n      sload\n      tag_99\n      swap1\n      tag_86\n      jump\t// in\n    tag_99:\n      dup1\n      0x1f\n      add\n      0x20\n      dup1\n      swap2\n      div\n      mul\n      0x20\n      add\n      mload(0x40)\n      swap1\n      dup2\n      add\n      0x40\n      mstore\n      dup1\n      swap3\n      swap2\n      swap1\n      dup2\n      dup2\n      mstore\n      0x20\n      add\n      dup3\n      dup1\n      sload\n      tag_100\n      swap1\n      tag_86\n      jump\t// in\n    tag_100:\n      dup1\n      iszero\n      tag_101\n      jumpi\n      dup1\n      0x1f\n      lt\n      tag_102\n      jumpi\n      0x0100\n      dup1\n      dup4\n      sload\n      div\n      mul\n      dup4\n      mstore\n      swap2\n      0x20\n      add\n      swap2\n      jump(tag_101)\n    tag_102:\n      dup3\n      add\n      swap2\n      swap1\n      0x00\n      mstore\n      keccak256(0x00, 0x20)\n      swap1\n    tag_103:\n      dup2\n      sload\n      dup2\n      mstore\n      swap1\n      0x01\n      add\n      swap1\n      0x20\n      add\n      dup1\n      dup4\n      gt\n      tag_103\n      jumpi\n      dup3\n      swap1\n      sub\n      0x1f\n      and\n      dup3\n      add\n      swap2\n    tag_101:\n      pop\n      pop\n      pop\n      pop\n      pop\n      swap1\n      dup1\n      0x02\n      add\n      sload\n      swap1\n      pop\n      dup4\n      jump\t// out\n        /* \"contracts/Ballot/Ballot.sol\":3933:4044  function areYouContractOwner() public view returns (bool) {\r... */\n    tag_35:\n        /* \"contracts/Ballot/Ballot.sol\":3985:3989  bool */\n      0x00\n        /* \"contracts/Ballot/Ballot.sol\":4023:4036  contractOwner */\n      dup1\n      0x00\n      swap1\n      sload\n      swap1\n      0x0100\n      exp\n      swap1\n      div\n      0xffffffffffffffffffffffffffffffffffffffff\n      and\n        /* \"contracts/Ballot/Ballot.sol\":4009:4036  msg.sender == contractOwner */\n      0xffffffffffffffffffffffffffffffffffffffff\n      and\n        /* \"contracts/Ballot/Ballot.sol\":4009:4019  msg.sender */\n      caller\n        /* \"contracts/Ballot/Ballot.sol\":4009:4036  msg.sender == contractOwner */\n      0xffffffffffffffffffffffffffffffffffffffff\n      and\n      eq\n        /* \"contracts/Ballot/Ballot.sol\":4002:4036  return msg.sender == contractOwner */\n      swap1\n      pop\n        /* \"contracts/Ballot/Ballot.sol\":3933:4044  function areYouContractOwner() public view returns (bool) {\r... */\n      swap1\n      jump\t// out\n        /* \"contracts/Ballot/Ballot.sol\":3712:3818  function getCandidatesList() public view returns (Candidate[] memory) {\r... */\n    tag_39:\n        /* \"contracts/Ballot/Ballot.sol\":3762:3780  Candidate[] memory */\n      0x60\n        /* \"contracts/Ballot/Ballot.sol\":3800:3810  candidates */\n      0x02\n        /* \"contracts/Ballot/Ballot.sol\":3793:3810  return candidates */\n      dup1\n      sload\n      dup1\n      0x20\n      mul\n      0x20\n      add\n      mload(0x40)\n      swap1\n      dup2\n      add\n      0x40\n      mstore\n      dup1\n      swap3\n      swap2\n      swap1\n      dup2\n      dup2\n      mstore\n      0x20\n      add\n      0x00\n      swap1\n    tag_106:\n      dup3\n      dup3\n      lt\n      iszero\n      tag_107\n      jumpi\n      dup4\n      dup3\n      swap1\n      0x00\n      mstore\n      keccak256(0x00, 0x20)\n      swap1\n      0x03\n      mul\n      add\n      mload(0x40)\n      dup1\n      0x60\n      add\n      0x40\n      mstore\n      swap1\n      dup2\n      0x00\n      dup3\n      add\n      dup1\n      sload\n      tag_109\n      swap1\n      tag_86\n      jump\t// in\n    tag_109:\n      dup1\n      0x1f\n      add\n      0x20\n      dup1\n      swap2\n      div\n      mul\n      0x20\n      add\n      mload(0x40)\n      swap1\n      dup2\n      add\n      0x40\n      mstore\n      dup1\n      swap3\n      swap2\n      swap1\n      dup2\n      dup2\n      mstore\n      0x20\n      add\n      dup3\n      dup1\n      sload\n      tag_110\n      swap1\n      tag_86\n      jump\t// in\n    tag_110:\n      dup1\n      iszero\n      tag_111\n      jumpi\n      dup1\n      0x1f\n      lt\n      tag_112\n      jumpi\n      0x0100\n      dup1\n      dup4\n      sload\n      div\n      mul\n      dup4\n      mstore\n      swap2\n      0x20\n      add\n      swap2\n      jump(tag_111)\n    tag_112:\n      dup3\n      add\n      swap2\n      swap1\n      0x00\n      mstore\n      keccak256(0x00, 0x20)\n      swap1\n    tag_113:\n      dup2\n      sload\n      dup2\n      mstore\n      swap1\n      0x01\n      add\n      swap1\n      0x20\n      add\n      dup1\n      dup4\n      gt\n      tag_113\n      jumpi\n      dup3\n      swap1\n      sub\n      0x1f\n      and\n      dup3\n      add\n      swap2\n    tag_111:\n      pop\n      pop\n      pop\n      pop\n      pop\n      dup2\n      mstore\n      0x20\n      add\n      0x01\n      dup3\n      add\n      dup1\n      sload\n      tag_114\n      swap1\n      tag_86\n      jump\t// in\n    tag_114:\n      dup1\n      0x1f\n      add\n      0x20\n      dup1\n      swap2\n      div\n      mul\n      0x20\n      add\n      mload(0x40)\n      swap1\n      dup2\n      add\n      0x40\n      mstore\n      dup1\n      swap3\n      swap2\n      swap1\n      dup2\n      dup2\n      mstore\n      0x20\n      add\n      dup3\n      dup1\n      sload\n      tag_115\n      swap1\n      tag_86\n      jump\t// in\n    tag_115:\n      dup1\n      iszero\n      tag_116\n      jumpi\n      dup1\n      0x1f\n      lt\n      tag_117\n      jumpi\n      0x0100\n      dup1\n      dup4\n      sload\n      div\n      mul\n      dup4\n      mstore\n      swap2\n      0x20\n      add\n      swap2\n      jump(tag_116)\n    tag_117:\n      dup3\n      add\n      swap2\n      swap1\n      0x00\n      mstore\n      keccak256(0x00, 0x20)\n      swap1\n    tag_118:\n      dup2\n      sload\n      dup2\n      mstore\n      swap1\n      0x01\n      add\n      swap1\n      0x20\n      add\n      dup1\n      dup4\n      gt\n      tag_118\n      jumpi\n      dup3\n      swap1\n      sub\n      0x1f\n      and\n      dup3\n      add\n      swap2\n    tag_116:\n      pop\n      pop\n      pop\n      pop\n      pop\n      dup2\n      mstore\n      0x20\n      add\n      0x02\n      dup3\n      add\n      sload\n      dup2\n      mstore\n      pop\n      pop\n      dup2\n      mstore\n      0x20\n      add\n      swap1\n      0x01\n      add\n      swap1\n      jump(tag_106)\n    tag_107:\n      pop\n      pop\n      pop\n      pop\n      swap1\n      pop\n        /* \"contracts/Ballot/Ballot.sol\":3712:3818  function getCandidatesList() public view returns (Candidate[] memory) {\r... */\n      swap1\n      jump\t// out\n        /* \"contracts/Ballot/Ballot.sol\":4426:4553  function getVoterVoted(address voterAddress) public view returns (bool) {\r... */\n    tag_45:\n        /* \"contracts/Ballot/Ballot.sol\":4492:4496  bool */\n      0x00\n        /* \"contracts/Ballot/Ballot.sol\":4516:4522  voters */\n      0x01\n        /* \"contracts/Ballot/Ballot.sol\":4516:4536  voters[voterAddress] */\n      0x00\n        /* \"contracts/Ballot/Ballot.sol\":4523:4535  voterAddress */\n      dup4\n        /* \"contracts/Ballot/Ballot.sol\":4516:4536  voters[voterAddress] */\n      0xffffffffffffffffffffffffffffffffffffffff\n      and\n      0xffffffffffffffffffffffffffffffffffffffff\n      and\n      dup2\n      mstore\n      0x20\n      add\n      swap1\n      dup2\n      mstore\n      0x20\n      add\n      0x00\n      keccak256\n        /* \"contracts/Ballot/Ballot.sol\":4516:4545  voters[voterAddress].hasVoted */\n      0x00\n      add\n      0x01\n      swap1\n      sload\n      swap1\n      0x0100\n      exp\n      swap1\n      div\n      0xff\n      and\n        /* \"contracts/Ballot/Ballot.sol\":4509:4545  return voters[voterAddress].hasVoted */\n      swap1\n      pop\n        /* \"contracts/Ballot/Ballot.sol\":4426:4553  function getVoterVoted(address voterAddress) public view returns (bool) {\r... */\n      swap2\n      swap1\n      pop\n      jump\t// out\n        /* \"contracts/Ballot/Ballot.sol\":4177:4309  function getVoterRigthToVote(address voterAddress) public view returns (bool) {\r... */\n    tag_49:\n        /* \"contracts/Ballot/Ballot.sol\":4249:4253  bool */\n      0x00\n        /* \"contracts/Ballot/Ballot.sol\":4273:4279  voters */\n      0x01\n        /* \"contracts/Ballot/Ballot.sol\":4273:4293  voters[voterAddress] */\n      0x00\n        /* \"contracts/Ballot/Ballot.sol\":4280:4292  voterAddress */\n      dup4\n        /* \"contracts/Ballot/Ballot.sol\":4273:4293  voters[voterAddress] */\n      0xffffffffffffffffffffffffffffffffffffffff\n      and\n      0xffffffffffffffffffffffffffffffffffffffff\n      and\n      dup2\n      mstore\n      0x20\n      add\n      swap1\n      dup2\n      mstore\n      0x20\n      add\n      0x00\n      keccak256\n        /* \"contracts/Ballot/Ballot.sol\":4273:4301  voters[voterAddress].canVote */\n      0x00\n      add\n      0x00\n      swap1\n      sload\n      swap1\n      0x0100\n      exp\n      swap1\n      div\n      0xff\n      and\n        /* \"contracts/Ballot/Ballot.sol\":4266:4301  return voters[voterAddress].canVote */\n      swap1\n      pop\n        /* \"contracts/Ballot/Ballot.sol\":4177:4309  function getVoterRigthToVote(address voterAddress) public view returns (bool) {\r... */\n      swap2\n      swap1\n      pop\n      jump\t// out\n        /* \"contracts/Ballot/Ballot.sol\":2118:2264  function giveRightToVote(address voterAddress) public giveRightToVoteModifier(voterAddress) {\r... */\n    tag_53:\n        /* \"contracts/Ballot/Ballot.sol\":2196:2208  voterAddress */\n      dup1\n        /* \"contracts/Ballot/Ballot.sol\":993:1014  areYouContractOwner() */\n      tag_122\n        /* \"contracts/Ballot/Ballot.sol\":993:1012  areYouContractOwner */\n      tag_35\n        /* \"contracts/Ballot/Ballot.sol\":993:1014  areYouContractOwner() */\n      jump\t// in\n    tag_122:\n        /* \"contracts/Ballot/Ballot.sol\":971:1089  require(\r... */\n      tag_123\n      jumpi\n      mload(0x40)\n      0x08c379a000000000000000000000000000000000000000000000000000000000\n      dup2\n      mstore\n      0x04\n      add\n      tag_124\n      swap1\n      tag_125\n      jump\t// in\n    tag_124:\n      mload(0x40)\n      dup1\n      swap2\n      sub\n      swap1\n      revert\n    tag_123:\n        /* \"contracts/Ballot/Ballot.sol\":1100:1134  getVoterVotedRequire(voterAddress) */\n      tag_126\n        /* \"contracts/Ballot/Ballot.sol\":1121:1133  voterAddress */\n      dup2\n        /* \"contracts/Ballot/Ballot.sol\":1100:1120  getVoterVotedRequire */\n      tag_127\n        /* \"contracts/Ballot/Ballot.sol\":1100:1134  getVoterVotedRequire(voterAddress) */\n      jump\t// in\n    tag_126:\n        /* \"contracts/Ballot/Ballot.sol\":2252:2256  true */\n      0x01\n        /* \"contracts/Ballot/Ballot.sol\":2221:2227  voters */\n      dup1\n        /* \"contracts/Ballot/Ballot.sol\":2221:2241  voters[voterAddress] */\n      0x00\n        /* \"contracts/Ballot/Ballot.sol\":2228:2240  voterAddress */\n      dup5\n        /* \"contracts/Ballot/Ballot.sol\":2221:2241  voters[voterAddress] */\n      0xffffffffffffffffffffffffffffffffffffffff\n      and\n      0xffffffffffffffffffffffffffffffffffffffff\n      and\n      dup2\n      mstore\n      0x20\n      add\n      swap1\n      dup2\n      mstore\n      0x20\n      add\n      0x00\n      keccak256\n        /* \"contracts/Ballot/Ballot.sol\":2221:2249  voters[voterAddress].canVote */\n      0x00\n      add\n      0x00\n        /* \"contracts/Ballot/Ballot.sol\":2221:2256  voters[voterAddress].canVote = true */\n      0x0100\n      exp\n      dup2\n      sload\n      dup2\n      0xff\n      mul\n      not\n      and\n      swap1\n      dup4\n      iszero\n      iszero\n      mul\n      or\n      swap1\n      sstore\n      pop\n        /* \"contracts/Ballot/Ballot.sol\":2118:2264  function giveRightToVote(address voterAddress) public giveRightToVoteModifier(voterAddress) {\r... */\n      pop\n      pop\n      jump\t// out\n        /* \"contracts/Ballot/Ballot.sol\":314:353  mapping(address => Voter) public voters */\n    tag_56:\n      mstore(0x20, 0x01)\n      dup1\n      0x00\n      mstore\n      keccak256(0x00, 0x40)\n      0x00\n      swap2\n      pop\n      swap1\n      pop\n      dup1\n      0x00\n      add\n      0x00\n      swap1\n      sload\n      swap1\n      0x0100\n      exp\n      swap1\n      div\n      0xff\n      and\n      swap1\n      dup1\n      0x00\n      add\n      0x01\n      swap1\n      sload\n      swap1\n      0x0100\n      exp\n      swap1\n      div\n      0xff\n      and\n      swap1\n      pop\n      dup3\n      jump\t// out\n        /* \"contracts/Ballot/Ballot.sol\":277:305  address public contractOwner */\n    tag_60:\n      0x00\n      dup1\n      sload\n      swap1\n      0x0100\n      exp\n      swap1\n      div\n      0xffffffffffffffffffffffffffffffffffffffff\n      and\n      dup2\n      jump\t// out\n        /* \"contracts/Ballot/Ballot.sol\":4317:4418  function areYouVoted() public view returns (bool) {\r... */\n    tag_63:\n        /* \"contracts/Ballot/Ballot.sol\":4361:4365  bool */\n      0x00\n        /* \"contracts/Ballot/Ballot.sol\":4385:4410  getVoterVoted(msg.sender) */\n      tag_130\n        /* \"contracts/Ballot/Ballot.sol\":4399:4409  msg.sender */\n      caller\n        /* \"contracts/Ballot/Ballot.sol\":4385:4398  getVoterVoted */\n      tag_45\n        /* \"contracts/Ballot/Ballot.sol\":4385:4410  getVoterVoted(msg.sender) */\n      jump\t// in\n    tag_130:\n        /* \"contracts/Ballot/Ballot.sol\":4378:4410  return getVoterVoted(msg.sender) */\n      swap1\n      pop\n        /* \"contracts/Ballot/Ballot.sol\":4317:4418  function areYouVoted() public view returns (bool) {\r... */\n      swap1\n      jump\t// out\n        /* \"contracts/Ballot/Ballot.sol\":4052:4169  function areYouHaveRigthToVote() public view returns (bool) {\r... */\n    tag_66:\n        /* \"contracts/Ballot/Ballot.sol\":4106:4110  bool */\n      0x00\n        /* \"contracts/Ballot/Ballot.sol\":4130:4161  getVoterRigthToVote(msg.sender) */\n      tag_132\n        /* \"contracts/Ballot/Ballot.sol\":4150:4160  msg.sender */\n      caller\n        /* \"contracts/Ballot/Ballot.sol\":4130:4149  getVoterRigthToVote */\n      tag_49\n        /* \"contracts/Ballot/Ballot.sol\":4130:4161  getVoterRigthToVote(msg.sender) */\n      jump\t// in\n    tag_132:\n        /* \"contracts/Ballot/Ballot.sol\":4123:4161  return getVoterRigthToVote(msg.sender) */\n      swap1\n      pop\n        /* \"contracts/Ballot/Ballot.sol\":4052:4169  function areYouHaveRigthToVote() public view returns (bool) {\r... */\n      swap1\n      jump\t// out\n        /* \"contracts/Ballot/Ballot.sol\":3096:3704  function getWinningCandidate() public view returns (uint winningProposal, bool isTie) {        \r... */\n    tag_69:\n        /* \"contracts/Ballot/Ballot.sol\":3148:3168  uint winningProposal */\n      0x00\n        /* \"contracts/Ballot/Ballot.sol\":3170:3180  bool isTie */\n      dup1\n        /* \"contracts/Ballot/Ballot.sol\":3201:3222  uint winningVoteCount */\n      0x00\n        /* \"contracts/Ballot/Ballot.sol\":3240:3259  uint indexCandidate */\n      dup1\n        /* \"contracts/Ballot/Ballot.sol\":3262:3263  0 */\n      0x00\n        /* \"contracts/Ballot/Ballot.sol\":3240:3263  uint indexCandidate = 0 */\n      swap1\n      pop\n        /* \"contracts/Ballot/Ballot.sol\":3235:3697  for (uint indexCandidate = 0; indexCandidate < candidates.length; indexCandidate++) {\r... */\n    tag_134:\n        /* \"contracts/Ballot/Ballot.sol\":3282:3292  candidates */\n      0x02\n        /* \"contracts/Ballot/Ballot.sol\":3282:3299  candidates.length */\n      dup1\n      sload\n      swap1\n      pop\n        /* \"contracts/Ballot/Ballot.sol\":3265:3279  indexCandidate */\n      dup2\n        /* \"contracts/Ballot/Ballot.sol\":3265:3299  indexCandidate < candidates.length */\n      lt\n        /* \"contracts/Ballot/Ballot.sol\":3235:3697  for (uint indexCandidate = 0; indexCandidate < candidates.length; indexCandidate++) {\r... */\n      iszero\n      tag_135\n      jumpi\n        /* \"contracts/Ballot/Ballot.sol\":3378:3394  winningVoteCount */\n      dup2\n        /* \"contracts/Ballot/Ballot.sol\":3338:3348  candidates */\n      0x02\n        /* \"contracts/Ballot/Ballot.sol\":3349:3363  indexCandidate */\n      dup3\n        /* \"contracts/Ballot/Ballot.sol\":3338:3364  candidates[indexCandidate] */\n      dup2\n      sload\n      dup2\n      lt\n      tag_137\n      jumpi\n      tag_138\n      tag_83\n      jump\t// in\n    tag_138:\n    tag_137:\n      swap1\n      0x00\n      mstore\n      keccak256(0x00, 0x20)\n      swap1\n      0x03\n      mul\n      add\n        /* \"contracts/Ballot/Ballot.sol\":3338:3375  candidates[indexCandidate].votesCount */\n      0x02\n      add\n      sload\n        /* \"contracts/Ballot/Ballot.sol\":3338:3394  candidates[indexCandidate].votesCount > winningVoteCount */\n      gt\n        /* \"contracts/Ballot/Ballot.sol\":3334:3686  if (candidates[indexCandidate].votesCount > winningVoteCount) {\r... */\n      iszero\n      tag_140\n      jumpi\n        /* \"contracts/Ballot/Ballot.sol\":3434:3444  candidates */\n      0x02\n        /* \"contracts/Ballot/Ballot.sol\":3445:3459  indexCandidate */\n      dup2\n        /* \"contracts/Ballot/Ballot.sol\":3434:3460  candidates[indexCandidate] */\n      dup2\n      sload\n      dup2\n      lt\n      tag_141\n      jumpi\n      tag_142\n      tag_83\n      jump\t// in\n    tag_142:\n    tag_141:\n      swap1\n      0x00\n      mstore\n      keccak256(0x00, 0x20)\n      swap1\n      0x03\n      mul\n      add\n        /* \"contracts/Ballot/Ballot.sol\":3434:3471  candidates[indexCandidate].votesCount */\n      0x02\n      add\n      sload\n        /* \"contracts/Ballot/Ballot.sol\":3415:3471  winningVoteCount = candidates[indexCandidate].votesCount */\n      swap2\n      pop\n        /* \"contracts/Ballot/Ballot.sol\":3508:3522  indexCandidate */\n      dup1\n        /* \"contracts/Ballot/Ballot.sol\":3490:3522  winningProposal = indexCandidate */\n      swap4\n      pop\n        /* \"contracts/Ballot/Ballot.sol\":3549:3554  false */\n      0x00\n        /* \"contracts/Ballot/Ballot.sol\":3541:3554  isTie = false */\n      swap3\n      pop\n        /* \"contracts/Ballot/Ballot.sol\":3334:3686  if (candidates[indexCandidate].votesCount > winningVoteCount) {\r... */\n      jump(tag_144)\n    tag_140:\n        /* \"contracts/Ballot/Ballot.sol\":3621:3637  winningVoteCount */\n      dup2\n        /* \"contracts/Ballot/Ballot.sol\":3580:3590  candidates */\n      0x02\n        /* \"contracts/Ballot/Ballot.sol\":3591:3605  indexCandidate */\n      dup3\n        /* \"contracts/Ballot/Ballot.sol\":3580:3606  candidates[indexCandidate] */\n      dup2\n      sload\n      dup2\n      lt\n      tag_145\n      jumpi\n      tag_146\n      tag_83\n      jump\t// in\n    tag_146:\n    tag_145:\n      swap1\n      0x00\n      mstore\n      keccak256(0x00, 0x20)\n      swap1\n      0x03\n      mul\n      add\n        /* \"contracts/Ballot/Ballot.sol\":3580:3617  candidates[indexCandidate].votesCount */\n      0x02\n      add\n      sload\n        /* \"contracts/Ballot/Ballot.sol\":3580:3637  candidates[indexCandidate].votesCount == winningVoteCount */\n      eq\n        /* \"contracts/Ballot/Ballot.sol\":3576:3686  if (candidates[indexCandidate].votesCount == winningVoteCount) {\r... */\n      iszero\n      tag_148\n      jumpi\n        /* \"contracts/Ballot/Ballot.sol\":3666:3670  true */\n      0x01\n        /* \"contracts/Ballot/Ballot.sol\":3658:3670  isTie = true */\n      swap3\n      pop\n        /* \"contracts/Ballot/Ballot.sol\":3576:3686  if (candidates[indexCandidate].votesCount == winningVoteCount) {\r... */\n    tag_148:\n        /* \"contracts/Ballot/Ballot.sol\":3334:3686  if (candidates[indexCandidate].votesCount > winningVoteCount) {\r... */\n    tag_144:\n        /* \"contracts/Ballot/Ballot.sol\":3301:3317  indexCandidate++ */\n      dup1\n      dup1\n      tag_149\n      swap1\n      tag_150\n      jump\t// in\n    tag_149:\n      swap2\n      pop\n      pop\n        /* \"contracts/Ballot/Ballot.sol\":3235:3697  for (uint indexCandidate = 0; indexCandidate < candidates.length; indexCandidate++) {\r... */\n      jump(tag_134)\n    tag_135:\n      pop\n        /* \"contracts/Ballot/Ballot.sol\":3182:3704  {        \r... */\n      pop\n        /* \"contracts/Ballot/Ballot.sol\":3096:3704  function getWinningCandidate() public view returns (uint winningProposal, bool isTie) {        \r... */\n      swap1\n      swap2\n      jump\t// out\n        /* \"contracts/Ballot/Ballot.sol\":2272:2784  function vote(string memory name) public voteModifier(msg.sender) {\r... */\n    tag_75:\n        /* \"contracts/Ballot/Ballot.sol\":2326:2336  msg.sender */\n      caller\n        /* \"contracts/Ballot/Ballot.sol\":1259:1267  maxVotes */\n      sload(0x04)\n        /* \"contracts/Ballot/Ballot.sol\":1239:1256  totalVotesCounter */\n      sload(0x03)\n        /* \"contracts/Ballot/Ballot.sol\":1239:1267  totalVotesCounter < maxVotes */\n      lt\n        /* \"contracts/Ballot/Ballot.sol\":1217:1324  require(\r... */\n      tag_152\n      jumpi\n      mload(0x40)\n      0x08c379a000000000000000000000000000000000000000000000000000000000\n      dup2\n      mstore\n      0x04\n      add\n      tag_153\n      swap1\n      tag_154\n      jump\t// in\n    tag_153:\n      mload(0x40)\n      dup1\n      swap2\n      sub\n      swap1\n      revert\n    tag_152:\n        /* \"contracts/Ballot/Ballot.sol\":1357:1380  areYouHaveRigthToVote() */\n      tag_155\n        /* \"contracts/Ballot/Ballot.sol\":1357:1378  areYouHaveRigthToVote */\n      tag_66\n        /* \"contracts/Ballot/Ballot.sol\":1357:1380  areYouHaveRigthToVote() */\n      jump\t// in\n    tag_155:\n        /* \"contracts/Ballot/Ballot.sol\":1335:1435  require(\r... */\n      tag_156\n      jumpi\n      mload(0x40)\n      0x08c379a000000000000000000000000000000000000000000000000000000000\n      dup2\n      mstore\n      0x04\n      add\n      tag_157\n      swap1\n      tag_158\n      jump\t// in\n    tag_157:\n      mload(0x40)\n      dup1\n      swap2\n      sub\n      swap1\n      revert\n    tag_156:\n        /* \"contracts/Ballot/Ballot.sol\":1446:1480  getVoterVotedRequire(voterAddress) */\n      tag_159\n        /* \"contracts/Ballot/Ballot.sol\":1467:1479  voterAddress */\n      dup2\n        /* \"contracts/Ballot/Ballot.sol\":1446:1466  getVoterVotedRequire */\n      tag_127\n        /* \"contracts/Ballot/Ballot.sol\":1446:1480  getVoterVotedRequire(voterAddress) */\n      jump\t// in\n    tag_159:\n        /* \"contracts/Ballot/Ballot.sol\":2349:2369  Voter storage sender */\n      0x00\n        /* \"contracts/Ballot/Ballot.sol\":2372:2378  voters */\n      0x01\n        /* \"contracts/Ballot/Ballot.sol\":2372:2390  voters[msg.sender] */\n      0x00\n        /* \"contracts/Ballot/Ballot.sol\":2379:2389  msg.sender */\n      caller\n        /* \"contracts/Ballot/Ballot.sol\":2372:2390  voters[msg.sender] */\n      0xffffffffffffffffffffffffffffffffffffffff\n      and\n      0xffffffffffffffffffffffffffffffffffffffff\n      and\n      dup2\n      mstore\n      0x20\n      add\n      swap1\n      dup2\n      mstore\n      0x20\n      add\n      0x00\n      keccak256\n        /* \"contracts/Ballot/Ballot.sol\":2349:2390  Voter storage sender = voters[msg.sender] */\n      swap1\n      pop\n        /* \"contracts/Ballot/Ballot.sol\":2507:2517  uint index */\n      0x00\n        /* \"contracts/Ballot/Ballot.sol\":2502:2777  for (uint index = 0; index < candidates.length; index++) {\r... */\n    tag_161:\n        /* \"contracts/Ballot/Ballot.sol\":2531:2541  candidates */\n      0x02\n        /* \"contracts/Ballot/Ballot.sol\":2531:2548  candidates.length */\n      dup1\n      sload\n      swap1\n      pop\n        /* \"contracts/Ballot/Ballot.sol\":2523:2528  index */\n      dup2\n        /* \"contracts/Ballot/Ballot.sol\":2523:2548  index < candidates.length */\n      lt\n        /* \"contracts/Ballot/Ballot.sol\":2502:2777  for (uint index = 0; index < candidates.length; index++) {\r... */\n      iszero\n      tag_162\n      jumpi\n        /* \"contracts/Ballot/Ballot.sol\":2578:2620  stringEqualTo(candidates[index].name,name) */\n      tag_164\n        /* \"contracts/Ballot/Ballot.sol\":2592:2602  candidates */\n      0x02\n        /* \"contracts/Ballot/Ballot.sol\":2603:2608  index */\n      dup3\n        /* \"contracts/Ballot/Ballot.sol\":2592:2609  candidates[index] */\n      dup2\n      sload\n      dup2\n      lt\n      tag_165\n      jumpi\n      tag_166\n      tag_83\n      jump\t// in\n    tag_166:\n    tag_165:\n      swap1\n      0x00\n      mstore\n      keccak256(0x00, 0x20)\n      swap1\n      0x03\n      mul\n      add\n        /* \"contracts/Ballot/Ballot.sol\":2592:2614  candidates[index].name */\n      0x00\n      add\n        /* \"contracts/Ballot/Ballot.sol\":2578:2620  stringEqualTo(candidates[index].name,name) */\n      dup1\n      sload\n      tag_168\n      swap1\n      tag_86\n      jump\t// in\n    tag_168:\n      dup1\n      0x1f\n      add\n      0x20\n      dup1\n      swap2\n      div\n      mul\n      0x20\n      add\n      mload(0x40)\n      swap1\n      dup2\n      add\n      0x40\n      mstore\n      dup1\n      swap3\n      swap2\n      swap1\n      dup2\n      dup2\n      mstore\n      0x20\n      add\n      dup3\n      dup1\n      sload\n      tag_169\n      swap1\n      tag_86\n      jump\t// in\n    tag_169:\n      dup1\n      iszero\n      tag_170\n      jumpi\n      dup1\n      0x1f\n      lt\n      tag_171\n      jumpi\n      0x0100\n      dup1\n      dup4\n      sload\n      div\n      mul\n      dup4\n      mstore\n      swap2\n      0x20\n      add\n      swap2\n      jump(tag_170)\n    tag_171:\n      dup3\n      add\n      swap2\n      swap1\n      0x00\n      mstore\n      keccak256(0x00, 0x20)\n      swap1\n    tag_172:\n      dup2\n      sload\n      dup2\n      mstore\n      swap1\n      0x01\n      add\n      swap1\n      0x20\n      add\n      dup1\n      dup4\n      gt\n      tag_172\n      jumpi\n      dup3\n      swap1\n      sub\n      0x1f\n      and\n      dup3\n      add\n      swap2\n    tag_170:\n      pop\n      pop\n      pop\n      pop\n      pop\n        /* \"contracts/Ballot/Ballot.sol\":2615:2619  name */\n      dup6\n        /* \"contracts/Ballot/Ballot.sol\":2578:2591  stringEqualTo */\n      tag_173\n        /* \"contracts/Ballot/Ballot.sol\":2578:2620  stringEqualTo(candidates[index].name,name) */\n      jump\t// in\n    tag_164:\n        /* \"contracts/Ballot/Ballot.sol\":2574:2766  if (stringEqualTo(candidates[index].name,name)) {\r... */\n      iszero\n      tag_174\n      jumpi\n        /* \"contracts/Ballot/Ballot.sol\":2641:2651  candidates */\n      0x02\n        /* \"contracts/Ballot/Ballot.sol\":2652:2657  index */\n      dup2\n        /* \"contracts/Ballot/Ballot.sol\":2641:2658  candidates[index] */\n      dup2\n      sload\n      dup2\n      lt\n      tag_175\n      jumpi\n      tag_176\n      tag_83\n      jump\t// in\n    tag_176:\n    tag_175:\n      swap1\n      0x00\n      mstore\n      keccak256(0x00, 0x20)\n      swap1\n      0x03\n      mul\n      add\n        /* \"contracts/Ballot/Ballot.sol\":2641:2669  candidates[index].votesCount */\n      0x02\n      add\n      0x00\n        /* \"contracts/Ballot/Ballot.sol\":2641:2671  candidates[index].votesCount++ */\n      dup2\n      sload\n      dup1\n      swap3\n      swap2\n      swap1\n      tag_178\n      swap1\n      tag_150\n      jump\t// in\n    tag_178:\n      swap2\n      swap1\n      pop\n      sstore\n      pop\n        /* \"contracts/Ballot/Ballot.sol\":2708:2712  true */\n      0x01\n        /* \"contracts/Ballot/Ballot.sol\":2690:2696  sender */\n      dup3\n        /* \"contracts/Ballot/Ballot.sol\":2690:2705  sender.hasVoted */\n      0x00\n      add\n      0x01\n        /* \"contracts/Ballot/Ballot.sol\":2690:2712  sender.hasVoted = true */\n      0x0100\n      exp\n      dup2\n      sload\n      dup2\n      0xff\n      mul\n      not\n      and\n      swap1\n      dup4\n      iszero\n      iszero\n      mul\n      or\n      swap1\n      sstore\n      pop\n        /* \"contracts/Ballot/Ballot.sol\":2731:2748  totalVotesCounter */\n      0x03\n      0x00\n        /* \"contracts/Ballot/Ballot.sol\":2731:2750  totalVotesCounter++ */\n      dup2\n      sload\n      dup1\n      swap3\n      swap2\n      swap1\n      tag_179\n      swap1\n      tag_150\n      jump\t// in\n    tag_179:\n      swap2\n      swap1\n      pop\n      sstore\n      pop\n        /* \"contracts/Ballot/Ballot.sol\":2574:2766  if (stringEqualTo(candidates[index].name,name)) {\r... */\n    tag_174:\n        /* \"contracts/Ballot/Ballot.sol\":2550:2557  index++ */\n      dup1\n      dup1\n      tag_180\n      swap1\n      tag_150\n      jump\t// in\n    tag_180:\n      swap2\n      pop\n      pop\n        /* \"contracts/Ballot/Ballot.sol\":2502:2777  for (uint index = 0; index < candidates.length; index++) {\r... */\n      jump(tag_161)\n    tag_162:\n      pop\n        /* \"contracts/Ballot/Ballot.sol\":2338:2784  {\r... */\n      pop\n        /* \"contracts/Ballot/Ballot.sol\":2272:2784  function vote(string memory name) public voteModifier(msg.sender) {\r... */\n      pop\n      pop\n      jump\t// out\n        /* \"contracts/Ballot/Ballot.sol\":1895:2084  function getVoterVotedRequire(address voterAddress) private view {\r... */\n    tag_127:\n        /* \"contracts/Ballot/Ballot.sol\":2001:2028  getVoterVoted(voterAddress) */\n      tag_182\n        /* \"contracts/Ballot/Ballot.sol\":2015:2027  voterAddress */\n      dup2\n        /* \"contracts/Ballot/Ballot.sol\":2001:2014  getVoterVoted */\n      tag_45\n        /* \"contracts/Ballot/Ballot.sol\":2001:2028  getVoterVoted(voterAddress) */\n      jump\t// in\n    tag_182:\n        /* \"contracts/Ballot/Ballot.sol\":2000:2028  !getVoterVoted(voterAddress) */\n      iszero\n        /* \"contracts/Ballot/Ballot.sol\":1978:2076  require(\r... */\n      tag_183\n      jumpi\n      mload(0x40)\n      0x08c379a000000000000000000000000000000000000000000000000000000000\n      dup2\n      mstore\n      0x04\n      add\n      tag_184\n      swap1\n      tag_185\n      jump\t// in\n    tag_184:\n      mload(0x40)\n      dup1\n      swap2\n      sub\n      swap1\n      revert\n    tag_183:\n        /* \"contracts/Ballot/Ballot.sol\":1895:2084  function getVoterVotedRequire(address voterAddress) private view {\r... */\n      pop\n      jump\t// out\n        /* \"contracts/Ballot/Ballot.sol\":4589:4757  function stringEqualTo(string memory s1, string memory s2) internal pure returns (bool) {\r... */\n    tag_173:\n        /* \"contracts/Ballot/Ballot.sol\":4671:4675  bool */\n      0x00\n        /* \"contracts/Ballot/Ballot.sol\":4745:4747  s2 */\n      dup2\n        /* \"contracts/Ballot/Ballot.sol\":4734:4748  abi.encode(s2) */\n      add(0x20, mload(0x40))\n      tag_187\n      swap2\n      swap1\n      tag_23\n      jump\t// in\n    tag_187:\n      mload(0x40)\n      0x20\n      dup2\n      dup4\n      sub\n      sub\n      dup2\n      mstore\n      swap1\n      0x40\n      mstore\n        /* \"contracts/Ballot/Ballot.sol\":4724:4749  keccak256(abi.encode(s2)) */\n      dup1\n      mload\n      swap1\n      0x20\n      add\n      keccak256\n        /* \"contracts/Ballot/Ballot.sol\":4716:4718  s1 */\n      dup4\n        /* \"contracts/Ballot/Ballot.sol\":4705:4719  abi.encode(s1) */\n      add(0x20, mload(0x40))\n      tag_188\n      swap2\n      swap1\n      tag_23\n      jump\t// in\n    tag_188:\n      mload(0x40)\n      0x20\n      dup2\n      dup4\n      sub\n      sub\n      dup2\n      mstore\n      swap1\n      0x40\n      mstore\n        /* \"contracts/Ballot/Ballot.sol\":4695:4720  keccak256(abi.encode(s1)) */\n      dup1\n      mload\n      swap1\n      0x20\n      add\n      keccak256\n        /* \"contracts/Ballot/Ballot.sol\":4695:4749  keccak256(abi.encode(s1)) == keccak256(abi.encode(s2)) */\n      eq\n        /* \"contracts/Ballot/Ballot.sol\":4688:4749  return keccak256(abi.encode(s1)) == keccak256(abi.encode(s2)) */\n      swap1\n      pop\n        /* \"contracts/Ballot/Ballot.sol\":4589:4757  function stringEqualTo(string memory s1, string memory s2) internal pure returns (bool) {\r... */\n      swap3\n      swap2\n      pop\n      pop\n      jump\t// out\n        /* \"#utility.yul\":7:419   */\n    tag_190:\n        /* \"#utility.yul\":85:90   */\n      0x00\n        /* \"#utility.yul\":110:176   */\n      tag_192\n        /* \"#utility.yul\":126:175   */\n      tag_193\n        /* \"#utility.yul\":168:174   */\n      dup5\n        /* \"#utility.yul\":126:175   */\n      tag_194\n      jump\t// in\n    tag_193:\n        /* \"#utility.yul\":110:176   */\n      tag_195\n      jump\t// in\n    tag_192:\n        /* \"#utility.yul\":101:176   */\n      swap1\n      pop\n        /* \"#utility.yul\":199:205   */\n      dup3\n        /* \"#utility.yul\":192:197   */\n      dup2\n        /* \"#utility.yul\":185:206   */\n      mstore\n        /* \"#utility.yul\":237:241   */\n      0x20\n        /* \"#utility.yul\":230:235   */\n      dup2\n        /* \"#utility.yul\":226:242   */\n      add\n        /* \"#utility.yul\":275:278   */\n      dup5\n        /* \"#utility.yul\":266:272   */\n      dup5\n        /* \"#utility.yul\":261:264   */\n      dup5\n        /* \"#utility.yul\":257:273   */\n      add\n        /* \"#utility.yul\":254:279   */\n      gt\n        /* \"#utility.yul\":251:363   */\n      iszero\n      tag_196\n      jumpi\n        /* \"#utility.yul\":282:361   */\n      tag_197\n      tag_198\n      jump\t// in\n    tag_197:\n        /* \"#utility.yul\":251:363   */\n    tag_196:\n        /* \"#utility.yul\":372:413   */\n      tag_199\n        /* \"#utility.yul\":406:412   */\n      dup5\n        /* \"#utility.yul\":401:404   */\n      dup3\n        /* \"#utility.yul\":396:399   */\n      dup6\n        /* \"#utility.yul\":372:413   */\n      tag_200\n      jump\t// in\n    tag_199:\n        /* \"#utility.yul\":91:419   */\n      pop\n        /* \"#utility.yul\":7:419   */\n      swap4\n      swap3\n      pop\n      pop\n      pop\n      jump\t// out\n        /* \"#utility.yul\":425:564   */\n    tag_201:\n        /* \"#utility.yul\":471:476   */\n      0x00\n        /* \"#utility.yul\":509:515   */\n      dup2\n        /* \"#utility.yul\":496:516   */\n      calldataload\n        /* \"#utility.yul\":487:516   */\n      swap1\n      pop\n        /* \"#utility.yul\":525:558   */\n      tag_203\n        /* \"#utility.yul\":552:557   */\n      dup2\n        /* \"#utility.yul\":525:558   */\n      tag_204\n      jump\t// in\n    tag_203:\n        /* \"#utility.yul\":425:564   */\n      swap3\n      swap2\n      pop\n      pop\n      jump\t// out\n        /* \"#utility.yul\":584:924   */\n    tag_205:\n        /* \"#utility.yul\":640:645   */\n      0x00\n        /* \"#utility.yul\":689:692   */\n      dup3\n        /* \"#utility.yul\":682:686   */\n      0x1f\n        /* \"#utility.yul\":674:680   */\n      dup4\n        /* \"#utility.yul\":670:687   */\n      add\n        /* \"#utility.yul\":666:693   */\n      slt\n        /* \"#utility.yul\":656:778   */\n      tag_207\n      jumpi\n        /* \"#utility.yul\":697:776   */\n      tag_208\n      tag_209\n      jump\t// in\n    tag_208:\n        /* \"#utility.yul\":656:778   */\n    tag_207:\n        /* \"#utility.yul\":814:820   */\n      dup2\n        /* \"#utility.yul\":801:821   */\n      calldataload\n        /* \"#utility.yul\":839:918   */\n      tag_210\n        /* \"#utility.yul\":914:917   */\n      dup5\n        /* \"#utility.yul\":906:912   */\n      dup3\n        /* \"#utility.yul\":899:903   */\n      0x20\n        /* \"#utility.yul\":891:897   */\n      dup7\n        /* \"#utility.yul\":887:904   */\n      add\n        /* \"#utility.yul\":839:918   */\n      tag_190\n      jump\t// in\n    tag_210:\n        /* \"#utility.yul\":830:918   */\n      swap2\n      pop\n        /* \"#utility.yul\":646:924   */\n      pop\n        /* \"#utility.yul\":584:924   */\n      swap3\n      swap2\n      pop\n      pop\n      jump\t// out\n        /* \"#utility.yul\":930:1069   */\n    tag_211:\n        /* \"#utility.yul\":976:981   */\n      0x00\n        /* \"#utility.yul\":1014:1020   */\n      dup2\n        /* \"#utility.yul\":1001:1021   */\n      calldataload\n        /* \"#utility.yul\":992:1021   */\n      swap1\n      pop\n        /* \"#utility.yul\":1030:1063   */\n      tag_213\n        /* \"#utility.yul\":1057:1062   */\n      dup2\n        /* \"#utility.yul\":1030:1063   */\n      tag_214\n      jump\t// in\n    tag_213:\n        /* \"#utility.yul\":930:1069   */\n      swap3\n      swap2\n      pop\n      pop\n      jump\t// out\n        /* \"#utility.yul\":1075:1404   */\n    tag_44:\n        /* \"#utility.yul\":1134:1140   */\n      0x00\n        /* \"#utility.yul\":1183:1185   */\n      0x20\n        /* \"#utility.yul\":1171:1180   */\n      dup3\n        /* \"#utility.yul\":1162:1169   */\n      dup5\n        /* \"#utility.yul\":1158:1181   */\n      sub\n        /* \"#utility.yul\":1154:1186   */\n      slt\n        /* \"#utility.yul\":1151:1270   */\n      iszero\n      tag_216\n      jumpi\n        /* \"#utility.yul\":1189:1268   */\n      tag_217\n      tag_218\n      jump\t// in\n    tag_217:\n        /* \"#utility.yul\":1151:1270   */\n    tag_216:\n        /* \"#utility.yul\":1309:1310   */\n      0x00\n        /* \"#utility.yul\":1334:1387   */\n      tag_219\n        /* \"#utility.yul\":1379:1386   */\n      dup5\n        /* \"#utility.yul\":1370:1376   */\n      dup3\n        /* \"#utility.yul\":1359:1368   */\n      dup6\n        /* \"#utility.yul\":1355:1377   */\n      add\n        /* \"#utility.yul\":1334:1387   */\n      tag_201\n      jump\t// in\n    tag_219:\n        /* \"#utility.yul\":1324:1387   */\n      swap2\n      pop\n        /* \"#utility.yul\":1280:1397   */\n      pop\n        /* \"#utility.yul\":1075:1404   */\n      swap3\n      swap2\n      pop\n      pop\n      jump\t// out\n        /* \"#utility.yul\":1410:1919   */\n    tag_74:\n        /* \"#utility.yul\":1479:1485   */\n      0x00\n        /* \"#utility.yul\":1528:1530   */\n      0x20\n        /* \"#utility.yul\":1516:1525   */\n      dup3\n        /* \"#utility.yul\":1507:1514   */\n      dup5\n        /* \"#utility.yul\":1503:1526   */\n      sub\n        /* \"#utility.yul\":1499:1531   */\n      slt\n        /* \"#utility.yul\":1496:1615   */\n      iszero\n      tag_221\n      jumpi\n        /* \"#utility.yul\":1534:1613   */\n      tag_222\n      tag_218\n      jump\t// in\n    tag_222:\n        /* \"#utility.yul\":1496:1615   */\n    tag_221:\n        /* \"#utility.yul\":1682:1683   */\n      0x00\n        /* \"#utility.yul\":1671:1680   */\n      dup3\n        /* \"#utility.yul\":1667:1684   */\n      add\n        /* \"#utility.yul\":1654:1685   */\n      calldataload\n        /* \"#utility.yul\":1712:1730   */\n      0xffffffffffffffff\n        /* \"#utility.yul\":1704:1710   */\n      dup2\n        /* \"#utility.yul\":1701:1731   */\n      gt\n        /* \"#utility.yul\":1698:1815   */\n      iszero\n      tag_223\n      jumpi\n        /* \"#utility.yul\":1734:1813   */\n      tag_224\n      tag_225\n      jump\t// in\n    tag_224:\n        /* \"#utility.yul\":1698:1815   */\n    tag_223:\n        /* \"#utility.yul\":1839:1902   */\n      tag_226\n        /* \"#utility.yul\":1894:1901   */\n      dup5\n        /* \"#utility.yul\":1885:1891   */\n      dup3\n        /* \"#utility.yul\":1874:1883   */\n      dup6\n        /* \"#utility.yul\":1870:1892   */\n      add\n        /* \"#utility.yul\":1839:1902   */\n      tag_205\n      jump\t// in\n    tag_226:\n        /* \"#utility.yul\":1829:1902   */\n      swap2\n      pop\n        /* \"#utility.yul\":1625:1912   */\n      pop\n        /* \"#utility.yul\":1410:1919   */\n      swap3\n      swap2\n      pop\n      pop\n      jump\t// out\n        /* \"#utility.yul\":1925:2254   */\n    tag_30:\n        /* \"#utility.yul\":1984:1990   */\n      0x00\n        /* \"#utility.yul\":2033:2035   */\n      0x20\n        /* \"#utility.yul\":2021:2030   */\n      dup3\n        /* \"#utility.yul\":2012:2019   */\n      dup5\n        /* \"#utility.yul\":2008:2031   */\n      sub\n        /* \"#utility.yul\":2004:2036   */\n      slt\n        /* \"#utility.yul\":2001:2120   */\n      iszero\n      tag_228\n      jumpi\n        /* \"#utility.yul\":2039:2118   */\n      tag_229\n      tag_218\n      jump\t// in\n    tag_229:\n        /* \"#utility.yul\":2001:2120   */\n    tag_228:\n        /* \"#utility.yul\":2159:2160   */\n      0x00\n        /* \"#utility.yul\":2184:2237   */\n      tag_230\n        /* \"#utility.yul\":2229:2236   */\n      dup5\n        /* \"#utility.yul\":2220:2226   */\n      dup3\n        /* \"#utility.yul\":2209:2218   */\n      dup6\n        /* \"#utility.yul\":2205:2227   */\n      add\n        /* \"#utility.yul\":2184:2237   */\n      tag_211\n      jump\t// in\n    tag_230:\n        /* \"#utility.yul\":2174:2237   */\n      swap2\n      pop\n        /* \"#utility.yul\":2130:2247   */\n      pop\n        /* \"#utility.yul\":1925:2254   */\n      swap3\n      swap2\n      pop\n      pop\n      jump\t// out\n        /* \"#utility.yul\":2260:2516   */\n    tag_231:\n        /* \"#utility.yul\":2379:2389   */\n      0x00\n        /* \"#utility.yul\":2414:2510   */\n      tag_233\n        /* \"#utility.yul\":2506:2509   */\n      dup4\n        /* \"#utility.yul\":2498:2504   */\n      dup4\n        /* \"#utility.yul\":2414:2510   */\n      tag_234\n      jump\t// in\n    tag_233:\n        /* \"#utility.yul\":2400:2510   */\n      swap1\n      pop\n        /* \"#utility.yul\":2260:2516   */\n      swap3\n      swap2\n      pop\n      pop\n      jump\t// out\n        /* \"#utility.yul\":2522:2640   */\n    tag_235:\n        /* \"#utility.yul\":2609:2633   */\n      tag_237\n        /* \"#utility.yul\":2627:2632   */\n      dup2\n        /* \"#utility.yul\":2609:2633   */\n      tag_238\n      jump\t// in\n    tag_237:\n        /* \"#utility.yul\":2604:2607   */\n      dup3\n        /* \"#utility.yul\":2597:2634   */\n      mstore\n        /* \"#utility.yul\":2522:2640   */\n      pop\n      pop\n      jump\t// out\n        /* \"#utility.yul\":2712:3823   */\n    tag_239:\n        /* \"#utility.yul\":2881:2884   */\n      0x00\n        /* \"#utility.yul\":2910:2989   */\n      tag_241\n        /* \"#utility.yul\":2983:2988   */\n      dup3\n        /* \"#utility.yul\":2910:2989   */\n      tag_242\n      jump\t// in\n    tag_241:\n        /* \"#utility.yul\":3005:3116   */\n      tag_243\n        /* \"#utility.yul\":3109:3115   */\n      dup2\n        /* \"#utility.yul\":3104:3107   */\n      dup6\n        /* \"#utility.yul\":3005:3116   */\n      tag_244\n      jump\t// in\n    tag_243:\n        /* \"#utility.yul\":2998:3116   */\n      swap4\n      pop\n        /* \"#utility.yul\":3142:3145   */\n      dup4\n        /* \"#utility.yul\":3187:3191   */\n      0x20\n        /* \"#utility.yul\":3179:3185   */\n      dup3\n        /* \"#utility.yul\":3175:3192   */\n      mul\n        /* \"#utility.yul\":3170:3173   */\n      dup6\n        /* \"#utility.yul\":3166:3193   */\n      add\n        /* \"#utility.yul\":3217:3298   */\n      tag_245\n        /* \"#utility.yul\":3292:3297   */\n      dup6\n        /* \"#utility.yul\":3217:3298   */\n      tag_246\n      jump\t// in\n    tag_245:\n        /* \"#utility.yul\":3321:3328   */\n      dup1\n        /* \"#utility.yul\":3352:3353   */\n      0x00\n        /* \"#utility.yul\":3337:3778   */\n    tag_247:\n        /* \"#utility.yul\":3362:3368   */\n      dup6\n        /* \"#utility.yul\":3359:3360   */\n      dup2\n        /* \"#utility.yul\":3356:3369   */\n      lt\n        /* \"#utility.yul\":3337:3778   */\n      iszero\n      tag_249\n      jumpi\n        /* \"#utility.yul\":3433:3442   */\n      dup5\n        /* \"#utility.yul\":3427:3431   */\n      dup5\n        /* \"#utility.yul\":3423:3443   */\n      sub\n        /* \"#utility.yul\":3418:3421   */\n      dup10\n        /* \"#utility.yul\":3411:3444   */\n      mstore\n        /* \"#utility.yul\":3484:3490   */\n      dup2\n        /* \"#utility.yul\":3478:3491   */\n      mload\n        /* \"#utility.yul\":3512:3626   */\n      tag_250\n        /* \"#utility.yul\":3621:3625   */\n      dup6\n        /* \"#utility.yul\":3606:3619   */\n      dup3\n        /* \"#utility.yul\":3512:3626   */\n      tag_231\n      jump\t// in\n    tag_250:\n        /* \"#utility.yul\":3504:3626   */\n      swap5\n      pop\n        /* \"#utility.yul\":3649:3734   */\n      tag_251\n        /* \"#utility.yul\":3727:3733   */\n      dup4\n        /* \"#utility.yul\":3649:3734   */\n      tag_252\n      jump\t// in\n    tag_251:\n        /* \"#utility.yul\":3639:3734   */\n      swap3\n      pop\n        /* \"#utility.yul\":3763:3767   */\n      0x20\n        /* \"#utility.yul\":3758:3761   */\n      dup11\n        /* \"#utility.yul\":3754:3768   */\n      add\n        /* \"#utility.yul\":3747:3768   */\n      swap10\n      pop\n        /* \"#utility.yul\":3397:3778   */\n      pop\n        /* \"#utility.yul\":3384:3385   */\n      0x01\n        /* \"#utility.yul\":3381:3382   */\n      dup2\n        /* \"#utility.yul\":3377:3386   */\n      add\n        /* \"#utility.yul\":3372:3386   */\n      swap1\n      pop\n        /* \"#utility.yul\":3337:3778   */\n      jump(tag_247)\n    tag_249:\n        /* \"#utility.yul\":3341:3355   */\n      pop\n        /* \"#utility.yul\":3794:3798   */\n      dup3\n        /* \"#utility.yul\":3787:3798   */\n      swap8\n      pop\n        /* \"#utility.yul\":3814:3817   */\n      dup8\n        /* \"#utility.yul\":3807:3817   */\n      swap6\n      pop\n        /* \"#utility.yul\":2886:3823   */\n      pop\n      pop\n      pop\n      pop\n      pop\n        /* \"#utility.yul\":2712:3823   */\n      swap3\n      swap2\n      pop\n      pop\n      jump\t// out\n        /* \"#utility.yul\":3829:3938   */\n    tag_253:\n        /* \"#utility.yul\":3910:3931   */\n      tag_255\n        /* \"#utility.yul\":3925:3930   */\n      dup2\n        /* \"#utility.yul\":3910:3931   */\n      tag_256\n      jump\t// in\n    tag_255:\n        /* \"#utility.yul\":3905:3908   */\n      dup3\n        /* \"#utility.yul\":3898:3932   */\n      mstore\n        /* \"#utility.yul\":3829:3938   */\n      pop\n      pop\n      jump\t// out\n        /* \"#utility.yul\":3944:4288   */\n    tag_257:\n        /* \"#utility.yul\":4022:4025   */\n      0x00\n        /* \"#utility.yul\":4050:4089   */\n      tag_259\n        /* \"#utility.yul\":4083:4088   */\n      dup3\n        /* \"#utility.yul\":4050:4089   */\n      tag_260\n      jump\t// in\n    tag_259:\n        /* \"#utility.yul\":4105:4166   */\n      tag_261\n        /* \"#utility.yul\":4159:4165   */\n      dup2\n        /* \"#utility.yul\":4154:4157   */\n      dup6\n        /* \"#utility.yul\":4105:4166   */\n      tag_262\n      jump\t// in\n    tag_261:\n        /* \"#utility.yul\":4098:4166   */\n      swap4\n      pop\n        /* \"#utility.yul\":4175:4227   */\n      tag_263\n        /* \"#utility.yul\":4220:4226   */\n      dup2\n        /* \"#utility.yul\":4215:4218   */\n      dup6\n        /* \"#utility.yul\":4208:4212   */\n      0x20\n        /* \"#utility.yul\":4201:4206   */\n      dup7\n        /* \"#utility.yul\":4197:4213   */\n      add\n        /* \"#utility.yul\":4175:4227   */\n      tag_264\n      jump\t// in\n    tag_263:\n        /* \"#utility.yul\":4252:4281   */\n      tag_265\n        /* \"#utility.yul\":4274:4280   */\n      dup2\n        /* \"#utility.yul\":4252:4281   */\n      tag_266\n      jump\t// in\n    tag_265:\n        /* \"#utility.yul\":4247:4250   */\n      dup5\n        /* \"#utility.yul\":4243:4282   */\n      add\n        /* \"#utility.yul\":4236:4282   */\n      swap2\n      pop\n        /* \"#utility.yul\":4026:4288   */\n      pop\n        /* \"#utility.yul\":3944:4288   */\n      swap3\n      swap2\n      pop\n      pop\n      jump\t// out\n        /* \"#utility.yul\":4294:4658   */\n    tag_267:\n        /* \"#utility.yul\":4382:4385   */\n      0x00\n        /* \"#utility.yul\":4410:4449   */\n      tag_269\n        /* \"#utility.yul\":4443:4448   */\n      dup3\n        /* \"#utility.yul\":4410:4449   */\n      tag_260\n      jump\t// in\n    tag_269:\n        /* \"#utility.yul\":4465:4536   */\n      tag_270\n        /* \"#utility.yul\":4529:4535   */\n      dup2\n        /* \"#utility.yul\":4524:4527   */\n      dup6\n        /* \"#utility.yul\":4465:4536   */\n      tag_271\n      jump\t// in\n    tag_270:\n        /* \"#utility.yul\":4458:4536   */\n      swap4\n      pop\n        /* \"#utility.yul\":4545:4597   */\n      tag_272\n        /* \"#utility.yul\":4590:4596   */\n      dup2\n        /* \"#utility.yul\":4585:4588   */\n      dup6\n        /* \"#utility.yul\":4578:4582   */\n      0x20\n        /* \"#utility.yul\":4571:4576   */\n      dup7\n        /* \"#utility.yul\":4567:4583   */\n      add\n        /* \"#utility.yul\":4545:4597   */\n      tag_264\n      jump\t// in\n    tag_272:\n        /* \"#utility.yul\":4622:4651   */\n      tag_273\n        /* \"#utility.yul\":4644:4650   */\n      dup2\n        /* \"#utility.yul\":4622:4651   */\n      tag_266\n      jump\t// in\n    tag_273:\n        /* \"#utility.yul\":4617:4620   */\n      dup5\n        /* \"#utility.yul\":4613:4652   */\n      add\n        /* \"#utility.yul\":4606:4652   */\n      swap2\n      pop\n        /* \"#utility.yul\":4386:4658   */\n      pop\n        /* \"#utility.yul\":4294:4658   */\n      swap3\n      swap2\n      pop\n      pop\n      jump\t// out\n        /* \"#utility.yul\":4664:5030   */\n    tag_274:\n        /* \"#utility.yul\":4806:4809   */\n      0x00\n        /* \"#utility.yul\":4827:4894   */\n      tag_276\n        /* \"#utility.yul\":4891:4893   */\n      0x2f\n        /* \"#utility.yul\":4886:4889   */\n      dup4\n        /* \"#utility.yul\":4827:4894   */\n      tag_271\n      jump\t// in\n    tag_276:\n        /* \"#utility.yul\":4820:4894   */\n      swap2\n      pop\n        /* \"#utility.yul\":4903:4996   */\n      tag_277\n        /* \"#utility.yul\":4992:4995   */\n      dup3\n        /* \"#utility.yul\":4903:4996   */\n      tag_278\n      jump\t// in\n    tag_277:\n        /* \"#utility.yul\":5021:5023   */\n      0x40\n        /* \"#utility.yul\":5016:5019   */\n      dup3\n        /* \"#utility.yul\":5012:5024   */\n      add\n        /* \"#utility.yul\":5005:5024   */\n      swap1\n      pop\n        /* \"#utility.yul\":4664:5030   */\n      swap2\n      swap1\n      pop\n      jump\t// out\n        /* \"#utility.yul\":5036:5402   */\n    tag_279:\n        /* \"#utility.yul\":5178:5181   */\n      0x00\n        /* \"#utility.yul\":5199:5266   */\n      tag_281\n        /* \"#utility.yul\":5263:5265   */\n      0x1c\n        /* \"#utility.yul\":5258:5261   */\n      dup4\n        /* \"#utility.yul\":5199:5266   */\n      tag_271\n      jump\t// in\n    tag_281:\n        /* \"#utility.yul\":5192:5266   */\n      swap2\n      pop\n        /* \"#utility.yul\":5275:5368   */\n      tag_282\n        /* \"#utility.yul\":5364:5367   */\n      dup3\n        /* \"#utility.yul\":5275:5368   */\n      tag_283\n      jump\t// in\n    tag_282:\n        /* \"#utility.yul\":5393:5395   */\n      0x20\n        /* \"#utility.yul\":5388:5391   */\n      dup3\n        /* \"#utility.yul\":5384:5396   */\n      add\n        /* \"#utility.yul\":5377:5396   */\n      swap1\n      pop\n        /* \"#utility.yul\":5036:5402   */\n      swap2\n      swap1\n      pop\n      jump\t// out\n        /* \"#utility.yul\":5408:5774   */\n    tag_284:\n        /* \"#utility.yul\":5550:5553   */\n      0x00\n        /* \"#utility.yul\":5571:5638   */\n      tag_286\n        /* \"#utility.yul\":5635:5637   */\n      0x14\n        /* \"#utility.yul\":5630:5633   */\n      dup4\n        /* \"#utility.yul\":5571:5638   */\n      tag_271\n      jump\t// in\n    tag_286:\n        /* \"#utility.yul\":5564:5638   */\n      swap2\n      pop\n        /* \"#utility.yul\":5647:5740   */\n      tag_287\n        /* \"#utility.yul\":5736:5739   */\n      dup3\n        /* \"#utility.yul\":5647:5740   */\n      tag_288\n      jump\t// in\n    tag_287:\n        /* \"#utility.yul\":5765:5767   */\n      0x20\n        /* \"#utility.yul\":5760:5763   */\n      dup3\n        /* \"#utility.yul\":5756:5768   */\n      add\n        /* \"#utility.yul\":5749:5768   */\n      swap1\n      pop\n        /* \"#utility.yul\":5408:5774   */\n      swap2\n      swap1\n      pop\n      jump\t// out\n        /* \"#utility.yul\":5780:6146   */\n    tag_289:\n        /* \"#utility.yul\":5922:5925   */\n      0x00\n        /* \"#utility.yul\":5943:6010   */\n      tag_291\n        /* \"#utility.yul\":6007:6009   */\n      0x1a\n        /* \"#utility.yul\":6002:6005   */\n      dup4\n        /* \"#utility.yul\":5943:6010   */\n      tag_271\n      jump\t// in\n    tag_291:\n        /* \"#utility.yul\":5936:6010   */\n      swap2\n      pop\n        /* \"#utility.yul\":6019:6112   */\n      tag_292\n        /* \"#utility.yul\":6108:6111   */\n      dup3\n        /* \"#utility.yul\":6019:6112   */\n      tag_293\n      jump\t// in\n    tag_292:\n        /* \"#utility.yul\":6137:6139   */\n      0x20\n        /* \"#utility.yul\":6132:6135   */\n      dup3\n        /* \"#utility.yul\":6128:6140   */\n      add\n        /* \"#utility.yul\":6121:6140   */\n      swap1\n      pop\n        /* \"#utility.yul\":5780:6146   */\n      swap2\n      swap1\n      pop\n      jump\t// out\n        /* \"#utility.yul\":6152:6518   */\n    tag_294:\n        /* \"#utility.yul\":6294:6297   */\n      0x00\n        /* \"#utility.yul\":6315:6382   */\n      tag_296\n        /* \"#utility.yul\":6379:6381   */\n      0x18\n        /* \"#utility.yul\":6374:6377   */\n      dup4\n        /* \"#utility.yul\":6315:6382   */\n      tag_271\n      jump\t// in\n    tag_296:\n        /* \"#utility.yul\":6308:6382   */\n      swap2\n      pop\n        /* \"#utility.yul\":6391:6484   */\n      tag_297\n        /* \"#utility.yul\":6480:6483   */\n      dup3\n        /* \"#utility.yul\":6391:6484   */\n      tag_298\n      jump\t// in\n    tag_297:\n        /* \"#utility.yul\":6509:6511   */\n      0x20\n        /* \"#utility.yul\":6504:6507   */\n      dup3\n        /* \"#utility.yul\":6500:6512   */\n      add\n        /* \"#utility.yul\":6493:6512   */\n      swap1\n      pop\n        /* \"#utility.yul\":6152:6518   */\n      swap2\n      swap1\n      pop\n      jump\t// out\n        /* \"#utility.yul\":6586:7434   */\n    tag_234:\n        /* \"#utility.yul\":6695:6698   */\n      0x00\n        /* \"#utility.yul\":6731:6735   */\n      0x60\n        /* \"#utility.yul\":6726:6729   */\n      dup4\n        /* \"#utility.yul\":6722:6736   */\n      add\n        /* \"#utility.yul\":6818:6822   */\n      0x00\n        /* \"#utility.yul\":6811:6816   */\n      dup4\n        /* \"#utility.yul\":6807:6823   */\n      add\n        /* \"#utility.yul\":6801:6824   */\n      mload\n        /* \"#utility.yul\":6871:6874   */\n      dup5\n        /* \"#utility.yul\":6865:6869   */\n      dup3\n        /* \"#utility.yul\":6861:6875   */\n      sub\n        /* \"#utility.yul\":6854:6858   */\n      0x00\n        /* \"#utility.yul\":6849:6852   */\n      dup7\n        /* \"#utility.yul\":6845:6859   */\n      add\n        /* \"#utility.yul\":6838:6876   */\n      mstore\n        /* \"#utility.yul\":6897:6970   */\n      tag_300\n        /* \"#utility.yul\":6965:6969   */\n      dup3\n        /* \"#utility.yul\":6951:6963   */\n      dup3\n        /* \"#utility.yul\":6897:6970   */\n      tag_257\n      jump\t// in\n    tag_300:\n        /* \"#utility.yul\":6889:6970   */\n      swap2\n      pop\n        /* \"#utility.yul\":6746:6981   */\n      pop\n        /* \"#utility.yul\":7064:7068   */\n      0x20\n        /* \"#utility.yul\":7057:7062   */\n      dup4\n        /* \"#utility.yul\":7053:7069   */\n      add\n        /* \"#utility.yul\":7047:7070   */\n      mload\n        /* \"#utility.yul\":7117:7120   */\n      dup5\n        /* \"#utility.yul\":7111:7115   */\n      dup3\n        /* \"#utility.yul\":7107:7121   */\n      sub\n        /* \"#utility.yul\":7100:7104   */\n      0x20\n        /* \"#utility.yul\":7095:7098   */\n      dup7\n        /* \"#utility.yul\":7091:7105   */\n      add\n        /* \"#utility.yul\":7084:7122   */\n      mstore\n        /* \"#utility.yul\":7143:7216   */\n      tag_301\n        /* \"#utility.yul\":7211:7215   */\n      dup3\n        /* \"#utility.yul\":7197:7209   */\n      dup3\n        /* \"#utility.yul\":7143:7216   */\n      tag_257\n      jump\t// in\n    tag_301:\n        /* \"#utility.yul\":7135:7216   */\n      swap2\n      pop\n        /* \"#utility.yul\":6991:7227   */\n      pop\n        /* \"#utility.yul\":7315:7319   */\n      0x40\n        /* \"#utility.yul\":7308:7313   */\n      dup4\n        /* \"#utility.yul\":7304:7320   */\n      add\n        /* \"#utility.yul\":7298:7321   */\n      mload\n        /* \"#utility.yul\":7334:7397   */\n      tag_302\n        /* \"#utility.yul\":7391:7395   */\n      0x40\n        /* \"#utility.yul\":7386:7389   */\n      dup7\n        /* \"#utility.yul\":7382:7396   */\n      add\n        /* \"#utility.yul\":7368:7380   */\n      dup3\n        /* \"#utility.yul\":7334:7397   */\n      tag_303\n      jump\t// in\n    tag_302:\n        /* \"#utility.yul\":7237:7407   */\n      pop\n        /* \"#utility.yul\":7424:7428   */\n      dup1\n        /* \"#utility.yul\":7417:7428   */\n      swap2\n      pop\n        /* \"#utility.yul\":6700:7434   */\n      pop\n        /* \"#utility.yul\":6586:7434   */\n      swap3\n      swap2\n      pop\n      pop\n      jump\t// out\n        /* \"#utility.yul\":7440:7548   */\n    tag_303:\n        /* \"#utility.yul\":7517:7541   */\n      tag_305\n        /* \"#utility.yul\":7535:7540   */\n      dup2\n        /* \"#utility.yul\":7517:7541   */\n      tag_306\n      jump\t// in\n    tag_305:\n        /* \"#utility.yul\":7512:7515   */\n      dup3\n        /* \"#utility.yul\":7505:7542   */\n      mstore\n        /* \"#utility.yul\":7440:7548   */\n      pop\n      pop\n      jump\t// out\n        /* \"#utility.yul\":7554:7672   */\n    tag_307:\n        /* \"#utility.yul\":7641:7665   */\n      tag_309\n        /* \"#utility.yul\":7659:7664   */\n      dup2\n        /* \"#utility.yul\":7641:7665   */\n      tag_306\n      jump\t// in\n    tag_309:\n        /* \"#utility.yul\":7636:7639   */\n      dup3\n        /* \"#utility.yul\":7629:7666   */\n      mstore\n        /* \"#utility.yul\":7554:7672   */\n      pop\n      pop\n      jump\t// out\n        /* \"#utility.yul\":7678:7900   */\n    tag_27:\n        /* \"#utility.yul\":7771:7775   */\n      0x00\n        /* \"#utility.yul\":7809:7811   */\n      0x20\n        /* \"#utility.yul\":7798:7807   */\n      dup3\n        /* \"#utility.yul\":7794:7812   */\n      add\n        /* \"#utility.yul\":7786:7812   */\n      swap1\n      pop\n        /* \"#utility.yul\":7822:7893   */\n      tag_311\n        /* \"#utility.yul\":7890:7891   */\n      0x00\n        /* \"#utility.yul\":7879:7888   */\n      dup4\n        /* \"#utility.yul\":7875:7892   */\n      add\n        /* \"#utility.yul\":7866:7872   */\n      dup5\n        /* \"#utility.yul\":7822:7893   */\n      tag_235\n      jump\t// in\n    tag_311:\n        /* \"#utility.yul\":7678:7900   */\n      swap3\n      swap2\n      pop\n      pop\n      jump\t// out\n        /* \"#utility.yul\":7906:8379   */\n    tag_41:\n        /* \"#utility.yul\":8099:8103   */\n      0x00\n        /* \"#utility.yul\":8137:8139   */\n      0x20\n        /* \"#utility.yul\":8126:8135   */\n      dup3\n        /* \"#utility.yul\":8122:8140   */\n      add\n        /* \"#utility.yul\":8114:8140   */\n      swap1\n      pop\n        /* \"#utility.yul\":8186:8195   */\n      dup2\n        /* \"#utility.yul\":8180:8184   */\n      dup2\n        /* \"#utility.yul\":8176:8196   */\n      sub\n        /* \"#utility.yul\":8172:8173   */\n      0x00\n        /* \"#utility.yul\":8161:8170   */\n      dup4\n        /* \"#utility.yul\":8157:8174   */\n      add\n        /* \"#utility.yul\":8150:8197   */\n      mstore\n        /* \"#utility.yul\":8214:8372   */\n      tag_313\n        /* \"#utility.yul\":8367:8371   */\n      dup2\n        /* \"#utility.yul\":8358:8364   */\n      dup5\n        /* \"#utility.yul\":8214:8372   */\n      tag_239\n      jump\t// in\n    tag_313:\n        /* \"#utility.yul\":8206:8372   */\n      swap1\n      pop\n        /* \"#utility.yul\":7906:8379   */\n      swap3\n      swap2\n      pop\n      pop\n      jump\t// out\n        /* \"#utility.yul\":8385:8595   */\n    tag_37:\n        /* \"#utility.yul\":8472:8476   */\n      0x00\n        /* \"#utility.yul\":8510:8512   */\n      0x20\n        /* \"#utility.yul\":8499:8508   */\n      dup3\n        /* \"#utility.yul\":8495:8513   */\n      add\n        /* \"#utility.yul\":8487:8513   */\n      swap1\n      pop\n        /* \"#utility.yul\":8523:8588   */\n      tag_315\n        /* \"#utility.yul\":8585:8586   */\n      0x00\n        /* \"#utility.yul\":8574:8583   */\n      dup4\n        /* \"#utility.yul\":8570:8587   */\n      add\n        /* \"#utility.yul\":8561:8567   */\n      dup5\n        /* \"#utility.yul\":8523:8588   */\n      tag_253\n      jump\t// in\n    tag_315:\n        /* \"#utility.yul\":8385:8595   */\n      swap3\n      swap2\n      pop\n      pop\n      jump\t// out\n        /* \"#utility.yul\":8601:8909   */\n    tag_58:\n        /* \"#utility.yul\":8710:8714   */\n      0x00\n        /* \"#utility.yul\":8748:8750   */\n      0x40\n        /* \"#utility.yul\":8737:8746   */\n      dup3\n        /* \"#utility.yul\":8733:8751   */\n      add\n        /* \"#utility.yul\":8725:8751   */\n      swap1\n      pop\n        /* \"#utility.yul\":8761:8826   */\n      tag_317\n        /* \"#utility.yul\":8823:8824   */\n      0x00\n        /* \"#utility.yul\":8812:8821   */\n      dup4\n        /* \"#utility.yul\":8808:8825   */\n      add\n        /* \"#utility.yul\":8799:8805   */\n      dup6\n        /* \"#utility.yul\":8761:8826   */\n      tag_253\n      jump\t// in\n    tag_317:\n        /* \"#utility.yul\":8836:8902   */\n      tag_318\n        /* \"#utility.yul\":8898:8900   */\n      0x20\n        /* \"#utility.yul\":8887:8896   */\n      dup4\n        /* \"#utility.yul\":8883:8901   */\n      add\n        /* \"#utility.yul\":8874:8880   */\n      dup5\n        /* \"#utility.yul\":8836:8902   */\n      tag_253\n      jump\t// in\n    tag_318:\n        /* \"#utility.yul\":8601:8909   */\n      swap4\n      swap3\n      pop\n      pop\n      pop\n      jump\t// out\n        /* \"#utility.yul\":8915:9228   */\n    tag_23:\n        /* \"#utility.yul\":9028:9032   */\n      0x00\n        /* \"#utility.yul\":9066:9068   */\n      0x20\n        /* \"#utility.yul\":9055:9064   */\n      dup3\n        /* \"#utility.yul\":9051:9069   */\n      add\n        /* \"#utility.yul\":9043:9069   */\n      swap1\n      pop\n        /* \"#utility.yul\":9115:9124   */\n      dup2\n        /* \"#utility.yul\":9109:9113   */\n      dup2\n        /* \"#utility.yul\":9105:9125   */\n      sub\n        /* \"#utility.yul\":9101:9102   */\n      0x00\n        /* \"#utility.yul\":9090:9099   */\n      dup4\n        /* \"#utility.yul\":9086:9103   */\n      add\n        /* \"#utility.yul\":9079:9126   */\n      mstore\n        /* \"#utility.yul\":9143:9221   */\n      tag_320\n        /* \"#utility.yul\":9216:9220   */\n      dup2\n        /* \"#utility.yul\":9207:9213   */\n      dup5\n        /* \"#utility.yul\":9143:9221   */\n      tag_267\n      jump\t// in\n    tag_320:\n        /* \"#utility.yul\":9135:9221   */\n      swap1\n      pop\n        /* \"#utility.yul\":8915:9228   */\n      swap3\n      swap2\n      pop\n      pop\n      jump\t// out\n        /* \"#utility.yul\":9234:9858   */\n    tag_33:\n        /* \"#utility.yul\":9423:9427   */\n      0x00\n        /* \"#utility.yul\":9461:9463   */\n      0x60\n        /* \"#utility.yul\":9450:9459   */\n      dup3\n        /* \"#utility.yul\":9446:9464   */\n      add\n        /* \"#utility.yul\":9438:9464   */\n      swap1\n      pop\n        /* \"#utility.yul\":9510:9519   */\n      dup2\n        /* \"#utility.yul\":9504:9508   */\n      dup2\n        /* \"#utility.yul\":9500:9520   */\n      sub\n        /* \"#utility.yul\":9496:9497   */\n      0x00\n        /* \"#utility.yul\":9485:9494   */\n      dup4\n        /* \"#utility.yul\":9481:9498   */\n      add\n        /* \"#utility.yul\":9474:9521   */\n      mstore\n        /* \"#utility.yul\":9538:9616   */\n      tag_322\n        /* \"#utility.yul\":9611:9615   */\n      dup2\n        /* \"#utility.yul\":9602:9608   */\n      dup7\n        /* \"#utility.yul\":9538:9616   */\n      tag_267\n      jump\t// in\n    tag_322:\n        /* \"#utility.yul\":9530:9616   */\n      swap1\n      pop\n        /* \"#utility.yul\":9663:9672   */\n      dup2\n        /* \"#utility.yul\":9657:9661   */\n      dup2\n        /* \"#utility.yul\":9653:9673   */\n      sub\n        /* \"#utility.yul\":9648:9650   */\n      0x20\n        /* \"#utility.yul\":9637:9646   */\n      dup4\n        /* \"#utility.yul\":9633:9651   */\n      add\n        /* \"#utility.yul\":9626:9674   */\n      mstore\n        /* \"#utility.yul\":9691:9769   */\n      tag_323\n        /* \"#utility.yul\":9764:9768   */\n      dup2\n        /* \"#utility.yul\":9755:9761   */\n      dup6\n        /* \"#utility.yul\":9691:9769   */\n      tag_267\n      jump\t// in\n    tag_323:\n        /* \"#utility.yul\":9683:9769   */\n      swap1\n      pop\n        /* \"#utility.yul\":9779:9851   */\n      tag_324\n        /* \"#utility.yul\":9847:9849   */\n      0x40\n        /* \"#utility.yul\":9836:9845   */\n      dup4\n        /* \"#utility.yul\":9832:9850   */\n      add\n        /* \"#utility.yul\":9823:9829   */\n      dup5\n        /* \"#utility.yul\":9779:9851   */\n      tag_307\n      jump\t// in\n    tag_324:\n        /* \"#utility.yul\":9234:9858   */\n      swap5\n      swap4\n      pop\n      pop\n      pop\n      pop\n      jump\t// out\n        /* \"#utility.yul\":9864:10283   */\n    tag_125:\n        /* \"#utility.yul\":10030:10034   */\n      0x00\n        /* \"#utility.yul\":10068:10070   */\n      0x20\n        /* \"#utility.yul\":10057:10066   */\n      dup3\n        /* \"#utility.yul\":10053:10071   */\n      add\n        /* \"#utility.yul\":10045:10071   */\n      swap1\n      pop\n        /* \"#utility.yul\":10117:10126   */\n      dup2\n        /* \"#utility.yul\":10111:10115   */\n      dup2\n        /* \"#utility.yul\":10107:10127   */\n      sub\n        /* \"#utility.yul\":10103:10104   */\n      0x00\n        /* \"#utility.yul\":10092:10101   */\n      dup4\n        /* \"#utility.yul\":10088:10105   */\n      add\n        /* \"#utility.yul\":10081:10128   */\n      mstore\n        /* \"#utility.yul\":10145:10276   */\n      tag_326\n        /* \"#utility.yul\":10271:10275   */\n      dup2\n        /* \"#utility.yul\":10145:10276   */\n      tag_274\n      jump\t// in\n    tag_326:\n        /* \"#utility.yul\":10137:10276   */\n      swap1\n      pop\n        /* \"#utility.yul\":9864:10283   */\n      swap2\n      swap1\n      pop\n      jump\t// out\n        /* \"#utility.yul\":10289:10708   */\n    tag_154:\n        /* \"#utility.yul\":10455:10459   */\n      0x00\n        /* \"#utility.yul\":10493:10495   */\n      0x20\n        /* \"#utility.yul\":10482:10491   */\n      dup3\n        /* \"#utility.yul\":10478:10496   */\n      add\n        /* \"#utility.yul\":10470:10496   */\n      swap1\n      pop\n        /* \"#utility.yul\":10542:10551   */\n      dup2\n        /* \"#utility.yul\":10536:10540   */\n      dup2\n        /* \"#utility.yul\":10532:10552   */\n      sub\n        /* \"#utility.yul\":10528:10529   */\n      0x00\n        /* \"#utility.yul\":10517:10526   */\n      dup4\n        /* \"#utility.yul\":10513:10530   */\n      add\n        /* \"#utility.yul\":10506:10553   */\n      mstore\n        /* \"#utility.yul\":10570:10701   */\n      tag_328\n        /* \"#utility.yul\":10696:10700   */\n      dup2\n        /* \"#utility.yul\":10570:10701   */\n      tag_279\n      jump\t// in\n    tag_328:\n        /* \"#utility.yul\":10562:10701   */\n      swap1\n      pop\n        /* \"#utility.yul\":10289:10708   */\n      swap2\n      swap1\n      pop\n      jump\t// out\n        /* \"#utility.yul\":10714:11133   */\n    tag_185:\n        /* \"#utility.yul\":10880:10884   */\n      0x00\n        /* \"#utility.yul\":10918:10920   */\n      0x20\n        /* \"#utility.yul\":10907:10916   */\n      dup3\n        /* \"#utility.yul\":10903:10921   */\n      add\n        /* \"#utility.yul\":10895:10921   */\n      swap1\n      pop\n        /* \"#utility.yul\":10967:10976   */\n      dup2\n        /* \"#utility.yul\":10961:10965   */\n      dup2\n        /* \"#utility.yul\":10957:10977   */\n      sub\n        /* \"#utility.yul\":10953:10954   */\n      0x00\n        /* \"#utility.yul\":10942:10951   */\n      dup4\n        /* \"#utility.yul\":10938:10955   */\n      add\n        /* \"#utility.yul\":10931:10978   */\n      mstore\n        /* \"#utility.yul\":10995:11126   */\n      tag_330\n        /* \"#utility.yul\":11121:11125   */\n      dup2\n        /* \"#utility.yul\":10995:11126   */\n      tag_284\n      jump\t// in\n    tag_330:\n        /* \"#utility.yul\":10987:11126   */\n      swap1\n      pop\n        /* \"#utility.yul\":10714:11133   */\n      swap2\n      swap1\n      pop\n      jump\t// out\n        /* \"#utility.yul\":11139:11558   */\n    tag_158:\n        /* \"#utility.yul\":11305:11309   */\n      0x00\n        /* \"#utility.yul\":11343:11345   */\n      0x20\n        /* \"#utility.yul\":11332:11341   */\n      dup3\n        /* \"#utility.yul\":11328:11346   */\n      add\n        /* \"#utility.yul\":11320:11346   */\n      swap1\n      pop\n        /* \"#utility.yul\":11392:11401   */\n      dup2\n        /* \"#utility.yul\":11386:11390   */\n      dup2\n        /* \"#utility.yul\":11382:11402   */\n      sub\n        /* \"#utility.yul\":11378:11379   */\n      0x00\n        /* \"#utility.yul\":11367:11376   */\n      dup4\n        /* \"#utility.yul\":11363:11380   */\n      add\n        /* \"#utility.yul\":11356:11403   */\n      mstore\n        /* \"#utility.yul\":11420:11551   */\n      tag_332\n        /* \"#utility.yul\":11546:11550   */\n      dup2\n        /* \"#utility.yul\":11420:11551   */\n      tag_289\n      jump\t// in\n    tag_332:\n        /* \"#utility.yul\":11412:11551   */\n      swap1\n      pop\n        /* \"#utility.yul\":11139:11558   */\n      swap2\n      swap1\n      pop\n      jump\t// out\n        /* \"#utility.yul\":11564:11983   */\n    tag_80:\n        /* \"#utility.yul\":11730:11734   */\n      0x00\n        /* \"#utility.yul\":11768:11770   */\n      0x20\n        /* \"#utility.yul\":11757:11766   */\n      dup3\n        /* \"#utility.yul\":11753:11771   */\n      add\n        /* \"#utility.yul\":11745:11771   */\n      swap1\n      pop\n        /* \"#utility.yul\":11817:11826   */\n      dup2\n        /* \"#utility.yul\":11811:11815   */\n      dup2\n        /* \"#utility.yul\":11807:11827   */\n      sub\n        /* \"#utility.yul\":11803:11804   */\n      0x00\n        /* \"#utility.yul\":11792:11801   */\n      dup4\n        /* \"#utility.yul\":11788:11805   */\n      add\n        /* \"#utility.yul\":11781:11828   */\n      mstore\n        /* \"#utility.yul\":11845:11976   */\n      tag_334\n        /* \"#utility.yul\":11971:11975   */\n      dup2\n        /* \"#utility.yul\":11845:11976   */\n      tag_294\n      jump\t// in\n    tag_334:\n        /* \"#utility.yul\":11837:11976   */\n      swap1\n      pop\n        /* \"#utility.yul\":11564:11983   */\n      swap2\n      swap1\n      pop\n      jump\t// out\n        /* \"#utility.yul\":11989:12309   */\n    tag_71:\n        /* \"#utility.yul\":12104:12108   */\n      0x00\n        /* \"#utility.yul\":12142:12144   */\n      0x40\n        /* \"#utility.yul\":12131:12140   */\n      dup3\n        /* \"#utility.yul\":12127:12145   */\n      add\n        /* \"#utility.yul\":12119:12145   */\n      swap1\n      pop\n        /* \"#utility.yul\":12155:12226   */\n      tag_336\n        /* \"#utility.yul\":12223:12224   */\n      0x00\n        /* \"#utility.yul\":12212:12221   */\n      dup4\n        /* \"#utility.yul\":12208:12225   */\n      add\n        /* \"#utility.yul\":12199:12205   */\n      dup6\n        /* \"#utility.yul\":12155:12226   */\n      tag_307\n      jump\t// in\n    tag_336:\n        /* \"#utility.yul\":12236:12302   */\n      tag_337\n        /* \"#utility.yul\":12298:12300   */\n      0x20\n        /* \"#utility.yul\":12287:12296   */\n      dup4\n        /* \"#utility.yul\":12283:12301   */\n      add\n        /* \"#utility.yul\":12274:12280   */\n      dup5\n        /* \"#utility.yul\":12236:12302   */\n      tag_253\n      jump\t// in\n    tag_337:\n        /* \"#utility.yul\":11989:12309   */\n      swap4\n      swap3\n      pop\n      pop\n      pop\n      jump\t// out\n        /* \"#utility.yul\":12315:12444   */\n    tag_195:\n        /* \"#utility.yul\":12349:12355   */\n      0x00\n        /* \"#utility.yul\":12376:12396   */\n      tag_339\n      tag_340\n      jump\t// in\n    tag_339:\n        /* \"#utility.yul\":12366:12396   */\n      swap1\n      pop\n        /* \"#utility.yul\":12405:12438   */\n      tag_341\n        /* \"#utility.yul\":12433:12437   */\n      dup3\n        /* \"#utility.yul\":12425:12431   */\n      dup3\n        /* \"#utility.yul\":12405:12438   */\n      tag_342\n      jump\t// in\n    tag_341:\n        /* \"#utility.yul\":12315:12444   */\n      swap2\n      swap1\n      pop\n      jump\t// out\n        /* \"#utility.yul\":12450:12525   */\n    tag_340:\n        /* \"#utility.yul\":12483:12489   */\n      0x00\n        /* \"#utility.yul\":12516:12518   */\n      0x40\n        /* \"#utility.yul\":12510:12519   */\n      mload\n        /* \"#utility.yul\":12500:12519   */\n      swap1\n      pop\n        /* \"#utility.yul\":12450:12525   */\n      swap1\n      jump\t// out\n        /* \"#utility.yul\":12531:12839   */\n    tag_194:\n        /* \"#utility.yul\":12593:12597   */\n      0x00\n        /* \"#utility.yul\":12683:12701   */\n      0xffffffffffffffff\n        /* \"#utility.yul\":12675:12681   */\n      dup3\n        /* \"#utility.yul\":12672:12702   */\n      gt\n        /* \"#utility.yul\":12669:12725   */\n      iszero\n      tag_345\n      jumpi\n        /* \"#utility.yul\":12705:12723   */\n      tag_346\n      tag_347\n      jump\t// in\n    tag_346:\n        /* \"#utility.yul\":12669:12725   */\n    tag_345:\n        /* \"#utility.yul\":12743:12772   */\n      tag_348\n        /* \"#utility.yul\":12765:12771   */\n      dup3\n        /* \"#utility.yul\":12743:12772   */\n      tag_266\n      jump\t// in\n    tag_348:\n        /* \"#utility.yul\":12735:12772   */\n      swap1\n      pop\n        /* \"#utility.yul\":12827:12831   */\n      0x20\n        /* \"#utility.yul\":12821:12825   */\n      dup2\n        /* \"#utility.yul\":12817:12832   */\n      add\n        /* \"#utility.yul\":12809:12832   */\n      swap1\n      pop\n        /* \"#utility.yul\":12531:12839   */\n      swap2\n      swap1\n      pop\n      jump\t// out\n        /* \"#utility.yul\":12845:13002   */\n    tag_246:\n        /* \"#utility.yul\":12937:12941   */\n      0x00\n        /* \"#utility.yul\":12960:12963   */\n      dup2\n        /* \"#utility.yul\":12952:12963   */\n      swap1\n      pop\n        /* \"#utility.yul\":12990:12994   */\n      0x20\n        /* \"#utility.yul\":12985:12988   */\n      dup3\n        /* \"#utility.yul\":12981:12995   */\n      add\n        /* \"#utility.yul\":12973:12995   */\n      swap1\n      pop\n        /* \"#utility.yul\":12845:13002   */\n      swap2\n      swap1\n      pop\n      jump\t// out\n        /* \"#utility.yul\":13008:13147   */\n    tag_242:\n        /* \"#utility.yul\":13100:13106   */\n      0x00\n        /* \"#utility.yul\":13134:13139   */\n      dup2\n        /* \"#utility.yul\":13128:13140   */\n      mload\n        /* \"#utility.yul\":13118:13140   */\n      swap1\n      pop\n        /* \"#utility.yul\":13008:13147   */\n      swap2\n      swap1\n      pop\n      jump\t// out\n        /* \"#utility.yul\":13153:13252   */\n    tag_260:\n        /* \"#utility.yul\":13205:13211   */\n      0x00\n        /* \"#utility.yul\":13239:13244   */\n      dup2\n        /* \"#utility.yul\":13233:13245   */\n      mload\n        /* \"#utility.yul\":13223:13245   */\n      swap1\n      pop\n        /* \"#utility.yul\":13153:13252   */\n      swap2\n      swap1\n      pop\n      jump\t// out\n        /* \"#utility.yul\":13258:13396   */\n    tag_252:\n        /* \"#utility.yul\":13353:13357   */\n      0x00\n        /* \"#utility.yul\":13385:13389   */\n      0x20\n        /* \"#utility.yul\":13380:13383   */\n      dup3\n        /* \"#utility.yul\":13376:13390   */\n      add\n        /* \"#utility.yul\":13368:13390   */\n      swap1\n      pop\n        /* \"#utility.yul\":13258:13396   */\n      swap2\n      swap1\n      pop\n      jump\t// out\n        /* \"#utility.yul\":13402:13611   */\n    tag_244:\n        /* \"#utility.yul\":13526:13537   */\n      0x00\n        /* \"#utility.yul\":13560:13566   */\n      dup3\n        /* \"#utility.yul\":13555:13558   */\n      dup3\n        /* \"#utility.yul\":13548:13567   */\n      mstore\n        /* \"#utility.yul\":13600:13604   */\n      0x20\n        /* \"#utility.yul\":13595:13598   */\n      dup3\n        /* \"#utility.yul\":13591:13605   */\n      add\n        /* \"#utility.yul\":13576:13605   */\n      swap1\n      pop\n        /* \"#utility.yul\":13402:13611   */\n      swap3\n      swap2\n      pop\n      pop\n      jump\t// out\n        /* \"#utility.yul\":13617:13776   */\n    tag_262:\n        /* \"#utility.yul\":13691:13702   */\n      0x00\n        /* \"#utility.yul\":13725:13731   */\n      dup3\n        /* \"#utility.yul\":13720:13723   */\n      dup3\n        /* \"#utility.yul\":13713:13732   */\n      mstore\n        /* \"#utility.yul\":13765:13769   */\n      0x20\n        /* \"#utility.yul\":13760:13763   */\n      dup3\n        /* \"#utility.yul\":13756:13770   */\n      add\n        /* \"#utility.yul\":13741:13770   */\n      swap1\n      pop\n        /* \"#utility.yul\":13617:13776   */\n      swap3\n      swap2\n      pop\n      pop\n      jump\t// out\n        /* \"#utility.yul\":13782:13951   */\n    tag_271:\n        /* \"#utility.yul\":13866:13877   */\n      0x00\n        /* \"#utility.yul\":13900:13906   */\n      dup3\n        /* \"#utility.yul\":13895:13898   */\n      dup3\n        /* \"#utility.yul\":13888:13907   */\n      mstore\n        /* \"#utility.yul\":13940:13944   */\n      0x20\n        /* \"#utility.yul\":13935:13938   */\n      dup3\n        /* \"#utility.yul\":13931:13945   */\n      add\n        /* \"#utility.yul\":13916:13945   */\n      swap1\n      pop\n        /* \"#utility.yul\":13782:13951   */\n      swap3\n      swap2\n      pop\n      pop\n      jump\t// out\n        /* \"#utility.yul\":13957:14053   */\n    tag_238:\n        /* \"#utility.yul\":13994:14001   */\n      0x00\n        /* \"#utility.yul\":14023:14047   */\n      tag_357\n        /* \"#utility.yul\":14041:14046   */\n      dup3\n        /* \"#utility.yul\":14023:14047   */\n      tag_358\n      jump\t// in\n    tag_357:\n        /* \"#utility.yul\":14012:14047   */\n      swap1\n      pop\n        /* \"#utility.yul\":13957:14053   */\n      swap2\n      swap1\n      pop\n      jump\t// out\n        /* \"#utility.yul\":14059:14149   */\n    tag_256:\n        /* \"#utility.yul\":14093:14100   */\n      0x00\n        /* \"#utility.yul\":14136:14141   */\n      dup2\n        /* \"#utility.yul\":14129:14142   */\n      iszero\n        /* \"#utility.yul\":14122:14143   */\n      iszero\n        /* \"#utility.yul\":14111:14143   */\n      swap1\n      pop\n        /* \"#utility.yul\":14059:14149   */\n      swap2\n      swap1\n      pop\n      jump\t// out\n        /* \"#utility.yul\":14155:14281   */\n    tag_358:\n        /* \"#utility.yul\":14192:14199   */\n      0x00\n        /* \"#utility.yul\":14232:14274   */\n      0xffffffffffffffffffffffffffffffffffffffff\n        /* \"#utility.yul\":14225:14230   */\n      dup3\n        /* \"#utility.yul\":14221:14275   */\n      and\n        /* \"#utility.yul\":14210:14275   */\n      swap1\n      pop\n        /* \"#utility.yul\":14155:14281   */\n      swap2\n      swap1\n      pop\n      jump\t// out\n        /* \"#utility.yul\":14287:14364   */\n    tag_306:\n        /* \"#utility.yul\":14324:14331   */\n      0x00\n        /* \"#utility.yul\":14353:14358   */\n      dup2\n        /* \"#utility.yul\":14342:14358   */\n      swap1\n      pop\n        /* \"#utility.yul\":14287:14364   */\n      swap2\n      swap1\n      pop\n      jump\t// out\n        /* \"#utility.yul\":14370:14524   */\n    tag_200:\n        /* \"#utility.yul\":14454:14460   */\n      dup3\n        /* \"#utility.yul\":14449:14452   */\n      dup2\n        /* \"#utility.yul\":14444:14447   */\n      dup4\n        /* \"#utility.yul\":14431:14461   */\n      calldatacopy\n        /* \"#utility.yul\":14516:14517   */\n      0x00\n        /* \"#utility.yul\":14507:14513   */\n      dup4\n        /* \"#utility.yul\":14502:14505   */\n      dup4\n        /* \"#utility.yul\":14498:14514   */\n      add\n        /* \"#utility.yul\":14491:14518   */\n      mstore\n        /* \"#utility.yul\":14370:14524   */\n      pop\n      pop\n      pop\n      jump\t// out\n        /* \"#utility.yul\":14530:14837   */\n    tag_264:\n        /* \"#utility.yul\":14598:14599   */\n      0x00\n        /* \"#utility.yul\":14608:14721   */\n    tag_364:\n        /* \"#utility.yul\":14622:14628   */\n      dup4\n        /* \"#utility.yul\":14619:14620   */\n      dup2\n        /* \"#utility.yul\":14616:14629   */\n      lt\n        /* \"#utility.yul\":14608:14721   */\n      iszero\n      tag_366\n      jumpi\n        /* \"#utility.yul\":14707:14708   */\n      dup1\n        /* \"#utility.yul\":14702:14705   */\n      dup3\n        /* \"#utility.yul\":14698:14709   */\n      add\n        /* \"#utility.yul\":14692:14710   */\n      mload\n        /* \"#utility.yul\":14688:14689   */\n      dup2\n        /* \"#utility.yul\":14683:14686   */\n      dup5\n        /* \"#utility.yul\":14679:14690   */\n      add\n        /* \"#utility.yul\":14672:14711   */\n      mstore\n        /* \"#utility.yul\":14644:14646   */\n      0x20\n        /* \"#utility.yul\":14641:14642   */\n      dup2\n        /* \"#utility.yul\":14637:14647   */\n      add\n        /* \"#utility.yul\":14632:14647   */\n      swap1\n      pop\n        /* \"#utility.yul\":14608:14721   */\n      jump(tag_364)\n    tag_366:\n        /* \"#utility.yul\":14739:14745   */\n      dup4\n        /* \"#utility.yul\":14736:14737   */\n      dup2\n        /* \"#utility.yul\":14733:14746   */\n      gt\n        /* \"#utility.yul\":14730:14831   */\n      iszero\n      tag_367\n      jumpi\n        /* \"#utility.yul\":14819:14820   */\n      0x00\n        /* \"#utility.yul\":14810:14816   */\n      dup5\n        /* \"#utility.yul\":14805:14808   */\n      dup5\n        /* \"#utility.yul\":14801:14817   */\n      add\n        /* \"#utility.yul\":14794:14821   */\n      mstore\n        /* \"#utility.yul\":14730:14831   */\n    tag_367:\n        /* \"#utility.yul\":14579:14837   */\n      pop\n        /* \"#utility.yul\":14530:14837   */\n      pop\n      pop\n      pop\n      jump\t// out\n        /* \"#utility.yul\":14843:15163   */\n    tag_86:\n        /* \"#utility.yul\":14887:14893   */\n      0x00\n        /* \"#utility.yul\":14924:14925   */\n      0x02\n        /* \"#utility.yul\":14918:14922   */\n      dup3\n        /* \"#utility.yul\":14914:14926   */\n      div\n        /* \"#utility.yul\":14904:14926   */\n      swap1\n      pop\n        /* \"#utility.yul\":14971:14972   */\n      0x01\n        /* \"#utility.yul\":14965:14969   */\n      dup3\n        /* \"#utility.yul\":14961:14973   */\n      and\n        /* \"#utility.yul\":14992:15010   */\n      dup1\n        /* \"#utility.yul\":14982:15063   */\n      tag_369\n      jumpi\n        /* \"#utility.yul\":15048:15052   */\n      0x7f\n        /* \"#utility.yul\":15040:15046   */\n      dup3\n        /* \"#utility.yul\":15036:15053   */\n      and\n        /* \"#utility.yul\":15026:15053   */\n      swap2\n      pop\n        /* \"#utility.yul\":14982:15063   */\n    tag_369:\n        /* \"#utility.yul\":15110:15112   */\n      0x20\n        /* \"#utility.yul\":15102:15108   */\n      dup3\n        /* \"#utility.yul\":15099:15113   */\n      lt\n        /* \"#utility.yul\":15079:15097   */\n      dup2\n        /* \"#utility.yul\":15076:15114   */\n      eq\n        /* \"#utility.yul\":15073:15157   */\n      iszero\n      tag_370\n      jumpi\n        /* \"#utility.yul\":15129:15147   */\n      tag_371\n      tag_372\n      jump\t// in\n    tag_371:\n        /* \"#utility.yul\":15073:15157   */\n    tag_370:\n        /* \"#utility.yul\":14894:15163   */\n      pop\n        /* \"#utility.yul\":14843:15163   */\n      swap2\n      swap1\n      pop\n      jump\t// out\n        /* \"#utility.yul\":15169:15450   */\n    tag_342:\n        /* \"#utility.yul\":15252:15279   */\n      tag_374\n        /* \"#utility.yul\":15274:15278   */\n      dup3\n        /* \"#utility.yul\":15252:15279   */\n      tag_266\n      jump\t// in\n    tag_374:\n        /* \"#utility.yul\":15244:15250   */\n      dup2\n        /* \"#utility.yul\":15240:15280   */\n      add\n        /* \"#utility.yul\":15382:15388   */\n      dup2\n        /* \"#utility.yul\":15370:15380   */\n      dup2\n        /* \"#utility.yul\":15367:15389   */\n      lt\n        /* \"#utility.yul\":15346:15364   */\n      0xffffffffffffffff\n        /* \"#utility.yul\":15334:15344   */\n      dup3\n        /* \"#utility.yul\":15331:15365   */\n      gt\n        /* \"#utility.yul\":15328:15390   */\n      or\n        /* \"#utility.yul\":15325:15413   */\n      iszero\n      tag_375\n      jumpi\n        /* \"#utility.yul\":15393:15411   */\n      tag_376\n      tag_347\n      jump\t// in\n    tag_376:\n        /* \"#utility.yul\":15325:15413   */\n    tag_375:\n        /* \"#utility.yul\":15433:15443   */\n      dup1\n        /* \"#utility.yul\":15429:15431   */\n      0x40\n        /* \"#utility.yul\":15422:15444   */\n      mstore\n        /* \"#utility.yul\":15212:15450   */\n      pop\n        /* \"#utility.yul\":15169:15450   */\n      pop\n      pop\n      jump\t// out\n        /* \"#utility.yul\":15456:15689   */\n    tag_150:\n        /* \"#utility.yul\":15495:15498   */\n      0x00\n        /* \"#utility.yul\":15518:15542   */\n      tag_378\n        /* \"#utility.yul\":15536:15541   */\n      dup3\n        /* \"#utility.yul\":15518:15542   */\n      tag_306\n      jump\t// in\n    tag_378:\n        /* \"#utility.yul\":15509:15542   */\n      swap2\n      pop\n        /* \"#utility.yul\":15564:15630   */\n      0xffffffffffffffffffffffffffffffffffffffffffffffffffffffffffffffff\n        /* \"#utility.yul\":15557:15562   */\n      dup3\n        /* \"#utility.yul\":15554:15631   */\n      eq\n        /* \"#utility.yul\":15551:15654   */\n      iszero\n      tag_379\n      jumpi\n        /* \"#utility.yul\":15634:15652   */\n      tag_380\n      tag_381\n      jump\t// in\n    tag_380:\n        /* \"#utility.yul\":15551:15654   */\n    tag_379:\n        /* \"#utility.yul\":15681:15682   */\n      0x01\n        /* \"#utility.yul\":15674:15679   */\n      dup3\n        /* \"#utility.yul\":15670:15683   */\n      add\n        /* \"#utility.yul\":15663:15683   */\n      swap1\n      pop\n        /* \"#utility.yul\":15456:15689   */\n      swap2\n      swap1\n      pop\n      jump\t// out\n        /* \"#utility.yul\":15695:15875   */\n    tag_381:\n        /* \"#utility.yul\":15743:15820   */\n      0x4e487b7100000000000000000000000000000000000000000000000000000000\n        /* \"#utility.yul\":15740:15741   */\n      0x00\n        /* \"#utility.yul\":15733:15821   */\n      mstore\n        /* \"#utility.yul\":15840:15844   */\n      0x11\n        /* \"#utility.yul\":15837:15838   */\n      0x04\n        /* \"#utility.yul\":15830:15845   */\n      mstore\n        /* \"#utility.yul\":15864:15868   */\n      0x24\n        /* \"#utility.yul\":15861:15862   */\n      0x00\n        /* \"#utility.yul\":15854:15869   */\n      revert\n        /* \"#utility.yul\":15881:16061   */\n    tag_372:\n        /* \"#utility.yul\":15929:16006   */\n      0x4e487b7100000000000000000000000000000000000000000000000000000000\n        /* \"#utility.yul\":15926:15927   */\n      0x00\n        /* \"#utility.yul\":15919:16007   */\n      mstore\n        /* \"#utility.yul\":16026:16030   */\n      0x22\n        /* \"#utility.yul\":16023:16024   */\n      0x04\n        /* \"#utility.yul\":16016:16031   */\n      mstore\n        /* \"#utility.yul\":16050:16054   */\n      0x24\n        /* \"#utility.yul\":16047:16048   */\n      0x00\n        /* \"#utility.yul\":16040:16055   */\n      revert\n        /* \"#utility.yul\":16067:16247   */\n    tag_83:\n        /* \"#utility.yul\":16115:16192   */\n      0x4e487b7100000000000000000000000000000000000000000000000000000000\n        /* \"#utility.yul\":16112:16113   */\n      0x00\n        /* \"#utility.yul\":16105:16193   */\n      mstore\n        /* \"#utility.yul\":16212:16216   */\n      0x32\n        /* \"#utility.yul\":16209:16210   */\n      0x04\n        /* \"#utility.yul\":16202:16217   */\n      mstore\n        /* \"#utility.yul\":16236:16240   */\n      0x24\n        /* \"#utility.yul\":16233:16234   */\n      0x00\n        /* \"#utility.yul\":16226:16241   */\n      revert\n        /* \"#utility.yul\":16253:16433   */\n    tag_347:\n        /* \"#utility.yul\":16301:16378   */\n      0x4e487b7100000000000000000000000000000000000000000000000000000000\n        /* \"#utility.yul\":16298:16299   */\n      0x00\n        /* \"#utility.yul\":16291:16379   */\n      mstore\n        /* \"#utility.yul\":16398:16402   */\n      0x41\n        /* \"#utility.yul\":16395:16396   */\n      0x04\n        /* \"#utility.yul\":16388:16403   */\n      mstore\n        /* \"#utility.yul\":16422:16426   */\n      0x24\n        /* \"#utility.yul\":16419:16420   */\n      0x00\n        /* \"#utility.yul\":16412:16427   */\n      revert\n        /* \"#utility.yul\":16439:16556   */\n    tag_209:\n        /* \"#utility.yul\":16548:16549   */\n      0x00\n        /* \"#utility.yul\":16545:16546   */\n      dup1\n        /* \"#utility.yul\":16538:16550   */\n      revert\n        /* \"#utility.yul\":16562:16679   */\n    tag_198:\n        /* \"#utility.yul\":16671:16672   */\n      0x00\n        /* \"#utility.yul\":16668:16669   */\n      dup1\n        /* \"#utility.yul\":16661:16673   */\n      revert\n        /* \"#utility.yul\":16685:16802   */\n    tag_225:\n        /* \"#utility.yul\":16794:16795   */\n      0x00\n        /* \"#utility.yul\":16791:16792   */\n      dup1\n        /* \"#utility.yul\":16784:16796   */\n      revert\n        /* \"#utility.yul\":16808:16925   */\n    tag_218:\n        /* \"#utility.yul\":16917:16918   */\n      0x00\n        /* \"#utility.yul\":16914:16915   */\n      dup1\n        /* \"#utility.yul\":16907:16919   */\n      revert\n        /* \"#utility.yul\":16931:17033   */\n    tag_266:\n        /* \"#utility.yul\":16972:16978   */\n      0x00\n        /* \"#utility.yul\":17023:17025   */\n      0x1f\n        /* \"#utility.yul\":17019:17026   */\n      not\n        /* \"#utility.yul\":17014:17016   */\n      0x1f\n        /* \"#utility.yul\":17007:17012   */\n      dup4\n        /* \"#utility.yul\":17003:17017   */\n      add\n        /* \"#utility.yul\":16999:17027   */\n      and\n        /* \"#utility.yul\":16989:17027   */\n      swap1\n      pop\n        /* \"#utility.yul\":16931:17033   */\n      swap2\n      swap1\n      pop\n      jump\t// out\n        /* \"#utility.yul\":17039:17273   */\n    tag_278:\n        /* \"#utility.yul\":17179:17213   */\n      0x4f6e6c792074686520636f6e7472616374206f776e65722063616e2067697665\n        /* \"#utility.yul\":17175:17176   */\n      0x00\n        /* \"#utility.yul\":17167:17173   */\n      dup3\n        /* \"#utility.yul\":17163:17177   */\n      add\n        /* \"#utility.yul\":17156:17214   */\n      mstore\n        /* \"#utility.yul\":17248:17265   */\n      0x20726967687420746f20766f74652e0000000000000000000000000000000000\n        /* \"#utility.yul\":17243:17245   */\n      0x20\n        /* \"#utility.yul\":17235:17241   */\n      dup3\n        /* \"#utility.yul\":17231:17246   */\n      add\n        /* \"#utility.yul\":17224:17266   */\n      mstore\n        /* \"#utility.yul\":17039:17273   */\n      pop\n      jump\t// out\n        /* \"#utility.yul\":17279:17457   */\n    tag_283:\n        /* \"#utility.yul\":17419:17449   */\n      0x4d6178206163636f756e7420766f746573206973207265616368656400000000\n        /* \"#utility.yul\":17415:17416   */\n      0x00\n        /* \"#utility.yul\":17407:17413   */\n      dup3\n        /* \"#utility.yul\":17403:17417   */\n      add\n        /* \"#utility.yul\":17396:17450   */\n      mstore\n        /* \"#utility.yul\":17279:17457   */\n      pop\n      jump\t// out\n        /* \"#utility.yul\":17463:17633   */\n    tag_288:\n        /* \"#utility.yul\":17603:17625   */\n      0x566f74657220616c726561647920766f7465642e000000000000000000000000\n        /* \"#utility.yul\":17599:17600   */\n      0x00\n        /* \"#utility.yul\":17591:17597   */\n      dup3\n        /* \"#utility.yul\":17587:17601   */\n      add\n        /* \"#utility.yul\":17580:17626   */\n      mstore\n        /* \"#utility.yul\":17463:17633   */\n      pop\n      jump\t// out\n        /* \"#utility.yul\":17639:17815   */\n    tag_293:\n        /* \"#utility.yul\":17779:17807   */\n      0x596f752068617665206e6f7420726967687420746f20766f7465000000000000\n        /* \"#utility.yul\":17775:17776   */\n      0x00\n        /* \"#utility.yul\":17767:17773   */\n      dup3\n        /* \"#utility.yul\":17763:17777   */\n      add\n        /* \"#utility.yul\":17756:17808   */\n      mstore\n        /* \"#utility.yul\":17639:17815   */\n      pop\n      jump\t// out\n        /* \"#utility.yul\":17821:17995   */\n    tag_298:\n        /* \"#utility.yul\":17961:17987   */\n      0x5468657265206973206120746965206f6e2042616c6c6f740000000000000000\n        /* \"#utility.yul\":17957:17958   */\n      0x00\n        /* \"#utility.yul\":17949:17955   */\n      dup3\n        /* \"#utility.yul\":17945:17959   */\n      add\n        /* \"#utility.yul\":17938:17988   */\n      mstore\n        /* \"#utility.yul\":17821:17995   */\n      pop\n      jump\t// out\n        /* \"#utility.yul\":18001:18123   */\n    tag_204:\n        /* \"#utility.yul\":18074:18098   */\n      tag_397\n        /* \"#utility.yul\":18092:18097   */\n      dup2\n        /* \"#utility.yul\":18074:18098   */\n      tag_238\n      jump\t// in\n    tag_397:\n        /* \"#utility.yul\":18067:18072   */\n      dup2\n        /* \"#utility.yul\":18064:18099   */\n      eq\n        /* \"#utility.yul\":18054:18117   */\n      tag_398\n      jumpi\n        /* \"#utility.yul\":18113:18114   */\n      0x00\n        /* \"#utility.yul\":18110:18111   */\n      dup1\n        /* \"#utility.yul\":18103:18115   */\n      revert\n        /* \"#utility.yul\":18054:18117   */\n    tag_398:\n        /* \"#utility.yul\":18001:18123   */\n      pop\n      jump\t// out\n        /* \"#utility.yul\":18129:18251   */\n    tag_214:\n        /* \"#utility.yul\":18202:18226   */\n      tag_400\n        /* \"#utility.yul\":18220:18225   */\n      dup2\n        /* \"#utility.yul\":18202:18226   */\n      tag_306\n      jump\t// in\n    tag_400:\n        /* \"#utility.yul\":18195:18200   */\n      dup2\n        /* \"#utility.yul\":18192:18227   */\n      eq\n        /* \"#utility.yul\":18182:18245   */\n      tag_401\n      jumpi\n        /* \"#utility.yul\":18241:18242   */\n      0x00\n        /* \"#utility.yul\":18238:18239   */\n      dup1\n        /* \"#utility.yul\":18231:18243   */\n      revert\n        /* \"#utility.yul\":18182:18245   */\n    tag_401:\n        /* \"#utility.yul\":18129:18251   */\n      pop\n      jump\t// out\n\n    auxdata: 0xa2646970667358221220f1e97b01b9ef8642af8dfee7367635c0ea58ce6e6841fc96169d5785ac85e2c564736f6c63430008070033\n}\n",
				"bytecode": {
					"linkReferences": {},
					"object": "60806040523480156200001157600080fd5b5060405162001d4438038062001d44833981810160405281019062000037919062000452565b336000806101000a81548173ffffffffffffffffffffffffffffffffffffffff021916908373ffffffffffffffffffffffffffffffffffffffff16021790555062000088826200009760201b60201c565b8060048190555050506200074a565b60005b81518110156200018d5760026040518060600160405280848481518110620000c757620000c66200069e565b5b6020026020010151600001518152602001848481518110620000ee57620000ed6200069e565b5b60200260200101516020015181526020016000815250908060018154018082558091505060019003906000526020600020906003020160009091909190915060008201518160000190805190602001906200014b92919062000191565b5060208201518160010190805190602001906200016a92919062000191565b5060408201518160020155505080806200018490620005f2565b9150506200009a565b5050565b8280546200019f9062000586565b90600052602060002090601f016020900481019282620001c357600085556200020f565b82601f10620001de57805160ff19168380011785556200020f565b828001600101855582156200020f579182015b828111156200020e578251825591602001919060010190620001f1565b5b5090506200021e919062000222565b5090565b5b808211156200023d57600081600090555060010162000223565b5090565b6000620002586200025284620004e1565b620004b8565b905080838252602082019050828560208602820111156200027e576200027d6200070b565b5b60005b85811015620002d357815167ffffffffffffffff811115620002a857620002a7620006fc565b5b808601620002b789826200038e565b8552602085019450602084019350505060018101905062000281565b5050509392505050565b6000620002f4620002ee8462000510565b620004b8565b90508281526020810184848401111562000313576200031262000710565b5b6200032084828562000550565b509392505050565b600082601f83011262000340576200033f620006fc565b5b81516200035284826020860162000241565b91505092915050565b600082601f830112620003735762000372620006fc565b5b815162000385848260208601620002dd565b91505092915050565b600060608284031215620003a757620003a662000701565b5b620003b36060620004b8565b9050600082015167ffffffffffffffff811115620003d657620003d562000706565b5b620003e4848285016200035b565b600083015250602082015167ffffffffffffffff8111156200040b576200040a62000706565b5b62000419848285016200035b565b60208301525060406200042f848285016200043b565b60408301525092915050565b6000815190506200044c8162000730565b92915050565b600080604083850312156200046c576200046b6200071a565b5b600083015167ffffffffffffffff8111156200048d576200048c62000715565b5b6200049b8582860162000328565b9250506020620004ae858286016200043b565b9150509250929050565b6000620004c4620004d7565b9050620004d28282620005bc565b919050565b6000604051905090565b600067ffffffffffffffff821115620004ff57620004fe620006cd565b5b602082029050602081019050919050565b600067ffffffffffffffff8211156200052e576200052d620006cd565b5b62000539826200071f565b9050602081019050919050565b6000819050919050565b60005b838110156200057057808201518184015260208101905062000553565b8381111562000580576000848401525b50505050565b600060028204905060018216806200059f57607f821691505b60208210811415620005b657620005b56200066f565b5b50919050565b620005c7826200071f565b810181811067ffffffffffffffff82111715620005e957620005e8620006cd565b5b80604052505050565b6000620005ff8262000546565b91507fffffffffffffffffffffffffffffffffffffffffffffffffffffffffffffffff82141562000635576200063462000640565b5b600182019050919050565b7f4e487b7100000000000000000000000000000000000000000000000000000000600052601160045260246000fd5b7f4e487b7100000000000000000000000000000000000000000000000000000000600052602260045260246000fd5b7f4e487b7100000000000000000000000000000000000000000000000000000000600052603260045260246000fd5b7f4e487b7100000000000000000000000000000000000000000000000000000000600052604160045260246000fd5b600080fd5b600080fd5b600080fd5b600080fd5b600080fd5b600080fd5b600080fd5b6000601f19601f8301169050919050565b6200073b8162000546565b81146200074757600080fd5b50565b6115ea806200075a6000396000f3fe608060405234801561001057600080fd5b50600436106100ea5760003560e01c80639e7b8d611161008c578063da26543011610066578063da26543014610264578063df70362214610282578063f927cc29146102a0578063fc36e15b146102bf576100ea565b80639e7b8d61146101f9578063a3ec138d14610215578063ce606ee014610246576100ea565b80633ddf3822116100c85780633ddf38221461015d5780634aba5f341461017b5780638d85cc091461019957806394b04e7d146101c9576100ea565b80632bfda515146100ef57806332a2c5d01461010d5780633477ee2e1461012b575b600080fd5b6100f76102db565b6040516101049190611090565b60405180910390f35b6101156103e2565b604051610122919061100f565b60405180910390f35b61014560048036038101906101409190610da5565b6103ea565b604051610154939291906110b2565b60405180910390f35b610165610534565b604051610172919061104c565b60405180910390f35b61018361058b565b604051610190919061102a565b60405180910390f35b6101b360048036038101906101ae9190610d2f565b610718565b6040516101c0919061104c565b60405180910390f35b6101e360048036038101906101de9190610d2f565b610771565b6040516101f0919061104c565b60405180910390f35b610213600480360381019061020e9190610d2f565b6107ca565b005b61022f600480360381019061022a9190610d2f565b610879565b60405161023d929190611067565b60405180910390f35b61024e6108b7565b60405161025b919061100f565b60405180910390f35b61026c6108db565b604051610279919061104c565b60405180910390f35b61028a6108eb565b604051610297919061104c565b60405180910390f35b6102a86108fb565b6040516102b6929190611197565b60405180910390f35b6102d960048036038101906102d49190610d5c565b6109c0565b005b60606000806102e86108fb565b91509150801561032d576040517f08c379a000000000000000000000000000000000000000000000000000000000815260040161032490611177565b60405180910390fd5b6002828154811061034157610340611410565b5b9060005260206000209060030201600001805461035d90611306565b80601f016020809104026020016040519081016040528092919081815260200182805461038990611306565b80156103d65780601f106103ab576101008083540402835291602001916103d6565b820191906000526020600020905b8154815290600101906020018083116103b957829003601f168201915b50505050509250505090565b600030905090565b600281815481106103fa57600080fd5b906000526020600020906003020160009150905080600001805461041d90611306565b80601f016020809104026020016040519081016040528092919081815260200182805461044990611306565b80156104965780601f1061046b57610100808354040283529160200191610496565b820191906000526020600020905b81548152906001019060200180831161047957829003601f168201915b5050505050908060010180546104ab90611306565b80601f01602080910402602001604051908101604052809291908181526020018280546104d790611306565b80156105245780601f106104f957610100808354040283529160200191610524565b820191906000526020600020905b81548152906001019060200180831161050757829003601f168201915b5050505050908060020154905083565b60008060009054906101000a900473ffffffffffffffffffffffffffffffffffffffff1673ffffffffffffffffffffffffffffffffffffffff163373ffffffffffffffffffffffffffffffffffffffff1614905090565b60606002805480602002602001604051908101604052809291908181526020016000905b8282101561070f57838290600052602060002090600302016040518060600160405290816000820180546105e290611306565b80601f016020809104026020016040519081016040528092919081815260200182805461060e90611306565b801561065b5780601f106106305761010080835404028352916020019161065b565b820191906000526020600020905b81548152906001019060200180831161063e57829003601f168201915b5050505050815260200160018201805461067490611306565b80601f01602080910402602001604051908101604052809291908181526020018280546106a090611306565b80156106ed5780601f106106c2576101008083540402835291602001916106ed565b820191906000526020600020905b8154815290600101906020018083116106d057829003601f168201915b50505050508152602001600282015481525050815260200190600101906105af565b50505050905090565b6000600160008373ffffffffffffffffffffffffffffffffffffffff1673ffffffffffffffffffffffffffffffffffffffff16815260200190815260200160002060000160019054906101000a900460ff169050919050565b6000600160008373ffffffffffffffffffffffffffffffffffffffff1673ffffffffffffffffffffffffffffffffffffffff16815260200190815260200160002060000160009054906101000a900460ff169050919050565b806107d3610534565b610812576040517f08c379a0000000000000000000000000000000000000000000000000000000008152600401610809906110f7565b60405180910390fd5b61081b81610bf0565b60018060008473ffffffffffffffffffffffffffffffffffffffff1673ffffffffffffffffffffffffffffffffffffffff16815260200190815260200160002060000160006101000a81548160ff0219169083151502179055505050565b60016020528060005260406000206000915090508060000160009054906101000a900460ff16908060000160019054906101000a900460ff16905082565b60008054906101000a900473ffffffffffffffffffffffffffffffffffffffff1681565b60006108e633610718565b905090565b60006108f633610771565b905090565b600080600080600090505b6002805490508110156109ba57816002828154811061092857610927611410565b5b9060005260206000209060030201600201541115610974576002818154811061095457610953611410565b5b9060005260206000209060030201600201549150809350600092506109a7565b816002828154811061098957610988611410565b5b90600052602060002090600302016002015414156109a657600192505b5b80806109b290611369565b915050610906565b50509091565b3360045460035410610a07576040517f08c379a00000000000000000000000000000000000000000000000000000000081526004016109fe90611117565b60405180910390fd5b610a0f6108eb565b610a4e576040517f08c379a0000000000000000000000000000000000000000000000000000000008152600401610a4590611157565b60405180910390fd5b610a5781610bf0565b6000600160003373ffffffffffffffffffffffffffffffffffffffff1673ffffffffffffffffffffffffffffffffffffffff168152602001908152602001600020905060005b600280549050811015610bea57610b6160028281548110610ac157610ac0611410565b5b90600052602060002090600302016000018054610add90611306565b80601f0160208091040260200160405190810160405280929190818152602001828054610b0990611306565b8015610b565780601f10610b2b57610100808354040283529160200191610b56565b820191906000526020600020905b815481529060010190602001808311610b3957829003601f168201915b505050505085610c3c565b15610bd75760028181548110610b7a57610b79611410565b5b90600052602060002090600302016002016000815480929190610b9c90611369565b919050555060018260000160016101000a81548160ff02191690831515021790555060036000815480929190610bd190611369565b91905055505b8080610be290611369565b915050610a9d565b50505050565b610bf981610718565b15610c39576040517f08c379a0000000000000000000000000000000000000000000000000000000008152600401610c3090611137565b60405180910390fd5b50565b600081604051602001610c4f9190611090565b6040516020818303038152906040528051906020012083604051602001610c769190611090565b6040516020818303038152906040528051906020012014905092915050565b6000610ca8610ca3846111e5565b6111c0565b905082815260208101848484011115610cc457610cc3611473565b5b610ccf8482856112c4565b509392505050565b600081359050610ce681611586565b92915050565b600082601f830112610d0157610d0061146e565b5b8135610d11848260208601610c95565b91505092915050565b600081359050610d298161159d565b92915050565b600060208284031215610d4557610d4461147d565b5b6000610d5384828501610cd7565b91505092915050565b600060208284031215610d7257610d7161147d565b5b600082013567ffffffffffffffff811115610d9057610d8f611478565b5b610d9c84828501610cec565b91505092915050565b600060208284031215610dbb57610dba61147d565b5b6000610dc984828501610d1a565b91505092915050565b6000610dde8383610f9a565b905092915050565b610def8161127c565b82525050565b6000610e0082611226565b610e0a8185611249565b935083602082028501610e1c85611216565b8060005b85811015610e585784840389528151610e398582610dd2565b9450610e448361123c565b925060208a01995050600181019050610e20565b50829750879550505050505092915050565b610e738161128e565b82525050565b6000610e8482611231565b610e8e818561125a565b9350610e9e8185602086016112d3565b610ea781611482565b840191505092915050565b6000610ebd82611231565b610ec7818561126b565b9350610ed78185602086016112d3565b610ee081611482565b840191505092915050565b6000610ef8602f8361126b565b9150610f0382611493565b604082019050919050565b6000610f1b601c8361126b565b9150610f26826114e2565b602082019050919050565b6000610f3e60148361126b565b9150610f498261150b565b602082019050919050565b6000610f61601a8361126b565b9150610f6c82611534565b602082019050919050565b6000610f8460188361126b565b9150610f8f8261155d565b602082019050919050565b60006060830160008301518482036000860152610fb78282610e79565b91505060208301518482036020860152610fd18282610e79565b9150506040830151610fe66040860182610ff1565b508091505092915050565b610ffa816112ba565b82525050565b611009816112ba565b82525050565b60006020820190506110246000830184610de6565b92915050565b600060208201905081810360008301526110448184610df5565b905092915050565b60006020820190506110616000830184610e6a565b92915050565b600060408201905061107c6000830185610e6a565b6110896020830184610e6a565b9392505050565b600060208201905081810360008301526110aa8184610eb2565b905092915050565b600060608201905081810360008301526110cc8186610eb2565b905081810360208301526110e08185610eb2565b90506110ef6040830184611000565b949350505050565b6000602082019050818103600083015261111081610eeb565b9050919050565b6000602082019050818103600083015261113081610f0e565b9050919050565b6000602082019050818103600083015261115081610f31565b9050919050565b6000602082019050818103600083015261117081610f54565b9050919050565b6000602082019050818103600083015261119081610f77565b9050919050565b60006040820190506111ac6000830185611000565b6111b96020830184610e6a565b9392505050565b60006111ca6111db565b90506111d68282611338565b919050565b6000604051905090565b600067ffffffffffffffff821115611200576111ff61143f565b5b61120982611482565b9050602081019050919050565b6000819050602082019050919050565b600081519050919050565b600081519050919050565b6000602082019050919050565b600082825260208201905092915050565b600082825260208201905092915050565b600082825260208201905092915050565b60006112878261129a565b9050919050565b60008115159050919050565b600073ffffffffffffffffffffffffffffffffffffffff82169050919050565b6000819050919050565b82818337600083830152505050565b60005b838110156112f15780820151818401526020810190506112d6565b83811115611300576000848401525b50505050565b6000600282049050600182168061131e57607f821691505b60208210811415611332576113316113e1565b5b50919050565b61134182611482565b810181811067ffffffffffffffff821117156113605761135f61143f565b5b80604052505050565b6000611374826112ba565b91507fffffffffffffffffffffffffffffffffffffffffffffffffffffffffffffffff8214156113a7576113a66113b2565b5b600182019050919050565b7f4e487b7100000000000000000000000000000000000000000000000000000000600052601160045260246000fd5b7f4e487b7100000000000000000000000000000000000000000000000000000000600052602260045260246000fd5b7f4e487b7100000000000000000000000000000000000000000000000000000000600052603260045260246000fd5b7f4e487b7100000000000000000000000000000000000000000000000000000000600052604160045260246000fd5b600080fd5b600080fd5b600080fd5b600080fd5b6000601f19601f8301169050919050565b7f4f6e6c792074686520636f6e7472616374206f776e65722063616e206769766560008201527f20726967687420746f20766f74652e0000000000000000000000000000000000602082015250565b7f4d6178206163636f756e7420766f746573206973207265616368656400000000600082015250565b7f566f74657220616c726561647920766f7465642e000000000000000000000000600082015250565b7f596f752068617665206e6f7420726967687420746f20766f7465000000000000600082015250565b7f5468657265206973206120746965206f6e2042616c6c6f740000000000000000600082015250565b61158f8161127c565b811461159a57600080fd5b50565b6115a6816112ba565b81146115b157600080fd5b5056fea2646970667358221220f1e97b01b9ef8642af8dfee7367635c0ea58ce6e6841fc96169d5785ac85e2c564736f6c63430008070033",
					"opcodes": "PUSH1 0x80 PUSH1 0x40 MSTORE CALLVALUE DUP1 ISZERO PUSH3 0x11 JUMPI PUSH1 0x0 DUP1 REVERT JUMPDEST POP PUSH1 0x40 MLOAD PUSH3 0x1D44 CODESIZE SUB DUP1 PUSH3 0x1D44 DUP4 CODECOPY DUP2 DUP2 ADD PUSH1 0x40 MSTORE DUP2 ADD SWAP1 PUSH3 0x37 SWAP2 SWAP1 PUSH3 0x452 JUMP JUMPDEST CALLER PUSH1 0x0 DUP1 PUSH2 0x100 EXP DUP2 SLOAD DUP2 PUSH20 0xFFFFFFFFFFFFFFFFFFFFFFFFFFFFFFFFFFFFFFFF MUL NOT AND SWAP1 DUP4 PUSH20 0xFFFFFFFFFFFFFFFFFFFFFFFFFFFFFFFFFFFFFFFF AND MUL OR SWAP1 SSTORE POP PUSH3 0x88 DUP3 PUSH3 0x97 PUSH1 0x20 SHL PUSH1 0x20 SHR JUMP JUMPDEST DUP1 PUSH1 0x4 DUP2 SWAP1 SSTORE POP POP POP PUSH3 0x74A JUMP JUMPDEST PUSH1 0x0 JUMPDEST DUP2 MLOAD DUP2 LT ISZERO PUSH3 0x18D JUMPI PUSH1 0x2 PUSH1 0x40 MLOAD DUP1 PUSH1 0x60 ADD PUSH1 0x40 MSTORE DUP1 DUP5 DUP5 DUP2 MLOAD DUP2 LT PUSH3 0xC7 JUMPI PUSH3 0xC6 PUSH3 0x69E JUMP JUMPDEST JUMPDEST PUSH1 0x20 MUL PUSH1 0x20 ADD ADD MLOAD PUSH1 0x0 ADD MLOAD DUP2 MSTORE PUSH1 0x20 ADD DUP5 DUP5 DUP2 MLOAD DUP2 LT PUSH3 0xEE JUMPI PUSH3 0xED PUSH3 0x69E JUMP JUMPDEST JUMPDEST PUSH1 0x20 MUL PUSH1 0x20 ADD ADD MLOAD PUSH1 0x20 ADD MLOAD DUP2 MSTORE PUSH1 0x20 ADD PUSH1 0x0 DUP2 MSTORE POP SWAP1 DUP1 PUSH1 0x1 DUP2 SLOAD ADD DUP1 DUP3 SSTORE DUP1 SWAP2 POP POP PUSH1 0x1 SWAP1 SUB SWAP1 PUSH1 0x0 MSTORE PUSH1 0x20 PUSH1 0x0 KECCAK256 SWAP1 PUSH1 0x3 MUL ADD PUSH1 0x0 SWAP1 SWAP2 SWAP1 SWAP2 SWAP1 SWAP2 POP PUSH1 0x0 DUP3 ADD MLOAD DUP2 PUSH1 0x0 ADD SWAP1 DUP1 MLOAD SWAP1 PUSH1 0x20 ADD SWAP1 PUSH3 0x14B SWAP3 SWAP2 SWAP1 PUSH3 0x191 JUMP JUMPDEST POP PUSH1 0x20 DUP3 ADD MLOAD DUP2 PUSH1 0x1 ADD SWAP1 DUP1 MLOAD SWAP1 PUSH1 0x20 ADD SWAP1 PUSH3 0x16A SWAP3 SWAP2 SWAP1 PUSH3 0x191 JUMP JUMPDEST POP PUSH1 0x40 DUP3 ADD MLOAD DUP2 PUSH1 0x2 ADD SSTORE POP POP DUP1 DUP1 PUSH3 0x184 SWAP1 PUSH3 0x5F2 JUMP JUMPDEST SWAP2 POP POP PUSH3 0x9A JUMP JUMPDEST POP POP JUMP JUMPDEST DUP3 DUP1 SLOAD PUSH3 0x19F SWAP1 PUSH3 0x586 JUMP JUMPDEST SWAP1 PUSH1 0x0 MSTORE PUSH1 0x20 PUSH1 0x0 KECCAK256 SWAP1 PUSH1 0x1F ADD PUSH1 0x20 SWAP1 DIV DUP2 ADD SWAP3 DUP3 PUSH3 0x1C3 JUMPI PUSH1 0x0 DUP6 SSTORE PUSH3 0x20F JUMP JUMPDEST DUP3 PUSH1 0x1F LT PUSH3 0x1DE JUMPI DUP1 MLOAD PUSH1 0xFF NOT AND DUP4 DUP1 ADD OR DUP6 SSTORE PUSH3 0x20F JUMP JUMPDEST DUP3 DUP1 ADD PUSH1 0x1 ADD DUP6 SSTORE DUP3 ISZERO PUSH3 0x20F JUMPI SWAP2 DUP3 ADD JUMPDEST DUP3 DUP2 GT ISZERO PUSH3 0x20E JUMPI DUP3 MLOAD DUP3 SSTORE SWAP2 PUSH1 0x20 ADD SWAP2 SWAP1 PUSH1 0x1 ADD SWAP1 PUSH3 0x1F1 JUMP JUMPDEST JUMPDEST POP SWAP1 POP PUSH3 0x21E SWAP2 SWAP1 PUSH3 0x222 JUMP JUMPDEST POP SWAP1 JUMP JUMPDEST JUMPDEST DUP1 DUP3 GT ISZERO PUSH3 0x23D JUMPI PUSH1 0x0 DUP2 PUSH1 0x0 SWAP1 SSTORE POP PUSH1 0x1 ADD PUSH3 0x223 JUMP JUMPDEST POP SWAP1 JUMP JUMPDEST PUSH1 0x0 PUSH3 0x258 PUSH3 0x252 DUP5 PUSH3 0x4E1 JUMP JUMPDEST PUSH3 0x4B8 JUMP JUMPDEST SWAP1 POP DUP1 DUP4 DUP3 MSTORE PUSH1 0x20 DUP3 ADD SWAP1 POP DUP3 DUP6 PUSH1 0x20 DUP7 MUL DUP3 ADD GT ISZERO PUSH3 0x27E JUMPI PUSH3 0x27D PUSH3 0x70B JUMP JUMPDEST JUMPDEST PUSH1 0x0 JUMPDEST DUP6 DUP2 LT ISZERO PUSH3 0x2D3 JUMPI DUP2 MLOAD PUSH8 0xFFFFFFFFFFFFFFFF DUP2 GT ISZERO PUSH3 0x2A8 JUMPI PUSH3 0x2A7 PUSH3 0x6FC JUMP JUMPDEST JUMPDEST DUP1 DUP7 ADD PUSH3 0x2B7 DUP10 DUP3 PUSH3 0x38E JUMP JUMPDEST DUP6 MSTORE PUSH1 0x20 DUP6 ADD SWAP5 POP PUSH1 0x20 DUP5 ADD SWAP4 POP POP POP PUSH1 0x1 DUP2 ADD SWAP1 POP PUSH3 0x281 JUMP JUMPDEST POP POP POP SWAP4 SWAP3 POP POP POP JUMP JUMPDEST PUSH1 0x0 PUSH3 0x2F4 PUSH3 0x2EE DUP5 PUSH3 0x510 JUMP JUMPDEST PUSH3 0x4B8 JUMP JUMPDEST SWAP1 POP DUP3 DUP2 MSTORE PUSH1 0x20 DUP2 ADD DUP5 DUP5 DUP5 ADD GT ISZERO PUSH3 0x313 JUMPI PUSH3 0x312 PUSH3 0x710 JUMP JUMPDEST JUMPDEST PUSH3 0x320 DUP5 DUP3 DUP6 PUSH3 0x550 JUMP JUMPDEST POP SWAP4 SWAP3 POP POP POP JUMP JUMPDEST PUSH1 0x0 DUP3 PUSH1 0x1F DUP4 ADD SLT PUSH3 0x340 JUMPI PUSH3 0x33F PUSH3 0x6FC JUMP JUMPDEST JUMPDEST DUP2 MLOAD PUSH3 0x352 DUP5 DUP3 PUSH1 0x20 DUP7 ADD PUSH3 0x241 JUMP JUMPDEST SWAP2 POP POP SWAP3 SWAP2 POP POP JUMP JUMPDEST PUSH1 0x0 DUP3 PUSH1 0x1F DUP4 ADD SLT PUSH3 0x373 JUMPI PUSH3 0x372 PUSH3 0x6FC JUMP JUMPDEST JUMPDEST DUP2 MLOAD PUSH3 0x385 DUP5 DUP3 PUSH1 0x20 DUP7 ADD PUSH3 0x2DD JUMP JUMPDEST SWAP2 POP POP SWAP3 SWAP2 POP POP JUMP JUMPDEST PUSH1 0x0 PUSH1 0x60 DUP3 DUP5 SUB SLT ISZERO PUSH3 0x3A7 JUMPI PUSH3 0x3A6 PUSH3 0x701 JUMP JUMPDEST JUMPDEST PUSH3 0x3B3 PUSH1 0x60 PUSH3 0x4B8 JUMP JUMPDEST SWAP1 POP PUSH1 0x0 DUP3 ADD MLOAD PUSH8 0xFFFFFFFFFFFFFFFF DUP2 GT ISZERO PUSH3 0x3D6 JUMPI PUSH3 0x3D5 PUSH3 0x706 JUMP JUMPDEST JUMPDEST PUSH3 0x3E4 DUP5 DUP3 DUP6 ADD PUSH3 0x35B JUMP JUMPDEST PUSH1 0x0 DUP4 ADD MSTORE POP PUSH1 0x20 DUP3 ADD MLOAD PUSH8 0xFFFFFFFFFFFFFFFF DUP2 GT ISZERO PUSH3 0x40B JUMPI PUSH3 0x40A PUSH3 0x706 JUMP JUMPDEST JUMPDEST PUSH3 0x419 DUP5 DUP3 DUP6 ADD PUSH3 0x35B JUMP JUMPDEST PUSH1 0x20 DUP4 ADD MSTORE POP PUSH1 0x40 PUSH3 0x42F DUP5 DUP3 DUP6 ADD PUSH3 0x43B JUMP JUMPDEST PUSH1 0x40 DUP4 ADD MSTORE POP SWAP3 SWAP2 POP POP JUMP JUMPDEST PUSH1 0x0 DUP2 MLOAD SWAP1 POP PUSH3 0x44C DUP2 PUSH3 0x730 JUMP JUMPDEST SWAP3 SWAP2 POP POP JUMP JUMPDEST PUSH1 0x0 DUP1 PUSH1 0x40 DUP4 DUP6 SUB SLT ISZERO PUSH3 0x46C JUMPI PUSH3 0x46B PUSH3 0x71A JUMP JUMPDEST JUMPDEST PUSH1 0x0 DUP4 ADD MLOAD PUSH8 0xFFFFFFFFFFFFFFFF DUP2 GT ISZERO PUSH3 0x48D JUMPI PUSH3 0x48C PUSH3 0x715 JUMP JUMPDEST JUMPDEST PUSH3 0x49B DUP6 DUP3 DUP7 ADD PUSH3 0x328 JUMP JUMPDEST SWAP3 POP POP PUSH1 0x20 PUSH3 0x4AE DUP6 DUP3 DUP7 ADD PUSH3 0x43B JUMP JUMPDEST SWAP2 POP POP SWAP3 POP SWAP3 SWAP1 POP JUMP JUMPDEST PUSH1 0x0 PUSH3 0x4C4 PUSH3 0x4D7 JUMP JUMPDEST SWAP1 POP PUSH3 0x4D2 DUP3 DUP3 PUSH3 0x5BC JUMP JUMPDEST SWAP2 SWAP1 POP JUMP JUMPDEST PUSH1 0x0 PUSH1 0x40 MLOAD SWAP1 POP SWAP1 JUMP JUMPDEST PUSH1 0x0 PUSH8 0xFFFFFFFFFFFFFFFF DUP3 GT ISZERO PUSH3 0x4FF JUMPI PUSH3 0x4FE PUSH3 0x6CD JUMP JUMPDEST JUMPDEST PUSH1 0x20 DUP3 MUL SWAP1 POP PUSH1 0x20 DUP2 ADD SWAP1 POP SWAP2 SWAP1 POP JUMP JUMPDEST PUSH1 0x0 PUSH8 0xFFFFFFFFFFFFFFFF DUP3 GT ISZERO PUSH3 0x52E JUMPI PUSH3 0x52D PUSH3 0x6CD JUMP JUMPDEST JUMPDEST PUSH3 0x539 DUP3 PUSH3 0x71F JUMP JUMPDEST SWAP1 POP PUSH1 0x20 DUP2 ADD SWAP1 POP SWAP2 SWAP1 POP JUMP JUMPDEST PUSH1 0x0 DUP2 SWAP1 POP SWAP2 SWAP1 POP JUMP JUMPDEST PUSH1 0x0 JUMPDEST DUP4 DUP2 LT ISZERO PUSH3 0x570 JUMPI DUP1 DUP3 ADD MLOAD DUP2 DUP5 ADD MSTORE PUSH1 0x20 DUP2 ADD SWAP1 POP PUSH3 0x553 JUMP JUMPDEST DUP4 DUP2 GT ISZERO PUSH3 0x580 JUMPI PUSH1 0x0 DUP5 DUP5 ADD MSTORE JUMPDEST POP POP POP POP JUMP JUMPDEST PUSH1 0x0 PUSH1 0x2 DUP3 DIV SWAP1 POP PUSH1 0x1 DUP3 AND DUP1 PUSH3 0x59F JUMPI PUSH1 0x7F DUP3 AND SWAP2 POP JUMPDEST PUSH1 0x20 DUP3 LT DUP2 EQ ISZERO PUSH3 0x5B6 JUMPI PUSH3 0x5B5 PUSH3 0x66F JUMP JUMPDEST JUMPDEST POP SWAP2 SWAP1 POP JUMP JUMPDEST PUSH3 0x5C7 DUP3 PUSH3 0x71F JUMP JUMPDEST DUP2 ADD DUP2 DUP2 LT PUSH8 0xFFFFFFFFFFFFFFFF DUP3 GT OR ISZERO PUSH3 0x5E9 JUMPI PUSH3 0x5E8 PUSH3 0x6CD JUMP JUMPDEST JUMPDEST DUP1 PUSH1 0x40 MSTORE POP POP POP JUMP JUMPDEST PUSH1 0x0 PUSH3 0x5FF DUP3 PUSH3 0x546 JUMP JUMPDEST SWAP2 POP PUSH32 0xFFFFFFFFFFFFFFFFFFFFFFFFFFFFFFFFFFFFFFFFFFFFFFFFFFFFFFFFFFFFFFFF DUP3 EQ ISZERO PUSH3 0x635 JUMPI PUSH3 0x634 PUSH3 0x640 JUMP JUMPDEST JUMPDEST PUSH1 0x1 DUP3 ADD SWAP1 POP SWAP2 SWAP1 POP JUMP JUMPDEST PUSH32 0x4E487B7100000000000000000000000000000000000000000000000000000000 PUSH1 0x0 MSTORE PUSH1 0x11 PUSH1 0x4 MSTORE PUSH1 0x24 PUSH1 0x0 REVERT JUMPDEST PUSH32 0x4E487B7100000000000000000000000000000000000000000000000000000000 PUSH1 0x0 MSTORE PUSH1 0x22 PUSH1 0x4 MSTORE PUSH1 0x24 PUSH1 0x0 REVERT JUMPDEST PUSH32 0x4E487B7100000000000000000000000000000000000000000000000000000000 PUSH1 0x0 MSTORE PUSH1 0x32 PUSH1 0x4 MSTORE PUSH1 0x24 PUSH1 0x0 REVERT JUMPDEST PUSH32 0x4E487B7100000000000000000000000000000000000000000000000000000000 PUSH1 0x0 MSTORE PUSH1 0x41 PUSH1 0x4 MSTORE PUSH1 0x24 PUSH1 0x0 REVERT JUMPDEST PUSH1 0x0 DUP1 REVERT JUMPDEST PUSH1 0x0 DUP1 REVERT JUMPDEST PUSH1 0x0 DUP1 REVERT JUMPDEST PUSH1 0x0 DUP1 REVERT JUMPDEST PUSH1 0x0 DUP1 REVERT JUMPDEST PUSH1 0x0 DUP1 REVERT JUMPDEST PUSH1 0x0 DUP1 REVERT JUMPDEST PUSH1 0x0 PUSH1 0x1F NOT PUSH1 0x1F DUP4 ADD AND SWAP1 POP SWAP2 SWAP1 POP JUMP JUMPDEST PUSH3 0x73B DUP2 PUSH3 0x546 JUMP JUMPDEST DUP2 EQ PUSH3 0x747 JUMPI PUSH1 0x0 DUP1 REVERT JUMPDEST POP JUMP JUMPDEST PUSH2 0x15EA DUP1 PUSH3 0x75A PUSH1 0x0 CODECOPY PUSH1 0x0 RETURN INVALID PUSH1 0x80 PUSH1 0x40 MSTORE CALLVALUE DUP1 ISZERO PUSH2 0x10 JUMPI PUSH1 0x0 DUP1 REVERT JUMPDEST POP PUSH1 0x4 CALLDATASIZE LT PUSH2 0xEA JUMPI PUSH1 0x0 CALLDATALOAD PUSH1 0xE0 SHR DUP1 PUSH4 0x9E7B8D61 GT PUSH2 0x8C JUMPI DUP1 PUSH4 0xDA265430 GT PUSH2 0x66 JUMPI DUP1 PUSH4 0xDA265430 EQ PUSH2 0x264 JUMPI DUP1 PUSH4 0xDF703622 EQ PUSH2 0x282 JUMPI DUP1 PUSH4 0xF927CC29 EQ PUSH2 0x2A0 JUMPI DUP1 PUSH4 0xFC36E15B EQ PUSH2 0x2BF JUMPI PUSH2 0xEA JUMP JUMPDEST DUP1 PUSH4 0x9E7B8D61 EQ PUSH2 0x1F9 JUMPI DUP1 PUSH4 0xA3EC138D EQ PUSH2 0x215 JUMPI DUP1 PUSH4 0xCE606EE0 EQ PUSH2 0x246 JUMPI PUSH2 0xEA JUMP JUMPDEST DUP1 PUSH4 0x3DDF3822 GT PUSH2 0xC8 JUMPI DUP1 PUSH4 0x3DDF3822 EQ PUSH2 0x15D JUMPI DUP1 PUSH4 0x4ABA5F34 EQ PUSH2 0x17B JUMPI DUP1 PUSH4 0x8D85CC09 EQ PUSH2 0x199 JUMPI DUP1 PUSH4 0x94B04E7D EQ PUSH2 0x1C9 JUMPI PUSH2 0xEA JUMP JUMPDEST DUP1 PUSH4 0x2BFDA515 EQ PUSH2 0xEF JUMPI DUP1 PUSH4 0x32A2C5D0 EQ PUSH2 0x10D JUMPI DUP1 PUSH4 0x3477EE2E EQ PUSH2 0x12B JUMPI JUMPDEST PUSH1 0x0 DUP1 REVERT JUMPDEST PUSH2 0xF7 PUSH2 0x2DB JUMP JUMPDEST PUSH1 0x40 MLOAD PUSH2 0x104 SWAP2 SWAP1 PUSH2 0x1090 JUMP JUMPDEST PUSH1 0x40 MLOAD DUP1 SWAP2 SUB SWAP1 RETURN JUMPDEST PUSH2 0x115 PUSH2 0x3E2 JUMP JUMPDEST PUSH1 0x40 MLOAD PUSH2 0x122 SWAP2 SWAP1 PUSH2 0x100F JUMP JUMPDEST PUSH1 0x40 MLOAD DUP1 SWAP2 SUB SWAP1 RETURN JUMPDEST PUSH2 0x145 PUSH1 0x4 DUP1 CALLDATASIZE SUB DUP2 ADD SWAP1 PUSH2 0x140 SWAP2 SWAP1 PUSH2 0xDA5 JUMP JUMPDEST PUSH2 0x3EA JUMP JUMPDEST PUSH1 0x40 MLOAD PUSH2 0x154 SWAP4 SWAP3 SWAP2 SWAP1 PUSH2 0x10B2 JUMP JUMPDEST PUSH1 0x40 MLOAD DUP1 SWAP2 SUB SWAP1 RETURN JUMPDEST PUSH2 0x165 PUSH2 0x534 JUMP JUMPDEST PUSH1 0x40 MLOAD PUSH2 0x172 SWAP2 SWAP1 PUSH2 0x104C JUMP JUMPDEST PUSH1 0x40 MLOAD DUP1 SWAP2 SUB SWAP1 RETURN JUMPDEST PUSH2 0x183 PUSH2 0x58B JUMP JUMPDEST PUSH1 0x40 MLOAD PUSH2 0x190 SWAP2 SWAP1 PUSH2 0x102A JUMP JUMPDEST PUSH1 0x40 MLOAD DUP1 SWAP2 SUB SWAP1 RETURN JUMPDEST PUSH2 0x1B3 PUSH1 0x4 DUP1 CALLDATASIZE SUB DUP2 ADD SWAP1 PUSH2 0x1AE SWAP2 SWAP1 PUSH2 0xD2F JUMP JUMPDEST PUSH2 0x718 JUMP JUMPDEST PUSH1 0x40 MLOAD PUSH2 0x1C0 SWAP2 SWAP1 PUSH2 0x104C JUMP JUMPDEST PUSH1 0x40 MLOAD DUP1 SWAP2 SUB SWAP1 RETURN JUMPDEST PUSH2 0x1E3 PUSH1 0x4 DUP1 CALLDATASIZE SUB DUP2 ADD SWAP1 PUSH2 0x1DE SWAP2 SWAP1 PUSH2 0xD2F JUMP JUMPDEST PUSH2 0x771 JUMP JUMPDEST PUSH1 0x40 MLOAD PUSH2 0x1F0 SWAP2 SWAP1 PUSH2 0x104C JUMP JUMPDEST PUSH1 0x40 MLOAD DUP1 SWAP2 SUB SWAP1 RETURN JUMPDEST PUSH2 0x213 PUSH1 0x4 DUP1 CALLDATASIZE SUB DUP2 ADD SWAP1 PUSH2 0x20E SWAP2 SWAP1 PUSH2 0xD2F JUMP JUMPDEST PUSH2 0x7CA JUMP JUMPDEST STOP JUMPDEST PUSH2 0x22F PUSH1 0x4 DUP1 CALLDATASIZE SUB DUP2 ADD SWAP1 PUSH2 0x22A SWAP2 SWAP1 PUSH2 0xD2F JUMP JUMPDEST PUSH2 0x879 JUMP JUMPDEST PUSH1 0x40 MLOAD PUSH2 0x23D SWAP3 SWAP2 SWAP1 PUSH2 0x1067 JUMP JUMPDEST PUSH1 0x40 MLOAD DUP1 SWAP2 SUB SWAP1 RETURN JUMPDEST PUSH2 0x24E PUSH2 0x8B7 JUMP JUMPDEST PUSH1 0x40 MLOAD PUSH2 0x25B SWAP2 SWAP1 PUSH2 0x100F JUMP JUMPDEST PUSH1 0x40 MLOAD DUP1 SWAP2 SUB SWAP1 RETURN JUMPDEST PUSH2 0x26C PUSH2 0x8DB JUMP JUMPDEST PUSH1 0x40 MLOAD PUSH2 0x279 SWAP2 SWAP1 PUSH2 0x104C JUMP JUMPDEST PUSH1 0x40 MLOAD DUP1 SWAP2 SUB SWAP1 RETURN JUMPDEST PUSH2 0x28A PUSH2 0x8EB JUMP JUMPDEST PUSH1 0x40 MLOAD PUSH2 0x297 SWAP2 SWAP1 PUSH2 0x104C JUMP JUMPDEST PUSH1 0x40 MLOAD DUP1 SWAP2 SUB SWAP1 RETURN JUMPDEST PUSH2 0x2A8 PUSH2 0x8FB JUMP JUMPDEST PUSH1 0x40 MLOAD PUSH2 0x2B6 SWAP3 SWAP2 SWAP1 PUSH2 0x1197 JUMP JUMPDEST PUSH1 0x40 MLOAD DUP1 SWAP2 SUB SWAP1 RETURN JUMPDEST PUSH2 0x2D9 PUSH1 0x4 DUP1 CALLDATASIZE SUB DUP2 ADD SWAP1 PUSH2 0x2D4 SWAP2 SWAP1 PUSH2 0xD5C JUMP JUMPDEST PUSH2 0x9C0 JUMP JUMPDEST STOP JUMPDEST PUSH1 0x60 PUSH1 0x0 DUP1 PUSH2 0x2E8 PUSH2 0x8FB JUMP JUMPDEST SWAP2 POP SWAP2 POP DUP1 ISZERO PUSH2 0x32D JUMPI PUSH1 0x40 MLOAD PUSH32 0x8C379A000000000000000000000000000000000000000000000000000000000 DUP2 MSTORE PUSH1 0x4 ADD PUSH2 0x324 SWAP1 PUSH2 0x1177 JUMP JUMPDEST PUSH1 0x40 MLOAD DUP1 SWAP2 SUB SWAP1 REVERT JUMPDEST PUSH1 0x2 DUP3 DUP2 SLOAD DUP2 LT PUSH2 0x341 JUMPI PUSH2 0x340 PUSH2 0x1410 JUMP JUMPDEST JUMPDEST SWAP1 PUSH1 0x0 MSTORE PUSH1 0x20 PUSH1 0x0 KECCAK256 SWAP1 PUSH1 0x3 MUL ADD PUSH1 0x0 ADD DUP1 SLOAD PUSH2 0x35D SWAP1 PUSH2 0x1306 JUMP JUMPDEST DUP1 PUSH1 0x1F ADD PUSH1 0x20 DUP1 SWAP2 DIV MUL PUSH1 0x20 ADD PUSH1 0x40 MLOAD SWAP1 DUP2 ADD PUSH1 0x40 MSTORE DUP1 SWAP3 SWAP2 SWAP1 DUP2 DUP2 MSTORE PUSH1 0x20 ADD DUP3 DUP1 SLOAD PUSH2 0x389 SWAP1 PUSH2 0x1306 JUMP JUMPDEST DUP1 ISZERO PUSH2 0x3D6 JUMPI DUP1 PUSH1 0x1F LT PUSH2 0x3AB JUMPI PUSH2 0x100 DUP1 DUP4 SLOAD DIV MUL DUP4 MSTORE SWAP2 PUSH1 0x20 ADD SWAP2 PUSH2 0x3D6 JUMP JUMPDEST DUP3 ADD SWAP2 SWAP1 PUSH1 0x0 MSTORE PUSH1 0x20 PUSH1 0x0 KECCAK256 SWAP1 JUMPDEST DUP2 SLOAD DUP2 MSTORE SWAP1 PUSH1 0x1 ADD SWAP1 PUSH1 0x20 ADD DUP1 DUP4 GT PUSH2 0x3B9 JUMPI DUP3 SWAP1 SUB PUSH1 0x1F AND DUP3 ADD SWAP2 JUMPDEST POP POP POP POP POP SWAP3 POP POP POP SWAP1 JUMP JUMPDEST PUSH1 0x0 ADDRESS SWAP1 POP SWAP1 JUMP JUMPDEST PUSH1 0x2 DUP2 DUP2 SLOAD DUP2 LT PUSH2 0x3FA JUMPI PUSH1 0x0 DUP1 REVERT JUMPDEST SWAP1 PUSH1 0x0 MSTORE PUSH1 0x20 PUSH1 0x0 KECCAK256 SWAP1 PUSH1 0x3 MUL ADD PUSH1 0x0 SWAP2 POP SWAP1 POP DUP1 PUSH1 0x0 ADD DUP1 SLOAD PUSH2 0x41D SWAP1 PUSH2 0x1306 JUMP JUMPDEST DUP1 PUSH1 0x1F ADD PUSH1 0x20 DUP1 SWAP2 DIV MUL PUSH1 0x20 ADD PUSH1 0x40 MLOAD SWAP1 DUP2 ADD PUSH1 0x40 MSTORE DUP1 SWAP3 SWAP2 SWAP1 DUP2 DUP2 MSTORE PUSH1 0x20 ADD DUP3 DUP1 SLOAD PUSH2 0x449 SWAP1 PUSH2 0x1306 JUMP JUMPDEST DUP1 ISZERO PUSH2 0x496 JUMPI DUP1 PUSH1 0x1F LT PUSH2 0x46B JUMPI PUSH2 0x100 DUP1 DUP4 SLOAD DIV MUL DUP4 MSTORE SWAP2 PUSH1 0x20 ADD SWAP2 PUSH2 0x496 JUMP JUMPDEST DUP3 ADD SWAP2 SWAP1 PUSH1 0x0 MSTORE PUSH1 0x20 PUSH1 0x0 KECCAK256 SWAP1 JUMPDEST DUP2 SLOAD DUP2 MSTORE SWAP1 PUSH1 0x1 ADD SWAP1 PUSH1 0x20 ADD DUP1 DUP4 GT PUSH2 0x479 JUMPI DUP3 SWAP1 SUB PUSH1 0x1F AND DUP3 ADD SWAP2 JUMPDEST POP POP POP POP POP SWAP1 DUP1 PUSH1 0x1 ADD DUP1 SLOAD PUSH2 0x4AB SWAP1 PUSH2 0x1306 JUMP JUMPDEST DUP1 PUSH1 0x1F ADD PUSH1 0x20 DUP1 SWAP2 DIV MUL PUSH1 0x20 ADD PUSH1 0x40 MLOAD SWAP1 DUP2 ADD PUSH1 0x40 MSTORE DUP1 SWAP3 SWAP2 SWAP1 DUP2 DUP2 MSTORE PUSH1 0x20 ADD DUP3 DUP1 SLOAD PUSH2 0x4D7 SWAP1 PUSH2 0x1306 JUMP JUMPDEST DUP1 ISZERO PUSH2 0x524 JUMPI DUP1 PUSH1 0x1F LT PUSH2 0x4F9 JUMPI PUSH2 0x100 DUP1 DUP4 SLOAD DIV MUL DUP4 MSTORE SWAP2 PUSH1 0x20 ADD SWAP2 PUSH2 0x524 JUMP JUMPDEST DUP3 ADD SWAP2 SWAP1 PUSH1 0x0 MSTORE PUSH1 0x20 PUSH1 0x0 KECCAK256 SWAP1 JUMPDEST DUP2 SLOAD DUP2 MSTORE SWAP1 PUSH1 0x1 ADD SWAP1 PUSH1 0x20 ADD DUP1 DUP4 GT PUSH2 0x507 JUMPI DUP3 SWAP1 SUB PUSH1 0x1F AND DUP3 ADD SWAP2 JUMPDEST POP POP POP POP POP SWAP1 DUP1 PUSH1 0x2 ADD SLOAD SWAP1 POP DUP4 JUMP JUMPDEST PUSH1 0x0 DUP1 PUSH1 0x0 SWAP1 SLOAD SWAP1 PUSH2 0x100 EXP SWAP1 DIV PUSH20 0xFFFFFFFFFFFFFFFFFFFFFFFFFFFFFFFFFFFFFFFF AND PUSH20 0xFFFFFFFFFFFFFFFFFFFFFFFFFFFFFFFFFFFFFFFF AND CALLER PUSH20 0xFFFFFFFFFFFFFFFFFFFFFFFFFFFFFFFFFFFFFFFF AND EQ SWAP1 POP SWAP1 JUMP JUMPDEST PUSH1 0x60 PUSH1 0x2 DUP1 SLOAD DUP1 PUSH1 0x20 MUL PUSH1 0x20 ADD PUSH1 0x40 MLOAD SWAP1 DUP2 ADD PUSH1 0x40 MSTORE DUP1 SWAP3 SWAP2 SWAP1 DUP2 DUP2 MSTORE PUSH1 0x20 ADD PUSH1 0x0 SWAP1 JUMPDEST DUP3 DUP3 LT ISZERO PUSH2 0x70F JUMPI DUP4 DUP3 SWAP1 PUSH1 0x0 MSTORE PUSH1 0x20 PUSH1 0x0 KECCAK256 SWAP1 PUSH1 0x3 MUL ADD PUSH1 0x40 MLOAD DUP1 PUSH1 0x60 ADD PUSH1 0x40 MSTORE SWAP1 DUP2 PUSH1 0x0 DUP3 ADD DUP1 SLOAD PUSH2 0x5E2 SWAP1 PUSH2 0x1306 JUMP JUMPDEST DUP1 PUSH1 0x1F ADD PUSH1 0x20 DUP1 SWAP2 DIV MUL PUSH1 0x20 ADD PUSH1 0x40 MLOAD SWAP1 DUP2 ADD PUSH1 0x40 MSTORE DUP1 SWAP3 SWAP2 SWAP1 DUP2 DUP2 MSTORE PUSH1 0x20 ADD DUP3 DUP1 SLOAD PUSH2 0x60E SWAP1 PUSH2 0x1306 JUMP JUMPDEST DUP1 ISZERO PUSH2 0x65B JUMPI DUP1 PUSH1 0x1F LT PUSH2 0x630 JUMPI PUSH2 0x100 DUP1 DUP4 SLOAD DIV MUL DUP4 MSTORE SWAP2 PUSH1 0x20 ADD SWAP2 PUSH2 0x65B JUMP JUMPDEST DUP3 ADD SWAP2 SWAP1 PUSH1 0x0 MSTORE PUSH1 0x20 PUSH1 0x0 KECCAK256 SWAP1 JUMPDEST DUP2 SLOAD DUP2 MSTORE SWAP1 PUSH1 0x1 ADD SWAP1 PUSH1 0x20 ADD DUP1 DUP4 GT PUSH2 0x63E JUMPI DUP3 SWAP1 SUB PUSH1 0x1F AND DUP3 ADD SWAP2 JUMPDEST POP POP POP POP POP DUP2 MSTORE PUSH1 0x20 ADD PUSH1 0x1 DUP3 ADD DUP1 SLOAD PUSH2 0x674 SWAP1 PUSH2 0x1306 JUMP JUMPDEST DUP1 PUSH1 0x1F ADD PUSH1 0x20 DUP1 SWAP2 DIV MUL PUSH1 0x20 ADD PUSH1 0x40 MLOAD SWAP1 DUP2 ADD PUSH1 0x40 MSTORE DUP1 SWAP3 SWAP2 SWAP1 DUP2 DUP2 MSTORE PUSH1 0x20 ADD DUP3 DUP1 SLOAD PUSH2 0x6A0 SWAP1 PUSH2 0x1306 JUMP JUMPDEST DUP1 ISZERO PUSH2 0x6ED JUMPI DUP1 PUSH1 0x1F LT PUSH2 0x6C2 JUMPI PUSH2 0x100 DUP1 DUP4 SLOAD DIV MUL DUP4 MSTORE SWAP2 PUSH1 0x20 ADD SWAP2 PUSH2 0x6ED JUMP JUMPDEST DUP3 ADD SWAP2 SWAP1 PUSH1 0x0 MSTORE PUSH1 0x20 PUSH1 0x0 KECCAK256 SWAP1 JUMPDEST DUP2 SLOAD DUP2 MSTORE SWAP1 PUSH1 0x1 ADD SWAP1 PUSH1 0x20 ADD DUP1 DUP4 GT PUSH2 0x6D0 JUMPI DUP3 SWAP1 SUB PUSH1 0x1F AND DUP3 ADD SWAP2 JUMPDEST POP POP POP POP POP DUP2 MSTORE PUSH1 0x20 ADD PUSH1 0x2 DUP3 ADD SLOAD DUP2 MSTORE POP POP DUP2 MSTORE PUSH1 0x20 ADD SWAP1 PUSH1 0x1 ADD SWAP1 PUSH2 0x5AF JUMP JUMPDEST POP POP POP POP SWAP1 POP SWAP1 JUMP JUMPDEST PUSH1 0x0 PUSH1 0x1 PUSH1 0x0 DUP4 PUSH20 0xFFFFFFFFFFFFFFFFFFFFFFFFFFFFFFFFFFFFFFFF AND PUSH20 0xFFFFFFFFFFFFFFFFFFFFFFFFFFFFFFFFFFFFFFFF AND DUP2 MSTORE PUSH1 0x20 ADD SWAP1 DUP2 MSTORE PUSH1 0x20 ADD PUSH1 0x0 KECCAK256 PUSH1 0x0 ADD PUSH1 0x1 SWAP1 SLOAD SWAP1 PUSH2 0x100 EXP SWAP1 DIV PUSH1 0xFF AND SWAP1 POP SWAP2 SWAP1 POP JUMP JUMPDEST PUSH1 0x0 PUSH1 0x1 PUSH1 0x0 DUP4 PUSH20 0xFFFFFFFFFFFFFFFFFFFFFFFFFFFFFFFFFFFFFFFF AND PUSH20 0xFFFFFFFFFFFFFFFFFFFFFFFFFFFFFFFFFFFFFFFF AND DUP2 MSTORE PUSH1 0x20 ADD SWAP1 DUP2 MSTORE PUSH1 0x20 ADD PUSH1 0x0 KECCAK256 PUSH1 0x0 ADD PUSH1 0x0 SWAP1 SLOAD SWAP1 PUSH2 0x100 EXP SWAP1 DIV PUSH1 0xFF AND SWAP1 POP SWAP2 SWAP1 POP JUMP JUMPDEST DUP1 PUSH2 0x7D3 PUSH2 0x534 JUMP JUMPDEST PUSH2 0x812 JUMPI PUSH1 0x40 MLOAD PUSH32 0x8C379A000000000000000000000000000000000000000000000000000000000 DUP2 MSTORE PUSH1 0x4 ADD PUSH2 0x809 SWAP1 PUSH2 0x10F7 JUMP JUMPDEST PUSH1 0x40 MLOAD DUP1 SWAP2 SUB SWAP1 REVERT JUMPDEST PUSH2 0x81B DUP2 PUSH2 0xBF0 JUMP JUMPDEST PUSH1 0x1 DUP1 PUSH1 0x0 DUP5 PUSH20 0xFFFFFFFFFFFFFFFFFFFFFFFFFFFFFFFFFFFFFFFF AND PUSH20 0xFFFFFFFFFFFFFFFFFFFFFFFFFFFFFFFFFFFFFFFF AND DUP2 MSTORE PUSH1 0x20 ADD SWAP1 DUP2 MSTORE PUSH1 0x20 ADD PUSH1 0x0 KECCAK256 PUSH1 0x0 ADD PUSH1 0x0 PUSH2 0x100 EXP DUP2 SLOAD DUP2 PUSH1 0xFF MUL NOT AND SWAP1 DUP4 ISZERO ISZERO MUL OR SWAP1 SSTORE POP POP POP JUMP JUMPDEST PUSH1 0x1 PUSH1 0x20 MSTORE DUP1 PUSH1 0x0 MSTORE PUSH1 0x40 PUSH1 0x0 KECCAK256 PUSH1 0x0 SWAP2 POP SWAP1 POP DUP1 PUSH1 0x0 ADD PUSH1 0x0 SWAP1 SLOAD SWAP1 PUSH2 0x100 EXP SWAP1 DIV PUSH1 0xFF AND SWAP1 DUP1 PUSH1 0x0 ADD PUSH1 0x1 SWAP1 SLOAD SWAP1 PUSH2 0x100 EXP SWAP1 DIV PUSH1 0xFF AND SWAP1 POP DUP3 JUMP JUMPDEST PUSH1 0x0 DUP1 SLOAD SWAP1 PUSH2 0x100 EXP SWAP1 DIV PUSH20 0xFFFFFFFFFFFFFFFFFFFFFFFFFFFFFFFFFFFFFFFF AND DUP2 JUMP JUMPDEST PUSH1 0x0 PUSH2 0x8E6 CALLER PUSH2 0x718 JUMP JUMPDEST SWAP1 POP SWAP1 JUMP JUMPDEST PUSH1 0x0 PUSH2 0x8F6 CALLER PUSH2 0x771 JUMP JUMPDEST SWAP1 POP SWAP1 JUMP JUMPDEST PUSH1 0x0 DUP1 PUSH1 0x0 DUP1 PUSH1 0x0 SWAP1 POP JUMPDEST PUSH1 0x2 DUP1 SLOAD SWAP1 POP DUP2 LT ISZERO PUSH2 0x9BA JUMPI DUP2 PUSH1 0x2 DUP3 DUP2 SLOAD DUP2 LT PUSH2 0x928 JUMPI PUSH2 0x927 PUSH2 0x1410 JUMP JUMPDEST JUMPDEST SWAP1 PUSH1 0x0 MSTORE PUSH1 0x20 PUSH1 0x0 KECCAK256 SWAP1 PUSH1 0x3 MUL ADD PUSH1 0x2 ADD SLOAD GT ISZERO PUSH2 0x974 JUMPI PUSH1 0x2 DUP2 DUP2 SLOAD DUP2 LT PUSH2 0x954 JUMPI PUSH2 0x953 PUSH2 0x1410 JUMP JUMPDEST JUMPDEST SWAP1 PUSH1 0x0 MSTORE PUSH1 0x20 PUSH1 0x0 KECCAK256 SWAP1 PUSH1 0x3 MUL ADD PUSH1 0x2 ADD SLOAD SWAP2 POP DUP1 SWAP4 POP PUSH1 0x0 SWAP3 POP PUSH2 0x9A7 JUMP JUMPDEST DUP2 PUSH1 0x2 DUP3 DUP2 SLOAD DUP2 LT PUSH2 0x989 JUMPI PUSH2 0x988 PUSH2 0x1410 JUMP JUMPDEST JUMPDEST SWAP1 PUSH1 0x0 MSTORE PUSH1 0x20 PUSH1 0x0 KECCAK256 SWAP1 PUSH1 0x3 MUL ADD PUSH1 0x2 ADD SLOAD EQ ISZERO PUSH2 0x9A6 JUMPI PUSH1 0x1 SWAP3 POP JUMPDEST JUMPDEST DUP1 DUP1 PUSH2 0x9B2 SWAP1 PUSH2 0x1369 JUMP JUMPDEST SWAP2 POP POP PUSH2 0x906 JUMP JUMPDEST POP POP SWAP1 SWAP2 JUMP JUMPDEST CALLER PUSH1 0x4 SLOAD PUSH1 0x3 SLOAD LT PUSH2 0xA07 JUMPI PUSH1 0x40 MLOAD PUSH32 0x8C379A000000000000000000000000000000000000000000000000000000000 DUP2 MSTORE PUSH1 0x4 ADD PUSH2 0x9FE SWAP1 PUSH2 0x1117 JUMP JUMPDEST PUSH1 0x40 MLOAD DUP1 SWAP2 SUB SWAP1 REVERT JUMPDEST PUSH2 0xA0F PUSH2 0x8EB JUMP JUMPDEST PUSH2 0xA4E JUMPI PUSH1 0x40 MLOAD PUSH32 0x8C379A000000000000000000000000000000000000000000000000000000000 DUP2 MSTORE PUSH1 0x4 ADD PUSH2 0xA45 SWAP1 PUSH2 0x1157 JUMP JUMPDEST PUSH1 0x40 MLOAD DUP1 SWAP2 SUB SWAP1 REVERT JUMPDEST PUSH2 0xA57 DUP2 PUSH2 0xBF0 JUMP JUMPDEST PUSH1 0x0 PUSH1 0x1 PUSH1 0x0 CALLER PUSH20 0xFFFFFFFFFFFFFFFFFFFFFFFFFFFFFFFFFFFFFFFF AND PUSH20 0xFFFFFFFFFFFFFFFFFFFFFFFFFFFFFFFFFFFFFFFF AND DUP2 MSTORE PUSH1 0x20 ADD SWAP1 DUP2 MSTORE PUSH1 0x20 ADD PUSH1 0x0 KECCAK256 SWAP1 POP PUSH1 0x0 JUMPDEST PUSH1 0x2 DUP1 SLOAD SWAP1 POP DUP2 LT ISZERO PUSH2 0xBEA JUMPI PUSH2 0xB61 PUSH1 0x2 DUP3 DUP2 SLOAD DUP2 LT PUSH2 0xAC1 JUMPI PUSH2 0xAC0 PUSH2 0x1410 JUMP JUMPDEST JUMPDEST SWAP1 PUSH1 0x0 MSTORE PUSH1 0x20 PUSH1 0x0 KECCAK256 SWAP1 PUSH1 0x3 MUL ADD PUSH1 0x0 ADD DUP1 SLOAD PUSH2 0xADD SWAP1 PUSH2 0x1306 JUMP JUMPDEST DUP1 PUSH1 0x1F ADD PUSH1 0x20 DUP1 SWAP2 DIV MUL PUSH1 0x20 ADD PUSH1 0x40 MLOAD SWAP1 DUP2 ADD PUSH1 0x40 MSTORE DUP1 SWAP3 SWAP2 SWAP1 DUP2 DUP2 MSTORE PUSH1 0x20 ADD DUP3 DUP1 SLOAD PUSH2 0xB09 SWAP1 PUSH2 0x1306 JUMP JUMPDEST DUP1 ISZERO PUSH2 0xB56 JUMPI DUP1 PUSH1 0x1F LT PUSH2 0xB2B JUMPI PUSH2 0x100 DUP1 DUP4 SLOAD DIV MUL DUP4 MSTORE SWAP2 PUSH1 0x20 ADD SWAP2 PUSH2 0xB56 JUMP JUMPDEST DUP3 ADD SWAP2 SWAP1 PUSH1 0x0 MSTORE PUSH1 0x20 PUSH1 0x0 KECCAK256 SWAP1 JUMPDEST DUP2 SLOAD DUP2 MSTORE SWAP1 PUSH1 0x1 ADD SWAP1 PUSH1 0x20 ADD DUP1 DUP4 GT PUSH2 0xB39 JUMPI DUP3 SWAP1 SUB PUSH1 0x1F AND DUP3 ADD SWAP2 JUMPDEST POP POP POP POP POP DUP6 PUSH2 0xC3C JUMP JUMPDEST ISZERO PUSH2 0xBD7 JUMPI PUSH1 0x2 DUP2 DUP2 SLOAD DUP2 LT PUSH2 0xB7A JUMPI PUSH2 0xB79 PUSH2 0x1410 JUMP JUMPDEST JUMPDEST SWAP1 PUSH1 0x0 MSTORE PUSH1 0x20 PUSH1 0x0 KECCAK256 SWAP1 PUSH1 0x3 MUL ADD PUSH1 0x2 ADD PUSH1 0x0 DUP2 SLOAD DUP1 SWAP3 SWAP2 SWAP1 PUSH2 0xB9C SWAP1 PUSH2 0x1369 JUMP JUMPDEST SWAP2 SWAP1 POP SSTORE POP PUSH1 0x1 DUP3 PUSH1 0x0 ADD PUSH1 0x1 PUSH2 0x100 EXP DUP2 SLOAD DUP2 PUSH1 0xFF MUL NOT AND SWAP1 DUP4 ISZERO ISZERO MUL OR SWAP1 SSTORE POP PUSH1 0x3 PUSH1 0x0 DUP2 SLOAD DUP1 SWAP3 SWAP2 SWAP1 PUSH2 0xBD1 SWAP1 PUSH2 0x1369 JUMP JUMPDEST SWAP2 SWAP1 POP SSTORE POP JUMPDEST DUP1 DUP1 PUSH2 0xBE2 SWAP1 PUSH2 0x1369 JUMP JUMPDEST SWAP2 POP POP PUSH2 0xA9D JUMP JUMPDEST POP POP POP POP JUMP JUMPDEST PUSH2 0xBF9 DUP2 PUSH2 0x718 JUMP JUMPDEST ISZERO PUSH2 0xC39 JUMPI PUSH1 0x40 MLOAD PUSH32 0x8C379A000000000000000000000000000000000000000000000000000000000 DUP2 MSTORE PUSH1 0x4 ADD PUSH2 0xC30 SWAP1 PUSH2 0x1137 JUMP JUMPDEST PUSH1 0x40 MLOAD DUP1 SWAP2 SUB SWAP1 REVERT JUMPDEST POP JUMP JUMPDEST PUSH1 0x0 DUP2 PUSH1 0x40 MLOAD PUSH1 0x20 ADD PUSH2 0xC4F SWAP2 SWAP1 PUSH2 0x1090 JUMP JUMPDEST PUSH1 0x40 MLOAD PUSH1 0x20 DUP2 DUP4 SUB SUB DUP2 MSTORE SWAP1 PUSH1 0x40 MSTORE DUP1 MLOAD SWAP1 PUSH1 0x20 ADD KECCAK256 DUP4 PUSH1 0x40 MLOAD PUSH1 0x20 ADD PUSH2 0xC76 SWAP2 SWAP1 PUSH2 0x1090 JUMP JUMPDEST PUSH1 0x40 MLOAD PUSH1 0x20 DUP2 DUP4 SUB SUB DUP2 MSTORE SWAP1 PUSH1 0x40 MSTORE DUP1 MLOAD SWAP1 PUSH1 0x20 ADD KECCAK256 EQ SWAP1 POP SWAP3 SWAP2 POP POP JUMP JUMPDEST PUSH1 0x0 PUSH2 0xCA8 PUSH2 0xCA3 DUP5 PUSH2 0x11E5 JUMP JUMPDEST PUSH2 0x11C0 JUMP JUMPDEST SWAP1 POP DUP3 DUP2 MSTORE PUSH1 0x20 DUP2 ADD DUP5 DUP5 DUP5 ADD GT ISZERO PUSH2 0xCC4 JUMPI PUSH2 0xCC3 PUSH2 0x1473 JUMP JUMPDEST JUMPDEST PUSH2 0xCCF DUP5 DUP3 DUP6 PUSH2 0x12C4 JUMP JUMPDEST POP SWAP4 SWAP3 POP POP POP JUMP JUMPDEST PUSH1 0x0 DUP2 CALLDATALOAD SWAP1 POP PUSH2 0xCE6 DUP2 PUSH2 0x1586 JUMP JUMPDEST SWAP3 SWAP2 POP POP JUMP JUMPDEST PUSH1 0x0 DUP3 PUSH1 0x1F DUP4 ADD SLT PUSH2 0xD01 JUMPI PUSH2 0xD00 PUSH2 0x146E JUMP JUMPDEST JUMPDEST DUP2 CALLDATALOAD PUSH2 0xD11 DUP5 DUP3 PUSH1 0x20 DUP7 ADD PUSH2 0xC95 JUMP JUMPDEST SWAP2 POP POP SWAP3 SWAP2 POP POP JUMP JUMPDEST PUSH1 0x0 DUP2 CALLDATALOAD SWAP1 POP PUSH2 0xD29 DUP2 PUSH2 0x159D JUMP JUMPDEST SWAP3 SWAP2 POP POP JUMP JUMPDEST PUSH1 0x0 PUSH1 0x20 DUP3 DUP5 SUB SLT ISZERO PUSH2 0xD45 JUMPI PUSH2 0xD44 PUSH2 0x147D JUMP JUMPDEST JUMPDEST PUSH1 0x0 PUSH2 0xD53 DUP5 DUP3 DUP6 ADD PUSH2 0xCD7 JUMP JUMPDEST SWAP2 POP POP SWAP3 SWAP2 POP POP JUMP JUMPDEST PUSH1 0x0 PUSH1 0x20 DUP3 DUP5 SUB SLT ISZERO PUSH2 0xD72 JUMPI PUSH2 0xD71 PUSH2 0x147D JUMP JUMPDEST JUMPDEST PUSH1 0x0 DUP3 ADD CALLDATALOAD PUSH8 0xFFFFFFFFFFFFFFFF DUP2 GT ISZERO PUSH2 0xD90 JUMPI PUSH2 0xD8F PUSH2 0x1478 JUMP JUMPDEST JUMPDEST PUSH2 0xD9C DUP5 DUP3 DUP6 ADD PUSH2 0xCEC JUMP JUMPDEST SWAP2 POP POP SWAP3 SWAP2 POP POP JUMP JUMPDEST PUSH1 0x0 PUSH1 0x20 DUP3 DUP5 SUB SLT ISZERO PUSH2 0xDBB JUMPI PUSH2 0xDBA PUSH2 0x147D JUMP JUMPDEST JUMPDEST PUSH1 0x0 PUSH2 0xDC9 DUP5 DUP3 DUP6 ADD PUSH2 0xD1A JUMP JUMPDEST SWAP2 POP POP SWAP3 SWAP2 POP POP JUMP JUMPDEST PUSH1 0x0 PUSH2 0xDDE DUP4 DUP4 PUSH2 0xF9A JUMP JUMPDEST SWAP1 POP SWAP3 SWAP2 POP POP JUMP JUMPDEST PUSH2 0xDEF DUP2 PUSH2 0x127C JUMP JUMPDEST DUP3 MSTORE POP POP JUMP JUMPDEST PUSH1 0x0 PUSH2 0xE00 DUP3 PUSH2 0x1226 JUMP JUMPDEST PUSH2 0xE0A DUP2 DUP6 PUSH2 0x1249 JUMP JUMPDEST SWAP4 POP DUP4 PUSH1 0x20 DUP3 MUL DUP6 ADD PUSH2 0xE1C DUP6 PUSH2 0x1216 JUMP JUMPDEST DUP1 PUSH1 0x0 JUMPDEST DUP6 DUP2 LT ISZERO PUSH2 0xE58 JUMPI DUP5 DUP5 SUB DUP10 MSTORE DUP2 MLOAD PUSH2 0xE39 DUP6 DUP3 PUSH2 0xDD2 JUMP JUMPDEST SWAP5 POP PUSH2 0xE44 DUP4 PUSH2 0x123C JUMP JUMPDEST SWAP3 POP PUSH1 0x20 DUP11 ADD SWAP10 POP POP PUSH1 0x1 DUP2 ADD SWAP1 POP PUSH2 0xE20 JUMP JUMPDEST POP DUP3 SWAP8 POP DUP8 SWAP6 POP POP POP POP POP POP SWAP3 SWAP2 POP POP JUMP JUMPDEST PUSH2 0xE73 DUP2 PUSH2 0x128E JUMP JUMPDEST DUP3 MSTORE POP POP JUMP JUMPDEST PUSH1 0x0 PUSH2 0xE84 DUP3 PUSH2 0x1231 JUMP JUMPDEST PUSH2 0xE8E DUP2 DUP6 PUSH2 0x125A JUMP JUMPDEST SWAP4 POP PUSH2 0xE9E DUP2 DUP6 PUSH1 0x20 DUP7 ADD PUSH2 0x12D3 JUMP JUMPDEST PUSH2 0xEA7 DUP2 PUSH2 0x1482 JUMP JUMPDEST DUP5 ADD SWAP2 POP POP SWAP3 SWAP2 POP POP JUMP JUMPDEST PUSH1 0x0 PUSH2 0xEBD DUP3 PUSH2 0x1231 JUMP JUMPDEST PUSH2 0xEC7 DUP2 DUP6 PUSH2 0x126B JUMP JUMPDEST SWAP4 POP PUSH2 0xED7 DUP2 DUP6 PUSH1 0x20 DUP7 ADD PUSH2 0x12D3 JUMP JUMPDEST PUSH2 0xEE0 DUP2 PUSH2 0x1482 JUMP JUMPDEST DUP5 ADD SWAP2 POP POP SWAP3 SWAP2 POP POP JUMP JUMPDEST PUSH1 0x0 PUSH2 0xEF8 PUSH1 0x2F DUP4 PUSH2 0x126B JUMP JUMPDEST SWAP2 POP PUSH2 0xF03 DUP3 PUSH2 0x1493 JUMP JUMPDEST PUSH1 0x40 DUP3 ADD SWAP1 POP SWAP2 SWAP1 POP JUMP JUMPDEST PUSH1 0x0 PUSH2 0xF1B PUSH1 0x1C DUP4 PUSH2 0x126B JUMP JUMPDEST SWAP2 POP PUSH2 0xF26 DUP3 PUSH2 0x14E2 JUMP JUMPDEST PUSH1 0x20 DUP3 ADD SWAP1 POP SWAP2 SWAP1 POP JUMP JUMPDEST PUSH1 0x0 PUSH2 0xF3E PUSH1 0x14 DUP4 PUSH2 0x126B JUMP JUMPDEST SWAP2 POP PUSH2 0xF49 DUP3 PUSH2 0x150B JUMP JUMPDEST PUSH1 0x20 DUP3 ADD SWAP1 POP SWAP2 SWAP1 POP JUMP JUMPDEST PUSH1 0x0 PUSH2 0xF61 PUSH1 0x1A DUP4 PUSH2 0x126B JUMP JUMPDEST SWAP2 POP PUSH2 0xF6C DUP3 PUSH2 0x1534 JUMP JUMPDEST PUSH1 0x20 DUP3 ADD SWAP1 POP SWAP2 SWAP1 POP JUMP JUMPDEST PUSH1 0x0 PUSH2 0xF84 PUSH1 0x18 DUP4 PUSH2 0x126B JUMP JUMPDEST SWAP2 POP PUSH2 0xF8F DUP3 PUSH2 0x155D JUMP JUMPDEST PUSH1 0x20 DUP3 ADD SWAP1 POP SWAP2 SWAP1 POP JUMP JUMPDEST PUSH1 0x0 PUSH1 0x60 DUP4 ADD PUSH1 0x0 DUP4 ADD MLOAD DUP5 DUP3 SUB PUSH1 0x0 DUP7 ADD MSTORE PUSH2 0xFB7 DUP3 DUP3 PUSH2 0xE79 JUMP JUMPDEST SWAP2 POP POP PUSH1 0x20 DUP4 ADD MLOAD DUP5 DUP3 SUB PUSH1 0x20 DUP7 ADD MSTORE PUSH2 0xFD1 DUP3 DUP3 PUSH2 0xE79 JUMP JUMPDEST SWAP2 POP POP PUSH1 0x40 DUP4 ADD MLOAD PUSH2 0xFE6 PUSH1 0x40 DUP7 ADD DUP3 PUSH2 0xFF1 JUMP JUMPDEST POP DUP1 SWAP2 POP POP SWAP3 SWAP2 POP POP JUMP JUMPDEST PUSH2 0xFFA DUP2 PUSH2 0x12BA JUMP JUMPDEST DUP3 MSTORE POP POP JUMP JUMPDEST PUSH2 0x1009 DUP2 PUSH2 0x12BA JUMP JUMPDEST DUP3 MSTORE POP POP JUMP JUMPDEST PUSH1 0x0 PUSH1 0x20 DUP3 ADD SWAP1 POP PUSH2 0x1024 PUSH1 0x0 DUP4 ADD DUP5 PUSH2 0xDE6 JUMP JUMPDEST SWAP3 SWAP2 POP POP JUMP JUMPDEST PUSH1 0x0 PUSH1 0x20 DUP3 ADD SWAP1 POP DUP2 DUP2 SUB PUSH1 0x0 DUP4 ADD MSTORE PUSH2 0x1044 DUP2 DUP5 PUSH2 0xDF5 JUMP JUMPDEST SWAP1 POP SWAP3 SWAP2 POP POP JUMP JUMPDEST PUSH1 0x0 PUSH1 0x20 DUP3 ADD SWAP1 POP PUSH2 0x1061 PUSH1 0x0 DUP4 ADD DUP5 PUSH2 0xE6A JUMP JUMPDEST SWAP3 SWAP2 POP POP JUMP JUMPDEST PUSH1 0x0 PUSH1 0x40 DUP3 ADD SWAP1 POP PUSH2 0x107C PUSH1 0x0 DUP4 ADD DUP6 PUSH2 0xE6A JUMP JUMPDEST PUSH2 0x1089 PUSH1 0x20 DUP4 ADD DUP5 PUSH2 0xE6A JUMP JUMPDEST SWAP4 SWAP3 POP POP POP JUMP JUMPDEST PUSH1 0x0 PUSH1 0x20 DUP3 ADD SWAP1 POP DUP2 DUP2 SUB PUSH1 0x0 DUP4 ADD MSTORE PUSH2 0x10AA DUP2 DUP5 PUSH2 0xEB2 JUMP JUMPDEST SWAP1 POP SWAP3 SWAP2 POP POP JUMP JUMPDEST PUSH1 0x0 PUSH1 0x60 DUP3 ADD SWAP1 POP DUP2 DUP2 SUB PUSH1 0x0 DUP4 ADD MSTORE PUSH2 0x10CC DUP2 DUP7 PUSH2 0xEB2 JUMP JUMPDEST SWAP1 POP DUP2 DUP2 SUB PUSH1 0x20 DUP4 ADD MSTORE PUSH2 0x10E0 DUP2 DUP6 PUSH2 0xEB2 JUMP JUMPDEST SWAP1 POP PUSH2 0x10EF PUSH1 0x40 DUP4 ADD DUP5 PUSH2 0x1000 JUMP JUMPDEST SWAP5 SWAP4 POP POP POP POP JUMP JUMPDEST PUSH1 0x0 PUSH1 0x20 DUP3 ADD SWAP1 POP DUP2 DUP2 SUB PUSH1 0x0 DUP4 ADD MSTORE PUSH2 0x1110 DUP2 PUSH2 0xEEB JUMP JUMPDEST SWAP1 POP SWAP2 SWAP1 POP JUMP JUMPDEST PUSH1 0x0 PUSH1 0x20 DUP3 ADD SWAP1 POP DUP2 DUP2 SUB PUSH1 0x0 DUP4 ADD MSTORE PUSH2 0x1130 DUP2 PUSH2 0xF0E JUMP JUMPDEST SWAP1 POP SWAP2 SWAP1 POP JUMP JUMPDEST PUSH1 0x0 PUSH1 0x20 DUP3 ADD SWAP1 POP DUP2 DUP2 SUB PUSH1 0x0 DUP4 ADD MSTORE PUSH2 0x1150 DUP2 PUSH2 0xF31 JUMP JUMPDEST SWAP1 POP SWAP2 SWAP1 POP JUMP JUMPDEST PUSH1 0x0 PUSH1 0x20 DUP3 ADD SWAP1 POP DUP2 DUP2 SUB PUSH1 0x0 DUP4 ADD MSTORE PUSH2 0x1170 DUP2 PUSH2 0xF54 JUMP JUMPDEST SWAP1 POP SWAP2 SWAP1 POP JUMP JUMPDEST PUSH1 0x0 PUSH1 0x20 DUP3 ADD SWAP1 POP DUP2 DUP2 SUB PUSH1 0x0 DUP4 ADD MSTORE PUSH2 0x1190 DUP2 PUSH2 0xF77 JUMP JUMPDEST SWAP1 POP SWAP2 SWAP1 POP JUMP JUMPDEST PUSH1 0x0 PUSH1 0x40 DUP3 ADD SWAP1 POP PUSH2 0x11AC PUSH1 0x0 DUP4 ADD DUP6 PUSH2 0x1000 JUMP JUMPDEST PUSH2 0x11B9 PUSH1 0x20 DUP4 ADD DUP5 PUSH2 0xE6A JUMP JUMPDEST SWAP4 SWAP3 POP POP POP JUMP JUMPDEST PUSH1 0x0 PUSH2 0x11CA PUSH2 0x11DB JUMP JUMPDEST SWAP1 POP PUSH2 0x11D6 DUP3 DUP3 PUSH2 0x1338 JUMP JUMPDEST SWAP2 SWAP1 POP JUMP JUMPDEST PUSH1 0x0 PUSH1 0x40 MLOAD SWAP1 POP SWAP1 JUMP JUMPDEST PUSH1 0x0 PUSH8 0xFFFFFFFFFFFFFFFF DUP3 GT ISZERO PUSH2 0x1200 JUMPI PUSH2 0x11FF PUSH2 0x143F JUMP JUMPDEST JUMPDEST PUSH2 0x1209 DUP3 PUSH2 0x1482 JUMP JUMPDEST SWAP1 POP PUSH1 0x20 DUP2 ADD SWAP1 POP SWAP2 SWAP1 POP JUMP JUMPDEST PUSH1 0x0 DUP2 SWAP1 POP PUSH1 0x20 DUP3 ADD SWAP1 POP SWAP2 SWAP1 POP JUMP JUMPDEST PUSH1 0x0 DUP2 MLOAD SWAP1 POP SWAP2 SWAP1 POP JUMP JUMPDEST PUSH1 0x0 DUP2 MLOAD SWAP1 POP SWAP2 SWAP1 POP JUMP JUMPDEST PUSH1 0x0 PUSH1 0x20 DUP3 ADD SWAP1 POP SWAP2 SWAP1 POP JUMP JUMPDEST PUSH1 0x0 DUP3 DUP3 MSTORE PUSH1 0x20 DUP3 ADD SWAP1 POP SWAP3 SWAP2 POP POP JUMP JUMPDEST PUSH1 0x0 DUP3 DUP3 MSTORE PUSH1 0x20 DUP3 ADD SWAP1 POP SWAP3 SWAP2 POP POP JUMP JUMPDEST PUSH1 0x0 DUP3 DUP3 MSTORE PUSH1 0x20 DUP3 ADD SWAP1 POP SWAP3 SWAP2 POP POP JUMP JUMPDEST PUSH1 0x0 PUSH2 0x1287 DUP3 PUSH2 0x129A JUMP JUMPDEST SWAP1 POP SWAP2 SWAP1 POP JUMP JUMPDEST PUSH1 0x0 DUP2 ISZERO ISZERO SWAP1 POP SWAP2 SWAP1 POP JUMP JUMPDEST PUSH1 0x0 PUSH20 0xFFFFFFFFFFFFFFFFFFFFFFFFFFFFFFFFFFFFFFFF DUP3 AND SWAP1 POP SWAP2 SWAP1 POP JUMP JUMPDEST PUSH1 0x0 DUP2 SWAP1 POP SWAP2 SWAP1 POP JUMP JUMPDEST DUP3 DUP2 DUP4 CALLDATACOPY PUSH1 0x0 DUP4 DUP4 ADD MSTORE POP POP POP JUMP JUMPDEST PUSH1 0x0 JUMPDEST DUP4 DUP2 LT ISZERO PUSH2 0x12F1 JUMPI DUP1 DUP3 ADD MLOAD DUP2 DUP5 ADD MSTORE PUSH1 0x20 DUP2 ADD SWAP1 POP PUSH2 0x12D6 JUMP JUMPDEST DUP4 DUP2 GT ISZERO PUSH2 0x1300 JUMPI PUSH1 0x0 DUP5 DUP5 ADD MSTORE JUMPDEST POP POP POP POP JUMP JUMPDEST PUSH1 0x0 PUSH1 0x2 DUP3 DIV SWAP1 POP PUSH1 0x1 DUP3 AND DUP1 PUSH2 0x131E JUMPI PUSH1 0x7F DUP3 AND SWAP2 POP JUMPDEST PUSH1 0x20 DUP3 LT DUP2 EQ ISZERO PUSH2 0x1332 JUMPI PUSH2 0x1331 PUSH2 0x13E1 JUMP JUMPDEST JUMPDEST POP SWAP2 SWAP1 POP JUMP JUMPDEST PUSH2 0x1341 DUP3 PUSH2 0x1482 JUMP JUMPDEST DUP2 ADD DUP2 DUP2 LT PUSH8 0xFFFFFFFFFFFFFFFF DUP3 GT OR ISZERO PUSH2 0x1360 JUMPI PUSH2 0x135F PUSH2 0x143F JUMP JUMPDEST JUMPDEST DUP1 PUSH1 0x40 MSTORE POP POP POP JUMP JUMPDEST PUSH1 0x0 PUSH2 0x1374 DUP3 PUSH2 0x12BA JUMP JUMPDEST SWAP2 POP PUSH32 0xFFFFFFFFFFFFFFFFFFFFFFFFFFFFFFFFFFFFFFFFFFFFFFFFFFFFFFFFFFFFFFFF DUP3 EQ ISZERO PUSH2 0x13A7 JUMPI PUSH2 0x13A6 PUSH2 0x13B2 JUMP JUMPDEST JUMPDEST PUSH1 0x1 DUP3 ADD SWAP1 POP SWAP2 SWAP1 POP JUMP JUMPDEST PUSH32 0x4E487B7100000000000000000000000000000000000000000000000000000000 PUSH1 0x0 MSTORE PUSH1 0x11 PUSH1 0x4 MSTORE PUSH1 0x24 PUSH1 0x0 REVERT JUMPDEST PUSH32 0x4E487B7100000000000000000000000000000000000000000000000000000000 PUSH1 0x0 MSTORE PUSH1 0x22 PUSH1 0x4 MSTORE PUSH1 0x24 PUSH1 0x0 REVERT JUMPDEST PUSH32 0x4E487B7100000000000000000000000000000000000000000000000000000000 PUSH1 0x0 MSTORE PUSH1 0x32 PUSH1 0x4 MSTORE PUSH1 0x24 PUSH1 0x0 REVERT JUMPDEST PUSH32 0x4E487B7100000000000000000000000000000000000000000000000000000000 PUSH1 0x0 MSTORE PUSH1 0x41 PUSH1 0x4 MSTORE PUSH1 0x24 PUSH1 0x0 REVERT JUMPDEST PUSH1 0x0 DUP1 REVERT JUMPDEST PUSH1 0x0 DUP1 REVERT JUMPDEST PUSH1 0x0 DUP1 REVERT JUMPDEST PUSH1 0x0 DUP1 REVERT JUMPDEST PUSH1 0x0 PUSH1 0x1F NOT PUSH1 0x1F DUP4 ADD AND SWAP1 POP SWAP2 SWAP1 POP JUMP JUMPDEST PUSH32 0x4F6E6C792074686520636F6E7472616374206F776E65722063616E2067697665 PUSH1 0x0 DUP3 ADD MSTORE PUSH32 0x20726967687420746F20766F74652E0000000000000000000000000000000000 PUSH1 0x20 DUP3 ADD MSTORE POP JUMP JUMPDEST PUSH32 0x4D6178206163636F756E7420766F746573206973207265616368656400000000 PUSH1 0x0 DUP3 ADD MSTORE POP JUMP JUMPDEST PUSH32 0x566F74657220616C726561647920766F7465642E000000000000000000000000 PUSH1 0x0 DUP3 ADD MSTORE POP JUMP JUMPDEST PUSH32 0x596F752068617665206E6F7420726967687420746F20766F7465000000000000 PUSH1 0x0 DUP3 ADD MSTORE POP JUMP JUMPDEST PUSH32 0x5468657265206973206120746965206F6E2042616C6C6F740000000000000000 PUSH1 0x0 DUP3 ADD MSTORE POP JUMP JUMPDEST PUSH2 0x158F DUP2 PUSH2 0x127C JUMP JUMPDEST DUP2 EQ PUSH2 0x159A JUMPI PUSH1 0x0 DUP1 REVERT JUMPDEST POP JUMP JUMPDEST PUSH2 0x15A6 DUP2 PUSH2 0x12BA JUMP JUMPDEST DUP2 EQ PUSH2 0x15B1 JUMPI PUSH1 0x0 DUP1 REVERT JUMPDEST POP JUMP INVALID LOG2 PUSH5 0x6970667358 0x22 SLT KECCAK256 CALL 0xE9 PUSH28 0x1B9EF8642AF8DFEE7367635C0EA58CE6E6841FC96169D5785AC85E2 0xC5 PUSH5 0x736F6C6343 STOP ADDMOD SMOD STOP CALLER "
				},
				"gasEstimates": {
					"creation": {
						"codeDepositCost": "1122000",
						"executionCost": "infinite",
						"totalCost": "infinite"
					},
					"external": {
						"areYouContractOwner()": "2519",
						"areYouHaveRigthToVote()": "2661",
						"areYouVoted()": "2689",
						"candidates(uint256)": "infinite",
						"contractOwner()": "2578",
						"getCandidatesList()": "infinite",
						"getContractAddress()": "431",
						"getVoterRigthToVote(address)": "2978",
						"getVoterVoted(address)": "3006",
						"getWinnerName()": "infinite",
						"getWinningCandidate()": "infinite",
						"giveRightToVote(address)": "29425",
						"vote(string)": "infinite",
						"voters(address)": "infinite"
					},
					"internal": {
						"getVoterVotedRequire(address)": "infinite",
						"setCandidatesIntoStorage(struct MyBallot.Candidate memory[] memory)": "infinite",
						"stringEqualTo(string memory,string memory)": "infinite"
					}
				},
				"methodIdentifiers": {
					"areYouContractOwner()": "3ddf3822",
					"areYouHaveRigthToVote()": "df703622",
					"areYouVoted()": "da265430",
					"candidates(uint256)": "3477ee2e",
					"contractOwner()": "ce606ee0",
					"getCandidatesList()": "4aba5f34",
					"getContractAddress()": "32a2c5d0",
					"getVoterRigthToVote(address)": "94b04e7d",
					"getVoterVoted(address)": "8d85cc09",
					"getWinnerName()": "2bfda515",
					"getWinningCandidate()": "f927cc29",
					"giveRightToVote(address)": "9e7b8d61",
					"vote(string)": "fc36e15b",
					"voters(address)": "a3ec138d"
				}
			},
			"storageLayout": {
				"storage": [
					{
						"astId": 15,
						"contract": "contracts/Ballot/Ballot.sol:MyBallot",
						"label": "contractOwner",
						"offset": 0,
						"slot": "0",
						"type": "t_address"
					},
					{
						"astId": 20,
						"contract": "contracts/Ballot/Ballot.sol:MyBallot",
						"label": "voters",
						"offset": 0,
						"slot": "1",
						"type": "t_mapping(t_address,t_struct(Voter)6_storage)"
					},
					{
						"astId": 24,
						"contract": "contracts/Ballot/Ballot.sol:MyBallot",
						"label": "candidates",
						"offset": 0,
						"slot": "2",
						"type": "t_array(t_struct(Candidate)13_storage)dyn_storage"
					},
					{
						"astId": 26,
						"contract": "contracts/Ballot/Ballot.sol:MyBallot",
						"label": "totalVotesCounter",
						"offset": 0,
						"slot": "3",
						"type": "t_uint256"
					},
					{
						"astId": 28,
						"contract": "contracts/Ballot/Ballot.sol:MyBallot",
						"label": "maxVotes",
						"offset": 0,
						"slot": "4",
						"type": "t_uint256"
					}
				],
				"types": {
					"t_address": {
						"encoding": "inplace",
						"label": "address",
						"numberOfBytes": "20"
					},
					"t_array(t_struct(Candidate)13_storage)dyn_storage": {
						"base": "t_struct(Candidate)13_storage",
						"encoding": "dynamic_array",
						"label": "struct MyBallot.Candidate[]",
						"numberOfBytes": "32"
					},
					"t_bool": {
						"encoding": "inplace",
						"label": "bool",
						"numberOfBytes": "1"
					},
					"t_mapping(t_address,t_struct(Voter)6_storage)": {
						"encoding": "mapping",
						"key": "t_address",
						"label": "mapping(address => struct MyBallot.Voter)",
						"numberOfBytes": "32",
						"value": "t_struct(Voter)6_storage"
					},
					"t_string_storage": {
						"encoding": "bytes",
						"label": "string",
						"numberOfBytes": "32"
					},
					"t_struct(Candidate)13_storage": {
						"encoding": "inplace",
						"label": "struct MyBallot.Candidate",
						"members": [
							{
								"astId": 8,
								"contract": "contracts/Ballot/Ballot.sol:MyBallot",
								"label": "name",
								"offset": 0,
								"slot": "0",
								"type": "t_string_storage"
							},
							{
								"astId": 10,
								"contract": "contracts/Ballot/Ballot.sol:MyBallot",
								"label": "party",
								"offset": 0,
								"slot": "1",
								"type": "t_string_storage"
							},
							{
								"astId": 12,
								"contract": "contracts/Ballot/Ballot.sol:MyBallot",
								"label": "votesCount",
								"offset": 0,
								"slot": "2",
								"type": "t_uint256"
							}
						],
						"numberOfBytes": "96"
					},
					"t_struct(Voter)6_storage": {
						"encoding": "inplace",
						"label": "struct MyBallot.Voter",
						"members": [
							{
								"astId": 3,
								"contract": "contracts/Ballot/Ballot.sol:MyBallot",
								"label": "canVote",
								"offset": 0,
								"slot": "0",
								"type": "t_bool"
							},
							{
								"astId": 5,
								"contract": "contracts/Ballot/Ballot.sol:MyBallot",
								"label": "hasVoted",
								"offset": 1,
								"slot": "0",
								"type": "t_bool"
							}
						],
						"numberOfBytes": "32"
					},
					"t_uint256": {
						"encoding": "inplace",
						"label": "uint256",
						"numberOfBytes": "32"
					}
				}
			},
			"userdoc": {
				"kind": "user",
				"methods": {},
				"version": 1
			}
		}
	}
}