{
	"contracts/Ballot/Ballot.sol": {
		"MyBallot": {
			"abi": [
				{
					"inputs": [
						{
							"internalType": "string[]",
							"name": "_candidates",
							"type": "string[]"
						},
						{
							"internalType": "uint256",
							"name": "_maxVotes",
							"type": "uint256"
						}
					],
					"stateMutability": "nonpayable",
					"type": "constructor"
				},
				{
					"inputs": [
						{
							"internalType": "uint256",
							"name": "",
							"type": "uint256"
						}
					],
					"name": "candidates",
					"outputs": [
						{
							"internalType": "string",
							"name": "nameProject",
							"type": "string"
						},
						{
							"internalType": "uint256",
							"name": "votesCount",
							"type": "uint256"
						}
					],
					"stateMutability": "view",
					"type": "function"
				},
				{
					"inputs": [
						{
							"internalType": "string",
							"name": "s1",
							"type": "string"
						},
						{
							"internalType": "string",
							"name": "s2",
							"type": "string"
						}
					],
					"name": "concatenateStrings",
					"outputs": [
						{
							"internalType": "string",
							"name": "",
							"type": "string"
						}
					],
					"stateMutability": "pure",
					"type": "function"
				},
				{
					"inputs": [],
					"name": "getCandidatesListName",
					"outputs": [
						{
							"internalType": "string[]",
							"name": "",
							"type": "string[]"
						}
					],
					"stateMutability": "view",
					"type": "function"
				},
				{
					"inputs": [],
					"name": "getWinnerName",
					"outputs": [
						{
							"internalType": "string",
							"name": "winnerName",
							"type": "string"
						},
						{
							"internalType": "address",
							"name": "",
							"type": "address"
						}
					],
					"stateMutability": "view",
					"type": "function"
				},
				{
					"inputs": [],
					"name": "getWinningCandidate",
					"outputs": [
						{
							"internalType": "uint256",
							"name": "winningProposal",
							"type": "uint256"
						},
						{
							"internalType": "bool",
							"name": "",
							"type": "bool"
						},
						{
							"internalType": "string",
							"name": "",
							"type": "string"
						}
					],
					"stateMutability": "view",
					"type": "function"
				},
				{
					"inputs": [
						{
							"internalType": "address",
							"name": "voterAddress",
							"type": "address"
						},
						{
							"internalType": "string",
							"name": "_nameVoter",
							"type": "string"
						}
					],
					"name": "giveRightToVote",
					"outputs": [],
					"stateMutability": "nonpayable",
					"type": "function"
				},
				{
					"inputs": [
						{
							"internalType": "string",
							"name": "_nameProject",
							"type": "string"
						}
					],
					"name": "vote",
					"outputs": [],
					"stateMutability": "nonpayable",
					"type": "function"
				},
				{
					"inputs": [
						{
							"internalType": "address",
							"name": "",
							"type": "address"
						}
					],
					"name": "voters",
					"outputs": [
						{
							"internalType": "string",
							"name": "nameVoter",
							"type": "string"
						},
						{
							"internalType": "bool",
							"name": "canVote",
							"type": "bool"
						},
						{
							"internalType": "bool",
							"name": "hasVoted",
							"type": "bool"
						}
					],
					"stateMutability": "view",
					"type": "function"
				}
			],
			"devdoc": {
				"kind": "dev",
				"methods": {},
				"version": 1
			},
			"evm": {
				"assembly": "    /* \"contracts/Ballot/Ballot.sol\":70:6993  contract MyBallot {\r... */\n  mstore(0x40, 0x80)\n    /* \"contracts/Ballot/Ballot.sol\":533:722  constructor(string[] memory _candidates, uint _maxVotes) {\r... */\n  callvalue\n  dup1\n  iszero\n  tag_1\n  jumpi\n  0x00\n  dup1\n  revert\ntag_1:\n  pop\n  mload(0x40)\n  sub(codesize, bytecodeSize)\n  dup1\n  bytecodeSize\n  dup4\n  codecopy\n  dup2\n  dup2\n  add\n  0x40\n  mstore\n  dup2\n  add\n  swap1\n  tag_2\n  swap2\n  swap1\n  tag_3\n  jump\t// in\ntag_2:\n    /* \"contracts/Ballot/Ballot.sol\":617:627  msg.sender */\n  caller\n    /* \"contracts/Ballot/Ballot.sol\":601:614  contractOwner */\n  0x00\n  dup1\n    /* \"contracts/Ballot/Ballot.sol\":601:627  contractOwner = msg.sender */\n  0x0100\n  exp\n  dup2\n  sload\n  dup2\n  0xffffffffffffffffffffffffffffffffffffffff\n  mul\n  not\n  and\n  swap1\n  dup4\n  0xffffffffffffffffffffffffffffffffffffffff\n  and\n  mul\n  or\n  swap1\n  sstore\n  pop\n    /* \"contracts/Ballot/Ballot.sol\":638:675  setCandidatesIntoStorage(_candidates) */\n  tag_6\n    /* \"contracts/Ballot/Ballot.sol\":663:674  _candidates */\n  dup3\n    /* \"contracts/Ballot/Ballot.sol\":638:662  setCandidatesIntoStorage */\n  shl(0x20, tag_7)\n    /* \"contracts/Ballot/Ballot.sol\":638:675  setCandidatesIntoStorage(_candidates) */\n  0x20\n  shr\n  jump\t// in\ntag_6:\n    /* \"contracts/Ballot/Ballot.sol\":705:714  _maxVotes */\n  dup1\n    /* \"contracts/Ballot/Ballot.sol\":694:702  maxVotes */\n  0x04\n    /* \"contracts/Ballot/Ballot.sol\":694:714  maxVotes = _maxVotes */\n  dup2\n  swap1\n  sstore\n  pop\n    /* \"contracts/Ballot/Ballot.sol\":533:722  constructor(string[] memory _candidates, uint _maxVotes) {\r... */\n  pop\n  pop\n    /* \"contracts/Ballot/Ballot.sol\":70:6993  contract MyBallot {\r... */\n  jump(tag_8)\n    /* \"contracts/Ballot/Ballot.sol\":1990:2289  function setCandidatesIntoStorage(string[] memory _candidates) private {\r... */\ntag_7:\n    /* \"contracts/Ballot/Ballot.sol\":2077:2087  uint index */\n  0x00\n    /* \"contracts/Ballot/Ballot.sol\":2072:2282  for (uint index = 0; index < _candidates.length; index++) {\r... */\ntag_10:\n    /* \"contracts/Ballot/Ballot.sol\":2101:2112  _candidates */\n  dup2\n    /* \"contracts/Ballot/Ballot.sol\":2101:2119  _candidates.length */\n  mload\n    /* \"contracts/Ballot/Ballot.sol\":2093:2098  index */\n  dup2\n    /* \"contracts/Ballot/Ballot.sol\":2093:2119  index < _candidates.length */\n  lt\n    /* \"contracts/Ballot/Ballot.sol\":2072:2282  for (uint index = 0; index < _candidates.length; index++) {\r... */\n  iszero\n  tag_11\n  jumpi\n    /* \"contracts/Ballot/Ballot.sol\":2145:2155  candidates */\n  0x02\n    /* \"contracts/Ballot/Ballot.sol\":2161:2269  Candidate({\r... */\n  mload(0x40)\n  dup1\n  0x40\n  add\n  0x40\n  mstore\n  dup1\n    /* \"contracts/Ballot/Ballot.sol\":2203:2214  _candidates */\n  dup5\n    /* \"contracts/Ballot/Ballot.sol\":2215:2220  index */\n  dup5\n    /* \"contracts/Ballot/Ballot.sol\":2203:2221  _candidates[index] */\n  dup2\n  mload\n  dup2\n  lt\n  tag_13\n  jumpi\n  tag_14\n  tag_15\n  jump\t// in\ntag_14:\ntag_13:\n  0x20\n  mul\n  0x20\n  add\n  add\n  mload\n    /* \"contracts/Ballot/Ballot.sol\":2161:2269  Candidate({\r... */\n  dup2\n  mstore\n  0x20\n  add\n    /* \"contracts/Ballot/Ballot.sol\":2252:2253  0 */\n  0x00\n    /* \"contracts/Ballot/Ballot.sol\":2161:2269  Candidate({\r... */\n  dup2\n  mstore\n  pop\n    /* \"contracts/Ballot/Ballot.sol\":2145:2270  candidates.push(Candidate({\r... */\n  swap1\n  dup1\n  0x01\n  dup2\n  sload\n  add\n  dup1\n  dup3\n  sstore\n  dup1\n  swap2\n  pop\n  pop\n  0x01\n  swap1\n  sub\n  swap1\n  0x00\n  mstore\n  keccak256(0x00, 0x20)\n  swap1\n  0x02\n  mul\n  add\n  0x00\n  swap1\n  swap2\n  swap1\n  swap2\n  swap1\n  swap2\n  pop\n  0x00\n  dup3\n  add\n  mload\n  dup2\n  0x00\n  add\n  swap1\n  dup1\n  mload\n  swap1\n  0x20\n  add\n  swap1\n  tag_17\n  swap3\n  swap2\n  swap1\n  tag_18\n  jump\t// in\ntag_17:\n  pop\n  0x20\n  dup3\n  add\n  mload\n  dup2\n  0x01\n  add\n  sstore\n  pop\n  pop\n    /* \"contracts/Ballot/Ballot.sol\":2121:2128  index++ */\n  dup1\n  dup1\n  tag_19\n  swap1\n  tag_20\n  jump\t// in\ntag_19:\n  swap2\n  pop\n  pop\n    /* \"contracts/Ballot/Ballot.sol\":2072:2282  for (uint index = 0; index < _candidates.length; index++) {\r... */\n  jump(tag_10)\ntag_11:\n  pop\n    /* \"contracts/Ballot/Ballot.sol\":1990:2289  function setCandidatesIntoStorage(string[] memory _candidates) private {\r... */\n  pop\n  jump\t// out\n    /* \"contracts/Ballot/Ballot.sol\":70:6993  contract MyBallot {\r... */\ntag_18:\n  dup3\n  dup1\n  sload\n  tag_21\n  swap1\n  tag_22\n  jump\t// in\ntag_21:\n  swap1\n  0x00\n  mstore\n  keccak256(0x00, 0x20)\n  swap1\n  0x1f\n  add\n  0x20\n  swap1\n  div\n  dup2\n  add\n  swap3\n  dup3\n  tag_24\n  jumpi\n  0x00\n  dup6\n  sstore\n  jump(tag_23)\ntag_24:\n  dup3\n  0x1f\n  lt\n  tag_25\n  jumpi\n  dup1\n  mload\n  not(0xff)\n  and\n  dup4\n  dup1\n  add\n  or\n  dup6\n  sstore\n  jump(tag_23)\ntag_25:\n  dup3\n  dup1\n  add\n  0x01\n  add\n  dup6\n  sstore\n  dup3\n  iszero\n  tag_23\n  jumpi\n  swap2\n  dup3\n  add\ntag_26:\n  dup3\n  dup2\n  gt\n  iszero\n  tag_27\n  jumpi\n  dup3\n  mload\n  dup3\n  sstore\n  swap2\n  0x20\n  add\n  swap2\n  swap1\n  0x01\n  add\n  swap1\n  jump(tag_26)\ntag_27:\ntag_23:\n  pop\n  swap1\n  pop\n  tag_28\n  swap2\n  swap1\n  tag_29\n  jump\t// in\ntag_28:\n  pop\n  swap1\n  jump\t// out\ntag_29:\ntag_30:\n  dup1\n  dup3\n  gt\n  iszero\n  tag_31\n  jumpi\n  0x00\n  dup2\n  0x00\n  swap1\n  sstore\n  pop\n  0x01\n  add\n  jump(tag_30)\ntag_31:\n  pop\n  swap1\n  jump\t// out\n    /* \"#utility.yul\":23:995   */\ntag_33:\n    /* \"#utility.yul\":140:145   */\n  0x00\n    /* \"#utility.yul\":165:256   */\n  tag_35\n    /* \"#utility.yul\":181:255   */\n  tag_36\n    /* \"#utility.yul\":248:254   */\n  dup5\n    /* \"#utility.yul\":181:255   */\n  tag_37\n  jump\t// in\ntag_36:\n    /* \"#utility.yul\":165:256   */\n  tag_38\n  jump\t// in\ntag_35:\n    /* \"#utility.yul\":156:256   */\n  swap1\n  pop\n    /* \"#utility.yul\":276:281   */\n  dup1\n    /* \"#utility.yul\":305:311   */\n  dup4\n    /* \"#utility.yul\":298:303   */\n  dup3\n    /* \"#utility.yul\":291:312   */\n  mstore\n    /* \"#utility.yul\":339:343   */\n  0x20\n    /* \"#utility.yul\":332:337   */\n  dup3\n    /* \"#utility.yul\":328:344   */\n  add\n    /* \"#utility.yul\":321:344   */\n  swap1\n  pop\n    /* \"#utility.yul\":365:371   */\n  dup3\n    /* \"#utility.yul\":415:418   */\n  dup6\n    /* \"#utility.yul\":407:411   */\n  0x20\n    /* \"#utility.yul\":399:405   */\n  dup7\n    /* \"#utility.yul\":395:412   */\n  mul\n    /* \"#utility.yul\":390:393   */\n  dup3\n    /* \"#utility.yul\":386:413   */\n  add\n    /* \"#utility.yul\":383:419   */\n  gt\n    /* \"#utility.yul\":380:523   */\n  iszero\n  tag_39\n  jumpi\n    /* \"#utility.yul\":434:513   */\n  tag_40\n  tag_41\n  jump\t// in\ntag_40:\n    /* \"#utility.yul\":380:523   */\ntag_39:\n    /* \"#utility.yul\":547:548   */\n  0x00\n    /* \"#utility.yul\":532:989   */\ntag_42:\n    /* \"#utility.yul\":557:563   */\n  dup6\n    /* \"#utility.yul\":554:555   */\n  dup2\n    /* \"#utility.yul\":551:564   */\n  lt\n    /* \"#utility.yul\":532:989   */\n  iszero\n  tag_44\n  jumpi\n    /* \"#utility.yul\":632:635   */\n  dup2\n    /* \"#utility.yul\":626:636   */\n  mload\n    /* \"#utility.yul\":668:686   */\n  0xffffffffffffffff\n    /* \"#utility.yul\":655:666   */\n  dup2\n    /* \"#utility.yul\":652:687   */\n  gt\n    /* \"#utility.yul\":649:771   */\n  iszero\n  tag_45\n  jumpi\n    /* \"#utility.yul\":690:769   */\n  tag_46\n  tag_47\n  jump\t// in\ntag_46:\n    /* \"#utility.yul\":649:771   */\ntag_45:\n    /* \"#utility.yul\":814:825   */\n  dup1\n    /* \"#utility.yul\":806:812   */\n  dup7\n    /* \"#utility.yul\":802:826   */\n  add\n    /* \"#utility.yul\":852:910   */\n  tag_48\n    /* \"#utility.yul\":906:909   */\n  dup10\n    /* \"#utility.yul\":894:904   */\n  dup3\n    /* \"#utility.yul\":852:910   */\n  tag_49\n  jump\t// in\ntag_48:\n    /* \"#utility.yul\":847:850   */\n  dup6\n    /* \"#utility.yul\":840:911   */\n  mstore\n    /* \"#utility.yul\":940:944   */\n  0x20\n    /* \"#utility.yul\":935:938   */\n  dup6\n    /* \"#utility.yul\":931:945   */\n  add\n    /* \"#utility.yul\":924:945   */\n  swap5\n  pop\n    /* \"#utility.yul\":974:978   */\n  0x20\n    /* \"#utility.yul\":969:972   */\n  dup5\n    /* \"#utility.yul\":965:979   */\n  add\n    /* \"#utility.yul\":958:979   */\n  swap4\n  pop\n    /* \"#utility.yul\":592:989   */\n  pop\n  pop\n    /* \"#utility.yul\":579:580   */\n  0x01\n    /* \"#utility.yul\":576:577   */\n  dup2\n    /* \"#utility.yul\":572:581   */\n  add\n    /* \"#utility.yul\":567:581   */\n  swap1\n  pop\n    /* \"#utility.yul\":532:989   */\n  jump(tag_42)\ntag_44:\n    /* \"#utility.yul\":536:550   */\n  pop\n    /* \"#utility.yul\":146:995   */\n  pop\n  pop\n    /* \"#utility.yul\":23:995   */\n  swap4\n  swap3\n  pop\n  pop\n  pop\n  jump\t// out\n    /* \"#utility.yul\":1001:1422   */\ntag_50:\n    /* \"#utility.yul\":1090:1095   */\n  0x00\n    /* \"#utility.yul\":1115:1181   */\n  tag_52\n    /* \"#utility.yul\":1131:1180   */\n  tag_53\n    /* \"#utility.yul\":1173:1179   */\n  dup5\n    /* \"#utility.yul\":1131:1180   */\n  tag_54\n  jump\t// in\ntag_53:\n    /* \"#utility.yul\":1115:1181   */\n  tag_38\n  jump\t// in\ntag_52:\n    /* \"#utility.yul\":1106:1181   */\n  swap1\n  pop\n    /* \"#utility.yul\":1204:1210   */\n  dup3\n    /* \"#utility.yul\":1197:1202   */\n  dup2\n    /* \"#utility.yul\":1190:1211   */\n  mstore\n    /* \"#utility.yul\":1242:1246   */\n  0x20\n    /* \"#utility.yul\":1235:1240   */\n  dup2\n    /* \"#utility.yul\":1231:1247   */\n  add\n    /* \"#utility.yul\":1280:1283   */\n  dup5\n    /* \"#utility.yul\":1271:1277   */\n  dup5\n    /* \"#utility.yul\":1266:1269   */\n  dup5\n    /* \"#utility.yul\":1262:1278   */\n  add\n    /* \"#utility.yul\":1259:1284   */\n  gt\n    /* \"#utility.yul\":1256:1368   */\n  iszero\n  tag_55\n  jumpi\n    /* \"#utility.yul\":1287:1366   */\n  tag_56\n  tag_57\n  jump\t// in\ntag_56:\n    /* \"#utility.yul\":1256:1368   */\ntag_55:\n    /* \"#utility.yul\":1377:1416   */\n  tag_58\n    /* \"#utility.yul\":1409:1415   */\n  dup5\n    /* \"#utility.yul\":1404:1407   */\n  dup3\n    /* \"#utility.yul\":1399:1402   */\n  dup6\n    /* \"#utility.yul\":1377:1416   */\n  tag_59\n  jump\t// in\ntag_58:\n    /* \"#utility.yul\":1096:1422   */\n  pop\n    /* \"#utility.yul\":1001:1422   */\n  swap4\n  swap3\n  pop\n  pop\n  pop\n  jump\t// out\n    /* \"#utility.yul\":1444:1849   */\ntag_60:\n    /* \"#utility.yul\":1536:1541   */\n  0x00\n    /* \"#utility.yul\":1585:1588   */\n  dup3\n    /* \"#utility.yul\":1578:1582   */\n  0x1f\n    /* \"#utility.yul\":1570:1576   */\n  dup4\n    /* \"#utility.yul\":1566:1583   */\n  add\n    /* \"#utility.yul\":1562:1589   */\n  slt\n    /* \"#utility.yul\":1552:1674   */\n  tag_62\n  jumpi\n    /* \"#utility.yul\":1593:1672   */\n  tag_63\n  tag_47\n  jump\t// in\ntag_63:\n    /* \"#utility.yul\":1552:1674   */\ntag_62:\n    /* \"#utility.yul\":1703:1709   */\n  dup2\n    /* \"#utility.yul\":1697:1710   */\n  mload\n    /* \"#utility.yul\":1728:1843   */\n  tag_64\n    /* \"#utility.yul\":1839:1842   */\n  dup5\n    /* \"#utility.yul\":1831:1837   */\n  dup3\n    /* \"#utility.yul\":1824:1828   */\n  0x20\n    /* \"#utility.yul\":1816:1822   */\n  dup7\n    /* \"#utility.yul\":1812:1829   */\n  add\n    /* \"#utility.yul\":1728:1843   */\n  tag_33\n  jump\t// in\ntag_64:\n    /* \"#utility.yul\":1719:1843   */\n  swap2\n  pop\n    /* \"#utility.yul\":1542:1849   */\n  pop\n    /* \"#utility.yul\":1444:1849   */\n  swap3\n  swap2\n  pop\n  pop\n  jump\t// out\n    /* \"#utility.yul\":1869:2224   */\ntag_49:\n    /* \"#utility.yul\":1936:1941   */\n  0x00\n    /* \"#utility.yul\":1985:1988   */\n  dup3\n    /* \"#utility.yul\":1978:1982   */\n  0x1f\n    /* \"#utility.yul\":1970:1976   */\n  dup4\n    /* \"#utility.yul\":1966:1983   */\n  add\n    /* \"#utility.yul\":1962:1989   */\n  slt\n    /* \"#utility.yul\":1952:2074   */\n  tag_66\n  jumpi\n    /* \"#utility.yul\":1993:2072   */\n  tag_67\n  tag_47\n  jump\t// in\ntag_67:\n    /* \"#utility.yul\":1952:2074   */\ntag_66:\n    /* \"#utility.yul\":2103:2109   */\n  dup2\n    /* \"#utility.yul\":2097:2110   */\n  mload\n    /* \"#utility.yul\":2128:2218   */\n  tag_68\n    /* \"#utility.yul\":2214:2217   */\n  dup5\n    /* \"#utility.yul\":2206:2212   */\n  dup3\n    /* \"#utility.yul\":2199:2203   */\n  0x20\n    /* \"#utility.yul\":2191:2197   */\n  dup7\n    /* \"#utility.yul\":2187:2204   */\n  add\n    /* \"#utility.yul\":2128:2218   */\n  tag_50\n  jump\t// in\ntag_68:\n    /* \"#utility.yul\":2119:2218   */\n  swap2\n  pop\n    /* \"#utility.yul\":1942:2224   */\n  pop\n    /* \"#utility.yul\":1869:2224   */\n  swap3\n  swap2\n  pop\n  pop\n  jump\t// out\n    /* \"#utility.yul\":2230:2373   */\ntag_69:\n    /* \"#utility.yul\":2287:2292   */\n  0x00\n    /* \"#utility.yul\":2318:2324   */\n  dup2\n    /* \"#utility.yul\":2312:2325   */\n  mload\n    /* \"#utility.yul\":2303:2325   */\n  swap1\n  pop\n    /* \"#utility.yul\":2334:2367   */\n  tag_71\n    /* \"#utility.yul\":2361:2366   */\n  dup2\n    /* \"#utility.yul\":2334:2367   */\n  tag_72\n  jump\t// in\ntag_71:\n    /* \"#utility.yul\":2230:2373   */\n  swap3\n  swap2\n  pop\n  pop\n  jump\t// out\n    /* \"#utility.yul\":2379:3109   */\ntag_3:\n    /* \"#utility.yul\":2493:2499   */\n  0x00\n    /* \"#utility.yul\":2501:2507   */\n  dup1\n    /* \"#utility.yul\":2550:2552   */\n  0x40\n    /* \"#utility.yul\":2538:2547   */\n  dup4\n    /* \"#utility.yul\":2529:2536   */\n  dup6\n    /* \"#utility.yul\":2525:2548   */\n  sub\n    /* \"#utility.yul\":2521:2553   */\n  slt\n    /* \"#utility.yul\":2518:2637   */\n  iszero\n  tag_74\n  jumpi\n    /* \"#utility.yul\":2556:2635   */\n  tag_75\n  tag_76\n  jump\t// in\ntag_75:\n    /* \"#utility.yul\":2518:2637   */\ntag_74:\n    /* \"#utility.yul\":2697:2698   */\n  0x00\n    /* \"#utility.yul\":2686:2695   */\n  dup4\n    /* \"#utility.yul\":2682:2699   */\n  add\n    /* \"#utility.yul\":2676:2700   */\n  mload\n    /* \"#utility.yul\":2727:2745   */\n  0xffffffffffffffff\n    /* \"#utility.yul\":2719:2725   */\n  dup2\n    /* \"#utility.yul\":2716:2746   */\n  gt\n    /* \"#utility.yul\":2713:2830   */\n  iszero\n  tag_77\n  jumpi\n    /* \"#utility.yul\":2749:2828   */\n  tag_78\n  tag_79\n  jump\t// in\ntag_78:\n    /* \"#utility.yul\":2713:2830   */\ntag_77:\n    /* \"#utility.yul\":2854:2953   */\n  tag_80\n    /* \"#utility.yul\":2945:2952   */\n  dup6\n    /* \"#utility.yul\":2936:2942   */\n  dup3\n    /* \"#utility.yul\":2925:2934   */\n  dup7\n    /* \"#utility.yul\":2921:2943   */\n  add\n    /* \"#utility.yul\":2854:2953   */\n  tag_60\n  jump\t// in\ntag_80:\n    /* \"#utility.yul\":2844:2953   */\n  swap3\n  pop\n    /* \"#utility.yul\":2647:2963   */\n  pop\n    /* \"#utility.yul\":3002:3004   */\n  0x20\n    /* \"#utility.yul\":3028:3092   */\n  tag_81\n    /* \"#utility.yul\":3084:3091   */\n  dup6\n    /* \"#utility.yul\":3075:3081   */\n  dup3\n    /* \"#utility.yul\":3064:3073   */\n  dup7\n    /* \"#utility.yul\":3060:3082   */\n  add\n    /* \"#utility.yul\":3028:3092   */\n  tag_69\n  jump\t// in\ntag_81:\n    /* \"#utility.yul\":3018:3092   */\n  swap2\n  pop\n    /* \"#utility.yul\":2973:3102   */\n  pop\n    /* \"#utility.yul\":2379:3109   */\n  swap3\n  pop\n  swap3\n  swap1\n  pop\n  jump\t// out\n    /* \"#utility.yul\":3115:3244   */\ntag_38:\n    /* \"#utility.yul\":3149:3155   */\n  0x00\n    /* \"#utility.yul\":3176:3196   */\n  tag_83\n  tag_84\n  jump\t// in\ntag_83:\n    /* \"#utility.yul\":3166:3196   */\n  swap1\n  pop\n    /* \"#utility.yul\":3205:3238   */\n  tag_85\n    /* \"#utility.yul\":3233:3237   */\n  dup3\n    /* \"#utility.yul\":3225:3231   */\n  dup3\n    /* \"#utility.yul\":3205:3238   */\n  tag_86\n  jump\t// in\ntag_85:\n    /* \"#utility.yul\":3115:3244   */\n  swap2\n  swap1\n  pop\n  jump\t// out\n    /* \"#utility.yul\":3250:3325   */\ntag_84:\n    /* \"#utility.yul\":3283:3289   */\n  0x00\n    /* \"#utility.yul\":3316:3318   */\n  0x40\n    /* \"#utility.yul\":3310:3319   */\n  mload\n    /* \"#utility.yul\":3300:3319   */\n  swap1\n  pop\n    /* \"#utility.yul\":3250:3325   */\n  swap1\n  jump\t// out\n    /* \"#utility.yul\":3331:3652   */\ntag_37:\n    /* \"#utility.yul\":3418:3422   */\n  0x00\n    /* \"#utility.yul\":3508:3526   */\n  0xffffffffffffffff\n    /* \"#utility.yul\":3500:3506   */\n  dup3\n    /* \"#utility.yul\":3497:3527   */\n  gt\n    /* \"#utility.yul\":3494:3550   */\n  iszero\n  tag_89\n  jumpi\n    /* \"#utility.yul\":3530:3548   */\n  tag_90\n  tag_91\n  jump\t// in\ntag_90:\n    /* \"#utility.yul\":3494:3550   */\ntag_89:\n    /* \"#utility.yul\":3580:3584   */\n  0x20\n    /* \"#utility.yul\":3572:3578   */\n  dup3\n    /* \"#utility.yul\":3568:3585   */\n  mul\n    /* \"#utility.yul\":3560:3585   */\n  swap1\n  pop\n    /* \"#utility.yul\":3640:3644   */\n  0x20\n    /* \"#utility.yul\":3634:3638   */\n  dup2\n    /* \"#utility.yul\":3630:3645   */\n  add\n    /* \"#utility.yul\":3622:3645   */\n  swap1\n  pop\n    /* \"#utility.yul\":3331:3652   */\n  swap2\n  swap1\n  pop\n  jump\t// out\n    /* \"#utility.yul\":3658:3966   */\ntag_54:\n    /* \"#utility.yul\":3720:3724   */\n  0x00\n    /* \"#utility.yul\":3810:3828   */\n  0xffffffffffffffff\n    /* \"#utility.yul\":3802:3808   */\n  dup3\n    /* \"#utility.yul\":3799:3829   */\n  gt\n    /* \"#utility.yul\":3796:3852   */\n  iszero\n  tag_93\n  jumpi\n    /* \"#utility.yul\":3832:3850   */\n  tag_94\n  tag_91\n  jump\t// in\ntag_94:\n    /* \"#utility.yul\":3796:3852   */\ntag_93:\n    /* \"#utility.yul\":3870:3899   */\n  tag_95\n    /* \"#utility.yul\":3892:3898   */\n  dup3\n    /* \"#utility.yul\":3870:3899   */\n  tag_96\n  jump\t// in\ntag_95:\n    /* \"#utility.yul\":3862:3899   */\n  swap1\n  pop\n    /* \"#utility.yul\":3954:3958   */\n  0x20\n    /* \"#utility.yul\":3948:3952   */\n  dup2\n    /* \"#utility.yul\":3944:3959   */\n  add\n    /* \"#utility.yul\":3936:3959   */\n  swap1\n  pop\n    /* \"#utility.yul\":3658:3966   */\n  swap2\n  swap1\n  pop\n  jump\t// out\n    /* \"#utility.yul\":3972:4049   */\ntag_97:\n    /* \"#utility.yul\":4009:4016   */\n  0x00\n    /* \"#utility.yul\":4038:4043   */\n  dup2\n    /* \"#utility.yul\":4027:4043   */\n  swap1\n  pop\n    /* \"#utility.yul\":3972:4049   */\n  swap2\n  swap1\n  pop\n  jump\t// out\n    /* \"#utility.yul\":4055:4362   */\ntag_59:\n    /* \"#utility.yul\":4123:4124   */\n  0x00\n    /* \"#utility.yul\":4133:4246   */\ntag_100:\n    /* \"#utility.yul\":4147:4153   */\n  dup4\n    /* \"#utility.yul\":4144:4145   */\n  dup2\n    /* \"#utility.yul\":4141:4154   */\n  lt\n    /* \"#utility.yul\":4133:4246   */\n  iszero\n  tag_102\n  jumpi\n    /* \"#utility.yul\":4232:4233   */\n  dup1\n    /* \"#utility.yul\":4227:4230   */\n  dup3\n    /* \"#utility.yul\":4223:4234   */\n  add\n    /* \"#utility.yul\":4217:4235   */\n  mload\n    /* \"#utility.yul\":4213:4214   */\n  dup2\n    /* \"#utility.yul\":4208:4211   */\n  dup5\n    /* \"#utility.yul\":4204:4215   */\n  add\n    /* \"#utility.yul\":4197:4236   */\n  mstore\n    /* \"#utility.yul\":4169:4171   */\n  0x20\n    /* \"#utility.yul\":4166:4167   */\n  dup2\n    /* \"#utility.yul\":4162:4172   */\n  add\n    /* \"#utility.yul\":4157:4172   */\n  swap1\n  pop\n    /* \"#utility.yul\":4133:4246   */\n  jump(tag_100)\ntag_102:\n    /* \"#utility.yul\":4264:4270   */\n  dup4\n    /* \"#utility.yul\":4261:4262   */\n  dup2\n    /* \"#utility.yul\":4258:4271   */\n  gt\n    /* \"#utility.yul\":4255:4356   */\n  iszero\n  tag_103\n  jumpi\n    /* \"#utility.yul\":4344:4345   */\n  0x00\n    /* \"#utility.yul\":4335:4341   */\n  dup5\n    /* \"#utility.yul\":4330:4333   */\n  dup5\n    /* \"#utility.yul\":4326:4342   */\n  add\n    /* \"#utility.yul\":4319:4346   */\n  mstore\n    /* \"#utility.yul\":4255:4356   */\ntag_103:\n    /* \"#utility.yul\":4104:4362   */\n  pop\n    /* \"#utility.yul\":4055:4362   */\n  pop\n  pop\n  pop\n  jump\t// out\n    /* \"#utility.yul\":4368:4688   */\ntag_22:\n    /* \"#utility.yul\":4412:4418   */\n  0x00\n    /* \"#utility.yul\":4449:4450   */\n  0x02\n    /* \"#utility.yul\":4443:4447   */\n  dup3\n    /* \"#utility.yul\":4439:4451   */\n  div\n    /* \"#utility.yul\":4429:4451   */\n  swap1\n  pop\n    /* \"#utility.yul\":4496:4497   */\n  0x01\n    /* \"#utility.yul\":4490:4494   */\n  dup3\n    /* \"#utility.yul\":4486:4498   */\n  and\n    /* \"#utility.yul\":4517:4535   */\n  dup1\n    /* \"#utility.yul\":4507:4588   */\n  tag_105\n  jumpi\n    /* \"#utility.yul\":4573:4577   */\n  0x7f\n    /* \"#utility.yul\":4565:4571   */\n  dup3\n    /* \"#utility.yul\":4561:4578   */\n  and\n    /* \"#utility.yul\":4551:4578   */\n  swap2\n  pop\n    /* \"#utility.yul\":4507:4588   */\ntag_105:\n    /* \"#utility.yul\":4635:4637   */\n  0x20\n    /* \"#utility.yul\":4627:4633   */\n  dup3\n    /* \"#utility.yul\":4624:4638   */\n  lt\n    /* \"#utility.yul\":4604:4622   */\n  dup2\n    /* \"#utility.yul\":4601:4639   */\n  eq\n    /* \"#utility.yul\":4598:4682   */\n  iszero\n  tag_106\n  jumpi\n    /* \"#utility.yul\":4654:4672   */\n  tag_107\n  tag_108\n  jump\t// in\ntag_107:\n    /* \"#utility.yul\":4598:4682   */\ntag_106:\n    /* \"#utility.yul\":4419:4688   */\n  pop\n    /* \"#utility.yul\":4368:4688   */\n  swap2\n  swap1\n  pop\n  jump\t// out\n    /* \"#utility.yul\":4694:4975   */\ntag_86:\n    /* \"#utility.yul\":4777:4804   */\n  tag_110\n    /* \"#utility.yul\":4799:4803   */\n  dup3\n    /* \"#utility.yul\":4777:4804   */\n  tag_96\n  jump\t// in\ntag_110:\n    /* \"#utility.yul\":4769:4775   */\n  dup2\n    /* \"#utility.yul\":4765:4805   */\n  add\n    /* \"#utility.yul\":4907:4913   */\n  dup2\n    /* \"#utility.yul\":4895:4905   */\n  dup2\n    /* \"#utility.yul\":4892:4914   */\n  lt\n    /* \"#utility.yul\":4871:4889   */\n  0xffffffffffffffff\n    /* \"#utility.yul\":4859:4869   */\n  dup3\n    /* \"#utility.yul\":4856:4890   */\n  gt\n    /* \"#utility.yul\":4853:4915   */\n  or\n    /* \"#utility.yul\":4850:4938   */\n  iszero\n  tag_111\n  jumpi\n    /* \"#utility.yul\":4918:4936   */\n  tag_112\n  tag_91\n  jump\t// in\ntag_112:\n    /* \"#utility.yul\":4850:4938   */\ntag_111:\n    /* \"#utility.yul\":4958:4968   */\n  dup1\n    /* \"#utility.yul\":4954:4956   */\n  0x40\n    /* \"#utility.yul\":4947:4969   */\n  mstore\n    /* \"#utility.yul\":4737:4975   */\n  pop\n    /* \"#utility.yul\":4694:4975   */\n  pop\n  pop\n  jump\t// out\n    /* \"#utility.yul\":4981:5214   */\ntag_20:\n    /* \"#utility.yul\":5020:5023   */\n  0x00\n    /* \"#utility.yul\":5043:5067   */\n  tag_114\n    /* \"#utility.yul\":5061:5066   */\n  dup3\n    /* \"#utility.yul\":5043:5067   */\n  tag_97\n  jump\t// in\ntag_114:\n    /* \"#utility.yul\":5034:5067   */\n  swap2\n  pop\n    /* \"#utility.yul\":5089:5155   */\n  0xffffffffffffffffffffffffffffffffffffffffffffffffffffffffffffffff\n    /* \"#utility.yul\":5082:5087   */\n  dup3\n    /* \"#utility.yul\":5079:5156   */\n  eq\n    /* \"#utility.yul\":5076:5179   */\n  iszero\n  tag_115\n  jumpi\n    /* \"#utility.yul\":5159:5177   */\n  tag_116\n  tag_117\n  jump\t// in\ntag_116:\n    /* \"#utility.yul\":5076:5179   */\ntag_115:\n    /* \"#utility.yul\":5206:5207   */\n  0x01\n    /* \"#utility.yul\":5199:5204   */\n  dup3\n    /* \"#utility.yul\":5195:5208   */\n  add\n    /* \"#utility.yul\":5188:5208   */\n  swap1\n  pop\n    /* \"#utility.yul\":4981:5214   */\n  swap2\n  swap1\n  pop\n  jump\t// out\n    /* \"#utility.yul\":5220:5400   */\ntag_117:\n    /* \"#utility.yul\":5268:5345   */\n  0x4e487b7100000000000000000000000000000000000000000000000000000000\n    /* \"#utility.yul\":5265:5266   */\n  0x00\n    /* \"#utility.yul\":5258:5346   */\n  mstore\n    /* \"#utility.yul\":5365:5369   */\n  0x11\n    /* \"#utility.yul\":5362:5363   */\n  0x04\n    /* \"#utility.yul\":5355:5370   */\n  mstore\n    /* \"#utility.yul\":5389:5393   */\n  0x24\n    /* \"#utility.yul\":5386:5387   */\n  0x00\n    /* \"#utility.yul\":5379:5394   */\n  revert\n    /* \"#utility.yul\":5406:5586   */\ntag_108:\n    /* \"#utility.yul\":5454:5531   */\n  0x4e487b7100000000000000000000000000000000000000000000000000000000\n    /* \"#utility.yul\":5451:5452   */\n  0x00\n    /* \"#utility.yul\":5444:5532   */\n  mstore\n    /* \"#utility.yul\":5551:5555   */\n  0x22\n    /* \"#utility.yul\":5548:5549   */\n  0x04\n    /* \"#utility.yul\":5541:5556   */\n  mstore\n    /* \"#utility.yul\":5575:5579   */\n  0x24\n    /* \"#utility.yul\":5572:5573   */\n  0x00\n    /* \"#utility.yul\":5565:5580   */\n  revert\n    /* \"#utility.yul\":5592:5772   */\ntag_15:\n    /* \"#utility.yul\":5640:5717   */\n  0x4e487b7100000000000000000000000000000000000000000000000000000000\n    /* \"#utility.yul\":5637:5638   */\n  0x00\n    /* \"#utility.yul\":5630:5718   */\n  mstore\n    /* \"#utility.yul\":5737:5741   */\n  0x32\n    /* \"#utility.yul\":5734:5735   */\n  0x04\n    /* \"#utility.yul\":5727:5742   */\n  mstore\n    /* \"#utility.yul\":5761:5765   */\n  0x24\n    /* \"#utility.yul\":5758:5759   */\n  0x00\n    /* \"#utility.yul\":5751:5766   */\n  revert\n    /* \"#utility.yul\":5778:5958   */\ntag_91:\n    /* \"#utility.yul\":5826:5903   */\n  0x4e487b7100000000000000000000000000000000000000000000000000000000\n    /* \"#utility.yul\":5823:5824   */\n  0x00\n    /* \"#utility.yul\":5816:5904   */\n  mstore\n    /* \"#utility.yul\":5923:5927   */\n  0x41\n    /* \"#utility.yul\":5920:5921   */\n  0x04\n    /* \"#utility.yul\":5913:5928   */\n  mstore\n    /* \"#utility.yul\":5947:5951   */\n  0x24\n    /* \"#utility.yul\":5944:5945   */\n  0x00\n    /* \"#utility.yul\":5937:5952   */\n  revert\n    /* \"#utility.yul\":5964:6081   */\ntag_47:\n    /* \"#utility.yul\":6073:6074   */\n  0x00\n    /* \"#utility.yul\":6070:6071   */\n  dup1\n    /* \"#utility.yul\":6063:6075   */\n  revert\n    /* \"#utility.yul\":6087:6204   */\ntag_41:\n    /* \"#utility.yul\":6196:6197   */\n  0x00\n    /* \"#utility.yul\":6193:6194   */\n  dup1\n    /* \"#utility.yul\":6186:6198   */\n  revert\n    /* \"#utility.yul\":6210:6327   */\ntag_57:\n    /* \"#utility.yul\":6319:6320   */\n  0x00\n    /* \"#utility.yul\":6316:6317   */\n  dup1\n    /* \"#utility.yul\":6309:6321   */\n  revert\n    /* \"#utility.yul\":6333:6450   */\ntag_79:\n    /* \"#utility.yul\":6442:6443   */\n  0x00\n    /* \"#utility.yul\":6439:6440   */\n  dup1\n    /* \"#utility.yul\":6432:6444   */\n  revert\n    /* \"#utility.yul\":6456:6573   */\ntag_76:\n    /* \"#utility.yul\":6565:6566   */\n  0x00\n    /* \"#utility.yul\":6562:6563   */\n  dup1\n    /* \"#utility.yul\":6555:6567   */\n  revert\n    /* \"#utility.yul\":6579:6681   */\ntag_96:\n    /* \"#utility.yul\":6620:6626   */\n  0x00\n    /* \"#utility.yul\":6671:6673   */\n  0x1f\n    /* \"#utility.yul\":6667:6674   */\n  not\n    /* \"#utility.yul\":6662:6664   */\n  0x1f\n    /* \"#utility.yul\":6655:6660   */\n  dup4\n    /* \"#utility.yul\":6651:6665   */\n  add\n    /* \"#utility.yul\":6647:6675   */\n  and\n    /* \"#utility.yul\":6637:6675   */\n  swap1\n  pop\n    /* \"#utility.yul\":6579:6681   */\n  swap2\n  swap1\n  pop\n  jump\t// out\n    /* \"#utility.yul\":6687:6809   */\ntag_72:\n    /* \"#utility.yul\":6760:6784   */\n  tag_129\n    /* \"#utility.yul\":6778:6783   */\n  dup2\n    /* \"#utility.yul\":6760:6784   */\n  tag_97\n  jump\t// in\ntag_129:\n    /* \"#utility.yul\":6753:6758   */\n  dup2\n    /* \"#utility.yul\":6750:6785   */\n  eq\n    /* \"#utility.yul\":6740:6803   */\n  tag_130\n  jumpi\n    /* \"#utility.yul\":6799:6800   */\n  0x00\n    /* \"#utility.yul\":6796:6797   */\n  dup1\n    /* \"#utility.yul\":6789:6801   */\n  revert\n    /* \"#utility.yul\":6740:6803   */\ntag_130:\n    /* \"#utility.yul\":6687:6809   */\n  pop\n  jump\t// out\n    /* \"contracts/Ballot/Ballot.sol\":70:6993  contract MyBallot {\r... */\ntag_8:\n  dataSize(sub_0)\n  dup1\n  dataOffset(sub_0)\n  0x00\n  codecopy\n  0x00\n  return\nstop\n\nsub_0: assembly {\n        /* \"contracts/Ballot/Ballot.sol\":70:6993  contract MyBallot {\r... */\n      mstore(0x40, 0x80)\n      callvalue\n      dup1\n      iszero\n      tag_1\n      jumpi\n      0x00\n      dup1\n      revert\n    tag_1:\n      pop\n      jumpi(tag_2, lt(calldatasize, 0x04))\n      shr(0xe0, calldataload(0x00))\n      dup1\n      0x7a36b3ee\n      gt\n      tag_11\n      jumpi\n      dup1\n      0x7a36b3ee\n      eq\n      tag_7\n      jumpi\n      dup1\n      0xa3ec138d\n      eq\n      tag_8\n      jumpi\n      dup1\n      0xf927cc29\n      eq\n      tag_9\n      jumpi\n      dup1\n      0xfc36e15b\n      eq\n      tag_10\n      jumpi\n      jump(tag_2)\n    tag_11:\n      dup1\n      0x011d1023\n      eq\n      tag_3\n      jumpi\n      dup1\n      0x2bfda515\n      eq\n      tag_4\n      jumpi\n      dup1\n      0x3477ee2e\n      eq\n      tag_5\n      jumpi\n      dup1\n      0x68957b20\n      eq\n      tag_6\n      jumpi\n    tag_2:\n      0x00\n      dup1\n      revert\n        /* \"contracts/Ballot/Ballot.sol\":5310:5717  function getCandidatesListName() public view returns (string[] memory) {\r... */\n    tag_3:\n      tag_12\n      tag_13\n      jump\t// in\n    tag_12:\n      mload(0x40)\n      tag_14\n      swap2\n      swap1\n      tag_15\n      jump\t// in\n    tag_14:\n      mload(0x40)\n      dup1\n      swap2\n      sub\n      swap1\n      return\n        /* \"contracts/Ballot/Ballot.sol\":3079:3597  function getWinnerName() public view returns (string memory winnerName, address) {\r... */\n    tag_4:\n      tag_16\n      tag_17\n      jump\t// in\n    tag_16:\n      mload(0x40)\n      tag_18\n      swap3\n      swap2\n      swap1\n      tag_19\n      jump\t// in\n    tag_18:\n      mload(0x40)\n      dup1\n      swap2\n      sub\n      swap1\n      return\n        /* \"contracts/Ballot/Ballot.sol\":402:431  Candidate[] public candidates */\n    tag_5:\n      tag_20\n      0x04\n      dup1\n      calldatasize\n      sub\n      dup2\n      add\n      swap1\n      tag_21\n      swap2\n      swap1\n      tag_22\n      jump\t// in\n    tag_21:\n      tag_23\n      jump\t// in\n    tag_20:\n      mload(0x40)\n      tag_24\n      swap3\n      swap2\n      swap1\n      tag_25\n      jump\t// in\n    tag_24:\n      mload(0x40)\n      dup1\n      swap2\n      sub\n      swap1\n      return\n        /* \"contracts/Ballot/Ballot.sol\":2301:2527  function giveRightToVote(address voterAddress, string memory _nameVoter) public giveRightToVoteModifier(voterAddress) {\r... */\n    tag_6:\n      tag_26\n      0x04\n      dup1\n      calldatasize\n      sub\n      dup2\n      add\n      swap1\n      tag_27\n      swap2\n      swap1\n      tag_28\n      jump\t// in\n    tag_27:\n      tag_29\n      jump\t// in\n    tag_26:\n      stop\n        /* \"contracts/Ballot/Ballot.sol\":6826:6990  function concatenateStrings(string memory s1, string memory s2) public pure returns (string memory) {\r... */\n    tag_7:\n      tag_30\n      0x04\n      dup1\n      calldatasize\n      sub\n      dup2\n      add\n      swap1\n      tag_31\n      swap2\n      swap1\n      tag_32\n      jump\t// in\n    tag_31:\n      tag_33\n      jump\t// in\n    tag_30:\n      mload(0x40)\n      tag_34\n      swap2\n      swap1\n      tag_35\n      jump\t// in\n    tag_34:\n      mload(0x40)\n      dup1\n      swap2\n      sub\n      swap1\n      return\n        /* \"contracts/Ballot/Ballot.sol\":354:393  mapping(address => Voter) public voters */\n    tag_8:\n      tag_36\n      0x04\n      dup1\n      calldatasize\n      sub\n      dup2\n      add\n      swap1\n      tag_37\n      swap2\n      swap1\n      tag_38\n      jump\t// in\n    tag_37:\n      tag_39\n      jump\t// in\n    tag_36:\n      mload(0x40)\n      tag_40\n      swap4\n      swap3\n      swap2\n      swap1\n      tag_41\n      jump\t// in\n    tag_40:\n      mload(0x40)\n      dup1\n      swap2\n      sub\n      swap1\n      return\n        /* \"contracts/Ballot/Ballot.sol\":3605:5302  function getWinningCandidate() public view returns (uint winningProposal, bool, string memory) {        \r... */\n    tag_9:\n      tag_42\n      tag_43\n      jump\t// in\n    tag_42:\n      mload(0x40)\n      tag_44\n      swap4\n      swap3\n      swap2\n      swap1\n      tag_45\n      jump\t// in\n    tag_44:\n      mload(0x40)\n      dup1\n      swap2\n      sub\n      swap1\n      return\n        /* \"contracts/Ballot/Ballot.sol\":2535:3071  function vote(string memory _nameProject) public voteModifier(msg.sender) {\r... */\n    tag_10:\n      tag_46\n      0x04\n      dup1\n      calldatasize\n      sub\n      dup2\n      add\n      swap1\n      tag_47\n      swap2\n      swap1\n      tag_48\n      jump\t// in\n    tag_47:\n      tag_49\n      jump\t// in\n    tag_46:\n      stop\n        /* \"contracts/Ballot/Ballot.sol\":5310:5717  function getCandidatesListName() public view returns (string[] memory) {\r... */\n    tag_13:\n        /* \"contracts/Ballot/Ballot.sol\":5364:5379  string[] memory */\n      0x60\n        /* \"contracts/Ballot/Ballot.sol\":5392:5413  uint candidatesLength */\n      0x00\n        /* \"contracts/Ballot/Ballot.sol\":5416:5426  candidates */\n      0x02\n        /* \"contracts/Ballot/Ballot.sol\":5416:5433  candidates.length */\n      dup1\n      sload\n      swap1\n      pop\n        /* \"contracts/Ballot/Ballot.sol\":5392:5433  uint candidatesLength = candidates.length */\n      swap1\n      pop\n        /* \"contracts/Ballot/Ballot.sol\":5444:5478  string[] memory candidatesListName */\n      0x00\n        /* \"contracts/Ballot/Ballot.sol\":5494:5510  candidatesLength */\n      dup2\n        /* \"contracts/Ballot/Ballot.sol\":5481:5511  new string[](candidatesLength) */\n      0xffffffffffffffff\n      dup2\n      gt\n      iszero\n      tag_51\n      jumpi\n      tag_52\n      tag_53\n      jump\t// in\n    tag_52:\n    tag_51:\n      mload(0x40)\n      swap1\n      dup1\n      dup3\n      mstore\n      dup1\n      0x20\n      mul\n      0x20\n      add\n      dup3\n      add\n      0x40\n      mstore\n      dup1\n      iszero\n      tag_54\n      jumpi\n      dup2\n      0x20\n      add\n    tag_55:\n      0x60\n      dup2\n      mstore\n      0x20\n      add\n      swap1\n      0x01\n      swap1\n      sub\n      swap1\n      dup2\n      tag_55\n      jumpi\n      swap1\n      pop\n    tag_54:\n      pop\n        /* \"contracts/Ballot/Ballot.sol\":5444:5511  string[] memory candidatesListName = new string[](candidatesLength) */\n      swap1\n      pop\n        /* \"contracts/Ballot/Ballot.sol\":5537:5547  uint index */\n      0x00\n        /* \"contracts/Ballot/Ballot.sol\":5532:5672  for (uint index = 0; index < candidatesLength; index++) {\r... */\n    tag_56:\n        /* \"contracts/Ballot/Ballot.sol\":5561:5577  candidatesLength */\n      dup3\n        /* \"contracts/Ballot/Ballot.sol\":5553:5558  index */\n      dup2\n        /* \"contracts/Ballot/Ballot.sol\":5553:5577  index < candidatesLength */\n      lt\n        /* \"contracts/Ballot/Ballot.sol\":5532:5672  for (uint index = 0; index < candidatesLength; index++) {\r... */\n      iszero\n      tag_57\n      jumpi\n        /* \"contracts/Ballot/Ballot.sol\":5631:5641  candidates */\n      0x02\n        /* \"contracts/Ballot/Ballot.sol\":5642:5647  index */\n      dup2\n        /* \"contracts/Ballot/Ballot.sol\":5631:5648  candidates[index] */\n      dup2\n      sload\n      dup2\n      lt\n      tag_59\n      jumpi\n      tag_60\n      tag_61\n      jump\t// in\n    tag_60:\n    tag_59:\n      swap1\n      0x00\n      mstore\n      keccak256(0x00, 0x20)\n      swap1\n      0x02\n      mul\n      add\n        /* \"contracts/Ballot/Ballot.sol\":5631:5660  candidates[index].nameProject */\n      0x00\n      add\n        /* \"contracts/Ballot/Ballot.sol\":5603:5660  candidatesListName[index] = candidates[index].nameProject */\n      dup1\n      sload\n      tag_63\n      swap1\n      tag_64\n      jump\t// in\n    tag_63:\n      dup1\n      0x1f\n      add\n      0x20\n      dup1\n      swap2\n      div\n      mul\n      0x20\n      add\n      mload(0x40)\n      swap1\n      dup2\n      add\n      0x40\n      mstore\n      dup1\n      swap3\n      swap2\n      swap1\n      dup2\n      dup2\n      mstore\n      0x20\n      add\n      dup3\n      dup1\n      sload\n      tag_65\n      swap1\n      tag_64\n      jump\t// in\n    tag_65:\n      dup1\n      iszero\n      tag_66\n      jumpi\n      dup1\n      0x1f\n      lt\n      tag_67\n      jumpi\n      0x0100\n      dup1\n      dup4\n      sload\n      div\n      mul\n      dup4\n      mstore\n      swap2\n      0x20\n      add\n      swap2\n      jump(tag_66)\n    tag_67:\n      dup3\n      add\n      swap2\n      swap1\n      0x00\n      mstore\n      keccak256(0x00, 0x20)\n      swap1\n    tag_68:\n      dup2\n      sload\n      dup2\n      mstore\n      swap1\n      0x01\n      add\n      swap1\n      0x20\n      add\n      dup1\n      dup4\n      gt\n      tag_68\n      jumpi\n      dup3\n      swap1\n      sub\n      0x1f\n      and\n      dup3\n      add\n      swap2\n    tag_66:\n      pop\n      pop\n      pop\n      pop\n      pop\n        /* \"contracts/Ballot/Ballot.sol\":5603:5621  candidatesListName */\n      dup3\n        /* \"contracts/Ballot/Ballot.sol\":5622:5627  index */\n      dup3\n        /* \"contracts/Ballot/Ballot.sol\":5603:5628  candidatesListName[index] */\n      dup2\n      mload\n      dup2\n      lt\n      tag_69\n      jumpi\n      tag_70\n      tag_61\n      jump\t// in\n    tag_70:\n    tag_69:\n      0x20\n      mul\n      0x20\n      add\n      add\n        /* \"contracts/Ballot/Ballot.sol\":5603:5660  candidatesListName[index] = candidates[index].nameProject */\n      dup2\n      swap1\n      mstore\n      pop\n        /* \"contracts/Ballot/Ballot.sol\":5579:5586  index++ */\n      dup1\n      dup1\n      tag_71\n      swap1\n      tag_72\n      jump\t// in\n    tag_71:\n      swap2\n      pop\n      pop\n        /* \"contracts/Ballot/Ballot.sol\":5532:5672  for (uint index = 0; index < candidatesLength; index++) {\r... */\n      jump(tag_56)\n    tag_57:\n      pop\n        /* \"contracts/Ballot/Ballot.sol\":5691:5709  candidatesListName */\n      dup1\n        /* \"contracts/Ballot/Ballot.sol\":5684:5709  return candidatesListName */\n      swap3\n      pop\n      pop\n      pop\n        /* \"contracts/Ballot/Ballot.sol\":5310:5717  function getCandidatesListName() public view returns (string[] memory) {\r... */\n      swap1\n      jump\t// out\n        /* \"contracts/Ballot/Ballot.sol\":3079:3597  function getWinnerName() public view returns (string memory winnerName, address) {\r... */\n    tag_17:\n        /* \"contracts/Ballot/Ballot.sol\":3125:3149  string memory winnerName */\n      0x60\n        /* \"contracts/Ballot/Ballot.sol\":3151:3158  address */\n      0x00\n        /* \"contracts/Ballot/Ballot.sol\":3172:3192  uint winningProposal */\n      dup1\n        /* \"contracts/Ballot/Ballot.sol\":3194:3204  bool isTie */\n      0x00\n        /* \"contracts/Ballot/Ballot.sol\":3206:3223  string memory str */\n      dup1\n        /* \"contracts/Ballot/Ballot.sol\":3227:3248  getWinningCandidate() */\n      tag_74\n        /* \"contracts/Ballot/Ballot.sol\":3227:3246  getWinningCandidate */\n      tag_43\n        /* \"contracts/Ballot/Ballot.sol\":3227:3248  getWinningCandidate() */\n      jump\t// in\n    tag_74:\n        /* \"contracts/Ballot/Ballot.sol\":3171:3248  (uint winningProposal, bool isTie, string memory str) = getWinningCandidate() */\n      swap3\n      pop\n      swap3\n      pop\n      swap3\n      pop\n        /* \"contracts/Ballot/Ballot.sol\":3259:3283  string memory tieMessage */\n      0x00\n        /* \"contracts/Ballot/Ballot.sol\":3286:3389  concatenateStrings(\"There is a tie on Ballot. You should start a new ballot with tie candidates:\", str) */\n      tag_75\n      mload(0x40)\n      dup1\n      0x80\n      add\n      0x40\n      mstore\n      dup1\n      0x4c\n      dup2\n      mstore\n      0x20\n      add\n      data_2acf605e5cd1b7b0e6ec2502e1f86c81c25a2363f294a2e9f46595fbaefb5b6c\n      0x4c\n      swap2\n      codecopy\n        /* \"contracts/Ballot/Ballot.sol\":3385:3388  str */\n      dup4\n        /* \"contracts/Ballot/Ballot.sol\":3286:3304  concatenateStrings */\n      tag_33\n        /* \"contracts/Ballot/Ballot.sol\":3286:3389  concatenateStrings(\"There is a tie on Ballot. You should start a new ballot with tie candidates:\", str) */\n      jump\t// in\n    tag_75:\n        /* \"contracts/Ballot/Ballot.sol\":3259:3389  string memory tieMessage = concatenateStrings(\"There is a tie on Ballot. You should start a new ballot with tie candidates:\", str) */\n      swap1\n      pop\n        /* \"contracts/Ballot/Ballot.sol\":3433:3438  isTie */\n      dup3\n        /* \"contracts/Ballot/Ballot.sol\":3432:3438  !isTie */\n      iszero\n        /* \"contracts/Ballot/Ballot.sol\":3453:3463  tieMessage */\n      dup2\n        /* \"contracts/Ballot/Ballot.sol\":3410:3474  require(\r... */\n      swap1\n      tag_76\n      jumpi\n      mload(0x40)\n      0x08c379a000000000000000000000000000000000000000000000000000000000\n      dup2\n      mstore\n      0x04\n      add\n      tag_77\n      swap2\n      swap1\n      tag_35\n      jump\t// in\n    tag_77:\n      mload(0x40)\n      dup1\n      swap2\n      sub\n      swap1\n      revert\n    tag_76:\n      pop\n        /* \"contracts/Ballot/Ballot.sol\":3498:3508  candidates */\n      0x02\n        /* \"contracts/Ballot/Ballot.sol\":3509:3524  winningProposal */\n      dup5\n        /* \"contracts/Ballot/Ballot.sol\":3498:3525  candidates[winningProposal] */\n      dup2\n      sload\n      dup2\n      lt\n      tag_78\n      jumpi\n      tag_79\n      tag_61\n      jump\t// in\n    tag_79:\n    tag_78:\n      swap1\n      0x00\n      mstore\n      keccak256(0x00, 0x20)\n      swap1\n      0x02\n      mul\n      add\n        /* \"contracts/Ballot/Ballot.sol\":3498:3537  candidates[winningProposal].nameProject */\n      0x00\n      add\n        /* \"contracts/Ballot/Ballot.sol\":3485:3537  winnerName = candidates[winningProposal].nameProject */\n      dup1\n      sload\n      tag_81\n      swap1\n      tag_64\n      jump\t// in\n    tag_81:\n      dup1\n      0x1f\n      add\n      0x20\n      dup1\n      swap2\n      div\n      mul\n      0x20\n      add\n      mload(0x40)\n      swap1\n      dup2\n      add\n      0x40\n      mstore\n      dup1\n      swap3\n      swap2\n      swap1\n      dup2\n      dup2\n      mstore\n      0x20\n      add\n      dup3\n      dup1\n      sload\n      tag_82\n      swap1\n      tag_64\n      jump\t// in\n    tag_82:\n      dup1\n      iszero\n      tag_83\n      jumpi\n      dup1\n      0x1f\n      lt\n      tag_84\n      jumpi\n      0x0100\n      dup1\n      dup4\n      sload\n      div\n      mul\n      dup4\n      mstore\n      swap2\n      0x20\n      add\n      swap2\n      jump(tag_83)\n    tag_84:\n      dup3\n      add\n      swap2\n      swap1\n      0x00\n      mstore\n      keccak256(0x00, 0x20)\n      swap1\n    tag_85:\n      dup2\n      sload\n      dup2\n      mstore\n      swap1\n      0x01\n      add\n      swap1\n      0x20\n      add\n      dup1\n      dup4\n      gt\n      tag_85\n      jumpi\n      dup3\n      swap1\n      sub\n      0x1f\n      and\n      dup3\n      add\n      swap2\n    tag_83:\n      pop\n      pop\n      pop\n      pop\n      pop\n      swap6\n      pop\n        /* \"contracts/Ballot/Ballot.sol\":3556:3566  winnerName */\n      dup6\n        /* \"contracts/Ballot/Ballot.sol\":3568:3588  getContractAddress() */\n      tag_86\n        /* \"contracts/Ballot/Ballot.sol\":3568:3586  getContractAddress */\n      tag_87\n        /* \"contracts/Ballot/Ballot.sol\":3568:3588  getContractAddress() */\n      jump\t// in\n    tag_86:\n        /* \"contracts/Ballot/Ballot.sol\":3548:3589  return (winnerName, getContractAddress()) */\n      swap6\n      pop\n      swap6\n      pop\n      pop\n      pop\n      pop\n      pop\n        /* \"contracts/Ballot/Ballot.sol\":3079:3597  function getWinnerName() public view returns (string memory winnerName, address) {\r... */\n      swap1\n      swap2\n      jump\t// out\n        /* \"contracts/Ballot/Ballot.sol\":402:431  Candidate[] public candidates */\n    tag_23:\n      0x02\n      dup2\n      dup2\n      sload\n      dup2\n      lt\n      tag_88\n      jumpi\n      0x00\n      dup1\n      revert\n    tag_88:\n      swap1\n      0x00\n      mstore\n      keccak256(0x00, 0x20)\n      swap1\n      0x02\n      mul\n      add\n      0x00\n      swap2\n      pop\n      swap1\n      pop\n      dup1\n      0x00\n      add\n      dup1\n      sload\n      tag_90\n      swap1\n      tag_64\n      jump\t// in\n    tag_90:\n      dup1\n      0x1f\n      add\n      0x20\n      dup1\n      swap2\n      div\n      mul\n      0x20\n      add\n      mload(0x40)\n      swap1\n      dup2\n      add\n      0x40\n      mstore\n      dup1\n      swap3\n      swap2\n      swap1\n      dup2\n      dup2\n      mstore\n      0x20\n      add\n      dup3\n      dup1\n      sload\n      tag_91\n      swap1\n      tag_64\n      jump\t// in\n    tag_91:\n      dup1\n      iszero\n      tag_92\n      jumpi\n      dup1\n      0x1f\n      lt\n      tag_93\n      jumpi\n      0x0100\n      dup1\n      dup4\n      sload\n      div\n      mul\n      dup4\n      mstore\n      swap2\n      0x20\n      add\n      swap2\n      jump(tag_92)\n    tag_93:\n      dup3\n      add\n      swap2\n      swap1\n      0x00\n      mstore\n      keccak256(0x00, 0x20)\n      swap1\n    tag_94:\n      dup2\n      sload\n      dup2\n      mstore\n      swap1\n      0x01\n      add\n      swap1\n      0x20\n      add\n      dup1\n      dup4\n      gt\n      tag_94\n      jumpi\n      dup3\n      swap1\n      sub\n      0x1f\n      and\n      dup3\n      add\n      swap2\n    tag_92:\n      pop\n      pop\n      pop\n      pop\n      pop\n      swap1\n      dup1\n      0x01\n      add\n      sload\n      swap1\n      pop\n      dup3\n      jump\t// out\n        /* \"contracts/Ballot/Ballot.sol\":2301:2527  function giveRightToVote(address voterAddress, string memory _nameVoter) public giveRightToVoteModifier(voterAddress) {\r... */\n    tag_29:\n        /* \"contracts/Ballot/Ballot.sol\":2405:2417  voterAddress */\n      dup2\n        /* \"contracts/Ballot/Ballot.sol\":1010:1046  getTotalVotesCounterReachedRequire() */\n      tag_96\n        /* \"contracts/Ballot/Ballot.sol\":1010:1044  getTotalVotesCounterReachedRequire */\n      tag_97\n        /* \"contracts/Ballot/Ballot.sol\":1010:1046  getTotalVotesCounterReachedRequire() */\n      jump\t// in\n    tag_96:\n        /* \"contracts/Ballot/Ballot.sol\":1079:1100  areYouContractOwner() */\n      tag_98\n        /* \"contracts/Ballot/Ballot.sol\":1079:1098  areYouContractOwner */\n      tag_99\n        /* \"contracts/Ballot/Ballot.sol\":1079:1100  areYouContractOwner() */\n      jump\t// in\n    tag_98:\n        /* \"contracts/Ballot/Ballot.sol\":1057:1175  require(\r... */\n      tag_100\n      jumpi\n      mload(0x40)\n      0x08c379a000000000000000000000000000000000000000000000000000000000\n      dup2\n      mstore\n      0x04\n      add\n      tag_101\n      swap1\n      tag_102\n      jump\t// in\n    tag_101:\n      mload(0x40)\n      dup1\n      swap2\n      sub\n      swap1\n      revert\n    tag_100:\n        /* \"contracts/Ballot/Ballot.sol\":1186:1220  getVoterVotedRequire(voterAddress) */\n      tag_103\n        /* \"contracts/Ballot/Ballot.sol\":1207:1219  voterAddress */\n      dup2\n        /* \"contracts/Ballot/Ballot.sol\":1186:1206  getVoterVotedRequire */\n      tag_104\n        /* \"contracts/Ballot/Ballot.sol\":1186:1220  getVoterVotedRequire(voterAddress) */\n      jump\t// in\n    tag_103:\n        /* \"contracts/Ballot/Ballot.sol\":2463:2473  _nameVoter */\n      dup2\n        /* \"contracts/Ballot/Ballot.sol\":2430:2436  voters */\n      0x01\n        /* \"contracts/Ballot/Ballot.sol\":2430:2450  voters[voterAddress] */\n      0x00\n        /* \"contracts/Ballot/Ballot.sol\":2437:2449  voterAddress */\n      dup6\n        /* \"contracts/Ballot/Ballot.sol\":2430:2450  voters[voterAddress] */\n      0xffffffffffffffffffffffffffffffffffffffff\n      and\n      0xffffffffffffffffffffffffffffffffffffffff\n      and\n      dup2\n      mstore\n      0x20\n      add\n      swap1\n      dup2\n      mstore\n      0x20\n      add\n      0x00\n      keccak256\n        /* \"contracts/Ballot/Ballot.sol\":2430:2460  voters[voterAddress].nameVoter */\n      0x00\n      add\n        /* \"contracts/Ballot/Ballot.sol\":2430:2473  voters[voterAddress].nameVoter = _nameVoter */\n      swap1\n      dup1\n      mload\n      swap1\n      0x20\n      add\n      swap1\n      tag_106\n      swap3\n      swap2\n      swap1\n      tag_107\n      jump\t// in\n    tag_106:\n      pop\n        /* \"contracts/Ballot/Ballot.sol\":2515:2519  true */\n      0x01\n        /* \"contracts/Ballot/Ballot.sol\":2484:2490  voters */\n      dup1\n        /* \"contracts/Ballot/Ballot.sol\":2484:2504  voters[voterAddress] */\n      0x00\n        /* \"contracts/Ballot/Ballot.sol\":2491:2503  voterAddress */\n      dup6\n        /* \"contracts/Ballot/Ballot.sol\":2484:2504  voters[voterAddress] */\n      0xffffffffffffffffffffffffffffffffffffffff\n      and\n      0xffffffffffffffffffffffffffffffffffffffff\n      and\n      dup2\n      mstore\n      0x20\n      add\n      swap1\n      dup2\n      mstore\n      0x20\n      add\n      0x00\n      keccak256\n        /* \"contracts/Ballot/Ballot.sol\":2484:2512  voters[voterAddress].canVote */\n      0x01\n      add\n      0x00\n        /* \"contracts/Ballot/Ballot.sol\":2484:2519  voters[voterAddress].canVote = true */\n      0x0100\n      exp\n      dup2\n      sload\n      dup2\n      0xff\n      mul\n      not\n      and\n      swap1\n      dup4\n      iszero\n      iszero\n      mul\n      or\n      swap1\n      sstore\n      pop\n        /* \"contracts/Ballot/Ballot.sol\":2301:2527  function giveRightToVote(address voterAddress, string memory _nameVoter) public giveRightToVoteModifier(voterAddress) {\r... */\n      pop\n      pop\n      pop\n      jump\t// out\n        /* \"contracts/Ballot/Ballot.sol\":6826:6990  function concatenateStrings(string memory s1, string memory s2) public pure returns (string memory) {\r... */\n    tag_33:\n        /* \"contracts/Ballot/Ballot.sol\":6911:6924  string memory */\n      0x60\n        /* \"contracts/Ballot/Ballot.sol\":6968:6970  s1 */\n      dup3\n        /* \"contracts/Ballot/Ballot.sol\":6978:6980  s2 */\n      dup3\n        /* \"contracts/Ballot/Ballot.sol\":6951:6981  abi.encodePacked(s1, \" \" , s2) */\n      add(0x20, mload(0x40))\n      tag_109\n      swap3\n      swap2\n      swap1\n      tag_110\n      jump\t// in\n    tag_109:\n      mload(0x40)\n      0x20\n      dup2\n      dup4\n      sub\n      sub\n      dup2\n      mstore\n      swap1\n      0x40\n      mstore\n        /* \"contracts/Ballot/Ballot.sol\":6937:6982  return string(abi.encodePacked(s1, \" \" , s2)) */\n      swap1\n      pop\n        /* \"contracts/Ballot/Ballot.sol\":6826:6990  function concatenateStrings(string memory s1, string memory s2) public pure returns (string memory) {\r... */\n      swap3\n      swap2\n      pop\n      pop\n      jump\t// out\n        /* \"contracts/Ballot/Ballot.sol\":354:393  mapping(address => Voter) public voters */\n    tag_39:\n      mstore(0x20, 0x01)\n      dup1\n      0x00\n      mstore\n      keccak256(0x00, 0x40)\n      0x00\n      swap2\n      pop\n      swap1\n      pop\n      dup1\n      0x00\n      add\n      dup1\n      sload\n      tag_111\n      swap1\n      tag_64\n      jump\t// in\n    tag_111:\n      dup1\n      0x1f\n      add\n      0x20\n      dup1\n      swap2\n      div\n      mul\n      0x20\n      add\n      mload(0x40)\n      swap1\n      dup2\n      add\n      0x40\n      mstore\n      dup1\n      swap3\n      swap2\n      swap1\n      dup2\n      dup2\n      mstore\n      0x20\n      add\n      dup3\n      dup1\n      sload\n      tag_112\n      swap1\n      tag_64\n      jump\t// in\n    tag_112:\n      dup1\n      iszero\n      tag_113\n      jumpi\n      dup1\n      0x1f\n      lt\n      tag_114\n      jumpi\n      0x0100\n      dup1\n      dup4\n      sload\n      div\n      mul\n      dup4\n      mstore\n      swap2\n      0x20\n      add\n      swap2\n      jump(tag_113)\n    tag_114:\n      dup3\n      add\n      swap2\n      swap1\n      0x00\n      mstore\n      keccak256(0x00, 0x20)\n      swap1\n    tag_115:\n      dup2\n      sload\n      dup2\n      mstore\n      swap1\n      0x01\n      add\n      swap1\n      0x20\n      add\n      dup1\n      dup4\n      gt\n      tag_115\n      jumpi\n      dup3\n      swap1\n      sub\n      0x1f\n      and\n      dup3\n      add\n      swap2\n    tag_113:\n      pop\n      pop\n      pop\n      pop\n      pop\n      swap1\n      dup1\n      0x01\n      add\n      0x00\n      swap1\n      sload\n      swap1\n      0x0100\n      exp\n      swap1\n      div\n      0xff\n      and\n      swap1\n      dup1\n      0x01\n      add\n      0x01\n      swap1\n      sload\n      swap1\n      0x0100\n      exp\n      swap1\n      div\n      0xff\n      and\n      swap1\n      pop\n      dup4\n      jump\t// out\n        /* \"contracts/Ballot/Ballot.sol\":3605:5302  function getWinningCandidate() public view returns (uint winningProposal, bool, string memory) {        \r... */\n    tag_43:\n        /* \"contracts/Ballot/Ballot.sol\":3657:3677  uint winningProposal */\n      0x00\n        /* \"contracts/Ballot/Ballot.sol\":3679:3683  bool */\n      dup1\n        /* \"contracts/Ballot/Ballot.sol\":3685:3698  string memory */\n      0x60\n        /* \"contracts/Ballot/Ballot.sol\":3719:3740  uint winningVoteCount */\n      0x00\n        /* \"contracts/Ballot/Ballot.sol\":3753:3774  uint candidatesLength */\n      dup1\n        /* \"contracts/Ballot/Ballot.sol\":3777:3787  candidates */\n      0x02\n        /* \"contracts/Ballot/Ballot.sol\":3777:3794  candidates.length */\n      dup1\n      sload\n      swap1\n      pop\n        /* \"contracts/Ballot/Ballot.sol\":3753:3794  uint candidatesLength = candidates.length */\n      swap1\n      pop\n        /* \"contracts/Ballot/Ballot.sol\":3815:3848  string[] memory tieCandidatesList */\n      0x00\n        /* \"contracts/Ballot/Ballot.sol\":3864:3880  candidatesLength */\n      dup2\n        /* \"contracts/Ballot/Ballot.sol\":3851:3881  new string[](candidatesLength) */\n      0xffffffffffffffff\n      dup2\n      gt\n      iszero\n      tag_117\n      jumpi\n      tag_118\n      tag_53\n      jump\t// in\n    tag_118:\n    tag_117:\n      mload(0x40)\n      swap1\n      dup1\n      dup3\n      mstore\n      dup1\n      0x20\n      mul\n      0x20\n      add\n      dup3\n      add\n      0x40\n      mstore\n      dup1\n      iszero\n      tag_119\n      jumpi\n      dup2\n      0x20\n      add\n    tag_120:\n      0x60\n      dup2\n      mstore\n      0x20\n      add\n      swap1\n      0x01\n      swap1\n      sub\n      swap1\n      dup2\n      tag_120\n      jumpi\n      swap1\n      pop\n    tag_119:\n      pop\n        /* \"contracts/Ballot/Ballot.sol\":3815:3881  string[] memory tieCandidatesList = new string[](candidatesLength) */\n      swap1\n      pop\n        /* \"contracts/Ballot/Ballot.sol\":3892:3919  uint tieCandidatesListIndex */\n      0x00\n        /* \"contracts/Ballot/Ballot.sol\":3930:3940  bool isTie */\n      dup1\n        /* \"contracts/Ballot/Ballot.sol\":3943:3947  true */\n      0x01\n        /* \"contracts/Ballot/Ballot.sol\":3930:3947  bool isTie = true */\n      swap1\n      pop\n        /* \"contracts/Ballot/Ballot.sol\":3958:3994  string memory tieCandidatesListNames */\n      0x60\n        /* \"contracts/Ballot/Ballot.sol\":4012:4031  uint indexCandidate */\n      0x00\n        /* \"contracts/Ballot/Ballot.sol\":4007:4951  for (uint indexCandidate = 0; indexCandidate < candidatesLength; indexCandidate++) {\r... */\n    tag_121:\n        /* \"contracts/Ballot/Ballot.sol\":4054:4070  candidatesLength */\n      dup6\n        /* \"contracts/Ballot/Ballot.sol\":4037:4051  indexCandidate */\n      dup2\n        /* \"contracts/Ballot/Ballot.sol\":4037:4070  indexCandidate < candidatesLength */\n      lt\n        /* \"contracts/Ballot/Ballot.sol\":4007:4951  for (uint indexCandidate = 0; indexCandidate < candidatesLength; indexCandidate++) {\r... */\n      iszero\n      tag_122\n      jumpi\n        /* \"contracts/Ballot/Ballot.sol\":4149:4165  winningVoteCount */\n      dup7\n        /* \"contracts/Ballot/Ballot.sol\":4109:4119  candidates */\n      0x02\n        /* \"contracts/Ballot/Ballot.sol\":4120:4134  indexCandidate */\n      dup3\n        /* \"contracts/Ballot/Ballot.sol\":4109:4135  candidates[indexCandidate] */\n      dup2\n      sload\n      dup2\n      lt\n      tag_124\n      jumpi\n      tag_125\n      tag_61\n      jump\t// in\n    tag_125:\n    tag_124:\n      swap1\n      0x00\n      mstore\n      keccak256(0x00, 0x20)\n      swap1\n      0x02\n      mul\n      add\n        /* \"contracts/Ballot/Ballot.sol\":4109:4146  candidates[indexCandidate].votesCount */\n      0x01\n      add\n      sload\n        /* \"contracts/Ballot/Ballot.sol\":4109:4165  candidates[indexCandidate].votesCount > winningVoteCount */\n      gt\n        /* \"contracts/Ballot/Ballot.sol\":4105:4928  if (candidates[indexCandidate].votesCount > winningVoteCount) {\r... */\n      iszero\n      tag_127\n      jumpi\n        /* \"contracts/Ballot/Ballot.sol\":4205:4215  candidates */\n      0x02\n        /* \"contracts/Ballot/Ballot.sol\":4216:4230  indexCandidate */\n      dup2\n        /* \"contracts/Ballot/Ballot.sol\":4205:4231  candidates[indexCandidate] */\n      dup2\n      sload\n      dup2\n      lt\n      tag_128\n      jumpi\n      tag_129\n      tag_61\n      jump\t// in\n    tag_129:\n    tag_128:\n      swap1\n      0x00\n      mstore\n      keccak256(0x00, 0x20)\n      swap1\n      0x02\n      mul\n      add\n        /* \"contracts/Ballot/Ballot.sol\":4205:4242  candidates[indexCandidate].votesCount */\n      0x01\n      add\n      sload\n        /* \"contracts/Ballot/Ballot.sol\":4186:4242  winningVoteCount = candidates[indexCandidate].votesCount */\n      swap7\n      pop\n        /* \"contracts/Ballot/Ballot.sol\":4279:4293  indexCandidate */\n      dup1\n        /* \"contracts/Ballot/Ballot.sol\":4261:4293  winningProposal = indexCandidate */\n      swap10\n      pop\n        /* \"contracts/Ballot/Ballot.sol\":4316:4321  isTie */\n      dup3\n        /* \"contracts/Ballot/Ballot.sol\":4312:4653  if (isTie) {\r... */\n      iszero\n      tag_131\n      jumpi\n        /* \"contracts/Ballot/Ballot.sol\":4354:4359  false */\n      0x00\n        /* \"contracts/Ballot/Ballot.sol\":4346:4359  isTie = false */\n      swap3\n      pop\n        /* \"contracts/Ballot/Ballot.sol\":4407:4408  0 */\n      0x00\n        /* \"contracts/Ballot/Ballot.sol\":4382:4408  tieCandidatesListIndex = 0 */\n      swap4\n      pop\n        /* \"contracts/Ballot/Ballot.sol\":4464:4480  candidatesLength */\n      dup6\n        /* \"contracts/Ballot/Ballot.sol\":4451:4481  new string[](candidatesLength) */\n      0xffffffffffffffff\n      dup2\n      gt\n      iszero\n      tag_132\n      jumpi\n      tag_133\n      tag_53\n      jump\t// in\n    tag_133:\n    tag_132:\n      mload(0x40)\n      swap1\n      dup1\n      dup3\n      mstore\n      dup1\n      0x20\n      mul\n      0x20\n      add\n      dup3\n      add\n      0x40\n      mstore\n      dup1\n      iszero\n      tag_134\n      jumpi\n      dup2\n      0x20\n      add\n    tag_135:\n      0x60\n      dup2\n      mstore\n      0x20\n      add\n      swap1\n      0x01\n      swap1\n      sub\n      swap1\n      dup2\n      tag_135\n      jumpi\n      swap1\n      pop\n    tag_134:\n      pop\n        /* \"contracts/Ballot/Ballot.sol\":4431:4481  tieCandidatesList = new string[](candidatesLength) */\n      swap5\n      pop\n        /* \"contracts/Ballot/Ballot.sol\":4548:4558  candidates */\n      0x02\n        /* \"contracts/Ballot/Ballot.sol\":4559:4573  indexCandidate */\n      dup2\n        /* \"contracts/Ballot/Ballot.sol\":4548:4574  candidates[indexCandidate] */\n      dup2\n      sload\n      dup2\n      lt\n      tag_136\n      jumpi\n      tag_137\n      tag_61\n      jump\t// in\n    tag_137:\n    tag_136:\n      swap1\n      0x00\n      mstore\n      keccak256(0x00, 0x20)\n      swap1\n      0x02\n      mul\n      add\n        /* \"contracts/Ballot/Ballot.sol\":4548:4586  candidates[indexCandidate].nameProject */\n      0x00\n      add\n        /* \"contracts/Ballot/Ballot.sol\":4504:4586  tieCandidatesList[tieCandidatesListIndex] = candidates[indexCandidate].nameProject */\n      dup1\n      sload\n      tag_139\n      swap1\n      tag_64\n      jump\t// in\n    tag_139:\n      dup1\n      0x1f\n      add\n      0x20\n      dup1\n      swap2\n      div\n      mul\n      0x20\n      add\n      mload(0x40)\n      swap1\n      dup2\n      add\n      0x40\n      mstore\n      dup1\n      swap3\n      swap2\n      swap1\n      dup2\n      dup2\n      mstore\n      0x20\n      add\n      dup3\n      dup1\n      sload\n      tag_140\n      swap1\n      tag_64\n      jump\t// in\n    tag_140:\n      dup1\n      iszero\n      tag_141\n      jumpi\n      dup1\n      0x1f\n      lt\n      tag_142\n      jumpi\n      0x0100\n      dup1\n      dup4\n      sload\n      div\n      mul\n      dup4\n      mstore\n      swap2\n      0x20\n      add\n      swap2\n      jump(tag_141)\n    tag_142:\n      dup3\n      add\n      swap2\n      swap1\n      0x00\n      mstore\n      keccak256(0x00, 0x20)\n      swap1\n    tag_143:\n      dup2\n      sload\n      dup2\n      mstore\n      swap1\n      0x01\n      add\n      swap1\n      0x20\n      add\n      dup1\n      dup4\n      gt\n      tag_143\n      jumpi\n      dup3\n      swap1\n      sub\n      0x1f\n      and\n      dup3\n      add\n      swap2\n    tag_141:\n      pop\n      pop\n      pop\n      pop\n      pop\n        /* \"contracts/Ballot/Ballot.sol\":4504:4521  tieCandidatesList */\n      dup6\n        /* \"contracts/Ballot/Ballot.sol\":4522:4544  tieCandidatesListIndex */\n      dup6\n        /* \"contracts/Ballot/Ballot.sol\":4504:4545  tieCandidatesList[tieCandidatesListIndex] */\n      dup2\n      mload\n      dup2\n      lt\n      tag_144\n      jumpi\n      tag_145\n      tag_61\n      jump\t// in\n    tag_145:\n    tag_144:\n      0x20\n      mul\n      0x20\n      add\n      add\n        /* \"contracts/Ballot/Ballot.sol\":4504:4586  tieCandidatesList[tieCandidatesListIndex] = candidates[indexCandidate].nameProject */\n      dup2\n      swap1\n      mstore\n      pop\n        /* \"contracts/Ballot/Ballot.sol\":4609:4633  tieCandidatesListIndex++ */\n      dup4\n      dup1\n      tag_146\n      swap1\n      tag_72\n      jump\t// in\n    tag_146:\n      swap5\n      pop\n      pop\n        /* \"contracts/Ballot/Ballot.sol\":4312:4653  if (isTie) {\r... */\n    tag_131:\n        /* \"contracts/Ballot/Ballot.sol\":4105:4928  if (candidates[indexCandidate].votesCount > winningVoteCount) {\r... */\n      jump(tag_147)\n    tag_127:\n        /* \"contracts/Ballot/Ballot.sol\":4719:4735  winningVoteCount */\n      dup7\n        /* \"contracts/Ballot/Ballot.sol\":4678:4688  candidates */\n      0x02\n        /* \"contracts/Ballot/Ballot.sol\":4689:4703  indexCandidate */\n      dup3\n        /* \"contracts/Ballot/Ballot.sol\":4678:4704  candidates[indexCandidate] */\n      dup2\n      sload\n      dup2\n      lt\n      tag_148\n      jumpi\n      tag_149\n      tag_61\n      jump\t// in\n    tag_149:\n    tag_148:\n      swap1\n      0x00\n      mstore\n      keccak256(0x00, 0x20)\n      swap1\n      0x02\n      mul\n      add\n        /* \"contracts/Ballot/Ballot.sol\":4678:4715  candidates[indexCandidate].votesCount */\n      0x01\n      add\n      sload\n        /* \"contracts/Ballot/Ballot.sol\":4678:4735  candidates[indexCandidate].votesCount == winningVoteCount */\n      eq\n        /* \"contracts/Ballot/Ballot.sol\":4674:4928  if (candidates[indexCandidate].votesCount == winningVoteCount) {\r... */\n      iszero\n      tag_151\n      jumpi\n        /* \"contracts/Ballot/Ballot.sol\":4764:4768  true */\n      0x01\n        /* \"contracts/Ballot/Ballot.sol\":4756:4768  isTie = true */\n      swap3\n      pop\n        /* \"contracts/Ballot/Ballot.sol\":4831:4841  candidates */\n      0x02\n        /* \"contracts/Ballot/Ballot.sol\":4842:4856  indexCandidate */\n      dup2\n        /* \"contracts/Ballot/Ballot.sol\":4831:4857  candidates[indexCandidate] */\n      dup2\n      sload\n      dup2\n      lt\n      tag_152\n      jumpi\n      tag_153\n      tag_61\n      jump\t// in\n    tag_153:\n    tag_152:\n      swap1\n      0x00\n      mstore\n      keccak256(0x00, 0x20)\n      swap1\n      0x02\n      mul\n      add\n        /* \"contracts/Ballot/Ballot.sol\":4831:4869  candidates[indexCandidate].nameProject */\n      0x00\n      add\n        /* \"contracts/Ballot/Ballot.sol\":4787:4869  tieCandidatesList[tieCandidatesListIndex] = candidates[indexCandidate].nameProject */\n      dup1\n      sload\n      tag_155\n      swap1\n      tag_64\n      jump\t// in\n    tag_155:\n      dup1\n      0x1f\n      add\n      0x20\n      dup1\n      swap2\n      div\n      mul\n      0x20\n      add\n      mload(0x40)\n      swap1\n      dup2\n      add\n      0x40\n      mstore\n      dup1\n      swap3\n      swap2\n      swap1\n      dup2\n      dup2\n      mstore\n      0x20\n      add\n      dup3\n      dup1\n      sload\n      tag_156\n      swap1\n      tag_64\n      jump\t// in\n    tag_156:\n      dup1\n      iszero\n      tag_157\n      jumpi\n      dup1\n      0x1f\n      lt\n      tag_158\n      jumpi\n      0x0100\n      dup1\n      dup4\n      sload\n      div\n      mul\n      dup4\n      mstore\n      swap2\n      0x20\n      add\n      swap2\n      jump(tag_157)\n    tag_158:\n      dup3\n      add\n      swap2\n      swap1\n      0x00\n      mstore\n      keccak256(0x00, 0x20)\n      swap1\n    tag_159:\n      dup2\n      sload\n      dup2\n      mstore\n      swap1\n      0x01\n      add\n      swap1\n      0x20\n      add\n      dup1\n      dup4\n      gt\n      tag_159\n      jumpi\n      dup3\n      swap1\n      sub\n      0x1f\n      and\n      dup3\n      add\n      swap2\n    tag_157:\n      pop\n      pop\n      pop\n      pop\n      pop\n        /* \"contracts/Ballot/Ballot.sol\":4787:4804  tieCandidatesList */\n      dup6\n        /* \"contracts/Ballot/Ballot.sol\":4805:4827  tieCandidatesListIndex */\n      dup6\n        /* \"contracts/Ballot/Ballot.sol\":4787:4828  tieCandidatesList[tieCandidatesListIndex] */\n      dup2\n      mload\n      dup2\n      lt\n      tag_160\n      jumpi\n      tag_161\n      tag_61\n      jump\t// in\n    tag_161:\n    tag_160:\n      0x20\n      mul\n      0x20\n      add\n      add\n        /* \"contracts/Ballot/Ballot.sol\":4787:4869  tieCandidatesList[tieCandidatesListIndex] = candidates[indexCandidate].nameProject */\n      dup2\n      swap1\n      mstore\n      pop\n        /* \"contracts/Ballot/Ballot.sol\":4888:4912  tieCandidatesListIndex++ */\n      dup4\n      dup1\n      tag_162\n      swap1\n      tag_72\n      jump\t// in\n    tag_162:\n      swap5\n      pop\n      pop\n        /* \"contracts/Ballot/Ballot.sol\":4674:4928  if (candidates[indexCandidate].votesCount == winningVoteCount) {\r... */\n    tag_151:\n        /* \"contracts/Ballot/Ballot.sol\":4105:4928  if (candidates[indexCandidate].votesCount > winningVoteCount) {\r... */\n    tag_147:\n        /* \"contracts/Ballot/Ballot.sol\":4072:4088  indexCandidate++ */\n      dup1\n      dup1\n      tag_163\n      swap1\n      tag_72\n      jump\t// in\n    tag_163:\n      swap2\n      pop\n      pop\n        /* \"contracts/Ballot/Ballot.sol\":4007:4951  for (uint indexCandidate = 0; indexCandidate < candidatesLength; indexCandidate++) {\r... */\n      jump(tag_121)\n    tag_122:\n      pop\n        /* \"contracts/Ballot/Ballot.sol\":4967:4972  isTie */\n      dup2\n        /* \"contracts/Ballot/Ballot.sol\":4963:5227  if (isTie) {\r... */\n      iszero\n      tag_164\n      jumpi\n        /* \"contracts/Ballot/Ballot.sol\":4994:5013  uint indexCandidate */\n      0x00\n        /* \"contracts/Ballot/Ballot.sol\":4989:5216  for (uint indexCandidate = 0; indexCandidate < tieCandidatesList.length; indexCandidate++) {\r... */\n    tag_165:\n        /* \"contracts/Ballot/Ballot.sol\":5036:5053  tieCandidatesList */\n      dup5\n        /* \"contracts/Ballot/Ballot.sol\":5036:5060  tieCandidatesList.length */\n      mload\n        /* \"contracts/Ballot/Ballot.sol\":5019:5033  indexCandidate */\n      dup2\n        /* \"contracts/Ballot/Ballot.sol\":5019:5060  indexCandidate < tieCandidatesList.length */\n      lt\n        /* \"contracts/Ballot/Ballot.sol\":4989:5216  for (uint indexCandidate = 0; indexCandidate < tieCandidatesList.length; indexCandidate++) {\r... */\n      iszero\n      tag_166\n      jumpi\n        /* \"contracts/Ballot/Ballot.sol\":5124:5200  concatenateStrings(tieCandidatesListNames,tieCandidatesList[indexCandidate]) */\n      tag_168\n        /* \"contracts/Ballot/Ballot.sol\":5143:5165  tieCandidatesListNames */\n      dup3\n        /* \"contracts/Ballot/Ballot.sol\":5166:5183  tieCandidatesList */\n      dup7\n        /* \"contracts/Ballot/Ballot.sol\":5184:5198  indexCandidate */\n      dup4\n        /* \"contracts/Ballot/Ballot.sol\":5166:5199  tieCandidatesList[indexCandidate] */\n      dup2\n      mload\n      dup2\n      lt\n      tag_169\n      jumpi\n      tag_170\n      tag_61\n      jump\t// in\n    tag_170:\n    tag_169:\n      0x20\n      mul\n      0x20\n      add\n      add\n      mload\n        /* \"contracts/Ballot/Ballot.sol\":5124:5142  concatenateStrings */\n      tag_33\n        /* \"contracts/Ballot/Ballot.sol\":5124:5200  concatenateStrings(tieCandidatesListNames,tieCandidatesList[indexCandidate]) */\n      jump\t// in\n    tag_168:\n        /* \"contracts/Ballot/Ballot.sol\":5099:5200  tieCandidatesListNames = concatenateStrings(tieCandidatesListNames,tieCandidatesList[indexCandidate]) */\n      swap2\n      pop\n        /* \"contracts/Ballot/Ballot.sol\":5062:5078  indexCandidate++ */\n      dup1\n      dup1\n      tag_171\n      swap1\n      tag_72\n      jump\t// in\n    tag_171:\n      swap2\n      pop\n      pop\n        /* \"contracts/Ballot/Ballot.sol\":4989:5216  for (uint indexCandidate = 0; indexCandidate < tieCandidatesList.length; indexCandidate++) {\r... */\n      jump(tag_165)\n    tag_166:\n      pop\n        /* \"contracts/Ballot/Ballot.sol\":4963:5227  if (isTie) {\r... */\n    tag_164:\n        /* \"contracts/Ballot/Ballot.sol\":5247:5262  winningProposal */\n      dup9\n        /* \"contracts/Ballot/Ballot.sol\":5264:5269  isTie */\n      dup3\n        /* \"contracts/Ballot/Ballot.sol\":5271:5293  tieCandidatesListNames */\n      dup3\n        /* \"contracts/Ballot/Ballot.sol\":5239:5294  return (winningProposal, isTie, tieCandidatesListNames) */\n      swap9\n      pop\n      swap9\n      pop\n      swap9\n      pop\n      pop\n      pop\n      pop\n      pop\n      pop\n      pop\n        /* \"contracts/Ballot/Ballot.sol\":3605:5302  function getWinningCandidate() public view returns (uint winningProposal, bool, string memory) {        \r... */\n      swap1\n      swap2\n      swap3\n      jump\t// out\n        /* \"contracts/Ballot/Ballot.sol\":2535:3071  function vote(string memory _nameProject) public voteModifier(msg.sender) {\r... */\n    tag_49:\n        /* \"contracts/Ballot/Ballot.sol\":2597:2607  msg.sender */\n      caller\n        /* \"contracts/Ballot/Ballot.sol\":1303:1339  getTotalVotesCounterReachedRequire() */\n      tag_173\n        /* \"contracts/Ballot/Ballot.sol\":1303:1337  getTotalVotesCounterReachedRequire */\n      tag_97\n        /* \"contracts/Ballot/Ballot.sol\":1303:1339  getTotalVotesCounterReachedRequire() */\n      jump\t// in\n    tag_173:\n        /* \"contracts/Ballot/Ballot.sol\":1372:1395  areYouHaveRigthToVote() */\n      tag_174\n        /* \"contracts/Ballot/Ballot.sol\":1372:1393  areYouHaveRigthToVote */\n      tag_175\n        /* \"contracts/Ballot/Ballot.sol\":1372:1395  areYouHaveRigthToVote() */\n      jump\t// in\n    tag_174:\n        /* \"contracts/Ballot/Ballot.sol\":1350:1450  require(\r... */\n      tag_176\n      jumpi\n      mload(0x40)\n      0x08c379a000000000000000000000000000000000000000000000000000000000\n      dup2\n      mstore\n      0x04\n      add\n      tag_177\n      swap1\n      tag_178\n      jump\t// in\n    tag_177:\n      mload(0x40)\n      dup1\n      swap2\n      sub\n      swap1\n      revert\n    tag_176:\n        /* \"contracts/Ballot/Ballot.sol\":1461:1495  getVoterVotedRequire(voterAddress) */\n      tag_179\n        /* \"contracts/Ballot/Ballot.sol\":1482:1494  voterAddress */\n      dup2\n        /* \"contracts/Ballot/Ballot.sol\":1461:1481  getVoterVotedRequire */\n      tag_104\n        /* \"contracts/Ballot/Ballot.sol\":1461:1495  getVoterVotedRequire(voterAddress) */\n      jump\t// in\n    tag_179:\n        /* \"contracts/Ballot/Ballot.sol\":2620:2640  Voter storage sender */\n      0x00\n        /* \"contracts/Ballot/Ballot.sol\":2643:2649  voters */\n      0x01\n        /* \"contracts/Ballot/Ballot.sol\":2643:2661  voters[msg.sender] */\n      0x00\n        /* \"contracts/Ballot/Ballot.sol\":2650:2660  msg.sender */\n      caller\n        /* \"contracts/Ballot/Ballot.sol\":2643:2661  voters[msg.sender] */\n      0xffffffffffffffffffffffffffffffffffffffff\n      and\n      0xffffffffffffffffffffffffffffffffffffffff\n      and\n      dup2\n      mstore\n      0x20\n      add\n      swap1\n      dup2\n      mstore\n      0x20\n      add\n      0x00\n      keccak256\n        /* \"contracts/Ballot/Ballot.sol\":2620:2661  Voter storage sender = voters[msg.sender] */\n      swap1\n      pop\n        /* \"contracts/Ballot/Ballot.sol\":2778:2788  uint index */\n      0x00\n        /* \"contracts/Ballot/Ballot.sol\":2773:3064  for (uint index = 0; index < candidates.length; index++) {\r... */\n    tag_181:\n        /* \"contracts/Ballot/Ballot.sol\":2802:2812  candidates */\n      0x02\n        /* \"contracts/Ballot/Ballot.sol\":2802:2819  candidates.length */\n      dup1\n      sload\n      swap1\n      pop\n        /* \"contracts/Ballot/Ballot.sol\":2794:2799  index */\n      dup2\n        /* \"contracts/Ballot/Ballot.sol\":2794:2819  index < candidates.length */\n      lt\n        /* \"contracts/Ballot/Ballot.sol\":2773:3064  for (uint index = 0; index < candidates.length; index++) {\r... */\n      iszero\n      tag_182\n      jumpi\n        /* \"contracts/Ballot/Ballot.sol\":2849:2907  stringEqualTo(candidates[index].nameProject, _nameProject) */\n      tag_184\n        /* \"contracts/Ballot/Ballot.sol\":2863:2873  candidates */\n      0x02\n        /* \"contracts/Ballot/Ballot.sol\":2874:2879  index */\n      dup3\n        /* \"contracts/Ballot/Ballot.sol\":2863:2880  candidates[index] */\n      dup2\n      sload\n      dup2\n      lt\n      tag_185\n      jumpi\n      tag_186\n      tag_61\n      jump\t// in\n    tag_186:\n    tag_185:\n      swap1\n      0x00\n      mstore\n      keccak256(0x00, 0x20)\n      swap1\n      0x02\n      mul\n      add\n        /* \"contracts/Ballot/Ballot.sol\":2863:2892  candidates[index].nameProject */\n      0x00\n      add\n        /* \"contracts/Ballot/Ballot.sol\":2849:2907  stringEqualTo(candidates[index].nameProject, _nameProject) */\n      dup1\n      sload\n      tag_188\n      swap1\n      tag_64\n      jump\t// in\n    tag_188:\n      dup1\n      0x1f\n      add\n      0x20\n      dup1\n      swap2\n      div\n      mul\n      0x20\n      add\n      mload(0x40)\n      swap1\n      dup2\n      add\n      0x40\n      mstore\n      dup1\n      swap3\n      swap2\n      swap1\n      dup2\n      dup2\n      mstore\n      0x20\n      add\n      dup3\n      dup1\n      sload\n      tag_189\n      swap1\n      tag_64\n      jump\t// in\n    tag_189:\n      dup1\n      iszero\n      tag_190\n      jumpi\n      dup1\n      0x1f\n      lt\n      tag_191\n      jumpi\n      0x0100\n      dup1\n      dup4\n      sload\n      div\n      mul\n      dup4\n      mstore\n      swap2\n      0x20\n      add\n      swap2\n      jump(tag_190)\n    tag_191:\n      dup3\n      add\n      swap2\n      swap1\n      0x00\n      mstore\n      keccak256(0x00, 0x20)\n      swap1\n    tag_192:\n      dup2\n      sload\n      dup2\n      mstore\n      swap1\n      0x01\n      add\n      swap1\n      0x20\n      add\n      dup1\n      dup4\n      gt\n      tag_192\n      jumpi\n      dup3\n      swap1\n      sub\n      0x1f\n      and\n      dup3\n      add\n      swap2\n    tag_190:\n      pop\n      pop\n      pop\n      pop\n      pop\n        /* \"contracts/Ballot/Ballot.sol\":2894:2906  _nameProject */\n      dup6\n        /* \"contracts/Ballot/Ballot.sol\":2849:2862  stringEqualTo */\n      tag_193\n        /* \"contracts/Ballot/Ballot.sol\":2849:2907  stringEqualTo(candidates[index].nameProject, _nameProject) */\n      jump\t// in\n    tag_184:\n        /* \"contracts/Ballot/Ballot.sol\":2845:3053  if (stringEqualTo(candidates[index].nameProject, _nameProject)) {\r... */\n      iszero\n      tag_194\n      jumpi\n        /* \"contracts/Ballot/Ballot.sol\":2928:2938  candidates */\n      0x02\n        /* \"contracts/Ballot/Ballot.sol\":2939:2944  index */\n      dup2\n        /* \"contracts/Ballot/Ballot.sol\":2928:2945  candidates[index] */\n      dup2\n      sload\n      dup2\n      lt\n      tag_195\n      jumpi\n      tag_196\n      tag_61\n      jump\t// in\n    tag_196:\n    tag_195:\n      swap1\n      0x00\n      mstore\n      keccak256(0x00, 0x20)\n      swap1\n      0x02\n      mul\n      add\n        /* \"contracts/Ballot/Ballot.sol\":2928:2956  candidates[index].votesCount */\n      0x01\n      add\n      0x00\n        /* \"contracts/Ballot/Ballot.sol\":2928:2958  candidates[index].votesCount++ */\n      dup2\n      sload\n      dup1\n      swap3\n      swap2\n      swap1\n      tag_198\n      swap1\n      tag_72\n      jump\t// in\n    tag_198:\n      swap2\n      swap1\n      pop\n      sstore\n      pop\n        /* \"contracts/Ballot/Ballot.sol\":2995:2999  true */\n      0x01\n        /* \"contracts/Ballot/Ballot.sol\":2977:2983  sender */\n      dup3\n        /* \"contracts/Ballot/Ballot.sol\":2977:2992  sender.hasVoted */\n      0x01\n      add\n      0x01\n        /* \"contracts/Ballot/Ballot.sol\":2977:2999  sender.hasVoted = true */\n      0x0100\n      exp\n      dup2\n      sload\n      dup2\n      0xff\n      mul\n      not\n      and\n      swap1\n      dup4\n      iszero\n      iszero\n      mul\n      or\n      swap1\n      sstore\n      pop\n        /* \"contracts/Ballot/Ballot.sol\":3018:3035  totalVotesCounter */\n      0x03\n      0x00\n        /* \"contracts/Ballot/Ballot.sol\":3018:3037  totalVotesCounter++ */\n      dup2\n      sload\n      dup1\n      swap3\n      swap2\n      swap1\n      tag_199\n      swap1\n      tag_72\n      jump\t// in\n    tag_199:\n      swap2\n      swap1\n      pop\n      sstore\n      pop\n        /* \"contracts/Ballot/Ballot.sol\":2845:3053  if (stringEqualTo(candidates[index].nameProject, _nameProject)) {\r... */\n    tag_194:\n        /* \"contracts/Ballot/Ballot.sol\":2821:2828  index++ */\n      dup1\n      dup1\n      tag_200\n      swap1\n      tag_72\n      jump\t// in\n    tag_200:\n      swap2\n      pop\n      pop\n        /* \"contracts/Ballot/Ballot.sol\":2773:3064  for (uint index = 0; index < candidates.length; index++) {\r... */\n      jump(tag_181)\n    tag_182:\n      pop\n        /* \"contracts/Ballot/Ballot.sol\":2609:3071  {\r... */\n      pop\n        /* \"contracts/Ballot/Ballot.sol\":2535:3071  function vote(string memory _nameProject) public voteModifier(msg.sender) {\r... */\n      pop\n      pop\n      jump\t// out\n        /* \"contracts/Ballot/Ballot.sol\":5725:5825  function getContractAddress() private view returns (address) {\r... */\n    tag_87:\n        /* \"contracts/Ballot/Ballot.sol\":5777:5784  address */\n      0x00\n        /* \"contracts/Ballot/Ballot.sol\":5812:5816  this */\n      address\n        /* \"contracts/Ballot/Ballot.sol\":5797:5817  return address(this) */\n      swap1\n      pop\n        /* \"contracts/Ballot/Ballot.sol\":5725:5825  function getContractAddress() private view returns (address) {\r... */\n      swap1\n      jump\t// out\n        /* \"contracts/Ballot/Ballot.sol\":1749:1960  function getTotalVotesCounterReachedRequire() private view {\r... */\n    tag_97:\n        /* \"contracts/Ballot/Ballot.sol\":1868:1876  maxVotes */\n      sload(0x04)\n        /* \"contracts/Ballot/Ballot.sol\":1848:1865  totalVotesCounter */\n      sload(0x03)\n        /* \"contracts/Ballot/Ballot.sol\":1848:1876  totalVotesCounter < maxVotes */\n      lt\n        /* \"contracts/Ballot/Ballot.sol\":1826:1952  require(\r... */\n      tag_203\n      jumpi\n      mload(0x40)\n      0x08c379a000000000000000000000000000000000000000000000000000000000\n      dup2\n      mstore\n      0x04\n      add\n      tag_204\n      swap1\n      tag_205\n      jump\t// in\n    tag_204:\n      mload(0x40)\n      dup1\n      swap2\n      sub\n      swap1\n      revert\n    tag_203:\n        /* \"contracts/Ballot/Ballot.sol\":1749:1960  function getTotalVotesCounterReachedRequire() private view {\r... */\n      jump\t// out\n        /* \"contracts/Ballot/Ballot.sol\":5833:5945  function areYouContractOwner() private view returns (bool) {\r... */\n    tag_99:\n        /* \"contracts/Ballot/Ballot.sol\":5886:5890  bool */\n      0x00\n        /* \"contracts/Ballot/Ballot.sol\":5924:5937  contractOwner */\n      dup1\n      0x00\n      swap1\n      sload\n      swap1\n      0x0100\n      exp\n      swap1\n      div\n      0xffffffffffffffffffffffffffffffffffffffff\n      and\n        /* \"contracts/Ballot/Ballot.sol\":5910:5937  msg.sender == contractOwner */\n      0xffffffffffffffffffffffffffffffffffffffff\n      and\n        /* \"contracts/Ballot/Ballot.sol\":5910:5920  msg.sender */\n      caller\n        /* \"contracts/Ballot/Ballot.sol\":5910:5937  msg.sender == contractOwner */\n      0xffffffffffffffffffffffffffffffffffffffff\n      and\n      eq\n        /* \"contracts/Ballot/Ballot.sol\":5903:5937  return msg.sender == contractOwner */\n      swap1\n      pop\n        /* \"contracts/Ballot/Ballot.sol\":5833:5945  function areYouContractOwner() private view returns (bool) {\r... */\n      swap1\n      jump\t// out\n        /* \"contracts/Ballot/Ballot.sol\":1552:1741  function getVoterVotedRequire(address voterAddress) private view {\r... */\n    tag_104:\n        /* \"contracts/Ballot/Ballot.sol\":1658:1685  getVoterVoted(voterAddress) */\n      tag_208\n        /* \"contracts/Ballot/Ballot.sol\":1672:1684  voterAddress */\n      dup2\n        /* \"contracts/Ballot/Ballot.sol\":1658:1671  getVoterVoted */\n      tag_209\n        /* \"contracts/Ballot/Ballot.sol\":1658:1685  getVoterVoted(voterAddress) */\n      jump\t// in\n    tag_208:\n        /* \"contracts/Ballot/Ballot.sol\":1657:1685  !getVoterVoted(voterAddress) */\n      iszero\n        /* \"contracts/Ballot/Ballot.sol\":1635:1733  require(\r... */\n      tag_210\n      jumpi\n      mload(0x40)\n      0x08c379a000000000000000000000000000000000000000000000000000000000\n      dup2\n      mstore\n      0x04\n      add\n      tag_211\n      swap1\n      tag_212\n      jump\t// in\n    tag_211:\n      mload(0x40)\n      dup1\n      swap2\n      sub\n      swap1\n      revert\n    tag_210:\n        /* \"contracts/Ballot/Ballot.sol\":1552:1741  function getVoterVotedRequire(address voterAddress) private view {\r... */\n      pop\n      jump\t// out\n        /* \"contracts/Ballot/Ballot.sol\":5953:6071  function areYouHaveRigthToVote() private view returns (bool) {\r... */\n    tag_175:\n        /* \"contracts/Ballot/Ballot.sol\":6008:6012  bool */\n      0x00\n        /* \"contracts/Ballot/Ballot.sol\":6032:6063  getVoterRigthToVote(msg.sender) */\n      tag_214\n        /* \"contracts/Ballot/Ballot.sol\":6052:6062  msg.sender */\n      caller\n        /* \"contracts/Ballot/Ballot.sol\":6032:6051  getVoterRigthToVote */\n      tag_215\n        /* \"contracts/Ballot/Ballot.sol\":6032:6063  getVoterRigthToVote(msg.sender) */\n      jump\t// in\n    tag_214:\n        /* \"contracts/Ballot/Ballot.sol\":6025:6063  return getVoterRigthToVote(msg.sender) */\n      swap1\n      pop\n        /* \"contracts/Ballot/Ballot.sol\":5953:6071  function areYouHaveRigthToVote() private view returns (bool) {\r... */\n      swap1\n      jump\t// out\n        /* \"contracts/Ballot/Ballot.sol\":6494:6661  function stringEqualTo(string memory s1, string memory s2) private pure returns (bool) {\r... */\n    tag_193:\n        /* \"contracts/Ballot/Ballot.sol\":6575:6579  bool */\n      0x00\n        /* \"contracts/Ballot/Ballot.sol\":6649:6651  s2 */\n      dup2\n        /* \"contracts/Ballot/Ballot.sol\":6638:6652  abi.encode(s2) */\n      add(0x20, mload(0x40))\n      tag_217\n      swap2\n      swap1\n      tag_35\n      jump\t// in\n    tag_217:\n      mload(0x40)\n      0x20\n      dup2\n      dup4\n      sub\n      sub\n      dup2\n      mstore\n      swap1\n      0x40\n      mstore\n        /* \"contracts/Ballot/Ballot.sol\":6628:6653  keccak256(abi.encode(s2)) */\n      dup1\n      mload\n      swap1\n      0x20\n      add\n      keccak256\n        /* \"contracts/Ballot/Ballot.sol\":6620:6622  s1 */\n      dup4\n        /* \"contracts/Ballot/Ballot.sol\":6609:6623  abi.encode(s1) */\n      add(0x20, mload(0x40))\n      tag_218\n      swap2\n      swap1\n      tag_35\n      jump\t// in\n    tag_218:\n      mload(0x40)\n      0x20\n      dup2\n      dup4\n      sub\n      sub\n      dup2\n      mstore\n      swap1\n      0x40\n      mstore\n        /* \"contracts/Ballot/Ballot.sol\":6599:6624  keccak256(abi.encode(s1)) */\n      dup1\n      mload\n      swap1\n      0x20\n      add\n      keccak256\n        /* \"contracts/Ballot/Ballot.sol\":6599:6653  keccak256(abi.encode(s1)) == keccak256(abi.encode(s2)) */\n      eq\n        /* \"contracts/Ballot/Ballot.sol\":6592:6653  return keccak256(abi.encode(s1)) == keccak256(abi.encode(s2)) */\n      swap1\n      pop\n        /* \"contracts/Ballot/Ballot.sol\":6494:6661  function stringEqualTo(string memory s1, string memory s2) private pure returns (bool) {\r... */\n      swap3\n      swap2\n      pop\n      pop\n      jump\t// out\n        /* \"contracts/Ballot/Ballot.sol\":6330:6458  function getVoterVoted(address voterAddress) private view returns (bool) {\r... */\n    tag_209:\n        /* \"contracts/Ballot/Ballot.sol\":6397:6401  bool */\n      0x00\n        /* \"contracts/Ballot/Ballot.sol\":6421:6427  voters */\n      0x01\n        /* \"contracts/Ballot/Ballot.sol\":6421:6441  voters[voterAddress] */\n      0x00\n        /* \"contracts/Ballot/Ballot.sol\":6428:6440  voterAddress */\n      dup4\n        /* \"contracts/Ballot/Ballot.sol\":6421:6441  voters[voterAddress] */\n      0xffffffffffffffffffffffffffffffffffffffff\n      and\n      0xffffffffffffffffffffffffffffffffffffffff\n      and\n      dup2\n      mstore\n      0x20\n      add\n      swap1\n      dup2\n      mstore\n      0x20\n      add\n      0x00\n      keccak256\n        /* \"contracts/Ballot/Ballot.sol\":6421:6450  voters[voterAddress].hasVoted */\n      0x01\n      add\n      0x01\n      swap1\n      sload\n      swap1\n      0x0100\n      exp\n      swap1\n      div\n      0xff\n      and\n        /* \"contracts/Ballot/Ballot.sol\":6414:6450  return voters[voterAddress].hasVoted */\n      swap1\n      pop\n        /* \"contracts/Ballot/Ballot.sol\":6330:6458  function getVoterVoted(address voterAddress) private view returns (bool) {\r... */\n      swap2\n      swap1\n      pop\n      jump\t// out\n        /* \"contracts/Ballot/Ballot.sol\":6079:6212  function getVoterRigthToVote(address voterAddress) private view returns (bool) {\r... */\n    tag_215:\n        /* \"contracts/Ballot/Ballot.sol\":6152:6156  bool */\n      0x00\n        /* \"contracts/Ballot/Ballot.sol\":6176:6182  voters */\n      0x01\n        /* \"contracts/Ballot/Ballot.sol\":6176:6196  voters[voterAddress] */\n      0x00\n        /* \"contracts/Ballot/Ballot.sol\":6183:6195  voterAddress */\n      dup4\n        /* \"contracts/Ballot/Ballot.sol\":6176:6196  voters[voterAddress] */\n      0xffffffffffffffffffffffffffffffffffffffff\n      and\n      0xffffffffffffffffffffffffffffffffffffffff\n      and\n      dup2\n      mstore\n      0x20\n      add\n      swap1\n      dup2\n      mstore\n      0x20\n      add\n      0x00\n      keccak256\n        /* \"contracts/Ballot/Ballot.sol\":6176:6204  voters[voterAddress].canVote */\n      0x01\n      add\n      0x00\n      swap1\n      sload\n      swap1\n      0x0100\n      exp\n      swap1\n      div\n      0xff\n      and\n        /* \"contracts/Ballot/Ballot.sol\":6169:6204  return voters[voterAddress].canVote */\n      swap1\n      pop\n        /* \"contracts/Ballot/Ballot.sol\":6079:6212  function getVoterRigthToVote(address voterAddress) private view returns (bool) {\r... */\n      swap2\n      swap1\n      pop\n      jump\t// out\n    tag_107:\n      dup3\n      dup1\n      sload\n      tag_221\n      swap1\n      tag_64\n      jump\t// in\n    tag_221:\n      swap1\n      0x00\n      mstore\n      keccak256(0x00, 0x20)\n      swap1\n      0x1f\n      add\n      0x20\n      swap1\n      div\n      dup2\n      add\n      swap3\n      dup3\n      tag_223\n      jumpi\n      0x00\n      dup6\n      sstore\n      jump(tag_222)\n    tag_223:\n      dup3\n      0x1f\n      lt\n      tag_224\n      jumpi\n      dup1\n      mload\n      not(0xff)\n      and\n      dup4\n      dup1\n      add\n      or\n      dup6\n      sstore\n      jump(tag_222)\n    tag_224:\n      dup3\n      dup1\n      add\n      0x01\n      add\n      dup6\n      sstore\n      dup3\n      iszero\n      tag_222\n      jumpi\n      swap2\n      dup3\n      add\n    tag_225:\n      dup3\n      dup2\n      gt\n      iszero\n      tag_226\n      jumpi\n      dup3\n      mload\n      dup3\n      sstore\n      swap2\n      0x20\n      add\n      swap2\n      swap1\n      0x01\n      add\n      swap1\n      jump(tag_225)\n    tag_226:\n    tag_222:\n      pop\n      swap1\n      pop\n      tag_227\n      swap2\n      swap1\n      tag_228\n      jump\t// in\n    tag_227:\n      pop\n      swap1\n      jump\t// out\n    tag_228:\n    tag_229:\n      dup1\n      dup3\n      gt\n      iszero\n      tag_230\n      jumpi\n      0x00\n      dup2\n      0x00\n      swap1\n      sstore\n      pop\n      0x01\n      add\n      jump(tag_229)\n    tag_230:\n      pop\n      swap1\n      jump\t// out\n        /* \"#utility.yul\":7:419   */\n    tag_232:\n        /* \"#utility.yul\":85:90   */\n      0x00\n        /* \"#utility.yul\":110:176   */\n      tag_234\n        /* \"#utility.yul\":126:175   */\n      tag_235\n        /* \"#utility.yul\":168:174   */\n      dup5\n        /* \"#utility.yul\":126:175   */\n      tag_236\n      jump\t// in\n    tag_235:\n        /* \"#utility.yul\":110:176   */\n      tag_237\n      jump\t// in\n    tag_234:\n        /* \"#utility.yul\":101:176   */\n      swap1\n      pop\n        /* \"#utility.yul\":199:205   */\n      dup3\n        /* \"#utility.yul\":192:197   */\n      dup2\n        /* \"#utility.yul\":185:206   */\n      mstore\n        /* \"#utility.yul\":237:241   */\n      0x20\n        /* \"#utility.yul\":230:235   */\n      dup2\n        /* \"#utility.yul\":226:242   */\n      add\n        /* \"#utility.yul\":275:278   */\n      dup5\n        /* \"#utility.yul\":266:272   */\n      dup5\n        /* \"#utility.yul\":261:264   */\n      dup5\n        /* \"#utility.yul\":257:273   */\n      add\n        /* \"#utility.yul\":254:279   */\n      gt\n        /* \"#utility.yul\":251:363   */\n      iszero\n      tag_238\n      jumpi\n        /* \"#utility.yul\":282:361   */\n      tag_239\n      tag_240\n      jump\t// in\n    tag_239:\n        /* \"#utility.yul\":251:363   */\n    tag_238:\n        /* \"#utility.yul\":372:413   */\n      tag_241\n        /* \"#utility.yul\":406:412   */\n      dup5\n        /* \"#utility.yul\":401:404   */\n      dup3\n        /* \"#utility.yul\":396:399   */\n      dup6\n        /* \"#utility.yul\":372:413   */\n      tag_242\n      jump\t// in\n    tag_241:\n        /* \"#utility.yul\":91:419   */\n      pop\n        /* \"#utility.yul\":7:419   */\n      swap4\n      swap3\n      pop\n      pop\n      pop\n      jump\t// out\n        /* \"#utility.yul\":425:564   */\n    tag_243:\n        /* \"#utility.yul\":471:476   */\n      0x00\n        /* \"#utility.yul\":509:515   */\n      dup2\n        /* \"#utility.yul\":496:516   */\n      calldataload\n        /* \"#utility.yul\":487:516   */\n      swap1\n      pop\n        /* \"#utility.yul\":525:558   */\n      tag_245\n        /* \"#utility.yul\":552:557   */\n      dup2\n        /* \"#utility.yul\":525:558   */\n      tag_246\n      jump\t// in\n    tag_245:\n        /* \"#utility.yul\":425:564   */\n      swap3\n      swap2\n      pop\n      pop\n      jump\t// out\n        /* \"#utility.yul\":584:924   */\n    tag_247:\n        /* \"#utility.yul\":640:645   */\n      0x00\n        /* \"#utility.yul\":689:692   */\n      dup3\n        /* \"#utility.yul\":682:686   */\n      0x1f\n        /* \"#utility.yul\":674:680   */\n      dup4\n        /* \"#utility.yul\":670:687   */\n      add\n        /* \"#utility.yul\":666:693   */\n      slt\n        /* \"#utility.yul\":656:778   */\n      tag_249\n      jumpi\n        /* \"#utility.yul\":697:776   */\n      tag_250\n      tag_251\n      jump\t// in\n    tag_250:\n        /* \"#utility.yul\":656:778   */\n    tag_249:\n        /* \"#utility.yul\":814:820   */\n      dup2\n        /* \"#utility.yul\":801:821   */\n      calldataload\n        /* \"#utility.yul\":839:918   */\n      tag_252\n        /* \"#utility.yul\":914:917   */\n      dup5\n        /* \"#utility.yul\":906:912   */\n      dup3\n        /* \"#utility.yul\":899:903   */\n      0x20\n        /* \"#utility.yul\":891:897   */\n      dup7\n        /* \"#utility.yul\":887:904   */\n      add\n        /* \"#utility.yul\":839:918   */\n      tag_232\n      jump\t// in\n    tag_252:\n        /* \"#utility.yul\":830:918   */\n      swap2\n      pop\n        /* \"#utility.yul\":646:924   */\n      pop\n        /* \"#utility.yul\":584:924   */\n      swap3\n      swap2\n      pop\n      pop\n      jump\t// out\n        /* \"#utility.yul\":930:1069   */\n    tag_253:\n        /* \"#utility.yul\":976:981   */\n      0x00\n        /* \"#utility.yul\":1014:1020   */\n      dup2\n        /* \"#utility.yul\":1001:1021   */\n      calldataload\n        /* \"#utility.yul\":992:1021   */\n      swap1\n      pop\n        /* \"#utility.yul\":1030:1063   */\n      tag_255\n        /* \"#utility.yul\":1057:1062   */\n      dup2\n        /* \"#utility.yul\":1030:1063   */\n      tag_256\n      jump\t// in\n    tag_255:\n        /* \"#utility.yul\":930:1069   */\n      swap3\n      swap2\n      pop\n      pop\n      jump\t// out\n        /* \"#utility.yul\":1075:1404   */\n    tag_38:\n        /* \"#utility.yul\":1134:1140   */\n      0x00\n        /* \"#utility.yul\":1183:1185   */\n      0x20\n        /* \"#utility.yul\":1171:1180   */\n      dup3\n        /* \"#utility.yul\":1162:1169   */\n      dup5\n        /* \"#utility.yul\":1158:1181   */\n      sub\n        /* \"#utility.yul\":1154:1186   */\n      slt\n        /* \"#utility.yul\":1151:1270   */\n      iszero\n      tag_258\n      jumpi\n        /* \"#utility.yul\":1189:1268   */\n      tag_259\n      tag_260\n      jump\t// in\n    tag_259:\n        /* \"#utility.yul\":1151:1270   */\n    tag_258:\n        /* \"#utility.yul\":1309:1310   */\n      0x00\n        /* \"#utility.yul\":1334:1387   */\n      tag_261\n        /* \"#utility.yul\":1379:1386   */\n      dup5\n        /* \"#utility.yul\":1370:1376   */\n      dup3\n        /* \"#utility.yul\":1359:1368   */\n      dup6\n        /* \"#utility.yul\":1355:1377   */\n      add\n        /* \"#utility.yul\":1334:1387   */\n      tag_243\n      jump\t// in\n    tag_261:\n        /* \"#utility.yul\":1324:1387   */\n      swap2\n      pop\n        /* \"#utility.yul\":1280:1397   */\n      pop\n        /* \"#utility.yul\":1075:1404   */\n      swap3\n      swap2\n      pop\n      pop\n      jump\t// out\n        /* \"#utility.yul\":1410:2064   */\n    tag_28:\n        /* \"#utility.yul\":1488:1494   */\n      0x00\n        /* \"#utility.yul\":1496:1502   */\n      dup1\n        /* \"#utility.yul\":1545:1547   */\n      0x40\n        /* \"#utility.yul\":1533:1542   */\n      dup4\n        /* \"#utility.yul\":1524:1531   */\n      dup6\n        /* \"#utility.yul\":1520:1543   */\n      sub\n        /* \"#utility.yul\":1516:1548   */\n      slt\n        /* \"#utility.yul\":1513:1632   */\n      iszero\n      tag_263\n      jumpi\n        /* \"#utility.yul\":1551:1630   */\n      tag_264\n      tag_260\n      jump\t// in\n    tag_264:\n        /* \"#utility.yul\":1513:1632   */\n    tag_263:\n        /* \"#utility.yul\":1671:1672   */\n      0x00\n        /* \"#utility.yul\":1696:1749   */\n      tag_265\n        /* \"#utility.yul\":1741:1748   */\n      dup6\n        /* \"#utility.yul\":1732:1738   */\n      dup3\n        /* \"#utility.yul\":1721:1730   */\n      dup7\n        /* \"#utility.yul\":1717:1739   */\n      add\n        /* \"#utility.yul\":1696:1749   */\n      tag_243\n      jump\t// in\n    tag_265:\n        /* \"#utility.yul\":1686:1749   */\n      swap3\n      pop\n        /* \"#utility.yul\":1642:1759   */\n      pop\n        /* \"#utility.yul\":1826:1828   */\n      0x20\n        /* \"#utility.yul\":1815:1824   */\n      dup4\n        /* \"#utility.yul\":1811:1829   */\n      add\n        /* \"#utility.yul\":1798:1830   */\n      calldataload\n        /* \"#utility.yul\":1857:1875   */\n      0xffffffffffffffff\n        /* \"#utility.yul\":1849:1855   */\n      dup2\n        /* \"#utility.yul\":1846:1876   */\n      gt\n        /* \"#utility.yul\":1843:1960   */\n      iszero\n      tag_266\n      jumpi\n        /* \"#utility.yul\":1879:1958   */\n      tag_267\n      tag_268\n      jump\t// in\n    tag_267:\n        /* \"#utility.yul\":1843:1960   */\n    tag_266:\n        /* \"#utility.yul\":1984:2047   */\n      tag_269\n        /* \"#utility.yul\":2039:2046   */\n      dup6\n        /* \"#utility.yul\":2030:2036   */\n      dup3\n        /* \"#utility.yul\":2019:2028   */\n      dup7\n        /* \"#utility.yul\":2015:2037   */\n      add\n        /* \"#utility.yul\":1984:2047   */\n      tag_247\n      jump\t// in\n    tag_269:\n        /* \"#utility.yul\":1974:2047   */\n      swap2\n      pop\n        /* \"#utility.yul\":1769:2057   */\n      pop\n        /* \"#utility.yul\":1410:2064   */\n      swap3\n      pop\n      swap3\n      swap1\n      pop\n      jump\t// out\n        /* \"#utility.yul\":2070:2579   */\n    tag_48:\n        /* \"#utility.yul\":2139:2145   */\n      0x00\n        /* \"#utility.yul\":2188:2190   */\n      0x20\n        /* \"#utility.yul\":2176:2185   */\n      dup3\n        /* \"#utility.yul\":2167:2174   */\n      dup5\n        /* \"#utility.yul\":2163:2186   */\n      sub\n        /* \"#utility.yul\":2159:2191   */\n      slt\n        /* \"#utility.yul\":2156:2275   */\n      iszero\n      tag_271\n      jumpi\n        /* \"#utility.yul\":2194:2273   */\n      tag_272\n      tag_260\n      jump\t// in\n    tag_272:\n        /* \"#utility.yul\":2156:2275   */\n    tag_271:\n        /* \"#utility.yul\":2342:2343   */\n      0x00\n        /* \"#utility.yul\":2331:2340   */\n      dup3\n        /* \"#utility.yul\":2327:2344   */\n      add\n        /* \"#utility.yul\":2314:2345   */\n      calldataload\n        /* \"#utility.yul\":2372:2390   */\n      0xffffffffffffffff\n        /* \"#utility.yul\":2364:2370   */\n      dup2\n        /* \"#utility.yul\":2361:2391   */\n      gt\n        /* \"#utility.yul\":2358:2475   */\n      iszero\n      tag_273\n      jumpi\n        /* \"#utility.yul\":2394:2473   */\n      tag_274\n      tag_268\n      jump\t// in\n    tag_274:\n        /* \"#utility.yul\":2358:2475   */\n    tag_273:\n        /* \"#utility.yul\":2499:2562   */\n      tag_275\n        /* \"#utility.yul\":2554:2561   */\n      dup5\n        /* \"#utility.yul\":2545:2551   */\n      dup3\n        /* \"#utility.yul\":2534:2543   */\n      dup6\n        /* \"#utility.yul\":2530:2552   */\n      add\n        /* \"#utility.yul\":2499:2562   */\n      tag_247\n      jump\t// in\n    tag_275:\n        /* \"#utility.yul\":2489:2562   */\n      swap2\n      pop\n        /* \"#utility.yul\":2285:2572   */\n      pop\n        /* \"#utility.yul\":2070:2579   */\n      swap3\n      swap2\n      pop\n      pop\n      jump\t// out\n        /* \"#utility.yul\":2585:3419   */\n    tag_32:\n        /* \"#utility.yul\":2673:2679   */\n      0x00\n        /* \"#utility.yul\":2681:2687   */\n      dup1\n        /* \"#utility.yul\":2730:2732   */\n      0x40\n        /* \"#utility.yul\":2718:2727   */\n      dup4\n        /* \"#utility.yul\":2709:2716   */\n      dup6\n        /* \"#utility.yul\":2705:2728   */\n      sub\n        /* \"#utility.yul\":2701:2733   */\n      slt\n        /* \"#utility.yul\":2698:2817   */\n      iszero\n      tag_277\n      jumpi\n        /* \"#utility.yul\":2736:2815   */\n      tag_278\n      tag_260\n      jump\t// in\n    tag_278:\n        /* \"#utility.yul\":2698:2817   */\n    tag_277:\n        /* \"#utility.yul\":2884:2885   */\n      0x00\n        /* \"#utility.yul\":2873:2882   */\n      dup4\n        /* \"#utility.yul\":2869:2886   */\n      add\n        /* \"#utility.yul\":2856:2887   */\n      calldataload\n        /* \"#utility.yul\":2914:2932   */\n      0xffffffffffffffff\n        /* \"#utility.yul\":2906:2912   */\n      dup2\n        /* \"#utility.yul\":2903:2933   */\n      gt\n        /* \"#utility.yul\":2900:3017   */\n      iszero\n      tag_279\n      jumpi\n        /* \"#utility.yul\":2936:3015   */\n      tag_280\n      tag_268\n      jump\t// in\n    tag_280:\n        /* \"#utility.yul\":2900:3017   */\n    tag_279:\n        /* \"#utility.yul\":3041:3104   */\n      tag_281\n        /* \"#utility.yul\":3096:3103   */\n      dup6\n        /* \"#utility.yul\":3087:3093   */\n      dup3\n        /* \"#utility.yul\":3076:3085   */\n      dup7\n        /* \"#utility.yul\":3072:3094   */\n      add\n        /* \"#utility.yul\":3041:3104   */\n      tag_247\n      jump\t// in\n    tag_281:\n        /* \"#utility.yul\":3031:3104   */\n      swap3\n      pop\n        /* \"#utility.yul\":2827:3114   */\n      pop\n        /* \"#utility.yul\":3181:3183   */\n      0x20\n        /* \"#utility.yul\":3170:3179   */\n      dup4\n        /* \"#utility.yul\":3166:3184   */\n      add\n        /* \"#utility.yul\":3153:3185   */\n      calldataload\n        /* \"#utility.yul\":3212:3230   */\n      0xffffffffffffffff\n        /* \"#utility.yul\":3204:3210   */\n      dup2\n        /* \"#utility.yul\":3201:3231   */\n      gt\n        /* \"#utility.yul\":3198:3315   */\n      iszero\n      tag_282\n      jumpi\n        /* \"#utility.yul\":3234:3313   */\n      tag_283\n      tag_268\n      jump\t// in\n    tag_283:\n        /* \"#utility.yul\":3198:3315   */\n    tag_282:\n        /* \"#utility.yul\":3339:3402   */\n      tag_284\n        /* \"#utility.yul\":3394:3401   */\n      dup6\n        /* \"#utility.yul\":3385:3391   */\n      dup3\n        /* \"#utility.yul\":3374:3383   */\n      dup7\n        /* \"#utility.yul\":3370:3392   */\n      add\n        /* \"#utility.yul\":3339:3402   */\n      tag_247\n      jump\t// in\n    tag_284:\n        /* \"#utility.yul\":3329:3402   */\n      swap2\n      pop\n        /* \"#utility.yul\":3124:3412   */\n      pop\n        /* \"#utility.yul\":2585:3419   */\n      swap3\n      pop\n      swap3\n      swap1\n      pop\n      jump\t// out\n        /* \"#utility.yul\":3425:3754   */\n    tag_22:\n        /* \"#utility.yul\":3484:3490   */\n      0x00\n        /* \"#utility.yul\":3533:3535   */\n      0x20\n        /* \"#utility.yul\":3521:3530   */\n      dup3\n        /* \"#utility.yul\":3512:3519   */\n      dup5\n        /* \"#utility.yul\":3508:3531   */\n      sub\n        /* \"#utility.yul\":3504:3536   */\n      slt\n        /* \"#utility.yul\":3501:3620   */\n      iszero\n      tag_286\n      jumpi\n        /* \"#utility.yul\":3539:3618   */\n      tag_287\n      tag_260\n      jump\t// in\n    tag_287:\n        /* \"#utility.yul\":3501:3620   */\n    tag_286:\n        /* \"#utility.yul\":3659:3660   */\n      0x00\n        /* \"#utility.yul\":3684:3737   */\n      tag_288\n        /* \"#utility.yul\":3729:3736   */\n      dup5\n        /* \"#utility.yul\":3720:3726   */\n      dup3\n        /* \"#utility.yul\":3709:3718   */\n      dup6\n        /* \"#utility.yul\":3705:3727   */\n      add\n        /* \"#utility.yul\":3684:3737   */\n      tag_253\n      jump\t// in\n    tag_288:\n        /* \"#utility.yul\":3674:3737   */\n      swap2\n      pop\n        /* \"#utility.yul\":3630:3747   */\n      pop\n        /* \"#utility.yul\":3425:3754   */\n      swap3\n      swap2\n      pop\n      pop\n      jump\t// out\n        /* \"#utility.yul\":3760:3956   */\n    tag_289:\n        /* \"#utility.yul\":3849:3859   */\n      0x00\n        /* \"#utility.yul\":3884:3950   */\n      tag_291\n        /* \"#utility.yul\":3946:3949   */\n      dup4\n        /* \"#utility.yul\":3938:3944   */\n      dup4\n        /* \"#utility.yul\":3884:3950   */\n      tag_292\n      jump\t// in\n    tag_291:\n        /* \"#utility.yul\":3870:3950   */\n      swap1\n      pop\n        /* \"#utility.yul\":3760:3956   */\n      swap3\n      swap2\n      pop\n      pop\n      jump\t// out\n        /* \"#utility.yul\":3962:4080   */\n    tag_293:\n        /* \"#utility.yul\":4049:4073   */\n      tag_295\n        /* \"#utility.yul\":4067:4072   */\n      dup2\n        /* \"#utility.yul\":4049:4073   */\n      tag_296\n      jump\t// in\n    tag_295:\n        /* \"#utility.yul\":4044:4047   */\n      dup3\n        /* \"#utility.yul\":4037:4074   */\n      mstore\n        /* \"#utility.yul\":3962:4080   */\n      pop\n      pop\n      jump\t// out\n        /* \"#utility.yul\":4114:5105   */\n    tag_297:\n        /* \"#utility.yul\":4253:4256   */\n      0x00\n        /* \"#utility.yul\":4282:4346   */\n      tag_299\n        /* \"#utility.yul\":4340:4345   */\n      dup3\n        /* \"#utility.yul\":4282:4346   */\n      tag_300\n      jump\t// in\n    tag_299:\n        /* \"#utility.yul\":4362:4458   */\n      tag_301\n        /* \"#utility.yul\":4451:4457   */\n      dup2\n        /* \"#utility.yul\":4446:4449   */\n      dup6\n        /* \"#utility.yul\":4362:4458   */\n      tag_302\n      jump\t// in\n    tag_301:\n        /* \"#utility.yul\":4355:4458   */\n      swap4\n      pop\n        /* \"#utility.yul\":4484:4487   */\n      dup4\n        /* \"#utility.yul\":4529:4533   */\n      0x20\n        /* \"#utility.yul\":4521:4527   */\n      dup3\n        /* \"#utility.yul\":4517:4534   */\n      mul\n        /* \"#utility.yul\":4512:4515   */\n      dup6\n        /* \"#utility.yul\":4508:4535   */\n      add\n        /* \"#utility.yul\":4559:4625   */\n      tag_303\n        /* \"#utility.yul\":4619:4624   */\n      dup6\n        /* \"#utility.yul\":4559:4625   */\n      tag_304\n      jump\t// in\n    tag_303:\n        /* \"#utility.yul\":4648:4655   */\n      dup1\n        /* \"#utility.yul\":4679:4680   */\n      0x00\n        /* \"#utility.yul\":4664:5060   */\n    tag_305:\n        /* \"#utility.yul\":4689:4695   */\n      dup6\n        /* \"#utility.yul\":4686:4687   */\n      dup2\n        /* \"#utility.yul\":4683:4696   */\n      lt\n        /* \"#utility.yul\":4664:5060   */\n      iszero\n      tag_307\n      jumpi\n        /* \"#utility.yul\":4760:4769   */\n      dup5\n        /* \"#utility.yul\":4754:4758   */\n      dup5\n        /* \"#utility.yul\":4750:4770   */\n      sub\n        /* \"#utility.yul\":4745:4748   */\n      dup10\n        /* \"#utility.yul\":4738:4771   */\n      mstore\n        /* \"#utility.yul\":4811:4817   */\n      dup2\n        /* \"#utility.yul\":4805:4818   */\n      mload\n        /* \"#utility.yul\":4839:4923   */\n      tag_308\n        /* \"#utility.yul\":4918:4922   */\n      dup6\n        /* \"#utility.yul\":4903:4916   */\n      dup3\n        /* \"#utility.yul\":4839:4923   */\n      tag_289\n      jump\t// in\n    tag_308:\n        /* \"#utility.yul\":4831:4923   */\n      swap5\n      pop\n        /* \"#utility.yul\":4946:5016   */\n      tag_309\n        /* \"#utility.yul\":5009:5015   */\n      dup4\n        /* \"#utility.yul\":4946:5016   */\n      tag_310\n      jump\t// in\n    tag_309:\n        /* \"#utility.yul\":4936:5016   */\n      swap3\n      pop\n        /* \"#utility.yul\":5045:5049   */\n      0x20\n        /* \"#utility.yul\":5040:5043   */\n      dup11\n        /* \"#utility.yul\":5036:5050   */\n      add\n        /* \"#utility.yul\":5029:5050   */\n      swap10\n      pop\n        /* \"#utility.yul\":4724:5060   */\n      pop\n        /* \"#utility.yul\":4711:4712   */\n      0x01\n        /* \"#utility.yul\":4708:4709   */\n      dup2\n        /* \"#utility.yul\":4704:4713   */\n      add\n        /* \"#utility.yul\":4699:4713   */\n      swap1\n      pop\n        /* \"#utility.yul\":4664:5060   */\n      jump(tag_305)\n    tag_307:\n        /* \"#utility.yul\":4668:4682   */\n      pop\n        /* \"#utility.yul\":5076:5080   */\n      dup3\n        /* \"#utility.yul\":5069:5080   */\n      swap8\n      pop\n        /* \"#utility.yul\":5096:5099   */\n      dup8\n        /* \"#utility.yul\":5089:5099   */\n      swap6\n      pop\n        /* \"#utility.yul\":4258:5105   */\n      pop\n      pop\n      pop\n      pop\n      pop\n        /* \"#utility.yul\":4114:5105   */\n      swap3\n      swap2\n      pop\n      pop\n      jump\t// out\n        /* \"#utility.yul\":5111:5220   */\n    tag_311:\n        /* \"#utility.yul\":5192:5213   */\n      tag_313\n        /* \"#utility.yul\":5207:5212   */\n      dup2\n        /* \"#utility.yul\":5192:5213   */\n      tag_314\n      jump\t// in\n    tag_313:\n        /* \"#utility.yul\":5187:5190   */\n      dup3\n        /* \"#utility.yul\":5180:5214   */\n      mstore\n        /* \"#utility.yul\":5111:5220   */\n      pop\n      pop\n      jump\t// out\n        /* \"#utility.yul\":5226:5570   */\n    tag_292:\n        /* \"#utility.yul\":5304:5307   */\n      0x00\n        /* \"#utility.yul\":5332:5371   */\n      tag_316\n        /* \"#utility.yul\":5365:5370   */\n      dup3\n        /* \"#utility.yul\":5332:5371   */\n      tag_317\n      jump\t// in\n    tag_316:\n        /* \"#utility.yul\":5387:5448   */\n      tag_318\n        /* \"#utility.yul\":5441:5447   */\n      dup2\n        /* \"#utility.yul\":5436:5439   */\n      dup6\n        /* \"#utility.yul\":5387:5448   */\n      tag_319\n      jump\t// in\n    tag_318:\n        /* \"#utility.yul\":5380:5448   */\n      swap4\n      pop\n        /* \"#utility.yul\":5457:5509   */\n      tag_320\n        /* \"#utility.yul\":5502:5508   */\n      dup2\n        /* \"#utility.yul\":5497:5500   */\n      dup6\n        /* \"#utility.yul\":5490:5494   */\n      0x20\n        /* \"#utility.yul\":5483:5488   */\n      dup7\n        /* \"#utility.yul\":5479:5495   */\n      add\n        /* \"#utility.yul\":5457:5509   */\n      tag_321\n      jump\t// in\n    tag_320:\n        /* \"#utility.yul\":5534:5563   */\n      tag_322\n        /* \"#utility.yul\":5556:5562   */\n      dup2\n        /* \"#utility.yul\":5534:5563   */\n      tag_323\n      jump\t// in\n    tag_322:\n        /* \"#utility.yul\":5529:5532   */\n      dup5\n        /* \"#utility.yul\":5525:5564   */\n      add\n        /* \"#utility.yul\":5518:5564   */\n      swap2\n      pop\n        /* \"#utility.yul\":5308:5570   */\n      pop\n        /* \"#utility.yul\":5226:5570   */\n      swap3\n      swap2\n      pop\n      pop\n      jump\t// out\n        /* \"#utility.yul\":5576:5940   */\n    tag_324:\n        /* \"#utility.yul\":5664:5667   */\n      0x00\n        /* \"#utility.yul\":5692:5731   */\n      tag_326\n        /* \"#utility.yul\":5725:5730   */\n      dup3\n        /* \"#utility.yul\":5692:5731   */\n      tag_317\n      jump\t// in\n    tag_326:\n        /* \"#utility.yul\":5747:5818   */\n      tag_327\n        /* \"#utility.yul\":5811:5817   */\n      dup2\n        /* \"#utility.yul\":5806:5809   */\n      dup6\n        /* \"#utility.yul\":5747:5818   */\n      tag_328\n      jump\t// in\n    tag_327:\n        /* \"#utility.yul\":5740:5818   */\n      swap4\n      pop\n        /* \"#utility.yul\":5827:5879   */\n      tag_329\n        /* \"#utility.yul\":5872:5878   */\n      dup2\n        /* \"#utility.yul\":5867:5870   */\n      dup6\n        /* \"#utility.yul\":5860:5864   */\n      0x20\n        /* \"#utility.yul\":5853:5858   */\n      dup7\n        /* \"#utility.yul\":5849:5865   */\n      add\n        /* \"#utility.yul\":5827:5879   */\n      tag_321\n      jump\t// in\n    tag_329:\n        /* \"#utility.yul\":5904:5933   */\n      tag_330\n        /* \"#utility.yul\":5926:5932   */\n      dup2\n        /* \"#utility.yul\":5904:5933   */\n      tag_323\n      jump\t// in\n    tag_330:\n        /* \"#utility.yul\":5899:5902   */\n      dup5\n        /* \"#utility.yul\":5895:5934   */\n      add\n        /* \"#utility.yul\":5888:5934   */\n      swap2\n      pop\n        /* \"#utility.yul\":5668:5940   */\n      pop\n        /* \"#utility.yul\":5576:5940   */\n      swap3\n      swap2\n      pop\n      pop\n      jump\t// out\n        /* \"#utility.yul\":5946:6323   */\n    tag_331:\n        /* \"#utility.yul\":6052:6055   */\n      0x00\n        /* \"#utility.yul\":6080:6119   */\n      tag_333\n        /* \"#utility.yul\":6113:6118   */\n      dup3\n        /* \"#utility.yul\":6080:6119   */\n      tag_317\n      jump\t// in\n    tag_333:\n        /* \"#utility.yul\":6135:6224   */\n      tag_334\n        /* \"#utility.yul\":6217:6223   */\n      dup2\n        /* \"#utility.yul\":6212:6215   */\n      dup6\n        /* \"#utility.yul\":6135:6224   */\n      tag_335\n      jump\t// in\n    tag_334:\n        /* \"#utility.yul\":6128:6224   */\n      swap4\n      pop\n        /* \"#utility.yul\":6233:6285   */\n      tag_336\n        /* \"#utility.yul\":6278:6284   */\n      dup2\n        /* \"#utility.yul\":6273:6276   */\n      dup6\n        /* \"#utility.yul\":6266:6270   */\n      0x20\n        /* \"#utility.yul\":6259:6264   */\n      dup7\n        /* \"#utility.yul\":6255:6271   */\n      add\n        /* \"#utility.yul\":6233:6285   */\n      tag_321\n      jump\t// in\n    tag_336:\n        /* \"#utility.yul\":6310:6316   */\n      dup1\n        /* \"#utility.yul\":6305:6308   */\n      dup5\n        /* \"#utility.yul\":6301:6317   */\n      add\n        /* \"#utility.yul\":6294:6317   */\n      swap2\n      pop\n        /* \"#utility.yul\":6056:6323   */\n      pop\n        /* \"#utility.yul\":5946:6323   */\n      swap3\n      swap2\n      pop\n      pop\n      jump\t// out\n        /* \"#utility.yul\":6329:6695   */\n    tag_337:\n        /* \"#utility.yul\":6471:6474   */\n      0x00\n        /* \"#utility.yul\":6492:6559   */\n      tag_339\n        /* \"#utility.yul\":6556:6558   */\n      0x2f\n        /* \"#utility.yul\":6551:6554   */\n      dup4\n        /* \"#utility.yul\":6492:6559   */\n      tag_328\n      jump\t// in\n    tag_339:\n        /* \"#utility.yul\":6485:6559   */\n      swap2\n      pop\n        /* \"#utility.yul\":6568:6661   */\n      tag_340\n        /* \"#utility.yul\":6657:6660   */\n      dup3\n        /* \"#utility.yul\":6568:6661   */\n      tag_341\n      jump\t// in\n    tag_340:\n        /* \"#utility.yul\":6686:6688   */\n      0x40\n        /* \"#utility.yul\":6681:6684   */\n      dup3\n        /* \"#utility.yul\":6677:6689   */\n      add\n        /* \"#utility.yul\":6670:6689   */\n      swap1\n      pop\n        /* \"#utility.yul\":6329:6695   */\n      swap2\n      swap1\n      pop\n      jump\t// out\n        /* \"#utility.yul\":6701:7067   */\n    tag_342:\n        /* \"#utility.yul\":6843:6846   */\n      0x00\n        /* \"#utility.yul\":6864:6931   */\n      tag_344\n        /* \"#utility.yul\":6928:6930   */\n      0x2f\n        /* \"#utility.yul\":6923:6926   */\n      dup4\n        /* \"#utility.yul\":6864:6931   */\n      tag_328\n      jump\t// in\n    tag_344:\n        /* \"#utility.yul\":6857:6931   */\n      swap2\n      pop\n        /* \"#utility.yul\":6940:7033   */\n      tag_345\n        /* \"#utility.yul\":7029:7032   */\n      dup3\n        /* \"#utility.yul\":6940:7033   */\n      tag_346\n      jump\t// in\n    tag_345:\n        /* \"#utility.yul\":7058:7060   */\n      0x40\n        /* \"#utility.yul\":7053:7056   */\n      dup3\n        /* \"#utility.yul\":7049:7061   */\n      add\n        /* \"#utility.yul\":7042:7061   */\n      swap1\n      pop\n        /* \"#utility.yul\":6701:7067   */\n      swap2\n      swap1\n      pop\n      jump\t// out\n        /* \"#utility.yul\":7073:7473   */\n    tag_347:\n        /* \"#utility.yul\":7233:7236   */\n      0x00\n        /* \"#utility.yul\":7254:7338   */\n      tag_349\n        /* \"#utility.yul\":7336:7337   */\n      0x01\n        /* \"#utility.yul\":7331:7334   */\n      dup4\n        /* \"#utility.yul\":7254:7338   */\n      tag_335\n      jump\t// in\n    tag_349:\n        /* \"#utility.yul\":7247:7338   */\n      swap2\n      pop\n        /* \"#utility.yul\":7347:7440   */\n      tag_350\n        /* \"#utility.yul\":7436:7439   */\n      dup3\n        /* \"#utility.yul\":7347:7440   */\n      tag_351\n      jump\t// in\n    tag_350:\n        /* \"#utility.yul\":7465:7466   */\n      0x01\n        /* \"#utility.yul\":7460:7463   */\n      dup3\n        /* \"#utility.yul\":7456:7467   */\n      add\n        /* \"#utility.yul\":7449:7467   */\n      swap1\n      pop\n        /* \"#utility.yul\":7073:7473   */\n      swap2\n      swap1\n      pop\n      jump\t// out\n        /* \"#utility.yul\":7479:7845   */\n    tag_352:\n        /* \"#utility.yul\":7621:7624   */\n      0x00\n        /* \"#utility.yul\":7642:7709   */\n      tag_354\n        /* \"#utility.yul\":7706:7708   */\n      0x14\n        /* \"#utility.yul\":7701:7704   */\n      dup4\n        /* \"#utility.yul\":7642:7709   */\n      tag_328\n      jump\t// in\n    tag_354:\n        /* \"#utility.yul\":7635:7709   */\n      swap2\n      pop\n        /* \"#utility.yul\":7718:7811   */\n      tag_355\n        /* \"#utility.yul\":7807:7810   */\n      dup3\n        /* \"#utility.yul\":7718:7811   */\n      tag_356\n      jump\t// in\n    tag_355:\n        /* \"#utility.yul\":7836:7838   */\n      0x20\n        /* \"#utility.yul\":7831:7834   */\n      dup3\n        /* \"#utility.yul\":7827:7839   */\n      add\n        /* \"#utility.yul\":7820:7839   */\n      swap1\n      pop\n        /* \"#utility.yul\":7479:7845   */\n      swap2\n      swap1\n      pop\n      jump\t// out\n        /* \"#utility.yul\":7851:8217   */\n    tag_357:\n        /* \"#utility.yul\":7993:7996   */\n      0x00\n        /* \"#utility.yul\":8014:8081   */\n      tag_359\n        /* \"#utility.yul\":8078:8080   */\n      0x1a\n        /* \"#utility.yul\":8073:8076   */\n      dup4\n        /* \"#utility.yul\":8014:8081   */\n      tag_328\n      jump\t// in\n    tag_359:\n        /* \"#utility.yul\":8007:8081   */\n      swap2\n      pop\n        /* \"#utility.yul\":8090:8183   */\n      tag_360\n        /* \"#utility.yul\":8179:8182   */\n      dup3\n        /* \"#utility.yul\":8090:8183   */\n      tag_361\n      jump\t// in\n    tag_360:\n        /* \"#utility.yul\":8208:8210   */\n      0x20\n        /* \"#utility.yul\":8203:8206   */\n      dup3\n        /* \"#utility.yul\":8199:8211   */\n      add\n        /* \"#utility.yul\":8192:8211   */\n      swap1\n      pop\n        /* \"#utility.yul\":7851:8217   */\n      swap2\n      swap1\n      pop\n      jump\t// out\n        /* \"#utility.yul\":8223:8341   */\n    tag_362:\n        /* \"#utility.yul\":8310:8334   */\n      tag_364\n        /* \"#utility.yul\":8328:8333   */\n      dup2\n        /* \"#utility.yul\":8310:8334   */\n      tag_365\n      jump\t// in\n    tag_364:\n        /* \"#utility.yul\":8305:8308   */\n      dup3\n        /* \"#utility.yul\":8298:8335   */\n      mstore\n        /* \"#utility.yul\":8223:8341   */\n      pop\n      pop\n      jump\t// out\n        /* \"#utility.yul\":8347:9048   */\n    tag_110:\n        /* \"#utility.yul\":8628:8631   */\n      0x00\n        /* \"#utility.yul\":8650:8745   */\n      tag_367\n        /* \"#utility.yul\":8741:8744   */\n      dup3\n        /* \"#utility.yul\":8732:8738   */\n      dup6\n        /* \"#utility.yul\":8650:8745   */\n      tag_331\n      jump\t// in\n    tag_367:\n        /* \"#utility.yul\":8643:8745   */\n      swap2\n      pop\n        /* \"#utility.yul\":8762:8910   */\n      tag_368\n        /* \"#utility.yul\":8906:8909   */\n      dup3\n        /* \"#utility.yul\":8762:8910   */\n      tag_347\n      jump\t// in\n    tag_368:\n        /* \"#utility.yul\":8755:8910   */\n      swap2\n      pop\n        /* \"#utility.yul\":8927:9022   */\n      tag_369\n        /* \"#utility.yul\":9018:9021   */\n      dup3\n        /* \"#utility.yul\":9009:9015   */\n      dup5\n        /* \"#utility.yul\":8927:9022   */\n      tag_331\n      jump\t// in\n    tag_369:\n        /* \"#utility.yul\":8920:9022   */\n      swap2\n      pop\n        /* \"#utility.yul\":9039:9042   */\n      dup2\n        /* \"#utility.yul\":9032:9042   */\n      swap1\n      pop\n        /* \"#utility.yul\":8347:9048   */\n      swap4\n      swap3\n      pop\n      pop\n      pop\n      jump\t// out\n        /* \"#utility.yul\":9054:9467   */\n    tag_15:\n        /* \"#utility.yul\":9217:9221   */\n      0x00\n        /* \"#utility.yul\":9255:9257   */\n      0x20\n        /* \"#utility.yul\":9244:9253   */\n      dup3\n        /* \"#utility.yul\":9240:9258   */\n      add\n        /* \"#utility.yul\":9232:9258   */\n      swap1\n      pop\n        /* \"#utility.yul\":9304:9313   */\n      dup2\n        /* \"#utility.yul\":9298:9302   */\n      dup2\n        /* \"#utility.yul\":9294:9314   */\n      sub\n        /* \"#utility.yul\":9290:9291   */\n      0x00\n        /* \"#utility.yul\":9279:9288   */\n      dup4\n        /* \"#utility.yul\":9275:9292   */\n      add\n        /* \"#utility.yul\":9268:9315   */\n      mstore\n        /* \"#utility.yul\":9332:9460   */\n      tag_371\n        /* \"#utility.yul\":9455:9459   */\n      dup2\n        /* \"#utility.yul\":9446:9452   */\n      dup5\n        /* \"#utility.yul\":9332:9460   */\n      tag_297\n      jump\t// in\n    tag_371:\n        /* \"#utility.yul\":9324:9460   */\n      swap1\n      pop\n        /* \"#utility.yul\":9054:9467   */\n      swap3\n      swap2\n      pop\n      pop\n      jump\t// out\n        /* \"#utility.yul\":9473:9786   */\n    tag_35:\n        /* \"#utility.yul\":9586:9590   */\n      0x00\n        /* \"#utility.yul\":9624:9626   */\n      0x20\n        /* \"#utility.yul\":9613:9622   */\n      dup3\n        /* \"#utility.yul\":9609:9627   */\n      add\n        /* \"#utility.yul\":9601:9627   */\n      swap1\n      pop\n        /* \"#utility.yul\":9673:9682   */\n      dup2\n        /* \"#utility.yul\":9667:9671   */\n      dup2\n        /* \"#utility.yul\":9663:9683   */\n      sub\n        /* \"#utility.yul\":9659:9660   */\n      0x00\n        /* \"#utility.yul\":9648:9657   */\n      dup4\n        /* \"#utility.yul\":9644:9661   */\n      add\n        /* \"#utility.yul\":9637:9684   */\n      mstore\n        /* \"#utility.yul\":9701:9779   */\n      tag_373\n        /* \"#utility.yul\":9774:9778   */\n      dup2\n        /* \"#utility.yul\":9765:9771   */\n      dup5\n        /* \"#utility.yul\":9701:9779   */\n      tag_324\n      jump\t// in\n    tag_373:\n        /* \"#utility.yul\":9693:9779   */\n      swap1\n      pop\n        /* \"#utility.yul\":9473:9786   */\n      swap3\n      swap2\n      pop\n      pop\n      jump\t// out\n        /* \"#utility.yul\":9792:10215   */\n    tag_19:\n        /* \"#utility.yul\":9933:9937   */\n      0x00\n        /* \"#utility.yul\":9971:9973   */\n      0x40\n        /* \"#utility.yul\":9960:9969   */\n      dup3\n        /* \"#utility.yul\":9956:9974   */\n      add\n        /* \"#utility.yul\":9948:9974   */\n      swap1\n      pop\n        /* \"#utility.yul\":10020:10029   */\n      dup2\n        /* \"#utility.yul\":10014:10018   */\n      dup2\n        /* \"#utility.yul\":10010:10030   */\n      sub\n        /* \"#utility.yul\":10006:10007   */\n      0x00\n        /* \"#utility.yul\":9995:10004   */\n      dup4\n        /* \"#utility.yul\":9991:10008   */\n      add\n        /* \"#utility.yul\":9984:10031   */\n      mstore\n        /* \"#utility.yul\":10048:10126   */\n      tag_375\n        /* \"#utility.yul\":10121:10125   */\n      dup2\n        /* \"#utility.yul\":10112:10118   */\n      dup6\n        /* \"#utility.yul\":10048:10126   */\n      tag_324\n      jump\t// in\n    tag_375:\n        /* \"#utility.yul\":10040:10126   */\n      swap1\n      pop\n        /* \"#utility.yul\":10136:10208   */\n      tag_376\n        /* \"#utility.yul\":10204:10206   */\n      0x20\n        /* \"#utility.yul\":10193:10202   */\n      dup4\n        /* \"#utility.yul\":10189:10207   */\n      add\n        /* \"#utility.yul\":10180:10186   */\n      dup5\n        /* \"#utility.yul\":10136:10208   */\n      tag_293\n      jump\t// in\n    tag_376:\n        /* \"#utility.yul\":9792:10215   */\n      swap4\n      swap3\n      pop\n      pop\n      pop\n      jump\t// out\n        /* \"#utility.yul\":10221:10730   */\n    tag_41:\n        /* \"#utility.yul\":10378:10382   */\n      0x00\n        /* \"#utility.yul\":10416:10418   */\n      0x60\n        /* \"#utility.yul\":10405:10414   */\n      dup3\n        /* \"#utility.yul\":10401:10419   */\n      add\n        /* \"#utility.yul\":10393:10419   */\n      swap1\n      pop\n        /* \"#utility.yul\":10465:10474   */\n      dup2\n        /* \"#utility.yul\":10459:10463   */\n      dup2\n        /* \"#utility.yul\":10455:10475   */\n      sub\n        /* \"#utility.yul\":10451:10452   */\n      0x00\n        /* \"#utility.yul\":10440:10449   */\n      dup4\n        /* \"#utility.yul\":10436:10453   */\n      add\n        /* \"#utility.yul\":10429:10476   */\n      mstore\n        /* \"#utility.yul\":10493:10571   */\n      tag_378\n        /* \"#utility.yul\":10566:10570   */\n      dup2\n        /* \"#utility.yul\":10557:10563   */\n      dup7\n        /* \"#utility.yul\":10493:10571   */\n      tag_324\n      jump\t// in\n    tag_378:\n        /* \"#utility.yul\":10485:10571   */\n      swap1\n      pop\n        /* \"#utility.yul\":10581:10647   */\n      tag_379\n        /* \"#utility.yul\":10643:10645   */\n      0x20\n        /* \"#utility.yul\":10632:10641   */\n      dup4\n        /* \"#utility.yul\":10628:10646   */\n      add\n        /* \"#utility.yul\":10619:10625   */\n      dup6\n        /* \"#utility.yul\":10581:10647   */\n      tag_311\n      jump\t// in\n    tag_379:\n        /* \"#utility.yul\":10657:10723   */\n      tag_380\n        /* \"#utility.yul\":10719:10721   */\n      0x40\n        /* \"#utility.yul\":10708:10717   */\n      dup4\n        /* \"#utility.yul\":10704:10722   */\n      add\n        /* \"#utility.yul\":10695:10701   */\n      dup5\n        /* \"#utility.yul\":10657:10723   */\n      tag_311\n      jump\t// in\n    tag_380:\n        /* \"#utility.yul\":10221:10730   */\n      swap5\n      swap4\n      pop\n      pop\n      pop\n      pop\n      jump\t// out\n        /* \"#utility.yul\":10736:11159   */\n    tag_25:\n        /* \"#utility.yul\":10877:10881   */\n      0x00\n        /* \"#utility.yul\":10915:10917   */\n      0x40\n        /* \"#utility.yul\":10904:10913   */\n      dup3\n        /* \"#utility.yul\":10900:10918   */\n      add\n        /* \"#utility.yul\":10892:10918   */\n      swap1\n      pop\n        /* \"#utility.yul\":10964:10973   */\n      dup2\n        /* \"#utility.yul\":10958:10962   */\n      dup2\n        /* \"#utility.yul\":10954:10974   */\n      sub\n        /* \"#utility.yul\":10950:10951   */\n      0x00\n        /* \"#utility.yul\":10939:10948   */\n      dup4\n        /* \"#utility.yul\":10935:10952   */\n      add\n        /* \"#utility.yul\":10928:10975   */\n      mstore\n        /* \"#utility.yul\":10992:11070   */\n      tag_382\n        /* \"#utility.yul\":11065:11069   */\n      dup2\n        /* \"#utility.yul\":11056:11062   */\n      dup6\n        /* \"#utility.yul\":10992:11070   */\n      tag_324\n      jump\t// in\n    tag_382:\n        /* \"#utility.yul\":10984:11070   */\n      swap1\n      pop\n        /* \"#utility.yul\":11080:11152   */\n      tag_383\n        /* \"#utility.yul\":11148:11150   */\n      0x20\n        /* \"#utility.yul\":11137:11146   */\n      dup4\n        /* \"#utility.yul\":11133:11151   */\n      add\n        /* \"#utility.yul\":11124:11130   */\n      dup5\n        /* \"#utility.yul\":11080:11152   */\n      tag_362\n      jump\t// in\n    tag_383:\n        /* \"#utility.yul\":10736:11159   */\n      swap4\n      swap3\n      pop\n      pop\n      pop\n      jump\t// out\n        /* \"#utility.yul\":11165:11584   */\n    tag_205:\n        /* \"#utility.yul\":11331:11335   */\n      0x00\n        /* \"#utility.yul\":11369:11371   */\n      0x20\n        /* \"#utility.yul\":11358:11367   */\n      dup3\n        /* \"#utility.yul\":11354:11372   */\n      add\n        /* \"#utility.yul\":11346:11372   */\n      swap1\n      pop\n        /* \"#utility.yul\":11418:11427   */\n      dup2\n        /* \"#utility.yul\":11412:11416   */\n      dup2\n        /* \"#utility.yul\":11408:11428   */\n      sub\n        /* \"#utility.yul\":11404:11405   */\n      0x00\n        /* \"#utility.yul\":11393:11402   */\n      dup4\n        /* \"#utility.yul\":11389:11406   */\n      add\n        /* \"#utility.yul\":11382:11429   */\n      mstore\n        /* \"#utility.yul\":11446:11577   */\n      tag_385\n        /* \"#utility.yul\":11572:11576   */\n      dup2\n        /* \"#utility.yul\":11446:11577   */\n      tag_337\n      jump\t// in\n    tag_385:\n        /* \"#utility.yul\":11438:11577   */\n      swap1\n      pop\n        /* \"#utility.yul\":11165:11584   */\n      swap2\n      swap1\n      pop\n      jump\t// out\n        /* \"#utility.yul\":11590:12009   */\n    tag_102:\n        /* \"#utility.yul\":11756:11760   */\n      0x00\n        /* \"#utility.yul\":11794:11796   */\n      0x20\n        /* \"#utility.yul\":11783:11792   */\n      dup3\n        /* \"#utility.yul\":11779:11797   */\n      add\n        /* \"#utility.yul\":11771:11797   */\n      swap1\n      pop\n        /* \"#utility.yul\":11843:11852   */\n      dup2\n        /* \"#utility.yul\":11837:11841   */\n      dup2\n        /* \"#utility.yul\":11833:11853   */\n      sub\n        /* \"#utility.yul\":11829:11830   */\n      0x00\n        /* \"#utility.yul\":11818:11827   */\n      dup4\n        /* \"#utility.yul\":11814:11831   */\n      add\n        /* \"#utility.yul\":11807:11854   */\n      mstore\n        /* \"#utility.yul\":11871:12002   */\n      tag_387\n        /* \"#utility.yul\":11997:12001   */\n      dup2\n        /* \"#utility.yul\":11871:12002   */\n      tag_342\n      jump\t// in\n    tag_387:\n        /* \"#utility.yul\":11863:12002   */\n      swap1\n      pop\n        /* \"#utility.yul\":11590:12009   */\n      swap2\n      swap1\n      pop\n      jump\t// out\n        /* \"#utility.yul\":12015:12434   */\n    tag_212:\n        /* \"#utility.yul\":12181:12185   */\n      0x00\n        /* \"#utility.yul\":12219:12221   */\n      0x20\n        /* \"#utility.yul\":12208:12217   */\n      dup3\n        /* \"#utility.yul\":12204:12222   */\n      add\n        /* \"#utility.yul\":12196:12222   */\n      swap1\n      pop\n        /* \"#utility.yul\":12268:12277   */\n      dup2\n        /* \"#utility.yul\":12262:12266   */\n      dup2\n        /* \"#utility.yul\":12258:12278   */\n      sub\n        /* \"#utility.yul\":12254:12255   */\n      0x00\n        /* \"#utility.yul\":12243:12252   */\n      dup4\n        /* \"#utility.yul\":12239:12256   */\n      add\n        /* \"#utility.yul\":12232:12279   */\n      mstore\n        /* \"#utility.yul\":12296:12427   */\n      tag_389\n        /* \"#utility.yul\":12422:12426   */\n      dup2\n        /* \"#utility.yul\":12296:12427   */\n      tag_352\n      jump\t// in\n    tag_389:\n        /* \"#utility.yul\":12288:12427   */\n      swap1\n      pop\n        /* \"#utility.yul\":12015:12434   */\n      swap2\n      swap1\n      pop\n      jump\t// out\n        /* \"#utility.yul\":12440:12859   */\n    tag_178:\n        /* \"#utility.yul\":12606:12610   */\n      0x00\n        /* \"#utility.yul\":12644:12646   */\n      0x20\n        /* \"#utility.yul\":12633:12642   */\n      dup3\n        /* \"#utility.yul\":12629:12647   */\n      add\n        /* \"#utility.yul\":12621:12647   */\n      swap1\n      pop\n        /* \"#utility.yul\":12693:12702   */\n      dup2\n        /* \"#utility.yul\":12687:12691   */\n      dup2\n        /* \"#utility.yul\":12683:12703   */\n      sub\n        /* \"#utility.yul\":12679:12680   */\n      0x00\n        /* \"#utility.yul\":12668:12677   */\n      dup4\n        /* \"#utility.yul\":12664:12681   */\n      add\n        /* \"#utility.yul\":12657:12704   */\n      mstore\n        /* \"#utility.yul\":12721:12852   */\n      tag_391\n        /* \"#utility.yul\":12847:12851   */\n      dup2\n        /* \"#utility.yul\":12721:12852   */\n      tag_357\n      jump\t// in\n    tag_391:\n        /* \"#utility.yul\":12713:12852   */\n      swap1\n      pop\n        /* \"#utility.yul\":12440:12859   */\n      swap2\n      swap1\n      pop\n      jump\t// out\n        /* \"#utility.yul\":12865:13386   */\n    tag_45:\n        /* \"#utility.yul\":13028:13032   */\n      0x00\n        /* \"#utility.yul\":13066:13068   */\n      0x60\n        /* \"#utility.yul\":13055:13064   */\n      dup3\n        /* \"#utility.yul\":13051:13069   */\n      add\n        /* \"#utility.yul\":13043:13069   */\n      swap1\n      pop\n        /* \"#utility.yul\":13079:13150   */\n      tag_393\n        /* \"#utility.yul\":13147:13148   */\n      0x00\n        /* \"#utility.yul\":13136:13145   */\n      dup4\n        /* \"#utility.yul\":13132:13149   */\n      add\n        /* \"#utility.yul\":13123:13129   */\n      dup7\n        /* \"#utility.yul\":13079:13150   */\n      tag_362\n      jump\t// in\n    tag_393:\n        /* \"#utility.yul\":13160:13226   */\n      tag_394\n        /* \"#utility.yul\":13222:13224   */\n      0x20\n        /* \"#utility.yul\":13211:13220   */\n      dup4\n        /* \"#utility.yul\":13207:13225   */\n      add\n        /* \"#utility.yul\":13198:13204   */\n      dup6\n        /* \"#utility.yul\":13160:13226   */\n      tag_311\n      jump\t// in\n    tag_394:\n        /* \"#utility.yul\":13273:13282   */\n      dup2\n        /* \"#utility.yul\":13267:13271   */\n      dup2\n        /* \"#utility.yul\":13263:13283   */\n      sub\n        /* \"#utility.yul\":13258:13260   */\n      0x40\n        /* \"#utility.yul\":13247:13256   */\n      dup4\n        /* \"#utility.yul\":13243:13261   */\n      add\n        /* \"#utility.yul\":13236:13284   */\n      mstore\n        /* \"#utility.yul\":13301:13379   */\n      tag_395\n        /* \"#utility.yul\":13374:13378   */\n      dup2\n        /* \"#utility.yul\":13365:13371   */\n      dup5\n        /* \"#utility.yul\":13301:13379   */\n      tag_324\n      jump\t// in\n    tag_395:\n        /* \"#utility.yul\":13293:13379   */\n      swap1\n      pop\n        /* \"#utility.yul\":12865:13386   */\n      swap5\n      swap4\n      pop\n      pop\n      pop\n      pop\n      jump\t// out\n        /* \"#utility.yul\":13392:13521   */\n    tag_237:\n        /* \"#utility.yul\":13426:13432   */\n      0x00\n        /* \"#utility.yul\":13453:13473   */\n      tag_397\n      tag_398\n      jump\t// in\n    tag_397:\n        /* \"#utility.yul\":13443:13473   */\n      swap1\n      pop\n        /* \"#utility.yul\":13482:13515   */\n      tag_399\n        /* \"#utility.yul\":13510:13514   */\n      dup3\n        /* \"#utility.yul\":13502:13508   */\n      dup3\n        /* \"#utility.yul\":13482:13515   */\n      tag_400\n      jump\t// in\n    tag_399:\n        /* \"#utility.yul\":13392:13521   */\n      swap2\n      swap1\n      pop\n      jump\t// out\n        /* \"#utility.yul\":13527:13602   */\n    tag_398:\n        /* \"#utility.yul\":13560:13566   */\n      0x00\n        /* \"#utility.yul\":13593:13595   */\n      0x40\n        /* \"#utility.yul\":13587:13596   */\n      mload\n        /* \"#utility.yul\":13577:13596   */\n      swap1\n      pop\n        /* \"#utility.yul\":13527:13602   */\n      swap1\n      jump\t// out\n        /* \"#utility.yul\":13608:13916   */\n    tag_236:\n        /* \"#utility.yul\":13670:13674   */\n      0x00\n        /* \"#utility.yul\":13760:13778   */\n      0xffffffffffffffff\n        /* \"#utility.yul\":13752:13758   */\n      dup3\n        /* \"#utility.yul\":13749:13779   */\n      gt\n        /* \"#utility.yul\":13746:13802   */\n      iszero\n      tag_403\n      jumpi\n        /* \"#utility.yul\":13782:13800   */\n      tag_404\n      tag_53\n      jump\t// in\n    tag_404:\n        /* \"#utility.yul\":13746:13802   */\n    tag_403:\n        /* \"#utility.yul\":13820:13849   */\n      tag_405\n        /* \"#utility.yul\":13842:13848   */\n      dup3\n        /* \"#utility.yul\":13820:13849   */\n      tag_323\n      jump\t// in\n    tag_405:\n        /* \"#utility.yul\":13812:13849   */\n      swap1\n      pop\n        /* \"#utility.yul\":13904:13908   */\n      0x20\n        /* \"#utility.yul\":13898:13902   */\n      dup2\n        /* \"#utility.yul\":13894:13909   */\n      add\n        /* \"#utility.yul\":13886:13909   */\n      swap1\n      pop\n        /* \"#utility.yul\":13608:13916   */\n      swap2\n      swap1\n      pop\n      jump\t// out\n        /* \"#utility.yul\":13922:14064   */\n    tag_304:\n        /* \"#utility.yul\":13999:14003   */\n      0x00\n        /* \"#utility.yul\":14022:14025   */\n      dup2\n        /* \"#utility.yul\":14014:14025   */\n      swap1\n      pop\n        /* \"#utility.yul\":14052:14056   */\n      0x20\n        /* \"#utility.yul\":14047:14050   */\n      dup3\n        /* \"#utility.yul\":14043:14057   */\n      add\n        /* \"#utility.yul\":14035:14057   */\n      swap1\n      pop\n        /* \"#utility.yul\":13922:14064   */\n      swap2\n      swap1\n      pop\n      jump\t// out\n        /* \"#utility.yul\":14070:14194   */\n    tag_300:\n        /* \"#utility.yul\":14147:14153   */\n      0x00\n        /* \"#utility.yul\":14181:14186   */\n      dup2\n        /* \"#utility.yul\":14175:14187   */\n      mload\n        /* \"#utility.yul\":14165:14187   */\n      swap1\n      pop\n        /* \"#utility.yul\":14070:14194   */\n      swap2\n      swap1\n      pop\n      jump\t// out\n        /* \"#utility.yul\":14200:14299   */\n    tag_317:\n        /* \"#utility.yul\":14252:14258   */\n      0x00\n        /* \"#utility.yul\":14286:14291   */\n      dup2\n        /* \"#utility.yul\":14280:14292   */\n      mload\n        /* \"#utility.yul\":14270:14292   */\n      swap1\n      pop\n        /* \"#utility.yul\":14200:14299   */\n      swap2\n      swap1\n      pop\n      jump\t// out\n        /* \"#utility.yul\":14305:14428   */\n    tag_310:\n        /* \"#utility.yul\":14385:14389   */\n      0x00\n        /* \"#utility.yul\":14417:14421   */\n      0x20\n        /* \"#utility.yul\":14412:14415   */\n      dup3\n        /* \"#utility.yul\":14408:14422   */\n      add\n        /* \"#utility.yul\":14400:14422   */\n      swap1\n      pop\n        /* \"#utility.yul\":14305:14428   */\n      swap2\n      swap1\n      pop\n      jump\t// out\n        /* \"#utility.yul\":14434:14628   */\n    tag_302:\n        /* \"#utility.yul\":14543:14554   */\n      0x00\n        /* \"#utility.yul\":14577:14583   */\n      dup3\n        /* \"#utility.yul\":14572:14575   */\n      dup3\n        /* \"#utility.yul\":14565:14584   */\n      mstore\n        /* \"#utility.yul\":14617:14621   */\n      0x20\n        /* \"#utility.yul\":14612:14615   */\n      dup3\n        /* \"#utility.yul\":14608:14622   */\n      add\n        /* \"#utility.yul\":14593:14622   */\n      swap1\n      pop\n        /* \"#utility.yul\":14434:14628   */\n      swap3\n      swap2\n      pop\n      pop\n      jump\t// out\n        /* \"#utility.yul\":14634:14793   */\n    tag_319:\n        /* \"#utility.yul\":14708:14719   */\n      0x00\n        /* \"#utility.yul\":14742:14748   */\n      dup3\n        /* \"#utility.yul\":14737:14740   */\n      dup3\n        /* \"#utility.yul\":14730:14749   */\n      mstore\n        /* \"#utility.yul\":14782:14786   */\n      0x20\n        /* \"#utility.yul\":14777:14780   */\n      dup3\n        /* \"#utility.yul\":14773:14787   */\n      add\n        /* \"#utility.yul\":14758:14787   */\n      swap1\n      pop\n        /* \"#utility.yul\":14634:14793   */\n      swap3\n      swap2\n      pop\n      pop\n      jump\t// out\n        /* \"#utility.yul\":14799:14968   */\n    tag_328:\n        /* \"#utility.yul\":14883:14894   */\n      0x00\n        /* \"#utility.yul\":14917:14923   */\n      dup3\n        /* \"#utility.yul\":14912:14915   */\n      dup3\n        /* \"#utility.yul\":14905:14924   */\n      mstore\n        /* \"#utility.yul\":14957:14961   */\n      0x20\n        /* \"#utility.yul\":14952:14955   */\n      dup3\n        /* \"#utility.yul\":14948:14962   */\n      add\n        /* \"#utility.yul\":14933:14962   */\n      swap1\n      pop\n        /* \"#utility.yul\":14799:14968   */\n      swap3\n      swap2\n      pop\n      pop\n      jump\t// out\n        /* \"#utility.yul\":14974:15122   */\n    tag_335:\n        /* \"#utility.yul\":15076:15087   */\n      0x00\n        /* \"#utility.yul\":15113:15116   */\n      dup2\n        /* \"#utility.yul\":15098:15116   */\n      swap1\n      pop\n        /* \"#utility.yul\":14974:15122   */\n      swap3\n      swap2\n      pop\n      pop\n      jump\t// out\n        /* \"#utility.yul\":15128:15224   */\n    tag_296:\n        /* \"#utility.yul\":15165:15172   */\n      0x00\n        /* \"#utility.yul\":15194:15218   */\n      tag_415\n        /* \"#utility.yul\":15212:15217   */\n      dup3\n        /* \"#utility.yul\":15194:15218   */\n      tag_416\n      jump\t// in\n    tag_415:\n        /* \"#utility.yul\":15183:15218   */\n      swap1\n      pop\n        /* \"#utility.yul\":15128:15224   */\n      swap2\n      swap1\n      pop\n      jump\t// out\n        /* \"#utility.yul\":15230:15320   */\n    tag_314:\n        /* \"#utility.yul\":15264:15271   */\n      0x00\n        /* \"#utility.yul\":15307:15312   */\n      dup2\n        /* \"#utility.yul\":15300:15313   */\n      iszero\n        /* \"#utility.yul\":15293:15314   */\n      iszero\n        /* \"#utility.yul\":15282:15314   */\n      swap1\n      pop\n        /* \"#utility.yul\":15230:15320   */\n      swap2\n      swap1\n      pop\n      jump\t// out\n        /* \"#utility.yul\":15326:15452   */\n    tag_416:\n        /* \"#utility.yul\":15363:15370   */\n      0x00\n        /* \"#utility.yul\":15403:15445   */\n      0xffffffffffffffffffffffffffffffffffffffff\n        /* \"#utility.yul\":15396:15401   */\n      dup3\n        /* \"#utility.yul\":15392:15446   */\n      and\n        /* \"#utility.yul\":15381:15446   */\n      swap1\n      pop\n        /* \"#utility.yul\":15326:15452   */\n      swap2\n      swap1\n      pop\n      jump\t// out\n        /* \"#utility.yul\":15458:15535   */\n    tag_365:\n        /* \"#utility.yul\":15495:15502   */\n      0x00\n        /* \"#utility.yul\":15524:15529   */\n      dup2\n        /* \"#utility.yul\":15513:15529   */\n      swap1\n      pop\n        /* \"#utility.yul\":15458:15535   */\n      swap2\n      swap1\n      pop\n      jump\t// out\n        /* \"#utility.yul\":15541:15695   */\n    tag_242:\n        /* \"#utility.yul\":15625:15631   */\n      dup3\n        /* \"#utility.yul\":15620:15623   */\n      dup2\n        /* \"#utility.yul\":15615:15618   */\n      dup4\n        /* \"#utility.yul\":15602:15632   */\n      calldatacopy\n        /* \"#utility.yul\":15687:15688   */\n      0x00\n        /* \"#utility.yul\":15678:15684   */\n      dup4\n        /* \"#utility.yul\":15673:15676   */\n      dup4\n        /* \"#utility.yul\":15669:15685   */\n      add\n        /* \"#utility.yul\":15662:15689   */\n      mstore\n        /* \"#utility.yul\":15541:15695   */\n      pop\n      pop\n      pop\n      jump\t// out\n        /* \"#utility.yul\":15701:16008   */\n    tag_321:\n        /* \"#utility.yul\":15769:15770   */\n      0x00\n        /* \"#utility.yul\":15779:15892   */\n    tag_422:\n        /* \"#utility.yul\":15793:15799   */\n      dup4\n        /* \"#utility.yul\":15790:15791   */\n      dup2\n        /* \"#utility.yul\":15787:15800   */\n      lt\n        /* \"#utility.yul\":15779:15892   */\n      iszero\n      tag_424\n      jumpi\n        /* \"#utility.yul\":15878:15879   */\n      dup1\n        /* \"#utility.yul\":15873:15876   */\n      dup3\n        /* \"#utility.yul\":15869:15880   */\n      add\n        /* \"#utility.yul\":15863:15881   */\n      mload\n        /* \"#utility.yul\":15859:15860   */\n      dup2\n        /* \"#utility.yul\":15854:15857   */\n      dup5\n        /* \"#utility.yul\":15850:15861   */\n      add\n        /* \"#utility.yul\":15843:15882   */\n      mstore\n        /* \"#utility.yul\":15815:15817   */\n      0x20\n        /* \"#utility.yul\":15812:15813   */\n      dup2\n        /* \"#utility.yul\":15808:15818   */\n      add\n        /* \"#utility.yul\":15803:15818   */\n      swap1\n      pop\n        /* \"#utility.yul\":15779:15892   */\n      jump(tag_422)\n    tag_424:\n        /* \"#utility.yul\":15910:15916   */\n      dup4\n        /* \"#utility.yul\":15907:15908   */\n      dup2\n        /* \"#utility.yul\":15904:15917   */\n      gt\n        /* \"#utility.yul\":15901:16002   */\n      iszero\n      tag_425\n      jumpi\n        /* \"#utility.yul\":15990:15991   */\n      0x00\n        /* \"#utility.yul\":15981:15987   */\n      dup5\n        /* \"#utility.yul\":15976:15979   */\n      dup5\n        /* \"#utility.yul\":15972:15988   */\n      add\n        /* \"#utility.yul\":15965:15992   */\n      mstore\n        /* \"#utility.yul\":15901:16002   */\n    tag_425:\n        /* \"#utility.yul\":15750:16008   */\n      pop\n        /* \"#utility.yul\":15701:16008   */\n      pop\n      pop\n      pop\n      jump\t// out\n        /* \"#utility.yul\":16014:16334   */\n    tag_64:\n        /* \"#utility.yul\":16058:16064   */\n      0x00\n        /* \"#utility.yul\":16095:16096   */\n      0x02\n        /* \"#utility.yul\":16089:16093   */\n      dup3\n        /* \"#utility.yul\":16085:16097   */\n      div\n        /* \"#utility.yul\":16075:16097   */\n      swap1\n      pop\n        /* \"#utility.yul\":16142:16143   */\n      0x01\n        /* \"#utility.yul\":16136:16140   */\n      dup3\n        /* \"#utility.yul\":16132:16144   */\n      and\n        /* \"#utility.yul\":16163:16181   */\n      dup1\n        /* \"#utility.yul\":16153:16234   */\n      tag_427\n      jumpi\n        /* \"#utility.yul\":16219:16223   */\n      0x7f\n        /* \"#utility.yul\":16211:16217   */\n      dup3\n        /* \"#utility.yul\":16207:16224   */\n      and\n        /* \"#utility.yul\":16197:16224   */\n      swap2\n      pop\n        /* \"#utility.yul\":16153:16234   */\n    tag_427:\n        /* \"#utility.yul\":16281:16283   */\n      0x20\n        /* \"#utility.yul\":16273:16279   */\n      dup3\n        /* \"#utility.yul\":16270:16284   */\n      lt\n        /* \"#utility.yul\":16250:16268   */\n      dup2\n        /* \"#utility.yul\":16247:16285   */\n      eq\n        /* \"#utility.yul\":16244:16328   */\n      iszero\n      tag_428\n      jumpi\n        /* \"#utility.yul\":16300:16318   */\n      tag_429\n      tag_430\n      jump\t// in\n    tag_429:\n        /* \"#utility.yul\":16244:16328   */\n    tag_428:\n        /* \"#utility.yul\":16065:16334   */\n      pop\n        /* \"#utility.yul\":16014:16334   */\n      swap2\n      swap1\n      pop\n      jump\t// out\n        /* \"#utility.yul\":16340:16621   */\n    tag_400:\n        /* \"#utility.yul\":16423:16450   */\n      tag_432\n        /* \"#utility.yul\":16445:16449   */\n      dup3\n        /* \"#utility.yul\":16423:16450   */\n      tag_323\n      jump\t// in\n    tag_432:\n        /* \"#utility.yul\":16415:16421   */\n      dup2\n        /* \"#utility.yul\":16411:16451   */\n      add\n        /* \"#utility.yul\":16553:16559   */\n      dup2\n        /* \"#utility.yul\":16541:16551   */\n      dup2\n        /* \"#utility.yul\":16538:16560   */\n      lt\n        /* \"#utility.yul\":16517:16535   */\n      0xffffffffffffffff\n        /* \"#utility.yul\":16505:16515   */\n      dup3\n        /* \"#utility.yul\":16502:16536   */\n      gt\n        /* \"#utility.yul\":16499:16561   */\n      or\n        /* \"#utility.yul\":16496:16584   */\n      iszero\n      tag_433\n      jumpi\n        /* \"#utility.yul\":16564:16582   */\n      tag_434\n      tag_53\n      jump\t// in\n    tag_434:\n        /* \"#utility.yul\":16496:16584   */\n    tag_433:\n        /* \"#utility.yul\":16604:16614   */\n      dup1\n        /* \"#utility.yul\":16600:16602   */\n      0x40\n        /* \"#utility.yul\":16593:16615   */\n      mstore\n        /* \"#utility.yul\":16383:16621   */\n      pop\n        /* \"#utility.yul\":16340:16621   */\n      pop\n      pop\n      jump\t// out\n        /* \"#utility.yul\":16627:16860   */\n    tag_72:\n        /* \"#utility.yul\":16666:16669   */\n      0x00\n        /* \"#utility.yul\":16689:16713   */\n      tag_436\n        /* \"#utility.yul\":16707:16712   */\n      dup3\n        /* \"#utility.yul\":16689:16713   */\n      tag_365\n      jump\t// in\n    tag_436:\n        /* \"#utility.yul\":16680:16713   */\n      swap2\n      pop\n        /* \"#utility.yul\":16735:16801   */\n      0xffffffffffffffffffffffffffffffffffffffffffffffffffffffffffffffff\n        /* \"#utility.yul\":16728:16733   */\n      dup3\n        /* \"#utility.yul\":16725:16802   */\n      eq\n        /* \"#utility.yul\":16722:16825   */\n      iszero\n      tag_437\n      jumpi\n        /* \"#utility.yul\":16805:16823   */\n      tag_438\n      tag_439\n      jump\t// in\n    tag_438:\n        /* \"#utility.yul\":16722:16825   */\n    tag_437:\n        /* \"#utility.yul\":16852:16853   */\n      0x01\n        /* \"#utility.yul\":16845:16850   */\n      dup3\n        /* \"#utility.yul\":16841:16854   */\n      add\n        /* \"#utility.yul\":16834:16854   */\n      swap1\n      pop\n        /* \"#utility.yul\":16627:16860   */\n      swap2\n      swap1\n      pop\n      jump\t// out\n        /* \"#utility.yul\":16866:17046   */\n    tag_439:\n        /* \"#utility.yul\":16914:16991   */\n      0x4e487b7100000000000000000000000000000000000000000000000000000000\n        /* \"#utility.yul\":16911:16912   */\n      0x00\n        /* \"#utility.yul\":16904:16992   */\n      mstore\n        /* \"#utility.yul\":17011:17015   */\n      0x11\n        /* \"#utility.yul\":17008:17009   */\n      0x04\n        /* \"#utility.yul\":17001:17016   */\n      mstore\n        /* \"#utility.yul\":17035:17039   */\n      0x24\n        /* \"#utility.yul\":17032:17033   */\n      0x00\n        /* \"#utility.yul\":17025:17040   */\n      revert\n        /* \"#utility.yul\":17052:17232   */\n    tag_430:\n        /* \"#utility.yul\":17100:17177   */\n      0x4e487b7100000000000000000000000000000000000000000000000000000000\n        /* \"#utility.yul\":17097:17098   */\n      0x00\n        /* \"#utility.yul\":17090:17178   */\n      mstore\n        /* \"#utility.yul\":17197:17201   */\n      0x22\n        /* \"#utility.yul\":17194:17195   */\n      0x04\n        /* \"#utility.yul\":17187:17202   */\n      mstore\n        /* \"#utility.yul\":17221:17225   */\n      0x24\n        /* \"#utility.yul\":17218:17219   */\n      0x00\n        /* \"#utility.yul\":17211:17226   */\n      revert\n        /* \"#utility.yul\":17238:17418   */\n    tag_61:\n        /* \"#utility.yul\":17286:17363   */\n      0x4e487b7100000000000000000000000000000000000000000000000000000000\n        /* \"#utility.yul\":17283:17284   */\n      0x00\n        /* \"#utility.yul\":17276:17364   */\n      mstore\n        /* \"#utility.yul\":17383:17387   */\n      0x32\n        /* \"#utility.yul\":17380:17381   */\n      0x04\n        /* \"#utility.yul\":17373:17388   */\n      mstore\n        /* \"#utility.yul\":17407:17411   */\n      0x24\n        /* \"#utility.yul\":17404:17405   */\n      0x00\n        /* \"#utility.yul\":17397:17412   */\n      revert\n        /* \"#utility.yul\":17424:17604   */\n    tag_53:\n        /* \"#utility.yul\":17472:17549   */\n      0x4e487b7100000000000000000000000000000000000000000000000000000000\n        /* \"#utility.yul\":17469:17470   */\n      0x00\n        /* \"#utility.yul\":17462:17550   */\n      mstore\n        /* \"#utility.yul\":17569:17573   */\n      0x41\n        /* \"#utility.yul\":17566:17567   */\n      0x04\n        /* \"#utility.yul\":17559:17574   */\n      mstore\n        /* \"#utility.yul\":17593:17597   */\n      0x24\n        /* \"#utility.yul\":17590:17591   */\n      0x00\n        /* \"#utility.yul\":17583:17598   */\n      revert\n        /* \"#utility.yul\":17610:17727   */\n    tag_251:\n        /* \"#utility.yul\":17719:17720   */\n      0x00\n        /* \"#utility.yul\":17716:17717   */\n      dup1\n        /* \"#utility.yul\":17709:17721   */\n      revert\n        /* \"#utility.yul\":17733:17850   */\n    tag_240:\n        /* \"#utility.yul\":17842:17843   */\n      0x00\n        /* \"#utility.yul\":17839:17840   */\n      dup1\n        /* \"#utility.yul\":17832:17844   */\n      revert\n        /* \"#utility.yul\":17856:17973   */\n    tag_268:\n        /* \"#utility.yul\":17965:17966   */\n      0x00\n        /* \"#utility.yul\":17962:17963   */\n      dup1\n        /* \"#utility.yul\":17955:17967   */\n      revert\n        /* \"#utility.yul\":17979:18096   */\n    tag_260:\n        /* \"#utility.yul\":18088:18089   */\n      0x00\n        /* \"#utility.yul\":18085:18086   */\n      dup1\n        /* \"#utility.yul\":18078:18090   */\n      revert\n        /* \"#utility.yul\":18102:18204   */\n    tag_323:\n        /* \"#utility.yul\":18143:18149   */\n      0x00\n        /* \"#utility.yul\":18194:18196   */\n      0x1f\n        /* \"#utility.yul\":18190:18197   */\n      not\n        /* \"#utility.yul\":18185:18187   */\n      0x1f\n        /* \"#utility.yul\":18178:18183   */\n      dup4\n        /* \"#utility.yul\":18174:18188   */\n      add\n        /* \"#utility.yul\":18170:18198   */\n      and\n        /* \"#utility.yul\":18160:18198   */\n      swap1\n      pop\n        /* \"#utility.yul\":18102:18204   */\n      swap2\n      swap1\n      pop\n      jump\t// out\n        /* \"#utility.yul\":18210:18444   */\n    tag_341:\n        /* \"#utility.yul\":18350:18384   */\n      0x4d6178206163636f756e7420766f74657320697320726561636865642e204261\n        /* \"#utility.yul\":18346:18347   */\n      0x00\n        /* \"#utility.yul\":18338:18344   */\n      dup3\n        /* \"#utility.yul\":18334:18348   */\n      add\n        /* \"#utility.yul\":18327:18385   */\n      mstore\n        /* \"#utility.yul\":18419:18436   */\n      0x6c6c6f7420697320434c4f5345442e0000000000000000000000000000000000\n        /* \"#utility.yul\":18414:18416   */\n      0x20\n        /* \"#utility.yul\":18406:18412   */\n      dup3\n        /* \"#utility.yul\":18402:18417   */\n      add\n        /* \"#utility.yul\":18395:18437   */\n      mstore\n        /* \"#utility.yul\":18210:18444   */\n      pop\n      jump\t// out\n        /* \"#utility.yul\":18450:18684   */\n    tag_346:\n        /* \"#utility.yul\":18590:18624   */\n      0x4f6e6c792074686520636f6e7472616374206f776e65722063616e2067697665\n        /* \"#utility.yul\":18586:18587   */\n      0x00\n        /* \"#utility.yul\":18578:18584   */\n      dup3\n        /* \"#utility.yul\":18574:18588   */\n      add\n        /* \"#utility.yul\":18567:18625   */\n      mstore\n        /* \"#utility.yul\":18659:18676   */\n      0x20726967687420746f20766f74652e0000000000000000000000000000000000\n        /* \"#utility.yul\":18654:18656   */\n      0x20\n        /* \"#utility.yul\":18646:18652   */\n      dup3\n        /* \"#utility.yul\":18642:18657   */\n      add\n        /* \"#utility.yul\":18635:18677   */\n      mstore\n        /* \"#utility.yul\":18450:18684   */\n      pop\n      jump\t// out\n        /* \"#utility.yul\":18690:18841   */\n    tag_351:\n        /* \"#utility.yul\":18830:18833   */\n      0x2000000000000000000000000000000000000000000000000000000000000000\n        /* \"#utility.yul\":18826:18827   */\n      0x00\n        /* \"#utility.yul\":18818:18824   */\n      dup3\n        /* \"#utility.yul\":18814:18828   */\n      add\n        /* \"#utility.yul\":18807:18834   */\n      mstore\n        /* \"#utility.yul\":18690:18841   */\n      pop\n      jump\t// out\n        /* \"#utility.yul\":18847:19017   */\n    tag_356:\n        /* \"#utility.yul\":18987:19009   */\n      0x566f74657220616c726561647920766f7465642e000000000000000000000000\n        /* \"#utility.yul\":18983:18984   */\n      0x00\n        /* \"#utility.yul\":18975:18981   */\n      dup3\n        /* \"#utility.yul\":18971:18985   */\n      add\n        /* \"#utility.yul\":18964:19010   */\n      mstore\n        /* \"#utility.yul\":18847:19017   */\n      pop\n      jump\t// out\n        /* \"#utility.yul\":19023:19199   */\n    tag_361:\n        /* \"#utility.yul\":19163:19191   */\n      0x596f752068617665206e6f7420726967687420746f20766f7465000000000000\n        /* \"#utility.yul\":19159:19160   */\n      0x00\n        /* \"#utility.yul\":19151:19157   */\n      dup3\n        /* \"#utility.yul\":19147:19161   */\n      add\n        /* \"#utility.yul\":19140:19192   */\n      mstore\n        /* \"#utility.yul\":19023:19199   */\n      pop\n      jump\t// out\n        /* \"#utility.yul\":19205:19327   */\n    tag_246:\n        /* \"#utility.yul\":19278:19302   */\n      tag_455\n        /* \"#utility.yul\":19296:19301   */\n      dup2\n        /* \"#utility.yul\":19278:19302   */\n      tag_296\n      jump\t// in\n    tag_455:\n        /* \"#utility.yul\":19271:19276   */\n      dup2\n        /* \"#utility.yul\":19268:19303   */\n      eq\n        /* \"#utility.yul\":19258:19321   */\n      tag_456\n      jumpi\n        /* \"#utility.yul\":19317:19318   */\n      0x00\n        /* \"#utility.yul\":19314:19315   */\n      dup1\n        /* \"#utility.yul\":19307:19319   */\n      revert\n        /* \"#utility.yul\":19258:19321   */\n    tag_456:\n        /* \"#utility.yul\":19205:19327   */\n      pop\n      jump\t// out\n        /* \"#utility.yul\":19333:19455   */\n    tag_256:\n        /* \"#utility.yul\":19406:19430   */\n      tag_458\n        /* \"#utility.yul\":19424:19429   */\n      dup2\n        /* \"#utility.yul\":19406:19430   */\n      tag_365\n      jump\t// in\n    tag_458:\n        /* \"#utility.yul\":19399:19404   */\n      dup2\n        /* \"#utility.yul\":19396:19431   */\n      eq\n        /* \"#utility.yul\":19386:19449   */\n      tag_459\n      jumpi\n        /* \"#utility.yul\":19445:19446   */\n      0x00\n        /* \"#utility.yul\":19442:19443   */\n      dup1\n        /* \"#utility.yul\":19435:19447   */\n      revert\n        /* \"#utility.yul\":19386:19449   */\n    tag_459:\n        /* \"#utility.yul\":19333:19455   */\n      pop\n      jump\t// out\n    stop\n    data_2acf605e5cd1b7b0e6ec2502e1f86c81c25a2363f294a2e9f46595fbaefb5b6c 5468657265206973206120746965206f6e2042616c6c6f742e20596f752073686f756c642073746172742061206e65772062616c6c6f742077697468207469652063616e646964617465733a\n\n    auxdata: 0xa2646970667358221220acea4f109575c9822470920b3b77273393008a6ead5a08bfd3100ec34bf0279664736f6c63430008070033\n}\n",
				"bytecode": {
					"linkReferences": {},
					"object": "60806040523480156200001157600080fd5b50604051620020283803806200202883398181016040528101906200003791906200035b565b336000806101000a81548173ffffffffffffffffffffffffffffffffffffffff021916908373ffffffffffffffffffffffffffffffffffffffff16021790555062000088826200009760201b60201c565b80600481905550505062000649565b60005b8151811015620001435760026040518060400160405280848481518110620000c757620000c6620005a7565b5b602002602001015181526020016000815250908060018154018082558091505060019003906000526020600020906002020160009091909190915060008201518160000190805190602001906200012092919062000147565b5060208201518160010155505080806200013a90620004fb565b9150506200009a565b5050565b82805462000155906200048f565b90600052602060002090601f016020900481019282620001795760008555620001c5565b82601f106200019457805160ff1916838001178555620001c5565b82800160010185558215620001c5579182015b82811115620001c4578251825591602001919060010190620001a7565b5b509050620001d49190620001d8565b5090565b5b80821115620001f3576000816000905550600101620001d9565b5090565b60006200020e6200020884620003ea565b620003c1565b905080838252602082019050828560208602820111156200023457620002336200060a565b5b60005b858110156200028957815167ffffffffffffffff8111156200025e576200025d62000605565b5b8086016200026d898262000311565b8552602085019450602084019350505060018101905062000237565b5050509392505050565b6000620002aa620002a48462000419565b620003c1565b905082815260208101848484011115620002c957620002c86200060f565b5b620002d684828562000459565b509392505050565b600082601f830112620002f657620002f562000605565b5b815162000308848260208601620001f7565b91505092915050565b600082601f83011262000329576200032862000605565b5b81516200033b84826020860162000293565b91505092915050565b60008151905062000355816200062f565b92915050565b6000806040838503121562000375576200037462000619565b5b600083015167ffffffffffffffff81111562000396576200039562000614565b5b620003a485828601620002de565b9250506020620003b78582860162000344565b9150509250929050565b6000620003cd620003e0565b9050620003db8282620004c5565b919050565b6000604051905090565b600067ffffffffffffffff821115620004085762000407620005d6565b5b602082029050602081019050919050565b600067ffffffffffffffff821115620004375762000436620005d6565b5b62000442826200061e565b9050602081019050919050565b6000819050919050565b60005b83811015620004795780820151818401526020810190506200045c565b8381111562000489576000848401525b50505050565b60006002820490506001821680620004a857607f821691505b60208210811415620004bf57620004be62000578565b5b50919050565b620004d0826200061e565b810181811067ffffffffffffffff82111715620004f257620004f1620005d6565b5b80604052505050565b600062000508826200044f565b91507fffffffffffffffffffffffffffffffffffffffffffffffffffffffffffffffff8214156200053e576200053d62000549565b5b600182019050919050565b7f4e487b7100000000000000000000000000000000000000000000000000000000600052601160045260246000fd5b7f4e487b7100000000000000000000000000000000000000000000000000000000600052602260045260246000fd5b7f4e487b7100000000000000000000000000000000000000000000000000000000600052603260045260246000fd5b7f4e487b7100000000000000000000000000000000000000000000000000000000600052604160045260246000fd5b600080fd5b600080fd5b600080fd5b600080fd5b600080fd5b6000601f19601f8301169050919050565b6200063a816200044f565b81146200064657600080fd5b50565b6119cf80620006596000396000f3fe608060405234801561001057600080fd5b50600436106100885760003560e01c80637a36b3ee1161005b5780637a36b3ee14610117578063a3ec138d14610147578063f927cc2914610179578063fc36e15b1461019957610088565b8063011d10231461008d5780632bfda515146100ab5780633477ee2e146100ca57806368957b20146100fb575b600080fd5b6100956101b5565b6040516100a29190611388565b60405180910390f35b6100b3610306565b6040516100c19291906113cc565b60405180910390f35b6100e460048036038101906100df9190611124565b61044c565b6040516100f292919061143a565b60405180910390f35b61011560048036038101906101109190611007565b610508565b005b610131600480360381019061012c91906110ac565b610617565b60405161013e91906113aa565b60405180910390f35b610161600480360381019061015c9190610fda565b610643565b604051610170939291906113fc565b60405180910390f35b61018161070f565b604051610190939291906114ea565b60405180910390f35b6101b360048036038101906101ae9190611063565b610a9d565b005b60606000600280549050905060008167ffffffffffffffff8111156101dd576101dc6117b2565b5b60405190808252806020026020018201604052801561021057816020015b60608152602001906001900390816101fb5790505b50905060005b828110156102fd576002818154811061023257610231611783565b5b9060005260206000209060020201600001805461024e90611679565b80601f016020809104026020016040519081016040528092919081815260200182805461027a90611679565b80156102c75780601f1061029c576101008083540402835291602001916102c7565b820191906000526020600020905b8154815290600101906020018083116102aa57829003601f168201915b50505050508282815181106102df576102de611783565b5b602002602001018190525080806102f5906116dc565b915050610216565b50809250505090565b606060008060008061031661070f565b92509250925060006103406040518060800160405280604c815260200161194e604c913983610617565b905082158190610386576040517f08c379a000000000000000000000000000000000000000000000000000000000815260040161037d91906113aa565b60405180910390fd5b506002848154811061039b5761039a611783565b5b906000526020600020906002020160000180546103b790611679565b80601f01602080910402602001604051908101604052809291908181526020018280546103e390611679565b80156104305780601f1061040557610100808354040283529160200191610430565b820191906000526020600020905b81548152906001019060200180831161041357829003601f168201915b5050505050955085610440610c8f565b95509550505050509091565b6002818154811061045c57600080fd5b906000526020600020906002020160009150905080600001805461047f90611679565b80601f01602080910402602001604051908101604052809291908181526020018280546104ab90611679565b80156104f85780601f106104cd576101008083540402835291602001916104f8565b820191906000526020600020905b8154815290600101906020018083116104db57829003601f168201915b5050505050908060010154905082565b81610511610c97565b610519610cdf565b610558576040517f08c379a000000000000000000000000000000000000000000000000000000000815260040161054f9061148a565b60405180910390fd5b61056181610d36565b81600160008573ffffffffffffffffffffffffffffffffffffffff1673ffffffffffffffffffffffffffffffffffffffff16815260200190815260200160002060000190805190602001906105b7929190610e9d565b5060018060008573ffffffffffffffffffffffffffffffffffffffff1673ffffffffffffffffffffffffffffffffffffffff16815260200190815260200160002060010160006101000a81548160ff021916908315150217905550505050565b6060828260405160200161062c929190611359565b604051602081830303815290604052905092915050565b600160205280600052604060002060009150905080600001805461066690611679565b80601f016020809104026020016040519081016040528092919081815260200182805461069290611679565b80156106df5780601f106106b4576101008083540402835291602001916106df565b820191906000526020600020905b8154815290600101906020018083116106c257829003601f168201915b5050505050908060010160009054906101000a900460ff16908060010160019054906101000a900460ff16905083565b6000806060600080600280549050905060008167ffffffffffffffff81111561073b5761073a6117b2565b5b60405190808252806020026020018201604052801561076e57816020015b60608152602001906001900390816107595790505b50905060008060019050606060005b85811015610a3b57866002828154811061079a57610799611783565b5b906000526020600020906002020160010154111561091b57600281815481106107c6576107c5611783565b5b906000526020600020906002020160010154965080995082156109165760009250600093508567ffffffffffffffff811115610805576108046117b2565b5b60405190808252806020026020018201604052801561083857816020015b60608152602001906001900390816108235790505b5094506002818154811061084f5761084e611783565b5b9060005260206000209060020201600001805461086b90611679565b80601f016020809104026020016040519081016040528092919081815260200182805461089790611679565b80156108e45780601f106108b9576101008083540402835291602001916108e4565b820191906000526020600020905b8154815290600101906020018083116108c757829003601f168201915b50505050508585815181106108fc576108fb611783565b5b60200260200101819052508380610912906116dc565b9450505b610a28565b86600282815481106109305761092f611783565b5b9060005260206000209060020201600101541415610a275760019250600281815481106109605761095f611783565b5b9060005260206000209060020201600001805461097c90611679565b80601f01602080910402602001604051908101604052809291908181526020018280546109a890611679565b80156109f55780601f106109ca576101008083540402835291602001916109f5565b820191906000526020600020905b8154815290600101906020018083116109d857829003601f168201915b5050505050858581518110610a0d57610a0c611783565b5b60200260200101819052508380610a23906116dc565b9450505b5b8080610a33906116dc565b91505061077d565b508115610a895760005b8451811015610a8757610a7282868381518110610a6557610a64611783565b5b6020026020010151610617565b91508080610a7f906116dc565b915050610a45565b505b888282985098509850505050505050909192565b33610aa6610c97565b610aae610d82565b610aed576040517f08c379a0000000000000000000000000000000000000000000000000000000008152600401610ae4906114ca565b60405180910390fd5b610af681610d36565b6000600160003373ffffffffffffffffffffffffffffffffffffffff1673ffffffffffffffffffffffffffffffffffffffff168152602001908152602001600020905060005b600280549050811015610c8957610c0060028281548110610b6057610b5f611783565b5b90600052602060002090600202016000018054610b7c90611679565b80601f0160208091040260200160405190810160405280929190818152602001828054610ba890611679565b8015610bf55780601f10610bca57610100808354040283529160200191610bf5565b820191906000526020600020905b815481529060010190602001808311610bd857829003601f168201915b505050505085610d92565b15610c765760028181548110610c1957610c18611783565b5b90600052602060002090600202016001016000815480929190610c3b906116dc565b919050555060018260010160016101000a81548160ff02191690831515021790555060036000815480929190610c70906116dc565b91905055505b8080610c81906116dc565b915050610b3c565b50505050565b600030905090565b60045460035410610cdd576040517f08c379a0000000000000000000000000000000000000000000000000000000008152600401610cd49061146a565b60405180910390fd5b565b60008060009054906101000a900473ffffffffffffffffffffffffffffffffffffffff1673ffffffffffffffffffffffffffffffffffffffff163373ffffffffffffffffffffffffffffffffffffffff1614905090565b610d3f81610deb565b15610d7f576040517f08c379a0000000000000000000000000000000000000000000000000000000008152600401610d76906114aa565b60405180910390fd5b50565b6000610d8d33610e44565b905090565b600081604051602001610da591906113aa565b6040516020818303038152906040528051906020012083604051602001610dcc91906113aa565b6040516020818303038152906040528051906020012014905092915050565b6000600160008373ffffffffffffffffffffffffffffffffffffffff1673ffffffffffffffffffffffffffffffffffffffff16815260200190815260200160002060010160019054906101000a900460ff169050919050565b6000600160008373ffffffffffffffffffffffffffffffffffffffff1673ffffffffffffffffffffffffffffffffffffffff16815260200190815260200160002060010160009054906101000a900460ff169050919050565b828054610ea990611679565b90600052602060002090601f016020900481019282610ecb5760008555610f12565b82601f10610ee457805160ff1916838001178555610f12565b82800160010185558215610f12579182015b82811115610f11578251825591602001919060010190610ef6565b5b509050610f1f9190610f23565b5090565b5b80821115610f3c576000816000905550600101610f24565b5090565b6000610f53610f4e8461154d565b611528565b905082815260208101848484011115610f6f57610f6e6117e6565b5b610f7a848285611637565b509392505050565b600081359050610f918161191f565b92915050565b600082601f830112610fac57610fab6117e1565b5b8135610fbc848260208601610f40565b91505092915050565b600081359050610fd481611936565b92915050565b600060208284031215610ff057610fef6117f0565b5b6000610ffe84828501610f82565b91505092915050565b6000806040838503121561101e5761101d6117f0565b5b600061102c85828601610f82565b925050602083013567ffffffffffffffff81111561104d5761104c6117eb565b5b61105985828601610f97565b9150509250929050565b600060208284031215611079576110786117f0565b5b600082013567ffffffffffffffff811115611097576110966117eb565b5b6110a384828501610f97565b91505092915050565b600080604083850312156110c3576110c26117f0565b5b600083013567ffffffffffffffff8111156110e1576110e06117eb565b5b6110ed85828601610f97565b925050602083013567ffffffffffffffff81111561110e5761110d6117eb565b5b61111a85828601610f97565b9150509250929050565b60006020828403121561113a576111396117f0565b5b600061114884828501610fc5565b91505092915050565b600061115d83836111f8565b905092915050565b61116e816115ef565b82525050565b600061117f8261158e565b61118981856115b1565b93508360208202850161119b8561157e565b8060005b858110156111d757848403895281516111b88582611151565b94506111c3836115a4565b925060208a0199505060018101905061119f565b50829750879550505050505092915050565b6111f281611601565b82525050565b600061120382611599565b61120d81856115c2565b935061121d818560208601611646565b611226816117f5565b840191505092915050565b600061123c82611599565b61124681856115d3565b9350611256818560208601611646565b61125f816117f5565b840191505092915050565b600061127582611599565b61127f81856115e4565b935061128f818560208601611646565b80840191505092915050565b60006112a8602f836115d3565b91506112b382611806565b604082019050919050565b60006112cb602f836115d3565b91506112d682611855565b604082019050919050565b60006112ee6001836115e4565b91506112f9826118a4565b600182019050919050565b60006113116014836115d3565b915061131c826118cd565b602082019050919050565b6000611334601a836115d3565b915061133f826118f6565b602082019050919050565b6113538161162d565b82525050565b6000611365828561126a565b9150611370826112e1565b915061137c828461126a565b91508190509392505050565b600060208201905081810360008301526113a28184611174565b905092915050565b600060208201905081810360008301526113c48184611231565b905092915050565b600060408201905081810360008301526113e68185611231565b90506113f56020830184611165565b9392505050565b600060608201905081810360008301526114168186611231565b905061142560208301856111e9565b61143260408301846111e9565b949350505050565b600060408201905081810360008301526114548185611231565b9050611463602083018461134a565b9392505050565b600060208201905081810360008301526114838161129b565b9050919050565b600060208201905081810360008301526114a3816112be565b9050919050565b600060208201905081810360008301526114c381611304565b9050919050565b600060208201905081810360008301526114e381611327565b9050919050565b60006060820190506114ff600083018661134a565b61150c60208301856111e9565b818103604083015261151e8184611231565b9050949350505050565b6000611532611543565b905061153e82826116ab565b919050565b6000604051905090565b600067ffffffffffffffff821115611568576115676117b2565b5b611571826117f5565b9050602081019050919050565b6000819050602082019050919050565b600081519050919050565b600081519050919050565b6000602082019050919050565b600082825260208201905092915050565b600082825260208201905092915050565b600082825260208201905092915050565b600081905092915050565b60006115fa8261160d565b9050919050565b60008115159050919050565b600073ffffffffffffffffffffffffffffffffffffffff82169050919050565b6000819050919050565b82818337600083830152505050565b60005b83811015611664578082015181840152602081019050611649565b83811115611673576000848401525b50505050565b6000600282049050600182168061169157607f821691505b602082108114156116a5576116a4611754565b5b50919050565b6116b4826117f5565b810181811067ffffffffffffffff821117156116d3576116d26117b2565b5b80604052505050565b60006116e78261162d565b91507fffffffffffffffffffffffffffffffffffffffffffffffffffffffffffffffff82141561171a57611719611725565b5b600182019050919050565b7f4e487b7100000000000000000000000000000000000000000000000000000000600052601160045260246000fd5b7f4e487b7100000000000000000000000000000000000000000000000000000000600052602260045260246000fd5b7f4e487b7100000000000000000000000000000000000000000000000000000000600052603260045260246000fd5b7f4e487b7100000000000000000000000000000000000000000000000000000000600052604160045260246000fd5b600080fd5b600080fd5b600080fd5b600080fd5b6000601f19601f8301169050919050565b7f4d6178206163636f756e7420766f74657320697320726561636865642e20426160008201527f6c6c6f7420697320434c4f5345442e0000000000000000000000000000000000602082015250565b7f4f6e6c792074686520636f6e7472616374206f776e65722063616e206769766560008201527f20726967687420746f20766f74652e0000000000000000000000000000000000602082015250565b7f2000000000000000000000000000000000000000000000000000000000000000600082015250565b7f566f74657220616c726561647920766f7465642e000000000000000000000000600082015250565b7f596f752068617665206e6f7420726967687420746f20766f7465000000000000600082015250565b611928816115ef565b811461193357600080fd5b50565b61193f8161162d565b811461194a57600080fd5b5056fe5468657265206973206120746965206f6e2042616c6c6f742e20596f752073686f756c642073746172742061206e65772062616c6c6f742077697468207469652063616e646964617465733aa2646970667358221220acea4f109575c9822470920b3b77273393008a6ead5a08bfd3100ec34bf0279664736f6c63430008070033",
					"opcodes": "PUSH1 0x80 PUSH1 0x40 MSTORE CALLVALUE DUP1 ISZERO PUSH3 0x11 JUMPI PUSH1 0x0 DUP1 REVERT JUMPDEST POP PUSH1 0x40 MLOAD PUSH3 0x2028 CODESIZE SUB DUP1 PUSH3 0x2028 DUP4 CODECOPY DUP2 DUP2 ADD PUSH1 0x40 MSTORE DUP2 ADD SWAP1 PUSH3 0x37 SWAP2 SWAP1 PUSH3 0x35B JUMP JUMPDEST CALLER PUSH1 0x0 DUP1 PUSH2 0x100 EXP DUP2 SLOAD DUP2 PUSH20 0xFFFFFFFFFFFFFFFFFFFFFFFFFFFFFFFFFFFFFFFF MUL NOT AND SWAP1 DUP4 PUSH20 0xFFFFFFFFFFFFFFFFFFFFFFFFFFFFFFFFFFFFFFFF AND MUL OR SWAP1 SSTORE POP PUSH3 0x88 DUP3 PUSH3 0x97 PUSH1 0x20 SHL PUSH1 0x20 SHR JUMP JUMPDEST DUP1 PUSH1 0x4 DUP2 SWAP1 SSTORE POP POP POP PUSH3 0x649 JUMP JUMPDEST PUSH1 0x0 JUMPDEST DUP2 MLOAD DUP2 LT ISZERO PUSH3 0x143 JUMPI PUSH1 0x2 PUSH1 0x40 MLOAD DUP1 PUSH1 0x40 ADD PUSH1 0x40 MSTORE DUP1 DUP5 DUP5 DUP2 MLOAD DUP2 LT PUSH3 0xC7 JUMPI PUSH3 0xC6 PUSH3 0x5A7 JUMP JUMPDEST JUMPDEST PUSH1 0x20 MUL PUSH1 0x20 ADD ADD MLOAD DUP2 MSTORE PUSH1 0x20 ADD PUSH1 0x0 DUP2 MSTORE POP SWAP1 DUP1 PUSH1 0x1 DUP2 SLOAD ADD DUP1 DUP3 SSTORE DUP1 SWAP2 POP POP PUSH1 0x1 SWAP1 SUB SWAP1 PUSH1 0x0 MSTORE PUSH1 0x20 PUSH1 0x0 KECCAK256 SWAP1 PUSH1 0x2 MUL ADD PUSH1 0x0 SWAP1 SWAP2 SWAP1 SWAP2 SWAP1 SWAP2 POP PUSH1 0x0 DUP3 ADD MLOAD DUP2 PUSH1 0x0 ADD SWAP1 DUP1 MLOAD SWAP1 PUSH1 0x20 ADD SWAP1 PUSH3 0x120 SWAP3 SWAP2 SWAP1 PUSH3 0x147 JUMP JUMPDEST POP PUSH1 0x20 DUP3 ADD MLOAD DUP2 PUSH1 0x1 ADD SSTORE POP POP DUP1 DUP1 PUSH3 0x13A SWAP1 PUSH3 0x4FB JUMP JUMPDEST SWAP2 POP POP PUSH3 0x9A JUMP JUMPDEST POP POP JUMP JUMPDEST DUP3 DUP1 SLOAD PUSH3 0x155 SWAP1 PUSH3 0x48F JUMP JUMPDEST SWAP1 PUSH1 0x0 MSTORE PUSH1 0x20 PUSH1 0x0 KECCAK256 SWAP1 PUSH1 0x1F ADD PUSH1 0x20 SWAP1 DIV DUP2 ADD SWAP3 DUP3 PUSH3 0x179 JUMPI PUSH1 0x0 DUP6 SSTORE PUSH3 0x1C5 JUMP JUMPDEST DUP3 PUSH1 0x1F LT PUSH3 0x194 JUMPI DUP1 MLOAD PUSH1 0xFF NOT AND DUP4 DUP1 ADD OR DUP6 SSTORE PUSH3 0x1C5 JUMP JUMPDEST DUP3 DUP1 ADD PUSH1 0x1 ADD DUP6 SSTORE DUP3 ISZERO PUSH3 0x1C5 JUMPI SWAP2 DUP3 ADD JUMPDEST DUP3 DUP2 GT ISZERO PUSH3 0x1C4 JUMPI DUP3 MLOAD DUP3 SSTORE SWAP2 PUSH1 0x20 ADD SWAP2 SWAP1 PUSH1 0x1 ADD SWAP1 PUSH3 0x1A7 JUMP JUMPDEST JUMPDEST POP SWAP1 POP PUSH3 0x1D4 SWAP2 SWAP1 PUSH3 0x1D8 JUMP JUMPDEST POP SWAP1 JUMP JUMPDEST JUMPDEST DUP1 DUP3 GT ISZERO PUSH3 0x1F3 JUMPI PUSH1 0x0 DUP2 PUSH1 0x0 SWAP1 SSTORE POP PUSH1 0x1 ADD PUSH3 0x1D9 JUMP JUMPDEST POP SWAP1 JUMP JUMPDEST PUSH1 0x0 PUSH3 0x20E PUSH3 0x208 DUP5 PUSH3 0x3EA JUMP JUMPDEST PUSH3 0x3C1 JUMP JUMPDEST SWAP1 POP DUP1 DUP4 DUP3 MSTORE PUSH1 0x20 DUP3 ADD SWAP1 POP DUP3 DUP6 PUSH1 0x20 DUP7 MUL DUP3 ADD GT ISZERO PUSH3 0x234 JUMPI PUSH3 0x233 PUSH3 0x60A JUMP JUMPDEST JUMPDEST PUSH1 0x0 JUMPDEST DUP6 DUP2 LT ISZERO PUSH3 0x289 JUMPI DUP2 MLOAD PUSH8 0xFFFFFFFFFFFFFFFF DUP2 GT ISZERO PUSH3 0x25E JUMPI PUSH3 0x25D PUSH3 0x605 JUMP JUMPDEST JUMPDEST DUP1 DUP7 ADD PUSH3 0x26D DUP10 DUP3 PUSH3 0x311 JUMP JUMPDEST DUP6 MSTORE PUSH1 0x20 DUP6 ADD SWAP5 POP PUSH1 0x20 DUP5 ADD SWAP4 POP POP POP PUSH1 0x1 DUP2 ADD SWAP1 POP PUSH3 0x237 JUMP JUMPDEST POP POP POP SWAP4 SWAP3 POP POP POP JUMP JUMPDEST PUSH1 0x0 PUSH3 0x2AA PUSH3 0x2A4 DUP5 PUSH3 0x419 JUMP JUMPDEST PUSH3 0x3C1 JUMP JUMPDEST SWAP1 POP DUP3 DUP2 MSTORE PUSH1 0x20 DUP2 ADD DUP5 DUP5 DUP5 ADD GT ISZERO PUSH3 0x2C9 JUMPI PUSH3 0x2C8 PUSH3 0x60F JUMP JUMPDEST JUMPDEST PUSH3 0x2D6 DUP5 DUP3 DUP6 PUSH3 0x459 JUMP JUMPDEST POP SWAP4 SWAP3 POP POP POP JUMP JUMPDEST PUSH1 0x0 DUP3 PUSH1 0x1F DUP4 ADD SLT PUSH3 0x2F6 JUMPI PUSH3 0x2F5 PUSH3 0x605 JUMP JUMPDEST JUMPDEST DUP2 MLOAD PUSH3 0x308 DUP5 DUP3 PUSH1 0x20 DUP7 ADD PUSH3 0x1F7 JUMP JUMPDEST SWAP2 POP POP SWAP3 SWAP2 POP POP JUMP JUMPDEST PUSH1 0x0 DUP3 PUSH1 0x1F DUP4 ADD SLT PUSH3 0x329 JUMPI PUSH3 0x328 PUSH3 0x605 JUMP JUMPDEST JUMPDEST DUP2 MLOAD PUSH3 0x33B DUP5 DUP3 PUSH1 0x20 DUP7 ADD PUSH3 0x293 JUMP JUMPDEST SWAP2 POP POP SWAP3 SWAP2 POP POP JUMP JUMPDEST PUSH1 0x0 DUP2 MLOAD SWAP1 POP PUSH3 0x355 DUP2 PUSH3 0x62F JUMP JUMPDEST SWAP3 SWAP2 POP POP JUMP JUMPDEST PUSH1 0x0 DUP1 PUSH1 0x40 DUP4 DUP6 SUB SLT ISZERO PUSH3 0x375 JUMPI PUSH3 0x374 PUSH3 0x619 JUMP JUMPDEST JUMPDEST PUSH1 0x0 DUP4 ADD MLOAD PUSH8 0xFFFFFFFFFFFFFFFF DUP2 GT ISZERO PUSH3 0x396 JUMPI PUSH3 0x395 PUSH3 0x614 JUMP JUMPDEST JUMPDEST PUSH3 0x3A4 DUP6 DUP3 DUP7 ADD PUSH3 0x2DE JUMP JUMPDEST SWAP3 POP POP PUSH1 0x20 PUSH3 0x3B7 DUP6 DUP3 DUP7 ADD PUSH3 0x344 JUMP JUMPDEST SWAP2 POP POP SWAP3 POP SWAP3 SWAP1 POP JUMP JUMPDEST PUSH1 0x0 PUSH3 0x3CD PUSH3 0x3E0 JUMP JUMPDEST SWAP1 POP PUSH3 0x3DB DUP3 DUP3 PUSH3 0x4C5 JUMP JUMPDEST SWAP2 SWAP1 POP JUMP JUMPDEST PUSH1 0x0 PUSH1 0x40 MLOAD SWAP1 POP SWAP1 JUMP JUMPDEST PUSH1 0x0 PUSH8 0xFFFFFFFFFFFFFFFF DUP3 GT ISZERO PUSH3 0x408 JUMPI PUSH3 0x407 PUSH3 0x5D6 JUMP JUMPDEST JUMPDEST PUSH1 0x20 DUP3 MUL SWAP1 POP PUSH1 0x20 DUP2 ADD SWAP1 POP SWAP2 SWAP1 POP JUMP JUMPDEST PUSH1 0x0 PUSH8 0xFFFFFFFFFFFFFFFF DUP3 GT ISZERO PUSH3 0x437 JUMPI PUSH3 0x436 PUSH3 0x5D6 JUMP JUMPDEST JUMPDEST PUSH3 0x442 DUP3 PUSH3 0x61E JUMP JUMPDEST SWAP1 POP PUSH1 0x20 DUP2 ADD SWAP1 POP SWAP2 SWAP1 POP JUMP JUMPDEST PUSH1 0x0 DUP2 SWAP1 POP SWAP2 SWAP1 POP JUMP JUMPDEST PUSH1 0x0 JUMPDEST DUP4 DUP2 LT ISZERO PUSH3 0x479 JUMPI DUP1 DUP3 ADD MLOAD DUP2 DUP5 ADD MSTORE PUSH1 0x20 DUP2 ADD SWAP1 POP PUSH3 0x45C JUMP JUMPDEST DUP4 DUP2 GT ISZERO PUSH3 0x489 JUMPI PUSH1 0x0 DUP5 DUP5 ADD MSTORE JUMPDEST POP POP POP POP JUMP JUMPDEST PUSH1 0x0 PUSH1 0x2 DUP3 DIV SWAP1 POP PUSH1 0x1 DUP3 AND DUP1 PUSH3 0x4A8 JUMPI PUSH1 0x7F DUP3 AND SWAP2 POP JUMPDEST PUSH1 0x20 DUP3 LT DUP2 EQ ISZERO PUSH3 0x4BF JUMPI PUSH3 0x4BE PUSH3 0x578 JUMP JUMPDEST JUMPDEST POP SWAP2 SWAP1 POP JUMP JUMPDEST PUSH3 0x4D0 DUP3 PUSH3 0x61E JUMP JUMPDEST DUP2 ADD DUP2 DUP2 LT PUSH8 0xFFFFFFFFFFFFFFFF DUP3 GT OR ISZERO PUSH3 0x4F2 JUMPI PUSH3 0x4F1 PUSH3 0x5D6 JUMP JUMPDEST JUMPDEST DUP1 PUSH1 0x40 MSTORE POP POP POP JUMP JUMPDEST PUSH1 0x0 PUSH3 0x508 DUP3 PUSH3 0x44F JUMP JUMPDEST SWAP2 POP PUSH32 0xFFFFFFFFFFFFFFFFFFFFFFFFFFFFFFFFFFFFFFFFFFFFFFFFFFFFFFFFFFFFFFFF DUP3 EQ ISZERO PUSH3 0x53E JUMPI PUSH3 0x53D PUSH3 0x549 JUMP JUMPDEST JUMPDEST PUSH1 0x1 DUP3 ADD SWAP1 POP SWAP2 SWAP1 POP JUMP JUMPDEST PUSH32 0x4E487B7100000000000000000000000000000000000000000000000000000000 PUSH1 0x0 MSTORE PUSH1 0x11 PUSH1 0x4 MSTORE PUSH1 0x24 PUSH1 0x0 REVERT JUMPDEST PUSH32 0x4E487B7100000000000000000000000000000000000000000000000000000000 PUSH1 0x0 MSTORE PUSH1 0x22 PUSH1 0x4 MSTORE PUSH1 0x24 PUSH1 0x0 REVERT JUMPDEST PUSH32 0x4E487B7100000000000000000000000000000000000000000000000000000000 PUSH1 0x0 MSTORE PUSH1 0x32 PUSH1 0x4 MSTORE PUSH1 0x24 PUSH1 0x0 REVERT JUMPDEST PUSH32 0x4E487B7100000000000000000000000000000000000000000000000000000000 PUSH1 0x0 MSTORE PUSH1 0x41 PUSH1 0x4 MSTORE PUSH1 0x24 PUSH1 0x0 REVERT JUMPDEST PUSH1 0x0 DUP1 REVERT JUMPDEST PUSH1 0x0 DUP1 REVERT JUMPDEST PUSH1 0x0 DUP1 REVERT JUMPDEST PUSH1 0x0 DUP1 REVERT JUMPDEST PUSH1 0x0 DUP1 REVERT JUMPDEST PUSH1 0x0 PUSH1 0x1F NOT PUSH1 0x1F DUP4 ADD AND SWAP1 POP SWAP2 SWAP1 POP JUMP JUMPDEST PUSH3 0x63A DUP2 PUSH3 0x44F JUMP JUMPDEST DUP2 EQ PUSH3 0x646 JUMPI PUSH1 0x0 DUP1 REVERT JUMPDEST POP JUMP JUMPDEST PUSH2 0x19CF DUP1 PUSH3 0x659 PUSH1 0x0 CODECOPY PUSH1 0x0 RETURN INVALID PUSH1 0x80 PUSH1 0x40 MSTORE CALLVALUE DUP1 ISZERO PUSH2 0x10 JUMPI PUSH1 0x0 DUP1 REVERT JUMPDEST POP PUSH1 0x4 CALLDATASIZE LT PUSH2 0x88 JUMPI PUSH1 0x0 CALLDATALOAD PUSH1 0xE0 SHR DUP1 PUSH4 0x7A36B3EE GT PUSH2 0x5B JUMPI DUP1 PUSH4 0x7A36B3EE EQ PUSH2 0x117 JUMPI DUP1 PUSH4 0xA3EC138D EQ PUSH2 0x147 JUMPI DUP1 PUSH4 0xF927CC29 EQ PUSH2 0x179 JUMPI DUP1 PUSH4 0xFC36E15B EQ PUSH2 0x199 JUMPI PUSH2 0x88 JUMP JUMPDEST DUP1 PUSH4 0x11D1023 EQ PUSH2 0x8D JUMPI DUP1 PUSH4 0x2BFDA515 EQ PUSH2 0xAB JUMPI DUP1 PUSH4 0x3477EE2E EQ PUSH2 0xCA JUMPI DUP1 PUSH4 0x68957B20 EQ PUSH2 0xFB JUMPI JUMPDEST PUSH1 0x0 DUP1 REVERT JUMPDEST PUSH2 0x95 PUSH2 0x1B5 JUMP JUMPDEST PUSH1 0x40 MLOAD PUSH2 0xA2 SWAP2 SWAP1 PUSH2 0x1388 JUMP JUMPDEST PUSH1 0x40 MLOAD DUP1 SWAP2 SUB SWAP1 RETURN JUMPDEST PUSH2 0xB3 PUSH2 0x306 JUMP JUMPDEST PUSH1 0x40 MLOAD PUSH2 0xC1 SWAP3 SWAP2 SWAP1 PUSH2 0x13CC JUMP JUMPDEST PUSH1 0x40 MLOAD DUP1 SWAP2 SUB SWAP1 RETURN JUMPDEST PUSH2 0xE4 PUSH1 0x4 DUP1 CALLDATASIZE SUB DUP2 ADD SWAP1 PUSH2 0xDF SWAP2 SWAP1 PUSH2 0x1124 JUMP JUMPDEST PUSH2 0x44C JUMP JUMPDEST PUSH1 0x40 MLOAD PUSH2 0xF2 SWAP3 SWAP2 SWAP1 PUSH2 0x143A JUMP JUMPDEST PUSH1 0x40 MLOAD DUP1 SWAP2 SUB SWAP1 RETURN JUMPDEST PUSH2 0x115 PUSH1 0x4 DUP1 CALLDATASIZE SUB DUP2 ADD SWAP1 PUSH2 0x110 SWAP2 SWAP1 PUSH2 0x1007 JUMP JUMPDEST PUSH2 0x508 JUMP JUMPDEST STOP JUMPDEST PUSH2 0x131 PUSH1 0x4 DUP1 CALLDATASIZE SUB DUP2 ADD SWAP1 PUSH2 0x12C SWAP2 SWAP1 PUSH2 0x10AC JUMP JUMPDEST PUSH2 0x617 JUMP JUMPDEST PUSH1 0x40 MLOAD PUSH2 0x13E SWAP2 SWAP1 PUSH2 0x13AA JUMP JUMPDEST PUSH1 0x40 MLOAD DUP1 SWAP2 SUB SWAP1 RETURN JUMPDEST PUSH2 0x161 PUSH1 0x4 DUP1 CALLDATASIZE SUB DUP2 ADD SWAP1 PUSH2 0x15C SWAP2 SWAP1 PUSH2 0xFDA JUMP JUMPDEST PUSH2 0x643 JUMP JUMPDEST PUSH1 0x40 MLOAD PUSH2 0x170 SWAP4 SWAP3 SWAP2 SWAP1 PUSH2 0x13FC JUMP JUMPDEST PUSH1 0x40 MLOAD DUP1 SWAP2 SUB SWAP1 RETURN JUMPDEST PUSH2 0x181 PUSH2 0x70F JUMP JUMPDEST PUSH1 0x40 MLOAD PUSH2 0x190 SWAP4 SWAP3 SWAP2 SWAP1 PUSH2 0x14EA JUMP JUMPDEST PUSH1 0x40 MLOAD DUP1 SWAP2 SUB SWAP1 RETURN JUMPDEST PUSH2 0x1B3 PUSH1 0x4 DUP1 CALLDATASIZE SUB DUP2 ADD SWAP1 PUSH2 0x1AE SWAP2 SWAP1 PUSH2 0x1063 JUMP JUMPDEST PUSH2 0xA9D JUMP JUMPDEST STOP JUMPDEST PUSH1 0x60 PUSH1 0x0 PUSH1 0x2 DUP1 SLOAD SWAP1 POP SWAP1 POP PUSH1 0x0 DUP2 PUSH8 0xFFFFFFFFFFFFFFFF DUP2 GT ISZERO PUSH2 0x1DD JUMPI PUSH2 0x1DC PUSH2 0x17B2 JUMP JUMPDEST JUMPDEST PUSH1 0x40 MLOAD SWAP1 DUP1 DUP3 MSTORE DUP1 PUSH1 0x20 MUL PUSH1 0x20 ADD DUP3 ADD PUSH1 0x40 MSTORE DUP1 ISZERO PUSH2 0x210 JUMPI DUP2 PUSH1 0x20 ADD JUMPDEST PUSH1 0x60 DUP2 MSTORE PUSH1 0x20 ADD SWAP1 PUSH1 0x1 SWAP1 SUB SWAP1 DUP2 PUSH2 0x1FB JUMPI SWAP1 POP JUMPDEST POP SWAP1 POP PUSH1 0x0 JUMPDEST DUP3 DUP2 LT ISZERO PUSH2 0x2FD JUMPI PUSH1 0x2 DUP2 DUP2 SLOAD DUP2 LT PUSH2 0x232 JUMPI PUSH2 0x231 PUSH2 0x1783 JUMP JUMPDEST JUMPDEST SWAP1 PUSH1 0x0 MSTORE PUSH1 0x20 PUSH1 0x0 KECCAK256 SWAP1 PUSH1 0x2 MUL ADD PUSH1 0x0 ADD DUP1 SLOAD PUSH2 0x24E SWAP1 PUSH2 0x1679 JUMP JUMPDEST DUP1 PUSH1 0x1F ADD PUSH1 0x20 DUP1 SWAP2 DIV MUL PUSH1 0x20 ADD PUSH1 0x40 MLOAD SWAP1 DUP2 ADD PUSH1 0x40 MSTORE DUP1 SWAP3 SWAP2 SWAP1 DUP2 DUP2 MSTORE PUSH1 0x20 ADD DUP3 DUP1 SLOAD PUSH2 0x27A SWAP1 PUSH2 0x1679 JUMP JUMPDEST DUP1 ISZERO PUSH2 0x2C7 JUMPI DUP1 PUSH1 0x1F LT PUSH2 0x29C JUMPI PUSH2 0x100 DUP1 DUP4 SLOAD DIV MUL DUP4 MSTORE SWAP2 PUSH1 0x20 ADD SWAP2 PUSH2 0x2C7 JUMP JUMPDEST DUP3 ADD SWAP2 SWAP1 PUSH1 0x0 MSTORE PUSH1 0x20 PUSH1 0x0 KECCAK256 SWAP1 JUMPDEST DUP2 SLOAD DUP2 MSTORE SWAP1 PUSH1 0x1 ADD SWAP1 PUSH1 0x20 ADD DUP1 DUP4 GT PUSH2 0x2AA JUMPI DUP3 SWAP1 SUB PUSH1 0x1F AND DUP3 ADD SWAP2 JUMPDEST POP POP POP POP POP DUP3 DUP3 DUP2 MLOAD DUP2 LT PUSH2 0x2DF JUMPI PUSH2 0x2DE PUSH2 0x1783 JUMP JUMPDEST JUMPDEST PUSH1 0x20 MUL PUSH1 0x20 ADD ADD DUP2 SWAP1 MSTORE POP DUP1 DUP1 PUSH2 0x2F5 SWAP1 PUSH2 0x16DC JUMP JUMPDEST SWAP2 POP POP PUSH2 0x216 JUMP JUMPDEST POP DUP1 SWAP3 POP POP POP SWAP1 JUMP JUMPDEST PUSH1 0x60 PUSH1 0x0 DUP1 PUSH1 0x0 DUP1 PUSH2 0x316 PUSH2 0x70F JUMP JUMPDEST SWAP3 POP SWAP3 POP SWAP3 POP PUSH1 0x0 PUSH2 0x340 PUSH1 0x40 MLOAD DUP1 PUSH1 0x80 ADD PUSH1 0x40 MSTORE DUP1 PUSH1 0x4C DUP2 MSTORE PUSH1 0x20 ADD PUSH2 0x194E PUSH1 0x4C SWAP2 CODECOPY DUP4 PUSH2 0x617 JUMP JUMPDEST SWAP1 POP DUP3 ISZERO DUP2 SWAP1 PUSH2 0x386 JUMPI PUSH1 0x40 MLOAD PUSH32 0x8C379A000000000000000000000000000000000000000000000000000000000 DUP2 MSTORE PUSH1 0x4 ADD PUSH2 0x37D SWAP2 SWAP1 PUSH2 0x13AA JUMP JUMPDEST PUSH1 0x40 MLOAD DUP1 SWAP2 SUB SWAP1 REVERT JUMPDEST POP PUSH1 0x2 DUP5 DUP2 SLOAD DUP2 LT PUSH2 0x39B JUMPI PUSH2 0x39A PUSH2 0x1783 JUMP JUMPDEST JUMPDEST SWAP1 PUSH1 0x0 MSTORE PUSH1 0x20 PUSH1 0x0 KECCAK256 SWAP1 PUSH1 0x2 MUL ADD PUSH1 0x0 ADD DUP1 SLOAD PUSH2 0x3B7 SWAP1 PUSH2 0x1679 JUMP JUMPDEST DUP1 PUSH1 0x1F ADD PUSH1 0x20 DUP1 SWAP2 DIV MUL PUSH1 0x20 ADD PUSH1 0x40 MLOAD SWAP1 DUP2 ADD PUSH1 0x40 MSTORE DUP1 SWAP3 SWAP2 SWAP1 DUP2 DUP2 MSTORE PUSH1 0x20 ADD DUP3 DUP1 SLOAD PUSH2 0x3E3 SWAP1 PUSH2 0x1679 JUMP JUMPDEST DUP1 ISZERO PUSH2 0x430 JUMPI DUP1 PUSH1 0x1F LT PUSH2 0x405 JUMPI PUSH2 0x100 DUP1 DUP4 SLOAD DIV MUL DUP4 MSTORE SWAP2 PUSH1 0x20 ADD SWAP2 PUSH2 0x430 JUMP JUMPDEST DUP3 ADD SWAP2 SWAP1 PUSH1 0x0 MSTORE PUSH1 0x20 PUSH1 0x0 KECCAK256 SWAP1 JUMPDEST DUP2 SLOAD DUP2 MSTORE SWAP1 PUSH1 0x1 ADD SWAP1 PUSH1 0x20 ADD DUP1 DUP4 GT PUSH2 0x413 JUMPI DUP3 SWAP1 SUB PUSH1 0x1F AND DUP3 ADD SWAP2 JUMPDEST POP POP POP POP POP SWAP6 POP DUP6 PUSH2 0x440 PUSH2 0xC8F JUMP JUMPDEST SWAP6 POP SWAP6 POP POP POP POP POP SWAP1 SWAP2 JUMP JUMPDEST PUSH1 0x2 DUP2 DUP2 SLOAD DUP2 LT PUSH2 0x45C JUMPI PUSH1 0x0 DUP1 REVERT JUMPDEST SWAP1 PUSH1 0x0 MSTORE PUSH1 0x20 PUSH1 0x0 KECCAK256 SWAP1 PUSH1 0x2 MUL ADD PUSH1 0x0 SWAP2 POP SWAP1 POP DUP1 PUSH1 0x0 ADD DUP1 SLOAD PUSH2 0x47F SWAP1 PUSH2 0x1679 JUMP JUMPDEST DUP1 PUSH1 0x1F ADD PUSH1 0x20 DUP1 SWAP2 DIV MUL PUSH1 0x20 ADD PUSH1 0x40 MLOAD SWAP1 DUP2 ADD PUSH1 0x40 MSTORE DUP1 SWAP3 SWAP2 SWAP1 DUP2 DUP2 MSTORE PUSH1 0x20 ADD DUP3 DUP1 SLOAD PUSH2 0x4AB SWAP1 PUSH2 0x1679 JUMP JUMPDEST DUP1 ISZERO PUSH2 0x4F8 JUMPI DUP1 PUSH1 0x1F LT PUSH2 0x4CD JUMPI PUSH2 0x100 DUP1 DUP4 SLOAD DIV MUL DUP4 MSTORE SWAP2 PUSH1 0x20 ADD SWAP2 PUSH2 0x4F8 JUMP JUMPDEST DUP3 ADD SWAP2 SWAP1 PUSH1 0x0 MSTORE PUSH1 0x20 PUSH1 0x0 KECCAK256 SWAP1 JUMPDEST DUP2 SLOAD DUP2 MSTORE SWAP1 PUSH1 0x1 ADD SWAP1 PUSH1 0x20 ADD DUP1 DUP4 GT PUSH2 0x4DB JUMPI DUP3 SWAP1 SUB PUSH1 0x1F AND DUP3 ADD SWAP2 JUMPDEST POP POP POP POP POP SWAP1 DUP1 PUSH1 0x1 ADD SLOAD SWAP1 POP DUP3 JUMP JUMPDEST DUP2 PUSH2 0x511 PUSH2 0xC97 JUMP JUMPDEST PUSH2 0x519 PUSH2 0xCDF JUMP JUMPDEST PUSH2 0x558 JUMPI PUSH1 0x40 MLOAD PUSH32 0x8C379A000000000000000000000000000000000000000000000000000000000 DUP2 MSTORE PUSH1 0x4 ADD PUSH2 0x54F SWAP1 PUSH2 0x148A JUMP JUMPDEST PUSH1 0x40 MLOAD DUP1 SWAP2 SUB SWAP1 REVERT JUMPDEST PUSH2 0x561 DUP2 PUSH2 0xD36 JUMP JUMPDEST DUP2 PUSH1 0x1 PUSH1 0x0 DUP6 PUSH20 0xFFFFFFFFFFFFFFFFFFFFFFFFFFFFFFFFFFFFFFFF AND PUSH20 0xFFFFFFFFFFFFFFFFFFFFFFFFFFFFFFFFFFFFFFFF AND DUP2 MSTORE PUSH1 0x20 ADD SWAP1 DUP2 MSTORE PUSH1 0x20 ADD PUSH1 0x0 KECCAK256 PUSH1 0x0 ADD SWAP1 DUP1 MLOAD SWAP1 PUSH1 0x20 ADD SWAP1 PUSH2 0x5B7 SWAP3 SWAP2 SWAP1 PUSH2 0xE9D JUMP JUMPDEST POP PUSH1 0x1 DUP1 PUSH1 0x0 DUP6 PUSH20 0xFFFFFFFFFFFFFFFFFFFFFFFFFFFFFFFFFFFFFFFF AND PUSH20 0xFFFFFFFFFFFFFFFFFFFFFFFFFFFFFFFFFFFFFFFF AND DUP2 MSTORE PUSH1 0x20 ADD SWAP1 DUP2 MSTORE PUSH1 0x20 ADD PUSH1 0x0 KECCAK256 PUSH1 0x1 ADD PUSH1 0x0 PUSH2 0x100 EXP DUP2 SLOAD DUP2 PUSH1 0xFF MUL NOT AND SWAP1 DUP4 ISZERO ISZERO MUL OR SWAP1 SSTORE POP POP POP POP JUMP JUMPDEST PUSH1 0x60 DUP3 DUP3 PUSH1 0x40 MLOAD PUSH1 0x20 ADD PUSH2 0x62C SWAP3 SWAP2 SWAP1 PUSH2 0x1359 JUMP JUMPDEST PUSH1 0x40 MLOAD PUSH1 0x20 DUP2 DUP4 SUB SUB DUP2 MSTORE SWAP1 PUSH1 0x40 MSTORE SWAP1 POP SWAP3 SWAP2 POP POP JUMP JUMPDEST PUSH1 0x1 PUSH1 0x20 MSTORE DUP1 PUSH1 0x0 MSTORE PUSH1 0x40 PUSH1 0x0 KECCAK256 PUSH1 0x0 SWAP2 POP SWAP1 POP DUP1 PUSH1 0x0 ADD DUP1 SLOAD PUSH2 0x666 SWAP1 PUSH2 0x1679 JUMP JUMPDEST DUP1 PUSH1 0x1F ADD PUSH1 0x20 DUP1 SWAP2 DIV MUL PUSH1 0x20 ADD PUSH1 0x40 MLOAD SWAP1 DUP2 ADD PUSH1 0x40 MSTORE DUP1 SWAP3 SWAP2 SWAP1 DUP2 DUP2 MSTORE PUSH1 0x20 ADD DUP3 DUP1 SLOAD PUSH2 0x692 SWAP1 PUSH2 0x1679 JUMP JUMPDEST DUP1 ISZERO PUSH2 0x6DF JUMPI DUP1 PUSH1 0x1F LT PUSH2 0x6B4 JUMPI PUSH2 0x100 DUP1 DUP4 SLOAD DIV MUL DUP4 MSTORE SWAP2 PUSH1 0x20 ADD SWAP2 PUSH2 0x6DF JUMP JUMPDEST DUP3 ADD SWAP2 SWAP1 PUSH1 0x0 MSTORE PUSH1 0x20 PUSH1 0x0 KECCAK256 SWAP1 JUMPDEST DUP2 SLOAD DUP2 MSTORE SWAP1 PUSH1 0x1 ADD SWAP1 PUSH1 0x20 ADD DUP1 DUP4 GT PUSH2 0x6C2 JUMPI DUP3 SWAP1 SUB PUSH1 0x1F AND DUP3 ADD SWAP2 JUMPDEST POP POP POP POP POP SWAP1 DUP1 PUSH1 0x1 ADD PUSH1 0x0 SWAP1 SLOAD SWAP1 PUSH2 0x100 EXP SWAP1 DIV PUSH1 0xFF AND SWAP1 DUP1 PUSH1 0x1 ADD PUSH1 0x1 SWAP1 SLOAD SWAP1 PUSH2 0x100 EXP SWAP1 DIV PUSH1 0xFF AND SWAP1 POP DUP4 JUMP JUMPDEST PUSH1 0x0 DUP1 PUSH1 0x60 PUSH1 0x0 DUP1 PUSH1 0x2 DUP1 SLOAD SWAP1 POP SWAP1 POP PUSH1 0x0 DUP2 PUSH8 0xFFFFFFFFFFFFFFFF DUP2 GT ISZERO PUSH2 0x73B JUMPI PUSH2 0x73A PUSH2 0x17B2 JUMP JUMPDEST JUMPDEST PUSH1 0x40 MLOAD SWAP1 DUP1 DUP3 MSTORE DUP1 PUSH1 0x20 MUL PUSH1 0x20 ADD DUP3 ADD PUSH1 0x40 MSTORE DUP1 ISZERO PUSH2 0x76E JUMPI DUP2 PUSH1 0x20 ADD JUMPDEST PUSH1 0x60 DUP2 MSTORE PUSH1 0x20 ADD SWAP1 PUSH1 0x1 SWAP1 SUB SWAP1 DUP2 PUSH2 0x759 JUMPI SWAP1 POP JUMPDEST POP SWAP1 POP PUSH1 0x0 DUP1 PUSH1 0x1 SWAP1 POP PUSH1 0x60 PUSH1 0x0 JUMPDEST DUP6 DUP2 LT ISZERO PUSH2 0xA3B JUMPI DUP7 PUSH1 0x2 DUP3 DUP2 SLOAD DUP2 LT PUSH2 0x79A JUMPI PUSH2 0x799 PUSH2 0x1783 JUMP JUMPDEST JUMPDEST SWAP1 PUSH1 0x0 MSTORE PUSH1 0x20 PUSH1 0x0 KECCAK256 SWAP1 PUSH1 0x2 MUL ADD PUSH1 0x1 ADD SLOAD GT ISZERO PUSH2 0x91B JUMPI PUSH1 0x2 DUP2 DUP2 SLOAD DUP2 LT PUSH2 0x7C6 JUMPI PUSH2 0x7C5 PUSH2 0x1783 JUMP JUMPDEST JUMPDEST SWAP1 PUSH1 0x0 MSTORE PUSH1 0x20 PUSH1 0x0 KECCAK256 SWAP1 PUSH1 0x2 MUL ADD PUSH1 0x1 ADD SLOAD SWAP7 POP DUP1 SWAP10 POP DUP3 ISZERO PUSH2 0x916 JUMPI PUSH1 0x0 SWAP3 POP PUSH1 0x0 SWAP4 POP DUP6 PUSH8 0xFFFFFFFFFFFFFFFF DUP2 GT ISZERO PUSH2 0x805 JUMPI PUSH2 0x804 PUSH2 0x17B2 JUMP JUMPDEST JUMPDEST PUSH1 0x40 MLOAD SWAP1 DUP1 DUP3 MSTORE DUP1 PUSH1 0x20 MUL PUSH1 0x20 ADD DUP3 ADD PUSH1 0x40 MSTORE DUP1 ISZERO PUSH2 0x838 JUMPI DUP2 PUSH1 0x20 ADD JUMPDEST PUSH1 0x60 DUP2 MSTORE PUSH1 0x20 ADD SWAP1 PUSH1 0x1 SWAP1 SUB SWAP1 DUP2 PUSH2 0x823 JUMPI SWAP1 POP JUMPDEST POP SWAP5 POP PUSH1 0x2 DUP2 DUP2 SLOAD DUP2 LT PUSH2 0x84F JUMPI PUSH2 0x84E PUSH2 0x1783 JUMP JUMPDEST JUMPDEST SWAP1 PUSH1 0x0 MSTORE PUSH1 0x20 PUSH1 0x0 KECCAK256 SWAP1 PUSH1 0x2 MUL ADD PUSH1 0x0 ADD DUP1 SLOAD PUSH2 0x86B SWAP1 PUSH2 0x1679 JUMP JUMPDEST DUP1 PUSH1 0x1F ADD PUSH1 0x20 DUP1 SWAP2 DIV MUL PUSH1 0x20 ADD PUSH1 0x40 MLOAD SWAP1 DUP2 ADD PUSH1 0x40 MSTORE DUP1 SWAP3 SWAP2 SWAP1 DUP2 DUP2 MSTORE PUSH1 0x20 ADD DUP3 DUP1 SLOAD PUSH2 0x897 SWAP1 PUSH2 0x1679 JUMP JUMPDEST DUP1 ISZERO PUSH2 0x8E4 JUMPI DUP1 PUSH1 0x1F LT PUSH2 0x8B9 JUMPI PUSH2 0x100 DUP1 DUP4 SLOAD DIV MUL DUP4 MSTORE SWAP2 PUSH1 0x20 ADD SWAP2 PUSH2 0x8E4 JUMP JUMPDEST DUP3 ADD SWAP2 SWAP1 PUSH1 0x0 MSTORE PUSH1 0x20 PUSH1 0x0 KECCAK256 SWAP1 JUMPDEST DUP2 SLOAD DUP2 MSTORE SWAP1 PUSH1 0x1 ADD SWAP1 PUSH1 0x20 ADD DUP1 DUP4 GT PUSH2 0x8C7 JUMPI DUP3 SWAP1 SUB PUSH1 0x1F AND DUP3 ADD SWAP2 JUMPDEST POP POP POP POP POP DUP6 DUP6 DUP2 MLOAD DUP2 LT PUSH2 0x8FC JUMPI PUSH2 0x8FB PUSH2 0x1783 JUMP JUMPDEST JUMPDEST PUSH1 0x20 MUL PUSH1 0x20 ADD ADD DUP2 SWAP1 MSTORE POP DUP4 DUP1 PUSH2 0x912 SWAP1 PUSH2 0x16DC JUMP JUMPDEST SWAP5 POP POP JUMPDEST PUSH2 0xA28 JUMP JUMPDEST DUP7 PUSH1 0x2 DUP3 DUP2 SLOAD DUP2 LT PUSH2 0x930 JUMPI PUSH2 0x92F PUSH2 0x1783 JUMP JUMPDEST JUMPDEST SWAP1 PUSH1 0x0 MSTORE PUSH1 0x20 PUSH1 0x0 KECCAK256 SWAP1 PUSH1 0x2 MUL ADD PUSH1 0x1 ADD SLOAD EQ ISZERO PUSH2 0xA27 JUMPI PUSH1 0x1 SWAP3 POP PUSH1 0x2 DUP2 DUP2 SLOAD DUP2 LT PUSH2 0x960 JUMPI PUSH2 0x95F PUSH2 0x1783 JUMP JUMPDEST JUMPDEST SWAP1 PUSH1 0x0 MSTORE PUSH1 0x20 PUSH1 0x0 KECCAK256 SWAP1 PUSH1 0x2 MUL ADD PUSH1 0x0 ADD DUP1 SLOAD PUSH2 0x97C SWAP1 PUSH2 0x1679 JUMP JUMPDEST DUP1 PUSH1 0x1F ADD PUSH1 0x20 DUP1 SWAP2 DIV MUL PUSH1 0x20 ADD PUSH1 0x40 MLOAD SWAP1 DUP2 ADD PUSH1 0x40 MSTORE DUP1 SWAP3 SWAP2 SWAP1 DUP2 DUP2 MSTORE PUSH1 0x20 ADD DUP3 DUP1 SLOAD PUSH2 0x9A8 SWAP1 PUSH2 0x1679 JUMP JUMPDEST DUP1 ISZERO PUSH2 0x9F5 JUMPI DUP1 PUSH1 0x1F LT PUSH2 0x9CA JUMPI PUSH2 0x100 DUP1 DUP4 SLOAD DIV MUL DUP4 MSTORE SWAP2 PUSH1 0x20 ADD SWAP2 PUSH2 0x9F5 JUMP JUMPDEST DUP3 ADD SWAP2 SWAP1 PUSH1 0x0 MSTORE PUSH1 0x20 PUSH1 0x0 KECCAK256 SWAP1 JUMPDEST DUP2 SLOAD DUP2 MSTORE SWAP1 PUSH1 0x1 ADD SWAP1 PUSH1 0x20 ADD DUP1 DUP4 GT PUSH2 0x9D8 JUMPI DUP3 SWAP1 SUB PUSH1 0x1F AND DUP3 ADD SWAP2 JUMPDEST POP POP POP POP POP DUP6 DUP6 DUP2 MLOAD DUP2 LT PUSH2 0xA0D JUMPI PUSH2 0xA0C PUSH2 0x1783 JUMP JUMPDEST JUMPDEST PUSH1 0x20 MUL PUSH1 0x20 ADD ADD DUP2 SWAP1 MSTORE POP DUP4 DUP1 PUSH2 0xA23 SWAP1 PUSH2 0x16DC JUMP JUMPDEST SWAP5 POP POP JUMPDEST JUMPDEST DUP1 DUP1 PUSH2 0xA33 SWAP1 PUSH2 0x16DC JUMP JUMPDEST SWAP2 POP POP PUSH2 0x77D JUMP JUMPDEST POP DUP2 ISZERO PUSH2 0xA89 JUMPI PUSH1 0x0 JUMPDEST DUP5 MLOAD DUP2 LT ISZERO PUSH2 0xA87 JUMPI PUSH2 0xA72 DUP3 DUP7 DUP4 DUP2 MLOAD DUP2 LT PUSH2 0xA65 JUMPI PUSH2 0xA64 PUSH2 0x1783 JUMP JUMPDEST JUMPDEST PUSH1 0x20 MUL PUSH1 0x20 ADD ADD MLOAD PUSH2 0x617 JUMP JUMPDEST SWAP2 POP DUP1 DUP1 PUSH2 0xA7F SWAP1 PUSH2 0x16DC JUMP JUMPDEST SWAP2 POP POP PUSH2 0xA45 JUMP JUMPDEST POP JUMPDEST DUP9 DUP3 DUP3 SWAP9 POP SWAP9 POP SWAP9 POP POP POP POP POP POP POP SWAP1 SWAP2 SWAP3 JUMP JUMPDEST CALLER PUSH2 0xAA6 PUSH2 0xC97 JUMP JUMPDEST PUSH2 0xAAE PUSH2 0xD82 JUMP JUMPDEST PUSH2 0xAED JUMPI PUSH1 0x40 MLOAD PUSH32 0x8C379A000000000000000000000000000000000000000000000000000000000 DUP2 MSTORE PUSH1 0x4 ADD PUSH2 0xAE4 SWAP1 PUSH2 0x14CA JUMP JUMPDEST PUSH1 0x40 MLOAD DUP1 SWAP2 SUB SWAP1 REVERT JUMPDEST PUSH2 0xAF6 DUP2 PUSH2 0xD36 JUMP JUMPDEST PUSH1 0x0 PUSH1 0x1 PUSH1 0x0 CALLER PUSH20 0xFFFFFFFFFFFFFFFFFFFFFFFFFFFFFFFFFFFFFFFF AND PUSH20 0xFFFFFFFFFFFFFFFFFFFFFFFFFFFFFFFFFFFFFFFF AND DUP2 MSTORE PUSH1 0x20 ADD SWAP1 DUP2 MSTORE PUSH1 0x20 ADD PUSH1 0x0 KECCAK256 SWAP1 POP PUSH1 0x0 JUMPDEST PUSH1 0x2 DUP1 SLOAD SWAP1 POP DUP2 LT ISZERO PUSH2 0xC89 JUMPI PUSH2 0xC00 PUSH1 0x2 DUP3 DUP2 SLOAD DUP2 LT PUSH2 0xB60 JUMPI PUSH2 0xB5F PUSH2 0x1783 JUMP JUMPDEST JUMPDEST SWAP1 PUSH1 0x0 MSTORE PUSH1 0x20 PUSH1 0x0 KECCAK256 SWAP1 PUSH1 0x2 MUL ADD PUSH1 0x0 ADD DUP1 SLOAD PUSH2 0xB7C SWAP1 PUSH2 0x1679 JUMP JUMPDEST DUP1 PUSH1 0x1F ADD PUSH1 0x20 DUP1 SWAP2 DIV MUL PUSH1 0x20 ADD PUSH1 0x40 MLOAD SWAP1 DUP2 ADD PUSH1 0x40 MSTORE DUP1 SWAP3 SWAP2 SWAP1 DUP2 DUP2 MSTORE PUSH1 0x20 ADD DUP3 DUP1 SLOAD PUSH2 0xBA8 SWAP1 PUSH2 0x1679 JUMP JUMPDEST DUP1 ISZERO PUSH2 0xBF5 JUMPI DUP1 PUSH1 0x1F LT PUSH2 0xBCA JUMPI PUSH2 0x100 DUP1 DUP4 SLOAD DIV MUL DUP4 MSTORE SWAP2 PUSH1 0x20 ADD SWAP2 PUSH2 0xBF5 JUMP JUMPDEST DUP3 ADD SWAP2 SWAP1 PUSH1 0x0 MSTORE PUSH1 0x20 PUSH1 0x0 KECCAK256 SWAP1 JUMPDEST DUP2 SLOAD DUP2 MSTORE SWAP1 PUSH1 0x1 ADD SWAP1 PUSH1 0x20 ADD DUP1 DUP4 GT PUSH2 0xBD8 JUMPI DUP3 SWAP1 SUB PUSH1 0x1F AND DUP3 ADD SWAP2 JUMPDEST POP POP POP POP POP DUP6 PUSH2 0xD92 JUMP JUMPDEST ISZERO PUSH2 0xC76 JUMPI PUSH1 0x2 DUP2 DUP2 SLOAD DUP2 LT PUSH2 0xC19 JUMPI PUSH2 0xC18 PUSH2 0x1783 JUMP JUMPDEST JUMPDEST SWAP1 PUSH1 0x0 MSTORE PUSH1 0x20 PUSH1 0x0 KECCAK256 SWAP1 PUSH1 0x2 MUL ADD PUSH1 0x1 ADD PUSH1 0x0 DUP2 SLOAD DUP1 SWAP3 SWAP2 SWAP1 PUSH2 0xC3B SWAP1 PUSH2 0x16DC JUMP JUMPDEST SWAP2 SWAP1 POP SSTORE POP PUSH1 0x1 DUP3 PUSH1 0x1 ADD PUSH1 0x1 PUSH2 0x100 EXP DUP2 SLOAD DUP2 PUSH1 0xFF MUL NOT AND SWAP1 DUP4 ISZERO ISZERO MUL OR SWAP1 SSTORE POP PUSH1 0x3 PUSH1 0x0 DUP2 SLOAD DUP1 SWAP3 SWAP2 SWAP1 PUSH2 0xC70 SWAP1 PUSH2 0x16DC JUMP JUMPDEST SWAP2 SWAP1 POP SSTORE POP JUMPDEST DUP1 DUP1 PUSH2 0xC81 SWAP1 PUSH2 0x16DC JUMP JUMPDEST SWAP2 POP POP PUSH2 0xB3C JUMP JUMPDEST POP POP POP POP JUMP JUMPDEST PUSH1 0x0 ADDRESS SWAP1 POP SWAP1 JUMP JUMPDEST PUSH1 0x4 SLOAD PUSH1 0x3 SLOAD LT PUSH2 0xCDD JUMPI PUSH1 0x40 MLOAD PUSH32 0x8C379A000000000000000000000000000000000000000000000000000000000 DUP2 MSTORE PUSH1 0x4 ADD PUSH2 0xCD4 SWAP1 PUSH2 0x146A JUMP JUMPDEST PUSH1 0x40 MLOAD DUP1 SWAP2 SUB SWAP1 REVERT JUMPDEST JUMP JUMPDEST PUSH1 0x0 DUP1 PUSH1 0x0 SWAP1 SLOAD SWAP1 PUSH2 0x100 EXP SWAP1 DIV PUSH20 0xFFFFFFFFFFFFFFFFFFFFFFFFFFFFFFFFFFFFFFFF AND PUSH20 0xFFFFFFFFFFFFFFFFFFFFFFFFFFFFFFFFFFFFFFFF AND CALLER PUSH20 0xFFFFFFFFFFFFFFFFFFFFFFFFFFFFFFFFFFFFFFFF AND EQ SWAP1 POP SWAP1 JUMP JUMPDEST PUSH2 0xD3F DUP2 PUSH2 0xDEB JUMP JUMPDEST ISZERO PUSH2 0xD7F JUMPI PUSH1 0x40 MLOAD PUSH32 0x8C379A000000000000000000000000000000000000000000000000000000000 DUP2 MSTORE PUSH1 0x4 ADD PUSH2 0xD76 SWAP1 PUSH2 0x14AA JUMP JUMPDEST PUSH1 0x40 MLOAD DUP1 SWAP2 SUB SWAP1 REVERT JUMPDEST POP JUMP JUMPDEST PUSH1 0x0 PUSH2 0xD8D CALLER PUSH2 0xE44 JUMP JUMPDEST SWAP1 POP SWAP1 JUMP JUMPDEST PUSH1 0x0 DUP2 PUSH1 0x40 MLOAD PUSH1 0x20 ADD PUSH2 0xDA5 SWAP2 SWAP1 PUSH2 0x13AA JUMP JUMPDEST PUSH1 0x40 MLOAD PUSH1 0x20 DUP2 DUP4 SUB SUB DUP2 MSTORE SWAP1 PUSH1 0x40 MSTORE DUP1 MLOAD SWAP1 PUSH1 0x20 ADD KECCAK256 DUP4 PUSH1 0x40 MLOAD PUSH1 0x20 ADD PUSH2 0xDCC SWAP2 SWAP1 PUSH2 0x13AA JUMP JUMPDEST PUSH1 0x40 MLOAD PUSH1 0x20 DUP2 DUP4 SUB SUB DUP2 MSTORE SWAP1 PUSH1 0x40 MSTORE DUP1 MLOAD SWAP1 PUSH1 0x20 ADD KECCAK256 EQ SWAP1 POP SWAP3 SWAP2 POP POP JUMP JUMPDEST PUSH1 0x0 PUSH1 0x1 PUSH1 0x0 DUP4 PUSH20 0xFFFFFFFFFFFFFFFFFFFFFFFFFFFFFFFFFFFFFFFF AND PUSH20 0xFFFFFFFFFFFFFFFFFFFFFFFFFFFFFFFFFFFFFFFF AND DUP2 MSTORE PUSH1 0x20 ADD SWAP1 DUP2 MSTORE PUSH1 0x20 ADD PUSH1 0x0 KECCAK256 PUSH1 0x1 ADD PUSH1 0x1 SWAP1 SLOAD SWAP1 PUSH2 0x100 EXP SWAP1 DIV PUSH1 0xFF AND SWAP1 POP SWAP2 SWAP1 POP JUMP JUMPDEST PUSH1 0x0 PUSH1 0x1 PUSH1 0x0 DUP4 PUSH20 0xFFFFFFFFFFFFFFFFFFFFFFFFFFFFFFFFFFFFFFFF AND PUSH20 0xFFFFFFFFFFFFFFFFFFFFFFFFFFFFFFFFFFFFFFFF AND DUP2 MSTORE PUSH1 0x20 ADD SWAP1 DUP2 MSTORE PUSH1 0x20 ADD PUSH1 0x0 KECCAK256 PUSH1 0x1 ADD PUSH1 0x0 SWAP1 SLOAD SWAP1 PUSH2 0x100 EXP SWAP1 DIV PUSH1 0xFF AND SWAP1 POP SWAP2 SWAP1 POP JUMP JUMPDEST DUP3 DUP1 SLOAD PUSH2 0xEA9 SWAP1 PUSH2 0x1679 JUMP JUMPDEST SWAP1 PUSH1 0x0 MSTORE PUSH1 0x20 PUSH1 0x0 KECCAK256 SWAP1 PUSH1 0x1F ADD PUSH1 0x20 SWAP1 DIV DUP2 ADD SWAP3 DUP3 PUSH2 0xECB JUMPI PUSH1 0x0 DUP6 SSTORE PUSH2 0xF12 JUMP JUMPDEST DUP3 PUSH1 0x1F LT PUSH2 0xEE4 JUMPI DUP1 MLOAD PUSH1 0xFF NOT AND DUP4 DUP1 ADD OR DUP6 SSTORE PUSH2 0xF12 JUMP JUMPDEST DUP3 DUP1 ADD PUSH1 0x1 ADD DUP6 SSTORE DUP3 ISZERO PUSH2 0xF12 JUMPI SWAP2 DUP3 ADD JUMPDEST DUP3 DUP2 GT ISZERO PUSH2 0xF11 JUMPI DUP3 MLOAD DUP3 SSTORE SWAP2 PUSH1 0x20 ADD SWAP2 SWAP1 PUSH1 0x1 ADD SWAP1 PUSH2 0xEF6 JUMP JUMPDEST JUMPDEST POP SWAP1 POP PUSH2 0xF1F SWAP2 SWAP1 PUSH2 0xF23 JUMP JUMPDEST POP SWAP1 JUMP JUMPDEST JUMPDEST DUP1 DUP3 GT ISZERO PUSH2 0xF3C JUMPI PUSH1 0x0 DUP2 PUSH1 0x0 SWAP1 SSTORE POP PUSH1 0x1 ADD PUSH2 0xF24 JUMP JUMPDEST POP SWAP1 JUMP JUMPDEST PUSH1 0x0 PUSH2 0xF53 PUSH2 0xF4E DUP5 PUSH2 0x154D JUMP JUMPDEST PUSH2 0x1528 JUMP JUMPDEST SWAP1 POP DUP3 DUP2 MSTORE PUSH1 0x20 DUP2 ADD DUP5 DUP5 DUP5 ADD GT ISZERO PUSH2 0xF6F JUMPI PUSH2 0xF6E PUSH2 0x17E6 JUMP JUMPDEST JUMPDEST PUSH2 0xF7A DUP5 DUP3 DUP6 PUSH2 0x1637 JUMP JUMPDEST POP SWAP4 SWAP3 POP POP POP JUMP JUMPDEST PUSH1 0x0 DUP2 CALLDATALOAD SWAP1 POP PUSH2 0xF91 DUP2 PUSH2 0x191F JUMP JUMPDEST SWAP3 SWAP2 POP POP JUMP JUMPDEST PUSH1 0x0 DUP3 PUSH1 0x1F DUP4 ADD SLT PUSH2 0xFAC JUMPI PUSH2 0xFAB PUSH2 0x17E1 JUMP JUMPDEST JUMPDEST DUP2 CALLDATALOAD PUSH2 0xFBC DUP5 DUP3 PUSH1 0x20 DUP7 ADD PUSH2 0xF40 JUMP JUMPDEST SWAP2 POP POP SWAP3 SWAP2 POP POP JUMP JUMPDEST PUSH1 0x0 DUP2 CALLDATALOAD SWAP1 POP PUSH2 0xFD4 DUP2 PUSH2 0x1936 JUMP JUMPDEST SWAP3 SWAP2 POP POP JUMP JUMPDEST PUSH1 0x0 PUSH1 0x20 DUP3 DUP5 SUB SLT ISZERO PUSH2 0xFF0 JUMPI PUSH2 0xFEF PUSH2 0x17F0 JUMP JUMPDEST JUMPDEST PUSH1 0x0 PUSH2 0xFFE DUP5 DUP3 DUP6 ADD PUSH2 0xF82 JUMP JUMPDEST SWAP2 POP POP SWAP3 SWAP2 POP POP JUMP JUMPDEST PUSH1 0x0 DUP1 PUSH1 0x40 DUP4 DUP6 SUB SLT ISZERO PUSH2 0x101E JUMPI PUSH2 0x101D PUSH2 0x17F0 JUMP JUMPDEST JUMPDEST PUSH1 0x0 PUSH2 0x102C DUP6 DUP3 DUP7 ADD PUSH2 0xF82 JUMP JUMPDEST SWAP3 POP POP PUSH1 0x20 DUP4 ADD CALLDATALOAD PUSH8 0xFFFFFFFFFFFFFFFF DUP2 GT ISZERO PUSH2 0x104D JUMPI PUSH2 0x104C PUSH2 0x17EB JUMP JUMPDEST JUMPDEST PUSH2 0x1059 DUP6 DUP3 DUP7 ADD PUSH2 0xF97 JUMP JUMPDEST SWAP2 POP POP SWAP3 POP SWAP3 SWAP1 POP JUMP JUMPDEST PUSH1 0x0 PUSH1 0x20 DUP3 DUP5 SUB SLT ISZERO PUSH2 0x1079 JUMPI PUSH2 0x1078 PUSH2 0x17F0 JUMP JUMPDEST JUMPDEST PUSH1 0x0 DUP3 ADD CALLDATALOAD PUSH8 0xFFFFFFFFFFFFFFFF DUP2 GT ISZERO PUSH2 0x1097 JUMPI PUSH2 0x1096 PUSH2 0x17EB JUMP JUMPDEST JUMPDEST PUSH2 0x10A3 DUP5 DUP3 DUP6 ADD PUSH2 0xF97 JUMP JUMPDEST SWAP2 POP POP SWAP3 SWAP2 POP POP JUMP JUMPDEST PUSH1 0x0 DUP1 PUSH1 0x40 DUP4 DUP6 SUB SLT ISZERO PUSH2 0x10C3 JUMPI PUSH2 0x10C2 PUSH2 0x17F0 JUMP JUMPDEST JUMPDEST PUSH1 0x0 DUP4 ADD CALLDATALOAD PUSH8 0xFFFFFFFFFFFFFFFF DUP2 GT ISZERO PUSH2 0x10E1 JUMPI PUSH2 0x10E0 PUSH2 0x17EB JUMP JUMPDEST JUMPDEST PUSH2 0x10ED DUP6 DUP3 DUP7 ADD PUSH2 0xF97 JUMP JUMPDEST SWAP3 POP POP PUSH1 0x20 DUP4 ADD CALLDATALOAD PUSH8 0xFFFFFFFFFFFFFFFF DUP2 GT ISZERO PUSH2 0x110E JUMPI PUSH2 0x110D PUSH2 0x17EB JUMP JUMPDEST JUMPDEST PUSH2 0x111A DUP6 DUP3 DUP7 ADD PUSH2 0xF97 JUMP JUMPDEST SWAP2 POP POP SWAP3 POP SWAP3 SWAP1 POP JUMP JUMPDEST PUSH1 0x0 PUSH1 0x20 DUP3 DUP5 SUB SLT ISZERO PUSH2 0x113A JUMPI PUSH2 0x1139 PUSH2 0x17F0 JUMP JUMPDEST JUMPDEST PUSH1 0x0 PUSH2 0x1148 DUP5 DUP3 DUP6 ADD PUSH2 0xFC5 JUMP JUMPDEST SWAP2 POP POP SWAP3 SWAP2 POP POP JUMP JUMPDEST PUSH1 0x0 PUSH2 0x115D DUP4 DUP4 PUSH2 0x11F8 JUMP JUMPDEST SWAP1 POP SWAP3 SWAP2 POP POP JUMP JUMPDEST PUSH2 0x116E DUP2 PUSH2 0x15EF JUMP JUMPDEST DUP3 MSTORE POP POP JUMP JUMPDEST PUSH1 0x0 PUSH2 0x117F DUP3 PUSH2 0x158E JUMP JUMPDEST PUSH2 0x1189 DUP2 DUP6 PUSH2 0x15B1 JUMP JUMPDEST SWAP4 POP DUP4 PUSH1 0x20 DUP3 MUL DUP6 ADD PUSH2 0x119B DUP6 PUSH2 0x157E JUMP JUMPDEST DUP1 PUSH1 0x0 JUMPDEST DUP6 DUP2 LT ISZERO PUSH2 0x11D7 JUMPI DUP5 DUP5 SUB DUP10 MSTORE DUP2 MLOAD PUSH2 0x11B8 DUP6 DUP3 PUSH2 0x1151 JUMP JUMPDEST SWAP5 POP PUSH2 0x11C3 DUP4 PUSH2 0x15A4 JUMP JUMPDEST SWAP3 POP PUSH1 0x20 DUP11 ADD SWAP10 POP POP PUSH1 0x1 DUP2 ADD SWAP1 POP PUSH2 0x119F JUMP JUMPDEST POP DUP3 SWAP8 POP DUP8 SWAP6 POP POP POP POP POP POP SWAP3 SWAP2 POP POP JUMP JUMPDEST PUSH2 0x11F2 DUP2 PUSH2 0x1601 JUMP JUMPDEST DUP3 MSTORE POP POP JUMP JUMPDEST PUSH1 0x0 PUSH2 0x1203 DUP3 PUSH2 0x1599 JUMP JUMPDEST PUSH2 0x120D DUP2 DUP6 PUSH2 0x15C2 JUMP JUMPDEST SWAP4 POP PUSH2 0x121D DUP2 DUP6 PUSH1 0x20 DUP7 ADD PUSH2 0x1646 JUMP JUMPDEST PUSH2 0x1226 DUP2 PUSH2 0x17F5 JUMP JUMPDEST DUP5 ADD SWAP2 POP POP SWAP3 SWAP2 POP POP JUMP JUMPDEST PUSH1 0x0 PUSH2 0x123C DUP3 PUSH2 0x1599 JUMP JUMPDEST PUSH2 0x1246 DUP2 DUP6 PUSH2 0x15D3 JUMP JUMPDEST SWAP4 POP PUSH2 0x1256 DUP2 DUP6 PUSH1 0x20 DUP7 ADD PUSH2 0x1646 JUMP JUMPDEST PUSH2 0x125F DUP2 PUSH2 0x17F5 JUMP JUMPDEST DUP5 ADD SWAP2 POP POP SWAP3 SWAP2 POP POP JUMP JUMPDEST PUSH1 0x0 PUSH2 0x1275 DUP3 PUSH2 0x1599 JUMP JUMPDEST PUSH2 0x127F DUP2 DUP6 PUSH2 0x15E4 JUMP JUMPDEST SWAP4 POP PUSH2 0x128F DUP2 DUP6 PUSH1 0x20 DUP7 ADD PUSH2 0x1646 JUMP JUMPDEST DUP1 DUP5 ADD SWAP2 POP POP SWAP3 SWAP2 POP POP JUMP JUMPDEST PUSH1 0x0 PUSH2 0x12A8 PUSH1 0x2F DUP4 PUSH2 0x15D3 JUMP JUMPDEST SWAP2 POP PUSH2 0x12B3 DUP3 PUSH2 0x1806 JUMP JUMPDEST PUSH1 0x40 DUP3 ADD SWAP1 POP SWAP2 SWAP1 POP JUMP JUMPDEST PUSH1 0x0 PUSH2 0x12CB PUSH1 0x2F DUP4 PUSH2 0x15D3 JUMP JUMPDEST SWAP2 POP PUSH2 0x12D6 DUP3 PUSH2 0x1855 JUMP JUMPDEST PUSH1 0x40 DUP3 ADD SWAP1 POP SWAP2 SWAP1 POP JUMP JUMPDEST PUSH1 0x0 PUSH2 0x12EE PUSH1 0x1 DUP4 PUSH2 0x15E4 JUMP JUMPDEST SWAP2 POP PUSH2 0x12F9 DUP3 PUSH2 0x18A4 JUMP JUMPDEST PUSH1 0x1 DUP3 ADD SWAP1 POP SWAP2 SWAP1 POP JUMP JUMPDEST PUSH1 0x0 PUSH2 0x1311 PUSH1 0x14 DUP4 PUSH2 0x15D3 JUMP JUMPDEST SWAP2 POP PUSH2 0x131C DUP3 PUSH2 0x18CD JUMP JUMPDEST PUSH1 0x20 DUP3 ADD SWAP1 POP SWAP2 SWAP1 POP JUMP JUMPDEST PUSH1 0x0 PUSH2 0x1334 PUSH1 0x1A DUP4 PUSH2 0x15D3 JUMP JUMPDEST SWAP2 POP PUSH2 0x133F DUP3 PUSH2 0x18F6 JUMP JUMPDEST PUSH1 0x20 DUP3 ADD SWAP1 POP SWAP2 SWAP1 POP JUMP JUMPDEST PUSH2 0x1353 DUP2 PUSH2 0x162D JUMP JUMPDEST DUP3 MSTORE POP POP JUMP JUMPDEST PUSH1 0x0 PUSH2 0x1365 DUP3 DUP6 PUSH2 0x126A JUMP JUMPDEST SWAP2 POP PUSH2 0x1370 DUP3 PUSH2 0x12E1 JUMP JUMPDEST SWAP2 POP PUSH2 0x137C DUP3 DUP5 PUSH2 0x126A JUMP JUMPDEST SWAP2 POP DUP2 SWAP1 POP SWAP4 SWAP3 POP POP POP JUMP JUMPDEST PUSH1 0x0 PUSH1 0x20 DUP3 ADD SWAP1 POP DUP2 DUP2 SUB PUSH1 0x0 DUP4 ADD MSTORE PUSH2 0x13A2 DUP2 DUP5 PUSH2 0x1174 JUMP JUMPDEST SWAP1 POP SWAP3 SWAP2 POP POP JUMP JUMPDEST PUSH1 0x0 PUSH1 0x20 DUP3 ADD SWAP1 POP DUP2 DUP2 SUB PUSH1 0x0 DUP4 ADD MSTORE PUSH2 0x13C4 DUP2 DUP5 PUSH2 0x1231 JUMP JUMPDEST SWAP1 POP SWAP3 SWAP2 POP POP JUMP JUMPDEST PUSH1 0x0 PUSH1 0x40 DUP3 ADD SWAP1 POP DUP2 DUP2 SUB PUSH1 0x0 DUP4 ADD MSTORE PUSH2 0x13E6 DUP2 DUP6 PUSH2 0x1231 JUMP JUMPDEST SWAP1 POP PUSH2 0x13F5 PUSH1 0x20 DUP4 ADD DUP5 PUSH2 0x1165 JUMP JUMPDEST SWAP4 SWAP3 POP POP POP JUMP JUMPDEST PUSH1 0x0 PUSH1 0x60 DUP3 ADD SWAP1 POP DUP2 DUP2 SUB PUSH1 0x0 DUP4 ADD MSTORE PUSH2 0x1416 DUP2 DUP7 PUSH2 0x1231 JUMP JUMPDEST SWAP1 POP PUSH2 0x1425 PUSH1 0x20 DUP4 ADD DUP6 PUSH2 0x11E9 JUMP JUMPDEST PUSH2 0x1432 PUSH1 0x40 DUP4 ADD DUP5 PUSH2 0x11E9 JUMP JUMPDEST SWAP5 SWAP4 POP POP POP POP JUMP JUMPDEST PUSH1 0x0 PUSH1 0x40 DUP3 ADD SWAP1 POP DUP2 DUP2 SUB PUSH1 0x0 DUP4 ADD MSTORE PUSH2 0x1454 DUP2 DUP6 PUSH2 0x1231 JUMP JUMPDEST SWAP1 POP PUSH2 0x1463 PUSH1 0x20 DUP4 ADD DUP5 PUSH2 0x134A JUMP JUMPDEST SWAP4 SWAP3 POP POP POP JUMP JUMPDEST PUSH1 0x0 PUSH1 0x20 DUP3 ADD SWAP1 POP DUP2 DUP2 SUB PUSH1 0x0 DUP4 ADD MSTORE PUSH2 0x1483 DUP2 PUSH2 0x129B JUMP JUMPDEST SWAP1 POP SWAP2 SWAP1 POP JUMP JUMPDEST PUSH1 0x0 PUSH1 0x20 DUP3 ADD SWAP1 POP DUP2 DUP2 SUB PUSH1 0x0 DUP4 ADD MSTORE PUSH2 0x14A3 DUP2 PUSH2 0x12BE JUMP JUMPDEST SWAP1 POP SWAP2 SWAP1 POP JUMP JUMPDEST PUSH1 0x0 PUSH1 0x20 DUP3 ADD SWAP1 POP DUP2 DUP2 SUB PUSH1 0x0 DUP4 ADD MSTORE PUSH2 0x14C3 DUP2 PUSH2 0x1304 JUMP JUMPDEST SWAP1 POP SWAP2 SWAP1 POP JUMP JUMPDEST PUSH1 0x0 PUSH1 0x20 DUP3 ADD SWAP1 POP DUP2 DUP2 SUB PUSH1 0x0 DUP4 ADD MSTORE PUSH2 0x14E3 DUP2 PUSH2 0x1327 JUMP JUMPDEST SWAP1 POP SWAP2 SWAP1 POP JUMP JUMPDEST PUSH1 0x0 PUSH1 0x60 DUP3 ADD SWAP1 POP PUSH2 0x14FF PUSH1 0x0 DUP4 ADD DUP7 PUSH2 0x134A JUMP JUMPDEST PUSH2 0x150C PUSH1 0x20 DUP4 ADD DUP6 PUSH2 0x11E9 JUMP JUMPDEST DUP2 DUP2 SUB PUSH1 0x40 DUP4 ADD MSTORE PUSH2 0x151E DUP2 DUP5 PUSH2 0x1231 JUMP JUMPDEST SWAP1 POP SWAP5 SWAP4 POP POP POP POP JUMP JUMPDEST PUSH1 0x0 PUSH2 0x1532 PUSH2 0x1543 JUMP JUMPDEST SWAP1 POP PUSH2 0x153E DUP3 DUP3 PUSH2 0x16AB JUMP JUMPDEST SWAP2 SWAP1 POP JUMP JUMPDEST PUSH1 0x0 PUSH1 0x40 MLOAD SWAP1 POP SWAP1 JUMP JUMPDEST PUSH1 0x0 PUSH8 0xFFFFFFFFFFFFFFFF DUP3 GT ISZERO PUSH2 0x1568 JUMPI PUSH2 0x1567 PUSH2 0x17B2 JUMP JUMPDEST JUMPDEST PUSH2 0x1571 DUP3 PUSH2 0x17F5 JUMP JUMPDEST SWAP1 POP PUSH1 0x20 DUP2 ADD SWAP1 POP SWAP2 SWAP1 POP JUMP JUMPDEST PUSH1 0x0 DUP2 SWAP1 POP PUSH1 0x20 DUP3 ADD SWAP1 POP SWAP2 SWAP1 POP JUMP JUMPDEST PUSH1 0x0 DUP2 MLOAD SWAP1 POP SWAP2 SWAP1 POP JUMP JUMPDEST PUSH1 0x0 DUP2 MLOAD SWAP1 POP SWAP2 SWAP1 POP JUMP JUMPDEST PUSH1 0x0 PUSH1 0x20 DUP3 ADD SWAP1 POP SWAP2 SWAP1 POP JUMP JUMPDEST PUSH1 0x0 DUP3 DUP3 MSTORE PUSH1 0x20 DUP3 ADD SWAP1 POP SWAP3 SWAP2 POP POP JUMP JUMPDEST PUSH1 0x0 DUP3 DUP3 MSTORE PUSH1 0x20 DUP3 ADD SWAP1 POP SWAP3 SWAP2 POP POP JUMP JUMPDEST PUSH1 0x0 DUP3 DUP3 MSTORE PUSH1 0x20 DUP3 ADD SWAP1 POP SWAP3 SWAP2 POP POP JUMP JUMPDEST PUSH1 0x0 DUP2 SWAP1 POP SWAP3 SWAP2 POP POP JUMP JUMPDEST PUSH1 0x0 PUSH2 0x15FA DUP3 PUSH2 0x160D JUMP JUMPDEST SWAP1 POP SWAP2 SWAP1 POP JUMP JUMPDEST PUSH1 0x0 DUP2 ISZERO ISZERO SWAP1 POP SWAP2 SWAP1 POP JUMP JUMPDEST PUSH1 0x0 PUSH20 0xFFFFFFFFFFFFFFFFFFFFFFFFFFFFFFFFFFFFFFFF DUP3 AND SWAP1 POP SWAP2 SWAP1 POP JUMP JUMPDEST PUSH1 0x0 DUP2 SWAP1 POP SWAP2 SWAP1 POP JUMP JUMPDEST DUP3 DUP2 DUP4 CALLDATACOPY PUSH1 0x0 DUP4 DUP4 ADD MSTORE POP POP POP JUMP JUMPDEST PUSH1 0x0 JUMPDEST DUP4 DUP2 LT ISZERO PUSH2 0x1664 JUMPI DUP1 DUP3 ADD MLOAD DUP2 DUP5 ADD MSTORE PUSH1 0x20 DUP2 ADD SWAP1 POP PUSH2 0x1649 JUMP JUMPDEST DUP4 DUP2 GT ISZERO PUSH2 0x1673 JUMPI PUSH1 0x0 DUP5 DUP5 ADD MSTORE JUMPDEST POP POP POP POP JUMP JUMPDEST PUSH1 0x0 PUSH1 0x2 DUP3 DIV SWAP1 POP PUSH1 0x1 DUP3 AND DUP1 PUSH2 0x1691 JUMPI PUSH1 0x7F DUP3 AND SWAP2 POP JUMPDEST PUSH1 0x20 DUP3 LT DUP2 EQ ISZERO PUSH2 0x16A5 JUMPI PUSH2 0x16A4 PUSH2 0x1754 JUMP JUMPDEST JUMPDEST POP SWAP2 SWAP1 POP JUMP JUMPDEST PUSH2 0x16B4 DUP3 PUSH2 0x17F5 JUMP JUMPDEST DUP2 ADD DUP2 DUP2 LT PUSH8 0xFFFFFFFFFFFFFFFF DUP3 GT OR ISZERO PUSH2 0x16D3 JUMPI PUSH2 0x16D2 PUSH2 0x17B2 JUMP JUMPDEST JUMPDEST DUP1 PUSH1 0x40 MSTORE POP POP POP JUMP JUMPDEST PUSH1 0x0 PUSH2 0x16E7 DUP3 PUSH2 0x162D JUMP JUMPDEST SWAP2 POP PUSH32 0xFFFFFFFFFFFFFFFFFFFFFFFFFFFFFFFFFFFFFFFFFFFFFFFFFFFFFFFFFFFFFFFF DUP3 EQ ISZERO PUSH2 0x171A JUMPI PUSH2 0x1719 PUSH2 0x1725 JUMP JUMPDEST JUMPDEST PUSH1 0x1 DUP3 ADD SWAP1 POP SWAP2 SWAP1 POP JUMP JUMPDEST PUSH32 0x4E487B7100000000000000000000000000000000000000000000000000000000 PUSH1 0x0 MSTORE PUSH1 0x11 PUSH1 0x4 MSTORE PUSH1 0x24 PUSH1 0x0 REVERT JUMPDEST PUSH32 0x4E487B7100000000000000000000000000000000000000000000000000000000 PUSH1 0x0 MSTORE PUSH1 0x22 PUSH1 0x4 MSTORE PUSH1 0x24 PUSH1 0x0 REVERT JUMPDEST PUSH32 0x4E487B7100000000000000000000000000000000000000000000000000000000 PUSH1 0x0 MSTORE PUSH1 0x32 PUSH1 0x4 MSTORE PUSH1 0x24 PUSH1 0x0 REVERT JUMPDEST PUSH32 0x4E487B7100000000000000000000000000000000000000000000000000000000 PUSH1 0x0 MSTORE PUSH1 0x41 PUSH1 0x4 MSTORE PUSH1 0x24 PUSH1 0x0 REVERT JUMPDEST PUSH1 0x0 DUP1 REVERT JUMPDEST PUSH1 0x0 DUP1 REVERT JUMPDEST PUSH1 0x0 DUP1 REVERT JUMPDEST PUSH1 0x0 DUP1 REVERT JUMPDEST PUSH1 0x0 PUSH1 0x1F NOT PUSH1 0x1F DUP4 ADD AND SWAP1 POP SWAP2 SWAP1 POP JUMP JUMPDEST PUSH32 0x4D6178206163636F756E7420766F74657320697320726561636865642E204261 PUSH1 0x0 DUP3 ADD MSTORE PUSH32 0x6C6C6F7420697320434C4F5345442E0000000000000000000000000000000000 PUSH1 0x20 DUP3 ADD MSTORE POP JUMP JUMPDEST PUSH32 0x4F6E6C792074686520636F6E7472616374206F776E65722063616E2067697665 PUSH1 0x0 DUP3 ADD MSTORE PUSH32 0x20726967687420746F20766F74652E0000000000000000000000000000000000 PUSH1 0x20 DUP3 ADD MSTORE POP JUMP JUMPDEST PUSH32 0x2000000000000000000000000000000000000000000000000000000000000000 PUSH1 0x0 DUP3 ADD MSTORE POP JUMP JUMPDEST PUSH32 0x566F74657220616C726561647920766F7465642E000000000000000000000000 PUSH1 0x0 DUP3 ADD MSTORE POP JUMP JUMPDEST PUSH32 0x596F752068617665206E6F7420726967687420746F20766F7465000000000000 PUSH1 0x0 DUP3 ADD MSTORE POP JUMP JUMPDEST PUSH2 0x1928 DUP2 PUSH2 0x15EF JUMP JUMPDEST DUP2 EQ PUSH2 0x1933 JUMPI PUSH1 0x0 DUP1 REVERT JUMPDEST POP JUMP JUMPDEST PUSH2 0x193F DUP2 PUSH2 0x162D JUMP JUMPDEST DUP2 EQ PUSH2 0x194A JUMPI PUSH1 0x0 DUP1 REVERT JUMPDEST POP JUMP INVALID SLOAD PUSH9 0x657265206973206120 PUSH21 0x6965206F6E2042616C6C6F742E20596F752073686F PUSH22 0x6C642073746172742061206E65772062616C6C6F7420 PUSH24 0x697468207469652063616E646964617465733AA264697066 PUSH20 0x58221220ACEA4F109575C9822470920B3B772733 SWAP4 STOP DUP11 PUSH15 0xAD5A08BFD3100EC34BF0279664736F PUSH13 0x63430008070033000000000000 "
				},
				"gasEstimates": {
					"creation": {
						"codeDepositCost": "1321400",
						"executionCost": "infinite",
						"totalCost": "infinite"
					},
					"external": {
						"candidates(uint256)": "infinite",
						"concatenateStrings(string,string)": "infinite",
						"getCandidatesListName()": "infinite",
						"getWinnerName()": "infinite",
						"getWinningCandidate()": "infinite",
						"giveRightToVote(address,string)": "infinite",
						"vote(string)": "infinite",
						"voters(address)": "infinite"
					},
					"internal": {
						"areYouContractOwner()": "2176",
						"areYouHaveRigthToVote()": "2303",
						"areYouVoted()": "infinite",
						"getContractAddress()": "22",
						"getTotalVotesCounterReachedRequire()": "infinite",
						"getVoterRigthToVote(address)": "2266",
						"getVoterVoted(address)": "2316",
						"getVoterVotedRequire(address)": "infinite",
						"setCandidatesIntoStorage(string memory[] memory)": "infinite",
						"stringEqualTo(string memory,string memory)": "infinite"
					}
				},
				"methodIdentifiers": {
					"candidates(uint256)": "3477ee2e",
					"concatenateStrings(string,string)": "7a36b3ee",
					"getCandidatesListName()": "011d1023",
					"getWinnerName()": "2bfda515",
					"getWinningCandidate()": "f927cc29",
					"giveRightToVote(address,string)": "68957b20",
					"vote(string)": "fc36e15b",
					"voters(address)": "a3ec138d"
				}
			},
			"storageLayout": {
				"storage": [
					{
						"astId": 15,
						"contract": "contracts/Ballot/Ballot.sol:MyBallot",
						"label": "contractOwner",
						"offset": 0,
						"slot": "0",
						"type": "t_address"
					},
					{
						"astId": 20,
						"contract": "contracts/Ballot/Ballot.sol:MyBallot",
						"label": "voters",
						"offset": 0,
						"slot": "1",
						"type": "t_mapping(t_address,t_struct(Voter)8_storage)"
					},
					{
						"astId": 24,
						"contract": "contracts/Ballot/Ballot.sol:MyBallot",
						"label": "candidates",
						"offset": 0,
						"slot": "2",
						"type": "t_array(t_struct(Candidate)13_storage)dyn_storage"
					},
					{
						"astId": 26,
						"contract": "contracts/Ballot/Ballot.sol:MyBallot",
						"label": "totalVotesCounter",
						"offset": 0,
						"slot": "3",
						"type": "t_uint256"
					},
					{
						"astId": 28,
						"contract": "contracts/Ballot/Ballot.sol:MyBallot",
						"label": "maxVotes",
						"offset": 0,
						"slot": "4",
						"type": "t_uint256"
					}
				],
				"types": {
					"t_address": {
						"encoding": "inplace",
						"label": "address",
						"numberOfBytes": "20"
					},
					"t_array(t_struct(Candidate)13_storage)dyn_storage": {
						"base": "t_struct(Candidate)13_storage",
						"encoding": "dynamic_array",
						"label": "struct MyBallot.Candidate[]",
						"numberOfBytes": "32"
					},
					"t_bool": {
						"encoding": "inplace",
						"label": "bool",
						"numberOfBytes": "1"
					},
					"t_mapping(t_address,t_struct(Voter)8_storage)": {
						"encoding": "mapping",
						"key": "t_address",
						"label": "mapping(address => struct MyBallot.Voter)",
						"numberOfBytes": "32",
						"value": "t_struct(Voter)8_storage"
					},
					"t_string_storage": {
						"encoding": "bytes",
						"label": "string",
						"numberOfBytes": "32"
					},
					"t_struct(Candidate)13_storage": {
						"encoding": "inplace",
						"label": "struct MyBallot.Candidate",
						"members": [
							{
								"astId": 10,
								"contract": "contracts/Ballot/Ballot.sol:MyBallot",
								"label": "nameProject",
								"offset": 0,
								"slot": "0",
								"type": "t_string_storage"
							},
							{
								"astId": 12,
								"contract": "contracts/Ballot/Ballot.sol:MyBallot",
								"label": "votesCount",
								"offset": 0,
								"slot": "1",
								"type": "t_uint256"
							}
						],
						"numberOfBytes": "64"
					},
					"t_struct(Voter)8_storage": {
						"encoding": "inplace",
						"label": "struct MyBallot.Voter",
						"members": [
							{
								"astId": 3,
								"contract": "contracts/Ballot/Ballot.sol:MyBallot",
								"label": "nameVoter",
								"offset": 0,
								"slot": "0",
								"type": "t_string_storage"
							},
							{
								"astId": 5,
								"contract": "contracts/Ballot/Ballot.sol:MyBallot",
								"label": "canVote",
								"offset": 0,
								"slot": "1",
								"type": "t_bool"
							},
							{
								"astId": 7,
								"contract": "contracts/Ballot/Ballot.sol:MyBallot",
								"label": "hasVoted",
								"offset": 1,
								"slot": "1",
								"type": "t_bool"
							}
						],
						"numberOfBytes": "64"
					},
					"t_uint256": {
						"encoding": "inplace",
						"label": "uint256",
						"numberOfBytes": "32"
					}
				}
			},
			"userdoc": {
				"kind": "user",
				"methods": {},
				"version": 1
			}
		}
	}
}