{
	"contracts/Ballot/Ballot.sol": {
		"MyBallot": {
			"abi": [
				{
					"inputs": [
						{
							"internalType": "string[]",
							"name": "_candidates",
							"type": "string[]"
						},
						{
							"internalType": "uint256",
							"name": "_maxVotes",
							"type": "uint256"
						}
					],
					"stateMutability": "nonpayable",
					"type": "constructor"
				},
				{
					"inputs": [
						{
							"internalType": "uint256",
							"name": "",
							"type": "uint256"
						}
					],
					"name": "candidates",
					"outputs": [
						{
							"internalType": "string",
							"name": "nameProject",
							"type": "string"
						},
						{
							"internalType": "uint256",
							"name": "votesCount",
							"type": "uint256"
						}
					],
					"stateMutability": "view",
					"type": "function"
				},
				{
					"inputs": [],
					"name": "getCandidatesListName",
					"outputs": [
						{
							"internalType": "string[]",
							"name": "",
							"type": "string[]"
						}
					],
					"stateMutability": "view",
					"type": "function"
				},
				{
					"inputs": [],
					"name": "getWinnerBallot",
					"outputs": [
						{
							"internalType": "string",
							"name": "winnerName",
							"type": "string"
						},
						{
							"internalType": "uint256",
							"name": "amountWinningVotes",
							"type": "uint256"
						},
						{
							"internalType": "address",
							"name": "contractAddress",
							"type": "address"
						}
					],
					"stateMutability": "view",
					"type": "function"
				},
				{
					"inputs": [
						{
							"internalType": "address",
							"name": "voterAddress",
							"type": "address"
						},
						{
							"internalType": "string",
							"name": "_nameVoter",
							"type": "string"
						}
					],
					"name": "giveRightToVote",
					"outputs": [],
					"stateMutability": "nonpayable",
					"type": "function"
				},
				{
					"inputs": [
						{
							"internalType": "string",
							"name": "_nameProject",
							"type": "string"
						}
					],
					"name": "vote",
					"outputs": [],
					"stateMutability": "nonpayable",
					"type": "function"
				}
			],
			"devdoc": {
				"kind": "dev",
				"methods": {},
				"version": 1
			},
			"evm": {
				"assembly": "    /* \"contracts/Ballot/Ballot.sol\":125:8224  contract MyBallot {\r... */\n  mstore(0x40, 0x80)\n    /* \"contracts/Ballot/Ballot.sol\":589:778  constructor(string[] memory _candidates, uint _maxVotes) {\r... */\n  callvalue\n  dup1\n  iszero\n  tag_1\n  jumpi\n  0x00\n  dup1\n  revert\ntag_1:\n  pop\n  mload(0x40)\n  sub(codesize, bytecodeSize)\n  dup1\n  bytecodeSize\n  dup4\n  codecopy\n  dup2\n  dup2\n  add\n  0x40\n  mstore\n  dup2\n  add\n  swap1\n  tag_2\n  swap2\n  swap1\n  tag_3\n  jump\t// in\ntag_2:\n    /* \"contracts/Ballot/Ballot.sol\":673:683  msg.sender */\n  caller\n    /* \"contracts/Ballot/Ballot.sol\":657:670  contractOwner */\n  0x00\n  dup1\n    /* \"contracts/Ballot/Ballot.sol\":657:683  contractOwner = msg.sender */\n  0x0100\n  exp\n  dup2\n  sload\n  dup2\n  0xffffffffffffffffffffffffffffffffffffffff\n  mul\n  not\n  and\n  swap1\n  dup4\n  0xffffffffffffffffffffffffffffffffffffffff\n  and\n  mul\n  or\n  swap1\n  sstore\n  pop\n    /* \"contracts/Ballot/Ballot.sol\":694:731  setCandidatesIntoStorage(_candidates) */\n  tag_6\n    /* \"contracts/Ballot/Ballot.sol\":719:730  _candidates */\n  dup3\n    /* \"contracts/Ballot/Ballot.sol\":694:718  setCandidatesIntoStorage */\n  shl(0x20, tag_7)\n    /* \"contracts/Ballot/Ballot.sol\":694:731  setCandidatesIntoStorage(_candidates) */\n  0x20\n  shr\n  jump\t// in\ntag_6:\n    /* \"contracts/Ballot/Ballot.sol\":761:770  _maxVotes */\n  dup1\n    /* \"contracts/Ballot/Ballot.sol\":750:758  maxVotes */\n  0x04\n    /* \"contracts/Ballot/Ballot.sol\":750:770  maxVotes = _maxVotes */\n  dup2\n  swap1\n  sstore\n  pop\n    /* \"contracts/Ballot/Ballot.sol\":589:778  constructor(string[] memory _candidates, uint _maxVotes) {\r... */\n  pop\n  pop\n    /* \"contracts/Ballot/Ballot.sol\":125:8224  contract MyBallot {\r... */\n  jump(tag_8)\n    /* \"contracts/Ballot/Ballot.sol\":3036:3335  function setCandidatesIntoStorage(string[] memory _candidates) private {\r... */\ntag_7:\n    /* \"contracts/Ballot/Ballot.sol\":3123:3133  uint index */\n  0x00\n    /* \"contracts/Ballot/Ballot.sol\":3118:3328  for (uint index = 0; index < _candidates.length; index++) {\r... */\ntag_10:\n    /* \"contracts/Ballot/Ballot.sol\":3147:3158  _candidates */\n  dup2\n    /* \"contracts/Ballot/Ballot.sol\":3147:3165  _candidates.length */\n  mload\n    /* \"contracts/Ballot/Ballot.sol\":3139:3144  index */\n  dup2\n    /* \"contracts/Ballot/Ballot.sol\":3139:3165  index < _candidates.length */\n  lt\n    /* \"contracts/Ballot/Ballot.sol\":3118:3328  for (uint index = 0; index < _candidates.length; index++) {\r... */\n  iszero\n  tag_11\n  jumpi\n    /* \"contracts/Ballot/Ballot.sol\":3191:3201  candidates */\n  0x02\n    /* \"contracts/Ballot/Ballot.sol\":3207:3315  Candidate({\r... */\n  mload(0x40)\n  dup1\n  0x40\n  add\n  0x40\n  mstore\n  dup1\n    /* \"contracts/Ballot/Ballot.sol\":3249:3260  _candidates */\n  dup5\n    /* \"contracts/Ballot/Ballot.sol\":3261:3266  index */\n  dup5\n    /* \"contracts/Ballot/Ballot.sol\":3249:3267  _candidates[index] */\n  dup2\n  mload\n  dup2\n  lt\n  tag_13\n  jumpi\n  tag_14\n  tag_15\n  jump\t// in\ntag_14:\ntag_13:\n  0x20\n  mul\n  0x20\n  add\n  add\n  mload\n    /* \"contracts/Ballot/Ballot.sol\":3207:3315  Candidate({\r... */\n  dup2\n  mstore\n  0x20\n  add\n    /* \"contracts/Ballot/Ballot.sol\":3298:3299  0 */\n  0x00\n    /* \"contracts/Ballot/Ballot.sol\":3207:3315  Candidate({\r... */\n  dup2\n  mstore\n  pop\n    /* \"contracts/Ballot/Ballot.sol\":3191:3316  candidates.push(Candidate({\r... */\n  swap1\n  dup1\n  0x01\n  dup2\n  sload\n  add\n  dup1\n  dup3\n  sstore\n  dup1\n  swap2\n  pop\n  pop\n  0x01\n  swap1\n  sub\n  swap1\n  0x00\n  mstore\n  keccak256(0x00, 0x20)\n  swap1\n  0x02\n  mul\n  add\n  0x00\n  swap1\n  swap2\n  swap1\n  swap2\n  swap1\n  swap2\n  pop\n  0x00\n  dup3\n  add\n  mload\n  dup2\n  0x00\n  add\n  swap1\n  dup1\n  mload\n  swap1\n  0x20\n  add\n  swap1\n  tag_17\n  swap3\n  swap2\n  swap1\n  tag_18\n  jump\t// in\ntag_17:\n  pop\n  0x20\n  dup3\n  add\n  mload\n  dup2\n  0x01\n  add\n  sstore\n  pop\n  pop\n    /* \"contracts/Ballot/Ballot.sol\":3167:3174  index++ */\n  dup1\n  dup1\n  tag_19\n  swap1\n  tag_20\n  jump\t// in\ntag_19:\n  swap2\n  pop\n  pop\n    /* \"contracts/Ballot/Ballot.sol\":3118:3328  for (uint index = 0; index < _candidates.length; index++) {\r... */\n  jump(tag_10)\ntag_11:\n  pop\n    /* \"contracts/Ballot/Ballot.sol\":3036:3335  function setCandidatesIntoStorage(string[] memory _candidates) private {\r... */\n  pop\n  jump\t// out\n    /* \"contracts/Ballot/Ballot.sol\":125:8224  contract MyBallot {\r... */\ntag_18:\n  dup3\n  dup1\n  sload\n  tag_21\n  swap1\n  tag_22\n  jump\t// in\ntag_21:\n  swap1\n  0x00\n  mstore\n  keccak256(0x00, 0x20)\n  swap1\n  0x1f\n  add\n  0x20\n  swap1\n  div\n  dup2\n  add\n  swap3\n  dup3\n  tag_24\n  jumpi\n  0x00\n  dup6\n  sstore\n  jump(tag_23)\ntag_24:\n  dup3\n  0x1f\n  lt\n  tag_25\n  jumpi\n  dup1\n  mload\n  not(0xff)\n  and\n  dup4\n  dup1\n  add\n  or\n  dup6\n  sstore\n  jump(tag_23)\ntag_25:\n  dup3\n  dup1\n  add\n  0x01\n  add\n  dup6\n  sstore\n  dup3\n  iszero\n  tag_23\n  jumpi\n  swap2\n  dup3\n  add\ntag_26:\n  dup3\n  dup2\n  gt\n  iszero\n  tag_27\n  jumpi\n  dup3\n  mload\n  dup3\n  sstore\n  swap2\n  0x20\n  add\n  swap2\n  swap1\n  0x01\n  add\n  swap1\n  jump(tag_26)\ntag_27:\ntag_23:\n  pop\n  swap1\n  pop\n  tag_28\n  swap2\n  swap1\n  tag_29\n  jump\t// in\ntag_28:\n  pop\n  swap1\n  jump\t// out\ntag_29:\ntag_30:\n  dup1\n  dup3\n  gt\n  iszero\n  tag_31\n  jumpi\n  0x00\n  dup2\n  0x00\n  swap1\n  sstore\n  pop\n  0x01\n  add\n  jump(tag_30)\ntag_31:\n  pop\n  swap1\n  jump\t// out\n    /* \"#utility.yul\":23:995   */\ntag_33:\n    /* \"#utility.yul\":140:145   */\n  0x00\n    /* \"#utility.yul\":165:256   */\n  tag_35\n    /* \"#utility.yul\":181:255   */\n  tag_36\n    /* \"#utility.yul\":248:254   */\n  dup5\n    /* \"#utility.yul\":181:255   */\n  tag_37\n  jump\t// in\ntag_36:\n    /* \"#utility.yul\":165:256   */\n  tag_38\n  jump\t// in\ntag_35:\n    /* \"#utility.yul\":156:256   */\n  swap1\n  pop\n    /* \"#utility.yul\":276:281   */\n  dup1\n    /* \"#utility.yul\":305:311   */\n  dup4\n    /* \"#utility.yul\":298:303   */\n  dup3\n    /* \"#utility.yul\":291:312   */\n  mstore\n    /* \"#utility.yul\":339:343   */\n  0x20\n    /* \"#utility.yul\":332:337   */\n  dup3\n    /* \"#utility.yul\":328:344   */\n  add\n    /* \"#utility.yul\":321:344   */\n  swap1\n  pop\n    /* \"#utility.yul\":365:371   */\n  dup3\n    /* \"#utility.yul\":415:418   */\n  dup6\n    /* \"#utility.yul\":407:411   */\n  0x20\n    /* \"#utility.yul\":399:405   */\n  dup7\n    /* \"#utility.yul\":395:412   */\n  mul\n    /* \"#utility.yul\":390:393   */\n  dup3\n    /* \"#utility.yul\":386:413   */\n  add\n    /* \"#utility.yul\":383:419   */\n  gt\n    /* \"#utility.yul\":380:523   */\n  iszero\n  tag_39\n  jumpi\n    /* \"#utility.yul\":434:513   */\n  tag_40\n  tag_41\n  jump\t// in\ntag_40:\n    /* \"#utility.yul\":380:523   */\ntag_39:\n    /* \"#utility.yul\":547:548   */\n  0x00\n    /* \"#utility.yul\":532:989   */\ntag_42:\n    /* \"#utility.yul\":557:563   */\n  dup6\n    /* \"#utility.yul\":554:555   */\n  dup2\n    /* \"#utility.yul\":551:564   */\n  lt\n    /* \"#utility.yul\":532:989   */\n  iszero\n  tag_44\n  jumpi\n    /* \"#utility.yul\":632:635   */\n  dup2\n    /* \"#utility.yul\":626:636   */\n  mload\n    /* \"#utility.yul\":668:686   */\n  0xffffffffffffffff\n    /* \"#utility.yul\":655:666   */\n  dup2\n    /* \"#utility.yul\":652:687   */\n  gt\n    /* \"#utility.yul\":649:771   */\n  iszero\n  tag_45\n  jumpi\n    /* \"#utility.yul\":690:769   */\n  tag_46\n  tag_47\n  jump\t// in\ntag_46:\n    /* \"#utility.yul\":649:771   */\ntag_45:\n    /* \"#utility.yul\":814:825   */\n  dup1\n    /* \"#utility.yul\":806:812   */\n  dup7\n    /* \"#utility.yul\":802:826   */\n  add\n    /* \"#utility.yul\":852:910   */\n  tag_48\n    /* \"#utility.yul\":906:909   */\n  dup10\n    /* \"#utility.yul\":894:904   */\n  dup3\n    /* \"#utility.yul\":852:910   */\n  tag_49\n  jump\t// in\ntag_48:\n    /* \"#utility.yul\":847:850   */\n  dup6\n    /* \"#utility.yul\":840:911   */\n  mstore\n    /* \"#utility.yul\":940:944   */\n  0x20\n    /* \"#utility.yul\":935:938   */\n  dup6\n    /* \"#utility.yul\":931:945   */\n  add\n    /* \"#utility.yul\":924:945   */\n  swap5\n  pop\n    /* \"#utility.yul\":974:978   */\n  0x20\n    /* \"#utility.yul\":969:972   */\n  dup5\n    /* \"#utility.yul\":965:979   */\n  add\n    /* \"#utility.yul\":958:979   */\n  swap4\n  pop\n    /* \"#utility.yul\":592:989   */\n  pop\n  pop\n    /* \"#utility.yul\":579:580   */\n  0x01\n    /* \"#utility.yul\":576:577   */\n  dup2\n    /* \"#utility.yul\":572:581   */\n  add\n    /* \"#utility.yul\":567:581   */\n  swap1\n  pop\n    /* \"#utility.yul\":532:989   */\n  jump(tag_42)\ntag_44:\n    /* \"#utility.yul\":536:550   */\n  pop\n    /* \"#utility.yul\":146:995   */\n  pop\n  pop\n    /* \"#utility.yul\":23:995   */\n  swap4\n  swap3\n  pop\n  pop\n  pop\n  jump\t// out\n    /* \"#utility.yul\":1001:1422   */\ntag_50:\n    /* \"#utility.yul\":1090:1095   */\n  0x00\n    /* \"#utility.yul\":1115:1181   */\n  tag_52\n    /* \"#utility.yul\":1131:1180   */\n  tag_53\n    /* \"#utility.yul\":1173:1179   */\n  dup5\n    /* \"#utility.yul\":1131:1180   */\n  tag_54\n  jump\t// in\ntag_53:\n    /* \"#utility.yul\":1115:1181   */\n  tag_38\n  jump\t// in\ntag_52:\n    /* \"#utility.yul\":1106:1181   */\n  swap1\n  pop\n    /* \"#utility.yul\":1204:1210   */\n  dup3\n    /* \"#utility.yul\":1197:1202   */\n  dup2\n    /* \"#utility.yul\":1190:1211   */\n  mstore\n    /* \"#utility.yul\":1242:1246   */\n  0x20\n    /* \"#utility.yul\":1235:1240   */\n  dup2\n    /* \"#utility.yul\":1231:1247   */\n  add\n    /* \"#utility.yul\":1280:1283   */\n  dup5\n    /* \"#utility.yul\":1271:1277   */\n  dup5\n    /* \"#utility.yul\":1266:1269   */\n  dup5\n    /* \"#utility.yul\":1262:1278   */\n  add\n    /* \"#utility.yul\":1259:1284   */\n  gt\n    /* \"#utility.yul\":1256:1368   */\n  iszero\n  tag_55\n  jumpi\n    /* \"#utility.yul\":1287:1366   */\n  tag_56\n  tag_57\n  jump\t// in\ntag_56:\n    /* \"#utility.yul\":1256:1368   */\ntag_55:\n    /* \"#utility.yul\":1377:1416   */\n  tag_58\n    /* \"#utility.yul\":1409:1415   */\n  dup5\n    /* \"#utility.yul\":1404:1407   */\n  dup3\n    /* \"#utility.yul\":1399:1402   */\n  dup6\n    /* \"#utility.yul\":1377:1416   */\n  tag_59\n  jump\t// in\ntag_58:\n    /* \"#utility.yul\":1096:1422   */\n  pop\n    /* \"#utility.yul\":1001:1422   */\n  swap4\n  swap3\n  pop\n  pop\n  pop\n  jump\t// out\n    /* \"#utility.yul\":1444:1849   */\ntag_60:\n    /* \"#utility.yul\":1536:1541   */\n  0x00\n    /* \"#utility.yul\":1585:1588   */\n  dup3\n    /* \"#utility.yul\":1578:1582   */\n  0x1f\n    /* \"#utility.yul\":1570:1576   */\n  dup4\n    /* \"#utility.yul\":1566:1583   */\n  add\n    /* \"#utility.yul\":1562:1589   */\n  slt\n    /* \"#utility.yul\":1552:1674   */\n  tag_62\n  jumpi\n    /* \"#utility.yul\":1593:1672   */\n  tag_63\n  tag_47\n  jump\t// in\ntag_63:\n    /* \"#utility.yul\":1552:1674   */\ntag_62:\n    /* \"#utility.yul\":1703:1709   */\n  dup2\n    /* \"#utility.yul\":1697:1710   */\n  mload\n    /* \"#utility.yul\":1728:1843   */\n  tag_64\n    /* \"#utility.yul\":1839:1842   */\n  dup5\n    /* \"#utility.yul\":1831:1837   */\n  dup3\n    /* \"#utility.yul\":1824:1828   */\n  0x20\n    /* \"#utility.yul\":1816:1822   */\n  dup7\n    /* \"#utility.yul\":1812:1829   */\n  add\n    /* \"#utility.yul\":1728:1843   */\n  tag_33\n  jump\t// in\ntag_64:\n    /* \"#utility.yul\":1719:1843   */\n  swap2\n  pop\n    /* \"#utility.yul\":1542:1849   */\n  pop\n    /* \"#utility.yul\":1444:1849   */\n  swap3\n  swap2\n  pop\n  pop\n  jump\t// out\n    /* \"#utility.yul\":1869:2224   */\ntag_49:\n    /* \"#utility.yul\":1936:1941   */\n  0x00\n    /* \"#utility.yul\":1985:1988   */\n  dup3\n    /* \"#utility.yul\":1978:1982   */\n  0x1f\n    /* \"#utility.yul\":1970:1976   */\n  dup4\n    /* \"#utility.yul\":1966:1983   */\n  add\n    /* \"#utility.yul\":1962:1989   */\n  slt\n    /* \"#utility.yul\":1952:2074   */\n  tag_66\n  jumpi\n    /* \"#utility.yul\":1993:2072   */\n  tag_67\n  tag_47\n  jump\t// in\ntag_67:\n    /* \"#utility.yul\":1952:2074   */\ntag_66:\n    /* \"#utility.yul\":2103:2109   */\n  dup2\n    /* \"#utility.yul\":2097:2110   */\n  mload\n    /* \"#utility.yul\":2128:2218   */\n  tag_68\n    /* \"#utility.yul\":2214:2217   */\n  dup5\n    /* \"#utility.yul\":2206:2212   */\n  dup3\n    /* \"#utility.yul\":2199:2203   */\n  0x20\n    /* \"#utility.yul\":2191:2197   */\n  dup7\n    /* \"#utility.yul\":2187:2204   */\n  add\n    /* \"#utility.yul\":2128:2218   */\n  tag_50\n  jump\t// in\ntag_68:\n    /* \"#utility.yul\":2119:2218   */\n  swap2\n  pop\n    /* \"#utility.yul\":1942:2224   */\n  pop\n    /* \"#utility.yul\":1869:2224   */\n  swap3\n  swap2\n  pop\n  pop\n  jump\t// out\n    /* \"#utility.yul\":2230:2373   */\ntag_69:\n    /* \"#utility.yul\":2287:2292   */\n  0x00\n    /* \"#utility.yul\":2318:2324   */\n  dup2\n    /* \"#utility.yul\":2312:2325   */\n  mload\n    /* \"#utility.yul\":2303:2325   */\n  swap1\n  pop\n    /* \"#utility.yul\":2334:2367   */\n  tag_71\n    /* \"#utility.yul\":2361:2366   */\n  dup2\n    /* \"#utility.yul\":2334:2367   */\n  tag_72\n  jump\t// in\ntag_71:\n    /* \"#utility.yul\":2230:2373   */\n  swap3\n  swap2\n  pop\n  pop\n  jump\t// out\n    /* \"#utility.yul\":2379:3109   */\ntag_3:\n    /* \"#utility.yul\":2493:2499   */\n  0x00\n    /* \"#utility.yul\":2501:2507   */\n  dup1\n    /* \"#utility.yul\":2550:2552   */\n  0x40\n    /* \"#utility.yul\":2538:2547   */\n  dup4\n    /* \"#utility.yul\":2529:2536   */\n  dup6\n    /* \"#utility.yul\":2525:2548   */\n  sub\n    /* \"#utility.yul\":2521:2553   */\n  slt\n    /* \"#utility.yul\":2518:2637   */\n  iszero\n  tag_74\n  jumpi\n    /* \"#utility.yul\":2556:2635   */\n  tag_75\n  tag_76\n  jump\t// in\ntag_75:\n    /* \"#utility.yul\":2518:2637   */\ntag_74:\n    /* \"#utility.yul\":2697:2698   */\n  0x00\n    /* \"#utility.yul\":2686:2695   */\n  dup4\n    /* \"#utility.yul\":2682:2699   */\n  add\n    /* \"#utility.yul\":2676:2700   */\n  mload\n    /* \"#utility.yul\":2727:2745   */\n  0xffffffffffffffff\n    /* \"#utility.yul\":2719:2725   */\n  dup2\n    /* \"#utility.yul\":2716:2746   */\n  gt\n    /* \"#utility.yul\":2713:2830   */\n  iszero\n  tag_77\n  jumpi\n    /* \"#utility.yul\":2749:2828   */\n  tag_78\n  tag_79\n  jump\t// in\ntag_78:\n    /* \"#utility.yul\":2713:2830   */\ntag_77:\n    /* \"#utility.yul\":2854:2953   */\n  tag_80\n    /* \"#utility.yul\":2945:2952   */\n  dup6\n    /* \"#utility.yul\":2936:2942   */\n  dup3\n    /* \"#utility.yul\":2925:2934   */\n  dup7\n    /* \"#utility.yul\":2921:2943   */\n  add\n    /* \"#utility.yul\":2854:2953   */\n  tag_60\n  jump\t// in\ntag_80:\n    /* \"#utility.yul\":2844:2953   */\n  swap3\n  pop\n    /* \"#utility.yul\":2647:2963   */\n  pop\n    /* \"#utility.yul\":3002:3004   */\n  0x20\n    /* \"#utility.yul\":3028:3092   */\n  tag_81\n    /* \"#utility.yul\":3084:3091   */\n  dup6\n    /* \"#utility.yul\":3075:3081   */\n  dup3\n    /* \"#utility.yul\":3064:3073   */\n  dup7\n    /* \"#utility.yul\":3060:3082   */\n  add\n    /* \"#utility.yul\":3028:3092   */\n  tag_69\n  jump\t// in\ntag_81:\n    /* \"#utility.yul\":3018:3092   */\n  swap2\n  pop\n    /* \"#utility.yul\":2973:3102   */\n  pop\n    /* \"#utility.yul\":2379:3109   */\n  swap3\n  pop\n  swap3\n  swap1\n  pop\n  jump\t// out\n    /* \"#utility.yul\":3115:3244   */\ntag_38:\n    /* \"#utility.yul\":3149:3155   */\n  0x00\n    /* \"#utility.yul\":3176:3196   */\n  tag_83\n  tag_84\n  jump\t// in\ntag_83:\n    /* \"#utility.yul\":3166:3196   */\n  swap1\n  pop\n    /* \"#utility.yul\":3205:3238   */\n  tag_85\n    /* \"#utility.yul\":3233:3237   */\n  dup3\n    /* \"#utility.yul\":3225:3231   */\n  dup3\n    /* \"#utility.yul\":3205:3238   */\n  tag_86\n  jump\t// in\ntag_85:\n    /* \"#utility.yul\":3115:3244   */\n  swap2\n  swap1\n  pop\n  jump\t// out\n    /* \"#utility.yul\":3250:3325   */\ntag_84:\n    /* \"#utility.yul\":3283:3289   */\n  0x00\n    /* \"#utility.yul\":3316:3318   */\n  0x40\n    /* \"#utility.yul\":3310:3319   */\n  mload\n    /* \"#utility.yul\":3300:3319   */\n  swap1\n  pop\n    /* \"#utility.yul\":3250:3325   */\n  swap1\n  jump\t// out\n    /* \"#utility.yul\":3331:3652   */\ntag_37:\n    /* \"#utility.yul\":3418:3422   */\n  0x00\n    /* \"#utility.yul\":3508:3526   */\n  0xffffffffffffffff\n    /* \"#utility.yul\":3500:3506   */\n  dup3\n    /* \"#utility.yul\":3497:3527   */\n  gt\n    /* \"#utility.yul\":3494:3550   */\n  iszero\n  tag_89\n  jumpi\n    /* \"#utility.yul\":3530:3548   */\n  tag_90\n  tag_91\n  jump\t// in\ntag_90:\n    /* \"#utility.yul\":3494:3550   */\ntag_89:\n    /* \"#utility.yul\":3580:3584   */\n  0x20\n    /* \"#utility.yul\":3572:3578   */\n  dup3\n    /* \"#utility.yul\":3568:3585   */\n  mul\n    /* \"#utility.yul\":3560:3585   */\n  swap1\n  pop\n    /* \"#utility.yul\":3640:3644   */\n  0x20\n    /* \"#utility.yul\":3634:3638   */\n  dup2\n    /* \"#utility.yul\":3630:3645   */\n  add\n    /* \"#utility.yul\":3622:3645   */\n  swap1\n  pop\n    /* \"#utility.yul\":3331:3652   */\n  swap2\n  swap1\n  pop\n  jump\t// out\n    /* \"#utility.yul\":3658:3966   */\ntag_54:\n    /* \"#utility.yul\":3720:3724   */\n  0x00\n    /* \"#utility.yul\":3810:3828   */\n  0xffffffffffffffff\n    /* \"#utility.yul\":3802:3808   */\n  dup3\n    /* \"#utility.yul\":3799:3829   */\n  gt\n    /* \"#utility.yul\":3796:3852   */\n  iszero\n  tag_93\n  jumpi\n    /* \"#utility.yul\":3832:3850   */\n  tag_94\n  tag_91\n  jump\t// in\ntag_94:\n    /* \"#utility.yul\":3796:3852   */\ntag_93:\n    /* \"#utility.yul\":3870:3899   */\n  tag_95\n    /* \"#utility.yul\":3892:3898   */\n  dup3\n    /* \"#utility.yul\":3870:3899   */\n  tag_96\n  jump\t// in\ntag_95:\n    /* \"#utility.yul\":3862:3899   */\n  swap1\n  pop\n    /* \"#utility.yul\":3954:3958   */\n  0x20\n    /* \"#utility.yul\":3948:3952   */\n  dup2\n    /* \"#utility.yul\":3944:3959   */\n  add\n    /* \"#utility.yul\":3936:3959   */\n  swap1\n  pop\n    /* \"#utility.yul\":3658:3966   */\n  swap2\n  swap1\n  pop\n  jump\t// out\n    /* \"#utility.yul\":3972:4049   */\ntag_97:\n    /* \"#utility.yul\":4009:4016   */\n  0x00\n    /* \"#utility.yul\":4038:4043   */\n  dup2\n    /* \"#utility.yul\":4027:4043   */\n  swap1\n  pop\n    /* \"#utility.yul\":3972:4049   */\n  swap2\n  swap1\n  pop\n  jump\t// out\n    /* \"#utility.yul\":4055:4362   */\ntag_59:\n    /* \"#utility.yul\":4123:4124   */\n  0x00\n    /* \"#utility.yul\":4133:4246   */\ntag_100:\n    /* \"#utility.yul\":4147:4153   */\n  dup4\n    /* \"#utility.yul\":4144:4145   */\n  dup2\n    /* \"#utility.yul\":4141:4154   */\n  lt\n    /* \"#utility.yul\":4133:4246   */\n  iszero\n  tag_102\n  jumpi\n    /* \"#utility.yul\":4232:4233   */\n  dup1\n    /* \"#utility.yul\":4227:4230   */\n  dup3\n    /* \"#utility.yul\":4223:4234   */\n  add\n    /* \"#utility.yul\":4217:4235   */\n  mload\n    /* \"#utility.yul\":4213:4214   */\n  dup2\n    /* \"#utility.yul\":4208:4211   */\n  dup5\n    /* \"#utility.yul\":4204:4215   */\n  add\n    /* \"#utility.yul\":4197:4236   */\n  mstore\n    /* \"#utility.yul\":4169:4171   */\n  0x20\n    /* \"#utility.yul\":4166:4167   */\n  dup2\n    /* \"#utility.yul\":4162:4172   */\n  add\n    /* \"#utility.yul\":4157:4172   */\n  swap1\n  pop\n    /* \"#utility.yul\":4133:4246   */\n  jump(tag_100)\ntag_102:\n    /* \"#utility.yul\":4264:4270   */\n  dup4\n    /* \"#utility.yul\":4261:4262   */\n  dup2\n    /* \"#utility.yul\":4258:4271   */\n  gt\n    /* \"#utility.yul\":4255:4356   */\n  iszero\n  tag_103\n  jumpi\n    /* \"#utility.yul\":4344:4345   */\n  0x00\n    /* \"#utility.yul\":4335:4341   */\n  dup5\n    /* \"#utility.yul\":4330:4333   */\n  dup5\n    /* \"#utility.yul\":4326:4342   */\n  add\n    /* \"#utility.yul\":4319:4346   */\n  mstore\n    /* \"#utility.yul\":4255:4356   */\ntag_103:\n    /* \"#utility.yul\":4104:4362   */\n  pop\n    /* \"#utility.yul\":4055:4362   */\n  pop\n  pop\n  pop\n  jump\t// out\n    /* \"#utility.yul\":4368:4688   */\ntag_22:\n    /* \"#utility.yul\":4412:4418   */\n  0x00\n    /* \"#utility.yul\":4449:4450   */\n  0x02\n    /* \"#utility.yul\":4443:4447   */\n  dup3\n    /* \"#utility.yul\":4439:4451   */\n  div\n    /* \"#utility.yul\":4429:4451   */\n  swap1\n  pop\n    /* \"#utility.yul\":4496:4497   */\n  0x01\n    /* \"#utility.yul\":4490:4494   */\n  dup3\n    /* \"#utility.yul\":4486:4498   */\n  and\n    /* \"#utility.yul\":4517:4535   */\n  dup1\n    /* \"#utility.yul\":4507:4588   */\n  tag_105\n  jumpi\n    /* \"#utility.yul\":4573:4577   */\n  0x7f\n    /* \"#utility.yul\":4565:4571   */\n  dup3\n    /* \"#utility.yul\":4561:4578   */\n  and\n    /* \"#utility.yul\":4551:4578   */\n  swap2\n  pop\n    /* \"#utility.yul\":4507:4588   */\ntag_105:\n    /* \"#utility.yul\":4635:4637   */\n  0x20\n    /* \"#utility.yul\":4627:4633   */\n  dup3\n    /* \"#utility.yul\":4624:4638   */\n  lt\n    /* \"#utility.yul\":4604:4622   */\n  dup2\n    /* \"#utility.yul\":4601:4639   */\n  eq\n    /* \"#utility.yul\":4598:4682   */\n  iszero\n  tag_106\n  jumpi\n    /* \"#utility.yul\":4654:4672   */\n  tag_107\n  tag_108\n  jump\t// in\ntag_107:\n    /* \"#utility.yul\":4598:4682   */\ntag_106:\n    /* \"#utility.yul\":4419:4688   */\n  pop\n    /* \"#utility.yul\":4368:4688   */\n  swap2\n  swap1\n  pop\n  jump\t// out\n    /* \"#utility.yul\":4694:4975   */\ntag_86:\n    /* \"#utility.yul\":4777:4804   */\n  tag_110\n    /* \"#utility.yul\":4799:4803   */\n  dup3\n    /* \"#utility.yul\":4777:4804   */\n  tag_96\n  jump\t// in\ntag_110:\n    /* \"#utility.yul\":4769:4775   */\n  dup2\n    /* \"#utility.yul\":4765:4805   */\n  add\n    /* \"#utility.yul\":4907:4913   */\n  dup2\n    /* \"#utility.yul\":4895:4905   */\n  dup2\n    /* \"#utility.yul\":4892:4914   */\n  lt\n    /* \"#utility.yul\":4871:4889   */\n  0xffffffffffffffff\n    /* \"#utility.yul\":4859:4869   */\n  dup3\n    /* \"#utility.yul\":4856:4890   */\n  gt\n    /* \"#utility.yul\":4853:4915   */\n  or\n    /* \"#utility.yul\":4850:4938   */\n  iszero\n  tag_111\n  jumpi\n    /* \"#utility.yul\":4918:4936   */\n  tag_112\n  tag_91\n  jump\t// in\ntag_112:\n    /* \"#utility.yul\":4850:4938   */\ntag_111:\n    /* \"#utility.yul\":4958:4968   */\n  dup1\n    /* \"#utility.yul\":4954:4956   */\n  0x40\n    /* \"#utility.yul\":4947:4969   */\n  mstore\n    /* \"#utility.yul\":4737:4975   */\n  pop\n    /* \"#utility.yul\":4694:4975   */\n  pop\n  pop\n  jump\t// out\n    /* \"#utility.yul\":4981:5214   */\ntag_20:\n    /* \"#utility.yul\":5020:5023   */\n  0x00\n    /* \"#utility.yul\":5043:5067   */\n  tag_114\n    /* \"#utility.yul\":5061:5066   */\n  dup3\n    /* \"#utility.yul\":5043:5067   */\n  tag_97\n  jump\t// in\ntag_114:\n    /* \"#utility.yul\":5034:5067   */\n  swap2\n  pop\n    /* \"#utility.yul\":5089:5155   */\n  0xffffffffffffffffffffffffffffffffffffffffffffffffffffffffffffffff\n    /* \"#utility.yul\":5082:5087   */\n  dup3\n    /* \"#utility.yul\":5079:5156   */\n  eq\n    /* \"#utility.yul\":5076:5179   */\n  iszero\n  tag_115\n  jumpi\n    /* \"#utility.yul\":5159:5177   */\n  tag_116\n  tag_117\n  jump\t// in\ntag_116:\n    /* \"#utility.yul\":5076:5179   */\ntag_115:\n    /* \"#utility.yul\":5206:5207   */\n  0x01\n    /* \"#utility.yul\":5199:5204   */\n  dup3\n    /* \"#utility.yul\":5195:5208   */\n  add\n    /* \"#utility.yul\":5188:5208   */\n  swap1\n  pop\n    /* \"#utility.yul\":4981:5214   */\n  swap2\n  swap1\n  pop\n  jump\t// out\n    /* \"#utility.yul\":5220:5400   */\ntag_117:\n    /* \"#utility.yul\":5268:5345   */\n  0x4e487b7100000000000000000000000000000000000000000000000000000000\n    /* \"#utility.yul\":5265:5266   */\n  0x00\n    /* \"#utility.yul\":5258:5346   */\n  mstore\n    /* \"#utility.yul\":5365:5369   */\n  0x11\n    /* \"#utility.yul\":5362:5363   */\n  0x04\n    /* \"#utility.yul\":5355:5370   */\n  mstore\n    /* \"#utility.yul\":5389:5393   */\n  0x24\n    /* \"#utility.yul\":5386:5387   */\n  0x00\n    /* \"#utility.yul\":5379:5394   */\n  revert\n    /* \"#utility.yul\":5406:5586   */\ntag_108:\n    /* \"#utility.yul\":5454:5531   */\n  0x4e487b7100000000000000000000000000000000000000000000000000000000\n    /* \"#utility.yul\":5451:5452   */\n  0x00\n    /* \"#utility.yul\":5444:5532   */\n  mstore\n    /* \"#utility.yul\":5551:5555   */\n  0x22\n    /* \"#utility.yul\":5548:5549   */\n  0x04\n    /* \"#utility.yul\":5541:5556   */\n  mstore\n    /* \"#utility.yul\":5575:5579   */\n  0x24\n    /* \"#utility.yul\":5572:5573   */\n  0x00\n    /* \"#utility.yul\":5565:5580   */\n  revert\n    /* \"#utility.yul\":5592:5772   */\ntag_15:\n    /* \"#utility.yul\":5640:5717   */\n  0x4e487b7100000000000000000000000000000000000000000000000000000000\n    /* \"#utility.yul\":5637:5638   */\n  0x00\n    /* \"#utility.yul\":5630:5718   */\n  mstore\n    /* \"#utility.yul\":5737:5741   */\n  0x32\n    /* \"#utility.yul\":5734:5735   */\n  0x04\n    /* \"#utility.yul\":5727:5742   */\n  mstore\n    /* \"#utility.yul\":5761:5765   */\n  0x24\n    /* \"#utility.yul\":5758:5759   */\n  0x00\n    /* \"#utility.yul\":5751:5766   */\n  revert\n    /* \"#utility.yul\":5778:5958   */\ntag_91:\n    /* \"#utility.yul\":5826:5903   */\n  0x4e487b7100000000000000000000000000000000000000000000000000000000\n    /* \"#utility.yul\":5823:5824   */\n  0x00\n    /* \"#utility.yul\":5816:5904   */\n  mstore\n    /* \"#utility.yul\":5923:5927   */\n  0x41\n    /* \"#utility.yul\":5920:5921   */\n  0x04\n    /* \"#utility.yul\":5913:5928   */\n  mstore\n    /* \"#utility.yul\":5947:5951   */\n  0x24\n    /* \"#utility.yul\":5944:5945   */\n  0x00\n    /* \"#utility.yul\":5937:5952   */\n  revert\n    /* \"#utility.yul\":5964:6081   */\ntag_47:\n    /* \"#utility.yul\":6073:6074   */\n  0x00\n    /* \"#utility.yul\":6070:6071   */\n  dup1\n    /* \"#utility.yul\":6063:6075   */\n  revert\n    /* \"#utility.yul\":6087:6204   */\ntag_41:\n    /* \"#utility.yul\":6196:6197   */\n  0x00\n    /* \"#utility.yul\":6193:6194   */\n  dup1\n    /* \"#utility.yul\":6186:6198   */\n  revert\n    /* \"#utility.yul\":6210:6327   */\ntag_57:\n    /* \"#utility.yul\":6319:6320   */\n  0x00\n    /* \"#utility.yul\":6316:6317   */\n  dup1\n    /* \"#utility.yul\":6309:6321   */\n  revert\n    /* \"#utility.yul\":6333:6450   */\ntag_79:\n    /* \"#utility.yul\":6442:6443   */\n  0x00\n    /* \"#utility.yul\":6439:6440   */\n  dup1\n    /* \"#utility.yul\":6432:6444   */\n  revert\n    /* \"#utility.yul\":6456:6573   */\ntag_76:\n    /* \"#utility.yul\":6565:6566   */\n  0x00\n    /* \"#utility.yul\":6562:6563   */\n  dup1\n    /* \"#utility.yul\":6555:6567   */\n  revert\n    /* \"#utility.yul\":6579:6681   */\ntag_96:\n    /* \"#utility.yul\":6620:6626   */\n  0x00\n    /* \"#utility.yul\":6671:6673   */\n  0x1f\n    /* \"#utility.yul\":6667:6674   */\n  not\n    /* \"#utility.yul\":6662:6664   */\n  0x1f\n    /* \"#utility.yul\":6655:6660   */\n  dup4\n    /* \"#utility.yul\":6651:6665   */\n  add\n    /* \"#utility.yul\":6647:6675   */\n  and\n    /* \"#utility.yul\":6637:6675   */\n  swap1\n  pop\n    /* \"#utility.yul\":6579:6681   */\n  swap2\n  swap1\n  pop\n  jump\t// out\n    /* \"#utility.yul\":6687:6809   */\ntag_72:\n    /* \"#utility.yul\":6760:6784   */\n  tag_129\n    /* \"#utility.yul\":6778:6783   */\n  dup2\n    /* \"#utility.yul\":6760:6784   */\n  tag_97\n  jump\t// in\ntag_129:\n    /* \"#utility.yul\":6753:6758   */\n  dup2\n    /* \"#utility.yul\":6750:6785   */\n  eq\n    /* \"#utility.yul\":6740:6803   */\n  tag_130\n  jumpi\n    /* \"#utility.yul\":6799:6800   */\n  0x00\n    /* \"#utility.yul\":6796:6797   */\n  dup1\n    /* \"#utility.yul\":6789:6801   */\n  revert\n    /* \"#utility.yul\":6740:6803   */\ntag_130:\n    /* \"#utility.yul\":6687:6809   */\n  pop\n  jump\t// out\n    /* \"contracts/Ballot/Ballot.sol\":125:8224  contract MyBallot {\r... */\ntag_8:\n  dataSize(sub_0)\n  dup1\n  dataOffset(sub_0)\n  0x00\n  codecopy\n  0x00\n  return\nstop\n\nsub_0: assembly {\n        /* \"contracts/Ballot/Ballot.sol\":125:8224  contract MyBallot {\r... */\n      mstore(0x40, 0x80)\n      callvalue\n      dup1\n      iszero\n      tag_1\n      jumpi\n      0x00\n      dup1\n      revert\n    tag_1:\n      pop\n      jumpi(tag_2, lt(calldatasize, 0x04))\n      shr(0xe0, calldataload(0x00))\n      dup1\n      0x011d1023\n      eq\n      tag_3\n      jumpi\n      dup1\n      0x3477ee2e\n      eq\n      tag_4\n      jumpi\n      dup1\n      0x53f06ecd\n      eq\n      tag_5\n      jumpi\n      dup1\n      0x68957b20\n      eq\n      tag_6\n      jumpi\n      dup1\n      0xfc36e15b\n      eq\n      tag_7\n      jumpi\n    tag_2:\n      0x00\n      dup1\n      revert\n        /* \"contracts/Ballot/Ballot.sol\":6807:7214  function getCandidatesListName() public view returns (string[] memory) {\r... */\n    tag_3:\n      tag_8\n      tag_9\n      jump\t// in\n    tag_8:\n      mload(0x40)\n      tag_10\n      swap2\n      swap1\n      tag_11\n      jump\t// in\n    tag_10:\n      mload(0x40)\n      dup1\n      swap2\n      sub\n      swap1\n      return\n        /* \"contracts/Ballot/Ballot.sol\":458:487  Candidate[] public candidates */\n    tag_4:\n      tag_12\n      0x04\n      dup1\n      calldatasize\n      sub\n      dup2\n      add\n      swap1\n      tag_13\n      swap2\n      swap1\n      tag_14\n      jump\t// in\n    tag_13:\n      tag_15\n      jump\t// in\n    tag_12:\n      mload(0x40)\n      tag_16\n      swap3\n      swap2\n      swap1\n      tag_17\n      jump\t// in\n    tag_16:\n      mload(0x40)\n      dup1\n      swap2\n      sub\n      swap1\n      return\n        /* \"contracts/Ballot/Ballot.sol\":4260:4621  function getWinnerBallot() public view returns (string memory winnerName, uint amountWinningVotes, address contractAddress) {\r... */\n    tag_5:\n      tag_18\n      tag_19\n      jump\t// in\n    tag_18:\n      mload(0x40)\n      tag_20\n      swap4\n      swap3\n      swap2\n      swap1\n      tag_21\n      jump\t// in\n    tag_20:\n      mload(0x40)\n      dup1\n      swap2\n      sub\n      swap1\n      return\n        /* \"contracts/Ballot/Ballot.sol\":3347:3573  function giveRightToVote(address voterAddress, string memory _nameVoter) public giveRightToVoteModifier(voterAddress) {\r... */\n    tag_6:\n      tag_22\n      0x04\n      dup1\n      calldatasize\n      sub\n      dup2\n      add\n      swap1\n      tag_23\n      swap2\n      swap1\n      tag_24\n      jump\t// in\n    tag_23:\n      tag_25\n      jump\t// in\n    tag_22:\n      stop\n        /* \"contracts/Ballot/Ballot.sol\":3581:4252  function vote(string memory _nameProject) public voteModifierBefore(msg.sender) {\r... */\n    tag_7:\n      tag_26\n      0x04\n      dup1\n      calldatasize\n      sub\n      dup2\n      add\n      swap1\n      tag_27\n      swap2\n      swap1\n      tag_28\n      jump\t// in\n    tag_27:\n      tag_29\n      jump\t// in\n    tag_26:\n      stop\n        /* \"contracts/Ballot/Ballot.sol\":6807:7214  function getCandidatesListName() public view returns (string[] memory) {\r... */\n    tag_9:\n        /* \"contracts/Ballot/Ballot.sol\":6861:6876  string[] memory */\n      0x60\n        /* \"contracts/Ballot/Ballot.sol\":6889:6910  uint candidatesLength */\n      0x00\n        /* \"contracts/Ballot/Ballot.sol\":6913:6923  candidates */\n      0x02\n        /* \"contracts/Ballot/Ballot.sol\":6913:6930  candidates.length */\n      dup1\n      sload\n      swap1\n      pop\n        /* \"contracts/Ballot/Ballot.sol\":6889:6930  uint candidatesLength = candidates.length */\n      swap1\n      pop\n        /* \"contracts/Ballot/Ballot.sol\":6941:6975  string[] memory candidatesListName */\n      0x00\n        /* \"contracts/Ballot/Ballot.sol\":6991:7007  candidatesLength */\n      dup2\n        /* \"contracts/Ballot/Ballot.sol\":6978:7008  new string[](candidatesLength) */\n      0xffffffffffffffff\n      dup2\n      gt\n      iszero\n      tag_31\n      jumpi\n      tag_32\n      tag_33\n      jump\t// in\n    tag_32:\n    tag_31:\n      mload(0x40)\n      swap1\n      dup1\n      dup3\n      mstore\n      dup1\n      0x20\n      mul\n      0x20\n      add\n      dup3\n      add\n      0x40\n      mstore\n      dup1\n      iszero\n      tag_34\n      jumpi\n      dup2\n      0x20\n      add\n    tag_35:\n      0x60\n      dup2\n      mstore\n      0x20\n      add\n      swap1\n      0x01\n      swap1\n      sub\n      swap1\n      dup2\n      tag_35\n      jumpi\n      swap1\n      pop\n    tag_34:\n      pop\n        /* \"contracts/Ballot/Ballot.sol\":6941:7008  string[] memory candidatesListName = new string[](candidatesLength) */\n      swap1\n      pop\n        /* \"contracts/Ballot/Ballot.sol\":7034:7044  uint index */\n      0x00\n        /* \"contracts/Ballot/Ballot.sol\":7029:7169  for (uint index = 0; index < candidatesLength; index++) {\r... */\n    tag_36:\n        /* \"contracts/Ballot/Ballot.sol\":7058:7074  candidatesLength */\n      dup3\n        /* \"contracts/Ballot/Ballot.sol\":7050:7055  index */\n      dup2\n        /* \"contracts/Ballot/Ballot.sol\":7050:7074  index < candidatesLength */\n      lt\n        /* \"contracts/Ballot/Ballot.sol\":7029:7169  for (uint index = 0; index < candidatesLength; index++) {\r... */\n      iszero\n      tag_37\n      jumpi\n        /* \"contracts/Ballot/Ballot.sol\":7128:7138  candidates */\n      0x02\n        /* \"contracts/Ballot/Ballot.sol\":7139:7144  index */\n      dup2\n        /* \"contracts/Ballot/Ballot.sol\":7128:7145  candidates[index] */\n      dup2\n      sload\n      dup2\n      lt\n      tag_39\n      jumpi\n      tag_40\n      tag_41\n      jump\t// in\n    tag_40:\n    tag_39:\n      swap1\n      0x00\n      mstore\n      keccak256(0x00, 0x20)\n      swap1\n      0x02\n      mul\n      add\n        /* \"contracts/Ballot/Ballot.sol\":7128:7157  candidates[index].nameProject */\n      0x00\n      add\n        /* \"contracts/Ballot/Ballot.sol\":7100:7157  candidatesListName[index] = candidates[index].nameProject */\n      dup1\n      sload\n      tag_43\n      swap1\n      tag_44\n      jump\t// in\n    tag_43:\n      dup1\n      0x1f\n      add\n      0x20\n      dup1\n      swap2\n      div\n      mul\n      0x20\n      add\n      mload(0x40)\n      swap1\n      dup2\n      add\n      0x40\n      mstore\n      dup1\n      swap3\n      swap2\n      swap1\n      dup2\n      dup2\n      mstore\n      0x20\n      add\n      dup3\n      dup1\n      sload\n      tag_45\n      swap1\n      tag_44\n      jump\t// in\n    tag_45:\n      dup1\n      iszero\n      tag_46\n      jumpi\n      dup1\n      0x1f\n      lt\n      tag_47\n      jumpi\n      0x0100\n      dup1\n      dup4\n      sload\n      div\n      mul\n      dup4\n      mstore\n      swap2\n      0x20\n      add\n      swap2\n      jump(tag_46)\n    tag_47:\n      dup3\n      add\n      swap2\n      swap1\n      0x00\n      mstore\n      keccak256(0x00, 0x20)\n      swap1\n    tag_48:\n      dup2\n      sload\n      dup2\n      mstore\n      swap1\n      0x01\n      add\n      swap1\n      0x20\n      add\n      dup1\n      dup4\n      gt\n      tag_48\n      jumpi\n      dup3\n      swap1\n      sub\n      0x1f\n      and\n      dup3\n      add\n      swap2\n    tag_46:\n      pop\n      pop\n      pop\n      pop\n      pop\n        /* \"contracts/Ballot/Ballot.sol\":7100:7118  candidatesListName */\n      dup3\n        /* \"contracts/Ballot/Ballot.sol\":7119:7124  index */\n      dup3\n        /* \"contracts/Ballot/Ballot.sol\":7100:7125  candidatesListName[index] */\n      dup2\n      mload\n      dup2\n      lt\n      tag_49\n      jumpi\n      tag_50\n      tag_41\n      jump\t// in\n    tag_50:\n    tag_49:\n      0x20\n      mul\n      0x20\n      add\n      add\n        /* \"contracts/Ballot/Ballot.sol\":7100:7157  candidatesListName[index] = candidates[index].nameProject */\n      dup2\n      swap1\n      mstore\n      pop\n        /* \"contracts/Ballot/Ballot.sol\":7076:7083  index++ */\n      dup1\n      dup1\n      tag_51\n      swap1\n      tag_52\n      jump\t// in\n    tag_51:\n      swap2\n      pop\n      pop\n        /* \"contracts/Ballot/Ballot.sol\":7029:7169  for (uint index = 0; index < candidatesLength; index++) {\r... */\n      jump(tag_36)\n    tag_37:\n      pop\n        /* \"contracts/Ballot/Ballot.sol\":7188:7206  candidatesListName */\n      dup1\n        /* \"contracts/Ballot/Ballot.sol\":7181:7206  return candidatesListName */\n      swap3\n      pop\n      pop\n      pop\n        /* \"contracts/Ballot/Ballot.sol\":6807:7214  function getCandidatesListName() public view returns (string[] memory) {\r... */\n      swap1\n      jump\t// out\n        /* \"contracts/Ballot/Ballot.sol\":458:487  Candidate[] public candidates */\n    tag_15:\n      0x02\n      dup2\n      dup2\n      sload\n      dup2\n      lt\n      tag_53\n      jumpi\n      0x00\n      dup1\n      revert\n    tag_53:\n      swap1\n      0x00\n      mstore\n      keccak256(0x00, 0x20)\n      swap1\n      0x02\n      mul\n      add\n      0x00\n      swap2\n      pop\n      swap1\n      pop\n      dup1\n      0x00\n      add\n      dup1\n      sload\n      tag_55\n      swap1\n      tag_44\n      jump\t// in\n    tag_55:\n      dup1\n      0x1f\n      add\n      0x20\n      dup1\n      swap2\n      div\n      mul\n      0x20\n      add\n      mload(0x40)\n      swap1\n      dup2\n      add\n      0x40\n      mstore\n      dup1\n      swap3\n      swap2\n      swap1\n      dup2\n      dup2\n      mstore\n      0x20\n      add\n      dup3\n      dup1\n      sload\n      tag_56\n      swap1\n      tag_44\n      jump\t// in\n    tag_56:\n      dup1\n      iszero\n      tag_57\n      jumpi\n      dup1\n      0x1f\n      lt\n      tag_58\n      jumpi\n      0x0100\n      dup1\n      dup4\n      sload\n      div\n      mul\n      dup4\n      mstore\n      swap2\n      0x20\n      add\n      swap2\n      jump(tag_57)\n    tag_58:\n      dup3\n      add\n      swap2\n      swap1\n      0x00\n      mstore\n      keccak256(0x00, 0x20)\n      swap1\n    tag_59:\n      dup2\n      sload\n      dup2\n      mstore\n      swap1\n      0x01\n      add\n      swap1\n      0x20\n      add\n      dup1\n      dup4\n      gt\n      tag_59\n      jumpi\n      dup3\n      swap1\n      sub\n      0x1f\n      and\n      dup3\n      add\n      swap2\n    tag_57:\n      pop\n      pop\n      pop\n      pop\n      pop\n      swap1\n      dup1\n      0x01\n      add\n      sload\n      swap1\n      pop\n      dup3\n      jump\t// out\n        /* \"contracts/Ballot/Ballot.sol\":4260:4621  function getWinnerBallot() public view returns (string memory winnerName, uint amountWinningVotes, address contractAddress) {\r... */\n    tag_19:\n        /* \"contracts/Ballot/Ballot.sol\":4308:4332  string memory winnerName */\n      0x60\n        /* \"contracts/Ballot/Ballot.sol\":4334:4357  uint amountWinningVotes */\n      0x00\n        /* \"contracts/Ballot/Ballot.sol\":4359:4382  address contractAddress */\n      dup1\n        /* \"contracts/Ballot/Ballot.sol\":4396:4429  Candidate memory winningCandidate */\n      0x00\n        /* \"contracts/Ballot/Ballot.sol\":4433:4453  getWinnerCandidate() */\n      tag_61\n        /* \"contracts/Ballot/Ballot.sol\":4433:4451  getWinnerCandidate */\n      tag_62\n        /* \"contracts/Ballot/Ballot.sol\":4433:4453  getWinnerCandidate() */\n      jump\t// in\n    tag_61:\n        /* \"contracts/Ballot/Ballot.sol\":4395:4453  (Candidate memory winningCandidate) = getWinnerCandidate() */\n      swap1\n      pop\n        /* \"contracts/Ballot/Ballot.sol\":4477:4493  winningCandidate */\n      dup1\n        /* \"contracts/Ballot/Ballot.sol\":4477:4505  winningCandidate.nameProject */\n      0x00\n      add\n      mload\n        /* \"contracts/Ballot/Ballot.sol\":4464:4505  winnerName = winningCandidate.nameProject */\n      swap4\n      pop\n        /* \"contracts/Ballot/Ballot.sol\":4537:4553  winningCandidate */\n      dup1\n        /* \"contracts/Ballot/Ballot.sol\":4537:4564  winningCandidate.votesCount */\n      0x20\n      add\n      mload\n        /* \"contracts/Ballot/Ballot.sol\":4516:4564  amountWinningVotes = winningCandidate.votesCount */\n      swap3\n      pop\n        /* \"contracts/Ballot/Ballot.sol\":4593:4613  getContractAddress() */\n      tag_63\n        /* \"contracts/Ballot/Ballot.sol\":4593:4611  getContractAddress */\n      tag_64\n        /* \"contracts/Ballot/Ballot.sol\":4593:4613  getContractAddress() */\n      jump\t// in\n    tag_63:\n        /* \"contracts/Ballot/Ballot.sol\":4575:4613  contractAddress = getContractAddress() */\n      swap2\n      pop\n        /* \"contracts/Ballot/Ballot.sol\":4384:4621  {\r... */\n      pop\n        /* \"contracts/Ballot/Ballot.sol\":4260:4621  function getWinnerBallot() public view returns (string memory winnerName, uint amountWinningVotes, address contractAddress) {\r... */\n      swap1\n      swap2\n      swap3\n      jump\t// out\n        /* \"contracts/Ballot/Ballot.sol\":3347:3573  function giveRightToVote(address voterAddress, string memory _nameVoter) public giveRightToVoteModifier(voterAddress) {\r... */\n    tag_25:\n        /* \"contracts/Ballot/Ballot.sol\":3451:3463  voterAddress */\n      dup2\n        /* \"contracts/Ballot/Ballot.sol\":989:1025  getTotalVotesCounterReachedRequire() */\n      tag_66\n        /* \"contracts/Ballot/Ballot.sol\":989:1023  getTotalVotesCounterReachedRequire */\n      tag_67\n        /* \"contracts/Ballot/Ballot.sol\":989:1025  getTotalVotesCounterReachedRequire() */\n      jump\t// in\n    tag_66:\n        /* \"contracts/Ballot/Ballot.sol\":1036:1064  getYouContractOwnerRequire() */\n      tag_68\n        /* \"contracts/Ballot/Ballot.sol\":1036:1062  getYouContractOwnerRequire */\n      tag_69\n        /* \"contracts/Ballot/Ballot.sol\":1036:1064  getYouContractOwnerRequire() */\n      jump\t// in\n    tag_68:\n        /* \"contracts/Ballot/Ballot.sol\":1075:1110  getRightToVoteRequire(voterAddress) */\n      tag_70\n        /* \"contracts/Ballot/Ballot.sol\":1097:1109  voterAddress */\n      dup2\n        /* \"contracts/Ballot/Ballot.sol\":1075:1096  getRightToVoteRequire */\n      tag_71\n        /* \"contracts/Ballot/Ballot.sol\":1075:1110  getRightToVoteRequire(voterAddress) */\n      jump\t// in\n    tag_70:\n        /* \"contracts/Ballot/Ballot.sol\":1121:1155  getVoterVotedRequire(voterAddress) */\n      tag_72\n        /* \"contracts/Ballot/Ballot.sol\":1142:1154  voterAddress */\n      dup2\n        /* \"contracts/Ballot/Ballot.sol\":1121:1141  getVoterVotedRequire */\n      tag_73\n        /* \"contracts/Ballot/Ballot.sol\":1121:1155  getVoterVotedRequire(voterAddress) */\n      jump\t// in\n    tag_72:\n        /* \"contracts/Ballot/Ballot.sol\":3509:3519  _nameVoter */\n      dup2\n        /* \"contracts/Ballot/Ballot.sol\":3476:3482  voters */\n      0x01\n        /* \"contracts/Ballot/Ballot.sol\":3476:3496  voters[voterAddress] */\n      0x00\n        /* \"contracts/Ballot/Ballot.sol\":3483:3495  voterAddress */\n      dup6\n        /* \"contracts/Ballot/Ballot.sol\":3476:3496  voters[voterAddress] */\n      0xffffffffffffffffffffffffffffffffffffffff\n      and\n      0xffffffffffffffffffffffffffffffffffffffff\n      and\n      dup2\n      mstore\n      0x20\n      add\n      swap1\n      dup2\n      mstore\n      0x20\n      add\n      0x00\n      keccak256\n        /* \"contracts/Ballot/Ballot.sol\":3476:3506  voters[voterAddress].nameVoter */\n      0x00\n      add\n        /* \"contracts/Ballot/Ballot.sol\":3476:3519  voters[voterAddress].nameVoter = _nameVoter */\n      swap1\n      dup1\n      mload\n      swap1\n      0x20\n      add\n      swap1\n      tag_75\n      swap3\n      swap2\n      swap1\n      tag_76\n      jump\t// in\n    tag_75:\n      pop\n        /* \"contracts/Ballot/Ballot.sol\":3561:3565  true */\n      0x01\n        /* \"contracts/Ballot/Ballot.sol\":3530:3536  voters */\n      dup1\n        /* \"contracts/Ballot/Ballot.sol\":3530:3550  voters[voterAddress] */\n      0x00\n        /* \"contracts/Ballot/Ballot.sol\":3537:3549  voterAddress */\n      dup6\n        /* \"contracts/Ballot/Ballot.sol\":3530:3550  voters[voterAddress] */\n      0xffffffffffffffffffffffffffffffffffffffff\n      and\n      0xffffffffffffffffffffffffffffffffffffffff\n      and\n      dup2\n      mstore\n      0x20\n      add\n      swap1\n      dup2\n      mstore\n      0x20\n      add\n      0x00\n      keccak256\n        /* \"contracts/Ballot/Ballot.sol\":3530:3558  voters[voterAddress].canVote */\n      0x01\n      add\n      0x00\n        /* \"contracts/Ballot/Ballot.sol\":3530:3565  voters[voterAddress].canVote = true */\n      0x0100\n      exp\n      dup2\n      sload\n      dup2\n      0xff\n      mul\n      not\n      and\n      swap1\n      dup4\n      iszero\n      iszero\n      mul\n      or\n      swap1\n      sstore\n      pop\n        /* \"contracts/Ballot/Ballot.sol\":3347:3573  function giveRightToVote(address voterAddress, string memory _nameVoter) public giveRightToVoteModifier(voterAddress) {\r... */\n      pop\n      pop\n      pop\n      jump\t// out\n        /* \"contracts/Ballot/Ballot.sol\":3581:4252  function vote(string memory _nameProject) public voteModifierBefore(msg.sender) {\r... */\n    tag_29:\n        /* \"contracts/Ballot/Ballot.sol\":3649:3659  msg.sender */\n      caller\n        /* \"contracts/Ballot/Ballot.sol\":1244:1280  getTotalVotesCounterReachedRequire() */\n      tag_78\n        /* \"contracts/Ballot/Ballot.sol\":1244:1278  getTotalVotesCounterReachedRequire */\n      tag_67\n        /* \"contracts/Ballot/Ballot.sol\":1244:1280  getTotalVotesCounterReachedRequire() */\n      jump\t// in\n    tag_78:\n        /* \"contracts/Ballot/Ballot.sol\":1291:1326  getRightToVoteRequire(voterAddress) */\n      tag_79\n        /* \"contracts/Ballot/Ballot.sol\":1313:1325  voterAddress */\n      dup2\n        /* \"contracts/Ballot/Ballot.sol\":1291:1312  getRightToVoteRequire */\n      tag_71\n        /* \"contracts/Ballot/Ballot.sol\":1291:1326  getRightToVoteRequire(voterAddress) */\n      jump\t// in\n    tag_79:\n        /* \"contracts/Ballot/Ballot.sol\":1337:1371  getVoterVotedRequire(voterAddress) */\n      tag_80\n        /* \"contracts/Ballot/Ballot.sol\":1358:1370  voterAddress */\n      dup2\n        /* \"contracts/Ballot/Ballot.sol\":1337:1357  getVoterVotedRequire */\n      tag_73\n        /* \"contracts/Ballot/Ballot.sol\":1337:1371  getVoterVotedRequire(voterAddress) */\n      jump\t// in\n    tag_80:\n        /* \"contracts/Ballot/Ballot.sol\":3672:3692  Voter storage sender */\n      0x00\n        /* \"contracts/Ballot/Ballot.sol\":3695:3701  voters */\n      0x01\n        /* \"contracts/Ballot/Ballot.sol\":3695:3713  voters[msg.sender] */\n      0x00\n        /* \"contracts/Ballot/Ballot.sol\":3702:3712  msg.sender */\n      caller\n        /* \"contracts/Ballot/Ballot.sol\":3695:3713  voters[msg.sender] */\n      0xffffffffffffffffffffffffffffffffffffffff\n      and\n      0xffffffffffffffffffffffffffffffffffffffff\n      and\n      dup2\n      mstore\n      0x20\n      add\n      swap1\n      dup2\n      mstore\n      0x20\n      add\n      0x00\n      keccak256\n        /* \"contracts/Ballot/Ballot.sol\":3672:3713  Voter storage sender = voters[msg.sender] */\n      swap1\n      pop\n        /* \"contracts/Ballot/Ballot.sol\":3815:3836  bool isCandidateExist */\n      0x00\n        /* \"contracts/Ballot/Ballot.sol\":3862:3872  uint index */\n      dup1\n        /* \"contracts/Ballot/Ballot.sol\":3875:3876  0 */\n      0x00\n        /* \"contracts/Ballot/Ballot.sol\":3862:3876  uint index = 0 */\n      swap1\n      pop\n        /* \"contracts/Ballot/Ballot.sol\":3857:4190  for (uint index = 0; index < candidates.length; index++) {\r... */\n    tag_82:\n        /* \"contracts/Ballot/Ballot.sol\":3886:3896  candidates */\n      0x02\n        /* \"contracts/Ballot/Ballot.sol\":3886:3903  candidates.length */\n      dup1\n      sload\n      swap1\n      pop\n        /* \"contracts/Ballot/Ballot.sol\":3878:3883  index */\n      dup2\n        /* \"contracts/Ballot/Ballot.sol\":3878:3903  index < candidates.length */\n      lt\n        /* \"contracts/Ballot/Ballot.sol\":3857:4190  for (uint index = 0; index < candidates.length; index++) {\r... */\n      iszero\n      tag_83\n      jumpi\n        /* \"contracts/Ballot/Ballot.sol\":3933:3991  stringEqualTo(candidates[index].nameProject, _nameProject) */\n      tag_85\n        /* \"contracts/Ballot/Ballot.sol\":3947:3957  candidates */\n      0x02\n        /* \"contracts/Ballot/Ballot.sol\":3958:3963  index */\n      dup3\n        /* \"contracts/Ballot/Ballot.sol\":3947:3964  candidates[index] */\n      dup2\n      sload\n      dup2\n      lt\n      tag_86\n      jumpi\n      tag_87\n      tag_41\n      jump\t// in\n    tag_87:\n    tag_86:\n      swap1\n      0x00\n      mstore\n      keccak256(0x00, 0x20)\n      swap1\n      0x02\n      mul\n      add\n        /* \"contracts/Ballot/Ballot.sol\":3947:3976  candidates[index].nameProject */\n      0x00\n      add\n        /* \"contracts/Ballot/Ballot.sol\":3933:3991  stringEqualTo(candidates[index].nameProject, _nameProject) */\n      dup1\n      sload\n      tag_89\n      swap1\n      tag_44\n      jump\t// in\n    tag_89:\n      dup1\n      0x1f\n      add\n      0x20\n      dup1\n      swap2\n      div\n      mul\n      0x20\n      add\n      mload(0x40)\n      swap1\n      dup2\n      add\n      0x40\n      mstore\n      dup1\n      swap3\n      swap2\n      swap1\n      dup2\n      dup2\n      mstore\n      0x20\n      add\n      dup3\n      dup1\n      sload\n      tag_90\n      swap1\n      tag_44\n      jump\t// in\n    tag_90:\n      dup1\n      iszero\n      tag_91\n      jumpi\n      dup1\n      0x1f\n      lt\n      tag_92\n      jumpi\n      0x0100\n      dup1\n      dup4\n      sload\n      div\n      mul\n      dup4\n      mstore\n      swap2\n      0x20\n      add\n      swap2\n      jump(tag_91)\n    tag_92:\n      dup3\n      add\n      swap2\n      swap1\n      0x00\n      mstore\n      keccak256(0x00, 0x20)\n      swap1\n    tag_93:\n      dup2\n      sload\n      dup2\n      mstore\n      swap1\n      0x01\n      add\n      swap1\n      0x20\n      add\n      dup1\n      dup4\n      gt\n      tag_93\n      jumpi\n      dup3\n      swap1\n      sub\n      0x1f\n      and\n      dup3\n      add\n      swap2\n    tag_91:\n      pop\n      pop\n      pop\n      pop\n      pop\n        /* \"contracts/Ballot/Ballot.sol\":3978:3990  _nameProject */\n      dup7\n        /* \"contracts/Ballot/Ballot.sol\":3933:3946  stringEqualTo */\n      tag_94\n        /* \"contracts/Ballot/Ballot.sol\":3933:3991  stringEqualTo(candidates[index].nameProject, _nameProject) */\n      jump\t// in\n    tag_85:\n        /* \"contracts/Ballot/Ballot.sol\":3929:4179  if (stringEqualTo(candidates[index].nameProject, _nameProject)) {\r... */\n      iszero\n      tag_95\n      jumpi\n        /* \"contracts/Ballot/Ballot.sol\":4012:4022  candidates */\n      0x02\n        /* \"contracts/Ballot/Ballot.sol\":4023:4028  index */\n      dup2\n        /* \"contracts/Ballot/Ballot.sol\":4012:4029  candidates[index] */\n      dup2\n      sload\n      dup2\n      lt\n      tag_96\n      jumpi\n      tag_97\n      tag_41\n      jump\t// in\n    tag_97:\n    tag_96:\n      swap1\n      0x00\n      mstore\n      keccak256(0x00, 0x20)\n      swap1\n      0x02\n      mul\n      add\n        /* \"contracts/Ballot/Ballot.sol\":4012:4040  candidates[index].votesCount */\n      0x01\n      add\n      0x00\n        /* \"contracts/Ballot/Ballot.sol\":4012:4042  candidates[index].votesCount++ */\n      dup2\n      sload\n      dup1\n      swap3\n      swap2\n      swap1\n      tag_99\n      swap1\n      tag_52\n      jump\t// in\n    tag_99:\n      swap2\n      swap1\n      pop\n      sstore\n      pop\n        /* \"contracts/Ballot/Ballot.sol\":4079:4083  true */\n      0x01\n        /* \"contracts/Ballot/Ballot.sol\":4061:4067  sender */\n      dup4\n        /* \"contracts/Ballot/Ballot.sol\":4061:4076  sender.hasVoted */\n      0x01\n      add\n      0x01\n        /* \"contracts/Ballot/Ballot.sol\":4061:4083  sender.hasVoted = true */\n      0x0100\n      exp\n      dup2\n      sload\n      dup2\n      0xff\n      mul\n      not\n      and\n      swap1\n      dup4\n      iszero\n      iszero\n      mul\n      or\n      swap1\n      sstore\n      pop\n        /* \"contracts/Ballot/Ballot.sol\":4102:4119  totalVotesCounter */\n      0x03\n      0x00\n        /* \"contracts/Ballot/Ballot.sol\":4102:4121  totalVotesCounter++ */\n      dup2\n      sload\n      dup1\n      swap3\n      swap2\n      swap1\n      tag_100\n      swap1\n      tag_52\n      jump\t// in\n    tag_100:\n      swap2\n      swap1\n      pop\n      sstore\n      pop\n        /* \"contracts/Ballot/Ballot.sol\":4159:4163  true */\n      0x01\n        /* \"contracts/Ballot/Ballot.sol\":4140:4163  isCandidateExist = true */\n      swap2\n      pop\n        /* \"contracts/Ballot/Ballot.sol\":3929:4179  if (stringEqualTo(candidates[index].nameProject, _nameProject)) {\r... */\n    tag_95:\n        /* \"contracts/Ballot/Ballot.sol\":3905:3912  index++ */\n      dup1\n      dup1\n      tag_101\n      swap1\n      tag_52\n      jump\t// in\n    tag_101:\n      swap2\n      pop\n      pop\n        /* \"contracts/Ballot/Ballot.sol\":3857:4190  for (uint index = 0; index < candidates.length; index++) {\r... */\n      jump(tag_82)\n    tag_83:\n      pop\n        /* \"contracts/Ballot/Ballot.sol\":4202:4244  getCandidateExistRequire(isCandidateExist) */\n      tag_102\n        /* \"contracts/Ballot/Ballot.sol\":4227:4243  isCandidateExist */\n      dup2\n        /* \"contracts/Ballot/Ballot.sol\":4202:4226  getCandidateExistRequire */\n      tag_103\n        /* \"contracts/Ballot/Ballot.sol\":4202:4244  getCandidateExistRequire(isCandidateExist) */\n      jump\t// in\n    tag_102:\n        /* \"contracts/Ballot/Ballot.sol\":3661:4252  {\r... */\n      pop\n      pop\n        /* \"contracts/Ballot/Ballot.sol\":3581:4252  function vote(string memory _nameProject) public voteModifierBefore(msg.sender) {\r... */\n      pop\n      pop\n      jump\t// out\n        /* \"contracts/Ballot/Ballot.sol\":4629:6799  function getWinnerCandidate() private view returns (Candidate memory winningCandidate) {        \r... */\n    tag_62:\n        /* \"contracts/Ballot/Ballot.sol\":4681:4714  Candidate memory winningCandidate */\n      tag_104\n      tag_105\n      jump\t// in\n    tag_104:\n        /* \"contracts/Ballot/Ballot.sol\":4735:4756  uint winningVoteCount */\n      0x00\n        /* \"contracts/Ballot/Ballot.sol\":4767:4793  uint winningCandidateIndex */\n      dup1\n        /* \"contracts/Ballot/Ballot.sol\":4806:4827  uint candidatesLength */\n      0x00\n        /* \"contracts/Ballot/Ballot.sol\":4830:4840  candidates */\n      0x02\n        /* \"contracts/Ballot/Ballot.sol\":4830:4847  candidates.length */\n      dup1\n      sload\n      swap1\n      pop\n        /* \"contracts/Ballot/Ballot.sol\":4806:4847  uint candidatesLength = candidates.length */\n      swap1\n      pop\n        /* \"contracts/Ballot/Ballot.sol\":4868:4901  string[] memory tieCandidatesList */\n      0x00\n        /* \"contracts/Ballot/Ballot.sol\":4917:4933  candidatesLength */\n      dup2\n        /* \"contracts/Ballot/Ballot.sol\":4904:4934  new string[](candidatesLength) */\n      0xffffffffffffffff\n      dup2\n      gt\n      iszero\n      tag_107\n      jumpi\n      tag_108\n      tag_33\n      jump\t// in\n    tag_108:\n    tag_107:\n      mload(0x40)\n      swap1\n      dup1\n      dup3\n      mstore\n      dup1\n      0x20\n      mul\n      0x20\n      add\n      dup3\n      add\n      0x40\n      mstore\n      dup1\n      iszero\n      tag_109\n      jumpi\n      dup2\n      0x20\n      add\n    tag_110:\n      0x60\n      dup2\n      mstore\n      0x20\n      add\n      swap1\n      0x01\n      swap1\n      sub\n      swap1\n      dup2\n      tag_110\n      jumpi\n      swap1\n      pop\n    tag_109:\n      pop\n        /* \"contracts/Ballot/Ballot.sol\":4868:4934  string[] memory tieCandidatesList = new string[](candidatesLength) */\n      swap1\n      pop\n        /* \"contracts/Ballot/Ballot.sol\":4945:4972  uint tieCandidatesListIndex */\n      0x00\n        /* \"contracts/Ballot/Ballot.sol\":4983:4993  bool isTie */\n      dup1\n        /* \"contracts/Ballot/Ballot.sol\":4996:5000  true */\n      0x01\n        /* \"contracts/Ballot/Ballot.sol\":4983:5000  bool isTie = true */\n      swap1\n      pop\n        /* \"contracts/Ballot/Ballot.sol\":5011:5047  string memory tieCandidatesListNames */\n      0x60\n        /* \"contracts/Ballot/Ballot.sol\":5065:5084  uint indexCandidate */\n      0x00\n        /* \"contracts/Ballot/Ballot.sol\":5060:6010  for (uint indexCandidate = 0; indexCandidate < candidatesLength; indexCandidate++) {\r... */\n    tag_111:\n        /* \"contracts/Ballot/Ballot.sol\":5107:5123  candidatesLength */\n      dup6\n        /* \"contracts/Ballot/Ballot.sol\":5090:5104  indexCandidate */\n      dup2\n        /* \"contracts/Ballot/Ballot.sol\":5090:5123  indexCandidate < candidatesLength */\n      lt\n        /* \"contracts/Ballot/Ballot.sol\":5060:6010  for (uint indexCandidate = 0; indexCandidate < candidatesLength; indexCandidate++) {\r... */\n      iszero\n      tag_112\n      jumpi\n        /* \"contracts/Ballot/Ballot.sol\":5202:5218  winningVoteCount */\n      dup8\n        /* \"contracts/Ballot/Ballot.sol\":5162:5172  candidates */\n      0x02\n        /* \"contracts/Ballot/Ballot.sol\":5173:5187  indexCandidate */\n      dup3\n        /* \"contracts/Ballot/Ballot.sol\":5162:5188  candidates[indexCandidate] */\n      dup2\n      sload\n      dup2\n      lt\n      tag_114\n      jumpi\n      tag_115\n      tag_41\n      jump\t// in\n    tag_115:\n    tag_114:\n      swap1\n      0x00\n      mstore\n      keccak256(0x00, 0x20)\n      swap1\n      0x02\n      mul\n      add\n        /* \"contracts/Ballot/Ballot.sol\":5162:5199  candidates[indexCandidate].votesCount */\n      0x01\n      add\n      sload\n        /* \"contracts/Ballot/Ballot.sol\":5162:5218  candidates[indexCandidate].votesCount > winningVoteCount */\n      gt\n        /* \"contracts/Ballot/Ballot.sol\":5158:5987  if (candidates[indexCandidate].votesCount > winningVoteCount) {\r... */\n      iszero\n      tag_117\n      jumpi\n        /* \"contracts/Ballot/Ballot.sol\":5258:5268  candidates */\n      0x02\n        /* \"contracts/Ballot/Ballot.sol\":5269:5283  indexCandidate */\n      dup2\n        /* \"contracts/Ballot/Ballot.sol\":5258:5284  candidates[indexCandidate] */\n      dup2\n      sload\n      dup2\n      lt\n      tag_118\n      jumpi\n      tag_119\n      tag_41\n      jump\t// in\n    tag_119:\n    tag_118:\n      swap1\n      0x00\n      mstore\n      keccak256(0x00, 0x20)\n      swap1\n      0x02\n      mul\n      add\n        /* \"contracts/Ballot/Ballot.sol\":5258:5295  candidates[indexCandidate].votesCount */\n      0x01\n      add\n      sload\n        /* \"contracts/Ballot/Ballot.sol\":5239:5295  winningVoteCount = candidates[indexCandidate].votesCount */\n      swap8\n      pop\n        /* \"contracts/Ballot/Ballot.sol\":5338:5352  indexCandidate */\n      dup1\n        /* \"contracts/Ballot/Ballot.sol\":5314:5352  winningCandidateIndex = indexCandidate */\n      swap7\n      pop\n        /* \"contracts/Ballot/Ballot.sol\":5375:5380  isTie */\n      dup3\n        /* \"contracts/Ballot/Ballot.sol\":5371:5712  if (isTie) {\r... */\n      iszero\n      tag_121\n      jumpi\n        /* \"contracts/Ballot/Ballot.sol\":5413:5418  false */\n      0x00\n        /* \"contracts/Ballot/Ballot.sol\":5405:5418  isTie = false */\n      swap3\n      pop\n        /* \"contracts/Ballot/Ballot.sol\":5466:5467  0 */\n      0x00\n        /* \"contracts/Ballot/Ballot.sol\":5441:5467  tieCandidatesListIndex = 0 */\n      swap4\n      pop\n        /* \"contracts/Ballot/Ballot.sol\":5523:5539  candidatesLength */\n      dup6\n        /* \"contracts/Ballot/Ballot.sol\":5510:5540  new string[](candidatesLength) */\n      0xffffffffffffffff\n      dup2\n      gt\n      iszero\n      tag_122\n      jumpi\n      tag_123\n      tag_33\n      jump\t// in\n    tag_123:\n    tag_122:\n      mload(0x40)\n      swap1\n      dup1\n      dup3\n      mstore\n      dup1\n      0x20\n      mul\n      0x20\n      add\n      dup3\n      add\n      0x40\n      mstore\n      dup1\n      iszero\n      tag_124\n      jumpi\n      dup2\n      0x20\n      add\n    tag_125:\n      0x60\n      dup2\n      mstore\n      0x20\n      add\n      swap1\n      0x01\n      swap1\n      sub\n      swap1\n      dup2\n      tag_125\n      jumpi\n      swap1\n      pop\n    tag_124:\n      pop\n        /* \"contracts/Ballot/Ballot.sol\":5490:5540  tieCandidatesList = new string[](candidatesLength) */\n      swap5\n      pop\n        /* \"contracts/Ballot/Ballot.sol\":5607:5617  candidates */\n      0x02\n        /* \"contracts/Ballot/Ballot.sol\":5618:5632  indexCandidate */\n      dup2\n        /* \"contracts/Ballot/Ballot.sol\":5607:5633  candidates[indexCandidate] */\n      dup2\n      sload\n      dup2\n      lt\n      tag_126\n      jumpi\n      tag_127\n      tag_41\n      jump\t// in\n    tag_127:\n    tag_126:\n      swap1\n      0x00\n      mstore\n      keccak256(0x00, 0x20)\n      swap1\n      0x02\n      mul\n      add\n        /* \"contracts/Ballot/Ballot.sol\":5607:5645  candidates[indexCandidate].nameProject */\n      0x00\n      add\n        /* \"contracts/Ballot/Ballot.sol\":5563:5645  tieCandidatesList[tieCandidatesListIndex] = candidates[indexCandidate].nameProject */\n      dup1\n      sload\n      tag_129\n      swap1\n      tag_44\n      jump\t// in\n    tag_129:\n      dup1\n      0x1f\n      add\n      0x20\n      dup1\n      swap2\n      div\n      mul\n      0x20\n      add\n      mload(0x40)\n      swap1\n      dup2\n      add\n      0x40\n      mstore\n      dup1\n      swap3\n      swap2\n      swap1\n      dup2\n      dup2\n      mstore\n      0x20\n      add\n      dup3\n      dup1\n      sload\n      tag_130\n      swap1\n      tag_44\n      jump\t// in\n    tag_130:\n      dup1\n      iszero\n      tag_131\n      jumpi\n      dup1\n      0x1f\n      lt\n      tag_132\n      jumpi\n      0x0100\n      dup1\n      dup4\n      sload\n      div\n      mul\n      dup4\n      mstore\n      swap2\n      0x20\n      add\n      swap2\n      jump(tag_131)\n    tag_132:\n      dup3\n      add\n      swap2\n      swap1\n      0x00\n      mstore\n      keccak256(0x00, 0x20)\n      swap1\n    tag_133:\n      dup2\n      sload\n      dup2\n      mstore\n      swap1\n      0x01\n      add\n      swap1\n      0x20\n      add\n      dup1\n      dup4\n      gt\n      tag_133\n      jumpi\n      dup3\n      swap1\n      sub\n      0x1f\n      and\n      dup3\n      add\n      swap2\n    tag_131:\n      pop\n      pop\n      pop\n      pop\n      pop\n        /* \"contracts/Ballot/Ballot.sol\":5563:5580  tieCandidatesList */\n      dup6\n        /* \"contracts/Ballot/Ballot.sol\":5581:5603  tieCandidatesListIndex */\n      dup6\n        /* \"contracts/Ballot/Ballot.sol\":5563:5604  tieCandidatesList[tieCandidatesListIndex] */\n      dup2\n      mload\n      dup2\n      lt\n      tag_134\n      jumpi\n      tag_135\n      tag_41\n      jump\t// in\n    tag_135:\n    tag_134:\n      0x20\n      mul\n      0x20\n      add\n      add\n        /* \"contracts/Ballot/Ballot.sol\":5563:5645  tieCandidatesList[tieCandidatesListIndex] = candidates[indexCandidate].nameProject */\n      dup2\n      swap1\n      mstore\n      pop\n        /* \"contracts/Ballot/Ballot.sol\":5668:5692  tieCandidatesListIndex++ */\n      dup4\n      dup1\n      tag_136\n      swap1\n      tag_52\n      jump\t// in\n    tag_136:\n      swap5\n      pop\n      pop\n        /* \"contracts/Ballot/Ballot.sol\":5371:5712  if (isTie) {\r... */\n    tag_121:\n        /* \"contracts/Ballot/Ballot.sol\":5158:5987  if (candidates[indexCandidate].votesCount > winningVoteCount) {\r... */\n      jump(tag_137)\n    tag_117:\n        /* \"contracts/Ballot/Ballot.sol\":5778:5794  winningVoteCount */\n      dup8\n        /* \"contracts/Ballot/Ballot.sol\":5737:5747  candidates */\n      0x02\n        /* \"contracts/Ballot/Ballot.sol\":5748:5762  indexCandidate */\n      dup3\n        /* \"contracts/Ballot/Ballot.sol\":5737:5763  candidates[indexCandidate] */\n      dup2\n      sload\n      dup2\n      lt\n      tag_138\n      jumpi\n      tag_139\n      tag_41\n      jump\t// in\n    tag_139:\n    tag_138:\n      swap1\n      0x00\n      mstore\n      keccak256(0x00, 0x20)\n      swap1\n      0x02\n      mul\n      add\n        /* \"contracts/Ballot/Ballot.sol\":5737:5774  candidates[indexCandidate].votesCount */\n      0x01\n      add\n      sload\n        /* \"contracts/Ballot/Ballot.sol\":5737:5794  candidates[indexCandidate].votesCount == winningVoteCount */\n      eq\n        /* \"contracts/Ballot/Ballot.sol\":5733:5987  if (candidates[indexCandidate].votesCount == winningVoteCount) {\r... */\n      iszero\n      tag_141\n      jumpi\n        /* \"contracts/Ballot/Ballot.sol\":5823:5827  true */\n      0x01\n        /* \"contracts/Ballot/Ballot.sol\":5815:5827  isTie = true */\n      swap3\n      pop\n        /* \"contracts/Ballot/Ballot.sol\":5890:5900  candidates */\n      0x02\n        /* \"contracts/Ballot/Ballot.sol\":5901:5915  indexCandidate */\n      dup2\n        /* \"contracts/Ballot/Ballot.sol\":5890:5916  candidates[indexCandidate] */\n      dup2\n      sload\n      dup2\n      lt\n      tag_142\n      jumpi\n      tag_143\n      tag_41\n      jump\t// in\n    tag_143:\n    tag_142:\n      swap1\n      0x00\n      mstore\n      keccak256(0x00, 0x20)\n      swap1\n      0x02\n      mul\n      add\n        /* \"contracts/Ballot/Ballot.sol\":5890:5928  candidates[indexCandidate].nameProject */\n      0x00\n      add\n        /* \"contracts/Ballot/Ballot.sol\":5846:5928  tieCandidatesList[tieCandidatesListIndex] = candidates[indexCandidate].nameProject */\n      dup1\n      sload\n      tag_145\n      swap1\n      tag_44\n      jump\t// in\n    tag_145:\n      dup1\n      0x1f\n      add\n      0x20\n      dup1\n      swap2\n      div\n      mul\n      0x20\n      add\n      mload(0x40)\n      swap1\n      dup2\n      add\n      0x40\n      mstore\n      dup1\n      swap3\n      swap2\n      swap1\n      dup2\n      dup2\n      mstore\n      0x20\n      add\n      dup3\n      dup1\n      sload\n      tag_146\n      swap1\n      tag_44\n      jump\t// in\n    tag_146:\n      dup1\n      iszero\n      tag_147\n      jumpi\n      dup1\n      0x1f\n      lt\n      tag_148\n      jumpi\n      0x0100\n      dup1\n      dup4\n      sload\n      div\n      mul\n      dup4\n      mstore\n      swap2\n      0x20\n      add\n      swap2\n      jump(tag_147)\n    tag_148:\n      dup3\n      add\n      swap2\n      swap1\n      0x00\n      mstore\n      keccak256(0x00, 0x20)\n      swap1\n    tag_149:\n      dup2\n      sload\n      dup2\n      mstore\n      swap1\n      0x01\n      add\n      swap1\n      0x20\n      add\n      dup1\n      dup4\n      gt\n      tag_149\n      jumpi\n      dup3\n      swap1\n      sub\n      0x1f\n      and\n      dup3\n      add\n      swap2\n    tag_147:\n      pop\n      pop\n      pop\n      pop\n      pop\n        /* \"contracts/Ballot/Ballot.sol\":5846:5863  tieCandidatesList */\n      dup6\n        /* \"contracts/Ballot/Ballot.sol\":5864:5886  tieCandidatesListIndex */\n      dup6\n        /* \"contracts/Ballot/Ballot.sol\":5846:5887  tieCandidatesList[tieCandidatesListIndex] */\n      dup2\n      mload\n      dup2\n      lt\n      tag_150\n      jumpi\n      tag_151\n      tag_41\n      jump\t// in\n    tag_151:\n    tag_150:\n      0x20\n      mul\n      0x20\n      add\n      add\n        /* \"contracts/Ballot/Ballot.sol\":5846:5928  tieCandidatesList[tieCandidatesListIndex] = candidates[indexCandidate].nameProject */\n      dup2\n      swap1\n      mstore\n      pop\n        /* \"contracts/Ballot/Ballot.sol\":5947:5971  tieCandidatesListIndex++ */\n      dup4\n      dup1\n      tag_152\n      swap1\n      tag_52\n      jump\t// in\n    tag_152:\n      swap5\n      pop\n      pop\n        /* \"contracts/Ballot/Ballot.sol\":5733:5987  if (candidates[indexCandidate].votesCount == winningVoteCount) {\r... */\n    tag_141:\n        /* \"contracts/Ballot/Ballot.sol\":5158:5987  if (candidates[indexCandidate].votesCount > winningVoteCount) {\r... */\n    tag_137:\n        /* \"contracts/Ballot/Ballot.sol\":5125:5141  indexCandidate++ */\n      dup1\n      dup1\n      tag_153\n      swap1\n      tag_52\n      jump\t// in\n    tag_153:\n      swap2\n      pop\n      pop\n        /* \"contracts/Ballot/Ballot.sol\":5060:6010  for (uint indexCandidate = 0; indexCandidate < candidatesLength; indexCandidate++) {\r... */\n      jump(tag_111)\n    tag_112:\n      pop\n        /* \"contracts/Ballot/Ballot.sol\":6028:6033  isTie */\n      dup2\n        /* \"contracts/Ballot/Ballot.sol\":6024:6792  if (isTie) {\r... */\n      iszero\n      tag_154\n      jumpi\n        /* \"contracts/Ballot/Ballot.sol\":6055:6074  uint indexCandidate */\n      0x00\n        /* \"contracts/Ballot/Ballot.sol\":6050:6277  for (uint indexCandidate = 0; indexCandidate < tieCandidatesList.length; indexCandidate++) {\r... */\n    tag_155:\n        /* \"contracts/Ballot/Ballot.sol\":6097:6114  tieCandidatesList */\n      dup5\n        /* \"contracts/Ballot/Ballot.sol\":6097:6121  tieCandidatesList.length */\n      mload\n        /* \"contracts/Ballot/Ballot.sol\":6080:6094  indexCandidate */\n      dup2\n        /* \"contracts/Ballot/Ballot.sol\":6080:6121  indexCandidate < tieCandidatesList.length */\n      lt\n        /* \"contracts/Ballot/Ballot.sol\":6050:6277  for (uint indexCandidate = 0; indexCandidate < tieCandidatesList.length; indexCandidate++) {\r... */\n      iszero\n      tag_156\n      jumpi\n        /* \"contracts/Ballot/Ballot.sol\":6185:6261  concatenateStrings(tieCandidatesListNames,tieCandidatesList[indexCandidate]) */\n      tag_158\n        /* \"contracts/Ballot/Ballot.sol\":6204:6226  tieCandidatesListNames */\n      dup3\n        /* \"contracts/Ballot/Ballot.sol\":6227:6244  tieCandidatesList */\n      dup7\n        /* \"contracts/Ballot/Ballot.sol\":6245:6259  indexCandidate */\n      dup4\n        /* \"contracts/Ballot/Ballot.sol\":6227:6260  tieCandidatesList[indexCandidate] */\n      dup2\n      mload\n      dup2\n      lt\n      tag_159\n      jumpi\n      tag_160\n      tag_41\n      jump\t// in\n    tag_160:\n    tag_159:\n      0x20\n      mul\n      0x20\n      add\n      add\n      mload\n        /* \"contracts/Ballot/Ballot.sol\":6185:6203  concatenateStrings */\n      tag_161\n        /* \"contracts/Ballot/Ballot.sol\":6185:6261  concatenateStrings(tieCandidatesListNames,tieCandidatesList[indexCandidate]) */\n      jump\t// in\n    tag_158:\n        /* \"contracts/Ballot/Ballot.sol\":6160:6261  tieCandidatesListNames = concatenateStrings(tieCandidatesListNames,tieCandidatesList[indexCandidate]) */\n      swap2\n      pop\n        /* \"contracts/Ballot/Ballot.sol\":6123:6139  indexCandidate++ */\n      dup1\n      dup1\n      tag_162\n      swap1\n      tag_52\n      jump\t// in\n    tag_162:\n      swap2\n      pop\n      pop\n        /* \"contracts/Ballot/Ballot.sol\":6050:6277  for (uint indexCandidate = 0; indexCandidate < tieCandidatesList.length; indexCandidate++) {\r... */\n      jump(tag_155)\n    tag_156:\n      pop\n        /* \"contracts/Ballot/Ballot.sol\":6305:6329  string memory tieMessage */\n      0x00\n        /* \"contracts/Ballot/Ballot.sol\":6332:6441  concatenateStrings(\"There is a TIE on Ballot with this amount of votes:\", Strings.toString(winningVoteCount)) */\n      tag_163\n      mload(0x40)\n      dup1\n      0x60\n      add\n      0x40\n      mstore\n      dup1\n      0x33\n      dup2\n      mstore\n      0x20\n      add\n      data_eaa3f166ab1a4d3cf55f2444fe62265ef12243fce6a2eb4e095fa04071166171\n      0x33\n      swap2\n      codecopy\n        /* \"contracts/Ballot/Ballot.sol\":6406:6440  Strings.toString(winningVoteCount) */\n      tag_164\n        /* \"contracts/Ballot/Ballot.sol\":6423:6439  winningVoteCount */\n      dup11\n        /* \"contracts/Ballot/Ballot.sol\":6406:6422  Strings.toString */\n      tag_165\n        /* \"contracts/Ballot/Ballot.sol\":6406:6440  Strings.toString(winningVoteCount) */\n      jump\t// in\n    tag_164:\n        /* \"contracts/Ballot/Ballot.sol\":6332:6350  concatenateStrings */\n      tag_161\n        /* \"contracts/Ballot/Ballot.sol\":6332:6441  concatenateStrings(\"There is a TIE on Ballot with this amount of votes:\", Strings.toString(winningVoteCount)) */\n      jump\t// in\n    tag_163:\n        /* \"contracts/Ballot/Ballot.sol\":6305:6441  string memory tieMessage = concatenateStrings(\"There is a TIE on Ballot with this amount of votes:\", Strings.toString(winningVoteCount)) */\n      swap1\n      pop\n        /* \"contracts/Ballot/Ballot.sol\":6469:6555  concatenateStrings(tieMessage, \". You should start a new ballot with tie candidates:\") */\n      tag_166\n        /* \"contracts/Ballot/Ballot.sol\":6488:6498  tieMessage */\n      dup2\n        /* \"contracts/Ballot/Ballot.sol\":6469:6555  concatenateStrings(tieMessage, \". You should start a new ballot with tie candidates:\") */\n      mload(0x40)\n      dup1\n      0x60\n      add\n      0x40\n      mstore\n      dup1\n      0x34\n      dup2\n      mstore\n      0x20\n      add\n      data_9fba6a81bb5a781be8fc79de52792c3a220d25cf150c42ec6eeb822c9b563178\n      0x34\n      swap2\n      codecopy\n        /* \"contracts/Ballot/Ballot.sol\":6469:6487  concatenateStrings */\n      tag_161\n        /* \"contracts/Ballot/Ballot.sol\":6469:6555  concatenateStrings(tieMessage, \". You should start a new ballot with tie candidates:\") */\n      jump\t// in\n    tag_166:\n        /* \"contracts/Ballot/Ballot.sol\":6456:6555  tieMessage = concatenateStrings(tieMessage, \". You should start a new ballot with tie candidates:\") */\n      swap1\n      pop\n        /* \"contracts/Ballot/Ballot.sol\":6583:6637  concatenateStrings(tieMessage, tieCandidatesListNames) */\n      tag_167\n        /* \"contracts/Ballot/Ballot.sol\":6602:6612  tieMessage */\n      dup2\n        /* \"contracts/Ballot/Ballot.sol\":6614:6636  tieCandidatesListNames */\n      dup4\n        /* \"contracts/Ballot/Ballot.sol\":6583:6601  concatenateStrings */\n      tag_161\n        /* \"contracts/Ballot/Ballot.sol\":6583:6637  concatenateStrings(tieMessage, tieCandidatesListNames) */\n      jump\t// in\n    tag_167:\n        /* \"contracts/Ballot/Ballot.sol\":6570:6637  tieMessage = concatenateStrings(tieMessage, tieCandidatesListNames) */\n      swap1\n      pop\n        /* \"contracts/Ballot/Ballot.sol\":6662:6695  getTieRequire(!isTie, tieMessage) */\n      tag_168\n        /* \"contracts/Ballot/Ballot.sol\":6677:6682  isTie */\n      dup4\n        /* \"contracts/Ballot/Ballot.sol\":6676:6682  !isTie */\n      iszero\n        /* \"contracts/Ballot/Ballot.sol\":6684:6694  tieMessage */\n      dup3\n        /* \"contracts/Ballot/Ballot.sol\":6662:6675  getTieRequire */\n      tag_169\n        /* \"contracts/Ballot/Ballot.sol\":6662:6695  getTieRequire(!isTie, tieMessage) */\n      jump\t// in\n    tag_168:\n        /* \"contracts/Ballot/Ballot.sol\":6035:6707  {\r... */\n      pop\n        /* \"contracts/Ballot/Ballot.sol\":6024:6792  if (isTie) {\r... */\n      jump(tag_170)\n    tag_154:\n        /* \"contracts/Ballot/Ballot.sol\":6747:6757  candidates */\n      0x02\n        /* \"contracts/Ballot/Ballot.sol\":6758:6779  winningCandidateIndex */\n      dup7\n        /* \"contracts/Ballot/Ballot.sol\":6747:6780  candidates[winningCandidateIndex] */\n      dup2\n      sload\n      dup2\n      lt\n      tag_171\n      jumpi\n      tag_172\n      tag_41\n      jump\t// in\n    tag_172:\n    tag_171:\n      swap1\n      0x00\n      mstore\n      keccak256(0x00, 0x20)\n      swap1\n      0x02\n      mul\n      add\n        /* \"contracts/Ballot/Ballot.sol\":6728:6780  winningCandidate = candidates[winningCandidateIndex] */\n      mload(0x40)\n      dup1\n      0x40\n      add\n      0x40\n      mstore\n      swap1\n      dup2\n      0x00\n      dup3\n      add\n      dup1\n      sload\n      tag_174\n      swap1\n      tag_44\n      jump\t// in\n    tag_174:\n      dup1\n      0x1f\n      add\n      0x20\n      dup1\n      swap2\n      div\n      mul\n      0x20\n      add\n      mload(0x40)\n      swap1\n      dup2\n      add\n      0x40\n      mstore\n      dup1\n      swap3\n      swap2\n      swap1\n      dup2\n      dup2\n      mstore\n      0x20\n      add\n      dup3\n      dup1\n      sload\n      tag_175\n      swap1\n      tag_44\n      jump\t// in\n    tag_175:\n      dup1\n      iszero\n      tag_176\n      jumpi\n      dup1\n      0x1f\n      lt\n      tag_177\n      jumpi\n      0x0100\n      dup1\n      dup4\n      sload\n      div\n      mul\n      dup4\n      mstore\n      swap2\n      0x20\n      add\n      swap2\n      jump(tag_176)\n    tag_177:\n      dup3\n      add\n      swap2\n      swap1\n      0x00\n      mstore\n      keccak256(0x00, 0x20)\n      swap1\n    tag_178:\n      dup2\n      sload\n      dup2\n      mstore\n      swap1\n      0x01\n      add\n      swap1\n      0x20\n      add\n      dup1\n      dup4\n      gt\n      tag_178\n      jumpi\n      dup3\n      swap1\n      sub\n      0x1f\n      and\n      dup3\n      add\n      swap2\n    tag_176:\n      pop\n      pop\n      pop\n      pop\n      pop\n      dup2\n      mstore\n      0x20\n      add\n      0x01\n      dup3\n      add\n      sload\n      dup2\n      mstore\n      pop\n      pop\n      swap8\n      pop\n        /* \"contracts/Ballot/Ballot.sol\":6024:6792  if (isTie) {\r... */\n    tag_170:\n        /* \"contracts/Ballot/Ballot.sol\":4716:6799  {        \r... */\n      pop\n      pop\n      pop\n      pop\n      pop\n      pop\n      pop\n        /* \"contracts/Ballot/Ballot.sol\":4629:6799  function getWinnerCandidate() private view returns (Candidate memory winningCandidate) {        \r... */\n      swap1\n      jump\t// out\n        /* \"contracts/Ballot/Ballot.sol\":7222:7322  function getContractAddress() private view returns (address) {\r... */\n    tag_64:\n        /* \"contracts/Ballot/Ballot.sol\":7274:7281  address */\n      0x00\n        /* \"contracts/Ballot/Ballot.sol\":7309:7313  this */\n      address\n        /* \"contracts/Ballot/Ballot.sol\":7294:7314  return address(this) */\n      swap1\n      pop\n        /* \"contracts/Ballot/Ballot.sol\":7222:7322  function getContractAddress() private view returns (address) {\r... */\n      swap1\n      jump\t// out\n        /* \"contracts/Ballot/Ballot.sol\":1625:1836  function getTotalVotesCounterReachedRequire() private view {\r... */\n    tag_67:\n        /* \"contracts/Ballot/Ballot.sol\":1744:1752  maxVotes */\n      sload(0x04)\n        /* \"contracts/Ballot/Ballot.sol\":1724:1741  totalVotesCounter */\n      sload(0x03)\n        /* \"contracts/Ballot/Ballot.sol\":1724:1752  totalVotesCounter < maxVotes */\n      lt\n        /* \"contracts/Ballot/Ballot.sol\":1702:1828  require(\r... */\n      tag_181\n      jumpi\n      mload(0x40)\n      0x08c379a000000000000000000000000000000000000000000000000000000000\n      dup2\n      mstore\n      0x04\n      add\n      tag_182\n      swap1\n      tag_183\n      jump\t// in\n    tag_182:\n      mload(0x40)\n      dup1\n      swap2\n      sub\n      swap1\n      revert\n    tag_181:\n        /* \"contracts/Ballot/Ballot.sol\":1625:1836  function getTotalVotesCounterReachedRequire() private view {\r... */\n      jump\t// out\n        /* \"contracts/Ballot/Ballot.sol\":2603:2798  function getYouContractOwnerRequire() private view {\r... */\n    tag_69:\n        /* \"contracts/Ballot/Ballot.sol\":2694:2715  areYouContractOwner() */\n      tag_185\n        /* \"contracts/Ballot/Ballot.sol\":2694:2713  areYouContractOwner */\n      tag_186\n        /* \"contracts/Ballot/Ballot.sol\":2694:2715  areYouContractOwner() */\n      jump\t// in\n    tag_185:\n        /* \"contracts/Ballot/Ballot.sol\":2672:2790  require(\r... */\n      tag_187\n      jumpi\n      mload(0x40)\n      0x08c379a000000000000000000000000000000000000000000000000000000000\n      dup2\n      mstore\n      0x04\n      add\n      tag_188\n      swap1\n      tag_189\n      jump\t// in\n    tag_188:\n      mload(0x40)\n      dup1\n      swap2\n      sub\n      swap1\n      revert\n    tag_187:\n        /* \"contracts/Ballot/Ballot.sol\":2603:2798  function getYouContractOwnerRequire() private view {\r... */\n      jump\t// out\n        /* \"contracts/Ballot/Ballot.sol\":2387:2595  function getRightToVoteRequire(address voterAddress) private view {\r... */\n    tag_71:\n        /* \"contracts/Ballot/Ballot.sol\":2494:2500  voters */\n      0x01\n        /* \"contracts/Ballot/Ballot.sol\":2494:2514  voters[voterAddress] */\n      0x00\n        /* \"contracts/Ballot/Ballot.sol\":2501:2513  voterAddress */\n      dup3\n        /* \"contracts/Ballot/Ballot.sol\":2494:2514  voters[voterAddress] */\n      0xffffffffffffffffffffffffffffffffffffffff\n      and\n      0xffffffffffffffffffffffffffffffffffffffff\n      and\n      dup2\n      mstore\n      0x20\n      add\n      swap1\n      dup2\n      mstore\n      0x20\n      add\n      0x00\n      keccak256\n        /* \"contracts/Ballot/Ballot.sol\":2494:2522  voters[voterAddress].canVote */\n      0x01\n      add\n      0x00\n      swap1\n      sload\n      swap1\n      0x0100\n      exp\n      swap1\n      div\n      0xff\n      and\n        /* \"contracts/Ballot/Ballot.sol\":2493:2522  !voters[voterAddress].canVote */\n      iszero\n        /* \"contracts/Ballot/Ballot.sol\":2471:2587  require(\r... */\n      tag_191\n      jumpi\n      mload(0x40)\n      0x08c379a000000000000000000000000000000000000000000000000000000000\n      dup2\n      mstore\n      0x04\n      add\n      tag_192\n      swap1\n      tag_193\n      jump\t// in\n    tag_192:\n      mload(0x40)\n      dup1\n      swap2\n      sub\n      swap1\n      revert\n    tag_191:\n        /* \"contracts/Ballot/Ballot.sol\":2387:2595  function getRightToVoteRequire(address voterAddress) private view {\r... */\n      pop\n      jump\t// out\n        /* \"contracts/Ballot/Ballot.sol\":1428:1617  function getVoterVotedRequire(address voterAddress) private view {\r... */\n    tag_73:\n        /* \"contracts/Ballot/Ballot.sol\":1534:1561  getVoterVoted(voterAddress) */\n      tag_195\n        /* \"contracts/Ballot/Ballot.sol\":1548:1560  voterAddress */\n      dup2\n        /* \"contracts/Ballot/Ballot.sol\":1534:1547  getVoterVoted */\n      tag_196\n        /* \"contracts/Ballot/Ballot.sol\":1534:1561  getVoterVoted(voterAddress) */\n      jump\t// in\n    tag_195:\n        /* \"contracts/Ballot/Ballot.sol\":1533:1561  !getVoterVoted(voterAddress) */\n      iszero\n        /* \"contracts/Ballot/Ballot.sol\":1511:1609  require(\r... */\n      tag_197\n      jumpi\n      mload(0x40)\n      0x08c379a000000000000000000000000000000000000000000000000000000000\n      dup2\n      mstore\n      0x04\n      add\n      tag_198\n      swap1\n      tag_199\n      jump\t// in\n    tag_198:\n      mload(0x40)\n      dup1\n      swap2\n      sub\n      swap1\n      revert\n    tag_197:\n        /* \"contracts/Ballot/Ballot.sol\":1428:1617  function getVoterVotedRequire(address voterAddress) private view {\r... */\n      pop\n      jump\t// out\n        /* \"contracts/Ballot/Ballot.sol\":7881:8048  function stringEqualTo(string memory s1, string memory s2) private pure returns (bool) {\r... */\n    tag_94:\n        /* \"contracts/Ballot/Ballot.sol\":7962:7966  bool */\n      0x00\n        /* \"contracts/Ballot/Ballot.sol\":8036:8038  s2 */\n      dup2\n        /* \"contracts/Ballot/Ballot.sol\":8025:8039  abi.encode(s2) */\n      add(0x20, mload(0x40))\n      tag_201\n      swap2\n      swap1\n      tag_202\n      jump\t// in\n    tag_201:\n      mload(0x40)\n      0x20\n      dup2\n      dup4\n      sub\n      sub\n      dup2\n      mstore\n      swap1\n      0x40\n      mstore\n        /* \"contracts/Ballot/Ballot.sol\":8015:8040  keccak256(abi.encode(s2)) */\n      dup1\n      mload\n      swap1\n      0x20\n      add\n      keccak256\n        /* \"contracts/Ballot/Ballot.sol\":8007:8009  s1 */\n      dup4\n        /* \"contracts/Ballot/Ballot.sol\":7996:8010  abi.encode(s1) */\n      add(0x20, mload(0x40))\n      tag_203\n      swap2\n      swap1\n      tag_202\n      jump\t// in\n    tag_203:\n      mload(0x40)\n      0x20\n      dup2\n      dup4\n      sub\n      sub\n      dup2\n      mstore\n      swap1\n      0x40\n      mstore\n        /* \"contracts/Ballot/Ballot.sol\":7986:8011  keccak256(abi.encode(s1)) */\n      dup1\n      mload\n      swap1\n      0x20\n      add\n      keccak256\n        /* \"contracts/Ballot/Ballot.sol\":7986:8040  keccak256(abi.encode(s1)) == keccak256(abi.encode(s2)) */\n      eq\n        /* \"contracts/Ballot/Ballot.sol\":7979:8040  return keccak256(abi.encode(s1)) == keccak256(abi.encode(s2)) */\n      swap1\n      pop\n        /* \"contracts/Ballot/Ballot.sol\":7881:8048  function stringEqualTo(string memory s1, string memory s2) private pure returns (bool) {\r... */\n      swap3\n      swap2\n      pop\n      pop\n      jump\t// out\n        /* \"contracts/Ballot/Ballot.sol\":1844:2021  function getCandidateExistRequire(bool isExist) private pure {\r... */\n    tag_103:\n        /* \"contracts/Ballot/Ballot.sol\":1945:1952  isExist */\n      dup1\n        /* \"contracts/Ballot/Ballot.sol\":1923:2013  require(\r... */\n      tag_205\n      jumpi\n      mload(0x40)\n      0x08c379a000000000000000000000000000000000000000000000000000000000\n      dup2\n      mstore\n      0x04\n      add\n      tag_206\n      swap1\n      tag_207\n      jump\t// in\n    tag_206:\n      mload(0x40)\n      dup1\n      swap2\n      sub\n      swap1\n      revert\n    tag_205:\n        /* \"contracts/Ballot/Ballot.sol\":1844:2021  function getCandidateExistRequire(bool isExist) private pure {\r... */\n      pop\n      jump\t// out\n        /* \"contracts/Ballot/Ballot.sol\":8056:8221  function concatenateStrings(string memory s1, string memory s2) private pure returns (string memory) {\r... */\n    tag_161:\n        /* \"contracts/Ballot/Ballot.sol\":8142:8155  string memory */\n      0x60\n        /* \"contracts/Ballot/Ballot.sol\":8199:8201  s1 */\n      dup3\n        /* \"contracts/Ballot/Ballot.sol\":8209:8211  s2 */\n      dup3\n        /* \"contracts/Ballot/Ballot.sol\":8182:8212  abi.encodePacked(s1, \" \" , s2) */\n      add(0x20, mload(0x40))\n      tag_209\n      swap3\n      swap2\n      swap1\n      tag_210\n      jump\t// in\n    tag_209:\n      mload(0x40)\n      0x20\n      dup2\n      dup4\n      sub\n      sub\n      dup2\n      mstore\n      swap1\n      0x40\n      mstore\n        /* \"contracts/Ballot/Ballot.sol\":8168:8213  return string(abi.encodePacked(s1, \" \" , s2)) */\n      swap1\n      pop\n        /* \"contracts/Ballot/Ballot.sol\":8056:8221  function concatenateStrings(string memory s1, string memory s2) private pure returns (string memory) {\r... */\n      swap3\n      swap2\n      pop\n      pop\n      jump\t// out\n        /* \"@openzeppelin/contracts/utils/Strings.sol\":392:1095  function toString(uint256 value) internal pure returns (string memory) {... */\n    tag_165:\n        /* \"@openzeppelin/contracts/utils/Strings.sol\":448:461  string memory */\n      0x60\n        /* \"@openzeppelin/contracts/utils/Strings.sol\":674:675  0 */\n      0x00\n        /* \"@openzeppelin/contracts/utils/Strings.sol\":665:670  value */\n      dup3\n        /* \"@openzeppelin/contracts/utils/Strings.sol\":665:675  value == 0 */\n      eq\n        /* \"@openzeppelin/contracts/utils/Strings.sol\":661:712  if (value == 0) {... */\n      iszero\n      tag_212\n      jumpi\n        /* \"@openzeppelin/contracts/utils/Strings.sol\":691:701  return \"0\" */\n      mload(0x40)\n      dup1\n      0x40\n      add\n      0x40\n      mstore\n      dup1\n      0x01\n      dup2\n      mstore\n      0x20\n      add\n      0x3000000000000000000000000000000000000000000000000000000000000000\n      dup2\n      mstore\n      pop\n      swap1\n      pop\n      jump(tag_211)\n        /* \"@openzeppelin/contracts/utils/Strings.sol\":661:712  if (value == 0) {... */\n    tag_212:\n        /* \"@openzeppelin/contracts/utils/Strings.sol\":721:733  uint256 temp */\n      0x00\n        /* \"@openzeppelin/contracts/utils/Strings.sol\":736:741  value */\n      dup3\n        /* \"@openzeppelin/contracts/utils/Strings.sol\":721:741  uint256 temp = value */\n      swap1\n      pop\n        /* \"@openzeppelin/contracts/utils/Strings.sol\":751:765  uint256 digits */\n      0x00\n        /* \"@openzeppelin/contracts/utils/Strings.sol\":775:850  while (temp != 0) {... */\n    tag_213:\n        /* \"@openzeppelin/contracts/utils/Strings.sol\":790:791  0 */\n      0x00\n        /* \"@openzeppelin/contracts/utils/Strings.sol\":782:786  temp */\n      dup3\n        /* \"@openzeppelin/contracts/utils/Strings.sol\":782:791  temp != 0 */\n      eq\n        /* \"@openzeppelin/contracts/utils/Strings.sol\":775:850  while (temp != 0) {... */\n      tag_214\n      jumpi\n        /* \"@openzeppelin/contracts/utils/Strings.sol\":807:815  digits++ */\n      dup1\n      dup1\n      tag_215\n      swap1\n      tag_52\n      jump\t// in\n    tag_215:\n      swap2\n      pop\n      pop\n        /* \"@openzeppelin/contracts/utils/Strings.sol\":837:839  10 */\n      0x0a\n        /* \"@openzeppelin/contracts/utils/Strings.sol\":829:839  temp /= 10 */\n      dup3\n      tag_216\n      swap2\n      swap1\n      tag_217\n      jump\t// in\n    tag_216:\n      swap2\n      pop\n        /* \"@openzeppelin/contracts/utils/Strings.sol\":775:850  while (temp != 0) {... */\n      jump(tag_213)\n    tag_214:\n        /* \"@openzeppelin/contracts/utils/Strings.sol\":859:878  bytes memory buffer */\n      0x00\n        /* \"@openzeppelin/contracts/utils/Strings.sol\":891:897  digits */\n      dup2\n        /* \"@openzeppelin/contracts/utils/Strings.sol\":881:898  new bytes(digits) */\n      0xffffffffffffffff\n      dup2\n      gt\n      iszero\n      tag_218\n      jumpi\n      tag_219\n      tag_33\n      jump\t// in\n    tag_219:\n    tag_218:\n      mload(0x40)\n      swap1\n      dup1\n      dup3\n      mstore\n      dup1\n      0x1f\n      add\n      not(0x1f)\n      and\n      0x20\n      add\n      dup3\n      add\n      0x40\n      mstore\n      dup1\n      iszero\n      tag_220\n      jumpi\n      dup2\n      0x20\n      add\n      0x01\n      dup3\n      mul\n      dup1\n      calldatasize\n      dup4\n      calldatacopy\n      dup1\n      dup3\n      add\n      swap2\n      pop\n      pop\n      swap1\n      pop\n    tag_220:\n      pop\n        /* \"@openzeppelin/contracts/utils/Strings.sol\":859:898  bytes memory buffer = new bytes(digits) */\n      swap1\n      pop\n        /* \"@openzeppelin/contracts/utils/Strings.sol\":908:1058  while (value != 0) {... */\n    tag_221:\n        /* \"@openzeppelin/contracts/utils/Strings.sol\":924:925  0 */\n      0x00\n        /* \"@openzeppelin/contracts/utils/Strings.sol\":915:920  value */\n      dup6\n        /* \"@openzeppelin/contracts/utils/Strings.sol\":915:925  value != 0 */\n      eq\n        /* \"@openzeppelin/contracts/utils/Strings.sol\":908:1058  while (value != 0) {... */\n      tag_222\n      jumpi\n        /* \"@openzeppelin/contracts/utils/Strings.sol\":951:952  1 */\n      0x01\n        /* \"@openzeppelin/contracts/utils/Strings.sol\":941:952  digits -= 1 */\n      dup3\n      tag_223\n      swap2\n      swap1\n      tag_224\n      jump\t// in\n    tag_223:\n      swap2\n      pop\n        /* \"@openzeppelin/contracts/utils/Strings.sol\":1017:1019  10 */\n      0x0a\n        /* \"@openzeppelin/contracts/utils/Strings.sol\":1009:1014  value */\n      dup6\n        /* \"@openzeppelin/contracts/utils/Strings.sol\":1009:1019  value % 10 */\n      tag_225\n      swap2\n      swap1\n      tag_226\n      jump\t// in\n    tag_225:\n        /* \"@openzeppelin/contracts/utils/Strings.sol\":996:998  48 */\n      0x30\n        /* \"@openzeppelin/contracts/utils/Strings.sol\":996:1020  48 + uint256(value % 10) */\n      tag_227\n      swap2\n      swap1\n      tag_228\n      jump\t// in\n    tag_227:\n        /* \"@openzeppelin/contracts/utils/Strings.sol\":983:1022  bytes1(uint8(48 + uint256(value % 10))) */\n      0xf8\n      shl\n        /* \"@openzeppelin/contracts/utils/Strings.sol\":966:972  buffer */\n      dup2\n        /* \"@openzeppelin/contracts/utils/Strings.sol\":973:979  digits */\n      dup4\n        /* \"@openzeppelin/contracts/utils/Strings.sol\":966:980  buffer[digits] */\n      dup2\n      mload\n      dup2\n      lt\n      tag_229\n      jumpi\n      tag_230\n      tag_41\n      jump\t// in\n    tag_230:\n    tag_229:\n      0x20\n      add\n      add\n        /* \"@openzeppelin/contracts/utils/Strings.sol\":966:1022  buffer[digits] = bytes1(uint8(48 + uint256(value % 10))) */\n      swap1\n      not(0xffffffffffffffffffffffffffffffffffffffffffffffffffffffffffffff)\n      and\n      swap1\n      dup2\n      0x00\n      byte\n      swap1\n      mstore8\n      pop\n        /* \"@openzeppelin/contracts/utils/Strings.sol\":1045:1047  10 */\n      0x0a\n        /* \"@openzeppelin/contracts/utils/Strings.sol\":1036:1047  value /= 10 */\n      dup6\n      tag_231\n      swap2\n      swap1\n      tag_217\n      jump\t// in\n    tag_231:\n      swap5\n      pop\n        /* \"@openzeppelin/contracts/utils/Strings.sol\":908:1058  while (value != 0) {... */\n      jump(tag_221)\n    tag_222:\n        /* \"@openzeppelin/contracts/utils/Strings.sol\":1081:1087  buffer */\n      dup1\n        /* \"@openzeppelin/contracts/utils/Strings.sol\":1067:1088  return string(buffer) */\n      swap4\n      pop\n      pop\n      pop\n      pop\n        /* \"@openzeppelin/contracts/utils/Strings.sol\":392:1095  function toString(uint256 value) internal pure returns (string memory) {... */\n    tag_211:\n      swap2\n      swap1\n      pop\n      jump\t// out\n        /* \"contracts/Ballot/Ballot.sol\":2029:2192  function getTieRequire(bool isTie, string memory tieMessage) private pure {\r... */\n    tag_169:\n        /* \"contracts/Ballot/Ballot.sol\":2143:2148  isTie */\n      dup2\n        /* \"contracts/Ballot/Ballot.sol\":2163:2173  tieMessage */\n      dup2\n        /* \"contracts/Ballot/Ballot.sol\":2121:2184  require(\r... */\n      swap1\n      tag_233\n      jumpi\n      mload(0x40)\n      0x08c379a000000000000000000000000000000000000000000000000000000000\n      dup2\n      mstore\n      0x04\n      add\n      tag_234\n      swap2\n      swap1\n      tag_202\n      jump\t// in\n    tag_234:\n      mload(0x40)\n      dup1\n      swap2\n      sub\n      swap1\n      revert\n    tag_233:\n      pop\n        /* \"contracts/Ballot/Ballot.sol\":2029:2192  function getTieRequire(bool isTie, string memory tieMessage) private pure {\r... */\n      pop\n      pop\n      jump\t// out\n        /* \"contracts/Ballot/Ballot.sol\":7330:7442  function areYouContractOwner() private view returns (bool) {\r... */\n    tag_186:\n        /* \"contracts/Ballot/Ballot.sol\":7383:7387  bool */\n      0x00\n        /* \"contracts/Ballot/Ballot.sol\":7421:7434  contractOwner */\n      dup1\n      0x00\n      swap1\n      sload\n      swap1\n      0x0100\n      exp\n      swap1\n      div\n      0xffffffffffffffffffffffffffffffffffffffff\n      and\n        /* \"contracts/Ballot/Ballot.sol\":7407:7434  msg.sender == contractOwner */\n      0xffffffffffffffffffffffffffffffffffffffff\n      and\n        /* \"contracts/Ballot/Ballot.sol\":7407:7417  msg.sender */\n      caller\n        /* \"contracts/Ballot/Ballot.sol\":7407:7434  msg.sender == contractOwner */\n      0xffffffffffffffffffffffffffffffffffffffff\n      and\n      eq\n        /* \"contracts/Ballot/Ballot.sol\":7400:7434  return msg.sender == contractOwner */\n      swap1\n      pop\n        /* \"contracts/Ballot/Ballot.sol\":7330:7442  function areYouContractOwner() private view returns (bool) {\r... */\n      swap1\n      jump\t// out\n        /* \"contracts/Ballot/Ballot.sol\":7717:7845  function getVoterVoted(address voterAddress) private view returns (bool) {\r... */\n    tag_196:\n        /* \"contracts/Ballot/Ballot.sol\":7784:7788  bool */\n      0x00\n        /* \"contracts/Ballot/Ballot.sol\":7808:7814  voters */\n      0x01\n        /* \"contracts/Ballot/Ballot.sol\":7808:7828  voters[voterAddress] */\n      0x00\n        /* \"contracts/Ballot/Ballot.sol\":7815:7827  voterAddress */\n      dup4\n        /* \"contracts/Ballot/Ballot.sol\":7808:7828  voters[voterAddress] */\n      0xffffffffffffffffffffffffffffffffffffffff\n      and\n      0xffffffffffffffffffffffffffffffffffffffff\n      and\n      dup2\n      mstore\n      0x20\n      add\n      swap1\n      dup2\n      mstore\n      0x20\n      add\n      0x00\n      keccak256\n        /* \"contracts/Ballot/Ballot.sol\":7808:7837  voters[voterAddress].hasVoted */\n      0x01\n      add\n      0x01\n      swap1\n      sload\n      swap1\n      0x0100\n      exp\n      swap1\n      div\n      0xff\n      and\n        /* \"contracts/Ballot/Ballot.sol\":7801:7837  return voters[voterAddress].hasVoted */\n      swap1\n      pop\n        /* \"contracts/Ballot/Ballot.sol\":7717:7845  function getVoterVoted(address voterAddress) private view returns (bool) {\r... */\n      swap2\n      swap1\n      pop\n      jump\t// out\n    tag_76:\n      dup3\n      dup1\n      sload\n      tag_237\n      swap1\n      tag_44\n      jump\t// in\n    tag_237:\n      swap1\n      0x00\n      mstore\n      keccak256(0x00, 0x20)\n      swap1\n      0x1f\n      add\n      0x20\n      swap1\n      div\n      dup2\n      add\n      swap3\n      dup3\n      tag_239\n      jumpi\n      0x00\n      dup6\n      sstore\n      jump(tag_238)\n    tag_239:\n      dup3\n      0x1f\n      lt\n      tag_240\n      jumpi\n      dup1\n      mload\n      not(0xff)\n      and\n      dup4\n      dup1\n      add\n      or\n      dup6\n      sstore\n      jump(tag_238)\n    tag_240:\n      dup3\n      dup1\n      add\n      0x01\n      add\n      dup6\n      sstore\n      dup3\n      iszero\n      tag_238\n      jumpi\n      swap2\n      dup3\n      add\n    tag_241:\n      dup3\n      dup2\n      gt\n      iszero\n      tag_242\n      jumpi\n      dup3\n      mload\n      dup3\n      sstore\n      swap2\n      0x20\n      add\n      swap2\n      swap1\n      0x01\n      add\n      swap1\n      jump(tag_241)\n    tag_242:\n    tag_238:\n      pop\n      swap1\n      pop\n      tag_243\n      swap2\n      swap1\n      tag_244\n      jump\t// in\n    tag_243:\n      pop\n      swap1\n      jump\t// out\n    tag_105:\n      mload(0x40)\n      dup1\n      0x40\n      add\n      0x40\n      mstore\n      dup1\n      0x60\n      dup2\n      mstore\n      0x20\n      add\n      0x00\n      dup2\n      mstore\n      pop\n      swap1\n      jump\t// out\n    tag_244:\n    tag_245:\n      dup1\n      dup3\n      gt\n      iszero\n      tag_246\n      jumpi\n      0x00\n      dup2\n      0x00\n      swap1\n      sstore\n      pop\n      0x01\n      add\n      jump(tag_245)\n    tag_246:\n      pop\n      swap1\n      jump\t// out\n        /* \"#utility.yul\":7:419   */\n    tag_248:\n        /* \"#utility.yul\":85:90   */\n      0x00\n        /* \"#utility.yul\":110:176   */\n      tag_250\n        /* \"#utility.yul\":126:175   */\n      tag_251\n        /* \"#utility.yul\":168:174   */\n      dup5\n        /* \"#utility.yul\":126:175   */\n      tag_252\n      jump\t// in\n    tag_251:\n        /* \"#utility.yul\":110:176   */\n      tag_253\n      jump\t// in\n    tag_250:\n        /* \"#utility.yul\":101:176   */\n      swap1\n      pop\n        /* \"#utility.yul\":199:205   */\n      dup3\n        /* \"#utility.yul\":192:197   */\n      dup2\n        /* \"#utility.yul\":185:206   */\n      mstore\n        /* \"#utility.yul\":237:241   */\n      0x20\n        /* \"#utility.yul\":230:235   */\n      dup2\n        /* \"#utility.yul\":226:242   */\n      add\n        /* \"#utility.yul\":275:278   */\n      dup5\n        /* \"#utility.yul\":266:272   */\n      dup5\n        /* \"#utility.yul\":261:264   */\n      dup5\n        /* \"#utility.yul\":257:273   */\n      add\n        /* \"#utility.yul\":254:279   */\n      gt\n        /* \"#utility.yul\":251:363   */\n      iszero\n      tag_254\n      jumpi\n        /* \"#utility.yul\":282:361   */\n      tag_255\n      tag_256\n      jump\t// in\n    tag_255:\n        /* \"#utility.yul\":251:363   */\n    tag_254:\n        /* \"#utility.yul\":372:413   */\n      tag_257\n        /* \"#utility.yul\":406:412   */\n      dup5\n        /* \"#utility.yul\":401:404   */\n      dup3\n        /* \"#utility.yul\":396:399   */\n      dup6\n        /* \"#utility.yul\":372:413   */\n      tag_258\n      jump\t// in\n    tag_257:\n        /* \"#utility.yul\":91:419   */\n      pop\n        /* \"#utility.yul\":7:419   */\n      swap4\n      swap3\n      pop\n      pop\n      pop\n      jump\t// out\n        /* \"#utility.yul\":425:564   */\n    tag_259:\n        /* \"#utility.yul\":471:476   */\n      0x00\n        /* \"#utility.yul\":509:515   */\n      dup2\n        /* \"#utility.yul\":496:516   */\n      calldataload\n        /* \"#utility.yul\":487:516   */\n      swap1\n      pop\n        /* \"#utility.yul\":525:558   */\n      tag_261\n        /* \"#utility.yul\":552:557   */\n      dup2\n        /* \"#utility.yul\":525:558   */\n      tag_262\n      jump\t// in\n    tag_261:\n        /* \"#utility.yul\":425:564   */\n      swap3\n      swap2\n      pop\n      pop\n      jump\t// out\n        /* \"#utility.yul\":584:924   */\n    tag_263:\n        /* \"#utility.yul\":640:645   */\n      0x00\n        /* \"#utility.yul\":689:692   */\n      dup3\n        /* \"#utility.yul\":682:686   */\n      0x1f\n        /* \"#utility.yul\":674:680   */\n      dup4\n        /* \"#utility.yul\":670:687   */\n      add\n        /* \"#utility.yul\":666:693   */\n      slt\n        /* \"#utility.yul\":656:778   */\n      tag_265\n      jumpi\n        /* \"#utility.yul\":697:776   */\n      tag_266\n      tag_267\n      jump\t// in\n    tag_266:\n        /* \"#utility.yul\":656:778   */\n    tag_265:\n        /* \"#utility.yul\":814:820   */\n      dup2\n        /* \"#utility.yul\":801:821   */\n      calldataload\n        /* \"#utility.yul\":839:918   */\n      tag_268\n        /* \"#utility.yul\":914:917   */\n      dup5\n        /* \"#utility.yul\":906:912   */\n      dup3\n        /* \"#utility.yul\":899:903   */\n      0x20\n        /* \"#utility.yul\":891:897   */\n      dup7\n        /* \"#utility.yul\":887:904   */\n      add\n        /* \"#utility.yul\":839:918   */\n      tag_248\n      jump\t// in\n    tag_268:\n        /* \"#utility.yul\":830:918   */\n      swap2\n      pop\n        /* \"#utility.yul\":646:924   */\n      pop\n        /* \"#utility.yul\":584:924   */\n      swap3\n      swap2\n      pop\n      pop\n      jump\t// out\n        /* \"#utility.yul\":930:1069   */\n    tag_269:\n        /* \"#utility.yul\":976:981   */\n      0x00\n        /* \"#utility.yul\":1014:1020   */\n      dup2\n        /* \"#utility.yul\":1001:1021   */\n      calldataload\n        /* \"#utility.yul\":992:1021   */\n      swap1\n      pop\n        /* \"#utility.yul\":1030:1063   */\n      tag_271\n        /* \"#utility.yul\":1057:1062   */\n      dup2\n        /* \"#utility.yul\":1030:1063   */\n      tag_272\n      jump\t// in\n    tag_271:\n        /* \"#utility.yul\":930:1069   */\n      swap3\n      swap2\n      pop\n      pop\n      jump\t// out\n        /* \"#utility.yul\":1075:1729   */\n    tag_24:\n        /* \"#utility.yul\":1153:1159   */\n      0x00\n        /* \"#utility.yul\":1161:1167   */\n      dup1\n        /* \"#utility.yul\":1210:1212   */\n      0x40\n        /* \"#utility.yul\":1198:1207   */\n      dup4\n        /* \"#utility.yul\":1189:1196   */\n      dup6\n        /* \"#utility.yul\":1185:1208   */\n      sub\n        /* \"#utility.yul\":1181:1213   */\n      slt\n        /* \"#utility.yul\":1178:1297   */\n      iszero\n      tag_274\n      jumpi\n        /* \"#utility.yul\":1216:1295   */\n      tag_275\n      tag_276\n      jump\t// in\n    tag_275:\n        /* \"#utility.yul\":1178:1297   */\n    tag_274:\n        /* \"#utility.yul\":1336:1337   */\n      0x00\n        /* \"#utility.yul\":1361:1414   */\n      tag_277\n        /* \"#utility.yul\":1406:1413   */\n      dup6\n        /* \"#utility.yul\":1397:1403   */\n      dup3\n        /* \"#utility.yul\":1386:1395   */\n      dup7\n        /* \"#utility.yul\":1382:1404   */\n      add\n        /* \"#utility.yul\":1361:1414   */\n      tag_259\n      jump\t// in\n    tag_277:\n        /* \"#utility.yul\":1351:1414   */\n      swap3\n      pop\n        /* \"#utility.yul\":1307:1424   */\n      pop\n        /* \"#utility.yul\":1491:1493   */\n      0x20\n        /* \"#utility.yul\":1480:1489   */\n      dup4\n        /* \"#utility.yul\":1476:1494   */\n      add\n        /* \"#utility.yul\":1463:1495   */\n      calldataload\n        /* \"#utility.yul\":1522:1540   */\n      0xffffffffffffffff\n        /* \"#utility.yul\":1514:1520   */\n      dup2\n        /* \"#utility.yul\":1511:1541   */\n      gt\n        /* \"#utility.yul\":1508:1625   */\n      iszero\n      tag_278\n      jumpi\n        /* \"#utility.yul\":1544:1623   */\n      tag_279\n      tag_280\n      jump\t// in\n    tag_279:\n        /* \"#utility.yul\":1508:1625   */\n    tag_278:\n        /* \"#utility.yul\":1649:1712   */\n      tag_281\n        /* \"#utility.yul\":1704:1711   */\n      dup6\n        /* \"#utility.yul\":1695:1701   */\n      dup3\n        /* \"#utility.yul\":1684:1693   */\n      dup7\n        /* \"#utility.yul\":1680:1702   */\n      add\n        /* \"#utility.yul\":1649:1712   */\n      tag_263\n      jump\t// in\n    tag_281:\n        /* \"#utility.yul\":1639:1712   */\n      swap2\n      pop\n        /* \"#utility.yul\":1434:1722   */\n      pop\n        /* \"#utility.yul\":1075:1729   */\n      swap3\n      pop\n      swap3\n      swap1\n      pop\n      jump\t// out\n        /* \"#utility.yul\":1735:2244   */\n    tag_28:\n        /* \"#utility.yul\":1804:1810   */\n      0x00\n        /* \"#utility.yul\":1853:1855   */\n      0x20\n        /* \"#utility.yul\":1841:1850   */\n      dup3\n        /* \"#utility.yul\":1832:1839   */\n      dup5\n        /* \"#utility.yul\":1828:1851   */\n      sub\n        /* \"#utility.yul\":1824:1856   */\n      slt\n        /* \"#utility.yul\":1821:1940   */\n      iszero\n      tag_283\n      jumpi\n        /* \"#utility.yul\":1859:1938   */\n      tag_284\n      tag_276\n      jump\t// in\n    tag_284:\n        /* \"#utility.yul\":1821:1940   */\n    tag_283:\n        /* \"#utility.yul\":2007:2008   */\n      0x00\n        /* \"#utility.yul\":1996:2005   */\n      dup3\n        /* \"#utility.yul\":1992:2009   */\n      add\n        /* \"#utility.yul\":1979:2010   */\n      calldataload\n        /* \"#utility.yul\":2037:2055   */\n      0xffffffffffffffff\n        /* \"#utility.yul\":2029:2035   */\n      dup2\n        /* \"#utility.yul\":2026:2056   */\n      gt\n        /* \"#utility.yul\":2023:2140   */\n      iszero\n      tag_285\n      jumpi\n        /* \"#utility.yul\":2059:2138   */\n      tag_286\n      tag_280\n      jump\t// in\n    tag_286:\n        /* \"#utility.yul\":2023:2140   */\n    tag_285:\n        /* \"#utility.yul\":2164:2227   */\n      tag_287\n        /* \"#utility.yul\":2219:2226   */\n      dup5\n        /* \"#utility.yul\":2210:2216   */\n      dup3\n        /* \"#utility.yul\":2199:2208   */\n      dup6\n        /* \"#utility.yul\":2195:2217   */\n      add\n        /* \"#utility.yul\":2164:2227   */\n      tag_263\n      jump\t// in\n    tag_287:\n        /* \"#utility.yul\":2154:2227   */\n      swap2\n      pop\n        /* \"#utility.yul\":1950:2237   */\n      pop\n        /* \"#utility.yul\":1735:2244   */\n      swap3\n      swap2\n      pop\n      pop\n      jump\t// out\n        /* \"#utility.yul\":2250:2579   */\n    tag_14:\n        /* \"#utility.yul\":2309:2315   */\n      0x00\n        /* \"#utility.yul\":2358:2360   */\n      0x20\n        /* \"#utility.yul\":2346:2355   */\n      dup3\n        /* \"#utility.yul\":2337:2344   */\n      dup5\n        /* \"#utility.yul\":2333:2356   */\n      sub\n        /* \"#utility.yul\":2329:2361   */\n      slt\n        /* \"#utility.yul\":2326:2445   */\n      iszero\n      tag_289\n      jumpi\n        /* \"#utility.yul\":2364:2443   */\n      tag_290\n      tag_276\n      jump\t// in\n    tag_290:\n        /* \"#utility.yul\":2326:2445   */\n    tag_289:\n        /* \"#utility.yul\":2484:2485   */\n      0x00\n        /* \"#utility.yul\":2509:2562   */\n      tag_291\n        /* \"#utility.yul\":2554:2561   */\n      dup5\n        /* \"#utility.yul\":2545:2551   */\n      dup3\n        /* \"#utility.yul\":2534:2543   */\n      dup6\n        /* \"#utility.yul\":2530:2552   */\n      add\n        /* \"#utility.yul\":2509:2562   */\n      tag_269\n      jump\t// in\n    tag_291:\n        /* \"#utility.yul\":2499:2562   */\n      swap2\n      pop\n        /* \"#utility.yul\":2455:2572   */\n      pop\n        /* \"#utility.yul\":2250:2579   */\n      swap3\n      swap2\n      pop\n      pop\n      jump\t// out\n        /* \"#utility.yul\":2585:2781   */\n    tag_292:\n        /* \"#utility.yul\":2674:2684   */\n      0x00\n        /* \"#utility.yul\":2709:2775   */\n      tag_294\n        /* \"#utility.yul\":2771:2774   */\n      dup4\n        /* \"#utility.yul\":2763:2769   */\n      dup4\n        /* \"#utility.yul\":2709:2775   */\n      tag_295\n      jump\t// in\n    tag_294:\n        /* \"#utility.yul\":2695:2775   */\n      swap1\n      pop\n        /* \"#utility.yul\":2585:2781   */\n      swap3\n      swap2\n      pop\n      pop\n      jump\t// out\n        /* \"#utility.yul\":2787:2905   */\n    tag_296:\n        /* \"#utility.yul\":2874:2898   */\n      tag_298\n        /* \"#utility.yul\":2892:2897   */\n      dup2\n        /* \"#utility.yul\":2874:2898   */\n      tag_299\n      jump\t// in\n    tag_298:\n        /* \"#utility.yul\":2869:2872   */\n      dup3\n        /* \"#utility.yul\":2862:2899   */\n      mstore\n        /* \"#utility.yul\":2787:2905   */\n      pop\n      pop\n      jump\t// out\n        /* \"#utility.yul\":2939:3930   */\n    tag_300:\n        /* \"#utility.yul\":3078:3081   */\n      0x00\n        /* \"#utility.yul\":3107:3171   */\n      tag_302\n        /* \"#utility.yul\":3165:3170   */\n      dup3\n        /* \"#utility.yul\":3107:3171   */\n      tag_303\n      jump\t// in\n    tag_302:\n        /* \"#utility.yul\":3187:3283   */\n      tag_304\n        /* \"#utility.yul\":3276:3282   */\n      dup2\n        /* \"#utility.yul\":3271:3274   */\n      dup6\n        /* \"#utility.yul\":3187:3283   */\n      tag_305\n      jump\t// in\n    tag_304:\n        /* \"#utility.yul\":3180:3283   */\n      swap4\n      pop\n        /* \"#utility.yul\":3309:3312   */\n      dup4\n        /* \"#utility.yul\":3354:3358   */\n      0x20\n        /* \"#utility.yul\":3346:3352   */\n      dup3\n        /* \"#utility.yul\":3342:3359   */\n      mul\n        /* \"#utility.yul\":3337:3340   */\n      dup6\n        /* \"#utility.yul\":3333:3360   */\n      add\n        /* \"#utility.yul\":3384:3450   */\n      tag_306\n        /* \"#utility.yul\":3444:3449   */\n      dup6\n        /* \"#utility.yul\":3384:3450   */\n      tag_307\n      jump\t// in\n    tag_306:\n        /* \"#utility.yul\":3473:3480   */\n      dup1\n        /* \"#utility.yul\":3504:3505   */\n      0x00\n        /* \"#utility.yul\":3489:3885   */\n    tag_308:\n        /* \"#utility.yul\":3514:3520   */\n      dup6\n        /* \"#utility.yul\":3511:3512   */\n      dup2\n        /* \"#utility.yul\":3508:3521   */\n      lt\n        /* \"#utility.yul\":3489:3885   */\n      iszero\n      tag_310\n      jumpi\n        /* \"#utility.yul\":3585:3594   */\n      dup5\n        /* \"#utility.yul\":3579:3583   */\n      dup5\n        /* \"#utility.yul\":3575:3595   */\n      sub\n        /* \"#utility.yul\":3570:3573   */\n      dup10\n        /* \"#utility.yul\":3563:3596   */\n      mstore\n        /* \"#utility.yul\":3636:3642   */\n      dup2\n        /* \"#utility.yul\":3630:3643   */\n      mload\n        /* \"#utility.yul\":3664:3748   */\n      tag_311\n        /* \"#utility.yul\":3743:3747   */\n      dup6\n        /* \"#utility.yul\":3728:3741   */\n      dup3\n        /* \"#utility.yul\":3664:3748   */\n      tag_292\n      jump\t// in\n    tag_311:\n        /* \"#utility.yul\":3656:3748   */\n      swap5\n      pop\n        /* \"#utility.yul\":3771:3841   */\n      tag_312\n        /* \"#utility.yul\":3834:3840   */\n      dup4\n        /* \"#utility.yul\":3771:3841   */\n      tag_313\n      jump\t// in\n    tag_312:\n        /* \"#utility.yul\":3761:3841   */\n      swap3\n      pop\n        /* \"#utility.yul\":3870:3874   */\n      0x20\n        /* \"#utility.yul\":3865:3868   */\n      dup11\n        /* \"#utility.yul\":3861:3875   */\n      add\n        /* \"#utility.yul\":3854:3875   */\n      swap10\n      pop\n        /* \"#utility.yul\":3549:3885   */\n      pop\n        /* \"#utility.yul\":3536:3537   */\n      0x01\n        /* \"#utility.yul\":3533:3534   */\n      dup2\n        /* \"#utility.yul\":3529:3538   */\n      add\n        /* \"#utility.yul\":3524:3538   */\n      swap1\n      pop\n        /* \"#utility.yul\":3489:3885   */\n      jump(tag_308)\n    tag_310:\n        /* \"#utility.yul\":3493:3507   */\n      pop\n        /* \"#utility.yul\":3901:3905   */\n      dup3\n        /* \"#utility.yul\":3894:3905   */\n      swap8\n      pop\n        /* \"#utility.yul\":3921:3924   */\n      dup8\n        /* \"#utility.yul\":3914:3924   */\n      swap6\n      pop\n        /* \"#utility.yul\":3083:3930   */\n      pop\n      pop\n      pop\n      pop\n      pop\n        /* \"#utility.yul\":2939:3930   */\n      swap3\n      swap2\n      pop\n      pop\n      jump\t// out\n        /* \"#utility.yul\":3936:4280   */\n    tag_295:\n        /* \"#utility.yul\":4014:4017   */\n      0x00\n        /* \"#utility.yul\":4042:4081   */\n      tag_315\n        /* \"#utility.yul\":4075:4080   */\n      dup3\n        /* \"#utility.yul\":4042:4081   */\n      tag_316\n      jump\t// in\n    tag_315:\n        /* \"#utility.yul\":4097:4158   */\n      tag_317\n        /* \"#utility.yul\":4151:4157   */\n      dup2\n        /* \"#utility.yul\":4146:4149   */\n      dup6\n        /* \"#utility.yul\":4097:4158   */\n      tag_318\n      jump\t// in\n    tag_317:\n        /* \"#utility.yul\":4090:4158   */\n      swap4\n      pop\n        /* \"#utility.yul\":4167:4219   */\n      tag_319\n        /* \"#utility.yul\":4212:4218   */\n      dup2\n        /* \"#utility.yul\":4207:4210   */\n      dup6\n        /* \"#utility.yul\":4200:4204   */\n      0x20\n        /* \"#utility.yul\":4193:4198   */\n      dup7\n        /* \"#utility.yul\":4189:4205   */\n      add\n        /* \"#utility.yul\":4167:4219   */\n      tag_320\n      jump\t// in\n    tag_319:\n        /* \"#utility.yul\":4244:4273   */\n      tag_321\n        /* \"#utility.yul\":4266:4272   */\n      dup2\n        /* \"#utility.yul\":4244:4273   */\n      tag_322\n      jump\t// in\n    tag_321:\n        /* \"#utility.yul\":4239:4242   */\n      dup5\n        /* \"#utility.yul\":4235:4274   */\n      add\n        /* \"#utility.yul\":4228:4274   */\n      swap2\n      pop\n        /* \"#utility.yul\":4018:4280   */\n      pop\n        /* \"#utility.yul\":3936:4280   */\n      swap3\n      swap2\n      pop\n      pop\n      jump\t// out\n        /* \"#utility.yul\":4286:4650   */\n    tag_323:\n        /* \"#utility.yul\":4374:4377   */\n      0x00\n        /* \"#utility.yul\":4402:4441   */\n      tag_325\n        /* \"#utility.yul\":4435:4440   */\n      dup3\n        /* \"#utility.yul\":4402:4441   */\n      tag_316\n      jump\t// in\n    tag_325:\n        /* \"#utility.yul\":4457:4528   */\n      tag_326\n        /* \"#utility.yul\":4521:4527   */\n      dup2\n        /* \"#utility.yul\":4516:4519   */\n      dup6\n        /* \"#utility.yul\":4457:4528   */\n      tag_327\n      jump\t// in\n    tag_326:\n        /* \"#utility.yul\":4450:4528   */\n      swap4\n      pop\n        /* \"#utility.yul\":4537:4589   */\n      tag_328\n        /* \"#utility.yul\":4582:4588   */\n      dup2\n        /* \"#utility.yul\":4577:4580   */\n      dup6\n        /* \"#utility.yul\":4570:4574   */\n      0x20\n        /* \"#utility.yul\":4563:4568   */\n      dup7\n        /* \"#utility.yul\":4559:4575   */\n      add\n        /* \"#utility.yul\":4537:4589   */\n      tag_320\n      jump\t// in\n    tag_328:\n        /* \"#utility.yul\":4614:4643   */\n      tag_329\n        /* \"#utility.yul\":4636:4642   */\n      dup2\n        /* \"#utility.yul\":4614:4643   */\n      tag_322\n      jump\t// in\n    tag_329:\n        /* \"#utility.yul\":4609:4612   */\n      dup5\n        /* \"#utility.yul\":4605:4644   */\n      add\n        /* \"#utility.yul\":4598:4644   */\n      swap2\n      pop\n        /* \"#utility.yul\":4378:4650   */\n      pop\n        /* \"#utility.yul\":4286:4650   */\n      swap3\n      swap2\n      pop\n      pop\n      jump\t// out\n        /* \"#utility.yul\":4656:5033   */\n    tag_330:\n        /* \"#utility.yul\":4762:4765   */\n      0x00\n        /* \"#utility.yul\":4790:4829   */\n      tag_332\n        /* \"#utility.yul\":4823:4828   */\n      dup3\n        /* \"#utility.yul\":4790:4829   */\n      tag_316\n      jump\t// in\n    tag_332:\n        /* \"#utility.yul\":4845:4934   */\n      tag_333\n        /* \"#utility.yul\":4927:4933   */\n      dup2\n        /* \"#utility.yul\":4922:4925   */\n      dup6\n        /* \"#utility.yul\":4845:4934   */\n      tag_334\n      jump\t// in\n    tag_333:\n        /* \"#utility.yul\":4838:4934   */\n      swap4\n      pop\n        /* \"#utility.yul\":4943:4995   */\n      tag_335\n        /* \"#utility.yul\":4988:4994   */\n      dup2\n        /* \"#utility.yul\":4983:4986   */\n      dup6\n        /* \"#utility.yul\":4976:4980   */\n      0x20\n        /* \"#utility.yul\":4969:4974   */\n      dup7\n        /* \"#utility.yul\":4965:4981   */\n      add\n        /* \"#utility.yul\":4943:4995   */\n      tag_320\n      jump\t// in\n    tag_335:\n        /* \"#utility.yul\":5020:5026   */\n      dup1\n        /* \"#utility.yul\":5015:5018   */\n      dup5\n        /* \"#utility.yul\":5011:5027   */\n      add\n        /* \"#utility.yul\":5004:5027   */\n      swap2\n      pop\n        /* \"#utility.yul\":4766:5033   */\n      pop\n        /* \"#utility.yul\":4656:5033   */\n      swap3\n      swap2\n      pop\n      pop\n      jump\t// out\n        /* \"#utility.yul\":5039:5405   */\n    tag_336:\n        /* \"#utility.yul\":5181:5184   */\n      0x00\n        /* \"#utility.yul\":5202:5269   */\n      tag_338\n        /* \"#utility.yul\":5266:5268   */\n      0x25\n        /* \"#utility.yul\":5261:5264   */\n      dup4\n        /* \"#utility.yul\":5202:5269   */\n      tag_327\n      jump\t// in\n    tag_338:\n        /* \"#utility.yul\":5195:5269   */\n      swap2\n      pop\n        /* \"#utility.yul\":5278:5371   */\n      tag_339\n        /* \"#utility.yul\":5367:5370   */\n      dup3\n        /* \"#utility.yul\":5278:5371   */\n      tag_340\n      jump\t// in\n    tag_339:\n        /* \"#utility.yul\":5396:5398   */\n      0x40\n        /* \"#utility.yul\":5391:5394   */\n      dup3\n        /* \"#utility.yul\":5387:5399   */\n      add\n        /* \"#utility.yul\":5380:5399   */\n      swap1\n      pop\n        /* \"#utility.yul\":5039:5405   */\n      swap2\n      swap1\n      pop\n      jump\t// out\n        /* \"#utility.yul\":5411:5777   */\n    tag_341:\n        /* \"#utility.yul\":5553:5556   */\n      0x00\n        /* \"#utility.yul\":5574:5641   */\n      tag_343\n        /* \"#utility.yul\":5638:5640   */\n      0x21\n        /* \"#utility.yul\":5633:5636   */\n      dup4\n        /* \"#utility.yul\":5574:5641   */\n      tag_327\n      jump\t// in\n    tag_343:\n        /* \"#utility.yul\":5567:5641   */\n      swap2\n      pop\n        /* \"#utility.yul\":5650:5743   */\n      tag_344\n        /* \"#utility.yul\":5739:5742   */\n      dup3\n        /* \"#utility.yul\":5650:5743   */\n      tag_345\n      jump\t// in\n    tag_344:\n        /* \"#utility.yul\":5768:5770   */\n      0x40\n        /* \"#utility.yul\":5763:5766   */\n      dup3\n        /* \"#utility.yul\":5759:5771   */\n      add\n        /* \"#utility.yul\":5752:5771   */\n      swap1\n      pop\n        /* \"#utility.yul\":5411:5777   */\n      swap2\n      swap1\n      pop\n      jump\t// out\n        /* \"#utility.yul\":5783:6149   */\n    tag_346:\n        /* \"#utility.yul\":5925:5928   */\n      0x00\n        /* \"#utility.yul\":5946:6013   */\n      tag_348\n        /* \"#utility.yul\":6010:6012   */\n      0x2f\n        /* \"#utility.yul\":6005:6008   */\n      dup4\n        /* \"#utility.yul\":5946:6013   */\n      tag_327\n      jump\t// in\n    tag_348:\n        /* \"#utility.yul\":5939:6013   */\n      swap2\n      pop\n        /* \"#utility.yul\":6022:6115   */\n      tag_349\n        /* \"#utility.yul\":6111:6114   */\n      dup3\n        /* \"#utility.yul\":6022:6115   */\n      tag_350\n      jump\t// in\n    tag_349:\n        /* \"#utility.yul\":6140:6142   */\n      0x40\n        /* \"#utility.yul\":6135:6138   */\n      dup3\n        /* \"#utility.yul\":6131:6143   */\n      add\n        /* \"#utility.yul\":6124:6143   */\n      swap1\n      pop\n        /* \"#utility.yul\":5783:6149   */\n      swap2\n      swap1\n      pop\n      jump\t// out\n        /* \"#utility.yul\":6155:6521   */\n    tag_351:\n        /* \"#utility.yul\":6297:6300   */\n      0x00\n        /* \"#utility.yul\":6318:6385   */\n      tag_353\n        /* \"#utility.yul\":6382:6384   */\n      0x2f\n        /* \"#utility.yul\":6377:6380   */\n      dup4\n        /* \"#utility.yul\":6318:6385   */\n      tag_327\n      jump\t// in\n    tag_353:\n        /* \"#utility.yul\":6311:6385   */\n      swap2\n      pop\n        /* \"#utility.yul\":6394:6487   */\n      tag_354\n        /* \"#utility.yul\":6483:6486   */\n      dup3\n        /* \"#utility.yul\":6394:6487   */\n      tag_355\n      jump\t// in\n    tag_354:\n        /* \"#utility.yul\":6512:6514   */\n      0x40\n        /* \"#utility.yul\":6507:6510   */\n      dup3\n        /* \"#utility.yul\":6503:6515   */\n      add\n        /* \"#utility.yul\":6496:6515   */\n      swap1\n      pop\n        /* \"#utility.yul\":6155:6521   */\n      swap2\n      swap1\n      pop\n      jump\t// out\n        /* \"#utility.yul\":6527:6927   */\n    tag_356:\n        /* \"#utility.yul\":6687:6690   */\n      0x00\n        /* \"#utility.yul\":6708:6792   */\n      tag_358\n        /* \"#utility.yul\":6790:6791   */\n      0x01\n        /* \"#utility.yul\":6785:6788   */\n      dup4\n        /* \"#utility.yul\":6708:6792   */\n      tag_334\n      jump\t// in\n    tag_358:\n        /* \"#utility.yul\":6701:6792   */\n      swap2\n      pop\n        /* \"#utility.yul\":6801:6894   */\n      tag_359\n        /* \"#utility.yul\":6890:6893   */\n      dup3\n        /* \"#utility.yul\":6801:6894   */\n      tag_360\n      jump\t// in\n    tag_359:\n        /* \"#utility.yul\":6919:6920   */\n      0x01\n        /* \"#utility.yul\":6914:6917   */\n      dup3\n        /* \"#utility.yul\":6910:6921   */\n      add\n        /* \"#utility.yul\":6903:6921   */\n      swap1\n      pop\n        /* \"#utility.yul\":6527:6927   */\n      swap2\n      swap1\n      pop\n      jump\t// out\n        /* \"#utility.yul\":6933:7299   */\n    tag_361:\n        /* \"#utility.yul\":7075:7078   */\n      0x00\n        /* \"#utility.yul\":7096:7163   */\n      tag_363\n        /* \"#utility.yul\":7160:7162   */\n      0x14\n        /* \"#utility.yul\":7155:7158   */\n      dup4\n        /* \"#utility.yul\":7096:7163   */\n      tag_327\n      jump\t// in\n    tag_363:\n        /* \"#utility.yul\":7089:7163   */\n      swap2\n      pop\n        /* \"#utility.yul\":7172:7265   */\n      tag_364\n        /* \"#utility.yul\":7261:7264   */\n      dup3\n        /* \"#utility.yul\":7172:7265   */\n      tag_365\n      jump\t// in\n    tag_364:\n        /* \"#utility.yul\":7290:7292   */\n      0x20\n        /* \"#utility.yul\":7285:7288   */\n      dup3\n        /* \"#utility.yul\":7281:7293   */\n      add\n        /* \"#utility.yul\":7274:7293   */\n      swap1\n      pop\n        /* \"#utility.yul\":6933:7299   */\n      swap2\n      swap1\n      pop\n      jump\t// out\n        /* \"#utility.yul\":7305:7423   */\n    tag_366:\n        /* \"#utility.yul\":7392:7416   */\n      tag_368\n        /* \"#utility.yul\":7410:7415   */\n      dup2\n        /* \"#utility.yul\":7392:7416   */\n      tag_369\n      jump\t// in\n    tag_368:\n        /* \"#utility.yul\":7387:7390   */\n      dup3\n        /* \"#utility.yul\":7380:7417   */\n      mstore\n        /* \"#utility.yul\":7305:7423   */\n      pop\n      pop\n      jump\t// out\n        /* \"#utility.yul\":7429:8130   */\n    tag_210:\n        /* \"#utility.yul\":7710:7713   */\n      0x00\n        /* \"#utility.yul\":7732:7827   */\n      tag_371\n        /* \"#utility.yul\":7823:7826   */\n      dup3\n        /* \"#utility.yul\":7814:7820   */\n      dup6\n        /* \"#utility.yul\":7732:7827   */\n      tag_330\n      jump\t// in\n    tag_371:\n        /* \"#utility.yul\":7725:7827   */\n      swap2\n      pop\n        /* \"#utility.yul\":7844:7992   */\n      tag_372\n        /* \"#utility.yul\":7988:7991   */\n      dup3\n        /* \"#utility.yul\":7844:7992   */\n      tag_356\n      jump\t// in\n    tag_372:\n        /* \"#utility.yul\":7837:7992   */\n      swap2\n      pop\n        /* \"#utility.yul\":8009:8104   */\n      tag_373\n        /* \"#utility.yul\":8100:8103   */\n      dup3\n        /* \"#utility.yul\":8091:8097   */\n      dup5\n        /* \"#utility.yul\":8009:8104   */\n      tag_330\n      jump\t// in\n    tag_373:\n        /* \"#utility.yul\":8002:8104   */\n      swap2\n      pop\n        /* \"#utility.yul\":8121:8124   */\n      dup2\n        /* \"#utility.yul\":8114:8124   */\n      swap1\n      pop\n        /* \"#utility.yul\":7429:8130   */\n      swap4\n      swap3\n      pop\n      pop\n      pop\n      jump\t// out\n        /* \"#utility.yul\":8136:8549   */\n    tag_11:\n        /* \"#utility.yul\":8299:8303   */\n      0x00\n        /* \"#utility.yul\":8337:8339   */\n      0x20\n        /* \"#utility.yul\":8326:8335   */\n      dup3\n        /* \"#utility.yul\":8322:8340   */\n      add\n        /* \"#utility.yul\":8314:8340   */\n      swap1\n      pop\n        /* \"#utility.yul\":8386:8395   */\n      dup2\n        /* \"#utility.yul\":8380:8384   */\n      dup2\n        /* \"#utility.yul\":8376:8396   */\n      sub\n        /* \"#utility.yul\":8372:8373   */\n      0x00\n        /* \"#utility.yul\":8361:8370   */\n      dup4\n        /* \"#utility.yul\":8357:8374   */\n      add\n        /* \"#utility.yul\":8350:8397   */\n      mstore\n        /* \"#utility.yul\":8414:8542   */\n      tag_375\n        /* \"#utility.yul\":8537:8541   */\n      dup2\n        /* \"#utility.yul\":8528:8534   */\n      dup5\n        /* \"#utility.yul\":8414:8542   */\n      tag_300\n      jump\t// in\n    tag_375:\n        /* \"#utility.yul\":8406:8542   */\n      swap1\n      pop\n        /* \"#utility.yul\":8136:8549   */\n      swap3\n      swap2\n      pop\n      pop\n      jump\t// out\n        /* \"#utility.yul\":8555:8868   */\n    tag_202:\n        /* \"#utility.yul\":8668:8672   */\n      0x00\n        /* \"#utility.yul\":8706:8708   */\n      0x20\n        /* \"#utility.yul\":8695:8704   */\n      dup3\n        /* \"#utility.yul\":8691:8709   */\n      add\n        /* \"#utility.yul\":8683:8709   */\n      swap1\n      pop\n        /* \"#utility.yul\":8755:8764   */\n      dup2\n        /* \"#utility.yul\":8749:8753   */\n      dup2\n        /* \"#utility.yul\":8745:8765   */\n      sub\n        /* \"#utility.yul\":8741:8742   */\n      0x00\n        /* \"#utility.yul\":8730:8739   */\n      dup4\n        /* \"#utility.yul\":8726:8743   */\n      add\n        /* \"#utility.yul\":8719:8766   */\n      mstore\n        /* \"#utility.yul\":8783:8861   */\n      tag_377\n        /* \"#utility.yul\":8856:8860   */\n      dup2\n        /* \"#utility.yul\":8847:8853   */\n      dup5\n        /* \"#utility.yul\":8783:8861   */\n      tag_323\n      jump\t// in\n    tag_377:\n        /* \"#utility.yul\":8775:8861   */\n      swap1\n      pop\n        /* \"#utility.yul\":8555:8868   */\n      swap3\n      swap2\n      pop\n      pop\n      jump\t// out\n        /* \"#utility.yul\":8874:9297   */\n    tag_17:\n        /* \"#utility.yul\":9015:9019   */\n      0x00\n        /* \"#utility.yul\":9053:9055   */\n      0x40\n        /* \"#utility.yul\":9042:9051   */\n      dup3\n        /* \"#utility.yul\":9038:9056   */\n      add\n        /* \"#utility.yul\":9030:9056   */\n      swap1\n      pop\n        /* \"#utility.yul\":9102:9111   */\n      dup2\n        /* \"#utility.yul\":9096:9100   */\n      dup2\n        /* \"#utility.yul\":9092:9112   */\n      sub\n        /* \"#utility.yul\":9088:9089   */\n      0x00\n        /* \"#utility.yul\":9077:9086   */\n      dup4\n        /* \"#utility.yul\":9073:9090   */\n      add\n        /* \"#utility.yul\":9066:9113   */\n      mstore\n        /* \"#utility.yul\":9130:9208   */\n      tag_379\n        /* \"#utility.yul\":9203:9207   */\n      dup2\n        /* \"#utility.yul\":9194:9200   */\n      dup6\n        /* \"#utility.yul\":9130:9208   */\n      tag_323\n      jump\t// in\n    tag_379:\n        /* \"#utility.yul\":9122:9208   */\n      swap1\n      pop\n        /* \"#utility.yul\":9218:9290   */\n      tag_380\n        /* \"#utility.yul\":9286:9288   */\n      0x20\n        /* \"#utility.yul\":9275:9284   */\n      dup4\n        /* \"#utility.yul\":9271:9289   */\n      add\n        /* \"#utility.yul\":9262:9268   */\n      dup5\n        /* \"#utility.yul\":9218:9290   */\n      tag_366\n      jump\t// in\n    tag_380:\n        /* \"#utility.yul\":8874:9297   */\n      swap4\n      swap3\n      pop\n      pop\n      pop\n      jump\t// out\n        /* \"#utility.yul\":9303:9836   */\n    tag_21:\n        /* \"#utility.yul\":9472:9476   */\n      0x00\n        /* \"#utility.yul\":9510:9512   */\n      0x60\n        /* \"#utility.yul\":9499:9508   */\n      dup3\n        /* \"#utility.yul\":9495:9513   */\n      add\n        /* \"#utility.yul\":9487:9513   */\n      swap1\n      pop\n        /* \"#utility.yul\":9559:9568   */\n      dup2\n        /* \"#utility.yul\":9553:9557   */\n      dup2\n        /* \"#utility.yul\":9549:9569   */\n      sub\n        /* \"#utility.yul\":9545:9546   */\n      0x00\n        /* \"#utility.yul\":9534:9543   */\n      dup4\n        /* \"#utility.yul\":9530:9547   */\n      add\n        /* \"#utility.yul\":9523:9570   */\n      mstore\n        /* \"#utility.yul\":9587:9665   */\n      tag_382\n        /* \"#utility.yul\":9660:9664   */\n      dup2\n        /* \"#utility.yul\":9651:9657   */\n      dup7\n        /* \"#utility.yul\":9587:9665   */\n      tag_323\n      jump\t// in\n    tag_382:\n        /* \"#utility.yul\":9579:9665   */\n      swap1\n      pop\n        /* \"#utility.yul\":9675:9747   */\n      tag_383\n        /* \"#utility.yul\":9743:9745   */\n      0x20\n        /* \"#utility.yul\":9732:9741   */\n      dup4\n        /* \"#utility.yul\":9728:9746   */\n      add\n        /* \"#utility.yul\":9719:9725   */\n      dup6\n        /* \"#utility.yul\":9675:9747   */\n      tag_366\n      jump\t// in\n    tag_383:\n        /* \"#utility.yul\":9757:9829   */\n      tag_384\n        /* \"#utility.yul\":9825:9827   */\n      0x40\n        /* \"#utility.yul\":9814:9823   */\n      dup4\n        /* \"#utility.yul\":9810:9828   */\n      add\n        /* \"#utility.yul\":9801:9807   */\n      dup5\n        /* \"#utility.yul\":9757:9829   */\n      tag_296\n      jump\t// in\n    tag_384:\n        /* \"#utility.yul\":9303:9836   */\n      swap5\n      swap4\n      pop\n      pop\n      pop\n      pop\n      jump\t// out\n        /* \"#utility.yul\":9842:10261   */\n    tag_193:\n        /* \"#utility.yul\":10008:10012   */\n      0x00\n        /* \"#utility.yul\":10046:10048   */\n      0x20\n        /* \"#utility.yul\":10035:10044   */\n      dup3\n        /* \"#utility.yul\":10031:10049   */\n      add\n        /* \"#utility.yul\":10023:10049   */\n      swap1\n      pop\n        /* \"#utility.yul\":10095:10104   */\n      dup2\n        /* \"#utility.yul\":10089:10093   */\n      dup2\n        /* \"#utility.yul\":10085:10105   */\n      sub\n        /* \"#utility.yul\":10081:10082   */\n      0x00\n        /* \"#utility.yul\":10070:10079   */\n      dup4\n        /* \"#utility.yul\":10066:10083   */\n      add\n        /* \"#utility.yul\":10059:10106   */\n      mstore\n        /* \"#utility.yul\":10123:10254   */\n      tag_386\n        /* \"#utility.yul\":10249:10253   */\n      dup2\n        /* \"#utility.yul\":10123:10254   */\n      tag_336\n      jump\t// in\n    tag_386:\n        /* \"#utility.yul\":10115:10254   */\n      swap1\n      pop\n        /* \"#utility.yul\":9842:10261   */\n      swap2\n      swap1\n      pop\n      jump\t// out\n        /* \"#utility.yul\":10267:10686   */\n    tag_207:\n        /* \"#utility.yul\":10433:10437   */\n      0x00\n        /* \"#utility.yul\":10471:10473   */\n      0x20\n        /* \"#utility.yul\":10460:10469   */\n      dup3\n        /* \"#utility.yul\":10456:10474   */\n      add\n        /* \"#utility.yul\":10448:10474   */\n      swap1\n      pop\n        /* \"#utility.yul\":10520:10529   */\n      dup2\n        /* \"#utility.yul\":10514:10518   */\n      dup2\n        /* \"#utility.yul\":10510:10530   */\n      sub\n        /* \"#utility.yul\":10506:10507   */\n      0x00\n        /* \"#utility.yul\":10495:10504   */\n      dup4\n        /* \"#utility.yul\":10491:10508   */\n      add\n        /* \"#utility.yul\":10484:10531   */\n      mstore\n        /* \"#utility.yul\":10548:10679   */\n      tag_388\n        /* \"#utility.yul\":10674:10678   */\n      dup2\n        /* \"#utility.yul\":10548:10679   */\n      tag_341\n      jump\t// in\n    tag_388:\n        /* \"#utility.yul\":10540:10679   */\n      swap1\n      pop\n        /* \"#utility.yul\":10267:10686   */\n      swap2\n      swap1\n      pop\n      jump\t// out\n        /* \"#utility.yul\":10692:11111   */\n    tag_183:\n        /* \"#utility.yul\":10858:10862   */\n      0x00\n        /* \"#utility.yul\":10896:10898   */\n      0x20\n        /* \"#utility.yul\":10885:10894   */\n      dup3\n        /* \"#utility.yul\":10881:10899   */\n      add\n        /* \"#utility.yul\":10873:10899   */\n      swap1\n      pop\n        /* \"#utility.yul\":10945:10954   */\n      dup2\n        /* \"#utility.yul\":10939:10943   */\n      dup2\n        /* \"#utility.yul\":10935:10955   */\n      sub\n        /* \"#utility.yul\":10931:10932   */\n      0x00\n        /* \"#utility.yul\":10920:10929   */\n      dup4\n        /* \"#utility.yul\":10916:10933   */\n      add\n        /* \"#utility.yul\":10909:10956   */\n      mstore\n        /* \"#utility.yul\":10973:11104   */\n      tag_390\n        /* \"#utility.yul\":11099:11103   */\n      dup2\n        /* \"#utility.yul\":10973:11104   */\n      tag_346\n      jump\t// in\n    tag_390:\n        /* \"#utility.yul\":10965:11104   */\n      swap1\n      pop\n        /* \"#utility.yul\":10692:11111   */\n      swap2\n      swap1\n      pop\n      jump\t// out\n        /* \"#utility.yul\":11117:11536   */\n    tag_189:\n        /* \"#utility.yul\":11283:11287   */\n      0x00\n        /* \"#utility.yul\":11321:11323   */\n      0x20\n        /* \"#utility.yul\":11310:11319   */\n      dup3\n        /* \"#utility.yul\":11306:11324   */\n      add\n        /* \"#utility.yul\":11298:11324   */\n      swap1\n      pop\n        /* \"#utility.yul\":11370:11379   */\n      dup2\n        /* \"#utility.yul\":11364:11368   */\n      dup2\n        /* \"#utility.yul\":11360:11380   */\n      sub\n        /* \"#utility.yul\":11356:11357   */\n      0x00\n        /* \"#utility.yul\":11345:11354   */\n      dup4\n        /* \"#utility.yul\":11341:11358   */\n      add\n        /* \"#utility.yul\":11334:11381   */\n      mstore\n        /* \"#utility.yul\":11398:11529   */\n      tag_392\n        /* \"#utility.yul\":11524:11528   */\n      dup2\n        /* \"#utility.yul\":11398:11529   */\n      tag_351\n      jump\t// in\n    tag_392:\n        /* \"#utility.yul\":11390:11529   */\n      swap1\n      pop\n        /* \"#utility.yul\":11117:11536   */\n      swap2\n      swap1\n      pop\n      jump\t// out\n        /* \"#utility.yul\":11542:11961   */\n    tag_199:\n        /* \"#utility.yul\":11708:11712   */\n      0x00\n        /* \"#utility.yul\":11746:11748   */\n      0x20\n        /* \"#utility.yul\":11735:11744   */\n      dup3\n        /* \"#utility.yul\":11731:11749   */\n      add\n        /* \"#utility.yul\":11723:11749   */\n      swap1\n      pop\n        /* \"#utility.yul\":11795:11804   */\n      dup2\n        /* \"#utility.yul\":11789:11793   */\n      dup2\n        /* \"#utility.yul\":11785:11805   */\n      sub\n        /* \"#utility.yul\":11781:11782   */\n      0x00\n        /* \"#utility.yul\":11770:11779   */\n      dup4\n        /* \"#utility.yul\":11766:11783   */\n      add\n        /* \"#utility.yul\":11759:11806   */\n      mstore\n        /* \"#utility.yul\":11823:11954   */\n      tag_394\n        /* \"#utility.yul\":11949:11953   */\n      dup2\n        /* \"#utility.yul\":11823:11954   */\n      tag_361\n      jump\t// in\n    tag_394:\n        /* \"#utility.yul\":11815:11954   */\n      swap1\n      pop\n        /* \"#utility.yul\":11542:11961   */\n      swap2\n      swap1\n      pop\n      jump\t// out\n        /* \"#utility.yul\":11967:12096   */\n    tag_253:\n        /* \"#utility.yul\":12001:12007   */\n      0x00\n        /* \"#utility.yul\":12028:12048   */\n      tag_396\n      tag_397\n      jump\t// in\n    tag_396:\n        /* \"#utility.yul\":12018:12048   */\n      swap1\n      pop\n        /* \"#utility.yul\":12057:12090   */\n      tag_398\n        /* \"#utility.yul\":12085:12089   */\n      dup3\n        /* \"#utility.yul\":12077:12083   */\n      dup3\n        /* \"#utility.yul\":12057:12090   */\n      tag_399\n      jump\t// in\n    tag_398:\n        /* \"#utility.yul\":11967:12096   */\n      swap2\n      swap1\n      pop\n      jump\t// out\n        /* \"#utility.yul\":12102:12177   */\n    tag_397:\n        /* \"#utility.yul\":12135:12141   */\n      0x00\n        /* \"#utility.yul\":12168:12170   */\n      0x40\n        /* \"#utility.yul\":12162:12171   */\n      mload\n        /* \"#utility.yul\":12152:12171   */\n      swap1\n      pop\n        /* \"#utility.yul\":12102:12177   */\n      swap1\n      jump\t// out\n        /* \"#utility.yul\":12183:12491   */\n    tag_252:\n        /* \"#utility.yul\":12245:12249   */\n      0x00\n        /* \"#utility.yul\":12335:12353   */\n      0xffffffffffffffff\n        /* \"#utility.yul\":12327:12333   */\n      dup3\n        /* \"#utility.yul\":12324:12354   */\n      gt\n        /* \"#utility.yul\":12321:12377   */\n      iszero\n      tag_402\n      jumpi\n        /* \"#utility.yul\":12357:12375   */\n      tag_403\n      tag_33\n      jump\t// in\n    tag_403:\n        /* \"#utility.yul\":12321:12377   */\n    tag_402:\n        /* \"#utility.yul\":12395:12424   */\n      tag_404\n        /* \"#utility.yul\":12417:12423   */\n      dup3\n        /* \"#utility.yul\":12395:12424   */\n      tag_322\n      jump\t// in\n    tag_404:\n        /* \"#utility.yul\":12387:12424   */\n      swap1\n      pop\n        /* \"#utility.yul\":12479:12483   */\n      0x20\n        /* \"#utility.yul\":12473:12477   */\n      dup2\n        /* \"#utility.yul\":12469:12484   */\n      add\n        /* \"#utility.yul\":12461:12484   */\n      swap1\n      pop\n        /* \"#utility.yul\":12183:12491   */\n      swap2\n      swap1\n      pop\n      jump\t// out\n        /* \"#utility.yul\":12497:12639   */\n    tag_307:\n        /* \"#utility.yul\":12574:12578   */\n      0x00\n        /* \"#utility.yul\":12597:12600   */\n      dup2\n        /* \"#utility.yul\":12589:12600   */\n      swap1\n      pop\n        /* \"#utility.yul\":12627:12631   */\n      0x20\n        /* \"#utility.yul\":12622:12625   */\n      dup3\n        /* \"#utility.yul\":12618:12632   */\n      add\n        /* \"#utility.yul\":12610:12632   */\n      swap1\n      pop\n        /* \"#utility.yul\":12497:12639   */\n      swap2\n      swap1\n      pop\n      jump\t// out\n        /* \"#utility.yul\":12645:12769   */\n    tag_303:\n        /* \"#utility.yul\":12722:12728   */\n      0x00\n        /* \"#utility.yul\":12756:12761   */\n      dup2\n        /* \"#utility.yul\":12750:12762   */\n      mload\n        /* \"#utility.yul\":12740:12762   */\n      swap1\n      pop\n        /* \"#utility.yul\":12645:12769   */\n      swap2\n      swap1\n      pop\n      jump\t// out\n        /* \"#utility.yul\":12775:12874   */\n    tag_316:\n        /* \"#utility.yul\":12827:12833   */\n      0x00\n        /* \"#utility.yul\":12861:12866   */\n      dup2\n        /* \"#utility.yul\":12855:12867   */\n      mload\n        /* \"#utility.yul\":12845:12867   */\n      swap1\n      pop\n        /* \"#utility.yul\":12775:12874   */\n      swap2\n      swap1\n      pop\n      jump\t// out\n        /* \"#utility.yul\":12880:13003   */\n    tag_313:\n        /* \"#utility.yul\":12960:12964   */\n      0x00\n        /* \"#utility.yul\":12992:12996   */\n      0x20\n        /* \"#utility.yul\":12987:12990   */\n      dup3\n        /* \"#utility.yul\":12983:12997   */\n      add\n        /* \"#utility.yul\":12975:12997   */\n      swap1\n      pop\n        /* \"#utility.yul\":12880:13003   */\n      swap2\n      swap1\n      pop\n      jump\t// out\n        /* \"#utility.yul\":13009:13203   */\n    tag_305:\n        /* \"#utility.yul\":13118:13129   */\n      0x00\n        /* \"#utility.yul\":13152:13158   */\n      dup3\n        /* \"#utility.yul\":13147:13150   */\n      dup3\n        /* \"#utility.yul\":13140:13159   */\n      mstore\n        /* \"#utility.yul\":13192:13196   */\n      0x20\n        /* \"#utility.yul\":13187:13190   */\n      dup3\n        /* \"#utility.yul\":13183:13197   */\n      add\n        /* \"#utility.yul\":13168:13197   */\n      swap1\n      pop\n        /* \"#utility.yul\":13009:13203   */\n      swap3\n      swap2\n      pop\n      pop\n      jump\t// out\n        /* \"#utility.yul\":13209:13368   */\n    tag_318:\n        /* \"#utility.yul\":13283:13294   */\n      0x00\n        /* \"#utility.yul\":13317:13323   */\n      dup3\n        /* \"#utility.yul\":13312:13315   */\n      dup3\n        /* \"#utility.yul\":13305:13324   */\n      mstore\n        /* \"#utility.yul\":13357:13361   */\n      0x20\n        /* \"#utility.yul\":13352:13355   */\n      dup3\n        /* \"#utility.yul\":13348:13362   */\n      add\n        /* \"#utility.yul\":13333:13362   */\n      swap1\n      pop\n        /* \"#utility.yul\":13209:13368   */\n      swap3\n      swap2\n      pop\n      pop\n      jump\t// out\n        /* \"#utility.yul\":13374:13543   */\n    tag_327:\n        /* \"#utility.yul\":13458:13469   */\n      0x00\n        /* \"#utility.yul\":13492:13498   */\n      dup3\n        /* \"#utility.yul\":13487:13490   */\n      dup3\n        /* \"#utility.yul\":13480:13499   */\n      mstore\n        /* \"#utility.yul\":13532:13536   */\n      0x20\n        /* \"#utility.yul\":13527:13530   */\n      dup3\n        /* \"#utility.yul\":13523:13537   */\n      add\n        /* \"#utility.yul\":13508:13537   */\n      swap1\n      pop\n        /* \"#utility.yul\":13374:13543   */\n      swap3\n      swap2\n      pop\n      pop\n      jump\t// out\n        /* \"#utility.yul\":13549:13697   */\n    tag_334:\n        /* \"#utility.yul\":13651:13662   */\n      0x00\n        /* \"#utility.yul\":13688:13691   */\n      dup2\n        /* \"#utility.yul\":13673:13691   */\n      swap1\n      pop\n        /* \"#utility.yul\":13549:13697   */\n      swap3\n      swap2\n      pop\n      pop\n      jump\t// out\n        /* \"#utility.yul\":13703:14008   */\n    tag_228:\n        /* \"#utility.yul\":13743:13746   */\n      0x00\n        /* \"#utility.yul\":13762:13782   */\n      tag_414\n        /* \"#utility.yul\":13780:13781   */\n      dup3\n        /* \"#utility.yul\":13762:13782   */\n      tag_369\n      jump\t// in\n    tag_414:\n        /* \"#utility.yul\":13757:13782   */\n      swap2\n      pop\n        /* \"#utility.yul\":13796:13816   */\n      tag_415\n        /* \"#utility.yul\":13814:13815   */\n      dup4\n        /* \"#utility.yul\":13796:13816   */\n      tag_369\n      jump\t// in\n    tag_415:\n        /* \"#utility.yul\":13791:13816   */\n      swap3\n      pop\n        /* \"#utility.yul\":13950:13951   */\n      dup3\n        /* \"#utility.yul\":13882:13948   */\n      0xffffffffffffffffffffffffffffffffffffffffffffffffffffffffffffffff\n        /* \"#utility.yul\":13878:13952   */\n      sub\n        /* \"#utility.yul\":13875:13876   */\n      dup3\n        /* \"#utility.yul\":13872:13953   */\n      gt\n        /* \"#utility.yul\":13869:13976   */\n      iszero\n      tag_416\n      jumpi\n        /* \"#utility.yul\":13956:13974   */\n      tag_417\n      tag_418\n      jump\t// in\n    tag_417:\n        /* \"#utility.yul\":13869:13976   */\n    tag_416:\n        /* \"#utility.yul\":14000:14001   */\n      dup3\n        /* \"#utility.yul\":13997:13998   */\n      dup3\n        /* \"#utility.yul\":13993:14002   */\n      add\n        /* \"#utility.yul\":13986:14002   */\n      swap1\n      pop\n        /* \"#utility.yul\":13703:14008   */\n      swap3\n      swap2\n      pop\n      pop\n      jump\t// out\n        /* \"#utility.yul\":14014:14199   */\n    tag_217:\n        /* \"#utility.yul\":14054:14055   */\n      0x00\n        /* \"#utility.yul\":14071:14091   */\n      tag_420\n        /* \"#utility.yul\":14089:14090   */\n      dup3\n        /* \"#utility.yul\":14071:14091   */\n      tag_369\n      jump\t// in\n    tag_420:\n        /* \"#utility.yul\":14066:14091   */\n      swap2\n      pop\n        /* \"#utility.yul\":14105:14125   */\n      tag_421\n        /* \"#utility.yul\":14123:14124   */\n      dup4\n        /* \"#utility.yul\":14105:14125   */\n      tag_369\n      jump\t// in\n    tag_421:\n        /* \"#utility.yul\":14100:14125   */\n      swap3\n      pop\n        /* \"#utility.yul\":14144:14145   */\n      dup3\n        /* \"#utility.yul\":14134:14169   */\n      tag_422\n      jumpi\n        /* \"#utility.yul\":14149:14167   */\n      tag_423\n      tag_424\n      jump\t// in\n    tag_423:\n        /* \"#utility.yul\":14134:14169   */\n    tag_422:\n        /* \"#utility.yul\":14191:14192   */\n      dup3\n        /* \"#utility.yul\":14188:14189   */\n      dup3\n        /* \"#utility.yul\":14184:14193   */\n      div\n        /* \"#utility.yul\":14179:14193   */\n      swap1\n      pop\n        /* \"#utility.yul\":14014:14199   */\n      swap3\n      swap2\n      pop\n      pop\n      jump\t// out\n        /* \"#utility.yul\":14205:14396   */\n    tag_224:\n        /* \"#utility.yul\":14245:14249   */\n      0x00\n        /* \"#utility.yul\":14265:14285   */\n      tag_426\n        /* \"#utility.yul\":14283:14284   */\n      dup3\n        /* \"#utility.yul\":14265:14285   */\n      tag_369\n      jump\t// in\n    tag_426:\n        /* \"#utility.yul\":14260:14285   */\n      swap2\n      pop\n        /* \"#utility.yul\":14299:14319   */\n      tag_427\n        /* \"#utility.yul\":14317:14318   */\n      dup4\n        /* \"#utility.yul\":14299:14319   */\n      tag_369\n      jump\t// in\n    tag_427:\n        /* \"#utility.yul\":14294:14319   */\n      swap3\n      pop\n        /* \"#utility.yul\":14338:14339   */\n      dup3\n        /* \"#utility.yul\":14335:14336   */\n      dup3\n        /* \"#utility.yul\":14332:14340   */\n      lt\n        /* \"#utility.yul\":14329:14363   */\n      iszero\n      tag_428\n      jumpi\n        /* \"#utility.yul\":14343:14361   */\n      tag_429\n      tag_418\n      jump\t// in\n    tag_429:\n        /* \"#utility.yul\":14329:14363   */\n    tag_428:\n        /* \"#utility.yul\":14388:14389   */\n      dup3\n        /* \"#utility.yul\":14385:14386   */\n      dup3\n        /* \"#utility.yul\":14381:14390   */\n      sub\n        /* \"#utility.yul\":14373:14390   */\n      swap1\n      pop\n        /* \"#utility.yul\":14205:14396   */\n      swap3\n      swap2\n      pop\n      pop\n      jump\t// out\n        /* \"#utility.yul\":14402:14498   */\n    tag_299:\n        /* \"#utility.yul\":14439:14446   */\n      0x00\n        /* \"#utility.yul\":14468:14492   */\n      tag_431\n        /* \"#utility.yul\":14486:14491   */\n      dup3\n        /* \"#utility.yul\":14468:14492   */\n      tag_432\n      jump\t// in\n    tag_431:\n        /* \"#utility.yul\":14457:14492   */\n      swap1\n      pop\n        /* \"#utility.yul\":14402:14498   */\n      swap2\n      swap1\n      pop\n      jump\t// out\n        /* \"#utility.yul\":14504:14630   */\n    tag_432:\n        /* \"#utility.yul\":14541:14548   */\n      0x00\n        /* \"#utility.yul\":14581:14623   */\n      0xffffffffffffffffffffffffffffffffffffffff\n        /* \"#utility.yul\":14574:14579   */\n      dup3\n        /* \"#utility.yul\":14570:14624   */\n      and\n        /* \"#utility.yul\":14559:14624   */\n      swap1\n      pop\n        /* \"#utility.yul\":14504:14630   */\n      swap2\n      swap1\n      pop\n      jump\t// out\n        /* \"#utility.yul\":14636:14713   */\n    tag_369:\n        /* \"#utility.yul\":14673:14680   */\n      0x00\n        /* \"#utility.yul\":14702:14707   */\n      dup2\n        /* \"#utility.yul\":14691:14707   */\n      swap1\n      pop\n        /* \"#utility.yul\":14636:14713   */\n      swap2\n      swap1\n      pop\n      jump\t// out\n        /* \"#utility.yul\":14719:14873   */\n    tag_258:\n        /* \"#utility.yul\":14803:14809   */\n      dup3\n        /* \"#utility.yul\":14798:14801   */\n      dup2\n        /* \"#utility.yul\":14793:14796   */\n      dup4\n        /* \"#utility.yul\":14780:14810   */\n      calldatacopy\n        /* \"#utility.yul\":14865:14866   */\n      0x00\n        /* \"#utility.yul\":14856:14862   */\n      dup4\n        /* \"#utility.yul\":14851:14854   */\n      dup4\n        /* \"#utility.yul\":14847:14863   */\n      add\n        /* \"#utility.yul\":14840:14867   */\n      mstore\n        /* \"#utility.yul\":14719:14873   */\n      pop\n      pop\n      pop\n      jump\t// out\n        /* \"#utility.yul\":14879:15186   */\n    tag_320:\n        /* \"#utility.yul\":14947:14948   */\n      0x00\n        /* \"#utility.yul\":14957:15070   */\n    tag_437:\n        /* \"#utility.yul\":14971:14977   */\n      dup4\n        /* \"#utility.yul\":14968:14969   */\n      dup2\n        /* \"#utility.yul\":14965:14978   */\n      lt\n        /* \"#utility.yul\":14957:15070   */\n      iszero\n      tag_439\n      jumpi\n        /* \"#utility.yul\":15056:15057   */\n      dup1\n        /* \"#utility.yul\":15051:15054   */\n      dup3\n        /* \"#utility.yul\":15047:15058   */\n      add\n        /* \"#utility.yul\":15041:15059   */\n      mload\n        /* \"#utility.yul\":15037:15038   */\n      dup2\n        /* \"#utility.yul\":15032:15035   */\n      dup5\n        /* \"#utility.yul\":15028:15039   */\n      add\n        /* \"#utility.yul\":15021:15060   */\n      mstore\n        /* \"#utility.yul\":14993:14995   */\n      0x20\n        /* \"#utility.yul\":14990:14991   */\n      dup2\n        /* \"#utility.yul\":14986:14996   */\n      add\n        /* \"#utility.yul\":14981:14996   */\n      swap1\n      pop\n        /* \"#utility.yul\":14957:15070   */\n      jump(tag_437)\n    tag_439:\n        /* \"#utility.yul\":15088:15094   */\n      dup4\n        /* \"#utility.yul\":15085:15086   */\n      dup2\n        /* \"#utility.yul\":15082:15095   */\n      gt\n        /* \"#utility.yul\":15079:15180   */\n      iszero\n      tag_440\n      jumpi\n        /* \"#utility.yul\":15168:15169   */\n      0x00\n        /* \"#utility.yul\":15159:15165   */\n      dup5\n        /* \"#utility.yul\":15154:15157   */\n      dup5\n        /* \"#utility.yul\":15150:15166   */\n      add\n        /* \"#utility.yul\":15143:15170   */\n      mstore\n        /* \"#utility.yul\":15079:15180   */\n    tag_440:\n        /* \"#utility.yul\":14928:15186   */\n      pop\n        /* \"#utility.yul\":14879:15186   */\n      pop\n      pop\n      pop\n      jump\t// out\n        /* \"#utility.yul\":15192:15512   */\n    tag_44:\n        /* \"#utility.yul\":15236:15242   */\n      0x00\n        /* \"#utility.yul\":15273:15274   */\n      0x02\n        /* \"#utility.yul\":15267:15271   */\n      dup3\n        /* \"#utility.yul\":15263:15275   */\n      div\n        /* \"#utility.yul\":15253:15275   */\n      swap1\n      pop\n        /* \"#utility.yul\":15320:15321   */\n      0x01\n        /* \"#utility.yul\":15314:15318   */\n      dup3\n        /* \"#utility.yul\":15310:15322   */\n      and\n        /* \"#utility.yul\":15341:15359   */\n      dup1\n        /* \"#utility.yul\":15331:15412   */\n      tag_442\n      jumpi\n        /* \"#utility.yul\":15397:15401   */\n      0x7f\n        /* \"#utility.yul\":15389:15395   */\n      dup3\n        /* \"#utility.yul\":15385:15402   */\n      and\n        /* \"#utility.yul\":15375:15402   */\n      swap2\n      pop\n        /* \"#utility.yul\":15331:15412   */\n    tag_442:\n        /* \"#utility.yul\":15459:15461   */\n      0x20\n        /* \"#utility.yul\":15451:15457   */\n      dup3\n        /* \"#utility.yul\":15448:15462   */\n      lt\n        /* \"#utility.yul\":15428:15446   */\n      dup2\n        /* \"#utility.yul\":15425:15463   */\n      eq\n        /* \"#utility.yul\":15422:15506   */\n      iszero\n      tag_443\n      jumpi\n        /* \"#utility.yul\":15478:15496   */\n      tag_444\n      tag_445\n      jump\t// in\n    tag_444:\n        /* \"#utility.yul\":15422:15506   */\n    tag_443:\n        /* \"#utility.yul\":15243:15512   */\n      pop\n        /* \"#utility.yul\":15192:15512   */\n      swap2\n      swap1\n      pop\n      jump\t// out\n        /* \"#utility.yul\":15518:15799   */\n    tag_399:\n        /* \"#utility.yul\":15601:15628   */\n      tag_447\n        /* \"#utility.yul\":15623:15627   */\n      dup3\n        /* \"#utility.yul\":15601:15628   */\n      tag_322\n      jump\t// in\n    tag_447:\n        /* \"#utility.yul\":15593:15599   */\n      dup2\n        /* \"#utility.yul\":15589:15629   */\n      add\n        /* \"#utility.yul\":15731:15737   */\n      dup2\n        /* \"#utility.yul\":15719:15729   */\n      dup2\n        /* \"#utility.yul\":15716:15738   */\n      lt\n        /* \"#utility.yul\":15695:15713   */\n      0xffffffffffffffff\n        /* \"#utility.yul\":15683:15693   */\n      dup3\n        /* \"#utility.yul\":15680:15714   */\n      gt\n        /* \"#utility.yul\":15677:15739   */\n      or\n        /* \"#utility.yul\":15674:15762   */\n      iszero\n      tag_448\n      jumpi\n        /* \"#utility.yul\":15742:15760   */\n      tag_449\n      tag_33\n      jump\t// in\n    tag_449:\n        /* \"#utility.yul\":15674:15762   */\n    tag_448:\n        /* \"#utility.yul\":15782:15792   */\n      dup1\n        /* \"#utility.yul\":15778:15780   */\n      0x40\n        /* \"#utility.yul\":15771:15793   */\n      mstore\n        /* \"#utility.yul\":15561:15799   */\n      pop\n        /* \"#utility.yul\":15518:15799   */\n      pop\n      pop\n      jump\t// out\n        /* \"#utility.yul\":15805:16038   */\n    tag_52:\n        /* \"#utility.yul\":15844:15847   */\n      0x00\n        /* \"#utility.yul\":15867:15891   */\n      tag_451\n        /* \"#utility.yul\":15885:15890   */\n      dup3\n        /* \"#utility.yul\":15867:15891   */\n      tag_369\n      jump\t// in\n    tag_451:\n        /* \"#utility.yul\":15858:15891   */\n      swap2\n      pop\n        /* \"#utility.yul\":15913:15979   */\n      0xffffffffffffffffffffffffffffffffffffffffffffffffffffffffffffffff\n        /* \"#utility.yul\":15906:15911   */\n      dup3\n        /* \"#utility.yul\":15903:15980   */\n      eq\n        /* \"#utility.yul\":15900:16003   */\n      iszero\n      tag_452\n      jumpi\n        /* \"#utility.yul\":15983:16001   */\n      tag_453\n      tag_418\n      jump\t// in\n    tag_453:\n        /* \"#utility.yul\":15900:16003   */\n    tag_452:\n        /* \"#utility.yul\":16030:16031   */\n      0x01\n        /* \"#utility.yul\":16023:16028   */\n      dup3\n        /* \"#utility.yul\":16019:16032   */\n      add\n        /* \"#utility.yul\":16012:16032   */\n      swap1\n      pop\n        /* \"#utility.yul\":15805:16038   */\n      swap2\n      swap1\n      pop\n      jump\t// out\n        /* \"#utility.yul\":16044:16220   */\n    tag_226:\n        /* \"#utility.yul\":16076:16077   */\n      0x00\n        /* \"#utility.yul\":16093:16113   */\n      tag_455\n        /* \"#utility.yul\":16111:16112   */\n      dup3\n        /* \"#utility.yul\":16093:16113   */\n      tag_369\n      jump\t// in\n    tag_455:\n        /* \"#utility.yul\":16088:16113   */\n      swap2\n      pop\n        /* \"#utility.yul\":16127:16147   */\n      tag_456\n        /* \"#utility.yul\":16145:16146   */\n      dup4\n        /* \"#utility.yul\":16127:16147   */\n      tag_369\n      jump\t// in\n    tag_456:\n        /* \"#utility.yul\":16122:16147   */\n      swap3\n      pop\n        /* \"#utility.yul\":16166:16167   */\n      dup3\n        /* \"#utility.yul\":16156:16191   */\n      tag_457\n      jumpi\n        /* \"#utility.yul\":16171:16189   */\n      tag_458\n      tag_424\n      jump\t// in\n    tag_458:\n        /* \"#utility.yul\":16156:16191   */\n    tag_457:\n        /* \"#utility.yul\":16212:16213   */\n      dup3\n        /* \"#utility.yul\":16209:16210   */\n      dup3\n        /* \"#utility.yul\":16205:16214   */\n      mod\n        /* \"#utility.yul\":16200:16214   */\n      swap1\n      pop\n        /* \"#utility.yul\":16044:16220   */\n      swap3\n      swap2\n      pop\n      pop\n      jump\t// out\n        /* \"#utility.yul\":16226:16406   */\n    tag_418:\n        /* \"#utility.yul\":16274:16351   */\n      0x4e487b7100000000000000000000000000000000000000000000000000000000\n        /* \"#utility.yul\":16271:16272   */\n      0x00\n        /* \"#utility.yul\":16264:16352   */\n      mstore\n        /* \"#utility.yul\":16371:16375   */\n      0x11\n        /* \"#utility.yul\":16368:16369   */\n      0x04\n        /* \"#utility.yul\":16361:16376   */\n      mstore\n        /* \"#utility.yul\":16395:16399   */\n      0x24\n        /* \"#utility.yul\":16392:16393   */\n      0x00\n        /* \"#utility.yul\":16385:16400   */\n      revert\n        /* \"#utility.yul\":16412:16592   */\n    tag_424:\n        /* \"#utility.yul\":16460:16537   */\n      0x4e487b7100000000000000000000000000000000000000000000000000000000\n        /* \"#utility.yul\":16457:16458   */\n      0x00\n        /* \"#utility.yul\":16450:16538   */\n      mstore\n        /* \"#utility.yul\":16557:16561   */\n      0x12\n        /* \"#utility.yul\":16554:16555   */\n      0x04\n        /* \"#utility.yul\":16547:16562   */\n      mstore\n        /* \"#utility.yul\":16581:16585   */\n      0x24\n        /* \"#utility.yul\":16578:16579   */\n      0x00\n        /* \"#utility.yul\":16571:16586   */\n      revert\n        /* \"#utility.yul\":16598:16778   */\n    tag_445:\n        /* \"#utility.yul\":16646:16723   */\n      0x4e487b7100000000000000000000000000000000000000000000000000000000\n        /* \"#utility.yul\":16643:16644   */\n      0x00\n        /* \"#utility.yul\":16636:16724   */\n      mstore\n        /* \"#utility.yul\":16743:16747   */\n      0x22\n        /* \"#utility.yul\":16740:16741   */\n      0x04\n        /* \"#utility.yul\":16733:16748   */\n      mstore\n        /* \"#utility.yul\":16767:16771   */\n      0x24\n        /* \"#utility.yul\":16764:16765   */\n      0x00\n        /* \"#utility.yul\":16757:16772   */\n      revert\n        /* \"#utility.yul\":16784:16964   */\n    tag_41:\n        /* \"#utility.yul\":16832:16909   */\n      0x4e487b7100000000000000000000000000000000000000000000000000000000\n        /* \"#utility.yul\":16829:16830   */\n      0x00\n        /* \"#utility.yul\":16822:16910   */\n      mstore\n        /* \"#utility.yul\":16929:16933   */\n      0x32\n        /* \"#utility.yul\":16926:16927   */\n      0x04\n        /* \"#utility.yul\":16919:16934   */\n      mstore\n        /* \"#utility.yul\":16953:16957   */\n      0x24\n        /* \"#utility.yul\":16950:16951   */\n      0x00\n        /* \"#utility.yul\":16943:16958   */\n      revert\n        /* \"#utility.yul\":16970:17150   */\n    tag_33:\n        /* \"#utility.yul\":17018:17095   */\n      0x4e487b7100000000000000000000000000000000000000000000000000000000\n        /* \"#utility.yul\":17015:17016   */\n      0x00\n        /* \"#utility.yul\":17008:17096   */\n      mstore\n        /* \"#utility.yul\":17115:17119   */\n      0x41\n        /* \"#utility.yul\":17112:17113   */\n      0x04\n        /* \"#utility.yul\":17105:17120   */\n      mstore\n        /* \"#utility.yul\":17139:17143   */\n      0x24\n        /* \"#utility.yul\":17136:17137   */\n      0x00\n        /* \"#utility.yul\":17129:17144   */\n      revert\n        /* \"#utility.yul\":17156:17273   */\n    tag_267:\n        /* \"#utility.yul\":17265:17266   */\n      0x00\n        /* \"#utility.yul\":17262:17263   */\n      dup1\n        /* \"#utility.yul\":17255:17267   */\n      revert\n        /* \"#utility.yul\":17279:17396   */\n    tag_256:\n        /* \"#utility.yul\":17388:17389   */\n      0x00\n        /* \"#utility.yul\":17385:17386   */\n      dup1\n        /* \"#utility.yul\":17378:17390   */\n      revert\n        /* \"#utility.yul\":17402:17519   */\n    tag_280:\n        /* \"#utility.yul\":17511:17512   */\n      0x00\n        /* \"#utility.yul\":17508:17509   */\n      dup1\n        /* \"#utility.yul\":17501:17513   */\n      revert\n        /* \"#utility.yul\":17525:17642   */\n    tag_276:\n        /* \"#utility.yul\":17634:17635   */\n      0x00\n        /* \"#utility.yul\":17631:17632   */\n      dup1\n        /* \"#utility.yul\":17624:17636   */\n      revert\n        /* \"#utility.yul\":17648:17750   */\n    tag_322:\n        /* \"#utility.yul\":17689:17695   */\n      0x00\n        /* \"#utility.yul\":17740:17742   */\n      0x1f\n        /* \"#utility.yul\":17736:17743   */\n      not\n        /* \"#utility.yul\":17731:17733   */\n      0x1f\n        /* \"#utility.yul\":17724:17729   */\n      dup4\n        /* \"#utility.yul\":17720:17734   */\n      add\n        /* \"#utility.yul\":17716:17744   */\n      and\n        /* \"#utility.yul\":17706:17744   */\n      swap1\n      pop\n        /* \"#utility.yul\":17648:17750   */\n      swap2\n      swap1\n      pop\n      jump\t// out\n        /* \"#utility.yul\":17756:17980   */\n    tag_340:\n        /* \"#utility.yul\":17896:17930   */\n      0x566f746572206861766520616c72656164792068617320726967687420746f20\n        /* \"#utility.yul\":17892:17893   */\n      0x00\n        /* \"#utility.yul\":17884:17890   */\n      dup3\n        /* \"#utility.yul\":17880:17894   */\n      add\n        /* \"#utility.yul\":17873:17931   */\n      mstore\n        /* \"#utility.yul\":17965:17972   */\n      0x766f74652e000000000000000000000000000000000000000000000000000000\n        /* \"#utility.yul\":17960:17962   */\n      0x20\n        /* \"#utility.yul\":17952:17958   */\n      dup3\n        /* \"#utility.yul\":17948:17963   */\n      add\n        /* \"#utility.yul\":17941:17973   */\n      mstore\n        /* \"#utility.yul\":17756:17980   */\n      pop\n      jump\t// out\n        /* \"#utility.yul\":17986:18206   */\n    tag_345:\n        /* \"#utility.yul\":18126:18160   */\n      0x43616e64696461746520796f752073656e7420646f6573206e6f742065786973\n        /* \"#utility.yul\":18122:18123   */\n      0x00\n        /* \"#utility.yul\":18114:18120   */\n      dup3\n        /* \"#utility.yul\":18110:18124   */\n      add\n        /* \"#utility.yul\":18103:18161   */\n      mstore\n        /* \"#utility.yul\":18195:18198   */\n      0x7400000000000000000000000000000000000000000000000000000000000000\n        /* \"#utility.yul\":18190:18192   */\n      0x20\n        /* \"#utility.yul\":18182:18188   */\n      dup3\n        /* \"#utility.yul\":18178:18193   */\n      add\n        /* \"#utility.yul\":18171:18199   */\n      mstore\n        /* \"#utility.yul\":17986:18206   */\n      pop\n      jump\t// out\n        /* \"#utility.yul\":18212:18446   */\n    tag_350:\n        /* \"#utility.yul\":18352:18386   */\n      0x4d6178206163636f756e7420766f74657320697320726561636865642e204261\n        /* \"#utility.yul\":18348:18349   */\n      0x00\n        /* \"#utility.yul\":18340:18346   */\n      dup3\n        /* \"#utility.yul\":18336:18350   */\n      add\n        /* \"#utility.yul\":18329:18387   */\n      mstore\n        /* \"#utility.yul\":18421:18438   */\n      0x6c6c6f7420697320434c4f5345442e0000000000000000000000000000000000\n        /* \"#utility.yul\":18416:18418   */\n      0x20\n        /* \"#utility.yul\":18408:18414   */\n      dup3\n        /* \"#utility.yul\":18404:18419   */\n      add\n        /* \"#utility.yul\":18397:18439   */\n      mstore\n        /* \"#utility.yul\":18212:18446   */\n      pop\n      jump\t// out\n        /* \"#utility.yul\":18452:18686   */\n    tag_355:\n        /* \"#utility.yul\":18592:18626   */\n      0x4f6e6c792074686520636f6e7472616374206f776e65722063616e2067697665\n        /* \"#utility.yul\":18588:18589   */\n      0x00\n        /* \"#utility.yul\":18580:18586   */\n      dup3\n        /* \"#utility.yul\":18576:18590   */\n      add\n        /* \"#utility.yul\":18569:18627   */\n      mstore\n        /* \"#utility.yul\":18661:18678   */\n      0x20726967687420746f20766f74652e0000000000000000000000000000000000\n        /* \"#utility.yul\":18656:18658   */\n      0x20\n        /* \"#utility.yul\":18648:18654   */\n      dup3\n        /* \"#utility.yul\":18644:18659   */\n      add\n        /* \"#utility.yul\":18637:18679   */\n      mstore\n        /* \"#utility.yul\":18452:18686   */\n      pop\n      jump\t// out\n        /* \"#utility.yul\":18692:18843   */\n    tag_360:\n        /* \"#utility.yul\":18832:18835   */\n      0x2000000000000000000000000000000000000000000000000000000000000000\n        /* \"#utility.yul\":18828:18829   */\n      0x00\n        /* \"#utility.yul\":18820:18826   */\n      dup3\n        /* \"#utility.yul\":18816:18830   */\n      add\n        /* \"#utility.yul\":18809:18836   */\n      mstore\n        /* \"#utility.yul\":18692:18843   */\n      pop\n      jump\t// out\n        /* \"#utility.yul\":18849:19019   */\n    tag_365:\n        /* \"#utility.yul\":18989:19011   */\n      0x566f74657220616c726561647920766f7465642e000000000000000000000000\n        /* \"#utility.yul\":18985:18986   */\n      0x00\n        /* \"#utility.yul\":18977:18983   */\n      dup3\n        /* \"#utility.yul\":18973:18987   */\n      add\n        /* \"#utility.yul\":18966:19012   */\n      mstore\n        /* \"#utility.yul\":18849:19019   */\n      pop\n      jump\t// out\n        /* \"#utility.yul\":19025:19147   */\n    tag_262:\n        /* \"#utility.yul\":19098:19122   */\n      tag_476\n        /* \"#utility.yul\":19116:19121   */\n      dup2\n        /* \"#utility.yul\":19098:19122   */\n      tag_299\n      jump\t// in\n    tag_476:\n        /* \"#utility.yul\":19091:19096   */\n      dup2\n        /* \"#utility.yul\":19088:19123   */\n      eq\n        /* \"#utility.yul\":19078:19141   */\n      tag_477\n      jumpi\n        /* \"#utility.yul\":19137:19138   */\n      0x00\n        /* \"#utility.yul\":19134:19135   */\n      dup1\n        /* \"#utility.yul\":19127:19139   */\n      revert\n        /* \"#utility.yul\":19078:19141   */\n    tag_477:\n        /* \"#utility.yul\":19025:19147   */\n      pop\n      jump\t// out\n        /* \"#utility.yul\":19153:19275   */\n    tag_272:\n        /* \"#utility.yul\":19226:19250   */\n      tag_479\n        /* \"#utility.yul\":19244:19249   */\n      dup2\n        /* \"#utility.yul\":19226:19250   */\n      tag_369\n      jump\t// in\n    tag_479:\n        /* \"#utility.yul\":19219:19224   */\n      dup2\n        /* \"#utility.yul\":19216:19251   */\n      eq\n        /* \"#utility.yul\":19206:19269   */\n      tag_480\n      jumpi\n        /* \"#utility.yul\":19265:19266   */\n      0x00\n        /* \"#utility.yul\":19262:19263   */\n      dup1\n        /* \"#utility.yul\":19255:19267   */\n      revert\n        /* \"#utility.yul\":19206:19269   */\n    tag_480:\n        /* \"#utility.yul\":19153:19275   */\n      pop\n      jump\t// out\n    stop\n    data_9fba6a81bb5a781be8fc79de52792c3a220d25cf150c42ec6eeb822c9b563178 2e20596f752073686f756c642073746172742061206e65772062616c6c6f742077697468207469652063616e646964617465733a\n    data_eaa3f166ab1a4d3cf55f2444fe62265ef12243fce6a2eb4e095fa04071166171 5468657265206973206120544945206f6e2042616c6c6f742077697468207468697320616d6f756e74206f6620766f7465733a\n\n    auxdata: 0xa264697066735822122028a189c1b03bedb8749f683359c55584b2826da70d15243e71382641d0e8efe164736f6c63430008070033\n}\n",
				"bytecode": {
					"linkReferences": {},
					"object": "60806040523480156200001157600080fd5b50604051620021a0380380620021a083398181016040528101906200003791906200035b565b336000806101000a81548173ffffffffffffffffffffffffffffffffffffffff021916908373ffffffffffffffffffffffffffffffffffffffff16021790555062000088826200009760201b60201c565b80600481905550505062000649565b60005b8151811015620001435760026040518060400160405280848481518110620000c757620000c6620005a7565b5b602002602001015181526020016000815250908060018154018082558091505060019003906000526020600020906002020160009091909190915060008201518160000190805190602001906200012092919062000147565b5060208201518160010155505080806200013a90620004fb565b9150506200009a565b5050565b82805462000155906200048f565b90600052602060002090601f016020900481019282620001795760008555620001c5565b82601f106200019457805160ff1916838001178555620001c5565b82800160010185558215620001c5579182015b82811115620001c4578251825591602001919060010190620001a7565b5b509050620001d49190620001d8565b5090565b5b80821115620001f3576000816000905550600101620001d9565b5090565b60006200020e6200020884620003ea565b620003c1565b905080838252602082019050828560208602820111156200023457620002336200060a565b5b60005b858110156200028957815167ffffffffffffffff8111156200025e576200025d62000605565b5b8086016200026d898262000311565b8552602085019450602084019350505060018101905062000237565b5050509392505050565b6000620002aa620002a48462000419565b620003c1565b905082815260208101848484011115620002c957620002c86200060f565b5b620002d684828562000459565b509392505050565b600082601f830112620002f657620002f562000605565b5b815162000308848260208601620001f7565b91505092915050565b600082601f83011262000329576200032862000605565b5b81516200033b84826020860162000293565b91505092915050565b60008151905062000355816200062f565b92915050565b6000806040838503121562000375576200037462000619565b5b600083015167ffffffffffffffff81111562000396576200039562000614565b5b620003a485828601620002de565b9250506020620003b78582860162000344565b9150509250929050565b6000620003cd620003e0565b9050620003db8282620004c5565b919050565b6000604051905090565b600067ffffffffffffffff821115620004085762000407620005d6565b5b602082029050602081019050919050565b600067ffffffffffffffff821115620004375762000436620005d6565b5b62000442826200061e565b9050602081019050919050565b6000819050919050565b60005b83811015620004795780820151818401526020810190506200045c565b8381111562000489576000848401525b50505050565b60006002820490506001821680620004a857607f821691505b60208210811415620004bf57620004be62000578565b5b50919050565b620004d0826200061e565b810181811067ffffffffffffffff82111715620004f257620004f1620005d6565b5b80604052505050565b600062000508826200044f565b91507fffffffffffffffffffffffffffffffffffffffffffffffffffffffffffffffff8214156200053e576200053d62000549565b5b600182019050919050565b7f4e487b7100000000000000000000000000000000000000000000000000000000600052601160045260246000fd5b7f4e487b7100000000000000000000000000000000000000000000000000000000600052602260045260246000fd5b7f4e487b7100000000000000000000000000000000000000000000000000000000600052603260045260246000fd5b7f4e487b7100000000000000000000000000000000000000000000000000000000600052604160045260246000fd5b600080fd5b600080fd5b600080fd5b600080fd5b600080fd5b6000601f19601f8301169050919050565b6200063a816200044f565b81146200064657600080fd5b50565b611b4780620006596000396000f3fe608060405234801561001057600080fd5b50600436106100575760003560e01c8063011d10231461005c5780633477ee2e1461007a57806353f06ecd146100ab57806368957b20146100cb578063fc36e15b146100e7575b600080fd5b610064610103565b60405161007191906113af565b60405180910390f35b610094600480360381019061008f9190611137565b610254565b6040516100a29291906113f3565b60405180910390f35b6100b3610310565b6040516100c293929190611423565b60405180910390f35b6100e560048036038101906100e09190611092565b61033f565b005b61010160048036038101906100fc91906110ee565b610418565b005b60606000600280549050905060008167ffffffffffffffff81111561012b5761012a61189a565b5b60405190808252806020026020018201604052801561015e57816020015b60608152602001906001900390816101495790505b50905060005b8281101561024b57600281815481106101805761017f61186b565b5b9060005260206000209060020201600001805461019c90611701565b80601f01602080910402602001604051908101604052809291908181526020018280546101c890611701565b80156102155780601f106101ea57610100808354040283529160200191610215565b820191906000526020600020905b8154815290600101906020018083116101f857829003601f168201915b505050505082828151811061022d5761022c61186b565b5b6020026020010181905250808061024390611764565b915050610164565b50809250505090565b6002818154811061026457600080fd5b906000526020600020906002020160009150905080600001805461028790611701565b80601f01602080910402602001604051908101604052809291908181526020018280546102b390611701565b80156103005780601f106102d557610100808354040283529160200191610300565b820191906000526020600020905b8154815290600101906020018083116102e357829003601f168201915b5050505050908060010154905082565b6060600080600061031f6105df565b90508060000151935080602001519250610337610aa2565b915050909192565b81610348610aaa565b610350610af2565b61035981610b3b565b61036281610bce565b81600160008573ffffffffffffffffffffffffffffffffffffffff1673ffffffffffffffffffffffffffffffffffffffff16815260200190815260200160002060000190805190602001906103b8929190610f3b565b5060018060008573ffffffffffffffffffffffffffffffffffffffff1673ffffffffffffffffffffffffffffffffffffffff16815260200190815260200160002060010160006101000a81548160ff021916908315150217905550505050565b33610421610aaa565b61042a81610b3b565b61043381610bce565b6000600160003373ffffffffffffffffffffffffffffffffffffffff1673ffffffffffffffffffffffffffffffffffffffff1681526020019081526020016000209050600080600090505b6002805490508110156105cf57610542600282815481106104a2576104a161186b565b5b906000526020600020906002020160000180546104be90611701565b80601f01602080910402602001604051908101604052809291908181526020018280546104ea90611701565b80156105375780601f1061050c57610100808354040283529160200191610537565b820191906000526020600020905b81548152906001019060200180831161051a57829003601f168201915b505050505086610c1a565b156105bc576002818154811061055b5761055a61186b565b5b9060005260206000209060020201600101600081548092919061057d90611764565b919050555060018360010160016101000a81548160ff021916908315150217905550600360008154809291906105b290611764565b9190505550600191505b80806105c790611764565b91505061047e565b506105d981610c73565b50505050565b6105e7610fc1565b6000806000600280549050905060008167ffffffffffffffff8111156106105761060f61189a565b5b60405190808252806020026020018201604052801561064357816020015b606081526020019060019003908161062e5790505b50905060008060019050606060005b8581101561091057876002828154811061066f5761066e61186b565b5b90600052602060002090600202016001015411156107f0576002818154811061069b5761069a61186b565b5b906000526020600020906002020160010154975080965082156107eb5760009250600093508567ffffffffffffffff8111156106da576106d961189a565b5b60405190808252806020026020018201604052801561070d57816020015b60608152602001906001900390816106f85790505b509450600281815481106107245761072361186b565b5b9060005260206000209060020201600001805461074090611701565b80601f016020809104026020016040519081016040528092919081815260200182805461076c90611701565b80156107b95780601f1061078e576101008083540402835291602001916107b9565b820191906000526020600020905b81548152906001019060200180831161079c57829003601f168201915b50505050508585815181106107d1576107d061186b565b5b602002602001018190525083806107e790611764565b9450505b6108fd565b87600282815481106108055761080461186b565b5b90600052602060002090600202016001015414156108fc5760019250600281815481106108355761083461186b565b5b9060005260206000209060020201600001805461085190611701565b80601f016020809104026020016040519081016040528092919081815260200182805461087d90611701565b80156108ca5780601f1061089f576101008083540402835291602001916108ca565b820191906000526020600020905b8154815290600101906020018083116108ad57829003601f168201915b50505050508585815181106108e2576108e161186b565b5b602002602001018190525083806108f890611764565b9450505b5b808061090890611764565b915050610652565b5081156109cc5760005b845181101561095c576109478286838151811061093a5761093961186b565b5b6020026020010151610cb6565b9150808061095490611764565b91505061091a565b506000610989604051806060016040528060338152602001611adf603391396109848a610ce2565b610cb6565b90506109ad81604051806060016040528060348152602001611aab60349139610cb6565b90506109b98183610cb6565b90506109c6831582610e43565b50610a98565b600286815481106109e0576109df61186b565b5b9060005260206000209060020201604051806040016040529081600082018054610a0990611701565b80601f0160208091040260200160405190810160405280929190818152602001828054610a3590611701565b8015610a825780601f10610a5757610100808354040283529160200191610a82565b820191906000526020600020905b815481529060010190602001808311610a6557829003601f168201915b5050505050815260200160018201548152505097505b5050505050505090565b600030905090565b60045460035410610af0576040517f08c379a0000000000000000000000000000000000000000000000000000000008152600401610ae7906114a1565b60405180910390fd5b565b610afa610e8b565b610b39576040517f08c379a0000000000000000000000000000000000000000000000000000000008152600401610b30906114c1565b60405180910390fd5b565b600160008273ffffffffffffffffffffffffffffffffffffffff1673ffffffffffffffffffffffffffffffffffffffff16815260200190815260200160002060010160009054906101000a900460ff1615610bcb576040517f08c379a0000000000000000000000000000000000000000000000000000000008152600401610bc290611461565b60405180910390fd5b50565b610bd781610ee2565b15610c17576040517f08c379a0000000000000000000000000000000000000000000000000000000008152600401610c0e906114e1565b60405180910390fd5b50565b600081604051602001610c2d91906113d1565b6040516020818303038152906040528051906020012083604051602001610c5491906113d1565b6040516020818303038152906040528051906020012014905092915050565b80610cb3576040517f08c379a0000000000000000000000000000000000000000000000000000000008152600401610caa90611481565b60405180910390fd5b50565b60608282604051602001610ccb929190611380565b604051602081830303815290604052905092915050565b60606000821415610d2a576040518060400160405280600181526020017f30000000000000000000000000000000000000000000000000000000000000008152509050610e3e565b600082905060005b60008214610d5c578080610d4590611764565b915050600a82610d55919061161e565b9150610d32565b60008167ffffffffffffffff811115610d7857610d7761189a565b5b6040519080825280601f01601f191660200182016040528015610daa5781602001600182028036833780820191505090505b5090505b60008514610e3757600182610dc3919061164f565b9150600a85610dd291906117ad565b6030610dde91906115c8565b60f81b818381518110610df457610df361186b565b5b60200101907effffffffffffffffffffffffffffffffffffffffffffffffffffffffffffff1916908160001a905350600a85610e30919061161e565b9450610dae565b8093505050505b919050565b818190610e86576040517f08c379a0000000000000000000000000000000000000000000000000000000008152600401610e7d91906113d1565b60405180910390fd5b505050565b60008060009054906101000a900473ffffffffffffffffffffffffffffffffffffffff1673ffffffffffffffffffffffffffffffffffffffff163373ffffffffffffffffffffffffffffffffffffffff1614905090565b6000600160008373ffffffffffffffffffffffffffffffffffffffff1673ffffffffffffffffffffffffffffffffffffffff16815260200190815260200160002060010160019054906101000a900460ff169050919050565b828054610f4790611701565b90600052602060002090601f016020900481019282610f695760008555610fb0565b82601f10610f8257805160ff1916838001178555610fb0565b82800160010185558215610fb0579182015b82811115610faf578251825591602001919060010190610f94565b5b509050610fbd9190610fdb565b5090565b604051806040016040528060608152602001600081525090565b5b80821115610ff4576000816000905550600101610fdc565b5090565b600061100b61100684611526565b611501565b905082815260208101848484011115611027576110266118ce565b5b6110328482856116bf565b509392505050565b60008135905061104981611a7c565b92915050565b600082601f830112611064576110636118c9565b5b8135611074848260208601610ff8565b91505092915050565b60008135905061108c81611a93565b92915050565b600080604083850312156110a9576110a86118d8565b5b60006110b78582860161103a565b925050602083013567ffffffffffffffff8111156110d8576110d76118d3565b5b6110e48582860161104f565b9150509250929050565b600060208284031215611104576111036118d8565b5b600082013567ffffffffffffffff811115611122576111216118d3565b5b61112e8482850161104f565b91505092915050565b60006020828403121561114d5761114c6118d8565b5b600061115b8482850161107d565b91505092915050565b600061117083836111fc565b905092915050565b61118181611683565b82525050565b600061119282611567565b61119c818561158a565b9350836020820285016111ae85611557565b8060005b858110156111ea57848403895281516111cb8582611164565b94506111d68361157d565b925060208a019950506001810190506111b2565b50829750879550505050505092915050565b600061120782611572565b611211818561159b565b93506112218185602086016116ce565b61122a816118dd565b840191505092915050565b600061124082611572565b61124a81856115ac565b935061125a8185602086016116ce565b611263816118dd565b840191505092915050565b600061127982611572565b61128381856115bd565b93506112938185602086016116ce565b80840191505092915050565b60006112ac6025836115ac565b91506112b7826118ee565b604082019050919050565b60006112cf6021836115ac565b91506112da8261193d565b604082019050919050565b60006112f2602f836115ac565b91506112fd8261198c565b604082019050919050565b6000611315602f836115ac565b9150611320826119db565b604082019050919050565b60006113386001836115bd565b915061134382611a2a565b600182019050919050565b600061135b6014836115ac565b915061136682611a53565b602082019050919050565b61137a816116b5565b82525050565b600061138c828561126e565b91506113978261132b565b91506113a3828461126e565b91508190509392505050565b600060208201905081810360008301526113c98184611187565b905092915050565b600060208201905081810360008301526113eb8184611235565b905092915050565b6000604082019050818103600083015261140d8185611235565b905061141c6020830184611371565b9392505050565b6000606082019050818103600083015261143d8186611235565b905061144c6020830185611371565b6114596040830184611178565b949350505050565b6000602082019050818103600083015261147a8161129f565b9050919050565b6000602082019050818103600083015261149a816112c2565b9050919050565b600060208201905081810360008301526114ba816112e5565b9050919050565b600060208201905081810360008301526114da81611308565b9050919050565b600060208201905081810360008301526114fa8161134e565b9050919050565b600061150b61151c565b90506115178282611733565b919050565b6000604051905090565b600067ffffffffffffffff8211156115415761154061189a565b5b61154a826118dd565b9050602081019050919050565b6000819050602082019050919050565b600081519050919050565b600081519050919050565b6000602082019050919050565b600082825260208201905092915050565b600082825260208201905092915050565b600082825260208201905092915050565b600081905092915050565b60006115d3826116b5565b91506115de836116b5565b9250827fffffffffffffffffffffffffffffffffffffffffffffffffffffffffffffffff03821115611613576116126117de565b5b828201905092915050565b6000611629826116b5565b9150611634836116b5565b9250826116445761164361180d565b5b828204905092915050565b600061165a826116b5565b9150611665836116b5565b925082821015611678576116776117de565b5b828203905092915050565b600061168e82611695565b9050919050565b600073ffffffffffffffffffffffffffffffffffffffff82169050919050565b6000819050919050565b82818337600083830152505050565b60005b838110156116ec5780820151818401526020810190506116d1565b838111156116fb576000848401525b50505050565b6000600282049050600182168061171957607f821691505b6020821081141561172d5761172c61183c565b5b50919050565b61173c826118dd565b810181811067ffffffffffffffff8211171561175b5761175a61189a565b5b80604052505050565b600061176f826116b5565b91507fffffffffffffffffffffffffffffffffffffffffffffffffffffffffffffffff8214156117a2576117a16117de565b5b600182019050919050565b60006117b8826116b5565b91506117c3836116b5565b9250826117d3576117d261180d565b5b828206905092915050565b7f4e487b7100000000000000000000000000000000000000000000000000000000600052601160045260246000fd5b7f4e487b7100000000000000000000000000000000000000000000000000000000600052601260045260246000fd5b7f4e487b7100000000000000000000000000000000000000000000000000000000600052602260045260246000fd5b7f4e487b7100000000000000000000000000000000000000000000000000000000600052603260045260246000fd5b7f4e487b7100000000000000000000000000000000000000000000000000000000600052604160045260246000fd5b600080fd5b600080fd5b600080fd5b600080fd5b6000601f19601f8301169050919050565b7f566f746572206861766520616c72656164792068617320726967687420746f2060008201527f766f74652e000000000000000000000000000000000000000000000000000000602082015250565b7f43616e64696461746520796f752073656e7420646f6573206e6f74206578697360008201527f7400000000000000000000000000000000000000000000000000000000000000602082015250565b7f4d6178206163636f756e7420766f74657320697320726561636865642e20426160008201527f6c6c6f7420697320434c4f5345442e0000000000000000000000000000000000602082015250565b7f4f6e6c792074686520636f6e7472616374206f776e65722063616e206769766560008201527f20726967687420746f20766f74652e0000000000000000000000000000000000602082015250565b7f2000000000000000000000000000000000000000000000000000000000000000600082015250565b7f566f74657220616c726561647920766f7465642e000000000000000000000000600082015250565b611a8581611683565b8114611a9057600080fd5b50565b611a9c816116b5565b8114611aa757600080fd5b5056fe2e20596f752073686f756c642073746172742061206e65772062616c6c6f742077697468207469652063616e646964617465733a5468657265206973206120544945206f6e2042616c6c6f742077697468207468697320616d6f756e74206f6620766f7465733aa264697066735822122028a189c1b03bedb8749f683359c55584b2826da70d15243e71382641d0e8efe164736f6c63430008070033",
					"opcodes": "PUSH1 0x80 PUSH1 0x40 MSTORE CALLVALUE DUP1 ISZERO PUSH3 0x11 JUMPI PUSH1 0x0 DUP1 REVERT JUMPDEST POP PUSH1 0x40 MLOAD PUSH3 0x21A0 CODESIZE SUB DUP1 PUSH3 0x21A0 DUP4 CODECOPY DUP2 DUP2 ADD PUSH1 0x40 MSTORE DUP2 ADD SWAP1 PUSH3 0x37 SWAP2 SWAP1 PUSH3 0x35B JUMP JUMPDEST CALLER PUSH1 0x0 DUP1 PUSH2 0x100 EXP DUP2 SLOAD DUP2 PUSH20 0xFFFFFFFFFFFFFFFFFFFFFFFFFFFFFFFFFFFFFFFF MUL NOT AND SWAP1 DUP4 PUSH20 0xFFFFFFFFFFFFFFFFFFFFFFFFFFFFFFFFFFFFFFFF AND MUL OR SWAP1 SSTORE POP PUSH3 0x88 DUP3 PUSH3 0x97 PUSH1 0x20 SHL PUSH1 0x20 SHR JUMP JUMPDEST DUP1 PUSH1 0x4 DUP2 SWAP1 SSTORE POP POP POP PUSH3 0x649 JUMP JUMPDEST PUSH1 0x0 JUMPDEST DUP2 MLOAD DUP2 LT ISZERO PUSH3 0x143 JUMPI PUSH1 0x2 PUSH1 0x40 MLOAD DUP1 PUSH1 0x40 ADD PUSH1 0x40 MSTORE DUP1 DUP5 DUP5 DUP2 MLOAD DUP2 LT PUSH3 0xC7 JUMPI PUSH3 0xC6 PUSH3 0x5A7 JUMP JUMPDEST JUMPDEST PUSH1 0x20 MUL PUSH1 0x20 ADD ADD MLOAD DUP2 MSTORE PUSH1 0x20 ADD PUSH1 0x0 DUP2 MSTORE POP SWAP1 DUP1 PUSH1 0x1 DUP2 SLOAD ADD DUP1 DUP3 SSTORE DUP1 SWAP2 POP POP PUSH1 0x1 SWAP1 SUB SWAP1 PUSH1 0x0 MSTORE PUSH1 0x20 PUSH1 0x0 KECCAK256 SWAP1 PUSH1 0x2 MUL ADD PUSH1 0x0 SWAP1 SWAP2 SWAP1 SWAP2 SWAP1 SWAP2 POP PUSH1 0x0 DUP3 ADD MLOAD DUP2 PUSH1 0x0 ADD SWAP1 DUP1 MLOAD SWAP1 PUSH1 0x20 ADD SWAP1 PUSH3 0x120 SWAP3 SWAP2 SWAP1 PUSH3 0x147 JUMP JUMPDEST POP PUSH1 0x20 DUP3 ADD MLOAD DUP2 PUSH1 0x1 ADD SSTORE POP POP DUP1 DUP1 PUSH3 0x13A SWAP1 PUSH3 0x4FB JUMP JUMPDEST SWAP2 POP POP PUSH3 0x9A JUMP JUMPDEST POP POP JUMP JUMPDEST DUP3 DUP1 SLOAD PUSH3 0x155 SWAP1 PUSH3 0x48F JUMP JUMPDEST SWAP1 PUSH1 0x0 MSTORE PUSH1 0x20 PUSH1 0x0 KECCAK256 SWAP1 PUSH1 0x1F ADD PUSH1 0x20 SWAP1 DIV DUP2 ADD SWAP3 DUP3 PUSH3 0x179 JUMPI PUSH1 0x0 DUP6 SSTORE PUSH3 0x1C5 JUMP JUMPDEST DUP3 PUSH1 0x1F LT PUSH3 0x194 JUMPI DUP1 MLOAD PUSH1 0xFF NOT AND DUP4 DUP1 ADD OR DUP6 SSTORE PUSH3 0x1C5 JUMP JUMPDEST DUP3 DUP1 ADD PUSH1 0x1 ADD DUP6 SSTORE DUP3 ISZERO PUSH3 0x1C5 JUMPI SWAP2 DUP3 ADD JUMPDEST DUP3 DUP2 GT ISZERO PUSH3 0x1C4 JUMPI DUP3 MLOAD DUP3 SSTORE SWAP2 PUSH1 0x20 ADD SWAP2 SWAP1 PUSH1 0x1 ADD SWAP1 PUSH3 0x1A7 JUMP JUMPDEST JUMPDEST POP SWAP1 POP PUSH3 0x1D4 SWAP2 SWAP1 PUSH3 0x1D8 JUMP JUMPDEST POP SWAP1 JUMP JUMPDEST JUMPDEST DUP1 DUP3 GT ISZERO PUSH3 0x1F3 JUMPI PUSH1 0x0 DUP2 PUSH1 0x0 SWAP1 SSTORE POP PUSH1 0x1 ADD PUSH3 0x1D9 JUMP JUMPDEST POP SWAP1 JUMP JUMPDEST PUSH1 0x0 PUSH3 0x20E PUSH3 0x208 DUP5 PUSH3 0x3EA JUMP JUMPDEST PUSH3 0x3C1 JUMP JUMPDEST SWAP1 POP DUP1 DUP4 DUP3 MSTORE PUSH1 0x20 DUP3 ADD SWAP1 POP DUP3 DUP6 PUSH1 0x20 DUP7 MUL DUP3 ADD GT ISZERO PUSH3 0x234 JUMPI PUSH3 0x233 PUSH3 0x60A JUMP JUMPDEST JUMPDEST PUSH1 0x0 JUMPDEST DUP6 DUP2 LT ISZERO PUSH3 0x289 JUMPI DUP2 MLOAD PUSH8 0xFFFFFFFFFFFFFFFF DUP2 GT ISZERO PUSH3 0x25E JUMPI PUSH3 0x25D PUSH3 0x605 JUMP JUMPDEST JUMPDEST DUP1 DUP7 ADD PUSH3 0x26D DUP10 DUP3 PUSH3 0x311 JUMP JUMPDEST DUP6 MSTORE PUSH1 0x20 DUP6 ADD SWAP5 POP PUSH1 0x20 DUP5 ADD SWAP4 POP POP POP PUSH1 0x1 DUP2 ADD SWAP1 POP PUSH3 0x237 JUMP JUMPDEST POP POP POP SWAP4 SWAP3 POP POP POP JUMP JUMPDEST PUSH1 0x0 PUSH3 0x2AA PUSH3 0x2A4 DUP5 PUSH3 0x419 JUMP JUMPDEST PUSH3 0x3C1 JUMP JUMPDEST SWAP1 POP DUP3 DUP2 MSTORE PUSH1 0x20 DUP2 ADD DUP5 DUP5 DUP5 ADD GT ISZERO PUSH3 0x2C9 JUMPI PUSH3 0x2C8 PUSH3 0x60F JUMP JUMPDEST JUMPDEST PUSH3 0x2D6 DUP5 DUP3 DUP6 PUSH3 0x459 JUMP JUMPDEST POP SWAP4 SWAP3 POP POP POP JUMP JUMPDEST PUSH1 0x0 DUP3 PUSH1 0x1F DUP4 ADD SLT PUSH3 0x2F6 JUMPI PUSH3 0x2F5 PUSH3 0x605 JUMP JUMPDEST JUMPDEST DUP2 MLOAD PUSH3 0x308 DUP5 DUP3 PUSH1 0x20 DUP7 ADD PUSH3 0x1F7 JUMP JUMPDEST SWAP2 POP POP SWAP3 SWAP2 POP POP JUMP JUMPDEST PUSH1 0x0 DUP3 PUSH1 0x1F DUP4 ADD SLT PUSH3 0x329 JUMPI PUSH3 0x328 PUSH3 0x605 JUMP JUMPDEST JUMPDEST DUP2 MLOAD PUSH3 0x33B DUP5 DUP3 PUSH1 0x20 DUP7 ADD PUSH3 0x293 JUMP JUMPDEST SWAP2 POP POP SWAP3 SWAP2 POP POP JUMP JUMPDEST PUSH1 0x0 DUP2 MLOAD SWAP1 POP PUSH3 0x355 DUP2 PUSH3 0x62F JUMP JUMPDEST SWAP3 SWAP2 POP POP JUMP JUMPDEST PUSH1 0x0 DUP1 PUSH1 0x40 DUP4 DUP6 SUB SLT ISZERO PUSH3 0x375 JUMPI PUSH3 0x374 PUSH3 0x619 JUMP JUMPDEST JUMPDEST PUSH1 0x0 DUP4 ADD MLOAD PUSH8 0xFFFFFFFFFFFFFFFF DUP2 GT ISZERO PUSH3 0x396 JUMPI PUSH3 0x395 PUSH3 0x614 JUMP JUMPDEST JUMPDEST PUSH3 0x3A4 DUP6 DUP3 DUP7 ADD PUSH3 0x2DE JUMP JUMPDEST SWAP3 POP POP PUSH1 0x20 PUSH3 0x3B7 DUP6 DUP3 DUP7 ADD PUSH3 0x344 JUMP JUMPDEST SWAP2 POP POP SWAP3 POP SWAP3 SWAP1 POP JUMP JUMPDEST PUSH1 0x0 PUSH3 0x3CD PUSH3 0x3E0 JUMP JUMPDEST SWAP1 POP PUSH3 0x3DB DUP3 DUP3 PUSH3 0x4C5 JUMP JUMPDEST SWAP2 SWAP1 POP JUMP JUMPDEST PUSH1 0x0 PUSH1 0x40 MLOAD SWAP1 POP SWAP1 JUMP JUMPDEST PUSH1 0x0 PUSH8 0xFFFFFFFFFFFFFFFF DUP3 GT ISZERO PUSH3 0x408 JUMPI PUSH3 0x407 PUSH3 0x5D6 JUMP JUMPDEST JUMPDEST PUSH1 0x20 DUP3 MUL SWAP1 POP PUSH1 0x20 DUP2 ADD SWAP1 POP SWAP2 SWAP1 POP JUMP JUMPDEST PUSH1 0x0 PUSH8 0xFFFFFFFFFFFFFFFF DUP3 GT ISZERO PUSH3 0x437 JUMPI PUSH3 0x436 PUSH3 0x5D6 JUMP JUMPDEST JUMPDEST PUSH3 0x442 DUP3 PUSH3 0x61E JUMP JUMPDEST SWAP1 POP PUSH1 0x20 DUP2 ADD SWAP1 POP SWAP2 SWAP1 POP JUMP JUMPDEST PUSH1 0x0 DUP2 SWAP1 POP SWAP2 SWAP1 POP JUMP JUMPDEST PUSH1 0x0 JUMPDEST DUP4 DUP2 LT ISZERO PUSH3 0x479 JUMPI DUP1 DUP3 ADD MLOAD DUP2 DUP5 ADD MSTORE PUSH1 0x20 DUP2 ADD SWAP1 POP PUSH3 0x45C JUMP JUMPDEST DUP4 DUP2 GT ISZERO PUSH3 0x489 JUMPI PUSH1 0x0 DUP5 DUP5 ADD MSTORE JUMPDEST POP POP POP POP JUMP JUMPDEST PUSH1 0x0 PUSH1 0x2 DUP3 DIV SWAP1 POP PUSH1 0x1 DUP3 AND DUP1 PUSH3 0x4A8 JUMPI PUSH1 0x7F DUP3 AND SWAP2 POP JUMPDEST PUSH1 0x20 DUP3 LT DUP2 EQ ISZERO PUSH3 0x4BF JUMPI PUSH3 0x4BE PUSH3 0x578 JUMP JUMPDEST JUMPDEST POP SWAP2 SWAP1 POP JUMP JUMPDEST PUSH3 0x4D0 DUP3 PUSH3 0x61E JUMP JUMPDEST DUP2 ADD DUP2 DUP2 LT PUSH8 0xFFFFFFFFFFFFFFFF DUP3 GT OR ISZERO PUSH3 0x4F2 JUMPI PUSH3 0x4F1 PUSH3 0x5D6 JUMP JUMPDEST JUMPDEST DUP1 PUSH1 0x40 MSTORE POP POP POP JUMP JUMPDEST PUSH1 0x0 PUSH3 0x508 DUP3 PUSH3 0x44F JUMP JUMPDEST SWAP2 POP PUSH32 0xFFFFFFFFFFFFFFFFFFFFFFFFFFFFFFFFFFFFFFFFFFFFFFFFFFFFFFFFFFFFFFFF DUP3 EQ ISZERO PUSH3 0x53E JUMPI PUSH3 0x53D PUSH3 0x549 JUMP JUMPDEST JUMPDEST PUSH1 0x1 DUP3 ADD SWAP1 POP SWAP2 SWAP1 POP JUMP JUMPDEST PUSH32 0x4E487B7100000000000000000000000000000000000000000000000000000000 PUSH1 0x0 MSTORE PUSH1 0x11 PUSH1 0x4 MSTORE PUSH1 0x24 PUSH1 0x0 REVERT JUMPDEST PUSH32 0x4E487B7100000000000000000000000000000000000000000000000000000000 PUSH1 0x0 MSTORE PUSH1 0x22 PUSH1 0x4 MSTORE PUSH1 0x24 PUSH1 0x0 REVERT JUMPDEST PUSH32 0x4E487B7100000000000000000000000000000000000000000000000000000000 PUSH1 0x0 MSTORE PUSH1 0x32 PUSH1 0x4 MSTORE PUSH1 0x24 PUSH1 0x0 REVERT JUMPDEST PUSH32 0x4E487B7100000000000000000000000000000000000000000000000000000000 PUSH1 0x0 MSTORE PUSH1 0x41 PUSH1 0x4 MSTORE PUSH1 0x24 PUSH1 0x0 REVERT JUMPDEST PUSH1 0x0 DUP1 REVERT JUMPDEST PUSH1 0x0 DUP1 REVERT JUMPDEST PUSH1 0x0 DUP1 REVERT JUMPDEST PUSH1 0x0 DUP1 REVERT JUMPDEST PUSH1 0x0 DUP1 REVERT JUMPDEST PUSH1 0x0 PUSH1 0x1F NOT PUSH1 0x1F DUP4 ADD AND SWAP1 POP SWAP2 SWAP1 POP JUMP JUMPDEST PUSH3 0x63A DUP2 PUSH3 0x44F JUMP JUMPDEST DUP2 EQ PUSH3 0x646 JUMPI PUSH1 0x0 DUP1 REVERT JUMPDEST POP JUMP JUMPDEST PUSH2 0x1B47 DUP1 PUSH3 0x659 PUSH1 0x0 CODECOPY PUSH1 0x0 RETURN INVALID PUSH1 0x80 PUSH1 0x40 MSTORE CALLVALUE DUP1 ISZERO PUSH2 0x10 JUMPI PUSH1 0x0 DUP1 REVERT JUMPDEST POP PUSH1 0x4 CALLDATASIZE LT PUSH2 0x57 JUMPI PUSH1 0x0 CALLDATALOAD PUSH1 0xE0 SHR DUP1 PUSH4 0x11D1023 EQ PUSH2 0x5C JUMPI DUP1 PUSH4 0x3477EE2E EQ PUSH2 0x7A JUMPI DUP1 PUSH4 0x53F06ECD EQ PUSH2 0xAB JUMPI DUP1 PUSH4 0x68957B20 EQ PUSH2 0xCB JUMPI DUP1 PUSH4 0xFC36E15B EQ PUSH2 0xE7 JUMPI JUMPDEST PUSH1 0x0 DUP1 REVERT JUMPDEST PUSH2 0x64 PUSH2 0x103 JUMP JUMPDEST PUSH1 0x40 MLOAD PUSH2 0x71 SWAP2 SWAP1 PUSH2 0x13AF JUMP JUMPDEST PUSH1 0x40 MLOAD DUP1 SWAP2 SUB SWAP1 RETURN JUMPDEST PUSH2 0x94 PUSH1 0x4 DUP1 CALLDATASIZE SUB DUP2 ADD SWAP1 PUSH2 0x8F SWAP2 SWAP1 PUSH2 0x1137 JUMP JUMPDEST PUSH2 0x254 JUMP JUMPDEST PUSH1 0x40 MLOAD PUSH2 0xA2 SWAP3 SWAP2 SWAP1 PUSH2 0x13F3 JUMP JUMPDEST PUSH1 0x40 MLOAD DUP1 SWAP2 SUB SWAP1 RETURN JUMPDEST PUSH2 0xB3 PUSH2 0x310 JUMP JUMPDEST PUSH1 0x40 MLOAD PUSH2 0xC2 SWAP4 SWAP3 SWAP2 SWAP1 PUSH2 0x1423 JUMP JUMPDEST PUSH1 0x40 MLOAD DUP1 SWAP2 SUB SWAP1 RETURN JUMPDEST PUSH2 0xE5 PUSH1 0x4 DUP1 CALLDATASIZE SUB DUP2 ADD SWAP1 PUSH2 0xE0 SWAP2 SWAP1 PUSH2 0x1092 JUMP JUMPDEST PUSH2 0x33F JUMP JUMPDEST STOP JUMPDEST PUSH2 0x101 PUSH1 0x4 DUP1 CALLDATASIZE SUB DUP2 ADD SWAP1 PUSH2 0xFC SWAP2 SWAP1 PUSH2 0x10EE JUMP JUMPDEST PUSH2 0x418 JUMP JUMPDEST STOP JUMPDEST PUSH1 0x60 PUSH1 0x0 PUSH1 0x2 DUP1 SLOAD SWAP1 POP SWAP1 POP PUSH1 0x0 DUP2 PUSH8 0xFFFFFFFFFFFFFFFF DUP2 GT ISZERO PUSH2 0x12B JUMPI PUSH2 0x12A PUSH2 0x189A JUMP JUMPDEST JUMPDEST PUSH1 0x40 MLOAD SWAP1 DUP1 DUP3 MSTORE DUP1 PUSH1 0x20 MUL PUSH1 0x20 ADD DUP3 ADD PUSH1 0x40 MSTORE DUP1 ISZERO PUSH2 0x15E JUMPI DUP2 PUSH1 0x20 ADD JUMPDEST PUSH1 0x60 DUP2 MSTORE PUSH1 0x20 ADD SWAP1 PUSH1 0x1 SWAP1 SUB SWAP1 DUP2 PUSH2 0x149 JUMPI SWAP1 POP JUMPDEST POP SWAP1 POP PUSH1 0x0 JUMPDEST DUP3 DUP2 LT ISZERO PUSH2 0x24B JUMPI PUSH1 0x2 DUP2 DUP2 SLOAD DUP2 LT PUSH2 0x180 JUMPI PUSH2 0x17F PUSH2 0x186B JUMP JUMPDEST JUMPDEST SWAP1 PUSH1 0x0 MSTORE PUSH1 0x20 PUSH1 0x0 KECCAK256 SWAP1 PUSH1 0x2 MUL ADD PUSH1 0x0 ADD DUP1 SLOAD PUSH2 0x19C SWAP1 PUSH2 0x1701 JUMP JUMPDEST DUP1 PUSH1 0x1F ADD PUSH1 0x20 DUP1 SWAP2 DIV MUL PUSH1 0x20 ADD PUSH1 0x40 MLOAD SWAP1 DUP2 ADD PUSH1 0x40 MSTORE DUP1 SWAP3 SWAP2 SWAP1 DUP2 DUP2 MSTORE PUSH1 0x20 ADD DUP3 DUP1 SLOAD PUSH2 0x1C8 SWAP1 PUSH2 0x1701 JUMP JUMPDEST DUP1 ISZERO PUSH2 0x215 JUMPI DUP1 PUSH1 0x1F LT PUSH2 0x1EA JUMPI PUSH2 0x100 DUP1 DUP4 SLOAD DIV MUL DUP4 MSTORE SWAP2 PUSH1 0x20 ADD SWAP2 PUSH2 0x215 JUMP JUMPDEST DUP3 ADD SWAP2 SWAP1 PUSH1 0x0 MSTORE PUSH1 0x20 PUSH1 0x0 KECCAK256 SWAP1 JUMPDEST DUP2 SLOAD DUP2 MSTORE SWAP1 PUSH1 0x1 ADD SWAP1 PUSH1 0x20 ADD DUP1 DUP4 GT PUSH2 0x1F8 JUMPI DUP3 SWAP1 SUB PUSH1 0x1F AND DUP3 ADD SWAP2 JUMPDEST POP POP POP POP POP DUP3 DUP3 DUP2 MLOAD DUP2 LT PUSH2 0x22D JUMPI PUSH2 0x22C PUSH2 0x186B JUMP JUMPDEST JUMPDEST PUSH1 0x20 MUL PUSH1 0x20 ADD ADD DUP2 SWAP1 MSTORE POP DUP1 DUP1 PUSH2 0x243 SWAP1 PUSH2 0x1764 JUMP JUMPDEST SWAP2 POP POP PUSH2 0x164 JUMP JUMPDEST POP DUP1 SWAP3 POP POP POP SWAP1 JUMP JUMPDEST PUSH1 0x2 DUP2 DUP2 SLOAD DUP2 LT PUSH2 0x264 JUMPI PUSH1 0x0 DUP1 REVERT JUMPDEST SWAP1 PUSH1 0x0 MSTORE PUSH1 0x20 PUSH1 0x0 KECCAK256 SWAP1 PUSH1 0x2 MUL ADD PUSH1 0x0 SWAP2 POP SWAP1 POP DUP1 PUSH1 0x0 ADD DUP1 SLOAD PUSH2 0x287 SWAP1 PUSH2 0x1701 JUMP JUMPDEST DUP1 PUSH1 0x1F ADD PUSH1 0x20 DUP1 SWAP2 DIV MUL PUSH1 0x20 ADD PUSH1 0x40 MLOAD SWAP1 DUP2 ADD PUSH1 0x40 MSTORE DUP1 SWAP3 SWAP2 SWAP1 DUP2 DUP2 MSTORE PUSH1 0x20 ADD DUP3 DUP1 SLOAD PUSH2 0x2B3 SWAP1 PUSH2 0x1701 JUMP JUMPDEST DUP1 ISZERO PUSH2 0x300 JUMPI DUP1 PUSH1 0x1F LT PUSH2 0x2D5 JUMPI PUSH2 0x100 DUP1 DUP4 SLOAD DIV MUL DUP4 MSTORE SWAP2 PUSH1 0x20 ADD SWAP2 PUSH2 0x300 JUMP JUMPDEST DUP3 ADD SWAP2 SWAP1 PUSH1 0x0 MSTORE PUSH1 0x20 PUSH1 0x0 KECCAK256 SWAP1 JUMPDEST DUP2 SLOAD DUP2 MSTORE SWAP1 PUSH1 0x1 ADD SWAP1 PUSH1 0x20 ADD DUP1 DUP4 GT PUSH2 0x2E3 JUMPI DUP3 SWAP1 SUB PUSH1 0x1F AND DUP3 ADD SWAP2 JUMPDEST POP POP POP POP POP SWAP1 DUP1 PUSH1 0x1 ADD SLOAD SWAP1 POP DUP3 JUMP JUMPDEST PUSH1 0x60 PUSH1 0x0 DUP1 PUSH1 0x0 PUSH2 0x31F PUSH2 0x5DF JUMP JUMPDEST SWAP1 POP DUP1 PUSH1 0x0 ADD MLOAD SWAP4 POP DUP1 PUSH1 0x20 ADD MLOAD SWAP3 POP PUSH2 0x337 PUSH2 0xAA2 JUMP JUMPDEST SWAP2 POP POP SWAP1 SWAP2 SWAP3 JUMP JUMPDEST DUP2 PUSH2 0x348 PUSH2 0xAAA JUMP JUMPDEST PUSH2 0x350 PUSH2 0xAF2 JUMP JUMPDEST PUSH2 0x359 DUP2 PUSH2 0xB3B JUMP JUMPDEST PUSH2 0x362 DUP2 PUSH2 0xBCE JUMP JUMPDEST DUP2 PUSH1 0x1 PUSH1 0x0 DUP6 PUSH20 0xFFFFFFFFFFFFFFFFFFFFFFFFFFFFFFFFFFFFFFFF AND PUSH20 0xFFFFFFFFFFFFFFFFFFFFFFFFFFFFFFFFFFFFFFFF AND DUP2 MSTORE PUSH1 0x20 ADD SWAP1 DUP2 MSTORE PUSH1 0x20 ADD PUSH1 0x0 KECCAK256 PUSH1 0x0 ADD SWAP1 DUP1 MLOAD SWAP1 PUSH1 0x20 ADD SWAP1 PUSH2 0x3B8 SWAP3 SWAP2 SWAP1 PUSH2 0xF3B JUMP JUMPDEST POP PUSH1 0x1 DUP1 PUSH1 0x0 DUP6 PUSH20 0xFFFFFFFFFFFFFFFFFFFFFFFFFFFFFFFFFFFFFFFF AND PUSH20 0xFFFFFFFFFFFFFFFFFFFFFFFFFFFFFFFFFFFFFFFF AND DUP2 MSTORE PUSH1 0x20 ADD SWAP1 DUP2 MSTORE PUSH1 0x20 ADD PUSH1 0x0 KECCAK256 PUSH1 0x1 ADD PUSH1 0x0 PUSH2 0x100 EXP DUP2 SLOAD DUP2 PUSH1 0xFF MUL NOT AND SWAP1 DUP4 ISZERO ISZERO MUL OR SWAP1 SSTORE POP POP POP POP JUMP JUMPDEST CALLER PUSH2 0x421 PUSH2 0xAAA JUMP JUMPDEST PUSH2 0x42A DUP2 PUSH2 0xB3B JUMP JUMPDEST PUSH2 0x433 DUP2 PUSH2 0xBCE JUMP JUMPDEST PUSH1 0x0 PUSH1 0x1 PUSH1 0x0 CALLER PUSH20 0xFFFFFFFFFFFFFFFFFFFFFFFFFFFFFFFFFFFFFFFF AND PUSH20 0xFFFFFFFFFFFFFFFFFFFFFFFFFFFFFFFFFFFFFFFF AND DUP2 MSTORE PUSH1 0x20 ADD SWAP1 DUP2 MSTORE PUSH1 0x20 ADD PUSH1 0x0 KECCAK256 SWAP1 POP PUSH1 0x0 DUP1 PUSH1 0x0 SWAP1 POP JUMPDEST PUSH1 0x2 DUP1 SLOAD SWAP1 POP DUP2 LT ISZERO PUSH2 0x5CF JUMPI PUSH2 0x542 PUSH1 0x2 DUP3 DUP2 SLOAD DUP2 LT PUSH2 0x4A2 JUMPI PUSH2 0x4A1 PUSH2 0x186B JUMP JUMPDEST JUMPDEST SWAP1 PUSH1 0x0 MSTORE PUSH1 0x20 PUSH1 0x0 KECCAK256 SWAP1 PUSH1 0x2 MUL ADD PUSH1 0x0 ADD DUP1 SLOAD PUSH2 0x4BE SWAP1 PUSH2 0x1701 JUMP JUMPDEST DUP1 PUSH1 0x1F ADD PUSH1 0x20 DUP1 SWAP2 DIV MUL PUSH1 0x20 ADD PUSH1 0x40 MLOAD SWAP1 DUP2 ADD PUSH1 0x40 MSTORE DUP1 SWAP3 SWAP2 SWAP1 DUP2 DUP2 MSTORE PUSH1 0x20 ADD DUP3 DUP1 SLOAD PUSH2 0x4EA SWAP1 PUSH2 0x1701 JUMP JUMPDEST DUP1 ISZERO PUSH2 0x537 JUMPI DUP1 PUSH1 0x1F LT PUSH2 0x50C JUMPI PUSH2 0x100 DUP1 DUP4 SLOAD DIV MUL DUP4 MSTORE SWAP2 PUSH1 0x20 ADD SWAP2 PUSH2 0x537 JUMP JUMPDEST DUP3 ADD SWAP2 SWAP1 PUSH1 0x0 MSTORE PUSH1 0x20 PUSH1 0x0 KECCAK256 SWAP1 JUMPDEST DUP2 SLOAD DUP2 MSTORE SWAP1 PUSH1 0x1 ADD SWAP1 PUSH1 0x20 ADD DUP1 DUP4 GT PUSH2 0x51A JUMPI DUP3 SWAP1 SUB PUSH1 0x1F AND DUP3 ADD SWAP2 JUMPDEST POP POP POP POP POP DUP7 PUSH2 0xC1A JUMP JUMPDEST ISZERO PUSH2 0x5BC JUMPI PUSH1 0x2 DUP2 DUP2 SLOAD DUP2 LT PUSH2 0x55B JUMPI PUSH2 0x55A PUSH2 0x186B JUMP JUMPDEST JUMPDEST SWAP1 PUSH1 0x0 MSTORE PUSH1 0x20 PUSH1 0x0 KECCAK256 SWAP1 PUSH1 0x2 MUL ADD PUSH1 0x1 ADD PUSH1 0x0 DUP2 SLOAD DUP1 SWAP3 SWAP2 SWAP1 PUSH2 0x57D SWAP1 PUSH2 0x1764 JUMP JUMPDEST SWAP2 SWAP1 POP SSTORE POP PUSH1 0x1 DUP4 PUSH1 0x1 ADD PUSH1 0x1 PUSH2 0x100 EXP DUP2 SLOAD DUP2 PUSH1 0xFF MUL NOT AND SWAP1 DUP4 ISZERO ISZERO MUL OR SWAP1 SSTORE POP PUSH1 0x3 PUSH1 0x0 DUP2 SLOAD DUP1 SWAP3 SWAP2 SWAP1 PUSH2 0x5B2 SWAP1 PUSH2 0x1764 JUMP JUMPDEST SWAP2 SWAP1 POP SSTORE POP PUSH1 0x1 SWAP2 POP JUMPDEST DUP1 DUP1 PUSH2 0x5C7 SWAP1 PUSH2 0x1764 JUMP JUMPDEST SWAP2 POP POP PUSH2 0x47E JUMP JUMPDEST POP PUSH2 0x5D9 DUP2 PUSH2 0xC73 JUMP JUMPDEST POP POP POP POP JUMP JUMPDEST PUSH2 0x5E7 PUSH2 0xFC1 JUMP JUMPDEST PUSH1 0x0 DUP1 PUSH1 0x0 PUSH1 0x2 DUP1 SLOAD SWAP1 POP SWAP1 POP PUSH1 0x0 DUP2 PUSH8 0xFFFFFFFFFFFFFFFF DUP2 GT ISZERO PUSH2 0x610 JUMPI PUSH2 0x60F PUSH2 0x189A JUMP JUMPDEST JUMPDEST PUSH1 0x40 MLOAD SWAP1 DUP1 DUP3 MSTORE DUP1 PUSH1 0x20 MUL PUSH1 0x20 ADD DUP3 ADD PUSH1 0x40 MSTORE DUP1 ISZERO PUSH2 0x643 JUMPI DUP2 PUSH1 0x20 ADD JUMPDEST PUSH1 0x60 DUP2 MSTORE PUSH1 0x20 ADD SWAP1 PUSH1 0x1 SWAP1 SUB SWAP1 DUP2 PUSH2 0x62E JUMPI SWAP1 POP JUMPDEST POP SWAP1 POP PUSH1 0x0 DUP1 PUSH1 0x1 SWAP1 POP PUSH1 0x60 PUSH1 0x0 JUMPDEST DUP6 DUP2 LT ISZERO PUSH2 0x910 JUMPI DUP8 PUSH1 0x2 DUP3 DUP2 SLOAD DUP2 LT PUSH2 0x66F JUMPI PUSH2 0x66E PUSH2 0x186B JUMP JUMPDEST JUMPDEST SWAP1 PUSH1 0x0 MSTORE PUSH1 0x20 PUSH1 0x0 KECCAK256 SWAP1 PUSH1 0x2 MUL ADD PUSH1 0x1 ADD SLOAD GT ISZERO PUSH2 0x7F0 JUMPI PUSH1 0x2 DUP2 DUP2 SLOAD DUP2 LT PUSH2 0x69B JUMPI PUSH2 0x69A PUSH2 0x186B JUMP JUMPDEST JUMPDEST SWAP1 PUSH1 0x0 MSTORE PUSH1 0x20 PUSH1 0x0 KECCAK256 SWAP1 PUSH1 0x2 MUL ADD PUSH1 0x1 ADD SLOAD SWAP8 POP DUP1 SWAP7 POP DUP3 ISZERO PUSH2 0x7EB JUMPI PUSH1 0x0 SWAP3 POP PUSH1 0x0 SWAP4 POP DUP6 PUSH8 0xFFFFFFFFFFFFFFFF DUP2 GT ISZERO PUSH2 0x6DA JUMPI PUSH2 0x6D9 PUSH2 0x189A JUMP JUMPDEST JUMPDEST PUSH1 0x40 MLOAD SWAP1 DUP1 DUP3 MSTORE DUP1 PUSH1 0x20 MUL PUSH1 0x20 ADD DUP3 ADD PUSH1 0x40 MSTORE DUP1 ISZERO PUSH2 0x70D JUMPI DUP2 PUSH1 0x20 ADD JUMPDEST PUSH1 0x60 DUP2 MSTORE PUSH1 0x20 ADD SWAP1 PUSH1 0x1 SWAP1 SUB SWAP1 DUP2 PUSH2 0x6F8 JUMPI SWAP1 POP JUMPDEST POP SWAP5 POP PUSH1 0x2 DUP2 DUP2 SLOAD DUP2 LT PUSH2 0x724 JUMPI PUSH2 0x723 PUSH2 0x186B JUMP JUMPDEST JUMPDEST SWAP1 PUSH1 0x0 MSTORE PUSH1 0x20 PUSH1 0x0 KECCAK256 SWAP1 PUSH1 0x2 MUL ADD PUSH1 0x0 ADD DUP1 SLOAD PUSH2 0x740 SWAP1 PUSH2 0x1701 JUMP JUMPDEST DUP1 PUSH1 0x1F ADD PUSH1 0x20 DUP1 SWAP2 DIV MUL PUSH1 0x20 ADD PUSH1 0x40 MLOAD SWAP1 DUP2 ADD PUSH1 0x40 MSTORE DUP1 SWAP3 SWAP2 SWAP1 DUP2 DUP2 MSTORE PUSH1 0x20 ADD DUP3 DUP1 SLOAD PUSH2 0x76C SWAP1 PUSH2 0x1701 JUMP JUMPDEST DUP1 ISZERO PUSH2 0x7B9 JUMPI DUP1 PUSH1 0x1F LT PUSH2 0x78E JUMPI PUSH2 0x100 DUP1 DUP4 SLOAD DIV MUL DUP4 MSTORE SWAP2 PUSH1 0x20 ADD SWAP2 PUSH2 0x7B9 JUMP JUMPDEST DUP3 ADD SWAP2 SWAP1 PUSH1 0x0 MSTORE PUSH1 0x20 PUSH1 0x0 KECCAK256 SWAP1 JUMPDEST DUP2 SLOAD DUP2 MSTORE SWAP1 PUSH1 0x1 ADD SWAP1 PUSH1 0x20 ADD DUP1 DUP4 GT PUSH2 0x79C JUMPI DUP3 SWAP1 SUB PUSH1 0x1F AND DUP3 ADD SWAP2 JUMPDEST POP POP POP POP POP DUP6 DUP6 DUP2 MLOAD DUP2 LT PUSH2 0x7D1 JUMPI PUSH2 0x7D0 PUSH2 0x186B JUMP JUMPDEST JUMPDEST PUSH1 0x20 MUL PUSH1 0x20 ADD ADD DUP2 SWAP1 MSTORE POP DUP4 DUP1 PUSH2 0x7E7 SWAP1 PUSH2 0x1764 JUMP JUMPDEST SWAP5 POP POP JUMPDEST PUSH2 0x8FD JUMP JUMPDEST DUP8 PUSH1 0x2 DUP3 DUP2 SLOAD DUP2 LT PUSH2 0x805 JUMPI PUSH2 0x804 PUSH2 0x186B JUMP JUMPDEST JUMPDEST SWAP1 PUSH1 0x0 MSTORE PUSH1 0x20 PUSH1 0x0 KECCAK256 SWAP1 PUSH1 0x2 MUL ADD PUSH1 0x1 ADD SLOAD EQ ISZERO PUSH2 0x8FC JUMPI PUSH1 0x1 SWAP3 POP PUSH1 0x2 DUP2 DUP2 SLOAD DUP2 LT PUSH2 0x835 JUMPI PUSH2 0x834 PUSH2 0x186B JUMP JUMPDEST JUMPDEST SWAP1 PUSH1 0x0 MSTORE PUSH1 0x20 PUSH1 0x0 KECCAK256 SWAP1 PUSH1 0x2 MUL ADD PUSH1 0x0 ADD DUP1 SLOAD PUSH2 0x851 SWAP1 PUSH2 0x1701 JUMP JUMPDEST DUP1 PUSH1 0x1F ADD PUSH1 0x20 DUP1 SWAP2 DIV MUL PUSH1 0x20 ADD PUSH1 0x40 MLOAD SWAP1 DUP2 ADD PUSH1 0x40 MSTORE DUP1 SWAP3 SWAP2 SWAP1 DUP2 DUP2 MSTORE PUSH1 0x20 ADD DUP3 DUP1 SLOAD PUSH2 0x87D SWAP1 PUSH2 0x1701 JUMP JUMPDEST DUP1 ISZERO PUSH2 0x8CA JUMPI DUP1 PUSH1 0x1F LT PUSH2 0x89F JUMPI PUSH2 0x100 DUP1 DUP4 SLOAD DIV MUL DUP4 MSTORE SWAP2 PUSH1 0x20 ADD SWAP2 PUSH2 0x8CA JUMP JUMPDEST DUP3 ADD SWAP2 SWAP1 PUSH1 0x0 MSTORE PUSH1 0x20 PUSH1 0x0 KECCAK256 SWAP1 JUMPDEST DUP2 SLOAD DUP2 MSTORE SWAP1 PUSH1 0x1 ADD SWAP1 PUSH1 0x20 ADD DUP1 DUP4 GT PUSH2 0x8AD JUMPI DUP3 SWAP1 SUB PUSH1 0x1F AND DUP3 ADD SWAP2 JUMPDEST POP POP POP POP POP DUP6 DUP6 DUP2 MLOAD DUP2 LT PUSH2 0x8E2 JUMPI PUSH2 0x8E1 PUSH2 0x186B JUMP JUMPDEST JUMPDEST PUSH1 0x20 MUL PUSH1 0x20 ADD ADD DUP2 SWAP1 MSTORE POP DUP4 DUP1 PUSH2 0x8F8 SWAP1 PUSH2 0x1764 JUMP JUMPDEST SWAP5 POP POP JUMPDEST JUMPDEST DUP1 DUP1 PUSH2 0x908 SWAP1 PUSH2 0x1764 JUMP JUMPDEST SWAP2 POP POP PUSH2 0x652 JUMP JUMPDEST POP DUP2 ISZERO PUSH2 0x9CC JUMPI PUSH1 0x0 JUMPDEST DUP5 MLOAD DUP2 LT ISZERO PUSH2 0x95C JUMPI PUSH2 0x947 DUP3 DUP7 DUP4 DUP2 MLOAD DUP2 LT PUSH2 0x93A JUMPI PUSH2 0x939 PUSH2 0x186B JUMP JUMPDEST JUMPDEST PUSH1 0x20 MUL PUSH1 0x20 ADD ADD MLOAD PUSH2 0xCB6 JUMP JUMPDEST SWAP2 POP DUP1 DUP1 PUSH2 0x954 SWAP1 PUSH2 0x1764 JUMP JUMPDEST SWAP2 POP POP PUSH2 0x91A JUMP JUMPDEST POP PUSH1 0x0 PUSH2 0x989 PUSH1 0x40 MLOAD DUP1 PUSH1 0x60 ADD PUSH1 0x40 MSTORE DUP1 PUSH1 0x33 DUP2 MSTORE PUSH1 0x20 ADD PUSH2 0x1ADF PUSH1 0x33 SWAP2 CODECOPY PUSH2 0x984 DUP11 PUSH2 0xCE2 JUMP JUMPDEST PUSH2 0xCB6 JUMP JUMPDEST SWAP1 POP PUSH2 0x9AD DUP2 PUSH1 0x40 MLOAD DUP1 PUSH1 0x60 ADD PUSH1 0x40 MSTORE DUP1 PUSH1 0x34 DUP2 MSTORE PUSH1 0x20 ADD PUSH2 0x1AAB PUSH1 0x34 SWAP2 CODECOPY PUSH2 0xCB6 JUMP JUMPDEST SWAP1 POP PUSH2 0x9B9 DUP2 DUP4 PUSH2 0xCB6 JUMP JUMPDEST SWAP1 POP PUSH2 0x9C6 DUP4 ISZERO DUP3 PUSH2 0xE43 JUMP JUMPDEST POP PUSH2 0xA98 JUMP JUMPDEST PUSH1 0x2 DUP7 DUP2 SLOAD DUP2 LT PUSH2 0x9E0 JUMPI PUSH2 0x9DF PUSH2 0x186B JUMP JUMPDEST JUMPDEST SWAP1 PUSH1 0x0 MSTORE PUSH1 0x20 PUSH1 0x0 KECCAK256 SWAP1 PUSH1 0x2 MUL ADD PUSH1 0x40 MLOAD DUP1 PUSH1 0x40 ADD PUSH1 0x40 MSTORE SWAP1 DUP2 PUSH1 0x0 DUP3 ADD DUP1 SLOAD PUSH2 0xA09 SWAP1 PUSH2 0x1701 JUMP JUMPDEST DUP1 PUSH1 0x1F ADD PUSH1 0x20 DUP1 SWAP2 DIV MUL PUSH1 0x20 ADD PUSH1 0x40 MLOAD SWAP1 DUP2 ADD PUSH1 0x40 MSTORE DUP1 SWAP3 SWAP2 SWAP1 DUP2 DUP2 MSTORE PUSH1 0x20 ADD DUP3 DUP1 SLOAD PUSH2 0xA35 SWAP1 PUSH2 0x1701 JUMP JUMPDEST DUP1 ISZERO PUSH2 0xA82 JUMPI DUP1 PUSH1 0x1F LT PUSH2 0xA57 JUMPI PUSH2 0x100 DUP1 DUP4 SLOAD DIV MUL DUP4 MSTORE SWAP2 PUSH1 0x20 ADD SWAP2 PUSH2 0xA82 JUMP JUMPDEST DUP3 ADD SWAP2 SWAP1 PUSH1 0x0 MSTORE PUSH1 0x20 PUSH1 0x0 KECCAK256 SWAP1 JUMPDEST DUP2 SLOAD DUP2 MSTORE SWAP1 PUSH1 0x1 ADD SWAP1 PUSH1 0x20 ADD DUP1 DUP4 GT PUSH2 0xA65 JUMPI DUP3 SWAP1 SUB PUSH1 0x1F AND DUP3 ADD SWAP2 JUMPDEST POP POP POP POP POP DUP2 MSTORE PUSH1 0x20 ADD PUSH1 0x1 DUP3 ADD SLOAD DUP2 MSTORE POP POP SWAP8 POP JUMPDEST POP POP POP POP POP POP POP SWAP1 JUMP JUMPDEST PUSH1 0x0 ADDRESS SWAP1 POP SWAP1 JUMP JUMPDEST PUSH1 0x4 SLOAD PUSH1 0x3 SLOAD LT PUSH2 0xAF0 JUMPI PUSH1 0x40 MLOAD PUSH32 0x8C379A000000000000000000000000000000000000000000000000000000000 DUP2 MSTORE PUSH1 0x4 ADD PUSH2 0xAE7 SWAP1 PUSH2 0x14A1 JUMP JUMPDEST PUSH1 0x40 MLOAD DUP1 SWAP2 SUB SWAP1 REVERT JUMPDEST JUMP JUMPDEST PUSH2 0xAFA PUSH2 0xE8B JUMP JUMPDEST PUSH2 0xB39 JUMPI PUSH1 0x40 MLOAD PUSH32 0x8C379A000000000000000000000000000000000000000000000000000000000 DUP2 MSTORE PUSH1 0x4 ADD PUSH2 0xB30 SWAP1 PUSH2 0x14C1 JUMP JUMPDEST PUSH1 0x40 MLOAD DUP1 SWAP2 SUB SWAP1 REVERT JUMPDEST JUMP JUMPDEST PUSH1 0x1 PUSH1 0x0 DUP3 PUSH20 0xFFFFFFFFFFFFFFFFFFFFFFFFFFFFFFFFFFFFFFFF AND PUSH20 0xFFFFFFFFFFFFFFFFFFFFFFFFFFFFFFFFFFFFFFFF AND DUP2 MSTORE PUSH1 0x20 ADD SWAP1 DUP2 MSTORE PUSH1 0x20 ADD PUSH1 0x0 KECCAK256 PUSH1 0x1 ADD PUSH1 0x0 SWAP1 SLOAD SWAP1 PUSH2 0x100 EXP SWAP1 DIV PUSH1 0xFF AND ISZERO PUSH2 0xBCB JUMPI PUSH1 0x40 MLOAD PUSH32 0x8C379A000000000000000000000000000000000000000000000000000000000 DUP2 MSTORE PUSH1 0x4 ADD PUSH2 0xBC2 SWAP1 PUSH2 0x1461 JUMP JUMPDEST PUSH1 0x40 MLOAD DUP1 SWAP2 SUB SWAP1 REVERT JUMPDEST POP JUMP JUMPDEST PUSH2 0xBD7 DUP2 PUSH2 0xEE2 JUMP JUMPDEST ISZERO PUSH2 0xC17 JUMPI PUSH1 0x40 MLOAD PUSH32 0x8C379A000000000000000000000000000000000000000000000000000000000 DUP2 MSTORE PUSH1 0x4 ADD PUSH2 0xC0E SWAP1 PUSH2 0x14E1 JUMP JUMPDEST PUSH1 0x40 MLOAD DUP1 SWAP2 SUB SWAP1 REVERT JUMPDEST POP JUMP JUMPDEST PUSH1 0x0 DUP2 PUSH1 0x40 MLOAD PUSH1 0x20 ADD PUSH2 0xC2D SWAP2 SWAP1 PUSH2 0x13D1 JUMP JUMPDEST PUSH1 0x40 MLOAD PUSH1 0x20 DUP2 DUP4 SUB SUB DUP2 MSTORE SWAP1 PUSH1 0x40 MSTORE DUP1 MLOAD SWAP1 PUSH1 0x20 ADD KECCAK256 DUP4 PUSH1 0x40 MLOAD PUSH1 0x20 ADD PUSH2 0xC54 SWAP2 SWAP1 PUSH2 0x13D1 JUMP JUMPDEST PUSH1 0x40 MLOAD PUSH1 0x20 DUP2 DUP4 SUB SUB DUP2 MSTORE SWAP1 PUSH1 0x40 MSTORE DUP1 MLOAD SWAP1 PUSH1 0x20 ADD KECCAK256 EQ SWAP1 POP SWAP3 SWAP2 POP POP JUMP JUMPDEST DUP1 PUSH2 0xCB3 JUMPI PUSH1 0x40 MLOAD PUSH32 0x8C379A000000000000000000000000000000000000000000000000000000000 DUP2 MSTORE PUSH1 0x4 ADD PUSH2 0xCAA SWAP1 PUSH2 0x1481 JUMP JUMPDEST PUSH1 0x40 MLOAD DUP1 SWAP2 SUB SWAP1 REVERT JUMPDEST POP JUMP JUMPDEST PUSH1 0x60 DUP3 DUP3 PUSH1 0x40 MLOAD PUSH1 0x20 ADD PUSH2 0xCCB SWAP3 SWAP2 SWAP1 PUSH2 0x1380 JUMP JUMPDEST PUSH1 0x40 MLOAD PUSH1 0x20 DUP2 DUP4 SUB SUB DUP2 MSTORE SWAP1 PUSH1 0x40 MSTORE SWAP1 POP SWAP3 SWAP2 POP POP JUMP JUMPDEST PUSH1 0x60 PUSH1 0x0 DUP3 EQ ISZERO PUSH2 0xD2A JUMPI PUSH1 0x40 MLOAD DUP1 PUSH1 0x40 ADD PUSH1 0x40 MSTORE DUP1 PUSH1 0x1 DUP2 MSTORE PUSH1 0x20 ADD PUSH32 0x3000000000000000000000000000000000000000000000000000000000000000 DUP2 MSTORE POP SWAP1 POP PUSH2 0xE3E JUMP JUMPDEST PUSH1 0x0 DUP3 SWAP1 POP PUSH1 0x0 JUMPDEST PUSH1 0x0 DUP3 EQ PUSH2 0xD5C JUMPI DUP1 DUP1 PUSH2 0xD45 SWAP1 PUSH2 0x1764 JUMP JUMPDEST SWAP2 POP POP PUSH1 0xA DUP3 PUSH2 0xD55 SWAP2 SWAP1 PUSH2 0x161E JUMP JUMPDEST SWAP2 POP PUSH2 0xD32 JUMP JUMPDEST PUSH1 0x0 DUP2 PUSH8 0xFFFFFFFFFFFFFFFF DUP2 GT ISZERO PUSH2 0xD78 JUMPI PUSH2 0xD77 PUSH2 0x189A JUMP JUMPDEST JUMPDEST PUSH1 0x40 MLOAD SWAP1 DUP1 DUP3 MSTORE DUP1 PUSH1 0x1F ADD PUSH1 0x1F NOT AND PUSH1 0x20 ADD DUP3 ADD PUSH1 0x40 MSTORE DUP1 ISZERO PUSH2 0xDAA JUMPI DUP2 PUSH1 0x20 ADD PUSH1 0x1 DUP3 MUL DUP1 CALLDATASIZE DUP4 CALLDATACOPY DUP1 DUP3 ADD SWAP2 POP POP SWAP1 POP JUMPDEST POP SWAP1 POP JUMPDEST PUSH1 0x0 DUP6 EQ PUSH2 0xE37 JUMPI PUSH1 0x1 DUP3 PUSH2 0xDC3 SWAP2 SWAP1 PUSH2 0x164F JUMP JUMPDEST SWAP2 POP PUSH1 0xA DUP6 PUSH2 0xDD2 SWAP2 SWAP1 PUSH2 0x17AD JUMP JUMPDEST PUSH1 0x30 PUSH2 0xDDE SWAP2 SWAP1 PUSH2 0x15C8 JUMP JUMPDEST PUSH1 0xF8 SHL DUP2 DUP4 DUP2 MLOAD DUP2 LT PUSH2 0xDF4 JUMPI PUSH2 0xDF3 PUSH2 0x186B JUMP JUMPDEST JUMPDEST PUSH1 0x20 ADD ADD SWAP1 PUSH31 0xFFFFFFFFFFFFFFFFFFFFFFFFFFFFFFFFFFFFFFFFFFFFFFFFFFFFFFFFFFFFFF NOT AND SWAP1 DUP2 PUSH1 0x0 BYTE SWAP1 MSTORE8 POP PUSH1 0xA DUP6 PUSH2 0xE30 SWAP2 SWAP1 PUSH2 0x161E JUMP JUMPDEST SWAP5 POP PUSH2 0xDAE JUMP JUMPDEST DUP1 SWAP4 POP POP POP POP JUMPDEST SWAP2 SWAP1 POP JUMP JUMPDEST DUP2 DUP2 SWAP1 PUSH2 0xE86 JUMPI PUSH1 0x40 MLOAD PUSH32 0x8C379A000000000000000000000000000000000000000000000000000000000 DUP2 MSTORE PUSH1 0x4 ADD PUSH2 0xE7D SWAP2 SWAP1 PUSH2 0x13D1 JUMP JUMPDEST PUSH1 0x40 MLOAD DUP1 SWAP2 SUB SWAP1 REVERT JUMPDEST POP POP POP JUMP JUMPDEST PUSH1 0x0 DUP1 PUSH1 0x0 SWAP1 SLOAD SWAP1 PUSH2 0x100 EXP SWAP1 DIV PUSH20 0xFFFFFFFFFFFFFFFFFFFFFFFFFFFFFFFFFFFFFFFF AND PUSH20 0xFFFFFFFFFFFFFFFFFFFFFFFFFFFFFFFFFFFFFFFF AND CALLER PUSH20 0xFFFFFFFFFFFFFFFFFFFFFFFFFFFFFFFFFFFFFFFF AND EQ SWAP1 POP SWAP1 JUMP JUMPDEST PUSH1 0x0 PUSH1 0x1 PUSH1 0x0 DUP4 PUSH20 0xFFFFFFFFFFFFFFFFFFFFFFFFFFFFFFFFFFFFFFFF AND PUSH20 0xFFFFFFFFFFFFFFFFFFFFFFFFFFFFFFFFFFFFFFFF AND DUP2 MSTORE PUSH1 0x20 ADD SWAP1 DUP2 MSTORE PUSH1 0x20 ADD PUSH1 0x0 KECCAK256 PUSH1 0x1 ADD PUSH1 0x1 SWAP1 SLOAD SWAP1 PUSH2 0x100 EXP SWAP1 DIV PUSH1 0xFF AND SWAP1 POP SWAP2 SWAP1 POP JUMP JUMPDEST DUP3 DUP1 SLOAD PUSH2 0xF47 SWAP1 PUSH2 0x1701 JUMP JUMPDEST SWAP1 PUSH1 0x0 MSTORE PUSH1 0x20 PUSH1 0x0 KECCAK256 SWAP1 PUSH1 0x1F ADD PUSH1 0x20 SWAP1 DIV DUP2 ADD SWAP3 DUP3 PUSH2 0xF69 JUMPI PUSH1 0x0 DUP6 SSTORE PUSH2 0xFB0 JUMP JUMPDEST DUP3 PUSH1 0x1F LT PUSH2 0xF82 JUMPI DUP1 MLOAD PUSH1 0xFF NOT AND DUP4 DUP1 ADD OR DUP6 SSTORE PUSH2 0xFB0 JUMP JUMPDEST DUP3 DUP1 ADD PUSH1 0x1 ADD DUP6 SSTORE DUP3 ISZERO PUSH2 0xFB0 JUMPI SWAP2 DUP3 ADD JUMPDEST DUP3 DUP2 GT ISZERO PUSH2 0xFAF JUMPI DUP3 MLOAD DUP3 SSTORE SWAP2 PUSH1 0x20 ADD SWAP2 SWAP1 PUSH1 0x1 ADD SWAP1 PUSH2 0xF94 JUMP JUMPDEST JUMPDEST POP SWAP1 POP PUSH2 0xFBD SWAP2 SWAP1 PUSH2 0xFDB JUMP JUMPDEST POP SWAP1 JUMP JUMPDEST PUSH1 0x40 MLOAD DUP1 PUSH1 0x40 ADD PUSH1 0x40 MSTORE DUP1 PUSH1 0x60 DUP2 MSTORE PUSH1 0x20 ADD PUSH1 0x0 DUP2 MSTORE POP SWAP1 JUMP JUMPDEST JUMPDEST DUP1 DUP3 GT ISZERO PUSH2 0xFF4 JUMPI PUSH1 0x0 DUP2 PUSH1 0x0 SWAP1 SSTORE POP PUSH1 0x1 ADD PUSH2 0xFDC JUMP JUMPDEST POP SWAP1 JUMP JUMPDEST PUSH1 0x0 PUSH2 0x100B PUSH2 0x1006 DUP5 PUSH2 0x1526 JUMP JUMPDEST PUSH2 0x1501 JUMP JUMPDEST SWAP1 POP DUP3 DUP2 MSTORE PUSH1 0x20 DUP2 ADD DUP5 DUP5 DUP5 ADD GT ISZERO PUSH2 0x1027 JUMPI PUSH2 0x1026 PUSH2 0x18CE JUMP JUMPDEST JUMPDEST PUSH2 0x1032 DUP5 DUP3 DUP6 PUSH2 0x16BF JUMP JUMPDEST POP SWAP4 SWAP3 POP POP POP JUMP JUMPDEST PUSH1 0x0 DUP2 CALLDATALOAD SWAP1 POP PUSH2 0x1049 DUP2 PUSH2 0x1A7C JUMP JUMPDEST SWAP3 SWAP2 POP POP JUMP JUMPDEST PUSH1 0x0 DUP3 PUSH1 0x1F DUP4 ADD SLT PUSH2 0x1064 JUMPI PUSH2 0x1063 PUSH2 0x18C9 JUMP JUMPDEST JUMPDEST DUP2 CALLDATALOAD PUSH2 0x1074 DUP5 DUP3 PUSH1 0x20 DUP7 ADD PUSH2 0xFF8 JUMP JUMPDEST SWAP2 POP POP SWAP3 SWAP2 POP POP JUMP JUMPDEST PUSH1 0x0 DUP2 CALLDATALOAD SWAP1 POP PUSH2 0x108C DUP2 PUSH2 0x1A93 JUMP JUMPDEST SWAP3 SWAP2 POP POP JUMP JUMPDEST PUSH1 0x0 DUP1 PUSH1 0x40 DUP4 DUP6 SUB SLT ISZERO PUSH2 0x10A9 JUMPI PUSH2 0x10A8 PUSH2 0x18D8 JUMP JUMPDEST JUMPDEST PUSH1 0x0 PUSH2 0x10B7 DUP6 DUP3 DUP7 ADD PUSH2 0x103A JUMP JUMPDEST SWAP3 POP POP PUSH1 0x20 DUP4 ADD CALLDATALOAD PUSH8 0xFFFFFFFFFFFFFFFF DUP2 GT ISZERO PUSH2 0x10D8 JUMPI PUSH2 0x10D7 PUSH2 0x18D3 JUMP JUMPDEST JUMPDEST PUSH2 0x10E4 DUP6 DUP3 DUP7 ADD PUSH2 0x104F JUMP JUMPDEST SWAP2 POP POP SWAP3 POP SWAP3 SWAP1 POP JUMP JUMPDEST PUSH1 0x0 PUSH1 0x20 DUP3 DUP5 SUB SLT ISZERO PUSH2 0x1104 JUMPI PUSH2 0x1103 PUSH2 0x18D8 JUMP JUMPDEST JUMPDEST PUSH1 0x0 DUP3 ADD CALLDATALOAD PUSH8 0xFFFFFFFFFFFFFFFF DUP2 GT ISZERO PUSH2 0x1122 JUMPI PUSH2 0x1121 PUSH2 0x18D3 JUMP JUMPDEST JUMPDEST PUSH2 0x112E DUP5 DUP3 DUP6 ADD PUSH2 0x104F JUMP JUMPDEST SWAP2 POP POP SWAP3 SWAP2 POP POP JUMP JUMPDEST PUSH1 0x0 PUSH1 0x20 DUP3 DUP5 SUB SLT ISZERO PUSH2 0x114D JUMPI PUSH2 0x114C PUSH2 0x18D8 JUMP JUMPDEST JUMPDEST PUSH1 0x0 PUSH2 0x115B DUP5 DUP3 DUP6 ADD PUSH2 0x107D JUMP JUMPDEST SWAP2 POP POP SWAP3 SWAP2 POP POP JUMP JUMPDEST PUSH1 0x0 PUSH2 0x1170 DUP4 DUP4 PUSH2 0x11FC JUMP JUMPDEST SWAP1 POP SWAP3 SWAP2 POP POP JUMP JUMPDEST PUSH2 0x1181 DUP2 PUSH2 0x1683 JUMP JUMPDEST DUP3 MSTORE POP POP JUMP JUMPDEST PUSH1 0x0 PUSH2 0x1192 DUP3 PUSH2 0x1567 JUMP JUMPDEST PUSH2 0x119C DUP2 DUP6 PUSH2 0x158A JUMP JUMPDEST SWAP4 POP DUP4 PUSH1 0x20 DUP3 MUL DUP6 ADD PUSH2 0x11AE DUP6 PUSH2 0x1557 JUMP JUMPDEST DUP1 PUSH1 0x0 JUMPDEST DUP6 DUP2 LT ISZERO PUSH2 0x11EA JUMPI DUP5 DUP5 SUB DUP10 MSTORE DUP2 MLOAD PUSH2 0x11CB DUP6 DUP3 PUSH2 0x1164 JUMP JUMPDEST SWAP5 POP PUSH2 0x11D6 DUP4 PUSH2 0x157D JUMP JUMPDEST SWAP3 POP PUSH1 0x20 DUP11 ADD SWAP10 POP POP PUSH1 0x1 DUP2 ADD SWAP1 POP PUSH2 0x11B2 JUMP JUMPDEST POP DUP3 SWAP8 POP DUP8 SWAP6 POP POP POP POP POP POP SWAP3 SWAP2 POP POP JUMP JUMPDEST PUSH1 0x0 PUSH2 0x1207 DUP3 PUSH2 0x1572 JUMP JUMPDEST PUSH2 0x1211 DUP2 DUP6 PUSH2 0x159B JUMP JUMPDEST SWAP4 POP PUSH2 0x1221 DUP2 DUP6 PUSH1 0x20 DUP7 ADD PUSH2 0x16CE JUMP JUMPDEST PUSH2 0x122A DUP2 PUSH2 0x18DD JUMP JUMPDEST DUP5 ADD SWAP2 POP POP SWAP3 SWAP2 POP POP JUMP JUMPDEST PUSH1 0x0 PUSH2 0x1240 DUP3 PUSH2 0x1572 JUMP JUMPDEST PUSH2 0x124A DUP2 DUP6 PUSH2 0x15AC JUMP JUMPDEST SWAP4 POP PUSH2 0x125A DUP2 DUP6 PUSH1 0x20 DUP7 ADD PUSH2 0x16CE JUMP JUMPDEST PUSH2 0x1263 DUP2 PUSH2 0x18DD JUMP JUMPDEST DUP5 ADD SWAP2 POP POP SWAP3 SWAP2 POP POP JUMP JUMPDEST PUSH1 0x0 PUSH2 0x1279 DUP3 PUSH2 0x1572 JUMP JUMPDEST PUSH2 0x1283 DUP2 DUP6 PUSH2 0x15BD JUMP JUMPDEST SWAP4 POP PUSH2 0x1293 DUP2 DUP6 PUSH1 0x20 DUP7 ADD PUSH2 0x16CE JUMP JUMPDEST DUP1 DUP5 ADD SWAP2 POP POP SWAP3 SWAP2 POP POP JUMP JUMPDEST PUSH1 0x0 PUSH2 0x12AC PUSH1 0x25 DUP4 PUSH2 0x15AC JUMP JUMPDEST SWAP2 POP PUSH2 0x12B7 DUP3 PUSH2 0x18EE JUMP JUMPDEST PUSH1 0x40 DUP3 ADD SWAP1 POP SWAP2 SWAP1 POP JUMP JUMPDEST PUSH1 0x0 PUSH2 0x12CF PUSH1 0x21 DUP4 PUSH2 0x15AC JUMP JUMPDEST SWAP2 POP PUSH2 0x12DA DUP3 PUSH2 0x193D JUMP JUMPDEST PUSH1 0x40 DUP3 ADD SWAP1 POP SWAP2 SWAP1 POP JUMP JUMPDEST PUSH1 0x0 PUSH2 0x12F2 PUSH1 0x2F DUP4 PUSH2 0x15AC JUMP JUMPDEST SWAP2 POP PUSH2 0x12FD DUP3 PUSH2 0x198C JUMP JUMPDEST PUSH1 0x40 DUP3 ADD SWAP1 POP SWAP2 SWAP1 POP JUMP JUMPDEST PUSH1 0x0 PUSH2 0x1315 PUSH1 0x2F DUP4 PUSH2 0x15AC JUMP JUMPDEST SWAP2 POP PUSH2 0x1320 DUP3 PUSH2 0x19DB JUMP JUMPDEST PUSH1 0x40 DUP3 ADD SWAP1 POP SWAP2 SWAP1 POP JUMP JUMPDEST PUSH1 0x0 PUSH2 0x1338 PUSH1 0x1 DUP4 PUSH2 0x15BD JUMP JUMPDEST SWAP2 POP PUSH2 0x1343 DUP3 PUSH2 0x1A2A JUMP JUMPDEST PUSH1 0x1 DUP3 ADD SWAP1 POP SWAP2 SWAP1 POP JUMP JUMPDEST PUSH1 0x0 PUSH2 0x135B PUSH1 0x14 DUP4 PUSH2 0x15AC JUMP JUMPDEST SWAP2 POP PUSH2 0x1366 DUP3 PUSH2 0x1A53 JUMP JUMPDEST PUSH1 0x20 DUP3 ADD SWAP1 POP SWAP2 SWAP1 POP JUMP JUMPDEST PUSH2 0x137A DUP2 PUSH2 0x16B5 JUMP JUMPDEST DUP3 MSTORE POP POP JUMP JUMPDEST PUSH1 0x0 PUSH2 0x138C DUP3 DUP6 PUSH2 0x126E JUMP JUMPDEST SWAP2 POP PUSH2 0x1397 DUP3 PUSH2 0x132B JUMP JUMPDEST SWAP2 POP PUSH2 0x13A3 DUP3 DUP5 PUSH2 0x126E JUMP JUMPDEST SWAP2 POP DUP2 SWAP1 POP SWAP4 SWAP3 POP POP POP JUMP JUMPDEST PUSH1 0x0 PUSH1 0x20 DUP3 ADD SWAP1 POP DUP2 DUP2 SUB PUSH1 0x0 DUP4 ADD MSTORE PUSH2 0x13C9 DUP2 DUP5 PUSH2 0x1187 JUMP JUMPDEST SWAP1 POP SWAP3 SWAP2 POP POP JUMP JUMPDEST PUSH1 0x0 PUSH1 0x20 DUP3 ADD SWAP1 POP DUP2 DUP2 SUB PUSH1 0x0 DUP4 ADD MSTORE PUSH2 0x13EB DUP2 DUP5 PUSH2 0x1235 JUMP JUMPDEST SWAP1 POP SWAP3 SWAP2 POP POP JUMP JUMPDEST PUSH1 0x0 PUSH1 0x40 DUP3 ADD SWAP1 POP DUP2 DUP2 SUB PUSH1 0x0 DUP4 ADD MSTORE PUSH2 0x140D DUP2 DUP6 PUSH2 0x1235 JUMP JUMPDEST SWAP1 POP PUSH2 0x141C PUSH1 0x20 DUP4 ADD DUP5 PUSH2 0x1371 JUMP JUMPDEST SWAP4 SWAP3 POP POP POP JUMP JUMPDEST PUSH1 0x0 PUSH1 0x60 DUP3 ADD SWAP1 POP DUP2 DUP2 SUB PUSH1 0x0 DUP4 ADD MSTORE PUSH2 0x143D DUP2 DUP7 PUSH2 0x1235 JUMP JUMPDEST SWAP1 POP PUSH2 0x144C PUSH1 0x20 DUP4 ADD DUP6 PUSH2 0x1371 JUMP JUMPDEST PUSH2 0x1459 PUSH1 0x40 DUP4 ADD DUP5 PUSH2 0x1178 JUMP JUMPDEST SWAP5 SWAP4 POP POP POP POP JUMP JUMPDEST PUSH1 0x0 PUSH1 0x20 DUP3 ADD SWAP1 POP DUP2 DUP2 SUB PUSH1 0x0 DUP4 ADD MSTORE PUSH2 0x147A DUP2 PUSH2 0x129F JUMP JUMPDEST SWAP1 POP SWAP2 SWAP1 POP JUMP JUMPDEST PUSH1 0x0 PUSH1 0x20 DUP3 ADD SWAP1 POP DUP2 DUP2 SUB PUSH1 0x0 DUP4 ADD MSTORE PUSH2 0x149A DUP2 PUSH2 0x12C2 JUMP JUMPDEST SWAP1 POP SWAP2 SWAP1 POP JUMP JUMPDEST PUSH1 0x0 PUSH1 0x20 DUP3 ADD SWAP1 POP DUP2 DUP2 SUB PUSH1 0x0 DUP4 ADD MSTORE PUSH2 0x14BA DUP2 PUSH2 0x12E5 JUMP JUMPDEST SWAP1 POP SWAP2 SWAP1 POP JUMP JUMPDEST PUSH1 0x0 PUSH1 0x20 DUP3 ADD SWAP1 POP DUP2 DUP2 SUB PUSH1 0x0 DUP4 ADD MSTORE PUSH2 0x14DA DUP2 PUSH2 0x1308 JUMP JUMPDEST SWAP1 POP SWAP2 SWAP1 POP JUMP JUMPDEST PUSH1 0x0 PUSH1 0x20 DUP3 ADD SWAP1 POP DUP2 DUP2 SUB PUSH1 0x0 DUP4 ADD MSTORE PUSH2 0x14FA DUP2 PUSH2 0x134E JUMP JUMPDEST SWAP1 POP SWAP2 SWAP1 POP JUMP JUMPDEST PUSH1 0x0 PUSH2 0x150B PUSH2 0x151C JUMP JUMPDEST SWAP1 POP PUSH2 0x1517 DUP3 DUP3 PUSH2 0x1733 JUMP JUMPDEST SWAP2 SWAP1 POP JUMP JUMPDEST PUSH1 0x0 PUSH1 0x40 MLOAD SWAP1 POP SWAP1 JUMP JUMPDEST PUSH1 0x0 PUSH8 0xFFFFFFFFFFFFFFFF DUP3 GT ISZERO PUSH2 0x1541 JUMPI PUSH2 0x1540 PUSH2 0x189A JUMP JUMPDEST JUMPDEST PUSH2 0x154A DUP3 PUSH2 0x18DD JUMP JUMPDEST SWAP1 POP PUSH1 0x20 DUP2 ADD SWAP1 POP SWAP2 SWAP1 POP JUMP JUMPDEST PUSH1 0x0 DUP2 SWAP1 POP PUSH1 0x20 DUP3 ADD SWAP1 POP SWAP2 SWAP1 POP JUMP JUMPDEST PUSH1 0x0 DUP2 MLOAD SWAP1 POP SWAP2 SWAP1 POP JUMP JUMPDEST PUSH1 0x0 DUP2 MLOAD SWAP1 POP SWAP2 SWAP1 POP JUMP JUMPDEST PUSH1 0x0 PUSH1 0x20 DUP3 ADD SWAP1 POP SWAP2 SWAP1 POP JUMP JUMPDEST PUSH1 0x0 DUP3 DUP3 MSTORE PUSH1 0x20 DUP3 ADD SWAP1 POP SWAP3 SWAP2 POP POP JUMP JUMPDEST PUSH1 0x0 DUP3 DUP3 MSTORE PUSH1 0x20 DUP3 ADD SWAP1 POP SWAP3 SWAP2 POP POP JUMP JUMPDEST PUSH1 0x0 DUP3 DUP3 MSTORE PUSH1 0x20 DUP3 ADD SWAP1 POP SWAP3 SWAP2 POP POP JUMP JUMPDEST PUSH1 0x0 DUP2 SWAP1 POP SWAP3 SWAP2 POP POP JUMP JUMPDEST PUSH1 0x0 PUSH2 0x15D3 DUP3 PUSH2 0x16B5 JUMP JUMPDEST SWAP2 POP PUSH2 0x15DE DUP4 PUSH2 0x16B5 JUMP JUMPDEST SWAP3 POP DUP3 PUSH32 0xFFFFFFFFFFFFFFFFFFFFFFFFFFFFFFFFFFFFFFFFFFFFFFFFFFFFFFFFFFFFFFFF SUB DUP3 GT ISZERO PUSH2 0x1613 JUMPI PUSH2 0x1612 PUSH2 0x17DE JUMP JUMPDEST JUMPDEST DUP3 DUP3 ADD SWAP1 POP SWAP3 SWAP2 POP POP JUMP JUMPDEST PUSH1 0x0 PUSH2 0x1629 DUP3 PUSH2 0x16B5 JUMP JUMPDEST SWAP2 POP PUSH2 0x1634 DUP4 PUSH2 0x16B5 JUMP JUMPDEST SWAP3 POP DUP3 PUSH2 0x1644 JUMPI PUSH2 0x1643 PUSH2 0x180D JUMP JUMPDEST JUMPDEST DUP3 DUP3 DIV SWAP1 POP SWAP3 SWAP2 POP POP JUMP JUMPDEST PUSH1 0x0 PUSH2 0x165A DUP3 PUSH2 0x16B5 JUMP JUMPDEST SWAP2 POP PUSH2 0x1665 DUP4 PUSH2 0x16B5 JUMP JUMPDEST SWAP3 POP DUP3 DUP3 LT ISZERO PUSH2 0x1678 JUMPI PUSH2 0x1677 PUSH2 0x17DE JUMP JUMPDEST JUMPDEST DUP3 DUP3 SUB SWAP1 POP SWAP3 SWAP2 POP POP JUMP JUMPDEST PUSH1 0x0 PUSH2 0x168E DUP3 PUSH2 0x1695 JUMP JUMPDEST SWAP1 POP SWAP2 SWAP1 POP JUMP JUMPDEST PUSH1 0x0 PUSH20 0xFFFFFFFFFFFFFFFFFFFFFFFFFFFFFFFFFFFFFFFF DUP3 AND SWAP1 POP SWAP2 SWAP1 POP JUMP JUMPDEST PUSH1 0x0 DUP2 SWAP1 POP SWAP2 SWAP1 POP JUMP JUMPDEST DUP3 DUP2 DUP4 CALLDATACOPY PUSH1 0x0 DUP4 DUP4 ADD MSTORE POP POP POP JUMP JUMPDEST PUSH1 0x0 JUMPDEST DUP4 DUP2 LT ISZERO PUSH2 0x16EC JUMPI DUP1 DUP3 ADD MLOAD DUP2 DUP5 ADD MSTORE PUSH1 0x20 DUP2 ADD SWAP1 POP PUSH2 0x16D1 JUMP JUMPDEST DUP4 DUP2 GT ISZERO PUSH2 0x16FB JUMPI PUSH1 0x0 DUP5 DUP5 ADD MSTORE JUMPDEST POP POP POP POP JUMP JUMPDEST PUSH1 0x0 PUSH1 0x2 DUP3 DIV SWAP1 POP PUSH1 0x1 DUP3 AND DUP1 PUSH2 0x1719 JUMPI PUSH1 0x7F DUP3 AND SWAP2 POP JUMPDEST PUSH1 0x20 DUP3 LT DUP2 EQ ISZERO PUSH2 0x172D JUMPI PUSH2 0x172C PUSH2 0x183C JUMP JUMPDEST JUMPDEST POP SWAP2 SWAP1 POP JUMP JUMPDEST PUSH2 0x173C DUP3 PUSH2 0x18DD JUMP JUMPDEST DUP2 ADD DUP2 DUP2 LT PUSH8 0xFFFFFFFFFFFFFFFF DUP3 GT OR ISZERO PUSH2 0x175B JUMPI PUSH2 0x175A PUSH2 0x189A JUMP JUMPDEST JUMPDEST DUP1 PUSH1 0x40 MSTORE POP POP POP JUMP JUMPDEST PUSH1 0x0 PUSH2 0x176F DUP3 PUSH2 0x16B5 JUMP JUMPDEST SWAP2 POP PUSH32 0xFFFFFFFFFFFFFFFFFFFFFFFFFFFFFFFFFFFFFFFFFFFFFFFFFFFFFFFFFFFFFFFF DUP3 EQ ISZERO PUSH2 0x17A2 JUMPI PUSH2 0x17A1 PUSH2 0x17DE JUMP JUMPDEST JUMPDEST PUSH1 0x1 DUP3 ADD SWAP1 POP SWAP2 SWAP1 POP JUMP JUMPDEST PUSH1 0x0 PUSH2 0x17B8 DUP3 PUSH2 0x16B5 JUMP JUMPDEST SWAP2 POP PUSH2 0x17C3 DUP4 PUSH2 0x16B5 JUMP JUMPDEST SWAP3 POP DUP3 PUSH2 0x17D3 JUMPI PUSH2 0x17D2 PUSH2 0x180D JUMP JUMPDEST JUMPDEST DUP3 DUP3 MOD SWAP1 POP SWAP3 SWAP2 POP POP JUMP JUMPDEST PUSH32 0x4E487B7100000000000000000000000000000000000000000000000000000000 PUSH1 0x0 MSTORE PUSH1 0x11 PUSH1 0x4 MSTORE PUSH1 0x24 PUSH1 0x0 REVERT JUMPDEST PUSH32 0x4E487B7100000000000000000000000000000000000000000000000000000000 PUSH1 0x0 MSTORE PUSH1 0x12 PUSH1 0x4 MSTORE PUSH1 0x24 PUSH1 0x0 REVERT JUMPDEST PUSH32 0x4E487B7100000000000000000000000000000000000000000000000000000000 PUSH1 0x0 MSTORE PUSH1 0x22 PUSH1 0x4 MSTORE PUSH1 0x24 PUSH1 0x0 REVERT JUMPDEST PUSH32 0x4E487B7100000000000000000000000000000000000000000000000000000000 PUSH1 0x0 MSTORE PUSH1 0x32 PUSH1 0x4 MSTORE PUSH1 0x24 PUSH1 0x0 REVERT JUMPDEST PUSH32 0x4E487B7100000000000000000000000000000000000000000000000000000000 PUSH1 0x0 MSTORE PUSH1 0x41 PUSH1 0x4 MSTORE PUSH1 0x24 PUSH1 0x0 REVERT JUMPDEST PUSH1 0x0 DUP1 REVERT JUMPDEST PUSH1 0x0 DUP1 REVERT JUMPDEST PUSH1 0x0 DUP1 REVERT JUMPDEST PUSH1 0x0 DUP1 REVERT JUMPDEST PUSH1 0x0 PUSH1 0x1F NOT PUSH1 0x1F DUP4 ADD AND SWAP1 POP SWAP2 SWAP1 POP JUMP JUMPDEST PUSH32 0x566F746572206861766520616C72656164792068617320726967687420746F20 PUSH1 0x0 DUP3 ADD MSTORE PUSH32 0x766F74652E000000000000000000000000000000000000000000000000000000 PUSH1 0x20 DUP3 ADD MSTORE POP JUMP JUMPDEST PUSH32 0x43616E64696461746520796F752073656E7420646F6573206E6F742065786973 PUSH1 0x0 DUP3 ADD MSTORE PUSH32 0x7400000000000000000000000000000000000000000000000000000000000000 PUSH1 0x20 DUP3 ADD MSTORE POP JUMP JUMPDEST PUSH32 0x4D6178206163636F756E7420766F74657320697320726561636865642E204261 PUSH1 0x0 DUP3 ADD MSTORE PUSH32 0x6C6C6F7420697320434C4F5345442E0000000000000000000000000000000000 PUSH1 0x20 DUP3 ADD MSTORE POP JUMP JUMPDEST PUSH32 0x4F6E6C792074686520636F6E7472616374206F776E65722063616E2067697665 PUSH1 0x0 DUP3 ADD MSTORE PUSH32 0x20726967687420746F20766F74652E0000000000000000000000000000000000 PUSH1 0x20 DUP3 ADD MSTORE POP JUMP JUMPDEST PUSH32 0x2000000000000000000000000000000000000000000000000000000000000000 PUSH1 0x0 DUP3 ADD MSTORE POP JUMP JUMPDEST PUSH32 0x566F74657220616C726561647920766F7465642E000000000000000000000000 PUSH1 0x0 DUP3 ADD MSTORE POP JUMP JUMPDEST PUSH2 0x1A85 DUP2 PUSH2 0x1683 JUMP JUMPDEST DUP2 EQ PUSH2 0x1A90 JUMPI PUSH1 0x0 DUP1 REVERT JUMPDEST POP JUMP JUMPDEST PUSH2 0x1A9C DUP2 PUSH2 0x16B5 JUMP JUMPDEST DUP2 EQ PUSH2 0x1AA7 JUMPI PUSH1 0x0 DUP1 REVERT JUMPDEST POP JUMP INVALID 0x2E KECCAK256 MSIZE PUSH16 0x752073686F756C642073746172742061 KECCAK256 PUSH15 0x65772062616C6C6F74207769746820 PUSH21 0x69652063616E646964617465733A54686572652069 PUSH20 0x206120544945206F6E2042616C6C6F7420776974 PUSH9 0x207468697320616D6F PUSH22 0x6E74206F6620766F7465733AA2646970667358221220 0x28 LOG1 DUP10 0xC1 0xB0 EXTCODESIZE 0xED 0xB8 PUSH21 0x9F683359C55584B2826DA70D15243E71382641D0E8 0xEF 0xE1 PUSH5 0x736F6C6343 STOP ADDMOD SMOD STOP CALLER "
				},
				"gasEstimates": {
					"creation": {
						"codeDepositCost": "1396600",
						"executionCost": "infinite",
						"totalCost": "infinite"
					},
					"external": {
						"candidates(uint256)": "infinite",
						"getCandidatesListName()": "infinite",
						"getWinnerBallot()": "infinite",
						"giveRightToVote(address,string)": "infinite",
						"vote(string)": "infinite"
					},
					"internal": {
						"areYouContractOwner()": "2176",
						"areYouHaveRigthToVote()": "infinite",
						"concatenateStrings(string memory,string memory)": "infinite",
						"getCandidateExistRequire(bool)": "infinite",
						"getContractAddress()": "22",
						"getContractOwnerAddCandidateRequire()": "infinite",
						"getRightToVoteRequire(address)": "infinite",
						"getTieRequire(bool,string memory)": "infinite",
						"getTotalVotesCounterReachedRequire()": "infinite",
						"getVoterRigthToVote(address)": "infinite",
						"getVoterVoted(address)": "2316",
						"getVoterVotedRequire(address)": "infinite",
						"getWinnerCandidate()": "infinite",
						"getYouContractOwnerRequire()": "infinite",
						"getYouHaveRightToVoteRequire()": "infinite",
						"setCandidatesIntoStorage(string memory[] memory)": "infinite",
						"stringEqualTo(string memory,string memory)": "infinite"
					}
				},
				"methodIdentifiers": {
					"candidates(uint256)": "3477ee2e",
					"getCandidatesListName()": "011d1023",
					"getWinnerBallot()": "53f06ecd",
					"giveRightToVote(address,string)": "68957b20",
					"vote(string)": "fc36e15b"
				}
			},
			"storageLayout": {
				"storage": [
					{
						"astId": 242,
						"contract": "contracts/Ballot/Ballot.sol:MyBallot",
						"label": "contractOwner",
						"offset": 0,
						"slot": "0",
						"type": "t_address"
					},
					{
						"astId": 247,
						"contract": "contracts/Ballot/Ballot.sol:MyBallot",
						"label": "voters",
						"offset": 0,
						"slot": "1",
						"type": "t_mapping(t_address,t_struct(Voter)235_storage)"
					},
					{
						"astId": 251,
						"contract": "contracts/Ballot/Ballot.sol:MyBallot",
						"label": "candidates",
						"offset": 0,
						"slot": "2",
						"type": "t_array(t_struct(Candidate)240_storage)dyn_storage"
					},
					{
						"astId": 253,
						"contract": "contracts/Ballot/Ballot.sol:MyBallot",
						"label": "totalVotesCounter",
						"offset": 0,
						"slot": "3",
						"type": "t_uint256"
					},
					{
						"astId": 255,
						"contract": "contracts/Ballot/Ballot.sol:MyBallot",
						"label": "maxVotes",
						"offset": 0,
						"slot": "4",
						"type": "t_uint256"
					}
				],
				"types": {
					"t_address": {
						"encoding": "inplace",
						"label": "address",
						"numberOfBytes": "20"
					},
					"t_array(t_struct(Candidate)240_storage)dyn_storage": {
						"base": "t_struct(Candidate)240_storage",
						"encoding": "dynamic_array",
						"label": "struct MyBallot.Candidate[]",
						"numberOfBytes": "32"
					},
					"t_bool": {
						"encoding": "inplace",
						"label": "bool",
						"numberOfBytes": "1"
					},
					"t_mapping(t_address,t_struct(Voter)235_storage)": {
						"encoding": "mapping",
						"key": "t_address",
						"label": "mapping(address => struct MyBallot.Voter)",
						"numberOfBytes": "32",
						"value": "t_struct(Voter)235_storage"
					},
					"t_string_storage": {
						"encoding": "bytes",
						"label": "string",
						"numberOfBytes": "32"
					},
					"t_struct(Candidate)240_storage": {
						"encoding": "inplace",
						"label": "struct MyBallot.Candidate",
						"members": [
							{
								"astId": 237,
								"contract": "contracts/Ballot/Ballot.sol:MyBallot",
								"label": "nameProject",
								"offset": 0,
								"slot": "0",
								"type": "t_string_storage"
							},
							{
								"astId": 239,
								"contract": "contracts/Ballot/Ballot.sol:MyBallot",
								"label": "votesCount",
								"offset": 0,
								"slot": "1",
								"type": "t_uint256"
							}
						],
						"numberOfBytes": "64"
					},
					"t_struct(Voter)235_storage": {
						"encoding": "inplace",
						"label": "struct MyBallot.Voter",
						"members": [
							{
								"astId": 230,
								"contract": "contracts/Ballot/Ballot.sol:MyBallot",
								"label": "nameVoter",
								"offset": 0,
								"slot": "0",
								"type": "t_string_storage"
							},
							{
								"astId": 232,
								"contract": "contracts/Ballot/Ballot.sol:MyBallot",
								"label": "canVote",
								"offset": 0,
								"slot": "1",
								"type": "t_bool"
							},
							{
								"astId": 234,
								"contract": "contracts/Ballot/Ballot.sol:MyBallot",
								"label": "hasVoted",
								"offset": 1,
								"slot": "1",
								"type": "t_bool"
							}
						],
						"numberOfBytes": "64"
					},
					"t_uint256": {
						"encoding": "inplace",
						"label": "uint256",
						"numberOfBytes": "32"
					}
				}
			},
			"userdoc": {
				"kind": "user",
				"methods": {},
				"version": 1
			}
		}
	}
}