{
	"contracts/Ballot/Ballot.sol": {
		"MyBallot": {
			"abi": [
				{
					"inputs": [
						{
							"internalType": "string[]",
							"name": "_candidates",
							"type": "string[]"
						},
						{
							"internalType": "uint256",
							"name": "_maxVotes",
							"type": "uint256"
						}
					],
					"stateMutability": "nonpayable",
					"type": "constructor"
				},
				{
					"inputs": [
						{
							"internalType": "uint256",
							"name": "",
							"type": "uint256"
						}
					],
					"name": "candidates",
					"outputs": [
						{
							"internalType": "string",
							"name": "nameProject",
							"type": "string"
						},
						{
							"internalType": "uint256",
							"name": "votesCount",
							"type": "uint256"
						}
					],
					"stateMutability": "view",
					"type": "function"
				},
				{
					"inputs": [
						{
							"internalType": "string",
							"name": "s1",
							"type": "string"
						},
						{
							"internalType": "string",
							"name": "s2",
							"type": "string"
						}
					],
					"name": "concatenateStrings",
					"outputs": [
						{
							"internalType": "string",
							"name": "",
							"type": "string"
						}
					],
					"stateMutability": "pure",
					"type": "function"
				},
				{
					"inputs": [],
					"name": "getCandidatesListName",
					"outputs": [
						{
							"internalType": "string[]",
							"name": "",
							"type": "string[]"
						}
					],
					"stateMutability": "view",
					"type": "function"
				},
				{
					"inputs": [],
					"name": "getWinnerName",
					"outputs": [
						{
							"internalType": "string",
							"name": "winnerName",
							"type": "string"
						},
						{
							"internalType": "address",
							"name": "",
							"type": "address"
						}
					],
					"stateMutability": "view",
					"type": "function"
				},
				{
					"inputs": [],
					"name": "getWinningCandidate",
					"outputs": [
						{
							"components": [
								{
									"internalType": "string",
									"name": "nameProject",
									"type": "string"
								},
								{
									"internalType": "uint256",
									"name": "votesCount",
									"type": "uint256"
								}
							],
							"internalType": "struct MyBallot.Candidate",
							"name": "winningCandidate",
							"type": "tuple"
						}
					],
					"stateMutability": "view",
					"type": "function"
				},
				{
					"inputs": [
						{
							"internalType": "address",
							"name": "voterAddress",
							"type": "address"
						},
						{
							"internalType": "string",
							"name": "_nameVoter",
							"type": "string"
						}
					],
					"name": "giveRightToVote",
					"outputs": [],
					"stateMutability": "nonpayable",
					"type": "function"
				},
				{
					"inputs": [
						{
							"internalType": "string",
							"name": "_nameProject",
							"type": "string"
						}
					],
					"name": "vote",
					"outputs": [],
					"stateMutability": "nonpayable",
					"type": "function"
				},
				{
					"inputs": [
						{
							"internalType": "address",
							"name": "",
							"type": "address"
						}
					],
					"name": "voters",
					"outputs": [
						{
							"internalType": "string",
							"name": "nameVoter",
							"type": "string"
						},
						{
							"internalType": "bool",
							"name": "canVote",
							"type": "bool"
						},
						{
							"internalType": "bool",
							"name": "hasVoted",
							"type": "bool"
						}
					],
					"stateMutability": "view",
					"type": "function"
				}
			],
			"devdoc": {
				"kind": "dev",
				"methods": {},
				"version": 1
			},
			"evm": {
				"assembly": "    /* \"contracts/Ballot/Ballot.sol\":70:7408  contract MyBallot {\r... */\n  mstore(0x40, 0x80)\n    /* \"contracts/Ballot/Ballot.sol\":533:722  constructor(string[] memory _candidates, uint _maxVotes) {\r... */\n  callvalue\n  dup1\n  iszero\n  tag_1\n  jumpi\n  0x00\n  dup1\n  revert\ntag_1:\n  pop\n  mload(0x40)\n  sub(codesize, bytecodeSize)\n  dup1\n  bytecodeSize\n  dup4\n  codecopy\n  dup2\n  dup2\n  add\n  0x40\n  mstore\n  dup2\n  add\n  swap1\n  tag_2\n  swap2\n  swap1\n  tag_3\n  jump\t// in\ntag_2:\n    /* \"contracts/Ballot/Ballot.sol\":617:627  msg.sender */\n  caller\n    /* \"contracts/Ballot/Ballot.sol\":601:614  contractOwner */\n  0x00\n  dup1\n    /* \"contracts/Ballot/Ballot.sol\":601:627  contractOwner = msg.sender */\n  0x0100\n  exp\n  dup2\n  sload\n  dup2\n  0xffffffffffffffffffffffffffffffffffffffff\n  mul\n  not\n  and\n  swap1\n  dup4\n  0xffffffffffffffffffffffffffffffffffffffff\n  and\n  mul\n  or\n  swap1\n  sstore\n  pop\n    /* \"contracts/Ballot/Ballot.sol\":638:675  setCandidatesIntoStorage(_candidates) */\n  tag_6\n    /* \"contracts/Ballot/Ballot.sol\":663:674  _candidates */\n  dup3\n    /* \"contracts/Ballot/Ballot.sol\":638:662  setCandidatesIntoStorage */\n  shl(0x20, tag_7)\n    /* \"contracts/Ballot/Ballot.sol\":638:675  setCandidatesIntoStorage(_candidates) */\n  0x20\n  shr\n  jump\t// in\ntag_6:\n    /* \"contracts/Ballot/Ballot.sol\":705:714  _maxVotes */\n  dup1\n    /* \"contracts/Ballot/Ballot.sol\":694:702  maxVotes */\n  0x04\n    /* \"contracts/Ballot/Ballot.sol\":694:714  maxVotes = _maxVotes */\n  dup2\n  swap1\n  sstore\n  pop\n    /* \"contracts/Ballot/Ballot.sol\":533:722  constructor(string[] memory _candidates, uint _maxVotes) {\r... */\n  pop\n  pop\n    /* \"contracts/Ballot/Ballot.sol\":70:7408  contract MyBallot {\r... */\n  jump(tag_8)\n    /* \"contracts/Ballot/Ballot.sol\":2423:2722  function setCandidatesIntoStorage(string[] memory _candidates) private {\r... */\ntag_7:\n    /* \"contracts/Ballot/Ballot.sol\":2510:2520  uint index */\n  0x00\n    /* \"contracts/Ballot/Ballot.sol\":2505:2715  for (uint index = 0; index < _candidates.length; index++) {\r... */\ntag_10:\n    /* \"contracts/Ballot/Ballot.sol\":2534:2545  _candidates */\n  dup2\n    /* \"contracts/Ballot/Ballot.sol\":2534:2552  _candidates.length */\n  mload\n    /* \"contracts/Ballot/Ballot.sol\":2526:2531  index */\n  dup2\n    /* \"contracts/Ballot/Ballot.sol\":2526:2552  index < _candidates.length */\n  lt\n    /* \"contracts/Ballot/Ballot.sol\":2505:2715  for (uint index = 0; index < _candidates.length; index++) {\r... */\n  iszero\n  tag_11\n  jumpi\n    /* \"contracts/Ballot/Ballot.sol\":2578:2588  candidates */\n  0x02\n    /* \"contracts/Ballot/Ballot.sol\":2594:2702  Candidate({\r... */\n  mload(0x40)\n  dup1\n  0x40\n  add\n  0x40\n  mstore\n  dup1\n    /* \"contracts/Ballot/Ballot.sol\":2636:2647  _candidates */\n  dup5\n    /* \"contracts/Ballot/Ballot.sol\":2648:2653  index */\n  dup5\n    /* \"contracts/Ballot/Ballot.sol\":2636:2654  _candidates[index] */\n  dup2\n  mload\n  dup2\n  lt\n  tag_13\n  jumpi\n  tag_14\n  tag_15\n  jump\t// in\ntag_14:\ntag_13:\n  0x20\n  mul\n  0x20\n  add\n  add\n  mload\n    /* \"contracts/Ballot/Ballot.sol\":2594:2702  Candidate({\r... */\n  dup2\n  mstore\n  0x20\n  add\n    /* \"contracts/Ballot/Ballot.sol\":2685:2686  0 */\n  0x00\n    /* \"contracts/Ballot/Ballot.sol\":2594:2702  Candidate({\r... */\n  dup2\n  mstore\n  pop\n    /* \"contracts/Ballot/Ballot.sol\":2578:2703  candidates.push(Candidate({\r... */\n  swap1\n  dup1\n  0x01\n  dup2\n  sload\n  add\n  dup1\n  dup3\n  sstore\n  dup1\n  swap2\n  pop\n  pop\n  0x01\n  swap1\n  sub\n  swap1\n  0x00\n  mstore\n  keccak256(0x00, 0x20)\n  swap1\n  0x02\n  mul\n  add\n  0x00\n  swap1\n  swap2\n  swap1\n  swap2\n  swap1\n  swap2\n  pop\n  0x00\n  dup3\n  add\n  mload\n  dup2\n  0x00\n  add\n  swap1\n  dup1\n  mload\n  swap1\n  0x20\n  add\n  swap1\n  tag_17\n  swap3\n  swap2\n  swap1\n  tag_18\n  jump\t// in\ntag_17:\n  pop\n  0x20\n  dup3\n  add\n  mload\n  dup2\n  0x01\n  add\n  sstore\n  pop\n  pop\n    /* \"contracts/Ballot/Ballot.sol\":2554:2561  index++ */\n  dup1\n  dup1\n  tag_19\n  swap1\n  tag_20\n  jump\t// in\ntag_19:\n  swap2\n  pop\n  pop\n    /* \"contracts/Ballot/Ballot.sol\":2505:2715  for (uint index = 0; index < _candidates.length; index++) {\r... */\n  jump(tag_10)\ntag_11:\n  pop\n    /* \"contracts/Ballot/Ballot.sol\":2423:2722  function setCandidatesIntoStorage(string[] memory _candidates) private {\r... */\n  pop\n  jump\t// out\n    /* \"contracts/Ballot/Ballot.sol\":70:7408  contract MyBallot {\r... */\ntag_18:\n  dup3\n  dup1\n  sload\n  tag_21\n  swap1\n  tag_22\n  jump\t// in\ntag_21:\n  swap1\n  0x00\n  mstore\n  keccak256(0x00, 0x20)\n  swap1\n  0x1f\n  add\n  0x20\n  swap1\n  div\n  dup2\n  add\n  swap3\n  dup3\n  tag_24\n  jumpi\n  0x00\n  dup6\n  sstore\n  jump(tag_23)\ntag_24:\n  dup3\n  0x1f\n  lt\n  tag_25\n  jumpi\n  dup1\n  mload\n  not(0xff)\n  and\n  dup4\n  dup1\n  add\n  or\n  dup6\n  sstore\n  jump(tag_23)\ntag_25:\n  dup3\n  dup1\n  add\n  0x01\n  add\n  dup6\n  sstore\n  dup3\n  iszero\n  tag_23\n  jumpi\n  swap2\n  dup3\n  add\ntag_26:\n  dup3\n  dup2\n  gt\n  iszero\n  tag_27\n  jumpi\n  dup3\n  mload\n  dup3\n  sstore\n  swap2\n  0x20\n  add\n  swap2\n  swap1\n  0x01\n  add\n  swap1\n  jump(tag_26)\ntag_27:\ntag_23:\n  pop\n  swap1\n  pop\n  tag_28\n  swap2\n  swap1\n  tag_29\n  jump\t// in\ntag_28:\n  pop\n  swap1\n  jump\t// out\ntag_29:\ntag_30:\n  dup1\n  dup3\n  gt\n  iszero\n  tag_31\n  jumpi\n  0x00\n  dup2\n  0x00\n  swap1\n  sstore\n  pop\n  0x01\n  add\n  jump(tag_30)\ntag_31:\n  pop\n  swap1\n  jump\t// out\n    /* \"#utility.yul\":23:995   */\ntag_33:\n    /* \"#utility.yul\":140:145   */\n  0x00\n    /* \"#utility.yul\":165:256   */\n  tag_35\n    /* \"#utility.yul\":181:255   */\n  tag_36\n    /* \"#utility.yul\":248:254   */\n  dup5\n    /* \"#utility.yul\":181:255   */\n  tag_37\n  jump\t// in\ntag_36:\n    /* \"#utility.yul\":165:256   */\n  tag_38\n  jump\t// in\ntag_35:\n    /* \"#utility.yul\":156:256   */\n  swap1\n  pop\n    /* \"#utility.yul\":276:281   */\n  dup1\n    /* \"#utility.yul\":305:311   */\n  dup4\n    /* \"#utility.yul\":298:303   */\n  dup3\n    /* \"#utility.yul\":291:312   */\n  mstore\n    /* \"#utility.yul\":339:343   */\n  0x20\n    /* \"#utility.yul\":332:337   */\n  dup3\n    /* \"#utility.yul\":328:344   */\n  add\n    /* \"#utility.yul\":321:344   */\n  swap1\n  pop\n    /* \"#utility.yul\":365:371   */\n  dup3\n    /* \"#utility.yul\":415:418   */\n  dup6\n    /* \"#utility.yul\":407:411   */\n  0x20\n    /* \"#utility.yul\":399:405   */\n  dup7\n    /* \"#utility.yul\":395:412   */\n  mul\n    /* \"#utility.yul\":390:393   */\n  dup3\n    /* \"#utility.yul\":386:413   */\n  add\n    /* \"#utility.yul\":383:419   */\n  gt\n    /* \"#utility.yul\":380:523   */\n  iszero\n  tag_39\n  jumpi\n    /* \"#utility.yul\":434:513   */\n  tag_40\n  tag_41\n  jump\t// in\ntag_40:\n    /* \"#utility.yul\":380:523   */\ntag_39:\n    /* \"#utility.yul\":547:548   */\n  0x00\n    /* \"#utility.yul\":532:989   */\ntag_42:\n    /* \"#utility.yul\":557:563   */\n  dup6\n    /* \"#utility.yul\":554:555   */\n  dup2\n    /* \"#utility.yul\":551:564   */\n  lt\n    /* \"#utility.yul\":532:989   */\n  iszero\n  tag_44\n  jumpi\n    /* \"#utility.yul\":632:635   */\n  dup2\n    /* \"#utility.yul\":626:636   */\n  mload\n    /* \"#utility.yul\":668:686   */\n  0xffffffffffffffff\n    /* \"#utility.yul\":655:666   */\n  dup2\n    /* \"#utility.yul\":652:687   */\n  gt\n    /* \"#utility.yul\":649:771   */\n  iszero\n  tag_45\n  jumpi\n    /* \"#utility.yul\":690:769   */\n  tag_46\n  tag_47\n  jump\t// in\ntag_46:\n    /* \"#utility.yul\":649:771   */\ntag_45:\n    /* \"#utility.yul\":814:825   */\n  dup1\n    /* \"#utility.yul\":806:812   */\n  dup7\n    /* \"#utility.yul\":802:826   */\n  add\n    /* \"#utility.yul\":852:910   */\n  tag_48\n    /* \"#utility.yul\":906:909   */\n  dup10\n    /* \"#utility.yul\":894:904   */\n  dup3\n    /* \"#utility.yul\":852:910   */\n  tag_49\n  jump\t// in\ntag_48:\n    /* \"#utility.yul\":847:850   */\n  dup6\n    /* \"#utility.yul\":840:911   */\n  mstore\n    /* \"#utility.yul\":940:944   */\n  0x20\n    /* \"#utility.yul\":935:938   */\n  dup6\n    /* \"#utility.yul\":931:945   */\n  add\n    /* \"#utility.yul\":924:945   */\n  swap5\n  pop\n    /* \"#utility.yul\":974:978   */\n  0x20\n    /* \"#utility.yul\":969:972   */\n  dup5\n    /* \"#utility.yul\":965:979   */\n  add\n    /* \"#utility.yul\":958:979   */\n  swap4\n  pop\n    /* \"#utility.yul\":592:989   */\n  pop\n  pop\n    /* \"#utility.yul\":579:580   */\n  0x01\n    /* \"#utility.yul\":576:577   */\n  dup2\n    /* \"#utility.yul\":572:581   */\n  add\n    /* \"#utility.yul\":567:581   */\n  swap1\n  pop\n    /* \"#utility.yul\":532:989   */\n  jump(tag_42)\ntag_44:\n    /* \"#utility.yul\":536:550   */\n  pop\n    /* \"#utility.yul\":146:995   */\n  pop\n  pop\n    /* \"#utility.yul\":23:995   */\n  swap4\n  swap3\n  pop\n  pop\n  pop\n  jump\t// out\n    /* \"#utility.yul\":1001:1422   */\ntag_50:\n    /* \"#utility.yul\":1090:1095   */\n  0x00\n    /* \"#utility.yul\":1115:1181   */\n  tag_52\n    /* \"#utility.yul\":1131:1180   */\n  tag_53\n    /* \"#utility.yul\":1173:1179   */\n  dup5\n    /* \"#utility.yul\":1131:1180   */\n  tag_54\n  jump\t// in\ntag_53:\n    /* \"#utility.yul\":1115:1181   */\n  tag_38\n  jump\t// in\ntag_52:\n    /* \"#utility.yul\":1106:1181   */\n  swap1\n  pop\n    /* \"#utility.yul\":1204:1210   */\n  dup3\n    /* \"#utility.yul\":1197:1202   */\n  dup2\n    /* \"#utility.yul\":1190:1211   */\n  mstore\n    /* \"#utility.yul\":1242:1246   */\n  0x20\n    /* \"#utility.yul\":1235:1240   */\n  dup2\n    /* \"#utility.yul\":1231:1247   */\n  add\n    /* \"#utility.yul\":1280:1283   */\n  dup5\n    /* \"#utility.yul\":1271:1277   */\n  dup5\n    /* \"#utility.yul\":1266:1269   */\n  dup5\n    /* \"#utility.yul\":1262:1278   */\n  add\n    /* \"#utility.yul\":1259:1284   */\n  gt\n    /* \"#utility.yul\":1256:1368   */\n  iszero\n  tag_55\n  jumpi\n    /* \"#utility.yul\":1287:1366   */\n  tag_56\n  tag_57\n  jump\t// in\ntag_56:\n    /* \"#utility.yul\":1256:1368   */\ntag_55:\n    /* \"#utility.yul\":1377:1416   */\n  tag_58\n    /* \"#utility.yul\":1409:1415   */\n  dup5\n    /* \"#utility.yul\":1404:1407   */\n  dup3\n    /* \"#utility.yul\":1399:1402   */\n  dup6\n    /* \"#utility.yul\":1377:1416   */\n  tag_59\n  jump\t// in\ntag_58:\n    /* \"#utility.yul\":1096:1422   */\n  pop\n    /* \"#utility.yul\":1001:1422   */\n  swap4\n  swap3\n  pop\n  pop\n  pop\n  jump\t// out\n    /* \"#utility.yul\":1444:1849   */\ntag_60:\n    /* \"#utility.yul\":1536:1541   */\n  0x00\n    /* \"#utility.yul\":1585:1588   */\n  dup3\n    /* \"#utility.yul\":1578:1582   */\n  0x1f\n    /* \"#utility.yul\":1570:1576   */\n  dup4\n    /* \"#utility.yul\":1566:1583   */\n  add\n    /* \"#utility.yul\":1562:1589   */\n  slt\n    /* \"#utility.yul\":1552:1674   */\n  tag_62\n  jumpi\n    /* \"#utility.yul\":1593:1672   */\n  tag_63\n  tag_47\n  jump\t// in\ntag_63:\n    /* \"#utility.yul\":1552:1674   */\ntag_62:\n    /* \"#utility.yul\":1703:1709   */\n  dup2\n    /* \"#utility.yul\":1697:1710   */\n  mload\n    /* \"#utility.yul\":1728:1843   */\n  tag_64\n    /* \"#utility.yul\":1839:1842   */\n  dup5\n    /* \"#utility.yul\":1831:1837   */\n  dup3\n    /* \"#utility.yul\":1824:1828   */\n  0x20\n    /* \"#utility.yul\":1816:1822   */\n  dup7\n    /* \"#utility.yul\":1812:1829   */\n  add\n    /* \"#utility.yul\":1728:1843   */\n  tag_33\n  jump\t// in\ntag_64:\n    /* \"#utility.yul\":1719:1843   */\n  swap2\n  pop\n    /* \"#utility.yul\":1542:1849   */\n  pop\n    /* \"#utility.yul\":1444:1849   */\n  swap3\n  swap2\n  pop\n  pop\n  jump\t// out\n    /* \"#utility.yul\":1869:2224   */\ntag_49:\n    /* \"#utility.yul\":1936:1941   */\n  0x00\n    /* \"#utility.yul\":1985:1988   */\n  dup3\n    /* \"#utility.yul\":1978:1982   */\n  0x1f\n    /* \"#utility.yul\":1970:1976   */\n  dup4\n    /* \"#utility.yul\":1966:1983   */\n  add\n    /* \"#utility.yul\":1962:1989   */\n  slt\n    /* \"#utility.yul\":1952:2074   */\n  tag_66\n  jumpi\n    /* \"#utility.yul\":1993:2072   */\n  tag_67\n  tag_47\n  jump\t// in\ntag_67:\n    /* \"#utility.yul\":1952:2074   */\ntag_66:\n    /* \"#utility.yul\":2103:2109   */\n  dup2\n    /* \"#utility.yul\":2097:2110   */\n  mload\n    /* \"#utility.yul\":2128:2218   */\n  tag_68\n    /* \"#utility.yul\":2214:2217   */\n  dup5\n    /* \"#utility.yul\":2206:2212   */\n  dup3\n    /* \"#utility.yul\":2199:2203   */\n  0x20\n    /* \"#utility.yul\":2191:2197   */\n  dup7\n    /* \"#utility.yul\":2187:2204   */\n  add\n    /* \"#utility.yul\":2128:2218   */\n  tag_50\n  jump\t// in\ntag_68:\n    /* \"#utility.yul\":2119:2218   */\n  swap2\n  pop\n    /* \"#utility.yul\":1942:2224   */\n  pop\n    /* \"#utility.yul\":1869:2224   */\n  swap3\n  swap2\n  pop\n  pop\n  jump\t// out\n    /* \"#utility.yul\":2230:2373   */\ntag_69:\n    /* \"#utility.yul\":2287:2292   */\n  0x00\n    /* \"#utility.yul\":2318:2324   */\n  dup2\n    /* \"#utility.yul\":2312:2325   */\n  mload\n    /* \"#utility.yul\":2303:2325   */\n  swap1\n  pop\n    /* \"#utility.yul\":2334:2367   */\n  tag_71\n    /* \"#utility.yul\":2361:2366   */\n  dup2\n    /* \"#utility.yul\":2334:2367   */\n  tag_72\n  jump\t// in\ntag_71:\n    /* \"#utility.yul\":2230:2373   */\n  swap3\n  swap2\n  pop\n  pop\n  jump\t// out\n    /* \"#utility.yul\":2379:3109   */\ntag_3:\n    /* \"#utility.yul\":2493:2499   */\n  0x00\n    /* \"#utility.yul\":2501:2507   */\n  dup1\n    /* \"#utility.yul\":2550:2552   */\n  0x40\n    /* \"#utility.yul\":2538:2547   */\n  dup4\n    /* \"#utility.yul\":2529:2536   */\n  dup6\n    /* \"#utility.yul\":2525:2548   */\n  sub\n    /* \"#utility.yul\":2521:2553   */\n  slt\n    /* \"#utility.yul\":2518:2637   */\n  iszero\n  tag_74\n  jumpi\n    /* \"#utility.yul\":2556:2635   */\n  tag_75\n  tag_76\n  jump\t// in\ntag_75:\n    /* \"#utility.yul\":2518:2637   */\ntag_74:\n    /* \"#utility.yul\":2697:2698   */\n  0x00\n    /* \"#utility.yul\":2686:2695   */\n  dup4\n    /* \"#utility.yul\":2682:2699   */\n  add\n    /* \"#utility.yul\":2676:2700   */\n  mload\n    /* \"#utility.yul\":2727:2745   */\n  0xffffffffffffffff\n    /* \"#utility.yul\":2719:2725   */\n  dup2\n    /* \"#utility.yul\":2716:2746   */\n  gt\n    /* \"#utility.yul\":2713:2830   */\n  iszero\n  tag_77\n  jumpi\n    /* \"#utility.yul\":2749:2828   */\n  tag_78\n  tag_79\n  jump\t// in\ntag_78:\n    /* \"#utility.yul\":2713:2830   */\ntag_77:\n    /* \"#utility.yul\":2854:2953   */\n  tag_80\n    /* \"#utility.yul\":2945:2952   */\n  dup6\n    /* \"#utility.yul\":2936:2942   */\n  dup3\n    /* \"#utility.yul\":2925:2934   */\n  dup7\n    /* \"#utility.yul\":2921:2943   */\n  add\n    /* \"#utility.yul\":2854:2953   */\n  tag_60\n  jump\t// in\ntag_80:\n    /* \"#utility.yul\":2844:2953   */\n  swap3\n  pop\n    /* \"#utility.yul\":2647:2963   */\n  pop\n    /* \"#utility.yul\":3002:3004   */\n  0x20\n    /* \"#utility.yul\":3028:3092   */\n  tag_81\n    /* \"#utility.yul\":3084:3091   */\n  dup6\n    /* \"#utility.yul\":3075:3081   */\n  dup3\n    /* \"#utility.yul\":3064:3073   */\n  dup7\n    /* \"#utility.yul\":3060:3082   */\n  add\n    /* \"#utility.yul\":3028:3092   */\n  tag_69\n  jump\t// in\ntag_81:\n    /* \"#utility.yul\":3018:3092   */\n  swap2\n  pop\n    /* \"#utility.yul\":2973:3102   */\n  pop\n    /* \"#utility.yul\":2379:3109   */\n  swap3\n  pop\n  swap3\n  swap1\n  pop\n  jump\t// out\n    /* \"#utility.yul\":3115:3244   */\ntag_38:\n    /* \"#utility.yul\":3149:3155   */\n  0x00\n    /* \"#utility.yul\":3176:3196   */\n  tag_83\n  tag_84\n  jump\t// in\ntag_83:\n    /* \"#utility.yul\":3166:3196   */\n  swap1\n  pop\n    /* \"#utility.yul\":3205:3238   */\n  tag_85\n    /* \"#utility.yul\":3233:3237   */\n  dup3\n    /* \"#utility.yul\":3225:3231   */\n  dup3\n    /* \"#utility.yul\":3205:3238   */\n  tag_86\n  jump\t// in\ntag_85:\n    /* \"#utility.yul\":3115:3244   */\n  swap2\n  swap1\n  pop\n  jump\t// out\n    /* \"#utility.yul\":3250:3325   */\ntag_84:\n    /* \"#utility.yul\":3283:3289   */\n  0x00\n    /* \"#utility.yul\":3316:3318   */\n  0x40\n    /* \"#utility.yul\":3310:3319   */\n  mload\n    /* \"#utility.yul\":3300:3319   */\n  swap1\n  pop\n    /* \"#utility.yul\":3250:3325   */\n  swap1\n  jump\t// out\n    /* \"#utility.yul\":3331:3652   */\ntag_37:\n    /* \"#utility.yul\":3418:3422   */\n  0x00\n    /* \"#utility.yul\":3508:3526   */\n  0xffffffffffffffff\n    /* \"#utility.yul\":3500:3506   */\n  dup3\n    /* \"#utility.yul\":3497:3527   */\n  gt\n    /* \"#utility.yul\":3494:3550   */\n  iszero\n  tag_89\n  jumpi\n    /* \"#utility.yul\":3530:3548   */\n  tag_90\n  tag_91\n  jump\t// in\ntag_90:\n    /* \"#utility.yul\":3494:3550   */\ntag_89:\n    /* \"#utility.yul\":3580:3584   */\n  0x20\n    /* \"#utility.yul\":3572:3578   */\n  dup3\n    /* \"#utility.yul\":3568:3585   */\n  mul\n    /* \"#utility.yul\":3560:3585   */\n  swap1\n  pop\n    /* \"#utility.yul\":3640:3644   */\n  0x20\n    /* \"#utility.yul\":3634:3638   */\n  dup2\n    /* \"#utility.yul\":3630:3645   */\n  add\n    /* \"#utility.yul\":3622:3645   */\n  swap1\n  pop\n    /* \"#utility.yul\":3331:3652   */\n  swap2\n  swap1\n  pop\n  jump\t// out\n    /* \"#utility.yul\":3658:3966   */\ntag_54:\n    /* \"#utility.yul\":3720:3724   */\n  0x00\n    /* \"#utility.yul\":3810:3828   */\n  0xffffffffffffffff\n    /* \"#utility.yul\":3802:3808   */\n  dup3\n    /* \"#utility.yul\":3799:3829   */\n  gt\n    /* \"#utility.yul\":3796:3852   */\n  iszero\n  tag_93\n  jumpi\n    /* \"#utility.yul\":3832:3850   */\n  tag_94\n  tag_91\n  jump\t// in\ntag_94:\n    /* \"#utility.yul\":3796:3852   */\ntag_93:\n    /* \"#utility.yul\":3870:3899   */\n  tag_95\n    /* \"#utility.yul\":3892:3898   */\n  dup3\n    /* \"#utility.yul\":3870:3899   */\n  tag_96\n  jump\t// in\ntag_95:\n    /* \"#utility.yul\":3862:3899   */\n  swap1\n  pop\n    /* \"#utility.yul\":3954:3958   */\n  0x20\n    /* \"#utility.yul\":3948:3952   */\n  dup2\n    /* \"#utility.yul\":3944:3959   */\n  add\n    /* \"#utility.yul\":3936:3959   */\n  swap1\n  pop\n    /* \"#utility.yul\":3658:3966   */\n  swap2\n  swap1\n  pop\n  jump\t// out\n    /* \"#utility.yul\":3972:4049   */\ntag_97:\n    /* \"#utility.yul\":4009:4016   */\n  0x00\n    /* \"#utility.yul\":4038:4043   */\n  dup2\n    /* \"#utility.yul\":4027:4043   */\n  swap1\n  pop\n    /* \"#utility.yul\":3972:4049   */\n  swap2\n  swap1\n  pop\n  jump\t// out\n    /* \"#utility.yul\":4055:4362   */\ntag_59:\n    /* \"#utility.yul\":4123:4124   */\n  0x00\n    /* \"#utility.yul\":4133:4246   */\ntag_100:\n    /* \"#utility.yul\":4147:4153   */\n  dup4\n    /* \"#utility.yul\":4144:4145   */\n  dup2\n    /* \"#utility.yul\":4141:4154   */\n  lt\n    /* \"#utility.yul\":4133:4246   */\n  iszero\n  tag_102\n  jumpi\n    /* \"#utility.yul\":4232:4233   */\n  dup1\n    /* \"#utility.yul\":4227:4230   */\n  dup3\n    /* \"#utility.yul\":4223:4234   */\n  add\n    /* \"#utility.yul\":4217:4235   */\n  mload\n    /* \"#utility.yul\":4213:4214   */\n  dup2\n    /* \"#utility.yul\":4208:4211   */\n  dup5\n    /* \"#utility.yul\":4204:4215   */\n  add\n    /* \"#utility.yul\":4197:4236   */\n  mstore\n    /* \"#utility.yul\":4169:4171   */\n  0x20\n    /* \"#utility.yul\":4166:4167   */\n  dup2\n    /* \"#utility.yul\":4162:4172   */\n  add\n    /* \"#utility.yul\":4157:4172   */\n  swap1\n  pop\n    /* \"#utility.yul\":4133:4246   */\n  jump(tag_100)\ntag_102:\n    /* \"#utility.yul\":4264:4270   */\n  dup4\n    /* \"#utility.yul\":4261:4262   */\n  dup2\n    /* \"#utility.yul\":4258:4271   */\n  gt\n    /* \"#utility.yul\":4255:4356   */\n  iszero\n  tag_103\n  jumpi\n    /* \"#utility.yul\":4344:4345   */\n  0x00\n    /* \"#utility.yul\":4335:4341   */\n  dup5\n    /* \"#utility.yul\":4330:4333   */\n  dup5\n    /* \"#utility.yul\":4326:4342   */\n  add\n    /* \"#utility.yul\":4319:4346   */\n  mstore\n    /* \"#utility.yul\":4255:4356   */\ntag_103:\n    /* \"#utility.yul\":4104:4362   */\n  pop\n    /* \"#utility.yul\":4055:4362   */\n  pop\n  pop\n  pop\n  jump\t// out\n    /* \"#utility.yul\":4368:4688   */\ntag_22:\n    /* \"#utility.yul\":4412:4418   */\n  0x00\n    /* \"#utility.yul\":4449:4450   */\n  0x02\n    /* \"#utility.yul\":4443:4447   */\n  dup3\n    /* \"#utility.yul\":4439:4451   */\n  div\n    /* \"#utility.yul\":4429:4451   */\n  swap1\n  pop\n    /* \"#utility.yul\":4496:4497   */\n  0x01\n    /* \"#utility.yul\":4490:4494   */\n  dup3\n    /* \"#utility.yul\":4486:4498   */\n  and\n    /* \"#utility.yul\":4517:4535   */\n  dup1\n    /* \"#utility.yul\":4507:4588   */\n  tag_105\n  jumpi\n    /* \"#utility.yul\":4573:4577   */\n  0x7f\n    /* \"#utility.yul\":4565:4571   */\n  dup3\n    /* \"#utility.yul\":4561:4578   */\n  and\n    /* \"#utility.yul\":4551:4578   */\n  swap2\n  pop\n    /* \"#utility.yul\":4507:4588   */\ntag_105:\n    /* \"#utility.yul\":4635:4637   */\n  0x20\n    /* \"#utility.yul\":4627:4633   */\n  dup3\n    /* \"#utility.yul\":4624:4638   */\n  lt\n    /* \"#utility.yul\":4604:4622   */\n  dup2\n    /* \"#utility.yul\":4601:4639   */\n  eq\n    /* \"#utility.yul\":4598:4682   */\n  iszero\n  tag_106\n  jumpi\n    /* \"#utility.yul\":4654:4672   */\n  tag_107\n  tag_108\n  jump\t// in\ntag_107:\n    /* \"#utility.yul\":4598:4682   */\ntag_106:\n    /* \"#utility.yul\":4419:4688   */\n  pop\n    /* \"#utility.yul\":4368:4688   */\n  swap2\n  swap1\n  pop\n  jump\t// out\n    /* \"#utility.yul\":4694:4975   */\ntag_86:\n    /* \"#utility.yul\":4777:4804   */\n  tag_110\n    /* \"#utility.yul\":4799:4803   */\n  dup3\n    /* \"#utility.yul\":4777:4804   */\n  tag_96\n  jump\t// in\ntag_110:\n    /* \"#utility.yul\":4769:4775   */\n  dup2\n    /* \"#utility.yul\":4765:4805   */\n  add\n    /* \"#utility.yul\":4907:4913   */\n  dup2\n    /* \"#utility.yul\":4895:4905   */\n  dup2\n    /* \"#utility.yul\":4892:4914   */\n  lt\n    /* \"#utility.yul\":4871:4889   */\n  0xffffffffffffffff\n    /* \"#utility.yul\":4859:4869   */\n  dup3\n    /* \"#utility.yul\":4856:4890   */\n  gt\n    /* \"#utility.yul\":4853:4915   */\n  or\n    /* \"#utility.yul\":4850:4938   */\n  iszero\n  tag_111\n  jumpi\n    /* \"#utility.yul\":4918:4936   */\n  tag_112\n  tag_91\n  jump\t// in\ntag_112:\n    /* \"#utility.yul\":4850:4938   */\ntag_111:\n    /* \"#utility.yul\":4958:4968   */\n  dup1\n    /* \"#utility.yul\":4954:4956   */\n  0x40\n    /* \"#utility.yul\":4947:4969   */\n  mstore\n    /* \"#utility.yul\":4737:4975   */\n  pop\n    /* \"#utility.yul\":4694:4975   */\n  pop\n  pop\n  jump\t// out\n    /* \"#utility.yul\":4981:5214   */\ntag_20:\n    /* \"#utility.yul\":5020:5023   */\n  0x00\n    /* \"#utility.yul\":5043:5067   */\n  tag_114\n    /* \"#utility.yul\":5061:5066   */\n  dup3\n    /* \"#utility.yul\":5043:5067   */\n  tag_97\n  jump\t// in\ntag_114:\n    /* \"#utility.yul\":5034:5067   */\n  swap2\n  pop\n    /* \"#utility.yul\":5089:5155   */\n  0xffffffffffffffffffffffffffffffffffffffffffffffffffffffffffffffff\n    /* \"#utility.yul\":5082:5087   */\n  dup3\n    /* \"#utility.yul\":5079:5156   */\n  eq\n    /* \"#utility.yul\":5076:5179   */\n  iszero\n  tag_115\n  jumpi\n    /* \"#utility.yul\":5159:5177   */\n  tag_116\n  tag_117\n  jump\t// in\ntag_116:\n    /* \"#utility.yul\":5076:5179   */\ntag_115:\n    /* \"#utility.yul\":5206:5207   */\n  0x01\n    /* \"#utility.yul\":5199:5204   */\n  dup3\n    /* \"#utility.yul\":5195:5208   */\n  add\n    /* \"#utility.yul\":5188:5208   */\n  swap1\n  pop\n    /* \"#utility.yul\":4981:5214   */\n  swap2\n  swap1\n  pop\n  jump\t// out\n    /* \"#utility.yul\":5220:5400   */\ntag_117:\n    /* \"#utility.yul\":5268:5345   */\n  0x4e487b7100000000000000000000000000000000000000000000000000000000\n    /* \"#utility.yul\":5265:5266   */\n  0x00\n    /* \"#utility.yul\":5258:5346   */\n  mstore\n    /* \"#utility.yul\":5365:5369   */\n  0x11\n    /* \"#utility.yul\":5362:5363   */\n  0x04\n    /* \"#utility.yul\":5355:5370   */\n  mstore\n    /* \"#utility.yul\":5389:5393   */\n  0x24\n    /* \"#utility.yul\":5386:5387   */\n  0x00\n    /* \"#utility.yul\":5379:5394   */\n  revert\n    /* \"#utility.yul\":5406:5586   */\ntag_108:\n    /* \"#utility.yul\":5454:5531   */\n  0x4e487b7100000000000000000000000000000000000000000000000000000000\n    /* \"#utility.yul\":5451:5452   */\n  0x00\n    /* \"#utility.yul\":5444:5532   */\n  mstore\n    /* \"#utility.yul\":5551:5555   */\n  0x22\n    /* \"#utility.yul\":5548:5549   */\n  0x04\n    /* \"#utility.yul\":5541:5556   */\n  mstore\n    /* \"#utility.yul\":5575:5579   */\n  0x24\n    /* \"#utility.yul\":5572:5573   */\n  0x00\n    /* \"#utility.yul\":5565:5580   */\n  revert\n    /* \"#utility.yul\":5592:5772   */\ntag_15:\n    /* \"#utility.yul\":5640:5717   */\n  0x4e487b7100000000000000000000000000000000000000000000000000000000\n    /* \"#utility.yul\":5637:5638   */\n  0x00\n    /* \"#utility.yul\":5630:5718   */\n  mstore\n    /* \"#utility.yul\":5737:5741   */\n  0x32\n    /* \"#utility.yul\":5734:5735   */\n  0x04\n    /* \"#utility.yul\":5727:5742   */\n  mstore\n    /* \"#utility.yul\":5761:5765   */\n  0x24\n    /* \"#utility.yul\":5758:5759   */\n  0x00\n    /* \"#utility.yul\":5751:5766   */\n  revert\n    /* \"#utility.yul\":5778:5958   */\ntag_91:\n    /* \"#utility.yul\":5826:5903   */\n  0x4e487b7100000000000000000000000000000000000000000000000000000000\n    /* \"#utility.yul\":5823:5824   */\n  0x00\n    /* \"#utility.yul\":5816:5904   */\n  mstore\n    /* \"#utility.yul\":5923:5927   */\n  0x41\n    /* \"#utility.yul\":5920:5921   */\n  0x04\n    /* \"#utility.yul\":5913:5928   */\n  mstore\n    /* \"#utility.yul\":5947:5951   */\n  0x24\n    /* \"#utility.yul\":5944:5945   */\n  0x00\n    /* \"#utility.yul\":5937:5952   */\n  revert\n    /* \"#utility.yul\":5964:6081   */\ntag_47:\n    /* \"#utility.yul\":6073:6074   */\n  0x00\n    /* \"#utility.yul\":6070:6071   */\n  dup1\n    /* \"#utility.yul\":6063:6075   */\n  revert\n    /* \"#utility.yul\":6087:6204   */\ntag_41:\n    /* \"#utility.yul\":6196:6197   */\n  0x00\n    /* \"#utility.yul\":6193:6194   */\n  dup1\n    /* \"#utility.yul\":6186:6198   */\n  revert\n    /* \"#utility.yul\":6210:6327   */\ntag_57:\n    /* \"#utility.yul\":6319:6320   */\n  0x00\n    /* \"#utility.yul\":6316:6317   */\n  dup1\n    /* \"#utility.yul\":6309:6321   */\n  revert\n    /* \"#utility.yul\":6333:6450   */\ntag_79:\n    /* \"#utility.yul\":6442:6443   */\n  0x00\n    /* \"#utility.yul\":6439:6440   */\n  dup1\n    /* \"#utility.yul\":6432:6444   */\n  revert\n    /* \"#utility.yul\":6456:6573   */\ntag_76:\n    /* \"#utility.yul\":6565:6566   */\n  0x00\n    /* \"#utility.yul\":6562:6563   */\n  dup1\n    /* \"#utility.yul\":6555:6567   */\n  revert\n    /* \"#utility.yul\":6579:6681   */\ntag_96:\n    /* \"#utility.yul\":6620:6626   */\n  0x00\n    /* \"#utility.yul\":6671:6673   */\n  0x1f\n    /* \"#utility.yul\":6667:6674   */\n  not\n    /* \"#utility.yul\":6662:6664   */\n  0x1f\n    /* \"#utility.yul\":6655:6660   */\n  dup4\n    /* \"#utility.yul\":6651:6665   */\n  add\n    /* \"#utility.yul\":6647:6675   */\n  and\n    /* \"#utility.yul\":6637:6675   */\n  swap1\n  pop\n    /* \"#utility.yul\":6579:6681   */\n  swap2\n  swap1\n  pop\n  jump\t// out\n    /* \"#utility.yul\":6687:6809   */\ntag_72:\n    /* \"#utility.yul\":6760:6784   */\n  tag_129\n    /* \"#utility.yul\":6778:6783   */\n  dup2\n    /* \"#utility.yul\":6760:6784   */\n  tag_97\n  jump\t// in\ntag_129:\n    /* \"#utility.yul\":6753:6758   */\n  dup2\n    /* \"#utility.yul\":6750:6785   */\n  eq\n    /* \"#utility.yul\":6740:6803   */\n  tag_130\n  jumpi\n    /* \"#utility.yul\":6799:6800   */\n  0x00\n    /* \"#utility.yul\":6796:6797   */\n  dup1\n    /* \"#utility.yul\":6789:6801   */\n  revert\n    /* \"#utility.yul\":6740:6803   */\ntag_130:\n    /* \"#utility.yul\":6687:6809   */\n  pop\n  jump\t// out\n    /* \"contracts/Ballot/Ballot.sol\":70:7408  contract MyBallot {\r... */\ntag_8:\n  dataSize(sub_0)\n  dup1\n  dataOffset(sub_0)\n  0x00\n  codecopy\n  0x00\n  return\nstop\n\nsub_0: assembly {\n        /* \"contracts/Ballot/Ballot.sol\":70:7408  contract MyBallot {\r... */\n      mstore(0x40, 0x80)\n      callvalue\n      dup1\n      iszero\n      tag_1\n      jumpi\n      0x00\n      dup1\n      revert\n    tag_1:\n      pop\n      jumpi(tag_2, lt(calldatasize, 0x04))\n      shr(0xe0, calldataload(0x00))\n      dup1\n      0x7a36b3ee\n      gt\n      tag_11\n      jumpi\n      dup1\n      0x7a36b3ee\n      eq\n      tag_7\n      jumpi\n      dup1\n      0xa3ec138d\n      eq\n      tag_8\n      jumpi\n      dup1\n      0xf927cc29\n      eq\n      tag_9\n      jumpi\n      dup1\n      0xfc36e15b\n      eq\n      tag_10\n      jumpi\n      jump(tag_2)\n    tag_11:\n      dup1\n      0x011d1023\n      eq\n      tag_3\n      jumpi\n      dup1\n      0x2bfda515\n      eq\n      tag_4\n      jumpi\n      dup1\n      0x3477ee2e\n      eq\n      tag_5\n      jumpi\n      dup1\n      0x68957b20\n      eq\n      tag_6\n      jumpi\n    tag_2:\n      0x00\n      dup1\n      revert\n        /* \"contracts/Ballot/Ballot.sol\":5882:6289  function getCandidatesListName() public view returns (string[] memory) {\r... */\n    tag_3:\n      tag_12\n      tag_13\n      jump\t// in\n    tag_12:\n      mload(0x40)\n      tag_14\n      swap2\n      swap1\n      tag_15\n      jump\t// in\n    tag_14:\n      mload(0x40)\n      dup1\n      swap2\n      sub\n      swap1\n      return\n        /* \"contracts/Ballot/Ballot.sol\":3574:3837  function getWinnerName() public view returns (string memory winnerName, address) {\r... */\n    tag_4:\n      tag_16\n      tag_17\n      jump\t// in\n    tag_16:\n      mload(0x40)\n      tag_18\n      swap3\n      swap2\n      swap1\n      tag_19\n      jump\t// in\n    tag_18:\n      mload(0x40)\n      dup1\n      swap2\n      sub\n      swap1\n      return\n        /* \"contracts/Ballot/Ballot.sol\":402:431  Candidate[] public candidates */\n    tag_5:\n      tag_20\n      0x04\n      dup1\n      calldatasize\n      sub\n      dup2\n      add\n      swap1\n      tag_21\n      swap2\n      swap1\n      tag_22\n      jump\t// in\n    tag_21:\n      tag_23\n      jump\t// in\n    tag_20:\n      mload(0x40)\n      tag_24\n      swap3\n      swap2\n      swap1\n      tag_25\n      jump\t// in\n    tag_24:\n      mload(0x40)\n      dup1\n      swap2\n      sub\n      swap1\n      return\n        /* \"contracts/Ballot/Ballot.sol\":2734:2960  function giveRightToVote(address voterAddress, string memory _nameVoter) public giveRightToVoteModifier(voterAddress) {\r... */\n    tag_6:\n      tag_26\n      0x04\n      dup1\n      calldatasize\n      sub\n      dup2\n      add\n      swap1\n      tag_27\n      swap2\n      swap1\n      tag_28\n      jump\t// in\n    tag_27:\n      tag_29\n      jump\t// in\n    tag_26:\n      stop\n        /* \"contracts/Ballot/Ballot.sol\":7241:7405  function concatenateStrings(string memory s1, string memory s2) public pure returns (string memory) {\r... */\n    tag_7:\n      tag_30\n      0x04\n      dup1\n      calldatasize\n      sub\n      dup2\n      add\n      swap1\n      tag_31\n      swap2\n      swap1\n      tag_32\n      jump\t// in\n    tag_31:\n      tag_33\n      jump\t// in\n    tag_30:\n      mload(0x40)\n      tag_34\n      swap2\n      swap1\n      tag_35\n      jump\t// in\n    tag_34:\n      mload(0x40)\n      dup1\n      swap2\n      sub\n      swap1\n      return\n        /* \"contracts/Ballot/Ballot.sol\":354:393  mapping(address => Voter) public voters */\n    tag_8:\n      tag_36\n      0x04\n      dup1\n      calldatasize\n      sub\n      dup2\n      add\n      swap1\n      tag_37\n      swap2\n      swap1\n      tag_38\n      jump\t// in\n    tag_37:\n      tag_39\n      jump\t// in\n    tag_36:\n      mload(0x40)\n      tag_40\n      swap4\n      swap3\n      swap2\n      swap1\n      tag_41\n      jump\t// in\n    tag_40:\n      mload(0x40)\n      dup1\n      swap2\n      sub\n      swap1\n      return\n        /* \"contracts/Ballot/Ballot.sol\":3845:5874  function getWinningCandidate() public view returns (Candidate memory winningCandidate) {        \r... */\n    tag_9:\n      tag_42\n      tag_43\n      jump\t// in\n    tag_42:\n      mload(0x40)\n      tag_44\n      swap2\n      swap1\n      tag_45\n      jump\t// in\n    tag_44:\n      mload(0x40)\n      dup1\n      swap2\n      sub\n      swap1\n      return\n        /* \"contracts/Ballot/Ballot.sol\":2968:3566  function vote(string memory _nameProject) public voteModifierBefore(msg.sender) voteModifierAfter(voters[msg.sender].hasVoted){\r... */\n    tag_10:\n      tag_46\n      0x04\n      dup1\n      calldatasize\n      sub\n      dup2\n      add\n      swap1\n      tag_47\n      swap2\n      swap1\n      tag_48\n      jump\t// in\n    tag_47:\n      tag_49\n      jump\t// in\n    tag_46:\n      stop\n        /* \"contracts/Ballot/Ballot.sol\":5882:6289  function getCandidatesListName() public view returns (string[] memory) {\r... */\n    tag_13:\n        /* \"contracts/Ballot/Ballot.sol\":5936:5951  string[] memory */\n      0x60\n        /* \"contracts/Ballot/Ballot.sol\":5964:5985  uint candidatesLength */\n      0x00\n        /* \"contracts/Ballot/Ballot.sol\":5988:5998  candidates */\n      0x02\n        /* \"contracts/Ballot/Ballot.sol\":5988:6005  candidates.length */\n      dup1\n      sload\n      swap1\n      pop\n        /* \"contracts/Ballot/Ballot.sol\":5964:6005  uint candidatesLength = candidates.length */\n      swap1\n      pop\n        /* \"contracts/Ballot/Ballot.sol\":6016:6050  string[] memory candidatesListName */\n      0x00\n        /* \"contracts/Ballot/Ballot.sol\":6066:6082  candidatesLength */\n      dup2\n        /* \"contracts/Ballot/Ballot.sol\":6053:6083  new string[](candidatesLength) */\n      0xffffffffffffffff\n      dup2\n      gt\n      iszero\n      tag_51\n      jumpi\n      tag_52\n      tag_53\n      jump\t// in\n    tag_52:\n    tag_51:\n      mload(0x40)\n      swap1\n      dup1\n      dup3\n      mstore\n      dup1\n      0x20\n      mul\n      0x20\n      add\n      dup3\n      add\n      0x40\n      mstore\n      dup1\n      iszero\n      tag_54\n      jumpi\n      dup2\n      0x20\n      add\n    tag_55:\n      0x60\n      dup2\n      mstore\n      0x20\n      add\n      swap1\n      0x01\n      swap1\n      sub\n      swap1\n      dup2\n      tag_55\n      jumpi\n      swap1\n      pop\n    tag_54:\n      pop\n        /* \"contracts/Ballot/Ballot.sol\":6016:6083  string[] memory candidatesListName = new string[](candidatesLength) */\n      swap1\n      pop\n        /* \"contracts/Ballot/Ballot.sol\":6109:6119  uint index */\n      0x00\n        /* \"contracts/Ballot/Ballot.sol\":6104:6244  for (uint index = 0; index < candidatesLength; index++) {\r... */\n    tag_56:\n        /* \"contracts/Ballot/Ballot.sol\":6133:6149  candidatesLength */\n      dup3\n        /* \"contracts/Ballot/Ballot.sol\":6125:6130  index */\n      dup2\n        /* \"contracts/Ballot/Ballot.sol\":6125:6149  index < candidatesLength */\n      lt\n        /* \"contracts/Ballot/Ballot.sol\":6104:6244  for (uint index = 0; index < candidatesLength; index++) {\r... */\n      iszero\n      tag_57\n      jumpi\n        /* \"contracts/Ballot/Ballot.sol\":6203:6213  candidates */\n      0x02\n        /* \"contracts/Ballot/Ballot.sol\":6214:6219  index */\n      dup2\n        /* \"contracts/Ballot/Ballot.sol\":6203:6220  candidates[index] */\n      dup2\n      sload\n      dup2\n      lt\n      tag_59\n      jumpi\n      tag_60\n      tag_61\n      jump\t// in\n    tag_60:\n    tag_59:\n      swap1\n      0x00\n      mstore\n      keccak256(0x00, 0x20)\n      swap1\n      0x02\n      mul\n      add\n        /* \"contracts/Ballot/Ballot.sol\":6203:6232  candidates[index].nameProject */\n      0x00\n      add\n        /* \"contracts/Ballot/Ballot.sol\":6175:6232  candidatesListName[index] = candidates[index].nameProject */\n      dup1\n      sload\n      tag_63\n      swap1\n      tag_64\n      jump\t// in\n    tag_63:\n      dup1\n      0x1f\n      add\n      0x20\n      dup1\n      swap2\n      div\n      mul\n      0x20\n      add\n      mload(0x40)\n      swap1\n      dup2\n      add\n      0x40\n      mstore\n      dup1\n      swap3\n      swap2\n      swap1\n      dup2\n      dup2\n      mstore\n      0x20\n      add\n      dup3\n      dup1\n      sload\n      tag_65\n      swap1\n      tag_64\n      jump\t// in\n    tag_65:\n      dup1\n      iszero\n      tag_66\n      jumpi\n      dup1\n      0x1f\n      lt\n      tag_67\n      jumpi\n      0x0100\n      dup1\n      dup4\n      sload\n      div\n      mul\n      dup4\n      mstore\n      swap2\n      0x20\n      add\n      swap2\n      jump(tag_66)\n    tag_67:\n      dup3\n      add\n      swap2\n      swap1\n      0x00\n      mstore\n      keccak256(0x00, 0x20)\n      swap1\n    tag_68:\n      dup2\n      sload\n      dup2\n      mstore\n      swap1\n      0x01\n      add\n      swap1\n      0x20\n      add\n      dup1\n      dup4\n      gt\n      tag_68\n      jumpi\n      dup3\n      swap1\n      sub\n      0x1f\n      and\n      dup3\n      add\n      swap2\n    tag_66:\n      pop\n      pop\n      pop\n      pop\n      pop\n        /* \"contracts/Ballot/Ballot.sol\":6175:6193  candidatesListName */\n      dup3\n        /* \"contracts/Ballot/Ballot.sol\":6194:6199  index */\n      dup3\n        /* \"contracts/Ballot/Ballot.sol\":6175:6200  candidatesListName[index] */\n      dup2\n      mload\n      dup2\n      lt\n      tag_69\n      jumpi\n      tag_70\n      tag_61\n      jump\t// in\n    tag_70:\n    tag_69:\n      0x20\n      mul\n      0x20\n      add\n      add\n        /* \"contracts/Ballot/Ballot.sol\":6175:6232  candidatesListName[index] = candidates[index].nameProject */\n      dup2\n      swap1\n      mstore\n      pop\n        /* \"contracts/Ballot/Ballot.sol\":6151:6158  index++ */\n      dup1\n      dup1\n      tag_71\n      swap1\n      tag_72\n      jump\t// in\n    tag_71:\n      swap2\n      pop\n      pop\n        /* \"contracts/Ballot/Ballot.sol\":6104:6244  for (uint index = 0; index < candidatesLength; index++) {\r... */\n      jump(tag_56)\n    tag_57:\n      pop\n        /* \"contracts/Ballot/Ballot.sol\":6263:6281  candidatesListName */\n      dup1\n        /* \"contracts/Ballot/Ballot.sol\":6256:6281  return candidatesListName */\n      swap3\n      pop\n      pop\n      pop\n        /* \"contracts/Ballot/Ballot.sol\":5882:6289  function getCandidatesListName() public view returns (string[] memory) {\r... */\n      swap1\n      jump\t// out\n        /* \"contracts/Ballot/Ballot.sol\":3574:3837  function getWinnerName() public view returns (string memory winnerName, address) {\r... */\n    tag_17:\n        /* \"contracts/Ballot/Ballot.sol\":3620:3644  string memory winnerName */\n      0x60\n        /* \"contracts/Ballot/Ballot.sol\":3646:3653  address */\n      0x00\n        /* \"contracts/Ballot/Ballot.sol\":3667:3700  Candidate memory winningCandidate */\n      dup1\n        /* \"contracts/Ballot/Ballot.sol\":3704:3725  getWinningCandidate() */\n      tag_74\n        /* \"contracts/Ballot/Ballot.sol\":3704:3723  getWinningCandidate */\n      tag_43\n        /* \"contracts/Ballot/Ballot.sol\":3704:3725  getWinningCandidate() */\n      jump\t// in\n    tag_74:\n        /* \"contracts/Ballot/Ballot.sol\":3666:3725  (Candidate memory winningCandidate) = getWinningCandidate() */\n      swap1\n      pop\n        /* \"contracts/Ballot/Ballot.sol\":3749:3765  winningCandidate */\n      dup1\n        /* \"contracts/Ballot/Ballot.sol\":3749:3777  winningCandidate.nameProject */\n      0x00\n      add\n      mload\n        /* \"contracts/Ballot/Ballot.sol\":3736:3777  winnerName = winningCandidate.nameProject */\n      swap3\n      pop\n        /* \"contracts/Ballot/Ballot.sol\":3796:3806  winnerName */\n      dup3\n        /* \"contracts/Ballot/Ballot.sol\":3808:3828  getContractAddress() */\n      tag_75\n        /* \"contracts/Ballot/Ballot.sol\":3808:3826  getContractAddress */\n      tag_76\n        /* \"contracts/Ballot/Ballot.sol\":3808:3828  getContractAddress() */\n      jump\t// in\n    tag_75:\n        /* \"contracts/Ballot/Ballot.sol\":3788:3829  return (winnerName, getContractAddress()) */\n      swap3\n      pop\n      swap3\n      pop\n      pop\n        /* \"contracts/Ballot/Ballot.sol\":3574:3837  function getWinnerName() public view returns (string memory winnerName, address) {\r... */\n      swap1\n      swap2\n      jump\t// out\n        /* \"contracts/Ballot/Ballot.sol\":402:431  Candidate[] public candidates */\n    tag_23:\n      0x02\n      dup2\n      dup2\n      sload\n      dup2\n      lt\n      tag_77\n      jumpi\n      0x00\n      dup1\n      revert\n    tag_77:\n      swap1\n      0x00\n      mstore\n      keccak256(0x00, 0x20)\n      swap1\n      0x02\n      mul\n      add\n      0x00\n      swap2\n      pop\n      swap1\n      pop\n      dup1\n      0x00\n      add\n      dup1\n      sload\n      tag_79\n      swap1\n      tag_64\n      jump\t// in\n    tag_79:\n      dup1\n      0x1f\n      add\n      0x20\n      dup1\n      swap2\n      div\n      mul\n      0x20\n      add\n      mload(0x40)\n      swap1\n      dup2\n      add\n      0x40\n      mstore\n      dup1\n      swap3\n      swap2\n      swap1\n      dup2\n      dup2\n      mstore\n      0x20\n      add\n      dup3\n      dup1\n      sload\n      tag_80\n      swap1\n      tag_64\n      jump\t// in\n    tag_80:\n      dup1\n      iszero\n      tag_81\n      jumpi\n      dup1\n      0x1f\n      lt\n      tag_82\n      jumpi\n      0x0100\n      dup1\n      dup4\n      sload\n      div\n      mul\n      dup4\n      mstore\n      swap2\n      0x20\n      add\n      swap2\n      jump(tag_81)\n    tag_82:\n      dup3\n      add\n      swap2\n      swap1\n      0x00\n      mstore\n      keccak256(0x00, 0x20)\n      swap1\n    tag_83:\n      dup2\n      sload\n      dup2\n      mstore\n      swap1\n      0x01\n      add\n      swap1\n      0x20\n      add\n      dup1\n      dup4\n      gt\n      tag_83\n      jumpi\n      dup3\n      swap1\n      sub\n      0x1f\n      and\n      dup3\n      add\n      swap2\n    tag_81:\n      pop\n      pop\n      pop\n      pop\n      pop\n      swap1\n      dup1\n      0x01\n      add\n      sload\n      swap1\n      pop\n      dup3\n      jump\t// out\n        /* \"contracts/Ballot/Ballot.sol\":2734:2960  function giveRightToVote(address voterAddress, string memory _nameVoter) public giveRightToVoteModifier(voterAddress) {\r... */\n    tag_29:\n        /* \"contracts/Ballot/Ballot.sol\":2838:2850  voterAddress */\n      dup2\n        /* \"contracts/Ballot/Ballot.sol\":1010:1046  getTotalVotesCounterReachedRequire() */\n      tag_85\n        /* \"contracts/Ballot/Ballot.sol\":1010:1044  getTotalVotesCounterReachedRequire */\n      tag_86\n        /* \"contracts/Ballot/Ballot.sol\":1010:1046  getTotalVotesCounterReachedRequire() */\n      jump\t// in\n    tag_85:\n        /* \"contracts/Ballot/Ballot.sol\":1079:1100  areYouContractOwner() */\n      tag_87\n        /* \"contracts/Ballot/Ballot.sol\":1079:1098  areYouContractOwner */\n      tag_88\n        /* \"contracts/Ballot/Ballot.sol\":1079:1100  areYouContractOwner() */\n      jump\t// in\n    tag_87:\n        /* \"contracts/Ballot/Ballot.sol\":1057:1175  require(\r... */\n      tag_89\n      jumpi\n      mload(0x40)\n      0x08c379a000000000000000000000000000000000000000000000000000000000\n      dup2\n      mstore\n      0x04\n      add\n      tag_90\n      swap1\n      tag_91\n      jump\t// in\n    tag_90:\n      mload(0x40)\n      dup1\n      swap2\n      sub\n      swap1\n      revert\n    tag_89:\n        /* \"contracts/Ballot/Ballot.sol\":1209:1215  voters */\n      0x01\n        /* \"contracts/Ballot/Ballot.sol\":1209:1229  voters[voterAddress] */\n      0x00\n        /* \"contracts/Ballot/Ballot.sol\":1216:1228  voterAddress */\n      dup3\n        /* \"contracts/Ballot/Ballot.sol\":1209:1229  voters[voterAddress] */\n      0xffffffffffffffffffffffffffffffffffffffff\n      and\n      0xffffffffffffffffffffffffffffffffffffffff\n      and\n      dup2\n      mstore\n      0x20\n      add\n      swap1\n      dup2\n      mstore\n      0x20\n      add\n      0x00\n      keccak256\n        /* \"contracts/Ballot/Ballot.sol\":1209:1237  voters[voterAddress].canVote */\n      0x01\n      add\n      0x00\n      swap1\n      sload\n      swap1\n      0x0100\n      exp\n      swap1\n      div\n      0xff\n      and\n        /* \"contracts/Ballot/Ballot.sol\":1208:1237  !voters[voterAddress].canVote */\n      iszero\n        /* \"contracts/Ballot/Ballot.sol\":1186:1302  require(\r... */\n      tag_92\n      jumpi\n      mload(0x40)\n      0x08c379a000000000000000000000000000000000000000000000000000000000\n      dup2\n      mstore\n      0x04\n      add\n      tag_93\n      swap1\n      tag_94\n      jump\t// in\n    tag_93:\n      mload(0x40)\n      dup1\n      swap2\n      sub\n      swap1\n      revert\n    tag_92:\n        /* \"contracts/Ballot/Ballot.sol\":1313:1347  getVoterVotedRequire(voterAddress) */\n      tag_95\n        /* \"contracts/Ballot/Ballot.sol\":1334:1346  voterAddress */\n      dup2\n        /* \"contracts/Ballot/Ballot.sol\":1313:1333  getVoterVotedRequire */\n      tag_96\n        /* \"contracts/Ballot/Ballot.sol\":1313:1347  getVoterVotedRequire(voterAddress) */\n      jump\t// in\n    tag_95:\n        /* \"contracts/Ballot/Ballot.sol\":2896:2906  _nameVoter */\n      dup2\n        /* \"contracts/Ballot/Ballot.sol\":2863:2869  voters */\n      0x01\n        /* \"contracts/Ballot/Ballot.sol\":2863:2883  voters[voterAddress] */\n      0x00\n        /* \"contracts/Ballot/Ballot.sol\":2870:2882  voterAddress */\n      dup6\n        /* \"contracts/Ballot/Ballot.sol\":2863:2883  voters[voterAddress] */\n      0xffffffffffffffffffffffffffffffffffffffff\n      and\n      0xffffffffffffffffffffffffffffffffffffffff\n      and\n      dup2\n      mstore\n      0x20\n      add\n      swap1\n      dup2\n      mstore\n      0x20\n      add\n      0x00\n      keccak256\n        /* \"contracts/Ballot/Ballot.sol\":2863:2893  voters[voterAddress].nameVoter */\n      0x00\n      add\n        /* \"contracts/Ballot/Ballot.sol\":2863:2906  voters[voterAddress].nameVoter = _nameVoter */\n      swap1\n      dup1\n      mload\n      swap1\n      0x20\n      add\n      swap1\n      tag_98\n      swap3\n      swap2\n      swap1\n      tag_99\n      jump\t// in\n    tag_98:\n      pop\n        /* \"contracts/Ballot/Ballot.sol\":2948:2952  true */\n      0x01\n        /* \"contracts/Ballot/Ballot.sol\":2917:2923  voters */\n      dup1\n        /* \"contracts/Ballot/Ballot.sol\":2917:2937  voters[voterAddress] */\n      0x00\n        /* \"contracts/Ballot/Ballot.sol\":2924:2936  voterAddress */\n      dup6\n        /* \"contracts/Ballot/Ballot.sol\":2917:2937  voters[voterAddress] */\n      0xffffffffffffffffffffffffffffffffffffffff\n      and\n      0xffffffffffffffffffffffffffffffffffffffff\n      and\n      dup2\n      mstore\n      0x20\n      add\n      swap1\n      dup2\n      mstore\n      0x20\n      add\n      0x00\n      keccak256\n        /* \"contracts/Ballot/Ballot.sol\":2917:2945  voters[voterAddress].canVote */\n      0x01\n      add\n      0x00\n        /* \"contracts/Ballot/Ballot.sol\":2917:2952  voters[voterAddress].canVote = true */\n      0x0100\n      exp\n      dup2\n      sload\n      dup2\n      0xff\n      mul\n      not\n      and\n      swap1\n      dup4\n      iszero\n      iszero\n      mul\n      or\n      swap1\n      sstore\n      pop\n        /* \"contracts/Ballot/Ballot.sol\":2734:2960  function giveRightToVote(address voterAddress, string memory _nameVoter) public giveRightToVoteModifier(voterAddress) {\r... */\n      pop\n      pop\n      pop\n      jump\t// out\n        /* \"contracts/Ballot/Ballot.sol\":7241:7405  function concatenateStrings(string memory s1, string memory s2) public pure returns (string memory) {\r... */\n    tag_33:\n        /* \"contracts/Ballot/Ballot.sol\":7326:7339  string memory */\n      0x60\n        /* \"contracts/Ballot/Ballot.sol\":7383:7385  s1 */\n      dup3\n        /* \"contracts/Ballot/Ballot.sol\":7393:7395  s2 */\n      dup3\n        /* \"contracts/Ballot/Ballot.sol\":7366:7396  abi.encodePacked(s1, \" \" , s2) */\n      add(0x20, mload(0x40))\n      tag_101\n      swap3\n      swap2\n      swap1\n      tag_102\n      jump\t// in\n    tag_101:\n      mload(0x40)\n      0x20\n      dup2\n      dup4\n      sub\n      sub\n      dup2\n      mstore\n      swap1\n      0x40\n      mstore\n        /* \"contracts/Ballot/Ballot.sol\":7352:7397  return string(abi.encodePacked(s1, \" \" , s2)) */\n      swap1\n      pop\n        /* \"contracts/Ballot/Ballot.sol\":7241:7405  function concatenateStrings(string memory s1, string memory s2) public pure returns (string memory) {\r... */\n      swap3\n      swap2\n      pop\n      pop\n      jump\t// out\n        /* \"contracts/Ballot/Ballot.sol\":354:393  mapping(address => Voter) public voters */\n    tag_39:\n      mstore(0x20, 0x01)\n      dup1\n      0x00\n      mstore\n      keccak256(0x00, 0x40)\n      0x00\n      swap2\n      pop\n      swap1\n      pop\n      dup1\n      0x00\n      add\n      dup1\n      sload\n      tag_103\n      swap1\n      tag_64\n      jump\t// in\n    tag_103:\n      dup1\n      0x1f\n      add\n      0x20\n      dup1\n      swap2\n      div\n      mul\n      0x20\n      add\n      mload(0x40)\n      swap1\n      dup2\n      add\n      0x40\n      mstore\n      dup1\n      swap3\n      swap2\n      swap1\n      dup2\n      dup2\n      mstore\n      0x20\n      add\n      dup3\n      dup1\n      sload\n      tag_104\n      swap1\n      tag_64\n      jump\t// in\n    tag_104:\n      dup1\n      iszero\n      tag_105\n      jumpi\n      dup1\n      0x1f\n      lt\n      tag_106\n      jumpi\n      0x0100\n      dup1\n      dup4\n      sload\n      div\n      mul\n      dup4\n      mstore\n      swap2\n      0x20\n      add\n      swap2\n      jump(tag_105)\n    tag_106:\n      dup3\n      add\n      swap2\n      swap1\n      0x00\n      mstore\n      keccak256(0x00, 0x20)\n      swap1\n    tag_107:\n      dup2\n      sload\n      dup2\n      mstore\n      swap1\n      0x01\n      add\n      swap1\n      0x20\n      add\n      dup1\n      dup4\n      gt\n      tag_107\n      jumpi\n      dup3\n      swap1\n      sub\n      0x1f\n      and\n      dup3\n      add\n      swap2\n    tag_105:\n      pop\n      pop\n      pop\n      pop\n      pop\n      swap1\n      dup1\n      0x01\n      add\n      0x00\n      swap1\n      sload\n      swap1\n      0x0100\n      exp\n      swap1\n      div\n      0xff\n      and\n      swap1\n      dup1\n      0x01\n      add\n      0x01\n      swap1\n      sload\n      swap1\n      0x0100\n      exp\n      swap1\n      div\n      0xff\n      and\n      swap1\n      pop\n      dup4\n      jump\t// out\n        /* \"contracts/Ballot/Ballot.sol\":3845:5874  function getWinningCandidate() public view returns (Candidate memory winningCandidate) {        \r... */\n    tag_43:\n        /* \"contracts/Ballot/Ballot.sol\":3897:3930  Candidate memory winningCandidate */\n      tag_108\n      tag_109\n      jump\t// in\n    tag_108:\n        /* \"contracts/Ballot/Ballot.sol\":3951:3972  uint winningVoteCount */\n      0x00\n        /* \"contracts/Ballot/Ballot.sol\":3983:4009  uint winningCandidateIndex */\n      dup1\n        /* \"contracts/Ballot/Ballot.sol\":4022:4043  uint candidatesLength */\n      0x00\n        /* \"contracts/Ballot/Ballot.sol\":4046:4056  candidates */\n      0x02\n        /* \"contracts/Ballot/Ballot.sol\":4046:4063  candidates.length */\n      dup1\n      sload\n      swap1\n      pop\n        /* \"contracts/Ballot/Ballot.sol\":4022:4063  uint candidatesLength = candidates.length */\n      swap1\n      pop\n        /* \"contracts/Ballot/Ballot.sol\":4084:4117  string[] memory tieCandidatesList */\n      0x00\n        /* \"contracts/Ballot/Ballot.sol\":4133:4149  candidatesLength */\n      dup2\n        /* \"contracts/Ballot/Ballot.sol\":4120:4150  new string[](candidatesLength) */\n      0xffffffffffffffff\n      dup2\n      gt\n      iszero\n      tag_111\n      jumpi\n      tag_112\n      tag_53\n      jump\t// in\n    tag_112:\n    tag_111:\n      mload(0x40)\n      swap1\n      dup1\n      dup3\n      mstore\n      dup1\n      0x20\n      mul\n      0x20\n      add\n      dup3\n      add\n      0x40\n      mstore\n      dup1\n      iszero\n      tag_113\n      jumpi\n      dup2\n      0x20\n      add\n    tag_114:\n      0x60\n      dup2\n      mstore\n      0x20\n      add\n      swap1\n      0x01\n      swap1\n      sub\n      swap1\n      dup2\n      tag_114\n      jumpi\n      swap1\n      pop\n    tag_113:\n      pop\n        /* \"contracts/Ballot/Ballot.sol\":4084:4150  string[] memory tieCandidatesList = new string[](candidatesLength) */\n      swap1\n      pop\n        /* \"contracts/Ballot/Ballot.sol\":4161:4188  uint tieCandidatesListIndex */\n      0x00\n        /* \"contracts/Ballot/Ballot.sol\":4199:4209  bool isTie */\n      dup1\n        /* \"contracts/Ballot/Ballot.sol\":4212:4216  true */\n      0x01\n        /* \"contracts/Ballot/Ballot.sol\":4199:4216  bool isTie = true */\n      swap1\n      pop\n        /* \"contracts/Ballot/Ballot.sol\":4227:4263  string memory tieCandidatesListNames */\n      0x60\n        /* \"contracts/Ballot/Ballot.sol\":4281:4300  uint indexCandidate */\n      0x00\n        /* \"contracts/Ballot/Ballot.sol\":4276:5226  for (uint indexCandidate = 0; indexCandidate < candidatesLength; indexCandidate++) {\r... */\n    tag_115:\n        /* \"contracts/Ballot/Ballot.sol\":4323:4339  candidatesLength */\n      dup6\n        /* \"contracts/Ballot/Ballot.sol\":4306:4320  indexCandidate */\n      dup2\n        /* \"contracts/Ballot/Ballot.sol\":4306:4339  indexCandidate < candidatesLength */\n      lt\n        /* \"contracts/Ballot/Ballot.sol\":4276:5226  for (uint indexCandidate = 0; indexCandidate < candidatesLength; indexCandidate++) {\r... */\n      iszero\n      tag_116\n      jumpi\n        /* \"contracts/Ballot/Ballot.sol\":4418:4434  winningVoteCount */\n      dup8\n        /* \"contracts/Ballot/Ballot.sol\":4378:4388  candidates */\n      0x02\n        /* \"contracts/Ballot/Ballot.sol\":4389:4403  indexCandidate */\n      dup3\n        /* \"contracts/Ballot/Ballot.sol\":4378:4404  candidates[indexCandidate] */\n      dup2\n      sload\n      dup2\n      lt\n      tag_118\n      jumpi\n      tag_119\n      tag_61\n      jump\t// in\n    tag_119:\n    tag_118:\n      swap1\n      0x00\n      mstore\n      keccak256(0x00, 0x20)\n      swap1\n      0x02\n      mul\n      add\n        /* \"contracts/Ballot/Ballot.sol\":4378:4415  candidates[indexCandidate].votesCount */\n      0x01\n      add\n      sload\n        /* \"contracts/Ballot/Ballot.sol\":4378:4434  candidates[indexCandidate].votesCount > winningVoteCount */\n      gt\n        /* \"contracts/Ballot/Ballot.sol\":4374:5203  if (candidates[indexCandidate].votesCount > winningVoteCount) {\r... */\n      iszero\n      tag_121\n      jumpi\n        /* \"contracts/Ballot/Ballot.sol\":4474:4484  candidates */\n      0x02\n        /* \"contracts/Ballot/Ballot.sol\":4485:4499  indexCandidate */\n      dup2\n        /* \"contracts/Ballot/Ballot.sol\":4474:4500  candidates[indexCandidate] */\n      dup2\n      sload\n      dup2\n      lt\n      tag_122\n      jumpi\n      tag_123\n      tag_61\n      jump\t// in\n    tag_123:\n    tag_122:\n      swap1\n      0x00\n      mstore\n      keccak256(0x00, 0x20)\n      swap1\n      0x02\n      mul\n      add\n        /* \"contracts/Ballot/Ballot.sol\":4474:4511  candidates[indexCandidate].votesCount */\n      0x01\n      add\n      sload\n        /* \"contracts/Ballot/Ballot.sol\":4455:4511  winningVoteCount = candidates[indexCandidate].votesCount */\n      swap8\n      pop\n        /* \"contracts/Ballot/Ballot.sol\":4554:4568  indexCandidate */\n      dup1\n        /* \"contracts/Ballot/Ballot.sol\":4530:4568  winningCandidateIndex = indexCandidate */\n      swap7\n      pop\n        /* \"contracts/Ballot/Ballot.sol\":4591:4596  isTie */\n      dup3\n        /* \"contracts/Ballot/Ballot.sol\":4587:4928  if (isTie) {\r... */\n      iszero\n      tag_125\n      jumpi\n        /* \"contracts/Ballot/Ballot.sol\":4629:4634  false */\n      0x00\n        /* \"contracts/Ballot/Ballot.sol\":4621:4634  isTie = false */\n      swap3\n      pop\n        /* \"contracts/Ballot/Ballot.sol\":4682:4683  0 */\n      0x00\n        /* \"contracts/Ballot/Ballot.sol\":4657:4683  tieCandidatesListIndex = 0 */\n      swap4\n      pop\n        /* \"contracts/Ballot/Ballot.sol\":4739:4755  candidatesLength */\n      dup6\n        /* \"contracts/Ballot/Ballot.sol\":4726:4756  new string[](candidatesLength) */\n      0xffffffffffffffff\n      dup2\n      gt\n      iszero\n      tag_126\n      jumpi\n      tag_127\n      tag_53\n      jump\t// in\n    tag_127:\n    tag_126:\n      mload(0x40)\n      swap1\n      dup1\n      dup3\n      mstore\n      dup1\n      0x20\n      mul\n      0x20\n      add\n      dup3\n      add\n      0x40\n      mstore\n      dup1\n      iszero\n      tag_128\n      jumpi\n      dup2\n      0x20\n      add\n    tag_129:\n      0x60\n      dup2\n      mstore\n      0x20\n      add\n      swap1\n      0x01\n      swap1\n      sub\n      swap1\n      dup2\n      tag_129\n      jumpi\n      swap1\n      pop\n    tag_128:\n      pop\n        /* \"contracts/Ballot/Ballot.sol\":4706:4756  tieCandidatesList = new string[](candidatesLength) */\n      swap5\n      pop\n        /* \"contracts/Ballot/Ballot.sol\":4823:4833  candidates */\n      0x02\n        /* \"contracts/Ballot/Ballot.sol\":4834:4848  indexCandidate */\n      dup2\n        /* \"contracts/Ballot/Ballot.sol\":4823:4849  candidates[indexCandidate] */\n      dup2\n      sload\n      dup2\n      lt\n      tag_130\n      jumpi\n      tag_131\n      tag_61\n      jump\t// in\n    tag_131:\n    tag_130:\n      swap1\n      0x00\n      mstore\n      keccak256(0x00, 0x20)\n      swap1\n      0x02\n      mul\n      add\n        /* \"contracts/Ballot/Ballot.sol\":4823:4861  candidates[indexCandidate].nameProject */\n      0x00\n      add\n        /* \"contracts/Ballot/Ballot.sol\":4779:4861  tieCandidatesList[tieCandidatesListIndex] = candidates[indexCandidate].nameProject */\n      dup1\n      sload\n      tag_133\n      swap1\n      tag_64\n      jump\t// in\n    tag_133:\n      dup1\n      0x1f\n      add\n      0x20\n      dup1\n      swap2\n      div\n      mul\n      0x20\n      add\n      mload(0x40)\n      swap1\n      dup2\n      add\n      0x40\n      mstore\n      dup1\n      swap3\n      swap2\n      swap1\n      dup2\n      dup2\n      mstore\n      0x20\n      add\n      dup3\n      dup1\n      sload\n      tag_134\n      swap1\n      tag_64\n      jump\t// in\n    tag_134:\n      dup1\n      iszero\n      tag_135\n      jumpi\n      dup1\n      0x1f\n      lt\n      tag_136\n      jumpi\n      0x0100\n      dup1\n      dup4\n      sload\n      div\n      mul\n      dup4\n      mstore\n      swap2\n      0x20\n      add\n      swap2\n      jump(tag_135)\n    tag_136:\n      dup3\n      add\n      swap2\n      swap1\n      0x00\n      mstore\n      keccak256(0x00, 0x20)\n      swap1\n    tag_137:\n      dup2\n      sload\n      dup2\n      mstore\n      swap1\n      0x01\n      add\n      swap1\n      0x20\n      add\n      dup1\n      dup4\n      gt\n      tag_137\n      jumpi\n      dup3\n      swap1\n      sub\n      0x1f\n      and\n      dup3\n      add\n      swap2\n    tag_135:\n      pop\n      pop\n      pop\n      pop\n      pop\n        /* \"contracts/Ballot/Ballot.sol\":4779:4796  tieCandidatesList */\n      dup6\n        /* \"contracts/Ballot/Ballot.sol\":4797:4819  tieCandidatesListIndex */\n      dup6\n        /* \"contracts/Ballot/Ballot.sol\":4779:4820  tieCandidatesList[tieCandidatesListIndex] */\n      dup2\n      mload\n      dup2\n      lt\n      tag_138\n      jumpi\n      tag_139\n      tag_61\n      jump\t// in\n    tag_139:\n    tag_138:\n      0x20\n      mul\n      0x20\n      add\n      add\n        /* \"contracts/Ballot/Ballot.sol\":4779:4861  tieCandidatesList[tieCandidatesListIndex] = candidates[indexCandidate].nameProject */\n      dup2\n      swap1\n      mstore\n      pop\n        /* \"contracts/Ballot/Ballot.sol\":4884:4908  tieCandidatesListIndex++ */\n      dup4\n      dup1\n      tag_140\n      swap1\n      tag_72\n      jump\t// in\n    tag_140:\n      swap5\n      pop\n      pop\n        /* \"contracts/Ballot/Ballot.sol\":4587:4928  if (isTie) {\r... */\n    tag_125:\n        /* \"contracts/Ballot/Ballot.sol\":4374:5203  if (candidates[indexCandidate].votesCount > winningVoteCount) {\r... */\n      jump(tag_141)\n    tag_121:\n        /* \"contracts/Ballot/Ballot.sol\":4994:5010  winningVoteCount */\n      dup8\n        /* \"contracts/Ballot/Ballot.sol\":4953:4963  candidates */\n      0x02\n        /* \"contracts/Ballot/Ballot.sol\":4964:4978  indexCandidate */\n      dup3\n        /* \"contracts/Ballot/Ballot.sol\":4953:4979  candidates[indexCandidate] */\n      dup2\n      sload\n      dup2\n      lt\n      tag_142\n      jumpi\n      tag_143\n      tag_61\n      jump\t// in\n    tag_143:\n    tag_142:\n      swap1\n      0x00\n      mstore\n      keccak256(0x00, 0x20)\n      swap1\n      0x02\n      mul\n      add\n        /* \"contracts/Ballot/Ballot.sol\":4953:4990  candidates[indexCandidate].votesCount */\n      0x01\n      add\n      sload\n        /* \"contracts/Ballot/Ballot.sol\":4953:5010  candidates[indexCandidate].votesCount == winningVoteCount */\n      eq\n        /* \"contracts/Ballot/Ballot.sol\":4949:5203  if (candidates[indexCandidate].votesCount == winningVoteCount) {\r... */\n      iszero\n      tag_145\n      jumpi\n        /* \"contracts/Ballot/Ballot.sol\":5039:5043  true */\n      0x01\n        /* \"contracts/Ballot/Ballot.sol\":5031:5043  isTie = true */\n      swap3\n      pop\n        /* \"contracts/Ballot/Ballot.sol\":5106:5116  candidates */\n      0x02\n        /* \"contracts/Ballot/Ballot.sol\":5117:5131  indexCandidate */\n      dup2\n        /* \"contracts/Ballot/Ballot.sol\":5106:5132  candidates[indexCandidate] */\n      dup2\n      sload\n      dup2\n      lt\n      tag_146\n      jumpi\n      tag_147\n      tag_61\n      jump\t// in\n    tag_147:\n    tag_146:\n      swap1\n      0x00\n      mstore\n      keccak256(0x00, 0x20)\n      swap1\n      0x02\n      mul\n      add\n        /* \"contracts/Ballot/Ballot.sol\":5106:5144  candidates[indexCandidate].nameProject */\n      0x00\n      add\n        /* \"contracts/Ballot/Ballot.sol\":5062:5144  tieCandidatesList[tieCandidatesListIndex] = candidates[indexCandidate].nameProject */\n      dup1\n      sload\n      tag_149\n      swap1\n      tag_64\n      jump\t// in\n    tag_149:\n      dup1\n      0x1f\n      add\n      0x20\n      dup1\n      swap2\n      div\n      mul\n      0x20\n      add\n      mload(0x40)\n      swap1\n      dup2\n      add\n      0x40\n      mstore\n      dup1\n      swap3\n      swap2\n      swap1\n      dup2\n      dup2\n      mstore\n      0x20\n      add\n      dup3\n      dup1\n      sload\n      tag_150\n      swap1\n      tag_64\n      jump\t// in\n    tag_150:\n      dup1\n      iszero\n      tag_151\n      jumpi\n      dup1\n      0x1f\n      lt\n      tag_152\n      jumpi\n      0x0100\n      dup1\n      dup4\n      sload\n      div\n      mul\n      dup4\n      mstore\n      swap2\n      0x20\n      add\n      swap2\n      jump(tag_151)\n    tag_152:\n      dup3\n      add\n      swap2\n      swap1\n      0x00\n      mstore\n      keccak256(0x00, 0x20)\n      swap1\n    tag_153:\n      dup2\n      sload\n      dup2\n      mstore\n      swap1\n      0x01\n      add\n      swap1\n      0x20\n      add\n      dup1\n      dup4\n      gt\n      tag_153\n      jumpi\n      dup3\n      swap1\n      sub\n      0x1f\n      and\n      dup3\n      add\n      swap2\n    tag_151:\n      pop\n      pop\n      pop\n      pop\n      pop\n        /* \"contracts/Ballot/Ballot.sol\":5062:5079  tieCandidatesList */\n      dup6\n        /* \"contracts/Ballot/Ballot.sol\":5080:5102  tieCandidatesListIndex */\n      dup6\n        /* \"contracts/Ballot/Ballot.sol\":5062:5103  tieCandidatesList[tieCandidatesListIndex] */\n      dup2\n      mload\n      dup2\n      lt\n      tag_154\n      jumpi\n      tag_155\n      tag_61\n      jump\t// in\n    tag_155:\n    tag_154:\n      0x20\n      mul\n      0x20\n      add\n      add\n        /* \"contracts/Ballot/Ballot.sol\":5062:5144  tieCandidatesList[tieCandidatesListIndex] = candidates[indexCandidate].nameProject */\n      dup2\n      swap1\n      mstore\n      pop\n        /* \"contracts/Ballot/Ballot.sol\":5163:5187  tieCandidatesListIndex++ */\n      dup4\n      dup1\n      tag_156\n      swap1\n      tag_72\n      jump\t// in\n    tag_156:\n      swap5\n      pop\n      pop\n        /* \"contracts/Ballot/Ballot.sol\":4949:5203  if (candidates[indexCandidate].votesCount == winningVoteCount) {\r... */\n    tag_145:\n        /* \"contracts/Ballot/Ballot.sol\":4374:5203  if (candidates[indexCandidate].votesCount > winningVoteCount) {\r... */\n    tag_141:\n        /* \"contracts/Ballot/Ballot.sol\":4341:4357  indexCandidate++ */\n      dup1\n      dup1\n      tag_157\n      swap1\n      tag_72\n      jump\t// in\n    tag_157:\n      swap2\n      pop\n      pop\n        /* \"contracts/Ballot/Ballot.sol\":4276:5226  for (uint indexCandidate = 0; indexCandidate < candidatesLength; indexCandidate++) {\r... */\n      jump(tag_115)\n    tag_116:\n      pop\n        /* \"contracts/Ballot/Ballot.sol\":5244:5249  isTie */\n      dup2\n        /* \"contracts/Ballot/Ballot.sol\":5240:5867  if (isTie) {\r... */\n      iszero\n      tag_158\n      jumpi\n        /* \"contracts/Ballot/Ballot.sol\":5271:5290  uint indexCandidate */\n      0x00\n        /* \"contracts/Ballot/Ballot.sol\":5266:5493  for (uint indexCandidate = 0; indexCandidate < tieCandidatesList.length; indexCandidate++) {\r... */\n    tag_159:\n        /* \"contracts/Ballot/Ballot.sol\":5313:5330  tieCandidatesList */\n      dup5\n        /* \"contracts/Ballot/Ballot.sol\":5313:5337  tieCandidatesList.length */\n      mload\n        /* \"contracts/Ballot/Ballot.sol\":5296:5310  indexCandidate */\n      dup2\n        /* \"contracts/Ballot/Ballot.sol\":5296:5337  indexCandidate < tieCandidatesList.length */\n      lt\n        /* \"contracts/Ballot/Ballot.sol\":5266:5493  for (uint indexCandidate = 0; indexCandidate < tieCandidatesList.length; indexCandidate++) {\r... */\n      iszero\n      tag_160\n      jumpi\n        /* \"contracts/Ballot/Ballot.sol\":5401:5477  concatenateStrings(tieCandidatesListNames,tieCandidatesList[indexCandidate]) */\n      tag_162\n        /* \"contracts/Ballot/Ballot.sol\":5420:5442  tieCandidatesListNames */\n      dup3\n        /* \"contracts/Ballot/Ballot.sol\":5443:5460  tieCandidatesList */\n      dup7\n        /* \"contracts/Ballot/Ballot.sol\":5461:5475  indexCandidate */\n      dup4\n        /* \"contracts/Ballot/Ballot.sol\":5443:5476  tieCandidatesList[indexCandidate] */\n      dup2\n      mload\n      dup2\n      lt\n      tag_163\n      jumpi\n      tag_164\n      tag_61\n      jump\t// in\n    tag_164:\n    tag_163:\n      0x20\n      mul\n      0x20\n      add\n      add\n      mload\n        /* \"contracts/Ballot/Ballot.sol\":5401:5419  concatenateStrings */\n      tag_33\n        /* \"contracts/Ballot/Ballot.sol\":5401:5477  concatenateStrings(tieCandidatesListNames,tieCandidatesList[indexCandidate]) */\n      jump\t// in\n    tag_162:\n        /* \"contracts/Ballot/Ballot.sol\":5376:5477  tieCandidatesListNames = concatenateStrings(tieCandidatesListNames,tieCandidatesList[indexCandidate]) */\n      swap2\n      pop\n        /* \"contracts/Ballot/Ballot.sol\":5339:5355  indexCandidate++ */\n      dup1\n      dup1\n      tag_165\n      swap1\n      tag_72\n      jump\t// in\n    tag_165:\n      swap2\n      pop\n      pop\n        /* \"contracts/Ballot/Ballot.sol\":5266:5493  for (uint indexCandidate = 0; indexCandidate < tieCandidatesList.length; indexCandidate++) {\r... */\n      jump(tag_159)\n    tag_160:\n      pop\n        /* \"contracts/Ballot/Ballot.sol\":5521:5545  string memory tieMessage */\n      0x00\n        /* \"contracts/Ballot/Ballot.sol\":5548:5670  concatenateStrings(\"There is a tie on Ballot. You should start a new ballot with tie candidates:\", tieCandidatesListNames) */\n      tag_166\n      mload(0x40)\n      dup1\n      0x80\n      add\n      0x40\n      mstore\n      dup1\n      0x4c\n      dup2\n      mstore\n      0x20\n      add\n      data_2acf605e5cd1b7b0e6ec2502e1f86c81c25a2363f294a2e9f46595fbaefb5b6c\n      0x4c\n      swap2\n      codecopy\n        /* \"contracts/Ballot/Ballot.sol\":5647:5669  tieCandidatesListNames */\n      dup4\n        /* \"contracts/Ballot/Ballot.sol\":5548:5566  concatenateStrings */\n      tag_33\n        /* \"contracts/Ballot/Ballot.sol\":5548:5670  concatenateStrings(\"There is a tie on Ballot. You should start a new ballot with tie candidates:\", tieCandidatesListNames) */\n      jump\t// in\n    tag_166:\n        /* \"contracts/Ballot/Ballot.sol\":5521:5670  string memory tieMessage = concatenateStrings(\"There is a tie on Ballot. You should start a new ballot with tie candidates:\", tieCandidatesListNames) */\n      swap1\n      pop\n        /* \"contracts/Ballot/Ballot.sol\":5721:5726  false */\n      0x00\n        /* \"contracts/Ballot/Ballot.sol\":5745:5755  tieMessage */\n      dup2\n        /* \"contracts/Ballot/Ballot.sol\":5695:5770  require(\r... */\n      swap1\n      tag_167\n      jumpi\n      mload(0x40)\n      0x08c379a000000000000000000000000000000000000000000000000000000000\n      dup2\n      mstore\n      0x04\n      add\n      tag_168\n      swap2\n      swap1\n      tag_35\n      jump\t// in\n    tag_168:\n      mload(0x40)\n      dup1\n      swap2\n      sub\n      swap1\n      revert\n    tag_167:\n      pop\n        /* \"contracts/Ballot/Ballot.sol\":5251:5782  {\r... */\n      pop\n        /* \"contracts/Ballot/Ballot.sol\":5240:5867  if (isTie) {\r... */\n      jump(tag_169)\n    tag_158:\n        /* \"contracts/Ballot/Ballot.sol\":5822:5832  candidates */\n      0x02\n        /* \"contracts/Ballot/Ballot.sol\":5833:5854  winningCandidateIndex */\n      dup7\n        /* \"contracts/Ballot/Ballot.sol\":5822:5855  candidates[winningCandidateIndex] */\n      dup2\n      sload\n      dup2\n      lt\n      tag_170\n      jumpi\n      tag_171\n      tag_61\n      jump\t// in\n    tag_171:\n    tag_170:\n      swap1\n      0x00\n      mstore\n      keccak256(0x00, 0x20)\n      swap1\n      0x02\n      mul\n      add\n        /* \"contracts/Ballot/Ballot.sol\":5803:5855  winningCandidate = candidates[winningCandidateIndex] */\n      mload(0x40)\n      dup1\n      0x40\n      add\n      0x40\n      mstore\n      swap1\n      dup2\n      0x00\n      dup3\n      add\n      dup1\n      sload\n      tag_173\n      swap1\n      tag_64\n      jump\t// in\n    tag_173:\n      dup1\n      0x1f\n      add\n      0x20\n      dup1\n      swap2\n      div\n      mul\n      0x20\n      add\n      mload(0x40)\n      swap1\n      dup2\n      add\n      0x40\n      mstore\n      dup1\n      swap3\n      swap2\n      swap1\n      dup2\n      dup2\n      mstore\n      0x20\n      add\n      dup3\n      dup1\n      sload\n      tag_174\n      swap1\n      tag_64\n      jump\t// in\n    tag_174:\n      dup1\n      iszero\n      tag_175\n      jumpi\n      dup1\n      0x1f\n      lt\n      tag_176\n      jumpi\n      0x0100\n      dup1\n      dup4\n      sload\n      div\n      mul\n      dup4\n      mstore\n      swap2\n      0x20\n      add\n      swap2\n      jump(tag_175)\n    tag_176:\n      dup3\n      add\n      swap2\n      swap1\n      0x00\n      mstore\n      keccak256(0x00, 0x20)\n      swap1\n    tag_177:\n      dup2\n      sload\n      dup2\n      mstore\n      swap1\n      0x01\n      add\n      swap1\n      0x20\n      add\n      dup1\n      dup4\n      gt\n      tag_177\n      jumpi\n      dup3\n      swap1\n      sub\n      0x1f\n      and\n      dup3\n      add\n      swap2\n    tag_175:\n      pop\n      pop\n      pop\n      pop\n      pop\n      dup2\n      mstore\n      0x20\n      add\n      0x01\n      dup3\n      add\n      sload\n      dup2\n      mstore\n      pop\n      pop\n      swap8\n      pop\n        /* \"contracts/Ballot/Ballot.sol\":5240:5867  if (isTie) {\r... */\n    tag_169:\n        /* \"contracts/Ballot/Ballot.sol\":3932:5874  {        \r... */\n      pop\n      pop\n      pop\n      pop\n      pop\n      pop\n      pop\n        /* \"contracts/Ballot/Ballot.sol\":3845:5874  function getWinningCandidate() public view returns (Candidate memory winningCandidate) {        \r... */\n      swap1\n      jump\t// out\n        /* \"contracts/Ballot/Ballot.sol\":2968:3566  function vote(string memory _nameProject) public voteModifierBefore(msg.sender) voteModifierAfter(voters[msg.sender].hasVoted){\r... */\n    tag_49:\n        /* \"contracts/Ballot/Ballot.sol\":3036:3046  msg.sender */\n      caller\n        /* \"contracts/Ballot/Ballot.sol\":1436:1472  getTotalVotesCounterReachedRequire() */\n      tag_179\n        /* \"contracts/Ballot/Ballot.sol\":1436:1470  getTotalVotesCounterReachedRequire */\n      tag_86\n        /* \"contracts/Ballot/Ballot.sol\":1436:1472  getTotalVotesCounterReachedRequire() */\n      jump\t// in\n    tag_179:\n        /* \"contracts/Ballot/Ballot.sol\":1505:1528  areYouHaveRigthToVote() */\n      tag_180\n        /* \"contracts/Ballot/Ballot.sol\":1505:1526  areYouHaveRigthToVote */\n      tag_181\n        /* \"contracts/Ballot/Ballot.sol\":1505:1528  areYouHaveRigthToVote() */\n      jump\t// in\n    tag_180:\n        /* \"contracts/Ballot/Ballot.sol\":1483:1583  require(\r... */\n      tag_182\n      jumpi\n      mload(0x40)\n      0x08c379a000000000000000000000000000000000000000000000000000000000\n      dup2\n      mstore\n      0x04\n      add\n      tag_183\n      swap1\n      tag_184\n      jump\t// in\n    tag_183:\n      mload(0x40)\n      dup1\n      swap2\n      sub\n      swap1\n      revert\n    tag_182:\n        /* \"contracts/Ballot/Ballot.sol\":1594:1628  getVoterVotedRequire(voterAddress) */\n      tag_185\n        /* \"contracts/Ballot/Ballot.sol\":1615:1627  voterAddress */\n      dup2\n        /* \"contracts/Ballot/Ballot.sol\":1594:1614  getVoterVotedRequire */\n      tag_96\n        /* \"contracts/Ballot/Ballot.sol\":1594:1628  getVoterVotedRequire(voterAddress) */\n      jump\t// in\n    tag_185:\n        /* \"contracts/Ballot/Ballot.sol\":3066:3072  voters */\n      0x01\n        /* \"contracts/Ballot/Ballot.sol\":3066:3084  voters[msg.sender] */\n      0x00\n        /* \"contracts/Ballot/Ballot.sol\":3073:3083  msg.sender */\n      caller\n        /* \"contracts/Ballot/Ballot.sol\":3066:3084  voters[msg.sender] */\n      0xffffffffffffffffffffffffffffffffffffffff\n      and\n      0xffffffffffffffffffffffffffffffffffffffff\n      and\n      dup2\n      mstore\n      0x20\n      add\n      swap1\n      dup2\n      mstore\n      0x20\n      add\n      0x00\n      keccak256\n        /* \"contracts/Ballot/Ballot.sol\":3066:3093  voters[msg.sender].hasVoted */\n      0x01\n      add\n      0x01\n      swap1\n      sload\n      swap1\n      0x0100\n      exp\n      swap1\n      div\n      0xff\n      and\n        /* \"contracts/Ballot/Ballot.sol\":3105:3125  Voter storage sender */\n      0x00\n        /* \"contracts/Ballot/Ballot.sol\":3128:3134  voters */\n      0x01\n        /* \"contracts/Ballot/Ballot.sol\":3128:3146  voters[msg.sender] */\n      0x00\n        /* \"contracts/Ballot/Ballot.sol\":3135:3145  msg.sender */\n      caller\n        /* \"contracts/Ballot/Ballot.sol\":3128:3146  voters[msg.sender] */\n      0xffffffffffffffffffffffffffffffffffffffff\n      and\n      0xffffffffffffffffffffffffffffffffffffffff\n      and\n      dup2\n      mstore\n      0x20\n      add\n      swap1\n      dup2\n      mstore\n      0x20\n      add\n      0x00\n      keccak256\n        /* \"contracts/Ballot/Ballot.sol\":3105:3146  Voter storage sender = voters[msg.sender] */\n      swap1\n      pop\n        /* \"contracts/Ballot/Ballot.sol\":3273:3283  uint index */\n      0x00\n        /* \"contracts/Ballot/Ballot.sol\":3268:3559  for (uint index = 0; index < candidates.length; index++) {\r... */\n    tag_188:\n        /* \"contracts/Ballot/Ballot.sol\":3297:3307  candidates */\n      0x02\n        /* \"contracts/Ballot/Ballot.sol\":3297:3314  candidates.length */\n      dup1\n      sload\n      swap1\n      pop\n        /* \"contracts/Ballot/Ballot.sol\":3289:3294  index */\n      dup2\n        /* \"contracts/Ballot/Ballot.sol\":3289:3314  index < candidates.length */\n      lt\n        /* \"contracts/Ballot/Ballot.sol\":3268:3559  for (uint index = 0; index < candidates.length; index++) {\r... */\n      iszero\n      tag_189\n      jumpi\n        /* \"contracts/Ballot/Ballot.sol\":3344:3402  stringEqualTo(candidates[index].nameProject, _nameProject) */\n      tag_191\n        /* \"contracts/Ballot/Ballot.sol\":3358:3368  candidates */\n      0x02\n        /* \"contracts/Ballot/Ballot.sol\":3369:3374  index */\n      dup3\n        /* \"contracts/Ballot/Ballot.sol\":3358:3375  candidates[index] */\n      dup2\n      sload\n      dup2\n      lt\n      tag_192\n      jumpi\n      tag_193\n      tag_61\n      jump\t// in\n    tag_193:\n    tag_192:\n      swap1\n      0x00\n      mstore\n      keccak256(0x00, 0x20)\n      swap1\n      0x02\n      mul\n      add\n        /* \"contracts/Ballot/Ballot.sol\":3358:3387  candidates[index].nameProject */\n      0x00\n      add\n        /* \"contracts/Ballot/Ballot.sol\":3344:3402  stringEqualTo(candidates[index].nameProject, _nameProject) */\n      dup1\n      sload\n      tag_195\n      swap1\n      tag_64\n      jump\t// in\n    tag_195:\n      dup1\n      0x1f\n      add\n      0x20\n      dup1\n      swap2\n      div\n      mul\n      0x20\n      add\n      mload(0x40)\n      swap1\n      dup2\n      add\n      0x40\n      mstore\n      dup1\n      swap3\n      swap2\n      swap1\n      dup2\n      dup2\n      mstore\n      0x20\n      add\n      dup3\n      dup1\n      sload\n      tag_196\n      swap1\n      tag_64\n      jump\t// in\n    tag_196:\n      dup1\n      iszero\n      tag_197\n      jumpi\n      dup1\n      0x1f\n      lt\n      tag_198\n      jumpi\n      0x0100\n      dup1\n      dup4\n      sload\n      div\n      mul\n      dup4\n      mstore\n      swap2\n      0x20\n      add\n      swap2\n      jump(tag_197)\n    tag_198:\n      dup3\n      add\n      swap2\n      swap1\n      0x00\n      mstore\n      keccak256(0x00, 0x20)\n      swap1\n    tag_199:\n      dup2\n      sload\n      dup2\n      mstore\n      swap1\n      0x01\n      add\n      swap1\n      0x20\n      add\n      dup1\n      dup4\n      gt\n      tag_199\n      jumpi\n      dup3\n      swap1\n      sub\n      0x1f\n      and\n      dup3\n      add\n      swap2\n    tag_197:\n      pop\n      pop\n      pop\n      pop\n      pop\n        /* \"contracts/Ballot/Ballot.sol\":3389:3401  _nameProject */\n      dup7\n        /* \"contracts/Ballot/Ballot.sol\":3344:3357  stringEqualTo */\n      tag_200\n        /* \"contracts/Ballot/Ballot.sol\":3344:3402  stringEqualTo(candidates[index].nameProject, _nameProject) */\n      jump\t// in\n    tag_191:\n        /* \"contracts/Ballot/Ballot.sol\":3340:3548  if (stringEqualTo(candidates[index].nameProject, _nameProject)) {\r... */\n      iszero\n      tag_201\n      jumpi\n        /* \"contracts/Ballot/Ballot.sol\":3423:3433  candidates */\n      0x02\n        /* \"contracts/Ballot/Ballot.sol\":3434:3439  index */\n      dup2\n        /* \"contracts/Ballot/Ballot.sol\":3423:3440  candidates[index] */\n      dup2\n      sload\n      dup2\n      lt\n      tag_202\n      jumpi\n      tag_203\n      tag_61\n      jump\t// in\n    tag_203:\n    tag_202:\n      swap1\n      0x00\n      mstore\n      keccak256(0x00, 0x20)\n      swap1\n      0x02\n      mul\n      add\n        /* \"contracts/Ballot/Ballot.sol\":3423:3451  candidates[index].votesCount */\n      0x01\n      add\n      0x00\n        /* \"contracts/Ballot/Ballot.sol\":3423:3453  candidates[index].votesCount++ */\n      dup2\n      sload\n      dup1\n      swap3\n      swap2\n      swap1\n      tag_205\n      swap1\n      tag_72\n      jump\t// in\n    tag_205:\n      swap2\n      swap1\n      pop\n      sstore\n      pop\n        /* \"contracts/Ballot/Ballot.sol\":3490:3494  true */\n      0x01\n        /* \"contracts/Ballot/Ballot.sol\":3472:3478  sender */\n      dup3\n        /* \"contracts/Ballot/Ballot.sol\":3472:3487  sender.hasVoted */\n      0x01\n      add\n      0x01\n        /* \"contracts/Ballot/Ballot.sol\":3472:3494  sender.hasVoted = true */\n      0x0100\n      exp\n      dup2\n      sload\n      dup2\n      0xff\n      mul\n      not\n      and\n      swap1\n      dup4\n      iszero\n      iszero\n      mul\n      or\n      swap1\n      sstore\n      pop\n        /* \"contracts/Ballot/Ballot.sol\":3513:3530  totalVotesCounter */\n      0x03\n      0x00\n        /* \"contracts/Ballot/Ballot.sol\":3513:3532  totalVotesCounter++ */\n      dup2\n      sload\n      dup1\n      swap3\n      swap2\n      swap1\n      tag_206\n      swap1\n      tag_72\n      jump\t// in\n    tag_206:\n      swap2\n      swap1\n      pop\n      sstore\n      pop\n        /* \"contracts/Ballot/Ballot.sol\":3340:3548  if (stringEqualTo(candidates[index].nameProject, _nameProject)) {\r... */\n    tag_201:\n        /* \"contracts/Ballot/Ballot.sol\":3316:3323  index++ */\n      dup1\n      dup1\n      tag_207\n      swap1\n      tag_72\n      jump\t// in\n    tag_207:\n      swap2\n      pop\n      pop\n        /* \"contracts/Ballot/Ballot.sol\":3268:3559  for (uint index = 0; index < candidates.length; index++) {\r... */\n      jump(tag_188)\n    tag_189:\n      pop\n        /* \"contracts/Ballot/Ballot.sol\":3094:3566  {\r... */\n      pop\n        /* \"contracts/Ballot/Ballot.sol\":1728:1760  isCandidateExistRequire(isExist) */\n      tag_208\n        /* \"contracts/Ballot/Ballot.sol\":1752:1759  isExist */\n      dup2\n        /* \"contracts/Ballot/Ballot.sol\":1728:1751  isCandidateExistRequire */\n      tag_209\n        /* \"contracts/Ballot/Ballot.sol\":1728:1760  isCandidateExistRequire(isExist) */\n      jump\t// in\n    tag_208:\n        /* \"contracts/Ballot/Ballot.sol\":1639:1640  _ */\n      pop\n        /* \"contracts/Ballot/Ballot.sol\":2968:3566  function vote(string memory _nameProject) public voteModifierBefore(msg.sender) voteModifierAfter(voters[msg.sender].hasVoted){\r... */\n      pop\n      pop\n      jump\t// out\n        /* \"contracts/Ballot/Ballot.sol\":6297:6397  function getContractAddress() private view returns (address) {\r... */\n    tag_76:\n        /* \"contracts/Ballot/Ballot.sol\":6349:6356  address */\n      0x00\n        /* \"contracts/Ballot/Ballot.sol\":6384:6388  this */\n      address\n        /* \"contracts/Ballot/Ballot.sol\":6369:6389  return address(this) */\n      swap1\n      pop\n        /* \"contracts/Ballot/Ballot.sol\":6297:6397  function getContractAddress() private view returns (address) {\r... */\n      swap1\n      jump\t// out\n        /* \"contracts/Ballot/Ballot.sol\":1998:2209  function getTotalVotesCounterReachedRequire() private view {\r... */\n    tag_86:\n        /* \"contracts/Ballot/Ballot.sol\":2117:2125  maxVotes */\n      sload(0x04)\n        /* \"contracts/Ballot/Ballot.sol\":2097:2114  totalVotesCounter */\n      sload(0x03)\n        /* \"contracts/Ballot/Ballot.sol\":2097:2125  totalVotesCounter < maxVotes */\n      lt\n        /* \"contracts/Ballot/Ballot.sol\":2075:2201  require(\r... */\n      tag_212\n      jumpi\n      mload(0x40)\n      0x08c379a000000000000000000000000000000000000000000000000000000000\n      dup2\n      mstore\n      0x04\n      add\n      tag_213\n      swap1\n      tag_214\n      jump\t// in\n    tag_213:\n      mload(0x40)\n      dup1\n      swap2\n      sub\n      swap1\n      revert\n    tag_212:\n        /* \"contracts/Ballot/Ballot.sol\":1998:2209  function getTotalVotesCounterReachedRequire() private view {\r... */\n      jump\t// out\n        /* \"contracts/Ballot/Ballot.sol\":6405:6517  function areYouContractOwner() private view returns (bool) {\r... */\n    tag_88:\n        /* \"contracts/Ballot/Ballot.sol\":6458:6462  bool */\n      0x00\n        /* \"contracts/Ballot/Ballot.sol\":6496:6509  contractOwner */\n      dup1\n      0x00\n      swap1\n      sload\n      swap1\n      0x0100\n      exp\n      swap1\n      div\n      0xffffffffffffffffffffffffffffffffffffffff\n      and\n        /* \"contracts/Ballot/Ballot.sol\":6482:6509  msg.sender == contractOwner */\n      0xffffffffffffffffffffffffffffffffffffffff\n      and\n        /* \"contracts/Ballot/Ballot.sol\":6482:6492  msg.sender */\n      caller\n        /* \"contracts/Ballot/Ballot.sol\":6482:6509  msg.sender == contractOwner */\n      0xffffffffffffffffffffffffffffffffffffffff\n      and\n      eq\n        /* \"contracts/Ballot/Ballot.sol\":6475:6509  return msg.sender == contractOwner */\n      swap1\n      pop\n        /* \"contracts/Ballot/Ballot.sol\":6405:6517  function areYouContractOwner() private view returns (bool) {\r... */\n      swap1\n      jump\t// out\n        /* \"contracts/Ballot/Ballot.sol\":1801:1990  function getVoterVotedRequire(address voterAddress) private view {\r... */\n    tag_96:\n        /* \"contracts/Ballot/Ballot.sol\":1907:1934  getVoterVoted(voterAddress) */\n      tag_217\n        /* \"contracts/Ballot/Ballot.sol\":1921:1933  voterAddress */\n      dup2\n        /* \"contracts/Ballot/Ballot.sol\":1907:1920  getVoterVoted */\n      tag_218\n        /* \"contracts/Ballot/Ballot.sol\":1907:1934  getVoterVoted(voterAddress) */\n      jump\t// in\n    tag_217:\n        /* \"contracts/Ballot/Ballot.sol\":1906:1934  !getVoterVoted(voterAddress) */\n      iszero\n        /* \"contracts/Ballot/Ballot.sol\":1884:1982  require(\r... */\n      tag_219\n      jumpi\n      mload(0x40)\n      0x08c379a000000000000000000000000000000000000000000000000000000000\n      dup2\n      mstore\n      0x04\n      add\n      tag_220\n      swap1\n      tag_221\n      jump\t// in\n    tag_220:\n      mload(0x40)\n      dup1\n      swap2\n      sub\n      swap1\n      revert\n    tag_219:\n        /* \"contracts/Ballot/Ballot.sol\":1801:1990  function getVoterVotedRequire(address voterAddress) private view {\r... */\n      pop\n      jump\t// out\n        /* \"contracts/Ballot/Ballot.sol\":6525:6643  function areYouHaveRigthToVote() private view returns (bool) {\r... */\n    tag_181:\n        /* \"contracts/Ballot/Ballot.sol\":6580:6584  bool */\n      0x00\n        /* \"contracts/Ballot/Ballot.sol\":6604:6635  getVoterRigthToVote(msg.sender) */\n      tag_223\n        /* \"contracts/Ballot/Ballot.sol\":6624:6634  msg.sender */\n      caller\n        /* \"contracts/Ballot/Ballot.sol\":6604:6623  getVoterRigthToVote */\n      tag_224\n        /* \"contracts/Ballot/Ballot.sol\":6604:6635  getVoterRigthToVote(msg.sender) */\n      jump\t// in\n    tag_223:\n        /* \"contracts/Ballot/Ballot.sol\":6597:6635  return getVoterRigthToVote(msg.sender) */\n      swap1\n      pop\n        /* \"contracts/Ballot/Ballot.sol\":6525:6643  function areYouHaveRigthToVote() private view returns (bool) {\r... */\n      swap1\n      jump\t// out\n        /* \"contracts/Ballot/Ballot.sol\":7066:7233  function stringEqualTo(string memory s1, string memory s2) private pure returns (bool) {\r... */\n    tag_200:\n        /* \"contracts/Ballot/Ballot.sol\":7147:7151  bool */\n      0x00\n        /* \"contracts/Ballot/Ballot.sol\":7221:7223  s2 */\n      dup2\n        /* \"contracts/Ballot/Ballot.sol\":7210:7224  abi.encode(s2) */\n      add(0x20, mload(0x40))\n      tag_226\n      swap2\n      swap1\n      tag_35\n      jump\t// in\n    tag_226:\n      mload(0x40)\n      0x20\n      dup2\n      dup4\n      sub\n      sub\n      dup2\n      mstore\n      swap1\n      0x40\n      mstore\n        /* \"contracts/Ballot/Ballot.sol\":7200:7225  keccak256(abi.encode(s2)) */\n      dup1\n      mload\n      swap1\n      0x20\n      add\n      keccak256\n        /* \"contracts/Ballot/Ballot.sol\":7192:7194  s1 */\n      dup4\n        /* \"contracts/Ballot/Ballot.sol\":7181:7195  abi.encode(s1) */\n      add(0x20, mload(0x40))\n      tag_227\n      swap2\n      swap1\n      tag_35\n      jump\t// in\n    tag_227:\n      mload(0x40)\n      0x20\n      dup2\n      dup4\n      sub\n      sub\n      dup2\n      mstore\n      swap1\n      0x40\n      mstore\n        /* \"contracts/Ballot/Ballot.sol\":7171:7196  keccak256(abi.encode(s1)) */\n      dup1\n      mload\n      swap1\n      0x20\n      add\n      keccak256\n        /* \"contracts/Ballot/Ballot.sol\":7171:7225  keccak256(abi.encode(s1)) == keccak256(abi.encode(s2)) */\n      eq\n        /* \"contracts/Ballot/Ballot.sol\":7164:7225  return keccak256(abi.encode(s1)) == keccak256(abi.encode(s2)) */\n      swap1\n      pop\n        /* \"contracts/Ballot/Ballot.sol\":7066:7233  function stringEqualTo(string memory s1, string memory s2) private pure returns (bool) {\r... */\n      swap3\n      swap2\n      pop\n      pop\n      jump\t// out\n        /* \"contracts/Ballot/Ballot.sol\":2217:2393  function isCandidateExistRequire(bool isExist) private pure {\r... */\n    tag_209:\n        /* \"contracts/Ballot/Ballot.sol\":2317:2324  isExist */\n      dup1\n        /* \"contracts/Ballot/Ballot.sol\":2295:2385  require(\r... */\n      tag_229\n      jumpi\n      mload(0x40)\n      0x08c379a000000000000000000000000000000000000000000000000000000000\n      dup2\n      mstore\n      0x04\n      add\n      tag_230\n      swap1\n      tag_231\n      jump\t// in\n    tag_230:\n      mload(0x40)\n      dup1\n      swap2\n      sub\n      swap1\n      revert\n    tag_229:\n        /* \"contracts/Ballot/Ballot.sol\":2217:2393  function isCandidateExistRequire(bool isExist) private pure {\r... */\n      pop\n      jump\t// out\n        /* \"contracts/Ballot/Ballot.sol\":6902:7030  function getVoterVoted(address voterAddress) private view returns (bool) {\r... */\n    tag_218:\n        /* \"contracts/Ballot/Ballot.sol\":6969:6973  bool */\n      0x00\n        /* \"contracts/Ballot/Ballot.sol\":6993:6999  voters */\n      0x01\n        /* \"contracts/Ballot/Ballot.sol\":6993:7013  voters[voterAddress] */\n      0x00\n        /* \"contracts/Ballot/Ballot.sol\":7000:7012  voterAddress */\n      dup4\n        /* \"contracts/Ballot/Ballot.sol\":6993:7013  voters[voterAddress] */\n      0xffffffffffffffffffffffffffffffffffffffff\n      and\n      0xffffffffffffffffffffffffffffffffffffffff\n      and\n      dup2\n      mstore\n      0x20\n      add\n      swap1\n      dup2\n      mstore\n      0x20\n      add\n      0x00\n      keccak256\n        /* \"contracts/Ballot/Ballot.sol\":6993:7022  voters[voterAddress].hasVoted */\n      0x01\n      add\n      0x01\n      swap1\n      sload\n      swap1\n      0x0100\n      exp\n      swap1\n      div\n      0xff\n      and\n        /* \"contracts/Ballot/Ballot.sol\":6986:7022  return voters[voterAddress].hasVoted */\n      swap1\n      pop\n        /* \"contracts/Ballot/Ballot.sol\":6902:7030  function getVoterVoted(address voterAddress) private view returns (bool) {\r... */\n      swap2\n      swap1\n      pop\n      jump\t// out\n        /* \"contracts/Ballot/Ballot.sol\":6651:6784  function getVoterRigthToVote(address voterAddress) private view returns (bool) {\r... */\n    tag_224:\n        /* \"contracts/Ballot/Ballot.sol\":6724:6728  bool */\n      0x00\n        /* \"contracts/Ballot/Ballot.sol\":6748:6754  voters */\n      0x01\n        /* \"contracts/Ballot/Ballot.sol\":6748:6768  voters[voterAddress] */\n      0x00\n        /* \"contracts/Ballot/Ballot.sol\":6755:6767  voterAddress */\n      dup4\n        /* \"contracts/Ballot/Ballot.sol\":6748:6768  voters[voterAddress] */\n      0xffffffffffffffffffffffffffffffffffffffff\n      and\n      0xffffffffffffffffffffffffffffffffffffffff\n      and\n      dup2\n      mstore\n      0x20\n      add\n      swap1\n      dup2\n      mstore\n      0x20\n      add\n      0x00\n      keccak256\n        /* \"contracts/Ballot/Ballot.sol\":6748:6776  voters[voterAddress].canVote */\n      0x01\n      add\n      0x00\n      swap1\n      sload\n      swap1\n      0x0100\n      exp\n      swap1\n      div\n      0xff\n      and\n        /* \"contracts/Ballot/Ballot.sol\":6741:6776  return voters[voterAddress].canVote */\n      swap1\n      pop\n        /* \"contracts/Ballot/Ballot.sol\":6651:6784  function getVoterRigthToVote(address voterAddress) private view returns (bool) {\r... */\n      swap2\n      swap1\n      pop\n      jump\t// out\n    tag_99:\n      dup3\n      dup1\n      sload\n      tag_234\n      swap1\n      tag_64\n      jump\t// in\n    tag_234:\n      swap1\n      0x00\n      mstore\n      keccak256(0x00, 0x20)\n      swap1\n      0x1f\n      add\n      0x20\n      swap1\n      div\n      dup2\n      add\n      swap3\n      dup3\n      tag_236\n      jumpi\n      0x00\n      dup6\n      sstore\n      jump(tag_235)\n    tag_236:\n      dup3\n      0x1f\n      lt\n      tag_237\n      jumpi\n      dup1\n      mload\n      not(0xff)\n      and\n      dup4\n      dup1\n      add\n      or\n      dup6\n      sstore\n      jump(tag_235)\n    tag_237:\n      dup3\n      dup1\n      add\n      0x01\n      add\n      dup6\n      sstore\n      dup3\n      iszero\n      tag_235\n      jumpi\n      swap2\n      dup3\n      add\n    tag_238:\n      dup3\n      dup2\n      gt\n      iszero\n      tag_239\n      jumpi\n      dup3\n      mload\n      dup3\n      sstore\n      swap2\n      0x20\n      add\n      swap2\n      swap1\n      0x01\n      add\n      swap1\n      jump(tag_238)\n    tag_239:\n    tag_235:\n      pop\n      swap1\n      pop\n      tag_240\n      swap2\n      swap1\n      tag_241\n      jump\t// in\n    tag_240:\n      pop\n      swap1\n      jump\t// out\n    tag_109:\n      mload(0x40)\n      dup1\n      0x40\n      add\n      0x40\n      mstore\n      dup1\n      0x60\n      dup2\n      mstore\n      0x20\n      add\n      0x00\n      dup2\n      mstore\n      pop\n      swap1\n      jump\t// out\n    tag_241:\n    tag_242:\n      dup1\n      dup3\n      gt\n      iszero\n      tag_243\n      jumpi\n      0x00\n      dup2\n      0x00\n      swap1\n      sstore\n      pop\n      0x01\n      add\n      jump(tag_242)\n    tag_243:\n      pop\n      swap1\n      jump\t// out\n        /* \"#utility.yul\":7:419   */\n    tag_245:\n        /* \"#utility.yul\":85:90   */\n      0x00\n        /* \"#utility.yul\":110:176   */\n      tag_247\n        /* \"#utility.yul\":126:175   */\n      tag_248\n        /* \"#utility.yul\":168:174   */\n      dup5\n        /* \"#utility.yul\":126:175   */\n      tag_249\n      jump\t// in\n    tag_248:\n        /* \"#utility.yul\":110:176   */\n      tag_250\n      jump\t// in\n    tag_247:\n        /* \"#utility.yul\":101:176   */\n      swap1\n      pop\n        /* \"#utility.yul\":199:205   */\n      dup3\n        /* \"#utility.yul\":192:197   */\n      dup2\n        /* \"#utility.yul\":185:206   */\n      mstore\n        /* \"#utility.yul\":237:241   */\n      0x20\n        /* \"#utility.yul\":230:235   */\n      dup2\n        /* \"#utility.yul\":226:242   */\n      add\n        /* \"#utility.yul\":275:278   */\n      dup5\n        /* \"#utility.yul\":266:272   */\n      dup5\n        /* \"#utility.yul\":261:264   */\n      dup5\n        /* \"#utility.yul\":257:273   */\n      add\n        /* \"#utility.yul\":254:279   */\n      gt\n        /* \"#utility.yul\":251:363   */\n      iszero\n      tag_251\n      jumpi\n        /* \"#utility.yul\":282:361   */\n      tag_252\n      tag_253\n      jump\t// in\n    tag_252:\n        /* \"#utility.yul\":251:363   */\n    tag_251:\n        /* \"#utility.yul\":372:413   */\n      tag_254\n        /* \"#utility.yul\":406:412   */\n      dup5\n        /* \"#utility.yul\":401:404   */\n      dup3\n        /* \"#utility.yul\":396:399   */\n      dup6\n        /* \"#utility.yul\":372:413   */\n      tag_255\n      jump\t// in\n    tag_254:\n        /* \"#utility.yul\":91:419   */\n      pop\n        /* \"#utility.yul\":7:419   */\n      swap4\n      swap3\n      pop\n      pop\n      pop\n      jump\t// out\n        /* \"#utility.yul\":425:564   */\n    tag_256:\n        /* \"#utility.yul\":471:476   */\n      0x00\n        /* \"#utility.yul\":509:515   */\n      dup2\n        /* \"#utility.yul\":496:516   */\n      calldataload\n        /* \"#utility.yul\":487:516   */\n      swap1\n      pop\n        /* \"#utility.yul\":525:558   */\n      tag_258\n        /* \"#utility.yul\":552:557   */\n      dup2\n        /* \"#utility.yul\":525:558   */\n      tag_259\n      jump\t// in\n    tag_258:\n        /* \"#utility.yul\":425:564   */\n      swap3\n      swap2\n      pop\n      pop\n      jump\t// out\n        /* \"#utility.yul\":584:924   */\n    tag_260:\n        /* \"#utility.yul\":640:645   */\n      0x00\n        /* \"#utility.yul\":689:692   */\n      dup3\n        /* \"#utility.yul\":682:686   */\n      0x1f\n        /* \"#utility.yul\":674:680   */\n      dup4\n        /* \"#utility.yul\":670:687   */\n      add\n        /* \"#utility.yul\":666:693   */\n      slt\n        /* \"#utility.yul\":656:778   */\n      tag_262\n      jumpi\n        /* \"#utility.yul\":697:776   */\n      tag_263\n      tag_264\n      jump\t// in\n    tag_263:\n        /* \"#utility.yul\":656:778   */\n    tag_262:\n        /* \"#utility.yul\":814:820   */\n      dup2\n        /* \"#utility.yul\":801:821   */\n      calldataload\n        /* \"#utility.yul\":839:918   */\n      tag_265\n        /* \"#utility.yul\":914:917   */\n      dup5\n        /* \"#utility.yul\":906:912   */\n      dup3\n        /* \"#utility.yul\":899:903   */\n      0x20\n        /* \"#utility.yul\":891:897   */\n      dup7\n        /* \"#utility.yul\":887:904   */\n      add\n        /* \"#utility.yul\":839:918   */\n      tag_245\n      jump\t// in\n    tag_265:\n        /* \"#utility.yul\":830:918   */\n      swap2\n      pop\n        /* \"#utility.yul\":646:924   */\n      pop\n        /* \"#utility.yul\":584:924   */\n      swap3\n      swap2\n      pop\n      pop\n      jump\t// out\n        /* \"#utility.yul\":930:1069   */\n    tag_266:\n        /* \"#utility.yul\":976:981   */\n      0x00\n        /* \"#utility.yul\":1014:1020   */\n      dup2\n        /* \"#utility.yul\":1001:1021   */\n      calldataload\n        /* \"#utility.yul\":992:1021   */\n      swap1\n      pop\n        /* \"#utility.yul\":1030:1063   */\n      tag_268\n        /* \"#utility.yul\":1057:1062   */\n      dup2\n        /* \"#utility.yul\":1030:1063   */\n      tag_269\n      jump\t// in\n    tag_268:\n        /* \"#utility.yul\":930:1069   */\n      swap3\n      swap2\n      pop\n      pop\n      jump\t// out\n        /* \"#utility.yul\":1075:1404   */\n    tag_38:\n        /* \"#utility.yul\":1134:1140   */\n      0x00\n        /* \"#utility.yul\":1183:1185   */\n      0x20\n        /* \"#utility.yul\":1171:1180   */\n      dup3\n        /* \"#utility.yul\":1162:1169   */\n      dup5\n        /* \"#utility.yul\":1158:1181   */\n      sub\n        /* \"#utility.yul\":1154:1186   */\n      slt\n        /* \"#utility.yul\":1151:1270   */\n      iszero\n      tag_271\n      jumpi\n        /* \"#utility.yul\":1189:1268   */\n      tag_272\n      tag_273\n      jump\t// in\n    tag_272:\n        /* \"#utility.yul\":1151:1270   */\n    tag_271:\n        /* \"#utility.yul\":1309:1310   */\n      0x00\n        /* \"#utility.yul\":1334:1387   */\n      tag_274\n        /* \"#utility.yul\":1379:1386   */\n      dup5\n        /* \"#utility.yul\":1370:1376   */\n      dup3\n        /* \"#utility.yul\":1359:1368   */\n      dup6\n        /* \"#utility.yul\":1355:1377   */\n      add\n        /* \"#utility.yul\":1334:1387   */\n      tag_256\n      jump\t// in\n    tag_274:\n        /* \"#utility.yul\":1324:1387   */\n      swap2\n      pop\n        /* \"#utility.yul\":1280:1397   */\n      pop\n        /* \"#utility.yul\":1075:1404   */\n      swap3\n      swap2\n      pop\n      pop\n      jump\t// out\n        /* \"#utility.yul\":1410:2064   */\n    tag_28:\n        /* \"#utility.yul\":1488:1494   */\n      0x00\n        /* \"#utility.yul\":1496:1502   */\n      dup1\n        /* \"#utility.yul\":1545:1547   */\n      0x40\n        /* \"#utility.yul\":1533:1542   */\n      dup4\n        /* \"#utility.yul\":1524:1531   */\n      dup6\n        /* \"#utility.yul\":1520:1543   */\n      sub\n        /* \"#utility.yul\":1516:1548   */\n      slt\n        /* \"#utility.yul\":1513:1632   */\n      iszero\n      tag_276\n      jumpi\n        /* \"#utility.yul\":1551:1630   */\n      tag_277\n      tag_273\n      jump\t// in\n    tag_277:\n        /* \"#utility.yul\":1513:1632   */\n    tag_276:\n        /* \"#utility.yul\":1671:1672   */\n      0x00\n        /* \"#utility.yul\":1696:1749   */\n      tag_278\n        /* \"#utility.yul\":1741:1748   */\n      dup6\n        /* \"#utility.yul\":1732:1738   */\n      dup3\n        /* \"#utility.yul\":1721:1730   */\n      dup7\n        /* \"#utility.yul\":1717:1739   */\n      add\n        /* \"#utility.yul\":1696:1749   */\n      tag_256\n      jump\t// in\n    tag_278:\n        /* \"#utility.yul\":1686:1749   */\n      swap3\n      pop\n        /* \"#utility.yul\":1642:1759   */\n      pop\n        /* \"#utility.yul\":1826:1828   */\n      0x20\n        /* \"#utility.yul\":1815:1824   */\n      dup4\n        /* \"#utility.yul\":1811:1829   */\n      add\n        /* \"#utility.yul\":1798:1830   */\n      calldataload\n        /* \"#utility.yul\":1857:1875   */\n      0xffffffffffffffff\n        /* \"#utility.yul\":1849:1855   */\n      dup2\n        /* \"#utility.yul\":1846:1876   */\n      gt\n        /* \"#utility.yul\":1843:1960   */\n      iszero\n      tag_279\n      jumpi\n        /* \"#utility.yul\":1879:1958   */\n      tag_280\n      tag_281\n      jump\t// in\n    tag_280:\n        /* \"#utility.yul\":1843:1960   */\n    tag_279:\n        /* \"#utility.yul\":1984:2047   */\n      tag_282\n        /* \"#utility.yul\":2039:2046   */\n      dup6\n        /* \"#utility.yul\":2030:2036   */\n      dup3\n        /* \"#utility.yul\":2019:2028   */\n      dup7\n        /* \"#utility.yul\":2015:2037   */\n      add\n        /* \"#utility.yul\":1984:2047   */\n      tag_260\n      jump\t// in\n    tag_282:\n        /* \"#utility.yul\":1974:2047   */\n      swap2\n      pop\n        /* \"#utility.yul\":1769:2057   */\n      pop\n        /* \"#utility.yul\":1410:2064   */\n      swap3\n      pop\n      swap3\n      swap1\n      pop\n      jump\t// out\n        /* \"#utility.yul\":2070:2579   */\n    tag_48:\n        /* \"#utility.yul\":2139:2145   */\n      0x00\n        /* \"#utility.yul\":2188:2190   */\n      0x20\n        /* \"#utility.yul\":2176:2185   */\n      dup3\n        /* \"#utility.yul\":2167:2174   */\n      dup5\n        /* \"#utility.yul\":2163:2186   */\n      sub\n        /* \"#utility.yul\":2159:2191   */\n      slt\n        /* \"#utility.yul\":2156:2275   */\n      iszero\n      tag_284\n      jumpi\n        /* \"#utility.yul\":2194:2273   */\n      tag_285\n      tag_273\n      jump\t// in\n    tag_285:\n        /* \"#utility.yul\":2156:2275   */\n    tag_284:\n        /* \"#utility.yul\":2342:2343   */\n      0x00\n        /* \"#utility.yul\":2331:2340   */\n      dup3\n        /* \"#utility.yul\":2327:2344   */\n      add\n        /* \"#utility.yul\":2314:2345   */\n      calldataload\n        /* \"#utility.yul\":2372:2390   */\n      0xffffffffffffffff\n        /* \"#utility.yul\":2364:2370   */\n      dup2\n        /* \"#utility.yul\":2361:2391   */\n      gt\n        /* \"#utility.yul\":2358:2475   */\n      iszero\n      tag_286\n      jumpi\n        /* \"#utility.yul\":2394:2473   */\n      tag_287\n      tag_281\n      jump\t// in\n    tag_287:\n        /* \"#utility.yul\":2358:2475   */\n    tag_286:\n        /* \"#utility.yul\":2499:2562   */\n      tag_288\n        /* \"#utility.yul\":2554:2561   */\n      dup5\n        /* \"#utility.yul\":2545:2551   */\n      dup3\n        /* \"#utility.yul\":2534:2543   */\n      dup6\n        /* \"#utility.yul\":2530:2552   */\n      add\n        /* \"#utility.yul\":2499:2562   */\n      tag_260\n      jump\t// in\n    tag_288:\n        /* \"#utility.yul\":2489:2562   */\n      swap2\n      pop\n        /* \"#utility.yul\":2285:2572   */\n      pop\n        /* \"#utility.yul\":2070:2579   */\n      swap3\n      swap2\n      pop\n      pop\n      jump\t// out\n        /* \"#utility.yul\":2585:3419   */\n    tag_32:\n        /* \"#utility.yul\":2673:2679   */\n      0x00\n        /* \"#utility.yul\":2681:2687   */\n      dup1\n        /* \"#utility.yul\":2730:2732   */\n      0x40\n        /* \"#utility.yul\":2718:2727   */\n      dup4\n        /* \"#utility.yul\":2709:2716   */\n      dup6\n        /* \"#utility.yul\":2705:2728   */\n      sub\n        /* \"#utility.yul\":2701:2733   */\n      slt\n        /* \"#utility.yul\":2698:2817   */\n      iszero\n      tag_290\n      jumpi\n        /* \"#utility.yul\":2736:2815   */\n      tag_291\n      tag_273\n      jump\t// in\n    tag_291:\n        /* \"#utility.yul\":2698:2817   */\n    tag_290:\n        /* \"#utility.yul\":2884:2885   */\n      0x00\n        /* \"#utility.yul\":2873:2882   */\n      dup4\n        /* \"#utility.yul\":2869:2886   */\n      add\n        /* \"#utility.yul\":2856:2887   */\n      calldataload\n        /* \"#utility.yul\":2914:2932   */\n      0xffffffffffffffff\n        /* \"#utility.yul\":2906:2912   */\n      dup2\n        /* \"#utility.yul\":2903:2933   */\n      gt\n        /* \"#utility.yul\":2900:3017   */\n      iszero\n      tag_292\n      jumpi\n        /* \"#utility.yul\":2936:3015   */\n      tag_293\n      tag_281\n      jump\t// in\n    tag_293:\n        /* \"#utility.yul\":2900:3017   */\n    tag_292:\n        /* \"#utility.yul\":3041:3104   */\n      tag_294\n        /* \"#utility.yul\":3096:3103   */\n      dup6\n        /* \"#utility.yul\":3087:3093   */\n      dup3\n        /* \"#utility.yul\":3076:3085   */\n      dup7\n        /* \"#utility.yul\":3072:3094   */\n      add\n        /* \"#utility.yul\":3041:3104   */\n      tag_260\n      jump\t// in\n    tag_294:\n        /* \"#utility.yul\":3031:3104   */\n      swap3\n      pop\n        /* \"#utility.yul\":2827:3114   */\n      pop\n        /* \"#utility.yul\":3181:3183   */\n      0x20\n        /* \"#utility.yul\":3170:3179   */\n      dup4\n        /* \"#utility.yul\":3166:3184   */\n      add\n        /* \"#utility.yul\":3153:3185   */\n      calldataload\n        /* \"#utility.yul\":3212:3230   */\n      0xffffffffffffffff\n        /* \"#utility.yul\":3204:3210   */\n      dup2\n        /* \"#utility.yul\":3201:3231   */\n      gt\n        /* \"#utility.yul\":3198:3315   */\n      iszero\n      tag_295\n      jumpi\n        /* \"#utility.yul\":3234:3313   */\n      tag_296\n      tag_281\n      jump\t// in\n    tag_296:\n        /* \"#utility.yul\":3198:3315   */\n    tag_295:\n        /* \"#utility.yul\":3339:3402   */\n      tag_297\n        /* \"#utility.yul\":3394:3401   */\n      dup6\n        /* \"#utility.yul\":3385:3391   */\n      dup3\n        /* \"#utility.yul\":3374:3383   */\n      dup7\n        /* \"#utility.yul\":3370:3392   */\n      add\n        /* \"#utility.yul\":3339:3402   */\n      tag_260\n      jump\t// in\n    tag_297:\n        /* \"#utility.yul\":3329:3402   */\n      swap2\n      pop\n        /* \"#utility.yul\":3124:3412   */\n      pop\n        /* \"#utility.yul\":2585:3419   */\n      swap3\n      pop\n      swap3\n      swap1\n      pop\n      jump\t// out\n        /* \"#utility.yul\":3425:3754   */\n    tag_22:\n        /* \"#utility.yul\":3484:3490   */\n      0x00\n        /* \"#utility.yul\":3533:3535   */\n      0x20\n        /* \"#utility.yul\":3521:3530   */\n      dup3\n        /* \"#utility.yul\":3512:3519   */\n      dup5\n        /* \"#utility.yul\":3508:3531   */\n      sub\n        /* \"#utility.yul\":3504:3536   */\n      slt\n        /* \"#utility.yul\":3501:3620   */\n      iszero\n      tag_299\n      jumpi\n        /* \"#utility.yul\":3539:3618   */\n      tag_300\n      tag_273\n      jump\t// in\n    tag_300:\n        /* \"#utility.yul\":3501:3620   */\n    tag_299:\n        /* \"#utility.yul\":3659:3660   */\n      0x00\n        /* \"#utility.yul\":3684:3737   */\n      tag_301\n        /* \"#utility.yul\":3729:3736   */\n      dup5\n        /* \"#utility.yul\":3720:3726   */\n      dup3\n        /* \"#utility.yul\":3709:3718   */\n      dup6\n        /* \"#utility.yul\":3705:3727   */\n      add\n        /* \"#utility.yul\":3684:3737   */\n      tag_266\n      jump\t// in\n    tag_301:\n        /* \"#utility.yul\":3674:3737   */\n      swap2\n      pop\n        /* \"#utility.yul\":3630:3747   */\n      pop\n        /* \"#utility.yul\":3425:3754   */\n      swap3\n      swap2\n      pop\n      pop\n      jump\t// out\n        /* \"#utility.yul\":3760:3956   */\n    tag_302:\n        /* \"#utility.yul\":3849:3859   */\n      0x00\n        /* \"#utility.yul\":3884:3950   */\n      tag_304\n        /* \"#utility.yul\":3946:3949   */\n      dup4\n        /* \"#utility.yul\":3938:3944   */\n      dup4\n        /* \"#utility.yul\":3884:3950   */\n      tag_305\n      jump\t// in\n    tag_304:\n        /* \"#utility.yul\":3870:3950   */\n      swap1\n      pop\n        /* \"#utility.yul\":3760:3956   */\n      swap3\n      swap2\n      pop\n      pop\n      jump\t// out\n        /* \"#utility.yul\":3962:4080   */\n    tag_306:\n        /* \"#utility.yul\":4049:4073   */\n      tag_308\n        /* \"#utility.yul\":4067:4072   */\n      dup2\n        /* \"#utility.yul\":4049:4073   */\n      tag_309\n      jump\t// in\n    tag_308:\n        /* \"#utility.yul\":4044:4047   */\n      dup3\n        /* \"#utility.yul\":4037:4074   */\n      mstore\n        /* \"#utility.yul\":3962:4080   */\n      pop\n      pop\n      jump\t// out\n        /* \"#utility.yul\":4114:5105   */\n    tag_310:\n        /* \"#utility.yul\":4253:4256   */\n      0x00\n        /* \"#utility.yul\":4282:4346   */\n      tag_312\n        /* \"#utility.yul\":4340:4345   */\n      dup3\n        /* \"#utility.yul\":4282:4346   */\n      tag_313\n      jump\t// in\n    tag_312:\n        /* \"#utility.yul\":4362:4458   */\n      tag_314\n        /* \"#utility.yul\":4451:4457   */\n      dup2\n        /* \"#utility.yul\":4446:4449   */\n      dup6\n        /* \"#utility.yul\":4362:4458   */\n      tag_315\n      jump\t// in\n    tag_314:\n        /* \"#utility.yul\":4355:4458   */\n      swap4\n      pop\n        /* \"#utility.yul\":4484:4487   */\n      dup4\n        /* \"#utility.yul\":4529:4533   */\n      0x20\n        /* \"#utility.yul\":4521:4527   */\n      dup3\n        /* \"#utility.yul\":4517:4534   */\n      mul\n        /* \"#utility.yul\":4512:4515   */\n      dup6\n        /* \"#utility.yul\":4508:4535   */\n      add\n        /* \"#utility.yul\":4559:4625   */\n      tag_316\n        /* \"#utility.yul\":4619:4624   */\n      dup6\n        /* \"#utility.yul\":4559:4625   */\n      tag_317\n      jump\t// in\n    tag_316:\n        /* \"#utility.yul\":4648:4655   */\n      dup1\n        /* \"#utility.yul\":4679:4680   */\n      0x00\n        /* \"#utility.yul\":4664:5060   */\n    tag_318:\n        /* \"#utility.yul\":4689:4695   */\n      dup6\n        /* \"#utility.yul\":4686:4687   */\n      dup2\n        /* \"#utility.yul\":4683:4696   */\n      lt\n        /* \"#utility.yul\":4664:5060   */\n      iszero\n      tag_320\n      jumpi\n        /* \"#utility.yul\":4760:4769   */\n      dup5\n        /* \"#utility.yul\":4754:4758   */\n      dup5\n        /* \"#utility.yul\":4750:4770   */\n      sub\n        /* \"#utility.yul\":4745:4748   */\n      dup10\n        /* \"#utility.yul\":4738:4771   */\n      mstore\n        /* \"#utility.yul\":4811:4817   */\n      dup2\n        /* \"#utility.yul\":4805:4818   */\n      mload\n        /* \"#utility.yul\":4839:4923   */\n      tag_321\n        /* \"#utility.yul\":4918:4922   */\n      dup6\n        /* \"#utility.yul\":4903:4916   */\n      dup3\n        /* \"#utility.yul\":4839:4923   */\n      tag_302\n      jump\t// in\n    tag_321:\n        /* \"#utility.yul\":4831:4923   */\n      swap5\n      pop\n        /* \"#utility.yul\":4946:5016   */\n      tag_322\n        /* \"#utility.yul\":5009:5015   */\n      dup4\n        /* \"#utility.yul\":4946:5016   */\n      tag_323\n      jump\t// in\n    tag_322:\n        /* \"#utility.yul\":4936:5016   */\n      swap3\n      pop\n        /* \"#utility.yul\":5045:5049   */\n      0x20\n        /* \"#utility.yul\":5040:5043   */\n      dup11\n        /* \"#utility.yul\":5036:5050   */\n      add\n        /* \"#utility.yul\":5029:5050   */\n      swap10\n      pop\n        /* \"#utility.yul\":4724:5060   */\n      pop\n        /* \"#utility.yul\":4711:4712   */\n      0x01\n        /* \"#utility.yul\":4708:4709   */\n      dup2\n        /* \"#utility.yul\":4704:4713   */\n      add\n        /* \"#utility.yul\":4699:4713   */\n      swap1\n      pop\n        /* \"#utility.yul\":4664:5060   */\n      jump(tag_318)\n    tag_320:\n        /* \"#utility.yul\":4668:4682   */\n      pop\n        /* \"#utility.yul\":5076:5080   */\n      dup3\n        /* \"#utility.yul\":5069:5080   */\n      swap8\n      pop\n        /* \"#utility.yul\":5096:5099   */\n      dup8\n        /* \"#utility.yul\":5089:5099   */\n      swap6\n      pop\n        /* \"#utility.yul\":4258:5105   */\n      pop\n      pop\n      pop\n      pop\n      pop\n        /* \"#utility.yul\":4114:5105   */\n      swap3\n      swap2\n      pop\n      pop\n      jump\t// out\n        /* \"#utility.yul\":5111:5220   */\n    tag_324:\n        /* \"#utility.yul\":5192:5213   */\n      tag_326\n        /* \"#utility.yul\":5207:5212   */\n      dup2\n        /* \"#utility.yul\":5192:5213   */\n      tag_327\n      jump\t// in\n    tag_326:\n        /* \"#utility.yul\":5187:5190   */\n      dup3\n        /* \"#utility.yul\":5180:5214   */\n      mstore\n        /* \"#utility.yul\":5111:5220   */\n      pop\n      pop\n      jump\t// out\n        /* \"#utility.yul\":5226:5570   */\n    tag_305:\n        /* \"#utility.yul\":5304:5307   */\n      0x00\n        /* \"#utility.yul\":5332:5371   */\n      tag_329\n        /* \"#utility.yul\":5365:5370   */\n      dup3\n        /* \"#utility.yul\":5332:5371   */\n      tag_330\n      jump\t// in\n    tag_329:\n        /* \"#utility.yul\":5387:5448   */\n      tag_331\n        /* \"#utility.yul\":5441:5447   */\n      dup2\n        /* \"#utility.yul\":5436:5439   */\n      dup6\n        /* \"#utility.yul\":5387:5448   */\n      tag_332\n      jump\t// in\n    tag_331:\n        /* \"#utility.yul\":5380:5448   */\n      swap4\n      pop\n        /* \"#utility.yul\":5457:5509   */\n      tag_333\n        /* \"#utility.yul\":5502:5508   */\n      dup2\n        /* \"#utility.yul\":5497:5500   */\n      dup6\n        /* \"#utility.yul\":5490:5494   */\n      0x20\n        /* \"#utility.yul\":5483:5488   */\n      dup7\n        /* \"#utility.yul\":5479:5495   */\n      add\n        /* \"#utility.yul\":5457:5509   */\n      tag_334\n      jump\t// in\n    tag_333:\n        /* \"#utility.yul\":5534:5563   */\n      tag_335\n        /* \"#utility.yul\":5556:5562   */\n      dup2\n        /* \"#utility.yul\":5534:5563   */\n      tag_336\n      jump\t// in\n    tag_335:\n        /* \"#utility.yul\":5529:5532   */\n      dup5\n        /* \"#utility.yul\":5525:5564   */\n      add\n        /* \"#utility.yul\":5518:5564   */\n      swap2\n      pop\n        /* \"#utility.yul\":5308:5570   */\n      pop\n        /* \"#utility.yul\":5226:5570   */\n      swap3\n      swap2\n      pop\n      pop\n      jump\t// out\n        /* \"#utility.yul\":5576:5940   */\n    tag_337:\n        /* \"#utility.yul\":5664:5667   */\n      0x00\n        /* \"#utility.yul\":5692:5731   */\n      tag_339\n        /* \"#utility.yul\":5725:5730   */\n      dup3\n        /* \"#utility.yul\":5692:5731   */\n      tag_330\n      jump\t// in\n    tag_339:\n        /* \"#utility.yul\":5747:5818   */\n      tag_340\n        /* \"#utility.yul\":5811:5817   */\n      dup2\n        /* \"#utility.yul\":5806:5809   */\n      dup6\n        /* \"#utility.yul\":5747:5818   */\n      tag_341\n      jump\t// in\n    tag_340:\n        /* \"#utility.yul\":5740:5818   */\n      swap4\n      pop\n        /* \"#utility.yul\":5827:5879   */\n      tag_342\n        /* \"#utility.yul\":5872:5878   */\n      dup2\n        /* \"#utility.yul\":5867:5870   */\n      dup6\n        /* \"#utility.yul\":5860:5864   */\n      0x20\n        /* \"#utility.yul\":5853:5858   */\n      dup7\n        /* \"#utility.yul\":5849:5865   */\n      add\n        /* \"#utility.yul\":5827:5879   */\n      tag_334\n      jump\t// in\n    tag_342:\n        /* \"#utility.yul\":5904:5933   */\n      tag_343\n        /* \"#utility.yul\":5926:5932   */\n      dup2\n        /* \"#utility.yul\":5904:5933   */\n      tag_336\n      jump\t// in\n    tag_343:\n        /* \"#utility.yul\":5899:5902   */\n      dup5\n        /* \"#utility.yul\":5895:5934   */\n      add\n        /* \"#utility.yul\":5888:5934   */\n      swap2\n      pop\n        /* \"#utility.yul\":5668:5940   */\n      pop\n        /* \"#utility.yul\":5576:5940   */\n      swap3\n      swap2\n      pop\n      pop\n      jump\t// out\n        /* \"#utility.yul\":5946:6323   */\n    tag_344:\n        /* \"#utility.yul\":6052:6055   */\n      0x00\n        /* \"#utility.yul\":6080:6119   */\n      tag_346\n        /* \"#utility.yul\":6113:6118   */\n      dup3\n        /* \"#utility.yul\":6080:6119   */\n      tag_330\n      jump\t// in\n    tag_346:\n        /* \"#utility.yul\":6135:6224   */\n      tag_347\n        /* \"#utility.yul\":6217:6223   */\n      dup2\n        /* \"#utility.yul\":6212:6215   */\n      dup6\n        /* \"#utility.yul\":6135:6224   */\n      tag_348\n      jump\t// in\n    tag_347:\n        /* \"#utility.yul\":6128:6224   */\n      swap4\n      pop\n        /* \"#utility.yul\":6233:6285   */\n      tag_349\n        /* \"#utility.yul\":6278:6284   */\n      dup2\n        /* \"#utility.yul\":6273:6276   */\n      dup6\n        /* \"#utility.yul\":6266:6270   */\n      0x20\n        /* \"#utility.yul\":6259:6264   */\n      dup7\n        /* \"#utility.yul\":6255:6271   */\n      add\n        /* \"#utility.yul\":6233:6285   */\n      tag_334\n      jump\t// in\n    tag_349:\n        /* \"#utility.yul\":6310:6316   */\n      dup1\n        /* \"#utility.yul\":6305:6308   */\n      dup5\n        /* \"#utility.yul\":6301:6317   */\n      add\n        /* \"#utility.yul\":6294:6317   */\n      swap2\n      pop\n        /* \"#utility.yul\":6056:6323   */\n      pop\n        /* \"#utility.yul\":5946:6323   */\n      swap3\n      swap2\n      pop\n      pop\n      jump\t// out\n        /* \"#utility.yul\":6329:6695   */\n    tag_350:\n        /* \"#utility.yul\":6471:6474   */\n      0x00\n        /* \"#utility.yul\":6492:6559   */\n      tag_352\n        /* \"#utility.yul\":6556:6558   */\n      0x25\n        /* \"#utility.yul\":6551:6554   */\n      dup4\n        /* \"#utility.yul\":6492:6559   */\n      tag_341\n      jump\t// in\n    tag_352:\n        /* \"#utility.yul\":6485:6559   */\n      swap2\n      pop\n        /* \"#utility.yul\":6568:6661   */\n      tag_353\n        /* \"#utility.yul\":6657:6660   */\n      dup3\n        /* \"#utility.yul\":6568:6661   */\n      tag_354\n      jump\t// in\n    tag_353:\n        /* \"#utility.yul\":6686:6688   */\n      0x40\n        /* \"#utility.yul\":6681:6684   */\n      dup3\n        /* \"#utility.yul\":6677:6689   */\n      add\n        /* \"#utility.yul\":6670:6689   */\n      swap1\n      pop\n        /* \"#utility.yul\":6329:6695   */\n      swap2\n      swap1\n      pop\n      jump\t// out\n        /* \"#utility.yul\":6701:7067   */\n    tag_355:\n        /* \"#utility.yul\":6843:6846   */\n      0x00\n        /* \"#utility.yul\":6864:6931   */\n      tag_357\n        /* \"#utility.yul\":6928:6930   */\n      0x21\n        /* \"#utility.yul\":6923:6926   */\n      dup4\n        /* \"#utility.yul\":6864:6931   */\n      tag_341\n      jump\t// in\n    tag_357:\n        /* \"#utility.yul\":6857:6931   */\n      swap2\n      pop\n        /* \"#utility.yul\":6940:7033   */\n      tag_358\n        /* \"#utility.yul\":7029:7032   */\n      dup3\n        /* \"#utility.yul\":6940:7033   */\n      tag_359\n      jump\t// in\n    tag_358:\n        /* \"#utility.yul\":7058:7060   */\n      0x40\n        /* \"#utility.yul\":7053:7056   */\n      dup3\n        /* \"#utility.yul\":7049:7061   */\n      add\n        /* \"#utility.yul\":7042:7061   */\n      swap1\n      pop\n        /* \"#utility.yul\":6701:7067   */\n      swap2\n      swap1\n      pop\n      jump\t// out\n        /* \"#utility.yul\":7073:7439   */\n    tag_360:\n        /* \"#utility.yul\":7215:7218   */\n      0x00\n        /* \"#utility.yul\":7236:7303   */\n      tag_362\n        /* \"#utility.yul\":7300:7302   */\n      0x2f\n        /* \"#utility.yul\":7295:7298   */\n      dup4\n        /* \"#utility.yul\":7236:7303   */\n      tag_341\n      jump\t// in\n    tag_362:\n        /* \"#utility.yul\":7229:7303   */\n      swap2\n      pop\n        /* \"#utility.yul\":7312:7405   */\n      tag_363\n        /* \"#utility.yul\":7401:7404   */\n      dup3\n        /* \"#utility.yul\":7312:7405   */\n      tag_364\n      jump\t// in\n    tag_363:\n        /* \"#utility.yul\":7430:7432   */\n      0x40\n        /* \"#utility.yul\":7425:7428   */\n      dup3\n        /* \"#utility.yul\":7421:7433   */\n      add\n        /* \"#utility.yul\":7414:7433   */\n      swap1\n      pop\n        /* \"#utility.yul\":7073:7439   */\n      swap2\n      swap1\n      pop\n      jump\t// out\n        /* \"#utility.yul\":7445:7811   */\n    tag_365:\n        /* \"#utility.yul\":7587:7590   */\n      0x00\n        /* \"#utility.yul\":7608:7675   */\n      tag_367\n        /* \"#utility.yul\":7672:7674   */\n      0x2f\n        /* \"#utility.yul\":7667:7670   */\n      dup4\n        /* \"#utility.yul\":7608:7675   */\n      tag_341\n      jump\t// in\n    tag_367:\n        /* \"#utility.yul\":7601:7675   */\n      swap2\n      pop\n        /* \"#utility.yul\":7684:7777   */\n      tag_368\n        /* \"#utility.yul\":7773:7776   */\n      dup3\n        /* \"#utility.yul\":7684:7777   */\n      tag_369\n      jump\t// in\n    tag_368:\n        /* \"#utility.yul\":7802:7804   */\n      0x40\n        /* \"#utility.yul\":7797:7800   */\n      dup3\n        /* \"#utility.yul\":7793:7805   */\n      add\n        /* \"#utility.yul\":7786:7805   */\n      swap1\n      pop\n        /* \"#utility.yul\":7445:7811   */\n      swap2\n      swap1\n      pop\n      jump\t// out\n        /* \"#utility.yul\":7817:8217   */\n    tag_370:\n        /* \"#utility.yul\":7977:7980   */\n      0x00\n        /* \"#utility.yul\":7998:8082   */\n      tag_372\n        /* \"#utility.yul\":8080:8081   */\n      0x01\n        /* \"#utility.yul\":8075:8078   */\n      dup4\n        /* \"#utility.yul\":7998:8082   */\n      tag_348\n      jump\t// in\n    tag_372:\n        /* \"#utility.yul\":7991:8082   */\n      swap2\n      pop\n        /* \"#utility.yul\":8091:8184   */\n      tag_373\n        /* \"#utility.yul\":8180:8183   */\n      dup3\n        /* \"#utility.yul\":8091:8184   */\n      tag_374\n      jump\t// in\n    tag_373:\n        /* \"#utility.yul\":8209:8210   */\n      0x01\n        /* \"#utility.yul\":8204:8207   */\n      dup3\n        /* \"#utility.yul\":8200:8211   */\n      add\n        /* \"#utility.yul\":8193:8211   */\n      swap1\n      pop\n        /* \"#utility.yul\":7817:8217   */\n      swap2\n      swap1\n      pop\n      jump\t// out\n        /* \"#utility.yul\":8223:8589   */\n    tag_375:\n        /* \"#utility.yul\":8365:8368   */\n      0x00\n        /* \"#utility.yul\":8386:8453   */\n      tag_377\n        /* \"#utility.yul\":8450:8452   */\n      0x14\n        /* \"#utility.yul\":8445:8448   */\n      dup4\n        /* \"#utility.yul\":8386:8453   */\n      tag_341\n      jump\t// in\n    tag_377:\n        /* \"#utility.yul\":8379:8453   */\n      swap2\n      pop\n        /* \"#utility.yul\":8462:8555   */\n      tag_378\n        /* \"#utility.yul\":8551:8554   */\n      dup3\n        /* \"#utility.yul\":8462:8555   */\n      tag_379\n      jump\t// in\n    tag_378:\n        /* \"#utility.yul\":8580:8582   */\n      0x20\n        /* \"#utility.yul\":8575:8578   */\n      dup3\n        /* \"#utility.yul\":8571:8583   */\n      add\n        /* \"#utility.yul\":8564:8583   */\n      swap1\n      pop\n        /* \"#utility.yul\":8223:8589   */\n      swap2\n      swap1\n      pop\n      jump\t// out\n        /* \"#utility.yul\":8595:8961   */\n    tag_380:\n        /* \"#utility.yul\":8737:8740   */\n      0x00\n        /* \"#utility.yul\":8758:8825   */\n      tag_382\n        /* \"#utility.yul\":8822:8824   */\n      0x1a\n        /* \"#utility.yul\":8817:8820   */\n      dup4\n        /* \"#utility.yul\":8758:8825   */\n      tag_341\n      jump\t// in\n    tag_382:\n        /* \"#utility.yul\":8751:8825   */\n      swap2\n      pop\n        /* \"#utility.yul\":8834:8927   */\n      tag_383\n        /* \"#utility.yul\":8923:8926   */\n      dup3\n        /* \"#utility.yul\":8834:8927   */\n      tag_384\n      jump\t// in\n    tag_383:\n        /* \"#utility.yul\":8952:8954   */\n      0x20\n        /* \"#utility.yul\":8947:8950   */\n      dup3\n        /* \"#utility.yul\":8943:8955   */\n      add\n        /* \"#utility.yul\":8936:8955   */\n      swap1\n      pop\n        /* \"#utility.yul\":8595:8961   */\n      swap2\n      swap1\n      pop\n      jump\t// out\n        /* \"#utility.yul\":9029:9648   */\n    tag_385:\n        /* \"#utility.yul\":9148:9151   */\n      0x00\n        /* \"#utility.yul\":9184:9188   */\n      0x40\n        /* \"#utility.yul\":9179:9182   */\n      dup4\n        /* \"#utility.yul\":9175:9189   */\n      add\n        /* \"#utility.yul\":9278:9282   */\n      0x00\n        /* \"#utility.yul\":9271:9276   */\n      dup4\n        /* \"#utility.yul\":9267:9283   */\n      add\n        /* \"#utility.yul\":9261:9284   */\n      mload\n        /* \"#utility.yul\":9331:9334   */\n      dup5\n        /* \"#utility.yul\":9325:9329   */\n      dup3\n        /* \"#utility.yul\":9321:9335   */\n      sub\n        /* \"#utility.yul\":9314:9318   */\n      0x00\n        /* \"#utility.yul\":9309:9312   */\n      dup7\n        /* \"#utility.yul\":9305:9319   */\n      add\n        /* \"#utility.yul\":9298:9336   */\n      mstore\n        /* \"#utility.yul\":9357:9430   */\n      tag_387\n        /* \"#utility.yul\":9425:9429   */\n      dup3\n        /* \"#utility.yul\":9411:9423   */\n      dup3\n        /* \"#utility.yul\":9357:9430   */\n      tag_305\n      jump\t// in\n    tag_387:\n        /* \"#utility.yul\":9349:9430   */\n      swap2\n      pop\n        /* \"#utility.yul\":9199:9441   */\n      pop\n        /* \"#utility.yul\":9529:9533   */\n      0x20\n        /* \"#utility.yul\":9522:9527   */\n      dup4\n        /* \"#utility.yul\":9518:9534   */\n      add\n        /* \"#utility.yul\":9512:9535   */\n      mload\n        /* \"#utility.yul\":9548:9611   */\n      tag_388\n        /* \"#utility.yul\":9605:9609   */\n      0x20\n        /* \"#utility.yul\":9600:9603   */\n      dup7\n        /* \"#utility.yul\":9596:9610   */\n      add\n        /* \"#utility.yul\":9582:9594   */\n      dup3\n        /* \"#utility.yul\":9548:9611   */\n      tag_389\n      jump\t// in\n    tag_388:\n        /* \"#utility.yul\":9451:9621   */\n      pop\n        /* \"#utility.yul\":9638:9642   */\n      dup1\n        /* \"#utility.yul\":9631:9642   */\n      swap2\n      pop\n        /* \"#utility.yul\":9153:9648   */\n      pop\n        /* \"#utility.yul\":9029:9648   */\n      swap3\n      swap2\n      pop\n      pop\n      jump\t// out\n        /* \"#utility.yul\":9654:9762   */\n    tag_389:\n        /* \"#utility.yul\":9731:9755   */\n      tag_391\n        /* \"#utility.yul\":9749:9754   */\n      dup2\n        /* \"#utility.yul\":9731:9755   */\n      tag_392\n      jump\t// in\n    tag_391:\n        /* \"#utility.yul\":9726:9729   */\n      dup3\n        /* \"#utility.yul\":9719:9756   */\n      mstore\n        /* \"#utility.yul\":9654:9762   */\n      pop\n      pop\n      jump\t// out\n        /* \"#utility.yul\":9768:9886   */\n    tag_393:\n        /* \"#utility.yul\":9855:9879   */\n      tag_395\n        /* \"#utility.yul\":9873:9878   */\n      dup2\n        /* \"#utility.yul\":9855:9879   */\n      tag_392\n      jump\t// in\n    tag_395:\n        /* \"#utility.yul\":9850:9853   */\n      dup3\n        /* \"#utility.yul\":9843:9880   */\n      mstore\n        /* \"#utility.yul\":9768:9886   */\n      pop\n      pop\n      jump\t// out\n        /* \"#utility.yul\":9892:10593   */\n    tag_102:\n        /* \"#utility.yul\":10173:10176   */\n      0x00\n        /* \"#utility.yul\":10195:10290   */\n      tag_397\n        /* \"#utility.yul\":10286:10289   */\n      dup3\n        /* \"#utility.yul\":10277:10283   */\n      dup6\n        /* \"#utility.yul\":10195:10290   */\n      tag_344\n      jump\t// in\n    tag_397:\n        /* \"#utility.yul\":10188:10290   */\n      swap2\n      pop\n        /* \"#utility.yul\":10307:10455   */\n      tag_398\n        /* \"#utility.yul\":10451:10454   */\n      dup3\n        /* \"#utility.yul\":10307:10455   */\n      tag_370\n      jump\t// in\n    tag_398:\n        /* \"#utility.yul\":10300:10455   */\n      swap2\n      pop\n        /* \"#utility.yul\":10472:10567   */\n      tag_399\n        /* \"#utility.yul\":10563:10566   */\n      dup3\n        /* \"#utility.yul\":10554:10560   */\n      dup5\n        /* \"#utility.yul\":10472:10567   */\n      tag_344\n      jump\t// in\n    tag_399:\n        /* \"#utility.yul\":10465:10567   */\n      swap2\n      pop\n        /* \"#utility.yul\":10584:10587   */\n      dup2\n        /* \"#utility.yul\":10577:10587   */\n      swap1\n      pop\n        /* \"#utility.yul\":9892:10593   */\n      swap4\n      swap3\n      pop\n      pop\n      pop\n      jump\t// out\n        /* \"#utility.yul\":10599:11012   */\n    tag_15:\n        /* \"#utility.yul\":10762:10766   */\n      0x00\n        /* \"#utility.yul\":10800:10802   */\n      0x20\n        /* \"#utility.yul\":10789:10798   */\n      dup3\n        /* \"#utility.yul\":10785:10803   */\n      add\n        /* \"#utility.yul\":10777:10803   */\n      swap1\n      pop\n        /* \"#utility.yul\":10849:10858   */\n      dup2\n        /* \"#utility.yul\":10843:10847   */\n      dup2\n        /* \"#utility.yul\":10839:10859   */\n      sub\n        /* \"#utility.yul\":10835:10836   */\n      0x00\n        /* \"#utility.yul\":10824:10833   */\n      dup4\n        /* \"#utility.yul\":10820:10837   */\n      add\n        /* \"#utility.yul\":10813:10860   */\n      mstore\n        /* \"#utility.yul\":10877:11005   */\n      tag_401\n        /* \"#utility.yul\":11000:11004   */\n      dup2\n        /* \"#utility.yul\":10991:10997   */\n      dup5\n        /* \"#utility.yul\":10877:11005   */\n      tag_310\n      jump\t// in\n    tag_401:\n        /* \"#utility.yul\":10869:11005   */\n      swap1\n      pop\n        /* \"#utility.yul\":10599:11012   */\n      swap3\n      swap2\n      pop\n      pop\n      jump\t// out\n        /* \"#utility.yul\":11018:11331   */\n    tag_35:\n        /* \"#utility.yul\":11131:11135   */\n      0x00\n        /* \"#utility.yul\":11169:11171   */\n      0x20\n        /* \"#utility.yul\":11158:11167   */\n      dup3\n        /* \"#utility.yul\":11154:11172   */\n      add\n        /* \"#utility.yul\":11146:11172   */\n      swap1\n      pop\n        /* \"#utility.yul\":11218:11227   */\n      dup2\n        /* \"#utility.yul\":11212:11216   */\n      dup2\n        /* \"#utility.yul\":11208:11228   */\n      sub\n        /* \"#utility.yul\":11204:11205   */\n      0x00\n        /* \"#utility.yul\":11193:11202   */\n      dup4\n        /* \"#utility.yul\":11189:11206   */\n      add\n        /* \"#utility.yul\":11182:11229   */\n      mstore\n        /* \"#utility.yul\":11246:11324   */\n      tag_403\n        /* \"#utility.yul\":11319:11323   */\n      dup2\n        /* \"#utility.yul\":11310:11316   */\n      dup5\n        /* \"#utility.yul\":11246:11324   */\n      tag_337\n      jump\t// in\n    tag_403:\n        /* \"#utility.yul\":11238:11324   */\n      swap1\n      pop\n        /* \"#utility.yul\":11018:11331   */\n      swap3\n      swap2\n      pop\n      pop\n      jump\t// out\n        /* \"#utility.yul\":11337:11760   */\n    tag_19:\n        /* \"#utility.yul\":11478:11482   */\n      0x00\n        /* \"#utility.yul\":11516:11518   */\n      0x40\n        /* \"#utility.yul\":11505:11514   */\n      dup3\n        /* \"#utility.yul\":11501:11519   */\n      add\n        /* \"#utility.yul\":11493:11519   */\n      swap1\n      pop\n        /* \"#utility.yul\":11565:11574   */\n      dup2\n        /* \"#utility.yul\":11559:11563   */\n      dup2\n        /* \"#utility.yul\":11555:11575   */\n      sub\n        /* \"#utility.yul\":11551:11552   */\n      0x00\n        /* \"#utility.yul\":11540:11549   */\n      dup4\n        /* \"#utility.yul\":11536:11553   */\n      add\n        /* \"#utility.yul\":11529:11576   */\n      mstore\n        /* \"#utility.yul\":11593:11671   */\n      tag_405\n        /* \"#utility.yul\":11666:11670   */\n      dup2\n        /* \"#utility.yul\":11657:11663   */\n      dup6\n        /* \"#utility.yul\":11593:11671   */\n      tag_337\n      jump\t// in\n    tag_405:\n        /* \"#utility.yul\":11585:11671   */\n      swap1\n      pop\n        /* \"#utility.yul\":11681:11753   */\n      tag_406\n        /* \"#utility.yul\":11749:11751   */\n      0x20\n        /* \"#utility.yul\":11738:11747   */\n      dup4\n        /* \"#utility.yul\":11734:11752   */\n      add\n        /* \"#utility.yul\":11725:11731   */\n      dup5\n        /* \"#utility.yul\":11681:11753   */\n      tag_306\n      jump\t// in\n    tag_406:\n        /* \"#utility.yul\":11337:11760   */\n      swap4\n      swap3\n      pop\n      pop\n      pop\n      jump\t// out\n        /* \"#utility.yul\":11766:12275   */\n    tag_41:\n        /* \"#utility.yul\":11923:11927   */\n      0x00\n        /* \"#utility.yul\":11961:11963   */\n      0x60\n        /* \"#utility.yul\":11950:11959   */\n      dup3\n        /* \"#utility.yul\":11946:11964   */\n      add\n        /* \"#utility.yul\":11938:11964   */\n      swap1\n      pop\n        /* \"#utility.yul\":12010:12019   */\n      dup2\n        /* \"#utility.yul\":12004:12008   */\n      dup2\n        /* \"#utility.yul\":12000:12020   */\n      sub\n        /* \"#utility.yul\":11996:11997   */\n      0x00\n        /* \"#utility.yul\":11985:11994   */\n      dup4\n        /* \"#utility.yul\":11981:11998   */\n      add\n        /* \"#utility.yul\":11974:12021   */\n      mstore\n        /* \"#utility.yul\":12038:12116   */\n      tag_408\n        /* \"#utility.yul\":12111:12115   */\n      dup2\n        /* \"#utility.yul\":12102:12108   */\n      dup7\n        /* \"#utility.yul\":12038:12116   */\n      tag_337\n      jump\t// in\n    tag_408:\n        /* \"#utility.yul\":12030:12116   */\n      swap1\n      pop\n        /* \"#utility.yul\":12126:12192   */\n      tag_409\n        /* \"#utility.yul\":12188:12190   */\n      0x20\n        /* \"#utility.yul\":12177:12186   */\n      dup4\n        /* \"#utility.yul\":12173:12191   */\n      add\n        /* \"#utility.yul\":12164:12170   */\n      dup6\n        /* \"#utility.yul\":12126:12192   */\n      tag_324\n      jump\t// in\n    tag_409:\n        /* \"#utility.yul\":12202:12268   */\n      tag_410\n        /* \"#utility.yul\":12264:12266   */\n      0x40\n        /* \"#utility.yul\":12253:12262   */\n      dup4\n        /* \"#utility.yul\":12249:12267   */\n      add\n        /* \"#utility.yul\":12240:12246   */\n      dup5\n        /* \"#utility.yul\":12202:12268   */\n      tag_324\n      jump\t// in\n    tag_410:\n        /* \"#utility.yul\":11766:12275   */\n      swap5\n      swap4\n      pop\n      pop\n      pop\n      pop\n      jump\t// out\n        /* \"#utility.yul\":12281:12704   */\n    tag_25:\n        /* \"#utility.yul\":12422:12426   */\n      0x00\n        /* \"#utility.yul\":12460:12462   */\n      0x40\n        /* \"#utility.yul\":12449:12458   */\n      dup3\n        /* \"#utility.yul\":12445:12463   */\n      add\n        /* \"#utility.yul\":12437:12463   */\n      swap1\n      pop\n        /* \"#utility.yul\":12509:12518   */\n      dup2\n        /* \"#utility.yul\":12503:12507   */\n      dup2\n        /* \"#utility.yul\":12499:12519   */\n      sub\n        /* \"#utility.yul\":12495:12496   */\n      0x00\n        /* \"#utility.yul\":12484:12493   */\n      dup4\n        /* \"#utility.yul\":12480:12497   */\n      add\n        /* \"#utility.yul\":12473:12520   */\n      mstore\n        /* \"#utility.yul\":12537:12615   */\n      tag_412\n        /* \"#utility.yul\":12610:12614   */\n      dup2\n        /* \"#utility.yul\":12601:12607   */\n      dup6\n        /* \"#utility.yul\":12537:12615   */\n      tag_337\n      jump\t// in\n    tag_412:\n        /* \"#utility.yul\":12529:12615   */\n      swap1\n      pop\n        /* \"#utility.yul\":12625:12697   */\n      tag_413\n        /* \"#utility.yul\":12693:12695   */\n      0x20\n        /* \"#utility.yul\":12682:12691   */\n      dup4\n        /* \"#utility.yul\":12678:12696   */\n      add\n        /* \"#utility.yul\":12669:12675   */\n      dup5\n        /* \"#utility.yul\":12625:12697   */\n      tag_393\n      jump\t// in\n    tag_413:\n        /* \"#utility.yul\":12281:12704   */\n      swap4\n      swap3\n      pop\n      pop\n      pop\n      jump\t// out\n        /* \"#utility.yul\":12710:13129   */\n    tag_94:\n        /* \"#utility.yul\":12876:12880   */\n      0x00\n        /* \"#utility.yul\":12914:12916   */\n      0x20\n        /* \"#utility.yul\":12903:12912   */\n      dup3\n        /* \"#utility.yul\":12899:12917   */\n      add\n        /* \"#utility.yul\":12891:12917   */\n      swap1\n      pop\n        /* \"#utility.yul\":12963:12972   */\n      dup2\n        /* \"#utility.yul\":12957:12961   */\n      dup2\n        /* \"#utility.yul\":12953:12973   */\n      sub\n        /* \"#utility.yul\":12949:12950   */\n      0x00\n        /* \"#utility.yul\":12938:12947   */\n      dup4\n        /* \"#utility.yul\":12934:12951   */\n      add\n        /* \"#utility.yul\":12927:12974   */\n      mstore\n        /* \"#utility.yul\":12991:13122   */\n      tag_415\n        /* \"#utility.yul\":13117:13121   */\n      dup2\n        /* \"#utility.yul\":12991:13122   */\n      tag_350\n      jump\t// in\n    tag_415:\n        /* \"#utility.yul\":12983:13122   */\n      swap1\n      pop\n        /* \"#utility.yul\":12710:13129   */\n      swap2\n      swap1\n      pop\n      jump\t// out\n        /* \"#utility.yul\":13135:13554   */\n    tag_231:\n        /* \"#utility.yul\":13301:13305   */\n      0x00\n        /* \"#utility.yul\":13339:13341   */\n      0x20\n        /* \"#utility.yul\":13328:13337   */\n      dup3\n        /* \"#utility.yul\":13324:13342   */\n      add\n        /* \"#utility.yul\":13316:13342   */\n      swap1\n      pop\n        /* \"#utility.yul\":13388:13397   */\n      dup2\n        /* \"#utility.yul\":13382:13386   */\n      dup2\n        /* \"#utility.yul\":13378:13398   */\n      sub\n        /* \"#utility.yul\":13374:13375   */\n      0x00\n        /* \"#utility.yul\":13363:13372   */\n      dup4\n        /* \"#utility.yul\":13359:13376   */\n      add\n        /* \"#utility.yul\":13352:13399   */\n      mstore\n        /* \"#utility.yul\":13416:13547   */\n      tag_417\n        /* \"#utility.yul\":13542:13546   */\n      dup2\n        /* \"#utility.yul\":13416:13547   */\n      tag_355\n      jump\t// in\n    tag_417:\n        /* \"#utility.yul\":13408:13547   */\n      swap1\n      pop\n        /* \"#utility.yul\":13135:13554   */\n      swap2\n      swap1\n      pop\n      jump\t// out\n        /* \"#utility.yul\":13560:13979   */\n    tag_214:\n        /* \"#utility.yul\":13726:13730   */\n      0x00\n        /* \"#utility.yul\":13764:13766   */\n      0x20\n        /* \"#utility.yul\":13753:13762   */\n      dup3\n        /* \"#utility.yul\":13749:13767   */\n      add\n        /* \"#utility.yul\":13741:13767   */\n      swap1\n      pop\n        /* \"#utility.yul\":13813:13822   */\n      dup2\n        /* \"#utility.yul\":13807:13811   */\n      dup2\n        /* \"#utility.yul\":13803:13823   */\n      sub\n        /* \"#utility.yul\":13799:13800   */\n      0x00\n        /* \"#utility.yul\":13788:13797   */\n      dup4\n        /* \"#utility.yul\":13784:13801   */\n      add\n        /* \"#utility.yul\":13777:13824   */\n      mstore\n        /* \"#utility.yul\":13841:13972   */\n      tag_419\n        /* \"#utility.yul\":13967:13971   */\n      dup2\n        /* \"#utility.yul\":13841:13972   */\n      tag_360\n      jump\t// in\n    tag_419:\n        /* \"#utility.yul\":13833:13972   */\n      swap1\n      pop\n        /* \"#utility.yul\":13560:13979   */\n      swap2\n      swap1\n      pop\n      jump\t// out\n        /* \"#utility.yul\":13985:14404   */\n    tag_91:\n        /* \"#utility.yul\":14151:14155   */\n      0x00\n        /* \"#utility.yul\":14189:14191   */\n      0x20\n        /* \"#utility.yul\":14178:14187   */\n      dup3\n        /* \"#utility.yul\":14174:14192   */\n      add\n        /* \"#utility.yul\":14166:14192   */\n      swap1\n      pop\n        /* \"#utility.yul\":14238:14247   */\n      dup2\n        /* \"#utility.yul\":14232:14236   */\n      dup2\n        /* \"#utility.yul\":14228:14248   */\n      sub\n        /* \"#utility.yul\":14224:14225   */\n      0x00\n        /* \"#utility.yul\":14213:14222   */\n      dup4\n        /* \"#utility.yul\":14209:14226   */\n      add\n        /* \"#utility.yul\":14202:14249   */\n      mstore\n        /* \"#utility.yul\":14266:14397   */\n      tag_421\n        /* \"#utility.yul\":14392:14396   */\n      dup2\n        /* \"#utility.yul\":14266:14397   */\n      tag_365\n      jump\t// in\n    tag_421:\n        /* \"#utility.yul\":14258:14397   */\n      swap1\n      pop\n        /* \"#utility.yul\":13985:14404   */\n      swap2\n      swap1\n      pop\n      jump\t// out\n        /* \"#utility.yul\":14410:14829   */\n    tag_221:\n        /* \"#utility.yul\":14576:14580   */\n      0x00\n        /* \"#utility.yul\":14614:14616   */\n      0x20\n        /* \"#utility.yul\":14603:14612   */\n      dup3\n        /* \"#utility.yul\":14599:14617   */\n      add\n        /* \"#utility.yul\":14591:14617   */\n      swap1\n      pop\n        /* \"#utility.yul\":14663:14672   */\n      dup2\n        /* \"#utility.yul\":14657:14661   */\n      dup2\n        /* \"#utility.yul\":14653:14673   */\n      sub\n        /* \"#utility.yul\":14649:14650   */\n      0x00\n        /* \"#utility.yul\":14638:14647   */\n      dup4\n        /* \"#utility.yul\":14634:14651   */\n      add\n        /* \"#utility.yul\":14627:14674   */\n      mstore\n        /* \"#utility.yul\":14691:14822   */\n      tag_423\n        /* \"#utility.yul\":14817:14821   */\n      dup2\n        /* \"#utility.yul\":14691:14822   */\n      tag_375\n      jump\t// in\n    tag_423:\n        /* \"#utility.yul\":14683:14822   */\n      swap1\n      pop\n        /* \"#utility.yul\":14410:14829   */\n      swap2\n      swap1\n      pop\n      jump\t// out\n        /* \"#utility.yul\":14835:15254   */\n    tag_184:\n        /* \"#utility.yul\":15001:15005   */\n      0x00\n        /* \"#utility.yul\":15039:15041   */\n      0x20\n        /* \"#utility.yul\":15028:15037   */\n      dup3\n        /* \"#utility.yul\":15024:15042   */\n      add\n        /* \"#utility.yul\":15016:15042   */\n      swap1\n      pop\n        /* \"#utility.yul\":15088:15097   */\n      dup2\n        /* \"#utility.yul\":15082:15086   */\n      dup2\n        /* \"#utility.yul\":15078:15098   */\n      sub\n        /* \"#utility.yul\":15074:15075   */\n      0x00\n        /* \"#utility.yul\":15063:15072   */\n      dup4\n        /* \"#utility.yul\":15059:15076   */\n      add\n        /* \"#utility.yul\":15052:15099   */\n      mstore\n        /* \"#utility.yul\":15116:15247   */\n      tag_425\n        /* \"#utility.yul\":15242:15246   */\n      dup2\n        /* \"#utility.yul\":15116:15247   */\n      tag_380\n      jump\t// in\n    tag_425:\n        /* \"#utility.yul\":15108:15247   */\n      swap1\n      pop\n        /* \"#utility.yul\":14835:15254   */\n      swap2\n      swap1\n      pop\n      jump\t// out\n        /* \"#utility.yul\":15260:15633   */\n    tag_45:\n        /* \"#utility.yul\":15403:15407   */\n      0x00\n        /* \"#utility.yul\":15441:15443   */\n      0x20\n        /* \"#utility.yul\":15430:15439   */\n      dup3\n        /* \"#utility.yul\":15426:15444   */\n      add\n        /* \"#utility.yul\":15418:15444   */\n      swap1\n      pop\n        /* \"#utility.yul\":15490:15499   */\n      dup2\n        /* \"#utility.yul\":15484:15488   */\n      dup2\n        /* \"#utility.yul\":15480:15500   */\n      sub\n        /* \"#utility.yul\":15476:15477   */\n      0x00\n        /* \"#utility.yul\":15465:15474   */\n      dup4\n        /* \"#utility.yul\":15461:15478   */\n      add\n        /* \"#utility.yul\":15454:15501   */\n      mstore\n        /* \"#utility.yul\":15518:15626   */\n      tag_427\n        /* \"#utility.yul\":15621:15625   */\n      dup2\n        /* \"#utility.yul\":15612:15618   */\n      dup5\n        /* \"#utility.yul\":15518:15626   */\n      tag_385\n      jump\t// in\n    tag_427:\n        /* \"#utility.yul\":15510:15626   */\n      swap1\n      pop\n        /* \"#utility.yul\":15260:15633   */\n      swap3\n      swap2\n      pop\n      pop\n      jump\t// out\n        /* \"#utility.yul\":15639:15768   */\n    tag_250:\n        /* \"#utility.yul\":15673:15679   */\n      0x00\n        /* \"#utility.yul\":15700:15720   */\n      tag_429\n      tag_430\n      jump\t// in\n    tag_429:\n        /* \"#utility.yul\":15690:15720   */\n      swap1\n      pop\n        /* \"#utility.yul\":15729:15762   */\n      tag_431\n        /* \"#utility.yul\":15757:15761   */\n      dup3\n        /* \"#utility.yul\":15749:15755   */\n      dup3\n        /* \"#utility.yul\":15729:15762   */\n      tag_432\n      jump\t// in\n    tag_431:\n        /* \"#utility.yul\":15639:15768   */\n      swap2\n      swap1\n      pop\n      jump\t// out\n        /* \"#utility.yul\":15774:15849   */\n    tag_430:\n        /* \"#utility.yul\":15807:15813   */\n      0x00\n        /* \"#utility.yul\":15840:15842   */\n      0x40\n        /* \"#utility.yul\":15834:15843   */\n      mload\n        /* \"#utility.yul\":15824:15843   */\n      swap1\n      pop\n        /* \"#utility.yul\":15774:15849   */\n      swap1\n      jump\t// out\n        /* \"#utility.yul\":15855:16163   */\n    tag_249:\n        /* \"#utility.yul\":15917:15921   */\n      0x00\n        /* \"#utility.yul\":16007:16025   */\n      0xffffffffffffffff\n        /* \"#utility.yul\":15999:16005   */\n      dup3\n        /* \"#utility.yul\":15996:16026   */\n      gt\n        /* \"#utility.yul\":15993:16049   */\n      iszero\n      tag_435\n      jumpi\n        /* \"#utility.yul\":16029:16047   */\n      tag_436\n      tag_53\n      jump\t// in\n    tag_436:\n        /* \"#utility.yul\":15993:16049   */\n    tag_435:\n        /* \"#utility.yul\":16067:16096   */\n      tag_437\n        /* \"#utility.yul\":16089:16095   */\n      dup3\n        /* \"#utility.yul\":16067:16096   */\n      tag_336\n      jump\t// in\n    tag_437:\n        /* \"#utility.yul\":16059:16096   */\n      swap1\n      pop\n        /* \"#utility.yul\":16151:16155   */\n      0x20\n        /* \"#utility.yul\":16145:16149   */\n      dup2\n        /* \"#utility.yul\":16141:16156   */\n      add\n        /* \"#utility.yul\":16133:16156   */\n      swap1\n      pop\n        /* \"#utility.yul\":15855:16163   */\n      swap2\n      swap1\n      pop\n      jump\t// out\n        /* \"#utility.yul\":16169:16311   */\n    tag_317:\n        /* \"#utility.yul\":16246:16250   */\n      0x00\n        /* \"#utility.yul\":16269:16272   */\n      dup2\n        /* \"#utility.yul\":16261:16272   */\n      swap1\n      pop\n        /* \"#utility.yul\":16299:16303   */\n      0x20\n        /* \"#utility.yul\":16294:16297   */\n      dup3\n        /* \"#utility.yul\":16290:16304   */\n      add\n        /* \"#utility.yul\":16282:16304   */\n      swap1\n      pop\n        /* \"#utility.yul\":16169:16311   */\n      swap2\n      swap1\n      pop\n      jump\t// out\n        /* \"#utility.yul\":16317:16441   */\n    tag_313:\n        /* \"#utility.yul\":16394:16400   */\n      0x00\n        /* \"#utility.yul\":16428:16433   */\n      dup2\n        /* \"#utility.yul\":16422:16434   */\n      mload\n        /* \"#utility.yul\":16412:16434   */\n      swap1\n      pop\n        /* \"#utility.yul\":16317:16441   */\n      swap2\n      swap1\n      pop\n      jump\t// out\n        /* \"#utility.yul\":16447:16546   */\n    tag_330:\n        /* \"#utility.yul\":16499:16505   */\n      0x00\n        /* \"#utility.yul\":16533:16538   */\n      dup2\n        /* \"#utility.yul\":16527:16539   */\n      mload\n        /* \"#utility.yul\":16517:16539   */\n      swap1\n      pop\n        /* \"#utility.yul\":16447:16546   */\n      swap2\n      swap1\n      pop\n      jump\t// out\n        /* \"#utility.yul\":16552:16675   */\n    tag_323:\n        /* \"#utility.yul\":16632:16636   */\n      0x00\n        /* \"#utility.yul\":16664:16668   */\n      0x20\n        /* \"#utility.yul\":16659:16662   */\n      dup3\n        /* \"#utility.yul\":16655:16669   */\n      add\n        /* \"#utility.yul\":16647:16669   */\n      swap1\n      pop\n        /* \"#utility.yul\":16552:16675   */\n      swap2\n      swap1\n      pop\n      jump\t// out\n        /* \"#utility.yul\":16681:16875   */\n    tag_315:\n        /* \"#utility.yul\":16790:16801   */\n      0x00\n        /* \"#utility.yul\":16824:16830   */\n      dup3\n        /* \"#utility.yul\":16819:16822   */\n      dup3\n        /* \"#utility.yul\":16812:16831   */\n      mstore\n        /* \"#utility.yul\":16864:16868   */\n      0x20\n        /* \"#utility.yul\":16859:16862   */\n      dup3\n        /* \"#utility.yul\":16855:16869   */\n      add\n        /* \"#utility.yul\":16840:16869   */\n      swap1\n      pop\n        /* \"#utility.yul\":16681:16875   */\n      swap3\n      swap2\n      pop\n      pop\n      jump\t// out\n        /* \"#utility.yul\":16881:17040   */\n    tag_332:\n        /* \"#utility.yul\":16955:16966   */\n      0x00\n        /* \"#utility.yul\":16989:16995   */\n      dup3\n        /* \"#utility.yul\":16984:16987   */\n      dup3\n        /* \"#utility.yul\":16977:16996   */\n      mstore\n        /* \"#utility.yul\":17029:17033   */\n      0x20\n        /* \"#utility.yul\":17024:17027   */\n      dup3\n        /* \"#utility.yul\":17020:17034   */\n      add\n        /* \"#utility.yul\":17005:17034   */\n      swap1\n      pop\n        /* \"#utility.yul\":16881:17040   */\n      swap3\n      swap2\n      pop\n      pop\n      jump\t// out\n        /* \"#utility.yul\":17046:17215   */\n    tag_341:\n        /* \"#utility.yul\":17130:17141   */\n      0x00\n        /* \"#utility.yul\":17164:17170   */\n      dup3\n        /* \"#utility.yul\":17159:17162   */\n      dup3\n        /* \"#utility.yul\":17152:17171   */\n      mstore\n        /* \"#utility.yul\":17204:17208   */\n      0x20\n        /* \"#utility.yul\":17199:17202   */\n      dup3\n        /* \"#utility.yul\":17195:17209   */\n      add\n        /* \"#utility.yul\":17180:17209   */\n      swap1\n      pop\n        /* \"#utility.yul\":17046:17215   */\n      swap3\n      swap2\n      pop\n      pop\n      jump\t// out\n        /* \"#utility.yul\":17221:17369   */\n    tag_348:\n        /* \"#utility.yul\":17323:17334   */\n      0x00\n        /* \"#utility.yul\":17360:17363   */\n      dup2\n        /* \"#utility.yul\":17345:17363   */\n      swap1\n      pop\n        /* \"#utility.yul\":17221:17369   */\n      swap3\n      swap2\n      pop\n      pop\n      jump\t// out\n        /* \"#utility.yul\":17375:17471   */\n    tag_309:\n        /* \"#utility.yul\":17412:17419   */\n      0x00\n        /* \"#utility.yul\":17441:17465   */\n      tag_447\n        /* \"#utility.yul\":17459:17464   */\n      dup3\n        /* \"#utility.yul\":17441:17465   */\n      tag_448\n      jump\t// in\n    tag_447:\n        /* \"#utility.yul\":17430:17465   */\n      swap1\n      pop\n        /* \"#utility.yul\":17375:17471   */\n      swap2\n      swap1\n      pop\n      jump\t// out\n        /* \"#utility.yul\":17477:17567   */\n    tag_327:\n        /* \"#utility.yul\":17511:17518   */\n      0x00\n        /* \"#utility.yul\":17554:17559   */\n      dup2\n        /* \"#utility.yul\":17547:17560   */\n      iszero\n        /* \"#utility.yul\":17540:17561   */\n      iszero\n        /* \"#utility.yul\":17529:17561   */\n      swap1\n      pop\n        /* \"#utility.yul\":17477:17567   */\n      swap2\n      swap1\n      pop\n      jump\t// out\n        /* \"#utility.yul\":17573:17699   */\n    tag_448:\n        /* \"#utility.yul\":17610:17617   */\n      0x00\n        /* \"#utility.yul\":17650:17692   */\n      0xffffffffffffffffffffffffffffffffffffffff\n        /* \"#utility.yul\":17643:17648   */\n      dup3\n        /* \"#utility.yul\":17639:17693   */\n      and\n        /* \"#utility.yul\":17628:17693   */\n      swap1\n      pop\n        /* \"#utility.yul\":17573:17699   */\n      swap2\n      swap1\n      pop\n      jump\t// out\n        /* \"#utility.yul\":17705:17782   */\n    tag_392:\n        /* \"#utility.yul\":17742:17749   */\n      0x00\n        /* \"#utility.yul\":17771:17776   */\n      dup2\n        /* \"#utility.yul\":17760:17776   */\n      swap1\n      pop\n        /* \"#utility.yul\":17705:17782   */\n      swap2\n      swap1\n      pop\n      jump\t// out\n        /* \"#utility.yul\":17788:17942   */\n    tag_255:\n        /* \"#utility.yul\":17872:17878   */\n      dup3\n        /* \"#utility.yul\":17867:17870   */\n      dup2\n        /* \"#utility.yul\":17862:17865   */\n      dup4\n        /* \"#utility.yul\":17849:17879   */\n      calldatacopy\n        /* \"#utility.yul\":17934:17935   */\n      0x00\n        /* \"#utility.yul\":17925:17931   */\n      dup4\n        /* \"#utility.yul\":17920:17923   */\n      dup4\n        /* \"#utility.yul\":17916:17932   */\n      add\n        /* \"#utility.yul\":17909:17936   */\n      mstore\n        /* \"#utility.yul\":17788:17942   */\n      pop\n      pop\n      pop\n      jump\t// out\n        /* \"#utility.yul\":17948:18255   */\n    tag_334:\n        /* \"#utility.yul\":18016:18017   */\n      0x00\n        /* \"#utility.yul\":18026:18139   */\n    tag_454:\n        /* \"#utility.yul\":18040:18046   */\n      dup4\n        /* \"#utility.yul\":18037:18038   */\n      dup2\n        /* \"#utility.yul\":18034:18047   */\n      lt\n        /* \"#utility.yul\":18026:18139   */\n      iszero\n      tag_456\n      jumpi\n        /* \"#utility.yul\":18125:18126   */\n      dup1\n        /* \"#utility.yul\":18120:18123   */\n      dup3\n        /* \"#utility.yul\":18116:18127   */\n      add\n        /* \"#utility.yul\":18110:18128   */\n      mload\n        /* \"#utility.yul\":18106:18107   */\n      dup2\n        /* \"#utility.yul\":18101:18104   */\n      dup5\n        /* \"#utility.yul\":18097:18108   */\n      add\n        /* \"#utility.yul\":18090:18129   */\n      mstore\n        /* \"#utility.yul\":18062:18064   */\n      0x20\n        /* \"#utility.yul\":18059:18060   */\n      dup2\n        /* \"#utility.yul\":18055:18065   */\n      add\n        /* \"#utility.yul\":18050:18065   */\n      swap1\n      pop\n        /* \"#utility.yul\":18026:18139   */\n      jump(tag_454)\n    tag_456:\n        /* \"#utility.yul\":18157:18163   */\n      dup4\n        /* \"#utility.yul\":18154:18155   */\n      dup2\n        /* \"#utility.yul\":18151:18164   */\n      gt\n        /* \"#utility.yul\":18148:18249   */\n      iszero\n      tag_457\n      jumpi\n        /* \"#utility.yul\":18237:18238   */\n      0x00\n        /* \"#utility.yul\":18228:18234   */\n      dup5\n        /* \"#utility.yul\":18223:18226   */\n      dup5\n        /* \"#utility.yul\":18219:18235   */\n      add\n        /* \"#utility.yul\":18212:18239   */\n      mstore\n        /* \"#utility.yul\":18148:18249   */\n    tag_457:\n        /* \"#utility.yul\":17997:18255   */\n      pop\n        /* \"#utility.yul\":17948:18255   */\n      pop\n      pop\n      pop\n      jump\t// out\n        /* \"#utility.yul\":18261:18581   */\n    tag_64:\n        /* \"#utility.yul\":18305:18311   */\n      0x00\n        /* \"#utility.yul\":18342:18343   */\n      0x02\n        /* \"#utility.yul\":18336:18340   */\n      dup3\n        /* \"#utility.yul\":18332:18344   */\n      div\n        /* \"#utility.yul\":18322:18344   */\n      swap1\n      pop\n        /* \"#utility.yul\":18389:18390   */\n      0x01\n        /* \"#utility.yul\":18383:18387   */\n      dup3\n        /* \"#utility.yul\":18379:18391   */\n      and\n        /* \"#utility.yul\":18410:18428   */\n      dup1\n        /* \"#utility.yul\":18400:18481   */\n      tag_459\n      jumpi\n        /* \"#utility.yul\":18466:18470   */\n      0x7f\n        /* \"#utility.yul\":18458:18464   */\n      dup3\n        /* \"#utility.yul\":18454:18471   */\n      and\n        /* \"#utility.yul\":18444:18471   */\n      swap2\n      pop\n        /* \"#utility.yul\":18400:18481   */\n    tag_459:\n        /* \"#utility.yul\":18528:18530   */\n      0x20\n        /* \"#utility.yul\":18520:18526   */\n      dup3\n        /* \"#utility.yul\":18517:18531   */\n      lt\n        /* \"#utility.yul\":18497:18515   */\n      dup2\n        /* \"#utility.yul\":18494:18532   */\n      eq\n        /* \"#utility.yul\":18491:18575   */\n      iszero\n      tag_460\n      jumpi\n        /* \"#utility.yul\":18547:18565   */\n      tag_461\n      tag_462\n      jump\t// in\n    tag_461:\n        /* \"#utility.yul\":18491:18575   */\n    tag_460:\n        /* \"#utility.yul\":18312:18581   */\n      pop\n        /* \"#utility.yul\":18261:18581   */\n      swap2\n      swap1\n      pop\n      jump\t// out\n        /* \"#utility.yul\":18587:18868   */\n    tag_432:\n        /* \"#utility.yul\":18670:18697   */\n      tag_464\n        /* \"#utility.yul\":18692:18696   */\n      dup3\n        /* \"#utility.yul\":18670:18697   */\n      tag_336\n      jump\t// in\n    tag_464:\n        /* \"#utility.yul\":18662:18668   */\n      dup2\n        /* \"#utility.yul\":18658:18698   */\n      add\n        /* \"#utility.yul\":18800:18806   */\n      dup2\n        /* \"#utility.yul\":18788:18798   */\n      dup2\n        /* \"#utility.yul\":18785:18807   */\n      lt\n        /* \"#utility.yul\":18764:18782   */\n      0xffffffffffffffff\n        /* \"#utility.yul\":18752:18762   */\n      dup3\n        /* \"#utility.yul\":18749:18783   */\n      gt\n        /* \"#utility.yul\":18746:18808   */\n      or\n        /* \"#utility.yul\":18743:18831   */\n      iszero\n      tag_465\n      jumpi\n        /* \"#utility.yul\":18811:18829   */\n      tag_466\n      tag_53\n      jump\t// in\n    tag_466:\n        /* \"#utility.yul\":18743:18831   */\n    tag_465:\n        /* \"#utility.yul\":18851:18861   */\n      dup1\n        /* \"#utility.yul\":18847:18849   */\n      0x40\n        /* \"#utility.yul\":18840:18862   */\n      mstore\n        /* \"#utility.yul\":18630:18868   */\n      pop\n        /* \"#utility.yul\":18587:18868   */\n      pop\n      pop\n      jump\t// out\n        /* \"#utility.yul\":18874:19107   */\n    tag_72:\n        /* \"#utility.yul\":18913:18916   */\n      0x00\n        /* \"#utility.yul\":18936:18960   */\n      tag_468\n        /* \"#utility.yul\":18954:18959   */\n      dup3\n        /* \"#utility.yul\":18936:18960   */\n      tag_392\n      jump\t// in\n    tag_468:\n        /* \"#utility.yul\":18927:18960   */\n      swap2\n      pop\n        /* \"#utility.yul\":18982:19048   */\n      0xffffffffffffffffffffffffffffffffffffffffffffffffffffffffffffffff\n        /* \"#utility.yul\":18975:18980   */\n      dup3\n        /* \"#utility.yul\":18972:19049   */\n      eq\n        /* \"#utility.yul\":18969:19072   */\n      iszero\n      tag_469\n      jumpi\n        /* \"#utility.yul\":19052:19070   */\n      tag_470\n      tag_471\n      jump\t// in\n    tag_470:\n        /* \"#utility.yul\":18969:19072   */\n    tag_469:\n        /* \"#utility.yul\":19099:19100   */\n      0x01\n        /* \"#utility.yul\":19092:19097   */\n      dup3\n        /* \"#utility.yul\":19088:19101   */\n      add\n        /* \"#utility.yul\":19081:19101   */\n      swap1\n      pop\n        /* \"#utility.yul\":18874:19107   */\n      swap2\n      swap1\n      pop\n      jump\t// out\n        /* \"#utility.yul\":19113:19293   */\n    tag_471:\n        /* \"#utility.yul\":19161:19238   */\n      0x4e487b7100000000000000000000000000000000000000000000000000000000\n        /* \"#utility.yul\":19158:19159   */\n      0x00\n        /* \"#utility.yul\":19151:19239   */\n      mstore\n        /* \"#utility.yul\":19258:19262   */\n      0x11\n        /* \"#utility.yul\":19255:19256   */\n      0x04\n        /* \"#utility.yul\":19248:19263   */\n      mstore\n        /* \"#utility.yul\":19282:19286   */\n      0x24\n        /* \"#utility.yul\":19279:19280   */\n      0x00\n        /* \"#utility.yul\":19272:19287   */\n      revert\n        /* \"#utility.yul\":19299:19479   */\n    tag_462:\n        /* \"#utility.yul\":19347:19424   */\n      0x4e487b7100000000000000000000000000000000000000000000000000000000\n        /* \"#utility.yul\":19344:19345   */\n      0x00\n        /* \"#utility.yul\":19337:19425   */\n      mstore\n        /* \"#utility.yul\":19444:19448   */\n      0x22\n        /* \"#utility.yul\":19441:19442   */\n      0x04\n        /* \"#utility.yul\":19434:19449   */\n      mstore\n        /* \"#utility.yul\":19468:19472   */\n      0x24\n        /* \"#utility.yul\":19465:19466   */\n      0x00\n        /* \"#utility.yul\":19458:19473   */\n      revert\n        /* \"#utility.yul\":19485:19665   */\n    tag_61:\n        /* \"#utility.yul\":19533:19610   */\n      0x4e487b7100000000000000000000000000000000000000000000000000000000\n        /* \"#utility.yul\":19530:19531   */\n      0x00\n        /* \"#utility.yul\":19523:19611   */\n      mstore\n        /* \"#utility.yul\":19630:19634   */\n      0x32\n        /* \"#utility.yul\":19627:19628   */\n      0x04\n        /* \"#utility.yul\":19620:19635   */\n      mstore\n        /* \"#utility.yul\":19654:19658   */\n      0x24\n        /* \"#utility.yul\":19651:19652   */\n      0x00\n        /* \"#utility.yul\":19644:19659   */\n      revert\n        /* \"#utility.yul\":19671:19851   */\n    tag_53:\n        /* \"#utility.yul\":19719:19796   */\n      0x4e487b7100000000000000000000000000000000000000000000000000000000\n        /* \"#utility.yul\":19716:19717   */\n      0x00\n        /* \"#utility.yul\":19709:19797   */\n      mstore\n        /* \"#utility.yul\":19816:19820   */\n      0x41\n        /* \"#utility.yul\":19813:19814   */\n      0x04\n        /* \"#utility.yul\":19806:19821   */\n      mstore\n        /* \"#utility.yul\":19840:19844   */\n      0x24\n        /* \"#utility.yul\":19837:19838   */\n      0x00\n        /* \"#utility.yul\":19830:19845   */\n      revert\n        /* \"#utility.yul\":19857:19974   */\n    tag_264:\n        /* \"#utility.yul\":19966:19967   */\n      0x00\n        /* \"#utility.yul\":19963:19964   */\n      dup1\n        /* \"#utility.yul\":19956:19968   */\n      revert\n        /* \"#utility.yul\":19980:20097   */\n    tag_253:\n        /* \"#utility.yul\":20089:20090   */\n      0x00\n        /* \"#utility.yul\":20086:20087   */\n      dup1\n        /* \"#utility.yul\":20079:20091   */\n      revert\n        /* \"#utility.yul\":20103:20220   */\n    tag_281:\n        /* \"#utility.yul\":20212:20213   */\n      0x00\n        /* \"#utility.yul\":20209:20210   */\n      dup1\n        /* \"#utility.yul\":20202:20214   */\n      revert\n        /* \"#utility.yul\":20226:20343   */\n    tag_273:\n        /* \"#utility.yul\":20335:20336   */\n      0x00\n        /* \"#utility.yul\":20332:20333   */\n      dup1\n        /* \"#utility.yul\":20325:20337   */\n      revert\n        /* \"#utility.yul\":20349:20451   */\n    tag_336:\n        /* \"#utility.yul\":20390:20396   */\n      0x00\n        /* \"#utility.yul\":20441:20443   */\n      0x1f\n        /* \"#utility.yul\":20437:20444   */\n      not\n        /* \"#utility.yul\":20432:20434   */\n      0x1f\n        /* \"#utility.yul\":20425:20430   */\n      dup4\n        /* \"#utility.yul\":20421:20435   */\n      add\n        /* \"#utility.yul\":20417:20445   */\n      and\n        /* \"#utility.yul\":20407:20445   */\n      swap1\n      pop\n        /* \"#utility.yul\":20349:20451   */\n      swap2\n      swap1\n      pop\n      jump\t// out\n        /* \"#utility.yul\":20457:20681   */\n    tag_354:\n        /* \"#utility.yul\":20597:20631   */\n      0x566f746572206861766520616c72656164792068617320726967687420746f20\n        /* \"#utility.yul\":20593:20594   */\n      0x00\n        /* \"#utility.yul\":20585:20591   */\n      dup3\n        /* \"#utility.yul\":20581:20595   */\n      add\n        /* \"#utility.yul\":20574:20632   */\n      mstore\n        /* \"#utility.yul\":20666:20673   */\n      0x766f74652e000000000000000000000000000000000000000000000000000000\n        /* \"#utility.yul\":20661:20663   */\n      0x20\n        /* \"#utility.yul\":20653:20659   */\n      dup3\n        /* \"#utility.yul\":20649:20664   */\n      add\n        /* \"#utility.yul\":20642:20674   */\n      mstore\n        /* \"#utility.yul\":20457:20681   */\n      pop\n      jump\t// out\n        /* \"#utility.yul\":20687:20907   */\n    tag_359:\n        /* \"#utility.yul\":20827:20861   */\n      0x43616e64696461746520796f752073656e7420646f6573206e6f742065786973\n        /* \"#utility.yul\":20823:20824   */\n      0x00\n        /* \"#utility.yul\":20815:20821   */\n      dup3\n        /* \"#utility.yul\":20811:20825   */\n      add\n        /* \"#utility.yul\":20804:20862   */\n      mstore\n        /* \"#utility.yul\":20896:20899   */\n      0x7400000000000000000000000000000000000000000000000000000000000000\n        /* \"#utility.yul\":20891:20893   */\n      0x20\n        /* \"#utility.yul\":20883:20889   */\n      dup3\n        /* \"#utility.yul\":20879:20894   */\n      add\n        /* \"#utility.yul\":20872:20900   */\n      mstore\n        /* \"#utility.yul\":20687:20907   */\n      pop\n      jump\t// out\n        /* \"#utility.yul\":20913:21147   */\n    tag_364:\n        /* \"#utility.yul\":21053:21087   */\n      0x4d6178206163636f756e7420766f74657320697320726561636865642e204261\n        /* \"#utility.yul\":21049:21050   */\n      0x00\n        /* \"#utility.yul\":21041:21047   */\n      dup3\n        /* \"#utility.yul\":21037:21051   */\n      add\n        /* \"#utility.yul\":21030:21088   */\n      mstore\n        /* \"#utility.yul\":21122:21139   */\n      0x6c6c6f7420697320434c4f5345442e0000000000000000000000000000000000\n        /* \"#utility.yul\":21117:21119   */\n      0x20\n        /* \"#utility.yul\":21109:21115   */\n      dup3\n        /* \"#utility.yul\":21105:21120   */\n      add\n        /* \"#utility.yul\":21098:21140   */\n      mstore\n        /* \"#utility.yul\":20913:21147   */\n      pop\n      jump\t// out\n        /* \"#utility.yul\":21153:21387   */\n    tag_369:\n        /* \"#utility.yul\":21293:21327   */\n      0x4f6e6c792074686520636f6e7472616374206f776e65722063616e2067697665\n        /* \"#utility.yul\":21289:21290   */\n      0x00\n        /* \"#utility.yul\":21281:21287   */\n      dup3\n        /* \"#utility.yul\":21277:21291   */\n      add\n        /* \"#utility.yul\":21270:21328   */\n      mstore\n        /* \"#utility.yul\":21362:21379   */\n      0x20726967687420746f20766f74652e0000000000000000000000000000000000\n        /* \"#utility.yul\":21357:21359   */\n      0x20\n        /* \"#utility.yul\":21349:21355   */\n      dup3\n        /* \"#utility.yul\":21345:21360   */\n      add\n        /* \"#utility.yul\":21338:21380   */\n      mstore\n        /* \"#utility.yul\":21153:21387   */\n      pop\n      jump\t// out\n        /* \"#utility.yul\":21393:21544   */\n    tag_374:\n        /* \"#utility.yul\":21533:21536   */\n      0x2000000000000000000000000000000000000000000000000000000000000000\n        /* \"#utility.yul\":21529:21530   */\n      0x00\n        /* \"#utility.yul\":21521:21527   */\n      dup3\n        /* \"#utility.yul\":21517:21531   */\n      add\n        /* \"#utility.yul\":21510:21537   */\n      mstore\n        /* \"#utility.yul\":21393:21544   */\n      pop\n      jump\t// out\n        /* \"#utility.yul\":21550:21720   */\n    tag_379:\n        /* \"#utility.yul\":21690:21712   */\n      0x566f74657220616c726561647920766f7465642e000000000000000000000000\n        /* \"#utility.yul\":21686:21687   */\n      0x00\n        /* \"#utility.yul\":21678:21684   */\n      dup3\n        /* \"#utility.yul\":21674:21688   */\n      add\n        /* \"#utility.yul\":21667:21713   */\n      mstore\n        /* \"#utility.yul\":21550:21720   */\n      pop\n      jump\t// out\n        /* \"#utility.yul\":21726:21902   */\n    tag_384:\n        /* \"#utility.yul\":21866:21894   */\n      0x596f752068617665206e6f7420726967687420746f20766f7465000000000000\n        /* \"#utility.yul\":21862:21863   */\n      0x00\n        /* \"#utility.yul\":21854:21860   */\n      dup3\n        /* \"#utility.yul\":21850:21864   */\n      add\n        /* \"#utility.yul\":21843:21895   */\n      mstore\n        /* \"#utility.yul\":21726:21902   */\n      pop\n      jump\t// out\n        /* \"#utility.yul\":21908:22030   */\n    tag_259:\n        /* \"#utility.yul\":21981:22005   */\n      tag_489\n        /* \"#utility.yul\":21999:22004   */\n      dup2\n        /* \"#utility.yul\":21981:22005   */\n      tag_309\n      jump\t// in\n    tag_489:\n        /* \"#utility.yul\":21974:21979   */\n      dup2\n        /* \"#utility.yul\":21971:22006   */\n      eq\n        /* \"#utility.yul\":21961:22024   */\n      tag_490\n      jumpi\n        /* \"#utility.yul\":22020:22021   */\n      0x00\n        /* \"#utility.yul\":22017:22018   */\n      dup1\n        /* \"#utility.yul\":22010:22022   */\n      revert\n        /* \"#utility.yul\":21961:22024   */\n    tag_490:\n        /* \"#utility.yul\":21908:22030   */\n      pop\n      jump\t// out\n        /* \"#utility.yul\":22036:22158   */\n    tag_269:\n        /* \"#utility.yul\":22109:22133   */\n      tag_492\n        /* \"#utility.yul\":22127:22132   */\n      dup2\n        /* \"#utility.yul\":22109:22133   */\n      tag_392\n      jump\t// in\n    tag_492:\n        /* \"#utility.yul\":22102:22107   */\n      dup2\n        /* \"#utility.yul\":22099:22134   */\n      eq\n        /* \"#utility.yul\":22089:22152   */\n      tag_493\n      jumpi\n        /* \"#utility.yul\":22148:22149   */\n      0x00\n        /* \"#utility.yul\":22145:22146   */\n      dup1\n        /* \"#utility.yul\":22138:22150   */\n      revert\n        /* \"#utility.yul\":22089:22152   */\n    tag_493:\n        /* \"#utility.yul\":22036:22158   */\n      pop\n      jump\t// out\n    stop\n    data_2acf605e5cd1b7b0e6ec2502e1f86c81c25a2363f294a2e9f46595fbaefb5b6c 5468657265206973206120746965206f6e2042616c6c6f742e20596f752073686f756c642073746172742061206e65772062616c6c6f742077697468207469652063616e646964617465733a\n\n    auxdata: 0xa2646970667358221220fe3acb811d705f8fd23dce98a438e156205bd325fd50278d2288e11e37d0ffa864736f6c63430008070033\n}\n",
				"bytecode": {
					"linkReferences": {},
					"object": "60806040523480156200001157600080fd5b50604051620022da380380620022da83398181016040528101906200003791906200035b565b336000806101000a81548173ffffffffffffffffffffffffffffffffffffffff021916908373ffffffffffffffffffffffffffffffffffffffff16021790555062000088826200009760201b60201c565b80600481905550505062000649565b60005b8151811015620001435760026040518060400160405280848481518110620000c757620000c6620005a7565b5b602002602001015181526020016000815250908060018154018082558091505060019003906000526020600020906002020160009091909190915060008201518160000190805190602001906200012092919062000147565b5060208201518160010155505080806200013a90620004fb565b9150506200009a565b5050565b82805462000155906200048f565b90600052602060002090601f016020900481019282620001795760008555620001c5565b82601f106200019457805160ff1916838001178555620001c5565b82800160010185558215620001c5579182015b82811115620001c4578251825591602001919060010190620001a7565b5b509050620001d49190620001d8565b5090565b5b80821115620001f3576000816000905550600101620001d9565b5090565b60006200020e6200020884620003ea565b620003c1565b905080838252602082019050828560208602820111156200023457620002336200060a565b5b60005b858110156200028957815167ffffffffffffffff8111156200025e576200025d62000605565b5b8086016200026d898262000311565b8552602085019450602084019350505060018101905062000237565b5050509392505050565b6000620002aa620002a48462000419565b620003c1565b905082815260208101848484011115620002c957620002c86200060f565b5b620002d684828562000459565b509392505050565b600082601f830112620002f657620002f562000605565b5b815162000308848260208601620001f7565b91505092915050565b600082601f83011262000329576200032862000605565b5b81516200033b84826020860162000293565b91505092915050565b60008151905062000355816200062f565b92915050565b6000806040838503121562000375576200037462000619565b5b600083015167ffffffffffffffff81111562000396576200039562000614565b5b620003a485828601620002de565b9250506020620003b78582860162000344565b9150509250929050565b6000620003cd620003e0565b9050620003db8282620004c5565b919050565b6000604051905090565b600067ffffffffffffffff821115620004085762000407620005d6565b5b602082029050602081019050919050565b600067ffffffffffffffff821115620004375762000436620005d6565b5b62000442826200061e565b9050602081019050919050565b6000819050919050565b60005b83811015620004795780820151818401526020810190506200045c565b8381111562000489576000848401525b50505050565b60006002820490506001821680620004a857607f821691505b60208210811415620004bf57620004be62000578565b5b50919050565b620004d0826200061e565b810181811067ffffffffffffffff82111715620004f257620004f1620005d6565b5b80604052505050565b600062000508826200044f565b91507fffffffffffffffffffffffffffffffffffffffffffffffffffffffffffffffff8214156200053e576200053d62000549565b5b600182019050919050565b7f4e487b7100000000000000000000000000000000000000000000000000000000600052601160045260246000fd5b7f4e487b7100000000000000000000000000000000000000000000000000000000600052602260045260246000fd5b7f4e487b7100000000000000000000000000000000000000000000000000000000600052603260045260246000fd5b7f4e487b7100000000000000000000000000000000000000000000000000000000600052604160045260246000fd5b600080fd5b600080fd5b600080fd5b600080fd5b600080fd5b6000601f19601f8301169050919050565b6200063a816200044f565b81146200064657600080fd5b50565b611c8180620006596000396000f3fe608060405234801561001057600080fd5b50600436106100885760003560e01c80637a36b3ee1161005b5780637a36b3ee14610117578063a3ec138d14610147578063f927cc2914610179578063fc36e15b1461019757610088565b8063011d10231461008d5780632bfda515146100ab5780633477ee2e146100ca57806368957b20146100fb575b600080fd5b6100956101b3565b6040516100a29190611578565b60405180910390f35b6100b3610304565b6040516100c19291906115bc565b60405180910390f35b6100e460048036038101906100df9190611282565b61032c565b6040516100f292919061162a565b60405180910390f35b61011560048036038101906101109190611165565b6103e8565b005b610131600480360381019061012c919061120a565b610587565b60405161013e919061159a565b60405180910390f35b610161600480360381019061015c9190611138565b6105b3565b604051610170939291906115ec565b60405180910390f35b61018161067f565b60405161018e919061171a565b60405180910390f35b6101b160048036038101906101ac91906111c1565b610b44565b005b60606000600280549050905060008167ffffffffffffffff8111156101db576101da6119c6565b5b60405190808252806020026020018201604052801561020e57816020015b60608152602001906001900390816101f95790505b50905060005b828110156102fb57600281815481106102305761022f611997565b5b9060005260206000209060020201600001805461024c9061188d565b80601f01602080910402602001604051908101604052809291908181526020018280546102789061188d565b80156102c55780601f1061029a576101008083540402835291602001916102c5565b820191906000526020600020905b8154815290600101906020018083116102a857829003601f168201915b50505050508282815181106102dd576102dc611997565b5b602002602001018190525080806102f3906118f0565b915050610214565b50809250505090565b606060008061031161067f565b90508060000151925082610323610d90565b92509250509091565b6002818154811061033c57600080fd5b906000526020600020906002020160009150905080600001805461035f9061188d565b80601f016020809104026020016040519081016040528092919081815260200182805461038b9061188d565b80156103d85780601f106103ad576101008083540402835291602001916103d8565b820191906000526020600020905b8154815290600101906020018083116103bb57829003601f168201915b5050505050908060010154905082565b816103f1610d98565b6103f9610de0565b610438576040517f08c379a000000000000000000000000000000000000000000000000000000000815260040161042f906116ba565b60405180910390fd5b600160008273ffffffffffffffffffffffffffffffffffffffff1673ffffffffffffffffffffffffffffffffffffffff16815260200190815260200160002060010160009054906101000a900460ff16156104c8576040517f08c379a00000000000000000000000000000000000000000000000000000000081526004016104bf9061165a565b60405180910390fd5b6104d181610e37565b81600160008573ffffffffffffffffffffffffffffffffffffffff1673ffffffffffffffffffffffffffffffffffffffff1681526020019081526020016000206000019080519060200190610527929190610fe1565b5060018060008573ffffffffffffffffffffffffffffffffffffffff1673ffffffffffffffffffffffffffffffffffffffff16815260200190815260200160002060010160006101000a81548160ff021916908315150217905550505050565b6060828260405160200161059c929190611549565b604051602081830303815290604052905092915050565b60016020528060005260406000206000915090508060000180546105d69061188d565b80601f01602080910402602001604051908101604052809291908181526020018280546106029061188d565b801561064f5780601f106106245761010080835404028352916020019161064f565b820191906000526020600020905b81548152906001019060200180831161063257829003601f168201915b5050505050908060010160009054906101000a900460ff16908060010160019054906101000a900460ff16905083565b610687611067565b6000806000600280549050905060008167ffffffffffffffff8111156106b0576106af6119c6565b5b6040519080825280602002602001820160405280156106e357816020015b60608152602001906001900390816106ce5790505b50905060008060019050606060005b858110156109b057876002828154811061070f5761070e611997565b5b9060005260206000209060020201600101541115610890576002818154811061073b5761073a611997565b5b9060005260206000209060020201600101549750809650821561088b5760009250600093508567ffffffffffffffff81111561077a576107796119c6565b5b6040519080825280602002602001820160405280156107ad57816020015b60608152602001906001900390816107985790505b509450600281815481106107c4576107c3611997565b5b906000526020600020906002020160000180546107e09061188d565b80601f016020809104026020016040519081016040528092919081815260200182805461080c9061188d565b80156108595780601f1061082e57610100808354040283529160200191610859565b820191906000526020600020905b81548152906001019060200180831161083c57829003601f168201915b505050505085858151811061087157610870611997565b5b60200260200101819052508380610887906118f0565b9450505b61099d565b87600282815481106108a5576108a4611997565b5b906000526020600020906002020160010154141561099c5760019250600281815481106108d5576108d4611997565b5b906000526020600020906002020160000180546108f19061188d565b80601f016020809104026020016040519081016040528092919081815260200182805461091d9061188d565b801561096a5780601f1061093f5761010080835404028352916020019161096a565b820191906000526020600020905b81548152906001019060200180831161094d57829003601f168201915b505050505085858151811061098257610981611997565b5b60200260200101819052508380610998906118f0565b9450505b5b80806109a8906118f0565b9150506106f2565b508115610a6e5760005b84518110156109fc576109e7828683815181106109da576109d9611997565b5b6020026020010151610587565b915080806109f4906118f0565b9150506109ba565b506000610a216040518060800160405280604c8152602001611c00604c913983610587565b905060008190610a67576040517f08c379a0000000000000000000000000000000000000000000000000000000008152600401610a5e919061159a565b60405180910390fd5b5050610b3a565b60028681548110610a8257610a81611997565b5b9060005260206000209060020201604051806040016040529081600082018054610aab9061188d565b80601f0160208091040260200160405190810160405280929190818152602001828054610ad79061188d565b8015610b245780601f10610af957610100808354040283529160200191610b24565b820191906000526020600020905b815481529060010190602001808311610b0757829003601f168201915b5050505050815260200160018201548152505097505b5050505050505090565b33610b4d610d98565b610b55610e83565b610b94576040517f08c379a0000000000000000000000000000000000000000000000000000000008152600401610b8b906116fa565b60405180910390fd5b610b9d81610e37565b600160003373ffffffffffffffffffffffffffffffffffffffff1673ffffffffffffffffffffffffffffffffffffffff16815260200190815260200160002060010160019054906101000a900460ff166000600160003373ffffffffffffffffffffffffffffffffffffffff1673ffffffffffffffffffffffffffffffffffffffff168152602001908152602001600020905060005b600280549050811015610d8057610cf760028281548110610c5757610c56611997565b5b90600052602060002090600202016000018054610c739061188d565b80601f0160208091040260200160405190810160405280929190818152602001828054610c9f9061188d565b8015610cec5780601f10610cc157610100808354040283529160200191610cec565b820191906000526020600020905b815481529060010190602001808311610ccf57829003601f168201915b505050505086610e93565b15610d6d5760028181548110610d1057610d0f611997565b5b90600052602060002090600202016001016000815480929190610d32906118f0565b919050555060018260010160016101000a81548160ff02191690831515021790555060036000815480929190610d67906118f0565b91905055505b8080610d78906118f0565b915050610c33565b5050610d8b81610eec565b505050565b600030905090565b60045460035410610dde576040517f08c379a0000000000000000000000000000000000000000000000000000000008152600401610dd59061169a565b60405180910390fd5b565b60008060009054906101000a900473ffffffffffffffffffffffffffffffffffffffff1673ffffffffffffffffffffffffffffffffffffffff163373ffffffffffffffffffffffffffffffffffffffff1614905090565b610e4081610f2f565b15610e80576040517f08c379a0000000000000000000000000000000000000000000000000000000008152600401610e77906116da565b60405180910390fd5b50565b6000610e8e33610f88565b905090565b600081604051602001610ea6919061159a565b6040516020818303038152906040528051906020012083604051602001610ecd919061159a565b6040516020818303038152906040528051906020012014905092915050565b80610f2c576040517f08c379a0000000000000000000000000000000000000000000000000000000008152600401610f239061167a565b60405180910390fd5b50565b6000600160008373ffffffffffffffffffffffffffffffffffffffff1673ffffffffffffffffffffffffffffffffffffffff16815260200190815260200160002060010160019054906101000a900460ff169050919050565b6000600160008373ffffffffffffffffffffffffffffffffffffffff1673ffffffffffffffffffffffffffffffffffffffff16815260200190815260200160002060010160009054906101000a900460ff169050919050565b828054610fed9061188d565b90600052602060002090601f01602090048101928261100f5760008555611056565b82601f1061102857805160ff1916838001178555611056565b82800160010185558215611056579182015b8281111561105557825182559160200191906001019061103a565b5b5090506110639190611081565b5090565b604051806040016040528060608152602001600081525090565b5b8082111561109a576000816000905550600101611082565b5090565b60006110b16110ac84611761565b61173c565b9050828152602081018484840111156110cd576110cc6119fa565b5b6110d884828561184b565b509392505050565b6000813590506110ef81611bd1565b92915050565b600082601f83011261110a576111096119f5565b5b813561111a84826020860161109e565b91505092915050565b60008135905061113281611be8565b92915050565b60006020828403121561114e5761114d611a04565b5b600061115c848285016110e0565b91505092915050565b6000806040838503121561117c5761117b611a04565b5b600061118a858286016110e0565b925050602083013567ffffffffffffffff8111156111ab576111aa6119ff565b5b6111b7858286016110f5565b9150509250929050565b6000602082840312156111d7576111d6611a04565b5b600082013567ffffffffffffffff8111156111f5576111f46119ff565b5b611201848285016110f5565b91505092915050565b6000806040838503121561122157611220611a04565b5b600083013567ffffffffffffffff81111561123f5761123e6119ff565b5b61124b858286016110f5565b925050602083013567ffffffffffffffff81111561126c5761126b6119ff565b5b611278858286016110f5565b9150509250929050565b60006020828403121561129857611297611a04565b5b60006112a684828501611123565b91505092915050565b60006112bb8383611356565b905092915050565b6112cc81611803565b82525050565b60006112dd826117a2565b6112e781856117c5565b9350836020820285016112f985611792565b8060005b85811015611335578484038952815161131685826112af565b9450611321836117b8565b925060208a019950506001810190506112fd565b50829750879550505050505092915050565b61135081611815565b82525050565b6000611361826117ad565b61136b81856117d6565b935061137b81856020860161185a565b61138481611a09565b840191505092915050565b600061139a826117ad565b6113a481856117e7565b93506113b481856020860161185a565b6113bd81611a09565b840191505092915050565b60006113d3826117ad565b6113dd81856117f8565b93506113ed81856020860161185a565b80840191505092915050565b60006114066025836117e7565b915061141182611a1a565b604082019050919050565b60006114296021836117e7565b915061143482611a69565b604082019050919050565b600061144c602f836117e7565b915061145782611ab8565b604082019050919050565b600061146f602f836117e7565b915061147a82611b07565b604082019050919050565b60006114926001836117f8565b915061149d82611b56565b600182019050919050565b60006114b56014836117e7565b91506114c082611b7f565b602082019050919050565b60006114d8601a836117e7565b91506114e382611ba8565b602082019050919050565b6000604083016000830151848203600086015261150b8282611356565b9150506020830151611520602086018261152b565b508091505092915050565b61153481611841565b82525050565b61154381611841565b82525050565b600061155582856113c8565b915061156082611485565b915061156c82846113c8565b91508190509392505050565b6000602082019050818103600083015261159281846112d2565b905092915050565b600060208201905081810360008301526115b4818461138f565b905092915050565b600060408201905081810360008301526115d6818561138f565b90506115e560208301846112c3565b9392505050565b60006060820190508181036000830152611606818661138f565b90506116156020830185611347565b6116226040830184611347565b949350505050565b60006040820190508181036000830152611644818561138f565b9050611653602083018461153a565b9392505050565b60006020820190508181036000830152611673816113f9565b9050919050565b600060208201905081810360008301526116938161141c565b9050919050565b600060208201905081810360008301526116b38161143f565b9050919050565b600060208201905081810360008301526116d381611462565b9050919050565b600060208201905081810360008301526116f3816114a8565b9050919050565b60006020820190508181036000830152611713816114cb565b9050919050565b6000602082019050818103600083015261173481846114ee565b905092915050565b6000611746611757565b905061175282826118bf565b919050565b6000604051905090565b600067ffffffffffffffff82111561177c5761177b6119c6565b5b61178582611a09565b9050602081019050919050565b6000819050602082019050919050565b600081519050919050565b600081519050919050565b6000602082019050919050565b600082825260208201905092915050565b600082825260208201905092915050565b600082825260208201905092915050565b600081905092915050565b600061180e82611821565b9050919050565b60008115159050919050565b600073ffffffffffffffffffffffffffffffffffffffff82169050919050565b6000819050919050565b82818337600083830152505050565b60005b8381101561187857808201518184015260208101905061185d565b83811115611887576000848401525b50505050565b600060028204905060018216806118a557607f821691505b602082108114156118b9576118b8611968565b5b50919050565b6118c882611a09565b810181811067ffffffffffffffff821117156118e7576118e66119c6565b5b80604052505050565b60006118fb82611841565b91507fffffffffffffffffffffffffffffffffffffffffffffffffffffffffffffffff82141561192e5761192d611939565b5b600182019050919050565b7f4e487b7100000000000000000000000000000000000000000000000000000000600052601160045260246000fd5b7f4e487b7100000000000000000000000000000000000000000000000000000000600052602260045260246000fd5b7f4e487b7100000000000000000000000000000000000000000000000000000000600052603260045260246000fd5b7f4e487b7100000000000000000000000000000000000000000000000000000000600052604160045260246000fd5b600080fd5b600080fd5b600080fd5b600080fd5b6000601f19601f8301169050919050565b7f566f746572206861766520616c72656164792068617320726967687420746f2060008201527f766f74652e000000000000000000000000000000000000000000000000000000602082015250565b7f43616e64696461746520796f752073656e7420646f6573206e6f74206578697360008201527f7400000000000000000000000000000000000000000000000000000000000000602082015250565b7f4d6178206163636f756e7420766f74657320697320726561636865642e20426160008201527f6c6c6f7420697320434c4f5345442e0000000000000000000000000000000000602082015250565b7f4f6e6c792074686520636f6e7472616374206f776e65722063616e206769766560008201527f20726967687420746f20766f74652e0000000000000000000000000000000000602082015250565b7f2000000000000000000000000000000000000000000000000000000000000000600082015250565b7f566f74657220616c726561647920766f7465642e000000000000000000000000600082015250565b7f596f752068617665206e6f7420726967687420746f20766f7465000000000000600082015250565b611bda81611803565b8114611be557600080fd5b50565b611bf181611841565b8114611bfc57600080fd5b5056fe5468657265206973206120746965206f6e2042616c6c6f742e20596f752073686f756c642073746172742061206e65772062616c6c6f742077697468207469652063616e646964617465733aa2646970667358221220fe3acb811d705f8fd23dce98a438e156205bd325fd50278d2288e11e37d0ffa864736f6c63430008070033",
					"opcodes": "PUSH1 0x80 PUSH1 0x40 MSTORE CALLVALUE DUP1 ISZERO PUSH3 0x11 JUMPI PUSH1 0x0 DUP1 REVERT JUMPDEST POP PUSH1 0x40 MLOAD PUSH3 0x22DA CODESIZE SUB DUP1 PUSH3 0x22DA DUP4 CODECOPY DUP2 DUP2 ADD PUSH1 0x40 MSTORE DUP2 ADD SWAP1 PUSH3 0x37 SWAP2 SWAP1 PUSH3 0x35B JUMP JUMPDEST CALLER PUSH1 0x0 DUP1 PUSH2 0x100 EXP DUP2 SLOAD DUP2 PUSH20 0xFFFFFFFFFFFFFFFFFFFFFFFFFFFFFFFFFFFFFFFF MUL NOT AND SWAP1 DUP4 PUSH20 0xFFFFFFFFFFFFFFFFFFFFFFFFFFFFFFFFFFFFFFFF AND MUL OR SWAP1 SSTORE POP PUSH3 0x88 DUP3 PUSH3 0x97 PUSH1 0x20 SHL PUSH1 0x20 SHR JUMP JUMPDEST DUP1 PUSH1 0x4 DUP2 SWAP1 SSTORE POP POP POP PUSH3 0x649 JUMP JUMPDEST PUSH1 0x0 JUMPDEST DUP2 MLOAD DUP2 LT ISZERO PUSH3 0x143 JUMPI PUSH1 0x2 PUSH1 0x40 MLOAD DUP1 PUSH1 0x40 ADD PUSH1 0x40 MSTORE DUP1 DUP5 DUP5 DUP2 MLOAD DUP2 LT PUSH3 0xC7 JUMPI PUSH3 0xC6 PUSH3 0x5A7 JUMP JUMPDEST JUMPDEST PUSH1 0x20 MUL PUSH1 0x20 ADD ADD MLOAD DUP2 MSTORE PUSH1 0x20 ADD PUSH1 0x0 DUP2 MSTORE POP SWAP1 DUP1 PUSH1 0x1 DUP2 SLOAD ADD DUP1 DUP3 SSTORE DUP1 SWAP2 POP POP PUSH1 0x1 SWAP1 SUB SWAP1 PUSH1 0x0 MSTORE PUSH1 0x20 PUSH1 0x0 KECCAK256 SWAP1 PUSH1 0x2 MUL ADD PUSH1 0x0 SWAP1 SWAP2 SWAP1 SWAP2 SWAP1 SWAP2 POP PUSH1 0x0 DUP3 ADD MLOAD DUP2 PUSH1 0x0 ADD SWAP1 DUP1 MLOAD SWAP1 PUSH1 0x20 ADD SWAP1 PUSH3 0x120 SWAP3 SWAP2 SWAP1 PUSH3 0x147 JUMP JUMPDEST POP PUSH1 0x20 DUP3 ADD MLOAD DUP2 PUSH1 0x1 ADD SSTORE POP POP DUP1 DUP1 PUSH3 0x13A SWAP1 PUSH3 0x4FB JUMP JUMPDEST SWAP2 POP POP PUSH3 0x9A JUMP JUMPDEST POP POP JUMP JUMPDEST DUP3 DUP1 SLOAD PUSH3 0x155 SWAP1 PUSH3 0x48F JUMP JUMPDEST SWAP1 PUSH1 0x0 MSTORE PUSH1 0x20 PUSH1 0x0 KECCAK256 SWAP1 PUSH1 0x1F ADD PUSH1 0x20 SWAP1 DIV DUP2 ADD SWAP3 DUP3 PUSH3 0x179 JUMPI PUSH1 0x0 DUP6 SSTORE PUSH3 0x1C5 JUMP JUMPDEST DUP3 PUSH1 0x1F LT PUSH3 0x194 JUMPI DUP1 MLOAD PUSH1 0xFF NOT AND DUP4 DUP1 ADD OR DUP6 SSTORE PUSH3 0x1C5 JUMP JUMPDEST DUP3 DUP1 ADD PUSH1 0x1 ADD DUP6 SSTORE DUP3 ISZERO PUSH3 0x1C5 JUMPI SWAP2 DUP3 ADD JUMPDEST DUP3 DUP2 GT ISZERO PUSH3 0x1C4 JUMPI DUP3 MLOAD DUP3 SSTORE SWAP2 PUSH1 0x20 ADD SWAP2 SWAP1 PUSH1 0x1 ADD SWAP1 PUSH3 0x1A7 JUMP JUMPDEST JUMPDEST POP SWAP1 POP PUSH3 0x1D4 SWAP2 SWAP1 PUSH3 0x1D8 JUMP JUMPDEST POP SWAP1 JUMP JUMPDEST JUMPDEST DUP1 DUP3 GT ISZERO PUSH3 0x1F3 JUMPI PUSH1 0x0 DUP2 PUSH1 0x0 SWAP1 SSTORE POP PUSH1 0x1 ADD PUSH3 0x1D9 JUMP JUMPDEST POP SWAP1 JUMP JUMPDEST PUSH1 0x0 PUSH3 0x20E PUSH3 0x208 DUP5 PUSH3 0x3EA JUMP JUMPDEST PUSH3 0x3C1 JUMP JUMPDEST SWAP1 POP DUP1 DUP4 DUP3 MSTORE PUSH1 0x20 DUP3 ADD SWAP1 POP DUP3 DUP6 PUSH1 0x20 DUP7 MUL DUP3 ADD GT ISZERO PUSH3 0x234 JUMPI PUSH3 0x233 PUSH3 0x60A JUMP JUMPDEST JUMPDEST PUSH1 0x0 JUMPDEST DUP6 DUP2 LT ISZERO PUSH3 0x289 JUMPI DUP2 MLOAD PUSH8 0xFFFFFFFFFFFFFFFF DUP2 GT ISZERO PUSH3 0x25E JUMPI PUSH3 0x25D PUSH3 0x605 JUMP JUMPDEST JUMPDEST DUP1 DUP7 ADD PUSH3 0x26D DUP10 DUP3 PUSH3 0x311 JUMP JUMPDEST DUP6 MSTORE PUSH1 0x20 DUP6 ADD SWAP5 POP PUSH1 0x20 DUP5 ADD SWAP4 POP POP POP PUSH1 0x1 DUP2 ADD SWAP1 POP PUSH3 0x237 JUMP JUMPDEST POP POP POP SWAP4 SWAP3 POP POP POP JUMP JUMPDEST PUSH1 0x0 PUSH3 0x2AA PUSH3 0x2A4 DUP5 PUSH3 0x419 JUMP JUMPDEST PUSH3 0x3C1 JUMP JUMPDEST SWAP1 POP DUP3 DUP2 MSTORE PUSH1 0x20 DUP2 ADD DUP5 DUP5 DUP5 ADD GT ISZERO PUSH3 0x2C9 JUMPI PUSH3 0x2C8 PUSH3 0x60F JUMP JUMPDEST JUMPDEST PUSH3 0x2D6 DUP5 DUP3 DUP6 PUSH3 0x459 JUMP JUMPDEST POP SWAP4 SWAP3 POP POP POP JUMP JUMPDEST PUSH1 0x0 DUP3 PUSH1 0x1F DUP4 ADD SLT PUSH3 0x2F6 JUMPI PUSH3 0x2F5 PUSH3 0x605 JUMP JUMPDEST JUMPDEST DUP2 MLOAD PUSH3 0x308 DUP5 DUP3 PUSH1 0x20 DUP7 ADD PUSH3 0x1F7 JUMP JUMPDEST SWAP2 POP POP SWAP3 SWAP2 POP POP JUMP JUMPDEST PUSH1 0x0 DUP3 PUSH1 0x1F DUP4 ADD SLT PUSH3 0x329 JUMPI PUSH3 0x328 PUSH3 0x605 JUMP JUMPDEST JUMPDEST DUP2 MLOAD PUSH3 0x33B DUP5 DUP3 PUSH1 0x20 DUP7 ADD PUSH3 0x293 JUMP JUMPDEST SWAP2 POP POP SWAP3 SWAP2 POP POP JUMP JUMPDEST PUSH1 0x0 DUP2 MLOAD SWAP1 POP PUSH3 0x355 DUP2 PUSH3 0x62F JUMP JUMPDEST SWAP3 SWAP2 POP POP JUMP JUMPDEST PUSH1 0x0 DUP1 PUSH1 0x40 DUP4 DUP6 SUB SLT ISZERO PUSH3 0x375 JUMPI PUSH3 0x374 PUSH3 0x619 JUMP JUMPDEST JUMPDEST PUSH1 0x0 DUP4 ADD MLOAD PUSH8 0xFFFFFFFFFFFFFFFF DUP2 GT ISZERO PUSH3 0x396 JUMPI PUSH3 0x395 PUSH3 0x614 JUMP JUMPDEST JUMPDEST PUSH3 0x3A4 DUP6 DUP3 DUP7 ADD PUSH3 0x2DE JUMP JUMPDEST SWAP3 POP POP PUSH1 0x20 PUSH3 0x3B7 DUP6 DUP3 DUP7 ADD PUSH3 0x344 JUMP JUMPDEST SWAP2 POP POP SWAP3 POP SWAP3 SWAP1 POP JUMP JUMPDEST PUSH1 0x0 PUSH3 0x3CD PUSH3 0x3E0 JUMP JUMPDEST SWAP1 POP PUSH3 0x3DB DUP3 DUP3 PUSH3 0x4C5 JUMP JUMPDEST SWAP2 SWAP1 POP JUMP JUMPDEST PUSH1 0x0 PUSH1 0x40 MLOAD SWAP1 POP SWAP1 JUMP JUMPDEST PUSH1 0x0 PUSH8 0xFFFFFFFFFFFFFFFF DUP3 GT ISZERO PUSH3 0x408 JUMPI PUSH3 0x407 PUSH3 0x5D6 JUMP JUMPDEST JUMPDEST PUSH1 0x20 DUP3 MUL SWAP1 POP PUSH1 0x20 DUP2 ADD SWAP1 POP SWAP2 SWAP1 POP JUMP JUMPDEST PUSH1 0x0 PUSH8 0xFFFFFFFFFFFFFFFF DUP3 GT ISZERO PUSH3 0x437 JUMPI PUSH3 0x436 PUSH3 0x5D6 JUMP JUMPDEST JUMPDEST PUSH3 0x442 DUP3 PUSH3 0x61E JUMP JUMPDEST SWAP1 POP PUSH1 0x20 DUP2 ADD SWAP1 POP SWAP2 SWAP1 POP JUMP JUMPDEST PUSH1 0x0 DUP2 SWAP1 POP SWAP2 SWAP1 POP JUMP JUMPDEST PUSH1 0x0 JUMPDEST DUP4 DUP2 LT ISZERO PUSH3 0x479 JUMPI DUP1 DUP3 ADD MLOAD DUP2 DUP5 ADD MSTORE PUSH1 0x20 DUP2 ADD SWAP1 POP PUSH3 0x45C JUMP JUMPDEST DUP4 DUP2 GT ISZERO PUSH3 0x489 JUMPI PUSH1 0x0 DUP5 DUP5 ADD MSTORE JUMPDEST POP POP POP POP JUMP JUMPDEST PUSH1 0x0 PUSH1 0x2 DUP3 DIV SWAP1 POP PUSH1 0x1 DUP3 AND DUP1 PUSH3 0x4A8 JUMPI PUSH1 0x7F DUP3 AND SWAP2 POP JUMPDEST PUSH1 0x20 DUP3 LT DUP2 EQ ISZERO PUSH3 0x4BF JUMPI PUSH3 0x4BE PUSH3 0x578 JUMP JUMPDEST JUMPDEST POP SWAP2 SWAP1 POP JUMP JUMPDEST PUSH3 0x4D0 DUP3 PUSH3 0x61E JUMP JUMPDEST DUP2 ADD DUP2 DUP2 LT PUSH8 0xFFFFFFFFFFFFFFFF DUP3 GT OR ISZERO PUSH3 0x4F2 JUMPI PUSH3 0x4F1 PUSH3 0x5D6 JUMP JUMPDEST JUMPDEST DUP1 PUSH1 0x40 MSTORE POP POP POP JUMP JUMPDEST PUSH1 0x0 PUSH3 0x508 DUP3 PUSH3 0x44F JUMP JUMPDEST SWAP2 POP PUSH32 0xFFFFFFFFFFFFFFFFFFFFFFFFFFFFFFFFFFFFFFFFFFFFFFFFFFFFFFFFFFFFFFFF DUP3 EQ ISZERO PUSH3 0x53E JUMPI PUSH3 0x53D PUSH3 0x549 JUMP JUMPDEST JUMPDEST PUSH1 0x1 DUP3 ADD SWAP1 POP SWAP2 SWAP1 POP JUMP JUMPDEST PUSH32 0x4E487B7100000000000000000000000000000000000000000000000000000000 PUSH1 0x0 MSTORE PUSH1 0x11 PUSH1 0x4 MSTORE PUSH1 0x24 PUSH1 0x0 REVERT JUMPDEST PUSH32 0x4E487B7100000000000000000000000000000000000000000000000000000000 PUSH1 0x0 MSTORE PUSH1 0x22 PUSH1 0x4 MSTORE PUSH1 0x24 PUSH1 0x0 REVERT JUMPDEST PUSH32 0x4E487B7100000000000000000000000000000000000000000000000000000000 PUSH1 0x0 MSTORE PUSH1 0x32 PUSH1 0x4 MSTORE PUSH1 0x24 PUSH1 0x0 REVERT JUMPDEST PUSH32 0x4E487B7100000000000000000000000000000000000000000000000000000000 PUSH1 0x0 MSTORE PUSH1 0x41 PUSH1 0x4 MSTORE PUSH1 0x24 PUSH1 0x0 REVERT JUMPDEST PUSH1 0x0 DUP1 REVERT JUMPDEST PUSH1 0x0 DUP1 REVERT JUMPDEST PUSH1 0x0 DUP1 REVERT JUMPDEST PUSH1 0x0 DUP1 REVERT JUMPDEST PUSH1 0x0 DUP1 REVERT JUMPDEST PUSH1 0x0 PUSH1 0x1F NOT PUSH1 0x1F DUP4 ADD AND SWAP1 POP SWAP2 SWAP1 POP JUMP JUMPDEST PUSH3 0x63A DUP2 PUSH3 0x44F JUMP JUMPDEST DUP2 EQ PUSH3 0x646 JUMPI PUSH1 0x0 DUP1 REVERT JUMPDEST POP JUMP JUMPDEST PUSH2 0x1C81 DUP1 PUSH3 0x659 PUSH1 0x0 CODECOPY PUSH1 0x0 RETURN INVALID PUSH1 0x80 PUSH1 0x40 MSTORE CALLVALUE DUP1 ISZERO PUSH2 0x10 JUMPI PUSH1 0x0 DUP1 REVERT JUMPDEST POP PUSH1 0x4 CALLDATASIZE LT PUSH2 0x88 JUMPI PUSH1 0x0 CALLDATALOAD PUSH1 0xE0 SHR DUP1 PUSH4 0x7A36B3EE GT PUSH2 0x5B JUMPI DUP1 PUSH4 0x7A36B3EE EQ PUSH2 0x117 JUMPI DUP1 PUSH4 0xA3EC138D EQ PUSH2 0x147 JUMPI DUP1 PUSH4 0xF927CC29 EQ PUSH2 0x179 JUMPI DUP1 PUSH4 0xFC36E15B EQ PUSH2 0x197 JUMPI PUSH2 0x88 JUMP JUMPDEST DUP1 PUSH4 0x11D1023 EQ PUSH2 0x8D JUMPI DUP1 PUSH4 0x2BFDA515 EQ PUSH2 0xAB JUMPI DUP1 PUSH4 0x3477EE2E EQ PUSH2 0xCA JUMPI DUP1 PUSH4 0x68957B20 EQ PUSH2 0xFB JUMPI JUMPDEST PUSH1 0x0 DUP1 REVERT JUMPDEST PUSH2 0x95 PUSH2 0x1B3 JUMP JUMPDEST PUSH1 0x40 MLOAD PUSH2 0xA2 SWAP2 SWAP1 PUSH2 0x1578 JUMP JUMPDEST PUSH1 0x40 MLOAD DUP1 SWAP2 SUB SWAP1 RETURN JUMPDEST PUSH2 0xB3 PUSH2 0x304 JUMP JUMPDEST PUSH1 0x40 MLOAD PUSH2 0xC1 SWAP3 SWAP2 SWAP1 PUSH2 0x15BC JUMP JUMPDEST PUSH1 0x40 MLOAD DUP1 SWAP2 SUB SWAP1 RETURN JUMPDEST PUSH2 0xE4 PUSH1 0x4 DUP1 CALLDATASIZE SUB DUP2 ADD SWAP1 PUSH2 0xDF SWAP2 SWAP1 PUSH2 0x1282 JUMP JUMPDEST PUSH2 0x32C JUMP JUMPDEST PUSH1 0x40 MLOAD PUSH2 0xF2 SWAP3 SWAP2 SWAP1 PUSH2 0x162A JUMP JUMPDEST PUSH1 0x40 MLOAD DUP1 SWAP2 SUB SWAP1 RETURN JUMPDEST PUSH2 0x115 PUSH1 0x4 DUP1 CALLDATASIZE SUB DUP2 ADD SWAP1 PUSH2 0x110 SWAP2 SWAP1 PUSH2 0x1165 JUMP JUMPDEST PUSH2 0x3E8 JUMP JUMPDEST STOP JUMPDEST PUSH2 0x131 PUSH1 0x4 DUP1 CALLDATASIZE SUB DUP2 ADD SWAP1 PUSH2 0x12C SWAP2 SWAP1 PUSH2 0x120A JUMP JUMPDEST PUSH2 0x587 JUMP JUMPDEST PUSH1 0x40 MLOAD PUSH2 0x13E SWAP2 SWAP1 PUSH2 0x159A JUMP JUMPDEST PUSH1 0x40 MLOAD DUP1 SWAP2 SUB SWAP1 RETURN JUMPDEST PUSH2 0x161 PUSH1 0x4 DUP1 CALLDATASIZE SUB DUP2 ADD SWAP1 PUSH2 0x15C SWAP2 SWAP1 PUSH2 0x1138 JUMP JUMPDEST PUSH2 0x5B3 JUMP JUMPDEST PUSH1 0x40 MLOAD PUSH2 0x170 SWAP4 SWAP3 SWAP2 SWAP1 PUSH2 0x15EC JUMP JUMPDEST PUSH1 0x40 MLOAD DUP1 SWAP2 SUB SWAP1 RETURN JUMPDEST PUSH2 0x181 PUSH2 0x67F JUMP JUMPDEST PUSH1 0x40 MLOAD PUSH2 0x18E SWAP2 SWAP1 PUSH2 0x171A JUMP JUMPDEST PUSH1 0x40 MLOAD DUP1 SWAP2 SUB SWAP1 RETURN JUMPDEST PUSH2 0x1B1 PUSH1 0x4 DUP1 CALLDATASIZE SUB DUP2 ADD SWAP1 PUSH2 0x1AC SWAP2 SWAP1 PUSH2 0x11C1 JUMP JUMPDEST PUSH2 0xB44 JUMP JUMPDEST STOP JUMPDEST PUSH1 0x60 PUSH1 0x0 PUSH1 0x2 DUP1 SLOAD SWAP1 POP SWAP1 POP PUSH1 0x0 DUP2 PUSH8 0xFFFFFFFFFFFFFFFF DUP2 GT ISZERO PUSH2 0x1DB JUMPI PUSH2 0x1DA PUSH2 0x19C6 JUMP JUMPDEST JUMPDEST PUSH1 0x40 MLOAD SWAP1 DUP1 DUP3 MSTORE DUP1 PUSH1 0x20 MUL PUSH1 0x20 ADD DUP3 ADD PUSH1 0x40 MSTORE DUP1 ISZERO PUSH2 0x20E JUMPI DUP2 PUSH1 0x20 ADD JUMPDEST PUSH1 0x60 DUP2 MSTORE PUSH1 0x20 ADD SWAP1 PUSH1 0x1 SWAP1 SUB SWAP1 DUP2 PUSH2 0x1F9 JUMPI SWAP1 POP JUMPDEST POP SWAP1 POP PUSH1 0x0 JUMPDEST DUP3 DUP2 LT ISZERO PUSH2 0x2FB JUMPI PUSH1 0x2 DUP2 DUP2 SLOAD DUP2 LT PUSH2 0x230 JUMPI PUSH2 0x22F PUSH2 0x1997 JUMP JUMPDEST JUMPDEST SWAP1 PUSH1 0x0 MSTORE PUSH1 0x20 PUSH1 0x0 KECCAK256 SWAP1 PUSH1 0x2 MUL ADD PUSH1 0x0 ADD DUP1 SLOAD PUSH2 0x24C SWAP1 PUSH2 0x188D JUMP JUMPDEST DUP1 PUSH1 0x1F ADD PUSH1 0x20 DUP1 SWAP2 DIV MUL PUSH1 0x20 ADD PUSH1 0x40 MLOAD SWAP1 DUP2 ADD PUSH1 0x40 MSTORE DUP1 SWAP3 SWAP2 SWAP1 DUP2 DUP2 MSTORE PUSH1 0x20 ADD DUP3 DUP1 SLOAD PUSH2 0x278 SWAP1 PUSH2 0x188D JUMP JUMPDEST DUP1 ISZERO PUSH2 0x2C5 JUMPI DUP1 PUSH1 0x1F LT PUSH2 0x29A JUMPI PUSH2 0x100 DUP1 DUP4 SLOAD DIV MUL DUP4 MSTORE SWAP2 PUSH1 0x20 ADD SWAP2 PUSH2 0x2C5 JUMP JUMPDEST DUP3 ADD SWAP2 SWAP1 PUSH1 0x0 MSTORE PUSH1 0x20 PUSH1 0x0 KECCAK256 SWAP1 JUMPDEST DUP2 SLOAD DUP2 MSTORE SWAP1 PUSH1 0x1 ADD SWAP1 PUSH1 0x20 ADD DUP1 DUP4 GT PUSH2 0x2A8 JUMPI DUP3 SWAP1 SUB PUSH1 0x1F AND DUP3 ADD SWAP2 JUMPDEST POP POP POP POP POP DUP3 DUP3 DUP2 MLOAD DUP2 LT PUSH2 0x2DD JUMPI PUSH2 0x2DC PUSH2 0x1997 JUMP JUMPDEST JUMPDEST PUSH1 0x20 MUL PUSH1 0x20 ADD ADD DUP2 SWAP1 MSTORE POP DUP1 DUP1 PUSH2 0x2F3 SWAP1 PUSH2 0x18F0 JUMP JUMPDEST SWAP2 POP POP PUSH2 0x214 JUMP JUMPDEST POP DUP1 SWAP3 POP POP POP SWAP1 JUMP JUMPDEST PUSH1 0x60 PUSH1 0x0 DUP1 PUSH2 0x311 PUSH2 0x67F JUMP JUMPDEST SWAP1 POP DUP1 PUSH1 0x0 ADD MLOAD SWAP3 POP DUP3 PUSH2 0x323 PUSH2 0xD90 JUMP JUMPDEST SWAP3 POP SWAP3 POP POP SWAP1 SWAP2 JUMP JUMPDEST PUSH1 0x2 DUP2 DUP2 SLOAD DUP2 LT PUSH2 0x33C JUMPI PUSH1 0x0 DUP1 REVERT JUMPDEST SWAP1 PUSH1 0x0 MSTORE PUSH1 0x20 PUSH1 0x0 KECCAK256 SWAP1 PUSH1 0x2 MUL ADD PUSH1 0x0 SWAP2 POP SWAP1 POP DUP1 PUSH1 0x0 ADD DUP1 SLOAD PUSH2 0x35F SWAP1 PUSH2 0x188D JUMP JUMPDEST DUP1 PUSH1 0x1F ADD PUSH1 0x20 DUP1 SWAP2 DIV MUL PUSH1 0x20 ADD PUSH1 0x40 MLOAD SWAP1 DUP2 ADD PUSH1 0x40 MSTORE DUP1 SWAP3 SWAP2 SWAP1 DUP2 DUP2 MSTORE PUSH1 0x20 ADD DUP3 DUP1 SLOAD PUSH2 0x38B SWAP1 PUSH2 0x188D JUMP JUMPDEST DUP1 ISZERO PUSH2 0x3D8 JUMPI DUP1 PUSH1 0x1F LT PUSH2 0x3AD JUMPI PUSH2 0x100 DUP1 DUP4 SLOAD DIV MUL DUP4 MSTORE SWAP2 PUSH1 0x20 ADD SWAP2 PUSH2 0x3D8 JUMP JUMPDEST DUP3 ADD SWAP2 SWAP1 PUSH1 0x0 MSTORE PUSH1 0x20 PUSH1 0x0 KECCAK256 SWAP1 JUMPDEST DUP2 SLOAD DUP2 MSTORE SWAP1 PUSH1 0x1 ADD SWAP1 PUSH1 0x20 ADD DUP1 DUP4 GT PUSH2 0x3BB JUMPI DUP3 SWAP1 SUB PUSH1 0x1F AND DUP3 ADD SWAP2 JUMPDEST POP POP POP POP POP SWAP1 DUP1 PUSH1 0x1 ADD SLOAD SWAP1 POP DUP3 JUMP JUMPDEST DUP2 PUSH2 0x3F1 PUSH2 0xD98 JUMP JUMPDEST PUSH2 0x3F9 PUSH2 0xDE0 JUMP JUMPDEST PUSH2 0x438 JUMPI PUSH1 0x40 MLOAD PUSH32 0x8C379A000000000000000000000000000000000000000000000000000000000 DUP2 MSTORE PUSH1 0x4 ADD PUSH2 0x42F SWAP1 PUSH2 0x16BA JUMP JUMPDEST PUSH1 0x40 MLOAD DUP1 SWAP2 SUB SWAP1 REVERT JUMPDEST PUSH1 0x1 PUSH1 0x0 DUP3 PUSH20 0xFFFFFFFFFFFFFFFFFFFFFFFFFFFFFFFFFFFFFFFF AND PUSH20 0xFFFFFFFFFFFFFFFFFFFFFFFFFFFFFFFFFFFFFFFF AND DUP2 MSTORE PUSH1 0x20 ADD SWAP1 DUP2 MSTORE PUSH1 0x20 ADD PUSH1 0x0 KECCAK256 PUSH1 0x1 ADD PUSH1 0x0 SWAP1 SLOAD SWAP1 PUSH2 0x100 EXP SWAP1 DIV PUSH1 0xFF AND ISZERO PUSH2 0x4C8 JUMPI PUSH1 0x40 MLOAD PUSH32 0x8C379A000000000000000000000000000000000000000000000000000000000 DUP2 MSTORE PUSH1 0x4 ADD PUSH2 0x4BF SWAP1 PUSH2 0x165A JUMP JUMPDEST PUSH1 0x40 MLOAD DUP1 SWAP2 SUB SWAP1 REVERT JUMPDEST PUSH2 0x4D1 DUP2 PUSH2 0xE37 JUMP JUMPDEST DUP2 PUSH1 0x1 PUSH1 0x0 DUP6 PUSH20 0xFFFFFFFFFFFFFFFFFFFFFFFFFFFFFFFFFFFFFFFF AND PUSH20 0xFFFFFFFFFFFFFFFFFFFFFFFFFFFFFFFFFFFFFFFF AND DUP2 MSTORE PUSH1 0x20 ADD SWAP1 DUP2 MSTORE PUSH1 0x20 ADD PUSH1 0x0 KECCAK256 PUSH1 0x0 ADD SWAP1 DUP1 MLOAD SWAP1 PUSH1 0x20 ADD SWAP1 PUSH2 0x527 SWAP3 SWAP2 SWAP1 PUSH2 0xFE1 JUMP JUMPDEST POP PUSH1 0x1 DUP1 PUSH1 0x0 DUP6 PUSH20 0xFFFFFFFFFFFFFFFFFFFFFFFFFFFFFFFFFFFFFFFF AND PUSH20 0xFFFFFFFFFFFFFFFFFFFFFFFFFFFFFFFFFFFFFFFF AND DUP2 MSTORE PUSH1 0x20 ADD SWAP1 DUP2 MSTORE PUSH1 0x20 ADD PUSH1 0x0 KECCAK256 PUSH1 0x1 ADD PUSH1 0x0 PUSH2 0x100 EXP DUP2 SLOAD DUP2 PUSH1 0xFF MUL NOT AND SWAP1 DUP4 ISZERO ISZERO MUL OR SWAP1 SSTORE POP POP POP POP JUMP JUMPDEST PUSH1 0x60 DUP3 DUP3 PUSH1 0x40 MLOAD PUSH1 0x20 ADD PUSH2 0x59C SWAP3 SWAP2 SWAP1 PUSH2 0x1549 JUMP JUMPDEST PUSH1 0x40 MLOAD PUSH1 0x20 DUP2 DUP4 SUB SUB DUP2 MSTORE SWAP1 PUSH1 0x40 MSTORE SWAP1 POP SWAP3 SWAP2 POP POP JUMP JUMPDEST PUSH1 0x1 PUSH1 0x20 MSTORE DUP1 PUSH1 0x0 MSTORE PUSH1 0x40 PUSH1 0x0 KECCAK256 PUSH1 0x0 SWAP2 POP SWAP1 POP DUP1 PUSH1 0x0 ADD DUP1 SLOAD PUSH2 0x5D6 SWAP1 PUSH2 0x188D JUMP JUMPDEST DUP1 PUSH1 0x1F ADD PUSH1 0x20 DUP1 SWAP2 DIV MUL PUSH1 0x20 ADD PUSH1 0x40 MLOAD SWAP1 DUP2 ADD PUSH1 0x40 MSTORE DUP1 SWAP3 SWAP2 SWAP1 DUP2 DUP2 MSTORE PUSH1 0x20 ADD DUP3 DUP1 SLOAD PUSH2 0x602 SWAP1 PUSH2 0x188D JUMP JUMPDEST DUP1 ISZERO PUSH2 0x64F JUMPI DUP1 PUSH1 0x1F LT PUSH2 0x624 JUMPI PUSH2 0x100 DUP1 DUP4 SLOAD DIV MUL DUP4 MSTORE SWAP2 PUSH1 0x20 ADD SWAP2 PUSH2 0x64F JUMP JUMPDEST DUP3 ADD SWAP2 SWAP1 PUSH1 0x0 MSTORE PUSH1 0x20 PUSH1 0x0 KECCAK256 SWAP1 JUMPDEST DUP2 SLOAD DUP2 MSTORE SWAP1 PUSH1 0x1 ADD SWAP1 PUSH1 0x20 ADD DUP1 DUP4 GT PUSH2 0x632 JUMPI DUP3 SWAP1 SUB PUSH1 0x1F AND DUP3 ADD SWAP2 JUMPDEST POP POP POP POP POP SWAP1 DUP1 PUSH1 0x1 ADD PUSH1 0x0 SWAP1 SLOAD SWAP1 PUSH2 0x100 EXP SWAP1 DIV PUSH1 0xFF AND SWAP1 DUP1 PUSH1 0x1 ADD PUSH1 0x1 SWAP1 SLOAD SWAP1 PUSH2 0x100 EXP SWAP1 DIV PUSH1 0xFF AND SWAP1 POP DUP4 JUMP JUMPDEST PUSH2 0x687 PUSH2 0x1067 JUMP JUMPDEST PUSH1 0x0 DUP1 PUSH1 0x0 PUSH1 0x2 DUP1 SLOAD SWAP1 POP SWAP1 POP PUSH1 0x0 DUP2 PUSH8 0xFFFFFFFFFFFFFFFF DUP2 GT ISZERO PUSH2 0x6B0 JUMPI PUSH2 0x6AF PUSH2 0x19C6 JUMP JUMPDEST JUMPDEST PUSH1 0x40 MLOAD SWAP1 DUP1 DUP3 MSTORE DUP1 PUSH1 0x20 MUL PUSH1 0x20 ADD DUP3 ADD PUSH1 0x40 MSTORE DUP1 ISZERO PUSH2 0x6E3 JUMPI DUP2 PUSH1 0x20 ADD JUMPDEST PUSH1 0x60 DUP2 MSTORE PUSH1 0x20 ADD SWAP1 PUSH1 0x1 SWAP1 SUB SWAP1 DUP2 PUSH2 0x6CE JUMPI SWAP1 POP JUMPDEST POP SWAP1 POP PUSH1 0x0 DUP1 PUSH1 0x1 SWAP1 POP PUSH1 0x60 PUSH1 0x0 JUMPDEST DUP6 DUP2 LT ISZERO PUSH2 0x9B0 JUMPI DUP8 PUSH1 0x2 DUP3 DUP2 SLOAD DUP2 LT PUSH2 0x70F JUMPI PUSH2 0x70E PUSH2 0x1997 JUMP JUMPDEST JUMPDEST SWAP1 PUSH1 0x0 MSTORE PUSH1 0x20 PUSH1 0x0 KECCAK256 SWAP1 PUSH1 0x2 MUL ADD PUSH1 0x1 ADD SLOAD GT ISZERO PUSH2 0x890 JUMPI PUSH1 0x2 DUP2 DUP2 SLOAD DUP2 LT PUSH2 0x73B JUMPI PUSH2 0x73A PUSH2 0x1997 JUMP JUMPDEST JUMPDEST SWAP1 PUSH1 0x0 MSTORE PUSH1 0x20 PUSH1 0x0 KECCAK256 SWAP1 PUSH1 0x2 MUL ADD PUSH1 0x1 ADD SLOAD SWAP8 POP DUP1 SWAP7 POP DUP3 ISZERO PUSH2 0x88B JUMPI PUSH1 0x0 SWAP3 POP PUSH1 0x0 SWAP4 POP DUP6 PUSH8 0xFFFFFFFFFFFFFFFF DUP2 GT ISZERO PUSH2 0x77A JUMPI PUSH2 0x779 PUSH2 0x19C6 JUMP JUMPDEST JUMPDEST PUSH1 0x40 MLOAD SWAP1 DUP1 DUP3 MSTORE DUP1 PUSH1 0x20 MUL PUSH1 0x20 ADD DUP3 ADD PUSH1 0x40 MSTORE DUP1 ISZERO PUSH2 0x7AD JUMPI DUP2 PUSH1 0x20 ADD JUMPDEST PUSH1 0x60 DUP2 MSTORE PUSH1 0x20 ADD SWAP1 PUSH1 0x1 SWAP1 SUB SWAP1 DUP2 PUSH2 0x798 JUMPI SWAP1 POP JUMPDEST POP SWAP5 POP PUSH1 0x2 DUP2 DUP2 SLOAD DUP2 LT PUSH2 0x7C4 JUMPI PUSH2 0x7C3 PUSH2 0x1997 JUMP JUMPDEST JUMPDEST SWAP1 PUSH1 0x0 MSTORE PUSH1 0x20 PUSH1 0x0 KECCAK256 SWAP1 PUSH1 0x2 MUL ADD PUSH1 0x0 ADD DUP1 SLOAD PUSH2 0x7E0 SWAP1 PUSH2 0x188D JUMP JUMPDEST DUP1 PUSH1 0x1F ADD PUSH1 0x20 DUP1 SWAP2 DIV MUL PUSH1 0x20 ADD PUSH1 0x40 MLOAD SWAP1 DUP2 ADD PUSH1 0x40 MSTORE DUP1 SWAP3 SWAP2 SWAP1 DUP2 DUP2 MSTORE PUSH1 0x20 ADD DUP3 DUP1 SLOAD PUSH2 0x80C SWAP1 PUSH2 0x188D JUMP JUMPDEST DUP1 ISZERO PUSH2 0x859 JUMPI DUP1 PUSH1 0x1F LT PUSH2 0x82E JUMPI PUSH2 0x100 DUP1 DUP4 SLOAD DIV MUL DUP4 MSTORE SWAP2 PUSH1 0x20 ADD SWAP2 PUSH2 0x859 JUMP JUMPDEST DUP3 ADD SWAP2 SWAP1 PUSH1 0x0 MSTORE PUSH1 0x20 PUSH1 0x0 KECCAK256 SWAP1 JUMPDEST DUP2 SLOAD DUP2 MSTORE SWAP1 PUSH1 0x1 ADD SWAP1 PUSH1 0x20 ADD DUP1 DUP4 GT PUSH2 0x83C JUMPI DUP3 SWAP1 SUB PUSH1 0x1F AND DUP3 ADD SWAP2 JUMPDEST POP POP POP POP POP DUP6 DUP6 DUP2 MLOAD DUP2 LT PUSH2 0x871 JUMPI PUSH2 0x870 PUSH2 0x1997 JUMP JUMPDEST JUMPDEST PUSH1 0x20 MUL PUSH1 0x20 ADD ADD DUP2 SWAP1 MSTORE POP DUP4 DUP1 PUSH2 0x887 SWAP1 PUSH2 0x18F0 JUMP JUMPDEST SWAP5 POP POP JUMPDEST PUSH2 0x99D JUMP JUMPDEST DUP8 PUSH1 0x2 DUP3 DUP2 SLOAD DUP2 LT PUSH2 0x8A5 JUMPI PUSH2 0x8A4 PUSH2 0x1997 JUMP JUMPDEST JUMPDEST SWAP1 PUSH1 0x0 MSTORE PUSH1 0x20 PUSH1 0x0 KECCAK256 SWAP1 PUSH1 0x2 MUL ADD PUSH1 0x1 ADD SLOAD EQ ISZERO PUSH2 0x99C JUMPI PUSH1 0x1 SWAP3 POP PUSH1 0x2 DUP2 DUP2 SLOAD DUP2 LT PUSH2 0x8D5 JUMPI PUSH2 0x8D4 PUSH2 0x1997 JUMP JUMPDEST JUMPDEST SWAP1 PUSH1 0x0 MSTORE PUSH1 0x20 PUSH1 0x0 KECCAK256 SWAP1 PUSH1 0x2 MUL ADD PUSH1 0x0 ADD DUP1 SLOAD PUSH2 0x8F1 SWAP1 PUSH2 0x188D JUMP JUMPDEST DUP1 PUSH1 0x1F ADD PUSH1 0x20 DUP1 SWAP2 DIV MUL PUSH1 0x20 ADD PUSH1 0x40 MLOAD SWAP1 DUP2 ADD PUSH1 0x40 MSTORE DUP1 SWAP3 SWAP2 SWAP1 DUP2 DUP2 MSTORE PUSH1 0x20 ADD DUP3 DUP1 SLOAD PUSH2 0x91D SWAP1 PUSH2 0x188D JUMP JUMPDEST DUP1 ISZERO PUSH2 0x96A JUMPI DUP1 PUSH1 0x1F LT PUSH2 0x93F JUMPI PUSH2 0x100 DUP1 DUP4 SLOAD DIV MUL DUP4 MSTORE SWAP2 PUSH1 0x20 ADD SWAP2 PUSH2 0x96A JUMP JUMPDEST DUP3 ADD SWAP2 SWAP1 PUSH1 0x0 MSTORE PUSH1 0x20 PUSH1 0x0 KECCAK256 SWAP1 JUMPDEST DUP2 SLOAD DUP2 MSTORE SWAP1 PUSH1 0x1 ADD SWAP1 PUSH1 0x20 ADD DUP1 DUP4 GT PUSH2 0x94D JUMPI DUP3 SWAP1 SUB PUSH1 0x1F AND DUP3 ADD SWAP2 JUMPDEST POP POP POP POP POP DUP6 DUP6 DUP2 MLOAD DUP2 LT PUSH2 0x982 JUMPI PUSH2 0x981 PUSH2 0x1997 JUMP JUMPDEST JUMPDEST PUSH1 0x20 MUL PUSH1 0x20 ADD ADD DUP2 SWAP1 MSTORE POP DUP4 DUP1 PUSH2 0x998 SWAP1 PUSH2 0x18F0 JUMP JUMPDEST SWAP5 POP POP JUMPDEST JUMPDEST DUP1 DUP1 PUSH2 0x9A8 SWAP1 PUSH2 0x18F0 JUMP JUMPDEST SWAP2 POP POP PUSH2 0x6F2 JUMP JUMPDEST POP DUP2 ISZERO PUSH2 0xA6E JUMPI PUSH1 0x0 JUMPDEST DUP5 MLOAD DUP2 LT ISZERO PUSH2 0x9FC JUMPI PUSH2 0x9E7 DUP3 DUP7 DUP4 DUP2 MLOAD DUP2 LT PUSH2 0x9DA JUMPI PUSH2 0x9D9 PUSH2 0x1997 JUMP JUMPDEST JUMPDEST PUSH1 0x20 MUL PUSH1 0x20 ADD ADD MLOAD PUSH2 0x587 JUMP JUMPDEST SWAP2 POP DUP1 DUP1 PUSH2 0x9F4 SWAP1 PUSH2 0x18F0 JUMP JUMPDEST SWAP2 POP POP PUSH2 0x9BA JUMP JUMPDEST POP PUSH1 0x0 PUSH2 0xA21 PUSH1 0x40 MLOAD DUP1 PUSH1 0x80 ADD PUSH1 0x40 MSTORE DUP1 PUSH1 0x4C DUP2 MSTORE PUSH1 0x20 ADD PUSH2 0x1C00 PUSH1 0x4C SWAP2 CODECOPY DUP4 PUSH2 0x587 JUMP JUMPDEST SWAP1 POP PUSH1 0x0 DUP2 SWAP1 PUSH2 0xA67 JUMPI PUSH1 0x40 MLOAD PUSH32 0x8C379A000000000000000000000000000000000000000000000000000000000 DUP2 MSTORE PUSH1 0x4 ADD PUSH2 0xA5E SWAP2 SWAP1 PUSH2 0x159A JUMP JUMPDEST PUSH1 0x40 MLOAD DUP1 SWAP2 SUB SWAP1 REVERT JUMPDEST POP POP PUSH2 0xB3A JUMP JUMPDEST PUSH1 0x2 DUP7 DUP2 SLOAD DUP2 LT PUSH2 0xA82 JUMPI PUSH2 0xA81 PUSH2 0x1997 JUMP JUMPDEST JUMPDEST SWAP1 PUSH1 0x0 MSTORE PUSH1 0x20 PUSH1 0x0 KECCAK256 SWAP1 PUSH1 0x2 MUL ADD PUSH1 0x40 MLOAD DUP1 PUSH1 0x40 ADD PUSH1 0x40 MSTORE SWAP1 DUP2 PUSH1 0x0 DUP3 ADD DUP1 SLOAD PUSH2 0xAAB SWAP1 PUSH2 0x188D JUMP JUMPDEST DUP1 PUSH1 0x1F ADD PUSH1 0x20 DUP1 SWAP2 DIV MUL PUSH1 0x20 ADD PUSH1 0x40 MLOAD SWAP1 DUP2 ADD PUSH1 0x40 MSTORE DUP1 SWAP3 SWAP2 SWAP1 DUP2 DUP2 MSTORE PUSH1 0x20 ADD DUP3 DUP1 SLOAD PUSH2 0xAD7 SWAP1 PUSH2 0x188D JUMP JUMPDEST DUP1 ISZERO PUSH2 0xB24 JUMPI DUP1 PUSH1 0x1F LT PUSH2 0xAF9 JUMPI PUSH2 0x100 DUP1 DUP4 SLOAD DIV MUL DUP4 MSTORE SWAP2 PUSH1 0x20 ADD SWAP2 PUSH2 0xB24 JUMP JUMPDEST DUP3 ADD SWAP2 SWAP1 PUSH1 0x0 MSTORE PUSH1 0x20 PUSH1 0x0 KECCAK256 SWAP1 JUMPDEST DUP2 SLOAD DUP2 MSTORE SWAP1 PUSH1 0x1 ADD SWAP1 PUSH1 0x20 ADD DUP1 DUP4 GT PUSH2 0xB07 JUMPI DUP3 SWAP1 SUB PUSH1 0x1F AND DUP3 ADD SWAP2 JUMPDEST POP POP POP POP POP DUP2 MSTORE PUSH1 0x20 ADD PUSH1 0x1 DUP3 ADD SLOAD DUP2 MSTORE POP POP SWAP8 POP JUMPDEST POP POP POP POP POP POP POP SWAP1 JUMP JUMPDEST CALLER PUSH2 0xB4D PUSH2 0xD98 JUMP JUMPDEST PUSH2 0xB55 PUSH2 0xE83 JUMP JUMPDEST PUSH2 0xB94 JUMPI PUSH1 0x40 MLOAD PUSH32 0x8C379A000000000000000000000000000000000000000000000000000000000 DUP2 MSTORE PUSH1 0x4 ADD PUSH2 0xB8B SWAP1 PUSH2 0x16FA JUMP JUMPDEST PUSH1 0x40 MLOAD DUP1 SWAP2 SUB SWAP1 REVERT JUMPDEST PUSH2 0xB9D DUP2 PUSH2 0xE37 JUMP JUMPDEST PUSH1 0x1 PUSH1 0x0 CALLER PUSH20 0xFFFFFFFFFFFFFFFFFFFFFFFFFFFFFFFFFFFFFFFF AND PUSH20 0xFFFFFFFFFFFFFFFFFFFFFFFFFFFFFFFFFFFFFFFF AND DUP2 MSTORE PUSH1 0x20 ADD SWAP1 DUP2 MSTORE PUSH1 0x20 ADD PUSH1 0x0 KECCAK256 PUSH1 0x1 ADD PUSH1 0x1 SWAP1 SLOAD SWAP1 PUSH2 0x100 EXP SWAP1 DIV PUSH1 0xFF AND PUSH1 0x0 PUSH1 0x1 PUSH1 0x0 CALLER PUSH20 0xFFFFFFFFFFFFFFFFFFFFFFFFFFFFFFFFFFFFFFFF AND PUSH20 0xFFFFFFFFFFFFFFFFFFFFFFFFFFFFFFFFFFFFFFFF AND DUP2 MSTORE PUSH1 0x20 ADD SWAP1 DUP2 MSTORE PUSH1 0x20 ADD PUSH1 0x0 KECCAK256 SWAP1 POP PUSH1 0x0 JUMPDEST PUSH1 0x2 DUP1 SLOAD SWAP1 POP DUP2 LT ISZERO PUSH2 0xD80 JUMPI PUSH2 0xCF7 PUSH1 0x2 DUP3 DUP2 SLOAD DUP2 LT PUSH2 0xC57 JUMPI PUSH2 0xC56 PUSH2 0x1997 JUMP JUMPDEST JUMPDEST SWAP1 PUSH1 0x0 MSTORE PUSH1 0x20 PUSH1 0x0 KECCAK256 SWAP1 PUSH1 0x2 MUL ADD PUSH1 0x0 ADD DUP1 SLOAD PUSH2 0xC73 SWAP1 PUSH2 0x188D JUMP JUMPDEST DUP1 PUSH1 0x1F ADD PUSH1 0x20 DUP1 SWAP2 DIV MUL PUSH1 0x20 ADD PUSH1 0x40 MLOAD SWAP1 DUP2 ADD PUSH1 0x40 MSTORE DUP1 SWAP3 SWAP2 SWAP1 DUP2 DUP2 MSTORE PUSH1 0x20 ADD DUP3 DUP1 SLOAD PUSH2 0xC9F SWAP1 PUSH2 0x188D JUMP JUMPDEST DUP1 ISZERO PUSH2 0xCEC JUMPI DUP1 PUSH1 0x1F LT PUSH2 0xCC1 JUMPI PUSH2 0x100 DUP1 DUP4 SLOAD DIV MUL DUP4 MSTORE SWAP2 PUSH1 0x20 ADD SWAP2 PUSH2 0xCEC JUMP JUMPDEST DUP3 ADD SWAP2 SWAP1 PUSH1 0x0 MSTORE PUSH1 0x20 PUSH1 0x0 KECCAK256 SWAP1 JUMPDEST DUP2 SLOAD DUP2 MSTORE SWAP1 PUSH1 0x1 ADD SWAP1 PUSH1 0x20 ADD DUP1 DUP4 GT PUSH2 0xCCF JUMPI DUP3 SWAP1 SUB PUSH1 0x1F AND DUP3 ADD SWAP2 JUMPDEST POP POP POP POP POP DUP7 PUSH2 0xE93 JUMP JUMPDEST ISZERO PUSH2 0xD6D JUMPI PUSH1 0x2 DUP2 DUP2 SLOAD DUP2 LT PUSH2 0xD10 JUMPI PUSH2 0xD0F PUSH2 0x1997 JUMP JUMPDEST JUMPDEST SWAP1 PUSH1 0x0 MSTORE PUSH1 0x20 PUSH1 0x0 KECCAK256 SWAP1 PUSH1 0x2 MUL ADD PUSH1 0x1 ADD PUSH1 0x0 DUP2 SLOAD DUP1 SWAP3 SWAP2 SWAP1 PUSH2 0xD32 SWAP1 PUSH2 0x18F0 JUMP JUMPDEST SWAP2 SWAP1 POP SSTORE POP PUSH1 0x1 DUP3 PUSH1 0x1 ADD PUSH1 0x1 PUSH2 0x100 EXP DUP2 SLOAD DUP2 PUSH1 0xFF MUL NOT AND SWAP1 DUP4 ISZERO ISZERO MUL OR SWAP1 SSTORE POP PUSH1 0x3 PUSH1 0x0 DUP2 SLOAD DUP1 SWAP3 SWAP2 SWAP1 PUSH2 0xD67 SWAP1 PUSH2 0x18F0 JUMP JUMPDEST SWAP2 SWAP1 POP SSTORE POP JUMPDEST DUP1 DUP1 PUSH2 0xD78 SWAP1 PUSH2 0x18F0 JUMP JUMPDEST SWAP2 POP POP PUSH2 0xC33 JUMP JUMPDEST POP POP PUSH2 0xD8B DUP2 PUSH2 0xEEC JUMP JUMPDEST POP POP POP JUMP JUMPDEST PUSH1 0x0 ADDRESS SWAP1 POP SWAP1 JUMP JUMPDEST PUSH1 0x4 SLOAD PUSH1 0x3 SLOAD LT PUSH2 0xDDE JUMPI PUSH1 0x40 MLOAD PUSH32 0x8C379A000000000000000000000000000000000000000000000000000000000 DUP2 MSTORE PUSH1 0x4 ADD PUSH2 0xDD5 SWAP1 PUSH2 0x169A JUMP JUMPDEST PUSH1 0x40 MLOAD DUP1 SWAP2 SUB SWAP1 REVERT JUMPDEST JUMP JUMPDEST PUSH1 0x0 DUP1 PUSH1 0x0 SWAP1 SLOAD SWAP1 PUSH2 0x100 EXP SWAP1 DIV PUSH20 0xFFFFFFFFFFFFFFFFFFFFFFFFFFFFFFFFFFFFFFFF AND PUSH20 0xFFFFFFFFFFFFFFFFFFFFFFFFFFFFFFFFFFFFFFFF AND CALLER PUSH20 0xFFFFFFFFFFFFFFFFFFFFFFFFFFFFFFFFFFFFFFFF AND EQ SWAP1 POP SWAP1 JUMP JUMPDEST PUSH2 0xE40 DUP2 PUSH2 0xF2F JUMP JUMPDEST ISZERO PUSH2 0xE80 JUMPI PUSH1 0x40 MLOAD PUSH32 0x8C379A000000000000000000000000000000000000000000000000000000000 DUP2 MSTORE PUSH1 0x4 ADD PUSH2 0xE77 SWAP1 PUSH2 0x16DA JUMP JUMPDEST PUSH1 0x40 MLOAD DUP1 SWAP2 SUB SWAP1 REVERT JUMPDEST POP JUMP JUMPDEST PUSH1 0x0 PUSH2 0xE8E CALLER PUSH2 0xF88 JUMP JUMPDEST SWAP1 POP SWAP1 JUMP JUMPDEST PUSH1 0x0 DUP2 PUSH1 0x40 MLOAD PUSH1 0x20 ADD PUSH2 0xEA6 SWAP2 SWAP1 PUSH2 0x159A JUMP JUMPDEST PUSH1 0x40 MLOAD PUSH1 0x20 DUP2 DUP4 SUB SUB DUP2 MSTORE SWAP1 PUSH1 0x40 MSTORE DUP1 MLOAD SWAP1 PUSH1 0x20 ADD KECCAK256 DUP4 PUSH1 0x40 MLOAD PUSH1 0x20 ADD PUSH2 0xECD SWAP2 SWAP1 PUSH2 0x159A JUMP JUMPDEST PUSH1 0x40 MLOAD PUSH1 0x20 DUP2 DUP4 SUB SUB DUP2 MSTORE SWAP1 PUSH1 0x40 MSTORE DUP1 MLOAD SWAP1 PUSH1 0x20 ADD KECCAK256 EQ SWAP1 POP SWAP3 SWAP2 POP POP JUMP JUMPDEST DUP1 PUSH2 0xF2C JUMPI PUSH1 0x40 MLOAD PUSH32 0x8C379A000000000000000000000000000000000000000000000000000000000 DUP2 MSTORE PUSH1 0x4 ADD PUSH2 0xF23 SWAP1 PUSH2 0x167A JUMP JUMPDEST PUSH1 0x40 MLOAD DUP1 SWAP2 SUB SWAP1 REVERT JUMPDEST POP JUMP JUMPDEST PUSH1 0x0 PUSH1 0x1 PUSH1 0x0 DUP4 PUSH20 0xFFFFFFFFFFFFFFFFFFFFFFFFFFFFFFFFFFFFFFFF AND PUSH20 0xFFFFFFFFFFFFFFFFFFFFFFFFFFFFFFFFFFFFFFFF AND DUP2 MSTORE PUSH1 0x20 ADD SWAP1 DUP2 MSTORE PUSH1 0x20 ADD PUSH1 0x0 KECCAK256 PUSH1 0x1 ADD PUSH1 0x1 SWAP1 SLOAD SWAP1 PUSH2 0x100 EXP SWAP1 DIV PUSH1 0xFF AND SWAP1 POP SWAP2 SWAP1 POP JUMP JUMPDEST PUSH1 0x0 PUSH1 0x1 PUSH1 0x0 DUP4 PUSH20 0xFFFFFFFFFFFFFFFFFFFFFFFFFFFFFFFFFFFFFFFF AND PUSH20 0xFFFFFFFFFFFFFFFFFFFFFFFFFFFFFFFFFFFFFFFF AND DUP2 MSTORE PUSH1 0x20 ADD SWAP1 DUP2 MSTORE PUSH1 0x20 ADD PUSH1 0x0 KECCAK256 PUSH1 0x1 ADD PUSH1 0x0 SWAP1 SLOAD SWAP1 PUSH2 0x100 EXP SWAP1 DIV PUSH1 0xFF AND SWAP1 POP SWAP2 SWAP1 POP JUMP JUMPDEST DUP3 DUP1 SLOAD PUSH2 0xFED SWAP1 PUSH2 0x188D JUMP JUMPDEST SWAP1 PUSH1 0x0 MSTORE PUSH1 0x20 PUSH1 0x0 KECCAK256 SWAP1 PUSH1 0x1F ADD PUSH1 0x20 SWAP1 DIV DUP2 ADD SWAP3 DUP3 PUSH2 0x100F JUMPI PUSH1 0x0 DUP6 SSTORE PUSH2 0x1056 JUMP JUMPDEST DUP3 PUSH1 0x1F LT PUSH2 0x1028 JUMPI DUP1 MLOAD PUSH1 0xFF NOT AND DUP4 DUP1 ADD OR DUP6 SSTORE PUSH2 0x1056 JUMP JUMPDEST DUP3 DUP1 ADD PUSH1 0x1 ADD DUP6 SSTORE DUP3 ISZERO PUSH2 0x1056 JUMPI SWAP2 DUP3 ADD JUMPDEST DUP3 DUP2 GT ISZERO PUSH2 0x1055 JUMPI DUP3 MLOAD DUP3 SSTORE SWAP2 PUSH1 0x20 ADD SWAP2 SWAP1 PUSH1 0x1 ADD SWAP1 PUSH2 0x103A JUMP JUMPDEST JUMPDEST POP SWAP1 POP PUSH2 0x1063 SWAP2 SWAP1 PUSH2 0x1081 JUMP JUMPDEST POP SWAP1 JUMP JUMPDEST PUSH1 0x40 MLOAD DUP1 PUSH1 0x40 ADD PUSH1 0x40 MSTORE DUP1 PUSH1 0x60 DUP2 MSTORE PUSH1 0x20 ADD PUSH1 0x0 DUP2 MSTORE POP SWAP1 JUMP JUMPDEST JUMPDEST DUP1 DUP3 GT ISZERO PUSH2 0x109A JUMPI PUSH1 0x0 DUP2 PUSH1 0x0 SWAP1 SSTORE POP PUSH1 0x1 ADD PUSH2 0x1082 JUMP JUMPDEST POP SWAP1 JUMP JUMPDEST PUSH1 0x0 PUSH2 0x10B1 PUSH2 0x10AC DUP5 PUSH2 0x1761 JUMP JUMPDEST PUSH2 0x173C JUMP JUMPDEST SWAP1 POP DUP3 DUP2 MSTORE PUSH1 0x20 DUP2 ADD DUP5 DUP5 DUP5 ADD GT ISZERO PUSH2 0x10CD JUMPI PUSH2 0x10CC PUSH2 0x19FA JUMP JUMPDEST JUMPDEST PUSH2 0x10D8 DUP5 DUP3 DUP6 PUSH2 0x184B JUMP JUMPDEST POP SWAP4 SWAP3 POP POP POP JUMP JUMPDEST PUSH1 0x0 DUP2 CALLDATALOAD SWAP1 POP PUSH2 0x10EF DUP2 PUSH2 0x1BD1 JUMP JUMPDEST SWAP3 SWAP2 POP POP JUMP JUMPDEST PUSH1 0x0 DUP3 PUSH1 0x1F DUP4 ADD SLT PUSH2 0x110A JUMPI PUSH2 0x1109 PUSH2 0x19F5 JUMP JUMPDEST JUMPDEST DUP2 CALLDATALOAD PUSH2 0x111A DUP5 DUP3 PUSH1 0x20 DUP7 ADD PUSH2 0x109E JUMP JUMPDEST SWAP2 POP POP SWAP3 SWAP2 POP POP JUMP JUMPDEST PUSH1 0x0 DUP2 CALLDATALOAD SWAP1 POP PUSH2 0x1132 DUP2 PUSH2 0x1BE8 JUMP JUMPDEST SWAP3 SWAP2 POP POP JUMP JUMPDEST PUSH1 0x0 PUSH1 0x20 DUP3 DUP5 SUB SLT ISZERO PUSH2 0x114E JUMPI PUSH2 0x114D PUSH2 0x1A04 JUMP JUMPDEST JUMPDEST PUSH1 0x0 PUSH2 0x115C DUP5 DUP3 DUP6 ADD PUSH2 0x10E0 JUMP JUMPDEST SWAP2 POP POP SWAP3 SWAP2 POP POP JUMP JUMPDEST PUSH1 0x0 DUP1 PUSH1 0x40 DUP4 DUP6 SUB SLT ISZERO PUSH2 0x117C JUMPI PUSH2 0x117B PUSH2 0x1A04 JUMP JUMPDEST JUMPDEST PUSH1 0x0 PUSH2 0x118A DUP6 DUP3 DUP7 ADD PUSH2 0x10E0 JUMP JUMPDEST SWAP3 POP POP PUSH1 0x20 DUP4 ADD CALLDATALOAD PUSH8 0xFFFFFFFFFFFFFFFF DUP2 GT ISZERO PUSH2 0x11AB JUMPI PUSH2 0x11AA PUSH2 0x19FF JUMP JUMPDEST JUMPDEST PUSH2 0x11B7 DUP6 DUP3 DUP7 ADD PUSH2 0x10F5 JUMP JUMPDEST SWAP2 POP POP SWAP3 POP SWAP3 SWAP1 POP JUMP JUMPDEST PUSH1 0x0 PUSH1 0x20 DUP3 DUP5 SUB SLT ISZERO PUSH2 0x11D7 JUMPI PUSH2 0x11D6 PUSH2 0x1A04 JUMP JUMPDEST JUMPDEST PUSH1 0x0 DUP3 ADD CALLDATALOAD PUSH8 0xFFFFFFFFFFFFFFFF DUP2 GT ISZERO PUSH2 0x11F5 JUMPI PUSH2 0x11F4 PUSH2 0x19FF JUMP JUMPDEST JUMPDEST PUSH2 0x1201 DUP5 DUP3 DUP6 ADD PUSH2 0x10F5 JUMP JUMPDEST SWAP2 POP POP SWAP3 SWAP2 POP POP JUMP JUMPDEST PUSH1 0x0 DUP1 PUSH1 0x40 DUP4 DUP6 SUB SLT ISZERO PUSH2 0x1221 JUMPI PUSH2 0x1220 PUSH2 0x1A04 JUMP JUMPDEST JUMPDEST PUSH1 0x0 DUP4 ADD CALLDATALOAD PUSH8 0xFFFFFFFFFFFFFFFF DUP2 GT ISZERO PUSH2 0x123F JUMPI PUSH2 0x123E PUSH2 0x19FF JUMP JUMPDEST JUMPDEST PUSH2 0x124B DUP6 DUP3 DUP7 ADD PUSH2 0x10F5 JUMP JUMPDEST SWAP3 POP POP PUSH1 0x20 DUP4 ADD CALLDATALOAD PUSH8 0xFFFFFFFFFFFFFFFF DUP2 GT ISZERO PUSH2 0x126C JUMPI PUSH2 0x126B PUSH2 0x19FF JUMP JUMPDEST JUMPDEST PUSH2 0x1278 DUP6 DUP3 DUP7 ADD PUSH2 0x10F5 JUMP JUMPDEST SWAP2 POP POP SWAP3 POP SWAP3 SWAP1 POP JUMP JUMPDEST PUSH1 0x0 PUSH1 0x20 DUP3 DUP5 SUB SLT ISZERO PUSH2 0x1298 JUMPI PUSH2 0x1297 PUSH2 0x1A04 JUMP JUMPDEST JUMPDEST PUSH1 0x0 PUSH2 0x12A6 DUP5 DUP3 DUP6 ADD PUSH2 0x1123 JUMP JUMPDEST SWAP2 POP POP SWAP3 SWAP2 POP POP JUMP JUMPDEST PUSH1 0x0 PUSH2 0x12BB DUP4 DUP4 PUSH2 0x1356 JUMP JUMPDEST SWAP1 POP SWAP3 SWAP2 POP POP JUMP JUMPDEST PUSH2 0x12CC DUP2 PUSH2 0x1803 JUMP JUMPDEST DUP3 MSTORE POP POP JUMP JUMPDEST PUSH1 0x0 PUSH2 0x12DD DUP3 PUSH2 0x17A2 JUMP JUMPDEST PUSH2 0x12E7 DUP2 DUP6 PUSH2 0x17C5 JUMP JUMPDEST SWAP4 POP DUP4 PUSH1 0x20 DUP3 MUL DUP6 ADD PUSH2 0x12F9 DUP6 PUSH2 0x1792 JUMP JUMPDEST DUP1 PUSH1 0x0 JUMPDEST DUP6 DUP2 LT ISZERO PUSH2 0x1335 JUMPI DUP5 DUP5 SUB DUP10 MSTORE DUP2 MLOAD PUSH2 0x1316 DUP6 DUP3 PUSH2 0x12AF JUMP JUMPDEST SWAP5 POP PUSH2 0x1321 DUP4 PUSH2 0x17B8 JUMP JUMPDEST SWAP3 POP PUSH1 0x20 DUP11 ADD SWAP10 POP POP PUSH1 0x1 DUP2 ADD SWAP1 POP PUSH2 0x12FD JUMP JUMPDEST POP DUP3 SWAP8 POP DUP8 SWAP6 POP POP POP POP POP POP SWAP3 SWAP2 POP POP JUMP JUMPDEST PUSH2 0x1350 DUP2 PUSH2 0x1815 JUMP JUMPDEST DUP3 MSTORE POP POP JUMP JUMPDEST PUSH1 0x0 PUSH2 0x1361 DUP3 PUSH2 0x17AD JUMP JUMPDEST PUSH2 0x136B DUP2 DUP6 PUSH2 0x17D6 JUMP JUMPDEST SWAP4 POP PUSH2 0x137B DUP2 DUP6 PUSH1 0x20 DUP7 ADD PUSH2 0x185A JUMP JUMPDEST PUSH2 0x1384 DUP2 PUSH2 0x1A09 JUMP JUMPDEST DUP5 ADD SWAP2 POP POP SWAP3 SWAP2 POP POP JUMP JUMPDEST PUSH1 0x0 PUSH2 0x139A DUP3 PUSH2 0x17AD JUMP JUMPDEST PUSH2 0x13A4 DUP2 DUP6 PUSH2 0x17E7 JUMP JUMPDEST SWAP4 POP PUSH2 0x13B4 DUP2 DUP6 PUSH1 0x20 DUP7 ADD PUSH2 0x185A JUMP JUMPDEST PUSH2 0x13BD DUP2 PUSH2 0x1A09 JUMP JUMPDEST DUP5 ADD SWAP2 POP POP SWAP3 SWAP2 POP POP JUMP JUMPDEST PUSH1 0x0 PUSH2 0x13D3 DUP3 PUSH2 0x17AD JUMP JUMPDEST PUSH2 0x13DD DUP2 DUP6 PUSH2 0x17F8 JUMP JUMPDEST SWAP4 POP PUSH2 0x13ED DUP2 DUP6 PUSH1 0x20 DUP7 ADD PUSH2 0x185A JUMP JUMPDEST DUP1 DUP5 ADD SWAP2 POP POP SWAP3 SWAP2 POP POP JUMP JUMPDEST PUSH1 0x0 PUSH2 0x1406 PUSH1 0x25 DUP4 PUSH2 0x17E7 JUMP JUMPDEST SWAP2 POP PUSH2 0x1411 DUP3 PUSH2 0x1A1A JUMP JUMPDEST PUSH1 0x40 DUP3 ADD SWAP1 POP SWAP2 SWAP1 POP JUMP JUMPDEST PUSH1 0x0 PUSH2 0x1429 PUSH1 0x21 DUP4 PUSH2 0x17E7 JUMP JUMPDEST SWAP2 POP PUSH2 0x1434 DUP3 PUSH2 0x1A69 JUMP JUMPDEST PUSH1 0x40 DUP3 ADD SWAP1 POP SWAP2 SWAP1 POP JUMP JUMPDEST PUSH1 0x0 PUSH2 0x144C PUSH1 0x2F DUP4 PUSH2 0x17E7 JUMP JUMPDEST SWAP2 POP PUSH2 0x1457 DUP3 PUSH2 0x1AB8 JUMP JUMPDEST PUSH1 0x40 DUP3 ADD SWAP1 POP SWAP2 SWAP1 POP JUMP JUMPDEST PUSH1 0x0 PUSH2 0x146F PUSH1 0x2F DUP4 PUSH2 0x17E7 JUMP JUMPDEST SWAP2 POP PUSH2 0x147A DUP3 PUSH2 0x1B07 JUMP JUMPDEST PUSH1 0x40 DUP3 ADD SWAP1 POP SWAP2 SWAP1 POP JUMP JUMPDEST PUSH1 0x0 PUSH2 0x1492 PUSH1 0x1 DUP4 PUSH2 0x17F8 JUMP JUMPDEST SWAP2 POP PUSH2 0x149D DUP3 PUSH2 0x1B56 JUMP JUMPDEST PUSH1 0x1 DUP3 ADD SWAP1 POP SWAP2 SWAP1 POP JUMP JUMPDEST PUSH1 0x0 PUSH2 0x14B5 PUSH1 0x14 DUP4 PUSH2 0x17E7 JUMP JUMPDEST SWAP2 POP PUSH2 0x14C0 DUP3 PUSH2 0x1B7F JUMP JUMPDEST PUSH1 0x20 DUP3 ADD SWAP1 POP SWAP2 SWAP1 POP JUMP JUMPDEST PUSH1 0x0 PUSH2 0x14D8 PUSH1 0x1A DUP4 PUSH2 0x17E7 JUMP JUMPDEST SWAP2 POP PUSH2 0x14E3 DUP3 PUSH2 0x1BA8 JUMP JUMPDEST PUSH1 0x20 DUP3 ADD SWAP1 POP SWAP2 SWAP1 POP JUMP JUMPDEST PUSH1 0x0 PUSH1 0x40 DUP4 ADD PUSH1 0x0 DUP4 ADD MLOAD DUP5 DUP3 SUB PUSH1 0x0 DUP7 ADD MSTORE PUSH2 0x150B DUP3 DUP3 PUSH2 0x1356 JUMP JUMPDEST SWAP2 POP POP PUSH1 0x20 DUP4 ADD MLOAD PUSH2 0x1520 PUSH1 0x20 DUP7 ADD DUP3 PUSH2 0x152B JUMP JUMPDEST POP DUP1 SWAP2 POP POP SWAP3 SWAP2 POP POP JUMP JUMPDEST PUSH2 0x1534 DUP2 PUSH2 0x1841 JUMP JUMPDEST DUP3 MSTORE POP POP JUMP JUMPDEST PUSH2 0x1543 DUP2 PUSH2 0x1841 JUMP JUMPDEST DUP3 MSTORE POP POP JUMP JUMPDEST PUSH1 0x0 PUSH2 0x1555 DUP3 DUP6 PUSH2 0x13C8 JUMP JUMPDEST SWAP2 POP PUSH2 0x1560 DUP3 PUSH2 0x1485 JUMP JUMPDEST SWAP2 POP PUSH2 0x156C DUP3 DUP5 PUSH2 0x13C8 JUMP JUMPDEST SWAP2 POP DUP2 SWAP1 POP SWAP4 SWAP3 POP POP POP JUMP JUMPDEST PUSH1 0x0 PUSH1 0x20 DUP3 ADD SWAP1 POP DUP2 DUP2 SUB PUSH1 0x0 DUP4 ADD MSTORE PUSH2 0x1592 DUP2 DUP5 PUSH2 0x12D2 JUMP JUMPDEST SWAP1 POP SWAP3 SWAP2 POP POP JUMP JUMPDEST PUSH1 0x0 PUSH1 0x20 DUP3 ADD SWAP1 POP DUP2 DUP2 SUB PUSH1 0x0 DUP4 ADD MSTORE PUSH2 0x15B4 DUP2 DUP5 PUSH2 0x138F JUMP JUMPDEST SWAP1 POP SWAP3 SWAP2 POP POP JUMP JUMPDEST PUSH1 0x0 PUSH1 0x40 DUP3 ADD SWAP1 POP DUP2 DUP2 SUB PUSH1 0x0 DUP4 ADD MSTORE PUSH2 0x15D6 DUP2 DUP6 PUSH2 0x138F JUMP JUMPDEST SWAP1 POP PUSH2 0x15E5 PUSH1 0x20 DUP4 ADD DUP5 PUSH2 0x12C3 JUMP JUMPDEST SWAP4 SWAP3 POP POP POP JUMP JUMPDEST PUSH1 0x0 PUSH1 0x60 DUP3 ADD SWAP1 POP DUP2 DUP2 SUB PUSH1 0x0 DUP4 ADD MSTORE PUSH2 0x1606 DUP2 DUP7 PUSH2 0x138F JUMP JUMPDEST SWAP1 POP PUSH2 0x1615 PUSH1 0x20 DUP4 ADD DUP6 PUSH2 0x1347 JUMP JUMPDEST PUSH2 0x1622 PUSH1 0x40 DUP4 ADD DUP5 PUSH2 0x1347 JUMP JUMPDEST SWAP5 SWAP4 POP POP POP POP JUMP JUMPDEST PUSH1 0x0 PUSH1 0x40 DUP3 ADD SWAP1 POP DUP2 DUP2 SUB PUSH1 0x0 DUP4 ADD MSTORE PUSH2 0x1644 DUP2 DUP6 PUSH2 0x138F JUMP JUMPDEST SWAP1 POP PUSH2 0x1653 PUSH1 0x20 DUP4 ADD DUP5 PUSH2 0x153A JUMP JUMPDEST SWAP4 SWAP3 POP POP POP JUMP JUMPDEST PUSH1 0x0 PUSH1 0x20 DUP3 ADD SWAP1 POP DUP2 DUP2 SUB PUSH1 0x0 DUP4 ADD MSTORE PUSH2 0x1673 DUP2 PUSH2 0x13F9 JUMP JUMPDEST SWAP1 POP SWAP2 SWAP1 POP JUMP JUMPDEST PUSH1 0x0 PUSH1 0x20 DUP3 ADD SWAP1 POP DUP2 DUP2 SUB PUSH1 0x0 DUP4 ADD MSTORE PUSH2 0x1693 DUP2 PUSH2 0x141C JUMP JUMPDEST SWAP1 POP SWAP2 SWAP1 POP JUMP JUMPDEST PUSH1 0x0 PUSH1 0x20 DUP3 ADD SWAP1 POP DUP2 DUP2 SUB PUSH1 0x0 DUP4 ADD MSTORE PUSH2 0x16B3 DUP2 PUSH2 0x143F JUMP JUMPDEST SWAP1 POP SWAP2 SWAP1 POP JUMP JUMPDEST PUSH1 0x0 PUSH1 0x20 DUP3 ADD SWAP1 POP DUP2 DUP2 SUB PUSH1 0x0 DUP4 ADD MSTORE PUSH2 0x16D3 DUP2 PUSH2 0x1462 JUMP JUMPDEST SWAP1 POP SWAP2 SWAP1 POP JUMP JUMPDEST PUSH1 0x0 PUSH1 0x20 DUP3 ADD SWAP1 POP DUP2 DUP2 SUB PUSH1 0x0 DUP4 ADD MSTORE PUSH2 0x16F3 DUP2 PUSH2 0x14A8 JUMP JUMPDEST SWAP1 POP SWAP2 SWAP1 POP JUMP JUMPDEST PUSH1 0x0 PUSH1 0x20 DUP3 ADD SWAP1 POP DUP2 DUP2 SUB PUSH1 0x0 DUP4 ADD MSTORE PUSH2 0x1713 DUP2 PUSH2 0x14CB JUMP JUMPDEST SWAP1 POP SWAP2 SWAP1 POP JUMP JUMPDEST PUSH1 0x0 PUSH1 0x20 DUP3 ADD SWAP1 POP DUP2 DUP2 SUB PUSH1 0x0 DUP4 ADD MSTORE PUSH2 0x1734 DUP2 DUP5 PUSH2 0x14EE JUMP JUMPDEST SWAP1 POP SWAP3 SWAP2 POP POP JUMP JUMPDEST PUSH1 0x0 PUSH2 0x1746 PUSH2 0x1757 JUMP JUMPDEST SWAP1 POP PUSH2 0x1752 DUP3 DUP3 PUSH2 0x18BF JUMP JUMPDEST SWAP2 SWAP1 POP JUMP JUMPDEST PUSH1 0x0 PUSH1 0x40 MLOAD SWAP1 POP SWAP1 JUMP JUMPDEST PUSH1 0x0 PUSH8 0xFFFFFFFFFFFFFFFF DUP3 GT ISZERO PUSH2 0x177C JUMPI PUSH2 0x177B PUSH2 0x19C6 JUMP JUMPDEST JUMPDEST PUSH2 0x1785 DUP3 PUSH2 0x1A09 JUMP JUMPDEST SWAP1 POP PUSH1 0x20 DUP2 ADD SWAP1 POP SWAP2 SWAP1 POP JUMP JUMPDEST PUSH1 0x0 DUP2 SWAP1 POP PUSH1 0x20 DUP3 ADD SWAP1 POP SWAP2 SWAP1 POP JUMP JUMPDEST PUSH1 0x0 DUP2 MLOAD SWAP1 POP SWAP2 SWAP1 POP JUMP JUMPDEST PUSH1 0x0 DUP2 MLOAD SWAP1 POP SWAP2 SWAP1 POP JUMP JUMPDEST PUSH1 0x0 PUSH1 0x20 DUP3 ADD SWAP1 POP SWAP2 SWAP1 POP JUMP JUMPDEST PUSH1 0x0 DUP3 DUP3 MSTORE PUSH1 0x20 DUP3 ADD SWAP1 POP SWAP3 SWAP2 POP POP JUMP JUMPDEST PUSH1 0x0 DUP3 DUP3 MSTORE PUSH1 0x20 DUP3 ADD SWAP1 POP SWAP3 SWAP2 POP POP JUMP JUMPDEST PUSH1 0x0 DUP3 DUP3 MSTORE PUSH1 0x20 DUP3 ADD SWAP1 POP SWAP3 SWAP2 POP POP JUMP JUMPDEST PUSH1 0x0 DUP2 SWAP1 POP SWAP3 SWAP2 POP POP JUMP JUMPDEST PUSH1 0x0 PUSH2 0x180E DUP3 PUSH2 0x1821 JUMP JUMPDEST SWAP1 POP SWAP2 SWAP1 POP JUMP JUMPDEST PUSH1 0x0 DUP2 ISZERO ISZERO SWAP1 POP SWAP2 SWAP1 POP JUMP JUMPDEST PUSH1 0x0 PUSH20 0xFFFFFFFFFFFFFFFFFFFFFFFFFFFFFFFFFFFFFFFF DUP3 AND SWAP1 POP SWAP2 SWAP1 POP JUMP JUMPDEST PUSH1 0x0 DUP2 SWAP1 POP SWAP2 SWAP1 POP JUMP JUMPDEST DUP3 DUP2 DUP4 CALLDATACOPY PUSH1 0x0 DUP4 DUP4 ADD MSTORE POP POP POP JUMP JUMPDEST PUSH1 0x0 JUMPDEST DUP4 DUP2 LT ISZERO PUSH2 0x1878 JUMPI DUP1 DUP3 ADD MLOAD DUP2 DUP5 ADD MSTORE PUSH1 0x20 DUP2 ADD SWAP1 POP PUSH2 0x185D JUMP JUMPDEST DUP4 DUP2 GT ISZERO PUSH2 0x1887 JUMPI PUSH1 0x0 DUP5 DUP5 ADD MSTORE JUMPDEST POP POP POP POP JUMP JUMPDEST PUSH1 0x0 PUSH1 0x2 DUP3 DIV SWAP1 POP PUSH1 0x1 DUP3 AND DUP1 PUSH2 0x18A5 JUMPI PUSH1 0x7F DUP3 AND SWAP2 POP JUMPDEST PUSH1 0x20 DUP3 LT DUP2 EQ ISZERO PUSH2 0x18B9 JUMPI PUSH2 0x18B8 PUSH2 0x1968 JUMP JUMPDEST JUMPDEST POP SWAP2 SWAP1 POP JUMP JUMPDEST PUSH2 0x18C8 DUP3 PUSH2 0x1A09 JUMP JUMPDEST DUP2 ADD DUP2 DUP2 LT PUSH8 0xFFFFFFFFFFFFFFFF DUP3 GT OR ISZERO PUSH2 0x18E7 JUMPI PUSH2 0x18E6 PUSH2 0x19C6 JUMP JUMPDEST JUMPDEST DUP1 PUSH1 0x40 MSTORE POP POP POP JUMP JUMPDEST PUSH1 0x0 PUSH2 0x18FB DUP3 PUSH2 0x1841 JUMP JUMPDEST SWAP2 POP PUSH32 0xFFFFFFFFFFFFFFFFFFFFFFFFFFFFFFFFFFFFFFFFFFFFFFFFFFFFFFFFFFFFFFFF DUP3 EQ ISZERO PUSH2 0x192E JUMPI PUSH2 0x192D PUSH2 0x1939 JUMP JUMPDEST JUMPDEST PUSH1 0x1 DUP3 ADD SWAP1 POP SWAP2 SWAP1 POP JUMP JUMPDEST PUSH32 0x4E487B7100000000000000000000000000000000000000000000000000000000 PUSH1 0x0 MSTORE PUSH1 0x11 PUSH1 0x4 MSTORE PUSH1 0x24 PUSH1 0x0 REVERT JUMPDEST PUSH32 0x4E487B7100000000000000000000000000000000000000000000000000000000 PUSH1 0x0 MSTORE PUSH1 0x22 PUSH1 0x4 MSTORE PUSH1 0x24 PUSH1 0x0 REVERT JUMPDEST PUSH32 0x4E487B7100000000000000000000000000000000000000000000000000000000 PUSH1 0x0 MSTORE PUSH1 0x32 PUSH1 0x4 MSTORE PUSH1 0x24 PUSH1 0x0 REVERT JUMPDEST PUSH32 0x4E487B7100000000000000000000000000000000000000000000000000000000 PUSH1 0x0 MSTORE PUSH1 0x41 PUSH1 0x4 MSTORE PUSH1 0x24 PUSH1 0x0 REVERT JUMPDEST PUSH1 0x0 DUP1 REVERT JUMPDEST PUSH1 0x0 DUP1 REVERT JUMPDEST PUSH1 0x0 DUP1 REVERT JUMPDEST PUSH1 0x0 DUP1 REVERT JUMPDEST PUSH1 0x0 PUSH1 0x1F NOT PUSH1 0x1F DUP4 ADD AND SWAP1 POP SWAP2 SWAP1 POP JUMP JUMPDEST PUSH32 0x566F746572206861766520616C72656164792068617320726967687420746F20 PUSH1 0x0 DUP3 ADD MSTORE PUSH32 0x766F74652E000000000000000000000000000000000000000000000000000000 PUSH1 0x20 DUP3 ADD MSTORE POP JUMP JUMPDEST PUSH32 0x43616E64696461746520796F752073656E7420646F6573206E6F742065786973 PUSH1 0x0 DUP3 ADD MSTORE PUSH32 0x7400000000000000000000000000000000000000000000000000000000000000 PUSH1 0x20 DUP3 ADD MSTORE POP JUMP JUMPDEST PUSH32 0x4D6178206163636F756E7420766F74657320697320726561636865642E204261 PUSH1 0x0 DUP3 ADD MSTORE PUSH32 0x6C6C6F7420697320434C4F5345442E0000000000000000000000000000000000 PUSH1 0x20 DUP3 ADD MSTORE POP JUMP JUMPDEST PUSH32 0x4F6E6C792074686520636F6E7472616374206F776E65722063616E2067697665 PUSH1 0x0 DUP3 ADD MSTORE PUSH32 0x20726967687420746F20766F74652E0000000000000000000000000000000000 PUSH1 0x20 DUP3 ADD MSTORE POP JUMP JUMPDEST PUSH32 0x2000000000000000000000000000000000000000000000000000000000000000 PUSH1 0x0 DUP3 ADD MSTORE POP JUMP JUMPDEST PUSH32 0x566F74657220616C726561647920766F7465642E000000000000000000000000 PUSH1 0x0 DUP3 ADD MSTORE POP JUMP JUMPDEST PUSH32 0x596F752068617665206E6F7420726967687420746F20766F7465000000000000 PUSH1 0x0 DUP3 ADD MSTORE POP JUMP JUMPDEST PUSH2 0x1BDA DUP2 PUSH2 0x1803 JUMP JUMPDEST DUP2 EQ PUSH2 0x1BE5 JUMPI PUSH1 0x0 DUP1 REVERT JUMPDEST POP JUMP JUMPDEST PUSH2 0x1BF1 DUP2 PUSH2 0x1841 JUMP JUMPDEST DUP2 EQ PUSH2 0x1BFC JUMPI PUSH1 0x0 DUP1 REVERT JUMPDEST POP JUMP INVALID SLOAD PUSH9 0x657265206973206120 PUSH21 0x6965206F6E2042616C6C6F742E20596F752073686F PUSH22 0x6C642073746172742061206E65772062616C6C6F7420 PUSH24 0x697468207469652063616E646964617465733AA264697066 PUSH20 0x58221220FE3ACB811D705F8FD23DCE98A438E156 KECCAK256 JUMPDEST 0xD3 0x25 REVERT POP 0x27 DUP14 0x22 DUP9 0xE1 0x1E CALLDATACOPY 0xD0 SELFDESTRUCT 0xA8 PUSH5 0x736F6C6343 STOP ADDMOD SMOD STOP CALLER "
				},
				"gasEstimates": {
					"creation": {
						"codeDepositCost": "1459400",
						"executionCost": "infinite",
						"totalCost": "infinite"
					},
					"external": {
						"candidates(uint256)": "infinite",
						"concatenateStrings(string,string)": "infinite",
						"getCandidatesListName()": "infinite",
						"getWinnerName()": "infinite",
						"getWinningCandidate()": "infinite",
						"giveRightToVote(address,string)": "infinite",
						"vote(string)": "infinite",
						"voters(address)": "infinite"
					},
					"internal": {
						"areYouContractOwner()": "2176",
						"areYouHaveRigthToVote()": "2303",
						"areYouVoted()": "infinite",
						"getContractAddress()": "22",
						"getTotalVotesCounterReachedRequire()": "infinite",
						"getVoterRigthToVote(address)": "2266",
						"getVoterVoted(address)": "2316",
						"getVoterVotedRequire(address)": "infinite",
						"isCandidateExistRequire(bool)": "infinite",
						"setCandidatesIntoStorage(string memory[] memory)": "infinite",
						"stringEqualTo(string memory,string memory)": "infinite"
					}
				},
				"methodIdentifiers": {
					"candidates(uint256)": "3477ee2e",
					"concatenateStrings(string,string)": "7a36b3ee",
					"getCandidatesListName()": "011d1023",
					"getWinnerName()": "2bfda515",
					"getWinningCandidate()": "f927cc29",
					"giveRightToVote(address,string)": "68957b20",
					"vote(string)": "fc36e15b",
					"voters(address)": "a3ec138d"
				}
			},
			"storageLayout": {
				"storage": [
					{
						"astId": 15,
						"contract": "contracts/Ballot/Ballot.sol:MyBallot",
						"label": "contractOwner",
						"offset": 0,
						"slot": "0",
						"type": "t_address"
					},
					{
						"astId": 20,
						"contract": "contracts/Ballot/Ballot.sol:MyBallot",
						"label": "voters",
						"offset": 0,
						"slot": "1",
						"type": "t_mapping(t_address,t_struct(Voter)8_storage)"
					},
					{
						"astId": 24,
						"contract": "contracts/Ballot/Ballot.sol:MyBallot",
						"label": "candidates",
						"offset": 0,
						"slot": "2",
						"type": "t_array(t_struct(Candidate)13_storage)dyn_storage"
					},
					{
						"astId": 26,
						"contract": "contracts/Ballot/Ballot.sol:MyBallot",
						"label": "totalVotesCounter",
						"offset": 0,
						"slot": "3",
						"type": "t_uint256"
					},
					{
						"astId": 28,
						"contract": "contracts/Ballot/Ballot.sol:MyBallot",
						"label": "maxVotes",
						"offset": 0,
						"slot": "4",
						"type": "t_uint256"
					}
				],
				"types": {
					"t_address": {
						"encoding": "inplace",
						"label": "address",
						"numberOfBytes": "20"
					},
					"t_array(t_struct(Candidate)13_storage)dyn_storage": {
						"base": "t_struct(Candidate)13_storage",
						"encoding": "dynamic_array",
						"label": "struct MyBallot.Candidate[]",
						"numberOfBytes": "32"
					},
					"t_bool": {
						"encoding": "inplace",
						"label": "bool",
						"numberOfBytes": "1"
					},
					"t_mapping(t_address,t_struct(Voter)8_storage)": {
						"encoding": "mapping",
						"key": "t_address",
						"label": "mapping(address => struct MyBallot.Voter)",
						"numberOfBytes": "32",
						"value": "t_struct(Voter)8_storage"
					},
					"t_string_storage": {
						"encoding": "bytes",
						"label": "string",
						"numberOfBytes": "32"
					},
					"t_struct(Candidate)13_storage": {
						"encoding": "inplace",
						"label": "struct MyBallot.Candidate",
						"members": [
							{
								"astId": 10,
								"contract": "contracts/Ballot/Ballot.sol:MyBallot",
								"label": "nameProject",
								"offset": 0,
								"slot": "0",
								"type": "t_string_storage"
							},
							{
								"astId": 12,
								"contract": "contracts/Ballot/Ballot.sol:MyBallot",
								"label": "votesCount",
								"offset": 0,
								"slot": "1",
								"type": "t_uint256"
							}
						],
						"numberOfBytes": "64"
					},
					"t_struct(Voter)8_storage": {
						"encoding": "inplace",
						"label": "struct MyBallot.Voter",
						"members": [
							{
								"astId": 3,
								"contract": "contracts/Ballot/Ballot.sol:MyBallot",
								"label": "nameVoter",
								"offset": 0,
								"slot": "0",
								"type": "t_string_storage"
							},
							{
								"astId": 5,
								"contract": "contracts/Ballot/Ballot.sol:MyBallot",
								"label": "canVote",
								"offset": 0,
								"slot": "1",
								"type": "t_bool"
							},
							{
								"astId": 7,
								"contract": "contracts/Ballot/Ballot.sol:MyBallot",
								"label": "hasVoted",
								"offset": 1,
								"slot": "1",
								"type": "t_bool"
							}
						],
						"numberOfBytes": "64"
					},
					"t_uint256": {
						"encoding": "inplace",
						"label": "uint256",
						"numberOfBytes": "32"
					}
				}
			},
			"userdoc": {
				"kind": "user",
				"methods": {},
				"version": 1
			}
		}
	}
}