{
	"contracts/Ballot/Ballot.sol": {
		"MyBallot": {
			"abi": [
				{
					"inputs": [
						{
							"components": [
								{
									"internalType": "string",
									"name": "name",
									"type": "string"
								},
								{
									"internalType": "string",
									"name": "party",
									"type": "string"
								},
								{
									"internalType": "uint256",
									"name": "votesCount",
									"type": "uint256"
								}
							],
							"internalType": "struct MyBallot.Candidate[]",
							"name": "_candidates",
							"type": "tuple[]"
						},
						{
							"internalType": "uint256",
							"name": "",
							"type": "uint256"
						}
					],
					"stateMutability": "nonpayable",
					"type": "constructor"
				},
				{
					"inputs": [
						{
							"components": [
								{
									"internalType": "string",
									"name": "name",
									"type": "string"
								},
								{
									"internalType": "string",
									"name": "party",
									"type": "string"
								},
								{
									"internalType": "uint256",
									"name": "votesCount",
									"type": "uint256"
								}
							],
							"internalType": "struct MyBallot.Candidate",
							"name": "newCandidate",
							"type": "tuple"
						}
					],
					"name": "addCandidateAsStruct",
					"outputs": [],
					"stateMutability": "nonpayable",
					"type": "function"
				},
				{
					"inputs": [
						{
							"internalType": "string",
							"name": "name",
							"type": "string"
						},
						{
							"internalType": "string",
							"name": "party",
							"type": "string"
						}
					],
					"name": "addCandidateWithSpreadParameters",
					"outputs": [],
					"stateMutability": "nonpayable",
					"type": "function"
				},
				{
					"inputs": [],
					"name": "areYouContractOwner",
					"outputs": [
						{
							"internalType": "bool",
							"name": "",
							"type": "bool"
						}
					],
					"stateMutability": "view",
					"type": "function"
				},
				{
					"inputs": [],
					"name": "areYouHaveRigthToVote",
					"outputs": [
						{
							"internalType": "bool",
							"name": "",
							"type": "bool"
						}
					],
					"stateMutability": "view",
					"type": "function"
				},
				{
					"inputs": [],
					"name": "areYouVoted",
					"outputs": [
						{
							"internalType": "bool",
							"name": "",
							"type": "bool"
						}
					],
					"stateMutability": "view",
					"type": "function"
				},
				{
					"inputs": [
						{
							"internalType": "uint256",
							"name": "",
							"type": "uint256"
						}
					],
					"name": "candidates",
					"outputs": [
						{
							"internalType": "string",
							"name": "name",
							"type": "string"
						},
						{
							"internalType": "string",
							"name": "party",
							"type": "string"
						},
						{
							"internalType": "uint256",
							"name": "votesCount",
							"type": "uint256"
						}
					],
					"stateMutability": "view",
					"type": "function"
				},
				{
					"inputs": [],
					"name": "contractOwner",
					"outputs": [
						{
							"internalType": "address",
							"name": "",
							"type": "address"
						}
					],
					"stateMutability": "view",
					"type": "function"
				},
				{
					"inputs": [],
					"name": "getCandidatesList",
					"outputs": [
						{
							"components": [
								{
									"internalType": "string",
									"name": "name",
									"type": "string"
								},
								{
									"internalType": "string",
									"name": "party",
									"type": "string"
								},
								{
									"internalType": "uint256",
									"name": "votesCount",
									"type": "uint256"
								}
							],
							"internalType": "struct MyBallot.Candidate[]",
							"name": "",
							"type": "tuple[]"
						}
					],
					"stateMutability": "view",
					"type": "function"
				},
				{
					"inputs": [],
					"name": "getContractAddress",
					"outputs": [
						{
							"internalType": "address",
							"name": "",
							"type": "address"
						}
					],
					"stateMutability": "view",
					"type": "function"
				},
				{
					"inputs": [
						{
							"internalType": "address",
							"name": "voterAddress",
							"type": "address"
						}
					],
					"name": "getVoterRigthToVote",
					"outputs": [
						{
							"internalType": "bool",
							"name": "",
							"type": "bool"
						}
					],
					"stateMutability": "view",
					"type": "function"
				},
				{
					"inputs": [
						{
							"internalType": "address",
							"name": "voterAddress",
							"type": "address"
						}
					],
					"name": "getVoterVoter",
					"outputs": [
						{
							"internalType": "bool",
							"name": "",
							"type": "bool"
						}
					],
					"stateMutability": "view",
					"type": "function"
				},
				{
					"inputs": [],
					"name": "getWinnerName",
					"outputs": [
						{
							"internalType": "string",
							"name": "winnerName",
							"type": "string"
						}
					],
					"stateMutability": "view",
					"type": "function"
				},
				{
					"inputs": [],
					"name": "getWinningCandidate",
					"outputs": [
						{
							"internalType": "uint256",
							"name": "winningProposal",
							"type": "uint256"
						},
						{
							"internalType": "bool",
							"name": "isTie",
							"type": "bool"
						}
					],
					"stateMutability": "view",
					"type": "function"
				},
				{
					"inputs": [
						{
							"internalType": "address",
							"name": "voterAddress",
							"type": "address"
						}
					],
					"name": "giveRightToVote",
					"outputs": [],
					"stateMutability": "nonpayable",
					"type": "function"
				},
				{
					"inputs": [],
					"name": "maxVotes",
					"outputs": [
						{
							"internalType": "uint256",
							"name": "",
							"type": "uint256"
						}
					],
					"stateMutability": "view",
					"type": "function"
				},
				{
					"inputs": [
						{
							"internalType": "string",
							"name": "name",
							"type": "string"
						}
					],
					"name": "vote",
					"outputs": [],
					"stateMutability": "nonpayable",
					"type": "function"
				},
				{
					"inputs": [
						{
							"internalType": "address",
							"name": "",
							"type": "address"
						}
					],
					"name": "voters",
					"outputs": [
						{
							"internalType": "bool",
							"name": "canVote",
							"type": "bool"
						},
						{
							"internalType": "bool",
							"name": "hasVoted",
							"type": "bool"
						}
					],
					"stateMutability": "view",
					"type": "function"
				}
			],
			"devdoc": {
				"kind": "dev",
				"methods": {},
				"version": 1
			},
			"evm": {
				"assembly": "    /* \"contracts/Ballot/Ballot.sol\":70:4839  contract MyBallot {... */\n  mstore(0x40, 0x80)\n    /* \"contracts/Ballot/Ballot.sol\":453:829  constructor(Candidate[] memory _candidates, uint ) {... */\n  callvalue\n  dup1\n  iszero\n  tag_1\n  jumpi\n  0x00\n  dup1\n  revert\ntag_1:\n  pop\n  mload(0x40)\n  sub(codesize, bytecodeSize)\n  dup1\n  bytecodeSize\n  dup4\n  codecopy\n  dup2\n  dup2\n  add\n  0x40\n  mstore\n  dup2\n  add\n  swap1\n  tag_2\n  swap2\n  swap1\n  tag_3\n  jump\t// in\ntag_2:\n    /* \"contracts/Ballot/Ballot.sol\":541:551  msg.sender */\n  caller\n    /* \"contracts/Ballot/Ballot.sol\":525:538  contractOwner */\n  0x00\n  dup1\n    /* \"contracts/Ballot/Ballot.sol\":525:551  contractOwner = msg.sender */\n  0x0100\n  exp\n  dup2\n  sload\n  dup2\n  0xffffffffffffffffffffffffffffffffffffffff\n  mul\n  not\n  and\n  swap1\n  dup4\n  0xffffffffffffffffffffffffffffffffffffffff\n  and\n  mul\n  or\n  swap1\n  sstore\n  pop\n    /* \"contracts/Ballot/Ballot.sol\":569:579  uint index */\n  0x00\n    /* \"contracts/Ballot/Ballot.sol\":564:822  for (uint index = 0; index < _candidates.length; index++) {... */\ntag_6:\n    /* \"contracts/Ballot/Ballot.sol\":593:604  _candidates */\n  dup3\n    /* \"contracts/Ballot/Ballot.sol\":593:611  _candidates.length */\n  mload\n    /* \"contracts/Ballot/Ballot.sol\":585:590  index */\n  dup2\n    /* \"contracts/Ballot/Ballot.sol\":585:611  index < _candidates.length */\n  lt\n    /* \"contracts/Ballot/Ballot.sol\":564:822  for (uint index = 0; index < _candidates.length; index++) {... */\n  iszero\n  tag_7\n  jumpi\n    /* \"contracts/Ballot/Ballot.sol\":637:647  candidates */\n  0x02\n    /* \"contracts/Ballot/Ballot.sol\":653:809  Candidate({... */\n  mload(0x40)\n  dup1\n  0x60\n  add\n  0x40\n  mstore\n  dup1\n    /* \"contracts/Ballot/Ballot.sol\":688:699  _candidates */\n  dup6\n    /* \"contracts/Ballot/Ballot.sol\":700:705  index */\n  dup5\n    /* \"contracts/Ballot/Ballot.sol\":688:706  _candidates[index] */\n  dup2\n  mload\n  dup2\n  lt\n  tag_9\n  jumpi\n  tag_10\n  tag_11\n  jump\t// in\ntag_10:\ntag_9:\n  0x20\n  mul\n  0x20\n  add\n  add\n  mload\n    /* \"contracts/Ballot/Ballot.sol\":688:711  _candidates[index].name */\n  0x00\n  add\n  mload\n    /* \"contracts/Ballot/Ballot.sol\":653:809  Candidate({... */\n  dup2\n  mstore\n  0x20\n  add\n    /* \"contracts/Ballot/Ballot.sol\":737:748  _candidates */\n  dup6\n    /* \"contracts/Ballot/Ballot.sol\":749:754  index */\n  dup5\n    /* \"contracts/Ballot/Ballot.sol\":737:755  _candidates[index] */\n  dup2\n  mload\n  dup2\n  lt\n  tag_12\n  jumpi\n  tag_13\n  tag_11\n  jump\t// in\ntag_13:\ntag_12:\n  0x20\n  mul\n  0x20\n  add\n  add\n  mload\n    /* \"contracts/Ballot/Ballot.sol\":737:761  _candidates[index].party */\n  0x20\n  add\n  mload\n    /* \"contracts/Ballot/Ballot.sol\":653:809  Candidate({... */\n  dup2\n  mstore\n  0x20\n  add\n    /* \"contracts/Ballot/Ballot.sol\":792:793  0 */\n  0x00\n    /* \"contracts/Ballot/Ballot.sol\":653:809  Candidate({... */\n  dup2\n  mstore\n  pop\n    /* \"contracts/Ballot/Ballot.sol\":637:810  candidates.push(Candidate({... */\n  swap1\n  dup1\n  0x01\n  dup2\n  sload\n  add\n  dup1\n  dup3\n  sstore\n  dup1\n  swap2\n  pop\n  pop\n  0x01\n  swap1\n  sub\n  swap1\n  0x00\n  mstore\n  keccak256(0x00, 0x20)\n  swap1\n  0x03\n  mul\n  add\n  0x00\n  swap1\n  swap2\n  swap1\n  swap2\n  swap1\n  swap2\n  pop\n  0x00\n  dup3\n  add\n  mload\n  dup2\n  0x00\n  add\n  swap1\n  dup2\n  tag_15\n  swap2\n  swap1\n  tag_16\n  jump\t// in\ntag_15:\n  pop\n  0x20\n  dup3\n  add\n  mload\n  dup2\n  0x01\n  add\n  swap1\n  dup2\n  tag_17\n  swap2\n  swap1\n  tag_16\n  jump\t// in\ntag_17:\n  pop\n  0x40\n  dup3\n  add\n  mload\n  dup2\n  0x02\n  add\n  sstore\n  pop\n  pop\n    /* \"contracts/Ballot/Ballot.sol\":613:620  index++ */\n  dup1\n  dup1\n  tag_18\n  swap1\n  tag_19\n  jump\t// in\ntag_18:\n  swap2\n  pop\n  pop\n    /* \"contracts/Ballot/Ballot.sol\":564:822  for (uint index = 0; index < _candidates.length; index++) {... */\n  jump(tag_6)\ntag_7:\n  pop\n    /* \"contracts/Ballot/Ballot.sol\":453:829  constructor(Candidate[] memory _candidates, uint ) {... */\n  pop\n  pop\n    /* \"contracts/Ballot/Ballot.sol\":70:4839  contract MyBallot {... */\n  jump(tag_20)\n    /* \"#utility.yul\":7:82   */\ntag_21:\n    /* \"#utility.yul\":40:46   */\n  0x00\n    /* \"#utility.yul\":73:75   */\n  0x40\n    /* \"#utility.yul\":67:76   */\n  mload\n    /* \"#utility.yul\":57:76   */\n  swap1\n  pop\n    /* \"#utility.yul\":7:82   */\n  swap1\n  jump\t// out\n    /* \"#utility.yul\":88:205   */\ntag_22:\n    /* \"#utility.yul\":197:198   */\n  0x00\n    /* \"#utility.yul\":194:195   */\n  dup1\n    /* \"#utility.yul\":187:199   */\n  revert\n    /* \"#utility.yul\":211:328   */\ntag_23:\n    /* \"#utility.yul\":320:321   */\n  0x00\n    /* \"#utility.yul\":317:318   */\n  dup1\n    /* \"#utility.yul\":310:322   */\n  revert\n    /* \"#utility.yul\":334:451   */\ntag_24:\n    /* \"#utility.yul\":443:444   */\n  0x00\n    /* \"#utility.yul\":440:441   */\n  dup1\n    /* \"#utility.yul\":433:445   */\n  revert\n    /* \"#utility.yul\":457:559   */\ntag_25:\n    /* \"#utility.yul\":498:504   */\n  0x00\n    /* \"#utility.yul\":549:551   */\n  0x1f\n    /* \"#utility.yul\":545:552   */\n  not\n    /* \"#utility.yul\":540:542   */\n  0x1f\n    /* \"#utility.yul\":533:538   */\n  dup4\n    /* \"#utility.yul\":529:543   */\n  add\n    /* \"#utility.yul\":525:553   */\n  and\n    /* \"#utility.yul\":515:553   */\n  swap1\n  pop\n    /* \"#utility.yul\":457:559   */\n  swap2\n  swap1\n  pop\n  jump\t// out\n    /* \"#utility.yul\":565:745   */\ntag_26:\n    /* \"#utility.yul\":613:690   */\n  0x4e487b7100000000000000000000000000000000000000000000000000000000\n    /* \"#utility.yul\":610:611   */\n  0x00\n    /* \"#utility.yul\":603:691   */\n  mstore\n    /* \"#utility.yul\":710:714   */\n  0x41\n    /* \"#utility.yul\":707:708   */\n  0x04\n    /* \"#utility.yul\":700:715   */\n  mstore\n    /* \"#utility.yul\":734:738   */\n  0x24\n    /* \"#utility.yul\":731:732   */\n  0x00\n    /* \"#utility.yul\":724:739   */\n  revert\n    /* \"#utility.yul\":751:1032   */\ntag_27:\n    /* \"#utility.yul\":834:861   */\n  tag_71\n    /* \"#utility.yul\":856:860   */\n  dup3\n    /* \"#utility.yul\":834:861   */\n  tag_25\n  jump\t// in\ntag_71:\n    /* \"#utility.yul\":826:832   */\n  dup2\n    /* \"#utility.yul\":822:862   */\n  add\n    /* \"#utility.yul\":964:970   */\n  dup2\n    /* \"#utility.yul\":952:962   */\n  dup2\n    /* \"#utility.yul\":949:971   */\n  lt\n    /* \"#utility.yul\":928:946   */\n  0xffffffffffffffff\n    /* \"#utility.yul\":916:926   */\n  dup3\n    /* \"#utility.yul\":913:947   */\n  gt\n    /* \"#utility.yul\":910:972   */\n  or\n    /* \"#utility.yul\":907:995   */\n  iszero\n  tag_72\n  jumpi\n    /* \"#utility.yul\":975:993   */\n  tag_73\n  tag_26\n  jump\t// in\ntag_73:\n    /* \"#utility.yul\":907:995   */\ntag_72:\n    /* \"#utility.yul\":1015:1025   */\n  dup1\n    /* \"#utility.yul\":1011:1013   */\n  0x40\n    /* \"#utility.yul\":1004:1026   */\n  mstore\n    /* \"#utility.yul\":794:1032   */\n  pop\n    /* \"#utility.yul\":751:1032   */\n  pop\n  pop\n  jump\t// out\n    /* \"#utility.yul\":1038:1167   */\ntag_28:\n    /* \"#utility.yul\":1072:1078   */\n  0x00\n    /* \"#utility.yul\":1099:1119   */\n  tag_75\n  tag_21\n  jump\t// in\ntag_75:\n    /* \"#utility.yul\":1089:1119   */\n  swap1\n  pop\n    /* \"#utility.yul\":1128:1161   */\n  tag_76\n    /* \"#utility.yul\":1156:1160   */\n  dup3\n    /* \"#utility.yul\":1148:1154   */\n  dup3\n    /* \"#utility.yul\":1128:1161   */\n  tag_27\n  jump\t// in\ntag_76:\n    /* \"#utility.yul\":1038:1167   */\n  swap2\n  swap1\n  pop\n  jump\t// out\n    /* \"#utility.yul\":1173:1509   */\ntag_29:\n    /* \"#utility.yul\":1275:1279   */\n  0x00\n    /* \"#utility.yul\":1365:1383   */\n  0xffffffffffffffff\n    /* \"#utility.yul\":1357:1363   */\n  dup3\n    /* \"#utility.yul\":1354:1384   */\n  gt\n    /* \"#utility.yul\":1351:1407   */\n  iszero\n  tag_78\n  jumpi\n    /* \"#utility.yul\":1387:1405   */\n  tag_79\n  tag_26\n  jump\t// in\ntag_79:\n    /* \"#utility.yul\":1351:1407   */\ntag_78:\n    /* \"#utility.yul\":1437:1441   */\n  0x20\n    /* \"#utility.yul\":1429:1435   */\n  dup3\n    /* \"#utility.yul\":1425:1442   */\n  mul\n    /* \"#utility.yul\":1417:1442   */\n  swap1\n  pop\n    /* \"#utility.yul\":1497:1501   */\n  0x20\n    /* \"#utility.yul\":1491:1495   */\n  dup2\n    /* \"#utility.yul\":1487:1502   */\n  add\n    /* \"#utility.yul\":1479:1502   */\n  swap1\n  pop\n    /* \"#utility.yul\":1173:1509   */\n  swap2\n  swap1\n  pop\n  jump\t// out\n    /* \"#utility.yul\":1515:1632   */\ntag_30:\n    /* \"#utility.yul\":1624:1625   */\n  0x00\n    /* \"#utility.yul\":1621:1622   */\n  dup1\n    /* \"#utility.yul\":1614:1626   */\n  revert\n    /* \"#utility.yul\":1638:1755   */\ntag_31:\n    /* \"#utility.yul\":1747:1748   */\n  0x00\n    /* \"#utility.yul\":1744:1745   */\n  dup1\n    /* \"#utility.yul\":1737:1749   */\n  revert\n    /* \"#utility.yul\":1761:1878   */\ntag_32:\n    /* \"#utility.yul\":1870:1871   */\n  0x00\n    /* \"#utility.yul\":1867:1868   */\n  dup1\n    /* \"#utility.yul\":1860:1872   */\n  revert\n    /* \"#utility.yul\":1884:2001   */\ntag_33:\n    /* \"#utility.yul\":1993:1994   */\n  0x00\n    /* \"#utility.yul\":1990:1991   */\n  dup1\n    /* \"#utility.yul\":1983:1995   */\n  revert\n    /* \"#utility.yul\":2007:2315   */\ntag_34:\n    /* \"#utility.yul\":2069:2073   */\n  0x00\n    /* \"#utility.yul\":2159:2177   */\n  0xffffffffffffffff\n    /* \"#utility.yul\":2151:2157   */\n  dup3\n    /* \"#utility.yul\":2148:2178   */\n  gt\n    /* \"#utility.yul\":2145:2201   */\n  iszero\n  tag_85\n  jumpi\n    /* \"#utility.yul\":2181:2199   */\n  tag_86\n  tag_26\n  jump\t// in\ntag_86:\n    /* \"#utility.yul\":2145:2201   */\ntag_85:\n    /* \"#utility.yul\":2219:2248   */\n  tag_87\n    /* \"#utility.yul\":2241:2247   */\n  dup3\n    /* \"#utility.yul\":2219:2248   */\n  tag_25\n  jump\t// in\ntag_87:\n    /* \"#utility.yul\":2211:2248   */\n  swap1\n  pop\n    /* \"#utility.yul\":2303:2307   */\n  0x20\n    /* \"#utility.yul\":2297:2301   */\n  dup2\n    /* \"#utility.yul\":2293:2308   */\n  add\n    /* \"#utility.yul\":2285:2308   */\n  swap1\n  pop\n    /* \"#utility.yul\":2007:2315   */\n  swap2\n  swap1\n  pop\n  jump\t// out\n    /* \"#utility.yul\":2321:2567   */\ntag_35:\n    /* \"#utility.yul\":2402:2403   */\n  0x00\n    /* \"#utility.yul\":2412:2525   */\ntag_89:\n    /* \"#utility.yul\":2426:2432   */\n  dup4\n    /* \"#utility.yul\":2423:2424   */\n  dup2\n    /* \"#utility.yul\":2420:2433   */\n  lt\n    /* \"#utility.yul\":2412:2525   */\n  iszero\n  tag_91\n  jumpi\n    /* \"#utility.yul\":2511:2512   */\n  dup1\n    /* \"#utility.yul\":2506:2509   */\n  dup3\n    /* \"#utility.yul\":2502:2513   */\n  add\n    /* \"#utility.yul\":2496:2514   */\n  mload\n    /* \"#utility.yul\":2492:2493   */\n  dup2\n    /* \"#utility.yul\":2487:2490   */\n  dup5\n    /* \"#utility.yul\":2483:2494   */\n  add\n    /* \"#utility.yul\":2476:2515   */\n  mstore\n    /* \"#utility.yul\":2448:2450   */\n  0x20\n    /* \"#utility.yul\":2445:2446   */\n  dup2\n    /* \"#utility.yul\":2441:2451   */\n  add\n    /* \"#utility.yul\":2436:2451   */\n  swap1\n  pop\n    /* \"#utility.yul\":2412:2525   */\n  jump(tag_89)\ntag_91:\n    /* \"#utility.yul\":2559:2560   */\n  0x00\n    /* \"#utility.yul\":2550:2556   */\n  dup5\n    /* \"#utility.yul\":2545:2548   */\n  dup5\n    /* \"#utility.yul\":2541:2557   */\n  add\n    /* \"#utility.yul\":2534:2561   */\n  mstore\n    /* \"#utility.yul\":2383:2567   */\n  pop\n    /* \"#utility.yul\":2321:2567   */\n  pop\n  pop\n  pop\n  jump\t// out\n    /* \"#utility.yul\":2573:3007   */\ntag_36:\n    /* \"#utility.yul\":2662:2667   */\n  0x00\n    /* \"#utility.yul\":2687:2753   */\n  tag_93\n    /* \"#utility.yul\":2703:2752   */\n  tag_94\n    /* \"#utility.yul\":2745:2751   */\n  dup5\n    /* \"#utility.yul\":2703:2752   */\n  tag_34\n  jump\t// in\ntag_94:\n    /* \"#utility.yul\":2687:2753   */\n  tag_28\n  jump\t// in\ntag_93:\n    /* \"#utility.yul\":2678:2753   */\n  swap1\n  pop\n    /* \"#utility.yul\":2776:2782   */\n  dup3\n    /* \"#utility.yul\":2769:2774   */\n  dup2\n    /* \"#utility.yul\":2762:2783   */\n  mstore\n    /* \"#utility.yul\":2814:2818   */\n  0x20\n    /* \"#utility.yul\":2807:2812   */\n  dup2\n    /* \"#utility.yul\":2803:2819   */\n  add\n    /* \"#utility.yul\":2852:2855   */\n  dup5\n    /* \"#utility.yul\":2843:2849   */\n  dup5\n    /* \"#utility.yul\":2838:2841   */\n  dup5\n    /* \"#utility.yul\":2834:2850   */\n  add\n    /* \"#utility.yul\":2831:2856   */\n  gt\n    /* \"#utility.yul\":2828:2940   */\n  iszero\n  tag_95\n  jumpi\n    /* \"#utility.yul\":2859:2938   */\n  tag_96\n  tag_33\n  jump\t// in\ntag_96:\n    /* \"#utility.yul\":2828:2940   */\ntag_95:\n    /* \"#utility.yul\":2949:3001   */\n  tag_97\n    /* \"#utility.yul\":2994:3000   */\n  dup5\n    /* \"#utility.yul\":2989:2992   */\n  dup3\n    /* \"#utility.yul\":2984:2987   */\n  dup6\n    /* \"#utility.yul\":2949:3001   */\n  tag_35\n  jump\t// in\ntag_97:\n    /* \"#utility.yul\":2668:3007   */\n  pop\n    /* \"#utility.yul\":2573:3007   */\n  swap4\n  swap3\n  pop\n  pop\n  pop\n  jump\t// out\n    /* \"#utility.yul\":3027:3382   */\ntag_37:\n    /* \"#utility.yul\":3094:3099   */\n  0x00\n    /* \"#utility.yul\":3143:3146   */\n  dup3\n    /* \"#utility.yul\":3136:3140   */\n  0x1f\n    /* \"#utility.yul\":3128:3134   */\n  dup4\n    /* \"#utility.yul\":3124:3141   */\n  add\n    /* \"#utility.yul\":3120:3147   */\n  slt\n    /* \"#utility.yul\":3110:3232   */\n  tag_99\n  jumpi\n    /* \"#utility.yul\":3151:3230   */\n  tag_100\n  tag_24\n  jump\t// in\ntag_100:\n    /* \"#utility.yul\":3110:3232   */\ntag_99:\n    /* \"#utility.yul\":3261:3267   */\n  dup2\n    /* \"#utility.yul\":3255:3268   */\n  mload\n    /* \"#utility.yul\":3286:3376   */\n  tag_101\n    /* \"#utility.yul\":3372:3375   */\n  dup5\n    /* \"#utility.yul\":3364:3370   */\n  dup3\n    /* \"#utility.yul\":3357:3361   */\n  0x20\n    /* \"#utility.yul\":3349:3355   */\n  dup7\n    /* \"#utility.yul\":3345:3362   */\n  add\n    /* \"#utility.yul\":3286:3376   */\n  tag_36\n  jump\t// in\ntag_101:\n    /* \"#utility.yul\":3277:3376   */\n  swap2\n  pop\n    /* \"#utility.yul\":3100:3382   */\n  pop\n    /* \"#utility.yul\":3027:3382   */\n  swap3\n  swap2\n  pop\n  pop\n  jump\t// out\n    /* \"#utility.yul\":3388:3465   */\ntag_38:\n    /* \"#utility.yul\":3425:3432   */\n  0x00\n    /* \"#utility.yul\":3454:3459   */\n  dup2\n    /* \"#utility.yul\":3443:3459   */\n  swap1\n  pop\n    /* \"#utility.yul\":3388:3465   */\n  swap2\n  swap1\n  pop\n  jump\t// out\n    /* \"#utility.yul\":3471:3593   */\ntag_39:\n    /* \"#utility.yul\":3544:3568   */\n  tag_104\n    /* \"#utility.yul\":3562:3567   */\n  dup2\n    /* \"#utility.yul\":3544:3568   */\n  tag_38\n  jump\t// in\ntag_104:\n    /* \"#utility.yul\":3537:3542   */\n  dup2\n    /* \"#utility.yul\":3534:3569   */\n  eq\n    /* \"#utility.yul\":3524:3587   */\n  tag_105\n  jumpi\n    /* \"#utility.yul\":3583:3584   */\n  0x00\n    /* \"#utility.yul\":3580:3581   */\n  dup1\n    /* \"#utility.yul\":3573:3585   */\n  revert\n    /* \"#utility.yul\":3524:3587   */\ntag_105:\n    /* \"#utility.yul\":3471:3593   */\n  pop\n  jump\t// out\n    /* \"#utility.yul\":3599:3742   */\ntag_40:\n    /* \"#utility.yul\":3656:3661   */\n  0x00\n    /* \"#utility.yul\":3687:3693   */\n  dup2\n    /* \"#utility.yul\":3681:3694   */\n  mload\n    /* \"#utility.yul\":3672:3694   */\n  swap1\n  pop\n    /* \"#utility.yul\":3703:3736   */\n  tag_107\n    /* \"#utility.yul\":3730:3735   */\n  dup2\n    /* \"#utility.yul\":3703:3736   */\n  tag_39\n  jump\t// in\ntag_107:\n    /* \"#utility.yul\":3599:3742   */\n  swap3\n  swap2\n  pop\n  pop\n  jump\t// out\n    /* \"#utility.yul\":3781:4893   */\ntag_41:\n    /* \"#utility.yul\":3866:3871   */\n  0x00\n    /* \"#utility.yul\":3910:3914   */\n  0x60\n    /* \"#utility.yul\":3898:3907   */\n  dup3\n    /* \"#utility.yul\":3893:3896   */\n  dup5\n    /* \"#utility.yul\":3889:3908   */\n  sub\n    /* \"#utility.yul\":3885:3915   */\n  slt\n    /* \"#utility.yul\":3882:3999   */\n  iszero\n  tag_109\n  jumpi\n    /* \"#utility.yul\":3918:3997   */\n  tag_110\n  tag_31\n  jump\t// in\ntag_110:\n    /* \"#utility.yul\":3882:3999   */\ntag_109:\n    /* \"#utility.yul\":4017:4038   */\n  tag_111\n    /* \"#utility.yul\":4033:4037   */\n  0x60\n    /* \"#utility.yul\":4017:4038   */\n  tag_28\n  jump\t// in\ntag_111:\n    /* \"#utility.yul\":4008:4038   */\n  swap1\n  pop\n    /* \"#utility.yul\":4118:4119   */\n  0x00\n    /* \"#utility.yul\":4107:4116   */\n  dup3\n    /* \"#utility.yul\":4103:4120   */\n  add\n    /* \"#utility.yul\":4097:4121   */\n  mload\n    /* \"#utility.yul\":4148:4166   */\n  0xffffffffffffffff\n    /* \"#utility.yul\":4140:4146   */\n  dup2\n    /* \"#utility.yul\":4137:4167   */\n  gt\n    /* \"#utility.yul\":4134:4251   */\n  iszero\n  tag_112\n  jumpi\n    /* \"#utility.yul\":4170:4249   */\n  tag_113\n  tag_32\n  jump\t// in\ntag_113:\n    /* \"#utility.yul\":4134:4251   */\ntag_112:\n    /* \"#utility.yul\":4290:4360   */\n  tag_114\n    /* \"#utility.yul\":4356:4359   */\n  dup5\n    /* \"#utility.yul\":4347:4353   */\n  dup3\n    /* \"#utility.yul\":4336:4345   */\n  dup6\n    /* \"#utility.yul\":4332:4354   */\n  add\n    /* \"#utility.yul\":4290:4360   */\n  tag_37\n  jump\t// in\ntag_114:\n    /* \"#utility.yul\":4283:4287   */\n  0x00\n    /* \"#utility.yul\":4276:4281   */\n  dup4\n    /* \"#utility.yul\":4272:4288   */\n  add\n    /* \"#utility.yul\":4265:4361   */\n  mstore\n    /* \"#utility.yul\":4048:4372   */\n  pop\n    /* \"#utility.yul\":4453:4455   */\n  0x20\n    /* \"#utility.yul\":4442:4451   */\n  dup3\n    /* \"#utility.yul\":4438:4456   */\n  add\n    /* \"#utility.yul\":4432:4457   */\n  mload\n    /* \"#utility.yul\":4484:4502   */\n  0xffffffffffffffff\n    /* \"#utility.yul\":4476:4482   */\n  dup2\n    /* \"#utility.yul\":4473:4503   */\n  gt\n    /* \"#utility.yul\":4470:4587   */\n  iszero\n  tag_115\n  jumpi\n    /* \"#utility.yul\":4506:4585   */\n  tag_116\n  tag_32\n  jump\t// in\ntag_116:\n    /* \"#utility.yul\":4470:4587   */\ntag_115:\n    /* \"#utility.yul\":4626:4696   */\n  tag_117\n    /* \"#utility.yul\":4692:4695   */\n  dup5\n    /* \"#utility.yul\":4683:4689   */\n  dup3\n    /* \"#utility.yul\":4672:4681   */\n  dup6\n    /* \"#utility.yul\":4668:4690   */\n  add\n    /* \"#utility.yul\":4626:4696   */\n  tag_37\n  jump\t// in\ntag_117:\n    /* \"#utility.yul\":4619:4623   */\n  0x20\n    /* \"#utility.yul\":4612:4617   */\n  dup4\n    /* \"#utility.yul\":4608:4624   */\n  add\n    /* \"#utility.yul\":4601:4697   */\n  mstore\n    /* \"#utility.yul\":4382:4708   */\n  pop\n    /* \"#utility.yul\":4773:4775   */\n  0x40\n    /* \"#utility.yul\":4814:4874   */\n  tag_118\n    /* \"#utility.yul\":4870:4873   */\n  dup5\n    /* \"#utility.yul\":4861:4867   */\n  dup3\n    /* \"#utility.yul\":4850:4859   */\n  dup6\n    /* \"#utility.yul\":4846:4868   */\n  add\n    /* \"#utility.yul\":4814:4874   */\n  tag_40\n  jump\t// in\ntag_118:\n    /* \"#utility.yul\":4807:4811   */\n  0x40\n    /* \"#utility.yul\":4800:4805   */\n  dup4\n    /* \"#utility.yul\":4796:4812   */\n  add\n    /* \"#utility.yul\":4789:4875   */\n  mstore\n    /* \"#utility.yul\":4718:4886   */\n  pop\n    /* \"#utility.yul\":3781:4893   */\n  swap3\n  swap2\n  pop\n  pop\n  jump\t// out\n    /* \"#utility.yul\":4934:5939   */\ntag_42:\n    /* \"#utility.yul\":5066:5071   */\n  0x00\n    /* \"#utility.yul\":5091:5197   */\n  tag_120\n    /* \"#utility.yul\":5107:5196   */\n  tag_121\n    /* \"#utility.yul\":5189:5195   */\n  dup5\n    /* \"#utility.yul\":5107:5196   */\n  tag_29\n  jump\t// in\ntag_121:\n    /* \"#utility.yul\":5091:5197   */\n  tag_28\n  jump\t// in\ntag_120:\n    /* \"#utility.yul\":5082:5197   */\n  swap1\n  pop\n    /* \"#utility.yul\":5217:5222   */\n  dup1\n    /* \"#utility.yul\":5246:5252   */\n  dup4\n    /* \"#utility.yul\":5239:5244   */\n  dup3\n    /* \"#utility.yul\":5232:5253   */\n  mstore\n    /* \"#utility.yul\":5280:5284   */\n  0x20\n    /* \"#utility.yul\":5273:5278   */\n  dup3\n    /* \"#utility.yul\":5269:5285   */\n  add\n    /* \"#utility.yul\":5262:5285   */\n  swap1\n  pop\n    /* \"#utility.yul\":5333:5337   */\n  0x20\n    /* \"#utility.yul\":5325:5331   */\n  dup5\n    /* \"#utility.yul\":5321:5338   */\n  mul\n    /* \"#utility.yul\":5313:5319   */\n  dup4\n    /* \"#utility.yul\":5309:5339   */\n  add\n    /* \"#utility.yul\":5362:5365   */\n  dup6\n    /* \"#utility.yul\":5354:5360   */\n  dup2\n    /* \"#utility.yul\":5351:5366   */\n  gt\n    /* \"#utility.yul\":5348:5470   */\n  iszero\n  tag_122\n  jumpi\n    /* \"#utility.yul\":5381:5460   */\n  tag_123\n  tag_30\n  jump\t// in\ntag_123:\n    /* \"#utility.yul\":5348:5470   */\ntag_122:\n    /* \"#utility.yul\":5496:5502   */\n  dup4\n    /* \"#utility.yul\":5479:5933   */\ntag_124:\n    /* \"#utility.yul\":5513:5519   */\n  dup2\n    /* \"#utility.yul\":5508:5511   */\n  dup2\n    /* \"#utility.yul\":5505:5520   */\n  lt\n    /* \"#utility.yul\":5479:5933   */\n  iszero\n  tag_126\n  jumpi\n    /* \"#utility.yul\":5595:5598   */\n  dup1\n    /* \"#utility.yul\":5589:5599   */\n  mload\n    /* \"#utility.yul\":5631:5649   */\n  0xffffffffffffffff\n    /* \"#utility.yul\":5618:5629   */\n  dup2\n    /* \"#utility.yul\":5615:5650   */\n  gt\n    /* \"#utility.yul\":5612:5734   */\n  iszero\n  tag_127\n  jumpi\n    /* \"#utility.yul\":5653:5732   */\n  tag_128\n  tag_24\n  jump\t// in\ntag_128:\n    /* \"#utility.yul\":5612:5734   */\ntag_127:\n    /* \"#utility.yul\":5777:5788   */\n  dup1\n    /* \"#utility.yul\":5769:5775   */\n  dup7\n    /* \"#utility.yul\":5765:5789   */\n  add\n    /* \"#utility.yul\":5815:5888   */\n  tag_129\n    /* \"#utility.yul\":5884:5887   */\n  dup10\n    /* \"#utility.yul\":5872:5882   */\n  dup3\n    /* \"#utility.yul\":5815:5888   */\n  tag_41\n  jump\t// in\ntag_129:\n    /* \"#utility.yul\":5810:5813   */\n  dup6\n    /* \"#utility.yul\":5803:5889   */\n  mstore\n    /* \"#utility.yul\":5918:5922   */\n  0x20\n    /* \"#utility.yul\":5913:5916   */\n  dup6\n    /* \"#utility.yul\":5909:5923   */\n  add\n    /* \"#utility.yul\":5902:5923   */\n  swap5\n  pop\n    /* \"#utility.yul\":5555:5933   */\n  pop\n  pop\n    /* \"#utility.yul\":5539:5543   */\n  0x20\n    /* \"#utility.yul\":5534:5537   */\n  dup2\n    /* \"#utility.yul\":5530:5544   */\n  add\n    /* \"#utility.yul\":5523:5544   */\n  swap1\n  pop\n    /* \"#utility.yul\":5479:5933   */\n  jump(tag_124)\ntag_126:\n    /* \"#utility.yul\":5483:5504   */\n  pop\n    /* \"#utility.yul\":5072:5939   */\n  pop\n  pop\n    /* \"#utility.yul\":4934:5939   */\n  swap4\n  swap3\n  pop\n  pop\n  pop\n  jump\t// out\n    /* \"#utility.yul\":5980:6415   */\ntag_43:\n    /* \"#utility.yul\":6087:6092   */\n  0x00\n    /* \"#utility.yul\":6136:6139   */\n  dup3\n    /* \"#utility.yul\":6129:6133   */\n  0x1f\n    /* \"#utility.yul\":6121:6127   */\n  dup4\n    /* \"#utility.yul\":6117:6134   */\n  add\n    /* \"#utility.yul\":6113:6140   */\n  slt\n    /* \"#utility.yul\":6103:6225   */\n  tag_131\n  jumpi\n    /* \"#utility.yul\":6144:6223   */\n  tag_132\n  tag_24\n  jump\t// in\ntag_132:\n    /* \"#utility.yul\":6103:6225   */\ntag_131:\n    /* \"#utility.yul\":6254:6260   */\n  dup2\n    /* \"#utility.yul\":6248:6261   */\n  mload\n    /* \"#utility.yul\":6279:6409   */\n  tag_133\n    /* \"#utility.yul\":6405:6408   */\n  dup5\n    /* \"#utility.yul\":6397:6403   */\n  dup3\n    /* \"#utility.yul\":6390:6394   */\n  0x20\n    /* \"#utility.yul\":6382:6388   */\n  dup7\n    /* \"#utility.yul\":6378:6395   */\n  add\n    /* \"#utility.yul\":6279:6409   */\n  tag_42\n  jump\t// in\ntag_133:\n    /* \"#utility.yul\":6270:6409   */\n  swap2\n  pop\n    /* \"#utility.yul\":6093:6415   */\n  pop\n    /* \"#utility.yul\":5980:6415   */\n  swap3\n  swap2\n  pop\n  pop\n  jump\t// out\n    /* \"#utility.yul\":6421:7181   */\ntag_3:\n    /* \"#utility.yul\":6550:6556   */\n  0x00\n    /* \"#utility.yul\":6558:6564   */\n  dup1\n    /* \"#utility.yul\":6607:6609   */\n  0x40\n    /* \"#utility.yul\":6595:6604   */\n  dup4\n    /* \"#utility.yul\":6586:6593   */\n  dup6\n    /* \"#utility.yul\":6582:6605   */\n  sub\n    /* \"#utility.yul\":6578:6610   */\n  slt\n    /* \"#utility.yul\":6575:6694   */\n  iszero\n  tag_135\n  jumpi\n    /* \"#utility.yul\":6613:6692   */\n  tag_136\n  tag_22\n  jump\t// in\ntag_136:\n    /* \"#utility.yul\":6575:6694   */\ntag_135:\n    /* \"#utility.yul\":6754:6755   */\n  0x00\n    /* \"#utility.yul\":6743:6752   */\n  dup4\n    /* \"#utility.yul\":6739:6756   */\n  add\n    /* \"#utility.yul\":6733:6757   */\n  mload\n    /* \"#utility.yul\":6784:6802   */\n  0xffffffffffffffff\n    /* \"#utility.yul\":6776:6782   */\n  dup2\n    /* \"#utility.yul\":6773:6803   */\n  gt\n    /* \"#utility.yul\":6770:6887   */\n  iszero\n  tag_137\n  jumpi\n    /* \"#utility.yul\":6806:6885   */\n  tag_138\n  tag_23\n  jump\t// in\ntag_138:\n    /* \"#utility.yul\":6770:6887   */\ntag_137:\n    /* \"#utility.yul\":6911:7025   */\n  tag_139\n    /* \"#utility.yul\":7017:7024   */\n  dup6\n    /* \"#utility.yul\":7008:7014   */\n  dup3\n    /* \"#utility.yul\":6997:7006   */\n  dup7\n    /* \"#utility.yul\":6993:7015   */\n  add\n    /* \"#utility.yul\":6911:7025   */\n  tag_43\n  jump\t// in\ntag_139:\n    /* \"#utility.yul\":6901:7025   */\n  swap3\n  pop\n    /* \"#utility.yul\":6704:7035   */\n  pop\n    /* \"#utility.yul\":7074:7076   */\n  0x20\n    /* \"#utility.yul\":7100:7164   */\n  tag_140\n    /* \"#utility.yul\":7156:7163   */\n  dup6\n    /* \"#utility.yul\":7147:7153   */\n  dup3\n    /* \"#utility.yul\":7136:7145   */\n  dup7\n    /* \"#utility.yul\":7132:7154   */\n  add\n    /* \"#utility.yul\":7100:7164   */\n  tag_40\n  jump\t// in\ntag_140:\n    /* \"#utility.yul\":7090:7164   */\n  swap2\n  pop\n    /* \"#utility.yul\":7045:7174   */\n  pop\n    /* \"#utility.yul\":6421:7181   */\n  swap3\n  pop\n  swap3\n  swap1\n  pop\n  jump\t// out\n    /* \"#utility.yul\":7187:7367   */\ntag_11:\n    /* \"#utility.yul\":7235:7312   */\n  0x4e487b7100000000000000000000000000000000000000000000000000000000\n    /* \"#utility.yul\":7232:7233   */\n  0x00\n    /* \"#utility.yul\":7225:7313   */\n  mstore\n    /* \"#utility.yul\":7332:7336   */\n  0x32\n    /* \"#utility.yul\":7329:7330   */\n  0x04\n    /* \"#utility.yul\":7322:7337   */\n  mstore\n    /* \"#utility.yul\":7356:7360   */\n  0x24\n    /* \"#utility.yul\":7353:7354   */\n  0x00\n    /* \"#utility.yul\":7346:7361   */\n  revert\n    /* \"#utility.yul\":7373:7472   */\ntag_44:\n    /* \"#utility.yul\":7425:7431   */\n  0x00\n    /* \"#utility.yul\":7459:7464   */\n  dup2\n    /* \"#utility.yul\":7453:7465   */\n  mload\n    /* \"#utility.yul\":7443:7465   */\n  swap1\n  pop\n    /* \"#utility.yul\":7373:7472   */\n  swap2\n  swap1\n  pop\n  jump\t// out\n    /* \"#utility.yul\":7478:7658   */\ntag_45:\n    /* \"#utility.yul\":7526:7603   */\n  0x4e487b7100000000000000000000000000000000000000000000000000000000\n    /* \"#utility.yul\":7523:7524   */\n  0x00\n    /* \"#utility.yul\":7516:7604   */\n  mstore\n    /* \"#utility.yul\":7623:7627   */\n  0x22\n    /* \"#utility.yul\":7620:7621   */\n  0x04\n    /* \"#utility.yul\":7613:7628   */\n  mstore\n    /* \"#utility.yul\":7647:7651   */\n  0x24\n    /* \"#utility.yul\":7644:7645   */\n  0x00\n    /* \"#utility.yul\":7637:7652   */\n  revert\n    /* \"#utility.yul\":7664:7984   */\ntag_46:\n    /* \"#utility.yul\":7708:7714   */\n  0x00\n    /* \"#utility.yul\":7745:7746   */\n  0x02\n    /* \"#utility.yul\":7739:7743   */\n  dup3\n    /* \"#utility.yul\":7735:7747   */\n  div\n    /* \"#utility.yul\":7725:7747   */\n  swap1\n  pop\n    /* \"#utility.yul\":7792:7793   */\n  0x01\n    /* \"#utility.yul\":7786:7790   */\n  dup3\n    /* \"#utility.yul\":7782:7794   */\n  and\n    /* \"#utility.yul\":7813:7831   */\n  dup1\n    /* \"#utility.yul\":7803:7884   */\n  tag_145\n  jumpi\n    /* \"#utility.yul\":7869:7873   */\n  0x7f\n    /* \"#utility.yul\":7861:7867   */\n  dup3\n    /* \"#utility.yul\":7857:7874   */\n  and\n    /* \"#utility.yul\":7847:7874   */\n  swap2\n  pop\n    /* \"#utility.yul\":7803:7884   */\ntag_145:\n    /* \"#utility.yul\":7931:7933   */\n  0x20\n    /* \"#utility.yul\":7923:7929   */\n  dup3\n    /* \"#utility.yul\":7920:7934   */\n  lt\n    /* \"#utility.yul\":7900:7918   */\n  dup2\n    /* \"#utility.yul\":7897:7935   */\n  sub\n    /* \"#utility.yul\":7894:7978   */\n  tag_146\n  jumpi\n    /* \"#utility.yul\":7950:7968   */\n  tag_147\n  tag_45\n  jump\t// in\ntag_147:\n    /* \"#utility.yul\":7894:7978   */\ntag_146:\n    /* \"#utility.yul\":7715:7984   */\n  pop\n    /* \"#utility.yul\":7664:7984   */\n  swap2\n  swap1\n  pop\n  jump\t// out\n    /* \"#utility.yul\":7990:8131   */\ntag_47:\n    /* \"#utility.yul\":8039:8043   */\n  0x00\n    /* \"#utility.yul\":8062:8065   */\n  dup2\n    /* \"#utility.yul\":8054:8065   */\n  swap1\n  pop\n    /* \"#utility.yul\":8085:8088   */\n  dup2\n    /* \"#utility.yul\":8082:8083   */\n  0x00\n    /* \"#utility.yul\":8075:8089   */\n  mstore\n    /* \"#utility.yul\":8119:8123   */\n  0x20\n    /* \"#utility.yul\":8116:8117   */\n  0x00\n    /* \"#utility.yul\":8106:8124   */\n  keccak256\n    /* \"#utility.yul\":8098:8124   */\n  swap1\n  pop\n    /* \"#utility.yul\":7990:8131   */\n  swap2\n  swap1\n  pop\n  jump\t// out\n    /* \"#utility.yul\":8137:8230   */\ntag_48:\n    /* \"#utility.yul\":8174:8180   */\n  0x00\n    /* \"#utility.yul\":8221:8223   */\n  0x20\n    /* \"#utility.yul\":8216:8218   */\n  0x1f\n    /* \"#utility.yul\":8209:8214   */\n  dup4\n    /* \"#utility.yul\":8205:8219   */\n  add\n    /* \"#utility.yul\":8201:8224   */\n  div\n    /* \"#utility.yul\":8191:8224   */\n  swap1\n  pop\n    /* \"#utility.yul\":8137:8230   */\n  swap2\n  swap1\n  pop\n  jump\t// out\n    /* \"#utility.yul\":8236:8343   */\ntag_49:\n    /* \"#utility.yul\":8280:8288   */\n  0x00\n    /* \"#utility.yul\":8330:8335   */\n  dup3\n    /* \"#utility.yul\":8324:8328   */\n  dup3\n    /* \"#utility.yul\":8320:8336   */\n  shl\n    /* \"#utility.yul\":8299:8336   */\n  swap1\n  pop\n    /* \"#utility.yul\":8236:8343   */\n  swap3\n  swap2\n  pop\n  pop\n  jump\t// out\n    /* \"#utility.yul\":8349:8742   */\ntag_50:\n    /* \"#utility.yul\":8418:8424   */\n  0x00\n    /* \"#utility.yul\":8468:8469   */\n  0x08\n    /* \"#utility.yul\":8456:8466   */\n  dup4\n    /* \"#utility.yul\":8452:8470   */\n  mul\n    /* \"#utility.yul\":8491:8588   */\n  tag_152\n    /* \"#utility.yul\":8521:8587   */\n  0xffffffffffffffffffffffffffffffffffffffffffffffffffffffffffffffff\n    /* \"#utility.yul\":8510:8519   */\n  dup3\n    /* \"#utility.yul\":8491:8588   */\n  tag_49\n  jump\t// in\ntag_152:\n    /* \"#utility.yul\":8609:8648   */\n  tag_153\n    /* \"#utility.yul\":8639:8647   */\n  dup7\n    /* \"#utility.yul\":8628:8637   */\n  dup4\n    /* \"#utility.yul\":8609:8648   */\n  tag_49\n  jump\t// in\ntag_153:\n    /* \"#utility.yul\":8597:8648   */\n  swap6\n  pop\n    /* \"#utility.yul\":8681:8685   */\n  dup1\n    /* \"#utility.yul\":8677:8686   */\n  not\n    /* \"#utility.yul\":8670:8675   */\n  dup5\n    /* \"#utility.yul\":8666:8687   */\n  and\n    /* \"#utility.yul\":8657:8687   */\n  swap4\n  pop\n    /* \"#utility.yul\":8730:8734   */\n  dup1\n    /* \"#utility.yul\":8720:8728   */\n  dup7\n    /* \"#utility.yul\":8716:8735   */\n  and\n    /* \"#utility.yul\":8709:8714   */\n  dup5\n    /* \"#utility.yul\":8706:8736   */\n  or\n    /* \"#utility.yul\":8696:8736   */\n  swap3\n  pop\n    /* \"#utility.yul\":8425:8742   */\n  pop\n  pop\n    /* \"#utility.yul\":8349:8742   */\n  swap4\n  swap3\n  pop\n  pop\n  pop\n  jump\t// out\n    /* \"#utility.yul\":8748:8808   */\ntag_51:\n    /* \"#utility.yul\":8776:8779   */\n  0x00\n    /* \"#utility.yul\":8797:8802   */\n  dup2\n    /* \"#utility.yul\":8790:8802   */\n  swap1\n  pop\n    /* \"#utility.yul\":8748:8808   */\n  swap2\n  swap1\n  pop\n  jump\t// out\n    /* \"#utility.yul\":8814:8956   */\ntag_52:\n    /* \"#utility.yul\":8864:8873   */\n  0x00\n    /* \"#utility.yul\":8897:8950   */\n  tag_156\n    /* \"#utility.yul\":8915:8949   */\n  tag_157\n    /* \"#utility.yul\":8924:8948   */\n  tag_158\n    /* \"#utility.yul\":8942:8947   */\n  dup5\n    /* \"#utility.yul\":8924:8948   */\n  tag_38\n  jump\t// in\ntag_158:\n    /* \"#utility.yul\":8915:8949   */\n  tag_51\n  jump\t// in\ntag_157:\n    /* \"#utility.yul\":8897:8950   */\n  tag_38\n  jump\t// in\ntag_156:\n    /* \"#utility.yul\":8884:8950   */\n  swap1\n  pop\n    /* \"#utility.yul\":8814:8956   */\n  swap2\n  swap1\n  pop\n  jump\t// out\n    /* \"#utility.yul\":8962:9037   */\ntag_53:\n    /* \"#utility.yul\":9005:9008   */\n  0x00\n    /* \"#utility.yul\":9026:9031   */\n  dup2\n    /* \"#utility.yul\":9019:9031   */\n  swap1\n  pop\n    /* \"#utility.yul\":8962:9037   */\n  swap2\n  swap1\n  pop\n  jump\t// out\n    /* \"#utility.yul\":9043:9312   */\ntag_54:\n    /* \"#utility.yul\":9153:9192   */\n  tag_161\n    /* \"#utility.yul\":9184:9191   */\n  dup4\n    /* \"#utility.yul\":9153:9192   */\n  tag_52\n  jump\t// in\ntag_161:\n    /* \"#utility.yul\":9214:9305   */\n  tag_162\n    /* \"#utility.yul\":9263:9304   */\n  tag_163\n    /* \"#utility.yul\":9287:9303   */\n  dup3\n    /* \"#utility.yul\":9263:9304   */\n  tag_53\n  jump\t// in\ntag_163:\n    /* \"#utility.yul\":9255:9261   */\n  dup5\n    /* \"#utility.yul\":9248:9252   */\n  dup5\n    /* \"#utility.yul\":9242:9253   */\n  sload\n    /* \"#utility.yul\":9214:9305   */\n  tag_50\n  jump\t// in\ntag_162:\n    /* \"#utility.yul\":9208:9212   */\n  dup3\n    /* \"#utility.yul\":9201:9306   */\n  sstore\n    /* \"#utility.yul\":9119:9312   */\n  pop\n    /* \"#utility.yul\":9043:9312   */\n  pop\n  pop\n  pop\n  jump\t// out\n    /* \"#utility.yul\":9318:9391   */\ntag_55:\n    /* \"#utility.yul\":9363:9366   */\n  0x00\n    /* \"#utility.yul\":9318:9391   */\n  swap1\n  jump\t// out\n    /* \"#utility.yul\":9397:9586   */\ntag_56:\n    /* \"#utility.yul\":9474:9506   */\n  tag_166\n  tag_55\n  jump\t// in\ntag_166:\n    /* \"#utility.yul\":9515:9580   */\n  tag_167\n    /* \"#utility.yul\":9573:9579   */\n  dup2\n    /* \"#utility.yul\":9565:9571   */\n  dup5\n    /* \"#utility.yul\":9559:9563   */\n  dup5\n    /* \"#utility.yul\":9515:9580   */\n  tag_54\n  jump\t// in\ntag_167:\n    /* \"#utility.yul\":9450:9586   */\n  pop\n    /* \"#utility.yul\":9397:9586   */\n  pop\n  pop\n  jump\t// out\n    /* \"#utility.yul\":9592:9778   */\ntag_57:\n    /* \"#utility.yul\":9652:9772   */\ntag_169:\n    /* \"#utility.yul\":9669:9672   */\n  dup2\n    /* \"#utility.yul\":9662:9667   */\n  dup2\n    /* \"#utility.yul\":9659:9673   */\n  lt\n    /* \"#utility.yul\":9652:9772   */\n  iszero\n  tag_171\n  jumpi\n    /* \"#utility.yul\":9723:9762   */\n  tag_172\n    /* \"#utility.yul\":9760:9761   */\n  0x00\n    /* \"#utility.yul\":9753:9758   */\n  dup3\n    /* \"#utility.yul\":9723:9762   */\n  tag_56\n  jump\t// in\ntag_172:\n    /* \"#utility.yul\":9696:9697   */\n  0x01\n    /* \"#utility.yul\":9689:9694   */\n  dup2\n    /* \"#utility.yul\":9685:9698   */\n  add\n    /* \"#utility.yul\":9676:9698   */\n  swap1\n  pop\n    /* \"#utility.yul\":9652:9772   */\n  jump(tag_169)\ntag_171:\n    /* \"#utility.yul\":9592:9778   */\n  pop\n  pop\n  jump\t// out\n    /* \"#utility.yul\":9784:10327   */\ntag_58:\n    /* \"#utility.yul\":9885:9887   */\n  0x1f\n    /* \"#utility.yul\":9880:9883   */\n  dup3\n    /* \"#utility.yul\":9877:9888   */\n  gt\n    /* \"#utility.yul\":9874:10320   */\n  iszero\n  tag_174\n  jumpi\n    /* \"#utility.yul\":9919:9957   */\n  tag_175\n    /* \"#utility.yul\":9951:9956   */\n  dup2\n    /* \"#utility.yul\":9919:9957   */\n  tag_47\n  jump\t// in\ntag_175:\n    /* \"#utility.yul\":10003:10032   */\n  tag_176\n    /* \"#utility.yul\":10021:10031   */\n  dup5\n    /* \"#utility.yul\":10003:10032   */\n  tag_48\n  jump\t// in\ntag_176:\n    /* \"#utility.yul\":9993:10001   */\n  dup2\n    /* \"#utility.yul\":9989:10033   */\n  add\n    /* \"#utility.yul\":10186:10188   */\n  0x20\n    /* \"#utility.yul\":10174:10184   */\n  dup6\n    /* \"#utility.yul\":10171:10189   */\n  lt\n    /* \"#utility.yul\":10168:10217   */\n  iszero\n  tag_177\n  jumpi\n    /* \"#utility.yul\":10207:10215   */\n  dup2\n    /* \"#utility.yul\":10192:10215   */\n  swap1\n  pop\n    /* \"#utility.yul\":10168:10217   */\ntag_177:\n    /* \"#utility.yul\":10230:10310   */\n  tag_178\n    /* \"#utility.yul\":10286:10308   */\n  tag_179\n    /* \"#utility.yul\":10304:10307   */\n  dup6\n    /* \"#utility.yul\":10286:10308   */\n  tag_48\n  jump\t// in\ntag_179:\n    /* \"#utility.yul\":10276:10284   */\n  dup4\n    /* \"#utility.yul\":10272:10309   */\n  add\n    /* \"#utility.yul\":10259:10270   */\n  dup3\n    /* \"#utility.yul\":10230:10310   */\n  tag_57\n  jump\t// in\ntag_178:\n    /* \"#utility.yul\":9889:10320   */\n  pop\n  pop\n    /* \"#utility.yul\":9874:10320   */\ntag_174:\n    /* \"#utility.yul\":9784:10327   */\n  pop\n  pop\n  pop\n  jump\t// out\n    /* \"#utility.yul\":10333:10450   */\ntag_59:\n    /* \"#utility.yul\":10387:10395   */\n  0x00\n    /* \"#utility.yul\":10437:10442   */\n  dup3\n    /* \"#utility.yul\":10431:10435   */\n  dup3\n    /* \"#utility.yul\":10427:10443   */\n  shr\n    /* \"#utility.yul\":10406:10443   */\n  swap1\n  pop\n    /* \"#utility.yul\":10333:10450   */\n  swap3\n  swap2\n  pop\n  pop\n  jump\t// out\n    /* \"#utility.yul\":10456:10625   */\ntag_60:\n    /* \"#utility.yul\":10500:10506   */\n  0x00\n    /* \"#utility.yul\":10533:10584   */\n  tag_182\n    /* \"#utility.yul\":10581:10582   */\n  0x00\n    /* \"#utility.yul\":10577:10583   */\n  not\n    /* \"#utility.yul\":10569:10574   */\n  dup5\n    /* \"#utility.yul\":10566:10567   */\n  0x08\n    /* \"#utility.yul\":10562:10575   */\n  mul\n    /* \"#utility.yul\":10533:10584   */\n  tag_59\n  jump\t// in\ntag_182:\n    /* \"#utility.yul\":10529:10585   */\n  not\n    /* \"#utility.yul\":10614:10618   */\n  dup1\n    /* \"#utility.yul\":10608:10612   */\n  dup4\n    /* \"#utility.yul\":10604:10619   */\n  and\n    /* \"#utility.yul\":10594:10619   */\n  swap2\n  pop\n    /* \"#utility.yul\":10507:10625   */\n  pop\n    /* \"#utility.yul\":10456:10625   */\n  swap3\n  swap2\n  pop\n  pop\n  jump\t// out\n    /* \"#utility.yul\":10630:10925   */\ntag_61:\n    /* \"#utility.yul\":10706:10710   */\n  0x00\n    /* \"#utility.yul\":10852:10881   */\n  tag_184\n    /* \"#utility.yul\":10877:10880   */\n  dup4\n    /* \"#utility.yul\":10871:10875   */\n  dup4\n    /* \"#utility.yul\":10852:10881   */\n  tag_60\n  jump\t// in\ntag_184:\n    /* \"#utility.yul\":10844:10881   */\n  swap2\n  pop\n    /* \"#utility.yul\":10914:10917   */\n  dup3\n    /* \"#utility.yul\":10911:10912   */\n  0x02\n    /* \"#utility.yul\":10907:10918   */\n  mul\n    /* \"#utility.yul\":10901:10905   */\n  dup3\n    /* \"#utility.yul\":10898:10919   */\n  or\n    /* \"#utility.yul\":10890:10919   */\n  swap1\n  pop\n    /* \"#utility.yul\":10630:10925   */\n  swap3\n  swap2\n  pop\n  pop\n  jump\t// out\n    /* \"#utility.yul\":10930:12325   */\ntag_16:\n    /* \"#utility.yul\":11047:11084   */\n  tag_186\n    /* \"#utility.yul\":11080:11083   */\n  dup3\n    /* \"#utility.yul\":11047:11084   */\n  tag_44\n  jump\t// in\ntag_186:\n    /* \"#utility.yul\":11149:11167   */\n  0xffffffffffffffff\n    /* \"#utility.yul\":11141:11147   */\n  dup2\n    /* \"#utility.yul\":11138:11168   */\n  gt\n    /* \"#utility.yul\":11135:11191   */\n  iszero\n  tag_187\n  jumpi\n    /* \"#utility.yul\":11171:11189   */\n  tag_188\n  tag_26\n  jump\t// in\ntag_188:\n    /* \"#utility.yul\":11135:11191   */\ntag_187:\n    /* \"#utility.yul\":11215:11253   */\n  tag_189\n    /* \"#utility.yul\":11247:11251   */\n  dup3\n    /* \"#utility.yul\":11241:11252   */\n  sload\n    /* \"#utility.yul\":11215:11253   */\n  tag_46\n  jump\t// in\ntag_189:\n    /* \"#utility.yul\":11300:11367   */\n  tag_190\n    /* \"#utility.yul\":11360:11366   */\n  dup3\n    /* \"#utility.yul\":11352:11358   */\n  dup3\n    /* \"#utility.yul\":11346:11350   */\n  dup6\n    /* \"#utility.yul\":11300:11367   */\n  tag_58\n  jump\t// in\ntag_190:\n    /* \"#utility.yul\":11394:11395   */\n  0x00\n    /* \"#utility.yul\":11418:11422   */\n  0x20\n    /* \"#utility.yul\":11405:11422   */\n  swap1\n  pop\n    /* \"#utility.yul\":11450:11452   */\n  0x1f\n    /* \"#utility.yul\":11442:11448   */\n  dup4\n    /* \"#utility.yul\":11439:11453   */\n  gt\n    /* \"#utility.yul\":11467:11468   */\n  0x01\n    /* \"#utility.yul\":11462:12080   */\n  dup2\n  eq\n  tag_192\n  jumpi\n    /* \"#utility.yul\":12124:12125   */\n  0x00\n    /* \"#utility.yul\":12141:12147   */\n  dup5\n    /* \"#utility.yul\":12138:12215   */\n  iszero\n  tag_193\n  jumpi\n    /* \"#utility.yul\":12190:12199   */\n  dup3\n    /* \"#utility.yul\":12185:12188   */\n  dup8\n    /* \"#utility.yul\":12181:12200   */\n  add\n    /* \"#utility.yul\":12175:12201   */\n  mload\n    /* \"#utility.yul\":12166:12201   */\n  swap1\n  pop\n    /* \"#utility.yul\":12138:12215   */\ntag_193:\n    /* \"#utility.yul\":12241:12308   */\n  tag_194\n    /* \"#utility.yul\":12301:12307   */\n  dup6\n    /* \"#utility.yul\":12294:12299   */\n  dup3\n    /* \"#utility.yul\":12241:12308   */\n  tag_61\n  jump\t// in\ntag_194:\n    /* \"#utility.yul\":12235:12239   */\n  dup7\n    /* \"#utility.yul\":12228:12309   */\n  sstore\n    /* \"#utility.yul\":12097:12319   */\n  pop\n    /* \"#utility.yul\":11432:12319   */\n  jump(tag_191)\n    /* \"#utility.yul\":11462:12080   */\ntag_192:\n    /* \"#utility.yul\":11514:11518   */\n  0x1f\n    /* \"#utility.yul\":11510:11519   */\n  not\n    /* \"#utility.yul\":11502:11508   */\n  dup5\n    /* \"#utility.yul\":11498:11520   */\n  and\n    /* \"#utility.yul\":11548:11585   */\n  tag_195\n    /* \"#utility.yul\":11580:11584   */\n  dup7\n    /* \"#utility.yul\":11548:11585   */\n  tag_47\n  jump\t// in\ntag_195:\n    /* \"#utility.yul\":11607:11608   */\n  0x00\n    /* \"#utility.yul\":11621:11829   */\ntag_196:\n    /* \"#utility.yul\":11635:11642   */\n  dup3\n    /* \"#utility.yul\":11632:11633   */\n  dup2\n    /* \"#utility.yul\":11629:11643   */\n  lt\n    /* \"#utility.yul\":11621:11829   */\n  iszero\n  tag_198\n  jumpi\n    /* \"#utility.yul\":11714:11723   */\n  dup5\n    /* \"#utility.yul\":11709:11712   */\n  dup10\n    /* \"#utility.yul\":11705:11724   */\n  add\n    /* \"#utility.yul\":11699:11725   */\n  mload\n    /* \"#utility.yul\":11691:11697   */\n  dup3\n    /* \"#utility.yul\":11684:11726   */\n  sstore\n    /* \"#utility.yul\":11765:11766   */\n  0x01\n    /* \"#utility.yul\":11757:11763   */\n  dup3\n    /* \"#utility.yul\":11753:11767   */\n  add\n    /* \"#utility.yul\":11743:11767   */\n  swap2\n  pop\n    /* \"#utility.yul\":11812:11814   */\n  0x20\n    /* \"#utility.yul\":11801:11810   */\n  dup6\n    /* \"#utility.yul\":11797:11815   */\n  add\n    /* \"#utility.yul\":11784:11815   */\n  swap5\n  pop\n    /* \"#utility.yul\":11658:11662   */\n  0x20\n    /* \"#utility.yul\":11655:11656   */\n  dup2\n    /* \"#utility.yul\":11651:11663   */\n  add\n    /* \"#utility.yul\":11646:11663   */\n  swap1\n  pop\n    /* \"#utility.yul\":11621:11829   */\n  jump(tag_196)\ntag_198:\n    /* \"#utility.yul\":11857:11863   */\n  dup7\n    /* \"#utility.yul\":11848:11855   */\n  dup4\n    /* \"#utility.yul\":11845:11864   */\n  lt\n    /* \"#utility.yul\":11842:12021   */\n  iszero\n  tag_199\n  jumpi\n    /* \"#utility.yul\":11915:11924   */\n  dup5\n    /* \"#utility.yul\":11910:11913   */\n  dup10\n    /* \"#utility.yul\":11906:11925   */\n  add\n    /* \"#utility.yul\":11900:11926   */\n  mload\n    /* \"#utility.yul\":11958:12006   */\n  tag_200\n    /* \"#utility.yul\":12000:12004   */\n  0x1f\n    /* \"#utility.yul\":11992:11998   */\n  dup10\n    /* \"#utility.yul\":11988:12005   */\n  and\n    /* \"#utility.yul\":11977:11986   */\n  dup3\n    /* \"#utility.yul\":11958:12006   */\n  tag_60\n  jump\t// in\ntag_200:\n    /* \"#utility.yul\":11950:11956   */\n  dup4\n    /* \"#utility.yul\":11943:12007   */\n  sstore\n    /* \"#utility.yul\":11865:12021   */\n  pop\n    /* \"#utility.yul\":11842:12021   */\ntag_199:\n    /* \"#utility.yul\":12067:12068   */\n  0x01\n    /* \"#utility.yul\":12063:12064   */\n  0x02\n    /* \"#utility.yul\":12055:12061   */\n  dup9\n    /* \"#utility.yul\":12051:12065   */\n  mul\n    /* \"#utility.yul\":12047:12069   */\n  add\n    /* \"#utility.yul\":12041:12045   */\n  dup9\n    /* \"#utility.yul\":12034:12070   */\n  sstore\n    /* \"#utility.yul\":11469:12080   */\n  pop\n  pop\n  pop\n    /* \"#utility.yul\":11432:12319   */\ntag_191:\n  pop\n    /* \"#utility.yul\":11022:12325   */\n  pop\n  pop\n  pop\n    /* \"#utility.yul\":10930:12325   */\n  pop\n  pop\n  jump\t// out\n    /* \"#utility.yul\":12331:12511   */\ntag_62:\n    /* \"#utility.yul\":12379:12456   */\n  0x4e487b7100000000000000000000000000000000000000000000000000000000\n    /* \"#utility.yul\":12376:12377   */\n  0x00\n    /* \"#utility.yul\":12369:12457   */\n  mstore\n    /* \"#utility.yul\":12476:12480   */\n  0x11\n    /* \"#utility.yul\":12473:12474   */\n  0x04\n    /* \"#utility.yul\":12466:12481   */\n  mstore\n    /* \"#utility.yul\":12500:12504   */\n  0x24\n    /* \"#utility.yul\":12497:12498   */\n  0x00\n    /* \"#utility.yul\":12490:12505   */\n  revert\n    /* \"#utility.yul\":12517:12750   */\ntag_19:\n    /* \"#utility.yul\":12556:12559   */\n  0x00\n    /* \"#utility.yul\":12579:12603   */\n  tag_203\n    /* \"#utility.yul\":12597:12602   */\n  dup3\n    /* \"#utility.yul\":12579:12603   */\n  tag_38\n  jump\t// in\ntag_203:\n    /* \"#utility.yul\":12570:12603   */\n  swap2\n  pop\n    /* \"#utility.yul\":12625:12691   */\n  0xffffffffffffffffffffffffffffffffffffffffffffffffffffffffffffffff\n    /* \"#utility.yul\":12618:12623   */\n  dup3\n    /* \"#utility.yul\":12615:12692   */\n  sub\n    /* \"#utility.yul\":12612:12715   */\n  tag_204\n  jumpi\n    /* \"#utility.yul\":12695:12713   */\n  tag_205\n  tag_62\n  jump\t// in\ntag_205:\n    /* \"#utility.yul\":12612:12715   */\ntag_204:\n    /* \"#utility.yul\":12742:12743   */\n  0x01\n    /* \"#utility.yul\":12735:12740   */\n  dup3\n    /* \"#utility.yul\":12731:12744   */\n  add\n    /* \"#utility.yul\":12724:12744   */\n  swap1\n  pop\n    /* \"#utility.yul\":12517:12750   */\n  swap2\n  swap1\n  pop\n  jump\t// out\n    /* \"contracts/Ballot/Ballot.sol\":70:4839  contract MyBallot {... */\ntag_20:\n  dataSize(sub_0)\n  dup1\n  dataOffset(sub_0)\n  0x00\n  codecopy\n  0x00\n  return\nstop\n\nsub_0: assembly {\n        /* \"contracts/Ballot/Ballot.sol\":70:4839  contract MyBallot {... */\n      mstore(0x40, 0x80)\n      callvalue\n      dup1\n      iszero\n      tag_1\n      jumpi\n      0x00\n      dup1\n      revert\n    tag_1:\n      pop\n      jumpi(tag_2, lt(calldatasize, 0x04))\n      shr(0xe0, calldataload(0x00))\n      dup1\n      0x954115f2\n      gt\n      tag_20\n      jumpi\n      dup1\n      0xda265430\n      gt\n      tag_21\n      jumpi\n      dup1\n      0xda265430\n      eq\n      tag_15\n      jumpi\n      dup1\n      0xdf703622\n      eq\n      tag_16\n      jumpi\n      dup1\n      0xf0ee4577\n      eq\n      tag_17\n      jumpi\n      dup1\n      0xf927cc29\n      eq\n      tag_18\n      jumpi\n      dup1\n      0xfc36e15b\n      eq\n      tag_19\n      jumpi\n      jump(tag_2)\n    tag_21:\n      dup1\n      0x954115f2\n      eq\n      tag_11\n      jumpi\n      dup1\n      0x9e7b8d61\n      eq\n      tag_12\n      jumpi\n      dup1\n      0xa3ec138d\n      eq\n      tag_13\n      jumpi\n      dup1\n      0xce606ee0\n      eq\n      tag_14\n      jumpi\n      jump(tag_2)\n    tag_20:\n      dup1\n      0x3ddf3822\n      gt\n      tag_22\n      jumpi\n      dup1\n      0x3ddf3822\n      eq\n      tag_7\n      jumpi\n      dup1\n      0x4aba5f34\n      eq\n      tag_8\n      jumpi\n      dup1\n      0x777c3acf\n      eq\n      tag_9\n      jumpi\n      dup1\n      0x94b04e7d\n      eq\n      tag_10\n      jumpi\n      jump(tag_2)\n    tag_22:\n      dup1\n      0x10508439\n      eq\n      tag_3\n      jumpi\n      dup1\n      0x2bfda515\n      eq\n      tag_4\n      jumpi\n      dup1\n      0x32a2c5d0\n      eq\n      tag_5\n      jumpi\n      dup1\n      0x3477ee2e\n      eq\n      tag_6\n      jumpi\n    tag_2:\n      0x00\n      dup1\n      revert\n        /* \"contracts/Ballot/Ballot.sol\":1782:2040  function addCandidateWithSpreadParameters(string memory name, string memory party) public isContractOwnerAddCandidate() {... */\n    tag_3:\n      tag_23\n      0x04\n      dup1\n      calldatasize\n      sub\n      dup2\n      add\n      swap1\n      tag_24\n      swap2\n      swap1\n      tag_25\n      jump\t// in\n    tag_24:\n      tag_26\n      jump\t// in\n    tag_23:\n      stop\n        /* \"contracts/Ballot/Ballot.sol\":2871:3167  function getWinnerName() public view returns (string memory winnerName) {... */\n    tag_4:\n      tag_27\n      tag_28\n      jump\t// in\n    tag_27:\n      mload(0x40)\n      tag_29\n      swap2\n      swap1\n      tag_30\n      jump\t// in\n    tag_29:\n      mload(0x40)\n      dup1\n      swap2\n      sub\n      swap1\n      return\n        /* \"contracts/Ballot/Ballot.sol\":3905:4004  function getContractAddress() public view returns (address) {... */\n    tag_5:\n      tag_31\n      tag_32\n      jump\t// in\n    tag_31:\n      mload(0x40)\n      tag_33\n      swap2\n      swap1\n      tag_34\n      jump\t// in\n    tag_33:\n      mload(0x40)\n      dup1\n      swap2\n      sub\n      swap1\n      return\n        /* \"contracts/Ballot/Ballot.sol\":362:391  Candidate[] public candidates */\n    tag_6:\n      tag_35\n      0x04\n      dup1\n      calldatasize\n      sub\n      dup2\n      add\n      swap1\n      tag_36\n      swap2\n      swap1\n      tag_37\n      jump\t// in\n    tag_36:\n      tag_38\n      jump\t// in\n    tag_35:\n      mload(0x40)\n      tag_39\n      swap4\n      swap3\n      swap2\n      swap1\n      tag_40\n      jump\t// in\n    tag_39:\n      mload(0x40)\n      dup1\n      swap2\n      sub\n      swap1\n      return\n        /* \"contracts/Ballot/Ballot.sol\":4012:4123  function areYouContractOwner() public view returns (bool) {... */\n    tag_7:\n      tag_41\n      tag_42\n      jump\t// in\n    tag_41:\n      mload(0x40)\n      tag_43\n      swap2\n      swap1\n      tag_44\n      jump\t// in\n    tag_43:\n      mload(0x40)\n      dup1\n      swap2\n      sub\n      swap1\n      return\n        /* \"contracts/Ballot/Ballot.sol\":3791:3897  function getCandidatesList() public view returns (Candidate[] memory) {... */\n    tag_8:\n      tag_45\n      tag_46\n      jump\t// in\n    tag_45:\n      mload(0x40)\n      tag_47\n      swap2\n      swap1\n      tag_48\n      jump\t// in\n    tag_47:\n      mload(0x40)\n      dup1\n      swap2\n      sub\n      swap1\n      return\n        /* \"contracts/Ballot/Ballot.sol\":400:420  uint public maxVotes */\n    tag_9:\n      tag_49\n      tag_50\n      jump\t// in\n    tag_49:\n      mload(0x40)\n      tag_51\n      swap2\n      swap1\n      tag_52\n      jump\t// in\n    tag_51:\n      mload(0x40)\n      dup1\n      swap2\n      sub\n      swap1\n      return\n        /* \"contracts/Ballot/Ballot.sol\":4256:4388  function getVoterRigthToVote(address voterAddress) public view returns (bool) {... */\n    tag_10:\n      tag_53\n      0x04\n      dup1\n      calldatasize\n      sub\n      dup2\n      add\n      swap1\n      tag_54\n      swap2\n      swap1\n      tag_55\n      jump\t// in\n    tag_54:\n      tag_56\n      jump\t// in\n    tag_53:\n      mload(0x40)\n      tag_57\n      swap2\n      swap1\n      tag_44\n      jump\t// in\n    tag_57:\n      mload(0x40)\n      dup1\n      swap2\n      sub\n      swap1\n      return\n        /* \"contracts/Ballot/Ballot.sol\":2048:2194  function addCandidateAsStruct(Candidate memory newCandidate) public isContractOwnerAddCandidate() {... */\n    tag_11:\n      tag_58\n      0x04\n      dup1\n      calldatasize\n      sub\n      dup2\n      add\n      swap1\n      tag_59\n      swap2\n      swap1\n      tag_60\n      jump\t// in\n    tag_59:\n      tag_61\n      jump\t// in\n    tag_58:\n      stop\n        /* \"contracts/Ballot/Ballot.sol\":2206:2352  function giveRightToVote(address voterAddress) public giveRightToVoteModifier(voterAddress) {... */\n    tag_12:\n      tag_62\n      0x04\n      dup1\n      calldatasize\n      sub\n      dup2\n      add\n      swap1\n      tag_63\n      swap2\n      swap1\n      tag_55\n      jump\t// in\n    tag_63:\n      tag_64\n      jump\t// in\n    tag_62:\n      stop\n        /* \"contracts/Ballot/Ballot.sol\":314:353  mapping(address => Voter) public voters */\n    tag_13:\n      tag_65\n      0x04\n      dup1\n      calldatasize\n      sub\n      dup2\n      add\n      swap1\n      tag_66\n      swap2\n      swap1\n      tag_55\n      jump\t// in\n    tag_66:\n      tag_67\n      jump\t// in\n    tag_65:\n      mload(0x40)\n      tag_68\n      swap3\n      swap2\n      swap1\n      tag_69\n      jump\t// in\n    tag_68:\n      mload(0x40)\n      dup1\n      swap2\n      sub\n      swap1\n      return\n        /* \"contracts/Ballot/Ballot.sol\":277:305  address public contractOwner */\n    tag_14:\n      tag_70\n      tag_71\n      jump\t// in\n    tag_70:\n      mload(0x40)\n      tag_72\n      swap2\n      swap1\n      tag_34\n      jump\t// in\n    tag_72:\n      mload(0x40)\n      dup1\n      swap2\n      sub\n      swap1\n      return\n        /* \"contracts/Ballot/Ballot.sol\":4396:4497  function areYouVoted() public view returns (bool) {... */\n    tag_15:\n      tag_73\n      tag_74\n      jump\t// in\n    tag_73:\n      mload(0x40)\n      tag_75\n      swap2\n      swap1\n      tag_44\n      jump\t// in\n    tag_75:\n      mload(0x40)\n      dup1\n      swap2\n      sub\n      swap1\n      return\n        /* \"contracts/Ballot/Ballot.sol\":4131:4248  function areYouHaveRigthToVote() public view returns (bool) {... */\n    tag_16:\n      tag_76\n      tag_77\n      jump\t// in\n    tag_76:\n      mload(0x40)\n      tag_78\n      swap2\n      swap1\n      tag_44\n      jump\t// in\n    tag_78:\n      mload(0x40)\n      dup1\n      swap2\n      sub\n      swap1\n      return\n        /* \"contracts/Ballot/Ballot.sol\":4505:4632  function getVoterVoter(address voterAddress) public view returns (bool) {... */\n    tag_17:\n      tag_79\n      0x04\n      dup1\n      calldatasize\n      sub\n      dup2\n      add\n      swap1\n      tag_80\n      swap2\n      swap1\n      tag_55\n      jump\t// in\n    tag_80:\n      tag_81\n      jump\t// in\n    tag_79:\n      mload(0x40)\n      tag_82\n      swap2\n      swap1\n      tag_44\n      jump\t// in\n    tag_82:\n      mload(0x40)\n      dup1\n      swap2\n      sub\n      swap1\n      return\n        /* \"contracts/Ballot/Ballot.sol\":3175:3783  function getWinningCandidate() public view returns (uint winningProposal, bool isTie) {        ... */\n    tag_18:\n      tag_83\n      tag_84\n      jump\t// in\n    tag_83:\n      mload(0x40)\n      tag_85\n      swap3\n      swap2\n      swap1\n      tag_86\n      jump\t// in\n    tag_85:\n      mload(0x40)\n      dup1\n      swap2\n      sub\n      swap1\n      return\n        /* \"contracts/Ballot/Ballot.sol\":2360:2863  function vote(string memory name) public voteModifier(msg.sender) {... */\n    tag_19:\n      tag_87\n      0x04\n      dup1\n      calldatasize\n      sub\n      dup2\n      add\n      swap1\n      tag_88\n      swap2\n      swap1\n      tag_89\n      jump\t// in\n    tag_88:\n      tag_90\n      jump\t// in\n    tag_87:\n      stop\n        /* \"contracts/Ballot/Ballot.sol\":1782:2040  function addCandidateWithSpreadParameters(string memory name, string memory party) public isContractOwnerAddCandidate() {... */\n    tag_26:\n        /* \"contracts/Ballot/Ballot.sol\":931:952  areYouContractOwner() */\n      tag_92\n        /* \"contracts/Ballot/Ballot.sol\":931:950  areYouContractOwner */\n      tag_42\n        /* \"contracts/Ballot/Ballot.sol\":931:952  areYouContractOwner() */\n      jump\t// in\n    tag_92:\n        /* \"contracts/Ballot/Ballot.sol\":909:1023  require(... */\n      tag_93\n      jumpi\n      mload(0x40)\n      0x08c379a000000000000000000000000000000000000000000000000000000000\n      dup2\n      mstore\n      0x04\n      add\n      tag_94\n      swap1\n      tag_95\n      jump\t// in\n    tag_94:\n      mload(0x40)\n      dup1\n      swap2\n      sub\n      swap1\n      revert\n    tag_93:\n        /* \"contracts/Ballot/Ballot.sol\":1913:1923  candidates */\n      0x02\n        /* \"contracts/Ballot/Ballot.sol\":1929:2031  Candidate({... */\n      mload(0x40)\n      dup1\n      0x60\n      add\n      0x40\n      mstore\n      dup1\n        /* \"contracts/Ballot/Ballot.sol\":1960:1964  name */\n      dup5\n        /* \"contracts/Ballot/Ballot.sol\":1929:2031  Candidate({... */\n      dup2\n      mstore\n      0x20\n      add\n        /* \"contracts/Ballot/Ballot.sol\":1986:1991  party */\n      dup4\n        /* \"contracts/Ballot/Ballot.sol\":1929:2031  Candidate({... */\n      dup2\n      mstore\n      0x20\n      add\n        /* \"contracts/Ballot/Ballot.sol\":2018:2019  0 */\n      0x00\n        /* \"contracts/Ballot/Ballot.sol\":1929:2031  Candidate({... */\n      dup2\n      mstore\n      pop\n        /* \"contracts/Ballot/Ballot.sol\":1913:2032  candidates.push(Candidate({... */\n      swap1\n      dup1\n      0x01\n      dup2\n      sload\n      add\n      dup1\n      dup3\n      sstore\n      dup1\n      swap2\n      pop\n      pop\n      0x01\n      swap1\n      sub\n      swap1\n      0x00\n      mstore\n      keccak256(0x00, 0x20)\n      swap1\n      0x03\n      mul\n      add\n      0x00\n      swap1\n      swap2\n      swap1\n      swap2\n      swap1\n      swap2\n      pop\n      0x00\n      dup3\n      add\n      mload\n      dup2\n      0x00\n      add\n      swap1\n      dup2\n      tag_98\n      swap2\n      swap1\n      tag_99\n      jump\t// in\n    tag_98:\n      pop\n      0x20\n      dup3\n      add\n      mload\n      dup2\n      0x01\n      add\n      swap1\n      dup2\n      tag_100\n      swap2\n      swap1\n      tag_99\n      jump\t// in\n    tag_100:\n      pop\n      0x40\n      dup3\n      add\n      mload\n      dup2\n      0x02\n      add\n      sstore\n      pop\n      pop\n        /* \"contracts/Ballot/Ballot.sol\":1782:2040  function addCandidateWithSpreadParameters(string memory name, string memory party) public isContractOwnerAddCandidate() {... */\n      pop\n      pop\n      jump\t// out\n        /* \"contracts/Ballot/Ballot.sol\":2871:3167  function getWinnerName() public view returns (string memory winnerName) {... */\n    tag_28:\n        /* \"contracts/Ballot/Ballot.sol\":2917:2941  string memory winnerName */\n      0x60\n        /* \"contracts/Ballot/Ballot.sol\":2955:2975  uint winningProposal */\n      0x00\n        /* \"contracts/Ballot/Ballot.sol\":2977:2987  bool isTie */\n      dup1\n        /* \"contracts/Ballot/Ballot.sol\":2991:3012  getWinningCandidate() */\n      tag_102\n        /* \"contracts/Ballot/Ballot.sol\":2991:3010  getWinningCandidate */\n      tag_84\n        /* \"contracts/Ballot/Ballot.sol\":2991:3012  getWinningCandidate() */\n      jump\t// in\n    tag_102:\n        /* \"contracts/Ballot/Ballot.sol\":2954:3012  (uint winningProposal, bool isTie) = getWinningCandidate() */\n      swap2\n      pop\n      swap2\n      pop\n        /* \"contracts/Ballot/Ballot.sol\":3046:3051  isTie */\n      dup1\n        /* \"contracts/Ballot/Ballot.sol\":3045:3051  !isTie */\n      iszero\n        /* \"contracts/Ballot/Ballot.sol\":3023:3103  require(... */\n      tag_103\n      jumpi\n      mload(0x40)\n      0x08c379a000000000000000000000000000000000000000000000000000000000\n      dup2\n      mstore\n      0x04\n      add\n      tag_104\n      swap1\n      tag_105\n      jump\t// in\n    tag_104:\n      mload(0x40)\n      dup1\n      swap2\n      sub\n      swap1\n      revert\n    tag_103:\n        /* \"contracts/Ballot/Ballot.sol\":3127:3137  candidates */\n      0x02\n        /* \"contracts/Ballot/Ballot.sol\":3138:3153  winningProposal */\n      dup3\n        /* \"contracts/Ballot/Ballot.sol\":3127:3154  candidates[winningProposal] */\n      dup2\n      sload\n      dup2\n      lt\n      tag_106\n      jumpi\n      tag_107\n      tag_108\n      jump\t// in\n    tag_107:\n    tag_106:\n      swap1\n      0x00\n      mstore\n      keccak256(0x00, 0x20)\n      swap1\n      0x03\n      mul\n      add\n        /* \"contracts/Ballot/Ballot.sol\":3127:3159  candidates[winningProposal].name */\n      0x00\n      add\n        /* \"contracts/Ballot/Ballot.sol\":3114:3159  winnerName = candidates[winningProposal].name */\n      dup1\n      sload\n      tag_110\n      swap1\n      tag_111\n      jump\t// in\n    tag_110:\n      dup1\n      0x1f\n      add\n      0x20\n      dup1\n      swap2\n      div\n      mul\n      0x20\n      add\n      mload(0x40)\n      swap1\n      dup2\n      add\n      0x40\n      mstore\n      dup1\n      swap3\n      swap2\n      swap1\n      dup2\n      dup2\n      mstore\n      0x20\n      add\n      dup3\n      dup1\n      sload\n      tag_112\n      swap1\n      tag_111\n      jump\t// in\n    tag_112:\n      dup1\n      iszero\n      tag_113\n      jumpi\n      dup1\n      0x1f\n      lt\n      tag_114\n      jumpi\n      0x0100\n      dup1\n      dup4\n      sload\n      div\n      mul\n      dup4\n      mstore\n      swap2\n      0x20\n      add\n      swap2\n      jump(tag_113)\n    tag_114:\n      dup3\n      add\n      swap2\n      swap1\n      0x00\n      mstore\n      keccak256(0x00, 0x20)\n      swap1\n    tag_115:\n      dup2\n      sload\n      dup2\n      mstore\n      swap1\n      0x01\n      add\n      swap1\n      0x20\n      add\n      dup1\n      dup4\n      gt\n      tag_115\n      jumpi\n      dup3\n      swap1\n      sub\n      0x1f\n      and\n      dup3\n      add\n      swap2\n    tag_113:\n      pop\n      pop\n      pop\n      pop\n      pop\n      swap3\n      pop\n        /* \"contracts/Ballot/Ballot.sol\":2943:3167  {... */\n      pop\n      pop\n        /* \"contracts/Ballot/Ballot.sol\":2871:3167  function getWinnerName() public view returns (string memory winnerName) {... */\n      swap1\n      jump\t// out\n        /* \"contracts/Ballot/Ballot.sol\":3905:4004  function getContractAddress() public view returns (address) {... */\n    tag_32:\n        /* \"contracts/Ballot/Ballot.sol\":3956:3963  address */\n      0x00\n        /* \"contracts/Ballot/Ballot.sol\":3991:3995  this */\n      address\n        /* \"contracts/Ballot/Ballot.sol\":3976:3996  return address(this) */\n      swap1\n      pop\n        /* \"contracts/Ballot/Ballot.sol\":3905:4004  function getContractAddress() public view returns (address) {... */\n      swap1\n      jump\t// out\n        /* \"contracts/Ballot/Ballot.sol\":362:391  Candidate[] public candidates */\n    tag_38:\n      0x02\n      dup2\n      dup2\n      sload\n      dup2\n      lt\n      tag_117\n      jumpi\n      0x00\n      dup1\n      revert\n    tag_117:\n      swap1\n      0x00\n      mstore\n      keccak256(0x00, 0x20)\n      swap1\n      0x03\n      mul\n      add\n      0x00\n      swap2\n      pop\n      swap1\n      pop\n      dup1\n      0x00\n      add\n      dup1\n      sload\n      tag_119\n      swap1\n      tag_111\n      jump\t// in\n    tag_119:\n      dup1\n      0x1f\n      add\n      0x20\n      dup1\n      swap2\n      div\n      mul\n      0x20\n      add\n      mload(0x40)\n      swap1\n      dup2\n      add\n      0x40\n      mstore\n      dup1\n      swap3\n      swap2\n      swap1\n      dup2\n      dup2\n      mstore\n      0x20\n      add\n      dup3\n      dup1\n      sload\n      tag_120\n      swap1\n      tag_111\n      jump\t// in\n    tag_120:\n      dup1\n      iszero\n      tag_121\n      jumpi\n      dup1\n      0x1f\n      lt\n      tag_122\n      jumpi\n      0x0100\n      dup1\n      dup4\n      sload\n      div\n      mul\n      dup4\n      mstore\n      swap2\n      0x20\n      add\n      swap2\n      jump(tag_121)\n    tag_122:\n      dup3\n      add\n      swap2\n      swap1\n      0x00\n      mstore\n      keccak256(0x00, 0x20)\n      swap1\n    tag_123:\n      dup2\n      sload\n      dup2\n      mstore\n      swap1\n      0x01\n      add\n      swap1\n      0x20\n      add\n      dup1\n      dup4\n      gt\n      tag_123\n      jumpi\n      dup3\n      swap1\n      sub\n      0x1f\n      and\n      dup3\n      add\n      swap2\n    tag_121:\n      pop\n      pop\n      pop\n      pop\n      pop\n      swap1\n      dup1\n      0x01\n      add\n      dup1\n      sload\n      tag_124\n      swap1\n      tag_111\n      jump\t// in\n    tag_124:\n      dup1\n      0x1f\n      add\n      0x20\n      dup1\n      swap2\n      div\n      mul\n      0x20\n      add\n      mload(0x40)\n      swap1\n      dup2\n      add\n      0x40\n      mstore\n      dup1\n      swap3\n      swap2\n      swap1\n      dup2\n      dup2\n      mstore\n      0x20\n      add\n      dup3\n      dup1\n      sload\n      tag_125\n      swap1\n      tag_111\n      jump\t// in\n    tag_125:\n      dup1\n      iszero\n      tag_126\n      jumpi\n      dup1\n      0x1f\n      lt\n      tag_127\n      jumpi\n      0x0100\n      dup1\n      dup4\n      sload\n      div\n      mul\n      dup4\n      mstore\n      swap2\n      0x20\n      add\n      swap2\n      jump(tag_126)\n    tag_127:\n      dup3\n      add\n      swap2\n      swap1\n      0x00\n      mstore\n      keccak256(0x00, 0x20)\n      swap1\n    tag_128:\n      dup2\n      sload\n      dup2\n      mstore\n      swap1\n      0x01\n      add\n      swap1\n      0x20\n      add\n      dup1\n      dup4\n      gt\n      tag_128\n      jumpi\n      dup3\n      swap1\n      sub\n      0x1f\n      and\n      dup3\n      add\n      swap2\n    tag_126:\n      pop\n      pop\n      pop\n      pop\n      pop\n      swap1\n      dup1\n      0x02\n      add\n      sload\n      swap1\n      pop\n      dup4\n      jump\t// out\n        /* \"contracts/Ballot/Ballot.sol\":4012:4123  function areYouContractOwner() public view returns (bool) {... */\n    tag_42:\n        /* \"contracts/Ballot/Ballot.sol\":4064:4068  bool */\n      0x00\n        /* \"contracts/Ballot/Ballot.sol\":4102:4115  contractOwner */\n      dup1\n      0x00\n      swap1\n      sload\n      swap1\n      0x0100\n      exp\n      swap1\n      div\n      0xffffffffffffffffffffffffffffffffffffffff\n      and\n        /* \"contracts/Ballot/Ballot.sol\":4088:4115  msg.sender == contractOwner */\n      0xffffffffffffffffffffffffffffffffffffffff\n      and\n        /* \"contracts/Ballot/Ballot.sol\":4088:4098  msg.sender */\n      caller\n        /* \"contracts/Ballot/Ballot.sol\":4088:4115  msg.sender == contractOwner */\n      0xffffffffffffffffffffffffffffffffffffffff\n      and\n      eq\n        /* \"contracts/Ballot/Ballot.sol\":4081:4115  return msg.sender == contractOwner */\n      swap1\n      pop\n        /* \"contracts/Ballot/Ballot.sol\":4012:4123  function areYouContractOwner() public view returns (bool) {... */\n      swap1\n      jump\t// out\n        /* \"contracts/Ballot/Ballot.sol\":3791:3897  function getCandidatesList() public view returns (Candidate[] memory) {... */\n    tag_46:\n        /* \"contracts/Ballot/Ballot.sol\":3841:3859  Candidate[] memory */\n      0x60\n        /* \"contracts/Ballot/Ballot.sol\":3879:3889  candidates */\n      0x02\n        /* \"contracts/Ballot/Ballot.sol\":3872:3889  return candidates */\n      dup1\n      sload\n      dup1\n      0x20\n      mul\n      0x20\n      add\n      mload(0x40)\n      swap1\n      dup2\n      add\n      0x40\n      mstore\n      dup1\n      swap3\n      swap2\n      swap1\n      dup2\n      dup2\n      mstore\n      0x20\n      add\n      0x00\n      swap1\n    tag_131:\n      dup3\n      dup3\n      lt\n      iszero\n      tag_132\n      jumpi\n      dup4\n      dup3\n      swap1\n      0x00\n      mstore\n      keccak256(0x00, 0x20)\n      swap1\n      0x03\n      mul\n      add\n      mload(0x40)\n      dup1\n      0x60\n      add\n      0x40\n      mstore\n      swap1\n      dup2\n      0x00\n      dup3\n      add\n      dup1\n      sload\n      tag_134\n      swap1\n      tag_111\n      jump\t// in\n    tag_134:\n      dup1\n      0x1f\n      add\n      0x20\n      dup1\n      swap2\n      div\n      mul\n      0x20\n      add\n      mload(0x40)\n      swap1\n      dup2\n      add\n      0x40\n      mstore\n      dup1\n      swap3\n      swap2\n      swap1\n      dup2\n      dup2\n      mstore\n      0x20\n      add\n      dup3\n      dup1\n      sload\n      tag_135\n      swap1\n      tag_111\n      jump\t// in\n    tag_135:\n      dup1\n      iszero\n      tag_136\n      jumpi\n      dup1\n      0x1f\n      lt\n      tag_137\n      jumpi\n      0x0100\n      dup1\n      dup4\n      sload\n      div\n      mul\n      dup4\n      mstore\n      swap2\n      0x20\n      add\n      swap2\n      jump(tag_136)\n    tag_137:\n      dup3\n      add\n      swap2\n      swap1\n      0x00\n      mstore\n      keccak256(0x00, 0x20)\n      swap1\n    tag_138:\n      dup2\n      sload\n      dup2\n      mstore\n      swap1\n      0x01\n      add\n      swap1\n      0x20\n      add\n      dup1\n      dup4\n      gt\n      tag_138\n      jumpi\n      dup3\n      swap1\n      sub\n      0x1f\n      and\n      dup3\n      add\n      swap2\n    tag_136:\n      pop\n      pop\n      pop\n      pop\n      pop\n      dup2\n      mstore\n      0x20\n      add\n      0x01\n      dup3\n      add\n      dup1\n      sload\n      tag_139\n      swap1\n      tag_111\n      jump\t// in\n    tag_139:\n      dup1\n      0x1f\n      add\n      0x20\n      dup1\n      swap2\n      div\n      mul\n      0x20\n      add\n      mload(0x40)\n      swap1\n      dup2\n      add\n      0x40\n      mstore\n      dup1\n      swap3\n      swap2\n      swap1\n      dup2\n      dup2\n      mstore\n      0x20\n      add\n      dup3\n      dup1\n      sload\n      tag_140\n      swap1\n      tag_111\n      jump\t// in\n    tag_140:\n      dup1\n      iszero\n      tag_141\n      jumpi\n      dup1\n      0x1f\n      lt\n      tag_142\n      jumpi\n      0x0100\n      dup1\n      dup4\n      sload\n      div\n      mul\n      dup4\n      mstore\n      swap2\n      0x20\n      add\n      swap2\n      jump(tag_141)\n    tag_142:\n      dup3\n      add\n      swap2\n      swap1\n      0x00\n      mstore\n      keccak256(0x00, 0x20)\n      swap1\n    tag_143:\n      dup2\n      sload\n      dup2\n      mstore\n      swap1\n      0x01\n      add\n      swap1\n      0x20\n      add\n      dup1\n      dup4\n      gt\n      tag_143\n      jumpi\n      dup3\n      swap1\n      sub\n      0x1f\n      and\n      dup3\n      add\n      swap2\n    tag_141:\n      pop\n      pop\n      pop\n      pop\n      pop\n      dup2\n      mstore\n      0x20\n      add\n      0x02\n      dup3\n      add\n      sload\n      dup2\n      mstore\n      pop\n      pop\n      dup2\n      mstore\n      0x20\n      add\n      swap1\n      0x01\n      add\n      swap1\n      jump(tag_131)\n    tag_132:\n      pop\n      pop\n      pop\n      pop\n      swap1\n      pop\n        /* \"contracts/Ballot/Ballot.sol\":3791:3897  function getCandidatesList() public view returns (Candidate[] memory) {... */\n      swap1\n      jump\t// out\n        /* \"contracts/Ballot/Ballot.sol\":400:420  uint public maxVotes */\n    tag_50:\n      sload(0x03)\n      dup2\n      jump\t// out\n        /* \"contracts/Ballot/Ballot.sol\":4256:4388  function getVoterRigthToVote(address voterAddress) public view returns (bool) {... */\n    tag_56:\n        /* \"contracts/Ballot/Ballot.sol\":4328:4332  bool */\n      0x00\n        /* \"contracts/Ballot/Ballot.sol\":4352:4358  voters */\n      0x01\n        /* \"contracts/Ballot/Ballot.sol\":4352:4372  voters[voterAddress] */\n      0x00\n        /* \"contracts/Ballot/Ballot.sol\":4359:4371  voterAddress */\n      dup4\n        /* \"contracts/Ballot/Ballot.sol\":4352:4372  voters[voterAddress] */\n      0xffffffffffffffffffffffffffffffffffffffff\n      and\n      0xffffffffffffffffffffffffffffffffffffffff\n      and\n      dup2\n      mstore\n      0x20\n      add\n      swap1\n      dup2\n      mstore\n      0x20\n      add\n      0x00\n      keccak256\n        /* \"contracts/Ballot/Ballot.sol\":4352:4380  voters[voterAddress].canVote */\n      0x00\n      add\n      0x00\n      swap1\n      sload\n      swap1\n      0x0100\n      exp\n      swap1\n      div\n      0xff\n      and\n        /* \"contracts/Ballot/Ballot.sol\":4345:4380  return voters[voterAddress].canVote */\n      swap1\n      pop\n        /* \"contracts/Ballot/Ballot.sol\":4256:4388  function getVoterRigthToVote(address voterAddress) public view returns (bool) {... */\n      swap2\n      swap1\n      pop\n      jump\t// out\n        /* \"contracts/Ballot/Ballot.sol\":2048:2194  function addCandidateAsStruct(Candidate memory newCandidate) public isContractOwnerAddCandidate() {... */\n    tag_61:\n        /* \"contracts/Ballot/Ballot.sol\":931:952  areYouContractOwner() */\n      tag_146\n        /* \"contracts/Ballot/Ballot.sol\":931:950  areYouContractOwner */\n      tag_42\n        /* \"contracts/Ballot/Ballot.sol\":931:952  areYouContractOwner() */\n      jump\t// in\n    tag_146:\n        /* \"contracts/Ballot/Ballot.sol\":909:1023  require(... */\n      tag_147\n      jumpi\n      mload(0x40)\n      0x08c379a000000000000000000000000000000000000000000000000000000000\n      dup2\n      mstore\n      0x04\n      add\n      tag_148\n      swap1\n      tag_95\n      jump\t// in\n    tag_148:\n      mload(0x40)\n      dup1\n      swap2\n      sub\n      swap1\n      revert\n    tag_147:\n        /* \"contracts/Ballot/Ballot.sol\":2157:2167  candidates */\n      0x02\n        /* \"contracts/Ballot/Ballot.sol\":2173:2185  newCandidate */\n      dup2\n        /* \"contracts/Ballot/Ballot.sol\":2157:2186  candidates.push(newCandidate) */\n      swap1\n      dup1\n      0x01\n      dup2\n      sload\n      add\n      dup1\n      dup3\n      sstore\n      dup1\n      swap2\n      pop\n      pop\n      0x01\n      swap1\n      sub\n      swap1\n      0x00\n      mstore\n      keccak256(0x00, 0x20)\n      swap1\n      0x03\n      mul\n      add\n      0x00\n      swap1\n      swap2\n      swap1\n      swap2\n      swap1\n      swap2\n      pop\n      0x00\n      dup3\n      add\n      mload\n      dup2\n      0x00\n      add\n      swap1\n      dup2\n      tag_151\n      swap2\n      swap1\n      tag_99\n      jump\t// in\n    tag_151:\n      pop\n      0x20\n      dup3\n      add\n      mload\n      dup2\n      0x01\n      add\n      swap1\n      dup2\n      tag_152\n      swap2\n      swap1\n      tag_99\n      jump\t// in\n    tag_152:\n      pop\n      0x40\n      dup3\n      add\n      mload\n      dup2\n      0x02\n      add\n      sstore\n      pop\n      pop\n        /* \"contracts/Ballot/Ballot.sol\":2048:2194  function addCandidateAsStruct(Candidate memory newCandidate) public isContractOwnerAddCandidate() {... */\n      pop\n      jump\t// out\n        /* \"contracts/Ballot/Ballot.sol\":2206:2352  function giveRightToVote(address voterAddress) public giveRightToVoteModifier(voterAddress) {... */\n    tag_64:\n        /* \"contracts/Ballot/Ballot.sol\":2284:2296  voterAddress */\n      dup1\n        /* \"contracts/Ballot/Ballot.sol\":1139:1160  areYouContractOwner() */\n      tag_154\n        /* \"contracts/Ballot/Ballot.sol\":1139:1158  areYouContractOwner */\n      tag_42\n        /* \"contracts/Ballot/Ballot.sol\":1139:1160  areYouContractOwner() */\n      jump\t// in\n    tag_154:\n        /* \"contracts/Ballot/Ballot.sol\":1117:1235  require(... */\n      tag_155\n      jumpi\n      mload(0x40)\n      0x08c379a000000000000000000000000000000000000000000000000000000000\n      dup2\n      mstore\n      0x04\n      add\n      tag_156\n      swap1\n      tag_157\n      jump\t// in\n    tag_156:\n      mload(0x40)\n      dup1\n      swap2\n      sub\n      swap1\n      revert\n    tag_155:\n        /* \"contracts/Ballot/Ballot.sol\":1246:1280  getVoterVotedRequire(voterAddress) */\n      tag_158\n        /* \"contracts/Ballot/Ballot.sol\":1267:1279  voterAddress */\n      dup2\n        /* \"contracts/Ballot/Ballot.sol\":1246:1266  getVoterVotedRequire */\n      tag_159\n        /* \"contracts/Ballot/Ballot.sol\":1246:1280  getVoterVotedRequire(voterAddress) */\n      jump\t// in\n    tag_158:\n        /* \"contracts/Ballot/Ballot.sol\":2340:2344  true */\n      0x01\n        /* \"contracts/Ballot/Ballot.sol\":2309:2315  voters */\n      dup1\n        /* \"contracts/Ballot/Ballot.sol\":2309:2329  voters[voterAddress] */\n      0x00\n        /* \"contracts/Ballot/Ballot.sol\":2316:2328  voterAddress */\n      dup5\n        /* \"contracts/Ballot/Ballot.sol\":2309:2329  voters[voterAddress] */\n      0xffffffffffffffffffffffffffffffffffffffff\n      and\n      0xffffffffffffffffffffffffffffffffffffffff\n      and\n      dup2\n      mstore\n      0x20\n      add\n      swap1\n      dup2\n      mstore\n      0x20\n      add\n      0x00\n      keccak256\n        /* \"contracts/Ballot/Ballot.sol\":2309:2337  voters[voterAddress].canVote */\n      0x00\n      add\n      0x00\n        /* \"contracts/Ballot/Ballot.sol\":2309:2344  voters[voterAddress].canVote = true */\n      0x0100\n      exp\n      dup2\n      sload\n      dup2\n      0xff\n      mul\n      not\n      and\n      swap1\n      dup4\n      iszero\n      iszero\n      mul\n      or\n      swap1\n      sstore\n      pop\n        /* \"contracts/Ballot/Ballot.sol\":2206:2352  function giveRightToVote(address voterAddress) public giveRightToVoteModifier(voterAddress) {... */\n      pop\n      pop\n      jump\t// out\n        /* \"contracts/Ballot/Ballot.sol\":314:353  mapping(address => Voter) public voters */\n    tag_67:\n      mstore(0x20, 0x01)\n      dup1\n      0x00\n      mstore\n      keccak256(0x00, 0x40)\n      0x00\n      swap2\n      pop\n      swap1\n      pop\n      dup1\n      0x00\n      add\n      0x00\n      swap1\n      sload\n      swap1\n      0x0100\n      exp\n      swap1\n      div\n      0xff\n      and\n      swap1\n      dup1\n      0x00\n      add\n      0x01\n      swap1\n      sload\n      swap1\n      0x0100\n      exp\n      swap1\n      div\n      0xff\n      and\n      swap1\n      pop\n      dup3\n      jump\t// out\n        /* \"contracts/Ballot/Ballot.sol\":277:305  address public contractOwner */\n    tag_71:\n      0x00\n      dup1\n      sload\n      swap1\n      0x0100\n      exp\n      swap1\n      div\n      0xffffffffffffffffffffffffffffffffffffffff\n      and\n      dup2\n      jump\t// out\n        /* \"contracts/Ballot/Ballot.sol\":4396:4497  function areYouVoted() public view returns (bool) {... */\n    tag_74:\n        /* \"contracts/Ballot/Ballot.sol\":4440:4444  bool */\n      0x00\n        /* \"contracts/Ballot/Ballot.sol\":4464:4489  getVoterVoter(msg.sender) */\n      tag_162\n        /* \"contracts/Ballot/Ballot.sol\":4478:4488  msg.sender */\n      caller\n        /* \"contracts/Ballot/Ballot.sol\":4464:4477  getVoterVoter */\n      tag_81\n        /* \"contracts/Ballot/Ballot.sol\":4464:4489  getVoterVoter(msg.sender) */\n      jump\t// in\n    tag_162:\n        /* \"contracts/Ballot/Ballot.sol\":4457:4489  return getVoterVoter(msg.sender) */\n      swap1\n      pop\n        /* \"contracts/Ballot/Ballot.sol\":4396:4497  function areYouVoted() public view returns (bool) {... */\n      swap1\n      jump\t// out\n        /* \"contracts/Ballot/Ballot.sol\":4131:4248  function areYouHaveRigthToVote() public view returns (bool) {... */\n    tag_77:\n        /* \"contracts/Ballot/Ballot.sol\":4185:4189  bool */\n      0x00\n        /* \"contracts/Ballot/Ballot.sol\":4209:4240  getVoterRigthToVote(msg.sender) */\n      tag_164\n        /* \"contracts/Ballot/Ballot.sol\":4229:4239  msg.sender */\n      caller\n        /* \"contracts/Ballot/Ballot.sol\":4209:4228  getVoterRigthToVote */\n      tag_56\n        /* \"contracts/Ballot/Ballot.sol\":4209:4240  getVoterRigthToVote(msg.sender) */\n      jump\t// in\n    tag_164:\n        /* \"contracts/Ballot/Ballot.sol\":4202:4240  return getVoterRigthToVote(msg.sender) */\n      swap1\n      pop\n        /* \"contracts/Ballot/Ballot.sol\":4131:4248  function areYouHaveRigthToVote() public view returns (bool) {... */\n      swap1\n      jump\t// out\n        /* \"contracts/Ballot/Ballot.sol\":4505:4632  function getVoterVoter(address voterAddress) public view returns (bool) {... */\n    tag_81:\n        /* \"contracts/Ballot/Ballot.sol\":4571:4575  bool */\n      0x00\n        /* \"contracts/Ballot/Ballot.sol\":4595:4601  voters */\n      0x01\n        /* \"contracts/Ballot/Ballot.sol\":4595:4615  voters[voterAddress] */\n      0x00\n        /* \"contracts/Ballot/Ballot.sol\":4602:4614  voterAddress */\n      dup4\n        /* \"contracts/Ballot/Ballot.sol\":4595:4615  voters[voterAddress] */\n      0xffffffffffffffffffffffffffffffffffffffff\n      and\n      0xffffffffffffffffffffffffffffffffffffffff\n      and\n      dup2\n      mstore\n      0x20\n      add\n      swap1\n      dup2\n      mstore\n      0x20\n      add\n      0x00\n      keccak256\n        /* \"contracts/Ballot/Ballot.sol\":4595:4624  voters[voterAddress].hasVoted */\n      0x00\n      add\n      0x01\n      swap1\n      sload\n      swap1\n      0x0100\n      exp\n      swap1\n      div\n      0xff\n      and\n        /* \"contracts/Ballot/Ballot.sol\":4588:4624  return voters[voterAddress].hasVoted */\n      swap1\n      pop\n        /* \"contracts/Ballot/Ballot.sol\":4505:4632  function getVoterVoter(address voterAddress) public view returns (bool) {... */\n      swap2\n      swap1\n      pop\n      jump\t// out\n        /* \"contracts/Ballot/Ballot.sol\":3175:3783  function getWinningCandidate() public view returns (uint winningProposal, bool isTie) {        ... */\n    tag_84:\n        /* \"contracts/Ballot/Ballot.sol\":3227:3247  uint winningProposal */\n      0x00\n        /* \"contracts/Ballot/Ballot.sol\":3249:3259  bool isTie */\n      dup1\n        /* \"contracts/Ballot/Ballot.sol\":3280:3301  uint winningVoteCount */\n      0x00\n        /* \"contracts/Ballot/Ballot.sol\":3319:3338  uint indexCandidate */\n      dup1\n        /* \"contracts/Ballot/Ballot.sol\":3341:3342  0 */\n      0x00\n        /* \"contracts/Ballot/Ballot.sol\":3319:3342  uint indexCandidate = 0 */\n      swap1\n      pop\n        /* \"contracts/Ballot/Ballot.sol\":3314:3776  for (uint indexCandidate = 0; indexCandidate < candidates.length; indexCandidate++) {... */\n    tag_167:\n        /* \"contracts/Ballot/Ballot.sol\":3361:3371  candidates */\n      0x02\n        /* \"contracts/Ballot/Ballot.sol\":3361:3378  candidates.length */\n      dup1\n      sload\n      swap1\n      pop\n        /* \"contracts/Ballot/Ballot.sol\":3344:3358  indexCandidate */\n      dup2\n        /* \"contracts/Ballot/Ballot.sol\":3344:3378  indexCandidate < candidates.length */\n      lt\n        /* \"contracts/Ballot/Ballot.sol\":3314:3776  for (uint indexCandidate = 0; indexCandidate < candidates.length; indexCandidate++) {... */\n      iszero\n      tag_168\n      jumpi\n        /* \"contracts/Ballot/Ballot.sol\":3457:3473  winningVoteCount */\n      dup2\n        /* \"contracts/Ballot/Ballot.sol\":3417:3427  candidates */\n      0x02\n        /* \"contracts/Ballot/Ballot.sol\":3428:3442  indexCandidate */\n      dup3\n        /* \"contracts/Ballot/Ballot.sol\":3417:3443  candidates[indexCandidate] */\n      dup2\n      sload\n      dup2\n      lt\n      tag_170\n      jumpi\n      tag_171\n      tag_108\n      jump\t// in\n    tag_171:\n    tag_170:\n      swap1\n      0x00\n      mstore\n      keccak256(0x00, 0x20)\n      swap1\n      0x03\n      mul\n      add\n        /* \"contracts/Ballot/Ballot.sol\":3417:3454  candidates[indexCandidate].votesCount */\n      0x02\n      add\n      sload\n        /* \"contracts/Ballot/Ballot.sol\":3417:3473  candidates[indexCandidate].votesCount > winningVoteCount */\n      gt\n        /* \"contracts/Ballot/Ballot.sol\":3413:3765  if (candidates[indexCandidate].votesCount > winningVoteCount) {... */\n      iszero\n      tag_173\n      jumpi\n        /* \"contracts/Ballot/Ballot.sol\":3513:3523  candidates */\n      0x02\n        /* \"contracts/Ballot/Ballot.sol\":3524:3538  indexCandidate */\n      dup2\n        /* \"contracts/Ballot/Ballot.sol\":3513:3539  candidates[indexCandidate] */\n      dup2\n      sload\n      dup2\n      lt\n      tag_174\n      jumpi\n      tag_175\n      tag_108\n      jump\t// in\n    tag_175:\n    tag_174:\n      swap1\n      0x00\n      mstore\n      keccak256(0x00, 0x20)\n      swap1\n      0x03\n      mul\n      add\n        /* \"contracts/Ballot/Ballot.sol\":3513:3550  candidates[indexCandidate].votesCount */\n      0x02\n      add\n      sload\n        /* \"contracts/Ballot/Ballot.sol\":3494:3550  winningVoteCount = candidates[indexCandidate].votesCount */\n      swap2\n      pop\n        /* \"contracts/Ballot/Ballot.sol\":3587:3601  indexCandidate */\n      dup1\n        /* \"contracts/Ballot/Ballot.sol\":3569:3601  winningProposal = indexCandidate */\n      swap4\n      pop\n        /* \"contracts/Ballot/Ballot.sol\":3628:3633  false */\n      0x00\n        /* \"contracts/Ballot/Ballot.sol\":3620:3633  isTie = false */\n      swap3\n      pop\n        /* \"contracts/Ballot/Ballot.sol\":3413:3765  if (candidates[indexCandidate].votesCount > winningVoteCount) {... */\n      jump(tag_177)\n    tag_173:\n        /* \"contracts/Ballot/Ballot.sol\":3700:3716  winningVoteCount */\n      dup2\n        /* \"contracts/Ballot/Ballot.sol\":3659:3669  candidates */\n      0x02\n        /* \"contracts/Ballot/Ballot.sol\":3670:3684  indexCandidate */\n      dup3\n        /* \"contracts/Ballot/Ballot.sol\":3659:3685  candidates[indexCandidate] */\n      dup2\n      sload\n      dup2\n      lt\n      tag_178\n      jumpi\n      tag_179\n      tag_108\n      jump\t// in\n    tag_179:\n    tag_178:\n      swap1\n      0x00\n      mstore\n      keccak256(0x00, 0x20)\n      swap1\n      0x03\n      mul\n      add\n        /* \"contracts/Ballot/Ballot.sol\":3659:3696  candidates[indexCandidate].votesCount */\n      0x02\n      add\n      sload\n        /* \"contracts/Ballot/Ballot.sol\":3659:3716  candidates[indexCandidate].votesCount == winningVoteCount */\n      sub\n        /* \"contracts/Ballot/Ballot.sol\":3655:3765  if (candidates[indexCandidate].votesCount == winningVoteCount) {... */\n      tag_181\n      jumpi\n        /* \"contracts/Ballot/Ballot.sol\":3745:3749  true */\n      0x01\n        /* \"contracts/Ballot/Ballot.sol\":3737:3749  isTie = true */\n      swap3\n      pop\n        /* \"contracts/Ballot/Ballot.sol\":3655:3765  if (candidates[indexCandidate].votesCount == winningVoteCount) {... */\n    tag_181:\n        /* \"contracts/Ballot/Ballot.sol\":3413:3765  if (candidates[indexCandidate].votesCount > winningVoteCount) {... */\n    tag_177:\n        /* \"contracts/Ballot/Ballot.sol\":3380:3396  indexCandidate++ */\n      dup1\n      dup1\n      tag_182\n      swap1\n      tag_183\n      jump\t// in\n    tag_182:\n      swap2\n      pop\n      pop\n        /* \"contracts/Ballot/Ballot.sol\":3314:3776  for (uint indexCandidate = 0; indexCandidate < candidates.length; indexCandidate++) {... */\n      jump(tag_167)\n    tag_168:\n      pop\n        /* \"contracts/Ballot/Ballot.sol\":3261:3783  {        ... */\n      pop\n        /* \"contracts/Ballot/Ballot.sol\":3175:3783  function getWinningCandidate() public view returns (uint winningProposal, bool isTie) {        ... */\n      swap1\n      swap2\n      jump\t// out\n        /* \"contracts/Ballot/Ballot.sol\":2360:2863  function vote(string memory name) public voteModifier(msg.sender) {... */\n    tag_90:\n        /* \"contracts/Ballot/Ballot.sol\":2414:2424  msg.sender */\n      caller\n        /* \"contracts/Ballot/Ballot.sol\":1385:1408  areYouHaveRigthToVote() */\n      tag_185\n        /* \"contracts/Ballot/Ballot.sol\":1385:1406  areYouHaveRigthToVote */\n      tag_77\n        /* \"contracts/Ballot/Ballot.sol\":1385:1408  areYouHaveRigthToVote() */\n      jump\t// in\n    tag_185:\n        /* \"contracts/Ballot/Ballot.sol\":1363:1463  require(... */\n      tag_186\n      jumpi\n      mload(0x40)\n      0x08c379a000000000000000000000000000000000000000000000000000000000\n      dup2\n      mstore\n      0x04\n      add\n      tag_187\n      swap1\n      tag_188\n      jump\t// in\n    tag_187:\n      mload(0x40)\n      dup1\n      swap2\n      sub\n      swap1\n      revert\n    tag_186:\n        /* \"contracts/Ballot/Ballot.sol\":1474:1508  getVoterVotedRequire(voterAddress) */\n      tag_189\n        /* \"contracts/Ballot/Ballot.sol\":1495:1507  voterAddress */\n      dup2\n        /* \"contracts/Ballot/Ballot.sol\":1474:1494  getVoterVotedRequire */\n      tag_159\n        /* \"contracts/Ballot/Ballot.sol\":1474:1508  getVoterVotedRequire(voterAddress) */\n      jump\t// in\n    tag_189:\n        /* \"contracts/Ballot/Ballot.sol\":2437:2457  Voter storage sender */\n      0x00\n        /* \"contracts/Ballot/Ballot.sol\":2460:2466  voters */\n      0x01\n        /* \"contracts/Ballot/Ballot.sol\":2460:2478  voters[msg.sender] */\n      0x00\n        /* \"contracts/Ballot/Ballot.sol\":2467:2477  msg.sender */\n      caller\n        /* \"contracts/Ballot/Ballot.sol\":2460:2478  voters[msg.sender] */\n      0xffffffffffffffffffffffffffffffffffffffff\n      and\n      0xffffffffffffffffffffffffffffffffffffffff\n      and\n      dup2\n      mstore\n      0x20\n      add\n      swap1\n      dup2\n      mstore\n      0x20\n      add\n      0x00\n      keccak256\n        /* \"contracts/Ballot/Ballot.sol\":2437:2478  Voter storage sender = voters[msg.sender] */\n      swap1\n      pop\n        /* \"contracts/Ballot/Ballot.sol\":2595:2605  uint index */\n      0x00\n        /* \"contracts/Ballot/Ballot.sol\":2590:2856  for (uint index = 0; index < candidates.length; index++) {... */\n    tag_191:\n        /* \"contracts/Ballot/Ballot.sol\":2619:2629  candidates */\n      0x02\n        /* \"contracts/Ballot/Ballot.sol\":2619:2636  candidates.length */\n      dup1\n      sload\n      swap1\n      pop\n        /* \"contracts/Ballot/Ballot.sol\":2611:2616  index */\n      dup2\n        /* \"contracts/Ballot/Ballot.sol\":2611:2636  index < candidates.length */\n      lt\n        /* \"contracts/Ballot/Ballot.sol\":2590:2856  for (uint index = 0; index < candidates.length; index++) {... */\n      iszero\n      tag_192\n      jumpi\n        /* \"contracts/Ballot/Ballot.sol\":2666:2708  stringEqualTo(candidates[index].name,name) */\n      tag_194\n        /* \"contracts/Ballot/Ballot.sol\":2680:2690  candidates */\n      0x02\n        /* \"contracts/Ballot/Ballot.sol\":2691:2696  index */\n      dup3\n        /* \"contracts/Ballot/Ballot.sol\":2680:2697  candidates[index] */\n      dup2\n      sload\n      dup2\n      lt\n      tag_195\n      jumpi\n      tag_196\n      tag_108\n      jump\t// in\n    tag_196:\n    tag_195:\n      swap1\n      0x00\n      mstore\n      keccak256(0x00, 0x20)\n      swap1\n      0x03\n      mul\n      add\n        /* \"contracts/Ballot/Ballot.sol\":2680:2702  candidates[index].name */\n      0x00\n      add\n        /* \"contracts/Ballot/Ballot.sol\":2666:2708  stringEqualTo(candidates[index].name,name) */\n      dup1\n      sload\n      tag_198\n      swap1\n      tag_111\n      jump\t// in\n    tag_198:\n      dup1\n      0x1f\n      add\n      0x20\n      dup1\n      swap2\n      div\n      mul\n      0x20\n      add\n      mload(0x40)\n      swap1\n      dup2\n      add\n      0x40\n      mstore\n      dup1\n      swap3\n      swap2\n      swap1\n      dup2\n      dup2\n      mstore\n      0x20\n      add\n      dup3\n      dup1\n      sload\n      tag_199\n      swap1\n      tag_111\n      jump\t// in\n    tag_199:\n      dup1\n      iszero\n      tag_200\n      jumpi\n      dup1\n      0x1f\n      lt\n      tag_201\n      jumpi\n      0x0100\n      dup1\n      dup4\n      sload\n      div\n      mul\n      dup4\n      mstore\n      swap2\n      0x20\n      add\n      swap2\n      jump(tag_200)\n    tag_201:\n      dup3\n      add\n      swap2\n      swap1\n      0x00\n      mstore\n      keccak256(0x00, 0x20)\n      swap1\n    tag_202:\n      dup2\n      sload\n      dup2\n      mstore\n      swap1\n      0x01\n      add\n      swap1\n      0x20\n      add\n      dup1\n      dup4\n      gt\n      tag_202\n      jumpi\n      dup3\n      swap1\n      sub\n      0x1f\n      and\n      dup3\n      add\n      swap2\n    tag_200:\n      pop\n      pop\n      pop\n      pop\n      pop\n        /* \"contracts/Ballot/Ballot.sol\":2703:2707  name */\n      dup6\n        /* \"contracts/Ballot/Ballot.sol\":2666:2679  stringEqualTo */\n      tag_203\n        /* \"contracts/Ballot/Ballot.sol\":2666:2708  stringEqualTo(candidates[index].name,name) */\n      jump\t// in\n    tag_194:\n        /* \"contracts/Ballot/Ballot.sol\":2662:2845  if (stringEqualTo(candidates[index].name,name)) {... */\n      iszero\n      tag_204\n      jumpi\n        /* \"contracts/Ballot/Ballot.sol\":2729:2739  candidates */\n      0x02\n        /* \"contracts/Ballot/Ballot.sol\":2740:2745  index */\n      dup2\n        /* \"contracts/Ballot/Ballot.sol\":2729:2746  candidates[index] */\n      dup2\n      sload\n      dup2\n      lt\n      tag_205\n      jumpi\n      tag_206\n      tag_108\n      jump\t// in\n    tag_206:\n    tag_205:\n      swap1\n      0x00\n      mstore\n      keccak256(0x00, 0x20)\n      swap1\n      0x03\n      mul\n      add\n        /* \"contracts/Ballot/Ballot.sol\":2729:2757  candidates[index].votesCount */\n      0x02\n      add\n      0x00\n        /* \"contracts/Ballot/Ballot.sol\":2729:2759  candidates[index].votesCount++ */\n      dup2\n      sload\n      dup1\n      swap3\n      swap2\n      swap1\n      tag_208\n      swap1\n      tag_183\n      jump\t// in\n    tag_208:\n      swap2\n      swap1\n      pop\n      sstore\n      pop\n        /* \"contracts/Ballot/Ballot.sol\":2796:2800  true */\n      0x01\n        /* \"contracts/Ballot/Ballot.sol\":2778:2784  sender */\n      dup3\n        /* \"contracts/Ballot/Ballot.sol\":2778:2793  sender.hasVoted */\n      0x00\n      add\n      0x01\n        /* \"contracts/Ballot/Ballot.sol\":2778:2800  sender.hasVoted = true */\n      0x0100\n      exp\n      dup2\n      sload\n      dup2\n      0xff\n      mul\n      not\n      and\n      swap1\n      dup4\n      iszero\n      iszero\n      mul\n      or\n      swap1\n      sstore\n      pop\n        /* \"contracts/Ballot/Ballot.sol\":2819:2827  maxVotes */\n      0x03\n      0x00\n        /* \"contracts/Ballot/Ballot.sol\":2819:2829  maxVotes++ */\n      dup2\n      sload\n      dup1\n      swap3\n      swap2\n      swap1\n      tag_209\n      swap1\n      tag_183\n      jump\t// in\n    tag_209:\n      swap2\n      swap1\n      pop\n      sstore\n      pop\n        /* \"contracts/Ballot/Ballot.sol\":2662:2845  if (stringEqualTo(candidates[index].name,name)) {... */\n    tag_204:\n        /* \"contracts/Ballot/Ballot.sol\":2638:2645  index++ */\n      dup1\n      dup1\n      tag_210\n      swap1\n      tag_183\n      jump\t// in\n    tag_210:\n      swap2\n      pop\n      pop\n        /* \"contracts/Ballot/Ballot.sol\":2590:2856  for (uint index = 0; index < candidates.length; index++) {... */\n      jump(tag_191)\n    tag_192:\n      pop\n        /* \"contracts/Ballot/Ballot.sol\":2426:2863  {... */\n      pop\n        /* \"contracts/Ballot/Ballot.sol\":2360:2863  function vote(string memory name) public voteModifier(msg.sender) {... */\n      pop\n      pop\n      jump\t// out\n        /* \"contracts/Ballot/Ballot.sol\":1565:1754  function getVoterVotedRequire(address voterAddress) private view {... */\n    tag_159:\n        /* \"contracts/Ballot/Ballot.sol\":1671:1698  getVoterVoter(voterAddress) */\n      tag_212\n        /* \"contracts/Ballot/Ballot.sol\":1685:1697  voterAddress */\n      dup2\n        /* \"contracts/Ballot/Ballot.sol\":1671:1684  getVoterVoter */\n      tag_81\n        /* \"contracts/Ballot/Ballot.sol\":1671:1698  getVoterVoter(voterAddress) */\n      jump\t// in\n    tag_212:\n        /* \"contracts/Ballot/Ballot.sol\":1670:1698  !getVoterVoter(voterAddress) */\n      iszero\n        /* \"contracts/Ballot/Ballot.sol\":1648:1746  require(... */\n      tag_213\n      jumpi\n      mload(0x40)\n      0x08c379a000000000000000000000000000000000000000000000000000000000\n      dup2\n      mstore\n      0x04\n      add\n      tag_214\n      swap1\n      tag_215\n      jump\t// in\n    tag_214:\n      mload(0x40)\n      dup1\n      swap2\n      sub\n      swap1\n      revert\n    tag_213:\n        /* \"contracts/Ballot/Ballot.sol\":1565:1754  function getVoterVotedRequire(address voterAddress) private view {... */\n      pop\n      jump\t// out\n        /* \"contracts/Ballot/Ballot.sol\":4668:4836  function stringEqualTo(string memory s1, string memory s2) internal pure returns (bool) {... */\n    tag_203:\n        /* \"contracts/Ballot/Ballot.sol\":4750:4754  bool */\n      0x00\n        /* \"contracts/Ballot/Ballot.sol\":4824:4826  s2 */\n      dup2\n        /* \"contracts/Ballot/Ballot.sol\":4813:4827  abi.encode(s2) */\n      add(0x20, mload(0x40))\n      tag_217\n      swap2\n      swap1\n      tag_30\n      jump\t// in\n    tag_217:\n      mload(0x40)\n      0x20\n      dup2\n      dup4\n      sub\n      sub\n      dup2\n      mstore\n      swap1\n      0x40\n      mstore\n        /* \"contracts/Ballot/Ballot.sol\":4803:4828  keccak256(abi.encode(s2)) */\n      dup1\n      mload\n      swap1\n      0x20\n      add\n      keccak256\n        /* \"contracts/Ballot/Ballot.sol\":4795:4797  s1 */\n      dup4\n        /* \"contracts/Ballot/Ballot.sol\":4784:4798  abi.encode(s1) */\n      add(0x20, mload(0x40))\n      tag_218\n      swap2\n      swap1\n      tag_30\n      jump\t// in\n    tag_218:\n      mload(0x40)\n      0x20\n      dup2\n      dup4\n      sub\n      sub\n      dup2\n      mstore\n      swap1\n      0x40\n      mstore\n        /* \"contracts/Ballot/Ballot.sol\":4774:4799  keccak256(abi.encode(s1)) */\n      dup1\n      mload\n      swap1\n      0x20\n      add\n      keccak256\n        /* \"contracts/Ballot/Ballot.sol\":4774:4828  keccak256(abi.encode(s1)) == keccak256(abi.encode(s2)) */\n      eq\n        /* \"contracts/Ballot/Ballot.sol\":4767:4828  return keccak256(abi.encode(s1)) == keccak256(abi.encode(s2)) */\n      swap1\n      pop\n        /* \"contracts/Ballot/Ballot.sol\":4668:4836  function stringEqualTo(string memory s1, string memory s2) internal pure returns (bool) {... */\n      swap3\n      swap2\n      pop\n      pop\n      jump\t// out\n        /* \"#utility.yul\":7:82   */\n    tag_219:\n        /* \"#utility.yul\":40:46   */\n      0x00\n        /* \"#utility.yul\":73:75   */\n      0x40\n        /* \"#utility.yul\":67:76   */\n      mload\n        /* \"#utility.yul\":57:76   */\n      swap1\n      pop\n        /* \"#utility.yul\":7:82   */\n      swap1\n      jump\t// out\n        /* \"#utility.yul\":88:205   */\n    tag_220:\n        /* \"#utility.yul\":197:198   */\n      0x00\n        /* \"#utility.yul\":194:195   */\n      dup1\n        /* \"#utility.yul\":187:199   */\n      revert\n        /* \"#utility.yul\":211:328   */\n    tag_221:\n        /* \"#utility.yul\":320:321   */\n      0x00\n        /* \"#utility.yul\":317:318   */\n      dup1\n        /* \"#utility.yul\":310:322   */\n      revert\n        /* \"#utility.yul\":334:451   */\n    tag_222:\n        /* \"#utility.yul\":443:444   */\n      0x00\n        /* \"#utility.yul\":440:441   */\n      dup1\n        /* \"#utility.yul\":433:445   */\n      revert\n        /* \"#utility.yul\":457:574   */\n    tag_223:\n        /* \"#utility.yul\":566:567   */\n      0x00\n        /* \"#utility.yul\":563:564   */\n      dup1\n        /* \"#utility.yul\":556:568   */\n      revert\n        /* \"#utility.yul\":580:682   */\n    tag_224:\n        /* \"#utility.yul\":621:627   */\n      0x00\n        /* \"#utility.yul\":672:674   */\n      0x1f\n        /* \"#utility.yul\":668:675   */\n      not\n        /* \"#utility.yul\":663:665   */\n      0x1f\n        /* \"#utility.yul\":656:661   */\n      dup4\n        /* \"#utility.yul\":652:666   */\n      add\n        /* \"#utility.yul\":648:676   */\n      and\n        /* \"#utility.yul\":638:676   */\n      swap1\n      pop\n        /* \"#utility.yul\":580:682   */\n      swap2\n      swap1\n      pop\n      jump\t// out\n        /* \"#utility.yul\":688:868   */\n    tag_225:\n        /* \"#utility.yul\":736:813   */\n      0x4e487b7100000000000000000000000000000000000000000000000000000000\n        /* \"#utility.yul\":733:734   */\n      0x00\n        /* \"#utility.yul\":726:814   */\n      mstore\n        /* \"#utility.yul\":833:837   */\n      0x41\n        /* \"#utility.yul\":830:831   */\n      0x04\n        /* \"#utility.yul\":823:838   */\n      mstore\n        /* \"#utility.yul\":857:861   */\n      0x24\n        /* \"#utility.yul\":854:855   */\n      0x00\n        /* \"#utility.yul\":847:862   */\n      revert\n        /* \"#utility.yul\":874:1155   */\n    tag_226:\n        /* \"#utility.yul\":957:984   */\n      tag_296\n        /* \"#utility.yul\":979:983   */\n      dup3\n        /* \"#utility.yul\":957:984   */\n      tag_224\n      jump\t// in\n    tag_296:\n        /* \"#utility.yul\":949:955   */\n      dup2\n        /* \"#utility.yul\":945:985   */\n      add\n        /* \"#utility.yul\":1087:1093   */\n      dup2\n        /* \"#utility.yul\":1075:1085   */\n      dup2\n        /* \"#utility.yul\":1072:1094   */\n      lt\n        /* \"#utility.yul\":1051:1069   */\n      0xffffffffffffffff\n        /* \"#utility.yul\":1039:1049   */\n      dup3\n        /* \"#utility.yul\":1036:1070   */\n      gt\n        /* \"#utility.yul\":1033:1095   */\n      or\n        /* \"#utility.yul\":1030:1118   */\n      iszero\n      tag_297\n      jumpi\n        /* \"#utility.yul\":1098:1116   */\n      tag_298\n      tag_225\n      jump\t// in\n    tag_298:\n        /* \"#utility.yul\":1030:1118   */\n    tag_297:\n        /* \"#utility.yul\":1138:1148   */\n      dup1\n        /* \"#utility.yul\":1134:1136   */\n      0x40\n        /* \"#utility.yul\":1127:1149   */\n      mstore\n        /* \"#utility.yul\":917:1155   */\n      pop\n        /* \"#utility.yul\":874:1155   */\n      pop\n      pop\n      jump\t// out\n        /* \"#utility.yul\":1161:1290   */\n    tag_227:\n        /* \"#utility.yul\":1195:1201   */\n      0x00\n        /* \"#utility.yul\":1222:1242   */\n      tag_300\n      tag_219\n      jump\t// in\n    tag_300:\n        /* \"#utility.yul\":1212:1242   */\n      swap1\n      pop\n        /* \"#utility.yul\":1251:1284   */\n      tag_301\n        /* \"#utility.yul\":1279:1283   */\n      dup3\n        /* \"#utility.yul\":1271:1277   */\n      dup3\n        /* \"#utility.yul\":1251:1284   */\n      tag_226\n      jump\t// in\n    tag_301:\n        /* \"#utility.yul\":1161:1290   */\n      swap2\n      swap1\n      pop\n      jump\t// out\n        /* \"#utility.yul\":1296:1604   */\n    tag_228:\n        /* \"#utility.yul\":1358:1362   */\n      0x00\n        /* \"#utility.yul\":1448:1466   */\n      0xffffffffffffffff\n        /* \"#utility.yul\":1440:1446   */\n      dup3\n        /* \"#utility.yul\":1437:1467   */\n      gt\n        /* \"#utility.yul\":1434:1490   */\n      iszero\n      tag_303\n      jumpi\n        /* \"#utility.yul\":1470:1488   */\n      tag_304\n      tag_225\n      jump\t// in\n    tag_304:\n        /* \"#utility.yul\":1434:1490   */\n    tag_303:\n        /* \"#utility.yul\":1508:1537   */\n      tag_305\n        /* \"#utility.yul\":1530:1536   */\n      dup3\n        /* \"#utility.yul\":1508:1537   */\n      tag_224\n      jump\t// in\n    tag_305:\n        /* \"#utility.yul\":1500:1537   */\n      swap1\n      pop\n        /* \"#utility.yul\":1592:1596   */\n      0x20\n        /* \"#utility.yul\":1586:1590   */\n      dup2\n        /* \"#utility.yul\":1582:1597   */\n      add\n        /* \"#utility.yul\":1574:1597   */\n      swap1\n      pop\n        /* \"#utility.yul\":1296:1604   */\n      swap2\n      swap1\n      pop\n      jump\t// out\n        /* \"#utility.yul\":1610:1756   */\n    tag_229:\n        /* \"#utility.yul\":1707:1713   */\n      dup3\n        /* \"#utility.yul\":1702:1705   */\n      dup2\n        /* \"#utility.yul\":1697:1700   */\n      dup4\n        /* \"#utility.yul\":1684:1714   */\n      calldatacopy\n        /* \"#utility.yul\":1748:1749   */\n      0x00\n        /* \"#utility.yul\":1739:1745   */\n      dup4\n        /* \"#utility.yul\":1734:1737   */\n      dup4\n        /* \"#utility.yul\":1730:1746   */\n      add\n        /* \"#utility.yul\":1723:1750   */\n      mstore\n        /* \"#utility.yul\":1610:1756   */\n      pop\n      pop\n      pop\n      jump\t// out\n        /* \"#utility.yul\":1762:2187   */\n    tag_230:\n        /* \"#utility.yul\":1840:1845   */\n      0x00\n        /* \"#utility.yul\":1865:1931   */\n      tag_308\n        /* \"#utility.yul\":1881:1930   */\n      tag_309\n        /* \"#utility.yul\":1923:1929   */\n      dup5\n        /* \"#utility.yul\":1881:1930   */\n      tag_228\n      jump\t// in\n    tag_309:\n        /* \"#utility.yul\":1865:1931   */\n      tag_227\n      jump\t// in\n    tag_308:\n        /* \"#utility.yul\":1856:1931   */\n      swap1\n      pop\n        /* \"#utility.yul\":1954:1960   */\n      dup3\n        /* \"#utility.yul\":1947:1952   */\n      dup2\n        /* \"#utility.yul\":1940:1961   */\n      mstore\n        /* \"#utility.yul\":1992:1996   */\n      0x20\n        /* \"#utility.yul\":1985:1990   */\n      dup2\n        /* \"#utility.yul\":1981:1997   */\n      add\n        /* \"#utility.yul\":2030:2033   */\n      dup5\n        /* \"#utility.yul\":2021:2027   */\n      dup5\n        /* \"#utility.yul\":2016:2019   */\n      dup5\n        /* \"#utility.yul\":2012:2028   */\n      add\n        /* \"#utility.yul\":2009:2034   */\n      gt\n        /* \"#utility.yul\":2006:2118   */\n      iszero\n      tag_310\n      jumpi\n        /* \"#utility.yul\":2037:2116   */\n      tag_311\n      tag_223\n      jump\t// in\n    tag_311:\n        /* \"#utility.yul\":2006:2118   */\n    tag_310:\n        /* \"#utility.yul\":2127:2181   */\n      tag_312\n        /* \"#utility.yul\":2174:2180   */\n      dup5\n        /* \"#utility.yul\":2169:2172   */\n      dup3\n        /* \"#utility.yul\":2164:2167   */\n      dup6\n        /* \"#utility.yul\":2127:2181   */\n      tag_229\n      jump\t// in\n    tag_312:\n        /* \"#utility.yul\":1846:2187   */\n      pop\n        /* \"#utility.yul\":1762:2187   */\n      swap4\n      swap3\n      pop\n      pop\n      pop\n      jump\t// out\n        /* \"#utility.yul\":2207:2547   */\n    tag_231:\n        /* \"#utility.yul\":2263:2268   */\n      0x00\n        /* \"#utility.yul\":2312:2315   */\n      dup3\n        /* \"#utility.yul\":2305:2309   */\n      0x1f\n        /* \"#utility.yul\":2297:2303   */\n      dup4\n        /* \"#utility.yul\":2293:2310   */\n      add\n        /* \"#utility.yul\":2289:2316   */\n      slt\n        /* \"#utility.yul\":2279:2401   */\n      tag_314\n      jumpi\n        /* \"#utility.yul\":2320:2399   */\n      tag_315\n      tag_222\n      jump\t// in\n    tag_315:\n        /* \"#utility.yul\":2279:2401   */\n    tag_314:\n        /* \"#utility.yul\":2437:2443   */\n      dup2\n        /* \"#utility.yul\":2424:2444   */\n      calldataload\n        /* \"#utility.yul\":2462:2541   */\n      tag_316\n        /* \"#utility.yul\":2537:2540   */\n      dup5\n        /* \"#utility.yul\":2529:2535   */\n      dup3\n        /* \"#utility.yul\":2522:2526   */\n      0x20\n        /* \"#utility.yul\":2514:2520   */\n      dup7\n        /* \"#utility.yul\":2510:2527   */\n      add\n        /* \"#utility.yul\":2462:2541   */\n      tag_230\n      jump\t// in\n    tag_316:\n        /* \"#utility.yul\":2453:2541   */\n      swap2\n      pop\n        /* \"#utility.yul\":2269:2547   */\n      pop\n        /* \"#utility.yul\":2207:2547   */\n      swap3\n      swap2\n      pop\n      pop\n      jump\t// out\n        /* \"#utility.yul\":2553:3387   */\n    tag_25:\n        /* \"#utility.yul\":2641:2647   */\n      0x00\n        /* \"#utility.yul\":2649:2655   */\n      dup1\n        /* \"#utility.yul\":2698:2700   */\n      0x40\n        /* \"#utility.yul\":2686:2695   */\n      dup4\n        /* \"#utility.yul\":2677:2684   */\n      dup6\n        /* \"#utility.yul\":2673:2696   */\n      sub\n        /* \"#utility.yul\":2669:2701   */\n      slt\n        /* \"#utility.yul\":2666:2785   */\n      iszero\n      tag_318\n      jumpi\n        /* \"#utility.yul\":2704:2783   */\n      tag_319\n      tag_220\n      jump\t// in\n    tag_319:\n        /* \"#utility.yul\":2666:2785   */\n    tag_318:\n        /* \"#utility.yul\":2852:2853   */\n      0x00\n        /* \"#utility.yul\":2841:2850   */\n      dup4\n        /* \"#utility.yul\":2837:2854   */\n      add\n        /* \"#utility.yul\":2824:2855   */\n      calldataload\n        /* \"#utility.yul\":2882:2900   */\n      0xffffffffffffffff\n        /* \"#utility.yul\":2874:2880   */\n      dup2\n        /* \"#utility.yul\":2871:2901   */\n      gt\n        /* \"#utility.yul\":2868:2985   */\n      iszero\n      tag_320\n      jumpi\n        /* \"#utility.yul\":2904:2983   */\n      tag_321\n      tag_221\n      jump\t// in\n    tag_321:\n        /* \"#utility.yul\":2868:2985   */\n    tag_320:\n        /* \"#utility.yul\":3009:3072   */\n      tag_322\n        /* \"#utility.yul\":3064:3071   */\n      dup6\n        /* \"#utility.yul\":3055:3061   */\n      dup3\n        /* \"#utility.yul\":3044:3053   */\n      dup7\n        /* \"#utility.yul\":3040:3062   */\n      add\n        /* \"#utility.yul\":3009:3072   */\n      tag_231\n      jump\t// in\n    tag_322:\n        /* \"#utility.yul\":2999:3072   */\n      swap3\n      pop\n        /* \"#utility.yul\":2795:3082   */\n      pop\n        /* \"#utility.yul\":3149:3151   */\n      0x20\n        /* \"#utility.yul\":3138:3147   */\n      dup4\n        /* \"#utility.yul\":3134:3152   */\n      add\n        /* \"#utility.yul\":3121:3153   */\n      calldataload\n        /* \"#utility.yul\":3180:3198   */\n      0xffffffffffffffff\n        /* \"#utility.yul\":3172:3178   */\n      dup2\n        /* \"#utility.yul\":3169:3199   */\n      gt\n        /* \"#utility.yul\":3166:3283   */\n      iszero\n      tag_323\n      jumpi\n        /* \"#utility.yul\":3202:3281   */\n      tag_324\n      tag_221\n      jump\t// in\n    tag_324:\n        /* \"#utility.yul\":3166:3283   */\n    tag_323:\n        /* \"#utility.yul\":3307:3370   */\n      tag_325\n        /* \"#utility.yul\":3362:3369   */\n      dup6\n        /* \"#utility.yul\":3353:3359   */\n      dup3\n        /* \"#utility.yul\":3342:3351   */\n      dup7\n        /* \"#utility.yul\":3338:3360   */\n      add\n        /* \"#utility.yul\":3307:3370   */\n      tag_231\n      jump\t// in\n    tag_325:\n        /* \"#utility.yul\":3297:3370   */\n      swap2\n      pop\n        /* \"#utility.yul\":3092:3380   */\n      pop\n        /* \"#utility.yul\":2553:3387   */\n      swap3\n      pop\n      swap3\n      swap1\n      pop\n      jump\t// out\n        /* \"#utility.yul\":3393:3492   */\n    tag_232:\n        /* \"#utility.yul\":3445:3451   */\n      0x00\n        /* \"#utility.yul\":3479:3484   */\n      dup2\n        /* \"#utility.yul\":3473:3485   */\n      mload\n        /* \"#utility.yul\":3463:3485   */\n      swap1\n      pop\n        /* \"#utility.yul\":3393:3492   */\n      swap2\n      swap1\n      pop\n      jump\t// out\n        /* \"#utility.yul\":3498:3667   */\n    tag_233:\n        /* \"#utility.yul\":3582:3593   */\n      0x00\n        /* \"#utility.yul\":3616:3622   */\n      dup3\n        /* \"#utility.yul\":3611:3614   */\n      dup3\n        /* \"#utility.yul\":3604:3623   */\n      mstore\n        /* \"#utility.yul\":3656:3660   */\n      0x20\n        /* \"#utility.yul\":3651:3654   */\n      dup3\n        /* \"#utility.yul\":3647:3661   */\n      add\n        /* \"#utility.yul\":3632:3661   */\n      swap1\n      pop\n        /* \"#utility.yul\":3498:3667   */\n      swap3\n      swap2\n      pop\n      pop\n      jump\t// out\n        /* \"#utility.yul\":3673:3919   */\n    tag_234:\n        /* \"#utility.yul\":3754:3755   */\n      0x00\n        /* \"#utility.yul\":3764:3877   */\n    tag_329:\n        /* \"#utility.yul\":3778:3784   */\n      dup4\n        /* \"#utility.yul\":3775:3776   */\n      dup2\n        /* \"#utility.yul\":3772:3785   */\n      lt\n        /* \"#utility.yul\":3764:3877   */\n      iszero\n      tag_331\n      jumpi\n        /* \"#utility.yul\":3863:3864   */\n      dup1\n        /* \"#utility.yul\":3858:3861   */\n      dup3\n        /* \"#utility.yul\":3854:3865   */\n      add\n        /* \"#utility.yul\":3848:3866   */\n      mload\n        /* \"#utility.yul\":3844:3845   */\n      dup2\n        /* \"#utility.yul\":3839:3842   */\n      dup5\n        /* \"#utility.yul\":3835:3846   */\n      add\n        /* \"#utility.yul\":3828:3867   */\n      mstore\n        /* \"#utility.yul\":3800:3802   */\n      0x20\n        /* \"#utility.yul\":3797:3798   */\n      dup2\n        /* \"#utility.yul\":3793:3803   */\n      add\n        /* \"#utility.yul\":3788:3803   */\n      swap1\n      pop\n        /* \"#utility.yul\":3764:3877   */\n      jump(tag_329)\n    tag_331:\n        /* \"#utility.yul\":3911:3912   */\n      0x00\n        /* \"#utility.yul\":3902:3908   */\n      dup5\n        /* \"#utility.yul\":3897:3900   */\n      dup5\n        /* \"#utility.yul\":3893:3909   */\n      add\n        /* \"#utility.yul\":3886:3913   */\n      mstore\n        /* \"#utility.yul\":3735:3919   */\n      pop\n        /* \"#utility.yul\":3673:3919   */\n      pop\n      pop\n      pop\n      jump\t// out\n        /* \"#utility.yul\":3925:4302   */\n    tag_235:\n        /* \"#utility.yul\":4013:4016   */\n      0x00\n        /* \"#utility.yul\":4041:4080   */\n      tag_333\n        /* \"#utility.yul\":4074:4079   */\n      dup3\n        /* \"#utility.yul\":4041:4080   */\n      tag_232\n      jump\t// in\n    tag_333:\n        /* \"#utility.yul\":4096:4167   */\n      tag_334\n        /* \"#utility.yul\":4160:4166   */\n      dup2\n        /* \"#utility.yul\":4155:4158   */\n      dup6\n        /* \"#utility.yul\":4096:4167   */\n      tag_233\n      jump\t// in\n    tag_334:\n        /* \"#utility.yul\":4089:4167   */\n      swap4\n      pop\n        /* \"#utility.yul\":4176:4241   */\n      tag_335\n        /* \"#utility.yul\":4234:4240   */\n      dup2\n        /* \"#utility.yul\":4229:4232   */\n      dup6\n        /* \"#utility.yul\":4222:4226   */\n      0x20\n        /* \"#utility.yul\":4215:4220   */\n      dup7\n        /* \"#utility.yul\":4211:4227   */\n      add\n        /* \"#utility.yul\":4176:4241   */\n      tag_234\n      jump\t// in\n    tag_335:\n        /* \"#utility.yul\":4266:4295   */\n      tag_336\n        /* \"#utility.yul\":4288:4294   */\n      dup2\n        /* \"#utility.yul\":4266:4295   */\n      tag_224\n      jump\t// in\n    tag_336:\n        /* \"#utility.yul\":4261:4264   */\n      dup5\n        /* \"#utility.yul\":4257:4296   */\n      add\n        /* \"#utility.yul\":4250:4296   */\n      swap2\n      pop\n        /* \"#utility.yul\":4017:4302   */\n      pop\n        /* \"#utility.yul\":3925:4302   */\n      swap3\n      swap2\n      pop\n      pop\n      jump\t// out\n        /* \"#utility.yul\":4308:4621   */\n    tag_30:\n        /* \"#utility.yul\":4421:4425   */\n      0x00\n        /* \"#utility.yul\":4459:4461   */\n      0x20\n        /* \"#utility.yul\":4448:4457   */\n      dup3\n        /* \"#utility.yul\":4444:4462   */\n      add\n        /* \"#utility.yul\":4436:4462   */\n      swap1\n      pop\n        /* \"#utility.yul\":4508:4517   */\n      dup2\n        /* \"#utility.yul\":4502:4506   */\n      dup2\n        /* \"#utility.yul\":4498:4518   */\n      sub\n        /* \"#utility.yul\":4494:4495   */\n      0x00\n        /* \"#utility.yul\":4483:4492   */\n      dup4\n        /* \"#utility.yul\":4479:4496   */\n      add\n        /* \"#utility.yul\":4472:4519   */\n      mstore\n        /* \"#utility.yul\":4536:4614   */\n      tag_338\n        /* \"#utility.yul\":4609:4613   */\n      dup2\n        /* \"#utility.yul\":4600:4606   */\n      dup5\n        /* \"#utility.yul\":4536:4614   */\n      tag_235\n      jump\t// in\n    tag_338:\n        /* \"#utility.yul\":4528:4614   */\n      swap1\n      pop\n        /* \"#utility.yul\":4308:4621   */\n      swap3\n      swap2\n      pop\n      pop\n      jump\t// out\n        /* \"#utility.yul\":4627:4753   */\n    tag_236:\n        /* \"#utility.yul\":4664:4671   */\n      0x00\n        /* \"#utility.yul\":4704:4746   */\n      0xffffffffffffffffffffffffffffffffffffffff\n        /* \"#utility.yul\":4697:4702   */\n      dup3\n        /* \"#utility.yul\":4693:4747   */\n      and\n        /* \"#utility.yul\":4682:4747   */\n      swap1\n      pop\n        /* \"#utility.yul\":4627:4753   */\n      swap2\n      swap1\n      pop\n      jump\t// out\n        /* \"#utility.yul\":4759:4855   */\n    tag_237:\n        /* \"#utility.yul\":4796:4803   */\n      0x00\n        /* \"#utility.yul\":4825:4849   */\n      tag_341\n        /* \"#utility.yul\":4843:4848   */\n      dup3\n        /* \"#utility.yul\":4825:4849   */\n      tag_236\n      jump\t// in\n    tag_341:\n        /* \"#utility.yul\":4814:4849   */\n      swap1\n      pop\n        /* \"#utility.yul\":4759:4855   */\n      swap2\n      swap1\n      pop\n      jump\t// out\n        /* \"#utility.yul\":4861:4979   */\n    tag_238:\n        /* \"#utility.yul\":4948:4972   */\n      tag_343\n        /* \"#utility.yul\":4966:4971   */\n      dup2\n        /* \"#utility.yul\":4948:4972   */\n      tag_237\n      jump\t// in\n    tag_343:\n        /* \"#utility.yul\":4943:4946   */\n      dup3\n        /* \"#utility.yul\":4936:4973   */\n      mstore\n        /* \"#utility.yul\":4861:4979   */\n      pop\n      pop\n      jump\t// out\n        /* \"#utility.yul\":4985:5207   */\n    tag_34:\n        /* \"#utility.yul\":5078:5082   */\n      0x00\n        /* \"#utility.yul\":5116:5118   */\n      0x20\n        /* \"#utility.yul\":5105:5114   */\n      dup3\n        /* \"#utility.yul\":5101:5119   */\n      add\n        /* \"#utility.yul\":5093:5119   */\n      swap1\n      pop\n        /* \"#utility.yul\":5129:5200   */\n      tag_345\n        /* \"#utility.yul\":5197:5198   */\n      0x00\n        /* \"#utility.yul\":5186:5195   */\n      dup4\n        /* \"#utility.yul\":5182:5199   */\n      add\n        /* \"#utility.yul\":5173:5179   */\n      dup5\n        /* \"#utility.yul\":5129:5200   */\n      tag_238\n      jump\t// in\n    tag_345:\n        /* \"#utility.yul\":4985:5207   */\n      swap3\n      swap2\n      pop\n      pop\n      jump\t// out\n        /* \"#utility.yul\":5213:5290   */\n    tag_239:\n        /* \"#utility.yul\":5250:5257   */\n      0x00\n        /* \"#utility.yul\":5279:5284   */\n      dup2\n        /* \"#utility.yul\":5268:5284   */\n      swap1\n      pop\n        /* \"#utility.yul\":5213:5290   */\n      swap2\n      swap1\n      pop\n      jump\t// out\n        /* \"#utility.yul\":5296:5418   */\n    tag_240:\n        /* \"#utility.yul\":5369:5393   */\n      tag_348\n        /* \"#utility.yul\":5387:5392   */\n      dup2\n        /* \"#utility.yul\":5369:5393   */\n      tag_239\n      jump\t// in\n    tag_348:\n        /* \"#utility.yul\":5362:5367   */\n      dup2\n        /* \"#utility.yul\":5359:5394   */\n      eq\n        /* \"#utility.yul\":5349:5412   */\n      tag_349\n      jumpi\n        /* \"#utility.yul\":5408:5409   */\n      0x00\n        /* \"#utility.yul\":5405:5406   */\n      dup1\n        /* \"#utility.yul\":5398:5410   */\n      revert\n        /* \"#utility.yul\":5349:5412   */\n    tag_349:\n        /* \"#utility.yul\":5296:5418   */\n      pop\n      jump\t// out\n        /* \"#utility.yul\":5424:5563   */\n    tag_241:\n        /* \"#utility.yul\":5470:5475   */\n      0x00\n        /* \"#utility.yul\":5508:5514   */\n      dup2\n        /* \"#utility.yul\":5495:5515   */\n      calldataload\n        /* \"#utility.yul\":5486:5515   */\n      swap1\n      pop\n        /* \"#utility.yul\":5524:5557   */\n      tag_351\n        /* \"#utility.yul\":5551:5556   */\n      dup2\n        /* \"#utility.yul\":5524:5557   */\n      tag_240\n      jump\t// in\n    tag_351:\n        /* \"#utility.yul\":5424:5563   */\n      swap3\n      swap2\n      pop\n      pop\n      jump\t// out\n        /* \"#utility.yul\":5569:5898   */\n    tag_37:\n        /* \"#utility.yul\":5628:5634   */\n      0x00\n        /* \"#utility.yul\":5677:5679   */\n      0x20\n        /* \"#utility.yul\":5665:5674   */\n      dup3\n        /* \"#utility.yul\":5656:5663   */\n      dup5\n        /* \"#utility.yul\":5652:5675   */\n      sub\n        /* \"#utility.yul\":5648:5680   */\n      slt\n        /* \"#utility.yul\":5645:5764   */\n      iszero\n      tag_353\n      jumpi\n        /* \"#utility.yul\":5683:5762   */\n      tag_354\n      tag_220\n      jump\t// in\n    tag_354:\n        /* \"#utility.yul\":5645:5764   */\n    tag_353:\n        /* \"#utility.yul\":5803:5804   */\n      0x00\n        /* \"#utility.yul\":5828:5881   */\n      tag_355\n        /* \"#utility.yul\":5873:5880   */\n      dup5\n        /* \"#utility.yul\":5864:5870   */\n      dup3\n        /* \"#utility.yul\":5853:5862   */\n      dup6\n        /* \"#utility.yul\":5849:5871   */\n      add\n        /* \"#utility.yul\":5828:5881   */\n      tag_241\n      jump\t// in\n    tag_355:\n        /* \"#utility.yul\":5818:5881   */\n      swap2\n      pop\n        /* \"#utility.yul\":5774:5891   */\n      pop\n        /* \"#utility.yul\":5569:5898   */\n      swap3\n      swap2\n      pop\n      pop\n      jump\t// out\n        /* \"#utility.yul\":5904:6022   */\n    tag_242:\n        /* \"#utility.yul\":5991:6015   */\n      tag_357\n        /* \"#utility.yul\":6009:6014   */\n      dup2\n        /* \"#utility.yul\":5991:6015   */\n      tag_239\n      jump\t// in\n    tag_357:\n        /* \"#utility.yul\":5986:5989   */\n      dup3\n        /* \"#utility.yul\":5979:6016   */\n      mstore\n        /* \"#utility.yul\":5904:6022   */\n      pop\n      pop\n      jump\t// out\n        /* \"#utility.yul\":6028:6652   */\n    tag_40:\n        /* \"#utility.yul\":6217:6221   */\n      0x00\n        /* \"#utility.yul\":6255:6257   */\n      0x60\n        /* \"#utility.yul\":6244:6253   */\n      dup3\n        /* \"#utility.yul\":6240:6258   */\n      add\n        /* \"#utility.yul\":6232:6258   */\n      swap1\n      pop\n        /* \"#utility.yul\":6304:6313   */\n      dup2\n        /* \"#utility.yul\":6298:6302   */\n      dup2\n        /* \"#utility.yul\":6294:6314   */\n      sub\n        /* \"#utility.yul\":6290:6291   */\n      0x00\n        /* \"#utility.yul\":6279:6288   */\n      dup4\n        /* \"#utility.yul\":6275:6292   */\n      add\n        /* \"#utility.yul\":6268:6315   */\n      mstore\n        /* \"#utility.yul\":6332:6410   */\n      tag_359\n        /* \"#utility.yul\":6405:6409   */\n      dup2\n        /* \"#utility.yul\":6396:6402   */\n      dup7\n        /* \"#utility.yul\":6332:6410   */\n      tag_235\n      jump\t// in\n    tag_359:\n        /* \"#utility.yul\":6324:6410   */\n      swap1\n      pop\n        /* \"#utility.yul\":6457:6466   */\n      dup2\n        /* \"#utility.yul\":6451:6455   */\n      dup2\n        /* \"#utility.yul\":6447:6467   */\n      sub\n        /* \"#utility.yul\":6442:6444   */\n      0x20\n        /* \"#utility.yul\":6431:6440   */\n      dup4\n        /* \"#utility.yul\":6427:6445   */\n      add\n        /* \"#utility.yul\":6420:6468   */\n      mstore\n        /* \"#utility.yul\":6485:6563   */\n      tag_360\n        /* \"#utility.yul\":6558:6562   */\n      dup2\n        /* \"#utility.yul\":6549:6555   */\n      dup6\n        /* \"#utility.yul\":6485:6563   */\n      tag_235\n      jump\t// in\n    tag_360:\n        /* \"#utility.yul\":6477:6563   */\n      swap1\n      pop\n        /* \"#utility.yul\":6573:6645   */\n      tag_361\n        /* \"#utility.yul\":6641:6643   */\n      0x40\n        /* \"#utility.yul\":6630:6639   */\n      dup4\n        /* \"#utility.yul\":6626:6644   */\n      add\n        /* \"#utility.yul\":6617:6623   */\n      dup5\n        /* \"#utility.yul\":6573:6645   */\n      tag_242\n      jump\t// in\n    tag_361:\n        /* \"#utility.yul\":6028:6652   */\n      swap5\n      swap4\n      pop\n      pop\n      pop\n      pop\n      jump\t// out\n        /* \"#utility.yul\":6658:6748   */\n    tag_243:\n        /* \"#utility.yul\":6692:6699   */\n      0x00\n        /* \"#utility.yul\":6735:6740   */\n      dup2\n        /* \"#utility.yul\":6728:6741   */\n      iszero\n        /* \"#utility.yul\":6721:6742   */\n      iszero\n        /* \"#utility.yul\":6710:6742   */\n      swap1\n      pop\n        /* \"#utility.yul\":6658:6748   */\n      swap2\n      swap1\n      pop\n      jump\t// out\n        /* \"#utility.yul\":6754:6863   */\n    tag_244:\n        /* \"#utility.yul\":6835:6856   */\n      tag_364\n        /* \"#utility.yul\":6850:6855   */\n      dup2\n        /* \"#utility.yul\":6835:6856   */\n      tag_243\n      jump\t// in\n    tag_364:\n        /* \"#utility.yul\":6830:6833   */\n      dup3\n        /* \"#utility.yul\":6823:6857   */\n      mstore\n        /* \"#utility.yul\":6754:6863   */\n      pop\n      pop\n      jump\t// out\n        /* \"#utility.yul\":6869:7079   */\n    tag_44:\n        /* \"#utility.yul\":6956:6960   */\n      0x00\n        /* \"#utility.yul\":6994:6996   */\n      0x20\n        /* \"#utility.yul\":6983:6992   */\n      dup3\n        /* \"#utility.yul\":6979:6997   */\n      add\n        /* \"#utility.yul\":6971:6997   */\n      swap1\n      pop\n        /* \"#utility.yul\":7007:7072   */\n      tag_366\n        /* \"#utility.yul\":7069:7070   */\n      0x00\n        /* \"#utility.yul\":7058:7067   */\n      dup4\n        /* \"#utility.yul\":7054:7071   */\n      add\n        /* \"#utility.yul\":7045:7051   */\n      dup5\n        /* \"#utility.yul\":7007:7072   */\n      tag_244\n      jump\t// in\n    tag_366:\n        /* \"#utility.yul\":6869:7079   */\n      swap3\n      swap2\n      pop\n      pop\n      jump\t// out\n        /* \"#utility.yul\":7085:7224   */\n    tag_245:\n        /* \"#utility.yul\":7177:7183   */\n      0x00\n        /* \"#utility.yul\":7211:7216   */\n      dup2\n        /* \"#utility.yul\":7205:7217   */\n      mload\n        /* \"#utility.yul\":7195:7217   */\n      swap1\n      pop\n        /* \"#utility.yul\":7085:7224   */\n      swap2\n      swap1\n      pop\n      jump\t// out\n        /* \"#utility.yul\":7230:7439   */\n    tag_246:\n        /* \"#utility.yul\":7354:7365   */\n      0x00\n        /* \"#utility.yul\":7388:7394   */\n      dup3\n        /* \"#utility.yul\":7383:7386   */\n      dup3\n        /* \"#utility.yul\":7376:7395   */\n      mstore\n        /* \"#utility.yul\":7428:7432   */\n      0x20\n        /* \"#utility.yul\":7423:7426   */\n      dup3\n        /* \"#utility.yul\":7419:7433   */\n      add\n        /* \"#utility.yul\":7404:7433   */\n      swap1\n      pop\n        /* \"#utility.yul\":7230:7439   */\n      swap3\n      swap2\n      pop\n      pop\n      jump\t// out\n        /* \"#utility.yul\":7445:7602   */\n    tag_247:\n        /* \"#utility.yul\":7537:7541   */\n      0x00\n        /* \"#utility.yul\":7560:7563   */\n      dup2\n        /* \"#utility.yul\":7552:7563   */\n      swap1\n      pop\n        /* \"#utility.yul\":7590:7594   */\n      0x20\n        /* \"#utility.yul\":7585:7588   */\n      dup3\n        /* \"#utility.yul\":7581:7595   */\n      add\n        /* \"#utility.yul\":7573:7595   */\n      swap1\n      pop\n        /* \"#utility.yul\":7445:7602   */\n      swap2\n      swap1\n      pop\n      jump\t// out\n        /* \"#utility.yul\":7608:7767   */\n    tag_248:\n        /* \"#utility.yul\":7682:7693   */\n      0x00\n        /* \"#utility.yul\":7716:7722   */\n      dup3\n        /* \"#utility.yul\":7711:7714   */\n      dup3\n        /* \"#utility.yul\":7704:7723   */\n      mstore\n        /* \"#utility.yul\":7756:7760   */\n      0x20\n        /* \"#utility.yul\":7751:7754   */\n      dup3\n        /* \"#utility.yul\":7747:7761   */\n      add\n        /* \"#utility.yul\":7732:7761   */\n      swap1\n      pop\n        /* \"#utility.yul\":7608:7767   */\n      swap3\n      swap2\n      pop\n      pop\n      jump\t// out\n        /* \"#utility.yul\":7773:8130   */\n    tag_249:\n        /* \"#utility.yul\":7851:7854   */\n      0x00\n        /* \"#utility.yul\":7879:7918   */\n      tag_372\n        /* \"#utility.yul\":7912:7917   */\n      dup3\n        /* \"#utility.yul\":7879:7918   */\n      tag_232\n      jump\t// in\n    tag_372:\n        /* \"#utility.yul\":7934:7995   */\n      tag_373\n        /* \"#utility.yul\":7988:7994   */\n      dup2\n        /* \"#utility.yul\":7983:7986   */\n      dup6\n        /* \"#utility.yul\":7934:7995   */\n      tag_248\n      jump\t// in\n    tag_373:\n        /* \"#utility.yul\":7927:7995   */\n      swap4\n      pop\n        /* \"#utility.yul\":8004:8069   */\n      tag_374\n        /* \"#utility.yul\":8062:8068   */\n      dup2\n        /* \"#utility.yul\":8057:8060   */\n      dup6\n        /* \"#utility.yul\":8050:8054   */\n      0x20\n        /* \"#utility.yul\":8043:8048   */\n      dup7\n        /* \"#utility.yul\":8039:8055   */\n      add\n        /* \"#utility.yul\":8004:8069   */\n      tag_234\n      jump\t// in\n    tag_374:\n        /* \"#utility.yul\":8094:8123   */\n      tag_375\n        /* \"#utility.yul\":8116:8122   */\n      dup2\n        /* \"#utility.yul\":8094:8123   */\n      tag_224\n      jump\t// in\n    tag_375:\n        /* \"#utility.yul\":8089:8092   */\n      dup5\n        /* \"#utility.yul\":8085:8124   */\n      add\n        /* \"#utility.yul\":8078:8124   */\n      swap2\n      pop\n        /* \"#utility.yul\":7855:8130   */\n      pop\n        /* \"#utility.yul\":7773:8130   */\n      swap3\n      swap2\n      pop\n      pop\n      jump\t// out\n        /* \"#utility.yul\":8136:8244   */\n    tag_250:\n        /* \"#utility.yul\":8213:8237   */\n      tag_377\n        /* \"#utility.yul\":8231:8236   */\n      dup2\n        /* \"#utility.yul\":8213:8237   */\n      tag_239\n      jump\t// in\n    tag_377:\n        /* \"#utility.yul\":8208:8211   */\n      dup3\n        /* \"#utility.yul\":8201:8238   */\n      mstore\n        /* \"#utility.yul\":8136:8244   */\n      pop\n      pop\n      jump\t// out\n        /* \"#utility.yul\":8312:9160   */\n    tag_251:\n        /* \"#utility.yul\":8421:8424   */\n      0x00\n        /* \"#utility.yul\":8457:8461   */\n      0x60\n        /* \"#utility.yul\":8452:8455   */\n      dup4\n        /* \"#utility.yul\":8448:8462   */\n      add\n        /* \"#utility.yul\":8544:8548   */\n      0x00\n        /* \"#utility.yul\":8537:8542   */\n      dup4\n        /* \"#utility.yul\":8533:8549   */\n      add\n        /* \"#utility.yul\":8527:8550   */\n      mload\n        /* \"#utility.yul\":8597:8600   */\n      dup5\n        /* \"#utility.yul\":8591:8595   */\n      dup3\n        /* \"#utility.yul\":8587:8601   */\n      sub\n        /* \"#utility.yul\":8580:8584   */\n      0x00\n        /* \"#utility.yul\":8575:8578   */\n      dup7\n        /* \"#utility.yul\":8571:8585   */\n      add\n        /* \"#utility.yul\":8564:8602   */\n      mstore\n        /* \"#utility.yul\":8623:8696   */\n      tag_379\n        /* \"#utility.yul\":8691:8695   */\n      dup3\n        /* \"#utility.yul\":8677:8689   */\n      dup3\n        /* \"#utility.yul\":8623:8696   */\n      tag_249\n      jump\t// in\n    tag_379:\n        /* \"#utility.yul\":8615:8696   */\n      swap2\n      pop\n        /* \"#utility.yul\":8472:8707   */\n      pop\n        /* \"#utility.yul\":8790:8794   */\n      0x20\n        /* \"#utility.yul\":8783:8788   */\n      dup4\n        /* \"#utility.yul\":8779:8795   */\n      add\n        /* \"#utility.yul\":8773:8796   */\n      mload\n        /* \"#utility.yul\":8843:8846   */\n      dup5\n        /* \"#utility.yul\":8837:8841   */\n      dup3\n        /* \"#utility.yul\":8833:8847   */\n      sub\n        /* \"#utility.yul\":8826:8830   */\n      0x20\n        /* \"#utility.yul\":8821:8824   */\n      dup7\n        /* \"#utility.yul\":8817:8831   */\n      add\n        /* \"#utility.yul\":8810:8848   */\n      mstore\n        /* \"#utility.yul\":8869:8942   */\n      tag_380\n        /* \"#utility.yul\":8937:8941   */\n      dup3\n        /* \"#utility.yul\":8923:8935   */\n      dup3\n        /* \"#utility.yul\":8869:8942   */\n      tag_249\n      jump\t// in\n    tag_380:\n        /* \"#utility.yul\":8861:8942   */\n      swap2\n      pop\n        /* \"#utility.yul\":8717:8953   */\n      pop\n        /* \"#utility.yul\":9041:9045   */\n      0x40\n        /* \"#utility.yul\":9034:9039   */\n      dup4\n        /* \"#utility.yul\":9030:9046   */\n      add\n        /* \"#utility.yul\":9024:9047   */\n      mload\n        /* \"#utility.yul\":9060:9123   */\n      tag_381\n        /* \"#utility.yul\":9117:9121   */\n      0x40\n        /* \"#utility.yul\":9112:9115   */\n      dup7\n        /* \"#utility.yul\":9108:9122   */\n      add\n        /* \"#utility.yul\":9094:9106   */\n      dup3\n        /* \"#utility.yul\":9060:9123   */\n      tag_250\n      jump\t// in\n    tag_381:\n        /* \"#utility.yul\":8963:9133   */\n      pop\n        /* \"#utility.yul\":9150:9154   */\n      dup1\n        /* \"#utility.yul\":9143:9154   */\n      swap2\n      pop\n        /* \"#utility.yul\":8426:9160   */\n      pop\n        /* \"#utility.yul\":8312:9160   */\n      swap3\n      swap2\n      pop\n      pop\n      jump\t// out\n        /* \"#utility.yul\":9166:9422   */\n    tag_252:\n        /* \"#utility.yul\":9285:9295   */\n      0x00\n        /* \"#utility.yul\":9320:9416   */\n      tag_383\n        /* \"#utility.yul\":9412:9415   */\n      dup4\n        /* \"#utility.yul\":9404:9410   */\n      dup4\n        /* \"#utility.yul\":9320:9416   */\n      tag_251\n      jump\t// in\n    tag_383:\n        /* \"#utility.yul\":9306:9416   */\n      swap1\n      pop\n        /* \"#utility.yul\":9166:9422   */\n      swap3\n      swap2\n      pop\n      pop\n      jump\t// out\n        /* \"#utility.yul\":9428:9566   */\n    tag_253:\n        /* \"#utility.yul\":9523:9527   */\n      0x00\n        /* \"#utility.yul\":9555:9559   */\n      0x20\n        /* \"#utility.yul\":9550:9553   */\n      dup3\n        /* \"#utility.yul\":9546:9560   */\n      add\n        /* \"#utility.yul\":9538:9560   */\n      swap1\n      pop\n        /* \"#utility.yul\":9428:9566   */\n      swap2\n      swap1\n      pop\n      jump\t// out\n        /* \"#utility.yul\":9638:10749   */\n    tag_254:\n        /* \"#utility.yul\":9807:9810   */\n      0x00\n        /* \"#utility.yul\":9836:9915   */\n      tag_386\n        /* \"#utility.yul\":9909:9914   */\n      dup3\n        /* \"#utility.yul\":9836:9915   */\n      tag_245\n      jump\t// in\n    tag_386:\n        /* \"#utility.yul\":9931:10042   */\n      tag_387\n        /* \"#utility.yul\":10035:10041   */\n      dup2\n        /* \"#utility.yul\":10030:10033   */\n      dup6\n        /* \"#utility.yul\":9931:10042   */\n      tag_246\n      jump\t// in\n    tag_387:\n        /* \"#utility.yul\":9924:10042   */\n      swap4\n      pop\n        /* \"#utility.yul\":10068:10071   */\n      dup4\n        /* \"#utility.yul\":10113:10117   */\n      0x20\n        /* \"#utility.yul\":10105:10111   */\n      dup3\n        /* \"#utility.yul\":10101:10118   */\n      mul\n        /* \"#utility.yul\":10096:10099   */\n      dup6\n        /* \"#utility.yul\":10092:10119   */\n      add\n        /* \"#utility.yul\":10143:10224   */\n      tag_388\n        /* \"#utility.yul\":10218:10223   */\n      dup6\n        /* \"#utility.yul\":10143:10224   */\n      tag_247\n      jump\t// in\n    tag_388:\n        /* \"#utility.yul\":10247:10254   */\n      dup1\n        /* \"#utility.yul\":10278:10279   */\n      0x00\n        /* \"#utility.yul\":10263:10704   */\n    tag_389:\n        /* \"#utility.yul\":10288:10294   */\n      dup6\n        /* \"#utility.yul\":10285:10286   */\n      dup2\n        /* \"#utility.yul\":10282:10295   */\n      lt\n        /* \"#utility.yul\":10263:10704   */\n      iszero\n      tag_391\n      jumpi\n        /* \"#utility.yul\":10359:10368   */\n      dup5\n        /* \"#utility.yul\":10353:10357   */\n      dup5\n        /* \"#utility.yul\":10349:10369   */\n      sub\n        /* \"#utility.yul\":10344:10347   */\n      dup10\n        /* \"#utility.yul\":10337:10370   */\n      mstore\n        /* \"#utility.yul\":10410:10416   */\n      dup2\n        /* \"#utility.yul\":10404:10417   */\n      mload\n        /* \"#utility.yul\":10438:10552   */\n      tag_392\n        /* \"#utility.yul\":10547:10551   */\n      dup6\n        /* \"#utility.yul\":10532:10545   */\n      dup3\n        /* \"#utility.yul\":10438:10552   */\n      tag_252\n      jump\t// in\n    tag_392:\n        /* \"#utility.yul\":10430:10552   */\n      swap5\n      pop\n        /* \"#utility.yul\":10575:10660   */\n      tag_393\n        /* \"#utility.yul\":10653:10659   */\n      dup4\n        /* \"#utility.yul\":10575:10660   */\n      tag_253\n      jump\t// in\n    tag_393:\n        /* \"#utility.yul\":10565:10660   */\n      swap3\n      pop\n        /* \"#utility.yul\":10689:10693   */\n      0x20\n        /* \"#utility.yul\":10684:10687   */\n      dup11\n        /* \"#utility.yul\":10680:10694   */\n      add\n        /* \"#utility.yul\":10673:10694   */\n      swap10\n      pop\n        /* \"#utility.yul\":10323:10704   */\n      pop\n        /* \"#utility.yul\":10310:10311   */\n      0x01\n        /* \"#utility.yul\":10307:10308   */\n      dup2\n        /* \"#utility.yul\":10303:10312   */\n      add\n        /* \"#utility.yul\":10298:10312   */\n      swap1\n      pop\n        /* \"#utility.yul\":10263:10704   */\n      jump(tag_389)\n    tag_391:\n        /* \"#utility.yul\":10267:10281   */\n      pop\n        /* \"#utility.yul\":10720:10724   */\n      dup3\n        /* \"#utility.yul\":10713:10724   */\n      swap8\n      pop\n        /* \"#utility.yul\":10740:10743   */\n      dup8\n        /* \"#utility.yul\":10733:10743   */\n      swap6\n      pop\n        /* \"#utility.yul\":9812:10749   */\n      pop\n      pop\n      pop\n      pop\n      pop\n        /* \"#utility.yul\":9638:10749   */\n      swap3\n      swap2\n      pop\n      pop\n      jump\t// out\n        /* \"#utility.yul\":10755:11228   */\n    tag_48:\n        /* \"#utility.yul\":10948:10952   */\n      0x00\n        /* \"#utility.yul\":10986:10988   */\n      0x20\n        /* \"#utility.yul\":10975:10984   */\n      dup3\n        /* \"#utility.yul\":10971:10989   */\n      add\n        /* \"#utility.yul\":10963:10989   */\n      swap1\n      pop\n        /* \"#utility.yul\":11035:11044   */\n      dup2\n        /* \"#utility.yul\":11029:11033   */\n      dup2\n        /* \"#utility.yul\":11025:11045   */\n      sub\n        /* \"#utility.yul\":11021:11022   */\n      0x00\n        /* \"#utility.yul\":11010:11019   */\n      dup4\n        /* \"#utility.yul\":11006:11023   */\n      add\n        /* \"#utility.yul\":10999:11046   */\n      mstore\n        /* \"#utility.yul\":11063:11221   */\n      tag_395\n        /* \"#utility.yul\":11216:11220   */\n      dup2\n        /* \"#utility.yul\":11207:11213   */\n      dup5\n        /* \"#utility.yul\":11063:11221   */\n      tag_254\n      jump\t// in\n    tag_395:\n        /* \"#utility.yul\":11055:11221   */\n      swap1\n      pop\n        /* \"#utility.yul\":10755:11228   */\n      swap3\n      swap2\n      pop\n      pop\n      jump\t// out\n        /* \"#utility.yul\":11234:11456   */\n    tag_52:\n        /* \"#utility.yul\":11327:11331   */\n      0x00\n        /* \"#utility.yul\":11365:11367   */\n      0x20\n        /* \"#utility.yul\":11354:11363   */\n      dup3\n        /* \"#utility.yul\":11350:11368   */\n      add\n        /* \"#utility.yul\":11342:11368   */\n      swap1\n      pop\n        /* \"#utility.yul\":11378:11449   */\n      tag_397\n        /* \"#utility.yul\":11446:11447   */\n      0x00\n        /* \"#utility.yul\":11435:11444   */\n      dup4\n        /* \"#utility.yul\":11431:11448   */\n      add\n        /* \"#utility.yul\":11422:11428   */\n      dup5\n        /* \"#utility.yul\":11378:11449   */\n      tag_242\n      jump\t// in\n    tag_397:\n        /* \"#utility.yul\":11234:11456   */\n      swap3\n      swap2\n      pop\n      pop\n      jump\t// out\n        /* \"#utility.yul\":11462:11584   */\n    tag_255:\n        /* \"#utility.yul\":11535:11559   */\n      tag_399\n        /* \"#utility.yul\":11553:11558   */\n      dup2\n        /* \"#utility.yul\":11535:11559   */\n      tag_237\n      jump\t// in\n    tag_399:\n        /* \"#utility.yul\":11528:11533   */\n      dup2\n        /* \"#utility.yul\":11525:11560   */\n      eq\n        /* \"#utility.yul\":11515:11578   */\n      tag_400\n      jumpi\n        /* \"#utility.yul\":11574:11575   */\n      0x00\n        /* \"#utility.yul\":11571:11572   */\n      dup1\n        /* \"#utility.yul\":11564:11576   */\n      revert\n        /* \"#utility.yul\":11515:11578   */\n    tag_400:\n        /* \"#utility.yul\":11462:11584   */\n      pop\n      jump\t// out\n        /* \"#utility.yul\":11590:11729   */\n    tag_256:\n        /* \"#utility.yul\":11636:11641   */\n      0x00\n        /* \"#utility.yul\":11674:11680   */\n      dup2\n        /* \"#utility.yul\":11661:11681   */\n      calldataload\n        /* \"#utility.yul\":11652:11681   */\n      swap1\n      pop\n        /* \"#utility.yul\":11690:11723   */\n      tag_402\n        /* \"#utility.yul\":11717:11722   */\n      dup2\n        /* \"#utility.yul\":11690:11723   */\n      tag_255\n      jump\t// in\n    tag_402:\n        /* \"#utility.yul\":11590:11729   */\n      swap3\n      swap2\n      pop\n      pop\n      jump\t// out\n        /* \"#utility.yul\":11735:12064   */\n    tag_55:\n        /* \"#utility.yul\":11794:11800   */\n      0x00\n        /* \"#utility.yul\":11843:11845   */\n      0x20\n        /* \"#utility.yul\":11831:11840   */\n      dup3\n        /* \"#utility.yul\":11822:11829   */\n      dup5\n        /* \"#utility.yul\":11818:11841   */\n      sub\n        /* \"#utility.yul\":11814:11846   */\n      slt\n        /* \"#utility.yul\":11811:11930   */\n      iszero\n      tag_404\n      jumpi\n        /* \"#utility.yul\":11849:11928   */\n      tag_405\n      tag_220\n      jump\t// in\n    tag_405:\n        /* \"#utility.yul\":11811:11930   */\n    tag_404:\n        /* \"#utility.yul\":11969:11970   */\n      0x00\n        /* \"#utility.yul\":11994:12047   */\n      tag_406\n        /* \"#utility.yul\":12039:12046   */\n      dup5\n        /* \"#utility.yul\":12030:12036   */\n      dup3\n        /* \"#utility.yul\":12019:12028   */\n      dup6\n        /* \"#utility.yul\":12015:12037   */\n      add\n        /* \"#utility.yul\":11994:12047   */\n      tag_256\n      jump\t// in\n    tag_406:\n        /* \"#utility.yul\":11984:12047   */\n      swap2\n      pop\n        /* \"#utility.yul\":11940:12057   */\n      pop\n        /* \"#utility.yul\":11735:12064   */\n      swap3\n      swap2\n      pop\n      pop\n      jump\t// out\n        /* \"#utility.yul\":12070:12187   */\n    tag_257:\n        /* \"#utility.yul\":12179:12180   */\n      0x00\n        /* \"#utility.yul\":12176:12177   */\n      dup1\n        /* \"#utility.yul\":12169:12181   */\n      revert\n        /* \"#utility.yul\":12193:12310   */\n    tag_258:\n        /* \"#utility.yul\":12302:12303   */\n      0x00\n        /* \"#utility.yul\":12299:12300   */\n      dup1\n        /* \"#utility.yul\":12292:12304   */\n      revert\n        /* \"#utility.yul\":12349:13431   */\n    tag_259:\n        /* \"#utility.yul\":12423:12428   */\n      0x00\n        /* \"#utility.yul\":12467:12471   */\n      0x60\n        /* \"#utility.yul\":12455:12464   */\n      dup3\n        /* \"#utility.yul\":12450:12453   */\n      dup5\n        /* \"#utility.yul\":12446:12465   */\n      sub\n        /* \"#utility.yul\":12442:12472   */\n      slt\n        /* \"#utility.yul\":12439:12556   */\n      iszero\n      tag_410\n      jumpi\n        /* \"#utility.yul\":12475:12554   */\n      tag_411\n      tag_257\n      jump\t// in\n    tag_411:\n        /* \"#utility.yul\":12439:12556   */\n    tag_410:\n        /* \"#utility.yul\":12574:12595   */\n      tag_412\n        /* \"#utility.yul\":12590:12594   */\n      0x60\n        /* \"#utility.yul\":12574:12595   */\n      tag_227\n      jump\t// in\n    tag_412:\n        /* \"#utility.yul\":12565:12595   */\n      swap1\n      pop\n        /* \"#utility.yul\":12682:12683   */\n      0x00\n        /* \"#utility.yul\":12671:12680   */\n      dup3\n        /* \"#utility.yul\":12667:12684   */\n      add\n        /* \"#utility.yul\":12654:12685   */\n      calldataload\n        /* \"#utility.yul\":12712:12730   */\n      0xffffffffffffffff\n        /* \"#utility.yul\":12704:12710   */\n      dup2\n        /* \"#utility.yul\":12701:12731   */\n      gt\n        /* \"#utility.yul\":12698:12815   */\n      iszero\n      tag_413\n      jumpi\n        /* \"#utility.yul\":12734:12813   */\n      tag_414\n      tag_258\n      jump\t// in\n    tag_414:\n        /* \"#utility.yul\":12698:12815   */\n    tag_413:\n        /* \"#utility.yul\":12854:12913   */\n      tag_415\n        /* \"#utility.yul\":12909:12912   */\n      dup5\n        /* \"#utility.yul\":12900:12906   */\n      dup3\n        /* \"#utility.yul\":12889:12898   */\n      dup6\n        /* \"#utility.yul\":12885:12907   */\n      add\n        /* \"#utility.yul\":12854:12913   */\n      tag_231\n      jump\t// in\n    tag_415:\n        /* \"#utility.yul\":12847:12851   */\n      0x00\n        /* \"#utility.yul\":12840:12845   */\n      dup4\n        /* \"#utility.yul\":12836:12852   */\n      add\n        /* \"#utility.yul\":12829:12914   */\n      mstore\n        /* \"#utility.yul\":12605:12925   */\n      pop\n        /* \"#utility.yul\":13013:13015   */\n      0x20\n        /* \"#utility.yul\":13002:13011   */\n      dup3\n        /* \"#utility.yul\":12998:13016   */\n      add\n        /* \"#utility.yul\":12985:13017   */\n      calldataload\n        /* \"#utility.yul\":13044:13062   */\n      0xffffffffffffffff\n        /* \"#utility.yul\":13036:13042   */\n      dup2\n        /* \"#utility.yul\":13033:13063   */\n      gt\n        /* \"#utility.yul\":13030:13147   */\n      iszero\n      tag_416\n      jumpi\n        /* \"#utility.yul\":13066:13145   */\n      tag_417\n      tag_258\n      jump\t// in\n    tag_417:\n        /* \"#utility.yul\":13030:13147   */\n    tag_416:\n        /* \"#utility.yul\":13186:13245   */\n      tag_418\n        /* \"#utility.yul\":13241:13244   */\n      dup5\n        /* \"#utility.yul\":13232:13238   */\n      dup3\n        /* \"#utility.yul\":13221:13230   */\n      dup6\n        /* \"#utility.yul\":13217:13239   */\n      add\n        /* \"#utility.yul\":13186:13245   */\n      tag_231\n      jump\t// in\n    tag_418:\n        /* \"#utility.yul\":13179:13183   */\n      0x20\n        /* \"#utility.yul\":13172:13177   */\n      dup4\n        /* \"#utility.yul\":13168:13184   */\n      add\n        /* \"#utility.yul\":13161:13246   */\n      mstore\n        /* \"#utility.yul\":12935:13257   */\n      pop\n        /* \"#utility.yul\":13322:13324   */\n      0x40\n        /* \"#utility.yul\":13363:13412   */\n      tag_419\n        /* \"#utility.yul\":13408:13411   */\n      dup5\n        /* \"#utility.yul\":13399:13405   */\n      dup3\n        /* \"#utility.yul\":13388:13397   */\n      dup6\n        /* \"#utility.yul\":13384:13406   */\n      add\n        /* \"#utility.yul\":13363:13412   */\n      tag_241\n      jump\t// in\n    tag_419:\n        /* \"#utility.yul\":13356:13360   */\n      0x40\n        /* \"#utility.yul\":13349:13354   */\n      dup4\n        /* \"#utility.yul\":13345:13361   */\n      add\n        /* \"#utility.yul\":13338:13413   */\n      mstore\n        /* \"#utility.yul\":13267:13424   */\n      pop\n        /* \"#utility.yul\":12349:13431   */\n      swap3\n      swap2\n      pop\n      pop\n      jump\t// out\n        /* \"#utility.yul\":13437:13976   */\n    tag_60:\n        /* \"#utility.yul\":13521:13527   */\n      0x00\n        /* \"#utility.yul\":13570:13572   */\n      0x20\n        /* \"#utility.yul\":13558:13567   */\n      dup3\n        /* \"#utility.yul\":13549:13556   */\n      dup5\n        /* \"#utility.yul\":13545:13568   */\n      sub\n        /* \"#utility.yul\":13541:13573   */\n      slt\n        /* \"#utility.yul\":13538:13657   */\n      iszero\n      tag_421\n      jumpi\n        /* \"#utility.yul\":13576:13655   */\n      tag_422\n      tag_220\n      jump\t// in\n    tag_422:\n        /* \"#utility.yul\":13538:13657   */\n    tag_421:\n        /* \"#utility.yul\":13724:13725   */\n      0x00\n        /* \"#utility.yul\":13713:13722   */\n      dup3\n        /* \"#utility.yul\":13709:13726   */\n      add\n        /* \"#utility.yul\":13696:13727   */\n      calldataload\n        /* \"#utility.yul\":13754:13772   */\n      0xffffffffffffffff\n        /* \"#utility.yul\":13746:13752   */\n      dup2\n        /* \"#utility.yul\":13743:13773   */\n      gt\n        /* \"#utility.yul\":13740:13857   */\n      iszero\n      tag_423\n      jumpi\n        /* \"#utility.yul\":13776:13855   */\n      tag_424\n      tag_221\n      jump\t// in\n    tag_424:\n        /* \"#utility.yul\":13740:13857   */\n    tag_423:\n        /* \"#utility.yul\":13881:13959   */\n      tag_425\n        /* \"#utility.yul\":13951:13958   */\n      dup5\n        /* \"#utility.yul\":13942:13948   */\n      dup3\n        /* \"#utility.yul\":13931:13940   */\n      dup6\n        /* \"#utility.yul\":13927:13949   */\n      add\n        /* \"#utility.yul\":13881:13959   */\n      tag_259\n      jump\t// in\n    tag_425:\n        /* \"#utility.yul\":13871:13959   */\n      swap2\n      pop\n        /* \"#utility.yul\":13667:13969   */\n      pop\n        /* \"#utility.yul\":13437:13976   */\n      swap3\n      swap2\n      pop\n      pop\n      jump\t// out\n        /* \"#utility.yul\":13982:14290   */\n    tag_69:\n        /* \"#utility.yul\":14091:14095   */\n      0x00\n        /* \"#utility.yul\":14129:14131   */\n      0x40\n        /* \"#utility.yul\":14118:14127   */\n      dup3\n        /* \"#utility.yul\":14114:14132   */\n      add\n        /* \"#utility.yul\":14106:14132   */\n      swap1\n      pop\n        /* \"#utility.yul\":14142:14207   */\n      tag_427\n        /* \"#utility.yul\":14204:14205   */\n      0x00\n        /* \"#utility.yul\":14193:14202   */\n      dup4\n        /* \"#utility.yul\":14189:14206   */\n      add\n        /* \"#utility.yul\":14180:14186   */\n      dup6\n        /* \"#utility.yul\":14142:14207   */\n      tag_244\n      jump\t// in\n    tag_427:\n        /* \"#utility.yul\":14217:14283   */\n      tag_428\n        /* \"#utility.yul\":14279:14281   */\n      0x20\n        /* \"#utility.yul\":14268:14277   */\n      dup4\n        /* \"#utility.yul\":14264:14282   */\n      add\n        /* \"#utility.yul\":14255:14261   */\n      dup5\n        /* \"#utility.yul\":14217:14283   */\n      tag_244\n      jump\t// in\n    tag_428:\n        /* \"#utility.yul\":13982:14290   */\n      swap4\n      swap3\n      pop\n      pop\n      pop\n      jump\t// out\n        /* \"#utility.yul\":14296:14616   */\n    tag_86:\n        /* \"#utility.yul\":14411:14415   */\n      0x00\n        /* \"#utility.yul\":14449:14451   */\n      0x40\n        /* \"#utility.yul\":14438:14447   */\n      dup3\n        /* \"#utility.yul\":14434:14452   */\n      add\n        /* \"#utility.yul\":14426:14452   */\n      swap1\n      pop\n        /* \"#utility.yul\":14462:14533   */\n      tag_430\n        /* \"#utility.yul\":14530:14531   */\n      0x00\n        /* \"#utility.yul\":14519:14528   */\n      dup4\n        /* \"#utility.yul\":14515:14532   */\n      add\n        /* \"#utility.yul\":14506:14512   */\n      dup6\n        /* \"#utility.yul\":14462:14533   */\n      tag_242\n      jump\t// in\n    tag_430:\n        /* \"#utility.yul\":14543:14609   */\n      tag_431\n        /* \"#utility.yul\":14605:14607   */\n      0x20\n        /* \"#utility.yul\":14594:14603   */\n      dup4\n        /* \"#utility.yul\":14590:14608   */\n      add\n        /* \"#utility.yul\":14581:14587   */\n      dup5\n        /* \"#utility.yul\":14543:14609   */\n      tag_244\n      jump\t// in\n    tag_431:\n        /* \"#utility.yul\":14296:14616   */\n      swap4\n      swap3\n      pop\n      pop\n      pop\n      jump\t// out\n        /* \"#utility.yul\":14622:15131   */\n    tag_89:\n        /* \"#utility.yul\":14691:14697   */\n      0x00\n        /* \"#utility.yul\":14740:14742   */\n      0x20\n        /* \"#utility.yul\":14728:14737   */\n      dup3\n        /* \"#utility.yul\":14719:14726   */\n      dup5\n        /* \"#utility.yul\":14715:14738   */\n      sub\n        /* \"#utility.yul\":14711:14743   */\n      slt\n        /* \"#utility.yul\":14708:14827   */\n      iszero\n      tag_433\n      jumpi\n        /* \"#utility.yul\":14746:14825   */\n      tag_434\n      tag_220\n      jump\t// in\n    tag_434:\n        /* \"#utility.yul\":14708:14827   */\n    tag_433:\n        /* \"#utility.yul\":14894:14895   */\n      0x00\n        /* \"#utility.yul\":14883:14892   */\n      dup3\n        /* \"#utility.yul\":14879:14896   */\n      add\n        /* \"#utility.yul\":14866:14897   */\n      calldataload\n        /* \"#utility.yul\":14924:14942   */\n      0xffffffffffffffff\n        /* \"#utility.yul\":14916:14922   */\n      dup2\n        /* \"#utility.yul\":14913:14943   */\n      gt\n        /* \"#utility.yul\":14910:15027   */\n      iszero\n      tag_435\n      jumpi\n        /* \"#utility.yul\":14946:15025   */\n      tag_436\n      tag_221\n      jump\t// in\n    tag_436:\n        /* \"#utility.yul\":14910:15027   */\n    tag_435:\n        /* \"#utility.yul\":15051:15114   */\n      tag_437\n        /* \"#utility.yul\":15106:15113   */\n      dup5\n        /* \"#utility.yul\":15097:15103   */\n      dup3\n        /* \"#utility.yul\":15086:15095   */\n      dup6\n        /* \"#utility.yul\":15082:15104   */\n      add\n        /* \"#utility.yul\":15051:15114   */\n      tag_231\n      jump\t// in\n    tag_437:\n        /* \"#utility.yul\":15041:15114   */\n      swap2\n      pop\n        /* \"#utility.yul\":14837:15124   */\n      pop\n        /* \"#utility.yul\":14622:15131   */\n      swap3\n      swap2\n      pop\n      pop\n      jump\t// out\n        /* \"#utility.yul\":15137:15367   */\n    tag_260:\n        /* \"#utility.yul\":15277:15311   */\n      0x4f6e6c792074686520636f6e7472616374206f776e65722063616e2061646420\n        /* \"#utility.yul\":15273:15274   */\n      0x00\n        /* \"#utility.yul\":15265:15271   */\n      dup3\n        /* \"#utility.yul\":15261:15275   */\n      add\n        /* \"#utility.yul\":15254:15312   */\n      mstore\n        /* \"#utility.yul\":15346:15359   */\n      0x63616e646964617465732e000000000000000000000000000000000000000000\n        /* \"#utility.yul\":15341:15343   */\n      0x20\n        /* \"#utility.yul\":15333:15339   */\n      dup3\n        /* \"#utility.yul\":15329:15344   */\n      add\n        /* \"#utility.yul\":15322:15360   */\n      mstore\n        /* \"#utility.yul\":15137:15367   */\n      pop\n      jump\t// out\n        /* \"#utility.yul\":15373:15739   */\n    tag_261:\n        /* \"#utility.yul\":15515:15518   */\n      0x00\n        /* \"#utility.yul\":15536:15603   */\n      tag_440\n        /* \"#utility.yul\":15600:15602   */\n      0x2b\n        /* \"#utility.yul\":15595:15598   */\n      dup4\n        /* \"#utility.yul\":15536:15603   */\n      tag_233\n      jump\t// in\n    tag_440:\n        /* \"#utility.yul\":15529:15603   */\n      swap2\n      pop\n        /* \"#utility.yul\":15612:15705   */\n      tag_441\n        /* \"#utility.yul\":15701:15704   */\n      dup3\n        /* \"#utility.yul\":15612:15705   */\n      tag_260\n      jump\t// in\n    tag_441:\n        /* \"#utility.yul\":15730:15732   */\n      0x40\n        /* \"#utility.yul\":15725:15728   */\n      dup3\n        /* \"#utility.yul\":15721:15733   */\n      add\n        /* \"#utility.yul\":15714:15733   */\n      swap1\n      pop\n        /* \"#utility.yul\":15373:15739   */\n      swap2\n      swap1\n      pop\n      jump\t// out\n        /* \"#utility.yul\":15745:16164   */\n    tag_95:\n        /* \"#utility.yul\":15911:15915   */\n      0x00\n        /* \"#utility.yul\":15949:15951   */\n      0x20\n        /* \"#utility.yul\":15938:15947   */\n      dup3\n        /* \"#utility.yul\":15934:15952   */\n      add\n        /* \"#utility.yul\":15926:15952   */\n      swap1\n      pop\n        /* \"#utility.yul\":15998:16007   */\n      dup2\n        /* \"#utility.yul\":15992:15996   */\n      dup2\n        /* \"#utility.yul\":15988:16008   */\n      sub\n        /* \"#utility.yul\":15984:15985   */\n      0x00\n        /* \"#utility.yul\":15973:15982   */\n      dup4\n        /* \"#utility.yul\":15969:15986   */\n      add\n        /* \"#utility.yul\":15962:16009   */\n      mstore\n        /* \"#utility.yul\":16026:16157   */\n      tag_443\n        /* \"#utility.yul\":16152:16156   */\n      dup2\n        /* \"#utility.yul\":16026:16157   */\n      tag_261\n      jump\t// in\n    tag_443:\n        /* \"#utility.yul\":16018:16157   */\n      swap1\n      pop\n        /* \"#utility.yul\":15745:16164   */\n      swap2\n      swap1\n      pop\n      jump\t// out\n        /* \"#utility.yul\":16170:16350   */\n    tag_262:\n        /* \"#utility.yul\":16218:16295   */\n      0x4e487b7100000000000000000000000000000000000000000000000000000000\n        /* \"#utility.yul\":16215:16216   */\n      0x00\n        /* \"#utility.yul\":16208:16296   */\n      mstore\n        /* \"#utility.yul\":16315:16319   */\n      0x22\n        /* \"#utility.yul\":16312:16313   */\n      0x04\n        /* \"#utility.yul\":16305:16320   */\n      mstore\n        /* \"#utility.yul\":16339:16343   */\n      0x24\n        /* \"#utility.yul\":16336:16337   */\n      0x00\n        /* \"#utility.yul\":16329:16344   */\n      revert\n        /* \"#utility.yul\":16356:16676   */\n    tag_111:\n        /* \"#utility.yul\":16400:16406   */\n      0x00\n        /* \"#utility.yul\":16437:16438   */\n      0x02\n        /* \"#utility.yul\":16431:16435   */\n      dup3\n        /* \"#utility.yul\":16427:16439   */\n      div\n        /* \"#utility.yul\":16417:16439   */\n      swap1\n      pop\n        /* \"#utility.yul\":16484:16485   */\n      0x01\n        /* \"#utility.yul\":16478:16482   */\n      dup3\n        /* \"#utility.yul\":16474:16486   */\n      and\n        /* \"#utility.yul\":16505:16523   */\n      dup1\n        /* \"#utility.yul\":16495:16576   */\n      tag_446\n      jumpi\n        /* \"#utility.yul\":16561:16565   */\n      0x7f\n        /* \"#utility.yul\":16553:16559   */\n      dup3\n        /* \"#utility.yul\":16549:16566   */\n      and\n        /* \"#utility.yul\":16539:16566   */\n      swap2\n      pop\n        /* \"#utility.yul\":16495:16576   */\n    tag_446:\n        /* \"#utility.yul\":16623:16625   */\n      0x20\n        /* \"#utility.yul\":16615:16621   */\n      dup3\n        /* \"#utility.yul\":16612:16626   */\n      lt\n        /* \"#utility.yul\":16592:16610   */\n      dup2\n        /* \"#utility.yul\":16589:16627   */\n      sub\n        /* \"#utility.yul\":16586:16670   */\n      tag_447\n      jumpi\n        /* \"#utility.yul\":16642:16660   */\n      tag_448\n      tag_262\n      jump\t// in\n    tag_448:\n        /* \"#utility.yul\":16586:16670   */\n    tag_447:\n        /* \"#utility.yul\":16407:16676   */\n      pop\n        /* \"#utility.yul\":16356:16676   */\n      swap2\n      swap1\n      pop\n      jump\t// out\n        /* \"#utility.yul\":16682:16823   */\n    tag_263:\n        /* \"#utility.yul\":16731:16735   */\n      0x00\n        /* \"#utility.yul\":16754:16757   */\n      dup2\n        /* \"#utility.yul\":16746:16757   */\n      swap1\n      pop\n        /* \"#utility.yul\":16777:16780   */\n      dup2\n        /* \"#utility.yul\":16774:16775   */\n      0x00\n        /* \"#utility.yul\":16767:16781   */\n      mstore\n        /* \"#utility.yul\":16811:16815   */\n      0x20\n        /* \"#utility.yul\":16808:16809   */\n      0x00\n        /* \"#utility.yul\":16798:16816   */\n      keccak256\n        /* \"#utility.yul\":16790:16816   */\n      swap1\n      pop\n        /* \"#utility.yul\":16682:16823   */\n      swap2\n      swap1\n      pop\n      jump\t// out\n        /* \"#utility.yul\":16829:16922   */\n    tag_264:\n        /* \"#utility.yul\":16866:16872   */\n      0x00\n        /* \"#utility.yul\":16913:16915   */\n      0x20\n        /* \"#utility.yul\":16908:16910   */\n      0x1f\n        /* \"#utility.yul\":16901:16906   */\n      dup4\n        /* \"#utility.yul\":16897:16911   */\n      add\n        /* \"#utility.yul\":16893:16916   */\n      div\n        /* \"#utility.yul\":16883:16916   */\n      swap1\n      pop\n        /* \"#utility.yul\":16829:16922   */\n      swap2\n      swap1\n      pop\n      jump\t// out\n        /* \"#utility.yul\":16928:17035   */\n    tag_265:\n        /* \"#utility.yul\":16972:16980   */\n      0x00\n        /* \"#utility.yul\":17022:17027   */\n      dup3\n        /* \"#utility.yul\":17016:17020   */\n      dup3\n        /* \"#utility.yul\":17012:17028   */\n      shl\n        /* \"#utility.yul\":16991:17028   */\n      swap1\n      pop\n        /* \"#utility.yul\":16928:17035   */\n      swap3\n      swap2\n      pop\n      pop\n      jump\t// out\n        /* \"#utility.yul\":17041:17434   */\n    tag_266:\n        /* \"#utility.yul\":17110:17116   */\n      0x00\n        /* \"#utility.yul\":17160:17161   */\n      0x08\n        /* \"#utility.yul\":17148:17158   */\n      dup4\n        /* \"#utility.yul\":17144:17162   */\n      mul\n        /* \"#utility.yul\":17183:17280   */\n      tag_453\n        /* \"#utility.yul\":17213:17279   */\n      0xffffffffffffffffffffffffffffffffffffffffffffffffffffffffffffffff\n        /* \"#utility.yul\":17202:17211   */\n      dup3\n        /* \"#utility.yul\":17183:17280   */\n      tag_265\n      jump\t// in\n    tag_453:\n        /* \"#utility.yul\":17301:17340   */\n      tag_454\n        /* \"#utility.yul\":17331:17339   */\n      dup7\n        /* \"#utility.yul\":17320:17329   */\n      dup4\n        /* \"#utility.yul\":17301:17340   */\n      tag_265\n      jump\t// in\n    tag_454:\n        /* \"#utility.yul\":17289:17340   */\n      swap6\n      pop\n        /* \"#utility.yul\":17373:17377   */\n      dup1\n        /* \"#utility.yul\":17369:17378   */\n      not\n        /* \"#utility.yul\":17362:17367   */\n      dup5\n        /* \"#utility.yul\":17358:17379   */\n      and\n        /* \"#utility.yul\":17349:17379   */\n      swap4\n      pop\n        /* \"#utility.yul\":17422:17426   */\n      dup1\n        /* \"#utility.yul\":17412:17420   */\n      dup7\n        /* \"#utility.yul\":17408:17427   */\n      and\n        /* \"#utility.yul\":17401:17406   */\n      dup5\n        /* \"#utility.yul\":17398:17428   */\n      or\n        /* \"#utility.yul\":17388:17428   */\n      swap3\n      pop\n        /* \"#utility.yul\":17117:17434   */\n      pop\n      pop\n        /* \"#utility.yul\":17041:17434   */\n      swap4\n      swap3\n      pop\n      pop\n      pop\n      jump\t// out\n        /* \"#utility.yul\":17440:17500   */\n    tag_267:\n        /* \"#utility.yul\":17468:17471   */\n      0x00\n        /* \"#utility.yul\":17489:17494   */\n      dup2\n        /* \"#utility.yul\":17482:17494   */\n      swap1\n      pop\n        /* \"#utility.yul\":17440:17500   */\n      swap2\n      swap1\n      pop\n      jump\t// out\n        /* \"#utility.yul\":17506:17648   */\n    tag_268:\n        /* \"#utility.yul\":17556:17565   */\n      0x00\n        /* \"#utility.yul\":17589:17642   */\n      tag_457\n        /* \"#utility.yul\":17607:17641   */\n      tag_458\n        /* \"#utility.yul\":17616:17640   */\n      tag_459\n        /* \"#utility.yul\":17634:17639   */\n      dup5\n        /* \"#utility.yul\":17616:17640   */\n      tag_239\n      jump\t// in\n    tag_459:\n        /* \"#utility.yul\":17607:17641   */\n      tag_267\n      jump\t// in\n    tag_458:\n        /* \"#utility.yul\":17589:17642   */\n      tag_239\n      jump\t// in\n    tag_457:\n        /* \"#utility.yul\":17576:17642   */\n      swap1\n      pop\n        /* \"#utility.yul\":17506:17648   */\n      swap2\n      swap1\n      pop\n      jump\t// out\n        /* \"#utility.yul\":17654:17729   */\n    tag_269:\n        /* \"#utility.yul\":17697:17700   */\n      0x00\n        /* \"#utility.yul\":17718:17723   */\n      dup2\n        /* \"#utility.yul\":17711:17723   */\n      swap1\n      pop\n        /* \"#utility.yul\":17654:17729   */\n      swap2\n      swap1\n      pop\n      jump\t// out\n        /* \"#utility.yul\":17735:18004   */\n    tag_270:\n        /* \"#utility.yul\":17845:17884   */\n      tag_462\n        /* \"#utility.yul\":17876:17883   */\n      dup4\n        /* \"#utility.yul\":17845:17884   */\n      tag_268\n      jump\t// in\n    tag_462:\n        /* \"#utility.yul\":17906:17997   */\n      tag_463\n        /* \"#utility.yul\":17955:17996   */\n      tag_464\n        /* \"#utility.yul\":17979:17995   */\n      dup3\n        /* \"#utility.yul\":17955:17996   */\n      tag_269\n      jump\t// in\n    tag_464:\n        /* \"#utility.yul\":17947:17953   */\n      dup5\n        /* \"#utility.yul\":17940:17944   */\n      dup5\n        /* \"#utility.yul\":17934:17945   */\n      sload\n        /* \"#utility.yul\":17906:17997   */\n      tag_266\n      jump\t// in\n    tag_463:\n        /* \"#utility.yul\":17900:17904   */\n      dup3\n        /* \"#utility.yul\":17893:17998   */\n      sstore\n        /* \"#utility.yul\":17811:18004   */\n      pop\n        /* \"#utility.yul\":17735:18004   */\n      pop\n      pop\n      pop\n      jump\t// out\n        /* \"#utility.yul\":18010:18083   */\n    tag_271:\n        /* \"#utility.yul\":18055:18058   */\n      0x00\n        /* \"#utility.yul\":18010:18083   */\n      swap1\n      jump\t// out\n        /* \"#utility.yul\":18089:18278   */\n    tag_272:\n        /* \"#utility.yul\":18166:18198   */\n      tag_467\n      tag_271\n      jump\t// in\n    tag_467:\n        /* \"#utility.yul\":18207:18272   */\n      tag_468\n        /* \"#utility.yul\":18265:18271   */\n      dup2\n        /* \"#utility.yul\":18257:18263   */\n      dup5\n        /* \"#utility.yul\":18251:18255   */\n      dup5\n        /* \"#utility.yul\":18207:18272   */\n      tag_270\n      jump\t// in\n    tag_468:\n        /* \"#utility.yul\":18142:18278   */\n      pop\n        /* \"#utility.yul\":18089:18278   */\n      pop\n      pop\n      jump\t// out\n        /* \"#utility.yul\":18284:18470   */\n    tag_273:\n        /* \"#utility.yul\":18344:18464   */\n    tag_470:\n        /* \"#utility.yul\":18361:18364   */\n      dup2\n        /* \"#utility.yul\":18354:18359   */\n      dup2\n        /* \"#utility.yul\":18351:18365   */\n      lt\n        /* \"#utility.yul\":18344:18464   */\n      iszero\n      tag_472\n      jumpi\n        /* \"#utility.yul\":18415:18454   */\n      tag_473\n        /* \"#utility.yul\":18452:18453   */\n      0x00\n        /* \"#utility.yul\":18445:18450   */\n      dup3\n        /* \"#utility.yul\":18415:18454   */\n      tag_272\n      jump\t// in\n    tag_473:\n        /* \"#utility.yul\":18388:18389   */\n      0x01\n        /* \"#utility.yul\":18381:18386   */\n      dup2\n        /* \"#utility.yul\":18377:18390   */\n      add\n        /* \"#utility.yul\":18368:18390   */\n      swap1\n      pop\n        /* \"#utility.yul\":18344:18464   */\n      jump(tag_470)\n    tag_472:\n        /* \"#utility.yul\":18284:18470   */\n      pop\n      pop\n      jump\t// out\n        /* \"#utility.yul\":18476:19019   */\n    tag_274:\n        /* \"#utility.yul\":18577:18579   */\n      0x1f\n        /* \"#utility.yul\":18572:18575   */\n      dup3\n        /* \"#utility.yul\":18569:18580   */\n      gt\n        /* \"#utility.yul\":18566:19012   */\n      iszero\n      tag_475\n      jumpi\n        /* \"#utility.yul\":18611:18649   */\n      tag_476\n        /* \"#utility.yul\":18643:18648   */\n      dup2\n        /* \"#utility.yul\":18611:18649   */\n      tag_263\n      jump\t// in\n    tag_476:\n        /* \"#utility.yul\":18695:18724   */\n      tag_477\n        /* \"#utility.yul\":18713:18723   */\n      dup5\n        /* \"#utility.yul\":18695:18724   */\n      tag_264\n      jump\t// in\n    tag_477:\n        /* \"#utility.yul\":18685:18693   */\n      dup2\n        /* \"#utility.yul\":18681:18725   */\n      add\n        /* \"#utility.yul\":18878:18880   */\n      0x20\n        /* \"#utility.yul\":18866:18876   */\n      dup6\n        /* \"#utility.yul\":18863:18881   */\n      lt\n        /* \"#utility.yul\":18860:18909   */\n      iszero\n      tag_478\n      jumpi\n        /* \"#utility.yul\":18899:18907   */\n      dup2\n        /* \"#utility.yul\":18884:18907   */\n      swap1\n      pop\n        /* \"#utility.yul\":18860:18909   */\n    tag_478:\n        /* \"#utility.yul\":18922:19002   */\n      tag_479\n        /* \"#utility.yul\":18978:19000   */\n      tag_480\n        /* \"#utility.yul\":18996:18999   */\n      dup6\n        /* \"#utility.yul\":18978:19000   */\n      tag_264\n      jump\t// in\n    tag_480:\n        /* \"#utility.yul\":18968:18976   */\n      dup4\n        /* \"#utility.yul\":18964:19001   */\n      add\n        /* \"#utility.yul\":18951:18962   */\n      dup3\n        /* \"#utility.yul\":18922:19002   */\n      tag_273\n      jump\t// in\n    tag_479:\n        /* \"#utility.yul\":18581:19012   */\n      pop\n      pop\n        /* \"#utility.yul\":18566:19012   */\n    tag_475:\n        /* \"#utility.yul\":18476:19019   */\n      pop\n      pop\n      pop\n      jump\t// out\n        /* \"#utility.yul\":19025:19142   */\n    tag_275:\n        /* \"#utility.yul\":19079:19087   */\n      0x00\n        /* \"#utility.yul\":19129:19134   */\n      dup3\n        /* \"#utility.yul\":19123:19127   */\n      dup3\n        /* \"#utility.yul\":19119:19135   */\n      shr\n        /* \"#utility.yul\":19098:19135   */\n      swap1\n      pop\n        /* \"#utility.yul\":19025:19142   */\n      swap3\n      swap2\n      pop\n      pop\n      jump\t// out\n        /* \"#utility.yul\":19148:19317   */\n    tag_276:\n        /* \"#utility.yul\":19192:19198   */\n      0x00\n        /* \"#utility.yul\":19225:19276   */\n      tag_483\n        /* \"#utility.yul\":19273:19274   */\n      0x00\n        /* \"#utility.yul\":19269:19275   */\n      not\n        /* \"#utility.yul\":19261:19266   */\n      dup5\n        /* \"#utility.yul\":19258:19259   */\n      0x08\n        /* \"#utility.yul\":19254:19267   */\n      mul\n        /* \"#utility.yul\":19225:19276   */\n      tag_275\n      jump\t// in\n    tag_483:\n        /* \"#utility.yul\":19221:19277   */\n      not\n        /* \"#utility.yul\":19306:19310   */\n      dup1\n        /* \"#utility.yul\":19300:19304   */\n      dup4\n        /* \"#utility.yul\":19296:19311   */\n      and\n        /* \"#utility.yul\":19286:19311   */\n      swap2\n      pop\n        /* \"#utility.yul\":19199:19317   */\n      pop\n        /* \"#utility.yul\":19148:19317   */\n      swap3\n      swap2\n      pop\n      pop\n      jump\t// out\n        /* \"#utility.yul\":19322:19617   */\n    tag_277:\n        /* \"#utility.yul\":19398:19402   */\n      0x00\n        /* \"#utility.yul\":19544:19573   */\n      tag_485\n        /* \"#utility.yul\":19569:19572   */\n      dup4\n        /* \"#utility.yul\":19563:19567   */\n      dup4\n        /* \"#utility.yul\":19544:19573   */\n      tag_276\n      jump\t// in\n    tag_485:\n        /* \"#utility.yul\":19536:19573   */\n      swap2\n      pop\n        /* \"#utility.yul\":19606:19609   */\n      dup3\n        /* \"#utility.yul\":19603:19604   */\n      0x02\n        /* \"#utility.yul\":19599:19610   */\n      mul\n        /* \"#utility.yul\":19593:19597   */\n      dup3\n        /* \"#utility.yul\":19590:19611   */\n      or\n        /* \"#utility.yul\":19582:19611   */\n      swap1\n      pop\n        /* \"#utility.yul\":19322:19617   */\n      swap3\n      swap2\n      pop\n      pop\n      jump\t// out\n        /* \"#utility.yul\":19622:21017   */\n    tag_99:\n        /* \"#utility.yul\":19739:19776   */\n      tag_487\n        /* \"#utility.yul\":19772:19775   */\n      dup3\n        /* \"#utility.yul\":19739:19776   */\n      tag_232\n      jump\t// in\n    tag_487:\n        /* \"#utility.yul\":19841:19859   */\n      0xffffffffffffffff\n        /* \"#utility.yul\":19833:19839   */\n      dup2\n        /* \"#utility.yul\":19830:19860   */\n      gt\n        /* \"#utility.yul\":19827:19883   */\n      iszero\n      tag_488\n      jumpi\n        /* \"#utility.yul\":19863:19881   */\n      tag_489\n      tag_225\n      jump\t// in\n    tag_489:\n        /* \"#utility.yul\":19827:19883   */\n    tag_488:\n        /* \"#utility.yul\":19907:19945   */\n      tag_490\n        /* \"#utility.yul\":19939:19943   */\n      dup3\n        /* \"#utility.yul\":19933:19944   */\n      sload\n        /* \"#utility.yul\":19907:19945   */\n      tag_111\n      jump\t// in\n    tag_490:\n        /* \"#utility.yul\":19992:20059   */\n      tag_491\n        /* \"#utility.yul\":20052:20058   */\n      dup3\n        /* \"#utility.yul\":20044:20050   */\n      dup3\n        /* \"#utility.yul\":20038:20042   */\n      dup6\n        /* \"#utility.yul\":19992:20059   */\n      tag_274\n      jump\t// in\n    tag_491:\n        /* \"#utility.yul\":20086:20087   */\n      0x00\n        /* \"#utility.yul\":20110:20114   */\n      0x20\n        /* \"#utility.yul\":20097:20114   */\n      swap1\n      pop\n        /* \"#utility.yul\":20142:20144   */\n      0x1f\n        /* \"#utility.yul\":20134:20140   */\n      dup4\n        /* \"#utility.yul\":20131:20145   */\n      gt\n        /* \"#utility.yul\":20159:20160   */\n      0x01\n        /* \"#utility.yul\":20154:20772   */\n      dup2\n      eq\n      tag_493\n      jumpi\n        /* \"#utility.yul\":20816:20817   */\n      0x00\n        /* \"#utility.yul\":20833:20839   */\n      dup5\n        /* \"#utility.yul\":20830:20907   */\n      iszero\n      tag_494\n      jumpi\n        /* \"#utility.yul\":20882:20891   */\n      dup3\n        /* \"#utility.yul\":20877:20880   */\n      dup8\n        /* \"#utility.yul\":20873:20892   */\n      add\n        /* \"#utility.yul\":20867:20893   */\n      mload\n        /* \"#utility.yul\":20858:20893   */\n      swap1\n      pop\n        /* \"#utility.yul\":20830:20907   */\n    tag_494:\n        /* \"#utility.yul\":20933:21000   */\n      tag_495\n        /* \"#utility.yul\":20993:20999   */\n      dup6\n        /* \"#utility.yul\":20986:20991   */\n      dup3\n        /* \"#utility.yul\":20933:21000   */\n      tag_277\n      jump\t// in\n    tag_495:\n        /* \"#utility.yul\":20927:20931   */\n      dup7\n        /* \"#utility.yul\":20920:21001   */\n      sstore\n        /* \"#utility.yul\":20789:21011   */\n      pop\n        /* \"#utility.yul\":20124:21011   */\n      jump(tag_492)\n        /* \"#utility.yul\":20154:20772   */\n    tag_493:\n        /* \"#utility.yul\":20206:20210   */\n      0x1f\n        /* \"#utility.yul\":20202:20211   */\n      not\n        /* \"#utility.yul\":20194:20200   */\n      dup5\n        /* \"#utility.yul\":20190:20212   */\n      and\n        /* \"#utility.yul\":20240:20277   */\n      tag_496\n        /* \"#utility.yul\":20272:20276   */\n      dup7\n        /* \"#utility.yul\":20240:20277   */\n      tag_263\n      jump\t// in\n    tag_496:\n        /* \"#utility.yul\":20299:20300   */\n      0x00\n        /* \"#utility.yul\":20313:20521   */\n    tag_497:\n        /* \"#utility.yul\":20327:20334   */\n      dup3\n        /* \"#utility.yul\":20324:20325   */\n      dup2\n        /* \"#utility.yul\":20321:20335   */\n      lt\n        /* \"#utility.yul\":20313:20521   */\n      iszero\n      tag_499\n      jumpi\n        /* \"#utility.yul\":20406:20415   */\n      dup5\n        /* \"#utility.yul\":20401:20404   */\n      dup10\n        /* \"#utility.yul\":20397:20416   */\n      add\n        /* \"#utility.yul\":20391:20417   */\n      mload\n        /* \"#utility.yul\":20383:20389   */\n      dup3\n        /* \"#utility.yul\":20376:20418   */\n      sstore\n        /* \"#utility.yul\":20457:20458   */\n      0x01\n        /* \"#utility.yul\":20449:20455   */\n      dup3\n        /* \"#utility.yul\":20445:20459   */\n      add\n        /* \"#utility.yul\":20435:20459   */\n      swap2\n      pop\n        /* \"#utility.yul\":20504:20506   */\n      0x20\n        /* \"#utility.yul\":20493:20502   */\n      dup6\n        /* \"#utility.yul\":20489:20507   */\n      add\n        /* \"#utility.yul\":20476:20507   */\n      swap5\n      pop\n        /* \"#utility.yul\":20350:20354   */\n      0x20\n        /* \"#utility.yul\":20347:20348   */\n      dup2\n        /* \"#utility.yul\":20343:20355   */\n      add\n        /* \"#utility.yul\":20338:20355   */\n      swap1\n      pop\n        /* \"#utility.yul\":20313:20521   */\n      jump(tag_497)\n    tag_499:\n        /* \"#utility.yul\":20549:20555   */\n      dup7\n        /* \"#utility.yul\":20540:20547   */\n      dup4\n        /* \"#utility.yul\":20537:20556   */\n      lt\n        /* \"#utility.yul\":20534:20713   */\n      iszero\n      tag_500\n      jumpi\n        /* \"#utility.yul\":20607:20616   */\n      dup5\n        /* \"#utility.yul\":20602:20605   */\n      dup10\n        /* \"#utility.yul\":20598:20617   */\n      add\n        /* \"#utility.yul\":20592:20618   */\n      mload\n        /* \"#utility.yul\":20650:20698   */\n      tag_501\n        /* \"#utility.yul\":20692:20696   */\n      0x1f\n        /* \"#utility.yul\":20684:20690   */\n      dup10\n        /* \"#utility.yul\":20680:20697   */\n      and\n        /* \"#utility.yul\":20669:20678   */\n      dup3\n        /* \"#utility.yul\":20650:20698   */\n      tag_276\n      jump\t// in\n    tag_501:\n        /* \"#utility.yul\":20642:20648   */\n      dup4\n        /* \"#utility.yul\":20635:20699   */\n      sstore\n        /* \"#utility.yul\":20557:20713   */\n      pop\n        /* \"#utility.yul\":20534:20713   */\n    tag_500:\n        /* \"#utility.yul\":20759:20760   */\n      0x01\n        /* \"#utility.yul\":20755:20756   */\n      0x02\n        /* \"#utility.yul\":20747:20753   */\n      dup9\n        /* \"#utility.yul\":20743:20757   */\n      mul\n        /* \"#utility.yul\":20739:20761   */\n      add\n        /* \"#utility.yul\":20733:20737   */\n      dup9\n        /* \"#utility.yul\":20726:20762   */\n      sstore\n        /* \"#utility.yul\":20161:20772   */\n      pop\n      pop\n      pop\n        /* \"#utility.yul\":20124:21011   */\n    tag_492:\n      pop\n        /* \"#utility.yul\":19714:21017   */\n      pop\n      pop\n      pop\n        /* \"#utility.yul\":19622:21017   */\n      pop\n      pop\n      jump\t// out\n        /* \"#utility.yul\":21023:21197   */\n    tag_278:\n        /* \"#utility.yul\":21163:21189   */\n      0x5468657265206973206120746965206f6e2042616c6c6f740000000000000000\n        /* \"#utility.yul\":21159:21160   */\n      0x00\n        /* \"#utility.yul\":21151:21157   */\n      dup3\n        /* \"#utility.yul\":21147:21161   */\n      add\n        /* \"#utility.yul\":21140:21190   */\n      mstore\n        /* \"#utility.yul\":21023:21197   */\n      pop\n      jump\t// out\n        /* \"#utility.yul\":21203:21569   */\n    tag_279:\n        /* \"#utility.yul\":21345:21348   */\n      0x00\n        /* \"#utility.yul\":21366:21433   */\n      tag_504\n        /* \"#utility.yul\":21430:21432   */\n      0x18\n        /* \"#utility.yul\":21425:21428   */\n      dup4\n        /* \"#utility.yul\":21366:21433   */\n      tag_233\n      jump\t// in\n    tag_504:\n        /* \"#utility.yul\":21359:21433   */\n      swap2\n      pop\n        /* \"#utility.yul\":21442:21535   */\n      tag_505\n        /* \"#utility.yul\":21531:21534   */\n      dup3\n        /* \"#utility.yul\":21442:21535   */\n      tag_278\n      jump\t// in\n    tag_505:\n        /* \"#utility.yul\":21560:21562   */\n      0x20\n        /* \"#utility.yul\":21555:21558   */\n      dup3\n        /* \"#utility.yul\":21551:21563   */\n      add\n        /* \"#utility.yul\":21544:21563   */\n      swap1\n      pop\n        /* \"#utility.yul\":21203:21569   */\n      swap2\n      swap1\n      pop\n      jump\t// out\n        /* \"#utility.yul\":21575:21994   */\n    tag_105:\n        /* \"#utility.yul\":21741:21745   */\n      0x00\n        /* \"#utility.yul\":21779:21781   */\n      0x20\n        /* \"#utility.yul\":21768:21777   */\n      dup3\n        /* \"#utility.yul\":21764:21782   */\n      add\n        /* \"#utility.yul\":21756:21782   */\n      swap1\n      pop\n        /* \"#utility.yul\":21828:21837   */\n      dup2\n        /* \"#utility.yul\":21822:21826   */\n      dup2\n        /* \"#utility.yul\":21818:21838   */\n      sub\n        /* \"#utility.yul\":21814:21815   */\n      0x00\n        /* \"#utility.yul\":21803:21812   */\n      dup4\n        /* \"#utility.yul\":21799:21816   */\n      add\n        /* \"#utility.yul\":21792:21839   */\n      mstore\n        /* \"#utility.yul\":21856:21987   */\n      tag_507\n        /* \"#utility.yul\":21982:21986   */\n      dup2\n        /* \"#utility.yul\":21856:21987   */\n      tag_279\n      jump\t// in\n    tag_507:\n        /* \"#utility.yul\":21848:21987   */\n      swap1\n      pop\n        /* \"#utility.yul\":21575:21994   */\n      swap2\n      swap1\n      pop\n      jump\t// out\n        /* \"#utility.yul\":22000:22180   */\n    tag_108:\n        /* \"#utility.yul\":22048:22125   */\n      0x4e487b7100000000000000000000000000000000000000000000000000000000\n        /* \"#utility.yul\":22045:22046   */\n      0x00\n        /* \"#utility.yul\":22038:22126   */\n      mstore\n        /* \"#utility.yul\":22145:22149   */\n      0x32\n        /* \"#utility.yul\":22142:22143   */\n      0x04\n        /* \"#utility.yul\":22135:22150   */\n      mstore\n        /* \"#utility.yul\":22169:22173   */\n      0x24\n        /* \"#utility.yul\":22166:22167   */\n      0x00\n        /* \"#utility.yul\":22159:22174   */\n      revert\n        /* \"#utility.yul\":22186:22420   */\n    tag_280:\n        /* \"#utility.yul\":22326:22360   */\n      0x4f6e6c792074686520636f6e7472616374206f776e65722063616e2067697665\n        /* \"#utility.yul\":22322:22323   */\n      0x00\n        /* \"#utility.yul\":22314:22320   */\n      dup3\n        /* \"#utility.yul\":22310:22324   */\n      add\n        /* \"#utility.yul\":22303:22361   */\n      mstore\n        /* \"#utility.yul\":22395:22412   */\n      0x20726967687420746f20766f74652e0000000000000000000000000000000000\n        /* \"#utility.yul\":22390:22392   */\n      0x20\n        /* \"#utility.yul\":22382:22388   */\n      dup3\n        /* \"#utility.yul\":22378:22393   */\n      add\n        /* \"#utility.yul\":22371:22413   */\n      mstore\n        /* \"#utility.yul\":22186:22420   */\n      pop\n      jump\t// out\n        /* \"#utility.yul\":22426:22792   */\n    tag_281:\n        /* \"#utility.yul\":22568:22571   */\n      0x00\n        /* \"#utility.yul\":22589:22656   */\n      tag_511\n        /* \"#utility.yul\":22653:22655   */\n      0x2f\n        /* \"#utility.yul\":22648:22651   */\n      dup4\n        /* \"#utility.yul\":22589:22656   */\n      tag_233\n      jump\t// in\n    tag_511:\n        /* \"#utility.yul\":22582:22656   */\n      swap2\n      pop\n        /* \"#utility.yul\":22665:22758   */\n      tag_512\n        /* \"#utility.yul\":22754:22757   */\n      dup3\n        /* \"#utility.yul\":22665:22758   */\n      tag_280\n      jump\t// in\n    tag_512:\n        /* \"#utility.yul\":22783:22785   */\n      0x40\n        /* \"#utility.yul\":22778:22781   */\n      dup3\n        /* \"#utility.yul\":22774:22786   */\n      add\n        /* \"#utility.yul\":22767:22786   */\n      swap1\n      pop\n        /* \"#utility.yul\":22426:22792   */\n      swap2\n      swap1\n      pop\n      jump\t// out\n        /* \"#utility.yul\":22798:23217   */\n    tag_157:\n        /* \"#utility.yul\":22964:22968   */\n      0x00\n        /* \"#utility.yul\":23002:23004   */\n      0x20\n        /* \"#utility.yul\":22991:23000   */\n      dup3\n        /* \"#utility.yul\":22987:23005   */\n      add\n        /* \"#utility.yul\":22979:23005   */\n      swap1\n      pop\n        /* \"#utility.yul\":23051:23060   */\n      dup2\n        /* \"#utility.yul\":23045:23049   */\n      dup2\n        /* \"#utility.yul\":23041:23061   */\n      sub\n        /* \"#utility.yul\":23037:23038   */\n      0x00\n        /* \"#utility.yul\":23026:23035   */\n      dup4\n        /* \"#utility.yul\":23022:23039   */\n      add\n        /* \"#utility.yul\":23015:23062   */\n      mstore\n        /* \"#utility.yul\":23079:23210   */\n      tag_514\n        /* \"#utility.yul\":23205:23209   */\n      dup2\n        /* \"#utility.yul\":23079:23210   */\n      tag_281\n      jump\t// in\n    tag_514:\n        /* \"#utility.yul\":23071:23210   */\n      swap1\n      pop\n        /* \"#utility.yul\":22798:23217   */\n      swap2\n      swap1\n      pop\n      jump\t// out\n        /* \"#utility.yul\":23223:23403   */\n    tag_282:\n        /* \"#utility.yul\":23271:23348   */\n      0x4e487b7100000000000000000000000000000000000000000000000000000000\n        /* \"#utility.yul\":23268:23269   */\n      0x00\n        /* \"#utility.yul\":23261:23349   */\n      mstore\n        /* \"#utility.yul\":23368:23372   */\n      0x11\n        /* \"#utility.yul\":23365:23366   */\n      0x04\n        /* \"#utility.yul\":23358:23373   */\n      mstore\n        /* \"#utility.yul\":23392:23396   */\n      0x24\n        /* \"#utility.yul\":23389:23390   */\n      0x00\n        /* \"#utility.yul\":23382:23397   */\n      revert\n        /* \"#utility.yul\":23409:23642   */\n    tag_183:\n        /* \"#utility.yul\":23448:23451   */\n      0x00\n        /* \"#utility.yul\":23471:23495   */\n      tag_517\n        /* \"#utility.yul\":23489:23494   */\n      dup3\n        /* \"#utility.yul\":23471:23495   */\n      tag_239\n      jump\t// in\n    tag_517:\n        /* \"#utility.yul\":23462:23495   */\n      swap2\n      pop\n        /* \"#utility.yul\":23517:23583   */\n      0xffffffffffffffffffffffffffffffffffffffffffffffffffffffffffffffff\n        /* \"#utility.yul\":23510:23515   */\n      dup3\n        /* \"#utility.yul\":23507:23584   */\n      sub\n        /* \"#utility.yul\":23504:23607   */\n      tag_518\n      jumpi\n        /* \"#utility.yul\":23587:23605   */\n      tag_519\n      tag_282\n      jump\t// in\n    tag_519:\n        /* \"#utility.yul\":23504:23607   */\n    tag_518:\n        /* \"#utility.yul\":23634:23635   */\n      0x01\n        /* \"#utility.yul\":23627:23632   */\n      dup3\n        /* \"#utility.yul\":23623:23636   */\n      add\n        /* \"#utility.yul\":23616:23636   */\n      swap1\n      pop\n        /* \"#utility.yul\":23409:23642   */\n      swap2\n      swap1\n      pop\n      jump\t// out\n        /* \"#utility.yul\":23648:23824   */\n    tag_283:\n        /* \"#utility.yul\":23788:23816   */\n      0x596f752068617665206e6f7420726967687420746f20766f7465000000000000\n        /* \"#utility.yul\":23784:23785   */\n      0x00\n        /* \"#utility.yul\":23776:23782   */\n      dup3\n        /* \"#utility.yul\":23772:23786   */\n      add\n        /* \"#utility.yul\":23765:23817   */\n      mstore\n        /* \"#utility.yul\":23648:23824   */\n      pop\n      jump\t// out\n        /* \"#utility.yul\":23830:24196   */\n    tag_284:\n        /* \"#utility.yul\":23972:23975   */\n      0x00\n        /* \"#utility.yul\":23993:24060   */\n      tag_522\n        /* \"#utility.yul\":24057:24059   */\n      0x1a\n        /* \"#utility.yul\":24052:24055   */\n      dup4\n        /* \"#utility.yul\":23993:24060   */\n      tag_233\n      jump\t// in\n    tag_522:\n        /* \"#utility.yul\":23986:24060   */\n      swap2\n      pop\n        /* \"#utility.yul\":24069:24162   */\n      tag_523\n        /* \"#utility.yul\":24158:24161   */\n      dup3\n        /* \"#utility.yul\":24069:24162   */\n      tag_283\n      jump\t// in\n    tag_523:\n        /* \"#utility.yul\":24187:24189   */\n      0x20\n        /* \"#utility.yul\":24182:24185   */\n      dup3\n        /* \"#utility.yul\":24178:24190   */\n      add\n        /* \"#utility.yul\":24171:24190   */\n      swap1\n      pop\n        /* \"#utility.yul\":23830:24196   */\n      swap2\n      swap1\n      pop\n      jump\t// out\n        /* \"#utility.yul\":24202:24621   */\n    tag_188:\n        /* \"#utility.yul\":24368:24372   */\n      0x00\n        /* \"#utility.yul\":24406:24408   */\n      0x20\n        /* \"#utility.yul\":24395:24404   */\n      dup3\n        /* \"#utility.yul\":24391:24409   */\n      add\n        /* \"#utility.yul\":24383:24409   */\n      swap1\n      pop\n        /* \"#utility.yul\":24455:24464   */\n      dup2\n        /* \"#utility.yul\":24449:24453   */\n      dup2\n        /* \"#utility.yul\":24445:24465   */\n      sub\n        /* \"#utility.yul\":24441:24442   */\n      0x00\n        /* \"#utility.yul\":24430:24439   */\n      dup4\n        /* \"#utility.yul\":24426:24443   */\n      add\n        /* \"#utility.yul\":24419:24466   */\n      mstore\n        /* \"#utility.yul\":24483:24614   */\n      tag_525\n        /* \"#utility.yul\":24609:24613   */\n      dup2\n        /* \"#utility.yul\":24483:24614   */\n      tag_284\n      jump\t// in\n    tag_525:\n        /* \"#utility.yul\":24475:24614   */\n      swap1\n      pop\n        /* \"#utility.yul\":24202:24621   */\n      swap2\n      swap1\n      pop\n      jump\t// out\n        /* \"#utility.yul\":24627:24797   */\n    tag_285:\n        /* \"#utility.yul\":24767:24789   */\n      0x566f74657220616c726561647920766f7465642e000000000000000000000000\n        /* \"#utility.yul\":24763:24764   */\n      0x00\n        /* \"#utility.yul\":24755:24761   */\n      dup3\n        /* \"#utility.yul\":24751:24765   */\n      add\n        /* \"#utility.yul\":24744:24790   */\n      mstore\n        /* \"#utility.yul\":24627:24797   */\n      pop\n      jump\t// out\n        /* \"#utility.yul\":24803:25169   */\n    tag_286:\n        /* \"#utility.yul\":24945:24948   */\n      0x00\n        /* \"#utility.yul\":24966:25033   */\n      tag_528\n        /* \"#utility.yul\":25030:25032   */\n      0x14\n        /* \"#utility.yul\":25025:25028   */\n      dup4\n        /* \"#utility.yul\":24966:25033   */\n      tag_233\n      jump\t// in\n    tag_528:\n        /* \"#utility.yul\":24959:25033   */\n      swap2\n      pop\n        /* \"#utility.yul\":25042:25135   */\n      tag_529\n        /* \"#utility.yul\":25131:25134   */\n      dup3\n        /* \"#utility.yul\":25042:25135   */\n      tag_285\n      jump\t// in\n    tag_529:\n        /* \"#utility.yul\":25160:25162   */\n      0x20\n        /* \"#utility.yul\":25155:25158   */\n      dup3\n        /* \"#utility.yul\":25151:25163   */\n      add\n        /* \"#utility.yul\":25144:25163   */\n      swap1\n      pop\n        /* \"#utility.yul\":24803:25169   */\n      swap2\n      swap1\n      pop\n      jump\t// out\n        /* \"#utility.yul\":25175:25594   */\n    tag_215:\n        /* \"#utility.yul\":25341:25345   */\n      0x00\n        /* \"#utility.yul\":25379:25381   */\n      0x20\n        /* \"#utility.yul\":25368:25377   */\n      dup3\n        /* \"#utility.yul\":25364:25382   */\n      add\n        /* \"#utility.yul\":25356:25382   */\n      swap1\n      pop\n        /* \"#utility.yul\":25428:25437   */\n      dup2\n        /* \"#utility.yul\":25422:25426   */\n      dup2\n        /* \"#utility.yul\":25418:25438   */\n      sub\n        /* \"#utility.yul\":25414:25415   */\n      0x00\n        /* \"#utility.yul\":25403:25412   */\n      dup4\n        /* \"#utility.yul\":25399:25416   */\n      add\n        /* \"#utility.yul\":25392:25439   */\n      mstore\n        /* \"#utility.yul\":25456:25587   */\n      tag_531\n        /* \"#utility.yul\":25582:25586   */\n      dup2\n        /* \"#utility.yul\":25456:25587   */\n      tag_286\n      jump\t// in\n    tag_531:\n        /* \"#utility.yul\":25448:25587   */\n      swap1\n      pop\n        /* \"#utility.yul\":25175:25594   */\n      swap2\n      swap1\n      pop\n      jump\t// out\n\n    auxdata: 0xa2646970667358221220c2db92faf45accf00e8c1a2c0766c0abd29bbadbeed8521a1b9fafcc6b287b6b64736f6c63430008110033\n}\n",
				"bytecode": {
					"linkReferences": {},
					"object": "60806040523480156200001157600080fd5b50604051620024e5380380620024e58339818101604052810190620000379190620004e9565b336000806101000a81548173ffffffffffffffffffffffffffffffffffffffff021916908373ffffffffffffffffffffffffffffffffffffffff16021790555060005b82518110156200015f5760026040518060600160405280858481518110620000a757620000a66200054f565b5b6020026020010151600001518152602001858481518110620000ce57620000cd6200054f565b5b6020026020010151602001518152602001600081525090806001815401808255809150506001900390600052602060002090600302016000909190919091506000820151816000019081620001249190620007bf565b5060208201518160010190816200013c9190620007bf565b5060408201518160020155505080806200015690620008d5565b9150506200007a565b50505062000922565b6000604051905090565b600080fd5b600080fd5b600080fd5b6000601f19601f8301169050919050565b7f4e487b7100000000000000000000000000000000000000000000000000000000600052604160045260246000fd5b620001cc8262000181565b810181811067ffffffffffffffff82111715620001ee57620001ed62000192565b5b80604052505050565b60006200020362000168565b9050620002118282620001c1565b919050565b600067ffffffffffffffff82111562000234576200023362000192565b5b602082029050602081019050919050565b600080fd5b600080fd5b600080fd5b600080fd5b600067ffffffffffffffff82111562000277576200027662000192565b5b620002828262000181565b9050602081019050919050565b60005b83811015620002af57808201518184015260208101905062000292565b60008484015250505050565b6000620002d2620002cc8462000259565b620001f7565b905082815260208101848484011115620002f157620002f062000254565b5b620002fe8482856200028f565b509392505050565b600082601f8301126200031e576200031d6200017c565b5b815162000330848260208601620002bb565b91505092915050565b6000819050919050565b6200034e8162000339565b81146200035a57600080fd5b50565b6000815190506200036e8162000343565b92915050565b6000606082840312156200038d576200038c6200024a565b5b620003996060620001f7565b9050600082015167ffffffffffffffff811115620003bc57620003bb6200024f565b5b620003ca8482850162000306565b600083015250602082015167ffffffffffffffff811115620003f157620003f06200024f565b5b620003ff8482850162000306565b602083015250604062000415848285016200035d565b60408301525092915050565b600062000438620004328462000216565b620001f7565b905080838252602082019050602084028301858111156200045e576200045d62000245565b5b835b81811015620004ac57805167ffffffffffffffff8111156200048757620004866200017c565b5b80860162000496898262000374565b8552602085019450505060208101905062000460565b5050509392505050565b600082601f830112620004ce57620004cd6200017c565b5b8151620004e084826020860162000421565b91505092915050565b6000806040838503121562000503576200050262000172565b5b600083015167ffffffffffffffff81111562000524576200052362000177565b5b6200053285828601620004b6565b925050602062000545858286016200035d565b9150509250929050565b7f4e487b7100000000000000000000000000000000000000000000000000000000600052603260045260246000fd5b600081519050919050565b7f4e487b7100000000000000000000000000000000000000000000000000000000600052602260045260246000fd5b60006002820490506001821680620005d157607f821691505b602082108103620005e757620005e662000589565b5b50919050565b60008190508160005260206000209050919050565b60006020601f8301049050919050565b600082821b905092915050565b600060088302620006517fffffffffffffffffffffffffffffffffffffffffffffffffffffffffffffffff8262000612565b6200065d868362000612565b95508019841693508086168417925050509392505050565b6000819050919050565b6000620006a06200069a620006948462000339565b62000675565b62000339565b9050919050565b6000819050919050565b620006bc836200067f565b620006d4620006cb82620006a7565b8484546200061f565b825550505050565b600090565b620006eb620006dc565b620006f8818484620006b1565b505050565b5b81811015620007205762000714600082620006e1565b600181019050620006fe565b5050565b601f8211156200076f576200073981620005ed565b620007448462000602565b8101602085101562000754578190505b6200076c620007638562000602565b830182620006fd565b50505b505050565b600082821c905092915050565b6000620007946000198460080262000774565b1980831691505092915050565b6000620007af838362000781565b9150826002028217905092915050565b620007ca826200057e565b67ffffffffffffffff811115620007e657620007e562000192565b5b620007f28254620005b8565b620007ff82828562000724565b600060209050601f83116001811462000837576000841562000822578287015190505b6200082e8582620007a1565b8655506200089e565b601f1984166200084786620005ed565b60005b8281101562000871578489015182556001820191506020850194506020810190506200084a565b868310156200089157848901516200088d601f89168262000781565b8355505b6001600288020188555050505b505050505050565b7f4e487b7100000000000000000000000000000000000000000000000000000000600052601160045260246000fd5b6000620008e28262000339565b91507fffffffffffffffffffffffffffffffffffffffffffffffffffffffffffffffff8203620009175762000916620008a6565b5b600182019050919050565b611bb380620009326000396000f3fe608060405234801561001057600080fd5b506004361061010b5760003560e01c8063954115f2116100a2578063da26543011610071578063da265430146102ab578063df703622146102c9578063f0ee4577146102e7578063f927cc2914610317578063fc36e15b146103365761010b565b8063954115f2146102245780639e7b8d6114610240578063a3ec138d1461025c578063ce606ee01461028d5761010b565b80633ddf3822116100de5780633ddf38221461019a5780634aba5f34146101b8578063777c3acf146101d657806394b04e7d146101f45761010b565b806310508439146101105780632bfda5151461012c57806332a2c5d01461014a5780633477ee2e14610168575b600080fd5b61012a60048036038101906101259190610f9d565b610352565b005b61013461041c565b6040516101419190611094565b60405180910390f35b610152610523565b60405161015f91906110f7565b60405180910390f35b610182600480360381019061017d9190611148565b61052b565b60405161019193929190611184565b60405180910390f35b6101a2610675565b6040516101af91906111e4565b60405180910390f35b6101c06106cc565b6040516101cd9190611371565b60405180910390f35b6101de610859565b6040516101eb9190611393565b60405180910390f35b61020e600480360381019061020991906113da565b61085f565b60405161021b91906111e4565b60405180910390f35b61023e600480360381019061023991906114ad565b6108b8565b005b61025a600480360381019061025591906113da565b610966565b005b610276600480360381019061027191906113da565b610a15565b6040516102849291906114f6565b60405180910390f35b610295610a53565b6040516102a291906110f7565b60405180910390f35b6102b3610a77565b6040516102c091906111e4565b60405180910390f35b6102d1610a87565b6040516102de91906111e4565b60405180910390f35b61030160048036038101906102fc91906113da565b610a97565b60405161030e91906111e4565b60405180910390f35b61031f610af0565b60405161032d92919061151f565b60405180910390f35b610350600480360381019061034b9190611548565b610bb4565b005b61035a610675565b610399576040517f08c379a000000000000000000000000000000000000000000000000000000000815260040161039090611603565b60405180910390fd5b600260405180606001604052808481526020018381526020016000815250908060018154018082558091505060019003906000526020600020906003020160009091909190915060008201518160000190816103f5919061182f565b50602082015181600101908161040b919061182f565b506040820151816002015550505050565b6060600080610429610af0565b91509150801561046e576040517f08c379a00000000000000000000000000000000000000000000000000000000081526004016104659061194d565b60405180910390fd5b600282815481106104825761048161196d565b5b9060005260206000209060030201600001805461049e90611652565b80601f01602080910402602001604051908101604052809291908181526020018280546104ca90611652565b80156105175780601f106104ec57610100808354040283529160200191610517565b820191906000526020600020905b8154815290600101906020018083116104fa57829003601f168201915b50505050509250505090565b600030905090565b6002818154811061053b57600080fd5b906000526020600020906003020160009150905080600001805461055e90611652565b80601f016020809104026020016040519081016040528092919081815260200182805461058a90611652565b80156105d75780601f106105ac576101008083540402835291602001916105d7565b820191906000526020600020905b8154815290600101906020018083116105ba57829003601f168201915b5050505050908060010180546105ec90611652565b80601f016020809104026020016040519081016040528092919081815260200182805461061890611652565b80156106655780601f1061063a57610100808354040283529160200191610665565b820191906000526020600020905b81548152906001019060200180831161064857829003601f168201915b5050505050908060020154905083565b60008060009054906101000a900473ffffffffffffffffffffffffffffffffffffffff1673ffffffffffffffffffffffffffffffffffffffff163373ffffffffffffffffffffffffffffffffffffffff1614905090565b60606002805480602002602001604051908101604052809291908181526020016000905b82821015610850578382906000526020600020906003020160405180606001604052908160008201805461072390611652565b80601f016020809104026020016040519081016040528092919081815260200182805461074f90611652565b801561079c5780601f106107715761010080835404028352916020019161079c565b820191906000526020600020905b81548152906001019060200180831161077f57829003601f168201915b505050505081526020016001820180546107b590611652565b80601f01602080910402602001604051908101604052809291908181526020018280546107e190611652565b801561082e5780601f106108035761010080835404028352916020019161082e565b820191906000526020600020905b81548152906001019060200180831161081157829003601f168201915b50505050508152602001600282015481525050815260200190600101906106f0565b50505050905090565b60035481565b6000600160008373ffffffffffffffffffffffffffffffffffffffff1673ffffffffffffffffffffffffffffffffffffffff16815260200190815260200160002060000160009054906101000a900460ff169050919050565b6108c0610675565b6108ff576040517f08c379a00000000000000000000000000000000000000000000000000000000081526004016108f690611603565b60405180910390fd5b60028190806001815401808255809150506001900390600052602060002090600302016000909190919091506000820151816000019081610940919061182f565b506020820151816001019081610956919061182f565b5060408201518160020155505050565b8061096f610675565b6109ae576040517f08c379a00000000000000000000000000000000000000000000000000000000081526004016109a590611a0e565b60405180910390fd5b6109b781610d9e565b60018060008473ffffffffffffffffffffffffffffffffffffffff1673ffffffffffffffffffffffffffffffffffffffff16815260200190815260200160002060000160006101000a81548160ff0219169083151502179055505050565b60016020528060005260406000206000915090508060000160009054906101000a900460ff16908060000160019054906101000a900460ff16905082565b60008054906101000a900473ffffffffffffffffffffffffffffffffffffffff1681565b6000610a8233610a97565b905090565b6000610a923361085f565b905090565b6000600160008373ffffffffffffffffffffffffffffffffffffffff1673ffffffffffffffffffffffffffffffffffffffff16815260200190815260200160002060000160019054906101000a900460ff169050919050565b600080600080600090505b600280549050811015610bae578160028281548110610b1d57610b1c61196d565b5b9060005260206000209060030201600201541115610b695760028181548110610b4957610b4861196d565b5b906000526020600020906003020160020154915080935060009250610b9b565b8160028281548110610b7e57610b7d61196d565b5b90600052602060002090600302016002015403610b9a57600192505b5b8080610ba690611a5d565b915050610afb565b50509091565b33610bbd610a87565b610bfc576040517f08c379a0000000000000000000000000000000000000000000000000000000008152600401610bf390611af1565b60405180910390fd5b610c0581610d9e565b6000600160003373ffffffffffffffffffffffffffffffffffffffff1673ffffffffffffffffffffffffffffffffffffffff168152602001908152602001600020905060005b600280549050811015610d9857610d0f60028281548110610c6f57610c6e61196d565b5b90600052602060002090600302016000018054610c8b90611652565b80601f0160208091040260200160405190810160405280929190818152602001828054610cb790611652565b8015610d045780601f10610cd957610100808354040283529160200191610d04565b820191906000526020600020905b815481529060010190602001808311610ce757829003601f168201915b505050505085610dea565b15610d855760028181548110610d2857610d2761196d565b5b90600052602060002090600302016002016000815480929190610d4a90611a5d565b919050555060018260000160016101000a81548160ff02191690831515021790555060036000815480929190610d7f90611a5d565b91905055505b8080610d9090611a5d565b915050610c4b565b50505050565b610da781610a97565b15610de7576040517f08c379a0000000000000000000000000000000000000000000000000000000008152600401610dde90611b5d565b60405180910390fd5b50565b600081604051602001610dfd9190611094565b6040516020818303038152906040528051906020012083604051602001610e249190611094565b6040516020818303038152906040528051906020012014905092915050565b6000604051905090565b600080fd5b600080fd5b600080fd5b600080fd5b6000601f19601f8301169050919050565b7f4e487b7100000000000000000000000000000000000000000000000000000000600052604160045260246000fd5b610eaa82610e61565b810181811067ffffffffffffffff82111715610ec957610ec8610e72565b5b80604052505050565b6000610edc610e43565b9050610ee88282610ea1565b919050565b600067ffffffffffffffff821115610f0857610f07610e72565b5b610f1182610e61565b9050602081019050919050565b82818337600083830152505050565b6000610f40610f3b84610eed565b610ed2565b905082815260208101848484011115610f5c57610f5b610e5c565b5b610f67848285610f1e565b509392505050565b600082601f830112610f8457610f83610e57565b5b8135610f94848260208601610f2d565b91505092915050565b60008060408385031215610fb457610fb3610e4d565b5b600083013567ffffffffffffffff811115610fd257610fd1610e52565b5b610fde85828601610f6f565b925050602083013567ffffffffffffffff811115610fff57610ffe610e52565b5b61100b85828601610f6f565b9150509250929050565b600081519050919050565b600082825260208201905092915050565b60005b8381101561104f578082015181840152602081019050611034565b60008484015250505050565b600061106682611015565b6110708185611020565b9350611080818560208601611031565b61108981610e61565b840191505092915050565b600060208201905081810360008301526110ae818461105b565b905092915050565b600073ffffffffffffffffffffffffffffffffffffffff82169050919050565b60006110e1826110b6565b9050919050565b6110f1816110d6565b82525050565b600060208201905061110c60008301846110e8565b92915050565b6000819050919050565b61112581611112565b811461113057600080fd5b50565b6000813590506111428161111c565b92915050565b60006020828403121561115e5761115d610e4d565b5b600061116c84828501611133565b91505092915050565b61117e81611112565b82525050565b6000606082019050818103600083015261119e818661105b565b905081810360208301526111b2818561105b565b90506111c16040830184611175565b949350505050565b60008115159050919050565b6111de816111c9565b82525050565b60006020820190506111f960008301846111d5565b92915050565b600081519050919050565b600082825260208201905092915050565b6000819050602082019050919050565b600082825260208201905092915050565b600061124782611015565b611251818561122b565b9350611261818560208601611031565b61126a81610e61565b840191505092915050565b61127e81611112565b82525050565b600060608301600083015184820360008601526112a1828261123c565b915050602083015184820360208601526112bb828261123c565b91505060408301516112d06040860182611275565b508091505092915050565b60006112e78383611284565b905092915050565b6000602082019050919050565b6000611307826111ff565b611311818561120a565b9350836020820285016113238561121b565b8060005b8581101561135f578484038952815161134085826112db565b945061134b836112ef565b925060208a01995050600181019050611327565b50829750879550505050505092915050565b6000602082019050818103600083015261138b81846112fc565b905092915050565b60006020820190506113a86000830184611175565b92915050565b6113b7816110d6565b81146113c257600080fd5b50565b6000813590506113d4816113ae565b92915050565b6000602082840312156113f0576113ef610e4d565b5b60006113fe848285016113c5565b91505092915050565b600080fd5b600080fd5b60006060828403121561142757611426611407565b5b6114316060610ed2565b9050600082013567ffffffffffffffff8111156114515761145061140c565b5b61145d84828501610f6f565b600083015250602082013567ffffffffffffffff8111156114815761148061140c565b5b61148d84828501610f6f565b60208301525060406114a184828501611133565b60408301525092915050565b6000602082840312156114c3576114c2610e4d565b5b600082013567ffffffffffffffff8111156114e1576114e0610e52565b5b6114ed84828501611411565b91505092915050565b600060408201905061150b60008301856111d5565b61151860208301846111d5565b9392505050565b60006040820190506115346000830185611175565b61154160208301846111d5565b9392505050565b60006020828403121561155e5761155d610e4d565b5b600082013567ffffffffffffffff81111561157c5761157b610e52565b5b61158884828501610f6f565b91505092915050565b7f4f6e6c792074686520636f6e7472616374206f776e65722063616e206164642060008201527f63616e646964617465732e000000000000000000000000000000000000000000602082015250565b60006115ed602b83611020565b91506115f882611591565b604082019050919050565b6000602082019050818103600083015261161c816115e0565b9050919050565b7f4e487b7100000000000000000000000000000000000000000000000000000000600052602260045260246000fd5b6000600282049050600182168061166a57607f821691505b60208210810361167d5761167c611623565b5b50919050565b60008190508160005260206000209050919050565b60006020601f8301049050919050565b600082821b905092915050565b6000600883026116e57fffffffffffffffffffffffffffffffffffffffffffffffffffffffffffffffff826116a8565b6116ef86836116a8565b95508019841693508086168417925050509392505050565b6000819050919050565b600061172c61172761172284611112565b611707565b611112565b9050919050565b6000819050919050565b61174683611711565b61175a61175282611733565b8484546116b5565b825550505050565b600090565b61176f611762565b61177a81848461173d565b505050565b5b8181101561179e57611793600082611767565b600181019050611780565b5050565b601f8211156117e3576117b481611683565b6117bd84611698565b810160208510156117cc578190505b6117e06117d885611698565b83018261177f565b50505b505050565b600082821c905092915050565b6000611806600019846008026117e8565b1980831691505092915050565b600061181f83836117f5565b9150826002028217905092915050565b61183882611015565b67ffffffffffffffff81111561185157611850610e72565b5b61185b8254611652565b6118668282856117a2565b600060209050601f8311600181146118995760008415611887578287015190505b6118918582611813565b8655506118f9565b601f1984166118a786611683565b60005b828110156118cf578489015182556001820191506020850194506020810190506118aa565b868310156118ec57848901516118e8601f8916826117f5565b8355505b6001600288020188555050505b505050505050565b7f5468657265206973206120746965206f6e2042616c6c6f740000000000000000600082015250565b6000611937601883611020565b915061194282611901565b602082019050919050565b600060208201905081810360008301526119668161192a565b9050919050565b7f4e487b7100000000000000000000000000000000000000000000000000000000600052603260045260246000fd5b7f4f6e6c792074686520636f6e7472616374206f776e65722063616e206769766560008201527f20726967687420746f20766f74652e0000000000000000000000000000000000602082015250565b60006119f8602f83611020565b9150611a038261199c565b604082019050919050565b60006020820190508181036000830152611a27816119eb565b9050919050565b7f4e487b7100000000000000000000000000000000000000000000000000000000600052601160045260246000fd5b6000611a6882611112565b91507fffffffffffffffffffffffffffffffffffffffffffffffffffffffffffffffff8203611a9a57611a99611a2e565b5b600182019050919050565b7f596f752068617665206e6f7420726967687420746f20766f7465000000000000600082015250565b6000611adb601a83611020565b9150611ae682611aa5565b602082019050919050565b60006020820190508181036000830152611b0a81611ace565b9050919050565b7f566f74657220616c726561647920766f7465642e000000000000000000000000600082015250565b6000611b47601483611020565b9150611b5282611b11565b602082019050919050565b60006020820190508181036000830152611b7681611b3a565b905091905056fea2646970667358221220c2db92faf45accf00e8c1a2c0766c0abd29bbadbeed8521a1b9fafcc6b287b6b64736f6c63430008110033",
					"opcodes": "PUSH1 0x80 PUSH1 0x40 MSTORE CALLVALUE DUP1 ISZERO PUSH3 0x11 JUMPI PUSH1 0x0 DUP1 REVERT JUMPDEST POP PUSH1 0x40 MLOAD PUSH3 0x24E5 CODESIZE SUB DUP1 PUSH3 0x24E5 DUP4 CODECOPY DUP2 DUP2 ADD PUSH1 0x40 MSTORE DUP2 ADD SWAP1 PUSH3 0x37 SWAP2 SWAP1 PUSH3 0x4E9 JUMP JUMPDEST CALLER PUSH1 0x0 DUP1 PUSH2 0x100 EXP DUP2 SLOAD DUP2 PUSH20 0xFFFFFFFFFFFFFFFFFFFFFFFFFFFFFFFFFFFFFFFF MUL NOT AND SWAP1 DUP4 PUSH20 0xFFFFFFFFFFFFFFFFFFFFFFFFFFFFFFFFFFFFFFFF AND MUL OR SWAP1 SSTORE POP PUSH1 0x0 JUMPDEST DUP3 MLOAD DUP2 LT ISZERO PUSH3 0x15F JUMPI PUSH1 0x2 PUSH1 0x40 MLOAD DUP1 PUSH1 0x60 ADD PUSH1 0x40 MSTORE DUP1 DUP6 DUP5 DUP2 MLOAD DUP2 LT PUSH3 0xA7 JUMPI PUSH3 0xA6 PUSH3 0x54F JUMP JUMPDEST JUMPDEST PUSH1 0x20 MUL PUSH1 0x20 ADD ADD MLOAD PUSH1 0x0 ADD MLOAD DUP2 MSTORE PUSH1 0x20 ADD DUP6 DUP5 DUP2 MLOAD DUP2 LT PUSH3 0xCE JUMPI PUSH3 0xCD PUSH3 0x54F JUMP JUMPDEST JUMPDEST PUSH1 0x20 MUL PUSH1 0x20 ADD ADD MLOAD PUSH1 0x20 ADD MLOAD DUP2 MSTORE PUSH1 0x20 ADD PUSH1 0x0 DUP2 MSTORE POP SWAP1 DUP1 PUSH1 0x1 DUP2 SLOAD ADD DUP1 DUP3 SSTORE DUP1 SWAP2 POP POP PUSH1 0x1 SWAP1 SUB SWAP1 PUSH1 0x0 MSTORE PUSH1 0x20 PUSH1 0x0 KECCAK256 SWAP1 PUSH1 0x3 MUL ADD PUSH1 0x0 SWAP1 SWAP2 SWAP1 SWAP2 SWAP1 SWAP2 POP PUSH1 0x0 DUP3 ADD MLOAD DUP2 PUSH1 0x0 ADD SWAP1 DUP2 PUSH3 0x124 SWAP2 SWAP1 PUSH3 0x7BF JUMP JUMPDEST POP PUSH1 0x20 DUP3 ADD MLOAD DUP2 PUSH1 0x1 ADD SWAP1 DUP2 PUSH3 0x13C SWAP2 SWAP1 PUSH3 0x7BF JUMP JUMPDEST POP PUSH1 0x40 DUP3 ADD MLOAD DUP2 PUSH1 0x2 ADD SSTORE POP POP DUP1 DUP1 PUSH3 0x156 SWAP1 PUSH3 0x8D5 JUMP JUMPDEST SWAP2 POP POP PUSH3 0x7A JUMP JUMPDEST POP POP POP PUSH3 0x922 JUMP JUMPDEST PUSH1 0x0 PUSH1 0x40 MLOAD SWAP1 POP SWAP1 JUMP JUMPDEST PUSH1 0x0 DUP1 REVERT JUMPDEST PUSH1 0x0 DUP1 REVERT JUMPDEST PUSH1 0x0 DUP1 REVERT JUMPDEST PUSH1 0x0 PUSH1 0x1F NOT PUSH1 0x1F DUP4 ADD AND SWAP1 POP SWAP2 SWAP1 POP JUMP JUMPDEST PUSH32 0x4E487B7100000000000000000000000000000000000000000000000000000000 PUSH1 0x0 MSTORE PUSH1 0x41 PUSH1 0x4 MSTORE PUSH1 0x24 PUSH1 0x0 REVERT JUMPDEST PUSH3 0x1CC DUP3 PUSH3 0x181 JUMP JUMPDEST DUP2 ADD DUP2 DUP2 LT PUSH8 0xFFFFFFFFFFFFFFFF DUP3 GT OR ISZERO PUSH3 0x1EE JUMPI PUSH3 0x1ED PUSH3 0x192 JUMP JUMPDEST JUMPDEST DUP1 PUSH1 0x40 MSTORE POP POP POP JUMP JUMPDEST PUSH1 0x0 PUSH3 0x203 PUSH3 0x168 JUMP JUMPDEST SWAP1 POP PUSH3 0x211 DUP3 DUP3 PUSH3 0x1C1 JUMP JUMPDEST SWAP2 SWAP1 POP JUMP JUMPDEST PUSH1 0x0 PUSH8 0xFFFFFFFFFFFFFFFF DUP3 GT ISZERO PUSH3 0x234 JUMPI PUSH3 0x233 PUSH3 0x192 JUMP JUMPDEST JUMPDEST PUSH1 0x20 DUP3 MUL SWAP1 POP PUSH1 0x20 DUP2 ADD SWAP1 POP SWAP2 SWAP1 POP JUMP JUMPDEST PUSH1 0x0 DUP1 REVERT JUMPDEST PUSH1 0x0 DUP1 REVERT JUMPDEST PUSH1 0x0 DUP1 REVERT JUMPDEST PUSH1 0x0 DUP1 REVERT JUMPDEST PUSH1 0x0 PUSH8 0xFFFFFFFFFFFFFFFF DUP3 GT ISZERO PUSH3 0x277 JUMPI PUSH3 0x276 PUSH3 0x192 JUMP JUMPDEST JUMPDEST PUSH3 0x282 DUP3 PUSH3 0x181 JUMP JUMPDEST SWAP1 POP PUSH1 0x20 DUP2 ADD SWAP1 POP SWAP2 SWAP1 POP JUMP JUMPDEST PUSH1 0x0 JUMPDEST DUP4 DUP2 LT ISZERO PUSH3 0x2AF JUMPI DUP1 DUP3 ADD MLOAD DUP2 DUP5 ADD MSTORE PUSH1 0x20 DUP2 ADD SWAP1 POP PUSH3 0x292 JUMP JUMPDEST PUSH1 0x0 DUP5 DUP5 ADD MSTORE POP POP POP POP JUMP JUMPDEST PUSH1 0x0 PUSH3 0x2D2 PUSH3 0x2CC DUP5 PUSH3 0x259 JUMP JUMPDEST PUSH3 0x1F7 JUMP JUMPDEST SWAP1 POP DUP3 DUP2 MSTORE PUSH1 0x20 DUP2 ADD DUP5 DUP5 DUP5 ADD GT ISZERO PUSH3 0x2F1 JUMPI PUSH3 0x2F0 PUSH3 0x254 JUMP JUMPDEST JUMPDEST PUSH3 0x2FE DUP5 DUP3 DUP6 PUSH3 0x28F JUMP JUMPDEST POP SWAP4 SWAP3 POP POP POP JUMP JUMPDEST PUSH1 0x0 DUP3 PUSH1 0x1F DUP4 ADD SLT PUSH3 0x31E JUMPI PUSH3 0x31D PUSH3 0x17C JUMP JUMPDEST JUMPDEST DUP2 MLOAD PUSH3 0x330 DUP5 DUP3 PUSH1 0x20 DUP7 ADD PUSH3 0x2BB JUMP JUMPDEST SWAP2 POP POP SWAP3 SWAP2 POP POP JUMP JUMPDEST PUSH1 0x0 DUP2 SWAP1 POP SWAP2 SWAP1 POP JUMP JUMPDEST PUSH3 0x34E DUP2 PUSH3 0x339 JUMP JUMPDEST DUP2 EQ PUSH3 0x35A JUMPI PUSH1 0x0 DUP1 REVERT JUMPDEST POP JUMP JUMPDEST PUSH1 0x0 DUP2 MLOAD SWAP1 POP PUSH3 0x36E DUP2 PUSH3 0x343 JUMP JUMPDEST SWAP3 SWAP2 POP POP JUMP JUMPDEST PUSH1 0x0 PUSH1 0x60 DUP3 DUP5 SUB SLT ISZERO PUSH3 0x38D JUMPI PUSH3 0x38C PUSH3 0x24A JUMP JUMPDEST JUMPDEST PUSH3 0x399 PUSH1 0x60 PUSH3 0x1F7 JUMP JUMPDEST SWAP1 POP PUSH1 0x0 DUP3 ADD MLOAD PUSH8 0xFFFFFFFFFFFFFFFF DUP2 GT ISZERO PUSH3 0x3BC JUMPI PUSH3 0x3BB PUSH3 0x24F JUMP JUMPDEST JUMPDEST PUSH3 0x3CA DUP5 DUP3 DUP6 ADD PUSH3 0x306 JUMP JUMPDEST PUSH1 0x0 DUP4 ADD MSTORE POP PUSH1 0x20 DUP3 ADD MLOAD PUSH8 0xFFFFFFFFFFFFFFFF DUP2 GT ISZERO PUSH3 0x3F1 JUMPI PUSH3 0x3F0 PUSH3 0x24F JUMP JUMPDEST JUMPDEST PUSH3 0x3FF DUP5 DUP3 DUP6 ADD PUSH3 0x306 JUMP JUMPDEST PUSH1 0x20 DUP4 ADD MSTORE POP PUSH1 0x40 PUSH3 0x415 DUP5 DUP3 DUP6 ADD PUSH3 0x35D JUMP JUMPDEST PUSH1 0x40 DUP4 ADD MSTORE POP SWAP3 SWAP2 POP POP JUMP JUMPDEST PUSH1 0x0 PUSH3 0x438 PUSH3 0x432 DUP5 PUSH3 0x216 JUMP JUMPDEST PUSH3 0x1F7 JUMP JUMPDEST SWAP1 POP DUP1 DUP4 DUP3 MSTORE PUSH1 0x20 DUP3 ADD SWAP1 POP PUSH1 0x20 DUP5 MUL DUP4 ADD DUP6 DUP2 GT ISZERO PUSH3 0x45E JUMPI PUSH3 0x45D PUSH3 0x245 JUMP JUMPDEST JUMPDEST DUP4 JUMPDEST DUP2 DUP2 LT ISZERO PUSH3 0x4AC JUMPI DUP1 MLOAD PUSH8 0xFFFFFFFFFFFFFFFF DUP2 GT ISZERO PUSH3 0x487 JUMPI PUSH3 0x486 PUSH3 0x17C JUMP JUMPDEST JUMPDEST DUP1 DUP7 ADD PUSH3 0x496 DUP10 DUP3 PUSH3 0x374 JUMP JUMPDEST DUP6 MSTORE PUSH1 0x20 DUP6 ADD SWAP5 POP POP POP PUSH1 0x20 DUP2 ADD SWAP1 POP PUSH3 0x460 JUMP JUMPDEST POP POP POP SWAP4 SWAP3 POP POP POP JUMP JUMPDEST PUSH1 0x0 DUP3 PUSH1 0x1F DUP4 ADD SLT PUSH3 0x4CE JUMPI PUSH3 0x4CD PUSH3 0x17C JUMP JUMPDEST JUMPDEST DUP2 MLOAD PUSH3 0x4E0 DUP5 DUP3 PUSH1 0x20 DUP7 ADD PUSH3 0x421 JUMP JUMPDEST SWAP2 POP POP SWAP3 SWAP2 POP POP JUMP JUMPDEST PUSH1 0x0 DUP1 PUSH1 0x40 DUP4 DUP6 SUB SLT ISZERO PUSH3 0x503 JUMPI PUSH3 0x502 PUSH3 0x172 JUMP JUMPDEST JUMPDEST PUSH1 0x0 DUP4 ADD MLOAD PUSH8 0xFFFFFFFFFFFFFFFF DUP2 GT ISZERO PUSH3 0x524 JUMPI PUSH3 0x523 PUSH3 0x177 JUMP JUMPDEST JUMPDEST PUSH3 0x532 DUP6 DUP3 DUP7 ADD PUSH3 0x4B6 JUMP JUMPDEST SWAP3 POP POP PUSH1 0x20 PUSH3 0x545 DUP6 DUP3 DUP7 ADD PUSH3 0x35D JUMP JUMPDEST SWAP2 POP POP SWAP3 POP SWAP3 SWAP1 POP JUMP JUMPDEST PUSH32 0x4E487B7100000000000000000000000000000000000000000000000000000000 PUSH1 0x0 MSTORE PUSH1 0x32 PUSH1 0x4 MSTORE PUSH1 0x24 PUSH1 0x0 REVERT JUMPDEST PUSH1 0x0 DUP2 MLOAD SWAP1 POP SWAP2 SWAP1 POP JUMP JUMPDEST PUSH32 0x4E487B7100000000000000000000000000000000000000000000000000000000 PUSH1 0x0 MSTORE PUSH1 0x22 PUSH1 0x4 MSTORE PUSH1 0x24 PUSH1 0x0 REVERT JUMPDEST PUSH1 0x0 PUSH1 0x2 DUP3 DIV SWAP1 POP PUSH1 0x1 DUP3 AND DUP1 PUSH3 0x5D1 JUMPI PUSH1 0x7F DUP3 AND SWAP2 POP JUMPDEST PUSH1 0x20 DUP3 LT DUP2 SUB PUSH3 0x5E7 JUMPI PUSH3 0x5E6 PUSH3 0x589 JUMP JUMPDEST JUMPDEST POP SWAP2 SWAP1 POP JUMP JUMPDEST PUSH1 0x0 DUP2 SWAP1 POP DUP2 PUSH1 0x0 MSTORE PUSH1 0x20 PUSH1 0x0 KECCAK256 SWAP1 POP SWAP2 SWAP1 POP JUMP JUMPDEST PUSH1 0x0 PUSH1 0x20 PUSH1 0x1F DUP4 ADD DIV SWAP1 POP SWAP2 SWAP1 POP JUMP JUMPDEST PUSH1 0x0 DUP3 DUP3 SHL SWAP1 POP SWAP3 SWAP2 POP POP JUMP JUMPDEST PUSH1 0x0 PUSH1 0x8 DUP4 MUL PUSH3 0x651 PUSH32 0xFFFFFFFFFFFFFFFFFFFFFFFFFFFFFFFFFFFFFFFFFFFFFFFFFFFFFFFFFFFFFFFF DUP3 PUSH3 0x612 JUMP JUMPDEST PUSH3 0x65D DUP7 DUP4 PUSH3 0x612 JUMP JUMPDEST SWAP6 POP DUP1 NOT DUP5 AND SWAP4 POP DUP1 DUP7 AND DUP5 OR SWAP3 POP POP POP SWAP4 SWAP3 POP POP POP JUMP JUMPDEST PUSH1 0x0 DUP2 SWAP1 POP SWAP2 SWAP1 POP JUMP JUMPDEST PUSH1 0x0 PUSH3 0x6A0 PUSH3 0x69A PUSH3 0x694 DUP5 PUSH3 0x339 JUMP JUMPDEST PUSH3 0x675 JUMP JUMPDEST PUSH3 0x339 JUMP JUMPDEST SWAP1 POP SWAP2 SWAP1 POP JUMP JUMPDEST PUSH1 0x0 DUP2 SWAP1 POP SWAP2 SWAP1 POP JUMP JUMPDEST PUSH3 0x6BC DUP4 PUSH3 0x67F JUMP JUMPDEST PUSH3 0x6D4 PUSH3 0x6CB DUP3 PUSH3 0x6A7 JUMP JUMPDEST DUP5 DUP5 SLOAD PUSH3 0x61F JUMP JUMPDEST DUP3 SSTORE POP POP POP POP JUMP JUMPDEST PUSH1 0x0 SWAP1 JUMP JUMPDEST PUSH3 0x6EB PUSH3 0x6DC JUMP JUMPDEST PUSH3 0x6F8 DUP2 DUP5 DUP5 PUSH3 0x6B1 JUMP JUMPDEST POP POP POP JUMP JUMPDEST JUMPDEST DUP2 DUP2 LT ISZERO PUSH3 0x720 JUMPI PUSH3 0x714 PUSH1 0x0 DUP3 PUSH3 0x6E1 JUMP JUMPDEST PUSH1 0x1 DUP2 ADD SWAP1 POP PUSH3 0x6FE JUMP JUMPDEST POP POP JUMP JUMPDEST PUSH1 0x1F DUP3 GT ISZERO PUSH3 0x76F JUMPI PUSH3 0x739 DUP2 PUSH3 0x5ED JUMP JUMPDEST PUSH3 0x744 DUP5 PUSH3 0x602 JUMP JUMPDEST DUP2 ADD PUSH1 0x20 DUP6 LT ISZERO PUSH3 0x754 JUMPI DUP2 SWAP1 POP JUMPDEST PUSH3 0x76C PUSH3 0x763 DUP6 PUSH3 0x602 JUMP JUMPDEST DUP4 ADD DUP3 PUSH3 0x6FD JUMP JUMPDEST POP POP JUMPDEST POP POP POP JUMP JUMPDEST PUSH1 0x0 DUP3 DUP3 SHR SWAP1 POP SWAP3 SWAP2 POP POP JUMP JUMPDEST PUSH1 0x0 PUSH3 0x794 PUSH1 0x0 NOT DUP5 PUSH1 0x8 MUL PUSH3 0x774 JUMP JUMPDEST NOT DUP1 DUP4 AND SWAP2 POP POP SWAP3 SWAP2 POP POP JUMP JUMPDEST PUSH1 0x0 PUSH3 0x7AF DUP4 DUP4 PUSH3 0x781 JUMP JUMPDEST SWAP2 POP DUP3 PUSH1 0x2 MUL DUP3 OR SWAP1 POP SWAP3 SWAP2 POP POP JUMP JUMPDEST PUSH3 0x7CA DUP3 PUSH3 0x57E JUMP JUMPDEST PUSH8 0xFFFFFFFFFFFFFFFF DUP2 GT ISZERO PUSH3 0x7E6 JUMPI PUSH3 0x7E5 PUSH3 0x192 JUMP JUMPDEST JUMPDEST PUSH3 0x7F2 DUP3 SLOAD PUSH3 0x5B8 JUMP JUMPDEST PUSH3 0x7FF DUP3 DUP3 DUP6 PUSH3 0x724 JUMP JUMPDEST PUSH1 0x0 PUSH1 0x20 SWAP1 POP PUSH1 0x1F DUP4 GT PUSH1 0x1 DUP2 EQ PUSH3 0x837 JUMPI PUSH1 0x0 DUP5 ISZERO PUSH3 0x822 JUMPI DUP3 DUP8 ADD MLOAD SWAP1 POP JUMPDEST PUSH3 0x82E DUP6 DUP3 PUSH3 0x7A1 JUMP JUMPDEST DUP7 SSTORE POP PUSH3 0x89E JUMP JUMPDEST PUSH1 0x1F NOT DUP5 AND PUSH3 0x847 DUP7 PUSH3 0x5ED JUMP JUMPDEST PUSH1 0x0 JUMPDEST DUP3 DUP2 LT ISZERO PUSH3 0x871 JUMPI DUP5 DUP10 ADD MLOAD DUP3 SSTORE PUSH1 0x1 DUP3 ADD SWAP2 POP PUSH1 0x20 DUP6 ADD SWAP5 POP PUSH1 0x20 DUP2 ADD SWAP1 POP PUSH3 0x84A JUMP JUMPDEST DUP7 DUP4 LT ISZERO PUSH3 0x891 JUMPI DUP5 DUP10 ADD MLOAD PUSH3 0x88D PUSH1 0x1F DUP10 AND DUP3 PUSH3 0x781 JUMP JUMPDEST DUP4 SSTORE POP JUMPDEST PUSH1 0x1 PUSH1 0x2 DUP9 MUL ADD DUP9 SSTORE POP POP POP JUMPDEST POP POP POP POP POP POP JUMP JUMPDEST PUSH32 0x4E487B7100000000000000000000000000000000000000000000000000000000 PUSH1 0x0 MSTORE PUSH1 0x11 PUSH1 0x4 MSTORE PUSH1 0x24 PUSH1 0x0 REVERT JUMPDEST PUSH1 0x0 PUSH3 0x8E2 DUP3 PUSH3 0x339 JUMP JUMPDEST SWAP2 POP PUSH32 0xFFFFFFFFFFFFFFFFFFFFFFFFFFFFFFFFFFFFFFFFFFFFFFFFFFFFFFFFFFFFFFFF DUP3 SUB PUSH3 0x917 JUMPI PUSH3 0x916 PUSH3 0x8A6 JUMP JUMPDEST JUMPDEST PUSH1 0x1 DUP3 ADD SWAP1 POP SWAP2 SWAP1 POP JUMP JUMPDEST PUSH2 0x1BB3 DUP1 PUSH3 0x932 PUSH1 0x0 CODECOPY PUSH1 0x0 RETURN INVALID PUSH1 0x80 PUSH1 0x40 MSTORE CALLVALUE DUP1 ISZERO PUSH2 0x10 JUMPI PUSH1 0x0 DUP1 REVERT JUMPDEST POP PUSH1 0x4 CALLDATASIZE LT PUSH2 0x10B JUMPI PUSH1 0x0 CALLDATALOAD PUSH1 0xE0 SHR DUP1 PUSH4 0x954115F2 GT PUSH2 0xA2 JUMPI DUP1 PUSH4 0xDA265430 GT PUSH2 0x71 JUMPI DUP1 PUSH4 0xDA265430 EQ PUSH2 0x2AB JUMPI DUP1 PUSH4 0xDF703622 EQ PUSH2 0x2C9 JUMPI DUP1 PUSH4 0xF0EE4577 EQ PUSH2 0x2E7 JUMPI DUP1 PUSH4 0xF927CC29 EQ PUSH2 0x317 JUMPI DUP1 PUSH4 0xFC36E15B EQ PUSH2 0x336 JUMPI PUSH2 0x10B JUMP JUMPDEST DUP1 PUSH4 0x954115F2 EQ PUSH2 0x224 JUMPI DUP1 PUSH4 0x9E7B8D61 EQ PUSH2 0x240 JUMPI DUP1 PUSH4 0xA3EC138D EQ PUSH2 0x25C JUMPI DUP1 PUSH4 0xCE606EE0 EQ PUSH2 0x28D JUMPI PUSH2 0x10B JUMP JUMPDEST DUP1 PUSH4 0x3DDF3822 GT PUSH2 0xDE JUMPI DUP1 PUSH4 0x3DDF3822 EQ PUSH2 0x19A JUMPI DUP1 PUSH4 0x4ABA5F34 EQ PUSH2 0x1B8 JUMPI DUP1 PUSH4 0x777C3ACF EQ PUSH2 0x1D6 JUMPI DUP1 PUSH4 0x94B04E7D EQ PUSH2 0x1F4 JUMPI PUSH2 0x10B JUMP JUMPDEST DUP1 PUSH4 0x10508439 EQ PUSH2 0x110 JUMPI DUP1 PUSH4 0x2BFDA515 EQ PUSH2 0x12C JUMPI DUP1 PUSH4 0x32A2C5D0 EQ PUSH2 0x14A JUMPI DUP1 PUSH4 0x3477EE2E EQ PUSH2 0x168 JUMPI JUMPDEST PUSH1 0x0 DUP1 REVERT JUMPDEST PUSH2 0x12A PUSH1 0x4 DUP1 CALLDATASIZE SUB DUP2 ADD SWAP1 PUSH2 0x125 SWAP2 SWAP1 PUSH2 0xF9D JUMP JUMPDEST PUSH2 0x352 JUMP JUMPDEST STOP JUMPDEST PUSH2 0x134 PUSH2 0x41C JUMP JUMPDEST PUSH1 0x40 MLOAD PUSH2 0x141 SWAP2 SWAP1 PUSH2 0x1094 JUMP JUMPDEST PUSH1 0x40 MLOAD DUP1 SWAP2 SUB SWAP1 RETURN JUMPDEST PUSH2 0x152 PUSH2 0x523 JUMP JUMPDEST PUSH1 0x40 MLOAD PUSH2 0x15F SWAP2 SWAP1 PUSH2 0x10F7 JUMP JUMPDEST PUSH1 0x40 MLOAD DUP1 SWAP2 SUB SWAP1 RETURN JUMPDEST PUSH2 0x182 PUSH1 0x4 DUP1 CALLDATASIZE SUB DUP2 ADD SWAP1 PUSH2 0x17D SWAP2 SWAP1 PUSH2 0x1148 JUMP JUMPDEST PUSH2 0x52B JUMP JUMPDEST PUSH1 0x40 MLOAD PUSH2 0x191 SWAP4 SWAP3 SWAP2 SWAP1 PUSH2 0x1184 JUMP JUMPDEST PUSH1 0x40 MLOAD DUP1 SWAP2 SUB SWAP1 RETURN JUMPDEST PUSH2 0x1A2 PUSH2 0x675 JUMP JUMPDEST PUSH1 0x40 MLOAD PUSH2 0x1AF SWAP2 SWAP1 PUSH2 0x11E4 JUMP JUMPDEST PUSH1 0x40 MLOAD DUP1 SWAP2 SUB SWAP1 RETURN JUMPDEST PUSH2 0x1C0 PUSH2 0x6CC JUMP JUMPDEST PUSH1 0x40 MLOAD PUSH2 0x1CD SWAP2 SWAP1 PUSH2 0x1371 JUMP JUMPDEST PUSH1 0x40 MLOAD DUP1 SWAP2 SUB SWAP1 RETURN JUMPDEST PUSH2 0x1DE PUSH2 0x859 JUMP JUMPDEST PUSH1 0x40 MLOAD PUSH2 0x1EB SWAP2 SWAP1 PUSH2 0x1393 JUMP JUMPDEST PUSH1 0x40 MLOAD DUP1 SWAP2 SUB SWAP1 RETURN JUMPDEST PUSH2 0x20E PUSH1 0x4 DUP1 CALLDATASIZE SUB DUP2 ADD SWAP1 PUSH2 0x209 SWAP2 SWAP1 PUSH2 0x13DA JUMP JUMPDEST PUSH2 0x85F JUMP JUMPDEST PUSH1 0x40 MLOAD PUSH2 0x21B SWAP2 SWAP1 PUSH2 0x11E4 JUMP JUMPDEST PUSH1 0x40 MLOAD DUP1 SWAP2 SUB SWAP1 RETURN JUMPDEST PUSH2 0x23E PUSH1 0x4 DUP1 CALLDATASIZE SUB DUP2 ADD SWAP1 PUSH2 0x239 SWAP2 SWAP1 PUSH2 0x14AD JUMP JUMPDEST PUSH2 0x8B8 JUMP JUMPDEST STOP JUMPDEST PUSH2 0x25A PUSH1 0x4 DUP1 CALLDATASIZE SUB DUP2 ADD SWAP1 PUSH2 0x255 SWAP2 SWAP1 PUSH2 0x13DA JUMP JUMPDEST PUSH2 0x966 JUMP JUMPDEST STOP JUMPDEST PUSH2 0x276 PUSH1 0x4 DUP1 CALLDATASIZE SUB DUP2 ADD SWAP1 PUSH2 0x271 SWAP2 SWAP1 PUSH2 0x13DA JUMP JUMPDEST PUSH2 0xA15 JUMP JUMPDEST PUSH1 0x40 MLOAD PUSH2 0x284 SWAP3 SWAP2 SWAP1 PUSH2 0x14F6 JUMP JUMPDEST PUSH1 0x40 MLOAD DUP1 SWAP2 SUB SWAP1 RETURN JUMPDEST PUSH2 0x295 PUSH2 0xA53 JUMP JUMPDEST PUSH1 0x40 MLOAD PUSH2 0x2A2 SWAP2 SWAP1 PUSH2 0x10F7 JUMP JUMPDEST PUSH1 0x40 MLOAD DUP1 SWAP2 SUB SWAP1 RETURN JUMPDEST PUSH2 0x2B3 PUSH2 0xA77 JUMP JUMPDEST PUSH1 0x40 MLOAD PUSH2 0x2C0 SWAP2 SWAP1 PUSH2 0x11E4 JUMP JUMPDEST PUSH1 0x40 MLOAD DUP1 SWAP2 SUB SWAP1 RETURN JUMPDEST PUSH2 0x2D1 PUSH2 0xA87 JUMP JUMPDEST PUSH1 0x40 MLOAD PUSH2 0x2DE SWAP2 SWAP1 PUSH2 0x11E4 JUMP JUMPDEST PUSH1 0x40 MLOAD DUP1 SWAP2 SUB SWAP1 RETURN JUMPDEST PUSH2 0x301 PUSH1 0x4 DUP1 CALLDATASIZE SUB DUP2 ADD SWAP1 PUSH2 0x2FC SWAP2 SWAP1 PUSH2 0x13DA JUMP JUMPDEST PUSH2 0xA97 JUMP JUMPDEST PUSH1 0x40 MLOAD PUSH2 0x30E SWAP2 SWAP1 PUSH2 0x11E4 JUMP JUMPDEST PUSH1 0x40 MLOAD DUP1 SWAP2 SUB SWAP1 RETURN JUMPDEST PUSH2 0x31F PUSH2 0xAF0 JUMP JUMPDEST PUSH1 0x40 MLOAD PUSH2 0x32D SWAP3 SWAP2 SWAP1 PUSH2 0x151F JUMP JUMPDEST PUSH1 0x40 MLOAD DUP1 SWAP2 SUB SWAP1 RETURN JUMPDEST PUSH2 0x350 PUSH1 0x4 DUP1 CALLDATASIZE SUB DUP2 ADD SWAP1 PUSH2 0x34B SWAP2 SWAP1 PUSH2 0x1548 JUMP JUMPDEST PUSH2 0xBB4 JUMP JUMPDEST STOP JUMPDEST PUSH2 0x35A PUSH2 0x675 JUMP JUMPDEST PUSH2 0x399 JUMPI PUSH1 0x40 MLOAD PUSH32 0x8C379A000000000000000000000000000000000000000000000000000000000 DUP2 MSTORE PUSH1 0x4 ADD PUSH2 0x390 SWAP1 PUSH2 0x1603 JUMP JUMPDEST PUSH1 0x40 MLOAD DUP1 SWAP2 SUB SWAP1 REVERT JUMPDEST PUSH1 0x2 PUSH1 0x40 MLOAD DUP1 PUSH1 0x60 ADD PUSH1 0x40 MSTORE DUP1 DUP5 DUP2 MSTORE PUSH1 0x20 ADD DUP4 DUP2 MSTORE PUSH1 0x20 ADD PUSH1 0x0 DUP2 MSTORE POP SWAP1 DUP1 PUSH1 0x1 DUP2 SLOAD ADD DUP1 DUP3 SSTORE DUP1 SWAP2 POP POP PUSH1 0x1 SWAP1 SUB SWAP1 PUSH1 0x0 MSTORE PUSH1 0x20 PUSH1 0x0 KECCAK256 SWAP1 PUSH1 0x3 MUL ADD PUSH1 0x0 SWAP1 SWAP2 SWAP1 SWAP2 SWAP1 SWAP2 POP PUSH1 0x0 DUP3 ADD MLOAD DUP2 PUSH1 0x0 ADD SWAP1 DUP2 PUSH2 0x3F5 SWAP2 SWAP1 PUSH2 0x182F JUMP JUMPDEST POP PUSH1 0x20 DUP3 ADD MLOAD DUP2 PUSH1 0x1 ADD SWAP1 DUP2 PUSH2 0x40B SWAP2 SWAP1 PUSH2 0x182F JUMP JUMPDEST POP PUSH1 0x40 DUP3 ADD MLOAD DUP2 PUSH1 0x2 ADD SSTORE POP POP POP POP JUMP JUMPDEST PUSH1 0x60 PUSH1 0x0 DUP1 PUSH2 0x429 PUSH2 0xAF0 JUMP JUMPDEST SWAP2 POP SWAP2 POP DUP1 ISZERO PUSH2 0x46E JUMPI PUSH1 0x40 MLOAD PUSH32 0x8C379A000000000000000000000000000000000000000000000000000000000 DUP2 MSTORE PUSH1 0x4 ADD PUSH2 0x465 SWAP1 PUSH2 0x194D JUMP JUMPDEST PUSH1 0x40 MLOAD DUP1 SWAP2 SUB SWAP1 REVERT JUMPDEST PUSH1 0x2 DUP3 DUP2 SLOAD DUP2 LT PUSH2 0x482 JUMPI PUSH2 0x481 PUSH2 0x196D JUMP JUMPDEST JUMPDEST SWAP1 PUSH1 0x0 MSTORE PUSH1 0x20 PUSH1 0x0 KECCAK256 SWAP1 PUSH1 0x3 MUL ADD PUSH1 0x0 ADD DUP1 SLOAD PUSH2 0x49E SWAP1 PUSH2 0x1652 JUMP JUMPDEST DUP1 PUSH1 0x1F ADD PUSH1 0x20 DUP1 SWAP2 DIV MUL PUSH1 0x20 ADD PUSH1 0x40 MLOAD SWAP1 DUP2 ADD PUSH1 0x40 MSTORE DUP1 SWAP3 SWAP2 SWAP1 DUP2 DUP2 MSTORE PUSH1 0x20 ADD DUP3 DUP1 SLOAD PUSH2 0x4CA SWAP1 PUSH2 0x1652 JUMP JUMPDEST DUP1 ISZERO PUSH2 0x517 JUMPI DUP1 PUSH1 0x1F LT PUSH2 0x4EC JUMPI PUSH2 0x100 DUP1 DUP4 SLOAD DIV MUL DUP4 MSTORE SWAP2 PUSH1 0x20 ADD SWAP2 PUSH2 0x517 JUMP JUMPDEST DUP3 ADD SWAP2 SWAP1 PUSH1 0x0 MSTORE PUSH1 0x20 PUSH1 0x0 KECCAK256 SWAP1 JUMPDEST DUP2 SLOAD DUP2 MSTORE SWAP1 PUSH1 0x1 ADD SWAP1 PUSH1 0x20 ADD DUP1 DUP4 GT PUSH2 0x4FA JUMPI DUP3 SWAP1 SUB PUSH1 0x1F AND DUP3 ADD SWAP2 JUMPDEST POP POP POP POP POP SWAP3 POP POP POP SWAP1 JUMP JUMPDEST PUSH1 0x0 ADDRESS SWAP1 POP SWAP1 JUMP JUMPDEST PUSH1 0x2 DUP2 DUP2 SLOAD DUP2 LT PUSH2 0x53B JUMPI PUSH1 0x0 DUP1 REVERT JUMPDEST SWAP1 PUSH1 0x0 MSTORE PUSH1 0x20 PUSH1 0x0 KECCAK256 SWAP1 PUSH1 0x3 MUL ADD PUSH1 0x0 SWAP2 POP SWAP1 POP DUP1 PUSH1 0x0 ADD DUP1 SLOAD PUSH2 0x55E SWAP1 PUSH2 0x1652 JUMP JUMPDEST DUP1 PUSH1 0x1F ADD PUSH1 0x20 DUP1 SWAP2 DIV MUL PUSH1 0x20 ADD PUSH1 0x40 MLOAD SWAP1 DUP2 ADD PUSH1 0x40 MSTORE DUP1 SWAP3 SWAP2 SWAP1 DUP2 DUP2 MSTORE PUSH1 0x20 ADD DUP3 DUP1 SLOAD PUSH2 0x58A SWAP1 PUSH2 0x1652 JUMP JUMPDEST DUP1 ISZERO PUSH2 0x5D7 JUMPI DUP1 PUSH1 0x1F LT PUSH2 0x5AC JUMPI PUSH2 0x100 DUP1 DUP4 SLOAD DIV MUL DUP4 MSTORE SWAP2 PUSH1 0x20 ADD SWAP2 PUSH2 0x5D7 JUMP JUMPDEST DUP3 ADD SWAP2 SWAP1 PUSH1 0x0 MSTORE PUSH1 0x20 PUSH1 0x0 KECCAK256 SWAP1 JUMPDEST DUP2 SLOAD DUP2 MSTORE SWAP1 PUSH1 0x1 ADD SWAP1 PUSH1 0x20 ADD DUP1 DUP4 GT PUSH2 0x5BA JUMPI DUP3 SWAP1 SUB PUSH1 0x1F AND DUP3 ADD SWAP2 JUMPDEST POP POP POP POP POP SWAP1 DUP1 PUSH1 0x1 ADD DUP1 SLOAD PUSH2 0x5EC SWAP1 PUSH2 0x1652 JUMP JUMPDEST DUP1 PUSH1 0x1F ADD PUSH1 0x20 DUP1 SWAP2 DIV MUL PUSH1 0x20 ADD PUSH1 0x40 MLOAD SWAP1 DUP2 ADD PUSH1 0x40 MSTORE DUP1 SWAP3 SWAP2 SWAP1 DUP2 DUP2 MSTORE PUSH1 0x20 ADD DUP3 DUP1 SLOAD PUSH2 0x618 SWAP1 PUSH2 0x1652 JUMP JUMPDEST DUP1 ISZERO PUSH2 0x665 JUMPI DUP1 PUSH1 0x1F LT PUSH2 0x63A JUMPI PUSH2 0x100 DUP1 DUP4 SLOAD DIV MUL DUP4 MSTORE SWAP2 PUSH1 0x20 ADD SWAP2 PUSH2 0x665 JUMP JUMPDEST DUP3 ADD SWAP2 SWAP1 PUSH1 0x0 MSTORE PUSH1 0x20 PUSH1 0x0 KECCAK256 SWAP1 JUMPDEST DUP2 SLOAD DUP2 MSTORE SWAP1 PUSH1 0x1 ADD SWAP1 PUSH1 0x20 ADD DUP1 DUP4 GT PUSH2 0x648 JUMPI DUP3 SWAP1 SUB PUSH1 0x1F AND DUP3 ADD SWAP2 JUMPDEST POP POP POP POP POP SWAP1 DUP1 PUSH1 0x2 ADD SLOAD SWAP1 POP DUP4 JUMP JUMPDEST PUSH1 0x0 DUP1 PUSH1 0x0 SWAP1 SLOAD SWAP1 PUSH2 0x100 EXP SWAP1 DIV PUSH20 0xFFFFFFFFFFFFFFFFFFFFFFFFFFFFFFFFFFFFFFFF AND PUSH20 0xFFFFFFFFFFFFFFFFFFFFFFFFFFFFFFFFFFFFFFFF AND CALLER PUSH20 0xFFFFFFFFFFFFFFFFFFFFFFFFFFFFFFFFFFFFFFFF AND EQ SWAP1 POP SWAP1 JUMP JUMPDEST PUSH1 0x60 PUSH1 0x2 DUP1 SLOAD DUP1 PUSH1 0x20 MUL PUSH1 0x20 ADD PUSH1 0x40 MLOAD SWAP1 DUP2 ADD PUSH1 0x40 MSTORE DUP1 SWAP3 SWAP2 SWAP1 DUP2 DUP2 MSTORE PUSH1 0x20 ADD PUSH1 0x0 SWAP1 JUMPDEST DUP3 DUP3 LT ISZERO PUSH2 0x850 JUMPI DUP4 DUP3 SWAP1 PUSH1 0x0 MSTORE PUSH1 0x20 PUSH1 0x0 KECCAK256 SWAP1 PUSH1 0x3 MUL ADD PUSH1 0x40 MLOAD DUP1 PUSH1 0x60 ADD PUSH1 0x40 MSTORE SWAP1 DUP2 PUSH1 0x0 DUP3 ADD DUP1 SLOAD PUSH2 0x723 SWAP1 PUSH2 0x1652 JUMP JUMPDEST DUP1 PUSH1 0x1F ADD PUSH1 0x20 DUP1 SWAP2 DIV MUL PUSH1 0x20 ADD PUSH1 0x40 MLOAD SWAP1 DUP2 ADD PUSH1 0x40 MSTORE DUP1 SWAP3 SWAP2 SWAP1 DUP2 DUP2 MSTORE PUSH1 0x20 ADD DUP3 DUP1 SLOAD PUSH2 0x74F SWAP1 PUSH2 0x1652 JUMP JUMPDEST DUP1 ISZERO PUSH2 0x79C JUMPI DUP1 PUSH1 0x1F LT PUSH2 0x771 JUMPI PUSH2 0x100 DUP1 DUP4 SLOAD DIV MUL DUP4 MSTORE SWAP2 PUSH1 0x20 ADD SWAP2 PUSH2 0x79C JUMP JUMPDEST DUP3 ADD SWAP2 SWAP1 PUSH1 0x0 MSTORE PUSH1 0x20 PUSH1 0x0 KECCAK256 SWAP1 JUMPDEST DUP2 SLOAD DUP2 MSTORE SWAP1 PUSH1 0x1 ADD SWAP1 PUSH1 0x20 ADD DUP1 DUP4 GT PUSH2 0x77F JUMPI DUP3 SWAP1 SUB PUSH1 0x1F AND DUP3 ADD SWAP2 JUMPDEST POP POP POP POP POP DUP2 MSTORE PUSH1 0x20 ADD PUSH1 0x1 DUP3 ADD DUP1 SLOAD PUSH2 0x7B5 SWAP1 PUSH2 0x1652 JUMP JUMPDEST DUP1 PUSH1 0x1F ADD PUSH1 0x20 DUP1 SWAP2 DIV MUL PUSH1 0x20 ADD PUSH1 0x40 MLOAD SWAP1 DUP2 ADD PUSH1 0x40 MSTORE DUP1 SWAP3 SWAP2 SWAP1 DUP2 DUP2 MSTORE PUSH1 0x20 ADD DUP3 DUP1 SLOAD PUSH2 0x7E1 SWAP1 PUSH2 0x1652 JUMP JUMPDEST DUP1 ISZERO PUSH2 0x82E JUMPI DUP1 PUSH1 0x1F LT PUSH2 0x803 JUMPI PUSH2 0x100 DUP1 DUP4 SLOAD DIV MUL DUP4 MSTORE SWAP2 PUSH1 0x20 ADD SWAP2 PUSH2 0x82E JUMP JUMPDEST DUP3 ADD SWAP2 SWAP1 PUSH1 0x0 MSTORE PUSH1 0x20 PUSH1 0x0 KECCAK256 SWAP1 JUMPDEST DUP2 SLOAD DUP2 MSTORE SWAP1 PUSH1 0x1 ADD SWAP1 PUSH1 0x20 ADD DUP1 DUP4 GT PUSH2 0x811 JUMPI DUP3 SWAP1 SUB PUSH1 0x1F AND DUP3 ADD SWAP2 JUMPDEST POP POP POP POP POP DUP2 MSTORE PUSH1 0x20 ADD PUSH1 0x2 DUP3 ADD SLOAD DUP2 MSTORE POP POP DUP2 MSTORE PUSH1 0x20 ADD SWAP1 PUSH1 0x1 ADD SWAP1 PUSH2 0x6F0 JUMP JUMPDEST POP POP POP POP SWAP1 POP SWAP1 JUMP JUMPDEST PUSH1 0x3 SLOAD DUP2 JUMP JUMPDEST PUSH1 0x0 PUSH1 0x1 PUSH1 0x0 DUP4 PUSH20 0xFFFFFFFFFFFFFFFFFFFFFFFFFFFFFFFFFFFFFFFF AND PUSH20 0xFFFFFFFFFFFFFFFFFFFFFFFFFFFFFFFFFFFFFFFF AND DUP2 MSTORE PUSH1 0x20 ADD SWAP1 DUP2 MSTORE PUSH1 0x20 ADD PUSH1 0x0 KECCAK256 PUSH1 0x0 ADD PUSH1 0x0 SWAP1 SLOAD SWAP1 PUSH2 0x100 EXP SWAP1 DIV PUSH1 0xFF AND SWAP1 POP SWAP2 SWAP1 POP JUMP JUMPDEST PUSH2 0x8C0 PUSH2 0x675 JUMP JUMPDEST PUSH2 0x8FF JUMPI PUSH1 0x40 MLOAD PUSH32 0x8C379A000000000000000000000000000000000000000000000000000000000 DUP2 MSTORE PUSH1 0x4 ADD PUSH2 0x8F6 SWAP1 PUSH2 0x1603 JUMP JUMPDEST PUSH1 0x40 MLOAD DUP1 SWAP2 SUB SWAP1 REVERT JUMPDEST PUSH1 0x2 DUP2 SWAP1 DUP1 PUSH1 0x1 DUP2 SLOAD ADD DUP1 DUP3 SSTORE DUP1 SWAP2 POP POP PUSH1 0x1 SWAP1 SUB SWAP1 PUSH1 0x0 MSTORE PUSH1 0x20 PUSH1 0x0 KECCAK256 SWAP1 PUSH1 0x3 MUL ADD PUSH1 0x0 SWAP1 SWAP2 SWAP1 SWAP2 SWAP1 SWAP2 POP PUSH1 0x0 DUP3 ADD MLOAD DUP2 PUSH1 0x0 ADD SWAP1 DUP2 PUSH2 0x940 SWAP2 SWAP1 PUSH2 0x182F JUMP JUMPDEST POP PUSH1 0x20 DUP3 ADD MLOAD DUP2 PUSH1 0x1 ADD SWAP1 DUP2 PUSH2 0x956 SWAP2 SWAP1 PUSH2 0x182F JUMP JUMPDEST POP PUSH1 0x40 DUP3 ADD MLOAD DUP2 PUSH1 0x2 ADD SSTORE POP POP POP JUMP JUMPDEST DUP1 PUSH2 0x96F PUSH2 0x675 JUMP JUMPDEST PUSH2 0x9AE JUMPI PUSH1 0x40 MLOAD PUSH32 0x8C379A000000000000000000000000000000000000000000000000000000000 DUP2 MSTORE PUSH1 0x4 ADD PUSH2 0x9A5 SWAP1 PUSH2 0x1A0E JUMP JUMPDEST PUSH1 0x40 MLOAD DUP1 SWAP2 SUB SWAP1 REVERT JUMPDEST PUSH2 0x9B7 DUP2 PUSH2 0xD9E JUMP JUMPDEST PUSH1 0x1 DUP1 PUSH1 0x0 DUP5 PUSH20 0xFFFFFFFFFFFFFFFFFFFFFFFFFFFFFFFFFFFFFFFF AND PUSH20 0xFFFFFFFFFFFFFFFFFFFFFFFFFFFFFFFFFFFFFFFF AND DUP2 MSTORE PUSH1 0x20 ADD SWAP1 DUP2 MSTORE PUSH1 0x20 ADD PUSH1 0x0 KECCAK256 PUSH1 0x0 ADD PUSH1 0x0 PUSH2 0x100 EXP DUP2 SLOAD DUP2 PUSH1 0xFF MUL NOT AND SWAP1 DUP4 ISZERO ISZERO MUL OR SWAP1 SSTORE POP POP POP JUMP JUMPDEST PUSH1 0x1 PUSH1 0x20 MSTORE DUP1 PUSH1 0x0 MSTORE PUSH1 0x40 PUSH1 0x0 KECCAK256 PUSH1 0x0 SWAP2 POP SWAP1 POP DUP1 PUSH1 0x0 ADD PUSH1 0x0 SWAP1 SLOAD SWAP1 PUSH2 0x100 EXP SWAP1 DIV PUSH1 0xFF AND SWAP1 DUP1 PUSH1 0x0 ADD PUSH1 0x1 SWAP1 SLOAD SWAP1 PUSH2 0x100 EXP SWAP1 DIV PUSH1 0xFF AND SWAP1 POP DUP3 JUMP JUMPDEST PUSH1 0x0 DUP1 SLOAD SWAP1 PUSH2 0x100 EXP SWAP1 DIV PUSH20 0xFFFFFFFFFFFFFFFFFFFFFFFFFFFFFFFFFFFFFFFF AND DUP2 JUMP JUMPDEST PUSH1 0x0 PUSH2 0xA82 CALLER PUSH2 0xA97 JUMP JUMPDEST SWAP1 POP SWAP1 JUMP JUMPDEST PUSH1 0x0 PUSH2 0xA92 CALLER PUSH2 0x85F JUMP JUMPDEST SWAP1 POP SWAP1 JUMP JUMPDEST PUSH1 0x0 PUSH1 0x1 PUSH1 0x0 DUP4 PUSH20 0xFFFFFFFFFFFFFFFFFFFFFFFFFFFFFFFFFFFFFFFF AND PUSH20 0xFFFFFFFFFFFFFFFFFFFFFFFFFFFFFFFFFFFFFFFF AND DUP2 MSTORE PUSH1 0x20 ADD SWAP1 DUP2 MSTORE PUSH1 0x20 ADD PUSH1 0x0 KECCAK256 PUSH1 0x0 ADD PUSH1 0x1 SWAP1 SLOAD SWAP1 PUSH2 0x100 EXP SWAP1 DIV PUSH1 0xFF AND SWAP1 POP SWAP2 SWAP1 POP JUMP JUMPDEST PUSH1 0x0 DUP1 PUSH1 0x0 DUP1 PUSH1 0x0 SWAP1 POP JUMPDEST PUSH1 0x2 DUP1 SLOAD SWAP1 POP DUP2 LT ISZERO PUSH2 0xBAE JUMPI DUP2 PUSH1 0x2 DUP3 DUP2 SLOAD DUP2 LT PUSH2 0xB1D JUMPI PUSH2 0xB1C PUSH2 0x196D JUMP JUMPDEST JUMPDEST SWAP1 PUSH1 0x0 MSTORE PUSH1 0x20 PUSH1 0x0 KECCAK256 SWAP1 PUSH1 0x3 MUL ADD PUSH1 0x2 ADD SLOAD GT ISZERO PUSH2 0xB69 JUMPI PUSH1 0x2 DUP2 DUP2 SLOAD DUP2 LT PUSH2 0xB49 JUMPI PUSH2 0xB48 PUSH2 0x196D JUMP JUMPDEST JUMPDEST SWAP1 PUSH1 0x0 MSTORE PUSH1 0x20 PUSH1 0x0 KECCAK256 SWAP1 PUSH1 0x3 MUL ADD PUSH1 0x2 ADD SLOAD SWAP2 POP DUP1 SWAP4 POP PUSH1 0x0 SWAP3 POP PUSH2 0xB9B JUMP JUMPDEST DUP2 PUSH1 0x2 DUP3 DUP2 SLOAD DUP2 LT PUSH2 0xB7E JUMPI PUSH2 0xB7D PUSH2 0x196D JUMP JUMPDEST JUMPDEST SWAP1 PUSH1 0x0 MSTORE PUSH1 0x20 PUSH1 0x0 KECCAK256 SWAP1 PUSH1 0x3 MUL ADD PUSH1 0x2 ADD SLOAD SUB PUSH2 0xB9A JUMPI PUSH1 0x1 SWAP3 POP JUMPDEST JUMPDEST DUP1 DUP1 PUSH2 0xBA6 SWAP1 PUSH2 0x1A5D JUMP JUMPDEST SWAP2 POP POP PUSH2 0xAFB JUMP JUMPDEST POP POP SWAP1 SWAP2 JUMP JUMPDEST CALLER PUSH2 0xBBD PUSH2 0xA87 JUMP JUMPDEST PUSH2 0xBFC JUMPI PUSH1 0x40 MLOAD PUSH32 0x8C379A000000000000000000000000000000000000000000000000000000000 DUP2 MSTORE PUSH1 0x4 ADD PUSH2 0xBF3 SWAP1 PUSH2 0x1AF1 JUMP JUMPDEST PUSH1 0x40 MLOAD DUP1 SWAP2 SUB SWAP1 REVERT JUMPDEST PUSH2 0xC05 DUP2 PUSH2 0xD9E JUMP JUMPDEST PUSH1 0x0 PUSH1 0x1 PUSH1 0x0 CALLER PUSH20 0xFFFFFFFFFFFFFFFFFFFFFFFFFFFFFFFFFFFFFFFF AND PUSH20 0xFFFFFFFFFFFFFFFFFFFFFFFFFFFFFFFFFFFFFFFF AND DUP2 MSTORE PUSH1 0x20 ADD SWAP1 DUP2 MSTORE PUSH1 0x20 ADD PUSH1 0x0 KECCAK256 SWAP1 POP PUSH1 0x0 JUMPDEST PUSH1 0x2 DUP1 SLOAD SWAP1 POP DUP2 LT ISZERO PUSH2 0xD98 JUMPI PUSH2 0xD0F PUSH1 0x2 DUP3 DUP2 SLOAD DUP2 LT PUSH2 0xC6F JUMPI PUSH2 0xC6E PUSH2 0x196D JUMP JUMPDEST JUMPDEST SWAP1 PUSH1 0x0 MSTORE PUSH1 0x20 PUSH1 0x0 KECCAK256 SWAP1 PUSH1 0x3 MUL ADD PUSH1 0x0 ADD DUP1 SLOAD PUSH2 0xC8B SWAP1 PUSH2 0x1652 JUMP JUMPDEST DUP1 PUSH1 0x1F ADD PUSH1 0x20 DUP1 SWAP2 DIV MUL PUSH1 0x20 ADD PUSH1 0x40 MLOAD SWAP1 DUP2 ADD PUSH1 0x40 MSTORE DUP1 SWAP3 SWAP2 SWAP1 DUP2 DUP2 MSTORE PUSH1 0x20 ADD DUP3 DUP1 SLOAD PUSH2 0xCB7 SWAP1 PUSH2 0x1652 JUMP JUMPDEST DUP1 ISZERO PUSH2 0xD04 JUMPI DUP1 PUSH1 0x1F LT PUSH2 0xCD9 JUMPI PUSH2 0x100 DUP1 DUP4 SLOAD DIV MUL DUP4 MSTORE SWAP2 PUSH1 0x20 ADD SWAP2 PUSH2 0xD04 JUMP JUMPDEST DUP3 ADD SWAP2 SWAP1 PUSH1 0x0 MSTORE PUSH1 0x20 PUSH1 0x0 KECCAK256 SWAP1 JUMPDEST DUP2 SLOAD DUP2 MSTORE SWAP1 PUSH1 0x1 ADD SWAP1 PUSH1 0x20 ADD DUP1 DUP4 GT PUSH2 0xCE7 JUMPI DUP3 SWAP1 SUB PUSH1 0x1F AND DUP3 ADD SWAP2 JUMPDEST POP POP POP POP POP DUP6 PUSH2 0xDEA JUMP JUMPDEST ISZERO PUSH2 0xD85 JUMPI PUSH1 0x2 DUP2 DUP2 SLOAD DUP2 LT PUSH2 0xD28 JUMPI PUSH2 0xD27 PUSH2 0x196D JUMP JUMPDEST JUMPDEST SWAP1 PUSH1 0x0 MSTORE PUSH1 0x20 PUSH1 0x0 KECCAK256 SWAP1 PUSH1 0x3 MUL ADD PUSH1 0x2 ADD PUSH1 0x0 DUP2 SLOAD DUP1 SWAP3 SWAP2 SWAP1 PUSH2 0xD4A SWAP1 PUSH2 0x1A5D JUMP JUMPDEST SWAP2 SWAP1 POP SSTORE POP PUSH1 0x1 DUP3 PUSH1 0x0 ADD PUSH1 0x1 PUSH2 0x100 EXP DUP2 SLOAD DUP2 PUSH1 0xFF MUL NOT AND SWAP1 DUP4 ISZERO ISZERO MUL OR SWAP1 SSTORE POP PUSH1 0x3 PUSH1 0x0 DUP2 SLOAD DUP1 SWAP3 SWAP2 SWAP1 PUSH2 0xD7F SWAP1 PUSH2 0x1A5D JUMP JUMPDEST SWAP2 SWAP1 POP SSTORE POP JUMPDEST DUP1 DUP1 PUSH2 0xD90 SWAP1 PUSH2 0x1A5D JUMP JUMPDEST SWAP2 POP POP PUSH2 0xC4B JUMP JUMPDEST POP POP POP POP JUMP JUMPDEST PUSH2 0xDA7 DUP2 PUSH2 0xA97 JUMP JUMPDEST ISZERO PUSH2 0xDE7 JUMPI PUSH1 0x40 MLOAD PUSH32 0x8C379A000000000000000000000000000000000000000000000000000000000 DUP2 MSTORE PUSH1 0x4 ADD PUSH2 0xDDE SWAP1 PUSH2 0x1B5D JUMP JUMPDEST PUSH1 0x40 MLOAD DUP1 SWAP2 SUB SWAP1 REVERT JUMPDEST POP JUMP JUMPDEST PUSH1 0x0 DUP2 PUSH1 0x40 MLOAD PUSH1 0x20 ADD PUSH2 0xDFD SWAP2 SWAP1 PUSH2 0x1094 JUMP JUMPDEST PUSH1 0x40 MLOAD PUSH1 0x20 DUP2 DUP4 SUB SUB DUP2 MSTORE SWAP1 PUSH1 0x40 MSTORE DUP1 MLOAD SWAP1 PUSH1 0x20 ADD KECCAK256 DUP4 PUSH1 0x40 MLOAD PUSH1 0x20 ADD PUSH2 0xE24 SWAP2 SWAP1 PUSH2 0x1094 JUMP JUMPDEST PUSH1 0x40 MLOAD PUSH1 0x20 DUP2 DUP4 SUB SUB DUP2 MSTORE SWAP1 PUSH1 0x40 MSTORE DUP1 MLOAD SWAP1 PUSH1 0x20 ADD KECCAK256 EQ SWAP1 POP SWAP3 SWAP2 POP POP JUMP JUMPDEST PUSH1 0x0 PUSH1 0x40 MLOAD SWAP1 POP SWAP1 JUMP JUMPDEST PUSH1 0x0 DUP1 REVERT JUMPDEST PUSH1 0x0 DUP1 REVERT JUMPDEST PUSH1 0x0 DUP1 REVERT JUMPDEST PUSH1 0x0 DUP1 REVERT JUMPDEST PUSH1 0x0 PUSH1 0x1F NOT PUSH1 0x1F DUP4 ADD AND SWAP1 POP SWAP2 SWAP1 POP JUMP JUMPDEST PUSH32 0x4E487B7100000000000000000000000000000000000000000000000000000000 PUSH1 0x0 MSTORE PUSH1 0x41 PUSH1 0x4 MSTORE PUSH1 0x24 PUSH1 0x0 REVERT JUMPDEST PUSH2 0xEAA DUP3 PUSH2 0xE61 JUMP JUMPDEST DUP2 ADD DUP2 DUP2 LT PUSH8 0xFFFFFFFFFFFFFFFF DUP3 GT OR ISZERO PUSH2 0xEC9 JUMPI PUSH2 0xEC8 PUSH2 0xE72 JUMP JUMPDEST JUMPDEST DUP1 PUSH1 0x40 MSTORE POP POP POP JUMP JUMPDEST PUSH1 0x0 PUSH2 0xEDC PUSH2 0xE43 JUMP JUMPDEST SWAP1 POP PUSH2 0xEE8 DUP3 DUP3 PUSH2 0xEA1 JUMP JUMPDEST SWAP2 SWAP1 POP JUMP JUMPDEST PUSH1 0x0 PUSH8 0xFFFFFFFFFFFFFFFF DUP3 GT ISZERO PUSH2 0xF08 JUMPI PUSH2 0xF07 PUSH2 0xE72 JUMP JUMPDEST JUMPDEST PUSH2 0xF11 DUP3 PUSH2 0xE61 JUMP JUMPDEST SWAP1 POP PUSH1 0x20 DUP2 ADD SWAP1 POP SWAP2 SWAP1 POP JUMP JUMPDEST DUP3 DUP2 DUP4 CALLDATACOPY PUSH1 0x0 DUP4 DUP4 ADD MSTORE POP POP POP JUMP JUMPDEST PUSH1 0x0 PUSH2 0xF40 PUSH2 0xF3B DUP5 PUSH2 0xEED JUMP JUMPDEST PUSH2 0xED2 JUMP JUMPDEST SWAP1 POP DUP3 DUP2 MSTORE PUSH1 0x20 DUP2 ADD DUP5 DUP5 DUP5 ADD GT ISZERO PUSH2 0xF5C JUMPI PUSH2 0xF5B PUSH2 0xE5C JUMP JUMPDEST JUMPDEST PUSH2 0xF67 DUP5 DUP3 DUP6 PUSH2 0xF1E JUMP JUMPDEST POP SWAP4 SWAP3 POP POP POP JUMP JUMPDEST PUSH1 0x0 DUP3 PUSH1 0x1F DUP4 ADD SLT PUSH2 0xF84 JUMPI PUSH2 0xF83 PUSH2 0xE57 JUMP JUMPDEST JUMPDEST DUP2 CALLDATALOAD PUSH2 0xF94 DUP5 DUP3 PUSH1 0x20 DUP7 ADD PUSH2 0xF2D JUMP JUMPDEST SWAP2 POP POP SWAP3 SWAP2 POP POP JUMP JUMPDEST PUSH1 0x0 DUP1 PUSH1 0x40 DUP4 DUP6 SUB SLT ISZERO PUSH2 0xFB4 JUMPI PUSH2 0xFB3 PUSH2 0xE4D JUMP JUMPDEST JUMPDEST PUSH1 0x0 DUP4 ADD CALLDATALOAD PUSH8 0xFFFFFFFFFFFFFFFF DUP2 GT ISZERO PUSH2 0xFD2 JUMPI PUSH2 0xFD1 PUSH2 0xE52 JUMP JUMPDEST JUMPDEST PUSH2 0xFDE DUP6 DUP3 DUP7 ADD PUSH2 0xF6F JUMP JUMPDEST SWAP3 POP POP PUSH1 0x20 DUP4 ADD CALLDATALOAD PUSH8 0xFFFFFFFFFFFFFFFF DUP2 GT ISZERO PUSH2 0xFFF JUMPI PUSH2 0xFFE PUSH2 0xE52 JUMP JUMPDEST JUMPDEST PUSH2 0x100B DUP6 DUP3 DUP7 ADD PUSH2 0xF6F JUMP JUMPDEST SWAP2 POP POP SWAP3 POP SWAP3 SWAP1 POP JUMP JUMPDEST PUSH1 0x0 DUP2 MLOAD SWAP1 POP SWAP2 SWAP1 POP JUMP JUMPDEST PUSH1 0x0 DUP3 DUP3 MSTORE PUSH1 0x20 DUP3 ADD SWAP1 POP SWAP3 SWAP2 POP POP JUMP JUMPDEST PUSH1 0x0 JUMPDEST DUP4 DUP2 LT ISZERO PUSH2 0x104F JUMPI DUP1 DUP3 ADD MLOAD DUP2 DUP5 ADD MSTORE PUSH1 0x20 DUP2 ADD SWAP1 POP PUSH2 0x1034 JUMP JUMPDEST PUSH1 0x0 DUP5 DUP5 ADD MSTORE POP POP POP POP JUMP JUMPDEST PUSH1 0x0 PUSH2 0x1066 DUP3 PUSH2 0x1015 JUMP JUMPDEST PUSH2 0x1070 DUP2 DUP6 PUSH2 0x1020 JUMP JUMPDEST SWAP4 POP PUSH2 0x1080 DUP2 DUP6 PUSH1 0x20 DUP7 ADD PUSH2 0x1031 JUMP JUMPDEST PUSH2 0x1089 DUP2 PUSH2 0xE61 JUMP JUMPDEST DUP5 ADD SWAP2 POP POP SWAP3 SWAP2 POP POP JUMP JUMPDEST PUSH1 0x0 PUSH1 0x20 DUP3 ADD SWAP1 POP DUP2 DUP2 SUB PUSH1 0x0 DUP4 ADD MSTORE PUSH2 0x10AE DUP2 DUP5 PUSH2 0x105B JUMP JUMPDEST SWAP1 POP SWAP3 SWAP2 POP POP JUMP JUMPDEST PUSH1 0x0 PUSH20 0xFFFFFFFFFFFFFFFFFFFFFFFFFFFFFFFFFFFFFFFF DUP3 AND SWAP1 POP SWAP2 SWAP1 POP JUMP JUMPDEST PUSH1 0x0 PUSH2 0x10E1 DUP3 PUSH2 0x10B6 JUMP JUMPDEST SWAP1 POP SWAP2 SWAP1 POP JUMP JUMPDEST PUSH2 0x10F1 DUP2 PUSH2 0x10D6 JUMP JUMPDEST DUP3 MSTORE POP POP JUMP JUMPDEST PUSH1 0x0 PUSH1 0x20 DUP3 ADD SWAP1 POP PUSH2 0x110C PUSH1 0x0 DUP4 ADD DUP5 PUSH2 0x10E8 JUMP JUMPDEST SWAP3 SWAP2 POP POP JUMP JUMPDEST PUSH1 0x0 DUP2 SWAP1 POP SWAP2 SWAP1 POP JUMP JUMPDEST PUSH2 0x1125 DUP2 PUSH2 0x1112 JUMP JUMPDEST DUP2 EQ PUSH2 0x1130 JUMPI PUSH1 0x0 DUP1 REVERT JUMPDEST POP JUMP JUMPDEST PUSH1 0x0 DUP2 CALLDATALOAD SWAP1 POP PUSH2 0x1142 DUP2 PUSH2 0x111C JUMP JUMPDEST SWAP3 SWAP2 POP POP JUMP JUMPDEST PUSH1 0x0 PUSH1 0x20 DUP3 DUP5 SUB SLT ISZERO PUSH2 0x115E JUMPI PUSH2 0x115D PUSH2 0xE4D JUMP JUMPDEST JUMPDEST PUSH1 0x0 PUSH2 0x116C DUP5 DUP3 DUP6 ADD PUSH2 0x1133 JUMP JUMPDEST SWAP2 POP POP SWAP3 SWAP2 POP POP JUMP JUMPDEST PUSH2 0x117E DUP2 PUSH2 0x1112 JUMP JUMPDEST DUP3 MSTORE POP POP JUMP JUMPDEST PUSH1 0x0 PUSH1 0x60 DUP3 ADD SWAP1 POP DUP2 DUP2 SUB PUSH1 0x0 DUP4 ADD MSTORE PUSH2 0x119E DUP2 DUP7 PUSH2 0x105B JUMP JUMPDEST SWAP1 POP DUP2 DUP2 SUB PUSH1 0x20 DUP4 ADD MSTORE PUSH2 0x11B2 DUP2 DUP6 PUSH2 0x105B JUMP JUMPDEST SWAP1 POP PUSH2 0x11C1 PUSH1 0x40 DUP4 ADD DUP5 PUSH2 0x1175 JUMP JUMPDEST SWAP5 SWAP4 POP POP POP POP JUMP JUMPDEST PUSH1 0x0 DUP2 ISZERO ISZERO SWAP1 POP SWAP2 SWAP1 POP JUMP JUMPDEST PUSH2 0x11DE DUP2 PUSH2 0x11C9 JUMP JUMPDEST DUP3 MSTORE POP POP JUMP JUMPDEST PUSH1 0x0 PUSH1 0x20 DUP3 ADD SWAP1 POP PUSH2 0x11F9 PUSH1 0x0 DUP4 ADD DUP5 PUSH2 0x11D5 JUMP JUMPDEST SWAP3 SWAP2 POP POP JUMP JUMPDEST PUSH1 0x0 DUP2 MLOAD SWAP1 POP SWAP2 SWAP1 POP JUMP JUMPDEST PUSH1 0x0 DUP3 DUP3 MSTORE PUSH1 0x20 DUP3 ADD SWAP1 POP SWAP3 SWAP2 POP POP JUMP JUMPDEST PUSH1 0x0 DUP2 SWAP1 POP PUSH1 0x20 DUP3 ADD SWAP1 POP SWAP2 SWAP1 POP JUMP JUMPDEST PUSH1 0x0 DUP3 DUP3 MSTORE PUSH1 0x20 DUP3 ADD SWAP1 POP SWAP3 SWAP2 POP POP JUMP JUMPDEST PUSH1 0x0 PUSH2 0x1247 DUP3 PUSH2 0x1015 JUMP JUMPDEST PUSH2 0x1251 DUP2 DUP6 PUSH2 0x122B JUMP JUMPDEST SWAP4 POP PUSH2 0x1261 DUP2 DUP6 PUSH1 0x20 DUP7 ADD PUSH2 0x1031 JUMP JUMPDEST PUSH2 0x126A DUP2 PUSH2 0xE61 JUMP JUMPDEST DUP5 ADD SWAP2 POP POP SWAP3 SWAP2 POP POP JUMP JUMPDEST PUSH2 0x127E DUP2 PUSH2 0x1112 JUMP JUMPDEST DUP3 MSTORE POP POP JUMP JUMPDEST PUSH1 0x0 PUSH1 0x60 DUP4 ADD PUSH1 0x0 DUP4 ADD MLOAD DUP5 DUP3 SUB PUSH1 0x0 DUP7 ADD MSTORE PUSH2 0x12A1 DUP3 DUP3 PUSH2 0x123C JUMP JUMPDEST SWAP2 POP POP PUSH1 0x20 DUP4 ADD MLOAD DUP5 DUP3 SUB PUSH1 0x20 DUP7 ADD MSTORE PUSH2 0x12BB DUP3 DUP3 PUSH2 0x123C JUMP JUMPDEST SWAP2 POP POP PUSH1 0x40 DUP4 ADD MLOAD PUSH2 0x12D0 PUSH1 0x40 DUP7 ADD DUP3 PUSH2 0x1275 JUMP JUMPDEST POP DUP1 SWAP2 POP POP SWAP3 SWAP2 POP POP JUMP JUMPDEST PUSH1 0x0 PUSH2 0x12E7 DUP4 DUP4 PUSH2 0x1284 JUMP JUMPDEST SWAP1 POP SWAP3 SWAP2 POP POP JUMP JUMPDEST PUSH1 0x0 PUSH1 0x20 DUP3 ADD SWAP1 POP SWAP2 SWAP1 POP JUMP JUMPDEST PUSH1 0x0 PUSH2 0x1307 DUP3 PUSH2 0x11FF JUMP JUMPDEST PUSH2 0x1311 DUP2 DUP6 PUSH2 0x120A JUMP JUMPDEST SWAP4 POP DUP4 PUSH1 0x20 DUP3 MUL DUP6 ADD PUSH2 0x1323 DUP6 PUSH2 0x121B JUMP JUMPDEST DUP1 PUSH1 0x0 JUMPDEST DUP6 DUP2 LT ISZERO PUSH2 0x135F JUMPI DUP5 DUP5 SUB DUP10 MSTORE DUP2 MLOAD PUSH2 0x1340 DUP6 DUP3 PUSH2 0x12DB JUMP JUMPDEST SWAP5 POP PUSH2 0x134B DUP4 PUSH2 0x12EF JUMP JUMPDEST SWAP3 POP PUSH1 0x20 DUP11 ADD SWAP10 POP POP PUSH1 0x1 DUP2 ADD SWAP1 POP PUSH2 0x1327 JUMP JUMPDEST POP DUP3 SWAP8 POP DUP8 SWAP6 POP POP POP POP POP POP SWAP3 SWAP2 POP POP JUMP JUMPDEST PUSH1 0x0 PUSH1 0x20 DUP3 ADD SWAP1 POP DUP2 DUP2 SUB PUSH1 0x0 DUP4 ADD MSTORE PUSH2 0x138B DUP2 DUP5 PUSH2 0x12FC JUMP JUMPDEST SWAP1 POP SWAP3 SWAP2 POP POP JUMP JUMPDEST PUSH1 0x0 PUSH1 0x20 DUP3 ADD SWAP1 POP PUSH2 0x13A8 PUSH1 0x0 DUP4 ADD DUP5 PUSH2 0x1175 JUMP JUMPDEST SWAP3 SWAP2 POP POP JUMP JUMPDEST PUSH2 0x13B7 DUP2 PUSH2 0x10D6 JUMP JUMPDEST DUP2 EQ PUSH2 0x13C2 JUMPI PUSH1 0x0 DUP1 REVERT JUMPDEST POP JUMP JUMPDEST PUSH1 0x0 DUP2 CALLDATALOAD SWAP1 POP PUSH2 0x13D4 DUP2 PUSH2 0x13AE JUMP JUMPDEST SWAP3 SWAP2 POP POP JUMP JUMPDEST PUSH1 0x0 PUSH1 0x20 DUP3 DUP5 SUB SLT ISZERO PUSH2 0x13F0 JUMPI PUSH2 0x13EF PUSH2 0xE4D JUMP JUMPDEST JUMPDEST PUSH1 0x0 PUSH2 0x13FE DUP5 DUP3 DUP6 ADD PUSH2 0x13C5 JUMP JUMPDEST SWAP2 POP POP SWAP3 SWAP2 POP POP JUMP JUMPDEST PUSH1 0x0 DUP1 REVERT JUMPDEST PUSH1 0x0 DUP1 REVERT JUMPDEST PUSH1 0x0 PUSH1 0x60 DUP3 DUP5 SUB SLT ISZERO PUSH2 0x1427 JUMPI PUSH2 0x1426 PUSH2 0x1407 JUMP JUMPDEST JUMPDEST PUSH2 0x1431 PUSH1 0x60 PUSH2 0xED2 JUMP JUMPDEST SWAP1 POP PUSH1 0x0 DUP3 ADD CALLDATALOAD PUSH8 0xFFFFFFFFFFFFFFFF DUP2 GT ISZERO PUSH2 0x1451 JUMPI PUSH2 0x1450 PUSH2 0x140C JUMP JUMPDEST JUMPDEST PUSH2 0x145D DUP5 DUP3 DUP6 ADD PUSH2 0xF6F JUMP JUMPDEST PUSH1 0x0 DUP4 ADD MSTORE POP PUSH1 0x20 DUP3 ADD CALLDATALOAD PUSH8 0xFFFFFFFFFFFFFFFF DUP2 GT ISZERO PUSH2 0x1481 JUMPI PUSH2 0x1480 PUSH2 0x140C JUMP JUMPDEST JUMPDEST PUSH2 0x148D DUP5 DUP3 DUP6 ADD PUSH2 0xF6F JUMP JUMPDEST PUSH1 0x20 DUP4 ADD MSTORE POP PUSH1 0x40 PUSH2 0x14A1 DUP5 DUP3 DUP6 ADD PUSH2 0x1133 JUMP JUMPDEST PUSH1 0x40 DUP4 ADD MSTORE POP SWAP3 SWAP2 POP POP JUMP JUMPDEST PUSH1 0x0 PUSH1 0x20 DUP3 DUP5 SUB SLT ISZERO PUSH2 0x14C3 JUMPI PUSH2 0x14C2 PUSH2 0xE4D JUMP JUMPDEST JUMPDEST PUSH1 0x0 DUP3 ADD CALLDATALOAD PUSH8 0xFFFFFFFFFFFFFFFF DUP2 GT ISZERO PUSH2 0x14E1 JUMPI PUSH2 0x14E0 PUSH2 0xE52 JUMP JUMPDEST JUMPDEST PUSH2 0x14ED DUP5 DUP3 DUP6 ADD PUSH2 0x1411 JUMP JUMPDEST SWAP2 POP POP SWAP3 SWAP2 POP POP JUMP JUMPDEST PUSH1 0x0 PUSH1 0x40 DUP3 ADD SWAP1 POP PUSH2 0x150B PUSH1 0x0 DUP4 ADD DUP6 PUSH2 0x11D5 JUMP JUMPDEST PUSH2 0x1518 PUSH1 0x20 DUP4 ADD DUP5 PUSH2 0x11D5 JUMP JUMPDEST SWAP4 SWAP3 POP POP POP JUMP JUMPDEST PUSH1 0x0 PUSH1 0x40 DUP3 ADD SWAP1 POP PUSH2 0x1534 PUSH1 0x0 DUP4 ADD DUP6 PUSH2 0x1175 JUMP JUMPDEST PUSH2 0x1541 PUSH1 0x20 DUP4 ADD DUP5 PUSH2 0x11D5 JUMP JUMPDEST SWAP4 SWAP3 POP POP POP JUMP JUMPDEST PUSH1 0x0 PUSH1 0x20 DUP3 DUP5 SUB SLT ISZERO PUSH2 0x155E JUMPI PUSH2 0x155D PUSH2 0xE4D JUMP JUMPDEST JUMPDEST PUSH1 0x0 DUP3 ADD CALLDATALOAD PUSH8 0xFFFFFFFFFFFFFFFF DUP2 GT ISZERO PUSH2 0x157C JUMPI PUSH2 0x157B PUSH2 0xE52 JUMP JUMPDEST JUMPDEST PUSH2 0x1588 DUP5 DUP3 DUP6 ADD PUSH2 0xF6F JUMP JUMPDEST SWAP2 POP POP SWAP3 SWAP2 POP POP JUMP JUMPDEST PUSH32 0x4F6E6C792074686520636F6E7472616374206F776E65722063616E2061646420 PUSH1 0x0 DUP3 ADD MSTORE PUSH32 0x63616E646964617465732E000000000000000000000000000000000000000000 PUSH1 0x20 DUP3 ADD MSTORE POP JUMP JUMPDEST PUSH1 0x0 PUSH2 0x15ED PUSH1 0x2B DUP4 PUSH2 0x1020 JUMP JUMPDEST SWAP2 POP PUSH2 0x15F8 DUP3 PUSH2 0x1591 JUMP JUMPDEST PUSH1 0x40 DUP3 ADD SWAP1 POP SWAP2 SWAP1 POP JUMP JUMPDEST PUSH1 0x0 PUSH1 0x20 DUP3 ADD SWAP1 POP DUP2 DUP2 SUB PUSH1 0x0 DUP4 ADD MSTORE PUSH2 0x161C DUP2 PUSH2 0x15E0 JUMP JUMPDEST SWAP1 POP SWAP2 SWAP1 POP JUMP JUMPDEST PUSH32 0x4E487B7100000000000000000000000000000000000000000000000000000000 PUSH1 0x0 MSTORE PUSH1 0x22 PUSH1 0x4 MSTORE PUSH1 0x24 PUSH1 0x0 REVERT JUMPDEST PUSH1 0x0 PUSH1 0x2 DUP3 DIV SWAP1 POP PUSH1 0x1 DUP3 AND DUP1 PUSH2 0x166A JUMPI PUSH1 0x7F DUP3 AND SWAP2 POP JUMPDEST PUSH1 0x20 DUP3 LT DUP2 SUB PUSH2 0x167D JUMPI PUSH2 0x167C PUSH2 0x1623 JUMP JUMPDEST JUMPDEST POP SWAP2 SWAP1 POP JUMP JUMPDEST PUSH1 0x0 DUP2 SWAP1 POP DUP2 PUSH1 0x0 MSTORE PUSH1 0x20 PUSH1 0x0 KECCAK256 SWAP1 POP SWAP2 SWAP1 POP JUMP JUMPDEST PUSH1 0x0 PUSH1 0x20 PUSH1 0x1F DUP4 ADD DIV SWAP1 POP SWAP2 SWAP1 POP JUMP JUMPDEST PUSH1 0x0 DUP3 DUP3 SHL SWAP1 POP SWAP3 SWAP2 POP POP JUMP JUMPDEST PUSH1 0x0 PUSH1 0x8 DUP4 MUL PUSH2 0x16E5 PUSH32 0xFFFFFFFFFFFFFFFFFFFFFFFFFFFFFFFFFFFFFFFFFFFFFFFFFFFFFFFFFFFFFFFF DUP3 PUSH2 0x16A8 JUMP JUMPDEST PUSH2 0x16EF DUP7 DUP4 PUSH2 0x16A8 JUMP JUMPDEST SWAP6 POP DUP1 NOT DUP5 AND SWAP4 POP DUP1 DUP7 AND DUP5 OR SWAP3 POP POP POP SWAP4 SWAP3 POP POP POP JUMP JUMPDEST PUSH1 0x0 DUP2 SWAP1 POP SWAP2 SWAP1 POP JUMP JUMPDEST PUSH1 0x0 PUSH2 0x172C PUSH2 0x1727 PUSH2 0x1722 DUP5 PUSH2 0x1112 JUMP JUMPDEST PUSH2 0x1707 JUMP JUMPDEST PUSH2 0x1112 JUMP JUMPDEST SWAP1 POP SWAP2 SWAP1 POP JUMP JUMPDEST PUSH1 0x0 DUP2 SWAP1 POP SWAP2 SWAP1 POP JUMP JUMPDEST PUSH2 0x1746 DUP4 PUSH2 0x1711 JUMP JUMPDEST PUSH2 0x175A PUSH2 0x1752 DUP3 PUSH2 0x1733 JUMP JUMPDEST DUP5 DUP5 SLOAD PUSH2 0x16B5 JUMP JUMPDEST DUP3 SSTORE POP POP POP POP JUMP JUMPDEST PUSH1 0x0 SWAP1 JUMP JUMPDEST PUSH2 0x176F PUSH2 0x1762 JUMP JUMPDEST PUSH2 0x177A DUP2 DUP5 DUP5 PUSH2 0x173D JUMP JUMPDEST POP POP POP JUMP JUMPDEST JUMPDEST DUP2 DUP2 LT ISZERO PUSH2 0x179E JUMPI PUSH2 0x1793 PUSH1 0x0 DUP3 PUSH2 0x1767 JUMP JUMPDEST PUSH1 0x1 DUP2 ADD SWAP1 POP PUSH2 0x1780 JUMP JUMPDEST POP POP JUMP JUMPDEST PUSH1 0x1F DUP3 GT ISZERO PUSH2 0x17E3 JUMPI PUSH2 0x17B4 DUP2 PUSH2 0x1683 JUMP JUMPDEST PUSH2 0x17BD DUP5 PUSH2 0x1698 JUMP JUMPDEST DUP2 ADD PUSH1 0x20 DUP6 LT ISZERO PUSH2 0x17CC JUMPI DUP2 SWAP1 POP JUMPDEST PUSH2 0x17E0 PUSH2 0x17D8 DUP6 PUSH2 0x1698 JUMP JUMPDEST DUP4 ADD DUP3 PUSH2 0x177F JUMP JUMPDEST POP POP JUMPDEST POP POP POP JUMP JUMPDEST PUSH1 0x0 DUP3 DUP3 SHR SWAP1 POP SWAP3 SWAP2 POP POP JUMP JUMPDEST PUSH1 0x0 PUSH2 0x1806 PUSH1 0x0 NOT DUP5 PUSH1 0x8 MUL PUSH2 0x17E8 JUMP JUMPDEST NOT DUP1 DUP4 AND SWAP2 POP POP SWAP3 SWAP2 POP POP JUMP JUMPDEST PUSH1 0x0 PUSH2 0x181F DUP4 DUP4 PUSH2 0x17F5 JUMP JUMPDEST SWAP2 POP DUP3 PUSH1 0x2 MUL DUP3 OR SWAP1 POP SWAP3 SWAP2 POP POP JUMP JUMPDEST PUSH2 0x1838 DUP3 PUSH2 0x1015 JUMP JUMPDEST PUSH8 0xFFFFFFFFFFFFFFFF DUP2 GT ISZERO PUSH2 0x1851 JUMPI PUSH2 0x1850 PUSH2 0xE72 JUMP JUMPDEST JUMPDEST PUSH2 0x185B DUP3 SLOAD PUSH2 0x1652 JUMP JUMPDEST PUSH2 0x1866 DUP3 DUP3 DUP6 PUSH2 0x17A2 JUMP JUMPDEST PUSH1 0x0 PUSH1 0x20 SWAP1 POP PUSH1 0x1F DUP4 GT PUSH1 0x1 DUP2 EQ PUSH2 0x1899 JUMPI PUSH1 0x0 DUP5 ISZERO PUSH2 0x1887 JUMPI DUP3 DUP8 ADD MLOAD SWAP1 POP JUMPDEST PUSH2 0x1891 DUP6 DUP3 PUSH2 0x1813 JUMP JUMPDEST DUP7 SSTORE POP PUSH2 0x18F9 JUMP JUMPDEST PUSH1 0x1F NOT DUP5 AND PUSH2 0x18A7 DUP7 PUSH2 0x1683 JUMP JUMPDEST PUSH1 0x0 JUMPDEST DUP3 DUP2 LT ISZERO PUSH2 0x18CF JUMPI DUP5 DUP10 ADD MLOAD DUP3 SSTORE PUSH1 0x1 DUP3 ADD SWAP2 POP PUSH1 0x20 DUP6 ADD SWAP5 POP PUSH1 0x20 DUP2 ADD SWAP1 POP PUSH2 0x18AA JUMP JUMPDEST DUP7 DUP4 LT ISZERO PUSH2 0x18EC JUMPI DUP5 DUP10 ADD MLOAD PUSH2 0x18E8 PUSH1 0x1F DUP10 AND DUP3 PUSH2 0x17F5 JUMP JUMPDEST DUP4 SSTORE POP JUMPDEST PUSH1 0x1 PUSH1 0x2 DUP9 MUL ADD DUP9 SSTORE POP POP POP JUMPDEST POP POP POP POP POP POP JUMP JUMPDEST PUSH32 0x5468657265206973206120746965206F6E2042616C6C6F740000000000000000 PUSH1 0x0 DUP3 ADD MSTORE POP JUMP JUMPDEST PUSH1 0x0 PUSH2 0x1937 PUSH1 0x18 DUP4 PUSH2 0x1020 JUMP JUMPDEST SWAP2 POP PUSH2 0x1942 DUP3 PUSH2 0x1901 JUMP JUMPDEST PUSH1 0x20 DUP3 ADD SWAP1 POP SWAP2 SWAP1 POP JUMP JUMPDEST PUSH1 0x0 PUSH1 0x20 DUP3 ADD SWAP1 POP DUP2 DUP2 SUB PUSH1 0x0 DUP4 ADD MSTORE PUSH2 0x1966 DUP2 PUSH2 0x192A JUMP JUMPDEST SWAP1 POP SWAP2 SWAP1 POP JUMP JUMPDEST PUSH32 0x4E487B7100000000000000000000000000000000000000000000000000000000 PUSH1 0x0 MSTORE PUSH1 0x32 PUSH1 0x4 MSTORE PUSH1 0x24 PUSH1 0x0 REVERT JUMPDEST PUSH32 0x4F6E6C792074686520636F6E7472616374206F776E65722063616E2067697665 PUSH1 0x0 DUP3 ADD MSTORE PUSH32 0x20726967687420746F20766F74652E0000000000000000000000000000000000 PUSH1 0x20 DUP3 ADD MSTORE POP JUMP JUMPDEST PUSH1 0x0 PUSH2 0x19F8 PUSH1 0x2F DUP4 PUSH2 0x1020 JUMP JUMPDEST SWAP2 POP PUSH2 0x1A03 DUP3 PUSH2 0x199C JUMP JUMPDEST PUSH1 0x40 DUP3 ADD SWAP1 POP SWAP2 SWAP1 POP JUMP JUMPDEST PUSH1 0x0 PUSH1 0x20 DUP3 ADD SWAP1 POP DUP2 DUP2 SUB PUSH1 0x0 DUP4 ADD MSTORE PUSH2 0x1A27 DUP2 PUSH2 0x19EB JUMP JUMPDEST SWAP1 POP SWAP2 SWAP1 POP JUMP JUMPDEST PUSH32 0x4E487B7100000000000000000000000000000000000000000000000000000000 PUSH1 0x0 MSTORE PUSH1 0x11 PUSH1 0x4 MSTORE PUSH1 0x24 PUSH1 0x0 REVERT JUMPDEST PUSH1 0x0 PUSH2 0x1A68 DUP3 PUSH2 0x1112 JUMP JUMPDEST SWAP2 POP PUSH32 0xFFFFFFFFFFFFFFFFFFFFFFFFFFFFFFFFFFFFFFFFFFFFFFFFFFFFFFFFFFFFFFFF DUP3 SUB PUSH2 0x1A9A JUMPI PUSH2 0x1A99 PUSH2 0x1A2E JUMP JUMPDEST JUMPDEST PUSH1 0x1 DUP3 ADD SWAP1 POP SWAP2 SWAP1 POP JUMP JUMPDEST PUSH32 0x596F752068617665206E6F7420726967687420746F20766F7465000000000000 PUSH1 0x0 DUP3 ADD MSTORE POP JUMP JUMPDEST PUSH1 0x0 PUSH2 0x1ADB PUSH1 0x1A DUP4 PUSH2 0x1020 JUMP JUMPDEST SWAP2 POP PUSH2 0x1AE6 DUP3 PUSH2 0x1AA5 JUMP JUMPDEST PUSH1 0x20 DUP3 ADD SWAP1 POP SWAP2 SWAP1 POP JUMP JUMPDEST PUSH1 0x0 PUSH1 0x20 DUP3 ADD SWAP1 POP DUP2 DUP2 SUB PUSH1 0x0 DUP4 ADD MSTORE PUSH2 0x1B0A DUP2 PUSH2 0x1ACE JUMP JUMPDEST SWAP1 POP SWAP2 SWAP1 POP JUMP JUMPDEST PUSH32 0x566F74657220616C726561647920766F7465642E000000000000000000000000 PUSH1 0x0 DUP3 ADD MSTORE POP JUMP JUMPDEST PUSH1 0x0 PUSH2 0x1B47 PUSH1 0x14 DUP4 PUSH2 0x1020 JUMP JUMPDEST SWAP2 POP PUSH2 0x1B52 DUP3 PUSH2 0x1B11 JUMP JUMPDEST PUSH1 0x20 DUP3 ADD SWAP1 POP SWAP2 SWAP1 POP JUMP JUMPDEST PUSH1 0x0 PUSH1 0x20 DUP3 ADD SWAP1 POP DUP2 DUP2 SUB PUSH1 0x0 DUP4 ADD MSTORE PUSH2 0x1B76 DUP2 PUSH2 0x1B3A JUMP JUMPDEST SWAP1 POP SWAP2 SWAP1 POP JUMP INVALID LOG2 PUSH5 0x6970667358 0x22 SLT KECCAK256 0xC2 0xDB SWAP3 STATICCALL DELEGATECALL GAS 0xCC CREATE 0xE DUP13 BYTE 0x2C SMOD PUSH7 0xC0ABD29BBADBEE 0xD8 MSTORE BYTE SHL SWAP16 0xAF 0xCC PUSH12 0x287B6B64736F6C6343000811 STOP CALLER "
				},
				"gasEstimates": {
					"creation": {
						"codeDepositCost": "1418200",
						"executionCost": "infinite",
						"totalCost": "infinite"
					},
					"external": {
						"addCandidateAsStruct((string,string,uint256))": "infinite",
						"addCandidateWithSpreadParameters(string,string)": "infinite",
						"areYouContractOwner()": "2519",
						"areYouHaveRigthToVote()": "2661",
						"areYouVoted()": "2689",
						"candidates(uint256)": "infinite",
						"contractOwner()": "2600",
						"getCandidatesList()": "infinite",
						"getContractAddress()": "453",
						"getVoterRigthToVote(address)": "2978",
						"getVoterVoter(address)": "3005",
						"getWinnerName()": "infinite",
						"getWinningCandidate()": "infinite",
						"giveRightToVote(address)": "29447",
						"maxVotes()": "2496",
						"vote(string)": "infinite",
						"voters(address)": "infinite"
					},
					"internal": {
						"getVoterVotedRequire(address)": "infinite",
						"stringEqualTo(string memory,string memory)": "infinite"
					}
				},
				"methodIdentifiers": {
					"addCandidateAsStruct((string,string,uint256))": "954115f2",
					"addCandidateWithSpreadParameters(string,string)": "10508439",
					"areYouContractOwner()": "3ddf3822",
					"areYouHaveRigthToVote()": "df703622",
					"areYouVoted()": "da265430",
					"candidates(uint256)": "3477ee2e",
					"contractOwner()": "ce606ee0",
					"getCandidatesList()": "4aba5f34",
					"getContractAddress()": "32a2c5d0",
					"getVoterRigthToVote(address)": "94b04e7d",
					"getVoterVoter(address)": "f0ee4577",
					"getWinnerName()": "2bfda515",
					"getWinningCandidate()": "f927cc29",
					"giveRightToVote(address)": "9e7b8d61",
					"maxVotes()": "777c3acf",
					"vote(string)": "fc36e15b",
					"voters(address)": "a3ec138d"
				}
			},
			"storageLayout": {
				"storage": [
					{
						"astId": 15,
						"contract": "contracts/Ballot/Ballot.sol:MyBallot",
						"label": "contractOwner",
						"offset": 0,
						"slot": "0",
						"type": "t_address"
					},
					{
						"astId": 20,
						"contract": "contracts/Ballot/Ballot.sol:MyBallot",
						"label": "voters",
						"offset": 0,
						"slot": "1",
						"type": "t_mapping(t_address,t_struct(Voter)6_storage)"
					},
					{
						"astId": 24,
						"contract": "contracts/Ballot/Ballot.sol:MyBallot",
						"label": "candidates",
						"offset": 0,
						"slot": "2",
						"type": "t_array(t_struct(Candidate)13_storage)dyn_storage"
					},
					{
						"astId": 26,
						"contract": "contracts/Ballot/Ballot.sol:MyBallot",
						"label": "maxVotes",
						"offset": 0,
						"slot": "3",
						"type": "t_uint256"
					}
				],
				"types": {
					"t_address": {
						"encoding": "inplace",
						"label": "address",
						"numberOfBytes": "20"
					},
					"t_array(t_struct(Candidate)13_storage)dyn_storage": {
						"base": "t_struct(Candidate)13_storage",
						"encoding": "dynamic_array",
						"label": "struct MyBallot.Candidate[]",
						"numberOfBytes": "32"
					},
					"t_bool": {
						"encoding": "inplace",
						"label": "bool",
						"numberOfBytes": "1"
					},
					"t_mapping(t_address,t_struct(Voter)6_storage)": {
						"encoding": "mapping",
						"key": "t_address",
						"label": "mapping(address => struct MyBallot.Voter)",
						"numberOfBytes": "32",
						"value": "t_struct(Voter)6_storage"
					},
					"t_string_storage": {
						"encoding": "bytes",
						"label": "string",
						"numberOfBytes": "32"
					},
					"t_struct(Candidate)13_storage": {
						"encoding": "inplace",
						"label": "struct MyBallot.Candidate",
						"members": [
							{
								"astId": 8,
								"contract": "contracts/Ballot/Ballot.sol:MyBallot",
								"label": "name",
								"offset": 0,
								"slot": "0",
								"type": "t_string_storage"
							},
							{
								"astId": 10,
								"contract": "contracts/Ballot/Ballot.sol:MyBallot",
								"label": "party",
								"offset": 0,
								"slot": "1",
								"type": "t_string_storage"
							},
							{
								"astId": 12,
								"contract": "contracts/Ballot/Ballot.sol:MyBallot",
								"label": "votesCount",
								"offset": 0,
								"slot": "2",
								"type": "t_uint256"
							}
						],
						"numberOfBytes": "96"
					},
					"t_struct(Voter)6_storage": {
						"encoding": "inplace",
						"label": "struct MyBallot.Voter",
						"members": [
							{
								"astId": 3,
								"contract": "contracts/Ballot/Ballot.sol:MyBallot",
								"label": "canVote",
								"offset": 0,
								"slot": "0",
								"type": "t_bool"
							},
							{
								"astId": 5,
								"contract": "contracts/Ballot/Ballot.sol:MyBallot",
								"label": "hasVoted",
								"offset": 1,
								"slot": "0",
								"type": "t_bool"
							}
						],
						"numberOfBytes": "32"
					},
					"t_uint256": {
						"encoding": "inplace",
						"label": "uint256",
						"numberOfBytes": "32"
					}
				}
			},
			"userdoc": {
				"kind": "user",
				"methods": {},
				"version": 1
			}
		}
	}
}