{
	"contracts/Ballot/Ballot.sol": {
		"MyBallot": {
			"abi": [
				{
					"inputs": [
						{
							"components": [
								{
									"internalType": "string",
									"name": "name",
									"type": "string"
								},
								{
									"internalType": "string",
									"name": "party",
									"type": "string"
								},
								{
									"internalType": "uint256",
									"name": "votesCount",
									"type": "uint256"
								}
							],
							"internalType": "struct MyBallot.Candidate[]",
							"name": "_candidates",
							"type": "tuple[]"
						},
						{
							"internalType": "uint256",
							"name": "_maxVotes",
							"type": "uint256"
						}
					],
					"stateMutability": "nonpayable",
					"type": "constructor"
				},
				{
					"inputs": [],
					"name": "areYouContractOwner",
					"outputs": [
						{
							"internalType": "bool",
							"name": "",
							"type": "bool"
						}
					],
					"stateMutability": "view",
					"type": "function"
				},
				{
					"inputs": [],
					"name": "areYouHaveRigthToVote",
					"outputs": [
						{
							"internalType": "bool",
							"name": "",
							"type": "bool"
						}
					],
					"stateMutability": "view",
					"type": "function"
				},
				{
					"inputs": [],
					"name": "areYouVoted",
					"outputs": [
						{
							"internalType": "bool",
							"name": "",
							"type": "bool"
						}
					],
					"stateMutability": "view",
					"type": "function"
				},
				{
					"inputs": [],
					"name": "calculateAmountOfTotalVotes",
					"outputs": [
						{
							"internalType": "uint256",
							"name": "total",
							"type": "uint256"
						}
					],
					"stateMutability": "view",
					"type": "function"
				},
				{
					"inputs": [
						{
							"internalType": "uint256",
							"name": "",
							"type": "uint256"
						}
					],
					"name": "candidates",
					"outputs": [
						{
							"internalType": "string",
							"name": "name",
							"type": "string"
						},
						{
							"internalType": "string",
							"name": "party",
							"type": "string"
						},
						{
							"internalType": "uint256",
							"name": "votesCount",
							"type": "uint256"
						}
					],
					"stateMutability": "view",
					"type": "function"
				},
				{
					"inputs": [],
					"name": "contractOwner",
					"outputs": [
						{
							"internalType": "address",
							"name": "",
							"type": "address"
						}
					],
					"stateMutability": "view",
					"type": "function"
				},
				{
					"inputs": [],
					"name": "getCandidatesList",
					"outputs": [
						{
							"components": [
								{
									"internalType": "string",
									"name": "name",
									"type": "string"
								},
								{
									"internalType": "string",
									"name": "party",
									"type": "string"
								},
								{
									"internalType": "uint256",
									"name": "votesCount",
									"type": "uint256"
								}
							],
							"internalType": "struct MyBallot.Candidate[]",
							"name": "",
							"type": "tuple[]"
						}
					],
					"stateMutability": "view",
					"type": "function"
				},
				{
					"inputs": [],
					"name": "getContractAddress",
					"outputs": [
						{
							"internalType": "address",
							"name": "",
							"type": "address"
						}
					],
					"stateMutability": "view",
					"type": "function"
				},
				{
					"inputs": [
						{
							"internalType": "address",
							"name": "voterAddress",
							"type": "address"
						}
					],
					"name": "getVoterRigthToVote",
					"outputs": [
						{
							"internalType": "bool",
							"name": "",
							"type": "bool"
						}
					],
					"stateMutability": "view",
					"type": "function"
				},
				{
					"inputs": [
						{
							"internalType": "address",
							"name": "voterAddress",
							"type": "address"
						}
					],
					"name": "getVoterVoter",
					"outputs": [
						{
							"internalType": "bool",
							"name": "",
							"type": "bool"
						}
					],
					"stateMutability": "view",
					"type": "function"
				},
				{
					"inputs": [],
					"name": "getWinnerName",
					"outputs": [
						{
							"internalType": "string",
							"name": "winnerName",
							"type": "string"
						}
					],
					"stateMutability": "view",
					"type": "function"
				},
				{
					"inputs": [],
					"name": "getWinningCandidate",
					"outputs": [
						{
							"internalType": "uint256",
							"name": "winningProposal",
							"type": "uint256"
						},
						{
							"internalType": "bool",
							"name": "isTie",
							"type": "bool"
						}
					],
					"stateMutability": "view",
					"type": "function"
				},
				{
					"inputs": [
						{
							"internalType": "address",
							"name": "voterAddress",
							"type": "address"
						}
					],
					"name": "giveRightToVote",
					"outputs": [],
					"stateMutability": "nonpayable",
					"type": "function"
				},
				{
					"inputs": [
						{
							"internalType": "string",
							"name": "name",
							"type": "string"
						}
					],
					"name": "vote",
					"outputs": [],
					"stateMutability": "nonpayable",
					"type": "function"
				},
				{
					"inputs": [
						{
							"internalType": "address",
							"name": "",
							"type": "address"
						}
					],
					"name": "voters",
					"outputs": [
						{
							"internalType": "bool",
							"name": "canVote",
							"type": "bool"
						},
						{
							"internalType": "bool",
							"name": "hasVoted",
							"type": "bool"
						}
					],
					"stateMutability": "view",
					"type": "function"
				}
			],
			"devdoc": {
				"kind": "dev",
				"methods": {},
				"version": 1
			},
			"evm": {
				"assembly": "    /* \"contracts/Ballot/Ballot.sol\":70:4865  contract MyBallot {... */\n  mstore(0x40, 0x80)\n    /* \"contracts/Ballot/Ballot.sol\":491:909  constructor(Candidate[] memory _candidates, uint _maxVotes) {... */\n  callvalue\n  dup1\n  iszero\n  tag_1\n  jumpi\n  0x00\n  dup1\n  revert\ntag_1:\n  pop\n  mload(0x40)\n  sub(codesize, bytecodeSize)\n  dup1\n  bytecodeSize\n  dup4\n  codecopy\n  dup2\n  dup2\n  add\n  0x40\n  mstore\n  dup2\n  add\n  swap1\n  tag_2\n  swap2\n  swap1\n  tag_3\n  jump\t// in\ntag_2:\n    /* \"contracts/Ballot/Ballot.sol\":588:598  msg.sender */\n  caller\n    /* \"contracts/Ballot/Ballot.sol\":572:585  contractOwner */\n  0x00\n  dup1\n    /* \"contracts/Ballot/Ballot.sol\":572:598  contractOwner = msg.sender */\n  0x0100\n  exp\n  dup2\n  sload\n  dup2\n  0xffffffffffffffffffffffffffffffffffffffff\n  mul\n  not\n  and\n  swap1\n  dup4\n  0xffffffffffffffffffffffffffffffffffffffff\n  and\n  mul\n  or\n  swap1\n  sstore\n  pop\n    /* \"contracts/Ballot/Ballot.sol\":616:626  uint index */\n  0x00\n    /* \"contracts/Ballot/Ballot.sol\":611:869  for (uint index = 0; index < _candidates.length; index++) {... */\ntag_6:\n    /* \"contracts/Ballot/Ballot.sol\":640:651  _candidates */\n  dup3\n    /* \"contracts/Ballot/Ballot.sol\":640:658  _candidates.length */\n  mload\n    /* \"contracts/Ballot/Ballot.sol\":632:637  index */\n  dup2\n    /* \"contracts/Ballot/Ballot.sol\":632:658  index < _candidates.length */\n  lt\n    /* \"contracts/Ballot/Ballot.sol\":611:869  for (uint index = 0; index < _candidates.length; index++) {... */\n  iszero\n  tag_7\n  jumpi\n    /* \"contracts/Ballot/Ballot.sol\":684:694  candidates */\n  0x02\n    /* \"contracts/Ballot/Ballot.sol\":700:856  Candidate({... */\n  mload(0x40)\n  dup1\n  0x60\n  add\n  0x40\n  mstore\n  dup1\n    /* \"contracts/Ballot/Ballot.sol\":735:746  _candidates */\n  dup6\n    /* \"contracts/Ballot/Ballot.sol\":747:752  index */\n  dup5\n    /* \"contracts/Ballot/Ballot.sol\":735:753  _candidates[index] */\n  dup2\n  mload\n  dup2\n  lt\n  tag_9\n  jumpi\n  tag_10\n  tag_11\n  jump\t// in\ntag_10:\ntag_9:\n  0x20\n  mul\n  0x20\n  add\n  add\n  mload\n    /* \"contracts/Ballot/Ballot.sol\":735:758  _candidates[index].name */\n  0x00\n  add\n  mload\n    /* \"contracts/Ballot/Ballot.sol\":700:856  Candidate({... */\n  dup2\n  mstore\n  0x20\n  add\n    /* \"contracts/Ballot/Ballot.sol\":784:795  _candidates */\n  dup6\n    /* \"contracts/Ballot/Ballot.sol\":796:801  index */\n  dup5\n    /* \"contracts/Ballot/Ballot.sol\":784:802  _candidates[index] */\n  dup2\n  mload\n  dup2\n  lt\n  tag_12\n  jumpi\n  tag_13\n  tag_11\n  jump\t// in\ntag_13:\ntag_12:\n  0x20\n  mul\n  0x20\n  add\n  add\n  mload\n    /* \"contracts/Ballot/Ballot.sol\":784:808  _candidates[index].party */\n  0x20\n  add\n  mload\n    /* \"contracts/Ballot/Ballot.sol\":700:856  Candidate({... */\n  dup2\n  mstore\n  0x20\n  add\n    /* \"contracts/Ballot/Ballot.sol\":839:840  0 */\n  0x00\n    /* \"contracts/Ballot/Ballot.sol\":700:856  Candidate({... */\n  dup2\n  mstore\n  pop\n    /* \"contracts/Ballot/Ballot.sol\":684:857  candidates.push(Candidate({... */\n  swap1\n  dup1\n  0x01\n  dup2\n  sload\n  add\n  dup1\n  dup3\n  sstore\n  dup1\n  swap2\n  pop\n  pop\n  0x01\n  swap1\n  sub\n  swap1\n  0x00\n  mstore\n  keccak256(0x00, 0x20)\n  swap1\n  0x03\n  mul\n  add\n  0x00\n  swap1\n  swap2\n  swap1\n  swap2\n  swap1\n  swap2\n  pop\n  0x00\n  dup3\n  add\n  mload\n  dup2\n  0x00\n  add\n  swap1\n  dup2\n  tag_15\n  swap2\n  swap1\n  tag_16\n  jump\t// in\ntag_15:\n  pop\n  0x20\n  dup3\n  add\n  mload\n  dup2\n  0x01\n  add\n  swap1\n  dup2\n  tag_17\n  swap2\n  swap1\n  tag_16\n  jump\t// in\ntag_17:\n  pop\n  0x40\n  dup3\n  add\n  mload\n  dup2\n  0x02\n  add\n  sstore\n  pop\n  pop\n    /* \"contracts/Ballot/Ballot.sol\":660:667  index++ */\n  dup1\n  dup1\n  tag_18\n  swap1\n  tag_19\n  jump\t// in\ntag_18:\n  swap2\n  pop\n  pop\n    /* \"contracts/Ballot/Ballot.sol\":611:869  for (uint index = 0; index < _candidates.length; index++) {... */\n  jump(tag_6)\ntag_7:\n  pop\n    /* \"contracts/Ballot/Ballot.sol\":892:901  _maxVotes */\n  dup1\n    /* \"contracts/Ballot/Ballot.sol\":881:889  maxVotes */\n  0x04\n    /* \"contracts/Ballot/Ballot.sol\":881:901  maxVotes = _maxVotes */\n  dup2\n  swap1\n  sstore\n  pop\n    /* \"contracts/Ballot/Ballot.sol\":491:909  constructor(Candidate[] memory _candidates, uint _maxVotes) {... */\n  pop\n  pop\n    /* \"contracts/Ballot/Ballot.sol\":70:4865  contract MyBallot {... */\n  jump(tag_20)\n    /* \"#utility.yul\":7:82   */\ntag_21:\n    /* \"#utility.yul\":40:46   */\n  0x00\n    /* \"#utility.yul\":73:75   */\n  0x40\n    /* \"#utility.yul\":67:76   */\n  mload\n    /* \"#utility.yul\":57:76   */\n  swap1\n  pop\n    /* \"#utility.yul\":7:82   */\n  swap1\n  jump\t// out\n    /* \"#utility.yul\":88:205   */\ntag_22:\n    /* \"#utility.yul\":197:198   */\n  0x00\n    /* \"#utility.yul\":194:195   */\n  dup1\n    /* \"#utility.yul\":187:199   */\n  revert\n    /* \"#utility.yul\":211:328   */\ntag_23:\n    /* \"#utility.yul\":320:321   */\n  0x00\n    /* \"#utility.yul\":317:318   */\n  dup1\n    /* \"#utility.yul\":310:322   */\n  revert\n    /* \"#utility.yul\":334:451   */\ntag_24:\n    /* \"#utility.yul\":443:444   */\n  0x00\n    /* \"#utility.yul\":440:441   */\n  dup1\n    /* \"#utility.yul\":433:445   */\n  revert\n    /* \"#utility.yul\":457:559   */\ntag_25:\n    /* \"#utility.yul\":498:504   */\n  0x00\n    /* \"#utility.yul\":549:551   */\n  0x1f\n    /* \"#utility.yul\":545:552   */\n  not\n    /* \"#utility.yul\":540:542   */\n  0x1f\n    /* \"#utility.yul\":533:538   */\n  dup4\n    /* \"#utility.yul\":529:543   */\n  add\n    /* \"#utility.yul\":525:553   */\n  and\n    /* \"#utility.yul\":515:553   */\n  swap1\n  pop\n    /* \"#utility.yul\":457:559   */\n  swap2\n  swap1\n  pop\n  jump\t// out\n    /* \"#utility.yul\":565:745   */\ntag_26:\n    /* \"#utility.yul\":613:690   */\n  0x4e487b7100000000000000000000000000000000000000000000000000000000\n    /* \"#utility.yul\":610:611   */\n  0x00\n    /* \"#utility.yul\":603:691   */\n  mstore\n    /* \"#utility.yul\":710:714   */\n  0x41\n    /* \"#utility.yul\":707:708   */\n  0x04\n    /* \"#utility.yul\":700:715   */\n  mstore\n    /* \"#utility.yul\":734:738   */\n  0x24\n    /* \"#utility.yul\":731:732   */\n  0x00\n    /* \"#utility.yul\":724:739   */\n  revert\n    /* \"#utility.yul\":751:1032   */\ntag_27:\n    /* \"#utility.yul\":834:861   */\n  tag_71\n    /* \"#utility.yul\":856:860   */\n  dup3\n    /* \"#utility.yul\":834:861   */\n  tag_25\n  jump\t// in\ntag_71:\n    /* \"#utility.yul\":826:832   */\n  dup2\n    /* \"#utility.yul\":822:862   */\n  add\n    /* \"#utility.yul\":964:970   */\n  dup2\n    /* \"#utility.yul\":952:962   */\n  dup2\n    /* \"#utility.yul\":949:971   */\n  lt\n    /* \"#utility.yul\":928:946   */\n  0xffffffffffffffff\n    /* \"#utility.yul\":916:926   */\n  dup3\n    /* \"#utility.yul\":913:947   */\n  gt\n    /* \"#utility.yul\":910:972   */\n  or\n    /* \"#utility.yul\":907:995   */\n  iszero\n  tag_72\n  jumpi\n    /* \"#utility.yul\":975:993   */\n  tag_73\n  tag_26\n  jump\t// in\ntag_73:\n    /* \"#utility.yul\":907:995   */\ntag_72:\n    /* \"#utility.yul\":1015:1025   */\n  dup1\n    /* \"#utility.yul\":1011:1013   */\n  0x40\n    /* \"#utility.yul\":1004:1026   */\n  mstore\n    /* \"#utility.yul\":794:1032   */\n  pop\n    /* \"#utility.yul\":751:1032   */\n  pop\n  pop\n  jump\t// out\n    /* \"#utility.yul\":1038:1167   */\ntag_28:\n    /* \"#utility.yul\":1072:1078   */\n  0x00\n    /* \"#utility.yul\":1099:1119   */\n  tag_75\n  tag_21\n  jump\t// in\ntag_75:\n    /* \"#utility.yul\":1089:1119   */\n  swap1\n  pop\n    /* \"#utility.yul\":1128:1161   */\n  tag_76\n    /* \"#utility.yul\":1156:1160   */\n  dup3\n    /* \"#utility.yul\":1148:1154   */\n  dup3\n    /* \"#utility.yul\":1128:1161   */\n  tag_27\n  jump\t// in\ntag_76:\n    /* \"#utility.yul\":1038:1167   */\n  swap2\n  swap1\n  pop\n  jump\t// out\n    /* \"#utility.yul\":1173:1509   */\ntag_29:\n    /* \"#utility.yul\":1275:1279   */\n  0x00\n    /* \"#utility.yul\":1365:1383   */\n  0xffffffffffffffff\n    /* \"#utility.yul\":1357:1363   */\n  dup3\n    /* \"#utility.yul\":1354:1384   */\n  gt\n    /* \"#utility.yul\":1351:1407   */\n  iszero\n  tag_78\n  jumpi\n    /* \"#utility.yul\":1387:1405   */\n  tag_79\n  tag_26\n  jump\t// in\ntag_79:\n    /* \"#utility.yul\":1351:1407   */\ntag_78:\n    /* \"#utility.yul\":1437:1441   */\n  0x20\n    /* \"#utility.yul\":1429:1435   */\n  dup3\n    /* \"#utility.yul\":1425:1442   */\n  mul\n    /* \"#utility.yul\":1417:1442   */\n  swap1\n  pop\n    /* \"#utility.yul\":1497:1501   */\n  0x20\n    /* \"#utility.yul\":1491:1495   */\n  dup2\n    /* \"#utility.yul\":1487:1502   */\n  add\n    /* \"#utility.yul\":1479:1502   */\n  swap1\n  pop\n    /* \"#utility.yul\":1173:1509   */\n  swap2\n  swap1\n  pop\n  jump\t// out\n    /* \"#utility.yul\":1515:1632   */\ntag_30:\n    /* \"#utility.yul\":1624:1625   */\n  0x00\n    /* \"#utility.yul\":1621:1622   */\n  dup1\n    /* \"#utility.yul\":1614:1626   */\n  revert\n    /* \"#utility.yul\":1638:1755   */\ntag_31:\n    /* \"#utility.yul\":1747:1748   */\n  0x00\n    /* \"#utility.yul\":1744:1745   */\n  dup1\n    /* \"#utility.yul\":1737:1749   */\n  revert\n    /* \"#utility.yul\":1761:1878   */\ntag_32:\n    /* \"#utility.yul\":1870:1871   */\n  0x00\n    /* \"#utility.yul\":1867:1868   */\n  dup1\n    /* \"#utility.yul\":1860:1872   */\n  revert\n    /* \"#utility.yul\":1884:2001   */\ntag_33:\n    /* \"#utility.yul\":1993:1994   */\n  0x00\n    /* \"#utility.yul\":1990:1991   */\n  dup1\n    /* \"#utility.yul\":1983:1995   */\n  revert\n    /* \"#utility.yul\":2007:2315   */\ntag_34:\n    /* \"#utility.yul\":2069:2073   */\n  0x00\n    /* \"#utility.yul\":2159:2177   */\n  0xffffffffffffffff\n    /* \"#utility.yul\":2151:2157   */\n  dup3\n    /* \"#utility.yul\":2148:2178   */\n  gt\n    /* \"#utility.yul\":2145:2201   */\n  iszero\n  tag_85\n  jumpi\n    /* \"#utility.yul\":2181:2199   */\n  tag_86\n  tag_26\n  jump\t// in\ntag_86:\n    /* \"#utility.yul\":2145:2201   */\ntag_85:\n    /* \"#utility.yul\":2219:2248   */\n  tag_87\n    /* \"#utility.yul\":2241:2247   */\n  dup3\n    /* \"#utility.yul\":2219:2248   */\n  tag_25\n  jump\t// in\ntag_87:\n    /* \"#utility.yul\":2211:2248   */\n  swap1\n  pop\n    /* \"#utility.yul\":2303:2307   */\n  0x20\n    /* \"#utility.yul\":2297:2301   */\n  dup2\n    /* \"#utility.yul\":2293:2308   */\n  add\n    /* \"#utility.yul\":2285:2308   */\n  swap1\n  pop\n    /* \"#utility.yul\":2007:2315   */\n  swap2\n  swap1\n  pop\n  jump\t// out\n    /* \"#utility.yul\":2321:2567   */\ntag_35:\n    /* \"#utility.yul\":2402:2403   */\n  0x00\n    /* \"#utility.yul\":2412:2525   */\ntag_89:\n    /* \"#utility.yul\":2426:2432   */\n  dup4\n    /* \"#utility.yul\":2423:2424   */\n  dup2\n    /* \"#utility.yul\":2420:2433   */\n  lt\n    /* \"#utility.yul\":2412:2525   */\n  iszero\n  tag_91\n  jumpi\n    /* \"#utility.yul\":2511:2512   */\n  dup1\n    /* \"#utility.yul\":2506:2509   */\n  dup3\n    /* \"#utility.yul\":2502:2513   */\n  add\n    /* \"#utility.yul\":2496:2514   */\n  mload\n    /* \"#utility.yul\":2492:2493   */\n  dup2\n    /* \"#utility.yul\":2487:2490   */\n  dup5\n    /* \"#utility.yul\":2483:2494   */\n  add\n    /* \"#utility.yul\":2476:2515   */\n  mstore\n    /* \"#utility.yul\":2448:2450   */\n  0x20\n    /* \"#utility.yul\":2445:2446   */\n  dup2\n    /* \"#utility.yul\":2441:2451   */\n  add\n    /* \"#utility.yul\":2436:2451   */\n  swap1\n  pop\n    /* \"#utility.yul\":2412:2525   */\n  jump(tag_89)\ntag_91:\n    /* \"#utility.yul\":2559:2560   */\n  0x00\n    /* \"#utility.yul\":2550:2556   */\n  dup5\n    /* \"#utility.yul\":2545:2548   */\n  dup5\n    /* \"#utility.yul\":2541:2557   */\n  add\n    /* \"#utility.yul\":2534:2561   */\n  mstore\n    /* \"#utility.yul\":2383:2567   */\n  pop\n    /* \"#utility.yul\":2321:2567   */\n  pop\n  pop\n  pop\n  jump\t// out\n    /* \"#utility.yul\":2573:3007   */\ntag_36:\n    /* \"#utility.yul\":2662:2667   */\n  0x00\n    /* \"#utility.yul\":2687:2753   */\n  tag_93\n    /* \"#utility.yul\":2703:2752   */\n  tag_94\n    /* \"#utility.yul\":2745:2751   */\n  dup5\n    /* \"#utility.yul\":2703:2752   */\n  tag_34\n  jump\t// in\ntag_94:\n    /* \"#utility.yul\":2687:2753   */\n  tag_28\n  jump\t// in\ntag_93:\n    /* \"#utility.yul\":2678:2753   */\n  swap1\n  pop\n    /* \"#utility.yul\":2776:2782   */\n  dup3\n    /* \"#utility.yul\":2769:2774   */\n  dup2\n    /* \"#utility.yul\":2762:2783   */\n  mstore\n    /* \"#utility.yul\":2814:2818   */\n  0x20\n    /* \"#utility.yul\":2807:2812   */\n  dup2\n    /* \"#utility.yul\":2803:2819   */\n  add\n    /* \"#utility.yul\":2852:2855   */\n  dup5\n    /* \"#utility.yul\":2843:2849   */\n  dup5\n    /* \"#utility.yul\":2838:2841   */\n  dup5\n    /* \"#utility.yul\":2834:2850   */\n  add\n    /* \"#utility.yul\":2831:2856   */\n  gt\n    /* \"#utility.yul\":2828:2940   */\n  iszero\n  tag_95\n  jumpi\n    /* \"#utility.yul\":2859:2938   */\n  tag_96\n  tag_33\n  jump\t// in\ntag_96:\n    /* \"#utility.yul\":2828:2940   */\ntag_95:\n    /* \"#utility.yul\":2949:3001   */\n  tag_97\n    /* \"#utility.yul\":2994:3000   */\n  dup5\n    /* \"#utility.yul\":2989:2992   */\n  dup3\n    /* \"#utility.yul\":2984:2987   */\n  dup6\n    /* \"#utility.yul\":2949:3001   */\n  tag_35\n  jump\t// in\ntag_97:\n    /* \"#utility.yul\":2668:3007   */\n  pop\n    /* \"#utility.yul\":2573:3007   */\n  swap4\n  swap3\n  pop\n  pop\n  pop\n  jump\t// out\n    /* \"#utility.yul\":3027:3382   */\ntag_37:\n    /* \"#utility.yul\":3094:3099   */\n  0x00\n    /* \"#utility.yul\":3143:3146   */\n  dup3\n    /* \"#utility.yul\":3136:3140   */\n  0x1f\n    /* \"#utility.yul\":3128:3134   */\n  dup4\n    /* \"#utility.yul\":3124:3141   */\n  add\n    /* \"#utility.yul\":3120:3147   */\n  slt\n    /* \"#utility.yul\":3110:3232   */\n  tag_99\n  jumpi\n    /* \"#utility.yul\":3151:3230   */\n  tag_100\n  tag_24\n  jump\t// in\ntag_100:\n    /* \"#utility.yul\":3110:3232   */\ntag_99:\n    /* \"#utility.yul\":3261:3267   */\n  dup2\n    /* \"#utility.yul\":3255:3268   */\n  mload\n    /* \"#utility.yul\":3286:3376   */\n  tag_101\n    /* \"#utility.yul\":3372:3375   */\n  dup5\n    /* \"#utility.yul\":3364:3370   */\n  dup3\n    /* \"#utility.yul\":3357:3361   */\n  0x20\n    /* \"#utility.yul\":3349:3355   */\n  dup7\n    /* \"#utility.yul\":3345:3362   */\n  add\n    /* \"#utility.yul\":3286:3376   */\n  tag_36\n  jump\t// in\ntag_101:\n    /* \"#utility.yul\":3277:3376   */\n  swap2\n  pop\n    /* \"#utility.yul\":3100:3382   */\n  pop\n    /* \"#utility.yul\":3027:3382   */\n  swap3\n  swap2\n  pop\n  pop\n  jump\t// out\n    /* \"#utility.yul\":3388:3465   */\ntag_38:\n    /* \"#utility.yul\":3425:3432   */\n  0x00\n    /* \"#utility.yul\":3454:3459   */\n  dup2\n    /* \"#utility.yul\":3443:3459   */\n  swap1\n  pop\n    /* \"#utility.yul\":3388:3465   */\n  swap2\n  swap1\n  pop\n  jump\t// out\n    /* \"#utility.yul\":3471:3593   */\ntag_39:\n    /* \"#utility.yul\":3544:3568   */\n  tag_104\n    /* \"#utility.yul\":3562:3567   */\n  dup2\n    /* \"#utility.yul\":3544:3568   */\n  tag_38\n  jump\t// in\ntag_104:\n    /* \"#utility.yul\":3537:3542   */\n  dup2\n    /* \"#utility.yul\":3534:3569   */\n  eq\n    /* \"#utility.yul\":3524:3587   */\n  tag_105\n  jumpi\n    /* \"#utility.yul\":3583:3584   */\n  0x00\n    /* \"#utility.yul\":3580:3581   */\n  dup1\n    /* \"#utility.yul\":3573:3585   */\n  revert\n    /* \"#utility.yul\":3524:3587   */\ntag_105:\n    /* \"#utility.yul\":3471:3593   */\n  pop\n  jump\t// out\n    /* \"#utility.yul\":3599:3742   */\ntag_40:\n    /* \"#utility.yul\":3656:3661   */\n  0x00\n    /* \"#utility.yul\":3687:3693   */\n  dup2\n    /* \"#utility.yul\":3681:3694   */\n  mload\n    /* \"#utility.yul\":3672:3694   */\n  swap1\n  pop\n    /* \"#utility.yul\":3703:3736   */\n  tag_107\n    /* \"#utility.yul\":3730:3735   */\n  dup2\n    /* \"#utility.yul\":3703:3736   */\n  tag_39\n  jump\t// in\ntag_107:\n    /* \"#utility.yul\":3599:3742   */\n  swap3\n  swap2\n  pop\n  pop\n  jump\t// out\n    /* \"#utility.yul\":3781:4893   */\ntag_41:\n    /* \"#utility.yul\":3866:3871   */\n  0x00\n    /* \"#utility.yul\":3910:3914   */\n  0x60\n    /* \"#utility.yul\":3898:3907   */\n  dup3\n    /* \"#utility.yul\":3893:3896   */\n  dup5\n    /* \"#utility.yul\":3889:3908   */\n  sub\n    /* \"#utility.yul\":3885:3915   */\n  slt\n    /* \"#utility.yul\":3882:3999   */\n  iszero\n  tag_109\n  jumpi\n    /* \"#utility.yul\":3918:3997   */\n  tag_110\n  tag_31\n  jump\t// in\ntag_110:\n    /* \"#utility.yul\":3882:3999   */\ntag_109:\n    /* \"#utility.yul\":4017:4038   */\n  tag_111\n    /* \"#utility.yul\":4033:4037   */\n  0x60\n    /* \"#utility.yul\":4017:4038   */\n  tag_28\n  jump\t// in\ntag_111:\n    /* \"#utility.yul\":4008:4038   */\n  swap1\n  pop\n    /* \"#utility.yul\":4118:4119   */\n  0x00\n    /* \"#utility.yul\":4107:4116   */\n  dup3\n    /* \"#utility.yul\":4103:4120   */\n  add\n    /* \"#utility.yul\":4097:4121   */\n  mload\n    /* \"#utility.yul\":4148:4166   */\n  0xffffffffffffffff\n    /* \"#utility.yul\":4140:4146   */\n  dup2\n    /* \"#utility.yul\":4137:4167   */\n  gt\n    /* \"#utility.yul\":4134:4251   */\n  iszero\n  tag_112\n  jumpi\n    /* \"#utility.yul\":4170:4249   */\n  tag_113\n  tag_32\n  jump\t// in\ntag_113:\n    /* \"#utility.yul\":4134:4251   */\ntag_112:\n    /* \"#utility.yul\":4290:4360   */\n  tag_114\n    /* \"#utility.yul\":4356:4359   */\n  dup5\n    /* \"#utility.yul\":4347:4353   */\n  dup3\n    /* \"#utility.yul\":4336:4345   */\n  dup6\n    /* \"#utility.yul\":4332:4354   */\n  add\n    /* \"#utility.yul\":4290:4360   */\n  tag_37\n  jump\t// in\ntag_114:\n    /* \"#utility.yul\":4283:4287   */\n  0x00\n    /* \"#utility.yul\":4276:4281   */\n  dup4\n    /* \"#utility.yul\":4272:4288   */\n  add\n    /* \"#utility.yul\":4265:4361   */\n  mstore\n    /* \"#utility.yul\":4048:4372   */\n  pop\n    /* \"#utility.yul\":4453:4455   */\n  0x20\n    /* \"#utility.yul\":4442:4451   */\n  dup3\n    /* \"#utility.yul\":4438:4456   */\n  add\n    /* \"#utility.yul\":4432:4457   */\n  mload\n    /* \"#utility.yul\":4484:4502   */\n  0xffffffffffffffff\n    /* \"#utility.yul\":4476:4482   */\n  dup2\n    /* \"#utility.yul\":4473:4503   */\n  gt\n    /* \"#utility.yul\":4470:4587   */\n  iszero\n  tag_115\n  jumpi\n    /* \"#utility.yul\":4506:4585   */\n  tag_116\n  tag_32\n  jump\t// in\ntag_116:\n    /* \"#utility.yul\":4470:4587   */\ntag_115:\n    /* \"#utility.yul\":4626:4696   */\n  tag_117\n    /* \"#utility.yul\":4692:4695   */\n  dup5\n    /* \"#utility.yul\":4683:4689   */\n  dup3\n    /* \"#utility.yul\":4672:4681   */\n  dup6\n    /* \"#utility.yul\":4668:4690   */\n  add\n    /* \"#utility.yul\":4626:4696   */\n  tag_37\n  jump\t// in\ntag_117:\n    /* \"#utility.yul\":4619:4623   */\n  0x20\n    /* \"#utility.yul\":4612:4617   */\n  dup4\n    /* \"#utility.yul\":4608:4624   */\n  add\n    /* \"#utility.yul\":4601:4697   */\n  mstore\n    /* \"#utility.yul\":4382:4708   */\n  pop\n    /* \"#utility.yul\":4773:4775   */\n  0x40\n    /* \"#utility.yul\":4814:4874   */\n  tag_118\n    /* \"#utility.yul\":4870:4873   */\n  dup5\n    /* \"#utility.yul\":4861:4867   */\n  dup3\n    /* \"#utility.yul\":4850:4859   */\n  dup6\n    /* \"#utility.yul\":4846:4868   */\n  add\n    /* \"#utility.yul\":4814:4874   */\n  tag_40\n  jump\t// in\ntag_118:\n    /* \"#utility.yul\":4807:4811   */\n  0x40\n    /* \"#utility.yul\":4800:4805   */\n  dup4\n    /* \"#utility.yul\":4796:4812   */\n  add\n    /* \"#utility.yul\":4789:4875   */\n  mstore\n    /* \"#utility.yul\":4718:4886   */\n  pop\n    /* \"#utility.yul\":3781:4893   */\n  swap3\n  swap2\n  pop\n  pop\n  jump\t// out\n    /* \"#utility.yul\":4934:5939   */\ntag_42:\n    /* \"#utility.yul\":5066:5071   */\n  0x00\n    /* \"#utility.yul\":5091:5197   */\n  tag_120\n    /* \"#utility.yul\":5107:5196   */\n  tag_121\n    /* \"#utility.yul\":5189:5195   */\n  dup5\n    /* \"#utility.yul\":5107:5196   */\n  tag_29\n  jump\t// in\ntag_121:\n    /* \"#utility.yul\":5091:5197   */\n  tag_28\n  jump\t// in\ntag_120:\n    /* \"#utility.yul\":5082:5197   */\n  swap1\n  pop\n    /* \"#utility.yul\":5217:5222   */\n  dup1\n    /* \"#utility.yul\":5246:5252   */\n  dup4\n    /* \"#utility.yul\":5239:5244   */\n  dup3\n    /* \"#utility.yul\":5232:5253   */\n  mstore\n    /* \"#utility.yul\":5280:5284   */\n  0x20\n    /* \"#utility.yul\":5273:5278   */\n  dup3\n    /* \"#utility.yul\":5269:5285   */\n  add\n    /* \"#utility.yul\":5262:5285   */\n  swap1\n  pop\n    /* \"#utility.yul\":5333:5337   */\n  0x20\n    /* \"#utility.yul\":5325:5331   */\n  dup5\n    /* \"#utility.yul\":5321:5338   */\n  mul\n    /* \"#utility.yul\":5313:5319   */\n  dup4\n    /* \"#utility.yul\":5309:5339   */\n  add\n    /* \"#utility.yul\":5362:5365   */\n  dup6\n    /* \"#utility.yul\":5354:5360   */\n  dup2\n    /* \"#utility.yul\":5351:5366   */\n  gt\n    /* \"#utility.yul\":5348:5470   */\n  iszero\n  tag_122\n  jumpi\n    /* \"#utility.yul\":5381:5460   */\n  tag_123\n  tag_30\n  jump\t// in\ntag_123:\n    /* \"#utility.yul\":5348:5470   */\ntag_122:\n    /* \"#utility.yul\":5496:5502   */\n  dup4\n    /* \"#utility.yul\":5479:5933   */\ntag_124:\n    /* \"#utility.yul\":5513:5519   */\n  dup2\n    /* \"#utility.yul\":5508:5511   */\n  dup2\n    /* \"#utility.yul\":5505:5520   */\n  lt\n    /* \"#utility.yul\":5479:5933   */\n  iszero\n  tag_126\n  jumpi\n    /* \"#utility.yul\":5595:5598   */\n  dup1\n    /* \"#utility.yul\":5589:5599   */\n  mload\n    /* \"#utility.yul\":5631:5649   */\n  0xffffffffffffffff\n    /* \"#utility.yul\":5618:5629   */\n  dup2\n    /* \"#utility.yul\":5615:5650   */\n  gt\n    /* \"#utility.yul\":5612:5734   */\n  iszero\n  tag_127\n  jumpi\n    /* \"#utility.yul\":5653:5732   */\n  tag_128\n  tag_24\n  jump\t// in\ntag_128:\n    /* \"#utility.yul\":5612:5734   */\ntag_127:\n    /* \"#utility.yul\":5777:5788   */\n  dup1\n    /* \"#utility.yul\":5769:5775   */\n  dup7\n    /* \"#utility.yul\":5765:5789   */\n  add\n    /* \"#utility.yul\":5815:5888   */\n  tag_129\n    /* \"#utility.yul\":5884:5887   */\n  dup10\n    /* \"#utility.yul\":5872:5882   */\n  dup3\n    /* \"#utility.yul\":5815:5888   */\n  tag_41\n  jump\t// in\ntag_129:\n    /* \"#utility.yul\":5810:5813   */\n  dup6\n    /* \"#utility.yul\":5803:5889   */\n  mstore\n    /* \"#utility.yul\":5918:5922   */\n  0x20\n    /* \"#utility.yul\":5913:5916   */\n  dup6\n    /* \"#utility.yul\":5909:5923   */\n  add\n    /* \"#utility.yul\":5902:5923   */\n  swap5\n  pop\n    /* \"#utility.yul\":5555:5933   */\n  pop\n  pop\n    /* \"#utility.yul\":5539:5543   */\n  0x20\n    /* \"#utility.yul\":5534:5537   */\n  dup2\n    /* \"#utility.yul\":5530:5544   */\n  add\n    /* \"#utility.yul\":5523:5544   */\n  swap1\n  pop\n    /* \"#utility.yul\":5479:5933   */\n  jump(tag_124)\ntag_126:\n    /* \"#utility.yul\":5483:5504   */\n  pop\n    /* \"#utility.yul\":5072:5939   */\n  pop\n  pop\n    /* \"#utility.yul\":4934:5939   */\n  swap4\n  swap3\n  pop\n  pop\n  pop\n  jump\t// out\n    /* \"#utility.yul\":5980:6415   */\ntag_43:\n    /* \"#utility.yul\":6087:6092   */\n  0x00\n    /* \"#utility.yul\":6136:6139   */\n  dup3\n    /* \"#utility.yul\":6129:6133   */\n  0x1f\n    /* \"#utility.yul\":6121:6127   */\n  dup4\n    /* \"#utility.yul\":6117:6134   */\n  add\n    /* \"#utility.yul\":6113:6140   */\n  slt\n    /* \"#utility.yul\":6103:6225   */\n  tag_131\n  jumpi\n    /* \"#utility.yul\":6144:6223   */\n  tag_132\n  tag_24\n  jump\t// in\ntag_132:\n    /* \"#utility.yul\":6103:6225   */\ntag_131:\n    /* \"#utility.yul\":6254:6260   */\n  dup2\n    /* \"#utility.yul\":6248:6261   */\n  mload\n    /* \"#utility.yul\":6279:6409   */\n  tag_133\n    /* \"#utility.yul\":6405:6408   */\n  dup5\n    /* \"#utility.yul\":6397:6403   */\n  dup3\n    /* \"#utility.yul\":6390:6394   */\n  0x20\n    /* \"#utility.yul\":6382:6388   */\n  dup7\n    /* \"#utility.yul\":6378:6395   */\n  add\n    /* \"#utility.yul\":6279:6409   */\n  tag_42\n  jump\t// in\ntag_133:\n    /* \"#utility.yul\":6270:6409   */\n  swap2\n  pop\n    /* \"#utility.yul\":6093:6415   */\n  pop\n    /* \"#utility.yul\":5980:6415   */\n  swap3\n  swap2\n  pop\n  pop\n  jump\t// out\n    /* \"#utility.yul\":6421:7181   */\ntag_3:\n    /* \"#utility.yul\":6550:6556   */\n  0x00\n    /* \"#utility.yul\":6558:6564   */\n  dup1\n    /* \"#utility.yul\":6607:6609   */\n  0x40\n    /* \"#utility.yul\":6595:6604   */\n  dup4\n    /* \"#utility.yul\":6586:6593   */\n  dup6\n    /* \"#utility.yul\":6582:6605   */\n  sub\n    /* \"#utility.yul\":6578:6610   */\n  slt\n    /* \"#utility.yul\":6575:6694   */\n  iszero\n  tag_135\n  jumpi\n    /* \"#utility.yul\":6613:6692   */\n  tag_136\n  tag_22\n  jump\t// in\ntag_136:\n    /* \"#utility.yul\":6575:6694   */\ntag_135:\n    /* \"#utility.yul\":6754:6755   */\n  0x00\n    /* \"#utility.yul\":6743:6752   */\n  dup4\n    /* \"#utility.yul\":6739:6756   */\n  add\n    /* \"#utility.yul\":6733:6757   */\n  mload\n    /* \"#utility.yul\":6784:6802   */\n  0xffffffffffffffff\n    /* \"#utility.yul\":6776:6782   */\n  dup2\n    /* \"#utility.yul\":6773:6803   */\n  gt\n    /* \"#utility.yul\":6770:6887   */\n  iszero\n  tag_137\n  jumpi\n    /* \"#utility.yul\":6806:6885   */\n  tag_138\n  tag_23\n  jump\t// in\ntag_138:\n    /* \"#utility.yul\":6770:6887   */\ntag_137:\n    /* \"#utility.yul\":6911:7025   */\n  tag_139\n    /* \"#utility.yul\":7017:7024   */\n  dup6\n    /* \"#utility.yul\":7008:7014   */\n  dup3\n    /* \"#utility.yul\":6997:7006   */\n  dup7\n    /* \"#utility.yul\":6993:7015   */\n  add\n    /* \"#utility.yul\":6911:7025   */\n  tag_43\n  jump\t// in\ntag_139:\n    /* \"#utility.yul\":6901:7025   */\n  swap3\n  pop\n    /* \"#utility.yul\":6704:7035   */\n  pop\n    /* \"#utility.yul\":7074:7076   */\n  0x20\n    /* \"#utility.yul\":7100:7164   */\n  tag_140\n    /* \"#utility.yul\":7156:7163   */\n  dup6\n    /* \"#utility.yul\":7147:7153   */\n  dup3\n    /* \"#utility.yul\":7136:7145   */\n  dup7\n    /* \"#utility.yul\":7132:7154   */\n  add\n    /* \"#utility.yul\":7100:7164   */\n  tag_40\n  jump\t// in\ntag_140:\n    /* \"#utility.yul\":7090:7164   */\n  swap2\n  pop\n    /* \"#utility.yul\":7045:7174   */\n  pop\n    /* \"#utility.yul\":6421:7181   */\n  swap3\n  pop\n  swap3\n  swap1\n  pop\n  jump\t// out\n    /* \"#utility.yul\":7187:7367   */\ntag_11:\n    /* \"#utility.yul\":7235:7312   */\n  0x4e487b7100000000000000000000000000000000000000000000000000000000\n    /* \"#utility.yul\":7232:7233   */\n  0x00\n    /* \"#utility.yul\":7225:7313   */\n  mstore\n    /* \"#utility.yul\":7332:7336   */\n  0x32\n    /* \"#utility.yul\":7329:7330   */\n  0x04\n    /* \"#utility.yul\":7322:7337   */\n  mstore\n    /* \"#utility.yul\":7356:7360   */\n  0x24\n    /* \"#utility.yul\":7353:7354   */\n  0x00\n    /* \"#utility.yul\":7346:7361   */\n  revert\n    /* \"#utility.yul\":7373:7472   */\ntag_44:\n    /* \"#utility.yul\":7425:7431   */\n  0x00\n    /* \"#utility.yul\":7459:7464   */\n  dup2\n    /* \"#utility.yul\":7453:7465   */\n  mload\n    /* \"#utility.yul\":7443:7465   */\n  swap1\n  pop\n    /* \"#utility.yul\":7373:7472   */\n  swap2\n  swap1\n  pop\n  jump\t// out\n    /* \"#utility.yul\":7478:7658   */\ntag_45:\n    /* \"#utility.yul\":7526:7603   */\n  0x4e487b7100000000000000000000000000000000000000000000000000000000\n    /* \"#utility.yul\":7523:7524   */\n  0x00\n    /* \"#utility.yul\":7516:7604   */\n  mstore\n    /* \"#utility.yul\":7623:7627   */\n  0x22\n    /* \"#utility.yul\":7620:7621   */\n  0x04\n    /* \"#utility.yul\":7613:7628   */\n  mstore\n    /* \"#utility.yul\":7647:7651   */\n  0x24\n    /* \"#utility.yul\":7644:7645   */\n  0x00\n    /* \"#utility.yul\":7637:7652   */\n  revert\n    /* \"#utility.yul\":7664:7984   */\ntag_46:\n    /* \"#utility.yul\":7708:7714   */\n  0x00\n    /* \"#utility.yul\":7745:7746   */\n  0x02\n    /* \"#utility.yul\":7739:7743   */\n  dup3\n    /* \"#utility.yul\":7735:7747   */\n  div\n    /* \"#utility.yul\":7725:7747   */\n  swap1\n  pop\n    /* \"#utility.yul\":7792:7793   */\n  0x01\n    /* \"#utility.yul\":7786:7790   */\n  dup3\n    /* \"#utility.yul\":7782:7794   */\n  and\n    /* \"#utility.yul\":7813:7831   */\n  dup1\n    /* \"#utility.yul\":7803:7884   */\n  tag_145\n  jumpi\n    /* \"#utility.yul\":7869:7873   */\n  0x7f\n    /* \"#utility.yul\":7861:7867   */\n  dup3\n    /* \"#utility.yul\":7857:7874   */\n  and\n    /* \"#utility.yul\":7847:7874   */\n  swap2\n  pop\n    /* \"#utility.yul\":7803:7884   */\ntag_145:\n    /* \"#utility.yul\":7931:7933   */\n  0x20\n    /* \"#utility.yul\":7923:7929   */\n  dup3\n    /* \"#utility.yul\":7920:7934   */\n  lt\n    /* \"#utility.yul\":7900:7918   */\n  dup2\n    /* \"#utility.yul\":7897:7935   */\n  sub\n    /* \"#utility.yul\":7894:7978   */\n  tag_146\n  jumpi\n    /* \"#utility.yul\":7950:7968   */\n  tag_147\n  tag_45\n  jump\t// in\ntag_147:\n    /* \"#utility.yul\":7894:7978   */\ntag_146:\n    /* \"#utility.yul\":7715:7984   */\n  pop\n    /* \"#utility.yul\":7664:7984   */\n  swap2\n  swap1\n  pop\n  jump\t// out\n    /* \"#utility.yul\":7990:8131   */\ntag_47:\n    /* \"#utility.yul\":8039:8043   */\n  0x00\n    /* \"#utility.yul\":8062:8065   */\n  dup2\n    /* \"#utility.yul\":8054:8065   */\n  swap1\n  pop\n    /* \"#utility.yul\":8085:8088   */\n  dup2\n    /* \"#utility.yul\":8082:8083   */\n  0x00\n    /* \"#utility.yul\":8075:8089   */\n  mstore\n    /* \"#utility.yul\":8119:8123   */\n  0x20\n    /* \"#utility.yul\":8116:8117   */\n  0x00\n    /* \"#utility.yul\":8106:8124   */\n  keccak256\n    /* \"#utility.yul\":8098:8124   */\n  swap1\n  pop\n    /* \"#utility.yul\":7990:8131   */\n  swap2\n  swap1\n  pop\n  jump\t// out\n    /* \"#utility.yul\":8137:8230   */\ntag_48:\n    /* \"#utility.yul\":8174:8180   */\n  0x00\n    /* \"#utility.yul\":8221:8223   */\n  0x20\n    /* \"#utility.yul\":8216:8218   */\n  0x1f\n    /* \"#utility.yul\":8209:8214   */\n  dup4\n    /* \"#utility.yul\":8205:8219   */\n  add\n    /* \"#utility.yul\":8201:8224   */\n  div\n    /* \"#utility.yul\":8191:8224   */\n  swap1\n  pop\n    /* \"#utility.yul\":8137:8230   */\n  swap2\n  swap1\n  pop\n  jump\t// out\n    /* \"#utility.yul\":8236:8343   */\ntag_49:\n    /* \"#utility.yul\":8280:8288   */\n  0x00\n    /* \"#utility.yul\":8330:8335   */\n  dup3\n    /* \"#utility.yul\":8324:8328   */\n  dup3\n    /* \"#utility.yul\":8320:8336   */\n  shl\n    /* \"#utility.yul\":8299:8336   */\n  swap1\n  pop\n    /* \"#utility.yul\":8236:8343   */\n  swap3\n  swap2\n  pop\n  pop\n  jump\t// out\n    /* \"#utility.yul\":8349:8742   */\ntag_50:\n    /* \"#utility.yul\":8418:8424   */\n  0x00\n    /* \"#utility.yul\":8468:8469   */\n  0x08\n    /* \"#utility.yul\":8456:8466   */\n  dup4\n    /* \"#utility.yul\":8452:8470   */\n  mul\n    /* \"#utility.yul\":8491:8588   */\n  tag_152\n    /* \"#utility.yul\":8521:8587   */\n  0xffffffffffffffffffffffffffffffffffffffffffffffffffffffffffffffff\n    /* \"#utility.yul\":8510:8519   */\n  dup3\n    /* \"#utility.yul\":8491:8588   */\n  tag_49\n  jump\t// in\ntag_152:\n    /* \"#utility.yul\":8609:8648   */\n  tag_153\n    /* \"#utility.yul\":8639:8647   */\n  dup7\n    /* \"#utility.yul\":8628:8637   */\n  dup4\n    /* \"#utility.yul\":8609:8648   */\n  tag_49\n  jump\t// in\ntag_153:\n    /* \"#utility.yul\":8597:8648   */\n  swap6\n  pop\n    /* \"#utility.yul\":8681:8685   */\n  dup1\n    /* \"#utility.yul\":8677:8686   */\n  not\n    /* \"#utility.yul\":8670:8675   */\n  dup5\n    /* \"#utility.yul\":8666:8687   */\n  and\n    /* \"#utility.yul\":8657:8687   */\n  swap4\n  pop\n    /* \"#utility.yul\":8730:8734   */\n  dup1\n    /* \"#utility.yul\":8720:8728   */\n  dup7\n    /* \"#utility.yul\":8716:8735   */\n  and\n    /* \"#utility.yul\":8709:8714   */\n  dup5\n    /* \"#utility.yul\":8706:8736   */\n  or\n    /* \"#utility.yul\":8696:8736   */\n  swap3\n  pop\n    /* \"#utility.yul\":8425:8742   */\n  pop\n  pop\n    /* \"#utility.yul\":8349:8742   */\n  swap4\n  swap3\n  pop\n  pop\n  pop\n  jump\t// out\n    /* \"#utility.yul\":8748:8808   */\ntag_51:\n    /* \"#utility.yul\":8776:8779   */\n  0x00\n    /* \"#utility.yul\":8797:8802   */\n  dup2\n    /* \"#utility.yul\":8790:8802   */\n  swap1\n  pop\n    /* \"#utility.yul\":8748:8808   */\n  swap2\n  swap1\n  pop\n  jump\t// out\n    /* \"#utility.yul\":8814:8956   */\ntag_52:\n    /* \"#utility.yul\":8864:8873   */\n  0x00\n    /* \"#utility.yul\":8897:8950   */\n  tag_156\n    /* \"#utility.yul\":8915:8949   */\n  tag_157\n    /* \"#utility.yul\":8924:8948   */\n  tag_158\n    /* \"#utility.yul\":8942:8947   */\n  dup5\n    /* \"#utility.yul\":8924:8948   */\n  tag_38\n  jump\t// in\ntag_158:\n    /* \"#utility.yul\":8915:8949   */\n  tag_51\n  jump\t// in\ntag_157:\n    /* \"#utility.yul\":8897:8950   */\n  tag_38\n  jump\t// in\ntag_156:\n    /* \"#utility.yul\":8884:8950   */\n  swap1\n  pop\n    /* \"#utility.yul\":8814:8956   */\n  swap2\n  swap1\n  pop\n  jump\t// out\n    /* \"#utility.yul\":8962:9037   */\ntag_53:\n    /* \"#utility.yul\":9005:9008   */\n  0x00\n    /* \"#utility.yul\":9026:9031   */\n  dup2\n    /* \"#utility.yul\":9019:9031   */\n  swap1\n  pop\n    /* \"#utility.yul\":8962:9037   */\n  swap2\n  swap1\n  pop\n  jump\t// out\n    /* \"#utility.yul\":9043:9312   */\ntag_54:\n    /* \"#utility.yul\":9153:9192   */\n  tag_161\n    /* \"#utility.yul\":9184:9191   */\n  dup4\n    /* \"#utility.yul\":9153:9192   */\n  tag_52\n  jump\t// in\ntag_161:\n    /* \"#utility.yul\":9214:9305   */\n  tag_162\n    /* \"#utility.yul\":9263:9304   */\n  tag_163\n    /* \"#utility.yul\":9287:9303   */\n  dup3\n    /* \"#utility.yul\":9263:9304   */\n  tag_53\n  jump\t// in\ntag_163:\n    /* \"#utility.yul\":9255:9261   */\n  dup5\n    /* \"#utility.yul\":9248:9252   */\n  dup5\n    /* \"#utility.yul\":9242:9253   */\n  sload\n    /* \"#utility.yul\":9214:9305   */\n  tag_50\n  jump\t// in\ntag_162:\n    /* \"#utility.yul\":9208:9212   */\n  dup3\n    /* \"#utility.yul\":9201:9306   */\n  sstore\n    /* \"#utility.yul\":9119:9312   */\n  pop\n    /* \"#utility.yul\":9043:9312   */\n  pop\n  pop\n  pop\n  jump\t// out\n    /* \"#utility.yul\":9318:9391   */\ntag_55:\n    /* \"#utility.yul\":9363:9366   */\n  0x00\n    /* \"#utility.yul\":9318:9391   */\n  swap1\n  jump\t// out\n    /* \"#utility.yul\":9397:9586   */\ntag_56:\n    /* \"#utility.yul\":9474:9506   */\n  tag_166\n  tag_55\n  jump\t// in\ntag_166:\n    /* \"#utility.yul\":9515:9580   */\n  tag_167\n    /* \"#utility.yul\":9573:9579   */\n  dup2\n    /* \"#utility.yul\":9565:9571   */\n  dup5\n    /* \"#utility.yul\":9559:9563   */\n  dup5\n    /* \"#utility.yul\":9515:9580   */\n  tag_54\n  jump\t// in\ntag_167:\n    /* \"#utility.yul\":9450:9586   */\n  pop\n    /* \"#utility.yul\":9397:9586   */\n  pop\n  pop\n  jump\t// out\n    /* \"#utility.yul\":9592:9778   */\ntag_57:\n    /* \"#utility.yul\":9652:9772   */\ntag_169:\n    /* \"#utility.yul\":9669:9672   */\n  dup2\n    /* \"#utility.yul\":9662:9667   */\n  dup2\n    /* \"#utility.yul\":9659:9673   */\n  lt\n    /* \"#utility.yul\":9652:9772   */\n  iszero\n  tag_171\n  jumpi\n    /* \"#utility.yul\":9723:9762   */\n  tag_172\n    /* \"#utility.yul\":9760:9761   */\n  0x00\n    /* \"#utility.yul\":9753:9758   */\n  dup3\n    /* \"#utility.yul\":9723:9762   */\n  tag_56\n  jump\t// in\ntag_172:\n    /* \"#utility.yul\":9696:9697   */\n  0x01\n    /* \"#utility.yul\":9689:9694   */\n  dup2\n    /* \"#utility.yul\":9685:9698   */\n  add\n    /* \"#utility.yul\":9676:9698   */\n  swap1\n  pop\n    /* \"#utility.yul\":9652:9772   */\n  jump(tag_169)\ntag_171:\n    /* \"#utility.yul\":9592:9778   */\n  pop\n  pop\n  jump\t// out\n    /* \"#utility.yul\":9784:10327   */\ntag_58:\n    /* \"#utility.yul\":9885:9887   */\n  0x1f\n    /* \"#utility.yul\":9880:9883   */\n  dup3\n    /* \"#utility.yul\":9877:9888   */\n  gt\n    /* \"#utility.yul\":9874:10320   */\n  iszero\n  tag_174\n  jumpi\n    /* \"#utility.yul\":9919:9957   */\n  tag_175\n    /* \"#utility.yul\":9951:9956   */\n  dup2\n    /* \"#utility.yul\":9919:9957   */\n  tag_47\n  jump\t// in\ntag_175:\n    /* \"#utility.yul\":10003:10032   */\n  tag_176\n    /* \"#utility.yul\":10021:10031   */\n  dup5\n    /* \"#utility.yul\":10003:10032   */\n  tag_48\n  jump\t// in\ntag_176:\n    /* \"#utility.yul\":9993:10001   */\n  dup2\n    /* \"#utility.yul\":9989:10033   */\n  add\n    /* \"#utility.yul\":10186:10188   */\n  0x20\n    /* \"#utility.yul\":10174:10184   */\n  dup6\n    /* \"#utility.yul\":10171:10189   */\n  lt\n    /* \"#utility.yul\":10168:10217   */\n  iszero\n  tag_177\n  jumpi\n    /* \"#utility.yul\":10207:10215   */\n  dup2\n    /* \"#utility.yul\":10192:10215   */\n  swap1\n  pop\n    /* \"#utility.yul\":10168:10217   */\ntag_177:\n    /* \"#utility.yul\":10230:10310   */\n  tag_178\n    /* \"#utility.yul\":10286:10308   */\n  tag_179\n    /* \"#utility.yul\":10304:10307   */\n  dup6\n    /* \"#utility.yul\":10286:10308   */\n  tag_48\n  jump\t// in\ntag_179:\n    /* \"#utility.yul\":10276:10284   */\n  dup4\n    /* \"#utility.yul\":10272:10309   */\n  add\n    /* \"#utility.yul\":10259:10270   */\n  dup3\n    /* \"#utility.yul\":10230:10310   */\n  tag_57\n  jump\t// in\ntag_178:\n    /* \"#utility.yul\":9889:10320   */\n  pop\n  pop\n    /* \"#utility.yul\":9874:10320   */\ntag_174:\n    /* \"#utility.yul\":9784:10327   */\n  pop\n  pop\n  pop\n  jump\t// out\n    /* \"#utility.yul\":10333:10450   */\ntag_59:\n    /* \"#utility.yul\":10387:10395   */\n  0x00\n    /* \"#utility.yul\":10437:10442   */\n  dup3\n    /* \"#utility.yul\":10431:10435   */\n  dup3\n    /* \"#utility.yul\":10427:10443   */\n  shr\n    /* \"#utility.yul\":10406:10443   */\n  swap1\n  pop\n    /* \"#utility.yul\":10333:10450   */\n  swap3\n  swap2\n  pop\n  pop\n  jump\t// out\n    /* \"#utility.yul\":10456:10625   */\ntag_60:\n    /* \"#utility.yul\":10500:10506   */\n  0x00\n    /* \"#utility.yul\":10533:10584   */\n  tag_182\n    /* \"#utility.yul\":10581:10582   */\n  0x00\n    /* \"#utility.yul\":10577:10583   */\n  not\n    /* \"#utility.yul\":10569:10574   */\n  dup5\n    /* \"#utility.yul\":10566:10567   */\n  0x08\n    /* \"#utility.yul\":10562:10575   */\n  mul\n    /* \"#utility.yul\":10533:10584   */\n  tag_59\n  jump\t// in\ntag_182:\n    /* \"#utility.yul\":10529:10585   */\n  not\n    /* \"#utility.yul\":10614:10618   */\n  dup1\n    /* \"#utility.yul\":10608:10612   */\n  dup4\n    /* \"#utility.yul\":10604:10619   */\n  and\n    /* \"#utility.yul\":10594:10619   */\n  swap2\n  pop\n    /* \"#utility.yul\":10507:10625   */\n  pop\n    /* \"#utility.yul\":10456:10625   */\n  swap3\n  swap2\n  pop\n  pop\n  jump\t// out\n    /* \"#utility.yul\":10630:10925   */\ntag_61:\n    /* \"#utility.yul\":10706:10710   */\n  0x00\n    /* \"#utility.yul\":10852:10881   */\n  tag_184\n    /* \"#utility.yul\":10877:10880   */\n  dup4\n    /* \"#utility.yul\":10871:10875   */\n  dup4\n    /* \"#utility.yul\":10852:10881   */\n  tag_60\n  jump\t// in\ntag_184:\n    /* \"#utility.yul\":10844:10881   */\n  swap2\n  pop\n    /* \"#utility.yul\":10914:10917   */\n  dup3\n    /* \"#utility.yul\":10911:10912   */\n  0x02\n    /* \"#utility.yul\":10907:10918   */\n  mul\n    /* \"#utility.yul\":10901:10905   */\n  dup3\n    /* \"#utility.yul\":10898:10919   */\n  or\n    /* \"#utility.yul\":10890:10919   */\n  swap1\n  pop\n    /* \"#utility.yul\":10630:10925   */\n  swap3\n  swap2\n  pop\n  pop\n  jump\t// out\n    /* \"#utility.yul\":10930:12325   */\ntag_16:\n    /* \"#utility.yul\":11047:11084   */\n  tag_186\n    /* \"#utility.yul\":11080:11083   */\n  dup3\n    /* \"#utility.yul\":11047:11084   */\n  tag_44\n  jump\t// in\ntag_186:\n    /* \"#utility.yul\":11149:11167   */\n  0xffffffffffffffff\n    /* \"#utility.yul\":11141:11147   */\n  dup2\n    /* \"#utility.yul\":11138:11168   */\n  gt\n    /* \"#utility.yul\":11135:11191   */\n  iszero\n  tag_187\n  jumpi\n    /* \"#utility.yul\":11171:11189   */\n  tag_188\n  tag_26\n  jump\t// in\ntag_188:\n    /* \"#utility.yul\":11135:11191   */\ntag_187:\n    /* \"#utility.yul\":11215:11253   */\n  tag_189\n    /* \"#utility.yul\":11247:11251   */\n  dup3\n    /* \"#utility.yul\":11241:11252   */\n  sload\n    /* \"#utility.yul\":11215:11253   */\n  tag_46\n  jump\t// in\ntag_189:\n    /* \"#utility.yul\":11300:11367   */\n  tag_190\n    /* \"#utility.yul\":11360:11366   */\n  dup3\n    /* \"#utility.yul\":11352:11358   */\n  dup3\n    /* \"#utility.yul\":11346:11350   */\n  dup6\n    /* \"#utility.yul\":11300:11367   */\n  tag_58\n  jump\t// in\ntag_190:\n    /* \"#utility.yul\":11394:11395   */\n  0x00\n    /* \"#utility.yul\":11418:11422   */\n  0x20\n    /* \"#utility.yul\":11405:11422   */\n  swap1\n  pop\n    /* \"#utility.yul\":11450:11452   */\n  0x1f\n    /* \"#utility.yul\":11442:11448   */\n  dup4\n    /* \"#utility.yul\":11439:11453   */\n  gt\n    /* \"#utility.yul\":11467:11468   */\n  0x01\n    /* \"#utility.yul\":11462:12080   */\n  dup2\n  eq\n  tag_192\n  jumpi\n    /* \"#utility.yul\":12124:12125   */\n  0x00\n    /* \"#utility.yul\":12141:12147   */\n  dup5\n    /* \"#utility.yul\":12138:12215   */\n  iszero\n  tag_193\n  jumpi\n    /* \"#utility.yul\":12190:12199   */\n  dup3\n    /* \"#utility.yul\":12185:12188   */\n  dup8\n    /* \"#utility.yul\":12181:12200   */\n  add\n    /* \"#utility.yul\":12175:12201   */\n  mload\n    /* \"#utility.yul\":12166:12201   */\n  swap1\n  pop\n    /* \"#utility.yul\":12138:12215   */\ntag_193:\n    /* \"#utility.yul\":12241:12308   */\n  tag_194\n    /* \"#utility.yul\":12301:12307   */\n  dup6\n    /* \"#utility.yul\":12294:12299   */\n  dup3\n    /* \"#utility.yul\":12241:12308   */\n  tag_61\n  jump\t// in\ntag_194:\n    /* \"#utility.yul\":12235:12239   */\n  dup7\n    /* \"#utility.yul\":12228:12309   */\n  sstore\n    /* \"#utility.yul\":12097:12319   */\n  pop\n    /* \"#utility.yul\":11432:12319   */\n  jump(tag_191)\n    /* \"#utility.yul\":11462:12080   */\ntag_192:\n    /* \"#utility.yul\":11514:11518   */\n  0x1f\n    /* \"#utility.yul\":11510:11519   */\n  not\n    /* \"#utility.yul\":11502:11508   */\n  dup5\n    /* \"#utility.yul\":11498:11520   */\n  and\n    /* \"#utility.yul\":11548:11585   */\n  tag_195\n    /* \"#utility.yul\":11580:11584   */\n  dup7\n    /* \"#utility.yul\":11548:11585   */\n  tag_47\n  jump\t// in\ntag_195:\n    /* \"#utility.yul\":11607:11608   */\n  0x00\n    /* \"#utility.yul\":11621:11829   */\ntag_196:\n    /* \"#utility.yul\":11635:11642   */\n  dup3\n    /* \"#utility.yul\":11632:11633   */\n  dup2\n    /* \"#utility.yul\":11629:11643   */\n  lt\n    /* \"#utility.yul\":11621:11829   */\n  iszero\n  tag_198\n  jumpi\n    /* \"#utility.yul\":11714:11723   */\n  dup5\n    /* \"#utility.yul\":11709:11712   */\n  dup10\n    /* \"#utility.yul\":11705:11724   */\n  add\n    /* \"#utility.yul\":11699:11725   */\n  mload\n    /* \"#utility.yul\":11691:11697   */\n  dup3\n    /* \"#utility.yul\":11684:11726   */\n  sstore\n    /* \"#utility.yul\":11765:11766   */\n  0x01\n    /* \"#utility.yul\":11757:11763   */\n  dup3\n    /* \"#utility.yul\":11753:11767   */\n  add\n    /* \"#utility.yul\":11743:11767   */\n  swap2\n  pop\n    /* \"#utility.yul\":11812:11814   */\n  0x20\n    /* \"#utility.yul\":11801:11810   */\n  dup6\n    /* \"#utility.yul\":11797:11815   */\n  add\n    /* \"#utility.yul\":11784:11815   */\n  swap5\n  pop\n    /* \"#utility.yul\":11658:11662   */\n  0x20\n    /* \"#utility.yul\":11655:11656   */\n  dup2\n    /* \"#utility.yul\":11651:11663   */\n  add\n    /* \"#utility.yul\":11646:11663   */\n  swap1\n  pop\n    /* \"#utility.yul\":11621:11829   */\n  jump(tag_196)\ntag_198:\n    /* \"#utility.yul\":11857:11863   */\n  dup7\n    /* \"#utility.yul\":11848:11855   */\n  dup4\n    /* \"#utility.yul\":11845:11864   */\n  lt\n    /* \"#utility.yul\":11842:12021   */\n  iszero\n  tag_199\n  jumpi\n    /* \"#utility.yul\":11915:11924   */\n  dup5\n    /* \"#utility.yul\":11910:11913   */\n  dup10\n    /* \"#utility.yul\":11906:11925   */\n  add\n    /* \"#utility.yul\":11900:11926   */\n  mload\n    /* \"#utility.yul\":11958:12006   */\n  tag_200\n    /* \"#utility.yul\":12000:12004   */\n  0x1f\n    /* \"#utility.yul\":11992:11998   */\n  dup10\n    /* \"#utility.yul\":11988:12005   */\n  and\n    /* \"#utility.yul\":11977:11986   */\n  dup3\n    /* \"#utility.yul\":11958:12006   */\n  tag_60\n  jump\t// in\ntag_200:\n    /* \"#utility.yul\":11950:11956   */\n  dup4\n    /* \"#utility.yul\":11943:12007   */\n  sstore\n    /* \"#utility.yul\":11865:12021   */\n  pop\n    /* \"#utility.yul\":11842:12021   */\ntag_199:\n    /* \"#utility.yul\":12067:12068   */\n  0x01\n    /* \"#utility.yul\":12063:12064   */\n  0x02\n    /* \"#utility.yul\":12055:12061   */\n  dup9\n    /* \"#utility.yul\":12051:12065   */\n  mul\n    /* \"#utility.yul\":12047:12069   */\n  add\n    /* \"#utility.yul\":12041:12045   */\n  dup9\n    /* \"#utility.yul\":12034:12070   */\n  sstore\n    /* \"#utility.yul\":11469:12080   */\n  pop\n  pop\n  pop\n    /* \"#utility.yul\":11432:12319   */\ntag_191:\n  pop\n    /* \"#utility.yul\":11022:12325   */\n  pop\n  pop\n  pop\n    /* \"#utility.yul\":10930:12325   */\n  pop\n  pop\n  jump\t// out\n    /* \"#utility.yul\":12331:12511   */\ntag_62:\n    /* \"#utility.yul\":12379:12456   */\n  0x4e487b7100000000000000000000000000000000000000000000000000000000\n    /* \"#utility.yul\":12376:12377   */\n  0x00\n    /* \"#utility.yul\":12369:12457   */\n  mstore\n    /* \"#utility.yul\":12476:12480   */\n  0x11\n    /* \"#utility.yul\":12473:12474   */\n  0x04\n    /* \"#utility.yul\":12466:12481   */\n  mstore\n    /* \"#utility.yul\":12500:12504   */\n  0x24\n    /* \"#utility.yul\":12497:12498   */\n  0x00\n    /* \"#utility.yul\":12490:12505   */\n  revert\n    /* \"#utility.yul\":12517:12750   */\ntag_19:\n    /* \"#utility.yul\":12556:12559   */\n  0x00\n    /* \"#utility.yul\":12579:12603   */\n  tag_203\n    /* \"#utility.yul\":12597:12602   */\n  dup3\n    /* \"#utility.yul\":12579:12603   */\n  tag_38\n  jump\t// in\ntag_203:\n    /* \"#utility.yul\":12570:12603   */\n  swap2\n  pop\n    /* \"#utility.yul\":12625:12691   */\n  0xffffffffffffffffffffffffffffffffffffffffffffffffffffffffffffffff\n    /* \"#utility.yul\":12618:12623   */\n  dup3\n    /* \"#utility.yul\":12615:12692   */\n  sub\n    /* \"#utility.yul\":12612:12715   */\n  tag_204\n  jumpi\n    /* \"#utility.yul\":12695:12713   */\n  tag_205\n  tag_62\n  jump\t// in\ntag_205:\n    /* \"#utility.yul\":12612:12715   */\ntag_204:\n    /* \"#utility.yul\":12742:12743   */\n  0x01\n    /* \"#utility.yul\":12735:12740   */\n  dup3\n    /* \"#utility.yul\":12731:12744   */\n  add\n    /* \"#utility.yul\":12724:12744   */\n  swap1\n  pop\n    /* \"#utility.yul\":12517:12750   */\n  swap2\n  swap1\n  pop\n  jump\t// out\n    /* \"contracts/Ballot/Ballot.sol\":70:4865  contract MyBallot {... */\ntag_20:\n  dataSize(sub_0)\n  dup1\n  dataOffset(sub_0)\n  0x00\n  codecopy\n  0x00\n  return\nstop\n\nsub_0: assembly {\n        /* \"contracts/Ballot/Ballot.sol\":70:4865  contract MyBallot {... */\n      mstore(0x40, 0x80)\n      callvalue\n      dup1\n      iszero\n      tag_1\n      jumpi\n      0x00\n      dup1\n      revert\n    tag_1:\n      pop\n      jumpi(tag_2, lt(calldatasize, 0x04))\n      shr(0xe0, calldataload(0x00))\n      dup1\n      0x9e7b8d61\n      gt\n      tag_18\n      jumpi\n      dup1\n      0xdf703622\n      gt\n      tag_19\n      jumpi\n      dup1\n      0xdf703622\n      eq\n      tag_14\n      jumpi\n      dup1\n      0xf0ee4577\n      eq\n      tag_15\n      jumpi\n      dup1\n      0xf927cc29\n      eq\n      tag_16\n      jumpi\n      dup1\n      0xfc36e15b\n      eq\n      tag_17\n      jumpi\n      jump(tag_2)\n    tag_19:\n      dup1\n      0x9e7b8d61\n      eq\n      tag_10\n      jumpi\n      dup1\n      0xa3ec138d\n      eq\n      tag_11\n      jumpi\n      dup1\n      0xce606ee0\n      eq\n      tag_12\n      jumpi\n      dup1\n      0xda265430\n      eq\n      tag_13\n      jumpi\n      jump(tag_2)\n    tag_18:\n      dup1\n      0x3477ee2e\n      gt\n      tag_20\n      jumpi\n      dup1\n      0x3477ee2e\n      eq\n      tag_6\n      jumpi\n      dup1\n      0x3ddf3822\n      eq\n      tag_7\n      jumpi\n      dup1\n      0x4aba5f34\n      eq\n      tag_8\n      jumpi\n      dup1\n      0x94b04e7d\n      eq\n      tag_9\n      jumpi\n      jump(tag_2)\n    tag_20:\n      dup1\n      0x01c5556a\n      eq\n      tag_3\n      jumpi\n      dup1\n      0x2bfda515\n      eq\n      tag_4\n      jumpi\n      dup1\n      0x32a2c5d0\n      eq\n      tag_5\n      jumpi\n    tag_2:\n      0x00\n      dup1\n      revert\n        /* \"contracts/Ballot/Ballot.sol\":3801:4030  function calculateAmountOfTotalVotes() public view returns (uint total) {... */\n    tag_3:\n      tag_21\n      tag_22\n      jump\t// in\n    tag_21:\n      mload(0x40)\n      tag_23\n      swap2\n      swap1\n      tag_24\n      jump\t// in\n    tag_23:\n      mload(0x40)\n      dup1\n      swap2\n      sub\n      swap1\n      return\n        /* \"contracts/Ballot/Ballot.sol\":2660:2956  function getWinnerName() public view returns (string memory winnerName) {... */\n    tag_4:\n      tag_25\n      tag_26\n      jump\t// in\n    tag_25:\n      mload(0x40)\n      tag_27\n      swap2\n      swap1\n      tag_28\n      jump\t// in\n    tag_27:\n      mload(0x40)\n      dup1\n      swap2\n      sub\n      swap1\n      return\n        /* \"contracts/Ballot/Ballot.sol\":3694:3793  function getContractAddress() public view returns (address) {... */\n    tag_5:\n      tag_29\n      tag_30\n      jump\t// in\n    tag_29:\n      mload(0x40)\n      tag_31\n      swap2\n      swap1\n      tag_32\n      jump\t// in\n    tag_31:\n      mload(0x40)\n      dup1\n      swap2\n      sub\n      swap1\n      return\n        /* \"contracts/Ballot/Ballot.sol\":362:391  Candidate[] public candidates */\n    tag_6:\n      tag_33\n      0x04\n      dup1\n      calldatasize\n      sub\n      dup2\n      add\n      swap1\n      tag_34\n      swap2\n      swap1\n      tag_35\n      jump\t// in\n    tag_34:\n      tag_36\n      jump\t// in\n    tag_33:\n      mload(0x40)\n      tag_37\n      swap4\n      swap3\n      swap2\n      swap1\n      tag_38\n      jump\t// in\n    tag_37:\n      mload(0x40)\n      dup1\n      swap2\n      sub\n      swap1\n      return\n        /* \"contracts/Ballot/Ballot.sol\":4038:4149  function areYouContractOwner() public view returns (bool) {... */\n    tag_7:\n      tag_39\n      tag_40\n      jump\t// in\n    tag_39:\n      mload(0x40)\n      tag_41\n      swap2\n      swap1\n      tag_42\n      jump\t// in\n    tag_41:\n      mload(0x40)\n      dup1\n      swap2\n      sub\n      swap1\n      return\n        /* \"contracts/Ballot/Ballot.sol\":3580:3686  function getCandidatesList() public view returns (Candidate[] memory) {... */\n    tag_8:\n      tag_43\n      tag_44\n      jump\t// in\n    tag_43:\n      mload(0x40)\n      tag_45\n      swap2\n      swap1\n      tag_46\n      jump\t// in\n    tag_45:\n      mload(0x40)\n      dup1\n      swap2\n      sub\n      swap1\n      return\n        /* \"contracts/Ballot/Ballot.sol\":4282:4414  function getVoterRigthToVote(address voterAddress) public view returns (bool) {... */\n    tag_9:\n      tag_47\n      0x04\n      dup1\n      calldatasize\n      sub\n      dup2\n      add\n      swap1\n      tag_48\n      swap2\n      swap1\n      tag_49\n      jump\t// in\n    tag_48:\n      tag_50\n      jump\t// in\n    tag_47:\n      mload(0x40)\n      tag_51\n      swap2\n      swap1\n      tag_42\n      jump\t// in\n    tag_51:\n      mload(0x40)\n      dup1\n      swap2\n      sub\n      swap1\n      return\n        /* \"contracts/Ballot/Ballot.sol\":1986:2132  function giveRightToVote(address voterAddress) public giveRightToVoteModifier(voterAddress) {... */\n    tag_10:\n      tag_52\n      0x04\n      dup1\n      calldatasize\n      sub\n      dup2\n      add\n      swap1\n      tag_53\n      swap2\n      swap1\n      tag_49\n      jump\t// in\n    tag_53:\n      tag_54\n      jump\t// in\n    tag_52:\n      stop\n        /* \"contracts/Ballot/Ballot.sol\":314:353  mapping(address => Voter) public voters */\n    tag_11:\n      tag_55\n      0x04\n      dup1\n      calldatasize\n      sub\n      dup2\n      add\n      swap1\n      tag_56\n      swap2\n      swap1\n      tag_49\n      jump\t// in\n    tag_56:\n      tag_57\n      jump\t// in\n    tag_55:\n      mload(0x40)\n      tag_58\n      swap3\n      swap2\n      swap1\n      tag_59\n      jump\t// in\n    tag_58:\n      mload(0x40)\n      dup1\n      swap2\n      sub\n      swap1\n      return\n        /* \"contracts/Ballot/Ballot.sol\":277:305  address public contractOwner */\n    tag_12:\n      tag_60\n      tag_61\n      jump\t// in\n    tag_60:\n      mload(0x40)\n      tag_62\n      swap2\n      swap1\n      tag_32\n      jump\t// in\n    tag_62:\n      mload(0x40)\n      dup1\n      swap2\n      sub\n      swap1\n      return\n        /* \"contracts/Ballot/Ballot.sol\":4422:4523  function areYouVoted() public view returns (bool) {... */\n    tag_13:\n      tag_63\n      tag_64\n      jump\t// in\n    tag_63:\n      mload(0x40)\n      tag_65\n      swap2\n      swap1\n      tag_42\n      jump\t// in\n    tag_65:\n      mload(0x40)\n      dup1\n      swap2\n      sub\n      swap1\n      return\n        /* \"contracts/Ballot/Ballot.sol\":4157:4274  function areYouHaveRigthToVote() public view returns (bool) {... */\n    tag_14:\n      tag_66\n      tag_67\n      jump\t// in\n    tag_66:\n      mload(0x40)\n      tag_68\n      swap2\n      swap1\n      tag_42\n      jump\t// in\n    tag_68:\n      mload(0x40)\n      dup1\n      swap2\n      sub\n      swap1\n      return\n        /* \"contracts/Ballot/Ballot.sol\":4531:4658  function getVoterVoter(address voterAddress) public view returns (bool) {... */\n    tag_15:\n      tag_69\n      0x04\n      dup1\n      calldatasize\n      sub\n      dup2\n      add\n      swap1\n      tag_70\n      swap2\n      swap1\n      tag_49\n      jump\t// in\n    tag_70:\n      tag_71\n      jump\t// in\n    tag_69:\n      mload(0x40)\n      tag_72\n      swap2\n      swap1\n      tag_42\n      jump\t// in\n    tag_72:\n      mload(0x40)\n      dup1\n      swap2\n      sub\n      swap1\n      return\n        /* \"contracts/Ballot/Ballot.sol\":2964:3572  function getWinningCandidate() public view returns (uint winningProposal, bool isTie) {        ... */\n    tag_16:\n      tag_73\n      tag_74\n      jump\t// in\n    tag_73:\n      mload(0x40)\n      tag_75\n      swap3\n      swap2\n      swap1\n      tag_76\n      jump\t// in\n    tag_75:\n      mload(0x40)\n      dup1\n      swap2\n      sub\n      swap1\n      return\n        /* \"contracts/Ballot/Ballot.sol\":2140:2652  function vote(string memory name) public voteModifier(msg.sender) {... */\n    tag_17:\n      tag_77\n      0x04\n      dup1\n      calldatasize\n      sub\n      dup2\n      add\n      swap1\n      tag_78\n      swap2\n      swap1\n      tag_79\n      jump\t// in\n    tag_78:\n      tag_80\n      jump\t// in\n    tag_77:\n      stop\n        /* \"contracts/Ballot/Ballot.sol\":3801:4030  function calculateAmountOfTotalVotes() public view returns (uint total) {... */\n    tag_22:\n        /* \"contracts/Ballot/Ballot.sol\":3861:3871  uint total */\n      0x00\n        /* \"contracts/Ballot/Ballot.sol\":3907:3917  uint index */\n      dup1\n        /* \"contracts/Ballot/Ballot.sol\":3920:3921  0 */\n      0x00\n        /* \"contracts/Ballot/Ballot.sol\":3907:3921  uint index = 0 */\n      swap1\n      pop\n        /* \"contracts/Ballot/Ballot.sol\":3902:4023  for (uint index = 0; index < candidates.length; index++) {... */\n    tag_82:\n        /* \"contracts/Ballot/Ballot.sol\":3931:3941  candidates */\n      0x02\n        /* \"contracts/Ballot/Ballot.sol\":3931:3948  candidates.length */\n      dup1\n      sload\n      swap1\n      pop\n        /* \"contracts/Ballot/Ballot.sol\":3923:3928  index */\n      dup2\n        /* \"contracts/Ballot/Ballot.sol\":3923:3948  index < candidates.length */\n      lt\n        /* \"contracts/Ballot/Ballot.sol\":3902:4023  for (uint index = 0; index < candidates.length; index++) {... */\n      iszero\n      tag_83\n      jumpi\n        /* \"contracts/Ballot/Ballot.sol\":3983:3993  candidates */\n      0x02\n        /* \"contracts/Ballot/Ballot.sol\":3994:3999  index */\n      dup2\n        /* \"contracts/Ballot/Ballot.sol\":3983:4000  candidates[index] */\n      dup2\n      sload\n      dup2\n      lt\n      tag_85\n      jumpi\n      tag_86\n      tag_87\n      jump\t// in\n    tag_86:\n    tag_85:\n      swap1\n      0x00\n      mstore\n      keccak256(0x00, 0x20)\n      swap1\n      0x03\n      mul\n      add\n        /* \"contracts/Ballot/Ballot.sol\":3983:4011  candidates[index].votesCount */\n      0x02\n      add\n      sload\n        /* \"contracts/Ballot/Ballot.sol\":3974:4011  total += candidates[index].votesCount */\n      dup3\n      tag_89\n      swap2\n      swap1\n      tag_90\n      jump\t// in\n    tag_89:\n      swap2\n      pop\n        /* \"contracts/Ballot/Ballot.sol\":3950:3957  index++ */\n      dup1\n      dup1\n      tag_91\n      swap1\n      tag_92\n      jump\t// in\n    tag_91:\n      swap2\n      pop\n      pop\n        /* \"contracts/Ballot/Ballot.sol\":3902:4023  for (uint index = 0; index < candidates.length; index++) {... */\n      jump(tag_82)\n    tag_83:\n      pop\n        /* \"contracts/Ballot/Ballot.sol\":3801:4030  function calculateAmountOfTotalVotes() public view returns (uint total) {... */\n      swap1\n      jump\t// out\n        /* \"contracts/Ballot/Ballot.sol\":2660:2956  function getWinnerName() public view returns (string memory winnerName) {... */\n    tag_26:\n        /* \"contracts/Ballot/Ballot.sol\":2706:2730  string memory winnerName */\n      0x60\n        /* \"contracts/Ballot/Ballot.sol\":2744:2764  uint winningProposal */\n      0x00\n        /* \"contracts/Ballot/Ballot.sol\":2766:2776  bool isTie */\n      dup1\n        /* \"contracts/Ballot/Ballot.sol\":2780:2801  getWinningCandidate() */\n      tag_94\n        /* \"contracts/Ballot/Ballot.sol\":2780:2799  getWinningCandidate */\n      tag_74\n        /* \"contracts/Ballot/Ballot.sol\":2780:2801  getWinningCandidate() */\n      jump\t// in\n    tag_94:\n        /* \"contracts/Ballot/Ballot.sol\":2743:2801  (uint winningProposal, bool isTie) = getWinningCandidate() */\n      swap2\n      pop\n      swap2\n      pop\n        /* \"contracts/Ballot/Ballot.sol\":2835:2840  isTie */\n      dup1\n        /* \"contracts/Ballot/Ballot.sol\":2834:2840  !isTie */\n      iszero\n        /* \"contracts/Ballot/Ballot.sol\":2812:2892  require(... */\n      tag_95\n      jumpi\n      mload(0x40)\n      0x08c379a000000000000000000000000000000000000000000000000000000000\n      dup2\n      mstore\n      0x04\n      add\n      tag_96\n      swap1\n      tag_97\n      jump\t// in\n    tag_96:\n      mload(0x40)\n      dup1\n      swap2\n      sub\n      swap1\n      revert\n    tag_95:\n        /* \"contracts/Ballot/Ballot.sol\":2916:2926  candidates */\n      0x02\n        /* \"contracts/Ballot/Ballot.sol\":2927:2942  winningProposal */\n      dup3\n        /* \"contracts/Ballot/Ballot.sol\":2916:2943  candidates[winningProposal] */\n      dup2\n      sload\n      dup2\n      lt\n      tag_98\n      jumpi\n      tag_99\n      tag_87\n      jump\t// in\n    tag_99:\n    tag_98:\n      swap1\n      0x00\n      mstore\n      keccak256(0x00, 0x20)\n      swap1\n      0x03\n      mul\n      add\n        /* \"contracts/Ballot/Ballot.sol\":2916:2948  candidates[winningProposal].name */\n      0x00\n      add\n        /* \"contracts/Ballot/Ballot.sol\":2903:2948  winnerName = candidates[winningProposal].name */\n      dup1\n      sload\n      tag_101\n      swap1\n      tag_102\n      jump\t// in\n    tag_101:\n      dup1\n      0x1f\n      add\n      0x20\n      dup1\n      swap2\n      div\n      mul\n      0x20\n      add\n      mload(0x40)\n      swap1\n      dup2\n      add\n      0x40\n      mstore\n      dup1\n      swap3\n      swap2\n      swap1\n      dup2\n      dup2\n      mstore\n      0x20\n      add\n      dup3\n      dup1\n      sload\n      tag_103\n      swap1\n      tag_102\n      jump\t// in\n    tag_103:\n      dup1\n      iszero\n      tag_104\n      jumpi\n      dup1\n      0x1f\n      lt\n      tag_105\n      jumpi\n      0x0100\n      dup1\n      dup4\n      sload\n      div\n      mul\n      dup4\n      mstore\n      swap2\n      0x20\n      add\n      swap2\n      jump(tag_104)\n    tag_105:\n      dup3\n      add\n      swap2\n      swap1\n      0x00\n      mstore\n      keccak256(0x00, 0x20)\n      swap1\n    tag_106:\n      dup2\n      sload\n      dup2\n      mstore\n      swap1\n      0x01\n      add\n      swap1\n      0x20\n      add\n      dup1\n      dup4\n      gt\n      tag_106\n      jumpi\n      dup3\n      swap1\n      sub\n      0x1f\n      and\n      dup3\n      add\n      swap2\n    tag_104:\n      pop\n      pop\n      pop\n      pop\n      pop\n      swap3\n      pop\n        /* \"contracts/Ballot/Ballot.sol\":2732:2956  {... */\n      pop\n      pop\n        /* \"contracts/Ballot/Ballot.sol\":2660:2956  function getWinnerName() public view returns (string memory winnerName) {... */\n      swap1\n      jump\t// out\n        /* \"contracts/Ballot/Ballot.sol\":3694:3793  function getContractAddress() public view returns (address) {... */\n    tag_30:\n        /* \"contracts/Ballot/Ballot.sol\":3745:3752  address */\n      0x00\n        /* \"contracts/Ballot/Ballot.sol\":3780:3784  this */\n      address\n        /* \"contracts/Ballot/Ballot.sol\":3765:3785  return address(this) */\n      swap1\n      pop\n        /* \"contracts/Ballot/Ballot.sol\":3694:3793  function getContractAddress() public view returns (address) {... */\n      swap1\n      jump\t// out\n        /* \"contracts/Ballot/Ballot.sol\":362:391  Candidate[] public candidates */\n    tag_36:\n      0x02\n      dup2\n      dup2\n      sload\n      dup2\n      lt\n      tag_108\n      jumpi\n      0x00\n      dup1\n      revert\n    tag_108:\n      swap1\n      0x00\n      mstore\n      keccak256(0x00, 0x20)\n      swap1\n      0x03\n      mul\n      add\n      0x00\n      swap2\n      pop\n      swap1\n      pop\n      dup1\n      0x00\n      add\n      dup1\n      sload\n      tag_110\n      swap1\n      tag_102\n      jump\t// in\n    tag_110:\n      dup1\n      0x1f\n      add\n      0x20\n      dup1\n      swap2\n      div\n      mul\n      0x20\n      add\n      mload(0x40)\n      swap1\n      dup2\n      add\n      0x40\n      mstore\n      dup1\n      swap3\n      swap2\n      swap1\n      dup2\n      dup2\n      mstore\n      0x20\n      add\n      dup3\n      dup1\n      sload\n      tag_111\n      swap1\n      tag_102\n      jump\t// in\n    tag_111:\n      dup1\n      iszero\n      tag_112\n      jumpi\n      dup1\n      0x1f\n      lt\n      tag_113\n      jumpi\n      0x0100\n      dup1\n      dup4\n      sload\n      div\n      mul\n      dup4\n      mstore\n      swap2\n      0x20\n      add\n      swap2\n      jump(tag_112)\n    tag_113:\n      dup3\n      add\n      swap2\n      swap1\n      0x00\n      mstore\n      keccak256(0x00, 0x20)\n      swap1\n    tag_114:\n      dup2\n      sload\n      dup2\n      mstore\n      swap1\n      0x01\n      add\n      swap1\n      0x20\n      add\n      dup1\n      dup4\n      gt\n      tag_114\n      jumpi\n      dup3\n      swap1\n      sub\n      0x1f\n      and\n      dup3\n      add\n      swap2\n    tag_112:\n      pop\n      pop\n      pop\n      pop\n      pop\n      swap1\n      dup1\n      0x01\n      add\n      dup1\n      sload\n      tag_115\n      swap1\n      tag_102\n      jump\t// in\n    tag_115:\n      dup1\n      0x1f\n      add\n      0x20\n      dup1\n      swap2\n      div\n      mul\n      0x20\n      add\n      mload(0x40)\n      swap1\n      dup2\n      add\n      0x40\n      mstore\n      dup1\n      swap3\n      swap2\n      swap1\n      dup2\n      dup2\n      mstore\n      0x20\n      add\n      dup3\n      dup1\n      sload\n      tag_116\n      swap1\n      tag_102\n      jump\t// in\n    tag_116:\n      dup1\n      iszero\n      tag_117\n      jumpi\n      dup1\n      0x1f\n      lt\n      tag_118\n      jumpi\n      0x0100\n      dup1\n      dup4\n      sload\n      div\n      mul\n      dup4\n      mstore\n      swap2\n      0x20\n      add\n      swap2\n      jump(tag_117)\n    tag_118:\n      dup3\n      add\n      swap2\n      swap1\n      0x00\n      mstore\n      keccak256(0x00, 0x20)\n      swap1\n    tag_119:\n      dup2\n      sload\n      dup2\n      mstore\n      swap1\n      0x01\n      add\n      swap1\n      0x20\n      add\n      dup1\n      dup4\n      gt\n      tag_119\n      jumpi\n      dup3\n      swap1\n      sub\n      0x1f\n      and\n      dup3\n      add\n      swap2\n    tag_117:\n      pop\n      pop\n      pop\n      pop\n      pop\n      swap1\n      dup1\n      0x02\n      add\n      sload\n      swap1\n      pop\n      dup4\n      jump\t// out\n        /* \"contracts/Ballot/Ballot.sol\":4038:4149  function areYouContractOwner() public view returns (bool) {... */\n    tag_40:\n        /* \"contracts/Ballot/Ballot.sol\":4090:4094  bool */\n      0x00\n        /* \"contracts/Ballot/Ballot.sol\":4128:4141  contractOwner */\n      dup1\n      0x00\n      swap1\n      sload\n      swap1\n      0x0100\n      exp\n      swap1\n      div\n      0xffffffffffffffffffffffffffffffffffffffff\n      and\n        /* \"contracts/Ballot/Ballot.sol\":4114:4141  msg.sender == contractOwner */\n      0xffffffffffffffffffffffffffffffffffffffff\n      and\n        /* \"contracts/Ballot/Ballot.sol\":4114:4124  msg.sender */\n      caller\n        /* \"contracts/Ballot/Ballot.sol\":4114:4141  msg.sender == contractOwner */\n      0xffffffffffffffffffffffffffffffffffffffff\n      and\n      eq\n        /* \"contracts/Ballot/Ballot.sol\":4107:4141  return msg.sender == contractOwner */\n      swap1\n      pop\n        /* \"contracts/Ballot/Ballot.sol\":4038:4149  function areYouContractOwner() public view returns (bool) {... */\n      swap1\n      jump\t// out\n        /* \"contracts/Ballot/Ballot.sol\":3580:3686  function getCandidatesList() public view returns (Candidate[] memory) {... */\n    tag_44:\n        /* \"contracts/Ballot/Ballot.sol\":3630:3648  Candidate[] memory */\n      0x60\n        /* \"contracts/Ballot/Ballot.sol\":3668:3678  candidates */\n      0x02\n        /* \"contracts/Ballot/Ballot.sol\":3661:3678  return candidates */\n      dup1\n      sload\n      dup1\n      0x20\n      mul\n      0x20\n      add\n      mload(0x40)\n      swap1\n      dup2\n      add\n      0x40\n      mstore\n      dup1\n      swap3\n      swap2\n      swap1\n      dup2\n      dup2\n      mstore\n      0x20\n      add\n      0x00\n      swap1\n    tag_122:\n      dup3\n      dup3\n      lt\n      iszero\n      tag_123\n      jumpi\n      dup4\n      dup3\n      swap1\n      0x00\n      mstore\n      keccak256(0x00, 0x20)\n      swap1\n      0x03\n      mul\n      add\n      mload(0x40)\n      dup1\n      0x60\n      add\n      0x40\n      mstore\n      swap1\n      dup2\n      0x00\n      dup3\n      add\n      dup1\n      sload\n      tag_125\n      swap1\n      tag_102\n      jump\t// in\n    tag_125:\n      dup1\n      0x1f\n      add\n      0x20\n      dup1\n      swap2\n      div\n      mul\n      0x20\n      add\n      mload(0x40)\n      swap1\n      dup2\n      add\n      0x40\n      mstore\n      dup1\n      swap3\n      swap2\n      swap1\n      dup2\n      dup2\n      mstore\n      0x20\n      add\n      dup3\n      dup1\n      sload\n      tag_126\n      swap1\n      tag_102\n      jump\t// in\n    tag_126:\n      dup1\n      iszero\n      tag_127\n      jumpi\n      dup1\n      0x1f\n      lt\n      tag_128\n      jumpi\n      0x0100\n      dup1\n      dup4\n      sload\n      div\n      mul\n      dup4\n      mstore\n      swap2\n      0x20\n      add\n      swap2\n      jump(tag_127)\n    tag_128:\n      dup3\n      add\n      swap2\n      swap1\n      0x00\n      mstore\n      keccak256(0x00, 0x20)\n      swap1\n    tag_129:\n      dup2\n      sload\n      dup2\n      mstore\n      swap1\n      0x01\n      add\n      swap1\n      0x20\n      add\n      dup1\n      dup4\n      gt\n      tag_129\n      jumpi\n      dup3\n      swap1\n      sub\n      0x1f\n      and\n      dup3\n      add\n      swap2\n    tag_127:\n      pop\n      pop\n      pop\n      pop\n      pop\n      dup2\n      mstore\n      0x20\n      add\n      0x01\n      dup3\n      add\n      dup1\n      sload\n      tag_130\n      swap1\n      tag_102\n      jump\t// in\n    tag_130:\n      dup1\n      0x1f\n      add\n      0x20\n      dup1\n      swap2\n      div\n      mul\n      0x20\n      add\n      mload(0x40)\n      swap1\n      dup2\n      add\n      0x40\n      mstore\n      dup1\n      swap3\n      swap2\n      swap1\n      dup2\n      dup2\n      mstore\n      0x20\n      add\n      dup3\n      dup1\n      sload\n      tag_131\n      swap1\n      tag_102\n      jump\t// in\n    tag_131:\n      dup1\n      iszero\n      tag_132\n      jumpi\n      dup1\n      0x1f\n      lt\n      tag_133\n      jumpi\n      0x0100\n      dup1\n      dup4\n      sload\n      div\n      mul\n      dup4\n      mstore\n      swap2\n      0x20\n      add\n      swap2\n      jump(tag_132)\n    tag_133:\n      dup3\n      add\n      swap2\n      swap1\n      0x00\n      mstore\n      keccak256(0x00, 0x20)\n      swap1\n    tag_134:\n      dup2\n      sload\n      dup2\n      mstore\n      swap1\n      0x01\n      add\n      swap1\n      0x20\n      add\n      dup1\n      dup4\n      gt\n      tag_134\n      jumpi\n      dup3\n      swap1\n      sub\n      0x1f\n      and\n      dup3\n      add\n      swap2\n    tag_132:\n      pop\n      pop\n      pop\n      pop\n      pop\n      dup2\n      mstore\n      0x20\n      add\n      0x02\n      dup3\n      add\n      sload\n      dup2\n      mstore\n      pop\n      pop\n      dup2\n      mstore\n      0x20\n      add\n      swap1\n      0x01\n      add\n      swap1\n      jump(tag_122)\n    tag_123:\n      pop\n      pop\n      pop\n      pop\n      swap1\n      pop\n        /* \"contracts/Ballot/Ballot.sol\":3580:3686  function getCandidatesList() public view returns (Candidate[] memory) {... */\n      swap1\n      jump\t// out\n        /* \"contracts/Ballot/Ballot.sol\":4282:4414  function getVoterRigthToVote(address voterAddress) public view returns (bool) {... */\n    tag_50:\n        /* \"contracts/Ballot/Ballot.sol\":4354:4358  bool */\n      0x00\n        /* \"contracts/Ballot/Ballot.sol\":4378:4384  voters */\n      0x01\n        /* \"contracts/Ballot/Ballot.sol\":4378:4398  voters[voterAddress] */\n      0x00\n        /* \"contracts/Ballot/Ballot.sol\":4385:4397  voterAddress */\n      dup4\n        /* \"contracts/Ballot/Ballot.sol\":4378:4398  voters[voterAddress] */\n      0xffffffffffffffffffffffffffffffffffffffff\n      and\n      0xffffffffffffffffffffffffffffffffffffffff\n      and\n      dup2\n      mstore\n      0x20\n      add\n      swap1\n      dup2\n      mstore\n      0x20\n      add\n      0x00\n      keccak256\n        /* \"contracts/Ballot/Ballot.sol\":4378:4406  voters[voterAddress].canVote */\n      0x00\n      add\n      0x00\n      swap1\n      sload\n      swap1\n      0x0100\n      exp\n      swap1\n      div\n      0xff\n      and\n        /* \"contracts/Ballot/Ballot.sol\":4371:4406  return voters[voterAddress].canVote */\n      swap1\n      pop\n        /* \"contracts/Ballot/Ballot.sol\":4282:4414  function getVoterRigthToVote(address voterAddress) public view returns (bool) {... */\n      swap2\n      swap1\n      pop\n      jump\t// out\n        /* \"contracts/Ballot/Ballot.sol\":1986:2132  function giveRightToVote(address voterAddress) public giveRightToVoteModifier(voterAddress) {... */\n    tag_54:\n        /* \"contracts/Ballot/Ballot.sol\":2064:2076  voterAddress */\n      dup1\n        /* \"contracts/Ballot/Ballot.sol\":1219:1240  areYouContractOwner() */\n      tag_137\n        /* \"contracts/Ballot/Ballot.sol\":1219:1238  areYouContractOwner */\n      tag_40\n        /* \"contracts/Ballot/Ballot.sol\":1219:1240  areYouContractOwner() */\n      jump\t// in\n    tag_137:\n        /* \"contracts/Ballot/Ballot.sol\":1197:1315  require(... */\n      tag_138\n      jumpi\n      mload(0x40)\n      0x08c379a000000000000000000000000000000000000000000000000000000000\n      dup2\n      mstore\n      0x04\n      add\n      tag_139\n      swap1\n      tag_140\n      jump\t// in\n    tag_139:\n      mload(0x40)\n      dup1\n      swap2\n      sub\n      swap1\n      revert\n    tag_138:\n        /* \"contracts/Ballot/Ballot.sol\":1326:1360  getVoterVotedRequire(voterAddress) */\n      tag_141\n        /* \"contracts/Ballot/Ballot.sol\":1347:1359  voterAddress */\n      dup2\n        /* \"contracts/Ballot/Ballot.sol\":1326:1346  getVoterVotedRequire */\n      tag_142\n        /* \"contracts/Ballot/Ballot.sol\":1326:1360  getVoterVotedRequire(voterAddress) */\n      jump\t// in\n    tag_141:\n        /* \"contracts/Ballot/Ballot.sol\":2120:2124  true */\n      0x01\n        /* \"contracts/Ballot/Ballot.sol\":2089:2095  voters */\n      dup1\n        /* \"contracts/Ballot/Ballot.sol\":2089:2109  voters[voterAddress] */\n      0x00\n        /* \"contracts/Ballot/Ballot.sol\":2096:2108  voterAddress */\n      dup5\n        /* \"contracts/Ballot/Ballot.sol\":2089:2109  voters[voterAddress] */\n      0xffffffffffffffffffffffffffffffffffffffff\n      and\n      0xffffffffffffffffffffffffffffffffffffffff\n      and\n      dup2\n      mstore\n      0x20\n      add\n      swap1\n      dup2\n      mstore\n      0x20\n      add\n      0x00\n      keccak256\n        /* \"contracts/Ballot/Ballot.sol\":2089:2117  voters[voterAddress].canVote */\n      0x00\n      add\n      0x00\n        /* \"contracts/Ballot/Ballot.sol\":2089:2124  voters[voterAddress].canVote = true */\n      0x0100\n      exp\n      dup2\n      sload\n      dup2\n      0xff\n      mul\n      not\n      and\n      swap1\n      dup4\n      iszero\n      iszero\n      mul\n      or\n      swap1\n      sstore\n      pop\n        /* \"contracts/Ballot/Ballot.sol\":1986:2132  function giveRightToVote(address voterAddress) public giveRightToVoteModifier(voterAddress) {... */\n      pop\n      pop\n      jump\t// out\n        /* \"contracts/Ballot/Ballot.sol\":314:353  mapping(address => Voter) public voters */\n    tag_57:\n      mstore(0x20, 0x01)\n      dup1\n      0x00\n      mstore\n      keccak256(0x00, 0x40)\n      0x00\n      swap2\n      pop\n      swap1\n      pop\n      dup1\n      0x00\n      add\n      0x00\n      swap1\n      sload\n      swap1\n      0x0100\n      exp\n      swap1\n      div\n      0xff\n      and\n      swap1\n      dup1\n      0x00\n      add\n      0x01\n      swap1\n      sload\n      swap1\n      0x0100\n      exp\n      swap1\n      div\n      0xff\n      and\n      swap1\n      pop\n      dup3\n      jump\t// out\n        /* \"contracts/Ballot/Ballot.sol\":277:305  address public contractOwner */\n    tag_61:\n      0x00\n      dup1\n      sload\n      swap1\n      0x0100\n      exp\n      swap1\n      div\n      0xffffffffffffffffffffffffffffffffffffffff\n      and\n      dup2\n      jump\t// out\n        /* \"contracts/Ballot/Ballot.sol\":4422:4523  function areYouVoted() public view returns (bool) {... */\n    tag_64:\n        /* \"contracts/Ballot/Ballot.sol\":4466:4470  bool */\n      0x00\n        /* \"contracts/Ballot/Ballot.sol\":4490:4515  getVoterVoter(msg.sender) */\n      tag_145\n        /* \"contracts/Ballot/Ballot.sol\":4504:4514  msg.sender */\n      caller\n        /* \"contracts/Ballot/Ballot.sol\":4490:4503  getVoterVoter */\n      tag_71\n        /* \"contracts/Ballot/Ballot.sol\":4490:4515  getVoterVoter(msg.sender) */\n      jump\t// in\n    tag_145:\n        /* \"contracts/Ballot/Ballot.sol\":4483:4515  return getVoterVoter(msg.sender) */\n      swap1\n      pop\n        /* \"contracts/Ballot/Ballot.sol\":4422:4523  function areYouVoted() public view returns (bool) {... */\n      swap1\n      jump\t// out\n        /* \"contracts/Ballot/Ballot.sol\":4157:4274  function areYouHaveRigthToVote() public view returns (bool) {... */\n    tag_67:\n        /* \"contracts/Ballot/Ballot.sol\":4211:4215  bool */\n      0x00\n        /* \"contracts/Ballot/Ballot.sol\":4235:4266  getVoterRigthToVote(msg.sender) */\n      tag_147\n        /* \"contracts/Ballot/Ballot.sol\":4255:4265  msg.sender */\n      caller\n        /* \"contracts/Ballot/Ballot.sol\":4235:4254  getVoterRigthToVote */\n      tag_50\n        /* \"contracts/Ballot/Ballot.sol\":4235:4266  getVoterRigthToVote(msg.sender) */\n      jump\t// in\n    tag_147:\n        /* \"contracts/Ballot/Ballot.sol\":4228:4266  return getVoterRigthToVote(msg.sender) */\n      swap1\n      pop\n        /* \"contracts/Ballot/Ballot.sol\":4157:4274  function areYouHaveRigthToVote() public view returns (bool) {... */\n      swap1\n      jump\t// out\n        /* \"contracts/Ballot/Ballot.sol\":4531:4658  function getVoterVoter(address voterAddress) public view returns (bool) {... */\n    tag_71:\n        /* \"contracts/Ballot/Ballot.sol\":4597:4601  bool */\n      0x00\n        /* \"contracts/Ballot/Ballot.sol\":4621:4627  voters */\n      0x01\n        /* \"contracts/Ballot/Ballot.sol\":4621:4641  voters[voterAddress] */\n      0x00\n        /* \"contracts/Ballot/Ballot.sol\":4628:4640  voterAddress */\n      dup4\n        /* \"contracts/Ballot/Ballot.sol\":4621:4641  voters[voterAddress] */\n      0xffffffffffffffffffffffffffffffffffffffff\n      and\n      0xffffffffffffffffffffffffffffffffffffffff\n      and\n      dup2\n      mstore\n      0x20\n      add\n      swap1\n      dup2\n      mstore\n      0x20\n      add\n      0x00\n      keccak256\n        /* \"contracts/Ballot/Ballot.sol\":4621:4650  voters[voterAddress].hasVoted */\n      0x00\n      add\n      0x01\n      swap1\n      sload\n      swap1\n      0x0100\n      exp\n      swap1\n      div\n      0xff\n      and\n        /* \"contracts/Ballot/Ballot.sol\":4614:4650  return voters[voterAddress].hasVoted */\n      swap1\n      pop\n        /* \"contracts/Ballot/Ballot.sol\":4531:4658  function getVoterVoter(address voterAddress) public view returns (bool) {... */\n      swap2\n      swap1\n      pop\n      jump\t// out\n        /* \"contracts/Ballot/Ballot.sol\":2964:3572  function getWinningCandidate() public view returns (uint winningProposal, bool isTie) {        ... */\n    tag_74:\n        /* \"contracts/Ballot/Ballot.sol\":3016:3036  uint winningProposal */\n      0x00\n        /* \"contracts/Ballot/Ballot.sol\":3038:3048  bool isTie */\n      dup1\n        /* \"contracts/Ballot/Ballot.sol\":3069:3090  uint winningVoteCount */\n      0x00\n        /* \"contracts/Ballot/Ballot.sol\":3108:3127  uint indexCandidate */\n      dup1\n        /* \"contracts/Ballot/Ballot.sol\":3130:3131  0 */\n      0x00\n        /* \"contracts/Ballot/Ballot.sol\":3108:3131  uint indexCandidate = 0 */\n      swap1\n      pop\n        /* \"contracts/Ballot/Ballot.sol\":3103:3565  for (uint indexCandidate = 0; indexCandidate < candidates.length; indexCandidate++) {... */\n    tag_150:\n        /* \"contracts/Ballot/Ballot.sol\":3150:3160  candidates */\n      0x02\n        /* \"contracts/Ballot/Ballot.sol\":3150:3167  candidates.length */\n      dup1\n      sload\n      swap1\n      pop\n        /* \"contracts/Ballot/Ballot.sol\":3133:3147  indexCandidate */\n      dup2\n        /* \"contracts/Ballot/Ballot.sol\":3133:3167  indexCandidate < candidates.length */\n      lt\n        /* \"contracts/Ballot/Ballot.sol\":3103:3565  for (uint indexCandidate = 0; indexCandidate < candidates.length; indexCandidate++) {... */\n      iszero\n      tag_151\n      jumpi\n        /* \"contracts/Ballot/Ballot.sol\":3246:3262  winningVoteCount */\n      dup2\n        /* \"contracts/Ballot/Ballot.sol\":3206:3216  candidates */\n      0x02\n        /* \"contracts/Ballot/Ballot.sol\":3217:3231  indexCandidate */\n      dup3\n        /* \"contracts/Ballot/Ballot.sol\":3206:3232  candidates[indexCandidate] */\n      dup2\n      sload\n      dup2\n      lt\n      tag_153\n      jumpi\n      tag_154\n      tag_87\n      jump\t// in\n    tag_154:\n    tag_153:\n      swap1\n      0x00\n      mstore\n      keccak256(0x00, 0x20)\n      swap1\n      0x03\n      mul\n      add\n        /* \"contracts/Ballot/Ballot.sol\":3206:3243  candidates[indexCandidate].votesCount */\n      0x02\n      add\n      sload\n        /* \"contracts/Ballot/Ballot.sol\":3206:3262  candidates[indexCandidate].votesCount > winningVoteCount */\n      gt\n        /* \"contracts/Ballot/Ballot.sol\":3202:3554  if (candidates[indexCandidate].votesCount > winningVoteCount) {... */\n      iszero\n      tag_156\n      jumpi\n        /* \"contracts/Ballot/Ballot.sol\":3302:3312  candidates */\n      0x02\n        /* \"contracts/Ballot/Ballot.sol\":3313:3327  indexCandidate */\n      dup2\n        /* \"contracts/Ballot/Ballot.sol\":3302:3328  candidates[indexCandidate] */\n      dup2\n      sload\n      dup2\n      lt\n      tag_157\n      jumpi\n      tag_158\n      tag_87\n      jump\t// in\n    tag_158:\n    tag_157:\n      swap1\n      0x00\n      mstore\n      keccak256(0x00, 0x20)\n      swap1\n      0x03\n      mul\n      add\n        /* \"contracts/Ballot/Ballot.sol\":3302:3339  candidates[indexCandidate].votesCount */\n      0x02\n      add\n      sload\n        /* \"contracts/Ballot/Ballot.sol\":3283:3339  winningVoteCount = candidates[indexCandidate].votesCount */\n      swap2\n      pop\n        /* \"contracts/Ballot/Ballot.sol\":3376:3390  indexCandidate */\n      dup1\n        /* \"contracts/Ballot/Ballot.sol\":3358:3390  winningProposal = indexCandidate */\n      swap4\n      pop\n        /* \"contracts/Ballot/Ballot.sol\":3417:3422  false */\n      0x00\n        /* \"contracts/Ballot/Ballot.sol\":3409:3422  isTie = false */\n      swap3\n      pop\n        /* \"contracts/Ballot/Ballot.sol\":3202:3554  if (candidates[indexCandidate].votesCount > winningVoteCount) {... */\n      jump(tag_160)\n    tag_156:\n        /* \"contracts/Ballot/Ballot.sol\":3489:3505  winningVoteCount */\n      dup2\n        /* \"contracts/Ballot/Ballot.sol\":3448:3458  candidates */\n      0x02\n        /* \"contracts/Ballot/Ballot.sol\":3459:3473  indexCandidate */\n      dup3\n        /* \"contracts/Ballot/Ballot.sol\":3448:3474  candidates[indexCandidate] */\n      dup2\n      sload\n      dup2\n      lt\n      tag_161\n      jumpi\n      tag_162\n      tag_87\n      jump\t// in\n    tag_162:\n    tag_161:\n      swap1\n      0x00\n      mstore\n      keccak256(0x00, 0x20)\n      swap1\n      0x03\n      mul\n      add\n        /* \"contracts/Ballot/Ballot.sol\":3448:3485  candidates[indexCandidate].votesCount */\n      0x02\n      add\n      sload\n        /* \"contracts/Ballot/Ballot.sol\":3448:3505  candidates[indexCandidate].votesCount == winningVoteCount */\n      sub\n        /* \"contracts/Ballot/Ballot.sol\":3444:3554  if (candidates[indexCandidate].votesCount == winningVoteCount) {... */\n      tag_164\n      jumpi\n        /* \"contracts/Ballot/Ballot.sol\":3534:3538  true */\n      0x01\n        /* \"contracts/Ballot/Ballot.sol\":3526:3538  isTie = true */\n      swap3\n      pop\n        /* \"contracts/Ballot/Ballot.sol\":3444:3554  if (candidates[indexCandidate].votesCount == winningVoteCount) {... */\n    tag_164:\n        /* \"contracts/Ballot/Ballot.sol\":3202:3554  if (candidates[indexCandidate].votesCount > winningVoteCount) {... */\n    tag_160:\n        /* \"contracts/Ballot/Ballot.sol\":3169:3185  indexCandidate++ */\n      dup1\n      dup1\n      tag_165\n      swap1\n      tag_92\n      jump\t// in\n    tag_165:\n      swap2\n      pop\n      pop\n        /* \"contracts/Ballot/Ballot.sol\":3103:3565  for (uint indexCandidate = 0; indexCandidate < candidates.length; indexCandidate++) {... */\n      jump(tag_150)\n    tag_151:\n      pop\n        /* \"contracts/Ballot/Ballot.sol\":3050:3572  {        ... */\n      pop\n        /* \"contracts/Ballot/Ballot.sol\":2964:3572  function getWinningCandidate() public view returns (uint winningProposal, bool isTie) {        ... */\n      swap1\n      swap2\n      jump\t// out\n        /* \"contracts/Ballot/Ballot.sol\":2140:2652  function vote(string memory name) public voteModifier(msg.sender) {... */\n    tag_80:\n        /* \"contracts/Ballot/Ballot.sol\":2194:2204  msg.sender */\n      caller\n        /* \"contracts/Ballot/Ballot.sol\":1485:1493  maxVotes */\n      sload(0x04)\n        /* \"contracts/Ballot/Ballot.sol\":1465:1482  totalVotesCounter */\n      sload(0x03)\n        /* \"contracts/Ballot/Ballot.sol\":1465:1493  totalVotesCounter < maxVotes */\n      lt\n        /* \"contracts/Ballot/Ballot.sol\":1443:1550  require(... */\n      tag_167\n      jumpi\n      mload(0x40)\n      0x08c379a000000000000000000000000000000000000000000000000000000000\n      dup2\n      mstore\n      0x04\n      add\n      tag_168\n      swap1\n      tag_169\n      jump\t// in\n    tag_168:\n      mload(0x40)\n      dup1\n      swap2\n      sub\n      swap1\n      revert\n    tag_167:\n        /* \"contracts/Ballot/Ballot.sol\":1583:1606  areYouHaveRigthToVote() */\n      tag_170\n        /* \"contracts/Ballot/Ballot.sol\":1583:1604  areYouHaveRigthToVote */\n      tag_67\n        /* \"contracts/Ballot/Ballot.sol\":1583:1606  areYouHaveRigthToVote() */\n      jump\t// in\n    tag_170:\n        /* \"contracts/Ballot/Ballot.sol\":1561:1661  require(... */\n      tag_171\n      jumpi\n      mload(0x40)\n      0x08c379a000000000000000000000000000000000000000000000000000000000\n      dup2\n      mstore\n      0x04\n      add\n      tag_172\n      swap1\n      tag_173\n      jump\t// in\n    tag_172:\n      mload(0x40)\n      dup1\n      swap2\n      sub\n      swap1\n      revert\n    tag_171:\n        /* \"contracts/Ballot/Ballot.sol\":1672:1706  getVoterVotedRequire(voterAddress) */\n      tag_174\n        /* \"contracts/Ballot/Ballot.sol\":1693:1705  voterAddress */\n      dup2\n        /* \"contracts/Ballot/Ballot.sol\":1672:1692  getVoterVotedRequire */\n      tag_142\n        /* \"contracts/Ballot/Ballot.sol\":1672:1706  getVoterVotedRequire(voterAddress) */\n      jump\t// in\n    tag_174:\n        /* \"contracts/Ballot/Ballot.sol\":2217:2237  Voter storage sender */\n      0x00\n        /* \"contracts/Ballot/Ballot.sol\":2240:2246  voters */\n      0x01\n        /* \"contracts/Ballot/Ballot.sol\":2240:2258  voters[msg.sender] */\n      0x00\n        /* \"contracts/Ballot/Ballot.sol\":2247:2257  msg.sender */\n      caller\n        /* \"contracts/Ballot/Ballot.sol\":2240:2258  voters[msg.sender] */\n      0xffffffffffffffffffffffffffffffffffffffff\n      and\n      0xffffffffffffffffffffffffffffffffffffffff\n      and\n      dup2\n      mstore\n      0x20\n      add\n      swap1\n      dup2\n      mstore\n      0x20\n      add\n      0x00\n      keccak256\n        /* \"contracts/Ballot/Ballot.sol\":2217:2258  Voter storage sender = voters[msg.sender] */\n      swap1\n      pop\n        /* \"contracts/Ballot/Ballot.sol\":2375:2385  uint index */\n      0x00\n        /* \"contracts/Ballot/Ballot.sol\":2370:2645  for (uint index = 0; index < candidates.length; index++) {... */\n    tag_176:\n        /* \"contracts/Ballot/Ballot.sol\":2399:2409  candidates */\n      0x02\n        /* \"contracts/Ballot/Ballot.sol\":2399:2416  candidates.length */\n      dup1\n      sload\n      swap1\n      pop\n        /* \"contracts/Ballot/Ballot.sol\":2391:2396  index */\n      dup2\n        /* \"contracts/Ballot/Ballot.sol\":2391:2416  index < candidates.length */\n      lt\n        /* \"contracts/Ballot/Ballot.sol\":2370:2645  for (uint index = 0; index < candidates.length; index++) {... */\n      iszero\n      tag_177\n      jumpi\n        /* \"contracts/Ballot/Ballot.sol\":2446:2488  stringEqualTo(candidates[index].name,name) */\n      tag_179\n        /* \"contracts/Ballot/Ballot.sol\":2460:2470  candidates */\n      0x02\n        /* \"contracts/Ballot/Ballot.sol\":2471:2476  index */\n      dup3\n        /* \"contracts/Ballot/Ballot.sol\":2460:2477  candidates[index] */\n      dup2\n      sload\n      dup2\n      lt\n      tag_180\n      jumpi\n      tag_181\n      tag_87\n      jump\t// in\n    tag_181:\n    tag_180:\n      swap1\n      0x00\n      mstore\n      keccak256(0x00, 0x20)\n      swap1\n      0x03\n      mul\n      add\n        /* \"contracts/Ballot/Ballot.sol\":2460:2482  candidates[index].name */\n      0x00\n      add\n        /* \"contracts/Ballot/Ballot.sol\":2446:2488  stringEqualTo(candidates[index].name,name) */\n      dup1\n      sload\n      tag_183\n      swap1\n      tag_102\n      jump\t// in\n    tag_183:\n      dup1\n      0x1f\n      add\n      0x20\n      dup1\n      swap2\n      div\n      mul\n      0x20\n      add\n      mload(0x40)\n      swap1\n      dup2\n      add\n      0x40\n      mstore\n      dup1\n      swap3\n      swap2\n      swap1\n      dup2\n      dup2\n      mstore\n      0x20\n      add\n      dup3\n      dup1\n      sload\n      tag_184\n      swap1\n      tag_102\n      jump\t// in\n    tag_184:\n      dup1\n      iszero\n      tag_185\n      jumpi\n      dup1\n      0x1f\n      lt\n      tag_186\n      jumpi\n      0x0100\n      dup1\n      dup4\n      sload\n      div\n      mul\n      dup4\n      mstore\n      swap2\n      0x20\n      add\n      swap2\n      jump(tag_185)\n    tag_186:\n      dup3\n      add\n      swap2\n      swap1\n      0x00\n      mstore\n      keccak256(0x00, 0x20)\n      swap1\n    tag_187:\n      dup2\n      sload\n      dup2\n      mstore\n      swap1\n      0x01\n      add\n      swap1\n      0x20\n      add\n      dup1\n      dup4\n      gt\n      tag_187\n      jumpi\n      dup3\n      swap1\n      sub\n      0x1f\n      and\n      dup3\n      add\n      swap2\n    tag_185:\n      pop\n      pop\n      pop\n      pop\n      pop\n        /* \"contracts/Ballot/Ballot.sol\":2483:2487  name */\n      dup6\n        /* \"contracts/Ballot/Ballot.sol\":2446:2459  stringEqualTo */\n      tag_188\n        /* \"contracts/Ballot/Ballot.sol\":2446:2488  stringEqualTo(candidates[index].name,name) */\n      jump\t// in\n    tag_179:\n        /* \"contracts/Ballot/Ballot.sol\":2442:2634  if (stringEqualTo(candidates[index].name,name)) {... */\n      iszero\n      tag_189\n      jumpi\n        /* \"contracts/Ballot/Ballot.sol\":2509:2519  candidates */\n      0x02\n        /* \"contracts/Ballot/Ballot.sol\":2520:2525  index */\n      dup2\n        /* \"contracts/Ballot/Ballot.sol\":2509:2526  candidates[index] */\n      dup2\n      sload\n      dup2\n      lt\n      tag_190\n      jumpi\n      tag_191\n      tag_87\n      jump\t// in\n    tag_191:\n    tag_190:\n      swap1\n      0x00\n      mstore\n      keccak256(0x00, 0x20)\n      swap1\n      0x03\n      mul\n      add\n        /* \"contracts/Ballot/Ballot.sol\":2509:2537  candidates[index].votesCount */\n      0x02\n      add\n      0x00\n        /* \"contracts/Ballot/Ballot.sol\":2509:2539  candidates[index].votesCount++ */\n      dup2\n      sload\n      dup1\n      swap3\n      swap2\n      swap1\n      tag_193\n      swap1\n      tag_92\n      jump\t// in\n    tag_193:\n      swap2\n      swap1\n      pop\n      sstore\n      pop\n        /* \"contracts/Ballot/Ballot.sol\":2576:2580  true */\n      0x01\n        /* \"contracts/Ballot/Ballot.sol\":2558:2564  sender */\n      dup3\n        /* \"contracts/Ballot/Ballot.sol\":2558:2573  sender.hasVoted */\n      0x00\n      add\n      0x01\n        /* \"contracts/Ballot/Ballot.sol\":2558:2580  sender.hasVoted = true */\n      0x0100\n      exp\n      dup2\n      sload\n      dup2\n      0xff\n      mul\n      not\n      and\n      swap1\n      dup4\n      iszero\n      iszero\n      mul\n      or\n      swap1\n      sstore\n      pop\n        /* \"contracts/Ballot/Ballot.sol\":2599:2616  totalVotesCounter */\n      0x03\n      0x00\n        /* \"contracts/Ballot/Ballot.sol\":2599:2618  totalVotesCounter++ */\n      dup2\n      sload\n      dup1\n      swap3\n      swap2\n      swap1\n      tag_194\n      swap1\n      tag_92\n      jump\t// in\n    tag_194:\n      swap2\n      swap1\n      pop\n      sstore\n      pop\n        /* \"contracts/Ballot/Ballot.sol\":2442:2634  if (stringEqualTo(candidates[index].name,name)) {... */\n    tag_189:\n        /* \"contracts/Ballot/Ballot.sol\":2418:2425  index++ */\n      dup1\n      dup1\n      tag_195\n      swap1\n      tag_92\n      jump\t// in\n    tag_195:\n      swap2\n      pop\n      pop\n        /* \"contracts/Ballot/Ballot.sol\":2370:2645  for (uint index = 0; index < candidates.length; index++) {... */\n      jump(tag_176)\n    tag_177:\n      pop\n        /* \"contracts/Ballot/Ballot.sol\":2206:2652  {... */\n      pop\n        /* \"contracts/Ballot/Ballot.sol\":2140:2652  function vote(string memory name) public voteModifier(msg.sender) {... */\n      pop\n      pop\n      jump\t// out\n        /* \"contracts/Ballot/Ballot.sol\":1763:1952  function getVoterVotedRequire(address voterAddress) private view {... */\n    tag_142:\n        /* \"contracts/Ballot/Ballot.sol\":1869:1896  getVoterVoter(voterAddress) */\n      tag_197\n        /* \"contracts/Ballot/Ballot.sol\":1883:1895  voterAddress */\n      dup2\n        /* \"contracts/Ballot/Ballot.sol\":1869:1882  getVoterVoter */\n      tag_71\n        /* \"contracts/Ballot/Ballot.sol\":1869:1896  getVoterVoter(voterAddress) */\n      jump\t// in\n    tag_197:\n        /* \"contracts/Ballot/Ballot.sol\":1868:1896  !getVoterVoter(voterAddress) */\n      iszero\n        /* \"contracts/Ballot/Ballot.sol\":1846:1944  require(... */\n      tag_198\n      jumpi\n      mload(0x40)\n      0x08c379a000000000000000000000000000000000000000000000000000000000\n      dup2\n      mstore\n      0x04\n      add\n      tag_199\n      swap1\n      tag_200\n      jump\t// in\n    tag_199:\n      mload(0x40)\n      dup1\n      swap2\n      sub\n      swap1\n      revert\n    tag_198:\n        /* \"contracts/Ballot/Ballot.sol\":1763:1952  function getVoterVotedRequire(address voterAddress) private view {... */\n      pop\n      jump\t// out\n        /* \"contracts/Ballot/Ballot.sol\":4694:4862  function stringEqualTo(string memory s1, string memory s2) internal pure returns (bool) {... */\n    tag_188:\n        /* \"contracts/Ballot/Ballot.sol\":4776:4780  bool */\n      0x00\n        /* \"contracts/Ballot/Ballot.sol\":4850:4852  s2 */\n      dup2\n        /* \"contracts/Ballot/Ballot.sol\":4839:4853  abi.encode(s2) */\n      add(0x20, mload(0x40))\n      tag_202\n      swap2\n      swap1\n      tag_28\n      jump\t// in\n    tag_202:\n      mload(0x40)\n      0x20\n      dup2\n      dup4\n      sub\n      sub\n      dup2\n      mstore\n      swap1\n      0x40\n      mstore\n        /* \"contracts/Ballot/Ballot.sol\":4829:4854  keccak256(abi.encode(s2)) */\n      dup1\n      mload\n      swap1\n      0x20\n      add\n      keccak256\n        /* \"contracts/Ballot/Ballot.sol\":4821:4823  s1 */\n      dup4\n        /* \"contracts/Ballot/Ballot.sol\":4810:4824  abi.encode(s1) */\n      add(0x20, mload(0x40))\n      tag_203\n      swap2\n      swap1\n      tag_28\n      jump\t// in\n    tag_203:\n      mload(0x40)\n      0x20\n      dup2\n      dup4\n      sub\n      sub\n      dup2\n      mstore\n      swap1\n      0x40\n      mstore\n        /* \"contracts/Ballot/Ballot.sol\":4800:4825  keccak256(abi.encode(s1)) */\n      dup1\n      mload\n      swap1\n      0x20\n      add\n      keccak256\n        /* \"contracts/Ballot/Ballot.sol\":4800:4854  keccak256(abi.encode(s1)) == keccak256(abi.encode(s2)) */\n      eq\n        /* \"contracts/Ballot/Ballot.sol\":4793:4854  return keccak256(abi.encode(s1)) == keccak256(abi.encode(s2)) */\n      swap1\n      pop\n        /* \"contracts/Ballot/Ballot.sol\":4694:4862  function stringEqualTo(string memory s1, string memory s2) internal pure returns (bool) {... */\n      swap3\n      swap2\n      pop\n      pop\n      jump\t// out\n        /* \"#utility.yul\":7:84   */\n    tag_204:\n        /* \"#utility.yul\":44:51   */\n      0x00\n        /* \"#utility.yul\":73:78   */\n      dup2\n        /* \"#utility.yul\":62:78   */\n      swap1\n      pop\n        /* \"#utility.yul\":7:84   */\n      swap2\n      swap1\n      pop\n      jump\t// out\n        /* \"#utility.yul\":90:208   */\n    tag_205:\n        /* \"#utility.yul\":177:201   */\n      tag_257\n        /* \"#utility.yul\":195:200   */\n      dup2\n        /* \"#utility.yul\":177:201   */\n      tag_204\n      jump\t// in\n    tag_257:\n        /* \"#utility.yul\":172:175   */\n      dup3\n        /* \"#utility.yul\":165:202   */\n      mstore\n        /* \"#utility.yul\":90:208   */\n      pop\n      pop\n      jump\t// out\n        /* \"#utility.yul\":214:436   */\n    tag_24:\n        /* \"#utility.yul\":307:311   */\n      0x00\n        /* \"#utility.yul\":345:347   */\n      0x20\n        /* \"#utility.yul\":334:343   */\n      dup3\n        /* \"#utility.yul\":330:348   */\n      add\n        /* \"#utility.yul\":322:348   */\n      swap1\n      pop\n        /* \"#utility.yul\":358:429   */\n      tag_259\n        /* \"#utility.yul\":426:427   */\n      0x00\n        /* \"#utility.yul\":415:424   */\n      dup4\n        /* \"#utility.yul\":411:428   */\n      add\n        /* \"#utility.yul\":402:408   */\n      dup5\n        /* \"#utility.yul\":358:429   */\n      tag_205\n      jump\t// in\n    tag_259:\n        /* \"#utility.yul\":214:436   */\n      swap3\n      swap2\n      pop\n      pop\n      jump\t// out\n        /* \"#utility.yul\":442:541   */\n    tag_206:\n        /* \"#utility.yul\":494:500   */\n      0x00\n        /* \"#utility.yul\":528:533   */\n      dup2\n        /* \"#utility.yul\":522:534   */\n      mload\n        /* \"#utility.yul\":512:534   */\n      swap1\n      pop\n        /* \"#utility.yul\":442:541   */\n      swap2\n      swap1\n      pop\n      jump\t// out\n        /* \"#utility.yul\":547:716   */\n    tag_207:\n        /* \"#utility.yul\":631:642   */\n      0x00\n        /* \"#utility.yul\":665:671   */\n      dup3\n        /* \"#utility.yul\":660:663   */\n      dup3\n        /* \"#utility.yul\":653:672   */\n      mstore\n        /* \"#utility.yul\":705:709   */\n      0x20\n        /* \"#utility.yul\":700:703   */\n      dup3\n        /* \"#utility.yul\":696:710   */\n      add\n        /* \"#utility.yul\":681:710   */\n      swap1\n      pop\n        /* \"#utility.yul\":547:716   */\n      swap3\n      swap2\n      pop\n      pop\n      jump\t// out\n        /* \"#utility.yul\":722:968   */\n    tag_208:\n        /* \"#utility.yul\":803:804   */\n      0x00\n        /* \"#utility.yul\":813:926   */\n    tag_263:\n        /* \"#utility.yul\":827:833   */\n      dup4\n        /* \"#utility.yul\":824:825   */\n      dup2\n        /* \"#utility.yul\":821:834   */\n      lt\n        /* \"#utility.yul\":813:926   */\n      iszero\n      tag_265\n      jumpi\n        /* \"#utility.yul\":912:913   */\n      dup1\n        /* \"#utility.yul\":907:910   */\n      dup3\n        /* \"#utility.yul\":903:914   */\n      add\n        /* \"#utility.yul\":897:915   */\n      mload\n        /* \"#utility.yul\":893:894   */\n      dup2\n        /* \"#utility.yul\":888:891   */\n      dup5\n        /* \"#utility.yul\":884:895   */\n      add\n        /* \"#utility.yul\":877:916   */\n      mstore\n        /* \"#utility.yul\":849:851   */\n      0x20\n        /* \"#utility.yul\":846:847   */\n      dup2\n        /* \"#utility.yul\":842:852   */\n      add\n        /* \"#utility.yul\":837:852   */\n      swap1\n      pop\n        /* \"#utility.yul\":813:926   */\n      jump(tag_263)\n    tag_265:\n        /* \"#utility.yul\":960:961   */\n      0x00\n        /* \"#utility.yul\":951:957   */\n      dup5\n        /* \"#utility.yul\":946:949   */\n      dup5\n        /* \"#utility.yul\":942:958   */\n      add\n        /* \"#utility.yul\":935:962   */\n      mstore\n        /* \"#utility.yul\":784:968   */\n      pop\n        /* \"#utility.yul\":722:968   */\n      pop\n      pop\n      pop\n      jump\t// out\n        /* \"#utility.yul\":974:1076   */\n    tag_209:\n        /* \"#utility.yul\":1015:1021   */\n      0x00\n        /* \"#utility.yul\":1066:1068   */\n      0x1f\n        /* \"#utility.yul\":1062:1069   */\n      not\n        /* \"#utility.yul\":1057:1059   */\n      0x1f\n        /* \"#utility.yul\":1050:1055   */\n      dup4\n        /* \"#utility.yul\":1046:1060   */\n      add\n        /* \"#utility.yul\":1042:1070   */\n      and\n        /* \"#utility.yul\":1032:1070   */\n      swap1\n      pop\n        /* \"#utility.yul\":974:1076   */\n      swap2\n      swap1\n      pop\n      jump\t// out\n        /* \"#utility.yul\":1082:1459   */\n    tag_210:\n        /* \"#utility.yul\":1170:1173   */\n      0x00\n        /* \"#utility.yul\":1198:1237   */\n      tag_268\n        /* \"#utility.yul\":1231:1236   */\n      dup3\n        /* \"#utility.yul\":1198:1237   */\n      tag_206\n      jump\t// in\n    tag_268:\n        /* \"#utility.yul\":1253:1324   */\n      tag_269\n        /* \"#utility.yul\":1317:1323   */\n      dup2\n        /* \"#utility.yul\":1312:1315   */\n      dup6\n        /* \"#utility.yul\":1253:1324   */\n      tag_207\n      jump\t// in\n    tag_269:\n        /* \"#utility.yul\":1246:1324   */\n      swap4\n      pop\n        /* \"#utility.yul\":1333:1398   */\n      tag_270\n        /* \"#utility.yul\":1391:1397   */\n      dup2\n        /* \"#utility.yul\":1386:1389   */\n      dup6\n        /* \"#utility.yul\":1379:1383   */\n      0x20\n        /* \"#utility.yul\":1372:1377   */\n      dup7\n        /* \"#utility.yul\":1368:1384   */\n      add\n        /* \"#utility.yul\":1333:1398   */\n      tag_208\n      jump\t// in\n    tag_270:\n        /* \"#utility.yul\":1423:1452   */\n      tag_271\n        /* \"#utility.yul\":1445:1451   */\n      dup2\n        /* \"#utility.yul\":1423:1452   */\n      tag_209\n      jump\t// in\n    tag_271:\n        /* \"#utility.yul\":1418:1421   */\n      dup5\n        /* \"#utility.yul\":1414:1453   */\n      add\n        /* \"#utility.yul\":1407:1453   */\n      swap2\n      pop\n        /* \"#utility.yul\":1174:1459   */\n      pop\n        /* \"#utility.yul\":1082:1459   */\n      swap3\n      swap2\n      pop\n      pop\n      jump\t// out\n        /* \"#utility.yul\":1465:1778   */\n    tag_28:\n        /* \"#utility.yul\":1578:1582   */\n      0x00\n        /* \"#utility.yul\":1616:1618   */\n      0x20\n        /* \"#utility.yul\":1605:1614   */\n      dup3\n        /* \"#utility.yul\":1601:1619   */\n      add\n        /* \"#utility.yul\":1593:1619   */\n      swap1\n      pop\n        /* \"#utility.yul\":1665:1674   */\n      dup2\n        /* \"#utility.yul\":1659:1663   */\n      dup2\n        /* \"#utility.yul\":1655:1675   */\n      sub\n        /* \"#utility.yul\":1651:1652   */\n      0x00\n        /* \"#utility.yul\":1640:1649   */\n      dup4\n        /* \"#utility.yul\":1636:1653   */\n      add\n        /* \"#utility.yul\":1629:1676   */\n      mstore\n        /* \"#utility.yul\":1693:1771   */\n      tag_273\n        /* \"#utility.yul\":1766:1770   */\n      dup2\n        /* \"#utility.yul\":1757:1763   */\n      dup5\n        /* \"#utility.yul\":1693:1771   */\n      tag_210\n      jump\t// in\n    tag_273:\n        /* \"#utility.yul\":1685:1771   */\n      swap1\n      pop\n        /* \"#utility.yul\":1465:1778   */\n      swap3\n      swap2\n      pop\n      pop\n      jump\t// out\n        /* \"#utility.yul\":1784:1910   */\n    tag_211:\n        /* \"#utility.yul\":1821:1828   */\n      0x00\n        /* \"#utility.yul\":1861:1903   */\n      0xffffffffffffffffffffffffffffffffffffffff\n        /* \"#utility.yul\":1854:1859   */\n      dup3\n        /* \"#utility.yul\":1850:1904   */\n      and\n        /* \"#utility.yul\":1839:1904   */\n      swap1\n      pop\n        /* \"#utility.yul\":1784:1910   */\n      swap2\n      swap1\n      pop\n      jump\t// out\n        /* \"#utility.yul\":1916:2012   */\n    tag_212:\n        /* \"#utility.yul\":1953:1960   */\n      0x00\n        /* \"#utility.yul\":1982:2006   */\n      tag_276\n        /* \"#utility.yul\":2000:2005   */\n      dup3\n        /* \"#utility.yul\":1982:2006   */\n      tag_211\n      jump\t// in\n    tag_276:\n        /* \"#utility.yul\":1971:2006   */\n      swap1\n      pop\n        /* \"#utility.yul\":1916:2012   */\n      swap2\n      swap1\n      pop\n      jump\t// out\n        /* \"#utility.yul\":2018:2136   */\n    tag_213:\n        /* \"#utility.yul\":2105:2129   */\n      tag_278\n        /* \"#utility.yul\":2123:2128   */\n      dup2\n        /* \"#utility.yul\":2105:2129   */\n      tag_212\n      jump\t// in\n    tag_278:\n        /* \"#utility.yul\":2100:2103   */\n      dup3\n        /* \"#utility.yul\":2093:2130   */\n      mstore\n        /* \"#utility.yul\":2018:2136   */\n      pop\n      pop\n      jump\t// out\n        /* \"#utility.yul\":2142:2364   */\n    tag_32:\n        /* \"#utility.yul\":2235:2239   */\n      0x00\n        /* \"#utility.yul\":2273:2275   */\n      0x20\n        /* \"#utility.yul\":2262:2271   */\n      dup3\n        /* \"#utility.yul\":2258:2276   */\n      add\n        /* \"#utility.yul\":2250:2276   */\n      swap1\n      pop\n        /* \"#utility.yul\":2286:2357   */\n      tag_280\n        /* \"#utility.yul\":2354:2355   */\n      0x00\n        /* \"#utility.yul\":2343:2352   */\n      dup4\n        /* \"#utility.yul\":2339:2356   */\n      add\n        /* \"#utility.yul\":2330:2336   */\n      dup5\n        /* \"#utility.yul\":2286:2357   */\n      tag_213\n      jump\t// in\n    tag_280:\n        /* \"#utility.yul\":2142:2364   */\n      swap3\n      swap2\n      pop\n      pop\n      jump\t// out\n        /* \"#utility.yul\":2370:2445   */\n    tag_214:\n        /* \"#utility.yul\":2403:2409   */\n      0x00\n        /* \"#utility.yul\":2436:2438   */\n      0x40\n        /* \"#utility.yul\":2430:2439   */\n      mload\n        /* \"#utility.yul\":2420:2439   */\n      swap1\n      pop\n        /* \"#utility.yul\":2370:2445   */\n      swap1\n      jump\t// out\n        /* \"#utility.yul\":2451:2568   */\n    tag_215:\n        /* \"#utility.yul\":2560:2561   */\n      0x00\n        /* \"#utility.yul\":2557:2558   */\n      dup1\n        /* \"#utility.yul\":2550:2562   */\n      revert\n        /* \"#utility.yul\":2574:2691   */\n    tag_216:\n        /* \"#utility.yul\":2683:2684   */\n      0x00\n        /* \"#utility.yul\":2680:2681   */\n      dup1\n        /* \"#utility.yul\":2673:2685   */\n      revert\n        /* \"#utility.yul\":2697:2819   */\n    tag_217:\n        /* \"#utility.yul\":2770:2794   */\n      tag_285\n        /* \"#utility.yul\":2788:2793   */\n      dup2\n        /* \"#utility.yul\":2770:2794   */\n      tag_204\n      jump\t// in\n    tag_285:\n        /* \"#utility.yul\":2763:2768   */\n      dup2\n        /* \"#utility.yul\":2760:2795   */\n      eq\n        /* \"#utility.yul\":2750:2813   */\n      tag_286\n      jumpi\n        /* \"#utility.yul\":2809:2810   */\n      0x00\n        /* \"#utility.yul\":2806:2807   */\n      dup1\n        /* \"#utility.yul\":2799:2811   */\n      revert\n        /* \"#utility.yul\":2750:2813   */\n    tag_286:\n        /* \"#utility.yul\":2697:2819   */\n      pop\n      jump\t// out\n        /* \"#utility.yul\":2825:2964   */\n    tag_218:\n        /* \"#utility.yul\":2871:2876   */\n      0x00\n        /* \"#utility.yul\":2909:2915   */\n      dup2\n        /* \"#utility.yul\":2896:2916   */\n      calldataload\n        /* \"#utility.yul\":2887:2916   */\n      swap1\n      pop\n        /* \"#utility.yul\":2925:2958   */\n      tag_288\n        /* \"#utility.yul\":2952:2957   */\n      dup2\n        /* \"#utility.yul\":2925:2958   */\n      tag_217\n      jump\t// in\n    tag_288:\n        /* \"#utility.yul\":2825:2964   */\n      swap3\n      swap2\n      pop\n      pop\n      jump\t// out\n        /* \"#utility.yul\":2970:3299   */\n    tag_35:\n        /* \"#utility.yul\":3029:3035   */\n      0x00\n        /* \"#utility.yul\":3078:3080   */\n      0x20\n        /* \"#utility.yul\":3066:3075   */\n      dup3\n        /* \"#utility.yul\":3057:3064   */\n      dup5\n        /* \"#utility.yul\":3053:3076   */\n      sub\n        /* \"#utility.yul\":3049:3081   */\n      slt\n        /* \"#utility.yul\":3046:3165   */\n      iszero\n      tag_290\n      jumpi\n        /* \"#utility.yul\":3084:3163   */\n      tag_291\n      tag_215\n      jump\t// in\n    tag_291:\n        /* \"#utility.yul\":3046:3165   */\n    tag_290:\n        /* \"#utility.yul\":3204:3205   */\n      0x00\n        /* \"#utility.yul\":3229:3282   */\n      tag_292\n        /* \"#utility.yul\":3274:3281   */\n      dup5\n        /* \"#utility.yul\":3265:3271   */\n      dup3\n        /* \"#utility.yul\":3254:3263   */\n      dup6\n        /* \"#utility.yul\":3250:3272   */\n      add\n        /* \"#utility.yul\":3229:3282   */\n      tag_218\n      jump\t// in\n    tag_292:\n        /* \"#utility.yul\":3219:3282   */\n      swap2\n      pop\n        /* \"#utility.yul\":3175:3292   */\n      pop\n        /* \"#utility.yul\":2970:3299   */\n      swap3\n      swap2\n      pop\n      pop\n      jump\t// out\n        /* \"#utility.yul\":3305:3929   */\n    tag_38:\n        /* \"#utility.yul\":3494:3498   */\n      0x00\n        /* \"#utility.yul\":3532:3534   */\n      0x60\n        /* \"#utility.yul\":3521:3530   */\n      dup3\n        /* \"#utility.yul\":3517:3535   */\n      add\n        /* \"#utility.yul\":3509:3535   */\n      swap1\n      pop\n        /* \"#utility.yul\":3581:3590   */\n      dup2\n        /* \"#utility.yul\":3575:3579   */\n      dup2\n        /* \"#utility.yul\":3571:3591   */\n      sub\n        /* \"#utility.yul\":3567:3568   */\n      0x00\n        /* \"#utility.yul\":3556:3565   */\n      dup4\n        /* \"#utility.yul\":3552:3569   */\n      add\n        /* \"#utility.yul\":3545:3592   */\n      mstore\n        /* \"#utility.yul\":3609:3687   */\n      tag_294\n        /* \"#utility.yul\":3682:3686   */\n      dup2\n        /* \"#utility.yul\":3673:3679   */\n      dup7\n        /* \"#utility.yul\":3609:3687   */\n      tag_210\n      jump\t// in\n    tag_294:\n        /* \"#utility.yul\":3601:3687   */\n      swap1\n      pop\n        /* \"#utility.yul\":3734:3743   */\n      dup2\n        /* \"#utility.yul\":3728:3732   */\n      dup2\n        /* \"#utility.yul\":3724:3744   */\n      sub\n        /* \"#utility.yul\":3719:3721   */\n      0x20\n        /* \"#utility.yul\":3708:3717   */\n      dup4\n        /* \"#utility.yul\":3704:3722   */\n      add\n        /* \"#utility.yul\":3697:3745   */\n      mstore\n        /* \"#utility.yul\":3762:3840   */\n      tag_295\n        /* \"#utility.yul\":3835:3839   */\n      dup2\n        /* \"#utility.yul\":3826:3832   */\n      dup6\n        /* \"#utility.yul\":3762:3840   */\n      tag_210\n      jump\t// in\n    tag_295:\n        /* \"#utility.yul\":3754:3840   */\n      swap1\n      pop\n        /* \"#utility.yul\":3850:3922   */\n      tag_296\n        /* \"#utility.yul\":3918:3920   */\n      0x40\n        /* \"#utility.yul\":3907:3916   */\n      dup4\n        /* \"#utility.yul\":3903:3921   */\n      add\n        /* \"#utility.yul\":3894:3900   */\n      dup5\n        /* \"#utility.yul\":3850:3922   */\n      tag_205\n      jump\t// in\n    tag_296:\n        /* \"#utility.yul\":3305:3929   */\n      swap5\n      swap4\n      pop\n      pop\n      pop\n      pop\n      jump\t// out\n        /* \"#utility.yul\":3935:4025   */\n    tag_219:\n        /* \"#utility.yul\":3969:3976   */\n      0x00\n        /* \"#utility.yul\":4012:4017   */\n      dup2\n        /* \"#utility.yul\":4005:4018   */\n      iszero\n        /* \"#utility.yul\":3998:4019   */\n      iszero\n        /* \"#utility.yul\":3987:4019   */\n      swap1\n      pop\n        /* \"#utility.yul\":3935:4025   */\n      swap2\n      swap1\n      pop\n      jump\t// out\n        /* \"#utility.yul\":4031:4140   */\n    tag_220:\n        /* \"#utility.yul\":4112:4133   */\n      tag_299\n        /* \"#utility.yul\":4127:4132   */\n      dup2\n        /* \"#utility.yul\":4112:4133   */\n      tag_219\n      jump\t// in\n    tag_299:\n        /* \"#utility.yul\":4107:4110   */\n      dup3\n        /* \"#utility.yul\":4100:4134   */\n      mstore\n        /* \"#utility.yul\":4031:4140   */\n      pop\n      pop\n      jump\t// out\n        /* \"#utility.yul\":4146:4356   */\n    tag_42:\n        /* \"#utility.yul\":4233:4237   */\n      0x00\n        /* \"#utility.yul\":4271:4273   */\n      0x20\n        /* \"#utility.yul\":4260:4269   */\n      dup3\n        /* \"#utility.yul\":4256:4274   */\n      add\n        /* \"#utility.yul\":4248:4274   */\n      swap1\n      pop\n        /* \"#utility.yul\":4284:4349   */\n      tag_301\n        /* \"#utility.yul\":4346:4347   */\n      0x00\n        /* \"#utility.yul\":4335:4344   */\n      dup4\n        /* \"#utility.yul\":4331:4348   */\n      add\n        /* \"#utility.yul\":4322:4328   */\n      dup5\n        /* \"#utility.yul\":4284:4349   */\n      tag_220\n      jump\t// in\n    tag_301:\n        /* \"#utility.yul\":4146:4356   */\n      swap3\n      swap2\n      pop\n      pop\n      jump\t// out\n        /* \"#utility.yul\":4362:4501   */\n    tag_221:\n        /* \"#utility.yul\":4454:4460   */\n      0x00\n        /* \"#utility.yul\":4488:4493   */\n      dup2\n        /* \"#utility.yul\":4482:4494   */\n      mload\n        /* \"#utility.yul\":4472:4494   */\n      swap1\n      pop\n        /* \"#utility.yul\":4362:4501   */\n      swap2\n      swap1\n      pop\n      jump\t// out\n        /* \"#utility.yul\":4507:4716   */\n    tag_222:\n        /* \"#utility.yul\":4631:4642   */\n      0x00\n        /* \"#utility.yul\":4665:4671   */\n      dup3\n        /* \"#utility.yul\":4660:4663   */\n      dup3\n        /* \"#utility.yul\":4653:4672   */\n      mstore\n        /* \"#utility.yul\":4705:4709   */\n      0x20\n        /* \"#utility.yul\":4700:4703   */\n      dup3\n        /* \"#utility.yul\":4696:4710   */\n      add\n        /* \"#utility.yul\":4681:4710   */\n      swap1\n      pop\n        /* \"#utility.yul\":4507:4716   */\n      swap3\n      swap2\n      pop\n      pop\n      jump\t// out\n        /* \"#utility.yul\":4722:4879   */\n    tag_223:\n        /* \"#utility.yul\":4814:4818   */\n      0x00\n        /* \"#utility.yul\":4837:4840   */\n      dup2\n        /* \"#utility.yul\":4829:4840   */\n      swap1\n      pop\n        /* \"#utility.yul\":4867:4871   */\n      0x20\n        /* \"#utility.yul\":4862:4865   */\n      dup3\n        /* \"#utility.yul\":4858:4872   */\n      add\n        /* \"#utility.yul\":4850:4872   */\n      swap1\n      pop\n        /* \"#utility.yul\":4722:4879   */\n      swap2\n      swap1\n      pop\n      jump\t// out\n        /* \"#utility.yul\":4885:5044   */\n    tag_224:\n        /* \"#utility.yul\":4959:4970   */\n      0x00\n        /* \"#utility.yul\":4993:4999   */\n      dup3\n        /* \"#utility.yul\":4988:4991   */\n      dup3\n        /* \"#utility.yul\":4981:5000   */\n      mstore\n        /* \"#utility.yul\":5033:5037   */\n      0x20\n        /* \"#utility.yul\":5028:5031   */\n      dup3\n        /* \"#utility.yul\":5024:5038   */\n      add\n        /* \"#utility.yul\":5009:5038   */\n      swap1\n      pop\n        /* \"#utility.yul\":4885:5044   */\n      swap3\n      swap2\n      pop\n      pop\n      jump\t// out\n        /* \"#utility.yul\":5050:5407   */\n    tag_225:\n        /* \"#utility.yul\":5128:5131   */\n      0x00\n        /* \"#utility.yul\":5156:5195   */\n      tag_307\n        /* \"#utility.yul\":5189:5194   */\n      dup3\n        /* \"#utility.yul\":5156:5195   */\n      tag_206\n      jump\t// in\n    tag_307:\n        /* \"#utility.yul\":5211:5272   */\n      tag_308\n        /* \"#utility.yul\":5265:5271   */\n      dup2\n        /* \"#utility.yul\":5260:5263   */\n      dup6\n        /* \"#utility.yul\":5211:5272   */\n      tag_224\n      jump\t// in\n    tag_308:\n        /* \"#utility.yul\":5204:5272   */\n      swap4\n      pop\n        /* \"#utility.yul\":5281:5346   */\n      tag_309\n        /* \"#utility.yul\":5339:5345   */\n      dup2\n        /* \"#utility.yul\":5334:5337   */\n      dup6\n        /* \"#utility.yul\":5327:5331   */\n      0x20\n        /* \"#utility.yul\":5320:5325   */\n      dup7\n        /* \"#utility.yul\":5316:5332   */\n      add\n        /* \"#utility.yul\":5281:5346   */\n      tag_208\n      jump\t// in\n    tag_309:\n        /* \"#utility.yul\":5371:5400   */\n      tag_310\n        /* \"#utility.yul\":5393:5399   */\n      dup2\n        /* \"#utility.yul\":5371:5400   */\n      tag_209\n      jump\t// in\n    tag_310:\n        /* \"#utility.yul\":5366:5369   */\n      dup5\n        /* \"#utility.yul\":5362:5401   */\n      add\n        /* \"#utility.yul\":5355:5401   */\n      swap2\n      pop\n        /* \"#utility.yul\":5132:5407   */\n      pop\n        /* \"#utility.yul\":5050:5407   */\n      swap3\n      swap2\n      pop\n      pop\n      jump\t// out\n        /* \"#utility.yul\":5413:5521   */\n    tag_226:\n        /* \"#utility.yul\":5490:5514   */\n      tag_312\n        /* \"#utility.yul\":5508:5513   */\n      dup2\n        /* \"#utility.yul\":5490:5514   */\n      tag_204\n      jump\t// in\n    tag_312:\n        /* \"#utility.yul\":5485:5488   */\n      dup3\n        /* \"#utility.yul\":5478:5515   */\n      mstore\n        /* \"#utility.yul\":5413:5521   */\n      pop\n      pop\n      jump\t// out\n        /* \"#utility.yul\":5589:6437   */\n    tag_227:\n        /* \"#utility.yul\":5698:5701   */\n      0x00\n        /* \"#utility.yul\":5734:5738   */\n      0x60\n        /* \"#utility.yul\":5729:5732   */\n      dup4\n        /* \"#utility.yul\":5725:5739   */\n      add\n        /* \"#utility.yul\":5821:5825   */\n      0x00\n        /* \"#utility.yul\":5814:5819   */\n      dup4\n        /* \"#utility.yul\":5810:5826   */\n      add\n        /* \"#utility.yul\":5804:5827   */\n      mload\n        /* \"#utility.yul\":5874:5877   */\n      dup5\n        /* \"#utility.yul\":5868:5872   */\n      dup3\n        /* \"#utility.yul\":5864:5878   */\n      sub\n        /* \"#utility.yul\":5857:5861   */\n      0x00\n        /* \"#utility.yul\":5852:5855   */\n      dup7\n        /* \"#utility.yul\":5848:5862   */\n      add\n        /* \"#utility.yul\":5841:5879   */\n      mstore\n        /* \"#utility.yul\":5900:5973   */\n      tag_314\n        /* \"#utility.yul\":5968:5972   */\n      dup3\n        /* \"#utility.yul\":5954:5966   */\n      dup3\n        /* \"#utility.yul\":5900:5973   */\n      tag_225\n      jump\t// in\n    tag_314:\n        /* \"#utility.yul\":5892:5973   */\n      swap2\n      pop\n        /* \"#utility.yul\":5749:5984   */\n      pop\n        /* \"#utility.yul\":6067:6071   */\n      0x20\n        /* \"#utility.yul\":6060:6065   */\n      dup4\n        /* \"#utility.yul\":6056:6072   */\n      add\n        /* \"#utility.yul\":6050:6073   */\n      mload\n        /* \"#utility.yul\":6120:6123   */\n      dup5\n        /* \"#utility.yul\":6114:6118   */\n      dup3\n        /* \"#utility.yul\":6110:6124   */\n      sub\n        /* \"#utility.yul\":6103:6107   */\n      0x20\n        /* \"#utility.yul\":6098:6101   */\n      dup7\n        /* \"#utility.yul\":6094:6108   */\n      add\n        /* \"#utility.yul\":6087:6125   */\n      mstore\n        /* \"#utility.yul\":6146:6219   */\n      tag_315\n        /* \"#utility.yul\":6214:6218   */\n      dup3\n        /* \"#utility.yul\":6200:6212   */\n      dup3\n        /* \"#utility.yul\":6146:6219   */\n      tag_225\n      jump\t// in\n    tag_315:\n        /* \"#utility.yul\":6138:6219   */\n      swap2\n      pop\n        /* \"#utility.yul\":5994:6230   */\n      pop\n        /* \"#utility.yul\":6318:6322   */\n      0x40\n        /* \"#utility.yul\":6311:6316   */\n      dup4\n        /* \"#utility.yul\":6307:6323   */\n      add\n        /* \"#utility.yul\":6301:6324   */\n      mload\n        /* \"#utility.yul\":6337:6400   */\n      tag_316\n        /* \"#utility.yul\":6394:6398   */\n      0x40\n        /* \"#utility.yul\":6389:6392   */\n      dup7\n        /* \"#utility.yul\":6385:6399   */\n      add\n        /* \"#utility.yul\":6371:6383   */\n      dup3\n        /* \"#utility.yul\":6337:6400   */\n      tag_226\n      jump\t// in\n    tag_316:\n        /* \"#utility.yul\":6240:6410   */\n      pop\n        /* \"#utility.yul\":6427:6431   */\n      dup1\n        /* \"#utility.yul\":6420:6431   */\n      swap2\n      pop\n        /* \"#utility.yul\":5703:6437   */\n      pop\n        /* \"#utility.yul\":5589:6437   */\n      swap3\n      swap2\n      pop\n      pop\n      jump\t// out\n        /* \"#utility.yul\":6443:6699   */\n    tag_228:\n        /* \"#utility.yul\":6562:6572   */\n      0x00\n        /* \"#utility.yul\":6597:6693   */\n      tag_318\n        /* \"#utility.yul\":6689:6692   */\n      dup4\n        /* \"#utility.yul\":6681:6687   */\n      dup4\n        /* \"#utility.yul\":6597:6693   */\n      tag_227\n      jump\t// in\n    tag_318:\n        /* \"#utility.yul\":6583:6693   */\n      swap1\n      pop\n        /* \"#utility.yul\":6443:6699   */\n      swap3\n      swap2\n      pop\n      pop\n      jump\t// out\n        /* \"#utility.yul\":6705:6843   */\n    tag_229:\n        /* \"#utility.yul\":6800:6804   */\n      0x00\n        /* \"#utility.yul\":6832:6836   */\n      0x20\n        /* \"#utility.yul\":6827:6830   */\n      dup3\n        /* \"#utility.yul\":6823:6837   */\n      add\n        /* \"#utility.yul\":6815:6837   */\n      swap1\n      pop\n        /* \"#utility.yul\":6705:6843   */\n      swap2\n      swap1\n      pop\n      jump\t// out\n        /* \"#utility.yul\":6915:8026   */\n    tag_230:\n        /* \"#utility.yul\":7084:7087   */\n      0x00\n        /* \"#utility.yul\":7113:7192   */\n      tag_321\n        /* \"#utility.yul\":7186:7191   */\n      dup3\n        /* \"#utility.yul\":7113:7192   */\n      tag_221\n      jump\t// in\n    tag_321:\n        /* \"#utility.yul\":7208:7319   */\n      tag_322\n        /* \"#utility.yul\":7312:7318   */\n      dup2\n        /* \"#utility.yul\":7307:7310   */\n      dup6\n        /* \"#utility.yul\":7208:7319   */\n      tag_222\n      jump\t// in\n    tag_322:\n        /* \"#utility.yul\":7201:7319   */\n      swap4\n      pop\n        /* \"#utility.yul\":7345:7348   */\n      dup4\n        /* \"#utility.yul\":7390:7394   */\n      0x20\n        /* \"#utility.yul\":7382:7388   */\n      dup3\n        /* \"#utility.yul\":7378:7395   */\n      mul\n        /* \"#utility.yul\":7373:7376   */\n      dup6\n        /* \"#utility.yul\":7369:7396   */\n      add\n        /* \"#utility.yul\":7420:7501   */\n      tag_323\n        /* \"#utility.yul\":7495:7500   */\n      dup6\n        /* \"#utility.yul\":7420:7501   */\n      tag_223\n      jump\t// in\n    tag_323:\n        /* \"#utility.yul\":7524:7531   */\n      dup1\n        /* \"#utility.yul\":7555:7556   */\n      0x00\n        /* \"#utility.yul\":7540:7981   */\n    tag_324:\n        /* \"#utility.yul\":7565:7571   */\n      dup6\n        /* \"#utility.yul\":7562:7563   */\n      dup2\n        /* \"#utility.yul\":7559:7572   */\n      lt\n        /* \"#utility.yul\":7540:7981   */\n      iszero\n      tag_326\n      jumpi\n        /* \"#utility.yul\":7636:7645   */\n      dup5\n        /* \"#utility.yul\":7630:7634   */\n      dup5\n        /* \"#utility.yul\":7626:7646   */\n      sub\n        /* \"#utility.yul\":7621:7624   */\n      dup10\n        /* \"#utility.yul\":7614:7647   */\n      mstore\n        /* \"#utility.yul\":7687:7693   */\n      dup2\n        /* \"#utility.yul\":7681:7694   */\n      mload\n        /* \"#utility.yul\":7715:7829   */\n      tag_327\n        /* \"#utility.yul\":7824:7828   */\n      dup6\n        /* \"#utility.yul\":7809:7822   */\n      dup3\n        /* \"#utility.yul\":7715:7829   */\n      tag_228\n      jump\t// in\n    tag_327:\n        /* \"#utility.yul\":7707:7829   */\n      swap5\n      pop\n        /* \"#utility.yul\":7852:7937   */\n      tag_328\n        /* \"#utility.yul\":7930:7936   */\n      dup4\n        /* \"#utility.yul\":7852:7937   */\n      tag_229\n      jump\t// in\n    tag_328:\n        /* \"#utility.yul\":7842:7937   */\n      swap3\n      pop\n        /* \"#utility.yul\":7966:7970   */\n      0x20\n        /* \"#utility.yul\":7961:7964   */\n      dup11\n        /* \"#utility.yul\":7957:7971   */\n      add\n        /* \"#utility.yul\":7950:7971   */\n      swap10\n      pop\n        /* \"#utility.yul\":7600:7981   */\n      pop\n        /* \"#utility.yul\":7587:7588   */\n      0x01\n        /* \"#utility.yul\":7584:7585   */\n      dup2\n        /* \"#utility.yul\":7580:7589   */\n      add\n        /* \"#utility.yul\":7575:7589   */\n      swap1\n      pop\n        /* \"#utility.yul\":7540:7981   */\n      jump(tag_324)\n    tag_326:\n        /* \"#utility.yul\":7544:7558   */\n      pop\n        /* \"#utility.yul\":7997:8001   */\n      dup3\n        /* \"#utility.yul\":7990:8001   */\n      swap8\n      pop\n        /* \"#utility.yul\":8017:8020   */\n      dup8\n        /* \"#utility.yul\":8010:8020   */\n      swap6\n      pop\n        /* \"#utility.yul\":7089:8026   */\n      pop\n      pop\n      pop\n      pop\n      pop\n        /* \"#utility.yul\":6915:8026   */\n      swap3\n      swap2\n      pop\n      pop\n      jump\t// out\n        /* \"#utility.yul\":8032:8505   */\n    tag_46:\n        /* \"#utility.yul\":8225:8229   */\n      0x00\n        /* \"#utility.yul\":8263:8265   */\n      0x20\n        /* \"#utility.yul\":8252:8261   */\n      dup3\n        /* \"#utility.yul\":8248:8266   */\n      add\n        /* \"#utility.yul\":8240:8266   */\n      swap1\n      pop\n        /* \"#utility.yul\":8312:8321   */\n      dup2\n        /* \"#utility.yul\":8306:8310   */\n      dup2\n        /* \"#utility.yul\":8302:8322   */\n      sub\n        /* \"#utility.yul\":8298:8299   */\n      0x00\n        /* \"#utility.yul\":8287:8296   */\n      dup4\n        /* \"#utility.yul\":8283:8300   */\n      add\n        /* \"#utility.yul\":8276:8323   */\n      mstore\n        /* \"#utility.yul\":8340:8498   */\n      tag_330\n        /* \"#utility.yul\":8493:8497   */\n      dup2\n        /* \"#utility.yul\":8484:8490   */\n      dup5\n        /* \"#utility.yul\":8340:8498   */\n      tag_230\n      jump\t// in\n    tag_330:\n        /* \"#utility.yul\":8332:8498   */\n      swap1\n      pop\n        /* \"#utility.yul\":8032:8505   */\n      swap3\n      swap2\n      pop\n      pop\n      jump\t// out\n        /* \"#utility.yul\":8511:8633   */\n    tag_231:\n        /* \"#utility.yul\":8584:8608   */\n      tag_332\n        /* \"#utility.yul\":8602:8607   */\n      dup2\n        /* \"#utility.yul\":8584:8608   */\n      tag_212\n      jump\t// in\n    tag_332:\n        /* \"#utility.yul\":8577:8582   */\n      dup2\n        /* \"#utility.yul\":8574:8609   */\n      eq\n        /* \"#utility.yul\":8564:8627   */\n      tag_333\n      jumpi\n        /* \"#utility.yul\":8623:8624   */\n      0x00\n        /* \"#utility.yul\":8620:8621   */\n      dup1\n        /* \"#utility.yul\":8613:8625   */\n      revert\n        /* \"#utility.yul\":8564:8627   */\n    tag_333:\n        /* \"#utility.yul\":8511:8633   */\n      pop\n      jump\t// out\n        /* \"#utility.yul\":8639:8778   */\n    tag_232:\n        /* \"#utility.yul\":8685:8690   */\n      0x00\n        /* \"#utility.yul\":8723:8729   */\n      dup2\n        /* \"#utility.yul\":8710:8730   */\n      calldataload\n        /* \"#utility.yul\":8701:8730   */\n      swap1\n      pop\n        /* \"#utility.yul\":8739:8772   */\n      tag_335\n        /* \"#utility.yul\":8766:8771   */\n      dup2\n        /* \"#utility.yul\":8739:8772   */\n      tag_231\n      jump\t// in\n    tag_335:\n        /* \"#utility.yul\":8639:8778   */\n      swap3\n      swap2\n      pop\n      pop\n      jump\t// out\n        /* \"#utility.yul\":8784:9113   */\n    tag_49:\n        /* \"#utility.yul\":8843:8849   */\n      0x00\n        /* \"#utility.yul\":8892:8894   */\n      0x20\n        /* \"#utility.yul\":8880:8889   */\n      dup3\n        /* \"#utility.yul\":8871:8878   */\n      dup5\n        /* \"#utility.yul\":8867:8890   */\n      sub\n        /* \"#utility.yul\":8863:8895   */\n      slt\n        /* \"#utility.yul\":8860:8979   */\n      iszero\n      tag_337\n      jumpi\n        /* \"#utility.yul\":8898:8977   */\n      tag_338\n      tag_215\n      jump\t// in\n    tag_338:\n        /* \"#utility.yul\":8860:8979   */\n    tag_337:\n        /* \"#utility.yul\":9018:9019   */\n      0x00\n        /* \"#utility.yul\":9043:9096   */\n      tag_339\n        /* \"#utility.yul\":9088:9095   */\n      dup5\n        /* \"#utility.yul\":9079:9085   */\n      dup3\n        /* \"#utility.yul\":9068:9077   */\n      dup6\n        /* \"#utility.yul\":9064:9086   */\n      add\n        /* \"#utility.yul\":9043:9096   */\n      tag_232\n      jump\t// in\n    tag_339:\n        /* \"#utility.yul\":9033:9096   */\n      swap2\n      pop\n        /* \"#utility.yul\":8989:9106   */\n      pop\n        /* \"#utility.yul\":8784:9113   */\n      swap3\n      swap2\n      pop\n      pop\n      jump\t// out\n        /* \"#utility.yul\":9119:9427   */\n    tag_59:\n        /* \"#utility.yul\":9228:9232   */\n      0x00\n        /* \"#utility.yul\":9266:9268   */\n      0x40\n        /* \"#utility.yul\":9255:9264   */\n      dup3\n        /* \"#utility.yul\":9251:9269   */\n      add\n        /* \"#utility.yul\":9243:9269   */\n      swap1\n      pop\n        /* \"#utility.yul\":9279:9344   */\n      tag_341\n        /* \"#utility.yul\":9341:9342   */\n      0x00\n        /* \"#utility.yul\":9330:9339   */\n      dup4\n        /* \"#utility.yul\":9326:9343   */\n      add\n        /* \"#utility.yul\":9317:9323   */\n      dup6\n        /* \"#utility.yul\":9279:9344   */\n      tag_220\n      jump\t// in\n    tag_341:\n        /* \"#utility.yul\":9354:9420   */\n      tag_342\n        /* \"#utility.yul\":9416:9418   */\n      0x20\n        /* \"#utility.yul\":9405:9414   */\n      dup4\n        /* \"#utility.yul\":9401:9419   */\n      add\n        /* \"#utility.yul\":9392:9398   */\n      dup5\n        /* \"#utility.yul\":9354:9420   */\n      tag_220\n      jump\t// in\n    tag_342:\n        /* \"#utility.yul\":9119:9427   */\n      swap4\n      swap3\n      pop\n      pop\n      pop\n      jump\t// out\n        /* \"#utility.yul\":9433:9753   */\n    tag_76:\n        /* \"#utility.yul\":9548:9552   */\n      0x00\n        /* \"#utility.yul\":9586:9588   */\n      0x40\n        /* \"#utility.yul\":9575:9584   */\n      dup3\n        /* \"#utility.yul\":9571:9589   */\n      add\n        /* \"#utility.yul\":9563:9589   */\n      swap1\n      pop\n        /* \"#utility.yul\":9599:9670   */\n      tag_344\n        /* \"#utility.yul\":9667:9668   */\n      0x00\n        /* \"#utility.yul\":9656:9665   */\n      dup4\n        /* \"#utility.yul\":9652:9669   */\n      add\n        /* \"#utility.yul\":9643:9649   */\n      dup6\n        /* \"#utility.yul\":9599:9670   */\n      tag_205\n      jump\t// in\n    tag_344:\n        /* \"#utility.yul\":9680:9746   */\n      tag_345\n        /* \"#utility.yul\":9742:9744   */\n      0x20\n        /* \"#utility.yul\":9731:9740   */\n      dup4\n        /* \"#utility.yul\":9727:9745   */\n      add\n        /* \"#utility.yul\":9718:9724   */\n      dup5\n        /* \"#utility.yul\":9680:9746   */\n      tag_220\n      jump\t// in\n    tag_345:\n        /* \"#utility.yul\":9433:9753   */\n      swap4\n      swap3\n      pop\n      pop\n      pop\n      jump\t// out\n        /* \"#utility.yul\":9759:9876   */\n    tag_233:\n        /* \"#utility.yul\":9868:9869   */\n      0x00\n        /* \"#utility.yul\":9865:9866   */\n      dup1\n        /* \"#utility.yul\":9858:9870   */\n      revert\n        /* \"#utility.yul\":9882:9999   */\n    tag_234:\n        /* \"#utility.yul\":9991:9992   */\n      0x00\n        /* \"#utility.yul\":9988:9989   */\n      dup1\n        /* \"#utility.yul\":9981:9993   */\n      revert\n        /* \"#utility.yul\":10005:10185   */\n    tag_235:\n        /* \"#utility.yul\":10053:10130   */\n      0x4e487b7100000000000000000000000000000000000000000000000000000000\n        /* \"#utility.yul\":10050:10051   */\n      0x00\n        /* \"#utility.yul\":10043:10131   */\n      mstore\n        /* \"#utility.yul\":10150:10154   */\n      0x41\n        /* \"#utility.yul\":10147:10148   */\n      0x04\n        /* \"#utility.yul\":10140:10155   */\n      mstore\n        /* \"#utility.yul\":10174:10178   */\n      0x24\n        /* \"#utility.yul\":10171:10172   */\n      0x00\n        /* \"#utility.yul\":10164:10179   */\n      revert\n        /* \"#utility.yul\":10191:10472   */\n    tag_236:\n        /* \"#utility.yul\":10274:10301   */\n      tag_350\n        /* \"#utility.yul\":10296:10300   */\n      dup3\n        /* \"#utility.yul\":10274:10301   */\n      tag_209\n      jump\t// in\n    tag_350:\n        /* \"#utility.yul\":10266:10272   */\n      dup2\n        /* \"#utility.yul\":10262:10302   */\n      add\n        /* \"#utility.yul\":10404:10410   */\n      dup2\n        /* \"#utility.yul\":10392:10402   */\n      dup2\n        /* \"#utility.yul\":10389:10411   */\n      lt\n        /* \"#utility.yul\":10368:10386   */\n      0xffffffffffffffff\n        /* \"#utility.yul\":10356:10366   */\n      dup3\n        /* \"#utility.yul\":10353:10387   */\n      gt\n        /* \"#utility.yul\":10350:10412   */\n      or\n        /* \"#utility.yul\":10347:10435   */\n      iszero\n      tag_351\n      jumpi\n        /* \"#utility.yul\":10415:10433   */\n      tag_352\n      tag_235\n      jump\t// in\n    tag_352:\n        /* \"#utility.yul\":10347:10435   */\n    tag_351:\n        /* \"#utility.yul\":10455:10465   */\n      dup1\n        /* \"#utility.yul\":10451:10453   */\n      0x40\n        /* \"#utility.yul\":10444:10466   */\n      mstore\n        /* \"#utility.yul\":10234:10472   */\n      pop\n        /* \"#utility.yul\":10191:10472   */\n      pop\n      pop\n      jump\t// out\n        /* \"#utility.yul\":10478:10607   */\n    tag_237:\n        /* \"#utility.yul\":10512:10518   */\n      0x00\n        /* \"#utility.yul\":10539:10559   */\n      tag_354\n      tag_214\n      jump\t// in\n    tag_354:\n        /* \"#utility.yul\":10529:10559   */\n      swap1\n      pop\n        /* \"#utility.yul\":10568:10601   */\n      tag_355\n        /* \"#utility.yul\":10596:10600   */\n      dup3\n        /* \"#utility.yul\":10588:10594   */\n      dup3\n        /* \"#utility.yul\":10568:10601   */\n      tag_236\n      jump\t// in\n    tag_355:\n        /* \"#utility.yul\":10478:10607   */\n      swap2\n      swap1\n      pop\n      jump\t// out\n        /* \"#utility.yul\":10613:10921   */\n    tag_238:\n        /* \"#utility.yul\":10675:10679   */\n      0x00\n        /* \"#utility.yul\":10765:10783   */\n      0xffffffffffffffff\n        /* \"#utility.yul\":10757:10763   */\n      dup3\n        /* \"#utility.yul\":10754:10784   */\n      gt\n        /* \"#utility.yul\":10751:10807   */\n      iszero\n      tag_357\n      jumpi\n        /* \"#utility.yul\":10787:10805   */\n      tag_358\n      tag_235\n      jump\t// in\n    tag_358:\n        /* \"#utility.yul\":10751:10807   */\n    tag_357:\n        /* \"#utility.yul\":10825:10854   */\n      tag_359\n        /* \"#utility.yul\":10847:10853   */\n      dup3\n        /* \"#utility.yul\":10825:10854   */\n      tag_209\n      jump\t// in\n    tag_359:\n        /* \"#utility.yul\":10817:10854   */\n      swap1\n      pop\n        /* \"#utility.yul\":10909:10913   */\n      0x20\n        /* \"#utility.yul\":10903:10907   */\n      dup2\n        /* \"#utility.yul\":10899:10914   */\n      add\n        /* \"#utility.yul\":10891:10914   */\n      swap1\n      pop\n        /* \"#utility.yul\":10613:10921   */\n      swap2\n      swap1\n      pop\n      jump\t// out\n        /* \"#utility.yul\":10927:11073   */\n    tag_239:\n        /* \"#utility.yul\":11024:11030   */\n      dup3\n        /* \"#utility.yul\":11019:11022   */\n      dup2\n        /* \"#utility.yul\":11014:11017   */\n      dup4\n        /* \"#utility.yul\":11001:11031   */\n      calldatacopy\n        /* \"#utility.yul\":11065:11066   */\n      0x00\n        /* \"#utility.yul\":11056:11062   */\n      dup4\n        /* \"#utility.yul\":11051:11054   */\n      dup4\n        /* \"#utility.yul\":11047:11063   */\n      add\n        /* \"#utility.yul\":11040:11067   */\n      mstore\n        /* \"#utility.yul\":10927:11073   */\n      pop\n      pop\n      pop\n      jump\t// out\n        /* \"#utility.yul\":11079:11504   */\n    tag_240:\n        /* \"#utility.yul\":11157:11162   */\n      0x00\n        /* \"#utility.yul\":11182:11248   */\n      tag_362\n        /* \"#utility.yul\":11198:11247   */\n      tag_363\n        /* \"#utility.yul\":11240:11246   */\n      dup5\n        /* \"#utility.yul\":11198:11247   */\n      tag_238\n      jump\t// in\n    tag_363:\n        /* \"#utility.yul\":11182:11248   */\n      tag_237\n      jump\t// in\n    tag_362:\n        /* \"#utility.yul\":11173:11248   */\n      swap1\n      pop\n        /* \"#utility.yul\":11271:11277   */\n      dup3\n        /* \"#utility.yul\":11264:11269   */\n      dup2\n        /* \"#utility.yul\":11257:11278   */\n      mstore\n        /* \"#utility.yul\":11309:11313   */\n      0x20\n        /* \"#utility.yul\":11302:11307   */\n      dup2\n        /* \"#utility.yul\":11298:11314   */\n      add\n        /* \"#utility.yul\":11347:11350   */\n      dup5\n        /* \"#utility.yul\":11338:11344   */\n      dup5\n        /* \"#utility.yul\":11333:11336   */\n      dup5\n        /* \"#utility.yul\":11329:11345   */\n      add\n        /* \"#utility.yul\":11326:11351   */\n      gt\n        /* \"#utility.yul\":11323:11435   */\n      iszero\n      tag_364\n      jumpi\n        /* \"#utility.yul\":11354:11433   */\n      tag_365\n      tag_234\n      jump\t// in\n    tag_365:\n        /* \"#utility.yul\":11323:11435   */\n    tag_364:\n        /* \"#utility.yul\":11444:11498   */\n      tag_366\n        /* \"#utility.yul\":11491:11497   */\n      dup5\n        /* \"#utility.yul\":11486:11489   */\n      dup3\n        /* \"#utility.yul\":11481:11484   */\n      dup6\n        /* \"#utility.yul\":11444:11498   */\n      tag_239\n      jump\t// in\n    tag_366:\n        /* \"#utility.yul\":11163:11504   */\n      pop\n        /* \"#utility.yul\":11079:11504   */\n      swap4\n      swap3\n      pop\n      pop\n      pop\n      jump\t// out\n        /* \"#utility.yul\":11524:11864   */\n    tag_241:\n        /* \"#utility.yul\":11580:11585   */\n      0x00\n        /* \"#utility.yul\":11629:11632   */\n      dup3\n        /* \"#utility.yul\":11622:11626   */\n      0x1f\n        /* \"#utility.yul\":11614:11620   */\n      dup4\n        /* \"#utility.yul\":11610:11627   */\n      add\n        /* \"#utility.yul\":11606:11633   */\n      slt\n        /* \"#utility.yul\":11596:11718   */\n      tag_368\n      jumpi\n        /* \"#utility.yul\":11637:11716   */\n      tag_369\n      tag_233\n      jump\t// in\n    tag_369:\n        /* \"#utility.yul\":11596:11718   */\n    tag_368:\n        /* \"#utility.yul\":11754:11760   */\n      dup2\n        /* \"#utility.yul\":11741:11761   */\n      calldataload\n        /* \"#utility.yul\":11779:11858   */\n      tag_370\n        /* \"#utility.yul\":11854:11857   */\n      dup5\n        /* \"#utility.yul\":11846:11852   */\n      dup3\n        /* \"#utility.yul\":11839:11843   */\n      0x20\n        /* \"#utility.yul\":11831:11837   */\n      dup7\n        /* \"#utility.yul\":11827:11844   */\n      add\n        /* \"#utility.yul\":11779:11858   */\n      tag_240\n      jump\t// in\n    tag_370:\n        /* \"#utility.yul\":11770:11858   */\n      swap2\n      pop\n        /* \"#utility.yul\":11586:11864   */\n      pop\n        /* \"#utility.yul\":11524:11864   */\n      swap3\n      swap2\n      pop\n      pop\n      jump\t// out\n        /* \"#utility.yul\":11870:12379   */\n    tag_79:\n        /* \"#utility.yul\":11939:11945   */\n      0x00\n        /* \"#utility.yul\":11988:11990   */\n      0x20\n        /* \"#utility.yul\":11976:11985   */\n      dup3\n        /* \"#utility.yul\":11967:11974   */\n      dup5\n        /* \"#utility.yul\":11963:11986   */\n      sub\n        /* \"#utility.yul\":11959:11991   */\n      slt\n        /* \"#utility.yul\":11956:12075   */\n      iszero\n      tag_372\n      jumpi\n        /* \"#utility.yul\":11994:12073   */\n      tag_373\n      tag_215\n      jump\t// in\n    tag_373:\n        /* \"#utility.yul\":11956:12075   */\n    tag_372:\n        /* \"#utility.yul\":12142:12143   */\n      0x00\n        /* \"#utility.yul\":12131:12140   */\n      dup3\n        /* \"#utility.yul\":12127:12144   */\n      add\n        /* \"#utility.yul\":12114:12145   */\n      calldataload\n        /* \"#utility.yul\":12172:12190   */\n      0xffffffffffffffff\n        /* \"#utility.yul\":12164:12170   */\n      dup2\n        /* \"#utility.yul\":12161:12191   */\n      gt\n        /* \"#utility.yul\":12158:12275   */\n      iszero\n      tag_374\n      jumpi\n        /* \"#utility.yul\":12194:12273   */\n      tag_375\n      tag_216\n      jump\t// in\n    tag_375:\n        /* \"#utility.yul\":12158:12275   */\n    tag_374:\n        /* \"#utility.yul\":12299:12362   */\n      tag_376\n        /* \"#utility.yul\":12354:12361   */\n      dup5\n        /* \"#utility.yul\":12345:12351   */\n      dup3\n        /* \"#utility.yul\":12334:12343   */\n      dup6\n        /* \"#utility.yul\":12330:12352   */\n      add\n        /* \"#utility.yul\":12299:12362   */\n      tag_241\n      jump\t// in\n    tag_376:\n        /* \"#utility.yul\":12289:12362   */\n      swap2\n      pop\n        /* \"#utility.yul\":12085:12372   */\n      pop\n        /* \"#utility.yul\":11870:12379   */\n      swap3\n      swap2\n      pop\n      pop\n      jump\t// out\n        /* \"#utility.yul\":12385:12565   */\n    tag_87:\n        /* \"#utility.yul\":12433:12510   */\n      0x4e487b7100000000000000000000000000000000000000000000000000000000\n        /* \"#utility.yul\":12430:12431   */\n      0x00\n        /* \"#utility.yul\":12423:12511   */\n      mstore\n        /* \"#utility.yul\":12530:12534   */\n      0x32\n        /* \"#utility.yul\":12527:12528   */\n      0x04\n        /* \"#utility.yul\":12520:12535   */\n      mstore\n        /* \"#utility.yul\":12554:12558   */\n      0x24\n        /* \"#utility.yul\":12551:12552   */\n      0x00\n        /* \"#utility.yul\":12544:12559   */\n      revert\n        /* \"#utility.yul\":12571:12751   */\n    tag_242:\n        /* \"#utility.yul\":12619:12696   */\n      0x4e487b7100000000000000000000000000000000000000000000000000000000\n        /* \"#utility.yul\":12616:12617   */\n      0x00\n        /* \"#utility.yul\":12609:12697   */\n      mstore\n        /* \"#utility.yul\":12716:12720   */\n      0x11\n        /* \"#utility.yul\":12713:12714   */\n      0x04\n        /* \"#utility.yul\":12706:12721   */\n      mstore\n        /* \"#utility.yul\":12740:12744   */\n      0x24\n        /* \"#utility.yul\":12737:12738   */\n      0x00\n        /* \"#utility.yul\":12730:12745   */\n      revert\n        /* \"#utility.yul\":12757:12948   */\n    tag_90:\n        /* \"#utility.yul\":12797:12800   */\n      0x00\n        /* \"#utility.yul\":12816:12836   */\n      tag_380\n        /* \"#utility.yul\":12834:12835   */\n      dup3\n        /* \"#utility.yul\":12816:12836   */\n      tag_204\n      jump\t// in\n    tag_380:\n        /* \"#utility.yul\":12811:12836   */\n      swap2\n      pop\n        /* \"#utility.yul\":12850:12870   */\n      tag_381\n        /* \"#utility.yul\":12868:12869   */\n      dup4\n        /* \"#utility.yul\":12850:12870   */\n      tag_204\n      jump\t// in\n    tag_381:\n        /* \"#utility.yul\":12845:12870   */\n      swap3\n      pop\n        /* \"#utility.yul\":12893:12894   */\n      dup3\n        /* \"#utility.yul\":12890:12891   */\n      dup3\n        /* \"#utility.yul\":12886:12895   */\n      add\n        /* \"#utility.yul\":12879:12895   */\n      swap1\n      pop\n        /* \"#utility.yul\":12914:12917   */\n      dup1\n        /* \"#utility.yul\":12911:12912   */\n      dup3\n        /* \"#utility.yul\":12908:12918   */\n      gt\n        /* \"#utility.yul\":12905:12941   */\n      iszero\n      tag_382\n      jumpi\n        /* \"#utility.yul\":12921:12939   */\n      tag_383\n      tag_242\n      jump\t// in\n    tag_383:\n        /* \"#utility.yul\":12905:12941   */\n    tag_382:\n        /* \"#utility.yul\":12757:12948   */\n      swap3\n      swap2\n      pop\n      pop\n      jump\t// out\n        /* \"#utility.yul\":12954:13187   */\n    tag_92:\n        /* \"#utility.yul\":12993:12996   */\n      0x00\n        /* \"#utility.yul\":13016:13040   */\n      tag_385\n        /* \"#utility.yul\":13034:13039   */\n      dup3\n        /* \"#utility.yul\":13016:13040   */\n      tag_204\n      jump\t// in\n    tag_385:\n        /* \"#utility.yul\":13007:13040   */\n      swap2\n      pop\n        /* \"#utility.yul\":13062:13128   */\n      0xffffffffffffffffffffffffffffffffffffffffffffffffffffffffffffffff\n        /* \"#utility.yul\":13055:13060   */\n      dup3\n        /* \"#utility.yul\":13052:13129   */\n      sub\n        /* \"#utility.yul\":13049:13152   */\n      tag_386\n      jumpi\n        /* \"#utility.yul\":13132:13150   */\n      tag_387\n      tag_242\n      jump\t// in\n    tag_387:\n        /* \"#utility.yul\":13049:13152   */\n    tag_386:\n        /* \"#utility.yul\":13179:13180   */\n      0x01\n        /* \"#utility.yul\":13172:13177   */\n      dup3\n        /* \"#utility.yul\":13168:13181   */\n      add\n        /* \"#utility.yul\":13161:13181   */\n      swap1\n      pop\n        /* \"#utility.yul\":12954:13187   */\n      swap2\n      swap1\n      pop\n      jump\t// out\n        /* \"#utility.yul\":13193:13367   */\n    tag_243:\n        /* \"#utility.yul\":13333:13359   */\n      0x5468657265206973206120746965206f6e2042616c6c6f740000000000000000\n        /* \"#utility.yul\":13329:13330   */\n      0x00\n        /* \"#utility.yul\":13321:13327   */\n      dup3\n        /* \"#utility.yul\":13317:13331   */\n      add\n        /* \"#utility.yul\":13310:13360   */\n      mstore\n        /* \"#utility.yul\":13193:13367   */\n      pop\n      jump\t// out\n        /* \"#utility.yul\":13373:13739   */\n    tag_244:\n        /* \"#utility.yul\":13515:13518   */\n      0x00\n        /* \"#utility.yul\":13536:13603   */\n      tag_390\n        /* \"#utility.yul\":13600:13602   */\n      0x18\n        /* \"#utility.yul\":13595:13598   */\n      dup4\n        /* \"#utility.yul\":13536:13603   */\n      tag_207\n      jump\t// in\n    tag_390:\n        /* \"#utility.yul\":13529:13603   */\n      swap2\n      pop\n        /* \"#utility.yul\":13612:13705   */\n      tag_391\n        /* \"#utility.yul\":13701:13704   */\n      dup3\n        /* \"#utility.yul\":13612:13705   */\n      tag_243\n      jump\t// in\n    tag_391:\n        /* \"#utility.yul\":13730:13732   */\n      0x20\n        /* \"#utility.yul\":13725:13728   */\n      dup3\n        /* \"#utility.yul\":13721:13733   */\n      add\n        /* \"#utility.yul\":13714:13733   */\n      swap1\n      pop\n        /* \"#utility.yul\":13373:13739   */\n      swap2\n      swap1\n      pop\n      jump\t// out\n        /* \"#utility.yul\":13745:14164   */\n    tag_97:\n        /* \"#utility.yul\":13911:13915   */\n      0x00\n        /* \"#utility.yul\":13949:13951   */\n      0x20\n        /* \"#utility.yul\":13938:13947   */\n      dup3\n        /* \"#utility.yul\":13934:13952   */\n      add\n        /* \"#utility.yul\":13926:13952   */\n      swap1\n      pop\n        /* \"#utility.yul\":13998:14007   */\n      dup2\n        /* \"#utility.yul\":13992:13996   */\n      dup2\n        /* \"#utility.yul\":13988:14008   */\n      sub\n        /* \"#utility.yul\":13984:13985   */\n      0x00\n        /* \"#utility.yul\":13973:13982   */\n      dup4\n        /* \"#utility.yul\":13969:13986   */\n      add\n        /* \"#utility.yul\":13962:14009   */\n      mstore\n        /* \"#utility.yul\":14026:14157   */\n      tag_393\n        /* \"#utility.yul\":14152:14156   */\n      dup2\n        /* \"#utility.yul\":14026:14157   */\n      tag_244\n      jump\t// in\n    tag_393:\n        /* \"#utility.yul\":14018:14157   */\n      swap1\n      pop\n        /* \"#utility.yul\":13745:14164   */\n      swap2\n      swap1\n      pop\n      jump\t// out\n        /* \"#utility.yul\":14170:14350   */\n    tag_245:\n        /* \"#utility.yul\":14218:14295   */\n      0x4e487b7100000000000000000000000000000000000000000000000000000000\n        /* \"#utility.yul\":14215:14216   */\n      0x00\n        /* \"#utility.yul\":14208:14296   */\n      mstore\n        /* \"#utility.yul\":14315:14319   */\n      0x22\n        /* \"#utility.yul\":14312:14313   */\n      0x04\n        /* \"#utility.yul\":14305:14320   */\n      mstore\n        /* \"#utility.yul\":14339:14343   */\n      0x24\n        /* \"#utility.yul\":14336:14337   */\n      0x00\n        /* \"#utility.yul\":14329:14344   */\n      revert\n        /* \"#utility.yul\":14356:14676   */\n    tag_102:\n        /* \"#utility.yul\":14400:14406   */\n      0x00\n        /* \"#utility.yul\":14437:14438   */\n      0x02\n        /* \"#utility.yul\":14431:14435   */\n      dup3\n        /* \"#utility.yul\":14427:14439   */\n      div\n        /* \"#utility.yul\":14417:14439   */\n      swap1\n      pop\n        /* \"#utility.yul\":14484:14485   */\n      0x01\n        /* \"#utility.yul\":14478:14482   */\n      dup3\n        /* \"#utility.yul\":14474:14486   */\n      and\n        /* \"#utility.yul\":14505:14523   */\n      dup1\n        /* \"#utility.yul\":14495:14576   */\n      tag_396\n      jumpi\n        /* \"#utility.yul\":14561:14565   */\n      0x7f\n        /* \"#utility.yul\":14553:14559   */\n      dup3\n        /* \"#utility.yul\":14549:14566   */\n      and\n        /* \"#utility.yul\":14539:14566   */\n      swap2\n      pop\n        /* \"#utility.yul\":14495:14576   */\n    tag_396:\n        /* \"#utility.yul\":14623:14625   */\n      0x20\n        /* \"#utility.yul\":14615:14621   */\n      dup3\n        /* \"#utility.yul\":14612:14626   */\n      lt\n        /* \"#utility.yul\":14592:14610   */\n      dup2\n        /* \"#utility.yul\":14589:14627   */\n      sub\n        /* \"#utility.yul\":14586:14670   */\n      tag_397\n      jumpi\n        /* \"#utility.yul\":14642:14660   */\n      tag_398\n      tag_245\n      jump\t// in\n    tag_398:\n        /* \"#utility.yul\":14586:14670   */\n    tag_397:\n        /* \"#utility.yul\":14407:14676   */\n      pop\n        /* \"#utility.yul\":14356:14676   */\n      swap2\n      swap1\n      pop\n      jump\t// out\n        /* \"#utility.yul\":14682:14916   */\n    tag_246:\n        /* \"#utility.yul\":14822:14856   */\n      0x4f6e6c792074686520636f6e7472616374206f776e65722063616e2067697665\n        /* \"#utility.yul\":14818:14819   */\n      0x00\n        /* \"#utility.yul\":14810:14816   */\n      dup3\n        /* \"#utility.yul\":14806:14820   */\n      add\n        /* \"#utility.yul\":14799:14857   */\n      mstore\n        /* \"#utility.yul\":14891:14908   */\n      0x20726967687420746f20766f74652e0000000000000000000000000000000000\n        /* \"#utility.yul\":14886:14888   */\n      0x20\n        /* \"#utility.yul\":14878:14884   */\n      dup3\n        /* \"#utility.yul\":14874:14889   */\n      add\n        /* \"#utility.yul\":14867:14909   */\n      mstore\n        /* \"#utility.yul\":14682:14916   */\n      pop\n      jump\t// out\n        /* \"#utility.yul\":14922:15288   */\n    tag_247:\n        /* \"#utility.yul\":15064:15067   */\n      0x00\n        /* \"#utility.yul\":15085:15152   */\n      tag_401\n        /* \"#utility.yul\":15149:15151   */\n      0x2f\n        /* \"#utility.yul\":15144:15147   */\n      dup4\n        /* \"#utility.yul\":15085:15152   */\n      tag_207\n      jump\t// in\n    tag_401:\n        /* \"#utility.yul\":15078:15152   */\n      swap2\n      pop\n        /* \"#utility.yul\":15161:15254   */\n      tag_402\n        /* \"#utility.yul\":15250:15253   */\n      dup3\n        /* \"#utility.yul\":15161:15254   */\n      tag_246\n      jump\t// in\n    tag_402:\n        /* \"#utility.yul\":15279:15281   */\n      0x40\n        /* \"#utility.yul\":15274:15277   */\n      dup3\n        /* \"#utility.yul\":15270:15282   */\n      add\n        /* \"#utility.yul\":15263:15282   */\n      swap1\n      pop\n        /* \"#utility.yul\":14922:15288   */\n      swap2\n      swap1\n      pop\n      jump\t// out\n        /* \"#utility.yul\":15294:15713   */\n    tag_140:\n        /* \"#utility.yul\":15460:15464   */\n      0x00\n        /* \"#utility.yul\":15498:15500   */\n      0x20\n        /* \"#utility.yul\":15487:15496   */\n      dup3\n        /* \"#utility.yul\":15483:15501   */\n      add\n        /* \"#utility.yul\":15475:15501   */\n      swap1\n      pop\n        /* \"#utility.yul\":15547:15556   */\n      dup2\n        /* \"#utility.yul\":15541:15545   */\n      dup2\n        /* \"#utility.yul\":15537:15557   */\n      sub\n        /* \"#utility.yul\":15533:15534   */\n      0x00\n        /* \"#utility.yul\":15522:15531   */\n      dup4\n        /* \"#utility.yul\":15518:15535   */\n      add\n        /* \"#utility.yul\":15511:15558   */\n      mstore\n        /* \"#utility.yul\":15575:15706   */\n      tag_404\n        /* \"#utility.yul\":15701:15705   */\n      dup2\n        /* \"#utility.yul\":15575:15706   */\n      tag_247\n      jump\t// in\n    tag_404:\n        /* \"#utility.yul\":15567:15706   */\n      swap1\n      pop\n        /* \"#utility.yul\":15294:15713   */\n      swap2\n      swap1\n      pop\n      jump\t// out\n        /* \"#utility.yul\":15719:15897   */\n    tag_248:\n        /* \"#utility.yul\":15859:15889   */\n      0x4d6178206163636f756e7420766f746573206973207265616368656400000000\n        /* \"#utility.yul\":15855:15856   */\n      0x00\n        /* \"#utility.yul\":15847:15853   */\n      dup3\n        /* \"#utility.yul\":15843:15857   */\n      add\n        /* \"#utility.yul\":15836:15890   */\n      mstore\n        /* \"#utility.yul\":15719:15897   */\n      pop\n      jump\t// out\n        /* \"#utility.yul\":15903:16269   */\n    tag_249:\n        /* \"#utility.yul\":16045:16048   */\n      0x00\n        /* \"#utility.yul\":16066:16133   */\n      tag_407\n        /* \"#utility.yul\":16130:16132   */\n      0x1c\n        /* \"#utility.yul\":16125:16128   */\n      dup4\n        /* \"#utility.yul\":16066:16133   */\n      tag_207\n      jump\t// in\n    tag_407:\n        /* \"#utility.yul\":16059:16133   */\n      swap2\n      pop\n        /* \"#utility.yul\":16142:16235   */\n      tag_408\n        /* \"#utility.yul\":16231:16234   */\n      dup3\n        /* \"#utility.yul\":16142:16235   */\n      tag_248\n      jump\t// in\n    tag_408:\n        /* \"#utility.yul\":16260:16262   */\n      0x20\n        /* \"#utility.yul\":16255:16258   */\n      dup3\n        /* \"#utility.yul\":16251:16263   */\n      add\n        /* \"#utility.yul\":16244:16263   */\n      swap1\n      pop\n        /* \"#utility.yul\":15903:16269   */\n      swap2\n      swap1\n      pop\n      jump\t// out\n        /* \"#utility.yul\":16275:16694   */\n    tag_169:\n        /* \"#utility.yul\":16441:16445   */\n      0x00\n        /* \"#utility.yul\":16479:16481   */\n      0x20\n        /* \"#utility.yul\":16468:16477   */\n      dup3\n        /* \"#utility.yul\":16464:16482   */\n      add\n        /* \"#utility.yul\":16456:16482   */\n      swap1\n      pop\n        /* \"#utility.yul\":16528:16537   */\n      dup2\n        /* \"#utility.yul\":16522:16526   */\n      dup2\n        /* \"#utility.yul\":16518:16538   */\n      sub\n        /* \"#utility.yul\":16514:16515   */\n      0x00\n        /* \"#utility.yul\":16503:16512   */\n      dup4\n        /* \"#utility.yul\":16499:16516   */\n      add\n        /* \"#utility.yul\":16492:16539   */\n      mstore\n        /* \"#utility.yul\":16556:16687   */\n      tag_410\n        /* \"#utility.yul\":16682:16686   */\n      dup2\n        /* \"#utility.yul\":16556:16687   */\n      tag_249\n      jump\t// in\n    tag_410:\n        /* \"#utility.yul\":16548:16687   */\n      swap1\n      pop\n        /* \"#utility.yul\":16275:16694   */\n      swap2\n      swap1\n      pop\n      jump\t// out\n        /* \"#utility.yul\":16700:16876   */\n    tag_250:\n        /* \"#utility.yul\":16840:16868   */\n      0x596f752068617665206e6f7420726967687420746f20766f7465000000000000\n        /* \"#utility.yul\":16836:16837   */\n      0x00\n        /* \"#utility.yul\":16828:16834   */\n      dup3\n        /* \"#utility.yul\":16824:16838   */\n      add\n        /* \"#utility.yul\":16817:16869   */\n      mstore\n        /* \"#utility.yul\":16700:16876   */\n      pop\n      jump\t// out\n        /* \"#utility.yul\":16882:17248   */\n    tag_251:\n        /* \"#utility.yul\":17024:17027   */\n      0x00\n        /* \"#utility.yul\":17045:17112   */\n      tag_413\n        /* \"#utility.yul\":17109:17111   */\n      0x1a\n        /* \"#utility.yul\":17104:17107   */\n      dup4\n        /* \"#utility.yul\":17045:17112   */\n      tag_207\n      jump\t// in\n    tag_413:\n        /* \"#utility.yul\":17038:17112   */\n      swap2\n      pop\n        /* \"#utility.yul\":17121:17214   */\n      tag_414\n        /* \"#utility.yul\":17210:17213   */\n      dup3\n        /* \"#utility.yul\":17121:17214   */\n      tag_250\n      jump\t// in\n    tag_414:\n        /* \"#utility.yul\":17239:17241   */\n      0x20\n        /* \"#utility.yul\":17234:17237   */\n      dup3\n        /* \"#utility.yul\":17230:17242   */\n      add\n        /* \"#utility.yul\":17223:17242   */\n      swap1\n      pop\n        /* \"#utility.yul\":16882:17248   */\n      swap2\n      swap1\n      pop\n      jump\t// out\n        /* \"#utility.yul\":17254:17673   */\n    tag_173:\n        /* \"#utility.yul\":17420:17424   */\n      0x00\n        /* \"#utility.yul\":17458:17460   */\n      0x20\n        /* \"#utility.yul\":17447:17456   */\n      dup3\n        /* \"#utility.yul\":17443:17461   */\n      add\n        /* \"#utility.yul\":17435:17461   */\n      swap1\n      pop\n        /* \"#utility.yul\":17507:17516   */\n      dup2\n        /* \"#utility.yul\":17501:17505   */\n      dup2\n        /* \"#utility.yul\":17497:17517   */\n      sub\n        /* \"#utility.yul\":17493:17494   */\n      0x00\n        /* \"#utility.yul\":17482:17491   */\n      dup4\n        /* \"#utility.yul\":17478:17495   */\n      add\n        /* \"#utility.yul\":17471:17518   */\n      mstore\n        /* \"#utility.yul\":17535:17666   */\n      tag_416\n        /* \"#utility.yul\":17661:17665   */\n      dup2\n        /* \"#utility.yul\":17535:17666   */\n      tag_251\n      jump\t// in\n    tag_416:\n        /* \"#utility.yul\":17527:17666   */\n      swap1\n      pop\n        /* \"#utility.yul\":17254:17673   */\n      swap2\n      swap1\n      pop\n      jump\t// out\n        /* \"#utility.yul\":17679:17849   */\n    tag_252:\n        /* \"#utility.yul\":17819:17841   */\n      0x566f74657220616c726561647920766f7465642e000000000000000000000000\n        /* \"#utility.yul\":17815:17816   */\n      0x00\n        /* \"#utility.yul\":17807:17813   */\n      dup3\n        /* \"#utility.yul\":17803:17817   */\n      add\n        /* \"#utility.yul\":17796:17842   */\n      mstore\n        /* \"#utility.yul\":17679:17849   */\n      pop\n      jump\t// out\n        /* \"#utility.yul\":17855:18221   */\n    tag_253:\n        /* \"#utility.yul\":17997:18000   */\n      0x00\n        /* \"#utility.yul\":18018:18085   */\n      tag_419\n        /* \"#utility.yul\":18082:18084   */\n      0x14\n        /* \"#utility.yul\":18077:18080   */\n      dup4\n        /* \"#utility.yul\":18018:18085   */\n      tag_207\n      jump\t// in\n    tag_419:\n        /* \"#utility.yul\":18011:18085   */\n      swap2\n      pop\n        /* \"#utility.yul\":18094:18187   */\n      tag_420\n        /* \"#utility.yul\":18183:18186   */\n      dup3\n        /* \"#utility.yul\":18094:18187   */\n      tag_252\n      jump\t// in\n    tag_420:\n        /* \"#utility.yul\":18212:18214   */\n      0x20\n        /* \"#utility.yul\":18207:18210   */\n      dup3\n        /* \"#utility.yul\":18203:18215   */\n      add\n        /* \"#utility.yul\":18196:18215   */\n      swap1\n      pop\n        /* \"#utility.yul\":17855:18221   */\n      swap2\n      swap1\n      pop\n      jump\t// out\n        /* \"#utility.yul\":18227:18646   */\n    tag_200:\n        /* \"#utility.yul\":18393:18397   */\n      0x00\n        /* \"#utility.yul\":18431:18433   */\n      0x20\n        /* \"#utility.yul\":18420:18429   */\n      dup3\n        /* \"#utility.yul\":18416:18434   */\n      add\n        /* \"#utility.yul\":18408:18434   */\n      swap1\n      pop\n        /* \"#utility.yul\":18480:18489   */\n      dup2\n        /* \"#utility.yul\":18474:18478   */\n      dup2\n        /* \"#utility.yul\":18470:18490   */\n      sub\n        /* \"#utility.yul\":18466:18467   */\n      0x00\n        /* \"#utility.yul\":18455:18464   */\n      dup4\n        /* \"#utility.yul\":18451:18468   */\n      add\n        /* \"#utility.yul\":18444:18491   */\n      mstore\n        /* \"#utility.yul\":18508:18639   */\n      tag_422\n        /* \"#utility.yul\":18634:18638   */\n      dup2\n        /* \"#utility.yul\":18508:18639   */\n      tag_253\n      jump\t// in\n    tag_422:\n        /* \"#utility.yul\":18500:18639   */\n      swap1\n      pop\n        /* \"#utility.yul\":18227:18646   */\n      swap2\n      swap1\n      pop\n      jump\t// out\n\n    auxdata: 0xa2646970667358221220e7635494cc69453e7c0515d11122f47372ce22c143ac41fefaa06956ac0a816e64736f6c63430008110033\n}\n",
				"bytecode": {
					"linkReferences": {},
					"object": "60806040523480156200001157600080fd5b5060405162001fee38038062001fee8339818101604052810190620000379190620004f0565b336000806101000a81548173ffffffffffffffffffffffffffffffffffffffff021916908373ffffffffffffffffffffffffffffffffffffffff16021790555060005b82518110156200015f5760026040518060600160405280858481518110620000a757620000a662000556565b5b6020026020010151600001518152602001858481518110620000ce57620000cd62000556565b5b6020026020010151602001518152602001600081525090806001815401808255809150506001900390600052602060002090600302016000909190919091506000820151816000019081620001249190620007c6565b5060208201518160010190816200013c9190620007c6565b5060408201518160020155505080806200015690620008dc565b9150506200007a565b5080600481905550505062000929565b6000604051905090565b600080fd5b600080fd5b600080fd5b6000601f19601f8301169050919050565b7f4e487b7100000000000000000000000000000000000000000000000000000000600052604160045260246000fd5b620001d38262000188565b810181811067ffffffffffffffff82111715620001f557620001f462000199565b5b80604052505050565b60006200020a6200016f565b9050620002188282620001c8565b919050565b600067ffffffffffffffff8211156200023b576200023a62000199565b5b602082029050602081019050919050565b600080fd5b600080fd5b600080fd5b600080fd5b600067ffffffffffffffff8211156200027e576200027d62000199565b5b620002898262000188565b9050602081019050919050565b60005b83811015620002b657808201518184015260208101905062000299565b60008484015250505050565b6000620002d9620002d38462000260565b620001fe565b905082815260208101848484011115620002f857620002f76200025b565b5b6200030584828562000296565b509392505050565b600082601f83011262000325576200032462000183565b5b815162000337848260208601620002c2565b91505092915050565b6000819050919050565b620003558162000340565b81146200036157600080fd5b50565b60008151905062000375816200034a565b92915050565b60006060828403121562000394576200039362000251565b5b620003a06060620001fe565b9050600082015167ffffffffffffffff811115620003c357620003c262000256565b5b620003d1848285016200030d565b600083015250602082015167ffffffffffffffff811115620003f857620003f762000256565b5b62000406848285016200030d565b60208301525060406200041c8482850162000364565b60408301525092915050565b60006200043f62000439846200021d565b620001fe565b905080838252602082019050602084028301858111156200046557620004646200024c565b5b835b81811015620004b357805167ffffffffffffffff8111156200048e576200048d62000183565b5b8086016200049d89826200037b565b8552602085019450505060208101905062000467565b5050509392505050565b600082601f830112620004d557620004d462000183565b5b8151620004e784826020860162000428565b91505092915050565b600080604083850312156200050a576200050962000179565b5b600083015167ffffffffffffffff8111156200052b576200052a6200017e565b5b6200053985828601620004bd565b92505060206200054c8582860162000364565b9150509250929050565b7f4e487b7100000000000000000000000000000000000000000000000000000000600052603260045260246000fd5b600081519050919050565b7f4e487b7100000000000000000000000000000000000000000000000000000000600052602260045260246000fd5b60006002820490506001821680620005d857607f821691505b602082108103620005ee57620005ed62000590565b5b50919050565b60008190508160005260206000209050919050565b60006020601f8301049050919050565b600082821b905092915050565b600060088302620006587fffffffffffffffffffffffffffffffffffffffffffffffffffffffffffffffff8262000619565b62000664868362000619565b95508019841693508086168417925050509392505050565b6000819050919050565b6000620006a7620006a16200069b8462000340565b6200067c565b62000340565b9050919050565b6000819050919050565b620006c38362000686565b620006db620006d282620006ae565b84845462000626565b825550505050565b600090565b620006f2620006e3565b620006ff818484620006b8565b505050565b5b8181101562000727576200071b600082620006e8565b60018101905062000705565b5050565b601f82111562000776576200074081620005f4565b6200074b8462000609565b810160208510156200075b578190505b620007736200076a8562000609565b83018262000704565b50505b505050565b600082821c905092915050565b60006200079b600019846008026200077b565b1980831691505092915050565b6000620007b6838362000788565b9150826002028217905092915050565b620007d18262000585565b67ffffffffffffffff811115620007ed57620007ec62000199565b5b620007f98254620005bf565b620008068282856200072b565b600060209050601f8311600181146200083e576000841562000829578287015190505b620008358582620007a8565b865550620008a5565b601f1984166200084e86620005f4565b60005b82811015620008785784890151825560018201915060208501945060208101905062000851565b8683101562000898578489015162000894601f89168262000788565b8355505b6001600288020188555050505b505050505050565b7f4e487b7100000000000000000000000000000000000000000000000000000000600052601160045260246000fd5b6000620008e98262000340565b91507fffffffffffffffffffffffffffffffffffffffffffffffffffffffffffffffff82036200091e576200091d620008ad565b5b600182019050919050565b6116b580620009396000396000f3fe608060405234801561001057600080fd5b50600436106100f55760003560e01c80639e7b8d6111610097578063df70362211610066578063df7036221461027b578063f0ee457714610299578063f927cc29146102c9578063fc36e15b146102e8576100f5565b80639e7b8d61146101f2578063a3ec138d1461020e578063ce606ee01461023f578063da2654301461025d576100f5565b80633477ee2e116100d35780633477ee2e146101545780633ddf3822146101865780634aba5f34146101a457806394b04e7d146101c2576100f5565b806301c5556a146100fa5780632bfda5151461011857806332a2c5d014610136575b600080fd5b610102610304565b60405161010f9190610d35565b60405180910390f35b610120610363565b60405161012d9190610de0565b60405180910390f35b61013e61046a565b60405161014b9190610e43565b60405180910390f35b61016e60048036038101906101699190610e9e565b610472565b60405161017d93929190610ecb565b60405180910390f35b61018e6105bc565b60405161019b9190610f2b565b60405180910390f35b6101ac610613565b6040516101b991906110b8565b60405180910390f35b6101dc60048036038101906101d79190611106565b6107a0565b6040516101e99190610f2b565b60405180910390f35b61020c60048036038101906102079190611106565b6107f9565b005b61022860048036038101906102239190611106565b6108a8565b604051610236929190611133565b60405180910390f35b6102476108e6565b6040516102549190610e43565b60405180910390f35b61026561090a565b6040516102729190610f2b565b60405180910390f35b61028361091a565b6040516102909190610f2b565b60405180910390f35b6102b360048036038101906102ae9190611106565b61092a565b6040516102c09190610f2b565b60405180910390f35b6102d1610983565b6040516102df92919061115c565b60405180910390f35b61030260048036038101906102fd91906112ba565b610a47565b005b600080600090505b60028054905081101561035f576002818154811061032d5761032c611303565b5b9060005260206000209060030201600201548261034a9190611361565b9150808061035790611395565b91505061030c565b5090565b6060600080610370610983565b9150915080156103b5576040517f08c379a00000000000000000000000000000000000000000000000000000000081526004016103ac90611429565b60405180910390fd5b600282815481106103c9576103c8611303565b5b906000526020600020906003020160000180546103e590611478565b80601f016020809104026020016040519081016040528092919081815260200182805461041190611478565b801561045e5780601f106104335761010080835404028352916020019161045e565b820191906000526020600020905b81548152906001019060200180831161044157829003601f168201915b50505050509250505090565b600030905090565b6002818154811061048257600080fd5b90600052602060002090600302016000915090508060000180546104a590611478565b80601f01602080910402602001604051908101604052809291908181526020018280546104d190611478565b801561051e5780601f106104f35761010080835404028352916020019161051e565b820191906000526020600020905b81548152906001019060200180831161050157829003601f168201915b50505050509080600101805461053390611478565b80601f016020809104026020016040519081016040528092919081815260200182805461055f90611478565b80156105ac5780601f10610581576101008083540402835291602001916105ac565b820191906000526020600020905b81548152906001019060200180831161058f57829003601f168201915b5050505050908060020154905083565b60008060009054906101000a900473ffffffffffffffffffffffffffffffffffffffff1673ffffffffffffffffffffffffffffffffffffffff163373ffffffffffffffffffffffffffffffffffffffff1614905090565b60606002805480602002602001604051908101604052809291908181526020016000905b82821015610797578382906000526020600020906003020160405180606001604052908160008201805461066a90611478565b80601f016020809104026020016040519081016040528092919081815260200182805461069690611478565b80156106e35780601f106106b8576101008083540402835291602001916106e3565b820191906000526020600020905b8154815290600101906020018083116106c657829003601f168201915b505050505081526020016001820180546106fc90611478565b80601f016020809104026020016040519081016040528092919081815260200182805461072890611478565b80156107755780601f1061074a57610100808354040283529160200191610775565b820191906000526020600020905b81548152906001019060200180831161075857829003601f168201915b5050505050815260200160028201548152505081526020019060010190610637565b50505050905090565b6000600160008373ffffffffffffffffffffffffffffffffffffffff1673ffffffffffffffffffffffffffffffffffffffff16815260200190815260200160002060000160009054906101000a900460ff169050919050565b806108026105bc565b610841576040517f08c379a00000000000000000000000000000000000000000000000000000000081526004016108389061151b565b60405180910390fd5b61084a81610c77565b60018060008473ffffffffffffffffffffffffffffffffffffffff1673ffffffffffffffffffffffffffffffffffffffff16815260200190815260200160002060000160006101000a81548160ff0219169083151502179055505050565b60016020528060005260406000206000915090508060000160009054906101000a900460ff16908060000160019054906101000a900460ff16905082565b60008054906101000a900473ffffffffffffffffffffffffffffffffffffffff1681565b60006109153361092a565b905090565b6000610925336107a0565b905090565b6000600160008373ffffffffffffffffffffffffffffffffffffffff1673ffffffffffffffffffffffffffffffffffffffff16815260200190815260200160002060000160019054906101000a900460ff169050919050565b600080600080600090505b600280549050811015610a415781600282815481106109b0576109af611303565b5b90600052602060002090600302016002015411156109fc57600281815481106109dc576109db611303565b5b906000526020600020906003020160020154915080935060009250610a2e565b8160028281548110610a1157610a10611303565b5b90600052602060002090600302016002015403610a2d57600192505b5b8080610a3990611395565b91505061098e565b50509091565b3360045460035410610a8e576040517f08c379a0000000000000000000000000000000000000000000000000000000008152600401610a8590611587565b60405180910390fd5b610a9661091a565b610ad5576040517f08c379a0000000000000000000000000000000000000000000000000000000008152600401610acc906115f3565b60405180910390fd5b610ade81610c77565b6000600160003373ffffffffffffffffffffffffffffffffffffffff1673ffffffffffffffffffffffffffffffffffffffff168152602001908152602001600020905060005b600280549050811015610c7157610be860028281548110610b4857610b47611303565b5b90600052602060002090600302016000018054610b6490611478565b80601f0160208091040260200160405190810160405280929190818152602001828054610b9090611478565b8015610bdd5780601f10610bb257610100808354040283529160200191610bdd565b820191906000526020600020905b815481529060010190602001808311610bc057829003601f168201915b505050505085610cc3565b15610c5e5760028181548110610c0157610c00611303565b5b90600052602060002090600302016002016000815480929190610c2390611395565b919050555060018260000160016101000a81548160ff02191690831515021790555060036000815480929190610c5890611395565b91905055505b8080610c6990611395565b915050610b24565b50505050565b610c808161092a565b15610cc0576040517f08c379a0000000000000000000000000000000000000000000000000000000008152600401610cb79061165f565b60405180910390fd5b50565b600081604051602001610cd69190610de0565b6040516020818303038152906040528051906020012083604051602001610cfd9190610de0565b6040516020818303038152906040528051906020012014905092915050565b6000819050919050565b610d2f81610d1c565b82525050565b6000602082019050610d4a6000830184610d26565b92915050565b600081519050919050565b600082825260208201905092915050565b60005b83811015610d8a578082015181840152602081019050610d6f565b60008484015250505050565b6000601f19601f8301169050919050565b6000610db282610d50565b610dbc8185610d5b565b9350610dcc818560208601610d6c565b610dd581610d96565b840191505092915050565b60006020820190508181036000830152610dfa8184610da7565b905092915050565b600073ffffffffffffffffffffffffffffffffffffffff82169050919050565b6000610e2d82610e02565b9050919050565b610e3d81610e22565b82525050565b6000602082019050610e586000830184610e34565b92915050565b6000604051905090565b600080fd5b600080fd5b610e7b81610d1c565b8114610e8657600080fd5b50565b600081359050610e9881610e72565b92915050565b600060208284031215610eb457610eb3610e68565b5b6000610ec284828501610e89565b91505092915050565b60006060820190508181036000830152610ee58186610da7565b90508181036020830152610ef98185610da7565b9050610f086040830184610d26565b949350505050565b60008115159050919050565b610f2581610f10565b82525050565b6000602082019050610f406000830184610f1c565b92915050565b600081519050919050565b600082825260208201905092915050565b6000819050602082019050919050565b600082825260208201905092915050565b6000610f8e82610d50565b610f988185610f72565b9350610fa8818560208601610d6c565b610fb181610d96565b840191505092915050565b610fc581610d1c565b82525050565b60006060830160008301518482036000860152610fe88282610f83565b915050602083015184820360208601526110028282610f83565b91505060408301516110176040860182610fbc565b508091505092915050565b600061102e8383610fcb565b905092915050565b6000602082019050919050565b600061104e82610f46565b6110588185610f51565b93508360208202850161106a85610f62565b8060005b858110156110a657848403895281516110878582611022565b945061109283611036565b925060208a0199505060018101905061106e565b50829750879550505050505092915050565b600060208201905081810360008301526110d28184611043565b905092915050565b6110e381610e22565b81146110ee57600080fd5b50565b600081359050611100816110da565b92915050565b60006020828403121561111c5761111b610e68565b5b600061112a848285016110f1565b91505092915050565b60006040820190506111486000830185610f1c565b6111556020830184610f1c565b9392505050565b60006040820190506111716000830185610d26565b61117e6020830184610f1c565b9392505050565b600080fd5b600080fd5b7f4e487b7100000000000000000000000000000000000000000000000000000000600052604160045260246000fd5b6111c782610d96565b810181811067ffffffffffffffff821117156111e6576111e561118f565b5b80604052505050565b60006111f9610e5e565b905061120582826111be565b919050565b600067ffffffffffffffff8211156112255761122461118f565b5b61122e82610d96565b9050602081019050919050565b82818337600083830152505050565b600061125d6112588461120a565b6111ef565b9050828152602081018484840111156112795761127861118a565b5b61128484828561123b565b509392505050565b600082601f8301126112a1576112a0611185565b5b81356112b184826020860161124a565b91505092915050565b6000602082840312156112d0576112cf610e68565b5b600082013567ffffffffffffffff8111156112ee576112ed610e6d565b5b6112fa8482850161128c565b91505092915050565b7f4e487b7100000000000000000000000000000000000000000000000000000000600052603260045260246000fd5b7f4e487b7100000000000000000000000000000000000000000000000000000000600052601160045260246000fd5b600061136c82610d1c565b915061137783610d1c565b925082820190508082111561138f5761138e611332565b5b92915050565b60006113a082610d1c565b91507fffffffffffffffffffffffffffffffffffffffffffffffffffffffffffffffff82036113d2576113d1611332565b5b600182019050919050565b7f5468657265206973206120746965206f6e2042616c6c6f740000000000000000600082015250565b6000611413601883610d5b565b915061141e826113dd565b602082019050919050565b6000602082019050818103600083015261144281611406565b9050919050565b7f4e487b7100000000000000000000000000000000000000000000000000000000600052602260045260246000fd5b6000600282049050600182168061149057607f821691505b6020821081036114a3576114a2611449565b5b50919050565b7f4f6e6c792074686520636f6e7472616374206f776e65722063616e206769766560008201527f20726967687420746f20766f74652e0000000000000000000000000000000000602082015250565b6000611505602f83610d5b565b9150611510826114a9565b604082019050919050565b60006020820190508181036000830152611534816114f8565b9050919050565b7f4d6178206163636f756e7420766f746573206973207265616368656400000000600082015250565b6000611571601c83610d5b565b915061157c8261153b565b602082019050919050565b600060208201905081810360008301526115a081611564565b9050919050565b7f596f752068617665206e6f7420726967687420746f20766f7465000000000000600082015250565b60006115dd601a83610d5b565b91506115e8826115a7565b602082019050919050565b6000602082019050818103600083015261160c816115d0565b9050919050565b7f566f74657220616c726561647920766f7465642e000000000000000000000000600082015250565b6000611649601483610d5b565b915061165482611613565b602082019050919050565b600060208201905081810360008301526116788161163c565b905091905056fea2646970667358221220e7635494cc69453e7c0515d11122f47372ce22c143ac41fefaa06956ac0a816e64736f6c63430008110033",
					"opcodes": "PUSH1 0x80 PUSH1 0x40 MSTORE CALLVALUE DUP1 ISZERO PUSH3 0x11 JUMPI PUSH1 0x0 DUP1 REVERT JUMPDEST POP PUSH1 0x40 MLOAD PUSH3 0x1FEE CODESIZE SUB DUP1 PUSH3 0x1FEE DUP4 CODECOPY DUP2 DUP2 ADD PUSH1 0x40 MSTORE DUP2 ADD SWAP1 PUSH3 0x37 SWAP2 SWAP1 PUSH3 0x4F0 JUMP JUMPDEST CALLER PUSH1 0x0 DUP1 PUSH2 0x100 EXP DUP2 SLOAD DUP2 PUSH20 0xFFFFFFFFFFFFFFFFFFFFFFFFFFFFFFFFFFFFFFFF MUL NOT AND SWAP1 DUP4 PUSH20 0xFFFFFFFFFFFFFFFFFFFFFFFFFFFFFFFFFFFFFFFF AND MUL OR SWAP1 SSTORE POP PUSH1 0x0 JUMPDEST DUP3 MLOAD DUP2 LT ISZERO PUSH3 0x15F JUMPI PUSH1 0x2 PUSH1 0x40 MLOAD DUP1 PUSH1 0x60 ADD PUSH1 0x40 MSTORE DUP1 DUP6 DUP5 DUP2 MLOAD DUP2 LT PUSH3 0xA7 JUMPI PUSH3 0xA6 PUSH3 0x556 JUMP JUMPDEST JUMPDEST PUSH1 0x20 MUL PUSH1 0x20 ADD ADD MLOAD PUSH1 0x0 ADD MLOAD DUP2 MSTORE PUSH1 0x20 ADD DUP6 DUP5 DUP2 MLOAD DUP2 LT PUSH3 0xCE JUMPI PUSH3 0xCD PUSH3 0x556 JUMP JUMPDEST JUMPDEST PUSH1 0x20 MUL PUSH1 0x20 ADD ADD MLOAD PUSH1 0x20 ADD MLOAD DUP2 MSTORE PUSH1 0x20 ADD PUSH1 0x0 DUP2 MSTORE POP SWAP1 DUP1 PUSH1 0x1 DUP2 SLOAD ADD DUP1 DUP3 SSTORE DUP1 SWAP2 POP POP PUSH1 0x1 SWAP1 SUB SWAP1 PUSH1 0x0 MSTORE PUSH1 0x20 PUSH1 0x0 KECCAK256 SWAP1 PUSH1 0x3 MUL ADD PUSH1 0x0 SWAP1 SWAP2 SWAP1 SWAP2 SWAP1 SWAP2 POP PUSH1 0x0 DUP3 ADD MLOAD DUP2 PUSH1 0x0 ADD SWAP1 DUP2 PUSH3 0x124 SWAP2 SWAP1 PUSH3 0x7C6 JUMP JUMPDEST POP PUSH1 0x20 DUP3 ADD MLOAD DUP2 PUSH1 0x1 ADD SWAP1 DUP2 PUSH3 0x13C SWAP2 SWAP1 PUSH3 0x7C6 JUMP JUMPDEST POP PUSH1 0x40 DUP3 ADD MLOAD DUP2 PUSH1 0x2 ADD SSTORE POP POP DUP1 DUP1 PUSH3 0x156 SWAP1 PUSH3 0x8DC JUMP JUMPDEST SWAP2 POP POP PUSH3 0x7A JUMP JUMPDEST POP DUP1 PUSH1 0x4 DUP2 SWAP1 SSTORE POP POP POP PUSH3 0x929 JUMP JUMPDEST PUSH1 0x0 PUSH1 0x40 MLOAD SWAP1 POP SWAP1 JUMP JUMPDEST PUSH1 0x0 DUP1 REVERT JUMPDEST PUSH1 0x0 DUP1 REVERT JUMPDEST PUSH1 0x0 DUP1 REVERT JUMPDEST PUSH1 0x0 PUSH1 0x1F NOT PUSH1 0x1F DUP4 ADD AND SWAP1 POP SWAP2 SWAP1 POP JUMP JUMPDEST PUSH32 0x4E487B7100000000000000000000000000000000000000000000000000000000 PUSH1 0x0 MSTORE PUSH1 0x41 PUSH1 0x4 MSTORE PUSH1 0x24 PUSH1 0x0 REVERT JUMPDEST PUSH3 0x1D3 DUP3 PUSH3 0x188 JUMP JUMPDEST DUP2 ADD DUP2 DUP2 LT PUSH8 0xFFFFFFFFFFFFFFFF DUP3 GT OR ISZERO PUSH3 0x1F5 JUMPI PUSH3 0x1F4 PUSH3 0x199 JUMP JUMPDEST JUMPDEST DUP1 PUSH1 0x40 MSTORE POP POP POP JUMP JUMPDEST PUSH1 0x0 PUSH3 0x20A PUSH3 0x16F JUMP JUMPDEST SWAP1 POP PUSH3 0x218 DUP3 DUP3 PUSH3 0x1C8 JUMP JUMPDEST SWAP2 SWAP1 POP JUMP JUMPDEST PUSH1 0x0 PUSH8 0xFFFFFFFFFFFFFFFF DUP3 GT ISZERO PUSH3 0x23B JUMPI PUSH3 0x23A PUSH3 0x199 JUMP JUMPDEST JUMPDEST PUSH1 0x20 DUP3 MUL SWAP1 POP PUSH1 0x20 DUP2 ADD SWAP1 POP SWAP2 SWAP1 POP JUMP JUMPDEST PUSH1 0x0 DUP1 REVERT JUMPDEST PUSH1 0x0 DUP1 REVERT JUMPDEST PUSH1 0x0 DUP1 REVERT JUMPDEST PUSH1 0x0 DUP1 REVERT JUMPDEST PUSH1 0x0 PUSH8 0xFFFFFFFFFFFFFFFF DUP3 GT ISZERO PUSH3 0x27E JUMPI PUSH3 0x27D PUSH3 0x199 JUMP JUMPDEST JUMPDEST PUSH3 0x289 DUP3 PUSH3 0x188 JUMP JUMPDEST SWAP1 POP PUSH1 0x20 DUP2 ADD SWAP1 POP SWAP2 SWAP1 POP JUMP JUMPDEST PUSH1 0x0 JUMPDEST DUP4 DUP2 LT ISZERO PUSH3 0x2B6 JUMPI DUP1 DUP3 ADD MLOAD DUP2 DUP5 ADD MSTORE PUSH1 0x20 DUP2 ADD SWAP1 POP PUSH3 0x299 JUMP JUMPDEST PUSH1 0x0 DUP5 DUP5 ADD MSTORE POP POP POP POP JUMP JUMPDEST PUSH1 0x0 PUSH3 0x2D9 PUSH3 0x2D3 DUP5 PUSH3 0x260 JUMP JUMPDEST PUSH3 0x1FE JUMP JUMPDEST SWAP1 POP DUP3 DUP2 MSTORE PUSH1 0x20 DUP2 ADD DUP5 DUP5 DUP5 ADD GT ISZERO PUSH3 0x2F8 JUMPI PUSH3 0x2F7 PUSH3 0x25B JUMP JUMPDEST JUMPDEST PUSH3 0x305 DUP5 DUP3 DUP6 PUSH3 0x296 JUMP JUMPDEST POP SWAP4 SWAP3 POP POP POP JUMP JUMPDEST PUSH1 0x0 DUP3 PUSH1 0x1F DUP4 ADD SLT PUSH3 0x325 JUMPI PUSH3 0x324 PUSH3 0x183 JUMP JUMPDEST JUMPDEST DUP2 MLOAD PUSH3 0x337 DUP5 DUP3 PUSH1 0x20 DUP7 ADD PUSH3 0x2C2 JUMP JUMPDEST SWAP2 POP POP SWAP3 SWAP2 POP POP JUMP JUMPDEST PUSH1 0x0 DUP2 SWAP1 POP SWAP2 SWAP1 POP JUMP JUMPDEST PUSH3 0x355 DUP2 PUSH3 0x340 JUMP JUMPDEST DUP2 EQ PUSH3 0x361 JUMPI PUSH1 0x0 DUP1 REVERT JUMPDEST POP JUMP JUMPDEST PUSH1 0x0 DUP2 MLOAD SWAP1 POP PUSH3 0x375 DUP2 PUSH3 0x34A JUMP JUMPDEST SWAP3 SWAP2 POP POP JUMP JUMPDEST PUSH1 0x0 PUSH1 0x60 DUP3 DUP5 SUB SLT ISZERO PUSH3 0x394 JUMPI PUSH3 0x393 PUSH3 0x251 JUMP JUMPDEST JUMPDEST PUSH3 0x3A0 PUSH1 0x60 PUSH3 0x1FE JUMP JUMPDEST SWAP1 POP PUSH1 0x0 DUP3 ADD MLOAD PUSH8 0xFFFFFFFFFFFFFFFF DUP2 GT ISZERO PUSH3 0x3C3 JUMPI PUSH3 0x3C2 PUSH3 0x256 JUMP JUMPDEST JUMPDEST PUSH3 0x3D1 DUP5 DUP3 DUP6 ADD PUSH3 0x30D JUMP JUMPDEST PUSH1 0x0 DUP4 ADD MSTORE POP PUSH1 0x20 DUP3 ADD MLOAD PUSH8 0xFFFFFFFFFFFFFFFF DUP2 GT ISZERO PUSH3 0x3F8 JUMPI PUSH3 0x3F7 PUSH3 0x256 JUMP JUMPDEST JUMPDEST PUSH3 0x406 DUP5 DUP3 DUP6 ADD PUSH3 0x30D JUMP JUMPDEST PUSH1 0x20 DUP4 ADD MSTORE POP PUSH1 0x40 PUSH3 0x41C DUP5 DUP3 DUP6 ADD PUSH3 0x364 JUMP JUMPDEST PUSH1 0x40 DUP4 ADD MSTORE POP SWAP3 SWAP2 POP POP JUMP JUMPDEST PUSH1 0x0 PUSH3 0x43F PUSH3 0x439 DUP5 PUSH3 0x21D JUMP JUMPDEST PUSH3 0x1FE JUMP JUMPDEST SWAP1 POP DUP1 DUP4 DUP3 MSTORE PUSH1 0x20 DUP3 ADD SWAP1 POP PUSH1 0x20 DUP5 MUL DUP4 ADD DUP6 DUP2 GT ISZERO PUSH3 0x465 JUMPI PUSH3 0x464 PUSH3 0x24C JUMP JUMPDEST JUMPDEST DUP4 JUMPDEST DUP2 DUP2 LT ISZERO PUSH3 0x4B3 JUMPI DUP1 MLOAD PUSH8 0xFFFFFFFFFFFFFFFF DUP2 GT ISZERO PUSH3 0x48E JUMPI PUSH3 0x48D PUSH3 0x183 JUMP JUMPDEST JUMPDEST DUP1 DUP7 ADD PUSH3 0x49D DUP10 DUP3 PUSH3 0x37B JUMP JUMPDEST DUP6 MSTORE PUSH1 0x20 DUP6 ADD SWAP5 POP POP POP PUSH1 0x20 DUP2 ADD SWAP1 POP PUSH3 0x467 JUMP JUMPDEST POP POP POP SWAP4 SWAP3 POP POP POP JUMP JUMPDEST PUSH1 0x0 DUP3 PUSH1 0x1F DUP4 ADD SLT PUSH3 0x4D5 JUMPI PUSH3 0x4D4 PUSH3 0x183 JUMP JUMPDEST JUMPDEST DUP2 MLOAD PUSH3 0x4E7 DUP5 DUP3 PUSH1 0x20 DUP7 ADD PUSH3 0x428 JUMP JUMPDEST SWAP2 POP POP SWAP3 SWAP2 POP POP JUMP JUMPDEST PUSH1 0x0 DUP1 PUSH1 0x40 DUP4 DUP6 SUB SLT ISZERO PUSH3 0x50A JUMPI PUSH3 0x509 PUSH3 0x179 JUMP JUMPDEST JUMPDEST PUSH1 0x0 DUP4 ADD MLOAD PUSH8 0xFFFFFFFFFFFFFFFF DUP2 GT ISZERO PUSH3 0x52B JUMPI PUSH3 0x52A PUSH3 0x17E JUMP JUMPDEST JUMPDEST PUSH3 0x539 DUP6 DUP3 DUP7 ADD PUSH3 0x4BD JUMP JUMPDEST SWAP3 POP POP PUSH1 0x20 PUSH3 0x54C DUP6 DUP3 DUP7 ADD PUSH3 0x364 JUMP JUMPDEST SWAP2 POP POP SWAP3 POP SWAP3 SWAP1 POP JUMP JUMPDEST PUSH32 0x4E487B7100000000000000000000000000000000000000000000000000000000 PUSH1 0x0 MSTORE PUSH1 0x32 PUSH1 0x4 MSTORE PUSH1 0x24 PUSH1 0x0 REVERT JUMPDEST PUSH1 0x0 DUP2 MLOAD SWAP1 POP SWAP2 SWAP1 POP JUMP JUMPDEST PUSH32 0x4E487B7100000000000000000000000000000000000000000000000000000000 PUSH1 0x0 MSTORE PUSH1 0x22 PUSH1 0x4 MSTORE PUSH1 0x24 PUSH1 0x0 REVERT JUMPDEST PUSH1 0x0 PUSH1 0x2 DUP3 DIV SWAP1 POP PUSH1 0x1 DUP3 AND DUP1 PUSH3 0x5D8 JUMPI PUSH1 0x7F DUP3 AND SWAP2 POP JUMPDEST PUSH1 0x20 DUP3 LT DUP2 SUB PUSH3 0x5EE JUMPI PUSH3 0x5ED PUSH3 0x590 JUMP JUMPDEST JUMPDEST POP SWAP2 SWAP1 POP JUMP JUMPDEST PUSH1 0x0 DUP2 SWAP1 POP DUP2 PUSH1 0x0 MSTORE PUSH1 0x20 PUSH1 0x0 KECCAK256 SWAP1 POP SWAP2 SWAP1 POP JUMP JUMPDEST PUSH1 0x0 PUSH1 0x20 PUSH1 0x1F DUP4 ADD DIV SWAP1 POP SWAP2 SWAP1 POP JUMP JUMPDEST PUSH1 0x0 DUP3 DUP3 SHL SWAP1 POP SWAP3 SWAP2 POP POP JUMP JUMPDEST PUSH1 0x0 PUSH1 0x8 DUP4 MUL PUSH3 0x658 PUSH32 0xFFFFFFFFFFFFFFFFFFFFFFFFFFFFFFFFFFFFFFFFFFFFFFFFFFFFFFFFFFFFFFFF DUP3 PUSH3 0x619 JUMP JUMPDEST PUSH3 0x664 DUP7 DUP4 PUSH3 0x619 JUMP JUMPDEST SWAP6 POP DUP1 NOT DUP5 AND SWAP4 POP DUP1 DUP7 AND DUP5 OR SWAP3 POP POP POP SWAP4 SWAP3 POP POP POP JUMP JUMPDEST PUSH1 0x0 DUP2 SWAP1 POP SWAP2 SWAP1 POP JUMP JUMPDEST PUSH1 0x0 PUSH3 0x6A7 PUSH3 0x6A1 PUSH3 0x69B DUP5 PUSH3 0x340 JUMP JUMPDEST PUSH3 0x67C JUMP JUMPDEST PUSH3 0x340 JUMP JUMPDEST SWAP1 POP SWAP2 SWAP1 POP JUMP JUMPDEST PUSH1 0x0 DUP2 SWAP1 POP SWAP2 SWAP1 POP JUMP JUMPDEST PUSH3 0x6C3 DUP4 PUSH3 0x686 JUMP JUMPDEST PUSH3 0x6DB PUSH3 0x6D2 DUP3 PUSH3 0x6AE JUMP JUMPDEST DUP5 DUP5 SLOAD PUSH3 0x626 JUMP JUMPDEST DUP3 SSTORE POP POP POP POP JUMP JUMPDEST PUSH1 0x0 SWAP1 JUMP JUMPDEST PUSH3 0x6F2 PUSH3 0x6E3 JUMP JUMPDEST PUSH3 0x6FF DUP2 DUP5 DUP5 PUSH3 0x6B8 JUMP JUMPDEST POP POP POP JUMP JUMPDEST JUMPDEST DUP2 DUP2 LT ISZERO PUSH3 0x727 JUMPI PUSH3 0x71B PUSH1 0x0 DUP3 PUSH3 0x6E8 JUMP JUMPDEST PUSH1 0x1 DUP2 ADD SWAP1 POP PUSH3 0x705 JUMP JUMPDEST POP POP JUMP JUMPDEST PUSH1 0x1F DUP3 GT ISZERO PUSH3 0x776 JUMPI PUSH3 0x740 DUP2 PUSH3 0x5F4 JUMP JUMPDEST PUSH3 0x74B DUP5 PUSH3 0x609 JUMP JUMPDEST DUP2 ADD PUSH1 0x20 DUP6 LT ISZERO PUSH3 0x75B JUMPI DUP2 SWAP1 POP JUMPDEST PUSH3 0x773 PUSH3 0x76A DUP6 PUSH3 0x609 JUMP JUMPDEST DUP4 ADD DUP3 PUSH3 0x704 JUMP JUMPDEST POP POP JUMPDEST POP POP POP JUMP JUMPDEST PUSH1 0x0 DUP3 DUP3 SHR SWAP1 POP SWAP3 SWAP2 POP POP JUMP JUMPDEST PUSH1 0x0 PUSH3 0x79B PUSH1 0x0 NOT DUP5 PUSH1 0x8 MUL PUSH3 0x77B JUMP JUMPDEST NOT DUP1 DUP4 AND SWAP2 POP POP SWAP3 SWAP2 POP POP JUMP JUMPDEST PUSH1 0x0 PUSH3 0x7B6 DUP4 DUP4 PUSH3 0x788 JUMP JUMPDEST SWAP2 POP DUP3 PUSH1 0x2 MUL DUP3 OR SWAP1 POP SWAP3 SWAP2 POP POP JUMP JUMPDEST PUSH3 0x7D1 DUP3 PUSH3 0x585 JUMP JUMPDEST PUSH8 0xFFFFFFFFFFFFFFFF DUP2 GT ISZERO PUSH3 0x7ED JUMPI PUSH3 0x7EC PUSH3 0x199 JUMP JUMPDEST JUMPDEST PUSH3 0x7F9 DUP3 SLOAD PUSH3 0x5BF JUMP JUMPDEST PUSH3 0x806 DUP3 DUP3 DUP6 PUSH3 0x72B JUMP JUMPDEST PUSH1 0x0 PUSH1 0x20 SWAP1 POP PUSH1 0x1F DUP4 GT PUSH1 0x1 DUP2 EQ PUSH3 0x83E JUMPI PUSH1 0x0 DUP5 ISZERO PUSH3 0x829 JUMPI DUP3 DUP8 ADD MLOAD SWAP1 POP JUMPDEST PUSH3 0x835 DUP6 DUP3 PUSH3 0x7A8 JUMP JUMPDEST DUP7 SSTORE POP PUSH3 0x8A5 JUMP JUMPDEST PUSH1 0x1F NOT DUP5 AND PUSH3 0x84E DUP7 PUSH3 0x5F4 JUMP JUMPDEST PUSH1 0x0 JUMPDEST DUP3 DUP2 LT ISZERO PUSH3 0x878 JUMPI DUP5 DUP10 ADD MLOAD DUP3 SSTORE PUSH1 0x1 DUP3 ADD SWAP2 POP PUSH1 0x20 DUP6 ADD SWAP5 POP PUSH1 0x20 DUP2 ADD SWAP1 POP PUSH3 0x851 JUMP JUMPDEST DUP7 DUP4 LT ISZERO PUSH3 0x898 JUMPI DUP5 DUP10 ADD MLOAD PUSH3 0x894 PUSH1 0x1F DUP10 AND DUP3 PUSH3 0x788 JUMP JUMPDEST DUP4 SSTORE POP JUMPDEST PUSH1 0x1 PUSH1 0x2 DUP9 MUL ADD DUP9 SSTORE POP POP POP JUMPDEST POP POP POP POP POP POP JUMP JUMPDEST PUSH32 0x4E487B7100000000000000000000000000000000000000000000000000000000 PUSH1 0x0 MSTORE PUSH1 0x11 PUSH1 0x4 MSTORE PUSH1 0x24 PUSH1 0x0 REVERT JUMPDEST PUSH1 0x0 PUSH3 0x8E9 DUP3 PUSH3 0x340 JUMP JUMPDEST SWAP2 POP PUSH32 0xFFFFFFFFFFFFFFFFFFFFFFFFFFFFFFFFFFFFFFFFFFFFFFFFFFFFFFFFFFFFFFFF DUP3 SUB PUSH3 0x91E JUMPI PUSH3 0x91D PUSH3 0x8AD JUMP JUMPDEST JUMPDEST PUSH1 0x1 DUP3 ADD SWAP1 POP SWAP2 SWAP1 POP JUMP JUMPDEST PUSH2 0x16B5 DUP1 PUSH3 0x939 PUSH1 0x0 CODECOPY PUSH1 0x0 RETURN INVALID PUSH1 0x80 PUSH1 0x40 MSTORE CALLVALUE DUP1 ISZERO PUSH2 0x10 JUMPI PUSH1 0x0 DUP1 REVERT JUMPDEST POP PUSH1 0x4 CALLDATASIZE LT PUSH2 0xF5 JUMPI PUSH1 0x0 CALLDATALOAD PUSH1 0xE0 SHR DUP1 PUSH4 0x9E7B8D61 GT PUSH2 0x97 JUMPI DUP1 PUSH4 0xDF703622 GT PUSH2 0x66 JUMPI DUP1 PUSH4 0xDF703622 EQ PUSH2 0x27B JUMPI DUP1 PUSH4 0xF0EE4577 EQ PUSH2 0x299 JUMPI DUP1 PUSH4 0xF927CC29 EQ PUSH2 0x2C9 JUMPI DUP1 PUSH4 0xFC36E15B EQ PUSH2 0x2E8 JUMPI PUSH2 0xF5 JUMP JUMPDEST DUP1 PUSH4 0x9E7B8D61 EQ PUSH2 0x1F2 JUMPI DUP1 PUSH4 0xA3EC138D EQ PUSH2 0x20E JUMPI DUP1 PUSH4 0xCE606EE0 EQ PUSH2 0x23F JUMPI DUP1 PUSH4 0xDA265430 EQ PUSH2 0x25D JUMPI PUSH2 0xF5 JUMP JUMPDEST DUP1 PUSH4 0x3477EE2E GT PUSH2 0xD3 JUMPI DUP1 PUSH4 0x3477EE2E EQ PUSH2 0x154 JUMPI DUP1 PUSH4 0x3DDF3822 EQ PUSH2 0x186 JUMPI DUP1 PUSH4 0x4ABA5F34 EQ PUSH2 0x1A4 JUMPI DUP1 PUSH4 0x94B04E7D EQ PUSH2 0x1C2 JUMPI PUSH2 0xF5 JUMP JUMPDEST DUP1 PUSH4 0x1C5556A EQ PUSH2 0xFA JUMPI DUP1 PUSH4 0x2BFDA515 EQ PUSH2 0x118 JUMPI DUP1 PUSH4 0x32A2C5D0 EQ PUSH2 0x136 JUMPI JUMPDEST PUSH1 0x0 DUP1 REVERT JUMPDEST PUSH2 0x102 PUSH2 0x304 JUMP JUMPDEST PUSH1 0x40 MLOAD PUSH2 0x10F SWAP2 SWAP1 PUSH2 0xD35 JUMP JUMPDEST PUSH1 0x40 MLOAD DUP1 SWAP2 SUB SWAP1 RETURN JUMPDEST PUSH2 0x120 PUSH2 0x363 JUMP JUMPDEST PUSH1 0x40 MLOAD PUSH2 0x12D SWAP2 SWAP1 PUSH2 0xDE0 JUMP JUMPDEST PUSH1 0x40 MLOAD DUP1 SWAP2 SUB SWAP1 RETURN JUMPDEST PUSH2 0x13E PUSH2 0x46A JUMP JUMPDEST PUSH1 0x40 MLOAD PUSH2 0x14B SWAP2 SWAP1 PUSH2 0xE43 JUMP JUMPDEST PUSH1 0x40 MLOAD DUP1 SWAP2 SUB SWAP1 RETURN JUMPDEST PUSH2 0x16E PUSH1 0x4 DUP1 CALLDATASIZE SUB DUP2 ADD SWAP1 PUSH2 0x169 SWAP2 SWAP1 PUSH2 0xE9E JUMP JUMPDEST PUSH2 0x472 JUMP JUMPDEST PUSH1 0x40 MLOAD PUSH2 0x17D SWAP4 SWAP3 SWAP2 SWAP1 PUSH2 0xECB JUMP JUMPDEST PUSH1 0x40 MLOAD DUP1 SWAP2 SUB SWAP1 RETURN JUMPDEST PUSH2 0x18E PUSH2 0x5BC JUMP JUMPDEST PUSH1 0x40 MLOAD PUSH2 0x19B SWAP2 SWAP1 PUSH2 0xF2B JUMP JUMPDEST PUSH1 0x40 MLOAD DUP1 SWAP2 SUB SWAP1 RETURN JUMPDEST PUSH2 0x1AC PUSH2 0x613 JUMP JUMPDEST PUSH1 0x40 MLOAD PUSH2 0x1B9 SWAP2 SWAP1 PUSH2 0x10B8 JUMP JUMPDEST PUSH1 0x40 MLOAD DUP1 SWAP2 SUB SWAP1 RETURN JUMPDEST PUSH2 0x1DC PUSH1 0x4 DUP1 CALLDATASIZE SUB DUP2 ADD SWAP1 PUSH2 0x1D7 SWAP2 SWAP1 PUSH2 0x1106 JUMP JUMPDEST PUSH2 0x7A0 JUMP JUMPDEST PUSH1 0x40 MLOAD PUSH2 0x1E9 SWAP2 SWAP1 PUSH2 0xF2B JUMP JUMPDEST PUSH1 0x40 MLOAD DUP1 SWAP2 SUB SWAP1 RETURN JUMPDEST PUSH2 0x20C PUSH1 0x4 DUP1 CALLDATASIZE SUB DUP2 ADD SWAP1 PUSH2 0x207 SWAP2 SWAP1 PUSH2 0x1106 JUMP JUMPDEST PUSH2 0x7F9 JUMP JUMPDEST STOP JUMPDEST PUSH2 0x228 PUSH1 0x4 DUP1 CALLDATASIZE SUB DUP2 ADD SWAP1 PUSH2 0x223 SWAP2 SWAP1 PUSH2 0x1106 JUMP JUMPDEST PUSH2 0x8A8 JUMP JUMPDEST PUSH1 0x40 MLOAD PUSH2 0x236 SWAP3 SWAP2 SWAP1 PUSH2 0x1133 JUMP JUMPDEST PUSH1 0x40 MLOAD DUP1 SWAP2 SUB SWAP1 RETURN JUMPDEST PUSH2 0x247 PUSH2 0x8E6 JUMP JUMPDEST PUSH1 0x40 MLOAD PUSH2 0x254 SWAP2 SWAP1 PUSH2 0xE43 JUMP JUMPDEST PUSH1 0x40 MLOAD DUP1 SWAP2 SUB SWAP1 RETURN JUMPDEST PUSH2 0x265 PUSH2 0x90A JUMP JUMPDEST PUSH1 0x40 MLOAD PUSH2 0x272 SWAP2 SWAP1 PUSH2 0xF2B JUMP JUMPDEST PUSH1 0x40 MLOAD DUP1 SWAP2 SUB SWAP1 RETURN JUMPDEST PUSH2 0x283 PUSH2 0x91A JUMP JUMPDEST PUSH1 0x40 MLOAD PUSH2 0x290 SWAP2 SWAP1 PUSH2 0xF2B JUMP JUMPDEST PUSH1 0x40 MLOAD DUP1 SWAP2 SUB SWAP1 RETURN JUMPDEST PUSH2 0x2B3 PUSH1 0x4 DUP1 CALLDATASIZE SUB DUP2 ADD SWAP1 PUSH2 0x2AE SWAP2 SWAP1 PUSH2 0x1106 JUMP JUMPDEST PUSH2 0x92A JUMP JUMPDEST PUSH1 0x40 MLOAD PUSH2 0x2C0 SWAP2 SWAP1 PUSH2 0xF2B JUMP JUMPDEST PUSH1 0x40 MLOAD DUP1 SWAP2 SUB SWAP1 RETURN JUMPDEST PUSH2 0x2D1 PUSH2 0x983 JUMP JUMPDEST PUSH1 0x40 MLOAD PUSH2 0x2DF SWAP3 SWAP2 SWAP1 PUSH2 0x115C JUMP JUMPDEST PUSH1 0x40 MLOAD DUP1 SWAP2 SUB SWAP1 RETURN JUMPDEST PUSH2 0x302 PUSH1 0x4 DUP1 CALLDATASIZE SUB DUP2 ADD SWAP1 PUSH2 0x2FD SWAP2 SWAP1 PUSH2 0x12BA JUMP JUMPDEST PUSH2 0xA47 JUMP JUMPDEST STOP JUMPDEST PUSH1 0x0 DUP1 PUSH1 0x0 SWAP1 POP JUMPDEST PUSH1 0x2 DUP1 SLOAD SWAP1 POP DUP2 LT ISZERO PUSH2 0x35F JUMPI PUSH1 0x2 DUP2 DUP2 SLOAD DUP2 LT PUSH2 0x32D JUMPI PUSH2 0x32C PUSH2 0x1303 JUMP JUMPDEST JUMPDEST SWAP1 PUSH1 0x0 MSTORE PUSH1 0x20 PUSH1 0x0 KECCAK256 SWAP1 PUSH1 0x3 MUL ADD PUSH1 0x2 ADD SLOAD DUP3 PUSH2 0x34A SWAP2 SWAP1 PUSH2 0x1361 JUMP JUMPDEST SWAP2 POP DUP1 DUP1 PUSH2 0x357 SWAP1 PUSH2 0x1395 JUMP JUMPDEST SWAP2 POP POP PUSH2 0x30C JUMP JUMPDEST POP SWAP1 JUMP JUMPDEST PUSH1 0x60 PUSH1 0x0 DUP1 PUSH2 0x370 PUSH2 0x983 JUMP JUMPDEST SWAP2 POP SWAP2 POP DUP1 ISZERO PUSH2 0x3B5 JUMPI PUSH1 0x40 MLOAD PUSH32 0x8C379A000000000000000000000000000000000000000000000000000000000 DUP2 MSTORE PUSH1 0x4 ADD PUSH2 0x3AC SWAP1 PUSH2 0x1429 JUMP JUMPDEST PUSH1 0x40 MLOAD DUP1 SWAP2 SUB SWAP1 REVERT JUMPDEST PUSH1 0x2 DUP3 DUP2 SLOAD DUP2 LT PUSH2 0x3C9 JUMPI PUSH2 0x3C8 PUSH2 0x1303 JUMP JUMPDEST JUMPDEST SWAP1 PUSH1 0x0 MSTORE PUSH1 0x20 PUSH1 0x0 KECCAK256 SWAP1 PUSH1 0x3 MUL ADD PUSH1 0x0 ADD DUP1 SLOAD PUSH2 0x3E5 SWAP1 PUSH2 0x1478 JUMP JUMPDEST DUP1 PUSH1 0x1F ADD PUSH1 0x20 DUP1 SWAP2 DIV MUL PUSH1 0x20 ADD PUSH1 0x40 MLOAD SWAP1 DUP2 ADD PUSH1 0x40 MSTORE DUP1 SWAP3 SWAP2 SWAP1 DUP2 DUP2 MSTORE PUSH1 0x20 ADD DUP3 DUP1 SLOAD PUSH2 0x411 SWAP1 PUSH2 0x1478 JUMP JUMPDEST DUP1 ISZERO PUSH2 0x45E JUMPI DUP1 PUSH1 0x1F LT PUSH2 0x433 JUMPI PUSH2 0x100 DUP1 DUP4 SLOAD DIV MUL DUP4 MSTORE SWAP2 PUSH1 0x20 ADD SWAP2 PUSH2 0x45E JUMP JUMPDEST DUP3 ADD SWAP2 SWAP1 PUSH1 0x0 MSTORE PUSH1 0x20 PUSH1 0x0 KECCAK256 SWAP1 JUMPDEST DUP2 SLOAD DUP2 MSTORE SWAP1 PUSH1 0x1 ADD SWAP1 PUSH1 0x20 ADD DUP1 DUP4 GT PUSH2 0x441 JUMPI DUP3 SWAP1 SUB PUSH1 0x1F AND DUP3 ADD SWAP2 JUMPDEST POP POP POP POP POP SWAP3 POP POP POP SWAP1 JUMP JUMPDEST PUSH1 0x0 ADDRESS SWAP1 POP SWAP1 JUMP JUMPDEST PUSH1 0x2 DUP2 DUP2 SLOAD DUP2 LT PUSH2 0x482 JUMPI PUSH1 0x0 DUP1 REVERT JUMPDEST SWAP1 PUSH1 0x0 MSTORE PUSH1 0x20 PUSH1 0x0 KECCAK256 SWAP1 PUSH1 0x3 MUL ADD PUSH1 0x0 SWAP2 POP SWAP1 POP DUP1 PUSH1 0x0 ADD DUP1 SLOAD PUSH2 0x4A5 SWAP1 PUSH2 0x1478 JUMP JUMPDEST DUP1 PUSH1 0x1F ADD PUSH1 0x20 DUP1 SWAP2 DIV MUL PUSH1 0x20 ADD PUSH1 0x40 MLOAD SWAP1 DUP2 ADD PUSH1 0x40 MSTORE DUP1 SWAP3 SWAP2 SWAP1 DUP2 DUP2 MSTORE PUSH1 0x20 ADD DUP3 DUP1 SLOAD PUSH2 0x4D1 SWAP1 PUSH2 0x1478 JUMP JUMPDEST DUP1 ISZERO PUSH2 0x51E JUMPI DUP1 PUSH1 0x1F LT PUSH2 0x4F3 JUMPI PUSH2 0x100 DUP1 DUP4 SLOAD DIV MUL DUP4 MSTORE SWAP2 PUSH1 0x20 ADD SWAP2 PUSH2 0x51E JUMP JUMPDEST DUP3 ADD SWAP2 SWAP1 PUSH1 0x0 MSTORE PUSH1 0x20 PUSH1 0x0 KECCAK256 SWAP1 JUMPDEST DUP2 SLOAD DUP2 MSTORE SWAP1 PUSH1 0x1 ADD SWAP1 PUSH1 0x20 ADD DUP1 DUP4 GT PUSH2 0x501 JUMPI DUP3 SWAP1 SUB PUSH1 0x1F AND DUP3 ADD SWAP2 JUMPDEST POP POP POP POP POP SWAP1 DUP1 PUSH1 0x1 ADD DUP1 SLOAD PUSH2 0x533 SWAP1 PUSH2 0x1478 JUMP JUMPDEST DUP1 PUSH1 0x1F ADD PUSH1 0x20 DUP1 SWAP2 DIV MUL PUSH1 0x20 ADD PUSH1 0x40 MLOAD SWAP1 DUP2 ADD PUSH1 0x40 MSTORE DUP1 SWAP3 SWAP2 SWAP1 DUP2 DUP2 MSTORE PUSH1 0x20 ADD DUP3 DUP1 SLOAD PUSH2 0x55F SWAP1 PUSH2 0x1478 JUMP JUMPDEST DUP1 ISZERO PUSH2 0x5AC JUMPI DUP1 PUSH1 0x1F LT PUSH2 0x581 JUMPI PUSH2 0x100 DUP1 DUP4 SLOAD DIV MUL DUP4 MSTORE SWAP2 PUSH1 0x20 ADD SWAP2 PUSH2 0x5AC JUMP JUMPDEST DUP3 ADD SWAP2 SWAP1 PUSH1 0x0 MSTORE PUSH1 0x20 PUSH1 0x0 KECCAK256 SWAP1 JUMPDEST DUP2 SLOAD DUP2 MSTORE SWAP1 PUSH1 0x1 ADD SWAP1 PUSH1 0x20 ADD DUP1 DUP4 GT PUSH2 0x58F JUMPI DUP3 SWAP1 SUB PUSH1 0x1F AND DUP3 ADD SWAP2 JUMPDEST POP POP POP POP POP SWAP1 DUP1 PUSH1 0x2 ADD SLOAD SWAP1 POP DUP4 JUMP JUMPDEST PUSH1 0x0 DUP1 PUSH1 0x0 SWAP1 SLOAD SWAP1 PUSH2 0x100 EXP SWAP1 DIV PUSH20 0xFFFFFFFFFFFFFFFFFFFFFFFFFFFFFFFFFFFFFFFF AND PUSH20 0xFFFFFFFFFFFFFFFFFFFFFFFFFFFFFFFFFFFFFFFF AND CALLER PUSH20 0xFFFFFFFFFFFFFFFFFFFFFFFFFFFFFFFFFFFFFFFF AND EQ SWAP1 POP SWAP1 JUMP JUMPDEST PUSH1 0x60 PUSH1 0x2 DUP1 SLOAD DUP1 PUSH1 0x20 MUL PUSH1 0x20 ADD PUSH1 0x40 MLOAD SWAP1 DUP2 ADD PUSH1 0x40 MSTORE DUP1 SWAP3 SWAP2 SWAP1 DUP2 DUP2 MSTORE PUSH1 0x20 ADD PUSH1 0x0 SWAP1 JUMPDEST DUP3 DUP3 LT ISZERO PUSH2 0x797 JUMPI DUP4 DUP3 SWAP1 PUSH1 0x0 MSTORE PUSH1 0x20 PUSH1 0x0 KECCAK256 SWAP1 PUSH1 0x3 MUL ADD PUSH1 0x40 MLOAD DUP1 PUSH1 0x60 ADD PUSH1 0x40 MSTORE SWAP1 DUP2 PUSH1 0x0 DUP3 ADD DUP1 SLOAD PUSH2 0x66A SWAP1 PUSH2 0x1478 JUMP JUMPDEST DUP1 PUSH1 0x1F ADD PUSH1 0x20 DUP1 SWAP2 DIV MUL PUSH1 0x20 ADD PUSH1 0x40 MLOAD SWAP1 DUP2 ADD PUSH1 0x40 MSTORE DUP1 SWAP3 SWAP2 SWAP1 DUP2 DUP2 MSTORE PUSH1 0x20 ADD DUP3 DUP1 SLOAD PUSH2 0x696 SWAP1 PUSH2 0x1478 JUMP JUMPDEST DUP1 ISZERO PUSH2 0x6E3 JUMPI DUP1 PUSH1 0x1F LT PUSH2 0x6B8 JUMPI PUSH2 0x100 DUP1 DUP4 SLOAD DIV MUL DUP4 MSTORE SWAP2 PUSH1 0x20 ADD SWAP2 PUSH2 0x6E3 JUMP JUMPDEST DUP3 ADD SWAP2 SWAP1 PUSH1 0x0 MSTORE PUSH1 0x20 PUSH1 0x0 KECCAK256 SWAP1 JUMPDEST DUP2 SLOAD DUP2 MSTORE SWAP1 PUSH1 0x1 ADD SWAP1 PUSH1 0x20 ADD DUP1 DUP4 GT PUSH2 0x6C6 JUMPI DUP3 SWAP1 SUB PUSH1 0x1F AND DUP3 ADD SWAP2 JUMPDEST POP POP POP POP POP DUP2 MSTORE PUSH1 0x20 ADD PUSH1 0x1 DUP3 ADD DUP1 SLOAD PUSH2 0x6FC SWAP1 PUSH2 0x1478 JUMP JUMPDEST DUP1 PUSH1 0x1F ADD PUSH1 0x20 DUP1 SWAP2 DIV MUL PUSH1 0x20 ADD PUSH1 0x40 MLOAD SWAP1 DUP2 ADD PUSH1 0x40 MSTORE DUP1 SWAP3 SWAP2 SWAP1 DUP2 DUP2 MSTORE PUSH1 0x20 ADD DUP3 DUP1 SLOAD PUSH2 0x728 SWAP1 PUSH2 0x1478 JUMP JUMPDEST DUP1 ISZERO PUSH2 0x775 JUMPI DUP1 PUSH1 0x1F LT PUSH2 0x74A JUMPI PUSH2 0x100 DUP1 DUP4 SLOAD DIV MUL DUP4 MSTORE SWAP2 PUSH1 0x20 ADD SWAP2 PUSH2 0x775 JUMP JUMPDEST DUP3 ADD SWAP2 SWAP1 PUSH1 0x0 MSTORE PUSH1 0x20 PUSH1 0x0 KECCAK256 SWAP1 JUMPDEST DUP2 SLOAD DUP2 MSTORE SWAP1 PUSH1 0x1 ADD SWAP1 PUSH1 0x20 ADD DUP1 DUP4 GT PUSH2 0x758 JUMPI DUP3 SWAP1 SUB PUSH1 0x1F AND DUP3 ADD SWAP2 JUMPDEST POP POP POP POP POP DUP2 MSTORE PUSH1 0x20 ADD PUSH1 0x2 DUP3 ADD SLOAD DUP2 MSTORE POP POP DUP2 MSTORE PUSH1 0x20 ADD SWAP1 PUSH1 0x1 ADD SWAP1 PUSH2 0x637 JUMP JUMPDEST POP POP POP POP SWAP1 POP SWAP1 JUMP JUMPDEST PUSH1 0x0 PUSH1 0x1 PUSH1 0x0 DUP4 PUSH20 0xFFFFFFFFFFFFFFFFFFFFFFFFFFFFFFFFFFFFFFFF AND PUSH20 0xFFFFFFFFFFFFFFFFFFFFFFFFFFFFFFFFFFFFFFFF AND DUP2 MSTORE PUSH1 0x20 ADD SWAP1 DUP2 MSTORE PUSH1 0x20 ADD PUSH1 0x0 KECCAK256 PUSH1 0x0 ADD PUSH1 0x0 SWAP1 SLOAD SWAP1 PUSH2 0x100 EXP SWAP1 DIV PUSH1 0xFF AND SWAP1 POP SWAP2 SWAP1 POP JUMP JUMPDEST DUP1 PUSH2 0x802 PUSH2 0x5BC JUMP JUMPDEST PUSH2 0x841 JUMPI PUSH1 0x40 MLOAD PUSH32 0x8C379A000000000000000000000000000000000000000000000000000000000 DUP2 MSTORE PUSH1 0x4 ADD PUSH2 0x838 SWAP1 PUSH2 0x151B JUMP JUMPDEST PUSH1 0x40 MLOAD DUP1 SWAP2 SUB SWAP1 REVERT JUMPDEST PUSH2 0x84A DUP2 PUSH2 0xC77 JUMP JUMPDEST PUSH1 0x1 DUP1 PUSH1 0x0 DUP5 PUSH20 0xFFFFFFFFFFFFFFFFFFFFFFFFFFFFFFFFFFFFFFFF AND PUSH20 0xFFFFFFFFFFFFFFFFFFFFFFFFFFFFFFFFFFFFFFFF AND DUP2 MSTORE PUSH1 0x20 ADD SWAP1 DUP2 MSTORE PUSH1 0x20 ADD PUSH1 0x0 KECCAK256 PUSH1 0x0 ADD PUSH1 0x0 PUSH2 0x100 EXP DUP2 SLOAD DUP2 PUSH1 0xFF MUL NOT AND SWAP1 DUP4 ISZERO ISZERO MUL OR SWAP1 SSTORE POP POP POP JUMP JUMPDEST PUSH1 0x1 PUSH1 0x20 MSTORE DUP1 PUSH1 0x0 MSTORE PUSH1 0x40 PUSH1 0x0 KECCAK256 PUSH1 0x0 SWAP2 POP SWAP1 POP DUP1 PUSH1 0x0 ADD PUSH1 0x0 SWAP1 SLOAD SWAP1 PUSH2 0x100 EXP SWAP1 DIV PUSH1 0xFF AND SWAP1 DUP1 PUSH1 0x0 ADD PUSH1 0x1 SWAP1 SLOAD SWAP1 PUSH2 0x100 EXP SWAP1 DIV PUSH1 0xFF AND SWAP1 POP DUP3 JUMP JUMPDEST PUSH1 0x0 DUP1 SLOAD SWAP1 PUSH2 0x100 EXP SWAP1 DIV PUSH20 0xFFFFFFFFFFFFFFFFFFFFFFFFFFFFFFFFFFFFFFFF AND DUP2 JUMP JUMPDEST PUSH1 0x0 PUSH2 0x915 CALLER PUSH2 0x92A JUMP JUMPDEST SWAP1 POP SWAP1 JUMP JUMPDEST PUSH1 0x0 PUSH2 0x925 CALLER PUSH2 0x7A0 JUMP JUMPDEST SWAP1 POP SWAP1 JUMP JUMPDEST PUSH1 0x0 PUSH1 0x1 PUSH1 0x0 DUP4 PUSH20 0xFFFFFFFFFFFFFFFFFFFFFFFFFFFFFFFFFFFFFFFF AND PUSH20 0xFFFFFFFFFFFFFFFFFFFFFFFFFFFFFFFFFFFFFFFF AND DUP2 MSTORE PUSH1 0x20 ADD SWAP1 DUP2 MSTORE PUSH1 0x20 ADD PUSH1 0x0 KECCAK256 PUSH1 0x0 ADD PUSH1 0x1 SWAP1 SLOAD SWAP1 PUSH2 0x100 EXP SWAP1 DIV PUSH1 0xFF AND SWAP1 POP SWAP2 SWAP1 POP JUMP JUMPDEST PUSH1 0x0 DUP1 PUSH1 0x0 DUP1 PUSH1 0x0 SWAP1 POP JUMPDEST PUSH1 0x2 DUP1 SLOAD SWAP1 POP DUP2 LT ISZERO PUSH2 0xA41 JUMPI DUP2 PUSH1 0x2 DUP3 DUP2 SLOAD DUP2 LT PUSH2 0x9B0 JUMPI PUSH2 0x9AF PUSH2 0x1303 JUMP JUMPDEST JUMPDEST SWAP1 PUSH1 0x0 MSTORE PUSH1 0x20 PUSH1 0x0 KECCAK256 SWAP1 PUSH1 0x3 MUL ADD PUSH1 0x2 ADD SLOAD GT ISZERO PUSH2 0x9FC JUMPI PUSH1 0x2 DUP2 DUP2 SLOAD DUP2 LT PUSH2 0x9DC JUMPI PUSH2 0x9DB PUSH2 0x1303 JUMP JUMPDEST JUMPDEST SWAP1 PUSH1 0x0 MSTORE PUSH1 0x20 PUSH1 0x0 KECCAK256 SWAP1 PUSH1 0x3 MUL ADD PUSH1 0x2 ADD SLOAD SWAP2 POP DUP1 SWAP4 POP PUSH1 0x0 SWAP3 POP PUSH2 0xA2E JUMP JUMPDEST DUP2 PUSH1 0x2 DUP3 DUP2 SLOAD DUP2 LT PUSH2 0xA11 JUMPI PUSH2 0xA10 PUSH2 0x1303 JUMP JUMPDEST JUMPDEST SWAP1 PUSH1 0x0 MSTORE PUSH1 0x20 PUSH1 0x0 KECCAK256 SWAP1 PUSH1 0x3 MUL ADD PUSH1 0x2 ADD SLOAD SUB PUSH2 0xA2D JUMPI PUSH1 0x1 SWAP3 POP JUMPDEST JUMPDEST DUP1 DUP1 PUSH2 0xA39 SWAP1 PUSH2 0x1395 JUMP JUMPDEST SWAP2 POP POP PUSH2 0x98E JUMP JUMPDEST POP POP SWAP1 SWAP2 JUMP JUMPDEST CALLER PUSH1 0x4 SLOAD PUSH1 0x3 SLOAD LT PUSH2 0xA8E JUMPI PUSH1 0x40 MLOAD PUSH32 0x8C379A000000000000000000000000000000000000000000000000000000000 DUP2 MSTORE PUSH1 0x4 ADD PUSH2 0xA85 SWAP1 PUSH2 0x1587 JUMP JUMPDEST PUSH1 0x40 MLOAD DUP1 SWAP2 SUB SWAP1 REVERT JUMPDEST PUSH2 0xA96 PUSH2 0x91A JUMP JUMPDEST PUSH2 0xAD5 JUMPI PUSH1 0x40 MLOAD PUSH32 0x8C379A000000000000000000000000000000000000000000000000000000000 DUP2 MSTORE PUSH1 0x4 ADD PUSH2 0xACC SWAP1 PUSH2 0x15F3 JUMP JUMPDEST PUSH1 0x40 MLOAD DUP1 SWAP2 SUB SWAP1 REVERT JUMPDEST PUSH2 0xADE DUP2 PUSH2 0xC77 JUMP JUMPDEST PUSH1 0x0 PUSH1 0x1 PUSH1 0x0 CALLER PUSH20 0xFFFFFFFFFFFFFFFFFFFFFFFFFFFFFFFFFFFFFFFF AND PUSH20 0xFFFFFFFFFFFFFFFFFFFFFFFFFFFFFFFFFFFFFFFF AND DUP2 MSTORE PUSH1 0x20 ADD SWAP1 DUP2 MSTORE PUSH1 0x20 ADD PUSH1 0x0 KECCAK256 SWAP1 POP PUSH1 0x0 JUMPDEST PUSH1 0x2 DUP1 SLOAD SWAP1 POP DUP2 LT ISZERO PUSH2 0xC71 JUMPI PUSH2 0xBE8 PUSH1 0x2 DUP3 DUP2 SLOAD DUP2 LT PUSH2 0xB48 JUMPI PUSH2 0xB47 PUSH2 0x1303 JUMP JUMPDEST JUMPDEST SWAP1 PUSH1 0x0 MSTORE PUSH1 0x20 PUSH1 0x0 KECCAK256 SWAP1 PUSH1 0x3 MUL ADD PUSH1 0x0 ADD DUP1 SLOAD PUSH2 0xB64 SWAP1 PUSH2 0x1478 JUMP JUMPDEST DUP1 PUSH1 0x1F ADD PUSH1 0x20 DUP1 SWAP2 DIV MUL PUSH1 0x20 ADD PUSH1 0x40 MLOAD SWAP1 DUP2 ADD PUSH1 0x40 MSTORE DUP1 SWAP3 SWAP2 SWAP1 DUP2 DUP2 MSTORE PUSH1 0x20 ADD DUP3 DUP1 SLOAD PUSH2 0xB90 SWAP1 PUSH2 0x1478 JUMP JUMPDEST DUP1 ISZERO PUSH2 0xBDD JUMPI DUP1 PUSH1 0x1F LT PUSH2 0xBB2 JUMPI PUSH2 0x100 DUP1 DUP4 SLOAD DIV MUL DUP4 MSTORE SWAP2 PUSH1 0x20 ADD SWAP2 PUSH2 0xBDD JUMP JUMPDEST DUP3 ADD SWAP2 SWAP1 PUSH1 0x0 MSTORE PUSH1 0x20 PUSH1 0x0 KECCAK256 SWAP1 JUMPDEST DUP2 SLOAD DUP2 MSTORE SWAP1 PUSH1 0x1 ADD SWAP1 PUSH1 0x20 ADD DUP1 DUP4 GT PUSH2 0xBC0 JUMPI DUP3 SWAP1 SUB PUSH1 0x1F AND DUP3 ADD SWAP2 JUMPDEST POP POP POP POP POP DUP6 PUSH2 0xCC3 JUMP JUMPDEST ISZERO PUSH2 0xC5E JUMPI PUSH1 0x2 DUP2 DUP2 SLOAD DUP2 LT PUSH2 0xC01 JUMPI PUSH2 0xC00 PUSH2 0x1303 JUMP JUMPDEST JUMPDEST SWAP1 PUSH1 0x0 MSTORE PUSH1 0x20 PUSH1 0x0 KECCAK256 SWAP1 PUSH1 0x3 MUL ADD PUSH1 0x2 ADD PUSH1 0x0 DUP2 SLOAD DUP1 SWAP3 SWAP2 SWAP1 PUSH2 0xC23 SWAP1 PUSH2 0x1395 JUMP JUMPDEST SWAP2 SWAP1 POP SSTORE POP PUSH1 0x1 DUP3 PUSH1 0x0 ADD PUSH1 0x1 PUSH2 0x100 EXP DUP2 SLOAD DUP2 PUSH1 0xFF MUL NOT AND SWAP1 DUP4 ISZERO ISZERO MUL OR SWAP1 SSTORE POP PUSH1 0x3 PUSH1 0x0 DUP2 SLOAD DUP1 SWAP3 SWAP2 SWAP1 PUSH2 0xC58 SWAP1 PUSH2 0x1395 JUMP JUMPDEST SWAP2 SWAP1 POP SSTORE POP JUMPDEST DUP1 DUP1 PUSH2 0xC69 SWAP1 PUSH2 0x1395 JUMP JUMPDEST SWAP2 POP POP PUSH2 0xB24 JUMP JUMPDEST POP POP POP POP JUMP JUMPDEST PUSH2 0xC80 DUP2 PUSH2 0x92A JUMP JUMPDEST ISZERO PUSH2 0xCC0 JUMPI PUSH1 0x40 MLOAD PUSH32 0x8C379A000000000000000000000000000000000000000000000000000000000 DUP2 MSTORE PUSH1 0x4 ADD PUSH2 0xCB7 SWAP1 PUSH2 0x165F JUMP JUMPDEST PUSH1 0x40 MLOAD DUP1 SWAP2 SUB SWAP1 REVERT JUMPDEST POP JUMP JUMPDEST PUSH1 0x0 DUP2 PUSH1 0x40 MLOAD PUSH1 0x20 ADD PUSH2 0xCD6 SWAP2 SWAP1 PUSH2 0xDE0 JUMP JUMPDEST PUSH1 0x40 MLOAD PUSH1 0x20 DUP2 DUP4 SUB SUB DUP2 MSTORE SWAP1 PUSH1 0x40 MSTORE DUP1 MLOAD SWAP1 PUSH1 0x20 ADD KECCAK256 DUP4 PUSH1 0x40 MLOAD PUSH1 0x20 ADD PUSH2 0xCFD SWAP2 SWAP1 PUSH2 0xDE0 JUMP JUMPDEST PUSH1 0x40 MLOAD PUSH1 0x20 DUP2 DUP4 SUB SUB DUP2 MSTORE SWAP1 PUSH1 0x40 MSTORE DUP1 MLOAD SWAP1 PUSH1 0x20 ADD KECCAK256 EQ SWAP1 POP SWAP3 SWAP2 POP POP JUMP JUMPDEST PUSH1 0x0 DUP2 SWAP1 POP SWAP2 SWAP1 POP JUMP JUMPDEST PUSH2 0xD2F DUP2 PUSH2 0xD1C JUMP JUMPDEST DUP3 MSTORE POP POP JUMP JUMPDEST PUSH1 0x0 PUSH1 0x20 DUP3 ADD SWAP1 POP PUSH2 0xD4A PUSH1 0x0 DUP4 ADD DUP5 PUSH2 0xD26 JUMP JUMPDEST SWAP3 SWAP2 POP POP JUMP JUMPDEST PUSH1 0x0 DUP2 MLOAD SWAP1 POP SWAP2 SWAP1 POP JUMP JUMPDEST PUSH1 0x0 DUP3 DUP3 MSTORE PUSH1 0x20 DUP3 ADD SWAP1 POP SWAP3 SWAP2 POP POP JUMP JUMPDEST PUSH1 0x0 JUMPDEST DUP4 DUP2 LT ISZERO PUSH2 0xD8A JUMPI DUP1 DUP3 ADD MLOAD DUP2 DUP5 ADD MSTORE PUSH1 0x20 DUP2 ADD SWAP1 POP PUSH2 0xD6F JUMP JUMPDEST PUSH1 0x0 DUP5 DUP5 ADD MSTORE POP POP POP POP JUMP JUMPDEST PUSH1 0x0 PUSH1 0x1F NOT PUSH1 0x1F DUP4 ADD AND SWAP1 POP SWAP2 SWAP1 POP JUMP JUMPDEST PUSH1 0x0 PUSH2 0xDB2 DUP3 PUSH2 0xD50 JUMP JUMPDEST PUSH2 0xDBC DUP2 DUP6 PUSH2 0xD5B JUMP JUMPDEST SWAP4 POP PUSH2 0xDCC DUP2 DUP6 PUSH1 0x20 DUP7 ADD PUSH2 0xD6C JUMP JUMPDEST PUSH2 0xDD5 DUP2 PUSH2 0xD96 JUMP JUMPDEST DUP5 ADD SWAP2 POP POP SWAP3 SWAP2 POP POP JUMP JUMPDEST PUSH1 0x0 PUSH1 0x20 DUP3 ADD SWAP1 POP DUP2 DUP2 SUB PUSH1 0x0 DUP4 ADD MSTORE PUSH2 0xDFA DUP2 DUP5 PUSH2 0xDA7 JUMP JUMPDEST SWAP1 POP SWAP3 SWAP2 POP POP JUMP JUMPDEST PUSH1 0x0 PUSH20 0xFFFFFFFFFFFFFFFFFFFFFFFFFFFFFFFFFFFFFFFF DUP3 AND SWAP1 POP SWAP2 SWAP1 POP JUMP JUMPDEST PUSH1 0x0 PUSH2 0xE2D DUP3 PUSH2 0xE02 JUMP JUMPDEST SWAP1 POP SWAP2 SWAP1 POP JUMP JUMPDEST PUSH2 0xE3D DUP2 PUSH2 0xE22 JUMP JUMPDEST DUP3 MSTORE POP POP JUMP JUMPDEST PUSH1 0x0 PUSH1 0x20 DUP3 ADD SWAP1 POP PUSH2 0xE58 PUSH1 0x0 DUP4 ADD DUP5 PUSH2 0xE34 JUMP JUMPDEST SWAP3 SWAP2 POP POP JUMP JUMPDEST PUSH1 0x0 PUSH1 0x40 MLOAD SWAP1 POP SWAP1 JUMP JUMPDEST PUSH1 0x0 DUP1 REVERT JUMPDEST PUSH1 0x0 DUP1 REVERT JUMPDEST PUSH2 0xE7B DUP2 PUSH2 0xD1C JUMP JUMPDEST DUP2 EQ PUSH2 0xE86 JUMPI PUSH1 0x0 DUP1 REVERT JUMPDEST POP JUMP JUMPDEST PUSH1 0x0 DUP2 CALLDATALOAD SWAP1 POP PUSH2 0xE98 DUP2 PUSH2 0xE72 JUMP JUMPDEST SWAP3 SWAP2 POP POP JUMP JUMPDEST PUSH1 0x0 PUSH1 0x20 DUP3 DUP5 SUB SLT ISZERO PUSH2 0xEB4 JUMPI PUSH2 0xEB3 PUSH2 0xE68 JUMP JUMPDEST JUMPDEST PUSH1 0x0 PUSH2 0xEC2 DUP5 DUP3 DUP6 ADD PUSH2 0xE89 JUMP JUMPDEST SWAP2 POP POP SWAP3 SWAP2 POP POP JUMP JUMPDEST PUSH1 0x0 PUSH1 0x60 DUP3 ADD SWAP1 POP DUP2 DUP2 SUB PUSH1 0x0 DUP4 ADD MSTORE PUSH2 0xEE5 DUP2 DUP7 PUSH2 0xDA7 JUMP JUMPDEST SWAP1 POP DUP2 DUP2 SUB PUSH1 0x20 DUP4 ADD MSTORE PUSH2 0xEF9 DUP2 DUP6 PUSH2 0xDA7 JUMP JUMPDEST SWAP1 POP PUSH2 0xF08 PUSH1 0x40 DUP4 ADD DUP5 PUSH2 0xD26 JUMP JUMPDEST SWAP5 SWAP4 POP POP POP POP JUMP JUMPDEST PUSH1 0x0 DUP2 ISZERO ISZERO SWAP1 POP SWAP2 SWAP1 POP JUMP JUMPDEST PUSH2 0xF25 DUP2 PUSH2 0xF10 JUMP JUMPDEST DUP3 MSTORE POP POP JUMP JUMPDEST PUSH1 0x0 PUSH1 0x20 DUP3 ADD SWAP1 POP PUSH2 0xF40 PUSH1 0x0 DUP4 ADD DUP5 PUSH2 0xF1C JUMP JUMPDEST SWAP3 SWAP2 POP POP JUMP JUMPDEST PUSH1 0x0 DUP2 MLOAD SWAP1 POP SWAP2 SWAP1 POP JUMP JUMPDEST PUSH1 0x0 DUP3 DUP3 MSTORE PUSH1 0x20 DUP3 ADD SWAP1 POP SWAP3 SWAP2 POP POP JUMP JUMPDEST PUSH1 0x0 DUP2 SWAP1 POP PUSH1 0x20 DUP3 ADD SWAP1 POP SWAP2 SWAP1 POP JUMP JUMPDEST PUSH1 0x0 DUP3 DUP3 MSTORE PUSH1 0x20 DUP3 ADD SWAP1 POP SWAP3 SWAP2 POP POP JUMP JUMPDEST PUSH1 0x0 PUSH2 0xF8E DUP3 PUSH2 0xD50 JUMP JUMPDEST PUSH2 0xF98 DUP2 DUP6 PUSH2 0xF72 JUMP JUMPDEST SWAP4 POP PUSH2 0xFA8 DUP2 DUP6 PUSH1 0x20 DUP7 ADD PUSH2 0xD6C JUMP JUMPDEST PUSH2 0xFB1 DUP2 PUSH2 0xD96 JUMP JUMPDEST DUP5 ADD SWAP2 POP POP SWAP3 SWAP2 POP POP JUMP JUMPDEST PUSH2 0xFC5 DUP2 PUSH2 0xD1C JUMP JUMPDEST DUP3 MSTORE POP POP JUMP JUMPDEST PUSH1 0x0 PUSH1 0x60 DUP4 ADD PUSH1 0x0 DUP4 ADD MLOAD DUP5 DUP3 SUB PUSH1 0x0 DUP7 ADD MSTORE PUSH2 0xFE8 DUP3 DUP3 PUSH2 0xF83 JUMP JUMPDEST SWAP2 POP POP PUSH1 0x20 DUP4 ADD MLOAD DUP5 DUP3 SUB PUSH1 0x20 DUP7 ADD MSTORE PUSH2 0x1002 DUP3 DUP3 PUSH2 0xF83 JUMP JUMPDEST SWAP2 POP POP PUSH1 0x40 DUP4 ADD MLOAD PUSH2 0x1017 PUSH1 0x40 DUP7 ADD DUP3 PUSH2 0xFBC JUMP JUMPDEST POP DUP1 SWAP2 POP POP SWAP3 SWAP2 POP POP JUMP JUMPDEST PUSH1 0x0 PUSH2 0x102E DUP4 DUP4 PUSH2 0xFCB JUMP JUMPDEST SWAP1 POP SWAP3 SWAP2 POP POP JUMP JUMPDEST PUSH1 0x0 PUSH1 0x20 DUP3 ADD SWAP1 POP SWAP2 SWAP1 POP JUMP JUMPDEST PUSH1 0x0 PUSH2 0x104E DUP3 PUSH2 0xF46 JUMP JUMPDEST PUSH2 0x1058 DUP2 DUP6 PUSH2 0xF51 JUMP JUMPDEST SWAP4 POP DUP4 PUSH1 0x20 DUP3 MUL DUP6 ADD PUSH2 0x106A DUP6 PUSH2 0xF62 JUMP JUMPDEST DUP1 PUSH1 0x0 JUMPDEST DUP6 DUP2 LT ISZERO PUSH2 0x10A6 JUMPI DUP5 DUP5 SUB DUP10 MSTORE DUP2 MLOAD PUSH2 0x1087 DUP6 DUP3 PUSH2 0x1022 JUMP JUMPDEST SWAP5 POP PUSH2 0x1092 DUP4 PUSH2 0x1036 JUMP JUMPDEST SWAP3 POP PUSH1 0x20 DUP11 ADD SWAP10 POP POP PUSH1 0x1 DUP2 ADD SWAP1 POP PUSH2 0x106E JUMP JUMPDEST POP DUP3 SWAP8 POP DUP8 SWAP6 POP POP POP POP POP POP SWAP3 SWAP2 POP POP JUMP JUMPDEST PUSH1 0x0 PUSH1 0x20 DUP3 ADD SWAP1 POP DUP2 DUP2 SUB PUSH1 0x0 DUP4 ADD MSTORE PUSH2 0x10D2 DUP2 DUP5 PUSH2 0x1043 JUMP JUMPDEST SWAP1 POP SWAP3 SWAP2 POP POP JUMP JUMPDEST PUSH2 0x10E3 DUP2 PUSH2 0xE22 JUMP JUMPDEST DUP2 EQ PUSH2 0x10EE JUMPI PUSH1 0x0 DUP1 REVERT JUMPDEST POP JUMP JUMPDEST PUSH1 0x0 DUP2 CALLDATALOAD SWAP1 POP PUSH2 0x1100 DUP2 PUSH2 0x10DA JUMP JUMPDEST SWAP3 SWAP2 POP POP JUMP JUMPDEST PUSH1 0x0 PUSH1 0x20 DUP3 DUP5 SUB SLT ISZERO PUSH2 0x111C JUMPI PUSH2 0x111B PUSH2 0xE68 JUMP JUMPDEST JUMPDEST PUSH1 0x0 PUSH2 0x112A DUP5 DUP3 DUP6 ADD PUSH2 0x10F1 JUMP JUMPDEST SWAP2 POP POP SWAP3 SWAP2 POP POP JUMP JUMPDEST PUSH1 0x0 PUSH1 0x40 DUP3 ADD SWAP1 POP PUSH2 0x1148 PUSH1 0x0 DUP4 ADD DUP6 PUSH2 0xF1C JUMP JUMPDEST PUSH2 0x1155 PUSH1 0x20 DUP4 ADD DUP5 PUSH2 0xF1C JUMP JUMPDEST SWAP4 SWAP3 POP POP POP JUMP JUMPDEST PUSH1 0x0 PUSH1 0x40 DUP3 ADD SWAP1 POP PUSH2 0x1171 PUSH1 0x0 DUP4 ADD DUP6 PUSH2 0xD26 JUMP JUMPDEST PUSH2 0x117E PUSH1 0x20 DUP4 ADD DUP5 PUSH2 0xF1C JUMP JUMPDEST SWAP4 SWAP3 POP POP POP JUMP JUMPDEST PUSH1 0x0 DUP1 REVERT JUMPDEST PUSH1 0x0 DUP1 REVERT JUMPDEST PUSH32 0x4E487B7100000000000000000000000000000000000000000000000000000000 PUSH1 0x0 MSTORE PUSH1 0x41 PUSH1 0x4 MSTORE PUSH1 0x24 PUSH1 0x0 REVERT JUMPDEST PUSH2 0x11C7 DUP3 PUSH2 0xD96 JUMP JUMPDEST DUP2 ADD DUP2 DUP2 LT PUSH8 0xFFFFFFFFFFFFFFFF DUP3 GT OR ISZERO PUSH2 0x11E6 JUMPI PUSH2 0x11E5 PUSH2 0x118F JUMP JUMPDEST JUMPDEST DUP1 PUSH1 0x40 MSTORE POP POP POP JUMP JUMPDEST PUSH1 0x0 PUSH2 0x11F9 PUSH2 0xE5E JUMP JUMPDEST SWAP1 POP PUSH2 0x1205 DUP3 DUP3 PUSH2 0x11BE JUMP JUMPDEST SWAP2 SWAP1 POP JUMP JUMPDEST PUSH1 0x0 PUSH8 0xFFFFFFFFFFFFFFFF DUP3 GT ISZERO PUSH2 0x1225 JUMPI PUSH2 0x1224 PUSH2 0x118F JUMP JUMPDEST JUMPDEST PUSH2 0x122E DUP3 PUSH2 0xD96 JUMP JUMPDEST SWAP1 POP PUSH1 0x20 DUP2 ADD SWAP1 POP SWAP2 SWAP1 POP JUMP JUMPDEST DUP3 DUP2 DUP4 CALLDATACOPY PUSH1 0x0 DUP4 DUP4 ADD MSTORE POP POP POP JUMP JUMPDEST PUSH1 0x0 PUSH2 0x125D PUSH2 0x1258 DUP5 PUSH2 0x120A JUMP JUMPDEST PUSH2 0x11EF JUMP JUMPDEST SWAP1 POP DUP3 DUP2 MSTORE PUSH1 0x20 DUP2 ADD DUP5 DUP5 DUP5 ADD GT ISZERO PUSH2 0x1279 JUMPI PUSH2 0x1278 PUSH2 0x118A JUMP JUMPDEST JUMPDEST PUSH2 0x1284 DUP5 DUP3 DUP6 PUSH2 0x123B JUMP JUMPDEST POP SWAP4 SWAP3 POP POP POP JUMP JUMPDEST PUSH1 0x0 DUP3 PUSH1 0x1F DUP4 ADD SLT PUSH2 0x12A1 JUMPI PUSH2 0x12A0 PUSH2 0x1185 JUMP JUMPDEST JUMPDEST DUP2 CALLDATALOAD PUSH2 0x12B1 DUP5 DUP3 PUSH1 0x20 DUP7 ADD PUSH2 0x124A JUMP JUMPDEST SWAP2 POP POP SWAP3 SWAP2 POP POP JUMP JUMPDEST PUSH1 0x0 PUSH1 0x20 DUP3 DUP5 SUB SLT ISZERO PUSH2 0x12D0 JUMPI PUSH2 0x12CF PUSH2 0xE68 JUMP JUMPDEST JUMPDEST PUSH1 0x0 DUP3 ADD CALLDATALOAD PUSH8 0xFFFFFFFFFFFFFFFF DUP2 GT ISZERO PUSH2 0x12EE JUMPI PUSH2 0x12ED PUSH2 0xE6D JUMP JUMPDEST JUMPDEST PUSH2 0x12FA DUP5 DUP3 DUP6 ADD PUSH2 0x128C JUMP JUMPDEST SWAP2 POP POP SWAP3 SWAP2 POP POP JUMP JUMPDEST PUSH32 0x4E487B7100000000000000000000000000000000000000000000000000000000 PUSH1 0x0 MSTORE PUSH1 0x32 PUSH1 0x4 MSTORE PUSH1 0x24 PUSH1 0x0 REVERT JUMPDEST PUSH32 0x4E487B7100000000000000000000000000000000000000000000000000000000 PUSH1 0x0 MSTORE PUSH1 0x11 PUSH1 0x4 MSTORE PUSH1 0x24 PUSH1 0x0 REVERT JUMPDEST PUSH1 0x0 PUSH2 0x136C DUP3 PUSH2 0xD1C JUMP JUMPDEST SWAP2 POP PUSH2 0x1377 DUP4 PUSH2 0xD1C JUMP JUMPDEST SWAP3 POP DUP3 DUP3 ADD SWAP1 POP DUP1 DUP3 GT ISZERO PUSH2 0x138F JUMPI PUSH2 0x138E PUSH2 0x1332 JUMP JUMPDEST JUMPDEST SWAP3 SWAP2 POP POP JUMP JUMPDEST PUSH1 0x0 PUSH2 0x13A0 DUP3 PUSH2 0xD1C JUMP JUMPDEST SWAP2 POP PUSH32 0xFFFFFFFFFFFFFFFFFFFFFFFFFFFFFFFFFFFFFFFFFFFFFFFFFFFFFFFFFFFFFFFF DUP3 SUB PUSH2 0x13D2 JUMPI PUSH2 0x13D1 PUSH2 0x1332 JUMP JUMPDEST JUMPDEST PUSH1 0x1 DUP3 ADD SWAP1 POP SWAP2 SWAP1 POP JUMP JUMPDEST PUSH32 0x5468657265206973206120746965206F6E2042616C6C6F740000000000000000 PUSH1 0x0 DUP3 ADD MSTORE POP JUMP JUMPDEST PUSH1 0x0 PUSH2 0x1413 PUSH1 0x18 DUP4 PUSH2 0xD5B JUMP JUMPDEST SWAP2 POP PUSH2 0x141E DUP3 PUSH2 0x13DD JUMP JUMPDEST PUSH1 0x20 DUP3 ADD SWAP1 POP SWAP2 SWAP1 POP JUMP JUMPDEST PUSH1 0x0 PUSH1 0x20 DUP3 ADD SWAP1 POP DUP2 DUP2 SUB PUSH1 0x0 DUP4 ADD MSTORE PUSH2 0x1442 DUP2 PUSH2 0x1406 JUMP JUMPDEST SWAP1 POP SWAP2 SWAP1 POP JUMP JUMPDEST PUSH32 0x4E487B7100000000000000000000000000000000000000000000000000000000 PUSH1 0x0 MSTORE PUSH1 0x22 PUSH1 0x4 MSTORE PUSH1 0x24 PUSH1 0x0 REVERT JUMPDEST PUSH1 0x0 PUSH1 0x2 DUP3 DIV SWAP1 POP PUSH1 0x1 DUP3 AND DUP1 PUSH2 0x1490 JUMPI PUSH1 0x7F DUP3 AND SWAP2 POP JUMPDEST PUSH1 0x20 DUP3 LT DUP2 SUB PUSH2 0x14A3 JUMPI PUSH2 0x14A2 PUSH2 0x1449 JUMP JUMPDEST JUMPDEST POP SWAP2 SWAP1 POP JUMP JUMPDEST PUSH32 0x4F6E6C792074686520636F6E7472616374206F776E65722063616E2067697665 PUSH1 0x0 DUP3 ADD MSTORE PUSH32 0x20726967687420746F20766F74652E0000000000000000000000000000000000 PUSH1 0x20 DUP3 ADD MSTORE POP JUMP JUMPDEST PUSH1 0x0 PUSH2 0x1505 PUSH1 0x2F DUP4 PUSH2 0xD5B JUMP JUMPDEST SWAP2 POP PUSH2 0x1510 DUP3 PUSH2 0x14A9 JUMP JUMPDEST PUSH1 0x40 DUP3 ADD SWAP1 POP SWAP2 SWAP1 POP JUMP JUMPDEST PUSH1 0x0 PUSH1 0x20 DUP3 ADD SWAP1 POP DUP2 DUP2 SUB PUSH1 0x0 DUP4 ADD MSTORE PUSH2 0x1534 DUP2 PUSH2 0x14F8 JUMP JUMPDEST SWAP1 POP SWAP2 SWAP1 POP JUMP JUMPDEST PUSH32 0x4D6178206163636F756E7420766F746573206973207265616368656400000000 PUSH1 0x0 DUP3 ADD MSTORE POP JUMP JUMPDEST PUSH1 0x0 PUSH2 0x1571 PUSH1 0x1C DUP4 PUSH2 0xD5B JUMP JUMPDEST SWAP2 POP PUSH2 0x157C DUP3 PUSH2 0x153B JUMP JUMPDEST PUSH1 0x20 DUP3 ADD SWAP1 POP SWAP2 SWAP1 POP JUMP JUMPDEST PUSH1 0x0 PUSH1 0x20 DUP3 ADD SWAP1 POP DUP2 DUP2 SUB PUSH1 0x0 DUP4 ADD MSTORE PUSH2 0x15A0 DUP2 PUSH2 0x1564 JUMP JUMPDEST SWAP1 POP SWAP2 SWAP1 POP JUMP JUMPDEST PUSH32 0x596F752068617665206E6F7420726967687420746F20766F7465000000000000 PUSH1 0x0 DUP3 ADD MSTORE POP JUMP JUMPDEST PUSH1 0x0 PUSH2 0x15DD PUSH1 0x1A DUP4 PUSH2 0xD5B JUMP JUMPDEST SWAP2 POP PUSH2 0x15E8 DUP3 PUSH2 0x15A7 JUMP JUMPDEST PUSH1 0x20 DUP3 ADD SWAP1 POP SWAP2 SWAP1 POP JUMP JUMPDEST PUSH1 0x0 PUSH1 0x20 DUP3 ADD SWAP1 POP DUP2 DUP2 SUB PUSH1 0x0 DUP4 ADD MSTORE PUSH2 0x160C DUP2 PUSH2 0x15D0 JUMP JUMPDEST SWAP1 POP SWAP2 SWAP1 POP JUMP JUMPDEST PUSH32 0x566F74657220616C726561647920766F7465642E000000000000000000000000 PUSH1 0x0 DUP3 ADD MSTORE POP JUMP JUMPDEST PUSH1 0x0 PUSH2 0x1649 PUSH1 0x14 DUP4 PUSH2 0xD5B JUMP JUMPDEST SWAP2 POP PUSH2 0x1654 DUP3 PUSH2 0x1613 JUMP JUMPDEST PUSH1 0x20 DUP3 ADD SWAP1 POP SWAP2 SWAP1 POP JUMP JUMPDEST PUSH1 0x0 PUSH1 0x20 DUP3 ADD SWAP1 POP DUP2 DUP2 SUB PUSH1 0x0 DUP4 ADD MSTORE PUSH2 0x1678 DUP2 PUSH2 0x163C JUMP JUMPDEST SWAP1 POP SWAP2 SWAP1 POP JUMP INVALID LOG2 PUSH5 0x6970667358 0x22 SLT KECCAK256 0xE7 PUSH4 0x5494CC69 GASLIMIT RETURNDATACOPY PUSH29 0x515D11122F47372CE22C143AC41FEFAA06956AC0A816E64736F6C6343 STOP ADDMOD GT STOP CALLER "
				},
				"gasEstimates": {
					"creation": {
						"codeDepositCost": "1162600",
						"executionCost": "infinite",
						"totalCost": "infinite"
					},
					"external": {
						"areYouContractOwner()": "2541",
						"areYouHaveRigthToVote()": "2639",
						"areYouVoted()": "2756",
						"calculateAmountOfTotalVotes()": "infinite",
						"candidates(uint256)": "infinite",
						"contractOwner()": "2578",
						"getCandidatesList()": "infinite",
						"getContractAddress()": "453",
						"getVoterRigthToVote(address)": "2978",
						"getVoterVoter(address)": "2983",
						"getWinnerName()": "infinite",
						"getWinningCandidate()": "infinite",
						"giveRightToVote(address)": "29425",
						"vote(string)": "infinite",
						"voters(address)": "infinite"
					},
					"internal": {
						"getVoterVotedRequire(address)": "infinite",
						"stringEqualTo(string memory,string memory)": "infinite"
					}
				},
				"methodIdentifiers": {
					"areYouContractOwner()": "3ddf3822",
					"areYouHaveRigthToVote()": "df703622",
					"areYouVoted()": "da265430",
					"calculateAmountOfTotalVotes()": "01c5556a",
					"candidates(uint256)": "3477ee2e",
					"contractOwner()": "ce606ee0",
					"getCandidatesList()": "4aba5f34",
					"getContractAddress()": "32a2c5d0",
					"getVoterRigthToVote(address)": "94b04e7d",
					"getVoterVoter(address)": "f0ee4577",
					"getWinnerName()": "2bfda515",
					"getWinningCandidate()": "f927cc29",
					"giveRightToVote(address)": "9e7b8d61",
					"vote(string)": "fc36e15b",
					"voters(address)": "a3ec138d"
				}
			},
			"storageLayout": {
				"storage": [
					{
						"astId": 15,
						"contract": "contracts/Ballot/Ballot.sol:MyBallot",
						"label": "contractOwner",
						"offset": 0,
						"slot": "0",
						"type": "t_address"
					},
					{
						"astId": 20,
						"contract": "contracts/Ballot/Ballot.sol:MyBallot",
						"label": "voters",
						"offset": 0,
						"slot": "1",
						"type": "t_mapping(t_address,t_struct(Voter)6_storage)"
					},
					{
						"astId": 24,
						"contract": "contracts/Ballot/Ballot.sol:MyBallot",
						"label": "candidates",
						"offset": 0,
						"slot": "2",
						"type": "t_array(t_struct(Candidate)13_storage)dyn_storage"
					},
					{
						"astId": 26,
						"contract": "contracts/Ballot/Ballot.sol:MyBallot",
						"label": "totalVotesCounter",
						"offset": 0,
						"slot": "3",
						"type": "t_uint256"
					},
					{
						"astId": 28,
						"contract": "contracts/Ballot/Ballot.sol:MyBallot",
						"label": "maxVotes",
						"offset": 0,
						"slot": "4",
						"type": "t_uint256"
					}
				],
				"types": {
					"t_address": {
						"encoding": "inplace",
						"label": "address",
						"numberOfBytes": "20"
					},
					"t_array(t_struct(Candidate)13_storage)dyn_storage": {
						"base": "t_struct(Candidate)13_storage",
						"encoding": "dynamic_array",
						"label": "struct MyBallot.Candidate[]",
						"numberOfBytes": "32"
					},
					"t_bool": {
						"encoding": "inplace",
						"label": "bool",
						"numberOfBytes": "1"
					},
					"t_mapping(t_address,t_struct(Voter)6_storage)": {
						"encoding": "mapping",
						"key": "t_address",
						"label": "mapping(address => struct MyBallot.Voter)",
						"numberOfBytes": "32",
						"value": "t_struct(Voter)6_storage"
					},
					"t_string_storage": {
						"encoding": "bytes",
						"label": "string",
						"numberOfBytes": "32"
					},
					"t_struct(Candidate)13_storage": {
						"encoding": "inplace",
						"label": "struct MyBallot.Candidate",
						"members": [
							{
								"astId": 8,
								"contract": "contracts/Ballot/Ballot.sol:MyBallot",
								"label": "name",
								"offset": 0,
								"slot": "0",
								"type": "t_string_storage"
							},
							{
								"astId": 10,
								"contract": "contracts/Ballot/Ballot.sol:MyBallot",
								"label": "party",
								"offset": 0,
								"slot": "1",
								"type": "t_string_storage"
							},
							{
								"astId": 12,
								"contract": "contracts/Ballot/Ballot.sol:MyBallot",
								"label": "votesCount",
								"offset": 0,
								"slot": "2",
								"type": "t_uint256"
							}
						],
						"numberOfBytes": "96"
					},
					"t_struct(Voter)6_storage": {
						"encoding": "inplace",
						"label": "struct MyBallot.Voter",
						"members": [
							{
								"astId": 3,
								"contract": "contracts/Ballot/Ballot.sol:MyBallot",
								"label": "canVote",
								"offset": 0,
								"slot": "0",
								"type": "t_bool"
							},
							{
								"astId": 5,
								"contract": "contracts/Ballot/Ballot.sol:MyBallot",
								"label": "hasVoted",
								"offset": 1,
								"slot": "0",
								"type": "t_bool"
							}
						],
						"numberOfBytes": "32"
					},
					"t_uint256": {
						"encoding": "inplace",
						"label": "uint256",
						"numberOfBytes": "32"
					}
				}
			},
			"userdoc": {
				"kind": "user",
				"methods": {},
				"version": 1
			}
		}
	}
}