{
	"contracts/Ballot/Ballot.sol": {
		"MyBallot": {
			"abi": [
				{
					"inputs": [
						{
							"components": [
								{
									"internalType": "string",
									"name": "name",
									"type": "string"
								},
								{
									"internalType": "string",
									"name": "party",
									"type": "string"
								},
								{
									"internalType": "uint256",
									"name": "votesCount",
									"type": "uint256"
								}
							],
							"internalType": "struct MyBallot.Candidate[]",
							"name": "_candidates",
							"type": "tuple[]"
						},
						{
							"internalType": "uint256",
							"name": "_maxVotes",
							"type": "uint256"
						}
					],
					"stateMutability": "nonpayable",
					"type": "constructor"
				},
				{
					"inputs": [],
					"name": "areYouContractOwner",
					"outputs": [
						{
							"internalType": "bool",
							"name": "",
							"type": "bool"
						}
					],
					"stateMutability": "view",
					"type": "function"
				},
				{
					"inputs": [],
					"name": "areYouHaveRigthToVote",
					"outputs": [
						{
							"internalType": "bool",
							"name": "",
							"type": "bool"
						}
					],
					"stateMutability": "view",
					"type": "function"
				},
				{
					"inputs": [],
					"name": "areYouVoted",
					"outputs": [
						{
							"internalType": "bool",
							"name": "",
							"type": "bool"
						}
					],
					"stateMutability": "view",
					"type": "function"
				},
				{
					"inputs": [
						{
							"internalType": "uint256",
							"name": "",
							"type": "uint256"
						}
					],
					"name": "candidates",
					"outputs": [
						{
							"internalType": "string",
							"name": "name",
							"type": "string"
						},
						{
							"internalType": "string",
							"name": "party",
							"type": "string"
						},
						{
							"internalType": "uint256",
							"name": "votesCount",
							"type": "uint256"
						}
					],
					"stateMutability": "view",
					"type": "function"
				},
				{
					"inputs": [],
					"name": "contractOwner",
					"outputs": [
						{
							"internalType": "address",
							"name": "",
							"type": "address"
						}
					],
					"stateMutability": "view",
					"type": "function"
				},
				{
					"inputs": [],
					"name": "getCandidatesList",
					"outputs": [
						{
							"components": [
								{
									"internalType": "string",
									"name": "name",
									"type": "string"
								},
								{
									"internalType": "string",
									"name": "party",
									"type": "string"
								},
								{
									"internalType": "uint256",
									"name": "votesCount",
									"type": "uint256"
								}
							],
							"internalType": "struct MyBallot.Candidate[]",
							"name": "",
							"type": "tuple[]"
						}
					],
					"stateMutability": "view",
					"type": "function"
				},
				{
					"inputs": [],
					"name": "getContractAddress",
					"outputs": [
						{
							"internalType": "address",
							"name": "",
							"type": "address"
						}
					],
					"stateMutability": "view",
					"type": "function"
				},
				{
					"inputs": [
						{
							"internalType": "address",
							"name": "voterAddress",
							"type": "address"
						}
					],
					"name": "getVoterRigthToVote",
					"outputs": [
						{
							"internalType": "bool",
							"name": "",
							"type": "bool"
						}
					],
					"stateMutability": "view",
					"type": "function"
				},
				{
					"inputs": [
						{
							"internalType": "address",
							"name": "voterAddress",
							"type": "address"
						}
					],
					"name": "getVoterVoted",
					"outputs": [
						{
							"internalType": "bool",
							"name": "",
							"type": "bool"
						}
					],
					"stateMutability": "view",
					"type": "function"
				},
				{
					"inputs": [],
					"name": "getWinnerName",
					"outputs": [
						{
							"internalType": "string",
							"name": "winnerName",
							"type": "string"
						}
					],
					"stateMutability": "view",
					"type": "function"
				},
				{
					"inputs": [],
					"name": "getWinningCandidate",
					"outputs": [
						{
							"internalType": "uint256",
							"name": "winningProposal",
							"type": "uint256"
						},
						{
							"internalType": "bool",
							"name": "isTie",
							"type": "bool"
						}
					],
					"stateMutability": "view",
					"type": "function"
				},
				{
					"inputs": [
						{
							"internalType": "address",
							"name": "voterAddress",
							"type": "address"
						}
					],
					"name": "giveRightToVote",
					"outputs": [],
					"stateMutability": "nonpayable",
					"type": "function"
				},
				{
					"inputs": [
						{
							"internalType": "string",
							"name": "name",
							"type": "string"
						}
					],
					"name": "vote",
					"outputs": [],
					"stateMutability": "nonpayable",
					"type": "function"
				},
				{
					"inputs": [
						{
							"internalType": "address",
							"name": "",
							"type": "address"
						}
					],
					"name": "voters",
					"outputs": [
						{
							"internalType": "bool",
							"name": "canVote",
							"type": "bool"
						},
						{
							"internalType": "bool",
							"name": "hasVoted",
							"type": "bool"
						}
					],
					"stateMutability": "view",
					"type": "function"
				}
			],
			"devdoc": {
				"kind": "dev",
				"methods": {},
				"version": 1
			},
			"evm": {
				"assembly": "    /* \"contracts/Ballot/Ballot.sol\":70:4685  contract MyBallot {... */\n  mstore(0x40, 0x80)\n    /* \"contracts/Ballot/Ballot.sol\":491:968  constructor(Candidate[] memory _candidates, uint _maxVotes) {... */\n  callvalue\n  dup1\n  iszero\n  tag_1\n  jumpi\n  0x00\n  dup1\n  revert\ntag_1:\n  pop\n  mload(0x40)\n  sub(codesize, bytecodeSize)\n  dup1\n  bytecodeSize\n  dup4\n  codecopy\n  dup2\n  dup2\n  add\n  0x40\n  mstore\n  dup2\n  add\n  swap1\n  tag_2\n  swap2\n  swap1\n  tag_3\n  jump\t// in\ntag_2:\n    /* \"contracts/Ballot/Ballot.sol\":588:598  msg.sender */\n  caller\n    /* \"contracts/Ballot/Ballot.sol\":572:585  contractOwner */\n  0x00\n  dup1\n    /* \"contracts/Ballot/Ballot.sol\":572:598  contractOwner = msg.sender */\n  0x0100\n  exp\n  dup2\n  sload\n  dup2\n  0xffffffffffffffffffffffffffffffffffffffff\n  mul\n  not\n  and\n  swap1\n  dup4\n  0xffffffffffffffffffffffffffffffffffffffff\n  and\n  mul\n  or\n  swap1\n  sstore\n  pop\n    /* \"contracts/Ballot/Ballot.sol\":951:960  _maxVotes */\n  dup1\n    /* \"contracts/Ballot/Ballot.sol\":940:948  maxVotes */\n  0x04\n    /* \"contracts/Ballot/Ballot.sol\":940:960  maxVotes = _maxVotes */\n  dup2\n  swap1\n  sstore\n  pop\n    /* \"contracts/Ballot/Ballot.sol\":491:968  constructor(Candidate[] memory _candidates, uint _maxVotes) {... */\n  pop\n  pop\n    /* \"contracts/Ballot/Ballot.sol\":70:4685  contract MyBallot {... */\n  jump(tag_6)\n    /* \"#utility.yul\":7:82   */\ntag_7:\n    /* \"#utility.yul\":40:46   */\n  0x00\n    /* \"#utility.yul\":73:75   */\n  0x40\n    /* \"#utility.yul\":67:76   */\n  mload\n    /* \"#utility.yul\":57:76   */\n  swap1\n  pop\n    /* \"#utility.yul\":7:82   */\n  swap1\n  jump\t// out\n    /* \"#utility.yul\":88:205   */\ntag_8:\n    /* \"#utility.yul\":197:198   */\n  0x00\n    /* \"#utility.yul\":194:195   */\n  dup1\n    /* \"#utility.yul\":187:199   */\n  revert\n    /* \"#utility.yul\":211:328   */\ntag_9:\n    /* \"#utility.yul\":320:321   */\n  0x00\n    /* \"#utility.yul\":317:318   */\n  dup1\n    /* \"#utility.yul\":310:322   */\n  revert\n    /* \"#utility.yul\":334:451   */\ntag_10:\n    /* \"#utility.yul\":443:444   */\n  0x00\n    /* \"#utility.yul\":440:441   */\n  dup1\n    /* \"#utility.yul\":433:445   */\n  revert\n    /* \"#utility.yul\":457:559   */\ntag_11:\n    /* \"#utility.yul\":498:504   */\n  0x00\n    /* \"#utility.yul\":549:551   */\n  0x1f\n    /* \"#utility.yul\":545:552   */\n  not\n    /* \"#utility.yul\":540:542   */\n  0x1f\n    /* \"#utility.yul\":533:538   */\n  dup4\n    /* \"#utility.yul\":529:543   */\n  add\n    /* \"#utility.yul\":525:553   */\n  and\n    /* \"#utility.yul\":515:553   */\n  swap1\n  pop\n    /* \"#utility.yul\":457:559   */\n  swap2\n  swap1\n  pop\n  jump\t// out\n    /* \"#utility.yul\":565:745   */\ntag_12:\n    /* \"#utility.yul\":613:690   */\n  0x4e487b7100000000000000000000000000000000000000000000000000000000\n    /* \"#utility.yul\":610:611   */\n  0x00\n    /* \"#utility.yul\":603:691   */\n  mstore\n    /* \"#utility.yul\":710:714   */\n  0x41\n    /* \"#utility.yul\":707:708   */\n  0x04\n    /* \"#utility.yul\":700:715   */\n  mstore\n    /* \"#utility.yul\":734:738   */\n  0x24\n    /* \"#utility.yul\":731:732   */\n  0x00\n    /* \"#utility.yul\":724:739   */\n  revert\n    /* \"#utility.yul\":751:1032   */\ntag_13:\n    /* \"#utility.yul\":834:861   */\n  tag_38\n    /* \"#utility.yul\":856:860   */\n  dup3\n    /* \"#utility.yul\":834:861   */\n  tag_11\n  jump\t// in\ntag_38:\n    /* \"#utility.yul\":826:832   */\n  dup2\n    /* \"#utility.yul\":822:862   */\n  add\n    /* \"#utility.yul\":964:970   */\n  dup2\n    /* \"#utility.yul\":952:962   */\n  dup2\n    /* \"#utility.yul\":949:971   */\n  lt\n    /* \"#utility.yul\":928:946   */\n  0xffffffffffffffff\n    /* \"#utility.yul\":916:926   */\n  dup3\n    /* \"#utility.yul\":913:947   */\n  gt\n    /* \"#utility.yul\":910:972   */\n  or\n    /* \"#utility.yul\":907:995   */\n  iszero\n  tag_39\n  jumpi\n    /* \"#utility.yul\":975:993   */\n  tag_40\n  tag_12\n  jump\t// in\ntag_40:\n    /* \"#utility.yul\":907:995   */\ntag_39:\n    /* \"#utility.yul\":1015:1025   */\n  dup1\n    /* \"#utility.yul\":1011:1013   */\n  0x40\n    /* \"#utility.yul\":1004:1026   */\n  mstore\n    /* \"#utility.yul\":794:1032   */\n  pop\n    /* \"#utility.yul\":751:1032   */\n  pop\n  pop\n  jump\t// out\n    /* \"#utility.yul\":1038:1167   */\ntag_14:\n    /* \"#utility.yul\":1072:1078   */\n  0x00\n    /* \"#utility.yul\":1099:1119   */\n  tag_42\n  tag_7\n  jump\t// in\ntag_42:\n    /* \"#utility.yul\":1089:1119   */\n  swap1\n  pop\n    /* \"#utility.yul\":1128:1161   */\n  tag_43\n    /* \"#utility.yul\":1156:1160   */\n  dup3\n    /* \"#utility.yul\":1148:1154   */\n  dup3\n    /* \"#utility.yul\":1128:1161   */\n  tag_13\n  jump\t// in\ntag_43:\n    /* \"#utility.yul\":1038:1167   */\n  swap2\n  swap1\n  pop\n  jump\t// out\n    /* \"#utility.yul\":1173:1509   */\ntag_15:\n    /* \"#utility.yul\":1275:1279   */\n  0x00\n    /* \"#utility.yul\":1365:1383   */\n  0xffffffffffffffff\n    /* \"#utility.yul\":1357:1363   */\n  dup3\n    /* \"#utility.yul\":1354:1384   */\n  gt\n    /* \"#utility.yul\":1351:1407   */\n  iszero\n  tag_45\n  jumpi\n    /* \"#utility.yul\":1387:1405   */\n  tag_46\n  tag_12\n  jump\t// in\ntag_46:\n    /* \"#utility.yul\":1351:1407   */\ntag_45:\n    /* \"#utility.yul\":1437:1441   */\n  0x20\n    /* \"#utility.yul\":1429:1435   */\n  dup3\n    /* \"#utility.yul\":1425:1442   */\n  mul\n    /* \"#utility.yul\":1417:1442   */\n  swap1\n  pop\n    /* \"#utility.yul\":1497:1501   */\n  0x20\n    /* \"#utility.yul\":1491:1495   */\n  dup2\n    /* \"#utility.yul\":1487:1502   */\n  add\n    /* \"#utility.yul\":1479:1502   */\n  swap1\n  pop\n    /* \"#utility.yul\":1173:1509   */\n  swap2\n  swap1\n  pop\n  jump\t// out\n    /* \"#utility.yul\":1515:1632   */\ntag_16:\n    /* \"#utility.yul\":1624:1625   */\n  0x00\n    /* \"#utility.yul\":1621:1622   */\n  dup1\n    /* \"#utility.yul\":1614:1626   */\n  revert\n    /* \"#utility.yul\":1638:1755   */\ntag_17:\n    /* \"#utility.yul\":1747:1748   */\n  0x00\n    /* \"#utility.yul\":1744:1745   */\n  dup1\n    /* \"#utility.yul\":1737:1749   */\n  revert\n    /* \"#utility.yul\":1761:1878   */\ntag_18:\n    /* \"#utility.yul\":1870:1871   */\n  0x00\n    /* \"#utility.yul\":1867:1868   */\n  dup1\n    /* \"#utility.yul\":1860:1872   */\n  revert\n    /* \"#utility.yul\":1884:2001   */\ntag_19:\n    /* \"#utility.yul\":1993:1994   */\n  0x00\n    /* \"#utility.yul\":1990:1991   */\n  dup1\n    /* \"#utility.yul\":1983:1995   */\n  revert\n    /* \"#utility.yul\":2007:2315   */\ntag_20:\n    /* \"#utility.yul\":2069:2073   */\n  0x00\n    /* \"#utility.yul\":2159:2177   */\n  0xffffffffffffffff\n    /* \"#utility.yul\":2151:2157   */\n  dup3\n    /* \"#utility.yul\":2148:2178   */\n  gt\n    /* \"#utility.yul\":2145:2201   */\n  iszero\n  tag_52\n  jumpi\n    /* \"#utility.yul\":2181:2199   */\n  tag_53\n  tag_12\n  jump\t// in\ntag_53:\n    /* \"#utility.yul\":2145:2201   */\ntag_52:\n    /* \"#utility.yul\":2219:2248   */\n  tag_54\n    /* \"#utility.yul\":2241:2247   */\n  dup3\n    /* \"#utility.yul\":2219:2248   */\n  tag_11\n  jump\t// in\ntag_54:\n    /* \"#utility.yul\":2211:2248   */\n  swap1\n  pop\n    /* \"#utility.yul\":2303:2307   */\n  0x20\n    /* \"#utility.yul\":2297:2301   */\n  dup2\n    /* \"#utility.yul\":2293:2308   */\n  add\n    /* \"#utility.yul\":2285:2308   */\n  swap1\n  pop\n    /* \"#utility.yul\":2007:2315   */\n  swap2\n  swap1\n  pop\n  jump\t// out\n    /* \"#utility.yul\":2321:2567   */\ntag_21:\n    /* \"#utility.yul\":2402:2403   */\n  0x00\n    /* \"#utility.yul\":2412:2525   */\ntag_56:\n    /* \"#utility.yul\":2426:2432   */\n  dup4\n    /* \"#utility.yul\":2423:2424   */\n  dup2\n    /* \"#utility.yul\":2420:2433   */\n  lt\n    /* \"#utility.yul\":2412:2525   */\n  iszero\n  tag_58\n  jumpi\n    /* \"#utility.yul\":2511:2512   */\n  dup1\n    /* \"#utility.yul\":2506:2509   */\n  dup3\n    /* \"#utility.yul\":2502:2513   */\n  add\n    /* \"#utility.yul\":2496:2514   */\n  mload\n    /* \"#utility.yul\":2492:2493   */\n  dup2\n    /* \"#utility.yul\":2487:2490   */\n  dup5\n    /* \"#utility.yul\":2483:2494   */\n  add\n    /* \"#utility.yul\":2476:2515   */\n  mstore\n    /* \"#utility.yul\":2448:2450   */\n  0x20\n    /* \"#utility.yul\":2445:2446   */\n  dup2\n    /* \"#utility.yul\":2441:2451   */\n  add\n    /* \"#utility.yul\":2436:2451   */\n  swap1\n  pop\n    /* \"#utility.yul\":2412:2525   */\n  jump(tag_56)\ntag_58:\n    /* \"#utility.yul\":2559:2560   */\n  0x00\n    /* \"#utility.yul\":2550:2556   */\n  dup5\n    /* \"#utility.yul\":2545:2548   */\n  dup5\n    /* \"#utility.yul\":2541:2557   */\n  add\n    /* \"#utility.yul\":2534:2561   */\n  mstore\n    /* \"#utility.yul\":2383:2567   */\n  pop\n    /* \"#utility.yul\":2321:2567   */\n  pop\n  pop\n  pop\n  jump\t// out\n    /* \"#utility.yul\":2573:3007   */\ntag_22:\n    /* \"#utility.yul\":2662:2667   */\n  0x00\n    /* \"#utility.yul\":2687:2753   */\n  tag_60\n    /* \"#utility.yul\":2703:2752   */\n  tag_61\n    /* \"#utility.yul\":2745:2751   */\n  dup5\n    /* \"#utility.yul\":2703:2752   */\n  tag_20\n  jump\t// in\ntag_61:\n    /* \"#utility.yul\":2687:2753   */\n  tag_14\n  jump\t// in\ntag_60:\n    /* \"#utility.yul\":2678:2753   */\n  swap1\n  pop\n    /* \"#utility.yul\":2776:2782   */\n  dup3\n    /* \"#utility.yul\":2769:2774   */\n  dup2\n    /* \"#utility.yul\":2762:2783   */\n  mstore\n    /* \"#utility.yul\":2814:2818   */\n  0x20\n    /* \"#utility.yul\":2807:2812   */\n  dup2\n    /* \"#utility.yul\":2803:2819   */\n  add\n    /* \"#utility.yul\":2852:2855   */\n  dup5\n    /* \"#utility.yul\":2843:2849   */\n  dup5\n    /* \"#utility.yul\":2838:2841   */\n  dup5\n    /* \"#utility.yul\":2834:2850   */\n  add\n    /* \"#utility.yul\":2831:2856   */\n  gt\n    /* \"#utility.yul\":2828:2940   */\n  iszero\n  tag_62\n  jumpi\n    /* \"#utility.yul\":2859:2938   */\n  tag_63\n  tag_19\n  jump\t// in\ntag_63:\n    /* \"#utility.yul\":2828:2940   */\ntag_62:\n    /* \"#utility.yul\":2949:3001   */\n  tag_64\n    /* \"#utility.yul\":2994:3000   */\n  dup5\n    /* \"#utility.yul\":2989:2992   */\n  dup3\n    /* \"#utility.yul\":2984:2987   */\n  dup6\n    /* \"#utility.yul\":2949:3001   */\n  tag_21\n  jump\t// in\ntag_64:\n    /* \"#utility.yul\":2668:3007   */\n  pop\n    /* \"#utility.yul\":2573:3007   */\n  swap4\n  swap3\n  pop\n  pop\n  pop\n  jump\t// out\n    /* \"#utility.yul\":3027:3382   */\ntag_23:\n    /* \"#utility.yul\":3094:3099   */\n  0x00\n    /* \"#utility.yul\":3143:3146   */\n  dup3\n    /* \"#utility.yul\":3136:3140   */\n  0x1f\n    /* \"#utility.yul\":3128:3134   */\n  dup4\n    /* \"#utility.yul\":3124:3141   */\n  add\n    /* \"#utility.yul\":3120:3147   */\n  slt\n    /* \"#utility.yul\":3110:3232   */\n  tag_66\n  jumpi\n    /* \"#utility.yul\":3151:3230   */\n  tag_67\n  tag_10\n  jump\t// in\ntag_67:\n    /* \"#utility.yul\":3110:3232   */\ntag_66:\n    /* \"#utility.yul\":3261:3267   */\n  dup2\n    /* \"#utility.yul\":3255:3268   */\n  mload\n    /* \"#utility.yul\":3286:3376   */\n  tag_68\n    /* \"#utility.yul\":3372:3375   */\n  dup5\n    /* \"#utility.yul\":3364:3370   */\n  dup3\n    /* \"#utility.yul\":3357:3361   */\n  0x20\n    /* \"#utility.yul\":3349:3355   */\n  dup7\n    /* \"#utility.yul\":3345:3362   */\n  add\n    /* \"#utility.yul\":3286:3376   */\n  tag_22\n  jump\t// in\ntag_68:\n    /* \"#utility.yul\":3277:3376   */\n  swap2\n  pop\n    /* \"#utility.yul\":3100:3382   */\n  pop\n    /* \"#utility.yul\":3027:3382   */\n  swap3\n  swap2\n  pop\n  pop\n  jump\t// out\n    /* \"#utility.yul\":3388:3465   */\ntag_24:\n    /* \"#utility.yul\":3425:3432   */\n  0x00\n    /* \"#utility.yul\":3454:3459   */\n  dup2\n    /* \"#utility.yul\":3443:3459   */\n  swap1\n  pop\n    /* \"#utility.yul\":3388:3465   */\n  swap2\n  swap1\n  pop\n  jump\t// out\n    /* \"#utility.yul\":3471:3593   */\ntag_25:\n    /* \"#utility.yul\":3544:3568   */\n  tag_71\n    /* \"#utility.yul\":3562:3567   */\n  dup2\n    /* \"#utility.yul\":3544:3568   */\n  tag_24\n  jump\t// in\ntag_71:\n    /* \"#utility.yul\":3537:3542   */\n  dup2\n    /* \"#utility.yul\":3534:3569   */\n  eq\n    /* \"#utility.yul\":3524:3587   */\n  tag_72\n  jumpi\n    /* \"#utility.yul\":3583:3584   */\n  0x00\n    /* \"#utility.yul\":3580:3581   */\n  dup1\n    /* \"#utility.yul\":3573:3585   */\n  revert\n    /* \"#utility.yul\":3524:3587   */\ntag_72:\n    /* \"#utility.yul\":3471:3593   */\n  pop\n  jump\t// out\n    /* \"#utility.yul\":3599:3742   */\ntag_26:\n    /* \"#utility.yul\":3656:3661   */\n  0x00\n    /* \"#utility.yul\":3687:3693   */\n  dup2\n    /* \"#utility.yul\":3681:3694   */\n  mload\n    /* \"#utility.yul\":3672:3694   */\n  swap1\n  pop\n    /* \"#utility.yul\":3703:3736   */\n  tag_74\n    /* \"#utility.yul\":3730:3735   */\n  dup2\n    /* \"#utility.yul\":3703:3736   */\n  tag_25\n  jump\t// in\ntag_74:\n    /* \"#utility.yul\":3599:3742   */\n  swap3\n  swap2\n  pop\n  pop\n  jump\t// out\n    /* \"#utility.yul\":3781:4893   */\ntag_27:\n    /* \"#utility.yul\":3866:3871   */\n  0x00\n    /* \"#utility.yul\":3910:3914   */\n  0x60\n    /* \"#utility.yul\":3898:3907   */\n  dup3\n    /* \"#utility.yul\":3893:3896   */\n  dup5\n    /* \"#utility.yul\":3889:3908   */\n  sub\n    /* \"#utility.yul\":3885:3915   */\n  slt\n    /* \"#utility.yul\":3882:3999   */\n  iszero\n  tag_76\n  jumpi\n    /* \"#utility.yul\":3918:3997   */\n  tag_77\n  tag_17\n  jump\t// in\ntag_77:\n    /* \"#utility.yul\":3882:3999   */\ntag_76:\n    /* \"#utility.yul\":4017:4038   */\n  tag_78\n    /* \"#utility.yul\":4033:4037   */\n  0x60\n    /* \"#utility.yul\":4017:4038   */\n  tag_14\n  jump\t// in\ntag_78:\n    /* \"#utility.yul\":4008:4038   */\n  swap1\n  pop\n    /* \"#utility.yul\":4118:4119   */\n  0x00\n    /* \"#utility.yul\":4107:4116   */\n  dup3\n    /* \"#utility.yul\":4103:4120   */\n  add\n    /* \"#utility.yul\":4097:4121   */\n  mload\n    /* \"#utility.yul\":4148:4166   */\n  0xffffffffffffffff\n    /* \"#utility.yul\":4140:4146   */\n  dup2\n    /* \"#utility.yul\":4137:4167   */\n  gt\n    /* \"#utility.yul\":4134:4251   */\n  iszero\n  tag_79\n  jumpi\n    /* \"#utility.yul\":4170:4249   */\n  tag_80\n  tag_18\n  jump\t// in\ntag_80:\n    /* \"#utility.yul\":4134:4251   */\ntag_79:\n    /* \"#utility.yul\":4290:4360   */\n  tag_81\n    /* \"#utility.yul\":4356:4359   */\n  dup5\n    /* \"#utility.yul\":4347:4353   */\n  dup3\n    /* \"#utility.yul\":4336:4345   */\n  dup6\n    /* \"#utility.yul\":4332:4354   */\n  add\n    /* \"#utility.yul\":4290:4360   */\n  tag_23\n  jump\t// in\ntag_81:\n    /* \"#utility.yul\":4283:4287   */\n  0x00\n    /* \"#utility.yul\":4276:4281   */\n  dup4\n    /* \"#utility.yul\":4272:4288   */\n  add\n    /* \"#utility.yul\":4265:4361   */\n  mstore\n    /* \"#utility.yul\":4048:4372   */\n  pop\n    /* \"#utility.yul\":4453:4455   */\n  0x20\n    /* \"#utility.yul\":4442:4451   */\n  dup3\n    /* \"#utility.yul\":4438:4456   */\n  add\n    /* \"#utility.yul\":4432:4457   */\n  mload\n    /* \"#utility.yul\":4484:4502   */\n  0xffffffffffffffff\n    /* \"#utility.yul\":4476:4482   */\n  dup2\n    /* \"#utility.yul\":4473:4503   */\n  gt\n    /* \"#utility.yul\":4470:4587   */\n  iszero\n  tag_82\n  jumpi\n    /* \"#utility.yul\":4506:4585   */\n  tag_83\n  tag_18\n  jump\t// in\ntag_83:\n    /* \"#utility.yul\":4470:4587   */\ntag_82:\n    /* \"#utility.yul\":4626:4696   */\n  tag_84\n    /* \"#utility.yul\":4692:4695   */\n  dup5\n    /* \"#utility.yul\":4683:4689   */\n  dup3\n    /* \"#utility.yul\":4672:4681   */\n  dup6\n    /* \"#utility.yul\":4668:4690   */\n  add\n    /* \"#utility.yul\":4626:4696   */\n  tag_23\n  jump\t// in\ntag_84:\n    /* \"#utility.yul\":4619:4623   */\n  0x20\n    /* \"#utility.yul\":4612:4617   */\n  dup4\n    /* \"#utility.yul\":4608:4624   */\n  add\n    /* \"#utility.yul\":4601:4697   */\n  mstore\n    /* \"#utility.yul\":4382:4708   */\n  pop\n    /* \"#utility.yul\":4773:4775   */\n  0x40\n    /* \"#utility.yul\":4814:4874   */\n  tag_85\n    /* \"#utility.yul\":4870:4873   */\n  dup5\n    /* \"#utility.yul\":4861:4867   */\n  dup3\n    /* \"#utility.yul\":4850:4859   */\n  dup6\n    /* \"#utility.yul\":4846:4868   */\n  add\n    /* \"#utility.yul\":4814:4874   */\n  tag_26\n  jump\t// in\ntag_85:\n    /* \"#utility.yul\":4807:4811   */\n  0x40\n    /* \"#utility.yul\":4800:4805   */\n  dup4\n    /* \"#utility.yul\":4796:4812   */\n  add\n    /* \"#utility.yul\":4789:4875   */\n  mstore\n    /* \"#utility.yul\":4718:4886   */\n  pop\n    /* \"#utility.yul\":3781:4893   */\n  swap3\n  swap2\n  pop\n  pop\n  jump\t// out\n    /* \"#utility.yul\":4934:5939   */\ntag_28:\n    /* \"#utility.yul\":5066:5071   */\n  0x00\n    /* \"#utility.yul\":5091:5197   */\n  tag_87\n    /* \"#utility.yul\":5107:5196   */\n  tag_88\n    /* \"#utility.yul\":5189:5195   */\n  dup5\n    /* \"#utility.yul\":5107:5196   */\n  tag_15\n  jump\t// in\ntag_88:\n    /* \"#utility.yul\":5091:5197   */\n  tag_14\n  jump\t// in\ntag_87:\n    /* \"#utility.yul\":5082:5197   */\n  swap1\n  pop\n    /* \"#utility.yul\":5217:5222   */\n  dup1\n    /* \"#utility.yul\":5246:5252   */\n  dup4\n    /* \"#utility.yul\":5239:5244   */\n  dup3\n    /* \"#utility.yul\":5232:5253   */\n  mstore\n    /* \"#utility.yul\":5280:5284   */\n  0x20\n    /* \"#utility.yul\":5273:5278   */\n  dup3\n    /* \"#utility.yul\":5269:5285   */\n  add\n    /* \"#utility.yul\":5262:5285   */\n  swap1\n  pop\n    /* \"#utility.yul\":5333:5337   */\n  0x20\n    /* \"#utility.yul\":5325:5331   */\n  dup5\n    /* \"#utility.yul\":5321:5338   */\n  mul\n    /* \"#utility.yul\":5313:5319   */\n  dup4\n    /* \"#utility.yul\":5309:5339   */\n  add\n    /* \"#utility.yul\":5362:5365   */\n  dup6\n    /* \"#utility.yul\":5354:5360   */\n  dup2\n    /* \"#utility.yul\":5351:5366   */\n  gt\n    /* \"#utility.yul\":5348:5470   */\n  iszero\n  tag_89\n  jumpi\n    /* \"#utility.yul\":5381:5460   */\n  tag_90\n  tag_16\n  jump\t// in\ntag_90:\n    /* \"#utility.yul\":5348:5470   */\ntag_89:\n    /* \"#utility.yul\":5496:5502   */\n  dup4\n    /* \"#utility.yul\":5479:5933   */\ntag_91:\n    /* \"#utility.yul\":5513:5519   */\n  dup2\n    /* \"#utility.yul\":5508:5511   */\n  dup2\n    /* \"#utility.yul\":5505:5520   */\n  lt\n    /* \"#utility.yul\":5479:5933   */\n  iszero\n  tag_93\n  jumpi\n    /* \"#utility.yul\":5595:5598   */\n  dup1\n    /* \"#utility.yul\":5589:5599   */\n  mload\n    /* \"#utility.yul\":5631:5649   */\n  0xffffffffffffffff\n    /* \"#utility.yul\":5618:5629   */\n  dup2\n    /* \"#utility.yul\":5615:5650   */\n  gt\n    /* \"#utility.yul\":5612:5734   */\n  iszero\n  tag_94\n  jumpi\n    /* \"#utility.yul\":5653:5732   */\n  tag_95\n  tag_10\n  jump\t// in\ntag_95:\n    /* \"#utility.yul\":5612:5734   */\ntag_94:\n    /* \"#utility.yul\":5777:5788   */\n  dup1\n    /* \"#utility.yul\":5769:5775   */\n  dup7\n    /* \"#utility.yul\":5765:5789   */\n  add\n    /* \"#utility.yul\":5815:5888   */\n  tag_96\n    /* \"#utility.yul\":5884:5887   */\n  dup10\n    /* \"#utility.yul\":5872:5882   */\n  dup3\n    /* \"#utility.yul\":5815:5888   */\n  tag_27\n  jump\t// in\ntag_96:\n    /* \"#utility.yul\":5810:5813   */\n  dup6\n    /* \"#utility.yul\":5803:5889   */\n  mstore\n    /* \"#utility.yul\":5918:5922   */\n  0x20\n    /* \"#utility.yul\":5913:5916   */\n  dup6\n    /* \"#utility.yul\":5909:5923   */\n  add\n    /* \"#utility.yul\":5902:5923   */\n  swap5\n  pop\n    /* \"#utility.yul\":5555:5933   */\n  pop\n  pop\n    /* \"#utility.yul\":5539:5543   */\n  0x20\n    /* \"#utility.yul\":5534:5537   */\n  dup2\n    /* \"#utility.yul\":5530:5544   */\n  add\n    /* \"#utility.yul\":5523:5544   */\n  swap1\n  pop\n    /* \"#utility.yul\":5479:5933   */\n  jump(tag_91)\ntag_93:\n    /* \"#utility.yul\":5483:5504   */\n  pop\n    /* \"#utility.yul\":5072:5939   */\n  pop\n  pop\n    /* \"#utility.yul\":4934:5939   */\n  swap4\n  swap3\n  pop\n  pop\n  pop\n  jump\t// out\n    /* \"#utility.yul\":5980:6415   */\ntag_29:\n    /* \"#utility.yul\":6087:6092   */\n  0x00\n    /* \"#utility.yul\":6136:6139   */\n  dup3\n    /* \"#utility.yul\":6129:6133   */\n  0x1f\n    /* \"#utility.yul\":6121:6127   */\n  dup4\n    /* \"#utility.yul\":6117:6134   */\n  add\n    /* \"#utility.yul\":6113:6140   */\n  slt\n    /* \"#utility.yul\":6103:6225   */\n  tag_98\n  jumpi\n    /* \"#utility.yul\":6144:6223   */\n  tag_99\n  tag_10\n  jump\t// in\ntag_99:\n    /* \"#utility.yul\":6103:6225   */\ntag_98:\n    /* \"#utility.yul\":6254:6260   */\n  dup2\n    /* \"#utility.yul\":6248:6261   */\n  mload\n    /* \"#utility.yul\":6279:6409   */\n  tag_100\n    /* \"#utility.yul\":6405:6408   */\n  dup5\n    /* \"#utility.yul\":6397:6403   */\n  dup3\n    /* \"#utility.yul\":6390:6394   */\n  0x20\n    /* \"#utility.yul\":6382:6388   */\n  dup7\n    /* \"#utility.yul\":6378:6395   */\n  add\n    /* \"#utility.yul\":6279:6409   */\n  tag_28\n  jump\t// in\ntag_100:\n    /* \"#utility.yul\":6270:6409   */\n  swap2\n  pop\n    /* \"#utility.yul\":6093:6415   */\n  pop\n    /* \"#utility.yul\":5980:6415   */\n  swap3\n  swap2\n  pop\n  pop\n  jump\t// out\n    /* \"#utility.yul\":6421:7181   */\ntag_3:\n    /* \"#utility.yul\":6550:6556   */\n  0x00\n    /* \"#utility.yul\":6558:6564   */\n  dup1\n    /* \"#utility.yul\":6607:6609   */\n  0x40\n    /* \"#utility.yul\":6595:6604   */\n  dup4\n    /* \"#utility.yul\":6586:6593   */\n  dup6\n    /* \"#utility.yul\":6582:6605   */\n  sub\n    /* \"#utility.yul\":6578:6610   */\n  slt\n    /* \"#utility.yul\":6575:6694   */\n  iszero\n  tag_102\n  jumpi\n    /* \"#utility.yul\":6613:6692   */\n  tag_103\n  tag_8\n  jump\t// in\ntag_103:\n    /* \"#utility.yul\":6575:6694   */\ntag_102:\n    /* \"#utility.yul\":6754:6755   */\n  0x00\n    /* \"#utility.yul\":6743:6752   */\n  dup4\n    /* \"#utility.yul\":6739:6756   */\n  add\n    /* \"#utility.yul\":6733:6757   */\n  mload\n    /* \"#utility.yul\":6784:6802   */\n  0xffffffffffffffff\n    /* \"#utility.yul\":6776:6782   */\n  dup2\n    /* \"#utility.yul\":6773:6803   */\n  gt\n    /* \"#utility.yul\":6770:6887   */\n  iszero\n  tag_104\n  jumpi\n    /* \"#utility.yul\":6806:6885   */\n  tag_105\n  tag_9\n  jump\t// in\ntag_105:\n    /* \"#utility.yul\":6770:6887   */\ntag_104:\n    /* \"#utility.yul\":6911:7025   */\n  tag_106\n    /* \"#utility.yul\":7017:7024   */\n  dup6\n    /* \"#utility.yul\":7008:7014   */\n  dup3\n    /* \"#utility.yul\":6997:7006   */\n  dup7\n    /* \"#utility.yul\":6993:7015   */\n  add\n    /* \"#utility.yul\":6911:7025   */\n  tag_29\n  jump\t// in\ntag_106:\n    /* \"#utility.yul\":6901:7025   */\n  swap3\n  pop\n    /* \"#utility.yul\":6704:7035   */\n  pop\n    /* \"#utility.yul\":7074:7076   */\n  0x20\n    /* \"#utility.yul\":7100:7164   */\n  tag_107\n    /* \"#utility.yul\":7156:7163   */\n  dup6\n    /* \"#utility.yul\":7147:7153   */\n  dup3\n    /* \"#utility.yul\":7136:7145   */\n  dup7\n    /* \"#utility.yul\":7132:7154   */\n  add\n    /* \"#utility.yul\":7100:7164   */\n  tag_26\n  jump\t// in\ntag_107:\n    /* \"#utility.yul\":7090:7164   */\n  swap2\n  pop\n    /* \"#utility.yul\":7045:7174   */\n  pop\n    /* \"#utility.yul\":6421:7181   */\n  swap3\n  pop\n  swap3\n  swap1\n  pop\n  jump\t// out\n    /* \"contracts/Ballot/Ballot.sol\":70:4685  contract MyBallot {... */\ntag_6:\n  dataSize(sub_0)\n  dup1\n  dataOffset(sub_0)\n  0x00\n  codecopy\n  0x00\n  return\nstop\n\nsub_0: assembly {\n        /* \"contracts/Ballot/Ballot.sol\":70:4685  contract MyBallot {... */\n      mstore(0x40, 0x80)\n      callvalue\n      dup1\n      iszero\n      tag_1\n      jumpi\n      0x00\n      dup1\n      revert\n    tag_1:\n      pop\n      jumpi(tag_2, lt(calldatasize, 0x04))\n      shr(0xe0, calldataload(0x00))\n      dup1\n      0x9e7b8d61\n      gt\n      tag_17\n      jumpi\n      dup1\n      0xda265430\n      gt\n      tag_18\n      jumpi\n      dup1\n      0xda265430\n      eq\n      tag_13\n      jumpi\n      dup1\n      0xdf703622\n      eq\n      tag_14\n      jumpi\n      dup1\n      0xf927cc29\n      eq\n      tag_15\n      jumpi\n      dup1\n      0xfc36e15b\n      eq\n      tag_16\n      jumpi\n      jump(tag_2)\n    tag_18:\n      dup1\n      0x9e7b8d61\n      eq\n      tag_10\n      jumpi\n      dup1\n      0xa3ec138d\n      eq\n      tag_11\n      jumpi\n      dup1\n      0xce606ee0\n      eq\n      tag_12\n      jumpi\n      jump(tag_2)\n    tag_17:\n      dup1\n      0x3ddf3822\n      gt\n      tag_19\n      jumpi\n      dup1\n      0x3ddf3822\n      eq\n      tag_6\n      jumpi\n      dup1\n      0x4aba5f34\n      eq\n      tag_7\n      jumpi\n      dup1\n      0x8d85cc09\n      eq\n      tag_8\n      jumpi\n      dup1\n      0x94b04e7d\n      eq\n      tag_9\n      jumpi\n      jump(tag_2)\n    tag_19:\n      dup1\n      0x2bfda515\n      eq\n      tag_3\n      jumpi\n      dup1\n      0x32a2c5d0\n      eq\n      tag_4\n      jumpi\n      dup1\n      0x3477ee2e\n      eq\n      tag_5\n      jumpi\n    tag_2:\n      0x00\n      dup1\n      revert\n        /* \"contracts/Ballot/Ballot.sol\":2717:3013  function getWinnerName() public view returns (string memory winnerName) {... */\n    tag_3:\n      tag_20\n      tag_21\n      jump\t// in\n    tag_20:\n      mload(0x40)\n      tag_22\n      swap2\n      swap1\n      tag_23\n      jump\t// in\n    tag_22:\n      mload(0x40)\n      dup1\n      swap2\n      sub\n      swap1\n      return\n        /* \"contracts/Ballot/Ballot.sol\":3751:3850  function getContractAddress() public view returns (address) {... */\n    tag_4:\n      tag_24\n      tag_25\n      jump\t// in\n    tag_24:\n      mload(0x40)\n      tag_26\n      swap2\n      swap1\n      tag_27\n      jump\t// in\n    tag_26:\n      mload(0x40)\n      dup1\n      swap2\n      sub\n      swap1\n      return\n        /* \"contracts/Ballot/Ballot.sol\":362:391  Candidate[] public candidates */\n    tag_5:\n      tag_28\n      0x04\n      dup1\n      calldatasize\n      sub\n      dup2\n      add\n      swap1\n      tag_29\n      swap2\n      swap1\n      tag_30\n      jump\t// in\n    tag_29:\n      tag_31\n      jump\t// in\n    tag_28:\n      mload(0x40)\n      tag_32\n      swap4\n      swap3\n      swap2\n      swap1\n      tag_33\n      jump\t// in\n    tag_32:\n      mload(0x40)\n      dup1\n      swap2\n      sub\n      swap1\n      return\n        /* \"contracts/Ballot/Ballot.sol\":3858:3969  function areYouContractOwner() public view returns (bool) {... */\n    tag_6:\n      tag_34\n      tag_35\n      jump\t// in\n    tag_34:\n      mload(0x40)\n      tag_36\n      swap2\n      swap1\n      tag_37\n      jump\t// in\n    tag_36:\n      mload(0x40)\n      dup1\n      swap2\n      sub\n      swap1\n      return\n        /* \"contracts/Ballot/Ballot.sol\":3637:3743  function getCandidatesList() public view returns (Candidate[] memory) {... */\n    tag_7:\n      tag_38\n      tag_39\n      jump\t// in\n    tag_38:\n      mload(0x40)\n      tag_40\n      swap2\n      swap1\n      tag_41\n      jump\t// in\n    tag_40:\n      mload(0x40)\n      dup1\n      swap2\n      sub\n      swap1\n      return\n        /* \"contracts/Ballot/Ballot.sol\":4351:4478  function getVoterVoted(address voterAddress) public view returns (bool) {... */\n    tag_8:\n      tag_42\n      0x04\n      dup1\n      calldatasize\n      sub\n      dup2\n      add\n      swap1\n      tag_43\n      swap2\n      swap1\n      tag_44\n      jump\t// in\n    tag_43:\n      tag_45\n      jump\t// in\n    tag_42:\n      mload(0x40)\n      tag_46\n      swap2\n      swap1\n      tag_37\n      jump\t// in\n    tag_46:\n      mload(0x40)\n      dup1\n      swap2\n      sub\n      swap1\n      return\n        /* \"contracts/Ballot/Ballot.sol\":4102:4234  function getVoterRigthToVote(address voterAddress) public view returns (bool) {... */\n    tag_9:\n      tag_47\n      0x04\n      dup1\n      calldatasize\n      sub\n      dup2\n      add\n      swap1\n      tag_48\n      swap2\n      swap1\n      tag_44\n      jump\t// in\n    tag_48:\n      tag_49\n      jump\t// in\n    tag_47:\n      mload(0x40)\n      tag_50\n      swap2\n      swap1\n      tag_37\n      jump\t// in\n    tag_50:\n      mload(0x40)\n      dup1\n      swap2\n      sub\n      swap1\n      return\n        /* \"contracts/Ballot/Ballot.sol\":2043:2189  function giveRightToVote(address voterAddress) public giveRightToVoteModifier(voterAddress) {... */\n    tag_10:\n      tag_51\n      0x04\n      dup1\n      calldatasize\n      sub\n      dup2\n      add\n      swap1\n      tag_52\n      swap2\n      swap1\n      tag_44\n      jump\t// in\n    tag_52:\n      tag_53\n      jump\t// in\n    tag_51:\n      stop\n        /* \"contracts/Ballot/Ballot.sol\":314:353  mapping(address => Voter) public voters */\n    tag_11:\n      tag_54\n      0x04\n      dup1\n      calldatasize\n      sub\n      dup2\n      add\n      swap1\n      tag_55\n      swap2\n      swap1\n      tag_44\n      jump\t// in\n    tag_55:\n      tag_56\n      jump\t// in\n    tag_54:\n      mload(0x40)\n      tag_57\n      swap3\n      swap2\n      swap1\n      tag_58\n      jump\t// in\n    tag_57:\n      mload(0x40)\n      dup1\n      swap2\n      sub\n      swap1\n      return\n        /* \"contracts/Ballot/Ballot.sol\":277:305  address public contractOwner */\n    tag_12:\n      tag_59\n      tag_60\n      jump\t// in\n    tag_59:\n      mload(0x40)\n      tag_61\n      swap2\n      swap1\n      tag_27\n      jump\t// in\n    tag_61:\n      mload(0x40)\n      dup1\n      swap2\n      sub\n      swap1\n      return\n        /* \"contracts/Ballot/Ballot.sol\":4242:4343  function areYouVoted() public view returns (bool) {... */\n    tag_13:\n      tag_62\n      tag_63\n      jump\t// in\n    tag_62:\n      mload(0x40)\n      tag_64\n      swap2\n      swap1\n      tag_37\n      jump\t// in\n    tag_64:\n      mload(0x40)\n      dup1\n      swap2\n      sub\n      swap1\n      return\n        /* \"contracts/Ballot/Ballot.sol\":3977:4094  function areYouHaveRigthToVote() public view returns (bool) {... */\n    tag_14:\n      tag_65\n      tag_66\n      jump\t// in\n    tag_65:\n      mload(0x40)\n      tag_67\n      swap2\n      swap1\n      tag_37\n      jump\t// in\n    tag_67:\n      mload(0x40)\n      dup1\n      swap2\n      sub\n      swap1\n      return\n        /* \"contracts/Ballot/Ballot.sol\":3021:3629  function getWinningCandidate() public view returns (uint winningProposal, bool isTie) {        ... */\n    tag_15:\n      tag_68\n      tag_69\n      jump\t// in\n    tag_68:\n      mload(0x40)\n      tag_70\n      swap3\n      swap2\n      swap1\n      tag_71\n      jump\t// in\n    tag_70:\n      mload(0x40)\n      dup1\n      swap2\n      sub\n      swap1\n      return\n        /* \"contracts/Ballot/Ballot.sol\":2197:2709  function vote(string memory name) public voteModifier(msg.sender) {... */\n    tag_16:\n      tag_72\n      0x04\n      dup1\n      calldatasize\n      sub\n      dup2\n      add\n      swap1\n      tag_73\n      swap2\n      swap1\n      tag_74\n      jump\t// in\n    tag_73:\n      tag_75\n      jump\t// in\n    tag_72:\n      stop\n        /* \"contracts/Ballot/Ballot.sol\":2717:3013  function getWinnerName() public view returns (string memory winnerName) {... */\n    tag_21:\n        /* \"contracts/Ballot/Ballot.sol\":2763:2787  string memory winnerName */\n      0x60\n        /* \"contracts/Ballot/Ballot.sol\":2801:2821  uint winningProposal */\n      0x00\n        /* \"contracts/Ballot/Ballot.sol\":2823:2833  bool isTie */\n      dup1\n        /* \"contracts/Ballot/Ballot.sol\":2837:2858  getWinningCandidate() */\n      tag_77\n        /* \"contracts/Ballot/Ballot.sol\":2837:2856  getWinningCandidate */\n      tag_69\n        /* \"contracts/Ballot/Ballot.sol\":2837:2858  getWinningCandidate() */\n      jump\t// in\n    tag_77:\n        /* \"contracts/Ballot/Ballot.sol\":2800:2858  (uint winningProposal, bool isTie) = getWinningCandidate() */\n      swap2\n      pop\n      swap2\n      pop\n        /* \"contracts/Ballot/Ballot.sol\":2892:2897  isTie */\n      dup1\n        /* \"contracts/Ballot/Ballot.sol\":2891:2897  !isTie */\n      iszero\n        /* \"contracts/Ballot/Ballot.sol\":2869:2949  require(... */\n      tag_78\n      jumpi\n      mload(0x40)\n      0x08c379a000000000000000000000000000000000000000000000000000000000\n      dup2\n      mstore\n      0x04\n      add\n      tag_79\n      swap1\n      tag_80\n      jump\t// in\n    tag_79:\n      mload(0x40)\n      dup1\n      swap2\n      sub\n      swap1\n      revert\n    tag_78:\n        /* \"contracts/Ballot/Ballot.sol\":2973:2983  candidates */\n      0x02\n        /* \"contracts/Ballot/Ballot.sol\":2984:2999  winningProposal */\n      dup3\n        /* \"contracts/Ballot/Ballot.sol\":2973:3000  candidates[winningProposal] */\n      dup2\n      sload\n      dup2\n      lt\n      tag_81\n      jumpi\n      tag_82\n      tag_83\n      jump\t// in\n    tag_82:\n    tag_81:\n      swap1\n      0x00\n      mstore\n      keccak256(0x00, 0x20)\n      swap1\n      0x03\n      mul\n      add\n        /* \"contracts/Ballot/Ballot.sol\":2973:3005  candidates[winningProposal].name */\n      0x00\n      add\n        /* \"contracts/Ballot/Ballot.sol\":2960:3005  winnerName = candidates[winningProposal].name */\n      dup1\n      sload\n      tag_85\n      swap1\n      tag_86\n      jump\t// in\n    tag_85:\n      dup1\n      0x1f\n      add\n      0x20\n      dup1\n      swap2\n      div\n      mul\n      0x20\n      add\n      mload(0x40)\n      swap1\n      dup2\n      add\n      0x40\n      mstore\n      dup1\n      swap3\n      swap2\n      swap1\n      dup2\n      dup2\n      mstore\n      0x20\n      add\n      dup3\n      dup1\n      sload\n      tag_87\n      swap1\n      tag_86\n      jump\t// in\n    tag_87:\n      dup1\n      iszero\n      tag_88\n      jumpi\n      dup1\n      0x1f\n      lt\n      tag_89\n      jumpi\n      0x0100\n      dup1\n      dup4\n      sload\n      div\n      mul\n      dup4\n      mstore\n      swap2\n      0x20\n      add\n      swap2\n      jump(tag_88)\n    tag_89:\n      dup3\n      add\n      swap2\n      swap1\n      0x00\n      mstore\n      keccak256(0x00, 0x20)\n      swap1\n    tag_90:\n      dup2\n      sload\n      dup2\n      mstore\n      swap1\n      0x01\n      add\n      swap1\n      0x20\n      add\n      dup1\n      dup4\n      gt\n      tag_90\n      jumpi\n      dup3\n      swap1\n      sub\n      0x1f\n      and\n      dup3\n      add\n      swap2\n    tag_88:\n      pop\n      pop\n      pop\n      pop\n      pop\n      swap3\n      pop\n        /* \"contracts/Ballot/Ballot.sol\":2789:3013  {... */\n      pop\n      pop\n        /* \"contracts/Ballot/Ballot.sol\":2717:3013  function getWinnerName() public view returns (string memory winnerName) {... */\n      swap1\n      jump\t// out\n        /* \"contracts/Ballot/Ballot.sol\":3751:3850  function getContractAddress() public view returns (address) {... */\n    tag_25:\n        /* \"contracts/Ballot/Ballot.sol\":3802:3809  address */\n      0x00\n        /* \"contracts/Ballot/Ballot.sol\":3837:3841  this */\n      address\n        /* \"contracts/Ballot/Ballot.sol\":3822:3842  return address(this) */\n      swap1\n      pop\n        /* \"contracts/Ballot/Ballot.sol\":3751:3850  function getContractAddress() public view returns (address) {... */\n      swap1\n      jump\t// out\n        /* \"contracts/Ballot/Ballot.sol\":362:391  Candidate[] public candidates */\n    tag_31:\n      0x02\n      dup2\n      dup2\n      sload\n      dup2\n      lt\n      tag_92\n      jumpi\n      0x00\n      dup1\n      revert\n    tag_92:\n      swap1\n      0x00\n      mstore\n      keccak256(0x00, 0x20)\n      swap1\n      0x03\n      mul\n      add\n      0x00\n      swap2\n      pop\n      swap1\n      pop\n      dup1\n      0x00\n      add\n      dup1\n      sload\n      tag_94\n      swap1\n      tag_86\n      jump\t// in\n    tag_94:\n      dup1\n      0x1f\n      add\n      0x20\n      dup1\n      swap2\n      div\n      mul\n      0x20\n      add\n      mload(0x40)\n      swap1\n      dup2\n      add\n      0x40\n      mstore\n      dup1\n      swap3\n      swap2\n      swap1\n      dup2\n      dup2\n      mstore\n      0x20\n      add\n      dup3\n      dup1\n      sload\n      tag_95\n      swap1\n      tag_86\n      jump\t// in\n    tag_95:\n      dup1\n      iszero\n      tag_96\n      jumpi\n      dup1\n      0x1f\n      lt\n      tag_97\n      jumpi\n      0x0100\n      dup1\n      dup4\n      sload\n      div\n      mul\n      dup4\n      mstore\n      swap2\n      0x20\n      add\n      swap2\n      jump(tag_96)\n    tag_97:\n      dup3\n      add\n      swap2\n      swap1\n      0x00\n      mstore\n      keccak256(0x00, 0x20)\n      swap1\n    tag_98:\n      dup2\n      sload\n      dup2\n      mstore\n      swap1\n      0x01\n      add\n      swap1\n      0x20\n      add\n      dup1\n      dup4\n      gt\n      tag_98\n      jumpi\n      dup3\n      swap1\n      sub\n      0x1f\n      and\n      dup3\n      add\n      swap2\n    tag_96:\n      pop\n      pop\n      pop\n      pop\n      pop\n      swap1\n      dup1\n      0x01\n      add\n      dup1\n      sload\n      tag_99\n      swap1\n      tag_86\n      jump\t// in\n    tag_99:\n      dup1\n      0x1f\n      add\n      0x20\n      dup1\n      swap2\n      div\n      mul\n      0x20\n      add\n      mload(0x40)\n      swap1\n      dup2\n      add\n      0x40\n      mstore\n      dup1\n      swap3\n      swap2\n      swap1\n      dup2\n      dup2\n      mstore\n      0x20\n      add\n      dup3\n      dup1\n      sload\n      tag_100\n      swap1\n      tag_86\n      jump\t// in\n    tag_100:\n      dup1\n      iszero\n      tag_101\n      jumpi\n      dup1\n      0x1f\n      lt\n      tag_102\n      jumpi\n      0x0100\n      dup1\n      dup4\n      sload\n      div\n      mul\n      dup4\n      mstore\n      swap2\n      0x20\n      add\n      swap2\n      jump(tag_101)\n    tag_102:\n      dup3\n      add\n      swap2\n      swap1\n      0x00\n      mstore\n      keccak256(0x00, 0x20)\n      swap1\n    tag_103:\n      dup2\n      sload\n      dup2\n      mstore\n      swap1\n      0x01\n      add\n      swap1\n      0x20\n      add\n      dup1\n      dup4\n      gt\n      tag_103\n      jumpi\n      dup3\n      swap1\n      sub\n      0x1f\n      and\n      dup3\n      add\n      swap2\n    tag_101:\n      pop\n      pop\n      pop\n      pop\n      pop\n      swap1\n      dup1\n      0x02\n      add\n      sload\n      swap1\n      pop\n      dup4\n      jump\t// out\n        /* \"contracts/Ballot/Ballot.sol\":3858:3969  function areYouContractOwner() public view returns (bool) {... */\n    tag_35:\n        /* \"contracts/Ballot/Ballot.sol\":3910:3914  bool */\n      0x00\n        /* \"contracts/Ballot/Ballot.sol\":3948:3961  contractOwner */\n      dup1\n      0x00\n      swap1\n      sload\n      swap1\n      0x0100\n      exp\n      swap1\n      div\n      0xffffffffffffffffffffffffffffffffffffffff\n      and\n        /* \"contracts/Ballot/Ballot.sol\":3934:3961  msg.sender == contractOwner */\n      0xffffffffffffffffffffffffffffffffffffffff\n      and\n        /* \"contracts/Ballot/Ballot.sol\":3934:3944  msg.sender */\n      caller\n        /* \"contracts/Ballot/Ballot.sol\":3934:3961  msg.sender == contractOwner */\n      0xffffffffffffffffffffffffffffffffffffffff\n      and\n      eq\n        /* \"contracts/Ballot/Ballot.sol\":3927:3961  return msg.sender == contractOwner */\n      swap1\n      pop\n        /* \"contracts/Ballot/Ballot.sol\":3858:3969  function areYouContractOwner() public view returns (bool) {... */\n      swap1\n      jump\t// out\n        /* \"contracts/Ballot/Ballot.sol\":3637:3743  function getCandidatesList() public view returns (Candidate[] memory) {... */\n    tag_39:\n        /* \"contracts/Ballot/Ballot.sol\":3687:3705  Candidate[] memory */\n      0x60\n        /* \"contracts/Ballot/Ballot.sol\":3725:3735  candidates */\n      0x02\n        /* \"contracts/Ballot/Ballot.sol\":3718:3735  return candidates */\n      dup1\n      sload\n      dup1\n      0x20\n      mul\n      0x20\n      add\n      mload(0x40)\n      swap1\n      dup2\n      add\n      0x40\n      mstore\n      dup1\n      swap3\n      swap2\n      swap1\n      dup2\n      dup2\n      mstore\n      0x20\n      add\n      0x00\n      swap1\n    tag_106:\n      dup3\n      dup3\n      lt\n      iszero\n      tag_107\n      jumpi\n      dup4\n      dup3\n      swap1\n      0x00\n      mstore\n      keccak256(0x00, 0x20)\n      swap1\n      0x03\n      mul\n      add\n      mload(0x40)\n      dup1\n      0x60\n      add\n      0x40\n      mstore\n      swap1\n      dup2\n      0x00\n      dup3\n      add\n      dup1\n      sload\n      tag_109\n      swap1\n      tag_86\n      jump\t// in\n    tag_109:\n      dup1\n      0x1f\n      add\n      0x20\n      dup1\n      swap2\n      div\n      mul\n      0x20\n      add\n      mload(0x40)\n      swap1\n      dup2\n      add\n      0x40\n      mstore\n      dup1\n      swap3\n      swap2\n      swap1\n      dup2\n      dup2\n      mstore\n      0x20\n      add\n      dup3\n      dup1\n      sload\n      tag_110\n      swap1\n      tag_86\n      jump\t// in\n    tag_110:\n      dup1\n      iszero\n      tag_111\n      jumpi\n      dup1\n      0x1f\n      lt\n      tag_112\n      jumpi\n      0x0100\n      dup1\n      dup4\n      sload\n      div\n      mul\n      dup4\n      mstore\n      swap2\n      0x20\n      add\n      swap2\n      jump(tag_111)\n    tag_112:\n      dup3\n      add\n      swap2\n      swap1\n      0x00\n      mstore\n      keccak256(0x00, 0x20)\n      swap1\n    tag_113:\n      dup2\n      sload\n      dup2\n      mstore\n      swap1\n      0x01\n      add\n      swap1\n      0x20\n      add\n      dup1\n      dup4\n      gt\n      tag_113\n      jumpi\n      dup3\n      swap1\n      sub\n      0x1f\n      and\n      dup3\n      add\n      swap2\n    tag_111:\n      pop\n      pop\n      pop\n      pop\n      pop\n      dup2\n      mstore\n      0x20\n      add\n      0x01\n      dup3\n      add\n      dup1\n      sload\n      tag_114\n      swap1\n      tag_86\n      jump\t// in\n    tag_114:\n      dup1\n      0x1f\n      add\n      0x20\n      dup1\n      swap2\n      div\n      mul\n      0x20\n      add\n      mload(0x40)\n      swap1\n      dup2\n      add\n      0x40\n      mstore\n      dup1\n      swap3\n      swap2\n      swap1\n      dup2\n      dup2\n      mstore\n      0x20\n      add\n      dup3\n      dup1\n      sload\n      tag_115\n      swap1\n      tag_86\n      jump\t// in\n    tag_115:\n      dup1\n      iszero\n      tag_116\n      jumpi\n      dup1\n      0x1f\n      lt\n      tag_117\n      jumpi\n      0x0100\n      dup1\n      dup4\n      sload\n      div\n      mul\n      dup4\n      mstore\n      swap2\n      0x20\n      add\n      swap2\n      jump(tag_116)\n    tag_117:\n      dup3\n      add\n      swap2\n      swap1\n      0x00\n      mstore\n      keccak256(0x00, 0x20)\n      swap1\n    tag_118:\n      dup2\n      sload\n      dup2\n      mstore\n      swap1\n      0x01\n      add\n      swap1\n      0x20\n      add\n      dup1\n      dup4\n      gt\n      tag_118\n      jumpi\n      dup3\n      swap1\n      sub\n      0x1f\n      and\n      dup3\n      add\n      swap2\n    tag_116:\n      pop\n      pop\n      pop\n      pop\n      pop\n      dup2\n      mstore\n      0x20\n      add\n      0x02\n      dup3\n      add\n      sload\n      dup2\n      mstore\n      pop\n      pop\n      dup2\n      mstore\n      0x20\n      add\n      swap1\n      0x01\n      add\n      swap1\n      jump(tag_106)\n    tag_107:\n      pop\n      pop\n      pop\n      pop\n      swap1\n      pop\n        /* \"contracts/Ballot/Ballot.sol\":3637:3743  function getCandidatesList() public view returns (Candidate[] memory) {... */\n      swap1\n      jump\t// out\n        /* \"contracts/Ballot/Ballot.sol\":4351:4478  function getVoterVoted(address voterAddress) public view returns (bool) {... */\n    tag_45:\n        /* \"contracts/Ballot/Ballot.sol\":4417:4421  bool */\n      0x00\n        /* \"contracts/Ballot/Ballot.sol\":4441:4447  voters */\n      0x01\n        /* \"contracts/Ballot/Ballot.sol\":4441:4461  voters[voterAddress] */\n      0x00\n        /* \"contracts/Ballot/Ballot.sol\":4448:4460  voterAddress */\n      dup4\n        /* \"contracts/Ballot/Ballot.sol\":4441:4461  voters[voterAddress] */\n      0xffffffffffffffffffffffffffffffffffffffff\n      and\n      0xffffffffffffffffffffffffffffffffffffffff\n      and\n      dup2\n      mstore\n      0x20\n      add\n      swap1\n      dup2\n      mstore\n      0x20\n      add\n      0x00\n      keccak256\n        /* \"contracts/Ballot/Ballot.sol\":4441:4470  voters[voterAddress].hasVoted */\n      0x00\n      add\n      0x01\n      swap1\n      sload\n      swap1\n      0x0100\n      exp\n      swap1\n      div\n      0xff\n      and\n        /* \"contracts/Ballot/Ballot.sol\":4434:4470  return voters[voterAddress].hasVoted */\n      swap1\n      pop\n        /* \"contracts/Ballot/Ballot.sol\":4351:4478  function getVoterVoted(address voterAddress) public view returns (bool) {... */\n      swap2\n      swap1\n      pop\n      jump\t// out\n        /* \"contracts/Ballot/Ballot.sol\":4102:4234  function getVoterRigthToVote(address voterAddress) public view returns (bool) {... */\n    tag_49:\n        /* \"contracts/Ballot/Ballot.sol\":4174:4178  bool */\n      0x00\n        /* \"contracts/Ballot/Ballot.sol\":4198:4204  voters */\n      0x01\n        /* \"contracts/Ballot/Ballot.sol\":4198:4218  voters[voterAddress] */\n      0x00\n        /* \"contracts/Ballot/Ballot.sol\":4205:4217  voterAddress */\n      dup4\n        /* \"contracts/Ballot/Ballot.sol\":4198:4218  voters[voterAddress] */\n      0xffffffffffffffffffffffffffffffffffffffff\n      and\n      0xffffffffffffffffffffffffffffffffffffffff\n      and\n      dup2\n      mstore\n      0x20\n      add\n      swap1\n      dup2\n      mstore\n      0x20\n      add\n      0x00\n      keccak256\n        /* \"contracts/Ballot/Ballot.sol\":4198:4226  voters[voterAddress].canVote */\n      0x00\n      add\n      0x00\n      swap1\n      sload\n      swap1\n      0x0100\n      exp\n      swap1\n      div\n      0xff\n      and\n        /* \"contracts/Ballot/Ballot.sol\":4191:4226  return voters[voterAddress].canVote */\n      swap1\n      pop\n        /* \"contracts/Ballot/Ballot.sol\":4102:4234  function getVoterRigthToVote(address voterAddress) public view returns (bool) {... */\n      swap2\n      swap1\n      pop\n      jump\t// out\n        /* \"contracts/Ballot/Ballot.sol\":2043:2189  function giveRightToVote(address voterAddress) public giveRightToVoteModifier(voterAddress) {... */\n    tag_53:\n        /* \"contracts/Ballot/Ballot.sol\":2121:2133  voterAddress */\n      dup1\n        /* \"contracts/Ballot/Ballot.sol\":1278:1299  areYouContractOwner() */\n      tag_122\n        /* \"contracts/Ballot/Ballot.sol\":1278:1297  areYouContractOwner */\n      tag_35\n        /* \"contracts/Ballot/Ballot.sol\":1278:1299  areYouContractOwner() */\n      jump\t// in\n    tag_122:\n        /* \"contracts/Ballot/Ballot.sol\":1256:1374  require(... */\n      tag_123\n      jumpi\n      mload(0x40)\n      0x08c379a000000000000000000000000000000000000000000000000000000000\n      dup2\n      mstore\n      0x04\n      add\n      tag_124\n      swap1\n      tag_125\n      jump\t// in\n    tag_124:\n      mload(0x40)\n      dup1\n      swap2\n      sub\n      swap1\n      revert\n    tag_123:\n        /* \"contracts/Ballot/Ballot.sol\":1385:1419  getVoterVotedRequire(voterAddress) */\n      tag_126\n        /* \"contracts/Ballot/Ballot.sol\":1406:1418  voterAddress */\n      dup2\n        /* \"contracts/Ballot/Ballot.sol\":1385:1405  getVoterVotedRequire */\n      tag_127\n        /* \"contracts/Ballot/Ballot.sol\":1385:1419  getVoterVotedRequire(voterAddress) */\n      jump\t// in\n    tag_126:\n        /* \"contracts/Ballot/Ballot.sol\":2177:2181  true */\n      0x01\n        /* \"contracts/Ballot/Ballot.sol\":2146:2152  voters */\n      dup1\n        /* \"contracts/Ballot/Ballot.sol\":2146:2166  voters[voterAddress] */\n      0x00\n        /* \"contracts/Ballot/Ballot.sol\":2153:2165  voterAddress */\n      dup5\n        /* \"contracts/Ballot/Ballot.sol\":2146:2166  voters[voterAddress] */\n      0xffffffffffffffffffffffffffffffffffffffff\n      and\n      0xffffffffffffffffffffffffffffffffffffffff\n      and\n      dup2\n      mstore\n      0x20\n      add\n      swap1\n      dup2\n      mstore\n      0x20\n      add\n      0x00\n      keccak256\n        /* \"contracts/Ballot/Ballot.sol\":2146:2174  voters[voterAddress].canVote */\n      0x00\n      add\n      0x00\n        /* \"contracts/Ballot/Ballot.sol\":2146:2181  voters[voterAddress].canVote = true */\n      0x0100\n      exp\n      dup2\n      sload\n      dup2\n      0xff\n      mul\n      not\n      and\n      swap1\n      dup4\n      iszero\n      iszero\n      mul\n      or\n      swap1\n      sstore\n      pop\n        /* \"contracts/Ballot/Ballot.sol\":2043:2189  function giveRightToVote(address voterAddress) public giveRightToVoteModifier(voterAddress) {... */\n      pop\n      pop\n      jump\t// out\n        /* \"contracts/Ballot/Ballot.sol\":314:353  mapping(address => Voter) public voters */\n    tag_56:\n      mstore(0x20, 0x01)\n      dup1\n      0x00\n      mstore\n      keccak256(0x00, 0x40)\n      0x00\n      swap2\n      pop\n      swap1\n      pop\n      dup1\n      0x00\n      add\n      0x00\n      swap1\n      sload\n      swap1\n      0x0100\n      exp\n      swap1\n      div\n      0xff\n      and\n      swap1\n      dup1\n      0x00\n      add\n      0x01\n      swap1\n      sload\n      swap1\n      0x0100\n      exp\n      swap1\n      div\n      0xff\n      and\n      swap1\n      pop\n      dup3\n      jump\t// out\n        /* \"contracts/Ballot/Ballot.sol\":277:305  address public contractOwner */\n    tag_60:\n      0x00\n      dup1\n      sload\n      swap1\n      0x0100\n      exp\n      swap1\n      div\n      0xffffffffffffffffffffffffffffffffffffffff\n      and\n      dup2\n      jump\t// out\n        /* \"contracts/Ballot/Ballot.sol\":4242:4343  function areYouVoted() public view returns (bool) {... */\n    tag_63:\n        /* \"contracts/Ballot/Ballot.sol\":4286:4290  bool */\n      0x00\n        /* \"contracts/Ballot/Ballot.sol\":4310:4335  getVoterVoted(msg.sender) */\n      tag_130\n        /* \"contracts/Ballot/Ballot.sol\":4324:4334  msg.sender */\n      caller\n        /* \"contracts/Ballot/Ballot.sol\":4310:4323  getVoterVoted */\n      tag_45\n        /* \"contracts/Ballot/Ballot.sol\":4310:4335  getVoterVoted(msg.sender) */\n      jump\t// in\n    tag_130:\n        /* \"contracts/Ballot/Ballot.sol\":4303:4335  return getVoterVoted(msg.sender) */\n      swap1\n      pop\n        /* \"contracts/Ballot/Ballot.sol\":4242:4343  function areYouVoted() public view returns (bool) {... */\n      swap1\n      jump\t// out\n        /* \"contracts/Ballot/Ballot.sol\":3977:4094  function areYouHaveRigthToVote() public view returns (bool) {... */\n    tag_66:\n        /* \"contracts/Ballot/Ballot.sol\":4031:4035  bool */\n      0x00\n        /* \"contracts/Ballot/Ballot.sol\":4055:4086  getVoterRigthToVote(msg.sender) */\n      tag_132\n        /* \"contracts/Ballot/Ballot.sol\":4075:4085  msg.sender */\n      caller\n        /* \"contracts/Ballot/Ballot.sol\":4055:4074  getVoterRigthToVote */\n      tag_49\n        /* \"contracts/Ballot/Ballot.sol\":4055:4086  getVoterRigthToVote(msg.sender) */\n      jump\t// in\n    tag_132:\n        /* \"contracts/Ballot/Ballot.sol\":4048:4086  return getVoterRigthToVote(msg.sender) */\n      swap1\n      pop\n        /* \"contracts/Ballot/Ballot.sol\":3977:4094  function areYouHaveRigthToVote() public view returns (bool) {... */\n      swap1\n      jump\t// out\n        /* \"contracts/Ballot/Ballot.sol\":3021:3629  function getWinningCandidate() public view returns (uint winningProposal, bool isTie) {        ... */\n    tag_69:\n        /* \"contracts/Ballot/Ballot.sol\":3073:3093  uint winningProposal */\n      0x00\n        /* \"contracts/Ballot/Ballot.sol\":3095:3105  bool isTie */\n      dup1\n        /* \"contracts/Ballot/Ballot.sol\":3126:3147  uint winningVoteCount */\n      0x00\n        /* \"contracts/Ballot/Ballot.sol\":3165:3184  uint indexCandidate */\n      dup1\n        /* \"contracts/Ballot/Ballot.sol\":3187:3188  0 */\n      0x00\n        /* \"contracts/Ballot/Ballot.sol\":3165:3188  uint indexCandidate = 0 */\n      swap1\n      pop\n        /* \"contracts/Ballot/Ballot.sol\":3160:3622  for (uint indexCandidate = 0; indexCandidate < candidates.length; indexCandidate++) {... */\n    tag_134:\n        /* \"contracts/Ballot/Ballot.sol\":3207:3217  candidates */\n      0x02\n        /* \"contracts/Ballot/Ballot.sol\":3207:3224  candidates.length */\n      dup1\n      sload\n      swap1\n      pop\n        /* \"contracts/Ballot/Ballot.sol\":3190:3204  indexCandidate */\n      dup2\n        /* \"contracts/Ballot/Ballot.sol\":3190:3224  indexCandidate < candidates.length */\n      lt\n        /* \"contracts/Ballot/Ballot.sol\":3160:3622  for (uint indexCandidate = 0; indexCandidate < candidates.length; indexCandidate++) {... */\n      iszero\n      tag_135\n      jumpi\n        /* \"contracts/Ballot/Ballot.sol\":3303:3319  winningVoteCount */\n      dup2\n        /* \"contracts/Ballot/Ballot.sol\":3263:3273  candidates */\n      0x02\n        /* \"contracts/Ballot/Ballot.sol\":3274:3288  indexCandidate */\n      dup3\n        /* \"contracts/Ballot/Ballot.sol\":3263:3289  candidates[indexCandidate] */\n      dup2\n      sload\n      dup2\n      lt\n      tag_137\n      jumpi\n      tag_138\n      tag_83\n      jump\t// in\n    tag_138:\n    tag_137:\n      swap1\n      0x00\n      mstore\n      keccak256(0x00, 0x20)\n      swap1\n      0x03\n      mul\n      add\n        /* \"contracts/Ballot/Ballot.sol\":3263:3300  candidates[indexCandidate].votesCount */\n      0x02\n      add\n      sload\n        /* \"contracts/Ballot/Ballot.sol\":3263:3319  candidates[indexCandidate].votesCount > winningVoteCount */\n      gt\n        /* \"contracts/Ballot/Ballot.sol\":3259:3611  if (candidates[indexCandidate].votesCount > winningVoteCount) {... */\n      iszero\n      tag_140\n      jumpi\n        /* \"contracts/Ballot/Ballot.sol\":3359:3369  candidates */\n      0x02\n        /* \"contracts/Ballot/Ballot.sol\":3370:3384  indexCandidate */\n      dup2\n        /* \"contracts/Ballot/Ballot.sol\":3359:3385  candidates[indexCandidate] */\n      dup2\n      sload\n      dup2\n      lt\n      tag_141\n      jumpi\n      tag_142\n      tag_83\n      jump\t// in\n    tag_142:\n    tag_141:\n      swap1\n      0x00\n      mstore\n      keccak256(0x00, 0x20)\n      swap1\n      0x03\n      mul\n      add\n        /* \"contracts/Ballot/Ballot.sol\":3359:3396  candidates[indexCandidate].votesCount */\n      0x02\n      add\n      sload\n        /* \"contracts/Ballot/Ballot.sol\":3340:3396  winningVoteCount = candidates[indexCandidate].votesCount */\n      swap2\n      pop\n        /* \"contracts/Ballot/Ballot.sol\":3433:3447  indexCandidate */\n      dup1\n        /* \"contracts/Ballot/Ballot.sol\":3415:3447  winningProposal = indexCandidate */\n      swap4\n      pop\n        /* \"contracts/Ballot/Ballot.sol\":3474:3479  false */\n      0x00\n        /* \"contracts/Ballot/Ballot.sol\":3466:3479  isTie = false */\n      swap3\n      pop\n        /* \"contracts/Ballot/Ballot.sol\":3259:3611  if (candidates[indexCandidate].votesCount > winningVoteCount) {... */\n      jump(tag_144)\n    tag_140:\n        /* \"contracts/Ballot/Ballot.sol\":3546:3562  winningVoteCount */\n      dup2\n        /* \"contracts/Ballot/Ballot.sol\":3505:3515  candidates */\n      0x02\n        /* \"contracts/Ballot/Ballot.sol\":3516:3530  indexCandidate */\n      dup3\n        /* \"contracts/Ballot/Ballot.sol\":3505:3531  candidates[indexCandidate] */\n      dup2\n      sload\n      dup2\n      lt\n      tag_145\n      jumpi\n      tag_146\n      tag_83\n      jump\t// in\n    tag_146:\n    tag_145:\n      swap1\n      0x00\n      mstore\n      keccak256(0x00, 0x20)\n      swap1\n      0x03\n      mul\n      add\n        /* \"contracts/Ballot/Ballot.sol\":3505:3542  candidates[indexCandidate].votesCount */\n      0x02\n      add\n      sload\n        /* \"contracts/Ballot/Ballot.sol\":3505:3562  candidates[indexCandidate].votesCount == winningVoteCount */\n      sub\n        /* \"contracts/Ballot/Ballot.sol\":3501:3611  if (candidates[indexCandidate].votesCount == winningVoteCount) {... */\n      tag_148\n      jumpi\n        /* \"contracts/Ballot/Ballot.sol\":3591:3595  true */\n      0x01\n        /* \"contracts/Ballot/Ballot.sol\":3583:3595  isTie = true */\n      swap3\n      pop\n        /* \"contracts/Ballot/Ballot.sol\":3501:3611  if (candidates[indexCandidate].votesCount == winningVoteCount) {... */\n    tag_148:\n        /* \"contracts/Ballot/Ballot.sol\":3259:3611  if (candidates[indexCandidate].votesCount > winningVoteCount) {... */\n    tag_144:\n        /* \"contracts/Ballot/Ballot.sol\":3226:3242  indexCandidate++ */\n      dup1\n      dup1\n      tag_149\n      swap1\n      tag_150\n      jump\t// in\n    tag_149:\n      swap2\n      pop\n      pop\n        /* \"contracts/Ballot/Ballot.sol\":3160:3622  for (uint indexCandidate = 0; indexCandidate < candidates.length; indexCandidate++) {... */\n      jump(tag_134)\n    tag_135:\n      pop\n        /* \"contracts/Ballot/Ballot.sol\":3107:3629  {        ... */\n      pop\n        /* \"contracts/Ballot/Ballot.sol\":3021:3629  function getWinningCandidate() public view returns (uint winningProposal, bool isTie) {        ... */\n      swap1\n      swap2\n      jump\t// out\n        /* \"contracts/Ballot/Ballot.sol\":2197:2709  function vote(string memory name) public voteModifier(msg.sender) {... */\n    tag_75:\n        /* \"contracts/Ballot/Ballot.sol\":2251:2261  msg.sender */\n      caller\n        /* \"contracts/Ballot/Ballot.sol\":1544:1552  maxVotes */\n      sload(0x04)\n        /* \"contracts/Ballot/Ballot.sol\":1524:1541  totalVotesCounter */\n      sload(0x03)\n        /* \"contracts/Ballot/Ballot.sol\":1524:1552  totalVotesCounter < maxVotes */\n      lt\n        /* \"contracts/Ballot/Ballot.sol\":1502:1609  require(... */\n      tag_152\n      jumpi\n      mload(0x40)\n      0x08c379a000000000000000000000000000000000000000000000000000000000\n      dup2\n      mstore\n      0x04\n      add\n      tag_153\n      swap1\n      tag_154\n      jump\t// in\n    tag_153:\n      mload(0x40)\n      dup1\n      swap2\n      sub\n      swap1\n      revert\n    tag_152:\n        /* \"contracts/Ballot/Ballot.sol\":1642:1665  areYouHaveRigthToVote() */\n      tag_155\n        /* \"contracts/Ballot/Ballot.sol\":1642:1663  areYouHaveRigthToVote */\n      tag_66\n        /* \"contracts/Ballot/Ballot.sol\":1642:1665  areYouHaveRigthToVote() */\n      jump\t// in\n    tag_155:\n        /* \"contracts/Ballot/Ballot.sol\":1620:1720  require(... */\n      tag_156\n      jumpi\n      mload(0x40)\n      0x08c379a000000000000000000000000000000000000000000000000000000000\n      dup2\n      mstore\n      0x04\n      add\n      tag_157\n      swap1\n      tag_158\n      jump\t// in\n    tag_157:\n      mload(0x40)\n      dup1\n      swap2\n      sub\n      swap1\n      revert\n    tag_156:\n        /* \"contracts/Ballot/Ballot.sol\":1731:1765  getVoterVotedRequire(voterAddress) */\n      tag_159\n        /* \"contracts/Ballot/Ballot.sol\":1752:1764  voterAddress */\n      dup2\n        /* \"contracts/Ballot/Ballot.sol\":1731:1751  getVoterVotedRequire */\n      tag_127\n        /* \"contracts/Ballot/Ballot.sol\":1731:1765  getVoterVotedRequire(voterAddress) */\n      jump\t// in\n    tag_159:\n        /* \"contracts/Ballot/Ballot.sol\":2274:2294  Voter storage sender */\n      0x00\n        /* \"contracts/Ballot/Ballot.sol\":2297:2303  voters */\n      0x01\n        /* \"contracts/Ballot/Ballot.sol\":2297:2315  voters[msg.sender] */\n      0x00\n        /* \"contracts/Ballot/Ballot.sol\":2304:2314  msg.sender */\n      caller\n        /* \"contracts/Ballot/Ballot.sol\":2297:2315  voters[msg.sender] */\n      0xffffffffffffffffffffffffffffffffffffffff\n      and\n      0xffffffffffffffffffffffffffffffffffffffff\n      and\n      dup2\n      mstore\n      0x20\n      add\n      swap1\n      dup2\n      mstore\n      0x20\n      add\n      0x00\n      keccak256\n        /* \"contracts/Ballot/Ballot.sol\":2274:2315  Voter storage sender = voters[msg.sender] */\n      swap1\n      pop\n        /* \"contracts/Ballot/Ballot.sol\":2432:2442  uint index */\n      0x00\n        /* \"contracts/Ballot/Ballot.sol\":2427:2702  for (uint index = 0; index < candidates.length; index++) {... */\n    tag_161:\n        /* \"contracts/Ballot/Ballot.sol\":2456:2466  candidates */\n      0x02\n        /* \"contracts/Ballot/Ballot.sol\":2456:2473  candidates.length */\n      dup1\n      sload\n      swap1\n      pop\n        /* \"contracts/Ballot/Ballot.sol\":2448:2453  index */\n      dup2\n        /* \"contracts/Ballot/Ballot.sol\":2448:2473  index < candidates.length */\n      lt\n        /* \"contracts/Ballot/Ballot.sol\":2427:2702  for (uint index = 0; index < candidates.length; index++) {... */\n      iszero\n      tag_162\n      jumpi\n        /* \"contracts/Ballot/Ballot.sol\":2503:2545  stringEqualTo(candidates[index].name,name) */\n      tag_164\n        /* \"contracts/Ballot/Ballot.sol\":2517:2527  candidates */\n      0x02\n        /* \"contracts/Ballot/Ballot.sol\":2528:2533  index */\n      dup3\n        /* \"contracts/Ballot/Ballot.sol\":2517:2534  candidates[index] */\n      dup2\n      sload\n      dup2\n      lt\n      tag_165\n      jumpi\n      tag_166\n      tag_83\n      jump\t// in\n    tag_166:\n    tag_165:\n      swap1\n      0x00\n      mstore\n      keccak256(0x00, 0x20)\n      swap1\n      0x03\n      mul\n      add\n        /* \"contracts/Ballot/Ballot.sol\":2517:2539  candidates[index].name */\n      0x00\n      add\n        /* \"contracts/Ballot/Ballot.sol\":2503:2545  stringEqualTo(candidates[index].name,name) */\n      dup1\n      sload\n      tag_168\n      swap1\n      tag_86\n      jump\t// in\n    tag_168:\n      dup1\n      0x1f\n      add\n      0x20\n      dup1\n      swap2\n      div\n      mul\n      0x20\n      add\n      mload(0x40)\n      swap1\n      dup2\n      add\n      0x40\n      mstore\n      dup1\n      swap3\n      swap2\n      swap1\n      dup2\n      dup2\n      mstore\n      0x20\n      add\n      dup3\n      dup1\n      sload\n      tag_169\n      swap1\n      tag_86\n      jump\t// in\n    tag_169:\n      dup1\n      iszero\n      tag_170\n      jumpi\n      dup1\n      0x1f\n      lt\n      tag_171\n      jumpi\n      0x0100\n      dup1\n      dup4\n      sload\n      div\n      mul\n      dup4\n      mstore\n      swap2\n      0x20\n      add\n      swap2\n      jump(tag_170)\n    tag_171:\n      dup3\n      add\n      swap2\n      swap1\n      0x00\n      mstore\n      keccak256(0x00, 0x20)\n      swap1\n    tag_172:\n      dup2\n      sload\n      dup2\n      mstore\n      swap1\n      0x01\n      add\n      swap1\n      0x20\n      add\n      dup1\n      dup4\n      gt\n      tag_172\n      jumpi\n      dup3\n      swap1\n      sub\n      0x1f\n      and\n      dup3\n      add\n      swap2\n    tag_170:\n      pop\n      pop\n      pop\n      pop\n      pop\n        /* \"contracts/Ballot/Ballot.sol\":2540:2544  name */\n      dup6\n        /* \"contracts/Ballot/Ballot.sol\":2503:2516  stringEqualTo */\n      tag_173\n        /* \"contracts/Ballot/Ballot.sol\":2503:2545  stringEqualTo(candidates[index].name,name) */\n      jump\t// in\n    tag_164:\n        /* \"contracts/Ballot/Ballot.sol\":2499:2691  if (stringEqualTo(candidates[index].name,name)) {... */\n      iszero\n      tag_174\n      jumpi\n        /* \"contracts/Ballot/Ballot.sol\":2566:2576  candidates */\n      0x02\n        /* \"contracts/Ballot/Ballot.sol\":2577:2582  index */\n      dup2\n        /* \"contracts/Ballot/Ballot.sol\":2566:2583  candidates[index] */\n      dup2\n      sload\n      dup2\n      lt\n      tag_175\n      jumpi\n      tag_176\n      tag_83\n      jump\t// in\n    tag_176:\n    tag_175:\n      swap1\n      0x00\n      mstore\n      keccak256(0x00, 0x20)\n      swap1\n      0x03\n      mul\n      add\n        /* \"contracts/Ballot/Ballot.sol\":2566:2594  candidates[index].votesCount */\n      0x02\n      add\n      0x00\n        /* \"contracts/Ballot/Ballot.sol\":2566:2596  candidates[index].votesCount++ */\n      dup2\n      sload\n      dup1\n      swap3\n      swap2\n      swap1\n      tag_178\n      swap1\n      tag_150\n      jump\t// in\n    tag_178:\n      swap2\n      swap1\n      pop\n      sstore\n      pop\n        /* \"contracts/Ballot/Ballot.sol\":2633:2637  true */\n      0x01\n        /* \"contracts/Ballot/Ballot.sol\":2615:2621  sender */\n      dup3\n        /* \"contracts/Ballot/Ballot.sol\":2615:2630  sender.hasVoted */\n      0x00\n      add\n      0x01\n        /* \"contracts/Ballot/Ballot.sol\":2615:2637  sender.hasVoted = true */\n      0x0100\n      exp\n      dup2\n      sload\n      dup2\n      0xff\n      mul\n      not\n      and\n      swap1\n      dup4\n      iszero\n      iszero\n      mul\n      or\n      swap1\n      sstore\n      pop\n        /* \"contracts/Ballot/Ballot.sol\":2656:2673  totalVotesCounter */\n      0x03\n      0x00\n        /* \"contracts/Ballot/Ballot.sol\":2656:2675  totalVotesCounter++ */\n      dup2\n      sload\n      dup1\n      swap3\n      swap2\n      swap1\n      tag_179\n      swap1\n      tag_150\n      jump\t// in\n    tag_179:\n      swap2\n      swap1\n      pop\n      sstore\n      pop\n        /* \"contracts/Ballot/Ballot.sol\":2499:2691  if (stringEqualTo(candidates[index].name,name)) {... */\n    tag_174:\n        /* \"contracts/Ballot/Ballot.sol\":2475:2482  index++ */\n      dup1\n      dup1\n      tag_180\n      swap1\n      tag_150\n      jump\t// in\n    tag_180:\n      swap2\n      pop\n      pop\n        /* \"contracts/Ballot/Ballot.sol\":2427:2702  for (uint index = 0; index < candidates.length; index++) {... */\n      jump(tag_161)\n    tag_162:\n      pop\n        /* \"contracts/Ballot/Ballot.sol\":2263:2709  {... */\n      pop\n        /* \"contracts/Ballot/Ballot.sol\":2197:2709  function vote(string memory name) public voteModifier(msg.sender) {... */\n      pop\n      pop\n      jump\t// out\n        /* \"contracts/Ballot/Ballot.sol\":1822:2011  function getVoterVotedRequire(address voterAddress) private view {... */\n    tag_127:\n        /* \"contracts/Ballot/Ballot.sol\":1928:1955  getVoterVoted(voterAddress) */\n      tag_182\n        /* \"contracts/Ballot/Ballot.sol\":1942:1954  voterAddress */\n      dup2\n        /* \"contracts/Ballot/Ballot.sol\":1928:1941  getVoterVoted */\n      tag_45\n        /* \"contracts/Ballot/Ballot.sol\":1928:1955  getVoterVoted(voterAddress) */\n      jump\t// in\n    tag_182:\n        /* \"contracts/Ballot/Ballot.sol\":1927:1955  !getVoterVoted(voterAddress) */\n      iszero\n        /* \"contracts/Ballot/Ballot.sol\":1905:2003  require(... */\n      tag_183\n      jumpi\n      mload(0x40)\n      0x08c379a000000000000000000000000000000000000000000000000000000000\n      dup2\n      mstore\n      0x04\n      add\n      tag_184\n      swap1\n      tag_185\n      jump\t// in\n    tag_184:\n      mload(0x40)\n      dup1\n      swap2\n      sub\n      swap1\n      revert\n    tag_183:\n        /* \"contracts/Ballot/Ballot.sol\":1822:2011  function getVoterVotedRequire(address voterAddress) private view {... */\n      pop\n      jump\t// out\n        /* \"contracts/Ballot/Ballot.sol\":4514:4682  function stringEqualTo(string memory s1, string memory s2) internal pure returns (bool) {... */\n    tag_173:\n        /* \"contracts/Ballot/Ballot.sol\":4596:4600  bool */\n      0x00\n        /* \"contracts/Ballot/Ballot.sol\":4670:4672  s2 */\n      dup2\n        /* \"contracts/Ballot/Ballot.sol\":4659:4673  abi.encode(s2) */\n      add(0x20, mload(0x40))\n      tag_187\n      swap2\n      swap1\n      tag_23\n      jump\t// in\n    tag_187:\n      mload(0x40)\n      0x20\n      dup2\n      dup4\n      sub\n      sub\n      dup2\n      mstore\n      swap1\n      0x40\n      mstore\n        /* \"contracts/Ballot/Ballot.sol\":4649:4674  keccak256(abi.encode(s2)) */\n      dup1\n      mload\n      swap1\n      0x20\n      add\n      keccak256\n        /* \"contracts/Ballot/Ballot.sol\":4641:4643  s1 */\n      dup4\n        /* \"contracts/Ballot/Ballot.sol\":4630:4644  abi.encode(s1) */\n      add(0x20, mload(0x40))\n      tag_188\n      swap2\n      swap1\n      tag_23\n      jump\t// in\n    tag_188:\n      mload(0x40)\n      0x20\n      dup2\n      dup4\n      sub\n      sub\n      dup2\n      mstore\n      swap1\n      0x40\n      mstore\n        /* \"contracts/Ballot/Ballot.sol\":4620:4645  keccak256(abi.encode(s1)) */\n      dup1\n      mload\n      swap1\n      0x20\n      add\n      keccak256\n        /* \"contracts/Ballot/Ballot.sol\":4620:4674  keccak256(abi.encode(s1)) == keccak256(abi.encode(s2)) */\n      eq\n        /* \"contracts/Ballot/Ballot.sol\":4613:4674  return keccak256(abi.encode(s1)) == keccak256(abi.encode(s2)) */\n      swap1\n      pop\n        /* \"contracts/Ballot/Ballot.sol\":4514:4682  function stringEqualTo(string memory s1, string memory s2) internal pure returns (bool) {... */\n      swap3\n      swap2\n      pop\n      pop\n      jump\t// out\n        /* \"#utility.yul\":7:106   */\n    tag_189:\n        /* \"#utility.yul\":59:65   */\n      0x00\n        /* \"#utility.yul\":93:98   */\n      dup2\n        /* \"#utility.yul\":87:99   */\n      mload\n        /* \"#utility.yul\":77:99   */\n      swap1\n      pop\n        /* \"#utility.yul\":7:106   */\n      swap2\n      swap1\n      pop\n      jump\t// out\n        /* \"#utility.yul\":112:281   */\n    tag_190:\n        /* \"#utility.yul\":196:207   */\n      0x00\n        /* \"#utility.yul\":230:236   */\n      dup3\n        /* \"#utility.yul\":225:228   */\n      dup3\n        /* \"#utility.yul\":218:237   */\n      mstore\n        /* \"#utility.yul\":270:274   */\n      0x20\n        /* \"#utility.yul\":265:268   */\n      dup3\n        /* \"#utility.yul\":261:275   */\n      add\n        /* \"#utility.yul\":246:275   */\n      swap1\n      pop\n        /* \"#utility.yul\":112:281   */\n      swap3\n      swap2\n      pop\n      pop\n      jump\t// out\n        /* \"#utility.yul\":287:533   */\n    tag_191:\n        /* \"#utility.yul\":368:369   */\n      0x00\n        /* \"#utility.yul\":378:491   */\n    tag_243:\n        /* \"#utility.yul\":392:398   */\n      dup4\n        /* \"#utility.yul\":389:390   */\n      dup2\n        /* \"#utility.yul\":386:399   */\n      lt\n        /* \"#utility.yul\":378:491   */\n      iszero\n      tag_245\n      jumpi\n        /* \"#utility.yul\":477:478   */\n      dup1\n        /* \"#utility.yul\":472:475   */\n      dup3\n        /* \"#utility.yul\":468:479   */\n      add\n        /* \"#utility.yul\":462:480   */\n      mload\n        /* \"#utility.yul\":458:459   */\n      dup2\n        /* \"#utility.yul\":453:456   */\n      dup5\n        /* \"#utility.yul\":449:460   */\n      add\n        /* \"#utility.yul\":442:481   */\n      mstore\n        /* \"#utility.yul\":414:416   */\n      0x20\n        /* \"#utility.yul\":411:412   */\n      dup2\n        /* \"#utility.yul\":407:417   */\n      add\n        /* \"#utility.yul\":402:417   */\n      swap1\n      pop\n        /* \"#utility.yul\":378:491   */\n      jump(tag_243)\n    tag_245:\n        /* \"#utility.yul\":525:526   */\n      0x00\n        /* \"#utility.yul\":516:522   */\n      dup5\n        /* \"#utility.yul\":511:514   */\n      dup5\n        /* \"#utility.yul\":507:523   */\n      add\n        /* \"#utility.yul\":500:527   */\n      mstore\n        /* \"#utility.yul\":349:533   */\n      pop\n        /* \"#utility.yul\":287:533   */\n      pop\n      pop\n      pop\n      jump\t// out\n        /* \"#utility.yul\":539:641   */\n    tag_192:\n        /* \"#utility.yul\":580:586   */\n      0x00\n        /* \"#utility.yul\":631:633   */\n      0x1f\n        /* \"#utility.yul\":627:634   */\n      not\n        /* \"#utility.yul\":622:624   */\n      0x1f\n        /* \"#utility.yul\":615:620   */\n      dup4\n        /* \"#utility.yul\":611:625   */\n      add\n        /* \"#utility.yul\":607:635   */\n      and\n        /* \"#utility.yul\":597:635   */\n      swap1\n      pop\n        /* \"#utility.yul\":539:641   */\n      swap2\n      swap1\n      pop\n      jump\t// out\n        /* \"#utility.yul\":647:1024   */\n    tag_193:\n        /* \"#utility.yul\":735:738   */\n      0x00\n        /* \"#utility.yul\":763:802   */\n      tag_248\n        /* \"#utility.yul\":796:801   */\n      dup3\n        /* \"#utility.yul\":763:802   */\n      tag_189\n      jump\t// in\n    tag_248:\n        /* \"#utility.yul\":818:889   */\n      tag_249\n        /* \"#utility.yul\":882:888   */\n      dup2\n        /* \"#utility.yul\":877:880   */\n      dup6\n        /* \"#utility.yul\":818:889   */\n      tag_190\n      jump\t// in\n    tag_249:\n        /* \"#utility.yul\":811:889   */\n      swap4\n      pop\n        /* \"#utility.yul\":898:963   */\n      tag_250\n        /* \"#utility.yul\":956:962   */\n      dup2\n        /* \"#utility.yul\":951:954   */\n      dup6\n        /* \"#utility.yul\":944:948   */\n      0x20\n        /* \"#utility.yul\":937:942   */\n      dup7\n        /* \"#utility.yul\":933:949   */\n      add\n        /* \"#utility.yul\":898:963   */\n      tag_191\n      jump\t// in\n    tag_250:\n        /* \"#utility.yul\":988:1017   */\n      tag_251\n        /* \"#utility.yul\":1010:1016   */\n      dup2\n        /* \"#utility.yul\":988:1017   */\n      tag_192\n      jump\t// in\n    tag_251:\n        /* \"#utility.yul\":983:986   */\n      dup5\n        /* \"#utility.yul\":979:1018   */\n      add\n        /* \"#utility.yul\":972:1018   */\n      swap2\n      pop\n        /* \"#utility.yul\":739:1024   */\n      pop\n        /* \"#utility.yul\":647:1024   */\n      swap3\n      swap2\n      pop\n      pop\n      jump\t// out\n        /* \"#utility.yul\":1030:1343   */\n    tag_23:\n        /* \"#utility.yul\":1143:1147   */\n      0x00\n        /* \"#utility.yul\":1181:1183   */\n      0x20\n        /* \"#utility.yul\":1170:1179   */\n      dup3\n        /* \"#utility.yul\":1166:1184   */\n      add\n        /* \"#utility.yul\":1158:1184   */\n      swap1\n      pop\n        /* \"#utility.yul\":1230:1239   */\n      dup2\n        /* \"#utility.yul\":1224:1228   */\n      dup2\n        /* \"#utility.yul\":1220:1240   */\n      sub\n        /* \"#utility.yul\":1216:1217   */\n      0x00\n        /* \"#utility.yul\":1205:1214   */\n      dup4\n        /* \"#utility.yul\":1201:1218   */\n      add\n        /* \"#utility.yul\":1194:1241   */\n      mstore\n        /* \"#utility.yul\":1258:1336   */\n      tag_253\n        /* \"#utility.yul\":1331:1335   */\n      dup2\n        /* \"#utility.yul\":1322:1328   */\n      dup5\n        /* \"#utility.yul\":1258:1336   */\n      tag_193\n      jump\t// in\n    tag_253:\n        /* \"#utility.yul\":1250:1336   */\n      swap1\n      pop\n        /* \"#utility.yul\":1030:1343   */\n      swap3\n      swap2\n      pop\n      pop\n      jump\t// out\n        /* \"#utility.yul\":1349:1475   */\n    tag_194:\n        /* \"#utility.yul\":1386:1393   */\n      0x00\n        /* \"#utility.yul\":1426:1468   */\n      0xffffffffffffffffffffffffffffffffffffffff\n        /* \"#utility.yul\":1419:1424   */\n      dup3\n        /* \"#utility.yul\":1415:1469   */\n      and\n        /* \"#utility.yul\":1404:1469   */\n      swap1\n      pop\n        /* \"#utility.yul\":1349:1475   */\n      swap2\n      swap1\n      pop\n      jump\t// out\n        /* \"#utility.yul\":1481:1577   */\n    tag_195:\n        /* \"#utility.yul\":1518:1525   */\n      0x00\n        /* \"#utility.yul\":1547:1571   */\n      tag_256\n        /* \"#utility.yul\":1565:1570   */\n      dup3\n        /* \"#utility.yul\":1547:1571   */\n      tag_194\n      jump\t// in\n    tag_256:\n        /* \"#utility.yul\":1536:1571   */\n      swap1\n      pop\n        /* \"#utility.yul\":1481:1577   */\n      swap2\n      swap1\n      pop\n      jump\t// out\n        /* \"#utility.yul\":1583:1701   */\n    tag_196:\n        /* \"#utility.yul\":1670:1694   */\n      tag_258\n        /* \"#utility.yul\":1688:1693   */\n      dup2\n        /* \"#utility.yul\":1670:1694   */\n      tag_195\n      jump\t// in\n    tag_258:\n        /* \"#utility.yul\":1665:1668   */\n      dup3\n        /* \"#utility.yul\":1658:1695   */\n      mstore\n        /* \"#utility.yul\":1583:1701   */\n      pop\n      pop\n      jump\t// out\n        /* \"#utility.yul\":1707:1929   */\n    tag_27:\n        /* \"#utility.yul\":1800:1804   */\n      0x00\n        /* \"#utility.yul\":1838:1840   */\n      0x20\n        /* \"#utility.yul\":1827:1836   */\n      dup3\n        /* \"#utility.yul\":1823:1841   */\n      add\n        /* \"#utility.yul\":1815:1841   */\n      swap1\n      pop\n        /* \"#utility.yul\":1851:1922   */\n      tag_260\n        /* \"#utility.yul\":1919:1920   */\n      0x00\n        /* \"#utility.yul\":1908:1917   */\n      dup4\n        /* \"#utility.yul\":1904:1921   */\n      add\n        /* \"#utility.yul\":1895:1901   */\n      dup5\n        /* \"#utility.yul\":1851:1922   */\n      tag_196\n      jump\t// in\n    tag_260:\n        /* \"#utility.yul\":1707:1929   */\n      swap3\n      swap2\n      pop\n      pop\n      jump\t// out\n        /* \"#utility.yul\":1935:2010   */\n    tag_197:\n        /* \"#utility.yul\":1968:1974   */\n      0x00\n        /* \"#utility.yul\":2001:2003   */\n      0x40\n        /* \"#utility.yul\":1995:2004   */\n      mload\n        /* \"#utility.yul\":1985:2004   */\n      swap1\n      pop\n        /* \"#utility.yul\":1935:2010   */\n      swap1\n      jump\t// out\n        /* \"#utility.yul\":2016:2133   */\n    tag_198:\n        /* \"#utility.yul\":2125:2126   */\n      0x00\n        /* \"#utility.yul\":2122:2123   */\n      dup1\n        /* \"#utility.yul\":2115:2127   */\n      revert\n        /* \"#utility.yul\":2139:2256   */\n    tag_199:\n        /* \"#utility.yul\":2248:2249   */\n      0x00\n        /* \"#utility.yul\":2245:2246   */\n      dup1\n        /* \"#utility.yul\":2238:2250   */\n      revert\n        /* \"#utility.yul\":2262:2339   */\n    tag_200:\n        /* \"#utility.yul\":2299:2306   */\n      0x00\n        /* \"#utility.yul\":2328:2333   */\n      dup2\n        /* \"#utility.yul\":2317:2333   */\n      swap1\n      pop\n        /* \"#utility.yul\":2262:2339   */\n      swap2\n      swap1\n      pop\n      jump\t// out\n        /* \"#utility.yul\":2345:2467   */\n    tag_201:\n        /* \"#utility.yul\":2418:2442   */\n      tag_266\n        /* \"#utility.yul\":2436:2441   */\n      dup2\n        /* \"#utility.yul\":2418:2442   */\n      tag_200\n      jump\t// in\n    tag_266:\n        /* \"#utility.yul\":2411:2416   */\n      dup2\n        /* \"#utility.yul\":2408:2443   */\n      eq\n        /* \"#utility.yul\":2398:2461   */\n      tag_267\n      jumpi\n        /* \"#utility.yul\":2457:2458   */\n      0x00\n        /* \"#utility.yul\":2454:2455   */\n      dup1\n        /* \"#utility.yul\":2447:2459   */\n      revert\n        /* \"#utility.yul\":2398:2461   */\n    tag_267:\n        /* \"#utility.yul\":2345:2467   */\n      pop\n      jump\t// out\n        /* \"#utility.yul\":2473:2612   */\n    tag_202:\n        /* \"#utility.yul\":2519:2524   */\n      0x00\n        /* \"#utility.yul\":2557:2563   */\n      dup2\n        /* \"#utility.yul\":2544:2564   */\n      calldataload\n        /* \"#utility.yul\":2535:2564   */\n      swap1\n      pop\n        /* \"#utility.yul\":2573:2606   */\n      tag_269\n        /* \"#utility.yul\":2600:2605   */\n      dup2\n        /* \"#utility.yul\":2573:2606   */\n      tag_201\n      jump\t// in\n    tag_269:\n        /* \"#utility.yul\":2473:2612   */\n      swap3\n      swap2\n      pop\n      pop\n      jump\t// out\n        /* \"#utility.yul\":2618:2947   */\n    tag_30:\n        /* \"#utility.yul\":2677:2683   */\n      0x00\n        /* \"#utility.yul\":2726:2728   */\n      0x20\n        /* \"#utility.yul\":2714:2723   */\n      dup3\n        /* \"#utility.yul\":2705:2712   */\n      dup5\n        /* \"#utility.yul\":2701:2724   */\n      sub\n        /* \"#utility.yul\":2697:2729   */\n      slt\n        /* \"#utility.yul\":2694:2813   */\n      iszero\n      tag_271\n      jumpi\n        /* \"#utility.yul\":2732:2811   */\n      tag_272\n      tag_198\n      jump\t// in\n    tag_272:\n        /* \"#utility.yul\":2694:2813   */\n    tag_271:\n        /* \"#utility.yul\":2852:2853   */\n      0x00\n        /* \"#utility.yul\":2877:2930   */\n      tag_273\n        /* \"#utility.yul\":2922:2929   */\n      dup5\n        /* \"#utility.yul\":2913:2919   */\n      dup3\n        /* \"#utility.yul\":2902:2911   */\n      dup6\n        /* \"#utility.yul\":2898:2920   */\n      add\n        /* \"#utility.yul\":2877:2930   */\n      tag_202\n      jump\t// in\n    tag_273:\n        /* \"#utility.yul\":2867:2930   */\n      swap2\n      pop\n        /* \"#utility.yul\":2823:2940   */\n      pop\n        /* \"#utility.yul\":2618:2947   */\n      swap3\n      swap2\n      pop\n      pop\n      jump\t// out\n        /* \"#utility.yul\":2953:3071   */\n    tag_203:\n        /* \"#utility.yul\":3040:3064   */\n      tag_275\n        /* \"#utility.yul\":3058:3063   */\n      dup2\n        /* \"#utility.yul\":3040:3064   */\n      tag_200\n      jump\t// in\n    tag_275:\n        /* \"#utility.yul\":3035:3038   */\n      dup3\n        /* \"#utility.yul\":3028:3065   */\n      mstore\n        /* \"#utility.yul\":2953:3071   */\n      pop\n      pop\n      jump\t// out\n        /* \"#utility.yul\":3077:3701   */\n    tag_33:\n        /* \"#utility.yul\":3266:3270   */\n      0x00\n        /* \"#utility.yul\":3304:3306   */\n      0x60\n        /* \"#utility.yul\":3293:3302   */\n      dup3\n        /* \"#utility.yul\":3289:3307   */\n      add\n        /* \"#utility.yul\":3281:3307   */\n      swap1\n      pop\n        /* \"#utility.yul\":3353:3362   */\n      dup2\n        /* \"#utility.yul\":3347:3351   */\n      dup2\n        /* \"#utility.yul\":3343:3363   */\n      sub\n        /* \"#utility.yul\":3339:3340   */\n      0x00\n        /* \"#utility.yul\":3328:3337   */\n      dup4\n        /* \"#utility.yul\":3324:3341   */\n      add\n        /* \"#utility.yul\":3317:3364   */\n      mstore\n        /* \"#utility.yul\":3381:3459   */\n      tag_277\n        /* \"#utility.yul\":3454:3458   */\n      dup2\n        /* \"#utility.yul\":3445:3451   */\n      dup7\n        /* \"#utility.yul\":3381:3459   */\n      tag_193\n      jump\t// in\n    tag_277:\n        /* \"#utility.yul\":3373:3459   */\n      swap1\n      pop\n        /* \"#utility.yul\":3506:3515   */\n      dup2\n        /* \"#utility.yul\":3500:3504   */\n      dup2\n        /* \"#utility.yul\":3496:3516   */\n      sub\n        /* \"#utility.yul\":3491:3493   */\n      0x20\n        /* \"#utility.yul\":3480:3489   */\n      dup4\n        /* \"#utility.yul\":3476:3494   */\n      add\n        /* \"#utility.yul\":3469:3517   */\n      mstore\n        /* \"#utility.yul\":3534:3612   */\n      tag_278\n        /* \"#utility.yul\":3607:3611   */\n      dup2\n        /* \"#utility.yul\":3598:3604   */\n      dup6\n        /* \"#utility.yul\":3534:3612   */\n      tag_193\n      jump\t// in\n    tag_278:\n        /* \"#utility.yul\":3526:3612   */\n      swap1\n      pop\n        /* \"#utility.yul\":3622:3694   */\n      tag_279\n        /* \"#utility.yul\":3690:3692   */\n      0x40\n        /* \"#utility.yul\":3679:3688   */\n      dup4\n        /* \"#utility.yul\":3675:3693   */\n      add\n        /* \"#utility.yul\":3666:3672   */\n      dup5\n        /* \"#utility.yul\":3622:3694   */\n      tag_203\n      jump\t// in\n    tag_279:\n        /* \"#utility.yul\":3077:3701   */\n      swap5\n      swap4\n      pop\n      pop\n      pop\n      pop\n      jump\t// out\n        /* \"#utility.yul\":3707:3797   */\n    tag_204:\n        /* \"#utility.yul\":3741:3748   */\n      0x00\n        /* \"#utility.yul\":3784:3789   */\n      dup2\n        /* \"#utility.yul\":3777:3790   */\n      iszero\n        /* \"#utility.yul\":3770:3791   */\n      iszero\n        /* \"#utility.yul\":3759:3791   */\n      swap1\n      pop\n        /* \"#utility.yul\":3707:3797   */\n      swap2\n      swap1\n      pop\n      jump\t// out\n        /* \"#utility.yul\":3803:3912   */\n    tag_205:\n        /* \"#utility.yul\":3884:3905   */\n      tag_282\n        /* \"#utility.yul\":3899:3904   */\n      dup2\n        /* \"#utility.yul\":3884:3905   */\n      tag_204\n      jump\t// in\n    tag_282:\n        /* \"#utility.yul\":3879:3882   */\n      dup3\n        /* \"#utility.yul\":3872:3906   */\n      mstore\n        /* \"#utility.yul\":3803:3912   */\n      pop\n      pop\n      jump\t// out\n        /* \"#utility.yul\":3918:4128   */\n    tag_37:\n        /* \"#utility.yul\":4005:4009   */\n      0x00\n        /* \"#utility.yul\":4043:4045   */\n      0x20\n        /* \"#utility.yul\":4032:4041   */\n      dup3\n        /* \"#utility.yul\":4028:4046   */\n      add\n        /* \"#utility.yul\":4020:4046   */\n      swap1\n      pop\n        /* \"#utility.yul\":4056:4121   */\n      tag_284\n        /* \"#utility.yul\":4118:4119   */\n      0x00\n        /* \"#utility.yul\":4107:4116   */\n      dup4\n        /* \"#utility.yul\":4103:4120   */\n      add\n        /* \"#utility.yul\":4094:4100   */\n      dup5\n        /* \"#utility.yul\":4056:4121   */\n      tag_205\n      jump\t// in\n    tag_284:\n        /* \"#utility.yul\":3918:4128   */\n      swap3\n      swap2\n      pop\n      pop\n      jump\t// out\n        /* \"#utility.yul\":4134:4273   */\n    tag_206:\n        /* \"#utility.yul\":4226:4232   */\n      0x00\n        /* \"#utility.yul\":4260:4265   */\n      dup2\n        /* \"#utility.yul\":4254:4266   */\n      mload\n        /* \"#utility.yul\":4244:4266   */\n      swap1\n      pop\n        /* \"#utility.yul\":4134:4273   */\n      swap2\n      swap1\n      pop\n      jump\t// out\n        /* \"#utility.yul\":4279:4488   */\n    tag_207:\n        /* \"#utility.yul\":4403:4414   */\n      0x00\n        /* \"#utility.yul\":4437:4443   */\n      dup3\n        /* \"#utility.yul\":4432:4435   */\n      dup3\n        /* \"#utility.yul\":4425:4444   */\n      mstore\n        /* \"#utility.yul\":4477:4481   */\n      0x20\n        /* \"#utility.yul\":4472:4475   */\n      dup3\n        /* \"#utility.yul\":4468:4482   */\n      add\n        /* \"#utility.yul\":4453:4482   */\n      swap1\n      pop\n        /* \"#utility.yul\":4279:4488   */\n      swap3\n      swap2\n      pop\n      pop\n      jump\t// out\n        /* \"#utility.yul\":4494:4651   */\n    tag_208:\n        /* \"#utility.yul\":4586:4590   */\n      0x00\n        /* \"#utility.yul\":4609:4612   */\n      dup2\n        /* \"#utility.yul\":4601:4612   */\n      swap1\n      pop\n        /* \"#utility.yul\":4639:4643   */\n      0x20\n        /* \"#utility.yul\":4634:4637   */\n      dup3\n        /* \"#utility.yul\":4630:4644   */\n      add\n        /* \"#utility.yul\":4622:4644   */\n      swap1\n      pop\n        /* \"#utility.yul\":4494:4651   */\n      swap2\n      swap1\n      pop\n      jump\t// out\n        /* \"#utility.yul\":4657:4816   */\n    tag_209:\n        /* \"#utility.yul\":4731:4742   */\n      0x00\n        /* \"#utility.yul\":4765:4771   */\n      dup3\n        /* \"#utility.yul\":4760:4763   */\n      dup3\n        /* \"#utility.yul\":4753:4772   */\n      mstore\n        /* \"#utility.yul\":4805:4809   */\n      0x20\n        /* \"#utility.yul\":4800:4803   */\n      dup3\n        /* \"#utility.yul\":4796:4810   */\n      add\n        /* \"#utility.yul\":4781:4810   */\n      swap1\n      pop\n        /* \"#utility.yul\":4657:4816   */\n      swap3\n      swap2\n      pop\n      pop\n      jump\t// out\n        /* \"#utility.yul\":4822:5179   */\n    tag_210:\n        /* \"#utility.yul\":4900:4903   */\n      0x00\n        /* \"#utility.yul\":4928:4967   */\n      tag_290\n        /* \"#utility.yul\":4961:4966   */\n      dup3\n        /* \"#utility.yul\":4928:4967   */\n      tag_189\n      jump\t// in\n    tag_290:\n        /* \"#utility.yul\":4983:5044   */\n      tag_291\n        /* \"#utility.yul\":5037:5043   */\n      dup2\n        /* \"#utility.yul\":5032:5035   */\n      dup6\n        /* \"#utility.yul\":4983:5044   */\n      tag_209\n      jump\t// in\n    tag_291:\n        /* \"#utility.yul\":4976:5044   */\n      swap4\n      pop\n        /* \"#utility.yul\":5053:5118   */\n      tag_292\n        /* \"#utility.yul\":5111:5117   */\n      dup2\n        /* \"#utility.yul\":5106:5109   */\n      dup6\n        /* \"#utility.yul\":5099:5103   */\n      0x20\n        /* \"#utility.yul\":5092:5097   */\n      dup7\n        /* \"#utility.yul\":5088:5104   */\n      add\n        /* \"#utility.yul\":5053:5118   */\n      tag_191\n      jump\t// in\n    tag_292:\n        /* \"#utility.yul\":5143:5172   */\n      tag_293\n        /* \"#utility.yul\":5165:5171   */\n      dup2\n        /* \"#utility.yul\":5143:5172   */\n      tag_192\n      jump\t// in\n    tag_293:\n        /* \"#utility.yul\":5138:5141   */\n      dup5\n        /* \"#utility.yul\":5134:5173   */\n      add\n        /* \"#utility.yul\":5127:5173   */\n      swap2\n      pop\n        /* \"#utility.yul\":4904:5179   */\n      pop\n        /* \"#utility.yul\":4822:5179   */\n      swap3\n      swap2\n      pop\n      pop\n      jump\t// out\n        /* \"#utility.yul\":5185:5293   */\n    tag_211:\n        /* \"#utility.yul\":5262:5286   */\n      tag_295\n        /* \"#utility.yul\":5280:5285   */\n      dup2\n        /* \"#utility.yul\":5262:5286   */\n      tag_200\n      jump\t// in\n    tag_295:\n        /* \"#utility.yul\":5257:5260   */\n      dup3\n        /* \"#utility.yul\":5250:5287   */\n      mstore\n        /* \"#utility.yul\":5185:5293   */\n      pop\n      pop\n      jump\t// out\n        /* \"#utility.yul\":5361:6209   */\n    tag_212:\n        /* \"#utility.yul\":5470:5473   */\n      0x00\n        /* \"#utility.yul\":5506:5510   */\n      0x60\n        /* \"#utility.yul\":5501:5504   */\n      dup4\n        /* \"#utility.yul\":5497:5511   */\n      add\n        /* \"#utility.yul\":5593:5597   */\n      0x00\n        /* \"#utility.yul\":5586:5591   */\n      dup4\n        /* \"#utility.yul\":5582:5598   */\n      add\n        /* \"#utility.yul\":5576:5599   */\n      mload\n        /* \"#utility.yul\":5646:5649   */\n      dup5\n        /* \"#utility.yul\":5640:5644   */\n      dup3\n        /* \"#utility.yul\":5636:5650   */\n      sub\n        /* \"#utility.yul\":5629:5633   */\n      0x00\n        /* \"#utility.yul\":5624:5627   */\n      dup7\n        /* \"#utility.yul\":5620:5634   */\n      add\n        /* \"#utility.yul\":5613:5651   */\n      mstore\n        /* \"#utility.yul\":5672:5745   */\n      tag_297\n        /* \"#utility.yul\":5740:5744   */\n      dup3\n        /* \"#utility.yul\":5726:5738   */\n      dup3\n        /* \"#utility.yul\":5672:5745   */\n      tag_210\n      jump\t// in\n    tag_297:\n        /* \"#utility.yul\":5664:5745   */\n      swap2\n      pop\n        /* \"#utility.yul\":5521:5756   */\n      pop\n        /* \"#utility.yul\":5839:5843   */\n      0x20\n        /* \"#utility.yul\":5832:5837   */\n      dup4\n        /* \"#utility.yul\":5828:5844   */\n      add\n        /* \"#utility.yul\":5822:5845   */\n      mload\n        /* \"#utility.yul\":5892:5895   */\n      dup5\n        /* \"#utility.yul\":5886:5890   */\n      dup3\n        /* \"#utility.yul\":5882:5896   */\n      sub\n        /* \"#utility.yul\":5875:5879   */\n      0x20\n        /* \"#utility.yul\":5870:5873   */\n      dup7\n        /* \"#utility.yul\":5866:5880   */\n      add\n        /* \"#utility.yul\":5859:5897   */\n      mstore\n        /* \"#utility.yul\":5918:5991   */\n      tag_298\n        /* \"#utility.yul\":5986:5990   */\n      dup3\n        /* \"#utility.yul\":5972:5984   */\n      dup3\n        /* \"#utility.yul\":5918:5991   */\n      tag_210\n      jump\t// in\n    tag_298:\n        /* \"#utility.yul\":5910:5991   */\n      swap2\n      pop\n        /* \"#utility.yul\":5766:6002   */\n      pop\n        /* \"#utility.yul\":6090:6094   */\n      0x40\n        /* \"#utility.yul\":6083:6088   */\n      dup4\n        /* \"#utility.yul\":6079:6095   */\n      add\n        /* \"#utility.yul\":6073:6096   */\n      mload\n        /* \"#utility.yul\":6109:6172   */\n      tag_299\n        /* \"#utility.yul\":6166:6170   */\n      0x40\n        /* \"#utility.yul\":6161:6164   */\n      dup7\n        /* \"#utility.yul\":6157:6171   */\n      add\n        /* \"#utility.yul\":6143:6155   */\n      dup3\n        /* \"#utility.yul\":6109:6172   */\n      tag_211\n      jump\t// in\n    tag_299:\n        /* \"#utility.yul\":6012:6182   */\n      pop\n        /* \"#utility.yul\":6199:6203   */\n      dup1\n        /* \"#utility.yul\":6192:6203   */\n      swap2\n      pop\n        /* \"#utility.yul\":5475:6209   */\n      pop\n        /* \"#utility.yul\":5361:6209   */\n      swap3\n      swap2\n      pop\n      pop\n      jump\t// out\n        /* \"#utility.yul\":6215:6471   */\n    tag_213:\n        /* \"#utility.yul\":6334:6344   */\n      0x00\n        /* \"#utility.yul\":6369:6465   */\n      tag_301\n        /* \"#utility.yul\":6461:6464   */\n      dup4\n        /* \"#utility.yul\":6453:6459   */\n      dup4\n        /* \"#utility.yul\":6369:6465   */\n      tag_212\n      jump\t// in\n    tag_301:\n        /* \"#utility.yul\":6355:6465   */\n      swap1\n      pop\n        /* \"#utility.yul\":6215:6471   */\n      swap3\n      swap2\n      pop\n      pop\n      jump\t// out\n        /* \"#utility.yul\":6477:6615   */\n    tag_214:\n        /* \"#utility.yul\":6572:6576   */\n      0x00\n        /* \"#utility.yul\":6604:6608   */\n      0x20\n        /* \"#utility.yul\":6599:6602   */\n      dup3\n        /* \"#utility.yul\":6595:6609   */\n      add\n        /* \"#utility.yul\":6587:6609   */\n      swap1\n      pop\n        /* \"#utility.yul\":6477:6615   */\n      swap2\n      swap1\n      pop\n      jump\t// out\n        /* \"#utility.yul\":6687:7798   */\n    tag_215:\n        /* \"#utility.yul\":6856:6859   */\n      0x00\n        /* \"#utility.yul\":6885:6964   */\n      tag_304\n        /* \"#utility.yul\":6958:6963   */\n      dup3\n        /* \"#utility.yul\":6885:6964   */\n      tag_206\n      jump\t// in\n    tag_304:\n        /* \"#utility.yul\":6980:7091   */\n      tag_305\n        /* \"#utility.yul\":7084:7090   */\n      dup2\n        /* \"#utility.yul\":7079:7082   */\n      dup6\n        /* \"#utility.yul\":6980:7091   */\n      tag_207\n      jump\t// in\n    tag_305:\n        /* \"#utility.yul\":6973:7091   */\n      swap4\n      pop\n        /* \"#utility.yul\":7117:7120   */\n      dup4\n        /* \"#utility.yul\":7162:7166   */\n      0x20\n        /* \"#utility.yul\":7154:7160   */\n      dup3\n        /* \"#utility.yul\":7150:7167   */\n      mul\n        /* \"#utility.yul\":7145:7148   */\n      dup6\n        /* \"#utility.yul\":7141:7168   */\n      add\n        /* \"#utility.yul\":7192:7273   */\n      tag_306\n        /* \"#utility.yul\":7267:7272   */\n      dup6\n        /* \"#utility.yul\":7192:7273   */\n      tag_208\n      jump\t// in\n    tag_306:\n        /* \"#utility.yul\":7296:7303   */\n      dup1\n        /* \"#utility.yul\":7327:7328   */\n      0x00\n        /* \"#utility.yul\":7312:7753   */\n    tag_307:\n        /* \"#utility.yul\":7337:7343   */\n      dup6\n        /* \"#utility.yul\":7334:7335   */\n      dup2\n        /* \"#utility.yul\":7331:7344   */\n      lt\n        /* \"#utility.yul\":7312:7753   */\n      iszero\n      tag_309\n      jumpi\n        /* \"#utility.yul\":7408:7417   */\n      dup5\n        /* \"#utility.yul\":7402:7406   */\n      dup5\n        /* \"#utility.yul\":7398:7418   */\n      sub\n        /* \"#utility.yul\":7393:7396   */\n      dup10\n        /* \"#utility.yul\":7386:7419   */\n      mstore\n        /* \"#utility.yul\":7459:7465   */\n      dup2\n        /* \"#utility.yul\":7453:7466   */\n      mload\n        /* \"#utility.yul\":7487:7601   */\n      tag_310\n        /* \"#utility.yul\":7596:7600   */\n      dup6\n        /* \"#utility.yul\":7581:7594   */\n      dup3\n        /* \"#utility.yul\":7487:7601   */\n      tag_213\n      jump\t// in\n    tag_310:\n        /* \"#utility.yul\":7479:7601   */\n      swap5\n      pop\n        /* \"#utility.yul\":7624:7709   */\n      tag_311\n        /* \"#utility.yul\":7702:7708   */\n      dup4\n        /* \"#utility.yul\":7624:7709   */\n      tag_214\n      jump\t// in\n    tag_311:\n        /* \"#utility.yul\":7614:7709   */\n      swap3\n      pop\n        /* \"#utility.yul\":7738:7742   */\n      0x20\n        /* \"#utility.yul\":7733:7736   */\n      dup11\n        /* \"#utility.yul\":7729:7743   */\n      add\n        /* \"#utility.yul\":7722:7743   */\n      swap10\n      pop\n        /* \"#utility.yul\":7372:7753   */\n      pop\n        /* \"#utility.yul\":7359:7360   */\n      0x01\n        /* \"#utility.yul\":7356:7357   */\n      dup2\n        /* \"#utility.yul\":7352:7361   */\n      add\n        /* \"#utility.yul\":7347:7361   */\n      swap1\n      pop\n        /* \"#utility.yul\":7312:7753   */\n      jump(tag_307)\n    tag_309:\n        /* \"#utility.yul\":7316:7330   */\n      pop\n        /* \"#utility.yul\":7769:7773   */\n      dup3\n        /* \"#utility.yul\":7762:7773   */\n      swap8\n      pop\n        /* \"#utility.yul\":7789:7792   */\n      dup8\n        /* \"#utility.yul\":7782:7792   */\n      swap6\n      pop\n        /* \"#utility.yul\":6861:7798   */\n      pop\n      pop\n      pop\n      pop\n      pop\n        /* \"#utility.yul\":6687:7798   */\n      swap3\n      swap2\n      pop\n      pop\n      jump\t// out\n        /* \"#utility.yul\":7804:8277   */\n    tag_41:\n        /* \"#utility.yul\":7997:8001   */\n      0x00\n        /* \"#utility.yul\":8035:8037   */\n      0x20\n        /* \"#utility.yul\":8024:8033   */\n      dup3\n        /* \"#utility.yul\":8020:8038   */\n      add\n        /* \"#utility.yul\":8012:8038   */\n      swap1\n      pop\n        /* \"#utility.yul\":8084:8093   */\n      dup2\n        /* \"#utility.yul\":8078:8082   */\n      dup2\n        /* \"#utility.yul\":8074:8094   */\n      sub\n        /* \"#utility.yul\":8070:8071   */\n      0x00\n        /* \"#utility.yul\":8059:8068   */\n      dup4\n        /* \"#utility.yul\":8055:8072   */\n      add\n        /* \"#utility.yul\":8048:8095   */\n      mstore\n        /* \"#utility.yul\":8112:8270   */\n      tag_313\n        /* \"#utility.yul\":8265:8269   */\n      dup2\n        /* \"#utility.yul\":8256:8262   */\n      dup5\n        /* \"#utility.yul\":8112:8270   */\n      tag_215\n      jump\t// in\n    tag_313:\n        /* \"#utility.yul\":8104:8270   */\n      swap1\n      pop\n        /* \"#utility.yul\":7804:8277   */\n      swap3\n      swap2\n      pop\n      pop\n      jump\t// out\n        /* \"#utility.yul\":8283:8405   */\n    tag_216:\n        /* \"#utility.yul\":8356:8380   */\n      tag_315\n        /* \"#utility.yul\":8374:8379   */\n      dup2\n        /* \"#utility.yul\":8356:8380   */\n      tag_195\n      jump\t// in\n    tag_315:\n        /* \"#utility.yul\":8349:8354   */\n      dup2\n        /* \"#utility.yul\":8346:8381   */\n      eq\n        /* \"#utility.yul\":8336:8399   */\n      tag_316\n      jumpi\n        /* \"#utility.yul\":8395:8396   */\n      0x00\n        /* \"#utility.yul\":8392:8393   */\n      dup1\n        /* \"#utility.yul\":8385:8397   */\n      revert\n        /* \"#utility.yul\":8336:8399   */\n    tag_316:\n        /* \"#utility.yul\":8283:8405   */\n      pop\n      jump\t// out\n        /* \"#utility.yul\":8411:8550   */\n    tag_217:\n        /* \"#utility.yul\":8457:8462   */\n      0x00\n        /* \"#utility.yul\":8495:8501   */\n      dup2\n        /* \"#utility.yul\":8482:8502   */\n      calldataload\n        /* \"#utility.yul\":8473:8502   */\n      swap1\n      pop\n        /* \"#utility.yul\":8511:8544   */\n      tag_318\n        /* \"#utility.yul\":8538:8543   */\n      dup2\n        /* \"#utility.yul\":8511:8544   */\n      tag_216\n      jump\t// in\n    tag_318:\n        /* \"#utility.yul\":8411:8550   */\n      swap3\n      swap2\n      pop\n      pop\n      jump\t// out\n        /* \"#utility.yul\":8556:8885   */\n    tag_44:\n        /* \"#utility.yul\":8615:8621   */\n      0x00\n        /* \"#utility.yul\":8664:8666   */\n      0x20\n        /* \"#utility.yul\":8652:8661   */\n      dup3\n        /* \"#utility.yul\":8643:8650   */\n      dup5\n        /* \"#utility.yul\":8639:8662   */\n      sub\n        /* \"#utility.yul\":8635:8667   */\n      slt\n        /* \"#utility.yul\":8632:8751   */\n      iszero\n      tag_320\n      jumpi\n        /* \"#utility.yul\":8670:8749   */\n      tag_321\n      tag_198\n      jump\t// in\n    tag_321:\n        /* \"#utility.yul\":8632:8751   */\n    tag_320:\n        /* \"#utility.yul\":8790:8791   */\n      0x00\n        /* \"#utility.yul\":8815:8868   */\n      tag_322\n        /* \"#utility.yul\":8860:8867   */\n      dup5\n        /* \"#utility.yul\":8851:8857   */\n      dup3\n        /* \"#utility.yul\":8840:8849   */\n      dup6\n        /* \"#utility.yul\":8836:8858   */\n      add\n        /* \"#utility.yul\":8815:8868   */\n      tag_217\n      jump\t// in\n    tag_322:\n        /* \"#utility.yul\":8805:8868   */\n      swap2\n      pop\n        /* \"#utility.yul\":8761:8878   */\n      pop\n        /* \"#utility.yul\":8556:8885   */\n      swap3\n      swap2\n      pop\n      pop\n      jump\t// out\n        /* \"#utility.yul\":8891:9199   */\n    tag_58:\n        /* \"#utility.yul\":9000:9004   */\n      0x00\n        /* \"#utility.yul\":9038:9040   */\n      0x40\n        /* \"#utility.yul\":9027:9036   */\n      dup3\n        /* \"#utility.yul\":9023:9041   */\n      add\n        /* \"#utility.yul\":9015:9041   */\n      swap1\n      pop\n        /* \"#utility.yul\":9051:9116   */\n      tag_324\n        /* \"#utility.yul\":9113:9114   */\n      0x00\n        /* \"#utility.yul\":9102:9111   */\n      dup4\n        /* \"#utility.yul\":9098:9115   */\n      add\n        /* \"#utility.yul\":9089:9095   */\n      dup6\n        /* \"#utility.yul\":9051:9116   */\n      tag_205\n      jump\t// in\n    tag_324:\n        /* \"#utility.yul\":9126:9192   */\n      tag_325\n        /* \"#utility.yul\":9188:9190   */\n      0x20\n        /* \"#utility.yul\":9177:9186   */\n      dup4\n        /* \"#utility.yul\":9173:9191   */\n      add\n        /* \"#utility.yul\":9164:9170   */\n      dup5\n        /* \"#utility.yul\":9126:9192   */\n      tag_205\n      jump\t// in\n    tag_325:\n        /* \"#utility.yul\":8891:9199   */\n      swap4\n      swap3\n      pop\n      pop\n      pop\n      jump\t// out\n        /* \"#utility.yul\":9205:9525   */\n    tag_71:\n        /* \"#utility.yul\":9320:9324   */\n      0x00\n        /* \"#utility.yul\":9358:9360   */\n      0x40\n        /* \"#utility.yul\":9347:9356   */\n      dup3\n        /* \"#utility.yul\":9343:9361   */\n      add\n        /* \"#utility.yul\":9335:9361   */\n      swap1\n      pop\n        /* \"#utility.yul\":9371:9442   */\n      tag_327\n        /* \"#utility.yul\":9439:9440   */\n      0x00\n        /* \"#utility.yul\":9428:9437   */\n      dup4\n        /* \"#utility.yul\":9424:9441   */\n      add\n        /* \"#utility.yul\":9415:9421   */\n      dup6\n        /* \"#utility.yul\":9371:9442   */\n      tag_203\n      jump\t// in\n    tag_327:\n        /* \"#utility.yul\":9452:9518   */\n      tag_328\n        /* \"#utility.yul\":9514:9516   */\n      0x20\n        /* \"#utility.yul\":9503:9512   */\n      dup4\n        /* \"#utility.yul\":9499:9517   */\n      add\n        /* \"#utility.yul\":9490:9496   */\n      dup5\n        /* \"#utility.yul\":9452:9518   */\n      tag_205\n      jump\t// in\n    tag_328:\n        /* \"#utility.yul\":9205:9525   */\n      swap4\n      swap3\n      pop\n      pop\n      pop\n      jump\t// out\n        /* \"#utility.yul\":9531:9648   */\n    tag_218:\n        /* \"#utility.yul\":9640:9641   */\n      0x00\n        /* \"#utility.yul\":9637:9638   */\n      dup1\n        /* \"#utility.yul\":9630:9642   */\n      revert\n        /* \"#utility.yul\":9654:9771   */\n    tag_219:\n        /* \"#utility.yul\":9763:9764   */\n      0x00\n        /* \"#utility.yul\":9760:9761   */\n      dup1\n        /* \"#utility.yul\":9753:9765   */\n      revert\n        /* \"#utility.yul\":9777:9957   */\n    tag_220:\n        /* \"#utility.yul\":9825:9902   */\n      0x4e487b7100000000000000000000000000000000000000000000000000000000\n        /* \"#utility.yul\":9822:9823   */\n      0x00\n        /* \"#utility.yul\":9815:9903   */\n      mstore\n        /* \"#utility.yul\":9922:9926   */\n      0x41\n        /* \"#utility.yul\":9919:9920   */\n      0x04\n        /* \"#utility.yul\":9912:9927   */\n      mstore\n        /* \"#utility.yul\":9946:9950   */\n      0x24\n        /* \"#utility.yul\":9943:9944   */\n      0x00\n        /* \"#utility.yul\":9936:9951   */\n      revert\n        /* \"#utility.yul\":9963:10244   */\n    tag_221:\n        /* \"#utility.yul\":10046:10073   */\n      tag_333\n        /* \"#utility.yul\":10068:10072   */\n      dup3\n        /* \"#utility.yul\":10046:10073   */\n      tag_192\n      jump\t// in\n    tag_333:\n        /* \"#utility.yul\":10038:10044   */\n      dup2\n        /* \"#utility.yul\":10034:10074   */\n      add\n        /* \"#utility.yul\":10176:10182   */\n      dup2\n        /* \"#utility.yul\":10164:10174   */\n      dup2\n        /* \"#utility.yul\":10161:10183   */\n      lt\n        /* \"#utility.yul\":10140:10158   */\n      0xffffffffffffffff\n        /* \"#utility.yul\":10128:10138   */\n      dup3\n        /* \"#utility.yul\":10125:10159   */\n      gt\n        /* \"#utility.yul\":10122:10184   */\n      or\n        /* \"#utility.yul\":10119:10207   */\n      iszero\n      tag_334\n      jumpi\n        /* \"#utility.yul\":10187:10205   */\n      tag_335\n      tag_220\n      jump\t// in\n    tag_335:\n        /* \"#utility.yul\":10119:10207   */\n    tag_334:\n        /* \"#utility.yul\":10227:10237   */\n      dup1\n        /* \"#utility.yul\":10223:10225   */\n      0x40\n        /* \"#utility.yul\":10216:10238   */\n      mstore\n        /* \"#utility.yul\":10006:10244   */\n      pop\n        /* \"#utility.yul\":9963:10244   */\n      pop\n      pop\n      jump\t// out\n        /* \"#utility.yul\":10250:10379   */\n    tag_222:\n        /* \"#utility.yul\":10284:10290   */\n      0x00\n        /* \"#utility.yul\":10311:10331   */\n      tag_337\n      tag_197\n      jump\t// in\n    tag_337:\n        /* \"#utility.yul\":10301:10331   */\n      swap1\n      pop\n        /* \"#utility.yul\":10340:10373   */\n      tag_338\n        /* \"#utility.yul\":10368:10372   */\n      dup3\n        /* \"#utility.yul\":10360:10366   */\n      dup3\n        /* \"#utility.yul\":10340:10373   */\n      tag_221\n      jump\t// in\n    tag_338:\n        /* \"#utility.yul\":10250:10379   */\n      swap2\n      swap1\n      pop\n      jump\t// out\n        /* \"#utility.yul\":10385:10693   */\n    tag_223:\n        /* \"#utility.yul\":10447:10451   */\n      0x00\n        /* \"#utility.yul\":10537:10555   */\n      0xffffffffffffffff\n        /* \"#utility.yul\":10529:10535   */\n      dup3\n        /* \"#utility.yul\":10526:10556   */\n      gt\n        /* \"#utility.yul\":10523:10579   */\n      iszero\n      tag_340\n      jumpi\n        /* \"#utility.yul\":10559:10577   */\n      tag_341\n      tag_220\n      jump\t// in\n    tag_341:\n        /* \"#utility.yul\":10523:10579   */\n    tag_340:\n        /* \"#utility.yul\":10597:10626   */\n      tag_342\n        /* \"#utility.yul\":10619:10625   */\n      dup3\n        /* \"#utility.yul\":10597:10626   */\n      tag_192\n      jump\t// in\n    tag_342:\n        /* \"#utility.yul\":10589:10626   */\n      swap1\n      pop\n        /* \"#utility.yul\":10681:10685   */\n      0x20\n        /* \"#utility.yul\":10675:10679   */\n      dup2\n        /* \"#utility.yul\":10671:10686   */\n      add\n        /* \"#utility.yul\":10663:10686   */\n      swap1\n      pop\n        /* \"#utility.yul\":10385:10693   */\n      swap2\n      swap1\n      pop\n      jump\t// out\n        /* \"#utility.yul\":10699:10845   */\n    tag_224:\n        /* \"#utility.yul\":10796:10802   */\n      dup3\n        /* \"#utility.yul\":10791:10794   */\n      dup2\n        /* \"#utility.yul\":10786:10789   */\n      dup4\n        /* \"#utility.yul\":10773:10803   */\n      calldatacopy\n        /* \"#utility.yul\":10837:10838   */\n      0x00\n        /* \"#utility.yul\":10828:10834   */\n      dup4\n        /* \"#utility.yul\":10823:10826   */\n      dup4\n        /* \"#utility.yul\":10819:10835   */\n      add\n        /* \"#utility.yul\":10812:10839   */\n      mstore\n        /* \"#utility.yul\":10699:10845   */\n      pop\n      pop\n      pop\n      jump\t// out\n        /* \"#utility.yul\":10851:11276   */\n    tag_225:\n        /* \"#utility.yul\":10929:10934   */\n      0x00\n        /* \"#utility.yul\":10954:11020   */\n      tag_345\n        /* \"#utility.yul\":10970:11019   */\n      tag_346\n        /* \"#utility.yul\":11012:11018   */\n      dup5\n        /* \"#utility.yul\":10970:11019   */\n      tag_223\n      jump\t// in\n    tag_346:\n        /* \"#utility.yul\":10954:11020   */\n      tag_222\n      jump\t// in\n    tag_345:\n        /* \"#utility.yul\":10945:11020   */\n      swap1\n      pop\n        /* \"#utility.yul\":11043:11049   */\n      dup3\n        /* \"#utility.yul\":11036:11041   */\n      dup2\n        /* \"#utility.yul\":11029:11050   */\n      mstore\n        /* \"#utility.yul\":11081:11085   */\n      0x20\n        /* \"#utility.yul\":11074:11079   */\n      dup2\n        /* \"#utility.yul\":11070:11086   */\n      add\n        /* \"#utility.yul\":11119:11122   */\n      dup5\n        /* \"#utility.yul\":11110:11116   */\n      dup5\n        /* \"#utility.yul\":11105:11108   */\n      dup5\n        /* \"#utility.yul\":11101:11117   */\n      add\n        /* \"#utility.yul\":11098:11123   */\n      gt\n        /* \"#utility.yul\":11095:11207   */\n      iszero\n      tag_347\n      jumpi\n        /* \"#utility.yul\":11126:11205   */\n      tag_348\n      tag_219\n      jump\t// in\n    tag_348:\n        /* \"#utility.yul\":11095:11207   */\n    tag_347:\n        /* \"#utility.yul\":11216:11270   */\n      tag_349\n        /* \"#utility.yul\":11263:11269   */\n      dup5\n        /* \"#utility.yul\":11258:11261   */\n      dup3\n        /* \"#utility.yul\":11253:11256   */\n      dup6\n        /* \"#utility.yul\":11216:11270   */\n      tag_224\n      jump\t// in\n    tag_349:\n        /* \"#utility.yul\":10935:11276   */\n      pop\n        /* \"#utility.yul\":10851:11276   */\n      swap4\n      swap3\n      pop\n      pop\n      pop\n      jump\t// out\n        /* \"#utility.yul\":11296:11636   */\n    tag_226:\n        /* \"#utility.yul\":11352:11357   */\n      0x00\n        /* \"#utility.yul\":11401:11404   */\n      dup3\n        /* \"#utility.yul\":11394:11398   */\n      0x1f\n        /* \"#utility.yul\":11386:11392   */\n      dup4\n        /* \"#utility.yul\":11382:11399   */\n      add\n        /* \"#utility.yul\":11378:11405   */\n      slt\n        /* \"#utility.yul\":11368:11490   */\n      tag_351\n      jumpi\n        /* \"#utility.yul\":11409:11488   */\n      tag_352\n      tag_218\n      jump\t// in\n    tag_352:\n        /* \"#utility.yul\":11368:11490   */\n    tag_351:\n        /* \"#utility.yul\":11526:11532   */\n      dup2\n        /* \"#utility.yul\":11513:11533   */\n      calldataload\n        /* \"#utility.yul\":11551:11630   */\n      tag_353\n        /* \"#utility.yul\":11626:11629   */\n      dup5\n        /* \"#utility.yul\":11618:11624   */\n      dup3\n        /* \"#utility.yul\":11611:11615   */\n      0x20\n        /* \"#utility.yul\":11603:11609   */\n      dup7\n        /* \"#utility.yul\":11599:11616   */\n      add\n        /* \"#utility.yul\":11551:11630   */\n      tag_225\n      jump\t// in\n    tag_353:\n        /* \"#utility.yul\":11542:11630   */\n      swap2\n      pop\n        /* \"#utility.yul\":11358:11636   */\n      pop\n        /* \"#utility.yul\":11296:11636   */\n      swap3\n      swap2\n      pop\n      pop\n      jump\t// out\n        /* \"#utility.yul\":11642:12151   */\n    tag_74:\n        /* \"#utility.yul\":11711:11717   */\n      0x00\n        /* \"#utility.yul\":11760:11762   */\n      0x20\n        /* \"#utility.yul\":11748:11757   */\n      dup3\n        /* \"#utility.yul\":11739:11746   */\n      dup5\n        /* \"#utility.yul\":11735:11758   */\n      sub\n        /* \"#utility.yul\":11731:11763   */\n      slt\n        /* \"#utility.yul\":11728:11847   */\n      iszero\n      tag_355\n      jumpi\n        /* \"#utility.yul\":11766:11845   */\n      tag_356\n      tag_198\n      jump\t// in\n    tag_356:\n        /* \"#utility.yul\":11728:11847   */\n    tag_355:\n        /* \"#utility.yul\":11914:11915   */\n      0x00\n        /* \"#utility.yul\":11903:11912   */\n      dup3\n        /* \"#utility.yul\":11899:11916   */\n      add\n        /* \"#utility.yul\":11886:11917   */\n      calldataload\n        /* \"#utility.yul\":11944:11962   */\n      0xffffffffffffffff\n        /* \"#utility.yul\":11936:11942   */\n      dup2\n        /* \"#utility.yul\":11933:11963   */\n      gt\n        /* \"#utility.yul\":11930:12047   */\n      iszero\n      tag_357\n      jumpi\n        /* \"#utility.yul\":11966:12045   */\n      tag_358\n      tag_199\n      jump\t// in\n    tag_358:\n        /* \"#utility.yul\":11930:12047   */\n    tag_357:\n        /* \"#utility.yul\":12071:12134   */\n      tag_359\n        /* \"#utility.yul\":12126:12133   */\n      dup5\n        /* \"#utility.yul\":12117:12123   */\n      dup3\n        /* \"#utility.yul\":12106:12115   */\n      dup6\n        /* \"#utility.yul\":12102:12124   */\n      add\n        /* \"#utility.yul\":12071:12134   */\n      tag_226\n      jump\t// in\n    tag_359:\n        /* \"#utility.yul\":12061:12134   */\n      swap2\n      pop\n        /* \"#utility.yul\":11857:12144   */\n      pop\n        /* \"#utility.yul\":11642:12151   */\n      swap3\n      swap2\n      pop\n      pop\n      jump\t// out\n        /* \"#utility.yul\":12157:12331   */\n    tag_227:\n        /* \"#utility.yul\":12297:12323   */\n      0x5468657265206973206120746965206f6e2042616c6c6f740000000000000000\n        /* \"#utility.yul\":12293:12294   */\n      0x00\n        /* \"#utility.yul\":12285:12291   */\n      dup3\n        /* \"#utility.yul\":12281:12295   */\n      add\n        /* \"#utility.yul\":12274:12324   */\n      mstore\n        /* \"#utility.yul\":12157:12331   */\n      pop\n      jump\t// out\n        /* \"#utility.yul\":12337:12703   */\n    tag_228:\n        /* \"#utility.yul\":12479:12482   */\n      0x00\n        /* \"#utility.yul\":12500:12567   */\n      tag_362\n        /* \"#utility.yul\":12564:12566   */\n      0x18\n        /* \"#utility.yul\":12559:12562   */\n      dup4\n        /* \"#utility.yul\":12500:12567   */\n      tag_190\n      jump\t// in\n    tag_362:\n        /* \"#utility.yul\":12493:12567   */\n      swap2\n      pop\n        /* \"#utility.yul\":12576:12669   */\n      tag_363\n        /* \"#utility.yul\":12665:12668   */\n      dup3\n        /* \"#utility.yul\":12576:12669   */\n      tag_227\n      jump\t// in\n    tag_363:\n        /* \"#utility.yul\":12694:12696   */\n      0x20\n        /* \"#utility.yul\":12689:12692   */\n      dup3\n        /* \"#utility.yul\":12685:12697   */\n      add\n        /* \"#utility.yul\":12678:12697   */\n      swap1\n      pop\n        /* \"#utility.yul\":12337:12703   */\n      swap2\n      swap1\n      pop\n      jump\t// out\n        /* \"#utility.yul\":12709:13128   */\n    tag_80:\n        /* \"#utility.yul\":12875:12879   */\n      0x00\n        /* \"#utility.yul\":12913:12915   */\n      0x20\n        /* \"#utility.yul\":12902:12911   */\n      dup3\n        /* \"#utility.yul\":12898:12916   */\n      add\n        /* \"#utility.yul\":12890:12916   */\n      swap1\n      pop\n        /* \"#utility.yul\":12962:12971   */\n      dup2\n        /* \"#utility.yul\":12956:12960   */\n      dup2\n        /* \"#utility.yul\":12952:12972   */\n      sub\n        /* \"#utility.yul\":12948:12949   */\n      0x00\n        /* \"#utility.yul\":12937:12946   */\n      dup4\n        /* \"#utility.yul\":12933:12950   */\n      add\n        /* \"#utility.yul\":12926:12973   */\n      mstore\n        /* \"#utility.yul\":12990:13121   */\n      tag_365\n        /* \"#utility.yul\":13116:13120   */\n      dup2\n        /* \"#utility.yul\":12990:13121   */\n      tag_228\n      jump\t// in\n    tag_365:\n        /* \"#utility.yul\":12982:13121   */\n      swap1\n      pop\n        /* \"#utility.yul\":12709:13128   */\n      swap2\n      swap1\n      pop\n      jump\t// out\n        /* \"#utility.yul\":13134:13314   */\n    tag_83:\n        /* \"#utility.yul\":13182:13259   */\n      0x4e487b7100000000000000000000000000000000000000000000000000000000\n        /* \"#utility.yul\":13179:13180   */\n      0x00\n        /* \"#utility.yul\":13172:13260   */\n      mstore\n        /* \"#utility.yul\":13279:13283   */\n      0x32\n        /* \"#utility.yul\":13276:13277   */\n      0x04\n        /* \"#utility.yul\":13269:13284   */\n      mstore\n        /* \"#utility.yul\":13303:13307   */\n      0x24\n        /* \"#utility.yul\":13300:13301   */\n      0x00\n        /* \"#utility.yul\":13293:13308   */\n      revert\n        /* \"#utility.yul\":13320:13500   */\n    tag_229:\n        /* \"#utility.yul\":13368:13445   */\n      0x4e487b7100000000000000000000000000000000000000000000000000000000\n        /* \"#utility.yul\":13365:13366   */\n      0x00\n        /* \"#utility.yul\":13358:13446   */\n      mstore\n        /* \"#utility.yul\":13465:13469   */\n      0x22\n        /* \"#utility.yul\":13462:13463   */\n      0x04\n        /* \"#utility.yul\":13455:13470   */\n      mstore\n        /* \"#utility.yul\":13489:13493   */\n      0x24\n        /* \"#utility.yul\":13486:13487   */\n      0x00\n        /* \"#utility.yul\":13479:13494   */\n      revert\n        /* \"#utility.yul\":13506:13826   */\n    tag_86:\n        /* \"#utility.yul\":13550:13556   */\n      0x00\n        /* \"#utility.yul\":13587:13588   */\n      0x02\n        /* \"#utility.yul\":13581:13585   */\n      dup3\n        /* \"#utility.yul\":13577:13589   */\n      div\n        /* \"#utility.yul\":13567:13589   */\n      swap1\n      pop\n        /* \"#utility.yul\":13634:13635   */\n      0x01\n        /* \"#utility.yul\":13628:13632   */\n      dup3\n        /* \"#utility.yul\":13624:13636   */\n      and\n        /* \"#utility.yul\":13655:13673   */\n      dup1\n        /* \"#utility.yul\":13645:13726   */\n      tag_369\n      jumpi\n        /* \"#utility.yul\":13711:13715   */\n      0x7f\n        /* \"#utility.yul\":13703:13709   */\n      dup3\n        /* \"#utility.yul\":13699:13716   */\n      and\n        /* \"#utility.yul\":13689:13716   */\n      swap2\n      pop\n        /* \"#utility.yul\":13645:13726   */\n    tag_369:\n        /* \"#utility.yul\":13773:13775   */\n      0x20\n        /* \"#utility.yul\":13765:13771   */\n      dup3\n        /* \"#utility.yul\":13762:13776   */\n      lt\n        /* \"#utility.yul\":13742:13760   */\n      dup2\n        /* \"#utility.yul\":13739:13777   */\n      sub\n        /* \"#utility.yul\":13736:13820   */\n      tag_370\n      jumpi\n        /* \"#utility.yul\":13792:13810   */\n      tag_371\n      tag_229\n      jump\t// in\n    tag_371:\n        /* \"#utility.yul\":13736:13820   */\n    tag_370:\n        /* \"#utility.yul\":13557:13826   */\n      pop\n        /* \"#utility.yul\":13506:13826   */\n      swap2\n      swap1\n      pop\n      jump\t// out\n        /* \"#utility.yul\":13832:14066   */\n    tag_230:\n        /* \"#utility.yul\":13972:14006   */\n      0x4f6e6c792074686520636f6e7472616374206f776e65722063616e2067697665\n        /* \"#utility.yul\":13968:13969   */\n      0x00\n        /* \"#utility.yul\":13960:13966   */\n      dup3\n        /* \"#utility.yul\":13956:13970   */\n      add\n        /* \"#utility.yul\":13949:14007   */\n      mstore\n        /* \"#utility.yul\":14041:14058   */\n      0x20726967687420746f20766f74652e0000000000000000000000000000000000\n        /* \"#utility.yul\":14036:14038   */\n      0x20\n        /* \"#utility.yul\":14028:14034   */\n      dup3\n        /* \"#utility.yul\":14024:14039   */\n      add\n        /* \"#utility.yul\":14017:14059   */\n      mstore\n        /* \"#utility.yul\":13832:14066   */\n      pop\n      jump\t// out\n        /* \"#utility.yul\":14072:14438   */\n    tag_231:\n        /* \"#utility.yul\":14214:14217   */\n      0x00\n        /* \"#utility.yul\":14235:14302   */\n      tag_374\n        /* \"#utility.yul\":14299:14301   */\n      0x2f\n        /* \"#utility.yul\":14294:14297   */\n      dup4\n        /* \"#utility.yul\":14235:14302   */\n      tag_190\n      jump\t// in\n    tag_374:\n        /* \"#utility.yul\":14228:14302   */\n      swap2\n      pop\n        /* \"#utility.yul\":14311:14404   */\n      tag_375\n        /* \"#utility.yul\":14400:14403   */\n      dup3\n        /* \"#utility.yul\":14311:14404   */\n      tag_230\n      jump\t// in\n    tag_375:\n        /* \"#utility.yul\":14429:14431   */\n      0x40\n        /* \"#utility.yul\":14424:14427   */\n      dup3\n        /* \"#utility.yul\":14420:14432   */\n      add\n        /* \"#utility.yul\":14413:14432   */\n      swap1\n      pop\n        /* \"#utility.yul\":14072:14438   */\n      swap2\n      swap1\n      pop\n      jump\t// out\n        /* \"#utility.yul\":14444:14863   */\n    tag_125:\n        /* \"#utility.yul\":14610:14614   */\n      0x00\n        /* \"#utility.yul\":14648:14650   */\n      0x20\n        /* \"#utility.yul\":14637:14646   */\n      dup3\n        /* \"#utility.yul\":14633:14651   */\n      add\n        /* \"#utility.yul\":14625:14651   */\n      swap1\n      pop\n        /* \"#utility.yul\":14697:14706   */\n      dup2\n        /* \"#utility.yul\":14691:14695   */\n      dup2\n        /* \"#utility.yul\":14687:14707   */\n      sub\n        /* \"#utility.yul\":14683:14684   */\n      0x00\n        /* \"#utility.yul\":14672:14681   */\n      dup4\n        /* \"#utility.yul\":14668:14685   */\n      add\n        /* \"#utility.yul\":14661:14708   */\n      mstore\n        /* \"#utility.yul\":14725:14856   */\n      tag_377\n        /* \"#utility.yul\":14851:14855   */\n      dup2\n        /* \"#utility.yul\":14725:14856   */\n      tag_231\n      jump\t// in\n    tag_377:\n        /* \"#utility.yul\":14717:14856   */\n      swap1\n      pop\n        /* \"#utility.yul\":14444:14863   */\n      swap2\n      swap1\n      pop\n      jump\t// out\n        /* \"#utility.yul\":14869:15049   */\n    tag_232:\n        /* \"#utility.yul\":14917:14994   */\n      0x4e487b7100000000000000000000000000000000000000000000000000000000\n        /* \"#utility.yul\":14914:14915   */\n      0x00\n        /* \"#utility.yul\":14907:14995   */\n      mstore\n        /* \"#utility.yul\":15014:15018   */\n      0x11\n        /* \"#utility.yul\":15011:15012   */\n      0x04\n        /* \"#utility.yul\":15004:15019   */\n      mstore\n        /* \"#utility.yul\":15038:15042   */\n      0x24\n        /* \"#utility.yul\":15035:15036   */\n      0x00\n        /* \"#utility.yul\":15028:15043   */\n      revert\n        /* \"#utility.yul\":15055:15288   */\n    tag_150:\n        /* \"#utility.yul\":15094:15097   */\n      0x00\n        /* \"#utility.yul\":15117:15141   */\n      tag_380\n        /* \"#utility.yul\":15135:15140   */\n      dup3\n        /* \"#utility.yul\":15117:15141   */\n      tag_200\n      jump\t// in\n    tag_380:\n        /* \"#utility.yul\":15108:15141   */\n      swap2\n      pop\n        /* \"#utility.yul\":15163:15229   */\n      0xffffffffffffffffffffffffffffffffffffffffffffffffffffffffffffffff\n        /* \"#utility.yul\":15156:15161   */\n      dup3\n        /* \"#utility.yul\":15153:15230   */\n      sub\n        /* \"#utility.yul\":15150:15253   */\n      tag_381\n      jumpi\n        /* \"#utility.yul\":15233:15251   */\n      tag_382\n      tag_232\n      jump\t// in\n    tag_382:\n        /* \"#utility.yul\":15150:15253   */\n    tag_381:\n        /* \"#utility.yul\":15280:15281   */\n      0x01\n        /* \"#utility.yul\":15273:15278   */\n      dup3\n        /* \"#utility.yul\":15269:15282   */\n      add\n        /* \"#utility.yul\":15262:15282   */\n      swap1\n      pop\n        /* \"#utility.yul\":15055:15288   */\n      swap2\n      swap1\n      pop\n      jump\t// out\n        /* \"#utility.yul\":15294:15472   */\n    tag_233:\n        /* \"#utility.yul\":15434:15464   */\n      0x4d6178206163636f756e7420766f746573206973207265616368656400000000\n        /* \"#utility.yul\":15430:15431   */\n      0x00\n        /* \"#utility.yul\":15422:15428   */\n      dup3\n        /* \"#utility.yul\":15418:15432   */\n      add\n        /* \"#utility.yul\":15411:15465   */\n      mstore\n        /* \"#utility.yul\":15294:15472   */\n      pop\n      jump\t// out\n        /* \"#utility.yul\":15478:15844   */\n    tag_234:\n        /* \"#utility.yul\":15620:15623   */\n      0x00\n        /* \"#utility.yul\":15641:15708   */\n      tag_385\n        /* \"#utility.yul\":15705:15707   */\n      0x1c\n        /* \"#utility.yul\":15700:15703   */\n      dup4\n        /* \"#utility.yul\":15641:15708   */\n      tag_190\n      jump\t// in\n    tag_385:\n        /* \"#utility.yul\":15634:15708   */\n      swap2\n      pop\n        /* \"#utility.yul\":15717:15810   */\n      tag_386\n        /* \"#utility.yul\":15806:15809   */\n      dup3\n        /* \"#utility.yul\":15717:15810   */\n      tag_233\n      jump\t// in\n    tag_386:\n        /* \"#utility.yul\":15835:15837   */\n      0x20\n        /* \"#utility.yul\":15830:15833   */\n      dup3\n        /* \"#utility.yul\":15826:15838   */\n      add\n        /* \"#utility.yul\":15819:15838   */\n      swap1\n      pop\n        /* \"#utility.yul\":15478:15844   */\n      swap2\n      swap1\n      pop\n      jump\t// out\n        /* \"#utility.yul\":15850:16269   */\n    tag_154:\n        /* \"#utility.yul\":16016:16020   */\n      0x00\n        /* \"#utility.yul\":16054:16056   */\n      0x20\n        /* \"#utility.yul\":16043:16052   */\n      dup3\n        /* \"#utility.yul\":16039:16057   */\n      add\n        /* \"#utility.yul\":16031:16057   */\n      swap1\n      pop\n        /* \"#utility.yul\":16103:16112   */\n      dup2\n        /* \"#utility.yul\":16097:16101   */\n      dup2\n        /* \"#utility.yul\":16093:16113   */\n      sub\n        /* \"#utility.yul\":16089:16090   */\n      0x00\n        /* \"#utility.yul\":16078:16087   */\n      dup4\n        /* \"#utility.yul\":16074:16091   */\n      add\n        /* \"#utility.yul\":16067:16114   */\n      mstore\n        /* \"#utility.yul\":16131:16262   */\n      tag_388\n        /* \"#utility.yul\":16257:16261   */\n      dup2\n        /* \"#utility.yul\":16131:16262   */\n      tag_234\n      jump\t// in\n    tag_388:\n        /* \"#utility.yul\":16123:16262   */\n      swap1\n      pop\n        /* \"#utility.yul\":15850:16269   */\n      swap2\n      swap1\n      pop\n      jump\t// out\n        /* \"#utility.yul\":16275:16451   */\n    tag_235:\n        /* \"#utility.yul\":16415:16443   */\n      0x596f752068617665206e6f7420726967687420746f20766f7465000000000000\n        /* \"#utility.yul\":16411:16412   */\n      0x00\n        /* \"#utility.yul\":16403:16409   */\n      dup3\n        /* \"#utility.yul\":16399:16413   */\n      add\n        /* \"#utility.yul\":16392:16444   */\n      mstore\n        /* \"#utility.yul\":16275:16451   */\n      pop\n      jump\t// out\n        /* \"#utility.yul\":16457:16823   */\n    tag_236:\n        /* \"#utility.yul\":16599:16602   */\n      0x00\n        /* \"#utility.yul\":16620:16687   */\n      tag_391\n        /* \"#utility.yul\":16684:16686   */\n      0x1a\n        /* \"#utility.yul\":16679:16682   */\n      dup4\n        /* \"#utility.yul\":16620:16687   */\n      tag_190\n      jump\t// in\n    tag_391:\n        /* \"#utility.yul\":16613:16687   */\n      swap2\n      pop\n        /* \"#utility.yul\":16696:16789   */\n      tag_392\n        /* \"#utility.yul\":16785:16788   */\n      dup3\n        /* \"#utility.yul\":16696:16789   */\n      tag_235\n      jump\t// in\n    tag_392:\n        /* \"#utility.yul\":16814:16816   */\n      0x20\n        /* \"#utility.yul\":16809:16812   */\n      dup3\n        /* \"#utility.yul\":16805:16817   */\n      add\n        /* \"#utility.yul\":16798:16817   */\n      swap1\n      pop\n        /* \"#utility.yul\":16457:16823   */\n      swap2\n      swap1\n      pop\n      jump\t// out\n        /* \"#utility.yul\":16829:17248   */\n    tag_158:\n        /* \"#utility.yul\":16995:16999   */\n      0x00\n        /* \"#utility.yul\":17033:17035   */\n      0x20\n        /* \"#utility.yul\":17022:17031   */\n      dup3\n        /* \"#utility.yul\":17018:17036   */\n      add\n        /* \"#utility.yul\":17010:17036   */\n      swap1\n      pop\n        /* \"#utility.yul\":17082:17091   */\n      dup2\n        /* \"#utility.yul\":17076:17080   */\n      dup2\n        /* \"#utility.yul\":17072:17092   */\n      sub\n        /* \"#utility.yul\":17068:17069   */\n      0x00\n        /* \"#utility.yul\":17057:17066   */\n      dup4\n        /* \"#utility.yul\":17053:17070   */\n      add\n        /* \"#utility.yul\":17046:17093   */\n      mstore\n        /* \"#utility.yul\":17110:17241   */\n      tag_394\n        /* \"#utility.yul\":17236:17240   */\n      dup2\n        /* \"#utility.yul\":17110:17241   */\n      tag_236\n      jump\t// in\n    tag_394:\n        /* \"#utility.yul\":17102:17241   */\n      swap1\n      pop\n        /* \"#utility.yul\":16829:17248   */\n      swap2\n      swap1\n      pop\n      jump\t// out\n        /* \"#utility.yul\":17254:17424   */\n    tag_237:\n        /* \"#utility.yul\":17394:17416   */\n      0x566f74657220616c726561647920766f7465642e000000000000000000000000\n        /* \"#utility.yul\":17390:17391   */\n      0x00\n        /* \"#utility.yul\":17382:17388   */\n      dup3\n        /* \"#utility.yul\":17378:17392   */\n      add\n        /* \"#utility.yul\":17371:17417   */\n      mstore\n        /* \"#utility.yul\":17254:17424   */\n      pop\n      jump\t// out\n        /* \"#utility.yul\":17430:17796   */\n    tag_238:\n        /* \"#utility.yul\":17572:17575   */\n      0x00\n        /* \"#utility.yul\":17593:17660   */\n      tag_397\n        /* \"#utility.yul\":17657:17659   */\n      0x14\n        /* \"#utility.yul\":17652:17655   */\n      dup4\n        /* \"#utility.yul\":17593:17660   */\n      tag_190\n      jump\t// in\n    tag_397:\n        /* \"#utility.yul\":17586:17660   */\n      swap2\n      pop\n        /* \"#utility.yul\":17669:17762   */\n      tag_398\n        /* \"#utility.yul\":17758:17761   */\n      dup3\n        /* \"#utility.yul\":17669:17762   */\n      tag_237\n      jump\t// in\n    tag_398:\n        /* \"#utility.yul\":17787:17789   */\n      0x20\n        /* \"#utility.yul\":17782:17785   */\n      dup3\n        /* \"#utility.yul\":17778:17790   */\n      add\n        /* \"#utility.yul\":17771:17790   */\n      swap1\n      pop\n        /* \"#utility.yul\":17430:17796   */\n      swap2\n      swap1\n      pop\n      jump\t// out\n        /* \"#utility.yul\":17802:18221   */\n    tag_185:\n        /* \"#utility.yul\":17968:17972   */\n      0x00\n        /* \"#utility.yul\":18006:18008   */\n      0x20\n        /* \"#utility.yul\":17995:18004   */\n      dup3\n        /* \"#utility.yul\":17991:18009   */\n      add\n        /* \"#utility.yul\":17983:18009   */\n      swap1\n      pop\n        /* \"#utility.yul\":18055:18064   */\n      dup2\n        /* \"#utility.yul\":18049:18053   */\n      dup2\n        /* \"#utility.yul\":18045:18065   */\n      sub\n        /* \"#utility.yul\":18041:18042   */\n      0x00\n        /* \"#utility.yul\":18030:18039   */\n      dup4\n        /* \"#utility.yul\":18026:18043   */\n      add\n        /* \"#utility.yul\":18019:18066   */\n      mstore\n        /* \"#utility.yul\":18083:18214   */\n      tag_400\n        /* \"#utility.yul\":18209:18213   */\n      dup2\n        /* \"#utility.yul\":18083:18214   */\n      tag_238\n      jump\t// in\n    tag_400:\n        /* \"#utility.yul\":18075:18214   */\n      swap1\n      pop\n        /* \"#utility.yul\":17802:18221   */\n      swap2\n      swap1\n      pop\n      jump\t// out\n\n    auxdata: 0xa26469706673582212206985f29159e8524372f2b6816283db4320632adb39a47ea453563a44b77e0f9b64736f6c63430008110033\n}\n",
				"bytecode": {
					"linkReferences": {},
					"object": "60806040523480156200001157600080fd5b5060405162001a5b38038062001a5b833981810160405281019062000037919062000407565b336000806101000a81548173ffffffffffffffffffffffffffffffffffffffff021916908373ffffffffffffffffffffffffffffffffffffffff1602179055508060048190555050506200046d565b6000604051905090565b600080fd5b600080fd5b600080fd5b6000601f19601f8301169050919050565b7f4e487b7100000000000000000000000000000000000000000000000000000000600052604160045260246000fd5b620000ea826200009f565b810181811067ffffffffffffffff821117156200010c576200010b620000b0565b5b80604052505050565b60006200012162000086565b90506200012f8282620000df565b919050565b600067ffffffffffffffff821115620001525762000151620000b0565b5b602082029050602081019050919050565b600080fd5b600080fd5b600080fd5b600080fd5b600067ffffffffffffffff821115620001955762000194620000b0565b5b620001a0826200009f565b9050602081019050919050565b60005b83811015620001cd578082015181840152602081019050620001b0565b60008484015250505050565b6000620001f0620001ea8462000177565b62000115565b9050828152602081018484840111156200020f576200020e62000172565b5b6200021c848285620001ad565b509392505050565b600082601f8301126200023c576200023b6200009a565b5b81516200024e848260208601620001d9565b91505092915050565b6000819050919050565b6200026c8162000257565b81146200027857600080fd5b50565b6000815190506200028c8162000261565b92915050565b600060608284031215620002ab57620002aa62000168565b5b620002b7606062000115565b9050600082015167ffffffffffffffff811115620002da57620002d96200016d565b5b620002e88482850162000224565b600083015250602082015167ffffffffffffffff8111156200030f576200030e6200016d565b5b6200031d8482850162000224565b602083015250604062000333848285016200027b565b60408301525092915050565b600062000356620003508462000134565b62000115565b905080838252602082019050602084028301858111156200037c576200037b62000163565b5b835b81811015620003ca57805167ffffffffffffffff811115620003a557620003a46200009a565b5b808601620003b4898262000292565b855260208501945050506020810190506200037e565b5050509392505050565b600082601f830112620003ec57620003eb6200009a565b5b8151620003fe8482602086016200033f565b91505092915050565b6000806040838503121562000421576200042062000090565b5b600083015167ffffffffffffffff81111562000442576200044162000095565b5b6200045085828601620003d4565b925050602062000463858286016200027b565b9150509250929050565b6115de806200047d6000396000f3fe608060405234801561001057600080fd5b50600436106100ea5760003560e01c80639e7b8d611161008c578063da26543011610066578063da26543014610264578063df70362214610282578063f927cc29146102a0578063fc36e15b146102bf576100ea565b80639e7b8d61146101f9578063a3ec138d14610215578063ce606ee014610246576100ea565b80633ddf3822116100c85780633ddf38221461015d5780634aba5f341461017b5780638d85cc091461019957806394b04e7d146101c9576100ea565b80632bfda515146100ef57806332a2c5d01461010d5780633477ee2e1461012b575b600080fd5b6100f76102db565b6040516101049190610d24565b60405180910390f35b6101156103e2565b6040516101229190610d87565b60405180910390f35b61014560048036038101906101409190610dec565b6103ea565b60405161015493929190610e28565b60405180910390f35b610165610534565b6040516101729190610e88565b60405180910390f35b61018361058b565b6040516101909190611015565b60405180910390f35b6101b360048036038101906101ae9190611063565b610718565b6040516101c09190610e88565b60405180910390f35b6101e360048036038101906101de9190611063565b610771565b6040516101f09190610e88565b60405180910390f35b610213600480360381019061020e9190611063565b6107ca565b005b61022f600480360381019061022a9190611063565b610879565b60405161023d929190611090565b60405180910390f35b61024e6108b7565b60405161025b9190610d87565b60405180910390f35b61026c6108db565b6040516102799190610e88565b60405180910390f35b61028a6108eb565b6040516102979190610e88565b60405180910390f35b6102a86108fb565b6040516102b69291906110b9565b60405180910390f35b6102d960048036038101906102d49190611217565b6109bf565b005b60606000806102e86108fb565b91509150801561032d576040517f08c379a0000000000000000000000000000000000000000000000000000000008152600401610324906112ac565b60405180910390fd5b60028281548110610341576103406112cc565b5b9060005260206000209060030201600001805461035d9061132a565b80601f01602080910402602001604051908101604052809291908181526020018280546103899061132a565b80156103d65780601f106103ab576101008083540402835291602001916103d6565b820191906000526020600020905b8154815290600101906020018083116103b957829003601f168201915b50505050509250505090565b600030905090565b600281815481106103fa57600080fd5b906000526020600020906003020160009150905080600001805461041d9061132a565b80601f01602080910402602001604051908101604052809291908181526020018280546104499061132a565b80156104965780601f1061046b57610100808354040283529160200191610496565b820191906000526020600020905b81548152906001019060200180831161047957829003601f168201915b5050505050908060010180546104ab9061132a565b80601f01602080910402602001604051908101604052809291908181526020018280546104d79061132a565b80156105245780601f106104f957610100808354040283529160200191610524565b820191906000526020600020905b81548152906001019060200180831161050757829003601f168201915b5050505050908060020154905083565b60008060009054906101000a900473ffffffffffffffffffffffffffffffffffffffff1673ffffffffffffffffffffffffffffffffffffffff163373ffffffffffffffffffffffffffffffffffffffff1614905090565b60606002805480602002602001604051908101604052809291908181526020016000905b8282101561070f57838290600052602060002090600302016040518060600160405290816000820180546105e29061132a565b80601f016020809104026020016040519081016040528092919081815260200182805461060e9061132a565b801561065b5780601f106106305761010080835404028352916020019161065b565b820191906000526020600020905b81548152906001019060200180831161063e57829003601f168201915b505050505081526020016001820180546106749061132a565b80601f01602080910402602001604051908101604052809291908181526020018280546106a09061132a565b80156106ed5780601f106106c2576101008083540402835291602001916106ed565b820191906000526020600020905b8154815290600101906020018083116106d057829003601f168201915b50505050508152602001600282015481525050815260200190600101906105af565b50505050905090565b6000600160008373ffffffffffffffffffffffffffffffffffffffff1673ffffffffffffffffffffffffffffffffffffffff16815260200190815260200160002060000160019054906101000a900460ff169050919050565b6000600160008373ffffffffffffffffffffffffffffffffffffffff1673ffffffffffffffffffffffffffffffffffffffff16815260200190815260200160002060000160009054906101000a900460ff169050919050565b806107d3610534565b610812576040517f08c379a0000000000000000000000000000000000000000000000000000000008152600401610809906113cd565b60405180910390fd5b61081b81610bef565b60018060008473ffffffffffffffffffffffffffffffffffffffff1673ffffffffffffffffffffffffffffffffffffffff16815260200190815260200160002060000160006101000a81548160ff0219169083151502179055505050565b60016020528060005260406000206000915090508060000160009054906101000a900460ff16908060000160019054906101000a900460ff16905082565b60008054906101000a900473ffffffffffffffffffffffffffffffffffffffff1681565b60006108e633610718565b905090565b60006108f633610771565b905090565b600080600080600090505b6002805490508110156109b9578160028281548110610928576109276112cc565b5b90600052602060002090600302016002015411156109745760028181548110610954576109536112cc565b5b9060005260206000209060030201600201549150809350600092506109a6565b8160028281548110610989576109886112cc565b5b906000526020600020906003020160020154036109a557600192505b5b80806109b19061141c565b915050610906565b50509091565b3360045460035410610a06576040517f08c379a00000000000000000000000000000000000000000000000000000000081526004016109fd906114b0565b60405180910390fd5b610a0e6108eb565b610a4d576040517f08c379a0000000000000000000000000000000000000000000000000000000008152600401610a449061151c565b60405180910390fd5b610a5681610bef565b6000600160003373ffffffffffffffffffffffffffffffffffffffff1673ffffffffffffffffffffffffffffffffffffffff168152602001908152602001600020905060005b600280549050811015610be957610b6060028281548110610ac057610abf6112cc565b5b90600052602060002090600302016000018054610adc9061132a565b80601f0160208091040260200160405190810160405280929190818152602001828054610b089061132a565b8015610b555780601f10610b2a57610100808354040283529160200191610b55565b820191906000526020600020905b815481529060010190602001808311610b3857829003601f168201915b505050505085610c3b565b15610bd65760028181548110610b7957610b786112cc565b5b90600052602060002090600302016002016000815480929190610b9b9061141c565b919050555060018260000160016101000a81548160ff02191690831515021790555060036000815480929190610bd09061141c565b91905055505b8080610be19061141c565b915050610a9c565b50505050565b610bf881610718565b15610c38576040517f08c379a0000000000000000000000000000000000000000000000000000000008152600401610c2f90611588565b60405180910390fd5b50565b600081604051602001610c4e9190610d24565b6040516020818303038152906040528051906020012083604051602001610c759190610d24565b6040516020818303038152906040528051906020012014905092915050565b600081519050919050565b600082825260208201905092915050565b60005b83811015610cce578082015181840152602081019050610cb3565b60008484015250505050565b6000601f19601f8301169050919050565b6000610cf682610c94565b610d008185610c9f565b9350610d10818560208601610cb0565b610d1981610cda565b840191505092915050565b60006020820190508181036000830152610d3e8184610ceb565b905092915050565b600073ffffffffffffffffffffffffffffffffffffffff82169050919050565b6000610d7182610d46565b9050919050565b610d8181610d66565b82525050565b6000602082019050610d9c6000830184610d78565b92915050565b6000604051905090565b600080fd5b600080fd5b6000819050919050565b610dc981610db6565b8114610dd457600080fd5b50565b600081359050610de681610dc0565b92915050565b600060208284031215610e0257610e01610dac565b5b6000610e1084828501610dd7565b91505092915050565b610e2281610db6565b82525050565b60006060820190508181036000830152610e428186610ceb565b90508181036020830152610e568185610ceb565b9050610e656040830184610e19565b949350505050565b60008115159050919050565b610e8281610e6d565b82525050565b6000602082019050610e9d6000830184610e79565b92915050565b600081519050919050565b600082825260208201905092915050565b6000819050602082019050919050565b600082825260208201905092915050565b6000610eeb82610c94565b610ef58185610ecf565b9350610f05818560208601610cb0565b610f0e81610cda565b840191505092915050565b610f2281610db6565b82525050565b60006060830160008301518482036000860152610f458282610ee0565b91505060208301518482036020860152610f5f8282610ee0565b9150506040830151610f746040860182610f19565b508091505092915050565b6000610f8b8383610f28565b905092915050565b6000602082019050919050565b6000610fab82610ea3565b610fb58185610eae565b935083602082028501610fc785610ebf565b8060005b858110156110035784840389528151610fe48582610f7f565b9450610fef83610f93565b925060208a01995050600181019050610fcb565b50829750879550505050505092915050565b6000602082019050818103600083015261102f8184610fa0565b905092915050565b61104081610d66565b811461104b57600080fd5b50565b60008135905061105d81611037565b92915050565b60006020828403121561107957611078610dac565b5b60006110878482850161104e565b91505092915050565b60006040820190506110a56000830185610e79565b6110b26020830184610e79565b9392505050565b60006040820190506110ce6000830185610e19565b6110db6020830184610e79565b9392505050565b600080fd5b600080fd5b7f4e487b7100000000000000000000000000000000000000000000000000000000600052604160045260246000fd5b61112482610cda565b810181811067ffffffffffffffff82111715611143576111426110ec565b5b80604052505050565b6000611156610da2565b9050611162828261111b565b919050565b600067ffffffffffffffff821115611182576111816110ec565b5b61118b82610cda565b9050602081019050919050565b82818337600083830152505050565b60006111ba6111b584611167565b61114c565b9050828152602081018484840111156111d6576111d56110e7565b5b6111e1848285611198565b509392505050565b600082601f8301126111fe576111fd6110e2565b5b813561120e8482602086016111a7565b91505092915050565b60006020828403121561122d5761122c610dac565b5b600082013567ffffffffffffffff81111561124b5761124a610db1565b5b611257848285016111e9565b91505092915050565b7f5468657265206973206120746965206f6e2042616c6c6f740000000000000000600082015250565b6000611296601883610c9f565b91506112a182611260565b602082019050919050565b600060208201905081810360008301526112c581611289565b9050919050565b7f4e487b7100000000000000000000000000000000000000000000000000000000600052603260045260246000fd5b7f4e487b7100000000000000000000000000000000000000000000000000000000600052602260045260246000fd5b6000600282049050600182168061134257607f821691505b602082108103611355576113546112fb565b5b50919050565b7f4f6e6c792074686520636f6e7472616374206f776e65722063616e206769766560008201527f20726967687420746f20766f74652e0000000000000000000000000000000000602082015250565b60006113b7602f83610c9f565b91506113c28261135b565b604082019050919050565b600060208201905081810360008301526113e6816113aa565b9050919050565b7f4e487b7100000000000000000000000000000000000000000000000000000000600052601160045260246000fd5b600061142782610db6565b91507fffffffffffffffffffffffffffffffffffffffffffffffffffffffffffffffff8203611459576114586113ed565b5b600182019050919050565b7f4d6178206163636f756e7420766f746573206973207265616368656400000000600082015250565b600061149a601c83610c9f565b91506114a582611464565b602082019050919050565b600060208201905081810360008301526114c98161148d565b9050919050565b7f596f752068617665206e6f7420726967687420746f20766f7465000000000000600082015250565b6000611506601a83610c9f565b9150611511826114d0565b602082019050919050565b60006020820190508181036000830152611535816114f9565b9050919050565b7f566f74657220616c726561647920766f7465642e000000000000000000000000600082015250565b6000611572601483610c9f565b915061157d8261153c565b602082019050919050565b600060208201905081810360008301526115a181611565565b905091905056fea26469706673582212206985f29159e8524372f2b6816283db4320632adb39a47ea453563a44b77e0f9b64736f6c63430008110033",
					"opcodes": "PUSH1 0x80 PUSH1 0x40 MSTORE CALLVALUE DUP1 ISZERO PUSH3 0x11 JUMPI PUSH1 0x0 DUP1 REVERT JUMPDEST POP PUSH1 0x40 MLOAD PUSH3 0x1A5B CODESIZE SUB DUP1 PUSH3 0x1A5B DUP4 CODECOPY DUP2 DUP2 ADD PUSH1 0x40 MSTORE DUP2 ADD SWAP1 PUSH3 0x37 SWAP2 SWAP1 PUSH3 0x407 JUMP JUMPDEST CALLER PUSH1 0x0 DUP1 PUSH2 0x100 EXP DUP2 SLOAD DUP2 PUSH20 0xFFFFFFFFFFFFFFFFFFFFFFFFFFFFFFFFFFFFFFFF MUL NOT AND SWAP1 DUP4 PUSH20 0xFFFFFFFFFFFFFFFFFFFFFFFFFFFFFFFFFFFFFFFF AND MUL OR SWAP1 SSTORE POP DUP1 PUSH1 0x4 DUP2 SWAP1 SSTORE POP POP POP PUSH3 0x46D JUMP JUMPDEST PUSH1 0x0 PUSH1 0x40 MLOAD SWAP1 POP SWAP1 JUMP JUMPDEST PUSH1 0x0 DUP1 REVERT JUMPDEST PUSH1 0x0 DUP1 REVERT JUMPDEST PUSH1 0x0 DUP1 REVERT JUMPDEST PUSH1 0x0 PUSH1 0x1F NOT PUSH1 0x1F DUP4 ADD AND SWAP1 POP SWAP2 SWAP1 POP JUMP JUMPDEST PUSH32 0x4E487B7100000000000000000000000000000000000000000000000000000000 PUSH1 0x0 MSTORE PUSH1 0x41 PUSH1 0x4 MSTORE PUSH1 0x24 PUSH1 0x0 REVERT JUMPDEST PUSH3 0xEA DUP3 PUSH3 0x9F JUMP JUMPDEST DUP2 ADD DUP2 DUP2 LT PUSH8 0xFFFFFFFFFFFFFFFF DUP3 GT OR ISZERO PUSH3 0x10C JUMPI PUSH3 0x10B PUSH3 0xB0 JUMP JUMPDEST JUMPDEST DUP1 PUSH1 0x40 MSTORE POP POP POP JUMP JUMPDEST PUSH1 0x0 PUSH3 0x121 PUSH3 0x86 JUMP JUMPDEST SWAP1 POP PUSH3 0x12F DUP3 DUP3 PUSH3 0xDF JUMP JUMPDEST SWAP2 SWAP1 POP JUMP JUMPDEST PUSH1 0x0 PUSH8 0xFFFFFFFFFFFFFFFF DUP3 GT ISZERO PUSH3 0x152 JUMPI PUSH3 0x151 PUSH3 0xB0 JUMP JUMPDEST JUMPDEST PUSH1 0x20 DUP3 MUL SWAP1 POP PUSH1 0x20 DUP2 ADD SWAP1 POP SWAP2 SWAP1 POP JUMP JUMPDEST PUSH1 0x0 DUP1 REVERT JUMPDEST PUSH1 0x0 DUP1 REVERT JUMPDEST PUSH1 0x0 DUP1 REVERT JUMPDEST PUSH1 0x0 DUP1 REVERT JUMPDEST PUSH1 0x0 PUSH8 0xFFFFFFFFFFFFFFFF DUP3 GT ISZERO PUSH3 0x195 JUMPI PUSH3 0x194 PUSH3 0xB0 JUMP JUMPDEST JUMPDEST PUSH3 0x1A0 DUP3 PUSH3 0x9F JUMP JUMPDEST SWAP1 POP PUSH1 0x20 DUP2 ADD SWAP1 POP SWAP2 SWAP1 POP JUMP JUMPDEST PUSH1 0x0 JUMPDEST DUP4 DUP2 LT ISZERO PUSH3 0x1CD JUMPI DUP1 DUP3 ADD MLOAD DUP2 DUP5 ADD MSTORE PUSH1 0x20 DUP2 ADD SWAP1 POP PUSH3 0x1B0 JUMP JUMPDEST PUSH1 0x0 DUP5 DUP5 ADD MSTORE POP POP POP POP JUMP JUMPDEST PUSH1 0x0 PUSH3 0x1F0 PUSH3 0x1EA DUP5 PUSH3 0x177 JUMP JUMPDEST PUSH3 0x115 JUMP JUMPDEST SWAP1 POP DUP3 DUP2 MSTORE PUSH1 0x20 DUP2 ADD DUP5 DUP5 DUP5 ADD GT ISZERO PUSH3 0x20F JUMPI PUSH3 0x20E PUSH3 0x172 JUMP JUMPDEST JUMPDEST PUSH3 0x21C DUP5 DUP3 DUP6 PUSH3 0x1AD JUMP JUMPDEST POP SWAP4 SWAP3 POP POP POP JUMP JUMPDEST PUSH1 0x0 DUP3 PUSH1 0x1F DUP4 ADD SLT PUSH3 0x23C JUMPI PUSH3 0x23B PUSH3 0x9A JUMP JUMPDEST JUMPDEST DUP2 MLOAD PUSH3 0x24E DUP5 DUP3 PUSH1 0x20 DUP7 ADD PUSH3 0x1D9 JUMP JUMPDEST SWAP2 POP POP SWAP3 SWAP2 POP POP JUMP JUMPDEST PUSH1 0x0 DUP2 SWAP1 POP SWAP2 SWAP1 POP JUMP JUMPDEST PUSH3 0x26C DUP2 PUSH3 0x257 JUMP JUMPDEST DUP2 EQ PUSH3 0x278 JUMPI PUSH1 0x0 DUP1 REVERT JUMPDEST POP JUMP JUMPDEST PUSH1 0x0 DUP2 MLOAD SWAP1 POP PUSH3 0x28C DUP2 PUSH3 0x261 JUMP JUMPDEST SWAP3 SWAP2 POP POP JUMP JUMPDEST PUSH1 0x0 PUSH1 0x60 DUP3 DUP5 SUB SLT ISZERO PUSH3 0x2AB JUMPI PUSH3 0x2AA PUSH3 0x168 JUMP JUMPDEST JUMPDEST PUSH3 0x2B7 PUSH1 0x60 PUSH3 0x115 JUMP JUMPDEST SWAP1 POP PUSH1 0x0 DUP3 ADD MLOAD PUSH8 0xFFFFFFFFFFFFFFFF DUP2 GT ISZERO PUSH3 0x2DA JUMPI PUSH3 0x2D9 PUSH3 0x16D JUMP JUMPDEST JUMPDEST PUSH3 0x2E8 DUP5 DUP3 DUP6 ADD PUSH3 0x224 JUMP JUMPDEST PUSH1 0x0 DUP4 ADD MSTORE POP PUSH1 0x20 DUP3 ADD MLOAD PUSH8 0xFFFFFFFFFFFFFFFF DUP2 GT ISZERO PUSH3 0x30F JUMPI PUSH3 0x30E PUSH3 0x16D JUMP JUMPDEST JUMPDEST PUSH3 0x31D DUP5 DUP3 DUP6 ADD PUSH3 0x224 JUMP JUMPDEST PUSH1 0x20 DUP4 ADD MSTORE POP PUSH1 0x40 PUSH3 0x333 DUP5 DUP3 DUP6 ADD PUSH3 0x27B JUMP JUMPDEST PUSH1 0x40 DUP4 ADD MSTORE POP SWAP3 SWAP2 POP POP JUMP JUMPDEST PUSH1 0x0 PUSH3 0x356 PUSH3 0x350 DUP5 PUSH3 0x134 JUMP JUMPDEST PUSH3 0x115 JUMP JUMPDEST SWAP1 POP DUP1 DUP4 DUP3 MSTORE PUSH1 0x20 DUP3 ADD SWAP1 POP PUSH1 0x20 DUP5 MUL DUP4 ADD DUP6 DUP2 GT ISZERO PUSH3 0x37C JUMPI PUSH3 0x37B PUSH3 0x163 JUMP JUMPDEST JUMPDEST DUP4 JUMPDEST DUP2 DUP2 LT ISZERO PUSH3 0x3CA JUMPI DUP1 MLOAD PUSH8 0xFFFFFFFFFFFFFFFF DUP2 GT ISZERO PUSH3 0x3A5 JUMPI PUSH3 0x3A4 PUSH3 0x9A JUMP JUMPDEST JUMPDEST DUP1 DUP7 ADD PUSH3 0x3B4 DUP10 DUP3 PUSH3 0x292 JUMP JUMPDEST DUP6 MSTORE PUSH1 0x20 DUP6 ADD SWAP5 POP POP POP PUSH1 0x20 DUP2 ADD SWAP1 POP PUSH3 0x37E JUMP JUMPDEST POP POP POP SWAP4 SWAP3 POP POP POP JUMP JUMPDEST PUSH1 0x0 DUP3 PUSH1 0x1F DUP4 ADD SLT PUSH3 0x3EC JUMPI PUSH3 0x3EB PUSH3 0x9A JUMP JUMPDEST JUMPDEST DUP2 MLOAD PUSH3 0x3FE DUP5 DUP3 PUSH1 0x20 DUP7 ADD PUSH3 0x33F JUMP JUMPDEST SWAP2 POP POP SWAP3 SWAP2 POP POP JUMP JUMPDEST PUSH1 0x0 DUP1 PUSH1 0x40 DUP4 DUP6 SUB SLT ISZERO PUSH3 0x421 JUMPI PUSH3 0x420 PUSH3 0x90 JUMP JUMPDEST JUMPDEST PUSH1 0x0 DUP4 ADD MLOAD PUSH8 0xFFFFFFFFFFFFFFFF DUP2 GT ISZERO PUSH3 0x442 JUMPI PUSH3 0x441 PUSH3 0x95 JUMP JUMPDEST JUMPDEST PUSH3 0x450 DUP6 DUP3 DUP7 ADD PUSH3 0x3D4 JUMP JUMPDEST SWAP3 POP POP PUSH1 0x20 PUSH3 0x463 DUP6 DUP3 DUP7 ADD PUSH3 0x27B JUMP JUMPDEST SWAP2 POP POP SWAP3 POP SWAP3 SWAP1 POP JUMP JUMPDEST PUSH2 0x15DE DUP1 PUSH3 0x47D PUSH1 0x0 CODECOPY PUSH1 0x0 RETURN INVALID PUSH1 0x80 PUSH1 0x40 MSTORE CALLVALUE DUP1 ISZERO PUSH2 0x10 JUMPI PUSH1 0x0 DUP1 REVERT JUMPDEST POP PUSH1 0x4 CALLDATASIZE LT PUSH2 0xEA JUMPI PUSH1 0x0 CALLDATALOAD PUSH1 0xE0 SHR DUP1 PUSH4 0x9E7B8D61 GT PUSH2 0x8C JUMPI DUP1 PUSH4 0xDA265430 GT PUSH2 0x66 JUMPI DUP1 PUSH4 0xDA265430 EQ PUSH2 0x264 JUMPI DUP1 PUSH4 0xDF703622 EQ PUSH2 0x282 JUMPI DUP1 PUSH4 0xF927CC29 EQ PUSH2 0x2A0 JUMPI DUP1 PUSH4 0xFC36E15B EQ PUSH2 0x2BF JUMPI PUSH2 0xEA JUMP JUMPDEST DUP1 PUSH4 0x9E7B8D61 EQ PUSH2 0x1F9 JUMPI DUP1 PUSH4 0xA3EC138D EQ PUSH2 0x215 JUMPI DUP1 PUSH4 0xCE606EE0 EQ PUSH2 0x246 JUMPI PUSH2 0xEA JUMP JUMPDEST DUP1 PUSH4 0x3DDF3822 GT PUSH2 0xC8 JUMPI DUP1 PUSH4 0x3DDF3822 EQ PUSH2 0x15D JUMPI DUP1 PUSH4 0x4ABA5F34 EQ PUSH2 0x17B JUMPI DUP1 PUSH4 0x8D85CC09 EQ PUSH2 0x199 JUMPI DUP1 PUSH4 0x94B04E7D EQ PUSH2 0x1C9 JUMPI PUSH2 0xEA JUMP JUMPDEST DUP1 PUSH4 0x2BFDA515 EQ PUSH2 0xEF JUMPI DUP1 PUSH4 0x32A2C5D0 EQ PUSH2 0x10D JUMPI DUP1 PUSH4 0x3477EE2E EQ PUSH2 0x12B JUMPI JUMPDEST PUSH1 0x0 DUP1 REVERT JUMPDEST PUSH2 0xF7 PUSH2 0x2DB JUMP JUMPDEST PUSH1 0x40 MLOAD PUSH2 0x104 SWAP2 SWAP1 PUSH2 0xD24 JUMP JUMPDEST PUSH1 0x40 MLOAD DUP1 SWAP2 SUB SWAP1 RETURN JUMPDEST PUSH2 0x115 PUSH2 0x3E2 JUMP JUMPDEST PUSH1 0x40 MLOAD PUSH2 0x122 SWAP2 SWAP1 PUSH2 0xD87 JUMP JUMPDEST PUSH1 0x40 MLOAD DUP1 SWAP2 SUB SWAP1 RETURN JUMPDEST PUSH2 0x145 PUSH1 0x4 DUP1 CALLDATASIZE SUB DUP2 ADD SWAP1 PUSH2 0x140 SWAP2 SWAP1 PUSH2 0xDEC JUMP JUMPDEST PUSH2 0x3EA JUMP JUMPDEST PUSH1 0x40 MLOAD PUSH2 0x154 SWAP4 SWAP3 SWAP2 SWAP1 PUSH2 0xE28 JUMP JUMPDEST PUSH1 0x40 MLOAD DUP1 SWAP2 SUB SWAP1 RETURN JUMPDEST PUSH2 0x165 PUSH2 0x534 JUMP JUMPDEST PUSH1 0x40 MLOAD PUSH2 0x172 SWAP2 SWAP1 PUSH2 0xE88 JUMP JUMPDEST PUSH1 0x40 MLOAD DUP1 SWAP2 SUB SWAP1 RETURN JUMPDEST PUSH2 0x183 PUSH2 0x58B JUMP JUMPDEST PUSH1 0x40 MLOAD PUSH2 0x190 SWAP2 SWAP1 PUSH2 0x1015 JUMP JUMPDEST PUSH1 0x40 MLOAD DUP1 SWAP2 SUB SWAP1 RETURN JUMPDEST PUSH2 0x1B3 PUSH1 0x4 DUP1 CALLDATASIZE SUB DUP2 ADD SWAP1 PUSH2 0x1AE SWAP2 SWAP1 PUSH2 0x1063 JUMP JUMPDEST PUSH2 0x718 JUMP JUMPDEST PUSH1 0x40 MLOAD PUSH2 0x1C0 SWAP2 SWAP1 PUSH2 0xE88 JUMP JUMPDEST PUSH1 0x40 MLOAD DUP1 SWAP2 SUB SWAP1 RETURN JUMPDEST PUSH2 0x1E3 PUSH1 0x4 DUP1 CALLDATASIZE SUB DUP2 ADD SWAP1 PUSH2 0x1DE SWAP2 SWAP1 PUSH2 0x1063 JUMP JUMPDEST PUSH2 0x771 JUMP JUMPDEST PUSH1 0x40 MLOAD PUSH2 0x1F0 SWAP2 SWAP1 PUSH2 0xE88 JUMP JUMPDEST PUSH1 0x40 MLOAD DUP1 SWAP2 SUB SWAP1 RETURN JUMPDEST PUSH2 0x213 PUSH1 0x4 DUP1 CALLDATASIZE SUB DUP2 ADD SWAP1 PUSH2 0x20E SWAP2 SWAP1 PUSH2 0x1063 JUMP JUMPDEST PUSH2 0x7CA JUMP JUMPDEST STOP JUMPDEST PUSH2 0x22F PUSH1 0x4 DUP1 CALLDATASIZE SUB DUP2 ADD SWAP1 PUSH2 0x22A SWAP2 SWAP1 PUSH2 0x1063 JUMP JUMPDEST PUSH2 0x879 JUMP JUMPDEST PUSH1 0x40 MLOAD PUSH2 0x23D SWAP3 SWAP2 SWAP1 PUSH2 0x1090 JUMP JUMPDEST PUSH1 0x40 MLOAD DUP1 SWAP2 SUB SWAP1 RETURN JUMPDEST PUSH2 0x24E PUSH2 0x8B7 JUMP JUMPDEST PUSH1 0x40 MLOAD PUSH2 0x25B SWAP2 SWAP1 PUSH2 0xD87 JUMP JUMPDEST PUSH1 0x40 MLOAD DUP1 SWAP2 SUB SWAP1 RETURN JUMPDEST PUSH2 0x26C PUSH2 0x8DB JUMP JUMPDEST PUSH1 0x40 MLOAD PUSH2 0x279 SWAP2 SWAP1 PUSH2 0xE88 JUMP JUMPDEST PUSH1 0x40 MLOAD DUP1 SWAP2 SUB SWAP1 RETURN JUMPDEST PUSH2 0x28A PUSH2 0x8EB JUMP JUMPDEST PUSH1 0x40 MLOAD PUSH2 0x297 SWAP2 SWAP1 PUSH2 0xE88 JUMP JUMPDEST PUSH1 0x40 MLOAD DUP1 SWAP2 SUB SWAP1 RETURN JUMPDEST PUSH2 0x2A8 PUSH2 0x8FB JUMP JUMPDEST PUSH1 0x40 MLOAD PUSH2 0x2B6 SWAP3 SWAP2 SWAP1 PUSH2 0x10B9 JUMP JUMPDEST PUSH1 0x40 MLOAD DUP1 SWAP2 SUB SWAP1 RETURN JUMPDEST PUSH2 0x2D9 PUSH1 0x4 DUP1 CALLDATASIZE SUB DUP2 ADD SWAP1 PUSH2 0x2D4 SWAP2 SWAP1 PUSH2 0x1217 JUMP JUMPDEST PUSH2 0x9BF JUMP JUMPDEST STOP JUMPDEST PUSH1 0x60 PUSH1 0x0 DUP1 PUSH2 0x2E8 PUSH2 0x8FB JUMP JUMPDEST SWAP2 POP SWAP2 POP DUP1 ISZERO PUSH2 0x32D JUMPI PUSH1 0x40 MLOAD PUSH32 0x8C379A000000000000000000000000000000000000000000000000000000000 DUP2 MSTORE PUSH1 0x4 ADD PUSH2 0x324 SWAP1 PUSH2 0x12AC JUMP JUMPDEST PUSH1 0x40 MLOAD DUP1 SWAP2 SUB SWAP1 REVERT JUMPDEST PUSH1 0x2 DUP3 DUP2 SLOAD DUP2 LT PUSH2 0x341 JUMPI PUSH2 0x340 PUSH2 0x12CC JUMP JUMPDEST JUMPDEST SWAP1 PUSH1 0x0 MSTORE PUSH1 0x20 PUSH1 0x0 KECCAK256 SWAP1 PUSH1 0x3 MUL ADD PUSH1 0x0 ADD DUP1 SLOAD PUSH2 0x35D SWAP1 PUSH2 0x132A JUMP JUMPDEST DUP1 PUSH1 0x1F ADD PUSH1 0x20 DUP1 SWAP2 DIV MUL PUSH1 0x20 ADD PUSH1 0x40 MLOAD SWAP1 DUP2 ADD PUSH1 0x40 MSTORE DUP1 SWAP3 SWAP2 SWAP1 DUP2 DUP2 MSTORE PUSH1 0x20 ADD DUP3 DUP1 SLOAD PUSH2 0x389 SWAP1 PUSH2 0x132A JUMP JUMPDEST DUP1 ISZERO PUSH2 0x3D6 JUMPI DUP1 PUSH1 0x1F LT PUSH2 0x3AB JUMPI PUSH2 0x100 DUP1 DUP4 SLOAD DIV MUL DUP4 MSTORE SWAP2 PUSH1 0x20 ADD SWAP2 PUSH2 0x3D6 JUMP JUMPDEST DUP3 ADD SWAP2 SWAP1 PUSH1 0x0 MSTORE PUSH1 0x20 PUSH1 0x0 KECCAK256 SWAP1 JUMPDEST DUP2 SLOAD DUP2 MSTORE SWAP1 PUSH1 0x1 ADD SWAP1 PUSH1 0x20 ADD DUP1 DUP4 GT PUSH2 0x3B9 JUMPI DUP3 SWAP1 SUB PUSH1 0x1F AND DUP3 ADD SWAP2 JUMPDEST POP POP POP POP POP SWAP3 POP POP POP SWAP1 JUMP JUMPDEST PUSH1 0x0 ADDRESS SWAP1 POP SWAP1 JUMP JUMPDEST PUSH1 0x2 DUP2 DUP2 SLOAD DUP2 LT PUSH2 0x3FA JUMPI PUSH1 0x0 DUP1 REVERT JUMPDEST SWAP1 PUSH1 0x0 MSTORE PUSH1 0x20 PUSH1 0x0 KECCAK256 SWAP1 PUSH1 0x3 MUL ADD PUSH1 0x0 SWAP2 POP SWAP1 POP DUP1 PUSH1 0x0 ADD DUP1 SLOAD PUSH2 0x41D SWAP1 PUSH2 0x132A JUMP JUMPDEST DUP1 PUSH1 0x1F ADD PUSH1 0x20 DUP1 SWAP2 DIV MUL PUSH1 0x20 ADD PUSH1 0x40 MLOAD SWAP1 DUP2 ADD PUSH1 0x40 MSTORE DUP1 SWAP3 SWAP2 SWAP1 DUP2 DUP2 MSTORE PUSH1 0x20 ADD DUP3 DUP1 SLOAD PUSH2 0x449 SWAP1 PUSH2 0x132A JUMP JUMPDEST DUP1 ISZERO PUSH2 0x496 JUMPI DUP1 PUSH1 0x1F LT PUSH2 0x46B JUMPI PUSH2 0x100 DUP1 DUP4 SLOAD DIV MUL DUP4 MSTORE SWAP2 PUSH1 0x20 ADD SWAP2 PUSH2 0x496 JUMP JUMPDEST DUP3 ADD SWAP2 SWAP1 PUSH1 0x0 MSTORE PUSH1 0x20 PUSH1 0x0 KECCAK256 SWAP1 JUMPDEST DUP2 SLOAD DUP2 MSTORE SWAP1 PUSH1 0x1 ADD SWAP1 PUSH1 0x20 ADD DUP1 DUP4 GT PUSH2 0x479 JUMPI DUP3 SWAP1 SUB PUSH1 0x1F AND DUP3 ADD SWAP2 JUMPDEST POP POP POP POP POP SWAP1 DUP1 PUSH1 0x1 ADD DUP1 SLOAD PUSH2 0x4AB SWAP1 PUSH2 0x132A JUMP JUMPDEST DUP1 PUSH1 0x1F ADD PUSH1 0x20 DUP1 SWAP2 DIV MUL PUSH1 0x20 ADD PUSH1 0x40 MLOAD SWAP1 DUP2 ADD PUSH1 0x40 MSTORE DUP1 SWAP3 SWAP2 SWAP1 DUP2 DUP2 MSTORE PUSH1 0x20 ADD DUP3 DUP1 SLOAD PUSH2 0x4D7 SWAP1 PUSH2 0x132A JUMP JUMPDEST DUP1 ISZERO PUSH2 0x524 JUMPI DUP1 PUSH1 0x1F LT PUSH2 0x4F9 JUMPI PUSH2 0x100 DUP1 DUP4 SLOAD DIV MUL DUP4 MSTORE SWAP2 PUSH1 0x20 ADD SWAP2 PUSH2 0x524 JUMP JUMPDEST DUP3 ADD SWAP2 SWAP1 PUSH1 0x0 MSTORE PUSH1 0x20 PUSH1 0x0 KECCAK256 SWAP1 JUMPDEST DUP2 SLOAD DUP2 MSTORE SWAP1 PUSH1 0x1 ADD SWAP1 PUSH1 0x20 ADD DUP1 DUP4 GT PUSH2 0x507 JUMPI DUP3 SWAP1 SUB PUSH1 0x1F AND DUP3 ADD SWAP2 JUMPDEST POP POP POP POP POP SWAP1 DUP1 PUSH1 0x2 ADD SLOAD SWAP1 POP DUP4 JUMP JUMPDEST PUSH1 0x0 DUP1 PUSH1 0x0 SWAP1 SLOAD SWAP1 PUSH2 0x100 EXP SWAP1 DIV PUSH20 0xFFFFFFFFFFFFFFFFFFFFFFFFFFFFFFFFFFFFFFFF AND PUSH20 0xFFFFFFFFFFFFFFFFFFFFFFFFFFFFFFFFFFFFFFFF AND CALLER PUSH20 0xFFFFFFFFFFFFFFFFFFFFFFFFFFFFFFFFFFFFFFFF AND EQ SWAP1 POP SWAP1 JUMP JUMPDEST PUSH1 0x60 PUSH1 0x2 DUP1 SLOAD DUP1 PUSH1 0x20 MUL PUSH1 0x20 ADD PUSH1 0x40 MLOAD SWAP1 DUP2 ADD PUSH1 0x40 MSTORE DUP1 SWAP3 SWAP2 SWAP1 DUP2 DUP2 MSTORE PUSH1 0x20 ADD PUSH1 0x0 SWAP1 JUMPDEST DUP3 DUP3 LT ISZERO PUSH2 0x70F JUMPI DUP4 DUP3 SWAP1 PUSH1 0x0 MSTORE PUSH1 0x20 PUSH1 0x0 KECCAK256 SWAP1 PUSH1 0x3 MUL ADD PUSH1 0x40 MLOAD DUP1 PUSH1 0x60 ADD PUSH1 0x40 MSTORE SWAP1 DUP2 PUSH1 0x0 DUP3 ADD DUP1 SLOAD PUSH2 0x5E2 SWAP1 PUSH2 0x132A JUMP JUMPDEST DUP1 PUSH1 0x1F ADD PUSH1 0x20 DUP1 SWAP2 DIV MUL PUSH1 0x20 ADD PUSH1 0x40 MLOAD SWAP1 DUP2 ADD PUSH1 0x40 MSTORE DUP1 SWAP3 SWAP2 SWAP1 DUP2 DUP2 MSTORE PUSH1 0x20 ADD DUP3 DUP1 SLOAD PUSH2 0x60E SWAP1 PUSH2 0x132A JUMP JUMPDEST DUP1 ISZERO PUSH2 0x65B JUMPI DUP1 PUSH1 0x1F LT PUSH2 0x630 JUMPI PUSH2 0x100 DUP1 DUP4 SLOAD DIV MUL DUP4 MSTORE SWAP2 PUSH1 0x20 ADD SWAP2 PUSH2 0x65B JUMP JUMPDEST DUP3 ADD SWAP2 SWAP1 PUSH1 0x0 MSTORE PUSH1 0x20 PUSH1 0x0 KECCAK256 SWAP1 JUMPDEST DUP2 SLOAD DUP2 MSTORE SWAP1 PUSH1 0x1 ADD SWAP1 PUSH1 0x20 ADD DUP1 DUP4 GT PUSH2 0x63E JUMPI DUP3 SWAP1 SUB PUSH1 0x1F AND DUP3 ADD SWAP2 JUMPDEST POP POP POP POP POP DUP2 MSTORE PUSH1 0x20 ADD PUSH1 0x1 DUP3 ADD DUP1 SLOAD PUSH2 0x674 SWAP1 PUSH2 0x132A JUMP JUMPDEST DUP1 PUSH1 0x1F ADD PUSH1 0x20 DUP1 SWAP2 DIV MUL PUSH1 0x20 ADD PUSH1 0x40 MLOAD SWAP1 DUP2 ADD PUSH1 0x40 MSTORE DUP1 SWAP3 SWAP2 SWAP1 DUP2 DUP2 MSTORE PUSH1 0x20 ADD DUP3 DUP1 SLOAD PUSH2 0x6A0 SWAP1 PUSH2 0x132A JUMP JUMPDEST DUP1 ISZERO PUSH2 0x6ED JUMPI DUP1 PUSH1 0x1F LT PUSH2 0x6C2 JUMPI PUSH2 0x100 DUP1 DUP4 SLOAD DIV MUL DUP4 MSTORE SWAP2 PUSH1 0x20 ADD SWAP2 PUSH2 0x6ED JUMP JUMPDEST DUP3 ADD SWAP2 SWAP1 PUSH1 0x0 MSTORE PUSH1 0x20 PUSH1 0x0 KECCAK256 SWAP1 JUMPDEST DUP2 SLOAD DUP2 MSTORE SWAP1 PUSH1 0x1 ADD SWAP1 PUSH1 0x20 ADD DUP1 DUP4 GT PUSH2 0x6D0 JUMPI DUP3 SWAP1 SUB PUSH1 0x1F AND DUP3 ADD SWAP2 JUMPDEST POP POP POP POP POP DUP2 MSTORE PUSH1 0x20 ADD PUSH1 0x2 DUP3 ADD SLOAD DUP2 MSTORE POP POP DUP2 MSTORE PUSH1 0x20 ADD SWAP1 PUSH1 0x1 ADD SWAP1 PUSH2 0x5AF JUMP JUMPDEST POP POP POP POP SWAP1 POP SWAP1 JUMP JUMPDEST PUSH1 0x0 PUSH1 0x1 PUSH1 0x0 DUP4 PUSH20 0xFFFFFFFFFFFFFFFFFFFFFFFFFFFFFFFFFFFFFFFF AND PUSH20 0xFFFFFFFFFFFFFFFFFFFFFFFFFFFFFFFFFFFFFFFF AND DUP2 MSTORE PUSH1 0x20 ADD SWAP1 DUP2 MSTORE PUSH1 0x20 ADD PUSH1 0x0 KECCAK256 PUSH1 0x0 ADD PUSH1 0x1 SWAP1 SLOAD SWAP1 PUSH2 0x100 EXP SWAP1 DIV PUSH1 0xFF AND SWAP1 POP SWAP2 SWAP1 POP JUMP JUMPDEST PUSH1 0x0 PUSH1 0x1 PUSH1 0x0 DUP4 PUSH20 0xFFFFFFFFFFFFFFFFFFFFFFFFFFFFFFFFFFFFFFFF AND PUSH20 0xFFFFFFFFFFFFFFFFFFFFFFFFFFFFFFFFFFFFFFFF AND DUP2 MSTORE PUSH1 0x20 ADD SWAP1 DUP2 MSTORE PUSH1 0x20 ADD PUSH1 0x0 KECCAK256 PUSH1 0x0 ADD PUSH1 0x0 SWAP1 SLOAD SWAP1 PUSH2 0x100 EXP SWAP1 DIV PUSH1 0xFF AND SWAP1 POP SWAP2 SWAP1 POP JUMP JUMPDEST DUP1 PUSH2 0x7D3 PUSH2 0x534 JUMP JUMPDEST PUSH2 0x812 JUMPI PUSH1 0x40 MLOAD PUSH32 0x8C379A000000000000000000000000000000000000000000000000000000000 DUP2 MSTORE PUSH1 0x4 ADD PUSH2 0x809 SWAP1 PUSH2 0x13CD JUMP JUMPDEST PUSH1 0x40 MLOAD DUP1 SWAP2 SUB SWAP1 REVERT JUMPDEST PUSH2 0x81B DUP2 PUSH2 0xBEF JUMP JUMPDEST PUSH1 0x1 DUP1 PUSH1 0x0 DUP5 PUSH20 0xFFFFFFFFFFFFFFFFFFFFFFFFFFFFFFFFFFFFFFFF AND PUSH20 0xFFFFFFFFFFFFFFFFFFFFFFFFFFFFFFFFFFFFFFFF AND DUP2 MSTORE PUSH1 0x20 ADD SWAP1 DUP2 MSTORE PUSH1 0x20 ADD PUSH1 0x0 KECCAK256 PUSH1 0x0 ADD PUSH1 0x0 PUSH2 0x100 EXP DUP2 SLOAD DUP2 PUSH1 0xFF MUL NOT AND SWAP1 DUP4 ISZERO ISZERO MUL OR SWAP1 SSTORE POP POP POP JUMP JUMPDEST PUSH1 0x1 PUSH1 0x20 MSTORE DUP1 PUSH1 0x0 MSTORE PUSH1 0x40 PUSH1 0x0 KECCAK256 PUSH1 0x0 SWAP2 POP SWAP1 POP DUP1 PUSH1 0x0 ADD PUSH1 0x0 SWAP1 SLOAD SWAP1 PUSH2 0x100 EXP SWAP1 DIV PUSH1 0xFF AND SWAP1 DUP1 PUSH1 0x0 ADD PUSH1 0x1 SWAP1 SLOAD SWAP1 PUSH2 0x100 EXP SWAP1 DIV PUSH1 0xFF AND SWAP1 POP DUP3 JUMP JUMPDEST PUSH1 0x0 DUP1 SLOAD SWAP1 PUSH2 0x100 EXP SWAP1 DIV PUSH20 0xFFFFFFFFFFFFFFFFFFFFFFFFFFFFFFFFFFFFFFFF AND DUP2 JUMP JUMPDEST PUSH1 0x0 PUSH2 0x8E6 CALLER PUSH2 0x718 JUMP JUMPDEST SWAP1 POP SWAP1 JUMP JUMPDEST PUSH1 0x0 PUSH2 0x8F6 CALLER PUSH2 0x771 JUMP JUMPDEST SWAP1 POP SWAP1 JUMP JUMPDEST PUSH1 0x0 DUP1 PUSH1 0x0 DUP1 PUSH1 0x0 SWAP1 POP JUMPDEST PUSH1 0x2 DUP1 SLOAD SWAP1 POP DUP2 LT ISZERO PUSH2 0x9B9 JUMPI DUP2 PUSH1 0x2 DUP3 DUP2 SLOAD DUP2 LT PUSH2 0x928 JUMPI PUSH2 0x927 PUSH2 0x12CC JUMP JUMPDEST JUMPDEST SWAP1 PUSH1 0x0 MSTORE PUSH1 0x20 PUSH1 0x0 KECCAK256 SWAP1 PUSH1 0x3 MUL ADD PUSH1 0x2 ADD SLOAD GT ISZERO PUSH2 0x974 JUMPI PUSH1 0x2 DUP2 DUP2 SLOAD DUP2 LT PUSH2 0x954 JUMPI PUSH2 0x953 PUSH2 0x12CC JUMP JUMPDEST JUMPDEST SWAP1 PUSH1 0x0 MSTORE PUSH1 0x20 PUSH1 0x0 KECCAK256 SWAP1 PUSH1 0x3 MUL ADD PUSH1 0x2 ADD SLOAD SWAP2 POP DUP1 SWAP4 POP PUSH1 0x0 SWAP3 POP PUSH2 0x9A6 JUMP JUMPDEST DUP2 PUSH1 0x2 DUP3 DUP2 SLOAD DUP2 LT PUSH2 0x989 JUMPI PUSH2 0x988 PUSH2 0x12CC JUMP JUMPDEST JUMPDEST SWAP1 PUSH1 0x0 MSTORE PUSH1 0x20 PUSH1 0x0 KECCAK256 SWAP1 PUSH1 0x3 MUL ADD PUSH1 0x2 ADD SLOAD SUB PUSH2 0x9A5 JUMPI PUSH1 0x1 SWAP3 POP JUMPDEST JUMPDEST DUP1 DUP1 PUSH2 0x9B1 SWAP1 PUSH2 0x141C JUMP JUMPDEST SWAP2 POP POP PUSH2 0x906 JUMP JUMPDEST POP POP SWAP1 SWAP2 JUMP JUMPDEST CALLER PUSH1 0x4 SLOAD PUSH1 0x3 SLOAD LT PUSH2 0xA06 JUMPI PUSH1 0x40 MLOAD PUSH32 0x8C379A000000000000000000000000000000000000000000000000000000000 DUP2 MSTORE PUSH1 0x4 ADD PUSH2 0x9FD SWAP1 PUSH2 0x14B0 JUMP JUMPDEST PUSH1 0x40 MLOAD DUP1 SWAP2 SUB SWAP1 REVERT JUMPDEST PUSH2 0xA0E PUSH2 0x8EB JUMP JUMPDEST PUSH2 0xA4D JUMPI PUSH1 0x40 MLOAD PUSH32 0x8C379A000000000000000000000000000000000000000000000000000000000 DUP2 MSTORE PUSH1 0x4 ADD PUSH2 0xA44 SWAP1 PUSH2 0x151C JUMP JUMPDEST PUSH1 0x40 MLOAD DUP1 SWAP2 SUB SWAP1 REVERT JUMPDEST PUSH2 0xA56 DUP2 PUSH2 0xBEF JUMP JUMPDEST PUSH1 0x0 PUSH1 0x1 PUSH1 0x0 CALLER PUSH20 0xFFFFFFFFFFFFFFFFFFFFFFFFFFFFFFFFFFFFFFFF AND PUSH20 0xFFFFFFFFFFFFFFFFFFFFFFFFFFFFFFFFFFFFFFFF AND DUP2 MSTORE PUSH1 0x20 ADD SWAP1 DUP2 MSTORE PUSH1 0x20 ADD PUSH1 0x0 KECCAK256 SWAP1 POP PUSH1 0x0 JUMPDEST PUSH1 0x2 DUP1 SLOAD SWAP1 POP DUP2 LT ISZERO PUSH2 0xBE9 JUMPI PUSH2 0xB60 PUSH1 0x2 DUP3 DUP2 SLOAD DUP2 LT PUSH2 0xAC0 JUMPI PUSH2 0xABF PUSH2 0x12CC JUMP JUMPDEST JUMPDEST SWAP1 PUSH1 0x0 MSTORE PUSH1 0x20 PUSH1 0x0 KECCAK256 SWAP1 PUSH1 0x3 MUL ADD PUSH1 0x0 ADD DUP1 SLOAD PUSH2 0xADC SWAP1 PUSH2 0x132A JUMP JUMPDEST DUP1 PUSH1 0x1F ADD PUSH1 0x20 DUP1 SWAP2 DIV MUL PUSH1 0x20 ADD PUSH1 0x40 MLOAD SWAP1 DUP2 ADD PUSH1 0x40 MSTORE DUP1 SWAP3 SWAP2 SWAP1 DUP2 DUP2 MSTORE PUSH1 0x20 ADD DUP3 DUP1 SLOAD PUSH2 0xB08 SWAP1 PUSH2 0x132A JUMP JUMPDEST DUP1 ISZERO PUSH2 0xB55 JUMPI DUP1 PUSH1 0x1F LT PUSH2 0xB2A JUMPI PUSH2 0x100 DUP1 DUP4 SLOAD DIV MUL DUP4 MSTORE SWAP2 PUSH1 0x20 ADD SWAP2 PUSH2 0xB55 JUMP JUMPDEST DUP3 ADD SWAP2 SWAP1 PUSH1 0x0 MSTORE PUSH1 0x20 PUSH1 0x0 KECCAK256 SWAP1 JUMPDEST DUP2 SLOAD DUP2 MSTORE SWAP1 PUSH1 0x1 ADD SWAP1 PUSH1 0x20 ADD DUP1 DUP4 GT PUSH2 0xB38 JUMPI DUP3 SWAP1 SUB PUSH1 0x1F AND DUP3 ADD SWAP2 JUMPDEST POP POP POP POP POP DUP6 PUSH2 0xC3B JUMP JUMPDEST ISZERO PUSH2 0xBD6 JUMPI PUSH1 0x2 DUP2 DUP2 SLOAD DUP2 LT PUSH2 0xB79 JUMPI PUSH2 0xB78 PUSH2 0x12CC JUMP JUMPDEST JUMPDEST SWAP1 PUSH1 0x0 MSTORE PUSH1 0x20 PUSH1 0x0 KECCAK256 SWAP1 PUSH1 0x3 MUL ADD PUSH1 0x2 ADD PUSH1 0x0 DUP2 SLOAD DUP1 SWAP3 SWAP2 SWAP1 PUSH2 0xB9B SWAP1 PUSH2 0x141C JUMP JUMPDEST SWAP2 SWAP1 POP SSTORE POP PUSH1 0x1 DUP3 PUSH1 0x0 ADD PUSH1 0x1 PUSH2 0x100 EXP DUP2 SLOAD DUP2 PUSH1 0xFF MUL NOT AND SWAP1 DUP4 ISZERO ISZERO MUL OR SWAP1 SSTORE POP PUSH1 0x3 PUSH1 0x0 DUP2 SLOAD DUP1 SWAP3 SWAP2 SWAP1 PUSH2 0xBD0 SWAP1 PUSH2 0x141C JUMP JUMPDEST SWAP2 SWAP1 POP SSTORE POP JUMPDEST DUP1 DUP1 PUSH2 0xBE1 SWAP1 PUSH2 0x141C JUMP JUMPDEST SWAP2 POP POP PUSH2 0xA9C JUMP JUMPDEST POP POP POP POP JUMP JUMPDEST PUSH2 0xBF8 DUP2 PUSH2 0x718 JUMP JUMPDEST ISZERO PUSH2 0xC38 JUMPI PUSH1 0x40 MLOAD PUSH32 0x8C379A000000000000000000000000000000000000000000000000000000000 DUP2 MSTORE PUSH1 0x4 ADD PUSH2 0xC2F SWAP1 PUSH2 0x1588 JUMP JUMPDEST PUSH1 0x40 MLOAD DUP1 SWAP2 SUB SWAP1 REVERT JUMPDEST POP JUMP JUMPDEST PUSH1 0x0 DUP2 PUSH1 0x40 MLOAD PUSH1 0x20 ADD PUSH2 0xC4E SWAP2 SWAP1 PUSH2 0xD24 JUMP JUMPDEST PUSH1 0x40 MLOAD PUSH1 0x20 DUP2 DUP4 SUB SUB DUP2 MSTORE SWAP1 PUSH1 0x40 MSTORE DUP1 MLOAD SWAP1 PUSH1 0x20 ADD KECCAK256 DUP4 PUSH1 0x40 MLOAD PUSH1 0x20 ADD PUSH2 0xC75 SWAP2 SWAP1 PUSH2 0xD24 JUMP JUMPDEST PUSH1 0x40 MLOAD PUSH1 0x20 DUP2 DUP4 SUB SUB DUP2 MSTORE SWAP1 PUSH1 0x40 MSTORE DUP1 MLOAD SWAP1 PUSH1 0x20 ADD KECCAK256 EQ SWAP1 POP SWAP3 SWAP2 POP POP JUMP JUMPDEST PUSH1 0x0 DUP2 MLOAD SWAP1 POP SWAP2 SWAP1 POP JUMP JUMPDEST PUSH1 0x0 DUP3 DUP3 MSTORE PUSH1 0x20 DUP3 ADD SWAP1 POP SWAP3 SWAP2 POP POP JUMP JUMPDEST PUSH1 0x0 JUMPDEST DUP4 DUP2 LT ISZERO PUSH2 0xCCE JUMPI DUP1 DUP3 ADD MLOAD DUP2 DUP5 ADD MSTORE PUSH1 0x20 DUP2 ADD SWAP1 POP PUSH2 0xCB3 JUMP JUMPDEST PUSH1 0x0 DUP5 DUP5 ADD MSTORE POP POP POP POP JUMP JUMPDEST PUSH1 0x0 PUSH1 0x1F NOT PUSH1 0x1F DUP4 ADD AND SWAP1 POP SWAP2 SWAP1 POP JUMP JUMPDEST PUSH1 0x0 PUSH2 0xCF6 DUP3 PUSH2 0xC94 JUMP JUMPDEST PUSH2 0xD00 DUP2 DUP6 PUSH2 0xC9F JUMP JUMPDEST SWAP4 POP PUSH2 0xD10 DUP2 DUP6 PUSH1 0x20 DUP7 ADD PUSH2 0xCB0 JUMP JUMPDEST PUSH2 0xD19 DUP2 PUSH2 0xCDA JUMP JUMPDEST DUP5 ADD SWAP2 POP POP SWAP3 SWAP2 POP POP JUMP JUMPDEST PUSH1 0x0 PUSH1 0x20 DUP3 ADD SWAP1 POP DUP2 DUP2 SUB PUSH1 0x0 DUP4 ADD MSTORE PUSH2 0xD3E DUP2 DUP5 PUSH2 0xCEB JUMP JUMPDEST SWAP1 POP SWAP3 SWAP2 POP POP JUMP JUMPDEST PUSH1 0x0 PUSH20 0xFFFFFFFFFFFFFFFFFFFFFFFFFFFFFFFFFFFFFFFF DUP3 AND SWAP1 POP SWAP2 SWAP1 POP JUMP JUMPDEST PUSH1 0x0 PUSH2 0xD71 DUP3 PUSH2 0xD46 JUMP JUMPDEST SWAP1 POP SWAP2 SWAP1 POP JUMP JUMPDEST PUSH2 0xD81 DUP2 PUSH2 0xD66 JUMP JUMPDEST DUP3 MSTORE POP POP JUMP JUMPDEST PUSH1 0x0 PUSH1 0x20 DUP3 ADD SWAP1 POP PUSH2 0xD9C PUSH1 0x0 DUP4 ADD DUP5 PUSH2 0xD78 JUMP JUMPDEST SWAP3 SWAP2 POP POP JUMP JUMPDEST PUSH1 0x0 PUSH1 0x40 MLOAD SWAP1 POP SWAP1 JUMP JUMPDEST PUSH1 0x0 DUP1 REVERT JUMPDEST PUSH1 0x0 DUP1 REVERT JUMPDEST PUSH1 0x0 DUP2 SWAP1 POP SWAP2 SWAP1 POP JUMP JUMPDEST PUSH2 0xDC9 DUP2 PUSH2 0xDB6 JUMP JUMPDEST DUP2 EQ PUSH2 0xDD4 JUMPI PUSH1 0x0 DUP1 REVERT JUMPDEST POP JUMP JUMPDEST PUSH1 0x0 DUP2 CALLDATALOAD SWAP1 POP PUSH2 0xDE6 DUP2 PUSH2 0xDC0 JUMP JUMPDEST SWAP3 SWAP2 POP POP JUMP JUMPDEST PUSH1 0x0 PUSH1 0x20 DUP3 DUP5 SUB SLT ISZERO PUSH2 0xE02 JUMPI PUSH2 0xE01 PUSH2 0xDAC JUMP JUMPDEST JUMPDEST PUSH1 0x0 PUSH2 0xE10 DUP5 DUP3 DUP6 ADD PUSH2 0xDD7 JUMP JUMPDEST SWAP2 POP POP SWAP3 SWAP2 POP POP JUMP JUMPDEST PUSH2 0xE22 DUP2 PUSH2 0xDB6 JUMP JUMPDEST DUP3 MSTORE POP POP JUMP JUMPDEST PUSH1 0x0 PUSH1 0x60 DUP3 ADD SWAP1 POP DUP2 DUP2 SUB PUSH1 0x0 DUP4 ADD MSTORE PUSH2 0xE42 DUP2 DUP7 PUSH2 0xCEB JUMP JUMPDEST SWAP1 POP DUP2 DUP2 SUB PUSH1 0x20 DUP4 ADD MSTORE PUSH2 0xE56 DUP2 DUP6 PUSH2 0xCEB JUMP JUMPDEST SWAP1 POP PUSH2 0xE65 PUSH1 0x40 DUP4 ADD DUP5 PUSH2 0xE19 JUMP JUMPDEST SWAP5 SWAP4 POP POP POP POP JUMP JUMPDEST PUSH1 0x0 DUP2 ISZERO ISZERO SWAP1 POP SWAP2 SWAP1 POP JUMP JUMPDEST PUSH2 0xE82 DUP2 PUSH2 0xE6D JUMP JUMPDEST DUP3 MSTORE POP POP JUMP JUMPDEST PUSH1 0x0 PUSH1 0x20 DUP3 ADD SWAP1 POP PUSH2 0xE9D PUSH1 0x0 DUP4 ADD DUP5 PUSH2 0xE79 JUMP JUMPDEST SWAP3 SWAP2 POP POP JUMP JUMPDEST PUSH1 0x0 DUP2 MLOAD SWAP1 POP SWAP2 SWAP1 POP JUMP JUMPDEST PUSH1 0x0 DUP3 DUP3 MSTORE PUSH1 0x20 DUP3 ADD SWAP1 POP SWAP3 SWAP2 POP POP JUMP JUMPDEST PUSH1 0x0 DUP2 SWAP1 POP PUSH1 0x20 DUP3 ADD SWAP1 POP SWAP2 SWAP1 POP JUMP JUMPDEST PUSH1 0x0 DUP3 DUP3 MSTORE PUSH1 0x20 DUP3 ADD SWAP1 POP SWAP3 SWAP2 POP POP JUMP JUMPDEST PUSH1 0x0 PUSH2 0xEEB DUP3 PUSH2 0xC94 JUMP JUMPDEST PUSH2 0xEF5 DUP2 DUP6 PUSH2 0xECF JUMP JUMPDEST SWAP4 POP PUSH2 0xF05 DUP2 DUP6 PUSH1 0x20 DUP7 ADD PUSH2 0xCB0 JUMP JUMPDEST PUSH2 0xF0E DUP2 PUSH2 0xCDA JUMP JUMPDEST DUP5 ADD SWAP2 POP POP SWAP3 SWAP2 POP POP JUMP JUMPDEST PUSH2 0xF22 DUP2 PUSH2 0xDB6 JUMP JUMPDEST DUP3 MSTORE POP POP JUMP JUMPDEST PUSH1 0x0 PUSH1 0x60 DUP4 ADD PUSH1 0x0 DUP4 ADD MLOAD DUP5 DUP3 SUB PUSH1 0x0 DUP7 ADD MSTORE PUSH2 0xF45 DUP3 DUP3 PUSH2 0xEE0 JUMP JUMPDEST SWAP2 POP POP PUSH1 0x20 DUP4 ADD MLOAD DUP5 DUP3 SUB PUSH1 0x20 DUP7 ADD MSTORE PUSH2 0xF5F DUP3 DUP3 PUSH2 0xEE0 JUMP JUMPDEST SWAP2 POP POP PUSH1 0x40 DUP4 ADD MLOAD PUSH2 0xF74 PUSH1 0x40 DUP7 ADD DUP3 PUSH2 0xF19 JUMP JUMPDEST POP DUP1 SWAP2 POP POP SWAP3 SWAP2 POP POP JUMP JUMPDEST PUSH1 0x0 PUSH2 0xF8B DUP4 DUP4 PUSH2 0xF28 JUMP JUMPDEST SWAP1 POP SWAP3 SWAP2 POP POP JUMP JUMPDEST PUSH1 0x0 PUSH1 0x20 DUP3 ADD SWAP1 POP SWAP2 SWAP1 POP JUMP JUMPDEST PUSH1 0x0 PUSH2 0xFAB DUP3 PUSH2 0xEA3 JUMP JUMPDEST PUSH2 0xFB5 DUP2 DUP6 PUSH2 0xEAE JUMP JUMPDEST SWAP4 POP DUP4 PUSH1 0x20 DUP3 MUL DUP6 ADD PUSH2 0xFC7 DUP6 PUSH2 0xEBF JUMP JUMPDEST DUP1 PUSH1 0x0 JUMPDEST DUP6 DUP2 LT ISZERO PUSH2 0x1003 JUMPI DUP5 DUP5 SUB DUP10 MSTORE DUP2 MLOAD PUSH2 0xFE4 DUP6 DUP3 PUSH2 0xF7F JUMP JUMPDEST SWAP5 POP PUSH2 0xFEF DUP4 PUSH2 0xF93 JUMP JUMPDEST SWAP3 POP PUSH1 0x20 DUP11 ADD SWAP10 POP POP PUSH1 0x1 DUP2 ADD SWAP1 POP PUSH2 0xFCB JUMP JUMPDEST POP DUP3 SWAP8 POP DUP8 SWAP6 POP POP POP POP POP POP SWAP3 SWAP2 POP POP JUMP JUMPDEST PUSH1 0x0 PUSH1 0x20 DUP3 ADD SWAP1 POP DUP2 DUP2 SUB PUSH1 0x0 DUP4 ADD MSTORE PUSH2 0x102F DUP2 DUP5 PUSH2 0xFA0 JUMP JUMPDEST SWAP1 POP SWAP3 SWAP2 POP POP JUMP JUMPDEST PUSH2 0x1040 DUP2 PUSH2 0xD66 JUMP JUMPDEST DUP2 EQ PUSH2 0x104B JUMPI PUSH1 0x0 DUP1 REVERT JUMPDEST POP JUMP JUMPDEST PUSH1 0x0 DUP2 CALLDATALOAD SWAP1 POP PUSH2 0x105D DUP2 PUSH2 0x1037 JUMP JUMPDEST SWAP3 SWAP2 POP POP JUMP JUMPDEST PUSH1 0x0 PUSH1 0x20 DUP3 DUP5 SUB SLT ISZERO PUSH2 0x1079 JUMPI PUSH2 0x1078 PUSH2 0xDAC JUMP JUMPDEST JUMPDEST PUSH1 0x0 PUSH2 0x1087 DUP5 DUP3 DUP6 ADD PUSH2 0x104E JUMP JUMPDEST SWAP2 POP POP SWAP3 SWAP2 POP POP JUMP JUMPDEST PUSH1 0x0 PUSH1 0x40 DUP3 ADD SWAP1 POP PUSH2 0x10A5 PUSH1 0x0 DUP4 ADD DUP6 PUSH2 0xE79 JUMP JUMPDEST PUSH2 0x10B2 PUSH1 0x20 DUP4 ADD DUP5 PUSH2 0xE79 JUMP JUMPDEST SWAP4 SWAP3 POP POP POP JUMP JUMPDEST PUSH1 0x0 PUSH1 0x40 DUP3 ADD SWAP1 POP PUSH2 0x10CE PUSH1 0x0 DUP4 ADD DUP6 PUSH2 0xE19 JUMP JUMPDEST PUSH2 0x10DB PUSH1 0x20 DUP4 ADD DUP5 PUSH2 0xE79 JUMP JUMPDEST SWAP4 SWAP3 POP POP POP JUMP JUMPDEST PUSH1 0x0 DUP1 REVERT JUMPDEST PUSH1 0x0 DUP1 REVERT JUMPDEST PUSH32 0x4E487B7100000000000000000000000000000000000000000000000000000000 PUSH1 0x0 MSTORE PUSH1 0x41 PUSH1 0x4 MSTORE PUSH1 0x24 PUSH1 0x0 REVERT JUMPDEST PUSH2 0x1124 DUP3 PUSH2 0xCDA JUMP JUMPDEST DUP2 ADD DUP2 DUP2 LT PUSH8 0xFFFFFFFFFFFFFFFF DUP3 GT OR ISZERO PUSH2 0x1143 JUMPI PUSH2 0x1142 PUSH2 0x10EC JUMP JUMPDEST JUMPDEST DUP1 PUSH1 0x40 MSTORE POP POP POP JUMP JUMPDEST PUSH1 0x0 PUSH2 0x1156 PUSH2 0xDA2 JUMP JUMPDEST SWAP1 POP PUSH2 0x1162 DUP3 DUP3 PUSH2 0x111B JUMP JUMPDEST SWAP2 SWAP1 POP JUMP JUMPDEST PUSH1 0x0 PUSH8 0xFFFFFFFFFFFFFFFF DUP3 GT ISZERO PUSH2 0x1182 JUMPI PUSH2 0x1181 PUSH2 0x10EC JUMP JUMPDEST JUMPDEST PUSH2 0x118B DUP3 PUSH2 0xCDA JUMP JUMPDEST SWAP1 POP PUSH1 0x20 DUP2 ADD SWAP1 POP SWAP2 SWAP1 POP JUMP JUMPDEST DUP3 DUP2 DUP4 CALLDATACOPY PUSH1 0x0 DUP4 DUP4 ADD MSTORE POP POP POP JUMP JUMPDEST PUSH1 0x0 PUSH2 0x11BA PUSH2 0x11B5 DUP5 PUSH2 0x1167 JUMP JUMPDEST PUSH2 0x114C JUMP JUMPDEST SWAP1 POP DUP3 DUP2 MSTORE PUSH1 0x20 DUP2 ADD DUP5 DUP5 DUP5 ADD GT ISZERO PUSH2 0x11D6 JUMPI PUSH2 0x11D5 PUSH2 0x10E7 JUMP JUMPDEST JUMPDEST PUSH2 0x11E1 DUP5 DUP3 DUP6 PUSH2 0x1198 JUMP JUMPDEST POP SWAP4 SWAP3 POP POP POP JUMP JUMPDEST PUSH1 0x0 DUP3 PUSH1 0x1F DUP4 ADD SLT PUSH2 0x11FE JUMPI PUSH2 0x11FD PUSH2 0x10E2 JUMP JUMPDEST JUMPDEST DUP2 CALLDATALOAD PUSH2 0x120E DUP5 DUP3 PUSH1 0x20 DUP7 ADD PUSH2 0x11A7 JUMP JUMPDEST SWAP2 POP POP SWAP3 SWAP2 POP POP JUMP JUMPDEST PUSH1 0x0 PUSH1 0x20 DUP3 DUP5 SUB SLT ISZERO PUSH2 0x122D JUMPI PUSH2 0x122C PUSH2 0xDAC JUMP JUMPDEST JUMPDEST PUSH1 0x0 DUP3 ADD CALLDATALOAD PUSH8 0xFFFFFFFFFFFFFFFF DUP2 GT ISZERO PUSH2 0x124B JUMPI PUSH2 0x124A PUSH2 0xDB1 JUMP JUMPDEST JUMPDEST PUSH2 0x1257 DUP5 DUP3 DUP6 ADD PUSH2 0x11E9 JUMP JUMPDEST SWAP2 POP POP SWAP3 SWAP2 POP POP JUMP JUMPDEST PUSH32 0x5468657265206973206120746965206F6E2042616C6C6F740000000000000000 PUSH1 0x0 DUP3 ADD MSTORE POP JUMP JUMPDEST PUSH1 0x0 PUSH2 0x1296 PUSH1 0x18 DUP4 PUSH2 0xC9F JUMP JUMPDEST SWAP2 POP PUSH2 0x12A1 DUP3 PUSH2 0x1260 JUMP JUMPDEST PUSH1 0x20 DUP3 ADD SWAP1 POP SWAP2 SWAP1 POP JUMP JUMPDEST PUSH1 0x0 PUSH1 0x20 DUP3 ADD SWAP1 POP DUP2 DUP2 SUB PUSH1 0x0 DUP4 ADD MSTORE PUSH2 0x12C5 DUP2 PUSH2 0x1289 JUMP JUMPDEST SWAP1 POP SWAP2 SWAP1 POP JUMP JUMPDEST PUSH32 0x4E487B7100000000000000000000000000000000000000000000000000000000 PUSH1 0x0 MSTORE PUSH1 0x32 PUSH1 0x4 MSTORE PUSH1 0x24 PUSH1 0x0 REVERT JUMPDEST PUSH32 0x4E487B7100000000000000000000000000000000000000000000000000000000 PUSH1 0x0 MSTORE PUSH1 0x22 PUSH1 0x4 MSTORE PUSH1 0x24 PUSH1 0x0 REVERT JUMPDEST PUSH1 0x0 PUSH1 0x2 DUP3 DIV SWAP1 POP PUSH1 0x1 DUP3 AND DUP1 PUSH2 0x1342 JUMPI PUSH1 0x7F DUP3 AND SWAP2 POP JUMPDEST PUSH1 0x20 DUP3 LT DUP2 SUB PUSH2 0x1355 JUMPI PUSH2 0x1354 PUSH2 0x12FB JUMP JUMPDEST JUMPDEST POP SWAP2 SWAP1 POP JUMP JUMPDEST PUSH32 0x4F6E6C792074686520636F6E7472616374206F776E65722063616E2067697665 PUSH1 0x0 DUP3 ADD MSTORE PUSH32 0x20726967687420746F20766F74652E0000000000000000000000000000000000 PUSH1 0x20 DUP3 ADD MSTORE POP JUMP JUMPDEST PUSH1 0x0 PUSH2 0x13B7 PUSH1 0x2F DUP4 PUSH2 0xC9F JUMP JUMPDEST SWAP2 POP PUSH2 0x13C2 DUP3 PUSH2 0x135B JUMP JUMPDEST PUSH1 0x40 DUP3 ADD SWAP1 POP SWAP2 SWAP1 POP JUMP JUMPDEST PUSH1 0x0 PUSH1 0x20 DUP3 ADD SWAP1 POP DUP2 DUP2 SUB PUSH1 0x0 DUP4 ADD MSTORE PUSH2 0x13E6 DUP2 PUSH2 0x13AA JUMP JUMPDEST SWAP1 POP SWAP2 SWAP1 POP JUMP JUMPDEST PUSH32 0x4E487B7100000000000000000000000000000000000000000000000000000000 PUSH1 0x0 MSTORE PUSH1 0x11 PUSH1 0x4 MSTORE PUSH1 0x24 PUSH1 0x0 REVERT JUMPDEST PUSH1 0x0 PUSH2 0x1427 DUP3 PUSH2 0xDB6 JUMP JUMPDEST SWAP2 POP PUSH32 0xFFFFFFFFFFFFFFFFFFFFFFFFFFFFFFFFFFFFFFFFFFFFFFFFFFFFFFFFFFFFFFFF DUP3 SUB PUSH2 0x1459 JUMPI PUSH2 0x1458 PUSH2 0x13ED JUMP JUMPDEST JUMPDEST PUSH1 0x1 DUP3 ADD SWAP1 POP SWAP2 SWAP1 POP JUMP JUMPDEST PUSH32 0x4D6178206163636F756E7420766F746573206973207265616368656400000000 PUSH1 0x0 DUP3 ADD MSTORE POP JUMP JUMPDEST PUSH1 0x0 PUSH2 0x149A PUSH1 0x1C DUP4 PUSH2 0xC9F JUMP JUMPDEST SWAP2 POP PUSH2 0x14A5 DUP3 PUSH2 0x1464 JUMP JUMPDEST PUSH1 0x20 DUP3 ADD SWAP1 POP SWAP2 SWAP1 POP JUMP JUMPDEST PUSH1 0x0 PUSH1 0x20 DUP3 ADD SWAP1 POP DUP2 DUP2 SUB PUSH1 0x0 DUP4 ADD MSTORE PUSH2 0x14C9 DUP2 PUSH2 0x148D JUMP JUMPDEST SWAP1 POP SWAP2 SWAP1 POP JUMP JUMPDEST PUSH32 0x596F752068617665206E6F7420726967687420746F20766F7465000000000000 PUSH1 0x0 DUP3 ADD MSTORE POP JUMP JUMPDEST PUSH1 0x0 PUSH2 0x1506 PUSH1 0x1A DUP4 PUSH2 0xC9F JUMP JUMPDEST SWAP2 POP PUSH2 0x1511 DUP3 PUSH2 0x14D0 JUMP JUMPDEST PUSH1 0x20 DUP3 ADD SWAP1 POP SWAP2 SWAP1 POP JUMP JUMPDEST PUSH1 0x0 PUSH1 0x20 DUP3 ADD SWAP1 POP DUP2 DUP2 SUB PUSH1 0x0 DUP4 ADD MSTORE PUSH2 0x1535 DUP2 PUSH2 0x14F9 JUMP JUMPDEST SWAP1 POP SWAP2 SWAP1 POP JUMP JUMPDEST PUSH32 0x566F74657220616C726561647920766F7465642E000000000000000000000000 PUSH1 0x0 DUP3 ADD MSTORE POP JUMP JUMPDEST PUSH1 0x0 PUSH2 0x1572 PUSH1 0x14 DUP4 PUSH2 0xC9F JUMP JUMPDEST SWAP2 POP PUSH2 0x157D DUP3 PUSH2 0x153C JUMP JUMPDEST PUSH1 0x20 DUP3 ADD SWAP1 POP SWAP2 SWAP1 POP JUMP JUMPDEST PUSH1 0x0 PUSH1 0x20 DUP3 ADD SWAP1 POP DUP2 DUP2 SUB PUSH1 0x0 DUP4 ADD MSTORE PUSH2 0x15A1 DUP2 PUSH2 0x1565 JUMP JUMPDEST SWAP1 POP SWAP2 SWAP1 POP JUMP INVALID LOG2 PUSH5 0x6970667358 0x22 SLT KECCAK256 PUSH10 0x85F29159E8524372F2B6 DUP2 PUSH3 0x83DB43 KECCAK256 PUSH4 0x2ADB39A4 PUSH31 0xA453563A44B77E0F9B64736F6C634300081100330000000000000000000000 "
				},
				"gasEstimates": {
					"creation": {
						"codeDepositCost": "1119600",
						"executionCost": "infinite",
						"totalCost": "infinite"
					},
					"external": {
						"areYouContractOwner()": "2519",
						"areYouHaveRigthToVote()": "2661",
						"areYouVoted()": "2689",
						"candidates(uint256)": "infinite",
						"contractOwner()": "2578",
						"getCandidatesList()": "infinite",
						"getContractAddress()": "431",
						"getVoterRigthToVote(address)": "2978",
						"getVoterVoted(address)": "3006",
						"getWinnerName()": "infinite",
						"getWinningCandidate()": "infinite",
						"giveRightToVote(address)": "29425",
						"vote(string)": "infinite",
						"voters(address)": "infinite"
					},
					"internal": {
						"getVoterVotedRequire(address)": "infinite",
						"stringEqualTo(string memory,string memory)": "infinite"
					}
				},
				"methodIdentifiers": {
					"areYouContractOwner()": "3ddf3822",
					"areYouHaveRigthToVote()": "df703622",
					"areYouVoted()": "da265430",
					"candidates(uint256)": "3477ee2e",
					"contractOwner()": "ce606ee0",
					"getCandidatesList()": "4aba5f34",
					"getContractAddress()": "32a2c5d0",
					"getVoterRigthToVote(address)": "94b04e7d",
					"getVoterVoted(address)": "8d85cc09",
					"getWinnerName()": "2bfda515",
					"getWinningCandidate()": "f927cc29",
					"giveRightToVote(address)": "9e7b8d61",
					"vote(string)": "fc36e15b",
					"voters(address)": "a3ec138d"
				}
			},
			"storageLayout": {
				"storage": [
					{
						"astId": 15,
						"contract": "contracts/Ballot/Ballot.sol:MyBallot",
						"label": "contractOwner",
						"offset": 0,
						"slot": "0",
						"type": "t_address"
					},
					{
						"astId": 20,
						"contract": "contracts/Ballot/Ballot.sol:MyBallot",
						"label": "voters",
						"offset": 0,
						"slot": "1",
						"type": "t_mapping(t_address,t_struct(Voter)6_storage)"
					},
					{
						"astId": 24,
						"contract": "contracts/Ballot/Ballot.sol:MyBallot",
						"label": "candidates",
						"offset": 0,
						"slot": "2",
						"type": "t_array(t_struct(Candidate)13_storage)dyn_storage"
					},
					{
						"astId": 26,
						"contract": "contracts/Ballot/Ballot.sol:MyBallot",
						"label": "totalVotesCounter",
						"offset": 0,
						"slot": "3",
						"type": "t_uint256"
					},
					{
						"astId": 28,
						"contract": "contracts/Ballot/Ballot.sol:MyBallot",
						"label": "maxVotes",
						"offset": 0,
						"slot": "4",
						"type": "t_uint256"
					}
				],
				"types": {
					"t_address": {
						"encoding": "inplace",
						"label": "address",
						"numberOfBytes": "20"
					},
					"t_array(t_struct(Candidate)13_storage)dyn_storage": {
						"base": "t_struct(Candidate)13_storage",
						"encoding": "dynamic_array",
						"label": "struct MyBallot.Candidate[]",
						"numberOfBytes": "32"
					},
					"t_bool": {
						"encoding": "inplace",
						"label": "bool",
						"numberOfBytes": "1"
					},
					"t_mapping(t_address,t_struct(Voter)6_storage)": {
						"encoding": "mapping",
						"key": "t_address",
						"label": "mapping(address => struct MyBallot.Voter)",
						"numberOfBytes": "32",
						"value": "t_struct(Voter)6_storage"
					},
					"t_string_storage": {
						"encoding": "bytes",
						"label": "string",
						"numberOfBytes": "32"
					},
					"t_struct(Candidate)13_storage": {
						"encoding": "inplace",
						"label": "struct MyBallot.Candidate",
						"members": [
							{
								"astId": 8,
								"contract": "contracts/Ballot/Ballot.sol:MyBallot",
								"label": "name",
								"offset": 0,
								"slot": "0",
								"type": "t_string_storage"
							},
							{
								"astId": 10,
								"contract": "contracts/Ballot/Ballot.sol:MyBallot",
								"label": "party",
								"offset": 0,
								"slot": "1",
								"type": "t_string_storage"
							},
							{
								"astId": 12,
								"contract": "contracts/Ballot/Ballot.sol:MyBallot",
								"label": "votesCount",
								"offset": 0,
								"slot": "2",
								"type": "t_uint256"
							}
						],
						"numberOfBytes": "96"
					},
					"t_struct(Voter)6_storage": {
						"encoding": "inplace",
						"label": "struct MyBallot.Voter",
						"members": [
							{
								"astId": 3,
								"contract": "contracts/Ballot/Ballot.sol:MyBallot",
								"label": "canVote",
								"offset": 0,
								"slot": "0",
								"type": "t_bool"
							},
							{
								"astId": 5,
								"contract": "contracts/Ballot/Ballot.sol:MyBallot",
								"label": "hasVoted",
								"offset": 1,
								"slot": "0",
								"type": "t_bool"
							}
						],
						"numberOfBytes": "32"
					},
					"t_uint256": {
						"encoding": "inplace",
						"label": "uint256",
						"numberOfBytes": "32"
					}
				}
			},
			"userdoc": {
				"kind": "user",
				"methods": {},
				"version": 1
			}
		}
	}
}