{
	"contracts/Ballot/Ballot.sol": {
		"MyBallot": {
			"abi": [
				{
					"inputs": [
						{
							"internalType": "string[]",
							"name": "_candidates",
							"type": "string[]"
						},
						{
							"internalType": "uint256",
							"name": "_maxVotes",
							"type": "uint256"
						}
					],
					"stateMutability": "nonpayable",
					"type": "constructor"
				},
				{
					"inputs": [],
					"name": "getCandidatesListName",
					"outputs": [
						{
							"internalType": "string[]",
							"name": "",
							"type": "string[]"
						}
					],
					"stateMutability": "view",
					"type": "function"
				},
				{
					"inputs": [],
					"name": "getWinnerBallot",
					"outputs": [
						{
							"internalType": "string",
							"name": "winnerName",
							"type": "string"
						},
						{
							"internalType": "uint256",
							"name": "amountWinningVotes",
							"type": "uint256"
						},
						{
							"internalType": "address",
							"name": "contractAddress",
							"type": "address"
						}
					],
					"stateMutability": "view",
					"type": "function"
				},
				{
					"inputs": [
						{
							"internalType": "address",
							"name": "voterAddress",
							"type": "address"
						},
						{
							"internalType": "string",
							"name": "_nameVoter",
							"type": "string"
						}
					],
					"name": "giveRightToVote",
					"outputs": [],
					"stateMutability": "nonpayable",
					"type": "function"
				},
				{
					"inputs": [
						{
							"internalType": "string",
							"name": "_nameProject",
							"type": "string"
						}
					],
					"name": "vote",
					"outputs": [],
					"stateMutability": "nonpayable",
					"type": "function"
				}
			],
			"devdoc": {
				"kind": "dev",
				"methods": {},
				"version": 1
			},
			"evm": {
				"assembly": "    /* \"contracts/Ballot/Ballot.sol\":125:8224  contract MyBallot {\r... */\n  mstore(0x40, 0x80)\n    /* \"contracts/Ballot/Ballot.sol\":590:779  constructor(string[] memory _candidates, uint _maxVotes) {\r... */\n  callvalue\n  dup1\n  iszero\n  tag_1\n  jumpi\n  0x00\n  dup1\n  revert\ntag_1:\n  pop\n  mload(0x40)\n  sub(codesize, bytecodeSize)\n  dup1\n  bytecodeSize\n  dup4\n  codecopy\n  dup2\n  dup2\n  add\n  0x40\n  mstore\n  dup2\n  add\n  swap1\n  tag_2\n  swap2\n  swap1\n  tag_3\n  jump\t// in\ntag_2:\n    /* \"contracts/Ballot/Ballot.sol\":674:684  msg.sender */\n  caller\n    /* \"contracts/Ballot/Ballot.sol\":658:671  contractOwner */\n  0x00\n  dup1\n    /* \"contracts/Ballot/Ballot.sol\":658:684  contractOwner = msg.sender */\n  0x0100\n  exp\n  dup2\n  sload\n  dup2\n  0xffffffffffffffffffffffffffffffffffffffff\n  mul\n  not\n  and\n  swap1\n  dup4\n  0xffffffffffffffffffffffffffffffffffffffff\n  and\n  mul\n  or\n  swap1\n  sstore\n  pop\n    /* \"contracts/Ballot/Ballot.sol\":695:732  setCandidatesIntoStorage(_candidates) */\n  tag_6\n    /* \"contracts/Ballot/Ballot.sol\":720:731  _candidates */\n  dup3\n    /* \"contracts/Ballot/Ballot.sol\":695:719  setCandidatesIntoStorage */\n  shl(0x20, tag_7)\n    /* \"contracts/Ballot/Ballot.sol\":695:732  setCandidatesIntoStorage(_candidates) */\n  0x20\n  shr\n  jump\t// in\ntag_6:\n    /* \"contracts/Ballot/Ballot.sol\":762:771  _maxVotes */\n  dup1\n    /* \"contracts/Ballot/Ballot.sol\":751:759  maxVotes */\n  0x04\n    /* \"contracts/Ballot/Ballot.sol\":751:771  maxVotes = _maxVotes */\n  dup2\n  swap1\n  sstore\n  pop\n    /* \"contracts/Ballot/Ballot.sol\":590:779  constructor(string[] memory _candidates, uint _maxVotes) {\r... */\n  pop\n  pop\n    /* \"contracts/Ballot/Ballot.sol\":125:8224  contract MyBallot {\r... */\n  jump(tag_8)\n    /* \"contracts/Ballot/Ballot.sol\":3037:3336  function setCandidatesIntoStorage(string[] memory _candidates) private {\r... */\ntag_7:\n    /* \"contracts/Ballot/Ballot.sol\":3124:3134  uint index */\n  0x00\n    /* \"contracts/Ballot/Ballot.sol\":3119:3329  for (uint index = 0; index < _candidates.length; index++) {\r... */\ntag_10:\n    /* \"contracts/Ballot/Ballot.sol\":3148:3159  _candidates */\n  dup2\n    /* \"contracts/Ballot/Ballot.sol\":3148:3166  _candidates.length */\n  mload\n    /* \"contracts/Ballot/Ballot.sol\":3140:3145  index */\n  dup2\n    /* \"contracts/Ballot/Ballot.sol\":3140:3166  index < _candidates.length */\n  lt\n    /* \"contracts/Ballot/Ballot.sol\":3119:3329  for (uint index = 0; index < _candidates.length; index++) {\r... */\n  iszero\n  tag_11\n  jumpi\n    /* \"contracts/Ballot/Ballot.sol\":3192:3202  candidates */\n  0x02\n    /* \"contracts/Ballot/Ballot.sol\":3208:3316  Candidate({\r... */\n  mload(0x40)\n  dup1\n  0x40\n  add\n  0x40\n  mstore\n  dup1\n    /* \"contracts/Ballot/Ballot.sol\":3250:3261  _candidates */\n  dup5\n    /* \"contracts/Ballot/Ballot.sol\":3262:3267  index */\n  dup5\n    /* \"contracts/Ballot/Ballot.sol\":3250:3268  _candidates[index] */\n  dup2\n  mload\n  dup2\n  lt\n  tag_13\n  jumpi\n  tag_14\n  tag_15\n  jump\t// in\ntag_14:\ntag_13:\n  0x20\n  mul\n  0x20\n  add\n  add\n  mload\n    /* \"contracts/Ballot/Ballot.sol\":3208:3316  Candidate({\r... */\n  dup2\n  mstore\n  0x20\n  add\n    /* \"contracts/Ballot/Ballot.sol\":3299:3300  0 */\n  0x00\n    /* \"contracts/Ballot/Ballot.sol\":3208:3316  Candidate({\r... */\n  dup2\n  mstore\n  pop\n    /* \"contracts/Ballot/Ballot.sol\":3192:3317  candidates.push(Candidate({\r... */\n  swap1\n  dup1\n  0x01\n  dup2\n  sload\n  add\n  dup1\n  dup3\n  sstore\n  dup1\n  swap2\n  pop\n  pop\n  0x01\n  swap1\n  sub\n  swap1\n  0x00\n  mstore\n  keccak256(0x00, 0x20)\n  swap1\n  0x02\n  mul\n  add\n  0x00\n  swap1\n  swap2\n  swap1\n  swap2\n  swap1\n  swap2\n  pop\n  0x00\n  dup3\n  add\n  mload\n  dup2\n  0x00\n  add\n  swap1\n  dup1\n  mload\n  swap1\n  0x20\n  add\n  swap1\n  tag_17\n  swap3\n  swap2\n  swap1\n  tag_18\n  jump\t// in\ntag_17:\n  pop\n  0x20\n  dup3\n  add\n  mload\n  dup2\n  0x01\n  add\n  sstore\n  pop\n  pop\n    /* \"contracts/Ballot/Ballot.sol\":3168:3175  index++ */\n  dup1\n  dup1\n  tag_19\n  swap1\n  tag_20\n  jump\t// in\ntag_19:\n  swap2\n  pop\n  pop\n    /* \"contracts/Ballot/Ballot.sol\":3119:3329  for (uint index = 0; index < _candidates.length; index++) {\r... */\n  jump(tag_10)\ntag_11:\n  pop\n    /* \"contracts/Ballot/Ballot.sol\":3037:3336  function setCandidatesIntoStorage(string[] memory _candidates) private {\r... */\n  pop\n  jump\t// out\n    /* \"contracts/Ballot/Ballot.sol\":125:8224  contract MyBallot {\r... */\ntag_18:\n  dup3\n  dup1\n  sload\n  tag_21\n  swap1\n  tag_22\n  jump\t// in\ntag_21:\n  swap1\n  0x00\n  mstore\n  keccak256(0x00, 0x20)\n  swap1\n  0x1f\n  add\n  0x20\n  swap1\n  div\n  dup2\n  add\n  swap3\n  dup3\n  tag_24\n  jumpi\n  0x00\n  dup6\n  sstore\n  jump(tag_23)\ntag_24:\n  dup3\n  0x1f\n  lt\n  tag_25\n  jumpi\n  dup1\n  mload\n  not(0xff)\n  and\n  dup4\n  dup1\n  add\n  or\n  dup6\n  sstore\n  jump(tag_23)\ntag_25:\n  dup3\n  dup1\n  add\n  0x01\n  add\n  dup6\n  sstore\n  dup3\n  iszero\n  tag_23\n  jumpi\n  swap2\n  dup3\n  add\ntag_26:\n  dup3\n  dup2\n  gt\n  iszero\n  tag_27\n  jumpi\n  dup3\n  mload\n  dup3\n  sstore\n  swap2\n  0x20\n  add\n  swap2\n  swap1\n  0x01\n  add\n  swap1\n  jump(tag_26)\ntag_27:\ntag_23:\n  pop\n  swap1\n  pop\n  tag_28\n  swap2\n  swap1\n  tag_29\n  jump\t// in\ntag_28:\n  pop\n  swap1\n  jump\t// out\ntag_29:\ntag_30:\n  dup1\n  dup3\n  gt\n  iszero\n  tag_31\n  jumpi\n  0x00\n  dup2\n  0x00\n  swap1\n  sstore\n  pop\n  0x01\n  add\n  jump(tag_30)\ntag_31:\n  pop\n  swap1\n  jump\t// out\n    /* \"#utility.yul\":23:995   */\ntag_33:\n    /* \"#utility.yul\":140:145   */\n  0x00\n    /* \"#utility.yul\":165:256   */\n  tag_35\n    /* \"#utility.yul\":181:255   */\n  tag_36\n    /* \"#utility.yul\":248:254   */\n  dup5\n    /* \"#utility.yul\":181:255   */\n  tag_37\n  jump\t// in\ntag_36:\n    /* \"#utility.yul\":165:256   */\n  tag_38\n  jump\t// in\ntag_35:\n    /* \"#utility.yul\":156:256   */\n  swap1\n  pop\n    /* \"#utility.yul\":276:281   */\n  dup1\n    /* \"#utility.yul\":305:311   */\n  dup4\n    /* \"#utility.yul\":298:303   */\n  dup3\n    /* \"#utility.yul\":291:312   */\n  mstore\n    /* \"#utility.yul\":339:343   */\n  0x20\n    /* \"#utility.yul\":332:337   */\n  dup3\n    /* \"#utility.yul\":328:344   */\n  add\n    /* \"#utility.yul\":321:344   */\n  swap1\n  pop\n    /* \"#utility.yul\":365:371   */\n  dup3\n    /* \"#utility.yul\":415:418   */\n  dup6\n    /* \"#utility.yul\":407:411   */\n  0x20\n    /* \"#utility.yul\":399:405   */\n  dup7\n    /* \"#utility.yul\":395:412   */\n  mul\n    /* \"#utility.yul\":390:393   */\n  dup3\n    /* \"#utility.yul\":386:413   */\n  add\n    /* \"#utility.yul\":383:419   */\n  gt\n    /* \"#utility.yul\":380:523   */\n  iszero\n  tag_39\n  jumpi\n    /* \"#utility.yul\":434:513   */\n  tag_40\n  tag_41\n  jump\t// in\ntag_40:\n    /* \"#utility.yul\":380:523   */\ntag_39:\n    /* \"#utility.yul\":547:548   */\n  0x00\n    /* \"#utility.yul\":532:989   */\ntag_42:\n    /* \"#utility.yul\":557:563   */\n  dup6\n    /* \"#utility.yul\":554:555   */\n  dup2\n    /* \"#utility.yul\":551:564   */\n  lt\n    /* \"#utility.yul\":532:989   */\n  iszero\n  tag_44\n  jumpi\n    /* \"#utility.yul\":632:635   */\n  dup2\n    /* \"#utility.yul\":626:636   */\n  mload\n    /* \"#utility.yul\":668:686   */\n  0xffffffffffffffff\n    /* \"#utility.yul\":655:666   */\n  dup2\n    /* \"#utility.yul\":652:687   */\n  gt\n    /* \"#utility.yul\":649:771   */\n  iszero\n  tag_45\n  jumpi\n    /* \"#utility.yul\":690:769   */\n  tag_46\n  tag_47\n  jump\t// in\ntag_46:\n    /* \"#utility.yul\":649:771   */\ntag_45:\n    /* \"#utility.yul\":814:825   */\n  dup1\n    /* \"#utility.yul\":806:812   */\n  dup7\n    /* \"#utility.yul\":802:826   */\n  add\n    /* \"#utility.yul\":852:910   */\n  tag_48\n    /* \"#utility.yul\":906:909   */\n  dup10\n    /* \"#utility.yul\":894:904   */\n  dup3\n    /* \"#utility.yul\":852:910   */\n  tag_49\n  jump\t// in\ntag_48:\n    /* \"#utility.yul\":847:850   */\n  dup6\n    /* \"#utility.yul\":840:911   */\n  mstore\n    /* \"#utility.yul\":940:944   */\n  0x20\n    /* \"#utility.yul\":935:938   */\n  dup6\n    /* \"#utility.yul\":931:945   */\n  add\n    /* \"#utility.yul\":924:945   */\n  swap5\n  pop\n    /* \"#utility.yul\":974:978   */\n  0x20\n    /* \"#utility.yul\":969:972   */\n  dup5\n    /* \"#utility.yul\":965:979   */\n  add\n    /* \"#utility.yul\":958:979   */\n  swap4\n  pop\n    /* \"#utility.yul\":592:989   */\n  pop\n  pop\n    /* \"#utility.yul\":579:580   */\n  0x01\n    /* \"#utility.yul\":576:577   */\n  dup2\n    /* \"#utility.yul\":572:581   */\n  add\n    /* \"#utility.yul\":567:581   */\n  swap1\n  pop\n    /* \"#utility.yul\":532:989   */\n  jump(tag_42)\ntag_44:\n    /* \"#utility.yul\":536:550   */\n  pop\n    /* \"#utility.yul\":146:995   */\n  pop\n  pop\n    /* \"#utility.yul\":23:995   */\n  swap4\n  swap3\n  pop\n  pop\n  pop\n  jump\t// out\n    /* \"#utility.yul\":1001:1422   */\ntag_50:\n    /* \"#utility.yul\":1090:1095   */\n  0x00\n    /* \"#utility.yul\":1115:1181   */\n  tag_52\n    /* \"#utility.yul\":1131:1180   */\n  tag_53\n    /* \"#utility.yul\":1173:1179   */\n  dup5\n    /* \"#utility.yul\":1131:1180   */\n  tag_54\n  jump\t// in\ntag_53:\n    /* \"#utility.yul\":1115:1181   */\n  tag_38\n  jump\t// in\ntag_52:\n    /* \"#utility.yul\":1106:1181   */\n  swap1\n  pop\n    /* \"#utility.yul\":1204:1210   */\n  dup3\n    /* \"#utility.yul\":1197:1202   */\n  dup2\n    /* \"#utility.yul\":1190:1211   */\n  mstore\n    /* \"#utility.yul\":1242:1246   */\n  0x20\n    /* \"#utility.yul\":1235:1240   */\n  dup2\n    /* \"#utility.yul\":1231:1247   */\n  add\n    /* \"#utility.yul\":1280:1283   */\n  dup5\n    /* \"#utility.yul\":1271:1277   */\n  dup5\n    /* \"#utility.yul\":1266:1269   */\n  dup5\n    /* \"#utility.yul\":1262:1278   */\n  add\n    /* \"#utility.yul\":1259:1284   */\n  gt\n    /* \"#utility.yul\":1256:1368   */\n  iszero\n  tag_55\n  jumpi\n    /* \"#utility.yul\":1287:1366   */\n  tag_56\n  tag_57\n  jump\t// in\ntag_56:\n    /* \"#utility.yul\":1256:1368   */\ntag_55:\n    /* \"#utility.yul\":1377:1416   */\n  tag_58\n    /* \"#utility.yul\":1409:1415   */\n  dup5\n    /* \"#utility.yul\":1404:1407   */\n  dup3\n    /* \"#utility.yul\":1399:1402   */\n  dup6\n    /* \"#utility.yul\":1377:1416   */\n  tag_59\n  jump\t// in\ntag_58:\n    /* \"#utility.yul\":1096:1422   */\n  pop\n    /* \"#utility.yul\":1001:1422   */\n  swap4\n  swap3\n  pop\n  pop\n  pop\n  jump\t// out\n    /* \"#utility.yul\":1444:1849   */\ntag_60:\n    /* \"#utility.yul\":1536:1541   */\n  0x00\n    /* \"#utility.yul\":1585:1588   */\n  dup3\n    /* \"#utility.yul\":1578:1582   */\n  0x1f\n    /* \"#utility.yul\":1570:1576   */\n  dup4\n    /* \"#utility.yul\":1566:1583   */\n  add\n    /* \"#utility.yul\":1562:1589   */\n  slt\n    /* \"#utility.yul\":1552:1674   */\n  tag_62\n  jumpi\n    /* \"#utility.yul\":1593:1672   */\n  tag_63\n  tag_47\n  jump\t// in\ntag_63:\n    /* \"#utility.yul\":1552:1674   */\ntag_62:\n    /* \"#utility.yul\":1703:1709   */\n  dup2\n    /* \"#utility.yul\":1697:1710   */\n  mload\n    /* \"#utility.yul\":1728:1843   */\n  tag_64\n    /* \"#utility.yul\":1839:1842   */\n  dup5\n    /* \"#utility.yul\":1831:1837   */\n  dup3\n    /* \"#utility.yul\":1824:1828   */\n  0x20\n    /* \"#utility.yul\":1816:1822   */\n  dup7\n    /* \"#utility.yul\":1812:1829   */\n  add\n    /* \"#utility.yul\":1728:1843   */\n  tag_33\n  jump\t// in\ntag_64:\n    /* \"#utility.yul\":1719:1843   */\n  swap2\n  pop\n    /* \"#utility.yul\":1542:1849   */\n  pop\n    /* \"#utility.yul\":1444:1849   */\n  swap3\n  swap2\n  pop\n  pop\n  jump\t// out\n    /* \"#utility.yul\":1869:2224   */\ntag_49:\n    /* \"#utility.yul\":1936:1941   */\n  0x00\n    /* \"#utility.yul\":1985:1988   */\n  dup3\n    /* \"#utility.yul\":1978:1982   */\n  0x1f\n    /* \"#utility.yul\":1970:1976   */\n  dup4\n    /* \"#utility.yul\":1966:1983   */\n  add\n    /* \"#utility.yul\":1962:1989   */\n  slt\n    /* \"#utility.yul\":1952:2074   */\n  tag_66\n  jumpi\n    /* \"#utility.yul\":1993:2072   */\n  tag_67\n  tag_47\n  jump\t// in\ntag_67:\n    /* \"#utility.yul\":1952:2074   */\ntag_66:\n    /* \"#utility.yul\":2103:2109   */\n  dup2\n    /* \"#utility.yul\":2097:2110   */\n  mload\n    /* \"#utility.yul\":2128:2218   */\n  tag_68\n    /* \"#utility.yul\":2214:2217   */\n  dup5\n    /* \"#utility.yul\":2206:2212   */\n  dup3\n    /* \"#utility.yul\":2199:2203   */\n  0x20\n    /* \"#utility.yul\":2191:2197   */\n  dup7\n    /* \"#utility.yul\":2187:2204   */\n  add\n    /* \"#utility.yul\":2128:2218   */\n  tag_50\n  jump\t// in\ntag_68:\n    /* \"#utility.yul\":2119:2218   */\n  swap2\n  pop\n    /* \"#utility.yul\":1942:2224   */\n  pop\n    /* \"#utility.yul\":1869:2224   */\n  swap3\n  swap2\n  pop\n  pop\n  jump\t// out\n    /* \"#utility.yul\":2230:2373   */\ntag_69:\n    /* \"#utility.yul\":2287:2292   */\n  0x00\n    /* \"#utility.yul\":2318:2324   */\n  dup2\n    /* \"#utility.yul\":2312:2325   */\n  mload\n    /* \"#utility.yul\":2303:2325   */\n  swap1\n  pop\n    /* \"#utility.yul\":2334:2367   */\n  tag_71\n    /* \"#utility.yul\":2361:2366   */\n  dup2\n    /* \"#utility.yul\":2334:2367   */\n  tag_72\n  jump\t// in\ntag_71:\n    /* \"#utility.yul\":2230:2373   */\n  swap3\n  swap2\n  pop\n  pop\n  jump\t// out\n    /* \"#utility.yul\":2379:3109   */\ntag_3:\n    /* \"#utility.yul\":2493:2499   */\n  0x00\n    /* \"#utility.yul\":2501:2507   */\n  dup1\n    /* \"#utility.yul\":2550:2552   */\n  0x40\n    /* \"#utility.yul\":2538:2547   */\n  dup4\n    /* \"#utility.yul\":2529:2536   */\n  dup6\n    /* \"#utility.yul\":2525:2548   */\n  sub\n    /* \"#utility.yul\":2521:2553   */\n  slt\n    /* \"#utility.yul\":2518:2637   */\n  iszero\n  tag_74\n  jumpi\n    /* \"#utility.yul\":2556:2635   */\n  tag_75\n  tag_76\n  jump\t// in\ntag_75:\n    /* \"#utility.yul\":2518:2637   */\ntag_74:\n    /* \"#utility.yul\":2697:2698   */\n  0x00\n    /* \"#utility.yul\":2686:2695   */\n  dup4\n    /* \"#utility.yul\":2682:2699   */\n  add\n    /* \"#utility.yul\":2676:2700   */\n  mload\n    /* \"#utility.yul\":2727:2745   */\n  0xffffffffffffffff\n    /* \"#utility.yul\":2719:2725   */\n  dup2\n    /* \"#utility.yul\":2716:2746   */\n  gt\n    /* \"#utility.yul\":2713:2830   */\n  iszero\n  tag_77\n  jumpi\n    /* \"#utility.yul\":2749:2828   */\n  tag_78\n  tag_79\n  jump\t// in\ntag_78:\n    /* \"#utility.yul\":2713:2830   */\ntag_77:\n    /* \"#utility.yul\":2854:2953   */\n  tag_80\n    /* \"#utility.yul\":2945:2952   */\n  dup6\n    /* \"#utility.yul\":2936:2942   */\n  dup3\n    /* \"#utility.yul\":2925:2934   */\n  dup7\n    /* \"#utility.yul\":2921:2943   */\n  add\n    /* \"#utility.yul\":2854:2953   */\n  tag_60\n  jump\t// in\ntag_80:\n    /* \"#utility.yul\":2844:2953   */\n  swap3\n  pop\n    /* \"#utility.yul\":2647:2963   */\n  pop\n    /* \"#utility.yul\":3002:3004   */\n  0x20\n    /* \"#utility.yul\":3028:3092   */\n  tag_81\n    /* \"#utility.yul\":3084:3091   */\n  dup6\n    /* \"#utility.yul\":3075:3081   */\n  dup3\n    /* \"#utility.yul\":3064:3073   */\n  dup7\n    /* \"#utility.yul\":3060:3082   */\n  add\n    /* \"#utility.yul\":3028:3092   */\n  tag_69\n  jump\t// in\ntag_81:\n    /* \"#utility.yul\":3018:3092   */\n  swap2\n  pop\n    /* \"#utility.yul\":2973:3102   */\n  pop\n    /* \"#utility.yul\":2379:3109   */\n  swap3\n  pop\n  swap3\n  swap1\n  pop\n  jump\t// out\n    /* \"#utility.yul\":3115:3244   */\ntag_38:\n    /* \"#utility.yul\":3149:3155   */\n  0x00\n    /* \"#utility.yul\":3176:3196   */\n  tag_83\n  tag_84\n  jump\t// in\ntag_83:\n    /* \"#utility.yul\":3166:3196   */\n  swap1\n  pop\n    /* \"#utility.yul\":3205:3238   */\n  tag_85\n    /* \"#utility.yul\":3233:3237   */\n  dup3\n    /* \"#utility.yul\":3225:3231   */\n  dup3\n    /* \"#utility.yul\":3205:3238   */\n  tag_86\n  jump\t// in\ntag_85:\n    /* \"#utility.yul\":3115:3244   */\n  swap2\n  swap1\n  pop\n  jump\t// out\n    /* \"#utility.yul\":3250:3325   */\ntag_84:\n    /* \"#utility.yul\":3283:3289   */\n  0x00\n    /* \"#utility.yul\":3316:3318   */\n  0x40\n    /* \"#utility.yul\":3310:3319   */\n  mload\n    /* \"#utility.yul\":3300:3319   */\n  swap1\n  pop\n    /* \"#utility.yul\":3250:3325   */\n  swap1\n  jump\t// out\n    /* \"#utility.yul\":3331:3652   */\ntag_37:\n    /* \"#utility.yul\":3418:3422   */\n  0x00\n    /* \"#utility.yul\":3508:3526   */\n  0xffffffffffffffff\n    /* \"#utility.yul\":3500:3506   */\n  dup3\n    /* \"#utility.yul\":3497:3527   */\n  gt\n    /* \"#utility.yul\":3494:3550   */\n  iszero\n  tag_89\n  jumpi\n    /* \"#utility.yul\":3530:3548   */\n  tag_90\n  tag_91\n  jump\t// in\ntag_90:\n    /* \"#utility.yul\":3494:3550   */\ntag_89:\n    /* \"#utility.yul\":3580:3584   */\n  0x20\n    /* \"#utility.yul\":3572:3578   */\n  dup3\n    /* \"#utility.yul\":3568:3585   */\n  mul\n    /* \"#utility.yul\":3560:3585   */\n  swap1\n  pop\n    /* \"#utility.yul\":3640:3644   */\n  0x20\n    /* \"#utility.yul\":3634:3638   */\n  dup2\n    /* \"#utility.yul\":3630:3645   */\n  add\n    /* \"#utility.yul\":3622:3645   */\n  swap1\n  pop\n    /* \"#utility.yul\":3331:3652   */\n  swap2\n  swap1\n  pop\n  jump\t// out\n    /* \"#utility.yul\":3658:3966   */\ntag_54:\n    /* \"#utility.yul\":3720:3724   */\n  0x00\n    /* \"#utility.yul\":3810:3828   */\n  0xffffffffffffffff\n    /* \"#utility.yul\":3802:3808   */\n  dup3\n    /* \"#utility.yul\":3799:3829   */\n  gt\n    /* \"#utility.yul\":3796:3852   */\n  iszero\n  tag_93\n  jumpi\n    /* \"#utility.yul\":3832:3850   */\n  tag_94\n  tag_91\n  jump\t// in\ntag_94:\n    /* \"#utility.yul\":3796:3852   */\ntag_93:\n    /* \"#utility.yul\":3870:3899   */\n  tag_95\n    /* \"#utility.yul\":3892:3898   */\n  dup3\n    /* \"#utility.yul\":3870:3899   */\n  tag_96\n  jump\t// in\ntag_95:\n    /* \"#utility.yul\":3862:3899   */\n  swap1\n  pop\n    /* \"#utility.yul\":3954:3958   */\n  0x20\n    /* \"#utility.yul\":3948:3952   */\n  dup2\n    /* \"#utility.yul\":3944:3959   */\n  add\n    /* \"#utility.yul\":3936:3959   */\n  swap1\n  pop\n    /* \"#utility.yul\":3658:3966   */\n  swap2\n  swap1\n  pop\n  jump\t// out\n    /* \"#utility.yul\":3972:4049   */\ntag_97:\n    /* \"#utility.yul\":4009:4016   */\n  0x00\n    /* \"#utility.yul\":4038:4043   */\n  dup2\n    /* \"#utility.yul\":4027:4043   */\n  swap1\n  pop\n    /* \"#utility.yul\":3972:4049   */\n  swap2\n  swap1\n  pop\n  jump\t// out\n    /* \"#utility.yul\":4055:4362   */\ntag_59:\n    /* \"#utility.yul\":4123:4124   */\n  0x00\n    /* \"#utility.yul\":4133:4246   */\ntag_100:\n    /* \"#utility.yul\":4147:4153   */\n  dup4\n    /* \"#utility.yul\":4144:4145   */\n  dup2\n    /* \"#utility.yul\":4141:4154   */\n  lt\n    /* \"#utility.yul\":4133:4246   */\n  iszero\n  tag_102\n  jumpi\n    /* \"#utility.yul\":4232:4233   */\n  dup1\n    /* \"#utility.yul\":4227:4230   */\n  dup3\n    /* \"#utility.yul\":4223:4234   */\n  add\n    /* \"#utility.yul\":4217:4235   */\n  mload\n    /* \"#utility.yul\":4213:4214   */\n  dup2\n    /* \"#utility.yul\":4208:4211   */\n  dup5\n    /* \"#utility.yul\":4204:4215   */\n  add\n    /* \"#utility.yul\":4197:4236   */\n  mstore\n    /* \"#utility.yul\":4169:4171   */\n  0x20\n    /* \"#utility.yul\":4166:4167   */\n  dup2\n    /* \"#utility.yul\":4162:4172   */\n  add\n    /* \"#utility.yul\":4157:4172   */\n  swap1\n  pop\n    /* \"#utility.yul\":4133:4246   */\n  jump(tag_100)\ntag_102:\n    /* \"#utility.yul\":4264:4270   */\n  dup4\n    /* \"#utility.yul\":4261:4262   */\n  dup2\n    /* \"#utility.yul\":4258:4271   */\n  gt\n    /* \"#utility.yul\":4255:4356   */\n  iszero\n  tag_103\n  jumpi\n    /* \"#utility.yul\":4344:4345   */\n  0x00\n    /* \"#utility.yul\":4335:4341   */\n  dup5\n    /* \"#utility.yul\":4330:4333   */\n  dup5\n    /* \"#utility.yul\":4326:4342   */\n  add\n    /* \"#utility.yul\":4319:4346   */\n  mstore\n    /* \"#utility.yul\":4255:4356   */\ntag_103:\n    /* \"#utility.yul\":4104:4362   */\n  pop\n    /* \"#utility.yul\":4055:4362   */\n  pop\n  pop\n  pop\n  jump\t// out\n    /* \"#utility.yul\":4368:4688   */\ntag_22:\n    /* \"#utility.yul\":4412:4418   */\n  0x00\n    /* \"#utility.yul\":4449:4450   */\n  0x02\n    /* \"#utility.yul\":4443:4447   */\n  dup3\n    /* \"#utility.yul\":4439:4451   */\n  div\n    /* \"#utility.yul\":4429:4451   */\n  swap1\n  pop\n    /* \"#utility.yul\":4496:4497   */\n  0x01\n    /* \"#utility.yul\":4490:4494   */\n  dup3\n    /* \"#utility.yul\":4486:4498   */\n  and\n    /* \"#utility.yul\":4517:4535   */\n  dup1\n    /* \"#utility.yul\":4507:4588   */\n  tag_105\n  jumpi\n    /* \"#utility.yul\":4573:4577   */\n  0x7f\n    /* \"#utility.yul\":4565:4571   */\n  dup3\n    /* \"#utility.yul\":4561:4578   */\n  and\n    /* \"#utility.yul\":4551:4578   */\n  swap2\n  pop\n    /* \"#utility.yul\":4507:4588   */\ntag_105:\n    /* \"#utility.yul\":4635:4637   */\n  0x20\n    /* \"#utility.yul\":4627:4633   */\n  dup3\n    /* \"#utility.yul\":4624:4638   */\n  lt\n    /* \"#utility.yul\":4604:4622   */\n  dup2\n    /* \"#utility.yul\":4601:4639   */\n  eq\n    /* \"#utility.yul\":4598:4682   */\n  iszero\n  tag_106\n  jumpi\n    /* \"#utility.yul\":4654:4672   */\n  tag_107\n  tag_108\n  jump\t// in\ntag_107:\n    /* \"#utility.yul\":4598:4682   */\ntag_106:\n    /* \"#utility.yul\":4419:4688   */\n  pop\n    /* \"#utility.yul\":4368:4688   */\n  swap2\n  swap1\n  pop\n  jump\t// out\n    /* \"#utility.yul\":4694:4975   */\ntag_86:\n    /* \"#utility.yul\":4777:4804   */\n  tag_110\n    /* \"#utility.yul\":4799:4803   */\n  dup3\n    /* \"#utility.yul\":4777:4804   */\n  tag_96\n  jump\t// in\ntag_110:\n    /* \"#utility.yul\":4769:4775   */\n  dup2\n    /* \"#utility.yul\":4765:4805   */\n  add\n    /* \"#utility.yul\":4907:4913   */\n  dup2\n    /* \"#utility.yul\":4895:4905   */\n  dup2\n    /* \"#utility.yul\":4892:4914   */\n  lt\n    /* \"#utility.yul\":4871:4889   */\n  0xffffffffffffffff\n    /* \"#utility.yul\":4859:4869   */\n  dup3\n    /* \"#utility.yul\":4856:4890   */\n  gt\n    /* \"#utility.yul\":4853:4915   */\n  or\n    /* \"#utility.yul\":4850:4938   */\n  iszero\n  tag_111\n  jumpi\n    /* \"#utility.yul\":4918:4936   */\n  tag_112\n  tag_91\n  jump\t// in\ntag_112:\n    /* \"#utility.yul\":4850:4938   */\ntag_111:\n    /* \"#utility.yul\":4958:4968   */\n  dup1\n    /* \"#utility.yul\":4954:4956   */\n  0x40\n    /* \"#utility.yul\":4947:4969   */\n  mstore\n    /* \"#utility.yul\":4737:4975   */\n  pop\n    /* \"#utility.yul\":4694:4975   */\n  pop\n  pop\n  jump\t// out\n    /* \"#utility.yul\":4981:5214   */\ntag_20:\n    /* \"#utility.yul\":5020:5023   */\n  0x00\n    /* \"#utility.yul\":5043:5067   */\n  tag_114\n    /* \"#utility.yul\":5061:5066   */\n  dup3\n    /* \"#utility.yul\":5043:5067   */\n  tag_97\n  jump\t// in\ntag_114:\n    /* \"#utility.yul\":5034:5067   */\n  swap2\n  pop\n    /* \"#utility.yul\":5089:5155   */\n  0xffffffffffffffffffffffffffffffffffffffffffffffffffffffffffffffff\n    /* \"#utility.yul\":5082:5087   */\n  dup3\n    /* \"#utility.yul\":5079:5156   */\n  eq\n    /* \"#utility.yul\":5076:5179   */\n  iszero\n  tag_115\n  jumpi\n    /* \"#utility.yul\":5159:5177   */\n  tag_116\n  tag_117\n  jump\t// in\ntag_116:\n    /* \"#utility.yul\":5076:5179   */\ntag_115:\n    /* \"#utility.yul\":5206:5207   */\n  0x01\n    /* \"#utility.yul\":5199:5204   */\n  dup3\n    /* \"#utility.yul\":5195:5208   */\n  add\n    /* \"#utility.yul\":5188:5208   */\n  swap1\n  pop\n    /* \"#utility.yul\":4981:5214   */\n  swap2\n  swap1\n  pop\n  jump\t// out\n    /* \"#utility.yul\":5220:5400   */\ntag_117:\n    /* \"#utility.yul\":5268:5345   */\n  0x4e487b7100000000000000000000000000000000000000000000000000000000\n    /* \"#utility.yul\":5265:5266   */\n  0x00\n    /* \"#utility.yul\":5258:5346   */\n  mstore\n    /* \"#utility.yul\":5365:5369   */\n  0x11\n    /* \"#utility.yul\":5362:5363   */\n  0x04\n    /* \"#utility.yul\":5355:5370   */\n  mstore\n    /* \"#utility.yul\":5389:5393   */\n  0x24\n    /* \"#utility.yul\":5386:5387   */\n  0x00\n    /* \"#utility.yul\":5379:5394   */\n  revert\n    /* \"#utility.yul\":5406:5586   */\ntag_108:\n    /* \"#utility.yul\":5454:5531   */\n  0x4e487b7100000000000000000000000000000000000000000000000000000000\n    /* \"#utility.yul\":5451:5452   */\n  0x00\n    /* \"#utility.yul\":5444:5532   */\n  mstore\n    /* \"#utility.yul\":5551:5555   */\n  0x22\n    /* \"#utility.yul\":5548:5549   */\n  0x04\n    /* \"#utility.yul\":5541:5556   */\n  mstore\n    /* \"#utility.yul\":5575:5579   */\n  0x24\n    /* \"#utility.yul\":5572:5573   */\n  0x00\n    /* \"#utility.yul\":5565:5580   */\n  revert\n    /* \"#utility.yul\":5592:5772   */\ntag_15:\n    /* \"#utility.yul\":5640:5717   */\n  0x4e487b7100000000000000000000000000000000000000000000000000000000\n    /* \"#utility.yul\":5637:5638   */\n  0x00\n    /* \"#utility.yul\":5630:5718   */\n  mstore\n    /* \"#utility.yul\":5737:5741   */\n  0x32\n    /* \"#utility.yul\":5734:5735   */\n  0x04\n    /* \"#utility.yul\":5727:5742   */\n  mstore\n    /* \"#utility.yul\":5761:5765   */\n  0x24\n    /* \"#utility.yul\":5758:5759   */\n  0x00\n    /* \"#utility.yul\":5751:5766   */\n  revert\n    /* \"#utility.yul\":5778:5958   */\ntag_91:\n    /* \"#utility.yul\":5826:5903   */\n  0x4e487b7100000000000000000000000000000000000000000000000000000000\n    /* \"#utility.yul\":5823:5824   */\n  0x00\n    /* \"#utility.yul\":5816:5904   */\n  mstore\n    /* \"#utility.yul\":5923:5927   */\n  0x41\n    /* \"#utility.yul\":5920:5921   */\n  0x04\n    /* \"#utility.yul\":5913:5928   */\n  mstore\n    /* \"#utility.yul\":5947:5951   */\n  0x24\n    /* \"#utility.yul\":5944:5945   */\n  0x00\n    /* \"#utility.yul\":5937:5952   */\n  revert\n    /* \"#utility.yul\":5964:6081   */\ntag_47:\n    /* \"#utility.yul\":6073:6074   */\n  0x00\n    /* \"#utility.yul\":6070:6071   */\n  dup1\n    /* \"#utility.yul\":6063:6075   */\n  revert\n    /* \"#utility.yul\":6087:6204   */\ntag_41:\n    /* \"#utility.yul\":6196:6197   */\n  0x00\n    /* \"#utility.yul\":6193:6194   */\n  dup1\n    /* \"#utility.yul\":6186:6198   */\n  revert\n    /* \"#utility.yul\":6210:6327   */\ntag_57:\n    /* \"#utility.yul\":6319:6320   */\n  0x00\n    /* \"#utility.yul\":6316:6317   */\n  dup1\n    /* \"#utility.yul\":6309:6321   */\n  revert\n    /* \"#utility.yul\":6333:6450   */\ntag_79:\n    /* \"#utility.yul\":6442:6443   */\n  0x00\n    /* \"#utility.yul\":6439:6440   */\n  dup1\n    /* \"#utility.yul\":6432:6444   */\n  revert\n    /* \"#utility.yul\":6456:6573   */\ntag_76:\n    /* \"#utility.yul\":6565:6566   */\n  0x00\n    /* \"#utility.yul\":6562:6563   */\n  dup1\n    /* \"#utility.yul\":6555:6567   */\n  revert\n    /* \"#utility.yul\":6579:6681   */\ntag_96:\n    /* \"#utility.yul\":6620:6626   */\n  0x00\n    /* \"#utility.yul\":6671:6673   */\n  0x1f\n    /* \"#utility.yul\":6667:6674   */\n  not\n    /* \"#utility.yul\":6662:6664   */\n  0x1f\n    /* \"#utility.yul\":6655:6660   */\n  dup4\n    /* \"#utility.yul\":6651:6665   */\n  add\n    /* \"#utility.yul\":6647:6675   */\n  and\n    /* \"#utility.yul\":6637:6675   */\n  swap1\n  pop\n    /* \"#utility.yul\":6579:6681   */\n  swap2\n  swap1\n  pop\n  jump\t// out\n    /* \"#utility.yul\":6687:6809   */\ntag_72:\n    /* \"#utility.yul\":6760:6784   */\n  tag_129\n    /* \"#utility.yul\":6778:6783   */\n  dup2\n    /* \"#utility.yul\":6760:6784   */\n  tag_97\n  jump\t// in\ntag_129:\n    /* \"#utility.yul\":6753:6758   */\n  dup2\n    /* \"#utility.yul\":6750:6785   */\n  eq\n    /* \"#utility.yul\":6740:6803   */\n  tag_130\n  jumpi\n    /* \"#utility.yul\":6799:6800   */\n  0x00\n    /* \"#utility.yul\":6796:6797   */\n  dup1\n    /* \"#utility.yul\":6789:6801   */\n  revert\n    /* \"#utility.yul\":6740:6803   */\ntag_130:\n    /* \"#utility.yul\":6687:6809   */\n  pop\n  jump\t// out\n    /* \"contracts/Ballot/Ballot.sol\":125:8224  contract MyBallot {\r... */\ntag_8:\n  dataSize(sub_0)\n  dup1\n  dataOffset(sub_0)\n  0x00\n  codecopy\n  0x00\n  return\nstop\n\nsub_0: assembly {\n        /* \"contracts/Ballot/Ballot.sol\":125:8224  contract MyBallot {\r... */\n      mstore(0x40, 0x80)\n      callvalue\n      dup1\n      iszero\n      tag_1\n      jumpi\n      0x00\n      dup1\n      revert\n    tag_1:\n      pop\n      jumpi(tag_2, lt(calldatasize, 0x04))\n      shr(0xe0, calldataload(0x00))\n      dup1\n      0x011d1023\n      eq\n      tag_3\n      jumpi\n      dup1\n      0x53f06ecd\n      eq\n      tag_4\n      jumpi\n      dup1\n      0x68957b20\n      eq\n      tag_5\n      jumpi\n      dup1\n      0xfc36e15b\n      eq\n      tag_6\n      jumpi\n    tag_2:\n      0x00\n      dup1\n      revert\n        /* \"contracts/Ballot/Ballot.sol\":6807:7214  function getCandidatesListName() public view returns (string[] memory) {\r... */\n    tag_3:\n      tag_7\n      tag_8\n      jump\t// in\n    tag_7:\n      mload(0x40)\n      tag_9\n      swap2\n      swap1\n      tag_10\n      jump\t// in\n    tag_9:\n      mload(0x40)\n      dup1\n      swap2\n      sub\n      swap1\n      return\n        /* \"contracts/Ballot/Ballot.sol\":4261:4622  function getWinnerBallot() public view returns (string memory winnerName, uint amountWinningVotes, address contractAddress) {\r... */\n    tag_4:\n      tag_11\n      tag_12\n      jump\t// in\n    tag_11:\n      mload(0x40)\n      tag_13\n      swap4\n      swap3\n      swap2\n      swap1\n      tag_14\n      jump\t// in\n    tag_13:\n      mload(0x40)\n      dup1\n      swap2\n      sub\n      swap1\n      return\n        /* \"contracts/Ballot/Ballot.sol\":3348:3574  function giveRightToVote(address voterAddress, string memory _nameVoter) public giveRightToVoteModifier(voterAddress) {\r... */\n    tag_5:\n      tag_15\n      0x04\n      dup1\n      calldatasize\n      sub\n      dup2\n      add\n      swap1\n      tag_16\n      swap2\n      swap1\n      tag_17\n      jump\t// in\n    tag_16:\n      tag_18\n      jump\t// in\n    tag_15:\n      stop\n        /* \"contracts/Ballot/Ballot.sol\":3582:4253  function vote(string memory _nameProject) public voteModifierBefore(msg.sender) {\r... */\n    tag_6:\n      tag_19\n      0x04\n      dup1\n      calldatasize\n      sub\n      dup2\n      add\n      swap1\n      tag_20\n      swap2\n      swap1\n      tag_21\n      jump\t// in\n    tag_20:\n      tag_22\n      jump\t// in\n    tag_19:\n      stop\n        /* \"contracts/Ballot/Ballot.sol\":6807:7214  function getCandidatesListName() public view returns (string[] memory) {\r... */\n    tag_8:\n        /* \"contracts/Ballot/Ballot.sol\":6861:6876  string[] memory */\n      0x60\n        /* \"contracts/Ballot/Ballot.sol\":6889:6910  uint candidatesLength */\n      0x00\n        /* \"contracts/Ballot/Ballot.sol\":6913:6923  candidates */\n      0x02\n        /* \"contracts/Ballot/Ballot.sol\":6913:6930  candidates.length */\n      dup1\n      sload\n      swap1\n      pop\n        /* \"contracts/Ballot/Ballot.sol\":6889:6930  uint candidatesLength = candidates.length */\n      swap1\n      pop\n        /* \"contracts/Ballot/Ballot.sol\":6941:6975  string[] memory candidatesListName */\n      0x00\n        /* \"contracts/Ballot/Ballot.sol\":6991:7007  candidatesLength */\n      dup2\n        /* \"contracts/Ballot/Ballot.sol\":6978:7008  new string[](candidatesLength) */\n      0xffffffffffffffff\n      dup2\n      gt\n      iszero\n      tag_24\n      jumpi\n      tag_25\n      tag_26\n      jump\t// in\n    tag_25:\n    tag_24:\n      mload(0x40)\n      swap1\n      dup1\n      dup3\n      mstore\n      dup1\n      0x20\n      mul\n      0x20\n      add\n      dup3\n      add\n      0x40\n      mstore\n      dup1\n      iszero\n      tag_27\n      jumpi\n      dup2\n      0x20\n      add\n    tag_28:\n      0x60\n      dup2\n      mstore\n      0x20\n      add\n      swap1\n      0x01\n      swap1\n      sub\n      swap1\n      dup2\n      tag_28\n      jumpi\n      swap1\n      pop\n    tag_27:\n      pop\n        /* \"contracts/Ballot/Ballot.sol\":6941:7008  string[] memory candidatesListName = new string[](candidatesLength) */\n      swap1\n      pop\n        /* \"contracts/Ballot/Ballot.sol\":7034:7044  uint index */\n      0x00\n        /* \"contracts/Ballot/Ballot.sol\":7029:7169  for (uint index = 0; index < candidatesLength; index++) {\r... */\n    tag_29:\n        /* \"contracts/Ballot/Ballot.sol\":7058:7074  candidatesLength */\n      dup3\n        /* \"contracts/Ballot/Ballot.sol\":7050:7055  index */\n      dup2\n        /* \"contracts/Ballot/Ballot.sol\":7050:7074  index < candidatesLength */\n      lt\n        /* \"contracts/Ballot/Ballot.sol\":7029:7169  for (uint index = 0; index < candidatesLength; index++) {\r... */\n      iszero\n      tag_30\n      jumpi\n        /* \"contracts/Ballot/Ballot.sol\":7128:7138  candidates */\n      0x02\n        /* \"contracts/Ballot/Ballot.sol\":7139:7144  index */\n      dup2\n        /* \"contracts/Ballot/Ballot.sol\":7128:7145  candidates[index] */\n      dup2\n      sload\n      dup2\n      lt\n      tag_32\n      jumpi\n      tag_33\n      tag_34\n      jump\t// in\n    tag_33:\n    tag_32:\n      swap1\n      0x00\n      mstore\n      keccak256(0x00, 0x20)\n      swap1\n      0x02\n      mul\n      add\n        /* \"contracts/Ballot/Ballot.sol\":7128:7157  candidates[index].nameProject */\n      0x00\n      add\n        /* \"contracts/Ballot/Ballot.sol\":7100:7157  candidatesListName[index] = candidates[index].nameProject */\n      dup1\n      sload\n      tag_36\n      swap1\n      tag_37\n      jump\t// in\n    tag_36:\n      dup1\n      0x1f\n      add\n      0x20\n      dup1\n      swap2\n      div\n      mul\n      0x20\n      add\n      mload(0x40)\n      swap1\n      dup2\n      add\n      0x40\n      mstore\n      dup1\n      swap3\n      swap2\n      swap1\n      dup2\n      dup2\n      mstore\n      0x20\n      add\n      dup3\n      dup1\n      sload\n      tag_38\n      swap1\n      tag_37\n      jump\t// in\n    tag_38:\n      dup1\n      iszero\n      tag_39\n      jumpi\n      dup1\n      0x1f\n      lt\n      tag_40\n      jumpi\n      0x0100\n      dup1\n      dup4\n      sload\n      div\n      mul\n      dup4\n      mstore\n      swap2\n      0x20\n      add\n      swap2\n      jump(tag_39)\n    tag_40:\n      dup3\n      add\n      swap2\n      swap1\n      0x00\n      mstore\n      keccak256(0x00, 0x20)\n      swap1\n    tag_41:\n      dup2\n      sload\n      dup2\n      mstore\n      swap1\n      0x01\n      add\n      swap1\n      0x20\n      add\n      dup1\n      dup4\n      gt\n      tag_41\n      jumpi\n      dup3\n      swap1\n      sub\n      0x1f\n      and\n      dup3\n      add\n      swap2\n    tag_39:\n      pop\n      pop\n      pop\n      pop\n      pop\n        /* \"contracts/Ballot/Ballot.sol\":7100:7118  candidatesListName */\n      dup3\n        /* \"contracts/Ballot/Ballot.sol\":7119:7124  index */\n      dup3\n        /* \"contracts/Ballot/Ballot.sol\":7100:7125  candidatesListName[index] */\n      dup2\n      mload\n      dup2\n      lt\n      tag_42\n      jumpi\n      tag_43\n      tag_34\n      jump\t// in\n    tag_43:\n    tag_42:\n      0x20\n      mul\n      0x20\n      add\n      add\n        /* \"contracts/Ballot/Ballot.sol\":7100:7157  candidatesListName[index] = candidates[index].nameProject */\n      dup2\n      swap1\n      mstore\n      pop\n        /* \"contracts/Ballot/Ballot.sol\":7076:7083  index++ */\n      dup1\n      dup1\n      tag_44\n      swap1\n      tag_45\n      jump\t// in\n    tag_44:\n      swap2\n      pop\n      pop\n        /* \"contracts/Ballot/Ballot.sol\":7029:7169  for (uint index = 0; index < candidatesLength; index++) {\r... */\n      jump(tag_29)\n    tag_30:\n      pop\n        /* \"contracts/Ballot/Ballot.sol\":7188:7206  candidatesListName */\n      dup1\n        /* \"contracts/Ballot/Ballot.sol\":7181:7206  return candidatesListName */\n      swap3\n      pop\n      pop\n      pop\n        /* \"contracts/Ballot/Ballot.sol\":6807:7214  function getCandidatesListName() public view returns (string[] memory) {\r... */\n      swap1\n      jump\t// out\n        /* \"contracts/Ballot/Ballot.sol\":4261:4622  function getWinnerBallot() public view returns (string memory winnerName, uint amountWinningVotes, address contractAddress) {\r... */\n    tag_12:\n        /* \"contracts/Ballot/Ballot.sol\":4309:4333  string memory winnerName */\n      0x60\n        /* \"contracts/Ballot/Ballot.sol\":4335:4358  uint amountWinningVotes */\n      0x00\n        /* \"contracts/Ballot/Ballot.sol\":4360:4383  address contractAddress */\n      dup1\n        /* \"contracts/Ballot/Ballot.sol\":4397:4430  Candidate memory winningCandidate */\n      0x00\n        /* \"contracts/Ballot/Ballot.sol\":4434:4454  getWinnerCandidate() */\n      tag_47\n        /* \"contracts/Ballot/Ballot.sol\":4434:4452  getWinnerCandidate */\n      tag_48\n        /* \"contracts/Ballot/Ballot.sol\":4434:4454  getWinnerCandidate() */\n      jump\t// in\n    tag_47:\n        /* \"contracts/Ballot/Ballot.sol\":4396:4454  (Candidate memory winningCandidate) = getWinnerCandidate() */\n      swap1\n      pop\n        /* \"contracts/Ballot/Ballot.sol\":4478:4494  winningCandidate */\n      dup1\n        /* \"contracts/Ballot/Ballot.sol\":4478:4506  winningCandidate.nameProject */\n      0x00\n      add\n      mload\n        /* \"contracts/Ballot/Ballot.sol\":4465:4506  winnerName = winningCandidate.nameProject */\n      swap4\n      pop\n        /* \"contracts/Ballot/Ballot.sol\":4538:4554  winningCandidate */\n      dup1\n        /* \"contracts/Ballot/Ballot.sol\":4538:4565  winningCandidate.votesCount */\n      0x20\n      add\n      mload\n        /* \"contracts/Ballot/Ballot.sol\":4517:4565  amountWinningVotes = winningCandidate.votesCount */\n      swap3\n      pop\n        /* \"contracts/Ballot/Ballot.sol\":4594:4614  getContractAddress() */\n      tag_49\n        /* \"contracts/Ballot/Ballot.sol\":4594:4612  getContractAddress */\n      tag_50\n        /* \"contracts/Ballot/Ballot.sol\":4594:4614  getContractAddress() */\n      jump\t// in\n    tag_49:\n        /* \"contracts/Ballot/Ballot.sol\":4576:4614  contractAddress = getContractAddress() */\n      swap2\n      pop\n        /* \"contracts/Ballot/Ballot.sol\":4385:4622  {\r... */\n      pop\n        /* \"contracts/Ballot/Ballot.sol\":4261:4622  function getWinnerBallot() public view returns (string memory winnerName, uint amountWinningVotes, address contractAddress) {\r... */\n      swap1\n      swap2\n      swap3\n      jump\t// out\n        /* \"contracts/Ballot/Ballot.sol\":3348:3574  function giveRightToVote(address voterAddress, string memory _nameVoter) public giveRightToVoteModifier(voterAddress) {\r... */\n    tag_18:\n        /* \"contracts/Ballot/Ballot.sol\":3452:3464  voterAddress */\n      dup2\n        /* \"contracts/Ballot/Ballot.sol\":990:1026  getTotalVotesCounterReachedRequire() */\n      tag_52\n        /* \"contracts/Ballot/Ballot.sol\":990:1024  getTotalVotesCounterReachedRequire */\n      tag_53\n        /* \"contracts/Ballot/Ballot.sol\":990:1026  getTotalVotesCounterReachedRequire() */\n      jump\t// in\n    tag_52:\n        /* \"contracts/Ballot/Ballot.sol\":1037:1065  getYouContractOwnerRequire() */\n      tag_54\n        /* \"contracts/Ballot/Ballot.sol\":1037:1063  getYouContractOwnerRequire */\n      tag_55\n        /* \"contracts/Ballot/Ballot.sol\":1037:1065  getYouContractOwnerRequire() */\n      jump\t// in\n    tag_54:\n        /* \"contracts/Ballot/Ballot.sol\":1076:1111  getRightToVoteRequire(voterAddress) */\n      tag_56\n        /* \"contracts/Ballot/Ballot.sol\":1098:1110  voterAddress */\n      dup2\n        /* \"contracts/Ballot/Ballot.sol\":1076:1097  getRightToVoteRequire */\n      tag_57\n        /* \"contracts/Ballot/Ballot.sol\":1076:1111  getRightToVoteRequire(voterAddress) */\n      jump\t// in\n    tag_56:\n        /* \"contracts/Ballot/Ballot.sol\":1122:1156  getVoterVotedRequire(voterAddress) */\n      tag_58\n        /* \"contracts/Ballot/Ballot.sol\":1143:1155  voterAddress */\n      dup2\n        /* \"contracts/Ballot/Ballot.sol\":1122:1142  getVoterVotedRequire */\n      tag_59\n        /* \"contracts/Ballot/Ballot.sol\":1122:1156  getVoterVotedRequire(voterAddress) */\n      jump\t// in\n    tag_58:\n        /* \"contracts/Ballot/Ballot.sol\":3510:3520  _nameVoter */\n      dup2\n        /* \"contracts/Ballot/Ballot.sol\":3477:3483  voters */\n      0x01\n        /* \"contracts/Ballot/Ballot.sol\":3477:3497  voters[voterAddress] */\n      0x00\n        /* \"contracts/Ballot/Ballot.sol\":3484:3496  voterAddress */\n      dup6\n        /* \"contracts/Ballot/Ballot.sol\":3477:3497  voters[voterAddress] */\n      0xffffffffffffffffffffffffffffffffffffffff\n      and\n      0xffffffffffffffffffffffffffffffffffffffff\n      and\n      dup2\n      mstore\n      0x20\n      add\n      swap1\n      dup2\n      mstore\n      0x20\n      add\n      0x00\n      keccak256\n        /* \"contracts/Ballot/Ballot.sol\":3477:3507  voters[voterAddress].nameVoter */\n      0x00\n      add\n        /* \"contracts/Ballot/Ballot.sol\":3477:3520  voters[voterAddress].nameVoter = _nameVoter */\n      swap1\n      dup1\n      mload\n      swap1\n      0x20\n      add\n      swap1\n      tag_61\n      swap3\n      swap2\n      swap1\n      tag_62\n      jump\t// in\n    tag_61:\n      pop\n        /* \"contracts/Ballot/Ballot.sol\":3562:3566  true */\n      0x01\n        /* \"contracts/Ballot/Ballot.sol\":3531:3537  voters */\n      dup1\n        /* \"contracts/Ballot/Ballot.sol\":3531:3551  voters[voterAddress] */\n      0x00\n        /* \"contracts/Ballot/Ballot.sol\":3538:3550  voterAddress */\n      dup6\n        /* \"contracts/Ballot/Ballot.sol\":3531:3551  voters[voterAddress] */\n      0xffffffffffffffffffffffffffffffffffffffff\n      and\n      0xffffffffffffffffffffffffffffffffffffffff\n      and\n      dup2\n      mstore\n      0x20\n      add\n      swap1\n      dup2\n      mstore\n      0x20\n      add\n      0x00\n      keccak256\n        /* \"contracts/Ballot/Ballot.sol\":3531:3559  voters[voterAddress].canVote */\n      0x01\n      add\n      0x00\n        /* \"contracts/Ballot/Ballot.sol\":3531:3566  voters[voterAddress].canVote = true */\n      0x0100\n      exp\n      dup2\n      sload\n      dup2\n      0xff\n      mul\n      not\n      and\n      swap1\n      dup4\n      iszero\n      iszero\n      mul\n      or\n      swap1\n      sstore\n      pop\n        /* \"contracts/Ballot/Ballot.sol\":3348:3574  function giveRightToVote(address voterAddress, string memory _nameVoter) public giveRightToVoteModifier(voterAddress) {\r... */\n      pop\n      pop\n      pop\n      jump\t// out\n        /* \"contracts/Ballot/Ballot.sol\":3582:4253  function vote(string memory _nameProject) public voteModifierBefore(msg.sender) {\r... */\n    tag_22:\n        /* \"contracts/Ballot/Ballot.sol\":3650:3660  msg.sender */\n      caller\n        /* \"contracts/Ballot/Ballot.sol\":1245:1281  getTotalVotesCounterReachedRequire() */\n      tag_64\n        /* \"contracts/Ballot/Ballot.sol\":1245:1279  getTotalVotesCounterReachedRequire */\n      tag_53\n        /* \"contracts/Ballot/Ballot.sol\":1245:1281  getTotalVotesCounterReachedRequire() */\n      jump\t// in\n    tag_64:\n        /* \"contracts/Ballot/Ballot.sol\":1292:1327  getRightToVoteRequire(voterAddress) */\n      tag_65\n        /* \"contracts/Ballot/Ballot.sol\":1314:1326  voterAddress */\n      dup2\n        /* \"contracts/Ballot/Ballot.sol\":1292:1313  getRightToVoteRequire */\n      tag_57\n        /* \"contracts/Ballot/Ballot.sol\":1292:1327  getRightToVoteRequire(voterAddress) */\n      jump\t// in\n    tag_65:\n        /* \"contracts/Ballot/Ballot.sol\":1338:1372  getVoterVotedRequire(voterAddress) */\n      tag_66\n        /* \"contracts/Ballot/Ballot.sol\":1359:1371  voterAddress */\n      dup2\n        /* \"contracts/Ballot/Ballot.sol\":1338:1358  getVoterVotedRequire */\n      tag_59\n        /* \"contracts/Ballot/Ballot.sol\":1338:1372  getVoterVotedRequire(voterAddress) */\n      jump\t// in\n    tag_66:\n        /* \"contracts/Ballot/Ballot.sol\":3673:3693  Voter storage sender */\n      0x00\n        /* \"contracts/Ballot/Ballot.sol\":3696:3702  voters */\n      0x01\n        /* \"contracts/Ballot/Ballot.sol\":3696:3714  voters[msg.sender] */\n      0x00\n        /* \"contracts/Ballot/Ballot.sol\":3703:3713  msg.sender */\n      caller\n        /* \"contracts/Ballot/Ballot.sol\":3696:3714  voters[msg.sender] */\n      0xffffffffffffffffffffffffffffffffffffffff\n      and\n      0xffffffffffffffffffffffffffffffffffffffff\n      and\n      dup2\n      mstore\n      0x20\n      add\n      swap1\n      dup2\n      mstore\n      0x20\n      add\n      0x00\n      keccak256\n        /* \"contracts/Ballot/Ballot.sol\":3673:3714  Voter storage sender = voters[msg.sender] */\n      swap1\n      pop\n        /* \"contracts/Ballot/Ballot.sol\":3816:3837  bool isCandidateExist */\n      0x00\n        /* \"contracts/Ballot/Ballot.sol\":3863:3873  uint index */\n      dup1\n        /* \"contracts/Ballot/Ballot.sol\":3876:3877  0 */\n      0x00\n        /* \"contracts/Ballot/Ballot.sol\":3863:3877  uint index = 0 */\n      swap1\n      pop\n        /* \"contracts/Ballot/Ballot.sol\":3858:4191  for (uint index = 0; index < candidates.length; index++) {\r... */\n    tag_68:\n        /* \"contracts/Ballot/Ballot.sol\":3887:3897  candidates */\n      0x02\n        /* \"contracts/Ballot/Ballot.sol\":3887:3904  candidates.length */\n      dup1\n      sload\n      swap1\n      pop\n        /* \"contracts/Ballot/Ballot.sol\":3879:3884  index */\n      dup2\n        /* \"contracts/Ballot/Ballot.sol\":3879:3904  index < candidates.length */\n      lt\n        /* \"contracts/Ballot/Ballot.sol\":3858:4191  for (uint index = 0; index < candidates.length; index++) {\r... */\n      iszero\n      tag_69\n      jumpi\n        /* \"contracts/Ballot/Ballot.sol\":3934:3992  stringEqualTo(candidates[index].nameProject, _nameProject) */\n      tag_71\n        /* \"contracts/Ballot/Ballot.sol\":3948:3958  candidates */\n      0x02\n        /* \"contracts/Ballot/Ballot.sol\":3959:3964  index */\n      dup3\n        /* \"contracts/Ballot/Ballot.sol\":3948:3965  candidates[index] */\n      dup2\n      sload\n      dup2\n      lt\n      tag_72\n      jumpi\n      tag_73\n      tag_34\n      jump\t// in\n    tag_73:\n    tag_72:\n      swap1\n      0x00\n      mstore\n      keccak256(0x00, 0x20)\n      swap1\n      0x02\n      mul\n      add\n        /* \"contracts/Ballot/Ballot.sol\":3948:3977  candidates[index].nameProject */\n      0x00\n      add\n        /* \"contracts/Ballot/Ballot.sol\":3934:3992  stringEqualTo(candidates[index].nameProject, _nameProject) */\n      dup1\n      sload\n      tag_75\n      swap1\n      tag_37\n      jump\t// in\n    tag_75:\n      dup1\n      0x1f\n      add\n      0x20\n      dup1\n      swap2\n      div\n      mul\n      0x20\n      add\n      mload(0x40)\n      swap1\n      dup2\n      add\n      0x40\n      mstore\n      dup1\n      swap3\n      swap2\n      swap1\n      dup2\n      dup2\n      mstore\n      0x20\n      add\n      dup3\n      dup1\n      sload\n      tag_76\n      swap1\n      tag_37\n      jump\t// in\n    tag_76:\n      dup1\n      iszero\n      tag_77\n      jumpi\n      dup1\n      0x1f\n      lt\n      tag_78\n      jumpi\n      0x0100\n      dup1\n      dup4\n      sload\n      div\n      mul\n      dup4\n      mstore\n      swap2\n      0x20\n      add\n      swap2\n      jump(tag_77)\n    tag_78:\n      dup3\n      add\n      swap2\n      swap1\n      0x00\n      mstore\n      keccak256(0x00, 0x20)\n      swap1\n    tag_79:\n      dup2\n      sload\n      dup2\n      mstore\n      swap1\n      0x01\n      add\n      swap1\n      0x20\n      add\n      dup1\n      dup4\n      gt\n      tag_79\n      jumpi\n      dup3\n      swap1\n      sub\n      0x1f\n      and\n      dup3\n      add\n      swap2\n    tag_77:\n      pop\n      pop\n      pop\n      pop\n      pop\n        /* \"contracts/Ballot/Ballot.sol\":3979:3991  _nameProject */\n      dup7\n        /* \"contracts/Ballot/Ballot.sol\":3934:3947  stringEqualTo */\n      tag_80\n        /* \"contracts/Ballot/Ballot.sol\":3934:3992  stringEqualTo(candidates[index].nameProject, _nameProject) */\n      jump\t// in\n    tag_71:\n        /* \"contracts/Ballot/Ballot.sol\":3930:4180  if (stringEqualTo(candidates[index].nameProject, _nameProject)) {\r... */\n      iszero\n      tag_81\n      jumpi\n        /* \"contracts/Ballot/Ballot.sol\":4013:4023  candidates */\n      0x02\n        /* \"contracts/Ballot/Ballot.sol\":4024:4029  index */\n      dup2\n        /* \"contracts/Ballot/Ballot.sol\":4013:4030  candidates[index] */\n      dup2\n      sload\n      dup2\n      lt\n      tag_82\n      jumpi\n      tag_83\n      tag_34\n      jump\t// in\n    tag_83:\n    tag_82:\n      swap1\n      0x00\n      mstore\n      keccak256(0x00, 0x20)\n      swap1\n      0x02\n      mul\n      add\n        /* \"contracts/Ballot/Ballot.sol\":4013:4041  candidates[index].votesCount */\n      0x01\n      add\n      0x00\n        /* \"contracts/Ballot/Ballot.sol\":4013:4043  candidates[index].votesCount++ */\n      dup2\n      sload\n      dup1\n      swap3\n      swap2\n      swap1\n      tag_85\n      swap1\n      tag_45\n      jump\t// in\n    tag_85:\n      swap2\n      swap1\n      pop\n      sstore\n      pop\n        /* \"contracts/Ballot/Ballot.sol\":4080:4084  true */\n      0x01\n        /* \"contracts/Ballot/Ballot.sol\":4062:4068  sender */\n      dup4\n        /* \"contracts/Ballot/Ballot.sol\":4062:4077  sender.hasVoted */\n      0x01\n      add\n      0x01\n        /* \"contracts/Ballot/Ballot.sol\":4062:4084  sender.hasVoted = true */\n      0x0100\n      exp\n      dup2\n      sload\n      dup2\n      0xff\n      mul\n      not\n      and\n      swap1\n      dup4\n      iszero\n      iszero\n      mul\n      or\n      swap1\n      sstore\n      pop\n        /* \"contracts/Ballot/Ballot.sol\":4103:4120  totalVotesCounter */\n      0x03\n      0x00\n        /* \"contracts/Ballot/Ballot.sol\":4103:4122  totalVotesCounter++ */\n      dup2\n      sload\n      dup1\n      swap3\n      swap2\n      swap1\n      tag_86\n      swap1\n      tag_45\n      jump\t// in\n    tag_86:\n      swap2\n      swap1\n      pop\n      sstore\n      pop\n        /* \"contracts/Ballot/Ballot.sol\":4160:4164  true */\n      0x01\n        /* \"contracts/Ballot/Ballot.sol\":4141:4164  isCandidateExist = true */\n      swap2\n      pop\n        /* \"contracts/Ballot/Ballot.sol\":3930:4180  if (stringEqualTo(candidates[index].nameProject, _nameProject)) {\r... */\n    tag_81:\n        /* \"contracts/Ballot/Ballot.sol\":3906:3913  index++ */\n      dup1\n      dup1\n      tag_87\n      swap1\n      tag_45\n      jump\t// in\n    tag_87:\n      swap2\n      pop\n      pop\n        /* \"contracts/Ballot/Ballot.sol\":3858:4191  for (uint index = 0; index < candidates.length; index++) {\r... */\n      jump(tag_68)\n    tag_69:\n      pop\n        /* \"contracts/Ballot/Ballot.sol\":4203:4245  getCandidateExistRequire(isCandidateExist) */\n      tag_88\n        /* \"contracts/Ballot/Ballot.sol\":4228:4244  isCandidateExist */\n      dup2\n        /* \"contracts/Ballot/Ballot.sol\":4203:4227  getCandidateExistRequire */\n      tag_89\n        /* \"contracts/Ballot/Ballot.sol\":4203:4245  getCandidateExistRequire(isCandidateExist) */\n      jump\t// in\n    tag_88:\n        /* \"contracts/Ballot/Ballot.sol\":3662:4253  {\r... */\n      pop\n      pop\n        /* \"contracts/Ballot/Ballot.sol\":3582:4253  function vote(string memory _nameProject) public voteModifierBefore(msg.sender) {\r... */\n      pop\n      pop\n      jump\t// out\n        /* \"contracts/Ballot/Ballot.sol\":4630:6799  function getWinnerCandidate() private view returns (Candidate memory winningCandidate) {        \r... */\n    tag_48:\n        /* \"contracts/Ballot/Ballot.sol\":4682:4715  Candidate memory winningCandidate */\n      tag_90\n      tag_91\n      jump\t// in\n    tag_90:\n        /* \"contracts/Ballot/Ballot.sol\":4736:4757  uint winningVoteCount */\n      0x00\n        /* \"contracts/Ballot/Ballot.sol\":4768:4794  uint winningCandidateIndex */\n      dup1\n        /* \"contracts/Ballot/Ballot.sol\":4807:4828  uint candidatesLength */\n      0x00\n        /* \"contracts/Ballot/Ballot.sol\":4831:4841  candidates */\n      0x02\n        /* \"contracts/Ballot/Ballot.sol\":4831:4848  candidates.length */\n      dup1\n      sload\n      swap1\n      pop\n        /* \"contracts/Ballot/Ballot.sol\":4807:4848  uint candidatesLength = candidates.length */\n      swap1\n      pop\n        /* \"contracts/Ballot/Ballot.sol\":4869:4902  string[] memory tieCandidatesList */\n      0x00\n        /* \"contracts/Ballot/Ballot.sol\":4918:4934  candidatesLength */\n      dup2\n        /* \"contracts/Ballot/Ballot.sol\":4905:4935  new string[](candidatesLength) */\n      0xffffffffffffffff\n      dup2\n      gt\n      iszero\n      tag_93\n      jumpi\n      tag_94\n      tag_26\n      jump\t// in\n    tag_94:\n    tag_93:\n      mload(0x40)\n      swap1\n      dup1\n      dup3\n      mstore\n      dup1\n      0x20\n      mul\n      0x20\n      add\n      dup3\n      add\n      0x40\n      mstore\n      dup1\n      iszero\n      tag_95\n      jumpi\n      dup2\n      0x20\n      add\n    tag_96:\n      0x60\n      dup2\n      mstore\n      0x20\n      add\n      swap1\n      0x01\n      swap1\n      sub\n      swap1\n      dup2\n      tag_96\n      jumpi\n      swap1\n      pop\n    tag_95:\n      pop\n        /* \"contracts/Ballot/Ballot.sol\":4869:4935  string[] memory tieCandidatesList = new string[](candidatesLength) */\n      swap1\n      pop\n        /* \"contracts/Ballot/Ballot.sol\":4946:4973  uint tieCandidatesListIndex */\n      0x00\n        /* \"contracts/Ballot/Ballot.sol\":4984:4994  bool isTie */\n      dup1\n        /* \"contracts/Ballot/Ballot.sol\":4997:5001  true */\n      0x01\n        /* \"contracts/Ballot/Ballot.sol\":4984:5001  bool isTie = true */\n      swap1\n      pop\n        /* \"contracts/Ballot/Ballot.sol\":5012:5048  string memory tieCandidatesListNames */\n      0x60\n        /* \"contracts/Ballot/Ballot.sol\":5066:5085  uint indexCandidate */\n      0x00\n        /* \"contracts/Ballot/Ballot.sol\":5061:6011  for (uint indexCandidate = 0; indexCandidate < candidatesLength; indexCandidate++) {\r... */\n    tag_97:\n        /* \"contracts/Ballot/Ballot.sol\":5108:5124  candidatesLength */\n      dup6\n        /* \"contracts/Ballot/Ballot.sol\":5091:5105  indexCandidate */\n      dup2\n        /* \"contracts/Ballot/Ballot.sol\":5091:5124  indexCandidate < candidatesLength */\n      lt\n        /* \"contracts/Ballot/Ballot.sol\":5061:6011  for (uint indexCandidate = 0; indexCandidate < candidatesLength; indexCandidate++) {\r... */\n      iszero\n      tag_98\n      jumpi\n        /* \"contracts/Ballot/Ballot.sol\":5203:5219  winningVoteCount */\n      dup8\n        /* \"contracts/Ballot/Ballot.sol\":5163:5173  candidates */\n      0x02\n        /* \"contracts/Ballot/Ballot.sol\":5174:5188  indexCandidate */\n      dup3\n        /* \"contracts/Ballot/Ballot.sol\":5163:5189  candidates[indexCandidate] */\n      dup2\n      sload\n      dup2\n      lt\n      tag_100\n      jumpi\n      tag_101\n      tag_34\n      jump\t// in\n    tag_101:\n    tag_100:\n      swap1\n      0x00\n      mstore\n      keccak256(0x00, 0x20)\n      swap1\n      0x02\n      mul\n      add\n        /* \"contracts/Ballot/Ballot.sol\":5163:5200  candidates[indexCandidate].votesCount */\n      0x01\n      add\n      sload\n        /* \"contracts/Ballot/Ballot.sol\":5163:5219  candidates[indexCandidate].votesCount > winningVoteCount */\n      gt\n        /* \"contracts/Ballot/Ballot.sol\":5159:5988  if (candidates[indexCandidate].votesCount > winningVoteCount) {\r... */\n      iszero\n      tag_103\n      jumpi\n        /* \"contracts/Ballot/Ballot.sol\":5259:5269  candidates */\n      0x02\n        /* \"contracts/Ballot/Ballot.sol\":5270:5284  indexCandidate */\n      dup2\n        /* \"contracts/Ballot/Ballot.sol\":5259:5285  candidates[indexCandidate] */\n      dup2\n      sload\n      dup2\n      lt\n      tag_104\n      jumpi\n      tag_105\n      tag_34\n      jump\t// in\n    tag_105:\n    tag_104:\n      swap1\n      0x00\n      mstore\n      keccak256(0x00, 0x20)\n      swap1\n      0x02\n      mul\n      add\n        /* \"contracts/Ballot/Ballot.sol\":5259:5296  candidates[indexCandidate].votesCount */\n      0x01\n      add\n      sload\n        /* \"contracts/Ballot/Ballot.sol\":5240:5296  winningVoteCount = candidates[indexCandidate].votesCount */\n      swap8\n      pop\n        /* \"contracts/Ballot/Ballot.sol\":5339:5353  indexCandidate */\n      dup1\n        /* \"contracts/Ballot/Ballot.sol\":5315:5353  winningCandidateIndex = indexCandidate */\n      swap7\n      pop\n        /* \"contracts/Ballot/Ballot.sol\":5376:5381  isTie */\n      dup3\n        /* \"contracts/Ballot/Ballot.sol\":5372:5713  if (isTie) {\r... */\n      iszero\n      tag_107\n      jumpi\n        /* \"contracts/Ballot/Ballot.sol\":5414:5419  false */\n      0x00\n        /* \"contracts/Ballot/Ballot.sol\":5406:5419  isTie = false */\n      swap3\n      pop\n        /* \"contracts/Ballot/Ballot.sol\":5467:5468  0 */\n      0x00\n        /* \"contracts/Ballot/Ballot.sol\":5442:5468  tieCandidatesListIndex = 0 */\n      swap4\n      pop\n        /* \"contracts/Ballot/Ballot.sol\":5524:5540  candidatesLength */\n      dup6\n        /* \"contracts/Ballot/Ballot.sol\":5511:5541  new string[](candidatesLength) */\n      0xffffffffffffffff\n      dup2\n      gt\n      iszero\n      tag_108\n      jumpi\n      tag_109\n      tag_26\n      jump\t// in\n    tag_109:\n    tag_108:\n      mload(0x40)\n      swap1\n      dup1\n      dup3\n      mstore\n      dup1\n      0x20\n      mul\n      0x20\n      add\n      dup3\n      add\n      0x40\n      mstore\n      dup1\n      iszero\n      tag_110\n      jumpi\n      dup2\n      0x20\n      add\n    tag_111:\n      0x60\n      dup2\n      mstore\n      0x20\n      add\n      swap1\n      0x01\n      swap1\n      sub\n      swap1\n      dup2\n      tag_111\n      jumpi\n      swap1\n      pop\n    tag_110:\n      pop\n        /* \"contracts/Ballot/Ballot.sol\":5491:5541  tieCandidatesList = new string[](candidatesLength) */\n      swap5\n      pop\n        /* \"contracts/Ballot/Ballot.sol\":5608:5618  candidates */\n      0x02\n        /* \"contracts/Ballot/Ballot.sol\":5619:5633  indexCandidate */\n      dup2\n        /* \"contracts/Ballot/Ballot.sol\":5608:5634  candidates[indexCandidate] */\n      dup2\n      sload\n      dup2\n      lt\n      tag_112\n      jumpi\n      tag_113\n      tag_34\n      jump\t// in\n    tag_113:\n    tag_112:\n      swap1\n      0x00\n      mstore\n      keccak256(0x00, 0x20)\n      swap1\n      0x02\n      mul\n      add\n        /* \"contracts/Ballot/Ballot.sol\":5608:5646  candidates[indexCandidate].nameProject */\n      0x00\n      add\n        /* \"contracts/Ballot/Ballot.sol\":5564:5646  tieCandidatesList[tieCandidatesListIndex] = candidates[indexCandidate].nameProject */\n      dup1\n      sload\n      tag_115\n      swap1\n      tag_37\n      jump\t// in\n    tag_115:\n      dup1\n      0x1f\n      add\n      0x20\n      dup1\n      swap2\n      div\n      mul\n      0x20\n      add\n      mload(0x40)\n      swap1\n      dup2\n      add\n      0x40\n      mstore\n      dup1\n      swap3\n      swap2\n      swap1\n      dup2\n      dup2\n      mstore\n      0x20\n      add\n      dup3\n      dup1\n      sload\n      tag_116\n      swap1\n      tag_37\n      jump\t// in\n    tag_116:\n      dup1\n      iszero\n      tag_117\n      jumpi\n      dup1\n      0x1f\n      lt\n      tag_118\n      jumpi\n      0x0100\n      dup1\n      dup4\n      sload\n      div\n      mul\n      dup4\n      mstore\n      swap2\n      0x20\n      add\n      swap2\n      jump(tag_117)\n    tag_118:\n      dup3\n      add\n      swap2\n      swap1\n      0x00\n      mstore\n      keccak256(0x00, 0x20)\n      swap1\n    tag_119:\n      dup2\n      sload\n      dup2\n      mstore\n      swap1\n      0x01\n      add\n      swap1\n      0x20\n      add\n      dup1\n      dup4\n      gt\n      tag_119\n      jumpi\n      dup3\n      swap1\n      sub\n      0x1f\n      and\n      dup3\n      add\n      swap2\n    tag_117:\n      pop\n      pop\n      pop\n      pop\n      pop\n        /* \"contracts/Ballot/Ballot.sol\":5564:5581  tieCandidatesList */\n      dup6\n        /* \"contracts/Ballot/Ballot.sol\":5582:5604  tieCandidatesListIndex */\n      dup6\n        /* \"contracts/Ballot/Ballot.sol\":5564:5605  tieCandidatesList[tieCandidatesListIndex] */\n      dup2\n      mload\n      dup2\n      lt\n      tag_120\n      jumpi\n      tag_121\n      tag_34\n      jump\t// in\n    tag_121:\n    tag_120:\n      0x20\n      mul\n      0x20\n      add\n      add\n        /* \"contracts/Ballot/Ballot.sol\":5564:5646  tieCandidatesList[tieCandidatesListIndex] = candidates[indexCandidate].nameProject */\n      dup2\n      swap1\n      mstore\n      pop\n        /* \"contracts/Ballot/Ballot.sol\":5669:5693  tieCandidatesListIndex++ */\n      dup4\n      dup1\n      tag_122\n      swap1\n      tag_45\n      jump\t// in\n    tag_122:\n      swap5\n      pop\n      pop\n        /* \"contracts/Ballot/Ballot.sol\":5372:5713  if (isTie) {\r... */\n    tag_107:\n        /* \"contracts/Ballot/Ballot.sol\":5159:5988  if (candidates[indexCandidate].votesCount > winningVoteCount) {\r... */\n      jump(tag_123)\n    tag_103:\n        /* \"contracts/Ballot/Ballot.sol\":5779:5795  winningVoteCount */\n      dup8\n        /* \"contracts/Ballot/Ballot.sol\":5738:5748  candidates */\n      0x02\n        /* \"contracts/Ballot/Ballot.sol\":5749:5763  indexCandidate */\n      dup3\n        /* \"contracts/Ballot/Ballot.sol\":5738:5764  candidates[indexCandidate] */\n      dup2\n      sload\n      dup2\n      lt\n      tag_124\n      jumpi\n      tag_125\n      tag_34\n      jump\t// in\n    tag_125:\n    tag_124:\n      swap1\n      0x00\n      mstore\n      keccak256(0x00, 0x20)\n      swap1\n      0x02\n      mul\n      add\n        /* \"contracts/Ballot/Ballot.sol\":5738:5775  candidates[indexCandidate].votesCount */\n      0x01\n      add\n      sload\n        /* \"contracts/Ballot/Ballot.sol\":5738:5795  candidates[indexCandidate].votesCount == winningVoteCount */\n      eq\n        /* \"contracts/Ballot/Ballot.sol\":5734:5988  if (candidates[indexCandidate].votesCount == winningVoteCount) {\r... */\n      iszero\n      tag_127\n      jumpi\n        /* \"contracts/Ballot/Ballot.sol\":5824:5828  true */\n      0x01\n        /* \"contracts/Ballot/Ballot.sol\":5816:5828  isTie = true */\n      swap3\n      pop\n        /* \"contracts/Ballot/Ballot.sol\":5891:5901  candidates */\n      0x02\n        /* \"contracts/Ballot/Ballot.sol\":5902:5916  indexCandidate */\n      dup2\n        /* \"contracts/Ballot/Ballot.sol\":5891:5917  candidates[indexCandidate] */\n      dup2\n      sload\n      dup2\n      lt\n      tag_128\n      jumpi\n      tag_129\n      tag_34\n      jump\t// in\n    tag_129:\n    tag_128:\n      swap1\n      0x00\n      mstore\n      keccak256(0x00, 0x20)\n      swap1\n      0x02\n      mul\n      add\n        /* \"contracts/Ballot/Ballot.sol\":5891:5929  candidates[indexCandidate].nameProject */\n      0x00\n      add\n        /* \"contracts/Ballot/Ballot.sol\":5847:5929  tieCandidatesList[tieCandidatesListIndex] = candidates[indexCandidate].nameProject */\n      dup1\n      sload\n      tag_131\n      swap1\n      tag_37\n      jump\t// in\n    tag_131:\n      dup1\n      0x1f\n      add\n      0x20\n      dup1\n      swap2\n      div\n      mul\n      0x20\n      add\n      mload(0x40)\n      swap1\n      dup2\n      add\n      0x40\n      mstore\n      dup1\n      swap3\n      swap2\n      swap1\n      dup2\n      dup2\n      mstore\n      0x20\n      add\n      dup3\n      dup1\n      sload\n      tag_132\n      swap1\n      tag_37\n      jump\t// in\n    tag_132:\n      dup1\n      iszero\n      tag_133\n      jumpi\n      dup1\n      0x1f\n      lt\n      tag_134\n      jumpi\n      0x0100\n      dup1\n      dup4\n      sload\n      div\n      mul\n      dup4\n      mstore\n      swap2\n      0x20\n      add\n      swap2\n      jump(tag_133)\n    tag_134:\n      dup3\n      add\n      swap2\n      swap1\n      0x00\n      mstore\n      keccak256(0x00, 0x20)\n      swap1\n    tag_135:\n      dup2\n      sload\n      dup2\n      mstore\n      swap1\n      0x01\n      add\n      swap1\n      0x20\n      add\n      dup1\n      dup4\n      gt\n      tag_135\n      jumpi\n      dup3\n      swap1\n      sub\n      0x1f\n      and\n      dup3\n      add\n      swap2\n    tag_133:\n      pop\n      pop\n      pop\n      pop\n      pop\n        /* \"contracts/Ballot/Ballot.sol\":5847:5864  tieCandidatesList */\n      dup6\n        /* \"contracts/Ballot/Ballot.sol\":5865:5887  tieCandidatesListIndex */\n      dup6\n        /* \"contracts/Ballot/Ballot.sol\":5847:5888  tieCandidatesList[tieCandidatesListIndex] */\n      dup2\n      mload\n      dup2\n      lt\n      tag_136\n      jumpi\n      tag_137\n      tag_34\n      jump\t// in\n    tag_137:\n    tag_136:\n      0x20\n      mul\n      0x20\n      add\n      add\n        /* \"contracts/Ballot/Ballot.sol\":5847:5929  tieCandidatesList[tieCandidatesListIndex] = candidates[indexCandidate].nameProject */\n      dup2\n      swap1\n      mstore\n      pop\n        /* \"contracts/Ballot/Ballot.sol\":5948:5972  tieCandidatesListIndex++ */\n      dup4\n      dup1\n      tag_138\n      swap1\n      tag_45\n      jump\t// in\n    tag_138:\n      swap5\n      pop\n      pop\n        /* \"contracts/Ballot/Ballot.sol\":5734:5988  if (candidates[indexCandidate].votesCount == winningVoteCount) {\r... */\n    tag_127:\n        /* \"contracts/Ballot/Ballot.sol\":5159:5988  if (candidates[indexCandidate].votesCount > winningVoteCount) {\r... */\n    tag_123:\n        /* \"contracts/Ballot/Ballot.sol\":5126:5142  indexCandidate++ */\n      dup1\n      dup1\n      tag_139\n      swap1\n      tag_45\n      jump\t// in\n    tag_139:\n      swap2\n      pop\n      pop\n        /* \"contracts/Ballot/Ballot.sol\":5061:6011  for (uint indexCandidate = 0; indexCandidate < candidatesLength; indexCandidate++) {\r... */\n      jump(tag_97)\n    tag_98:\n      pop\n        /* \"contracts/Ballot/Ballot.sol\":6029:6034  isTie */\n      dup2\n        /* \"contracts/Ballot/Ballot.sol\":6025:6792  if (isTie) {\r... */\n      iszero\n      tag_140\n      jumpi\n        /* \"contracts/Ballot/Ballot.sol\":6056:6075  uint indexCandidate */\n      0x00\n        /* \"contracts/Ballot/Ballot.sol\":6051:6278  for (uint indexCandidate = 0; indexCandidate < tieCandidatesList.length; indexCandidate++) {\r... */\n    tag_141:\n        /* \"contracts/Ballot/Ballot.sol\":6098:6115  tieCandidatesList */\n      dup5\n        /* \"contracts/Ballot/Ballot.sol\":6098:6122  tieCandidatesList.length */\n      mload\n        /* \"contracts/Ballot/Ballot.sol\":6081:6095  indexCandidate */\n      dup2\n        /* \"contracts/Ballot/Ballot.sol\":6081:6122  indexCandidate < tieCandidatesList.length */\n      lt\n        /* \"contracts/Ballot/Ballot.sol\":6051:6278  for (uint indexCandidate = 0; indexCandidate < tieCandidatesList.length; indexCandidate++) {\r... */\n      iszero\n      tag_142\n      jumpi\n        /* \"contracts/Ballot/Ballot.sol\":6186:6262  concatenateStrings(tieCandidatesListNames,tieCandidatesList[indexCandidate]) */\n      tag_144\n        /* \"contracts/Ballot/Ballot.sol\":6205:6227  tieCandidatesListNames */\n      dup3\n        /* \"contracts/Ballot/Ballot.sol\":6228:6245  tieCandidatesList */\n      dup7\n        /* \"contracts/Ballot/Ballot.sol\":6246:6260  indexCandidate */\n      dup4\n        /* \"contracts/Ballot/Ballot.sol\":6228:6261  tieCandidatesList[indexCandidate] */\n      dup2\n      mload\n      dup2\n      lt\n      tag_145\n      jumpi\n      tag_146\n      tag_34\n      jump\t// in\n    tag_146:\n    tag_145:\n      0x20\n      mul\n      0x20\n      add\n      add\n      mload\n        /* \"contracts/Ballot/Ballot.sol\":6186:6204  concatenateStrings */\n      tag_147\n        /* \"contracts/Ballot/Ballot.sol\":6186:6262  concatenateStrings(tieCandidatesListNames,tieCandidatesList[indexCandidate]) */\n      jump\t// in\n    tag_144:\n        /* \"contracts/Ballot/Ballot.sol\":6161:6262  tieCandidatesListNames = concatenateStrings(tieCandidatesListNames,tieCandidatesList[indexCandidate]) */\n      swap2\n      pop\n        /* \"contracts/Ballot/Ballot.sol\":6124:6140  indexCandidate++ */\n      dup1\n      dup1\n      tag_148\n      swap1\n      tag_45\n      jump\t// in\n    tag_148:\n      swap2\n      pop\n      pop\n        /* \"contracts/Ballot/Ballot.sol\":6051:6278  for (uint indexCandidate = 0; indexCandidate < tieCandidatesList.length; indexCandidate++) {\r... */\n      jump(tag_141)\n    tag_142:\n      pop\n        /* \"contracts/Ballot/Ballot.sol\":6306:6330  string memory tieMessage */\n      0x00\n        /* \"contracts/Ballot/Ballot.sol\":6333:6455  concatenateStrings(\"There is a TIE on Ballot. You should start a new ballot with tie candidates:\", tieCandidatesListNames) */\n      tag_149\n      mload(0x40)\n      dup1\n      0x80\n      add\n      0x40\n      mstore\n      dup1\n      0x4c\n      dup2\n      mstore\n      0x20\n      add\n      data_a86f8a1b7011199112405b0fe6b689f789eb027092e028eada6cd22c39fb5acb\n      0x4c\n      swap2\n      codecopy\n        /* \"contracts/Ballot/Ballot.sol\":6432:6454  tieCandidatesListNames */\n      dup4\n        /* \"contracts/Ballot/Ballot.sol\":6333:6351  concatenateStrings */\n      tag_147\n        /* \"contracts/Ballot/Ballot.sol\":6333:6455  concatenateStrings(\"There is a TIE on Ballot. You should start a new ballot with tie candidates:\", tieCandidatesListNames) */\n      jump\t// in\n    tag_149:\n        /* \"contracts/Ballot/Ballot.sol\":6306:6455  string memory tieMessage = concatenateStrings(\"There is a TIE on Ballot. You should start a new ballot with tie candidates:\", tieCandidatesListNames) */\n      swap1\n      pop\n        /* \"contracts/Ballot/Ballot.sol\":6483:6543  concatenateStrings(tieMessage, \"with this amount of votes:\") */\n      tag_150\n        /* \"contracts/Ballot/Ballot.sol\":6502:6512  tieMessage */\n      dup2\n        /* \"contracts/Ballot/Ballot.sol\":6483:6543  concatenateStrings(tieMessage, \"with this amount of votes:\") */\n      mload(0x40)\n      dup1\n      0x40\n      add\n      0x40\n      mstore\n      dup1\n      0x1a\n      dup2\n      mstore\n      0x20\n      add\n      0x77697468207468697320616d6f756e74206f6620766f7465733a000000000000\n      dup2\n      mstore\n      pop\n        /* \"contracts/Ballot/Ballot.sol\":6483:6501  concatenateStrings */\n      tag_147\n        /* \"contracts/Ballot/Ballot.sol\":6483:6543  concatenateStrings(tieMessage, \"with this amount of votes:\") */\n      jump\t// in\n    tag_150:\n        /* \"contracts/Ballot/Ballot.sol\":6470:6543  tieMessage = concatenateStrings(tieMessage, \"with this amount of votes:\") */\n      swap1\n      pop\n        /* \"contracts/Ballot/Ballot.sol\":6571:6637  concatenateStrings(tieMessage, Strings.toString(winningVoteCount)) */\n      tag_151\n        /* \"contracts/Ballot/Ballot.sol\":6590:6600  tieMessage */\n      dup2\n        /* \"contracts/Ballot/Ballot.sol\":6602:6636  Strings.toString(winningVoteCount) */\n      tag_152\n        /* \"contracts/Ballot/Ballot.sol\":6619:6635  winningVoteCount */\n      dup11\n        /* \"contracts/Ballot/Ballot.sol\":6602:6618  Strings.toString */\n      tag_153\n        /* \"contracts/Ballot/Ballot.sol\":6602:6636  Strings.toString(winningVoteCount) */\n      jump\t// in\n    tag_152:\n        /* \"contracts/Ballot/Ballot.sol\":6571:6589  concatenateStrings */\n      tag_147\n        /* \"contracts/Ballot/Ballot.sol\":6571:6637  concatenateStrings(tieMessage, Strings.toString(winningVoteCount)) */\n      jump\t// in\n    tag_151:\n        /* \"contracts/Ballot/Ballot.sol\":6558:6637  tieMessage = concatenateStrings(tieMessage, Strings.toString(winningVoteCount)) */\n      swap1\n      pop\n        /* \"contracts/Ballot/Ballot.sol\":6662:6695  getTieRequire(!isTie, tieMessage) */\n      tag_154\n        /* \"contracts/Ballot/Ballot.sol\":6677:6682  isTie */\n      dup4\n        /* \"contracts/Ballot/Ballot.sol\":6676:6682  !isTie */\n      iszero\n        /* \"contracts/Ballot/Ballot.sol\":6684:6694  tieMessage */\n      dup3\n        /* \"contracts/Ballot/Ballot.sol\":6662:6675  getTieRequire */\n      tag_155\n        /* \"contracts/Ballot/Ballot.sol\":6662:6695  getTieRequire(!isTie, tieMessage) */\n      jump\t// in\n    tag_154:\n        /* \"contracts/Ballot/Ballot.sol\":6036:6707  {\r... */\n      pop\n        /* \"contracts/Ballot/Ballot.sol\":6025:6792  if (isTie) {\r... */\n      jump(tag_156)\n    tag_140:\n        /* \"contracts/Ballot/Ballot.sol\":6747:6757  candidates */\n      0x02\n        /* \"contracts/Ballot/Ballot.sol\":6758:6779  winningCandidateIndex */\n      dup7\n        /* \"contracts/Ballot/Ballot.sol\":6747:6780  candidates[winningCandidateIndex] */\n      dup2\n      sload\n      dup2\n      lt\n      tag_157\n      jumpi\n      tag_158\n      tag_34\n      jump\t// in\n    tag_158:\n    tag_157:\n      swap1\n      0x00\n      mstore\n      keccak256(0x00, 0x20)\n      swap1\n      0x02\n      mul\n      add\n        /* \"contracts/Ballot/Ballot.sol\":6728:6780  winningCandidate = candidates[winningCandidateIndex] */\n      mload(0x40)\n      dup1\n      0x40\n      add\n      0x40\n      mstore\n      swap1\n      dup2\n      0x00\n      dup3\n      add\n      dup1\n      sload\n      tag_160\n      swap1\n      tag_37\n      jump\t// in\n    tag_160:\n      dup1\n      0x1f\n      add\n      0x20\n      dup1\n      swap2\n      div\n      mul\n      0x20\n      add\n      mload(0x40)\n      swap1\n      dup2\n      add\n      0x40\n      mstore\n      dup1\n      swap3\n      swap2\n      swap1\n      dup2\n      dup2\n      mstore\n      0x20\n      add\n      dup3\n      dup1\n      sload\n      tag_161\n      swap1\n      tag_37\n      jump\t// in\n    tag_161:\n      dup1\n      iszero\n      tag_162\n      jumpi\n      dup1\n      0x1f\n      lt\n      tag_163\n      jumpi\n      0x0100\n      dup1\n      dup4\n      sload\n      div\n      mul\n      dup4\n      mstore\n      swap2\n      0x20\n      add\n      swap2\n      jump(tag_162)\n    tag_163:\n      dup3\n      add\n      swap2\n      swap1\n      0x00\n      mstore\n      keccak256(0x00, 0x20)\n      swap1\n    tag_164:\n      dup2\n      sload\n      dup2\n      mstore\n      swap1\n      0x01\n      add\n      swap1\n      0x20\n      add\n      dup1\n      dup4\n      gt\n      tag_164\n      jumpi\n      dup3\n      swap1\n      sub\n      0x1f\n      and\n      dup3\n      add\n      swap2\n    tag_162:\n      pop\n      pop\n      pop\n      pop\n      pop\n      dup2\n      mstore\n      0x20\n      add\n      0x01\n      dup3\n      add\n      sload\n      dup2\n      mstore\n      pop\n      pop\n      swap8\n      pop\n        /* \"contracts/Ballot/Ballot.sol\":6025:6792  if (isTie) {\r... */\n    tag_156:\n        /* \"contracts/Ballot/Ballot.sol\":4717:6799  {        \r... */\n      pop\n      pop\n      pop\n      pop\n      pop\n      pop\n      pop\n        /* \"contracts/Ballot/Ballot.sol\":4630:6799  function getWinnerCandidate() private view returns (Candidate memory winningCandidate) {        \r... */\n      swap1\n      jump\t// out\n        /* \"contracts/Ballot/Ballot.sol\":7222:7322  function getContractAddress() private view returns (address) {\r... */\n    tag_50:\n        /* \"contracts/Ballot/Ballot.sol\":7274:7281  address */\n      0x00\n        /* \"contracts/Ballot/Ballot.sol\":7309:7313  this */\n      address\n        /* \"contracts/Ballot/Ballot.sol\":7294:7314  return address(this) */\n      swap1\n      pop\n        /* \"contracts/Ballot/Ballot.sol\":7222:7322  function getContractAddress() private view returns (address) {\r... */\n      swap1\n      jump\t// out\n        /* \"contracts/Ballot/Ballot.sol\":1626:1837  function getTotalVotesCounterReachedRequire() private view {\r... */\n    tag_53:\n        /* \"contracts/Ballot/Ballot.sol\":1745:1753  maxVotes */\n      sload(0x04)\n        /* \"contracts/Ballot/Ballot.sol\":1725:1742  totalVotesCounter */\n      sload(0x03)\n        /* \"contracts/Ballot/Ballot.sol\":1725:1753  totalVotesCounter < maxVotes */\n      lt\n        /* \"contracts/Ballot/Ballot.sol\":1703:1829  require(\r... */\n      tag_167\n      jumpi\n      mload(0x40)\n      0x08c379a000000000000000000000000000000000000000000000000000000000\n      dup2\n      mstore\n      0x04\n      add\n      tag_168\n      swap1\n      tag_169\n      jump\t// in\n    tag_168:\n      mload(0x40)\n      dup1\n      swap2\n      sub\n      swap1\n      revert\n    tag_167:\n        /* \"contracts/Ballot/Ballot.sol\":1626:1837  function getTotalVotesCounterReachedRequire() private view {\r... */\n      jump\t// out\n        /* \"contracts/Ballot/Ballot.sol\":2604:2799  function getYouContractOwnerRequire() private view {\r... */\n    tag_55:\n        /* \"contracts/Ballot/Ballot.sol\":2695:2716  areYouContractOwner() */\n      tag_171\n        /* \"contracts/Ballot/Ballot.sol\":2695:2714  areYouContractOwner */\n      tag_172\n        /* \"contracts/Ballot/Ballot.sol\":2695:2716  areYouContractOwner() */\n      jump\t// in\n    tag_171:\n        /* \"contracts/Ballot/Ballot.sol\":2673:2791  require(\r... */\n      tag_173\n      jumpi\n      mload(0x40)\n      0x08c379a000000000000000000000000000000000000000000000000000000000\n      dup2\n      mstore\n      0x04\n      add\n      tag_174\n      swap1\n      tag_175\n      jump\t// in\n    tag_174:\n      mload(0x40)\n      dup1\n      swap2\n      sub\n      swap1\n      revert\n    tag_173:\n        /* \"contracts/Ballot/Ballot.sol\":2604:2799  function getYouContractOwnerRequire() private view {\r... */\n      jump\t// out\n        /* \"contracts/Ballot/Ballot.sol\":2388:2596  function getRightToVoteRequire(address voterAddress) private view {\r... */\n    tag_57:\n        /* \"contracts/Ballot/Ballot.sol\":2495:2501  voters */\n      0x01\n        /* \"contracts/Ballot/Ballot.sol\":2495:2515  voters[voterAddress] */\n      0x00\n        /* \"contracts/Ballot/Ballot.sol\":2502:2514  voterAddress */\n      dup3\n        /* \"contracts/Ballot/Ballot.sol\":2495:2515  voters[voterAddress] */\n      0xffffffffffffffffffffffffffffffffffffffff\n      and\n      0xffffffffffffffffffffffffffffffffffffffff\n      and\n      dup2\n      mstore\n      0x20\n      add\n      swap1\n      dup2\n      mstore\n      0x20\n      add\n      0x00\n      keccak256\n        /* \"contracts/Ballot/Ballot.sol\":2495:2523  voters[voterAddress].canVote */\n      0x01\n      add\n      0x00\n      swap1\n      sload\n      swap1\n      0x0100\n      exp\n      swap1\n      div\n      0xff\n      and\n        /* \"contracts/Ballot/Ballot.sol\":2494:2523  !voters[voterAddress].canVote */\n      iszero\n        /* \"contracts/Ballot/Ballot.sol\":2472:2588  require(\r... */\n      tag_177\n      jumpi\n      mload(0x40)\n      0x08c379a000000000000000000000000000000000000000000000000000000000\n      dup2\n      mstore\n      0x04\n      add\n      tag_178\n      swap1\n      tag_179\n      jump\t// in\n    tag_178:\n      mload(0x40)\n      dup1\n      swap2\n      sub\n      swap1\n      revert\n    tag_177:\n        /* \"contracts/Ballot/Ballot.sol\":2388:2596  function getRightToVoteRequire(address voterAddress) private view {\r... */\n      pop\n      jump\t// out\n        /* \"contracts/Ballot/Ballot.sol\":1429:1618  function getVoterVotedRequire(address voterAddress) private view {\r... */\n    tag_59:\n        /* \"contracts/Ballot/Ballot.sol\":1535:1562  getVoterVoted(voterAddress) */\n      tag_181\n        /* \"contracts/Ballot/Ballot.sol\":1549:1561  voterAddress */\n      dup2\n        /* \"contracts/Ballot/Ballot.sol\":1535:1548  getVoterVoted */\n      tag_182\n        /* \"contracts/Ballot/Ballot.sol\":1535:1562  getVoterVoted(voterAddress) */\n      jump\t// in\n    tag_181:\n        /* \"contracts/Ballot/Ballot.sol\":1534:1562  !getVoterVoted(voterAddress) */\n      iszero\n        /* \"contracts/Ballot/Ballot.sol\":1512:1610  require(\r... */\n      tag_183\n      jumpi\n      mload(0x40)\n      0x08c379a000000000000000000000000000000000000000000000000000000000\n      dup2\n      mstore\n      0x04\n      add\n      tag_184\n      swap1\n      tag_185\n      jump\t// in\n    tag_184:\n      mload(0x40)\n      dup1\n      swap2\n      sub\n      swap1\n      revert\n    tag_183:\n        /* \"contracts/Ballot/Ballot.sol\":1429:1618  function getVoterVotedRequire(address voterAddress) private view {\r... */\n      pop\n      jump\t// out\n        /* \"contracts/Ballot/Ballot.sol\":7881:8048  function stringEqualTo(string memory s1, string memory s2) private pure returns (bool) {\r... */\n    tag_80:\n        /* \"contracts/Ballot/Ballot.sol\":7962:7966  bool */\n      0x00\n        /* \"contracts/Ballot/Ballot.sol\":8036:8038  s2 */\n      dup2\n        /* \"contracts/Ballot/Ballot.sol\":8025:8039  abi.encode(s2) */\n      add(0x20, mload(0x40))\n      tag_187\n      swap2\n      swap1\n      tag_188\n      jump\t// in\n    tag_187:\n      mload(0x40)\n      0x20\n      dup2\n      dup4\n      sub\n      sub\n      dup2\n      mstore\n      swap1\n      0x40\n      mstore\n        /* \"contracts/Ballot/Ballot.sol\":8015:8040  keccak256(abi.encode(s2)) */\n      dup1\n      mload\n      swap1\n      0x20\n      add\n      keccak256\n        /* \"contracts/Ballot/Ballot.sol\":8007:8009  s1 */\n      dup4\n        /* \"contracts/Ballot/Ballot.sol\":7996:8010  abi.encode(s1) */\n      add(0x20, mload(0x40))\n      tag_189\n      swap2\n      swap1\n      tag_188\n      jump\t// in\n    tag_189:\n      mload(0x40)\n      0x20\n      dup2\n      dup4\n      sub\n      sub\n      dup2\n      mstore\n      swap1\n      0x40\n      mstore\n        /* \"contracts/Ballot/Ballot.sol\":7986:8011  keccak256(abi.encode(s1)) */\n      dup1\n      mload\n      swap1\n      0x20\n      add\n      keccak256\n        /* \"contracts/Ballot/Ballot.sol\":7986:8040  keccak256(abi.encode(s1)) == keccak256(abi.encode(s2)) */\n      eq\n        /* \"contracts/Ballot/Ballot.sol\":7979:8040  return keccak256(abi.encode(s1)) == keccak256(abi.encode(s2)) */\n      swap1\n      pop\n        /* \"contracts/Ballot/Ballot.sol\":7881:8048  function stringEqualTo(string memory s1, string memory s2) private pure returns (bool) {\r... */\n      swap3\n      swap2\n      pop\n      pop\n      jump\t// out\n        /* \"contracts/Ballot/Ballot.sol\":1845:2022  function getCandidateExistRequire(bool isExist) private pure {\r... */\n    tag_89:\n        /* \"contracts/Ballot/Ballot.sol\":1946:1953  isExist */\n      dup1\n        /* \"contracts/Ballot/Ballot.sol\":1924:2014  require(\r... */\n      tag_191\n      jumpi\n      mload(0x40)\n      0x08c379a000000000000000000000000000000000000000000000000000000000\n      dup2\n      mstore\n      0x04\n      add\n      tag_192\n      swap1\n      tag_193\n      jump\t// in\n    tag_192:\n      mload(0x40)\n      dup1\n      swap2\n      sub\n      swap1\n      revert\n    tag_191:\n        /* \"contracts/Ballot/Ballot.sol\":1845:2022  function getCandidateExistRequire(bool isExist) private pure {\r... */\n      pop\n      jump\t// out\n        /* \"contracts/Ballot/Ballot.sol\":8056:8221  function concatenateStrings(string memory s1, string memory s2) private pure returns (string memory) {\r... */\n    tag_147:\n        /* \"contracts/Ballot/Ballot.sol\":8142:8155  string memory */\n      0x60\n        /* \"contracts/Ballot/Ballot.sol\":8199:8201  s1 */\n      dup3\n        /* \"contracts/Ballot/Ballot.sol\":8209:8211  s2 */\n      dup3\n        /* \"contracts/Ballot/Ballot.sol\":8182:8212  abi.encodePacked(s1, \" \" , s2) */\n      add(0x20, mload(0x40))\n      tag_195\n      swap3\n      swap2\n      swap1\n      tag_196\n      jump\t// in\n    tag_195:\n      mload(0x40)\n      0x20\n      dup2\n      dup4\n      sub\n      sub\n      dup2\n      mstore\n      swap1\n      0x40\n      mstore\n        /* \"contracts/Ballot/Ballot.sol\":8168:8213  return string(abi.encodePacked(s1, \" \" , s2)) */\n      swap1\n      pop\n        /* \"contracts/Ballot/Ballot.sol\":8056:8221  function concatenateStrings(string memory s1, string memory s2) private pure returns (string memory) {\r... */\n      swap3\n      swap2\n      pop\n      pop\n      jump\t// out\n        /* \"@openzeppelin/contracts/utils/Strings.sol\":392:1095  function toString(uint256 value) internal pure returns (string memory) {... */\n    tag_153:\n        /* \"@openzeppelin/contracts/utils/Strings.sol\":448:461  string memory */\n      0x60\n        /* \"@openzeppelin/contracts/utils/Strings.sol\":674:675  0 */\n      0x00\n        /* \"@openzeppelin/contracts/utils/Strings.sol\":665:670  value */\n      dup3\n        /* \"@openzeppelin/contracts/utils/Strings.sol\":665:675  value == 0 */\n      eq\n        /* \"@openzeppelin/contracts/utils/Strings.sol\":661:712  if (value == 0) {... */\n      iszero\n      tag_198\n      jumpi\n        /* \"@openzeppelin/contracts/utils/Strings.sol\":691:701  return \"0\" */\n      mload(0x40)\n      dup1\n      0x40\n      add\n      0x40\n      mstore\n      dup1\n      0x01\n      dup2\n      mstore\n      0x20\n      add\n      0x3000000000000000000000000000000000000000000000000000000000000000\n      dup2\n      mstore\n      pop\n      swap1\n      pop\n      jump(tag_197)\n        /* \"@openzeppelin/contracts/utils/Strings.sol\":661:712  if (value == 0) {... */\n    tag_198:\n        /* \"@openzeppelin/contracts/utils/Strings.sol\":721:733  uint256 temp */\n      0x00\n        /* \"@openzeppelin/contracts/utils/Strings.sol\":736:741  value */\n      dup3\n        /* \"@openzeppelin/contracts/utils/Strings.sol\":721:741  uint256 temp = value */\n      swap1\n      pop\n        /* \"@openzeppelin/contracts/utils/Strings.sol\":751:765  uint256 digits */\n      0x00\n        /* \"@openzeppelin/contracts/utils/Strings.sol\":775:850  while (temp != 0) {... */\n    tag_199:\n        /* \"@openzeppelin/contracts/utils/Strings.sol\":790:791  0 */\n      0x00\n        /* \"@openzeppelin/contracts/utils/Strings.sol\":782:786  temp */\n      dup3\n        /* \"@openzeppelin/contracts/utils/Strings.sol\":782:791  temp != 0 */\n      eq\n        /* \"@openzeppelin/contracts/utils/Strings.sol\":775:850  while (temp != 0) {... */\n      tag_200\n      jumpi\n        /* \"@openzeppelin/contracts/utils/Strings.sol\":807:815  digits++ */\n      dup1\n      dup1\n      tag_201\n      swap1\n      tag_45\n      jump\t// in\n    tag_201:\n      swap2\n      pop\n      pop\n        /* \"@openzeppelin/contracts/utils/Strings.sol\":837:839  10 */\n      0x0a\n        /* \"@openzeppelin/contracts/utils/Strings.sol\":829:839  temp /= 10 */\n      dup3\n      tag_202\n      swap2\n      swap1\n      tag_203\n      jump\t// in\n    tag_202:\n      swap2\n      pop\n        /* \"@openzeppelin/contracts/utils/Strings.sol\":775:850  while (temp != 0) {... */\n      jump(tag_199)\n    tag_200:\n        /* \"@openzeppelin/contracts/utils/Strings.sol\":859:878  bytes memory buffer */\n      0x00\n        /* \"@openzeppelin/contracts/utils/Strings.sol\":891:897  digits */\n      dup2\n        /* \"@openzeppelin/contracts/utils/Strings.sol\":881:898  new bytes(digits) */\n      0xffffffffffffffff\n      dup2\n      gt\n      iszero\n      tag_204\n      jumpi\n      tag_205\n      tag_26\n      jump\t// in\n    tag_205:\n    tag_204:\n      mload(0x40)\n      swap1\n      dup1\n      dup3\n      mstore\n      dup1\n      0x1f\n      add\n      not(0x1f)\n      and\n      0x20\n      add\n      dup3\n      add\n      0x40\n      mstore\n      dup1\n      iszero\n      tag_206\n      jumpi\n      dup2\n      0x20\n      add\n      0x01\n      dup3\n      mul\n      dup1\n      calldatasize\n      dup4\n      calldatacopy\n      dup1\n      dup3\n      add\n      swap2\n      pop\n      pop\n      swap1\n      pop\n    tag_206:\n      pop\n        /* \"@openzeppelin/contracts/utils/Strings.sol\":859:898  bytes memory buffer = new bytes(digits) */\n      swap1\n      pop\n        /* \"@openzeppelin/contracts/utils/Strings.sol\":908:1058  while (value != 0) {... */\n    tag_207:\n        /* \"@openzeppelin/contracts/utils/Strings.sol\":924:925  0 */\n      0x00\n        /* \"@openzeppelin/contracts/utils/Strings.sol\":915:920  value */\n      dup6\n        /* \"@openzeppelin/contracts/utils/Strings.sol\":915:925  value != 0 */\n      eq\n        /* \"@openzeppelin/contracts/utils/Strings.sol\":908:1058  while (value != 0) {... */\n      tag_208\n      jumpi\n        /* \"@openzeppelin/contracts/utils/Strings.sol\":951:952  1 */\n      0x01\n        /* \"@openzeppelin/contracts/utils/Strings.sol\":941:952  digits -= 1 */\n      dup3\n      tag_209\n      swap2\n      swap1\n      tag_210\n      jump\t// in\n    tag_209:\n      swap2\n      pop\n        /* \"@openzeppelin/contracts/utils/Strings.sol\":1017:1019  10 */\n      0x0a\n        /* \"@openzeppelin/contracts/utils/Strings.sol\":1009:1014  value */\n      dup6\n        /* \"@openzeppelin/contracts/utils/Strings.sol\":1009:1019  value % 10 */\n      tag_211\n      swap2\n      swap1\n      tag_212\n      jump\t// in\n    tag_211:\n        /* \"@openzeppelin/contracts/utils/Strings.sol\":996:998  48 */\n      0x30\n        /* \"@openzeppelin/contracts/utils/Strings.sol\":996:1020  48 + uint256(value % 10) */\n      tag_213\n      swap2\n      swap1\n      tag_214\n      jump\t// in\n    tag_213:\n        /* \"@openzeppelin/contracts/utils/Strings.sol\":983:1022  bytes1(uint8(48 + uint256(value % 10))) */\n      0xf8\n      shl\n        /* \"@openzeppelin/contracts/utils/Strings.sol\":966:972  buffer */\n      dup2\n        /* \"@openzeppelin/contracts/utils/Strings.sol\":973:979  digits */\n      dup4\n        /* \"@openzeppelin/contracts/utils/Strings.sol\":966:980  buffer[digits] */\n      dup2\n      mload\n      dup2\n      lt\n      tag_215\n      jumpi\n      tag_216\n      tag_34\n      jump\t// in\n    tag_216:\n    tag_215:\n      0x20\n      add\n      add\n        /* \"@openzeppelin/contracts/utils/Strings.sol\":966:1022  buffer[digits] = bytes1(uint8(48 + uint256(value % 10))) */\n      swap1\n      not(0xffffffffffffffffffffffffffffffffffffffffffffffffffffffffffffff)\n      and\n      swap1\n      dup2\n      0x00\n      byte\n      swap1\n      mstore8\n      pop\n        /* \"@openzeppelin/contracts/utils/Strings.sol\":1045:1047  10 */\n      0x0a\n        /* \"@openzeppelin/contracts/utils/Strings.sol\":1036:1047  value /= 10 */\n      dup6\n      tag_217\n      swap2\n      swap1\n      tag_203\n      jump\t// in\n    tag_217:\n      swap5\n      pop\n        /* \"@openzeppelin/contracts/utils/Strings.sol\":908:1058  while (value != 0) {... */\n      jump(tag_207)\n    tag_208:\n        /* \"@openzeppelin/contracts/utils/Strings.sol\":1081:1087  buffer */\n      dup1\n        /* \"@openzeppelin/contracts/utils/Strings.sol\":1067:1088  return string(buffer) */\n      swap4\n      pop\n      pop\n      pop\n      pop\n        /* \"@openzeppelin/contracts/utils/Strings.sol\":392:1095  function toString(uint256 value) internal pure returns (string memory) {... */\n    tag_197:\n      swap2\n      swap1\n      pop\n      jump\t// out\n        /* \"contracts/Ballot/Ballot.sol\":2030:2193  function getTieRequire(bool isTie, string memory tieMessage) private pure {\r... */\n    tag_155:\n        /* \"contracts/Ballot/Ballot.sol\":2144:2149  isTie */\n      dup2\n        /* \"contracts/Ballot/Ballot.sol\":2164:2174  tieMessage */\n      dup2\n        /* \"contracts/Ballot/Ballot.sol\":2122:2185  require(\r... */\n      swap1\n      tag_219\n      jumpi\n      mload(0x40)\n      0x08c379a000000000000000000000000000000000000000000000000000000000\n      dup2\n      mstore\n      0x04\n      add\n      tag_220\n      swap2\n      swap1\n      tag_188\n      jump\t// in\n    tag_220:\n      mload(0x40)\n      dup1\n      swap2\n      sub\n      swap1\n      revert\n    tag_219:\n      pop\n        /* \"contracts/Ballot/Ballot.sol\":2030:2193  function getTieRequire(bool isTie, string memory tieMessage) private pure {\r... */\n      pop\n      pop\n      jump\t// out\n        /* \"contracts/Ballot/Ballot.sol\":7330:7442  function areYouContractOwner() private view returns (bool) {\r... */\n    tag_172:\n        /* \"contracts/Ballot/Ballot.sol\":7383:7387  bool */\n      0x00\n        /* \"contracts/Ballot/Ballot.sol\":7421:7434  contractOwner */\n      dup1\n      0x00\n      swap1\n      sload\n      swap1\n      0x0100\n      exp\n      swap1\n      div\n      0xffffffffffffffffffffffffffffffffffffffff\n      and\n        /* \"contracts/Ballot/Ballot.sol\":7407:7434  msg.sender == contractOwner */\n      0xffffffffffffffffffffffffffffffffffffffff\n      and\n        /* \"contracts/Ballot/Ballot.sol\":7407:7417  msg.sender */\n      caller\n        /* \"contracts/Ballot/Ballot.sol\":7407:7434  msg.sender == contractOwner */\n      0xffffffffffffffffffffffffffffffffffffffff\n      and\n      eq\n        /* \"contracts/Ballot/Ballot.sol\":7400:7434  return msg.sender == contractOwner */\n      swap1\n      pop\n        /* \"contracts/Ballot/Ballot.sol\":7330:7442  function areYouContractOwner() private view returns (bool) {\r... */\n      swap1\n      jump\t// out\n        /* \"contracts/Ballot/Ballot.sol\":7717:7845  function getVoterVoted(address voterAddress) private view returns (bool) {\r... */\n    tag_182:\n        /* \"contracts/Ballot/Ballot.sol\":7784:7788  bool */\n      0x00\n        /* \"contracts/Ballot/Ballot.sol\":7808:7814  voters */\n      0x01\n        /* \"contracts/Ballot/Ballot.sol\":7808:7828  voters[voterAddress] */\n      0x00\n        /* \"contracts/Ballot/Ballot.sol\":7815:7827  voterAddress */\n      dup4\n        /* \"contracts/Ballot/Ballot.sol\":7808:7828  voters[voterAddress] */\n      0xffffffffffffffffffffffffffffffffffffffff\n      and\n      0xffffffffffffffffffffffffffffffffffffffff\n      and\n      dup2\n      mstore\n      0x20\n      add\n      swap1\n      dup2\n      mstore\n      0x20\n      add\n      0x00\n      keccak256\n        /* \"contracts/Ballot/Ballot.sol\":7808:7837  voters[voterAddress].hasVoted */\n      0x01\n      add\n      0x01\n      swap1\n      sload\n      swap1\n      0x0100\n      exp\n      swap1\n      div\n      0xff\n      and\n        /* \"contracts/Ballot/Ballot.sol\":7801:7837  return voters[voterAddress].hasVoted */\n      swap1\n      pop\n        /* \"contracts/Ballot/Ballot.sol\":7717:7845  function getVoterVoted(address voterAddress) private view returns (bool) {\r... */\n      swap2\n      swap1\n      pop\n      jump\t// out\n    tag_62:\n      dup3\n      dup1\n      sload\n      tag_223\n      swap1\n      tag_37\n      jump\t// in\n    tag_223:\n      swap1\n      0x00\n      mstore\n      keccak256(0x00, 0x20)\n      swap1\n      0x1f\n      add\n      0x20\n      swap1\n      div\n      dup2\n      add\n      swap3\n      dup3\n      tag_225\n      jumpi\n      0x00\n      dup6\n      sstore\n      jump(tag_224)\n    tag_225:\n      dup3\n      0x1f\n      lt\n      tag_226\n      jumpi\n      dup1\n      mload\n      not(0xff)\n      and\n      dup4\n      dup1\n      add\n      or\n      dup6\n      sstore\n      jump(tag_224)\n    tag_226:\n      dup3\n      dup1\n      add\n      0x01\n      add\n      dup6\n      sstore\n      dup3\n      iszero\n      tag_224\n      jumpi\n      swap2\n      dup3\n      add\n    tag_227:\n      dup3\n      dup2\n      gt\n      iszero\n      tag_228\n      jumpi\n      dup3\n      mload\n      dup3\n      sstore\n      swap2\n      0x20\n      add\n      swap2\n      swap1\n      0x01\n      add\n      swap1\n      jump(tag_227)\n    tag_228:\n    tag_224:\n      pop\n      swap1\n      pop\n      tag_229\n      swap2\n      swap1\n      tag_230\n      jump\t// in\n    tag_229:\n      pop\n      swap1\n      jump\t// out\n    tag_91:\n      mload(0x40)\n      dup1\n      0x40\n      add\n      0x40\n      mstore\n      dup1\n      0x60\n      dup2\n      mstore\n      0x20\n      add\n      0x00\n      dup2\n      mstore\n      pop\n      swap1\n      jump\t// out\n    tag_230:\n    tag_231:\n      dup1\n      dup3\n      gt\n      iszero\n      tag_232\n      jumpi\n      0x00\n      dup2\n      0x00\n      swap1\n      sstore\n      pop\n      0x01\n      add\n      jump(tag_231)\n    tag_232:\n      pop\n      swap1\n      jump\t// out\n        /* \"#utility.yul\":7:419   */\n    tag_234:\n        /* \"#utility.yul\":85:90   */\n      0x00\n        /* \"#utility.yul\":110:176   */\n      tag_236\n        /* \"#utility.yul\":126:175   */\n      tag_237\n        /* \"#utility.yul\":168:174   */\n      dup5\n        /* \"#utility.yul\":126:175   */\n      tag_238\n      jump\t// in\n    tag_237:\n        /* \"#utility.yul\":110:176   */\n      tag_239\n      jump\t// in\n    tag_236:\n        /* \"#utility.yul\":101:176   */\n      swap1\n      pop\n        /* \"#utility.yul\":199:205   */\n      dup3\n        /* \"#utility.yul\":192:197   */\n      dup2\n        /* \"#utility.yul\":185:206   */\n      mstore\n        /* \"#utility.yul\":237:241   */\n      0x20\n        /* \"#utility.yul\":230:235   */\n      dup2\n        /* \"#utility.yul\":226:242   */\n      add\n        /* \"#utility.yul\":275:278   */\n      dup5\n        /* \"#utility.yul\":266:272   */\n      dup5\n        /* \"#utility.yul\":261:264   */\n      dup5\n        /* \"#utility.yul\":257:273   */\n      add\n        /* \"#utility.yul\":254:279   */\n      gt\n        /* \"#utility.yul\":251:363   */\n      iszero\n      tag_240\n      jumpi\n        /* \"#utility.yul\":282:361   */\n      tag_241\n      tag_242\n      jump\t// in\n    tag_241:\n        /* \"#utility.yul\":251:363   */\n    tag_240:\n        /* \"#utility.yul\":372:413   */\n      tag_243\n        /* \"#utility.yul\":406:412   */\n      dup5\n        /* \"#utility.yul\":401:404   */\n      dup3\n        /* \"#utility.yul\":396:399   */\n      dup6\n        /* \"#utility.yul\":372:413   */\n      tag_244\n      jump\t// in\n    tag_243:\n        /* \"#utility.yul\":91:419   */\n      pop\n        /* \"#utility.yul\":7:419   */\n      swap4\n      swap3\n      pop\n      pop\n      pop\n      jump\t// out\n        /* \"#utility.yul\":425:564   */\n    tag_245:\n        /* \"#utility.yul\":471:476   */\n      0x00\n        /* \"#utility.yul\":509:515   */\n      dup2\n        /* \"#utility.yul\":496:516   */\n      calldataload\n        /* \"#utility.yul\":487:516   */\n      swap1\n      pop\n        /* \"#utility.yul\":525:558   */\n      tag_247\n        /* \"#utility.yul\":552:557   */\n      dup2\n        /* \"#utility.yul\":525:558   */\n      tag_248\n      jump\t// in\n    tag_247:\n        /* \"#utility.yul\":425:564   */\n      swap3\n      swap2\n      pop\n      pop\n      jump\t// out\n        /* \"#utility.yul\":584:924   */\n    tag_249:\n        /* \"#utility.yul\":640:645   */\n      0x00\n        /* \"#utility.yul\":689:692   */\n      dup3\n        /* \"#utility.yul\":682:686   */\n      0x1f\n        /* \"#utility.yul\":674:680   */\n      dup4\n        /* \"#utility.yul\":670:687   */\n      add\n        /* \"#utility.yul\":666:693   */\n      slt\n        /* \"#utility.yul\":656:778   */\n      tag_251\n      jumpi\n        /* \"#utility.yul\":697:776   */\n      tag_252\n      tag_253\n      jump\t// in\n    tag_252:\n        /* \"#utility.yul\":656:778   */\n    tag_251:\n        /* \"#utility.yul\":814:820   */\n      dup2\n        /* \"#utility.yul\":801:821   */\n      calldataload\n        /* \"#utility.yul\":839:918   */\n      tag_254\n        /* \"#utility.yul\":914:917   */\n      dup5\n        /* \"#utility.yul\":906:912   */\n      dup3\n        /* \"#utility.yul\":899:903   */\n      0x20\n        /* \"#utility.yul\":891:897   */\n      dup7\n        /* \"#utility.yul\":887:904   */\n      add\n        /* \"#utility.yul\":839:918   */\n      tag_234\n      jump\t// in\n    tag_254:\n        /* \"#utility.yul\":830:918   */\n      swap2\n      pop\n        /* \"#utility.yul\":646:924   */\n      pop\n        /* \"#utility.yul\":584:924   */\n      swap3\n      swap2\n      pop\n      pop\n      jump\t// out\n        /* \"#utility.yul\":930:1584   */\n    tag_17:\n        /* \"#utility.yul\":1008:1014   */\n      0x00\n        /* \"#utility.yul\":1016:1022   */\n      dup1\n        /* \"#utility.yul\":1065:1067   */\n      0x40\n        /* \"#utility.yul\":1053:1062   */\n      dup4\n        /* \"#utility.yul\":1044:1051   */\n      dup6\n        /* \"#utility.yul\":1040:1063   */\n      sub\n        /* \"#utility.yul\":1036:1068   */\n      slt\n        /* \"#utility.yul\":1033:1152   */\n      iszero\n      tag_256\n      jumpi\n        /* \"#utility.yul\":1071:1150   */\n      tag_257\n      tag_258\n      jump\t// in\n    tag_257:\n        /* \"#utility.yul\":1033:1152   */\n    tag_256:\n        /* \"#utility.yul\":1191:1192   */\n      0x00\n        /* \"#utility.yul\":1216:1269   */\n      tag_259\n        /* \"#utility.yul\":1261:1268   */\n      dup6\n        /* \"#utility.yul\":1252:1258   */\n      dup3\n        /* \"#utility.yul\":1241:1250   */\n      dup7\n        /* \"#utility.yul\":1237:1259   */\n      add\n        /* \"#utility.yul\":1216:1269   */\n      tag_245\n      jump\t// in\n    tag_259:\n        /* \"#utility.yul\":1206:1269   */\n      swap3\n      pop\n        /* \"#utility.yul\":1162:1279   */\n      pop\n        /* \"#utility.yul\":1346:1348   */\n      0x20\n        /* \"#utility.yul\":1335:1344   */\n      dup4\n        /* \"#utility.yul\":1331:1349   */\n      add\n        /* \"#utility.yul\":1318:1350   */\n      calldataload\n        /* \"#utility.yul\":1377:1395   */\n      0xffffffffffffffff\n        /* \"#utility.yul\":1369:1375   */\n      dup2\n        /* \"#utility.yul\":1366:1396   */\n      gt\n        /* \"#utility.yul\":1363:1480   */\n      iszero\n      tag_260\n      jumpi\n        /* \"#utility.yul\":1399:1478   */\n      tag_261\n      tag_262\n      jump\t// in\n    tag_261:\n        /* \"#utility.yul\":1363:1480   */\n    tag_260:\n        /* \"#utility.yul\":1504:1567   */\n      tag_263\n        /* \"#utility.yul\":1559:1566   */\n      dup6\n        /* \"#utility.yul\":1550:1556   */\n      dup3\n        /* \"#utility.yul\":1539:1548   */\n      dup7\n        /* \"#utility.yul\":1535:1557   */\n      add\n        /* \"#utility.yul\":1504:1567   */\n      tag_249\n      jump\t// in\n    tag_263:\n        /* \"#utility.yul\":1494:1567   */\n      swap2\n      pop\n        /* \"#utility.yul\":1289:1577   */\n      pop\n        /* \"#utility.yul\":930:1584   */\n      swap3\n      pop\n      swap3\n      swap1\n      pop\n      jump\t// out\n        /* \"#utility.yul\":1590:2099   */\n    tag_21:\n        /* \"#utility.yul\":1659:1665   */\n      0x00\n        /* \"#utility.yul\":1708:1710   */\n      0x20\n        /* \"#utility.yul\":1696:1705   */\n      dup3\n        /* \"#utility.yul\":1687:1694   */\n      dup5\n        /* \"#utility.yul\":1683:1706   */\n      sub\n        /* \"#utility.yul\":1679:1711   */\n      slt\n        /* \"#utility.yul\":1676:1795   */\n      iszero\n      tag_265\n      jumpi\n        /* \"#utility.yul\":1714:1793   */\n      tag_266\n      tag_258\n      jump\t// in\n    tag_266:\n        /* \"#utility.yul\":1676:1795   */\n    tag_265:\n        /* \"#utility.yul\":1862:1863   */\n      0x00\n        /* \"#utility.yul\":1851:1860   */\n      dup3\n        /* \"#utility.yul\":1847:1864   */\n      add\n        /* \"#utility.yul\":1834:1865   */\n      calldataload\n        /* \"#utility.yul\":1892:1910   */\n      0xffffffffffffffff\n        /* \"#utility.yul\":1884:1890   */\n      dup2\n        /* \"#utility.yul\":1881:1911   */\n      gt\n        /* \"#utility.yul\":1878:1995   */\n      iszero\n      tag_267\n      jumpi\n        /* \"#utility.yul\":1914:1993   */\n      tag_268\n      tag_262\n      jump\t// in\n    tag_268:\n        /* \"#utility.yul\":1878:1995   */\n    tag_267:\n        /* \"#utility.yul\":2019:2082   */\n      tag_269\n        /* \"#utility.yul\":2074:2081   */\n      dup5\n        /* \"#utility.yul\":2065:2071   */\n      dup3\n        /* \"#utility.yul\":2054:2063   */\n      dup6\n        /* \"#utility.yul\":2050:2072   */\n      add\n        /* \"#utility.yul\":2019:2082   */\n      tag_249\n      jump\t// in\n    tag_269:\n        /* \"#utility.yul\":2009:2082   */\n      swap2\n      pop\n        /* \"#utility.yul\":1805:2092   */\n      pop\n        /* \"#utility.yul\":1590:2099   */\n      swap3\n      swap2\n      pop\n      pop\n      jump\t// out\n        /* \"#utility.yul\":2105:2301   */\n    tag_270:\n        /* \"#utility.yul\":2194:2204   */\n      0x00\n        /* \"#utility.yul\":2229:2295   */\n      tag_272\n        /* \"#utility.yul\":2291:2294   */\n      dup4\n        /* \"#utility.yul\":2283:2289   */\n      dup4\n        /* \"#utility.yul\":2229:2295   */\n      tag_273\n      jump\t// in\n    tag_272:\n        /* \"#utility.yul\":2215:2295   */\n      swap1\n      pop\n        /* \"#utility.yul\":2105:2301   */\n      swap3\n      swap2\n      pop\n      pop\n      jump\t// out\n        /* \"#utility.yul\":2307:2425   */\n    tag_274:\n        /* \"#utility.yul\":2394:2418   */\n      tag_276\n        /* \"#utility.yul\":2412:2417   */\n      dup2\n        /* \"#utility.yul\":2394:2418   */\n      tag_277\n      jump\t// in\n    tag_276:\n        /* \"#utility.yul\":2389:2392   */\n      dup3\n        /* \"#utility.yul\":2382:2419   */\n      mstore\n        /* \"#utility.yul\":2307:2425   */\n      pop\n      pop\n      jump\t// out\n        /* \"#utility.yul\":2459:3450   */\n    tag_278:\n        /* \"#utility.yul\":2598:2601   */\n      0x00\n        /* \"#utility.yul\":2627:2691   */\n      tag_280\n        /* \"#utility.yul\":2685:2690   */\n      dup3\n        /* \"#utility.yul\":2627:2691   */\n      tag_281\n      jump\t// in\n    tag_280:\n        /* \"#utility.yul\":2707:2803   */\n      tag_282\n        /* \"#utility.yul\":2796:2802   */\n      dup2\n        /* \"#utility.yul\":2791:2794   */\n      dup6\n        /* \"#utility.yul\":2707:2803   */\n      tag_283\n      jump\t// in\n    tag_282:\n        /* \"#utility.yul\":2700:2803   */\n      swap4\n      pop\n        /* \"#utility.yul\":2829:2832   */\n      dup4\n        /* \"#utility.yul\":2874:2878   */\n      0x20\n        /* \"#utility.yul\":2866:2872   */\n      dup3\n        /* \"#utility.yul\":2862:2879   */\n      mul\n        /* \"#utility.yul\":2857:2860   */\n      dup6\n        /* \"#utility.yul\":2853:2880   */\n      add\n        /* \"#utility.yul\":2904:2970   */\n      tag_284\n        /* \"#utility.yul\":2964:2969   */\n      dup6\n        /* \"#utility.yul\":2904:2970   */\n      tag_285\n      jump\t// in\n    tag_284:\n        /* \"#utility.yul\":2993:3000   */\n      dup1\n        /* \"#utility.yul\":3024:3025   */\n      0x00\n        /* \"#utility.yul\":3009:3405   */\n    tag_286:\n        /* \"#utility.yul\":3034:3040   */\n      dup6\n        /* \"#utility.yul\":3031:3032   */\n      dup2\n        /* \"#utility.yul\":3028:3041   */\n      lt\n        /* \"#utility.yul\":3009:3405   */\n      iszero\n      tag_288\n      jumpi\n        /* \"#utility.yul\":3105:3114   */\n      dup5\n        /* \"#utility.yul\":3099:3103   */\n      dup5\n        /* \"#utility.yul\":3095:3115   */\n      sub\n        /* \"#utility.yul\":3090:3093   */\n      dup10\n        /* \"#utility.yul\":3083:3116   */\n      mstore\n        /* \"#utility.yul\":3156:3162   */\n      dup2\n        /* \"#utility.yul\":3150:3163   */\n      mload\n        /* \"#utility.yul\":3184:3268   */\n      tag_289\n        /* \"#utility.yul\":3263:3267   */\n      dup6\n        /* \"#utility.yul\":3248:3261   */\n      dup3\n        /* \"#utility.yul\":3184:3268   */\n      tag_270\n      jump\t// in\n    tag_289:\n        /* \"#utility.yul\":3176:3268   */\n      swap5\n      pop\n        /* \"#utility.yul\":3291:3361   */\n      tag_290\n        /* \"#utility.yul\":3354:3360   */\n      dup4\n        /* \"#utility.yul\":3291:3361   */\n      tag_291\n      jump\t// in\n    tag_290:\n        /* \"#utility.yul\":3281:3361   */\n      swap3\n      pop\n        /* \"#utility.yul\":3390:3394   */\n      0x20\n        /* \"#utility.yul\":3385:3388   */\n      dup11\n        /* \"#utility.yul\":3381:3395   */\n      add\n        /* \"#utility.yul\":3374:3395   */\n      swap10\n      pop\n        /* \"#utility.yul\":3069:3405   */\n      pop\n        /* \"#utility.yul\":3056:3057   */\n      0x01\n        /* \"#utility.yul\":3053:3054   */\n      dup2\n        /* \"#utility.yul\":3049:3058   */\n      add\n        /* \"#utility.yul\":3044:3058   */\n      swap1\n      pop\n        /* \"#utility.yul\":3009:3405   */\n      jump(tag_286)\n    tag_288:\n        /* \"#utility.yul\":3013:3027   */\n      pop\n        /* \"#utility.yul\":3421:3425   */\n      dup3\n        /* \"#utility.yul\":3414:3425   */\n      swap8\n      pop\n        /* \"#utility.yul\":3441:3444   */\n      dup8\n        /* \"#utility.yul\":3434:3444   */\n      swap6\n      pop\n        /* \"#utility.yul\":2603:3450   */\n      pop\n      pop\n      pop\n      pop\n      pop\n        /* \"#utility.yul\":2459:3450   */\n      swap3\n      swap2\n      pop\n      pop\n      jump\t// out\n        /* \"#utility.yul\":3456:3800   */\n    tag_273:\n        /* \"#utility.yul\":3534:3537   */\n      0x00\n        /* \"#utility.yul\":3562:3601   */\n      tag_293\n        /* \"#utility.yul\":3595:3600   */\n      dup3\n        /* \"#utility.yul\":3562:3601   */\n      tag_294\n      jump\t// in\n    tag_293:\n        /* \"#utility.yul\":3617:3678   */\n      tag_295\n        /* \"#utility.yul\":3671:3677   */\n      dup2\n        /* \"#utility.yul\":3666:3669   */\n      dup6\n        /* \"#utility.yul\":3617:3678   */\n      tag_296\n      jump\t// in\n    tag_295:\n        /* \"#utility.yul\":3610:3678   */\n      swap4\n      pop\n        /* \"#utility.yul\":3687:3739   */\n      tag_297\n        /* \"#utility.yul\":3732:3738   */\n      dup2\n        /* \"#utility.yul\":3727:3730   */\n      dup6\n        /* \"#utility.yul\":3720:3724   */\n      0x20\n        /* \"#utility.yul\":3713:3718   */\n      dup7\n        /* \"#utility.yul\":3709:3725   */\n      add\n        /* \"#utility.yul\":3687:3739   */\n      tag_298\n      jump\t// in\n    tag_297:\n        /* \"#utility.yul\":3764:3793   */\n      tag_299\n        /* \"#utility.yul\":3786:3792   */\n      dup2\n        /* \"#utility.yul\":3764:3793   */\n      tag_300\n      jump\t// in\n    tag_299:\n        /* \"#utility.yul\":3759:3762   */\n      dup5\n        /* \"#utility.yul\":3755:3794   */\n      add\n        /* \"#utility.yul\":3748:3794   */\n      swap2\n      pop\n        /* \"#utility.yul\":3538:3800   */\n      pop\n        /* \"#utility.yul\":3456:3800   */\n      swap3\n      swap2\n      pop\n      pop\n      jump\t// out\n        /* \"#utility.yul\":3806:4170   */\n    tag_301:\n        /* \"#utility.yul\":3894:3897   */\n      0x00\n        /* \"#utility.yul\":3922:3961   */\n      tag_303\n        /* \"#utility.yul\":3955:3960   */\n      dup3\n        /* \"#utility.yul\":3922:3961   */\n      tag_294\n      jump\t// in\n    tag_303:\n        /* \"#utility.yul\":3977:4048   */\n      tag_304\n        /* \"#utility.yul\":4041:4047   */\n      dup2\n        /* \"#utility.yul\":4036:4039   */\n      dup6\n        /* \"#utility.yul\":3977:4048   */\n      tag_305\n      jump\t// in\n    tag_304:\n        /* \"#utility.yul\":3970:4048   */\n      swap4\n      pop\n        /* \"#utility.yul\":4057:4109   */\n      tag_306\n        /* \"#utility.yul\":4102:4108   */\n      dup2\n        /* \"#utility.yul\":4097:4100   */\n      dup6\n        /* \"#utility.yul\":4090:4094   */\n      0x20\n        /* \"#utility.yul\":4083:4088   */\n      dup7\n        /* \"#utility.yul\":4079:4095   */\n      add\n        /* \"#utility.yul\":4057:4109   */\n      tag_298\n      jump\t// in\n    tag_306:\n        /* \"#utility.yul\":4134:4163   */\n      tag_307\n        /* \"#utility.yul\":4156:4162   */\n      dup2\n        /* \"#utility.yul\":4134:4163   */\n      tag_300\n      jump\t// in\n    tag_307:\n        /* \"#utility.yul\":4129:4132   */\n      dup5\n        /* \"#utility.yul\":4125:4164   */\n      add\n        /* \"#utility.yul\":4118:4164   */\n      swap2\n      pop\n        /* \"#utility.yul\":3898:4170   */\n      pop\n        /* \"#utility.yul\":3806:4170   */\n      swap3\n      swap2\n      pop\n      pop\n      jump\t// out\n        /* \"#utility.yul\":4176:4553   */\n    tag_308:\n        /* \"#utility.yul\":4282:4285   */\n      0x00\n        /* \"#utility.yul\":4310:4349   */\n      tag_310\n        /* \"#utility.yul\":4343:4348   */\n      dup3\n        /* \"#utility.yul\":4310:4349   */\n      tag_294\n      jump\t// in\n    tag_310:\n        /* \"#utility.yul\":4365:4454   */\n      tag_311\n        /* \"#utility.yul\":4447:4453   */\n      dup2\n        /* \"#utility.yul\":4442:4445   */\n      dup6\n        /* \"#utility.yul\":4365:4454   */\n      tag_312\n      jump\t// in\n    tag_311:\n        /* \"#utility.yul\":4358:4454   */\n      swap4\n      pop\n        /* \"#utility.yul\":4463:4515   */\n      tag_313\n        /* \"#utility.yul\":4508:4514   */\n      dup2\n        /* \"#utility.yul\":4503:4506   */\n      dup6\n        /* \"#utility.yul\":4496:4500   */\n      0x20\n        /* \"#utility.yul\":4489:4494   */\n      dup7\n        /* \"#utility.yul\":4485:4501   */\n      add\n        /* \"#utility.yul\":4463:4515   */\n      tag_298\n      jump\t// in\n    tag_313:\n        /* \"#utility.yul\":4540:4546   */\n      dup1\n        /* \"#utility.yul\":4535:4538   */\n      dup5\n        /* \"#utility.yul\":4531:4547   */\n      add\n        /* \"#utility.yul\":4524:4547   */\n      swap2\n      pop\n        /* \"#utility.yul\":4286:4553   */\n      pop\n        /* \"#utility.yul\":4176:4553   */\n      swap3\n      swap2\n      pop\n      pop\n      jump\t// out\n        /* \"#utility.yul\":4559:4925   */\n    tag_314:\n        /* \"#utility.yul\":4701:4704   */\n      0x00\n        /* \"#utility.yul\":4722:4789   */\n      tag_316\n        /* \"#utility.yul\":4786:4788   */\n      0x25\n        /* \"#utility.yul\":4781:4784   */\n      dup4\n        /* \"#utility.yul\":4722:4789   */\n      tag_305\n      jump\t// in\n    tag_316:\n        /* \"#utility.yul\":4715:4789   */\n      swap2\n      pop\n        /* \"#utility.yul\":4798:4891   */\n      tag_317\n        /* \"#utility.yul\":4887:4890   */\n      dup3\n        /* \"#utility.yul\":4798:4891   */\n      tag_318\n      jump\t// in\n    tag_317:\n        /* \"#utility.yul\":4916:4918   */\n      0x40\n        /* \"#utility.yul\":4911:4914   */\n      dup3\n        /* \"#utility.yul\":4907:4919   */\n      add\n        /* \"#utility.yul\":4900:4919   */\n      swap1\n      pop\n        /* \"#utility.yul\":4559:4925   */\n      swap2\n      swap1\n      pop\n      jump\t// out\n        /* \"#utility.yul\":4931:5297   */\n    tag_319:\n        /* \"#utility.yul\":5073:5076   */\n      0x00\n        /* \"#utility.yul\":5094:5161   */\n      tag_321\n        /* \"#utility.yul\":5158:5160   */\n      0x21\n        /* \"#utility.yul\":5153:5156   */\n      dup4\n        /* \"#utility.yul\":5094:5161   */\n      tag_305\n      jump\t// in\n    tag_321:\n        /* \"#utility.yul\":5087:5161   */\n      swap2\n      pop\n        /* \"#utility.yul\":5170:5263   */\n      tag_322\n        /* \"#utility.yul\":5259:5262   */\n      dup3\n        /* \"#utility.yul\":5170:5263   */\n      tag_323\n      jump\t// in\n    tag_322:\n        /* \"#utility.yul\":5288:5290   */\n      0x40\n        /* \"#utility.yul\":5283:5286   */\n      dup3\n        /* \"#utility.yul\":5279:5291   */\n      add\n        /* \"#utility.yul\":5272:5291   */\n      swap1\n      pop\n        /* \"#utility.yul\":4931:5297   */\n      swap2\n      swap1\n      pop\n      jump\t// out\n        /* \"#utility.yul\":5303:5669   */\n    tag_324:\n        /* \"#utility.yul\":5445:5448   */\n      0x00\n        /* \"#utility.yul\":5466:5533   */\n      tag_326\n        /* \"#utility.yul\":5530:5532   */\n      0x2f\n        /* \"#utility.yul\":5525:5528   */\n      dup4\n        /* \"#utility.yul\":5466:5533   */\n      tag_305\n      jump\t// in\n    tag_326:\n        /* \"#utility.yul\":5459:5533   */\n      swap2\n      pop\n        /* \"#utility.yul\":5542:5635   */\n      tag_327\n        /* \"#utility.yul\":5631:5634   */\n      dup3\n        /* \"#utility.yul\":5542:5635   */\n      tag_328\n      jump\t// in\n    tag_327:\n        /* \"#utility.yul\":5660:5662   */\n      0x40\n        /* \"#utility.yul\":5655:5658   */\n      dup3\n        /* \"#utility.yul\":5651:5663   */\n      add\n        /* \"#utility.yul\":5644:5663   */\n      swap1\n      pop\n        /* \"#utility.yul\":5303:5669   */\n      swap2\n      swap1\n      pop\n      jump\t// out\n        /* \"#utility.yul\":5675:6041   */\n    tag_329:\n        /* \"#utility.yul\":5817:5820   */\n      0x00\n        /* \"#utility.yul\":5838:5905   */\n      tag_331\n        /* \"#utility.yul\":5902:5904   */\n      0x2f\n        /* \"#utility.yul\":5897:5900   */\n      dup4\n        /* \"#utility.yul\":5838:5905   */\n      tag_305\n      jump\t// in\n    tag_331:\n        /* \"#utility.yul\":5831:5905   */\n      swap2\n      pop\n        /* \"#utility.yul\":5914:6007   */\n      tag_332\n        /* \"#utility.yul\":6003:6006   */\n      dup3\n        /* \"#utility.yul\":5914:6007   */\n      tag_333\n      jump\t// in\n    tag_332:\n        /* \"#utility.yul\":6032:6034   */\n      0x40\n        /* \"#utility.yul\":6027:6030   */\n      dup3\n        /* \"#utility.yul\":6023:6035   */\n      add\n        /* \"#utility.yul\":6016:6035   */\n      swap1\n      pop\n        /* \"#utility.yul\":5675:6041   */\n      swap2\n      swap1\n      pop\n      jump\t// out\n        /* \"#utility.yul\":6047:6447   */\n    tag_334:\n        /* \"#utility.yul\":6207:6210   */\n      0x00\n        /* \"#utility.yul\":6228:6312   */\n      tag_336\n        /* \"#utility.yul\":6310:6311   */\n      0x01\n        /* \"#utility.yul\":6305:6308   */\n      dup4\n        /* \"#utility.yul\":6228:6312   */\n      tag_312\n      jump\t// in\n    tag_336:\n        /* \"#utility.yul\":6221:6312   */\n      swap2\n      pop\n        /* \"#utility.yul\":6321:6414   */\n      tag_337\n        /* \"#utility.yul\":6410:6413   */\n      dup3\n        /* \"#utility.yul\":6321:6414   */\n      tag_338\n      jump\t// in\n    tag_337:\n        /* \"#utility.yul\":6439:6440   */\n      0x01\n        /* \"#utility.yul\":6434:6437   */\n      dup3\n        /* \"#utility.yul\":6430:6441   */\n      add\n        /* \"#utility.yul\":6423:6441   */\n      swap1\n      pop\n        /* \"#utility.yul\":6047:6447   */\n      swap2\n      swap1\n      pop\n      jump\t// out\n        /* \"#utility.yul\":6453:6819   */\n    tag_339:\n        /* \"#utility.yul\":6595:6598   */\n      0x00\n        /* \"#utility.yul\":6616:6683   */\n      tag_341\n        /* \"#utility.yul\":6680:6682   */\n      0x14\n        /* \"#utility.yul\":6675:6678   */\n      dup4\n        /* \"#utility.yul\":6616:6683   */\n      tag_305\n      jump\t// in\n    tag_341:\n        /* \"#utility.yul\":6609:6683   */\n      swap2\n      pop\n        /* \"#utility.yul\":6692:6785   */\n      tag_342\n        /* \"#utility.yul\":6781:6784   */\n      dup3\n        /* \"#utility.yul\":6692:6785   */\n      tag_343\n      jump\t// in\n    tag_342:\n        /* \"#utility.yul\":6810:6812   */\n      0x20\n        /* \"#utility.yul\":6805:6808   */\n      dup3\n        /* \"#utility.yul\":6801:6813   */\n      add\n        /* \"#utility.yul\":6794:6813   */\n      swap1\n      pop\n        /* \"#utility.yul\":6453:6819   */\n      swap2\n      swap1\n      pop\n      jump\t// out\n        /* \"#utility.yul\":6825:6943   */\n    tag_344:\n        /* \"#utility.yul\":6912:6936   */\n      tag_346\n        /* \"#utility.yul\":6930:6935   */\n      dup2\n        /* \"#utility.yul\":6912:6936   */\n      tag_347\n      jump\t// in\n    tag_346:\n        /* \"#utility.yul\":6907:6910   */\n      dup3\n        /* \"#utility.yul\":6900:6937   */\n      mstore\n        /* \"#utility.yul\":6825:6943   */\n      pop\n      pop\n      jump\t// out\n        /* \"#utility.yul\":6949:7650   */\n    tag_196:\n        /* \"#utility.yul\":7230:7233   */\n      0x00\n        /* \"#utility.yul\":7252:7347   */\n      tag_349\n        /* \"#utility.yul\":7343:7346   */\n      dup3\n        /* \"#utility.yul\":7334:7340   */\n      dup6\n        /* \"#utility.yul\":7252:7347   */\n      tag_308\n      jump\t// in\n    tag_349:\n        /* \"#utility.yul\":7245:7347   */\n      swap2\n      pop\n        /* \"#utility.yul\":7364:7512   */\n      tag_350\n        /* \"#utility.yul\":7508:7511   */\n      dup3\n        /* \"#utility.yul\":7364:7512   */\n      tag_334\n      jump\t// in\n    tag_350:\n        /* \"#utility.yul\":7357:7512   */\n      swap2\n      pop\n        /* \"#utility.yul\":7529:7624   */\n      tag_351\n        /* \"#utility.yul\":7620:7623   */\n      dup3\n        /* \"#utility.yul\":7611:7617   */\n      dup5\n        /* \"#utility.yul\":7529:7624   */\n      tag_308\n      jump\t// in\n    tag_351:\n        /* \"#utility.yul\":7522:7624   */\n      swap2\n      pop\n        /* \"#utility.yul\":7641:7644   */\n      dup2\n        /* \"#utility.yul\":7634:7644   */\n      swap1\n      pop\n        /* \"#utility.yul\":6949:7650   */\n      swap4\n      swap3\n      pop\n      pop\n      pop\n      jump\t// out\n        /* \"#utility.yul\":7656:8069   */\n    tag_10:\n        /* \"#utility.yul\":7819:7823   */\n      0x00\n        /* \"#utility.yul\":7857:7859   */\n      0x20\n        /* \"#utility.yul\":7846:7855   */\n      dup3\n        /* \"#utility.yul\":7842:7860   */\n      add\n        /* \"#utility.yul\":7834:7860   */\n      swap1\n      pop\n        /* \"#utility.yul\":7906:7915   */\n      dup2\n        /* \"#utility.yul\":7900:7904   */\n      dup2\n        /* \"#utility.yul\":7896:7916   */\n      sub\n        /* \"#utility.yul\":7892:7893   */\n      0x00\n        /* \"#utility.yul\":7881:7890   */\n      dup4\n        /* \"#utility.yul\":7877:7894   */\n      add\n        /* \"#utility.yul\":7870:7917   */\n      mstore\n        /* \"#utility.yul\":7934:8062   */\n      tag_353\n        /* \"#utility.yul\":8057:8061   */\n      dup2\n        /* \"#utility.yul\":8048:8054   */\n      dup5\n        /* \"#utility.yul\":7934:8062   */\n      tag_278\n      jump\t// in\n    tag_353:\n        /* \"#utility.yul\":7926:8062   */\n      swap1\n      pop\n        /* \"#utility.yul\":7656:8069   */\n      swap3\n      swap2\n      pop\n      pop\n      jump\t// out\n        /* \"#utility.yul\":8075:8388   */\n    tag_188:\n        /* \"#utility.yul\":8188:8192   */\n      0x00\n        /* \"#utility.yul\":8226:8228   */\n      0x20\n        /* \"#utility.yul\":8215:8224   */\n      dup3\n        /* \"#utility.yul\":8211:8229   */\n      add\n        /* \"#utility.yul\":8203:8229   */\n      swap1\n      pop\n        /* \"#utility.yul\":8275:8284   */\n      dup2\n        /* \"#utility.yul\":8269:8273   */\n      dup2\n        /* \"#utility.yul\":8265:8285   */\n      sub\n        /* \"#utility.yul\":8261:8262   */\n      0x00\n        /* \"#utility.yul\":8250:8259   */\n      dup4\n        /* \"#utility.yul\":8246:8263   */\n      add\n        /* \"#utility.yul\":8239:8286   */\n      mstore\n        /* \"#utility.yul\":8303:8381   */\n      tag_355\n        /* \"#utility.yul\":8376:8380   */\n      dup2\n        /* \"#utility.yul\":8367:8373   */\n      dup5\n        /* \"#utility.yul\":8303:8381   */\n      tag_301\n      jump\t// in\n    tag_355:\n        /* \"#utility.yul\":8295:8381   */\n      swap1\n      pop\n        /* \"#utility.yul\":8075:8388   */\n      swap3\n      swap2\n      pop\n      pop\n      jump\t// out\n        /* \"#utility.yul\":8394:8927   */\n    tag_14:\n        /* \"#utility.yul\":8563:8567   */\n      0x00\n        /* \"#utility.yul\":8601:8603   */\n      0x60\n        /* \"#utility.yul\":8590:8599   */\n      dup3\n        /* \"#utility.yul\":8586:8604   */\n      add\n        /* \"#utility.yul\":8578:8604   */\n      swap1\n      pop\n        /* \"#utility.yul\":8650:8659   */\n      dup2\n        /* \"#utility.yul\":8644:8648   */\n      dup2\n        /* \"#utility.yul\":8640:8660   */\n      sub\n        /* \"#utility.yul\":8636:8637   */\n      0x00\n        /* \"#utility.yul\":8625:8634   */\n      dup4\n        /* \"#utility.yul\":8621:8638   */\n      add\n        /* \"#utility.yul\":8614:8661   */\n      mstore\n        /* \"#utility.yul\":8678:8756   */\n      tag_357\n        /* \"#utility.yul\":8751:8755   */\n      dup2\n        /* \"#utility.yul\":8742:8748   */\n      dup7\n        /* \"#utility.yul\":8678:8756   */\n      tag_301\n      jump\t// in\n    tag_357:\n        /* \"#utility.yul\":8670:8756   */\n      swap1\n      pop\n        /* \"#utility.yul\":8766:8838   */\n      tag_358\n        /* \"#utility.yul\":8834:8836   */\n      0x20\n        /* \"#utility.yul\":8823:8832   */\n      dup4\n        /* \"#utility.yul\":8819:8837   */\n      add\n        /* \"#utility.yul\":8810:8816   */\n      dup6\n        /* \"#utility.yul\":8766:8838   */\n      tag_344\n      jump\t// in\n    tag_358:\n        /* \"#utility.yul\":8848:8920   */\n      tag_359\n        /* \"#utility.yul\":8916:8918   */\n      0x40\n        /* \"#utility.yul\":8905:8914   */\n      dup4\n        /* \"#utility.yul\":8901:8919   */\n      add\n        /* \"#utility.yul\":8892:8898   */\n      dup5\n        /* \"#utility.yul\":8848:8920   */\n      tag_274\n      jump\t// in\n    tag_359:\n        /* \"#utility.yul\":8394:8927   */\n      swap5\n      swap4\n      pop\n      pop\n      pop\n      pop\n      jump\t// out\n        /* \"#utility.yul\":8933:9352   */\n    tag_179:\n        /* \"#utility.yul\":9099:9103   */\n      0x00\n        /* \"#utility.yul\":9137:9139   */\n      0x20\n        /* \"#utility.yul\":9126:9135   */\n      dup3\n        /* \"#utility.yul\":9122:9140   */\n      add\n        /* \"#utility.yul\":9114:9140   */\n      swap1\n      pop\n        /* \"#utility.yul\":9186:9195   */\n      dup2\n        /* \"#utility.yul\":9180:9184   */\n      dup2\n        /* \"#utility.yul\":9176:9196   */\n      sub\n        /* \"#utility.yul\":9172:9173   */\n      0x00\n        /* \"#utility.yul\":9161:9170   */\n      dup4\n        /* \"#utility.yul\":9157:9174   */\n      add\n        /* \"#utility.yul\":9150:9197   */\n      mstore\n        /* \"#utility.yul\":9214:9345   */\n      tag_361\n        /* \"#utility.yul\":9340:9344   */\n      dup2\n        /* \"#utility.yul\":9214:9345   */\n      tag_314\n      jump\t// in\n    tag_361:\n        /* \"#utility.yul\":9206:9345   */\n      swap1\n      pop\n        /* \"#utility.yul\":8933:9352   */\n      swap2\n      swap1\n      pop\n      jump\t// out\n        /* \"#utility.yul\":9358:9777   */\n    tag_193:\n        /* \"#utility.yul\":9524:9528   */\n      0x00\n        /* \"#utility.yul\":9562:9564   */\n      0x20\n        /* \"#utility.yul\":9551:9560   */\n      dup3\n        /* \"#utility.yul\":9547:9565   */\n      add\n        /* \"#utility.yul\":9539:9565   */\n      swap1\n      pop\n        /* \"#utility.yul\":9611:9620   */\n      dup2\n        /* \"#utility.yul\":9605:9609   */\n      dup2\n        /* \"#utility.yul\":9601:9621   */\n      sub\n        /* \"#utility.yul\":9597:9598   */\n      0x00\n        /* \"#utility.yul\":9586:9595   */\n      dup4\n        /* \"#utility.yul\":9582:9599   */\n      add\n        /* \"#utility.yul\":9575:9622   */\n      mstore\n        /* \"#utility.yul\":9639:9770   */\n      tag_363\n        /* \"#utility.yul\":9765:9769   */\n      dup2\n        /* \"#utility.yul\":9639:9770   */\n      tag_319\n      jump\t// in\n    tag_363:\n        /* \"#utility.yul\":9631:9770   */\n      swap1\n      pop\n        /* \"#utility.yul\":9358:9777   */\n      swap2\n      swap1\n      pop\n      jump\t// out\n        /* \"#utility.yul\":9783:10202   */\n    tag_169:\n        /* \"#utility.yul\":9949:9953   */\n      0x00\n        /* \"#utility.yul\":9987:9989   */\n      0x20\n        /* \"#utility.yul\":9976:9985   */\n      dup3\n        /* \"#utility.yul\":9972:9990   */\n      add\n        /* \"#utility.yul\":9964:9990   */\n      swap1\n      pop\n        /* \"#utility.yul\":10036:10045   */\n      dup2\n        /* \"#utility.yul\":10030:10034   */\n      dup2\n        /* \"#utility.yul\":10026:10046   */\n      sub\n        /* \"#utility.yul\":10022:10023   */\n      0x00\n        /* \"#utility.yul\":10011:10020   */\n      dup4\n        /* \"#utility.yul\":10007:10024   */\n      add\n        /* \"#utility.yul\":10000:10047   */\n      mstore\n        /* \"#utility.yul\":10064:10195   */\n      tag_365\n        /* \"#utility.yul\":10190:10194   */\n      dup2\n        /* \"#utility.yul\":10064:10195   */\n      tag_324\n      jump\t// in\n    tag_365:\n        /* \"#utility.yul\":10056:10195   */\n      swap1\n      pop\n        /* \"#utility.yul\":9783:10202   */\n      swap2\n      swap1\n      pop\n      jump\t// out\n        /* \"#utility.yul\":10208:10627   */\n    tag_175:\n        /* \"#utility.yul\":10374:10378   */\n      0x00\n        /* \"#utility.yul\":10412:10414   */\n      0x20\n        /* \"#utility.yul\":10401:10410   */\n      dup3\n        /* \"#utility.yul\":10397:10415   */\n      add\n        /* \"#utility.yul\":10389:10415   */\n      swap1\n      pop\n        /* \"#utility.yul\":10461:10470   */\n      dup2\n        /* \"#utility.yul\":10455:10459   */\n      dup2\n        /* \"#utility.yul\":10451:10471   */\n      sub\n        /* \"#utility.yul\":10447:10448   */\n      0x00\n        /* \"#utility.yul\":10436:10445   */\n      dup4\n        /* \"#utility.yul\":10432:10449   */\n      add\n        /* \"#utility.yul\":10425:10472   */\n      mstore\n        /* \"#utility.yul\":10489:10620   */\n      tag_367\n        /* \"#utility.yul\":10615:10619   */\n      dup2\n        /* \"#utility.yul\":10489:10620   */\n      tag_329\n      jump\t// in\n    tag_367:\n        /* \"#utility.yul\":10481:10620   */\n      swap1\n      pop\n        /* \"#utility.yul\":10208:10627   */\n      swap2\n      swap1\n      pop\n      jump\t// out\n        /* \"#utility.yul\":10633:11052   */\n    tag_185:\n        /* \"#utility.yul\":10799:10803   */\n      0x00\n        /* \"#utility.yul\":10837:10839   */\n      0x20\n        /* \"#utility.yul\":10826:10835   */\n      dup3\n        /* \"#utility.yul\":10822:10840   */\n      add\n        /* \"#utility.yul\":10814:10840   */\n      swap1\n      pop\n        /* \"#utility.yul\":10886:10895   */\n      dup2\n        /* \"#utility.yul\":10880:10884   */\n      dup2\n        /* \"#utility.yul\":10876:10896   */\n      sub\n        /* \"#utility.yul\":10872:10873   */\n      0x00\n        /* \"#utility.yul\":10861:10870   */\n      dup4\n        /* \"#utility.yul\":10857:10874   */\n      add\n        /* \"#utility.yul\":10850:10897   */\n      mstore\n        /* \"#utility.yul\":10914:11045   */\n      tag_369\n        /* \"#utility.yul\":11040:11044   */\n      dup2\n        /* \"#utility.yul\":10914:11045   */\n      tag_339\n      jump\t// in\n    tag_369:\n        /* \"#utility.yul\":10906:11045   */\n      swap1\n      pop\n        /* \"#utility.yul\":10633:11052   */\n      swap2\n      swap1\n      pop\n      jump\t// out\n        /* \"#utility.yul\":11058:11187   */\n    tag_239:\n        /* \"#utility.yul\":11092:11098   */\n      0x00\n        /* \"#utility.yul\":11119:11139   */\n      tag_371\n      tag_372\n      jump\t// in\n    tag_371:\n        /* \"#utility.yul\":11109:11139   */\n      swap1\n      pop\n        /* \"#utility.yul\":11148:11181   */\n      tag_373\n        /* \"#utility.yul\":11176:11180   */\n      dup3\n        /* \"#utility.yul\":11168:11174   */\n      dup3\n        /* \"#utility.yul\":11148:11181   */\n      tag_374\n      jump\t// in\n    tag_373:\n        /* \"#utility.yul\":11058:11187   */\n      swap2\n      swap1\n      pop\n      jump\t// out\n        /* \"#utility.yul\":11193:11268   */\n    tag_372:\n        /* \"#utility.yul\":11226:11232   */\n      0x00\n        /* \"#utility.yul\":11259:11261   */\n      0x40\n        /* \"#utility.yul\":11253:11262   */\n      mload\n        /* \"#utility.yul\":11243:11262   */\n      swap1\n      pop\n        /* \"#utility.yul\":11193:11268   */\n      swap1\n      jump\t// out\n        /* \"#utility.yul\":11274:11582   */\n    tag_238:\n        /* \"#utility.yul\":11336:11340   */\n      0x00\n        /* \"#utility.yul\":11426:11444   */\n      0xffffffffffffffff\n        /* \"#utility.yul\":11418:11424   */\n      dup3\n        /* \"#utility.yul\":11415:11445   */\n      gt\n        /* \"#utility.yul\":11412:11468   */\n      iszero\n      tag_377\n      jumpi\n        /* \"#utility.yul\":11448:11466   */\n      tag_378\n      tag_26\n      jump\t// in\n    tag_378:\n        /* \"#utility.yul\":11412:11468   */\n    tag_377:\n        /* \"#utility.yul\":11486:11515   */\n      tag_379\n        /* \"#utility.yul\":11508:11514   */\n      dup3\n        /* \"#utility.yul\":11486:11515   */\n      tag_300\n      jump\t// in\n    tag_379:\n        /* \"#utility.yul\":11478:11515   */\n      swap1\n      pop\n        /* \"#utility.yul\":11570:11574   */\n      0x20\n        /* \"#utility.yul\":11564:11568   */\n      dup2\n        /* \"#utility.yul\":11560:11575   */\n      add\n        /* \"#utility.yul\":11552:11575   */\n      swap1\n      pop\n        /* \"#utility.yul\":11274:11582   */\n      swap2\n      swap1\n      pop\n      jump\t// out\n        /* \"#utility.yul\":11588:11730   */\n    tag_285:\n        /* \"#utility.yul\":11665:11669   */\n      0x00\n        /* \"#utility.yul\":11688:11691   */\n      dup2\n        /* \"#utility.yul\":11680:11691   */\n      swap1\n      pop\n        /* \"#utility.yul\":11718:11722   */\n      0x20\n        /* \"#utility.yul\":11713:11716   */\n      dup3\n        /* \"#utility.yul\":11709:11723   */\n      add\n        /* \"#utility.yul\":11701:11723   */\n      swap1\n      pop\n        /* \"#utility.yul\":11588:11730   */\n      swap2\n      swap1\n      pop\n      jump\t// out\n        /* \"#utility.yul\":11736:11860   */\n    tag_281:\n        /* \"#utility.yul\":11813:11819   */\n      0x00\n        /* \"#utility.yul\":11847:11852   */\n      dup2\n        /* \"#utility.yul\":11841:11853   */\n      mload\n        /* \"#utility.yul\":11831:11853   */\n      swap1\n      pop\n        /* \"#utility.yul\":11736:11860   */\n      swap2\n      swap1\n      pop\n      jump\t// out\n        /* \"#utility.yul\":11866:11965   */\n    tag_294:\n        /* \"#utility.yul\":11918:11924   */\n      0x00\n        /* \"#utility.yul\":11952:11957   */\n      dup2\n        /* \"#utility.yul\":11946:11958   */\n      mload\n        /* \"#utility.yul\":11936:11958   */\n      swap1\n      pop\n        /* \"#utility.yul\":11866:11965   */\n      swap2\n      swap1\n      pop\n      jump\t// out\n        /* \"#utility.yul\":11971:12094   */\n    tag_291:\n        /* \"#utility.yul\":12051:12055   */\n      0x00\n        /* \"#utility.yul\":12083:12087   */\n      0x20\n        /* \"#utility.yul\":12078:12081   */\n      dup3\n        /* \"#utility.yul\":12074:12088   */\n      add\n        /* \"#utility.yul\":12066:12088   */\n      swap1\n      pop\n        /* \"#utility.yul\":11971:12094   */\n      swap2\n      swap1\n      pop\n      jump\t// out\n        /* \"#utility.yul\":12100:12294   */\n    tag_283:\n        /* \"#utility.yul\":12209:12220   */\n      0x00\n        /* \"#utility.yul\":12243:12249   */\n      dup3\n        /* \"#utility.yul\":12238:12241   */\n      dup3\n        /* \"#utility.yul\":12231:12250   */\n      mstore\n        /* \"#utility.yul\":12283:12287   */\n      0x20\n        /* \"#utility.yul\":12278:12281   */\n      dup3\n        /* \"#utility.yul\":12274:12288   */\n      add\n        /* \"#utility.yul\":12259:12288   */\n      swap1\n      pop\n        /* \"#utility.yul\":12100:12294   */\n      swap3\n      swap2\n      pop\n      pop\n      jump\t// out\n        /* \"#utility.yul\":12300:12459   */\n    tag_296:\n        /* \"#utility.yul\":12374:12385   */\n      0x00\n        /* \"#utility.yul\":12408:12414   */\n      dup3\n        /* \"#utility.yul\":12403:12406   */\n      dup3\n        /* \"#utility.yul\":12396:12415   */\n      mstore\n        /* \"#utility.yul\":12448:12452   */\n      0x20\n        /* \"#utility.yul\":12443:12446   */\n      dup3\n        /* \"#utility.yul\":12439:12453   */\n      add\n        /* \"#utility.yul\":12424:12453   */\n      swap1\n      pop\n        /* \"#utility.yul\":12300:12459   */\n      swap3\n      swap2\n      pop\n      pop\n      jump\t// out\n        /* \"#utility.yul\":12465:12634   */\n    tag_305:\n        /* \"#utility.yul\":12549:12560   */\n      0x00\n        /* \"#utility.yul\":12583:12589   */\n      dup3\n        /* \"#utility.yul\":12578:12581   */\n      dup3\n        /* \"#utility.yul\":12571:12590   */\n      mstore\n        /* \"#utility.yul\":12623:12627   */\n      0x20\n        /* \"#utility.yul\":12618:12621   */\n      dup3\n        /* \"#utility.yul\":12614:12628   */\n      add\n        /* \"#utility.yul\":12599:12628   */\n      swap1\n      pop\n        /* \"#utility.yul\":12465:12634   */\n      swap3\n      swap2\n      pop\n      pop\n      jump\t// out\n        /* \"#utility.yul\":12640:12788   */\n    tag_312:\n        /* \"#utility.yul\":12742:12753   */\n      0x00\n        /* \"#utility.yul\":12779:12782   */\n      dup2\n        /* \"#utility.yul\":12764:12782   */\n      swap1\n      pop\n        /* \"#utility.yul\":12640:12788   */\n      swap3\n      swap2\n      pop\n      pop\n      jump\t// out\n        /* \"#utility.yul\":12794:13099   */\n    tag_214:\n        /* \"#utility.yul\":12834:12837   */\n      0x00\n        /* \"#utility.yul\":12853:12873   */\n      tag_389\n        /* \"#utility.yul\":12871:12872   */\n      dup3\n        /* \"#utility.yul\":12853:12873   */\n      tag_347\n      jump\t// in\n    tag_389:\n        /* \"#utility.yul\":12848:12873   */\n      swap2\n      pop\n        /* \"#utility.yul\":12887:12907   */\n      tag_390\n        /* \"#utility.yul\":12905:12906   */\n      dup4\n        /* \"#utility.yul\":12887:12907   */\n      tag_347\n      jump\t// in\n    tag_390:\n        /* \"#utility.yul\":12882:12907   */\n      swap3\n      pop\n        /* \"#utility.yul\":13041:13042   */\n      dup3\n        /* \"#utility.yul\":12973:13039   */\n      0xffffffffffffffffffffffffffffffffffffffffffffffffffffffffffffffff\n        /* \"#utility.yul\":12969:13043   */\n      sub\n        /* \"#utility.yul\":12966:12967   */\n      dup3\n        /* \"#utility.yul\":12963:13044   */\n      gt\n        /* \"#utility.yul\":12960:13067   */\n      iszero\n      tag_391\n      jumpi\n        /* \"#utility.yul\":13047:13065   */\n      tag_392\n      tag_393\n      jump\t// in\n    tag_392:\n        /* \"#utility.yul\":12960:13067   */\n    tag_391:\n        /* \"#utility.yul\":13091:13092   */\n      dup3\n        /* \"#utility.yul\":13088:13089   */\n      dup3\n        /* \"#utility.yul\":13084:13093   */\n      add\n        /* \"#utility.yul\":13077:13093   */\n      swap1\n      pop\n        /* \"#utility.yul\":12794:13099   */\n      swap3\n      swap2\n      pop\n      pop\n      jump\t// out\n        /* \"#utility.yul\":13105:13290   */\n    tag_203:\n        /* \"#utility.yul\":13145:13146   */\n      0x00\n        /* \"#utility.yul\":13162:13182   */\n      tag_395\n        /* \"#utility.yul\":13180:13181   */\n      dup3\n        /* \"#utility.yul\":13162:13182   */\n      tag_347\n      jump\t// in\n    tag_395:\n        /* \"#utility.yul\":13157:13182   */\n      swap2\n      pop\n        /* \"#utility.yul\":13196:13216   */\n      tag_396\n        /* \"#utility.yul\":13214:13215   */\n      dup4\n        /* \"#utility.yul\":13196:13216   */\n      tag_347\n      jump\t// in\n    tag_396:\n        /* \"#utility.yul\":13191:13216   */\n      swap3\n      pop\n        /* \"#utility.yul\":13235:13236   */\n      dup3\n        /* \"#utility.yul\":13225:13260   */\n      tag_397\n      jumpi\n        /* \"#utility.yul\":13240:13258   */\n      tag_398\n      tag_399\n      jump\t// in\n    tag_398:\n        /* \"#utility.yul\":13225:13260   */\n    tag_397:\n        /* \"#utility.yul\":13282:13283   */\n      dup3\n        /* \"#utility.yul\":13279:13280   */\n      dup3\n        /* \"#utility.yul\":13275:13284   */\n      div\n        /* \"#utility.yul\":13270:13284   */\n      swap1\n      pop\n        /* \"#utility.yul\":13105:13290   */\n      swap3\n      swap2\n      pop\n      pop\n      jump\t// out\n        /* \"#utility.yul\":13296:13487   */\n    tag_210:\n        /* \"#utility.yul\":13336:13340   */\n      0x00\n        /* \"#utility.yul\":13356:13376   */\n      tag_401\n        /* \"#utility.yul\":13374:13375   */\n      dup3\n        /* \"#utility.yul\":13356:13376   */\n      tag_347\n      jump\t// in\n    tag_401:\n        /* \"#utility.yul\":13351:13376   */\n      swap2\n      pop\n        /* \"#utility.yul\":13390:13410   */\n      tag_402\n        /* \"#utility.yul\":13408:13409   */\n      dup4\n        /* \"#utility.yul\":13390:13410   */\n      tag_347\n      jump\t// in\n    tag_402:\n        /* \"#utility.yul\":13385:13410   */\n      swap3\n      pop\n        /* \"#utility.yul\":13429:13430   */\n      dup3\n        /* \"#utility.yul\":13426:13427   */\n      dup3\n        /* \"#utility.yul\":13423:13431   */\n      lt\n        /* \"#utility.yul\":13420:13454   */\n      iszero\n      tag_403\n      jumpi\n        /* \"#utility.yul\":13434:13452   */\n      tag_404\n      tag_393\n      jump\t// in\n    tag_404:\n        /* \"#utility.yul\":13420:13454   */\n    tag_403:\n        /* \"#utility.yul\":13479:13480   */\n      dup3\n        /* \"#utility.yul\":13476:13477   */\n      dup3\n        /* \"#utility.yul\":13472:13481   */\n      sub\n        /* \"#utility.yul\":13464:13481   */\n      swap1\n      pop\n        /* \"#utility.yul\":13296:13487   */\n      swap3\n      swap2\n      pop\n      pop\n      jump\t// out\n        /* \"#utility.yul\":13493:13589   */\n    tag_277:\n        /* \"#utility.yul\":13530:13537   */\n      0x00\n        /* \"#utility.yul\":13559:13583   */\n      tag_406\n        /* \"#utility.yul\":13577:13582   */\n      dup3\n        /* \"#utility.yul\":13559:13583   */\n      tag_407\n      jump\t// in\n    tag_406:\n        /* \"#utility.yul\":13548:13583   */\n      swap1\n      pop\n        /* \"#utility.yul\":13493:13589   */\n      swap2\n      swap1\n      pop\n      jump\t// out\n        /* \"#utility.yul\":13595:13721   */\n    tag_407:\n        /* \"#utility.yul\":13632:13639   */\n      0x00\n        /* \"#utility.yul\":13672:13714   */\n      0xffffffffffffffffffffffffffffffffffffffff\n        /* \"#utility.yul\":13665:13670   */\n      dup3\n        /* \"#utility.yul\":13661:13715   */\n      and\n        /* \"#utility.yul\":13650:13715   */\n      swap1\n      pop\n        /* \"#utility.yul\":13595:13721   */\n      swap2\n      swap1\n      pop\n      jump\t// out\n        /* \"#utility.yul\":13727:13804   */\n    tag_347:\n        /* \"#utility.yul\":13764:13771   */\n      0x00\n        /* \"#utility.yul\":13793:13798   */\n      dup2\n        /* \"#utility.yul\":13782:13798   */\n      swap1\n      pop\n        /* \"#utility.yul\":13727:13804   */\n      swap2\n      swap1\n      pop\n      jump\t// out\n        /* \"#utility.yul\":13810:13964   */\n    tag_244:\n        /* \"#utility.yul\":13894:13900   */\n      dup3\n        /* \"#utility.yul\":13889:13892   */\n      dup2\n        /* \"#utility.yul\":13884:13887   */\n      dup4\n        /* \"#utility.yul\":13871:13901   */\n      calldatacopy\n        /* \"#utility.yul\":13956:13957   */\n      0x00\n        /* \"#utility.yul\":13947:13953   */\n      dup4\n        /* \"#utility.yul\":13942:13945   */\n      dup4\n        /* \"#utility.yul\":13938:13954   */\n      add\n        /* \"#utility.yul\":13931:13958   */\n      mstore\n        /* \"#utility.yul\":13810:13964   */\n      pop\n      pop\n      pop\n      jump\t// out\n        /* \"#utility.yul\":13970:14277   */\n    tag_298:\n        /* \"#utility.yul\":14038:14039   */\n      0x00\n        /* \"#utility.yul\":14048:14161   */\n    tag_412:\n        /* \"#utility.yul\":14062:14068   */\n      dup4\n        /* \"#utility.yul\":14059:14060   */\n      dup2\n        /* \"#utility.yul\":14056:14069   */\n      lt\n        /* \"#utility.yul\":14048:14161   */\n      iszero\n      tag_414\n      jumpi\n        /* \"#utility.yul\":14147:14148   */\n      dup1\n        /* \"#utility.yul\":14142:14145   */\n      dup3\n        /* \"#utility.yul\":14138:14149   */\n      add\n        /* \"#utility.yul\":14132:14150   */\n      mload\n        /* \"#utility.yul\":14128:14129   */\n      dup2\n        /* \"#utility.yul\":14123:14126   */\n      dup5\n        /* \"#utility.yul\":14119:14130   */\n      add\n        /* \"#utility.yul\":14112:14151   */\n      mstore\n        /* \"#utility.yul\":14084:14086   */\n      0x20\n        /* \"#utility.yul\":14081:14082   */\n      dup2\n        /* \"#utility.yul\":14077:14087   */\n      add\n        /* \"#utility.yul\":14072:14087   */\n      swap1\n      pop\n        /* \"#utility.yul\":14048:14161   */\n      jump(tag_412)\n    tag_414:\n        /* \"#utility.yul\":14179:14185   */\n      dup4\n        /* \"#utility.yul\":14176:14177   */\n      dup2\n        /* \"#utility.yul\":14173:14186   */\n      gt\n        /* \"#utility.yul\":14170:14271   */\n      iszero\n      tag_415\n      jumpi\n        /* \"#utility.yul\":14259:14260   */\n      0x00\n        /* \"#utility.yul\":14250:14256   */\n      dup5\n        /* \"#utility.yul\":14245:14248   */\n      dup5\n        /* \"#utility.yul\":14241:14257   */\n      add\n        /* \"#utility.yul\":14234:14261   */\n      mstore\n        /* \"#utility.yul\":14170:14271   */\n    tag_415:\n        /* \"#utility.yul\":14019:14277   */\n      pop\n        /* \"#utility.yul\":13970:14277   */\n      pop\n      pop\n      pop\n      jump\t// out\n        /* \"#utility.yul\":14283:14603   */\n    tag_37:\n        /* \"#utility.yul\":14327:14333   */\n      0x00\n        /* \"#utility.yul\":14364:14365   */\n      0x02\n        /* \"#utility.yul\":14358:14362   */\n      dup3\n        /* \"#utility.yul\":14354:14366   */\n      div\n        /* \"#utility.yul\":14344:14366   */\n      swap1\n      pop\n        /* \"#utility.yul\":14411:14412   */\n      0x01\n        /* \"#utility.yul\":14405:14409   */\n      dup3\n        /* \"#utility.yul\":14401:14413   */\n      and\n        /* \"#utility.yul\":14432:14450   */\n      dup1\n        /* \"#utility.yul\":14422:14503   */\n      tag_417\n      jumpi\n        /* \"#utility.yul\":14488:14492   */\n      0x7f\n        /* \"#utility.yul\":14480:14486   */\n      dup3\n        /* \"#utility.yul\":14476:14493   */\n      and\n        /* \"#utility.yul\":14466:14493   */\n      swap2\n      pop\n        /* \"#utility.yul\":14422:14503   */\n    tag_417:\n        /* \"#utility.yul\":14550:14552   */\n      0x20\n        /* \"#utility.yul\":14542:14548   */\n      dup3\n        /* \"#utility.yul\":14539:14553   */\n      lt\n        /* \"#utility.yul\":14519:14537   */\n      dup2\n        /* \"#utility.yul\":14516:14554   */\n      eq\n        /* \"#utility.yul\":14513:14597   */\n      iszero\n      tag_418\n      jumpi\n        /* \"#utility.yul\":14569:14587   */\n      tag_419\n      tag_420\n      jump\t// in\n    tag_419:\n        /* \"#utility.yul\":14513:14597   */\n    tag_418:\n        /* \"#utility.yul\":14334:14603   */\n      pop\n        /* \"#utility.yul\":14283:14603   */\n      swap2\n      swap1\n      pop\n      jump\t// out\n        /* \"#utility.yul\":14609:14890   */\n    tag_374:\n        /* \"#utility.yul\":14692:14719   */\n      tag_422\n        /* \"#utility.yul\":14714:14718   */\n      dup3\n        /* \"#utility.yul\":14692:14719   */\n      tag_300\n      jump\t// in\n    tag_422:\n        /* \"#utility.yul\":14684:14690   */\n      dup2\n        /* \"#utility.yul\":14680:14720   */\n      add\n        /* \"#utility.yul\":14822:14828   */\n      dup2\n        /* \"#utility.yul\":14810:14820   */\n      dup2\n        /* \"#utility.yul\":14807:14829   */\n      lt\n        /* \"#utility.yul\":14786:14804   */\n      0xffffffffffffffff\n        /* \"#utility.yul\":14774:14784   */\n      dup3\n        /* \"#utility.yul\":14771:14805   */\n      gt\n        /* \"#utility.yul\":14768:14830   */\n      or\n        /* \"#utility.yul\":14765:14853   */\n      iszero\n      tag_423\n      jumpi\n        /* \"#utility.yul\":14833:14851   */\n      tag_424\n      tag_26\n      jump\t// in\n    tag_424:\n        /* \"#utility.yul\":14765:14853   */\n    tag_423:\n        /* \"#utility.yul\":14873:14883   */\n      dup1\n        /* \"#utility.yul\":14869:14871   */\n      0x40\n        /* \"#utility.yul\":14862:14884   */\n      mstore\n        /* \"#utility.yul\":14652:14890   */\n      pop\n        /* \"#utility.yul\":14609:14890   */\n      pop\n      pop\n      jump\t// out\n        /* \"#utility.yul\":14896:15129   */\n    tag_45:\n        /* \"#utility.yul\":14935:14938   */\n      0x00\n        /* \"#utility.yul\":14958:14982   */\n      tag_426\n        /* \"#utility.yul\":14976:14981   */\n      dup3\n        /* \"#utility.yul\":14958:14982   */\n      tag_347\n      jump\t// in\n    tag_426:\n        /* \"#utility.yul\":14949:14982   */\n      swap2\n      pop\n        /* \"#utility.yul\":15004:15070   */\n      0xffffffffffffffffffffffffffffffffffffffffffffffffffffffffffffffff\n        /* \"#utility.yul\":14997:15002   */\n      dup3\n        /* \"#utility.yul\":14994:15071   */\n      eq\n        /* \"#utility.yul\":14991:15094   */\n      iszero\n      tag_427\n      jumpi\n        /* \"#utility.yul\":15074:15092   */\n      tag_428\n      tag_393\n      jump\t// in\n    tag_428:\n        /* \"#utility.yul\":14991:15094   */\n    tag_427:\n        /* \"#utility.yul\":15121:15122   */\n      0x01\n        /* \"#utility.yul\":15114:15119   */\n      dup3\n        /* \"#utility.yul\":15110:15123   */\n      add\n        /* \"#utility.yul\":15103:15123   */\n      swap1\n      pop\n        /* \"#utility.yul\":14896:15129   */\n      swap2\n      swap1\n      pop\n      jump\t// out\n        /* \"#utility.yul\":15135:15311   */\n    tag_212:\n        /* \"#utility.yul\":15167:15168   */\n      0x00\n        /* \"#utility.yul\":15184:15204   */\n      tag_430\n        /* \"#utility.yul\":15202:15203   */\n      dup3\n        /* \"#utility.yul\":15184:15204   */\n      tag_347\n      jump\t// in\n    tag_430:\n        /* \"#utility.yul\":15179:15204   */\n      swap2\n      pop\n        /* \"#utility.yul\":15218:15238   */\n      tag_431\n        /* \"#utility.yul\":15236:15237   */\n      dup4\n        /* \"#utility.yul\":15218:15238   */\n      tag_347\n      jump\t// in\n    tag_431:\n        /* \"#utility.yul\":15213:15238   */\n      swap3\n      pop\n        /* \"#utility.yul\":15257:15258   */\n      dup3\n        /* \"#utility.yul\":15247:15282   */\n      tag_432\n      jumpi\n        /* \"#utility.yul\":15262:15280   */\n      tag_433\n      tag_399\n      jump\t// in\n    tag_433:\n        /* \"#utility.yul\":15247:15282   */\n    tag_432:\n        /* \"#utility.yul\":15303:15304   */\n      dup3\n        /* \"#utility.yul\":15300:15301   */\n      dup3\n        /* \"#utility.yul\":15296:15305   */\n      mod\n        /* \"#utility.yul\":15291:15305   */\n      swap1\n      pop\n        /* \"#utility.yul\":15135:15311   */\n      swap3\n      swap2\n      pop\n      pop\n      jump\t// out\n        /* \"#utility.yul\":15317:15497   */\n    tag_393:\n        /* \"#utility.yul\":15365:15442   */\n      0x4e487b7100000000000000000000000000000000000000000000000000000000\n        /* \"#utility.yul\":15362:15363   */\n      0x00\n        /* \"#utility.yul\":15355:15443   */\n      mstore\n        /* \"#utility.yul\":15462:15466   */\n      0x11\n        /* \"#utility.yul\":15459:15460   */\n      0x04\n        /* \"#utility.yul\":15452:15467   */\n      mstore\n        /* \"#utility.yul\":15486:15490   */\n      0x24\n        /* \"#utility.yul\":15483:15484   */\n      0x00\n        /* \"#utility.yul\":15476:15491   */\n      revert\n        /* \"#utility.yul\":15503:15683   */\n    tag_399:\n        /* \"#utility.yul\":15551:15628   */\n      0x4e487b7100000000000000000000000000000000000000000000000000000000\n        /* \"#utility.yul\":15548:15549   */\n      0x00\n        /* \"#utility.yul\":15541:15629   */\n      mstore\n        /* \"#utility.yul\":15648:15652   */\n      0x12\n        /* \"#utility.yul\":15645:15646   */\n      0x04\n        /* \"#utility.yul\":15638:15653   */\n      mstore\n        /* \"#utility.yul\":15672:15676   */\n      0x24\n        /* \"#utility.yul\":15669:15670   */\n      0x00\n        /* \"#utility.yul\":15662:15677   */\n      revert\n        /* \"#utility.yul\":15689:15869   */\n    tag_420:\n        /* \"#utility.yul\":15737:15814   */\n      0x4e487b7100000000000000000000000000000000000000000000000000000000\n        /* \"#utility.yul\":15734:15735   */\n      0x00\n        /* \"#utility.yul\":15727:15815   */\n      mstore\n        /* \"#utility.yul\":15834:15838   */\n      0x22\n        /* \"#utility.yul\":15831:15832   */\n      0x04\n        /* \"#utility.yul\":15824:15839   */\n      mstore\n        /* \"#utility.yul\":15858:15862   */\n      0x24\n        /* \"#utility.yul\":15855:15856   */\n      0x00\n        /* \"#utility.yul\":15848:15863   */\n      revert\n        /* \"#utility.yul\":15875:16055   */\n    tag_34:\n        /* \"#utility.yul\":15923:16000   */\n      0x4e487b7100000000000000000000000000000000000000000000000000000000\n        /* \"#utility.yul\":15920:15921   */\n      0x00\n        /* \"#utility.yul\":15913:16001   */\n      mstore\n        /* \"#utility.yul\":16020:16024   */\n      0x32\n        /* \"#utility.yul\":16017:16018   */\n      0x04\n        /* \"#utility.yul\":16010:16025   */\n      mstore\n        /* \"#utility.yul\":16044:16048   */\n      0x24\n        /* \"#utility.yul\":16041:16042   */\n      0x00\n        /* \"#utility.yul\":16034:16049   */\n      revert\n        /* \"#utility.yul\":16061:16241   */\n    tag_26:\n        /* \"#utility.yul\":16109:16186   */\n      0x4e487b7100000000000000000000000000000000000000000000000000000000\n        /* \"#utility.yul\":16106:16107   */\n      0x00\n        /* \"#utility.yul\":16099:16187   */\n      mstore\n        /* \"#utility.yul\":16206:16210   */\n      0x41\n        /* \"#utility.yul\":16203:16204   */\n      0x04\n        /* \"#utility.yul\":16196:16211   */\n      mstore\n        /* \"#utility.yul\":16230:16234   */\n      0x24\n        /* \"#utility.yul\":16227:16228   */\n      0x00\n        /* \"#utility.yul\":16220:16235   */\n      revert\n        /* \"#utility.yul\":16247:16364   */\n    tag_253:\n        /* \"#utility.yul\":16356:16357   */\n      0x00\n        /* \"#utility.yul\":16353:16354   */\n      dup1\n        /* \"#utility.yul\":16346:16358   */\n      revert\n        /* \"#utility.yul\":16370:16487   */\n    tag_242:\n        /* \"#utility.yul\":16479:16480   */\n      0x00\n        /* \"#utility.yul\":16476:16477   */\n      dup1\n        /* \"#utility.yul\":16469:16481   */\n      revert\n        /* \"#utility.yul\":16493:16610   */\n    tag_262:\n        /* \"#utility.yul\":16602:16603   */\n      0x00\n        /* \"#utility.yul\":16599:16600   */\n      dup1\n        /* \"#utility.yul\":16592:16604   */\n      revert\n        /* \"#utility.yul\":16616:16733   */\n    tag_258:\n        /* \"#utility.yul\":16725:16726   */\n      0x00\n        /* \"#utility.yul\":16722:16723   */\n      dup1\n        /* \"#utility.yul\":16715:16727   */\n      revert\n        /* \"#utility.yul\":16739:16841   */\n    tag_300:\n        /* \"#utility.yul\":16780:16786   */\n      0x00\n        /* \"#utility.yul\":16831:16833   */\n      0x1f\n        /* \"#utility.yul\":16827:16834   */\n      not\n        /* \"#utility.yul\":16822:16824   */\n      0x1f\n        /* \"#utility.yul\":16815:16820   */\n      dup4\n        /* \"#utility.yul\":16811:16825   */\n      add\n        /* \"#utility.yul\":16807:16835   */\n      and\n        /* \"#utility.yul\":16797:16835   */\n      swap1\n      pop\n        /* \"#utility.yul\":16739:16841   */\n      swap2\n      swap1\n      pop\n      jump\t// out\n        /* \"#utility.yul\":16847:17071   */\n    tag_318:\n        /* \"#utility.yul\":16987:17021   */\n      0x566f746572206861766520616c72656164792068617320726967687420746f20\n        /* \"#utility.yul\":16983:16984   */\n      0x00\n        /* \"#utility.yul\":16975:16981   */\n      dup3\n        /* \"#utility.yul\":16971:16985   */\n      add\n        /* \"#utility.yul\":16964:17022   */\n      mstore\n        /* \"#utility.yul\":17056:17063   */\n      0x766f74652e000000000000000000000000000000000000000000000000000000\n        /* \"#utility.yul\":17051:17053   */\n      0x20\n        /* \"#utility.yul\":17043:17049   */\n      dup3\n        /* \"#utility.yul\":17039:17054   */\n      add\n        /* \"#utility.yul\":17032:17064   */\n      mstore\n        /* \"#utility.yul\":16847:17071   */\n      pop\n      jump\t// out\n        /* \"#utility.yul\":17077:17297   */\n    tag_323:\n        /* \"#utility.yul\":17217:17251   */\n      0x43616e64696461746520796f752073656e7420646f6573206e6f742065786973\n        /* \"#utility.yul\":17213:17214   */\n      0x00\n        /* \"#utility.yul\":17205:17211   */\n      dup3\n        /* \"#utility.yul\":17201:17215   */\n      add\n        /* \"#utility.yul\":17194:17252   */\n      mstore\n        /* \"#utility.yul\":17286:17289   */\n      0x7400000000000000000000000000000000000000000000000000000000000000\n        /* \"#utility.yul\":17281:17283   */\n      0x20\n        /* \"#utility.yul\":17273:17279   */\n      dup3\n        /* \"#utility.yul\":17269:17284   */\n      add\n        /* \"#utility.yul\":17262:17290   */\n      mstore\n        /* \"#utility.yul\":17077:17297   */\n      pop\n      jump\t// out\n        /* \"#utility.yul\":17303:17537   */\n    tag_328:\n        /* \"#utility.yul\":17443:17477   */\n      0x4d6178206163636f756e7420766f74657320697320726561636865642e204261\n        /* \"#utility.yul\":17439:17440   */\n      0x00\n        /* \"#utility.yul\":17431:17437   */\n      dup3\n        /* \"#utility.yul\":17427:17441   */\n      add\n        /* \"#utility.yul\":17420:17478   */\n      mstore\n        /* \"#utility.yul\":17512:17529   */\n      0x6c6c6f7420697320434c4f5345442e0000000000000000000000000000000000\n        /* \"#utility.yul\":17507:17509   */\n      0x20\n        /* \"#utility.yul\":17499:17505   */\n      dup3\n        /* \"#utility.yul\":17495:17510   */\n      add\n        /* \"#utility.yul\":17488:17530   */\n      mstore\n        /* \"#utility.yul\":17303:17537   */\n      pop\n      jump\t// out\n        /* \"#utility.yul\":17543:17777   */\n    tag_333:\n        /* \"#utility.yul\":17683:17717   */\n      0x4f6e6c792074686520636f6e7472616374206f776e65722063616e2067697665\n        /* \"#utility.yul\":17679:17680   */\n      0x00\n        /* \"#utility.yul\":17671:17677   */\n      dup3\n        /* \"#utility.yul\":17667:17681   */\n      add\n        /* \"#utility.yul\":17660:17718   */\n      mstore\n        /* \"#utility.yul\":17752:17769   */\n      0x20726967687420746f20766f74652e0000000000000000000000000000000000\n        /* \"#utility.yul\":17747:17749   */\n      0x20\n        /* \"#utility.yul\":17739:17745   */\n      dup3\n        /* \"#utility.yul\":17735:17750   */\n      add\n        /* \"#utility.yul\":17728:17770   */\n      mstore\n        /* \"#utility.yul\":17543:17777   */\n      pop\n      jump\t// out\n        /* \"#utility.yul\":17783:17934   */\n    tag_338:\n        /* \"#utility.yul\":17923:17926   */\n      0x2000000000000000000000000000000000000000000000000000000000000000\n        /* \"#utility.yul\":17919:17920   */\n      0x00\n        /* \"#utility.yul\":17911:17917   */\n      dup3\n        /* \"#utility.yul\":17907:17921   */\n      add\n        /* \"#utility.yul\":17900:17927   */\n      mstore\n        /* \"#utility.yul\":17783:17934   */\n      pop\n      jump\t// out\n        /* \"#utility.yul\":17940:18110   */\n    tag_343:\n        /* \"#utility.yul\":18080:18102   */\n      0x566f74657220616c726561647920766f7465642e000000000000000000000000\n        /* \"#utility.yul\":18076:18077   */\n      0x00\n        /* \"#utility.yul\":18068:18074   */\n      dup3\n        /* \"#utility.yul\":18064:18078   */\n      add\n        /* \"#utility.yul\":18057:18103   */\n      mstore\n        /* \"#utility.yul\":17940:18110   */\n      pop\n      jump\t// out\n        /* \"#utility.yul\":18116:18238   */\n    tag_248:\n        /* \"#utility.yul\":18189:18213   */\n      tag_451\n        /* \"#utility.yul\":18207:18212   */\n      dup2\n        /* \"#utility.yul\":18189:18213   */\n      tag_277\n      jump\t// in\n    tag_451:\n        /* \"#utility.yul\":18182:18187   */\n      dup2\n        /* \"#utility.yul\":18179:18214   */\n      eq\n        /* \"#utility.yul\":18169:18232   */\n      tag_452\n      jumpi\n        /* \"#utility.yul\":18228:18229   */\n      0x00\n        /* \"#utility.yul\":18225:18226   */\n      dup1\n        /* \"#utility.yul\":18218:18230   */\n      revert\n        /* \"#utility.yul\":18169:18232   */\n    tag_452:\n        /* \"#utility.yul\":18116:18238   */\n      pop\n      jump\t// out\n    stop\n    data_a86f8a1b7011199112405b0fe6b689f789eb027092e028eada6cd22c39fb5acb 5468657265206973206120544945206f6e2042616c6c6f742e20596f752073686f756c642073746172742061206e65772062616c6c6f742077697468207469652063616e646964617465733a\n\n    auxdata: 0xa2646970667358221220788bb1fef009e94d0aae0da3191922b8aabfe0a5847dc9e1498b3cee30220bde64736f6c63430008070033\n}\n",
				"bytecode": {
					"linkReferences": {},
					"object": "60806040523480156200001157600080fd5b50604051620020213803806200202183398181016040528101906200003791906200035b565b336000806101000a81548173ffffffffffffffffffffffffffffffffffffffff021916908373ffffffffffffffffffffffffffffffffffffffff16021790555062000088826200009760201b60201c565b80600481905550505062000649565b60005b8151811015620001435760026040518060400160405280848481518110620000c757620000c6620005a7565b5b602002602001015181526020016000815250908060018154018082558091505060019003906000526020600020906002020160009091909190915060008201518160000190805190602001906200012092919062000147565b5060208201518160010155505080806200013a90620004fb565b9150506200009a565b5050565b82805462000155906200048f565b90600052602060002090601f016020900481019282620001795760008555620001c5565b82601f106200019457805160ff1916838001178555620001c5565b82800160010185558215620001c5579182015b82811115620001c4578251825591602001919060010190620001a7565b5b509050620001d49190620001d8565b5090565b5b80821115620001f3576000816000905550600101620001d9565b5090565b60006200020e6200020884620003ea565b620003c1565b905080838252602082019050828560208602820111156200023457620002336200060a565b5b60005b858110156200028957815167ffffffffffffffff8111156200025e576200025d62000605565b5b8086016200026d898262000311565b8552602085019450602084019350505060018101905062000237565b5050509392505050565b6000620002aa620002a48462000419565b620003c1565b905082815260208101848484011115620002c957620002c86200060f565b5b620002d684828562000459565b509392505050565b600082601f830112620002f657620002f562000605565b5b815162000308848260208601620001f7565b91505092915050565b600082601f83011262000329576200032862000605565b5b81516200033b84826020860162000293565b91505092915050565b60008151905062000355816200062f565b92915050565b6000806040838503121562000375576200037462000619565b5b600083015167ffffffffffffffff81111562000396576200039562000614565b5b620003a485828601620002de565b9250506020620003b78582860162000344565b9150509250929050565b6000620003cd620003e0565b9050620003db8282620004c5565b919050565b6000604051905090565b600067ffffffffffffffff821115620004085762000407620005d6565b5b602082029050602081019050919050565b600067ffffffffffffffff821115620004375762000436620005d6565b5b62000442826200061e565b9050602081019050919050565b6000819050919050565b60005b83811015620004795780820151818401526020810190506200045c565b8381111562000489576000848401525b50505050565b60006002820490506001821680620004a857607f821691505b60208210811415620004bf57620004be62000578565b5b50919050565b620004d0826200061e565b810181811067ffffffffffffffff82111715620004f257620004f1620005d6565b5b80604052505050565b600062000508826200044f565b91507fffffffffffffffffffffffffffffffffffffffffffffffffffffffffffffffff8214156200053e576200053d62000549565b5b600182019050919050565b7f4e487b7100000000000000000000000000000000000000000000000000000000600052601160045260246000fd5b7f4e487b7100000000000000000000000000000000000000000000000000000000600052602260045260246000fd5b7f4e487b7100000000000000000000000000000000000000000000000000000000600052603260045260246000fd5b7f4e487b7100000000000000000000000000000000000000000000000000000000600052604160045260246000fd5b600080fd5b600080fd5b600080fd5b600080fd5b600080fd5b6000601f19601f8301169050919050565b6200063a816200044f565b81146200064657600080fd5b50565b6119c880620006596000396000f3fe608060405234801561001057600080fd5b506004361061004c5760003560e01c8063011d10231461005157806353f06ecd1461006f57806368957b201461008f578063fc36e15b146100ab575b600080fd5b6100596100c7565b6040516100669190611292565b60405180910390f35b610077610218565b604051610086939291906112d6565b60405180910390f35b6100a960048036038101906100a49190610fa2565b610247565b005b6100c560048036038101906100c09190610ffe565b610320565b005b60606000600280549050905060008167ffffffffffffffff8111156100ef576100ee61174d565b5b60405190808252806020026020018201604052801561012257816020015b606081526020019060019003908161010d5790505b50905060005b8281101561020f57600281815481106101445761014361171e565b5b90600052602060002090600202016000018054610160906115b4565b80601f016020809104026020016040519081016040528092919081815260200182805461018c906115b4565b80156101d95780601f106101ae576101008083540402835291602001916101d9565b820191906000526020600020905b8154815290600101906020018083116101bc57829003601f168201915b50505050508282815181106101f1576101f061171e565b5b6020026020010181905250808061020790611617565b915050610128565b50809250505090565b606060008060006102276104e7565b9050806000015193508060200151925061023f6109c7565b915050909192565b816102506109cf565b610258610a17565b61026181610a60565b61026a81610af3565b81600160008573ffffffffffffffffffffffffffffffffffffffff1673ffffffffffffffffffffffffffffffffffffffff16815260200190815260200160002060000190805190602001906102c0929190610e60565b5060018060008573ffffffffffffffffffffffffffffffffffffffff1673ffffffffffffffffffffffffffffffffffffffff16815260200190815260200160002060010160006101000a81548160ff021916908315150217905550505050565b336103296109cf565b61033281610a60565b61033b81610af3565b6000600160003373ffffffffffffffffffffffffffffffffffffffff1673ffffffffffffffffffffffffffffffffffffffff1681526020019081526020016000209050600080600090505b6002805490508110156104d75761044a600282815481106103aa576103a961171e565b5b906000526020600020906002020160000180546103c6906115b4565b80601f01602080910402602001604051908101604052809291908181526020018280546103f2906115b4565b801561043f5780601f106104145761010080835404028352916020019161043f565b820191906000526020600020905b81548152906001019060200180831161042257829003601f168201915b505050505086610b3f565b156104c457600281815481106104635761046261171e565b5b9060005260206000209060020201600101600081548092919061048590611617565b919050555060018360010160016101000a81548160ff021916908315150217905550600360008154809291906104ba90611617565b9190505550600191505b80806104cf90611617565b915050610386565b506104e181610b98565b50505050565b6104ef610ee6565b6000806000600280549050905060008167ffffffffffffffff8111156105185761051761174d565b5b60405190808252806020026020018201604052801561054b57816020015b60608152602001906001900390816105365790505b50905060008060019050606060005b858110156108185787600282815481106105775761057661171e565b5b90600052602060002090600202016001015411156106f857600281815481106105a3576105a261171e565b5b906000526020600020906002020160010154975080965082156106f35760009250600093508567ffffffffffffffff8111156105e2576105e161174d565b5b60405190808252806020026020018201604052801561061557816020015b60608152602001906001900390816106005790505b5094506002818154811061062c5761062b61171e565b5b90600052602060002090600202016000018054610648906115b4565b80601f0160208091040260200160405190810160405280929190818152602001828054610674906115b4565b80156106c15780601f10610696576101008083540402835291602001916106c1565b820191906000526020600020905b8154815290600101906020018083116106a457829003601f168201915b50505050508585815181106106d9576106d861171e565b5b602002602001018190525083806106ef90611617565b9450505b610805565b876002828154811061070d5761070c61171e565b5b906000526020600020906002020160010154141561080457600192506002818154811061073d5761073c61171e565b5b90600052602060002090600202016000018054610759906115b4565b80601f0160208091040260200160405190810160405280929190818152602001828054610785906115b4565b80156107d25780601f106107a7576101008083540402835291602001916107d2565b820191906000526020600020905b8154815290600101906020018083116107b557829003601f168201915b50505050508585815181106107ea576107e961171e565b5b6020026020010181905250838061080090611617565b9450505b5b808061081090611617565b91505061055a565b5081156108f15760005b84518110156108645761084f828683815181106108425761084161171e565b5b6020026020010151610bdb565b9150808061085c90611617565b915050610822565b5060006108896040518060800160405280604c8152602001611947604c913983610bdb565b90506108ca816040518060400160405280601a81526020017f77697468207468697320616d6f756e74206f6620766f7465733a000000000000815250610bdb565b90506108de816108d98a610c07565b610bdb565b90506108eb831582610d68565b506109bd565b600286815481106109055761090461171e565b5b906000526020600020906002020160405180604001604052908160008201805461092e906115b4565b80601f016020809104026020016040519081016040528092919081815260200182805461095a906115b4565b80156109a75780601f1061097c576101008083540402835291602001916109a7565b820191906000526020600020905b81548152906001019060200180831161098a57829003601f168201915b5050505050815260200160018201548152505097505b5050505050505090565b600030905090565b60045460035410610a15576040517f08c379a0000000000000000000000000000000000000000000000000000000008152600401610a0c90611354565b60405180910390fd5b565b610a1f610db0565b610a5e576040517f08c379a0000000000000000000000000000000000000000000000000000000008152600401610a5590611374565b60405180910390fd5b565b600160008273ffffffffffffffffffffffffffffffffffffffff1673ffffffffffffffffffffffffffffffffffffffff16815260200190815260200160002060010160009054906101000a900460ff1615610af0576040517f08c379a0000000000000000000000000000000000000000000000000000000008152600401610ae790611314565b60405180910390fd5b50565b610afc81610e07565b15610b3c576040517f08c379a0000000000000000000000000000000000000000000000000000000008152600401610b3390611394565b60405180910390fd5b50565b600081604051602001610b5291906112b4565b6040516020818303038152906040528051906020012083604051602001610b7991906112b4565b6040516020818303038152906040528051906020012014905092915050565b80610bd8576040517f08c379a0000000000000000000000000000000000000000000000000000000008152600401610bcf90611334565b60405180910390fd5b50565b60608282604051602001610bf0929190611263565b604051602081830303815290604052905092915050565b60606000821415610c4f576040518060400160405280600181526020017f30000000000000000000000000000000000000000000000000000000000000008152509050610d63565b600082905060005b60008214610c81578080610c6a90611617565b915050600a82610c7a91906114d1565b9150610c57565b60008167ffffffffffffffff811115610c9d57610c9c61174d565b5b6040519080825280601f01601f191660200182016040528015610ccf5781602001600182028036833780820191505090505b5090505b60008514610d5c57600182610ce89190611502565b9150600a85610cf79190611660565b6030610d03919061147b565b60f81b818381518110610d1957610d1861171e565b5b60200101907effffffffffffffffffffffffffffffffffffffffffffffffffffffffffffff1916908160001a905350600a85610d5591906114d1565b9450610cd3565b8093505050505b919050565b818190610dab576040517f08c379a0000000000000000000000000000000000000000000000000000000008152600401610da291906112b4565b60405180910390fd5b505050565b60008060009054906101000a900473ffffffffffffffffffffffffffffffffffffffff1673ffffffffffffffffffffffffffffffffffffffff163373ffffffffffffffffffffffffffffffffffffffff1614905090565b6000600160008373ffffffffffffffffffffffffffffffffffffffff1673ffffffffffffffffffffffffffffffffffffffff16815260200190815260200160002060010160019054906101000a900460ff169050919050565b828054610e6c906115b4565b90600052602060002090601f016020900481019282610e8e5760008555610ed5565b82601f10610ea757805160ff1916838001178555610ed5565b82800160010185558215610ed5579182015b82811115610ed4578251825591602001919060010190610eb9565b5b509050610ee29190610f00565b5090565b604051806040016040528060608152602001600081525090565b5b80821115610f19576000816000905550600101610f01565b5090565b6000610f30610f2b846113d9565b6113b4565b905082815260208101848484011115610f4c57610f4b611781565b5b610f57848285611572565b509392505050565b600081359050610f6e8161192f565b92915050565b600082601f830112610f8957610f8861177c565b5b8135610f99848260208601610f1d565b91505092915050565b60008060408385031215610fb957610fb861178b565b5b6000610fc785828601610f5f565b925050602083013567ffffffffffffffff811115610fe857610fe7611786565b5b610ff485828601610f74565b9150509250929050565b6000602082840312156110145761101361178b565b5b600082013567ffffffffffffffff81111561103257611031611786565b5b61103e84828501610f74565b91505092915050565b600061105383836110df565b905092915050565b61106481611536565b82525050565b60006110758261141a565b61107f818561143d565b9350836020820285016110918561140a565b8060005b858110156110cd57848403895281516110ae8582611047565b94506110b983611430565b925060208a01995050600181019050611095565b50829750879550505050505092915050565b60006110ea82611425565b6110f4818561144e565b9350611104818560208601611581565b61110d81611790565b840191505092915050565b600061112382611425565b61112d818561145f565b935061113d818560208601611581565b61114681611790565b840191505092915050565b600061115c82611425565b6111668185611470565b9350611176818560208601611581565b80840191505092915050565b600061118f60258361145f565b915061119a826117a1565b604082019050919050565b60006111b260218361145f565b91506111bd826117f0565b604082019050919050565b60006111d5602f8361145f565b91506111e08261183f565b604082019050919050565b60006111f8602f8361145f565b91506112038261188e565b604082019050919050565b600061121b600183611470565b9150611226826118dd565b600182019050919050565b600061123e60148361145f565b915061124982611906565b602082019050919050565b61125d81611568565b82525050565b600061126f8285611151565b915061127a8261120e565b91506112868284611151565b91508190509392505050565b600060208201905081810360008301526112ac818461106a565b905092915050565b600060208201905081810360008301526112ce8184611118565b905092915050565b600060608201905081810360008301526112f08186611118565b90506112ff6020830185611254565b61130c604083018461105b565b949350505050565b6000602082019050818103600083015261132d81611182565b9050919050565b6000602082019050818103600083015261134d816111a5565b9050919050565b6000602082019050818103600083015261136d816111c8565b9050919050565b6000602082019050818103600083015261138d816111eb565b9050919050565b600060208201905081810360008301526113ad81611231565b9050919050565b60006113be6113cf565b90506113ca82826115e6565b919050565b6000604051905090565b600067ffffffffffffffff8211156113f4576113f361174d565b5b6113fd82611790565b9050602081019050919050565b6000819050602082019050919050565b600081519050919050565b600081519050919050565b6000602082019050919050565b600082825260208201905092915050565b600082825260208201905092915050565b600082825260208201905092915050565b600081905092915050565b600061148682611568565b915061149183611568565b9250827fffffffffffffffffffffffffffffffffffffffffffffffffffffffffffffffff038211156114c6576114c5611691565b5b828201905092915050565b60006114dc82611568565b91506114e783611568565b9250826114f7576114f66116c0565b5b828204905092915050565b600061150d82611568565b915061151883611568565b92508282101561152b5761152a611691565b5b828203905092915050565b600061154182611548565b9050919050565b600073ffffffffffffffffffffffffffffffffffffffff82169050919050565b6000819050919050565b82818337600083830152505050565b60005b8381101561159f578082015181840152602081019050611584565b838111156115ae576000848401525b50505050565b600060028204905060018216806115cc57607f821691505b602082108114156115e0576115df6116ef565b5b50919050565b6115ef82611790565b810181811067ffffffffffffffff8211171561160e5761160d61174d565b5b80604052505050565b600061162282611568565b91507fffffffffffffffffffffffffffffffffffffffffffffffffffffffffffffffff82141561165557611654611691565b5b600182019050919050565b600061166b82611568565b915061167683611568565b925082611686576116856116c0565b5b828206905092915050565b7f4e487b7100000000000000000000000000000000000000000000000000000000600052601160045260246000fd5b7f4e487b7100000000000000000000000000000000000000000000000000000000600052601260045260246000fd5b7f4e487b7100000000000000000000000000000000000000000000000000000000600052602260045260246000fd5b7f4e487b7100000000000000000000000000000000000000000000000000000000600052603260045260246000fd5b7f4e487b7100000000000000000000000000000000000000000000000000000000600052604160045260246000fd5b600080fd5b600080fd5b600080fd5b600080fd5b6000601f19601f8301169050919050565b7f566f746572206861766520616c72656164792068617320726967687420746f2060008201527f766f74652e000000000000000000000000000000000000000000000000000000602082015250565b7f43616e64696461746520796f752073656e7420646f6573206e6f74206578697360008201527f7400000000000000000000000000000000000000000000000000000000000000602082015250565b7f4d6178206163636f756e7420766f74657320697320726561636865642e20426160008201527f6c6c6f7420697320434c4f5345442e0000000000000000000000000000000000602082015250565b7f4f6e6c792074686520636f6e7472616374206f776e65722063616e206769766560008201527f20726967687420746f20766f74652e0000000000000000000000000000000000602082015250565b7f2000000000000000000000000000000000000000000000000000000000000000600082015250565b7f566f74657220616c726561647920766f7465642e000000000000000000000000600082015250565b61193881611536565b811461194357600080fd5b5056fe5468657265206973206120544945206f6e2042616c6c6f742e20596f752073686f756c642073746172742061206e65772062616c6c6f742077697468207469652063616e646964617465733aa2646970667358221220788bb1fef009e94d0aae0da3191922b8aabfe0a5847dc9e1498b3cee30220bde64736f6c63430008070033",
					"opcodes": "PUSH1 0x80 PUSH1 0x40 MSTORE CALLVALUE DUP1 ISZERO PUSH3 0x11 JUMPI PUSH1 0x0 DUP1 REVERT JUMPDEST POP PUSH1 0x40 MLOAD PUSH3 0x2021 CODESIZE SUB DUP1 PUSH3 0x2021 DUP4 CODECOPY DUP2 DUP2 ADD PUSH1 0x40 MSTORE DUP2 ADD SWAP1 PUSH3 0x37 SWAP2 SWAP1 PUSH3 0x35B JUMP JUMPDEST CALLER PUSH1 0x0 DUP1 PUSH2 0x100 EXP DUP2 SLOAD DUP2 PUSH20 0xFFFFFFFFFFFFFFFFFFFFFFFFFFFFFFFFFFFFFFFF MUL NOT AND SWAP1 DUP4 PUSH20 0xFFFFFFFFFFFFFFFFFFFFFFFFFFFFFFFFFFFFFFFF AND MUL OR SWAP1 SSTORE POP PUSH3 0x88 DUP3 PUSH3 0x97 PUSH1 0x20 SHL PUSH1 0x20 SHR JUMP JUMPDEST DUP1 PUSH1 0x4 DUP2 SWAP1 SSTORE POP POP POP PUSH3 0x649 JUMP JUMPDEST PUSH1 0x0 JUMPDEST DUP2 MLOAD DUP2 LT ISZERO PUSH3 0x143 JUMPI PUSH1 0x2 PUSH1 0x40 MLOAD DUP1 PUSH1 0x40 ADD PUSH1 0x40 MSTORE DUP1 DUP5 DUP5 DUP2 MLOAD DUP2 LT PUSH3 0xC7 JUMPI PUSH3 0xC6 PUSH3 0x5A7 JUMP JUMPDEST JUMPDEST PUSH1 0x20 MUL PUSH1 0x20 ADD ADD MLOAD DUP2 MSTORE PUSH1 0x20 ADD PUSH1 0x0 DUP2 MSTORE POP SWAP1 DUP1 PUSH1 0x1 DUP2 SLOAD ADD DUP1 DUP3 SSTORE DUP1 SWAP2 POP POP PUSH1 0x1 SWAP1 SUB SWAP1 PUSH1 0x0 MSTORE PUSH1 0x20 PUSH1 0x0 KECCAK256 SWAP1 PUSH1 0x2 MUL ADD PUSH1 0x0 SWAP1 SWAP2 SWAP1 SWAP2 SWAP1 SWAP2 POP PUSH1 0x0 DUP3 ADD MLOAD DUP2 PUSH1 0x0 ADD SWAP1 DUP1 MLOAD SWAP1 PUSH1 0x20 ADD SWAP1 PUSH3 0x120 SWAP3 SWAP2 SWAP1 PUSH3 0x147 JUMP JUMPDEST POP PUSH1 0x20 DUP3 ADD MLOAD DUP2 PUSH1 0x1 ADD SSTORE POP POP DUP1 DUP1 PUSH3 0x13A SWAP1 PUSH3 0x4FB JUMP JUMPDEST SWAP2 POP POP PUSH3 0x9A JUMP JUMPDEST POP POP JUMP JUMPDEST DUP3 DUP1 SLOAD PUSH3 0x155 SWAP1 PUSH3 0x48F JUMP JUMPDEST SWAP1 PUSH1 0x0 MSTORE PUSH1 0x20 PUSH1 0x0 KECCAK256 SWAP1 PUSH1 0x1F ADD PUSH1 0x20 SWAP1 DIV DUP2 ADD SWAP3 DUP3 PUSH3 0x179 JUMPI PUSH1 0x0 DUP6 SSTORE PUSH3 0x1C5 JUMP JUMPDEST DUP3 PUSH1 0x1F LT PUSH3 0x194 JUMPI DUP1 MLOAD PUSH1 0xFF NOT AND DUP4 DUP1 ADD OR DUP6 SSTORE PUSH3 0x1C5 JUMP JUMPDEST DUP3 DUP1 ADD PUSH1 0x1 ADD DUP6 SSTORE DUP3 ISZERO PUSH3 0x1C5 JUMPI SWAP2 DUP3 ADD JUMPDEST DUP3 DUP2 GT ISZERO PUSH3 0x1C4 JUMPI DUP3 MLOAD DUP3 SSTORE SWAP2 PUSH1 0x20 ADD SWAP2 SWAP1 PUSH1 0x1 ADD SWAP1 PUSH3 0x1A7 JUMP JUMPDEST JUMPDEST POP SWAP1 POP PUSH3 0x1D4 SWAP2 SWAP1 PUSH3 0x1D8 JUMP JUMPDEST POP SWAP1 JUMP JUMPDEST JUMPDEST DUP1 DUP3 GT ISZERO PUSH3 0x1F3 JUMPI PUSH1 0x0 DUP2 PUSH1 0x0 SWAP1 SSTORE POP PUSH1 0x1 ADD PUSH3 0x1D9 JUMP JUMPDEST POP SWAP1 JUMP JUMPDEST PUSH1 0x0 PUSH3 0x20E PUSH3 0x208 DUP5 PUSH3 0x3EA JUMP JUMPDEST PUSH3 0x3C1 JUMP JUMPDEST SWAP1 POP DUP1 DUP4 DUP3 MSTORE PUSH1 0x20 DUP3 ADD SWAP1 POP DUP3 DUP6 PUSH1 0x20 DUP7 MUL DUP3 ADD GT ISZERO PUSH3 0x234 JUMPI PUSH3 0x233 PUSH3 0x60A JUMP JUMPDEST JUMPDEST PUSH1 0x0 JUMPDEST DUP6 DUP2 LT ISZERO PUSH3 0x289 JUMPI DUP2 MLOAD PUSH8 0xFFFFFFFFFFFFFFFF DUP2 GT ISZERO PUSH3 0x25E JUMPI PUSH3 0x25D PUSH3 0x605 JUMP JUMPDEST JUMPDEST DUP1 DUP7 ADD PUSH3 0x26D DUP10 DUP3 PUSH3 0x311 JUMP JUMPDEST DUP6 MSTORE PUSH1 0x20 DUP6 ADD SWAP5 POP PUSH1 0x20 DUP5 ADD SWAP4 POP POP POP PUSH1 0x1 DUP2 ADD SWAP1 POP PUSH3 0x237 JUMP JUMPDEST POP POP POP SWAP4 SWAP3 POP POP POP JUMP JUMPDEST PUSH1 0x0 PUSH3 0x2AA PUSH3 0x2A4 DUP5 PUSH3 0x419 JUMP JUMPDEST PUSH3 0x3C1 JUMP JUMPDEST SWAP1 POP DUP3 DUP2 MSTORE PUSH1 0x20 DUP2 ADD DUP5 DUP5 DUP5 ADD GT ISZERO PUSH3 0x2C9 JUMPI PUSH3 0x2C8 PUSH3 0x60F JUMP JUMPDEST JUMPDEST PUSH3 0x2D6 DUP5 DUP3 DUP6 PUSH3 0x459 JUMP JUMPDEST POP SWAP4 SWAP3 POP POP POP JUMP JUMPDEST PUSH1 0x0 DUP3 PUSH1 0x1F DUP4 ADD SLT PUSH3 0x2F6 JUMPI PUSH3 0x2F5 PUSH3 0x605 JUMP JUMPDEST JUMPDEST DUP2 MLOAD PUSH3 0x308 DUP5 DUP3 PUSH1 0x20 DUP7 ADD PUSH3 0x1F7 JUMP JUMPDEST SWAP2 POP POP SWAP3 SWAP2 POP POP JUMP JUMPDEST PUSH1 0x0 DUP3 PUSH1 0x1F DUP4 ADD SLT PUSH3 0x329 JUMPI PUSH3 0x328 PUSH3 0x605 JUMP JUMPDEST JUMPDEST DUP2 MLOAD PUSH3 0x33B DUP5 DUP3 PUSH1 0x20 DUP7 ADD PUSH3 0x293 JUMP JUMPDEST SWAP2 POP POP SWAP3 SWAP2 POP POP JUMP JUMPDEST PUSH1 0x0 DUP2 MLOAD SWAP1 POP PUSH3 0x355 DUP2 PUSH3 0x62F JUMP JUMPDEST SWAP3 SWAP2 POP POP JUMP JUMPDEST PUSH1 0x0 DUP1 PUSH1 0x40 DUP4 DUP6 SUB SLT ISZERO PUSH3 0x375 JUMPI PUSH3 0x374 PUSH3 0x619 JUMP JUMPDEST JUMPDEST PUSH1 0x0 DUP4 ADD MLOAD PUSH8 0xFFFFFFFFFFFFFFFF DUP2 GT ISZERO PUSH3 0x396 JUMPI PUSH3 0x395 PUSH3 0x614 JUMP JUMPDEST JUMPDEST PUSH3 0x3A4 DUP6 DUP3 DUP7 ADD PUSH3 0x2DE JUMP JUMPDEST SWAP3 POP POP PUSH1 0x20 PUSH3 0x3B7 DUP6 DUP3 DUP7 ADD PUSH3 0x344 JUMP JUMPDEST SWAP2 POP POP SWAP3 POP SWAP3 SWAP1 POP JUMP JUMPDEST PUSH1 0x0 PUSH3 0x3CD PUSH3 0x3E0 JUMP JUMPDEST SWAP1 POP PUSH3 0x3DB DUP3 DUP3 PUSH3 0x4C5 JUMP JUMPDEST SWAP2 SWAP1 POP JUMP JUMPDEST PUSH1 0x0 PUSH1 0x40 MLOAD SWAP1 POP SWAP1 JUMP JUMPDEST PUSH1 0x0 PUSH8 0xFFFFFFFFFFFFFFFF DUP3 GT ISZERO PUSH3 0x408 JUMPI PUSH3 0x407 PUSH3 0x5D6 JUMP JUMPDEST JUMPDEST PUSH1 0x20 DUP3 MUL SWAP1 POP PUSH1 0x20 DUP2 ADD SWAP1 POP SWAP2 SWAP1 POP JUMP JUMPDEST PUSH1 0x0 PUSH8 0xFFFFFFFFFFFFFFFF DUP3 GT ISZERO PUSH3 0x437 JUMPI PUSH3 0x436 PUSH3 0x5D6 JUMP JUMPDEST JUMPDEST PUSH3 0x442 DUP3 PUSH3 0x61E JUMP JUMPDEST SWAP1 POP PUSH1 0x20 DUP2 ADD SWAP1 POP SWAP2 SWAP1 POP JUMP JUMPDEST PUSH1 0x0 DUP2 SWAP1 POP SWAP2 SWAP1 POP JUMP JUMPDEST PUSH1 0x0 JUMPDEST DUP4 DUP2 LT ISZERO PUSH3 0x479 JUMPI DUP1 DUP3 ADD MLOAD DUP2 DUP5 ADD MSTORE PUSH1 0x20 DUP2 ADD SWAP1 POP PUSH3 0x45C JUMP JUMPDEST DUP4 DUP2 GT ISZERO PUSH3 0x489 JUMPI PUSH1 0x0 DUP5 DUP5 ADD MSTORE JUMPDEST POP POP POP POP JUMP JUMPDEST PUSH1 0x0 PUSH1 0x2 DUP3 DIV SWAP1 POP PUSH1 0x1 DUP3 AND DUP1 PUSH3 0x4A8 JUMPI PUSH1 0x7F DUP3 AND SWAP2 POP JUMPDEST PUSH1 0x20 DUP3 LT DUP2 EQ ISZERO PUSH3 0x4BF JUMPI PUSH3 0x4BE PUSH3 0x578 JUMP JUMPDEST JUMPDEST POP SWAP2 SWAP1 POP JUMP JUMPDEST PUSH3 0x4D0 DUP3 PUSH3 0x61E JUMP JUMPDEST DUP2 ADD DUP2 DUP2 LT PUSH8 0xFFFFFFFFFFFFFFFF DUP3 GT OR ISZERO PUSH3 0x4F2 JUMPI PUSH3 0x4F1 PUSH3 0x5D6 JUMP JUMPDEST JUMPDEST DUP1 PUSH1 0x40 MSTORE POP POP POP JUMP JUMPDEST PUSH1 0x0 PUSH3 0x508 DUP3 PUSH3 0x44F JUMP JUMPDEST SWAP2 POP PUSH32 0xFFFFFFFFFFFFFFFFFFFFFFFFFFFFFFFFFFFFFFFFFFFFFFFFFFFFFFFFFFFFFFFF DUP3 EQ ISZERO PUSH3 0x53E JUMPI PUSH3 0x53D PUSH3 0x549 JUMP JUMPDEST JUMPDEST PUSH1 0x1 DUP3 ADD SWAP1 POP SWAP2 SWAP1 POP JUMP JUMPDEST PUSH32 0x4E487B7100000000000000000000000000000000000000000000000000000000 PUSH1 0x0 MSTORE PUSH1 0x11 PUSH1 0x4 MSTORE PUSH1 0x24 PUSH1 0x0 REVERT JUMPDEST PUSH32 0x4E487B7100000000000000000000000000000000000000000000000000000000 PUSH1 0x0 MSTORE PUSH1 0x22 PUSH1 0x4 MSTORE PUSH1 0x24 PUSH1 0x0 REVERT JUMPDEST PUSH32 0x4E487B7100000000000000000000000000000000000000000000000000000000 PUSH1 0x0 MSTORE PUSH1 0x32 PUSH1 0x4 MSTORE PUSH1 0x24 PUSH1 0x0 REVERT JUMPDEST PUSH32 0x4E487B7100000000000000000000000000000000000000000000000000000000 PUSH1 0x0 MSTORE PUSH1 0x41 PUSH1 0x4 MSTORE PUSH1 0x24 PUSH1 0x0 REVERT JUMPDEST PUSH1 0x0 DUP1 REVERT JUMPDEST PUSH1 0x0 DUP1 REVERT JUMPDEST PUSH1 0x0 DUP1 REVERT JUMPDEST PUSH1 0x0 DUP1 REVERT JUMPDEST PUSH1 0x0 DUP1 REVERT JUMPDEST PUSH1 0x0 PUSH1 0x1F NOT PUSH1 0x1F DUP4 ADD AND SWAP1 POP SWAP2 SWAP1 POP JUMP JUMPDEST PUSH3 0x63A DUP2 PUSH3 0x44F JUMP JUMPDEST DUP2 EQ PUSH3 0x646 JUMPI PUSH1 0x0 DUP1 REVERT JUMPDEST POP JUMP JUMPDEST PUSH2 0x19C8 DUP1 PUSH3 0x659 PUSH1 0x0 CODECOPY PUSH1 0x0 RETURN INVALID PUSH1 0x80 PUSH1 0x40 MSTORE CALLVALUE DUP1 ISZERO PUSH2 0x10 JUMPI PUSH1 0x0 DUP1 REVERT JUMPDEST POP PUSH1 0x4 CALLDATASIZE LT PUSH2 0x4C JUMPI PUSH1 0x0 CALLDATALOAD PUSH1 0xE0 SHR DUP1 PUSH4 0x11D1023 EQ PUSH2 0x51 JUMPI DUP1 PUSH4 0x53F06ECD EQ PUSH2 0x6F JUMPI DUP1 PUSH4 0x68957B20 EQ PUSH2 0x8F JUMPI DUP1 PUSH4 0xFC36E15B EQ PUSH2 0xAB JUMPI JUMPDEST PUSH1 0x0 DUP1 REVERT JUMPDEST PUSH2 0x59 PUSH2 0xC7 JUMP JUMPDEST PUSH1 0x40 MLOAD PUSH2 0x66 SWAP2 SWAP1 PUSH2 0x1292 JUMP JUMPDEST PUSH1 0x40 MLOAD DUP1 SWAP2 SUB SWAP1 RETURN JUMPDEST PUSH2 0x77 PUSH2 0x218 JUMP JUMPDEST PUSH1 0x40 MLOAD PUSH2 0x86 SWAP4 SWAP3 SWAP2 SWAP1 PUSH2 0x12D6 JUMP JUMPDEST PUSH1 0x40 MLOAD DUP1 SWAP2 SUB SWAP1 RETURN JUMPDEST PUSH2 0xA9 PUSH1 0x4 DUP1 CALLDATASIZE SUB DUP2 ADD SWAP1 PUSH2 0xA4 SWAP2 SWAP1 PUSH2 0xFA2 JUMP JUMPDEST PUSH2 0x247 JUMP JUMPDEST STOP JUMPDEST PUSH2 0xC5 PUSH1 0x4 DUP1 CALLDATASIZE SUB DUP2 ADD SWAP1 PUSH2 0xC0 SWAP2 SWAP1 PUSH2 0xFFE JUMP JUMPDEST PUSH2 0x320 JUMP JUMPDEST STOP JUMPDEST PUSH1 0x60 PUSH1 0x0 PUSH1 0x2 DUP1 SLOAD SWAP1 POP SWAP1 POP PUSH1 0x0 DUP2 PUSH8 0xFFFFFFFFFFFFFFFF DUP2 GT ISZERO PUSH2 0xEF JUMPI PUSH2 0xEE PUSH2 0x174D JUMP JUMPDEST JUMPDEST PUSH1 0x40 MLOAD SWAP1 DUP1 DUP3 MSTORE DUP1 PUSH1 0x20 MUL PUSH1 0x20 ADD DUP3 ADD PUSH1 0x40 MSTORE DUP1 ISZERO PUSH2 0x122 JUMPI DUP2 PUSH1 0x20 ADD JUMPDEST PUSH1 0x60 DUP2 MSTORE PUSH1 0x20 ADD SWAP1 PUSH1 0x1 SWAP1 SUB SWAP1 DUP2 PUSH2 0x10D JUMPI SWAP1 POP JUMPDEST POP SWAP1 POP PUSH1 0x0 JUMPDEST DUP3 DUP2 LT ISZERO PUSH2 0x20F JUMPI PUSH1 0x2 DUP2 DUP2 SLOAD DUP2 LT PUSH2 0x144 JUMPI PUSH2 0x143 PUSH2 0x171E JUMP JUMPDEST JUMPDEST SWAP1 PUSH1 0x0 MSTORE PUSH1 0x20 PUSH1 0x0 KECCAK256 SWAP1 PUSH1 0x2 MUL ADD PUSH1 0x0 ADD DUP1 SLOAD PUSH2 0x160 SWAP1 PUSH2 0x15B4 JUMP JUMPDEST DUP1 PUSH1 0x1F ADD PUSH1 0x20 DUP1 SWAP2 DIV MUL PUSH1 0x20 ADD PUSH1 0x40 MLOAD SWAP1 DUP2 ADD PUSH1 0x40 MSTORE DUP1 SWAP3 SWAP2 SWAP1 DUP2 DUP2 MSTORE PUSH1 0x20 ADD DUP3 DUP1 SLOAD PUSH2 0x18C SWAP1 PUSH2 0x15B4 JUMP JUMPDEST DUP1 ISZERO PUSH2 0x1D9 JUMPI DUP1 PUSH1 0x1F LT PUSH2 0x1AE JUMPI PUSH2 0x100 DUP1 DUP4 SLOAD DIV MUL DUP4 MSTORE SWAP2 PUSH1 0x20 ADD SWAP2 PUSH2 0x1D9 JUMP JUMPDEST DUP3 ADD SWAP2 SWAP1 PUSH1 0x0 MSTORE PUSH1 0x20 PUSH1 0x0 KECCAK256 SWAP1 JUMPDEST DUP2 SLOAD DUP2 MSTORE SWAP1 PUSH1 0x1 ADD SWAP1 PUSH1 0x20 ADD DUP1 DUP4 GT PUSH2 0x1BC JUMPI DUP3 SWAP1 SUB PUSH1 0x1F AND DUP3 ADD SWAP2 JUMPDEST POP POP POP POP POP DUP3 DUP3 DUP2 MLOAD DUP2 LT PUSH2 0x1F1 JUMPI PUSH2 0x1F0 PUSH2 0x171E JUMP JUMPDEST JUMPDEST PUSH1 0x20 MUL PUSH1 0x20 ADD ADD DUP2 SWAP1 MSTORE POP DUP1 DUP1 PUSH2 0x207 SWAP1 PUSH2 0x1617 JUMP JUMPDEST SWAP2 POP POP PUSH2 0x128 JUMP JUMPDEST POP DUP1 SWAP3 POP POP POP SWAP1 JUMP JUMPDEST PUSH1 0x60 PUSH1 0x0 DUP1 PUSH1 0x0 PUSH2 0x227 PUSH2 0x4E7 JUMP JUMPDEST SWAP1 POP DUP1 PUSH1 0x0 ADD MLOAD SWAP4 POP DUP1 PUSH1 0x20 ADD MLOAD SWAP3 POP PUSH2 0x23F PUSH2 0x9C7 JUMP JUMPDEST SWAP2 POP POP SWAP1 SWAP2 SWAP3 JUMP JUMPDEST DUP2 PUSH2 0x250 PUSH2 0x9CF JUMP JUMPDEST PUSH2 0x258 PUSH2 0xA17 JUMP JUMPDEST PUSH2 0x261 DUP2 PUSH2 0xA60 JUMP JUMPDEST PUSH2 0x26A DUP2 PUSH2 0xAF3 JUMP JUMPDEST DUP2 PUSH1 0x1 PUSH1 0x0 DUP6 PUSH20 0xFFFFFFFFFFFFFFFFFFFFFFFFFFFFFFFFFFFFFFFF AND PUSH20 0xFFFFFFFFFFFFFFFFFFFFFFFFFFFFFFFFFFFFFFFF AND DUP2 MSTORE PUSH1 0x20 ADD SWAP1 DUP2 MSTORE PUSH1 0x20 ADD PUSH1 0x0 KECCAK256 PUSH1 0x0 ADD SWAP1 DUP1 MLOAD SWAP1 PUSH1 0x20 ADD SWAP1 PUSH2 0x2C0 SWAP3 SWAP2 SWAP1 PUSH2 0xE60 JUMP JUMPDEST POP PUSH1 0x1 DUP1 PUSH1 0x0 DUP6 PUSH20 0xFFFFFFFFFFFFFFFFFFFFFFFFFFFFFFFFFFFFFFFF AND PUSH20 0xFFFFFFFFFFFFFFFFFFFFFFFFFFFFFFFFFFFFFFFF AND DUP2 MSTORE PUSH1 0x20 ADD SWAP1 DUP2 MSTORE PUSH1 0x20 ADD PUSH1 0x0 KECCAK256 PUSH1 0x1 ADD PUSH1 0x0 PUSH2 0x100 EXP DUP2 SLOAD DUP2 PUSH1 0xFF MUL NOT AND SWAP1 DUP4 ISZERO ISZERO MUL OR SWAP1 SSTORE POP POP POP POP JUMP JUMPDEST CALLER PUSH2 0x329 PUSH2 0x9CF JUMP JUMPDEST PUSH2 0x332 DUP2 PUSH2 0xA60 JUMP JUMPDEST PUSH2 0x33B DUP2 PUSH2 0xAF3 JUMP JUMPDEST PUSH1 0x0 PUSH1 0x1 PUSH1 0x0 CALLER PUSH20 0xFFFFFFFFFFFFFFFFFFFFFFFFFFFFFFFFFFFFFFFF AND PUSH20 0xFFFFFFFFFFFFFFFFFFFFFFFFFFFFFFFFFFFFFFFF AND DUP2 MSTORE PUSH1 0x20 ADD SWAP1 DUP2 MSTORE PUSH1 0x20 ADD PUSH1 0x0 KECCAK256 SWAP1 POP PUSH1 0x0 DUP1 PUSH1 0x0 SWAP1 POP JUMPDEST PUSH1 0x2 DUP1 SLOAD SWAP1 POP DUP2 LT ISZERO PUSH2 0x4D7 JUMPI PUSH2 0x44A PUSH1 0x2 DUP3 DUP2 SLOAD DUP2 LT PUSH2 0x3AA JUMPI PUSH2 0x3A9 PUSH2 0x171E JUMP JUMPDEST JUMPDEST SWAP1 PUSH1 0x0 MSTORE PUSH1 0x20 PUSH1 0x0 KECCAK256 SWAP1 PUSH1 0x2 MUL ADD PUSH1 0x0 ADD DUP1 SLOAD PUSH2 0x3C6 SWAP1 PUSH2 0x15B4 JUMP JUMPDEST DUP1 PUSH1 0x1F ADD PUSH1 0x20 DUP1 SWAP2 DIV MUL PUSH1 0x20 ADD PUSH1 0x40 MLOAD SWAP1 DUP2 ADD PUSH1 0x40 MSTORE DUP1 SWAP3 SWAP2 SWAP1 DUP2 DUP2 MSTORE PUSH1 0x20 ADD DUP3 DUP1 SLOAD PUSH2 0x3F2 SWAP1 PUSH2 0x15B4 JUMP JUMPDEST DUP1 ISZERO PUSH2 0x43F JUMPI DUP1 PUSH1 0x1F LT PUSH2 0x414 JUMPI PUSH2 0x100 DUP1 DUP4 SLOAD DIV MUL DUP4 MSTORE SWAP2 PUSH1 0x20 ADD SWAP2 PUSH2 0x43F JUMP JUMPDEST DUP3 ADD SWAP2 SWAP1 PUSH1 0x0 MSTORE PUSH1 0x20 PUSH1 0x0 KECCAK256 SWAP1 JUMPDEST DUP2 SLOAD DUP2 MSTORE SWAP1 PUSH1 0x1 ADD SWAP1 PUSH1 0x20 ADD DUP1 DUP4 GT PUSH2 0x422 JUMPI DUP3 SWAP1 SUB PUSH1 0x1F AND DUP3 ADD SWAP2 JUMPDEST POP POP POP POP POP DUP7 PUSH2 0xB3F JUMP JUMPDEST ISZERO PUSH2 0x4C4 JUMPI PUSH1 0x2 DUP2 DUP2 SLOAD DUP2 LT PUSH2 0x463 JUMPI PUSH2 0x462 PUSH2 0x171E JUMP JUMPDEST JUMPDEST SWAP1 PUSH1 0x0 MSTORE PUSH1 0x20 PUSH1 0x0 KECCAK256 SWAP1 PUSH1 0x2 MUL ADD PUSH1 0x1 ADD PUSH1 0x0 DUP2 SLOAD DUP1 SWAP3 SWAP2 SWAP1 PUSH2 0x485 SWAP1 PUSH2 0x1617 JUMP JUMPDEST SWAP2 SWAP1 POP SSTORE POP PUSH1 0x1 DUP4 PUSH1 0x1 ADD PUSH1 0x1 PUSH2 0x100 EXP DUP2 SLOAD DUP2 PUSH1 0xFF MUL NOT AND SWAP1 DUP4 ISZERO ISZERO MUL OR SWAP1 SSTORE POP PUSH1 0x3 PUSH1 0x0 DUP2 SLOAD DUP1 SWAP3 SWAP2 SWAP1 PUSH2 0x4BA SWAP1 PUSH2 0x1617 JUMP JUMPDEST SWAP2 SWAP1 POP SSTORE POP PUSH1 0x1 SWAP2 POP JUMPDEST DUP1 DUP1 PUSH2 0x4CF SWAP1 PUSH2 0x1617 JUMP JUMPDEST SWAP2 POP POP PUSH2 0x386 JUMP JUMPDEST POP PUSH2 0x4E1 DUP2 PUSH2 0xB98 JUMP JUMPDEST POP POP POP POP JUMP JUMPDEST PUSH2 0x4EF PUSH2 0xEE6 JUMP JUMPDEST PUSH1 0x0 DUP1 PUSH1 0x0 PUSH1 0x2 DUP1 SLOAD SWAP1 POP SWAP1 POP PUSH1 0x0 DUP2 PUSH8 0xFFFFFFFFFFFFFFFF DUP2 GT ISZERO PUSH2 0x518 JUMPI PUSH2 0x517 PUSH2 0x174D JUMP JUMPDEST JUMPDEST PUSH1 0x40 MLOAD SWAP1 DUP1 DUP3 MSTORE DUP1 PUSH1 0x20 MUL PUSH1 0x20 ADD DUP3 ADD PUSH1 0x40 MSTORE DUP1 ISZERO PUSH2 0x54B JUMPI DUP2 PUSH1 0x20 ADD JUMPDEST PUSH1 0x60 DUP2 MSTORE PUSH1 0x20 ADD SWAP1 PUSH1 0x1 SWAP1 SUB SWAP1 DUP2 PUSH2 0x536 JUMPI SWAP1 POP JUMPDEST POP SWAP1 POP PUSH1 0x0 DUP1 PUSH1 0x1 SWAP1 POP PUSH1 0x60 PUSH1 0x0 JUMPDEST DUP6 DUP2 LT ISZERO PUSH2 0x818 JUMPI DUP8 PUSH1 0x2 DUP3 DUP2 SLOAD DUP2 LT PUSH2 0x577 JUMPI PUSH2 0x576 PUSH2 0x171E JUMP JUMPDEST JUMPDEST SWAP1 PUSH1 0x0 MSTORE PUSH1 0x20 PUSH1 0x0 KECCAK256 SWAP1 PUSH1 0x2 MUL ADD PUSH1 0x1 ADD SLOAD GT ISZERO PUSH2 0x6F8 JUMPI PUSH1 0x2 DUP2 DUP2 SLOAD DUP2 LT PUSH2 0x5A3 JUMPI PUSH2 0x5A2 PUSH2 0x171E JUMP JUMPDEST JUMPDEST SWAP1 PUSH1 0x0 MSTORE PUSH1 0x20 PUSH1 0x0 KECCAK256 SWAP1 PUSH1 0x2 MUL ADD PUSH1 0x1 ADD SLOAD SWAP8 POP DUP1 SWAP7 POP DUP3 ISZERO PUSH2 0x6F3 JUMPI PUSH1 0x0 SWAP3 POP PUSH1 0x0 SWAP4 POP DUP6 PUSH8 0xFFFFFFFFFFFFFFFF DUP2 GT ISZERO PUSH2 0x5E2 JUMPI PUSH2 0x5E1 PUSH2 0x174D JUMP JUMPDEST JUMPDEST PUSH1 0x40 MLOAD SWAP1 DUP1 DUP3 MSTORE DUP1 PUSH1 0x20 MUL PUSH1 0x20 ADD DUP3 ADD PUSH1 0x40 MSTORE DUP1 ISZERO PUSH2 0x615 JUMPI DUP2 PUSH1 0x20 ADD JUMPDEST PUSH1 0x60 DUP2 MSTORE PUSH1 0x20 ADD SWAP1 PUSH1 0x1 SWAP1 SUB SWAP1 DUP2 PUSH2 0x600 JUMPI SWAP1 POP JUMPDEST POP SWAP5 POP PUSH1 0x2 DUP2 DUP2 SLOAD DUP2 LT PUSH2 0x62C JUMPI PUSH2 0x62B PUSH2 0x171E JUMP JUMPDEST JUMPDEST SWAP1 PUSH1 0x0 MSTORE PUSH1 0x20 PUSH1 0x0 KECCAK256 SWAP1 PUSH1 0x2 MUL ADD PUSH1 0x0 ADD DUP1 SLOAD PUSH2 0x648 SWAP1 PUSH2 0x15B4 JUMP JUMPDEST DUP1 PUSH1 0x1F ADD PUSH1 0x20 DUP1 SWAP2 DIV MUL PUSH1 0x20 ADD PUSH1 0x40 MLOAD SWAP1 DUP2 ADD PUSH1 0x40 MSTORE DUP1 SWAP3 SWAP2 SWAP1 DUP2 DUP2 MSTORE PUSH1 0x20 ADD DUP3 DUP1 SLOAD PUSH2 0x674 SWAP1 PUSH2 0x15B4 JUMP JUMPDEST DUP1 ISZERO PUSH2 0x6C1 JUMPI DUP1 PUSH1 0x1F LT PUSH2 0x696 JUMPI PUSH2 0x100 DUP1 DUP4 SLOAD DIV MUL DUP4 MSTORE SWAP2 PUSH1 0x20 ADD SWAP2 PUSH2 0x6C1 JUMP JUMPDEST DUP3 ADD SWAP2 SWAP1 PUSH1 0x0 MSTORE PUSH1 0x20 PUSH1 0x0 KECCAK256 SWAP1 JUMPDEST DUP2 SLOAD DUP2 MSTORE SWAP1 PUSH1 0x1 ADD SWAP1 PUSH1 0x20 ADD DUP1 DUP4 GT PUSH2 0x6A4 JUMPI DUP3 SWAP1 SUB PUSH1 0x1F AND DUP3 ADD SWAP2 JUMPDEST POP POP POP POP POP DUP6 DUP6 DUP2 MLOAD DUP2 LT PUSH2 0x6D9 JUMPI PUSH2 0x6D8 PUSH2 0x171E JUMP JUMPDEST JUMPDEST PUSH1 0x20 MUL PUSH1 0x20 ADD ADD DUP2 SWAP1 MSTORE POP DUP4 DUP1 PUSH2 0x6EF SWAP1 PUSH2 0x1617 JUMP JUMPDEST SWAP5 POP POP JUMPDEST PUSH2 0x805 JUMP JUMPDEST DUP8 PUSH1 0x2 DUP3 DUP2 SLOAD DUP2 LT PUSH2 0x70D JUMPI PUSH2 0x70C PUSH2 0x171E JUMP JUMPDEST JUMPDEST SWAP1 PUSH1 0x0 MSTORE PUSH1 0x20 PUSH1 0x0 KECCAK256 SWAP1 PUSH1 0x2 MUL ADD PUSH1 0x1 ADD SLOAD EQ ISZERO PUSH2 0x804 JUMPI PUSH1 0x1 SWAP3 POP PUSH1 0x2 DUP2 DUP2 SLOAD DUP2 LT PUSH2 0x73D JUMPI PUSH2 0x73C PUSH2 0x171E JUMP JUMPDEST JUMPDEST SWAP1 PUSH1 0x0 MSTORE PUSH1 0x20 PUSH1 0x0 KECCAK256 SWAP1 PUSH1 0x2 MUL ADD PUSH1 0x0 ADD DUP1 SLOAD PUSH2 0x759 SWAP1 PUSH2 0x15B4 JUMP JUMPDEST DUP1 PUSH1 0x1F ADD PUSH1 0x20 DUP1 SWAP2 DIV MUL PUSH1 0x20 ADD PUSH1 0x40 MLOAD SWAP1 DUP2 ADD PUSH1 0x40 MSTORE DUP1 SWAP3 SWAP2 SWAP1 DUP2 DUP2 MSTORE PUSH1 0x20 ADD DUP3 DUP1 SLOAD PUSH2 0x785 SWAP1 PUSH2 0x15B4 JUMP JUMPDEST DUP1 ISZERO PUSH2 0x7D2 JUMPI DUP1 PUSH1 0x1F LT PUSH2 0x7A7 JUMPI PUSH2 0x100 DUP1 DUP4 SLOAD DIV MUL DUP4 MSTORE SWAP2 PUSH1 0x20 ADD SWAP2 PUSH2 0x7D2 JUMP JUMPDEST DUP3 ADD SWAP2 SWAP1 PUSH1 0x0 MSTORE PUSH1 0x20 PUSH1 0x0 KECCAK256 SWAP1 JUMPDEST DUP2 SLOAD DUP2 MSTORE SWAP1 PUSH1 0x1 ADD SWAP1 PUSH1 0x20 ADD DUP1 DUP4 GT PUSH2 0x7B5 JUMPI DUP3 SWAP1 SUB PUSH1 0x1F AND DUP3 ADD SWAP2 JUMPDEST POP POP POP POP POP DUP6 DUP6 DUP2 MLOAD DUP2 LT PUSH2 0x7EA JUMPI PUSH2 0x7E9 PUSH2 0x171E JUMP JUMPDEST JUMPDEST PUSH1 0x20 MUL PUSH1 0x20 ADD ADD DUP2 SWAP1 MSTORE POP DUP4 DUP1 PUSH2 0x800 SWAP1 PUSH2 0x1617 JUMP JUMPDEST SWAP5 POP POP JUMPDEST JUMPDEST DUP1 DUP1 PUSH2 0x810 SWAP1 PUSH2 0x1617 JUMP JUMPDEST SWAP2 POP POP PUSH2 0x55A JUMP JUMPDEST POP DUP2 ISZERO PUSH2 0x8F1 JUMPI PUSH1 0x0 JUMPDEST DUP5 MLOAD DUP2 LT ISZERO PUSH2 0x864 JUMPI PUSH2 0x84F DUP3 DUP7 DUP4 DUP2 MLOAD DUP2 LT PUSH2 0x842 JUMPI PUSH2 0x841 PUSH2 0x171E JUMP JUMPDEST JUMPDEST PUSH1 0x20 MUL PUSH1 0x20 ADD ADD MLOAD PUSH2 0xBDB JUMP JUMPDEST SWAP2 POP DUP1 DUP1 PUSH2 0x85C SWAP1 PUSH2 0x1617 JUMP JUMPDEST SWAP2 POP POP PUSH2 0x822 JUMP JUMPDEST POP PUSH1 0x0 PUSH2 0x889 PUSH1 0x40 MLOAD DUP1 PUSH1 0x80 ADD PUSH1 0x40 MSTORE DUP1 PUSH1 0x4C DUP2 MSTORE PUSH1 0x20 ADD PUSH2 0x1947 PUSH1 0x4C SWAP2 CODECOPY DUP4 PUSH2 0xBDB JUMP JUMPDEST SWAP1 POP PUSH2 0x8CA DUP2 PUSH1 0x40 MLOAD DUP1 PUSH1 0x40 ADD PUSH1 0x40 MSTORE DUP1 PUSH1 0x1A DUP2 MSTORE PUSH1 0x20 ADD PUSH32 0x77697468207468697320616D6F756E74206F6620766F7465733A000000000000 DUP2 MSTORE POP PUSH2 0xBDB JUMP JUMPDEST SWAP1 POP PUSH2 0x8DE DUP2 PUSH2 0x8D9 DUP11 PUSH2 0xC07 JUMP JUMPDEST PUSH2 0xBDB JUMP JUMPDEST SWAP1 POP PUSH2 0x8EB DUP4 ISZERO DUP3 PUSH2 0xD68 JUMP JUMPDEST POP PUSH2 0x9BD JUMP JUMPDEST PUSH1 0x2 DUP7 DUP2 SLOAD DUP2 LT PUSH2 0x905 JUMPI PUSH2 0x904 PUSH2 0x171E JUMP JUMPDEST JUMPDEST SWAP1 PUSH1 0x0 MSTORE PUSH1 0x20 PUSH1 0x0 KECCAK256 SWAP1 PUSH1 0x2 MUL ADD PUSH1 0x40 MLOAD DUP1 PUSH1 0x40 ADD PUSH1 0x40 MSTORE SWAP1 DUP2 PUSH1 0x0 DUP3 ADD DUP1 SLOAD PUSH2 0x92E SWAP1 PUSH2 0x15B4 JUMP JUMPDEST DUP1 PUSH1 0x1F ADD PUSH1 0x20 DUP1 SWAP2 DIV MUL PUSH1 0x20 ADD PUSH1 0x40 MLOAD SWAP1 DUP2 ADD PUSH1 0x40 MSTORE DUP1 SWAP3 SWAP2 SWAP1 DUP2 DUP2 MSTORE PUSH1 0x20 ADD DUP3 DUP1 SLOAD PUSH2 0x95A SWAP1 PUSH2 0x15B4 JUMP JUMPDEST DUP1 ISZERO PUSH2 0x9A7 JUMPI DUP1 PUSH1 0x1F LT PUSH2 0x97C JUMPI PUSH2 0x100 DUP1 DUP4 SLOAD DIV MUL DUP4 MSTORE SWAP2 PUSH1 0x20 ADD SWAP2 PUSH2 0x9A7 JUMP JUMPDEST DUP3 ADD SWAP2 SWAP1 PUSH1 0x0 MSTORE PUSH1 0x20 PUSH1 0x0 KECCAK256 SWAP1 JUMPDEST DUP2 SLOAD DUP2 MSTORE SWAP1 PUSH1 0x1 ADD SWAP1 PUSH1 0x20 ADD DUP1 DUP4 GT PUSH2 0x98A JUMPI DUP3 SWAP1 SUB PUSH1 0x1F AND DUP3 ADD SWAP2 JUMPDEST POP POP POP POP POP DUP2 MSTORE PUSH1 0x20 ADD PUSH1 0x1 DUP3 ADD SLOAD DUP2 MSTORE POP POP SWAP8 POP JUMPDEST POP POP POP POP POP POP POP SWAP1 JUMP JUMPDEST PUSH1 0x0 ADDRESS SWAP1 POP SWAP1 JUMP JUMPDEST PUSH1 0x4 SLOAD PUSH1 0x3 SLOAD LT PUSH2 0xA15 JUMPI PUSH1 0x40 MLOAD PUSH32 0x8C379A000000000000000000000000000000000000000000000000000000000 DUP2 MSTORE PUSH1 0x4 ADD PUSH2 0xA0C SWAP1 PUSH2 0x1354 JUMP JUMPDEST PUSH1 0x40 MLOAD DUP1 SWAP2 SUB SWAP1 REVERT JUMPDEST JUMP JUMPDEST PUSH2 0xA1F PUSH2 0xDB0 JUMP JUMPDEST PUSH2 0xA5E JUMPI PUSH1 0x40 MLOAD PUSH32 0x8C379A000000000000000000000000000000000000000000000000000000000 DUP2 MSTORE PUSH1 0x4 ADD PUSH2 0xA55 SWAP1 PUSH2 0x1374 JUMP JUMPDEST PUSH1 0x40 MLOAD DUP1 SWAP2 SUB SWAP1 REVERT JUMPDEST JUMP JUMPDEST PUSH1 0x1 PUSH1 0x0 DUP3 PUSH20 0xFFFFFFFFFFFFFFFFFFFFFFFFFFFFFFFFFFFFFFFF AND PUSH20 0xFFFFFFFFFFFFFFFFFFFFFFFFFFFFFFFFFFFFFFFF AND DUP2 MSTORE PUSH1 0x20 ADD SWAP1 DUP2 MSTORE PUSH1 0x20 ADD PUSH1 0x0 KECCAK256 PUSH1 0x1 ADD PUSH1 0x0 SWAP1 SLOAD SWAP1 PUSH2 0x100 EXP SWAP1 DIV PUSH1 0xFF AND ISZERO PUSH2 0xAF0 JUMPI PUSH1 0x40 MLOAD PUSH32 0x8C379A000000000000000000000000000000000000000000000000000000000 DUP2 MSTORE PUSH1 0x4 ADD PUSH2 0xAE7 SWAP1 PUSH2 0x1314 JUMP JUMPDEST PUSH1 0x40 MLOAD DUP1 SWAP2 SUB SWAP1 REVERT JUMPDEST POP JUMP JUMPDEST PUSH2 0xAFC DUP2 PUSH2 0xE07 JUMP JUMPDEST ISZERO PUSH2 0xB3C JUMPI PUSH1 0x40 MLOAD PUSH32 0x8C379A000000000000000000000000000000000000000000000000000000000 DUP2 MSTORE PUSH1 0x4 ADD PUSH2 0xB33 SWAP1 PUSH2 0x1394 JUMP JUMPDEST PUSH1 0x40 MLOAD DUP1 SWAP2 SUB SWAP1 REVERT JUMPDEST POP JUMP JUMPDEST PUSH1 0x0 DUP2 PUSH1 0x40 MLOAD PUSH1 0x20 ADD PUSH2 0xB52 SWAP2 SWAP1 PUSH2 0x12B4 JUMP JUMPDEST PUSH1 0x40 MLOAD PUSH1 0x20 DUP2 DUP4 SUB SUB DUP2 MSTORE SWAP1 PUSH1 0x40 MSTORE DUP1 MLOAD SWAP1 PUSH1 0x20 ADD KECCAK256 DUP4 PUSH1 0x40 MLOAD PUSH1 0x20 ADD PUSH2 0xB79 SWAP2 SWAP1 PUSH2 0x12B4 JUMP JUMPDEST PUSH1 0x40 MLOAD PUSH1 0x20 DUP2 DUP4 SUB SUB DUP2 MSTORE SWAP1 PUSH1 0x40 MSTORE DUP1 MLOAD SWAP1 PUSH1 0x20 ADD KECCAK256 EQ SWAP1 POP SWAP3 SWAP2 POP POP JUMP JUMPDEST DUP1 PUSH2 0xBD8 JUMPI PUSH1 0x40 MLOAD PUSH32 0x8C379A000000000000000000000000000000000000000000000000000000000 DUP2 MSTORE PUSH1 0x4 ADD PUSH2 0xBCF SWAP1 PUSH2 0x1334 JUMP JUMPDEST PUSH1 0x40 MLOAD DUP1 SWAP2 SUB SWAP1 REVERT JUMPDEST POP JUMP JUMPDEST PUSH1 0x60 DUP3 DUP3 PUSH1 0x40 MLOAD PUSH1 0x20 ADD PUSH2 0xBF0 SWAP3 SWAP2 SWAP1 PUSH2 0x1263 JUMP JUMPDEST PUSH1 0x40 MLOAD PUSH1 0x20 DUP2 DUP4 SUB SUB DUP2 MSTORE SWAP1 PUSH1 0x40 MSTORE SWAP1 POP SWAP3 SWAP2 POP POP JUMP JUMPDEST PUSH1 0x60 PUSH1 0x0 DUP3 EQ ISZERO PUSH2 0xC4F JUMPI PUSH1 0x40 MLOAD DUP1 PUSH1 0x40 ADD PUSH1 0x40 MSTORE DUP1 PUSH1 0x1 DUP2 MSTORE PUSH1 0x20 ADD PUSH32 0x3000000000000000000000000000000000000000000000000000000000000000 DUP2 MSTORE POP SWAP1 POP PUSH2 0xD63 JUMP JUMPDEST PUSH1 0x0 DUP3 SWAP1 POP PUSH1 0x0 JUMPDEST PUSH1 0x0 DUP3 EQ PUSH2 0xC81 JUMPI DUP1 DUP1 PUSH2 0xC6A SWAP1 PUSH2 0x1617 JUMP JUMPDEST SWAP2 POP POP PUSH1 0xA DUP3 PUSH2 0xC7A SWAP2 SWAP1 PUSH2 0x14D1 JUMP JUMPDEST SWAP2 POP PUSH2 0xC57 JUMP JUMPDEST PUSH1 0x0 DUP2 PUSH8 0xFFFFFFFFFFFFFFFF DUP2 GT ISZERO PUSH2 0xC9D JUMPI PUSH2 0xC9C PUSH2 0x174D JUMP JUMPDEST JUMPDEST PUSH1 0x40 MLOAD SWAP1 DUP1 DUP3 MSTORE DUP1 PUSH1 0x1F ADD PUSH1 0x1F NOT AND PUSH1 0x20 ADD DUP3 ADD PUSH1 0x40 MSTORE DUP1 ISZERO PUSH2 0xCCF JUMPI DUP2 PUSH1 0x20 ADD PUSH1 0x1 DUP3 MUL DUP1 CALLDATASIZE DUP4 CALLDATACOPY DUP1 DUP3 ADD SWAP2 POP POP SWAP1 POP JUMPDEST POP SWAP1 POP JUMPDEST PUSH1 0x0 DUP6 EQ PUSH2 0xD5C JUMPI PUSH1 0x1 DUP3 PUSH2 0xCE8 SWAP2 SWAP1 PUSH2 0x1502 JUMP JUMPDEST SWAP2 POP PUSH1 0xA DUP6 PUSH2 0xCF7 SWAP2 SWAP1 PUSH2 0x1660 JUMP JUMPDEST PUSH1 0x30 PUSH2 0xD03 SWAP2 SWAP1 PUSH2 0x147B JUMP JUMPDEST PUSH1 0xF8 SHL DUP2 DUP4 DUP2 MLOAD DUP2 LT PUSH2 0xD19 JUMPI PUSH2 0xD18 PUSH2 0x171E JUMP JUMPDEST JUMPDEST PUSH1 0x20 ADD ADD SWAP1 PUSH31 0xFFFFFFFFFFFFFFFFFFFFFFFFFFFFFFFFFFFFFFFFFFFFFFFFFFFFFFFFFFFFFF NOT AND SWAP1 DUP2 PUSH1 0x0 BYTE SWAP1 MSTORE8 POP PUSH1 0xA DUP6 PUSH2 0xD55 SWAP2 SWAP1 PUSH2 0x14D1 JUMP JUMPDEST SWAP5 POP PUSH2 0xCD3 JUMP JUMPDEST DUP1 SWAP4 POP POP POP POP JUMPDEST SWAP2 SWAP1 POP JUMP JUMPDEST DUP2 DUP2 SWAP1 PUSH2 0xDAB JUMPI PUSH1 0x40 MLOAD PUSH32 0x8C379A000000000000000000000000000000000000000000000000000000000 DUP2 MSTORE PUSH1 0x4 ADD PUSH2 0xDA2 SWAP2 SWAP1 PUSH2 0x12B4 JUMP JUMPDEST PUSH1 0x40 MLOAD DUP1 SWAP2 SUB SWAP1 REVERT JUMPDEST POP POP POP JUMP JUMPDEST PUSH1 0x0 DUP1 PUSH1 0x0 SWAP1 SLOAD SWAP1 PUSH2 0x100 EXP SWAP1 DIV PUSH20 0xFFFFFFFFFFFFFFFFFFFFFFFFFFFFFFFFFFFFFFFF AND PUSH20 0xFFFFFFFFFFFFFFFFFFFFFFFFFFFFFFFFFFFFFFFF AND CALLER PUSH20 0xFFFFFFFFFFFFFFFFFFFFFFFFFFFFFFFFFFFFFFFF AND EQ SWAP1 POP SWAP1 JUMP JUMPDEST PUSH1 0x0 PUSH1 0x1 PUSH1 0x0 DUP4 PUSH20 0xFFFFFFFFFFFFFFFFFFFFFFFFFFFFFFFFFFFFFFFF AND PUSH20 0xFFFFFFFFFFFFFFFFFFFFFFFFFFFFFFFFFFFFFFFF AND DUP2 MSTORE PUSH1 0x20 ADD SWAP1 DUP2 MSTORE PUSH1 0x20 ADD PUSH1 0x0 KECCAK256 PUSH1 0x1 ADD PUSH1 0x1 SWAP1 SLOAD SWAP1 PUSH2 0x100 EXP SWAP1 DIV PUSH1 0xFF AND SWAP1 POP SWAP2 SWAP1 POP JUMP JUMPDEST DUP3 DUP1 SLOAD PUSH2 0xE6C SWAP1 PUSH2 0x15B4 JUMP JUMPDEST SWAP1 PUSH1 0x0 MSTORE PUSH1 0x20 PUSH1 0x0 KECCAK256 SWAP1 PUSH1 0x1F ADD PUSH1 0x20 SWAP1 DIV DUP2 ADD SWAP3 DUP3 PUSH2 0xE8E JUMPI PUSH1 0x0 DUP6 SSTORE PUSH2 0xED5 JUMP JUMPDEST DUP3 PUSH1 0x1F LT PUSH2 0xEA7 JUMPI DUP1 MLOAD PUSH1 0xFF NOT AND DUP4 DUP1 ADD OR DUP6 SSTORE PUSH2 0xED5 JUMP JUMPDEST DUP3 DUP1 ADD PUSH1 0x1 ADD DUP6 SSTORE DUP3 ISZERO PUSH2 0xED5 JUMPI SWAP2 DUP3 ADD JUMPDEST DUP3 DUP2 GT ISZERO PUSH2 0xED4 JUMPI DUP3 MLOAD DUP3 SSTORE SWAP2 PUSH1 0x20 ADD SWAP2 SWAP1 PUSH1 0x1 ADD SWAP1 PUSH2 0xEB9 JUMP JUMPDEST JUMPDEST POP SWAP1 POP PUSH2 0xEE2 SWAP2 SWAP1 PUSH2 0xF00 JUMP JUMPDEST POP SWAP1 JUMP JUMPDEST PUSH1 0x40 MLOAD DUP1 PUSH1 0x40 ADD PUSH1 0x40 MSTORE DUP1 PUSH1 0x60 DUP2 MSTORE PUSH1 0x20 ADD PUSH1 0x0 DUP2 MSTORE POP SWAP1 JUMP JUMPDEST JUMPDEST DUP1 DUP3 GT ISZERO PUSH2 0xF19 JUMPI PUSH1 0x0 DUP2 PUSH1 0x0 SWAP1 SSTORE POP PUSH1 0x1 ADD PUSH2 0xF01 JUMP JUMPDEST POP SWAP1 JUMP JUMPDEST PUSH1 0x0 PUSH2 0xF30 PUSH2 0xF2B DUP5 PUSH2 0x13D9 JUMP JUMPDEST PUSH2 0x13B4 JUMP JUMPDEST SWAP1 POP DUP3 DUP2 MSTORE PUSH1 0x20 DUP2 ADD DUP5 DUP5 DUP5 ADD GT ISZERO PUSH2 0xF4C JUMPI PUSH2 0xF4B PUSH2 0x1781 JUMP JUMPDEST JUMPDEST PUSH2 0xF57 DUP5 DUP3 DUP6 PUSH2 0x1572 JUMP JUMPDEST POP SWAP4 SWAP3 POP POP POP JUMP JUMPDEST PUSH1 0x0 DUP2 CALLDATALOAD SWAP1 POP PUSH2 0xF6E DUP2 PUSH2 0x192F JUMP JUMPDEST SWAP3 SWAP2 POP POP JUMP JUMPDEST PUSH1 0x0 DUP3 PUSH1 0x1F DUP4 ADD SLT PUSH2 0xF89 JUMPI PUSH2 0xF88 PUSH2 0x177C JUMP JUMPDEST JUMPDEST DUP2 CALLDATALOAD PUSH2 0xF99 DUP5 DUP3 PUSH1 0x20 DUP7 ADD PUSH2 0xF1D JUMP JUMPDEST SWAP2 POP POP SWAP3 SWAP2 POP POP JUMP JUMPDEST PUSH1 0x0 DUP1 PUSH1 0x40 DUP4 DUP6 SUB SLT ISZERO PUSH2 0xFB9 JUMPI PUSH2 0xFB8 PUSH2 0x178B JUMP JUMPDEST JUMPDEST PUSH1 0x0 PUSH2 0xFC7 DUP6 DUP3 DUP7 ADD PUSH2 0xF5F JUMP JUMPDEST SWAP3 POP POP PUSH1 0x20 DUP4 ADD CALLDATALOAD PUSH8 0xFFFFFFFFFFFFFFFF DUP2 GT ISZERO PUSH2 0xFE8 JUMPI PUSH2 0xFE7 PUSH2 0x1786 JUMP JUMPDEST JUMPDEST PUSH2 0xFF4 DUP6 DUP3 DUP7 ADD PUSH2 0xF74 JUMP JUMPDEST SWAP2 POP POP SWAP3 POP SWAP3 SWAP1 POP JUMP JUMPDEST PUSH1 0x0 PUSH1 0x20 DUP3 DUP5 SUB SLT ISZERO PUSH2 0x1014 JUMPI PUSH2 0x1013 PUSH2 0x178B JUMP JUMPDEST JUMPDEST PUSH1 0x0 DUP3 ADD CALLDATALOAD PUSH8 0xFFFFFFFFFFFFFFFF DUP2 GT ISZERO PUSH2 0x1032 JUMPI PUSH2 0x1031 PUSH2 0x1786 JUMP JUMPDEST JUMPDEST PUSH2 0x103E DUP5 DUP3 DUP6 ADD PUSH2 0xF74 JUMP JUMPDEST SWAP2 POP POP SWAP3 SWAP2 POP POP JUMP JUMPDEST PUSH1 0x0 PUSH2 0x1053 DUP4 DUP4 PUSH2 0x10DF JUMP JUMPDEST SWAP1 POP SWAP3 SWAP2 POP POP JUMP JUMPDEST PUSH2 0x1064 DUP2 PUSH2 0x1536 JUMP JUMPDEST DUP3 MSTORE POP POP JUMP JUMPDEST PUSH1 0x0 PUSH2 0x1075 DUP3 PUSH2 0x141A JUMP JUMPDEST PUSH2 0x107F DUP2 DUP6 PUSH2 0x143D JUMP JUMPDEST SWAP4 POP DUP4 PUSH1 0x20 DUP3 MUL DUP6 ADD PUSH2 0x1091 DUP6 PUSH2 0x140A JUMP JUMPDEST DUP1 PUSH1 0x0 JUMPDEST DUP6 DUP2 LT ISZERO PUSH2 0x10CD JUMPI DUP5 DUP5 SUB DUP10 MSTORE DUP2 MLOAD PUSH2 0x10AE DUP6 DUP3 PUSH2 0x1047 JUMP JUMPDEST SWAP5 POP PUSH2 0x10B9 DUP4 PUSH2 0x1430 JUMP JUMPDEST SWAP3 POP PUSH1 0x20 DUP11 ADD SWAP10 POP POP PUSH1 0x1 DUP2 ADD SWAP1 POP PUSH2 0x1095 JUMP JUMPDEST POP DUP3 SWAP8 POP DUP8 SWAP6 POP POP POP POP POP POP SWAP3 SWAP2 POP POP JUMP JUMPDEST PUSH1 0x0 PUSH2 0x10EA DUP3 PUSH2 0x1425 JUMP JUMPDEST PUSH2 0x10F4 DUP2 DUP6 PUSH2 0x144E JUMP JUMPDEST SWAP4 POP PUSH2 0x1104 DUP2 DUP6 PUSH1 0x20 DUP7 ADD PUSH2 0x1581 JUMP JUMPDEST PUSH2 0x110D DUP2 PUSH2 0x1790 JUMP JUMPDEST DUP5 ADD SWAP2 POP POP SWAP3 SWAP2 POP POP JUMP JUMPDEST PUSH1 0x0 PUSH2 0x1123 DUP3 PUSH2 0x1425 JUMP JUMPDEST PUSH2 0x112D DUP2 DUP6 PUSH2 0x145F JUMP JUMPDEST SWAP4 POP PUSH2 0x113D DUP2 DUP6 PUSH1 0x20 DUP7 ADD PUSH2 0x1581 JUMP JUMPDEST PUSH2 0x1146 DUP2 PUSH2 0x1790 JUMP JUMPDEST DUP5 ADD SWAP2 POP POP SWAP3 SWAP2 POP POP JUMP JUMPDEST PUSH1 0x0 PUSH2 0x115C DUP3 PUSH2 0x1425 JUMP JUMPDEST PUSH2 0x1166 DUP2 DUP6 PUSH2 0x1470 JUMP JUMPDEST SWAP4 POP PUSH2 0x1176 DUP2 DUP6 PUSH1 0x20 DUP7 ADD PUSH2 0x1581 JUMP JUMPDEST DUP1 DUP5 ADD SWAP2 POP POP SWAP3 SWAP2 POP POP JUMP JUMPDEST PUSH1 0x0 PUSH2 0x118F PUSH1 0x25 DUP4 PUSH2 0x145F JUMP JUMPDEST SWAP2 POP PUSH2 0x119A DUP3 PUSH2 0x17A1 JUMP JUMPDEST PUSH1 0x40 DUP3 ADD SWAP1 POP SWAP2 SWAP1 POP JUMP JUMPDEST PUSH1 0x0 PUSH2 0x11B2 PUSH1 0x21 DUP4 PUSH2 0x145F JUMP JUMPDEST SWAP2 POP PUSH2 0x11BD DUP3 PUSH2 0x17F0 JUMP JUMPDEST PUSH1 0x40 DUP3 ADD SWAP1 POP SWAP2 SWAP1 POP JUMP JUMPDEST PUSH1 0x0 PUSH2 0x11D5 PUSH1 0x2F DUP4 PUSH2 0x145F JUMP JUMPDEST SWAP2 POP PUSH2 0x11E0 DUP3 PUSH2 0x183F JUMP JUMPDEST PUSH1 0x40 DUP3 ADD SWAP1 POP SWAP2 SWAP1 POP JUMP JUMPDEST PUSH1 0x0 PUSH2 0x11F8 PUSH1 0x2F DUP4 PUSH2 0x145F JUMP JUMPDEST SWAP2 POP PUSH2 0x1203 DUP3 PUSH2 0x188E JUMP JUMPDEST PUSH1 0x40 DUP3 ADD SWAP1 POP SWAP2 SWAP1 POP JUMP JUMPDEST PUSH1 0x0 PUSH2 0x121B PUSH1 0x1 DUP4 PUSH2 0x1470 JUMP JUMPDEST SWAP2 POP PUSH2 0x1226 DUP3 PUSH2 0x18DD JUMP JUMPDEST PUSH1 0x1 DUP3 ADD SWAP1 POP SWAP2 SWAP1 POP JUMP JUMPDEST PUSH1 0x0 PUSH2 0x123E PUSH1 0x14 DUP4 PUSH2 0x145F JUMP JUMPDEST SWAP2 POP PUSH2 0x1249 DUP3 PUSH2 0x1906 JUMP JUMPDEST PUSH1 0x20 DUP3 ADD SWAP1 POP SWAP2 SWAP1 POP JUMP JUMPDEST PUSH2 0x125D DUP2 PUSH2 0x1568 JUMP JUMPDEST DUP3 MSTORE POP POP JUMP JUMPDEST PUSH1 0x0 PUSH2 0x126F DUP3 DUP6 PUSH2 0x1151 JUMP JUMPDEST SWAP2 POP PUSH2 0x127A DUP3 PUSH2 0x120E JUMP JUMPDEST SWAP2 POP PUSH2 0x1286 DUP3 DUP5 PUSH2 0x1151 JUMP JUMPDEST SWAP2 POP DUP2 SWAP1 POP SWAP4 SWAP3 POP POP POP JUMP JUMPDEST PUSH1 0x0 PUSH1 0x20 DUP3 ADD SWAP1 POP DUP2 DUP2 SUB PUSH1 0x0 DUP4 ADD MSTORE PUSH2 0x12AC DUP2 DUP5 PUSH2 0x106A JUMP JUMPDEST SWAP1 POP SWAP3 SWAP2 POP POP JUMP JUMPDEST PUSH1 0x0 PUSH1 0x20 DUP3 ADD SWAP1 POP DUP2 DUP2 SUB PUSH1 0x0 DUP4 ADD MSTORE PUSH2 0x12CE DUP2 DUP5 PUSH2 0x1118 JUMP JUMPDEST SWAP1 POP SWAP3 SWAP2 POP POP JUMP JUMPDEST PUSH1 0x0 PUSH1 0x60 DUP3 ADD SWAP1 POP DUP2 DUP2 SUB PUSH1 0x0 DUP4 ADD MSTORE PUSH2 0x12F0 DUP2 DUP7 PUSH2 0x1118 JUMP JUMPDEST SWAP1 POP PUSH2 0x12FF PUSH1 0x20 DUP4 ADD DUP6 PUSH2 0x1254 JUMP JUMPDEST PUSH2 0x130C PUSH1 0x40 DUP4 ADD DUP5 PUSH2 0x105B JUMP JUMPDEST SWAP5 SWAP4 POP POP POP POP JUMP JUMPDEST PUSH1 0x0 PUSH1 0x20 DUP3 ADD SWAP1 POP DUP2 DUP2 SUB PUSH1 0x0 DUP4 ADD MSTORE PUSH2 0x132D DUP2 PUSH2 0x1182 JUMP JUMPDEST SWAP1 POP SWAP2 SWAP1 POP JUMP JUMPDEST PUSH1 0x0 PUSH1 0x20 DUP3 ADD SWAP1 POP DUP2 DUP2 SUB PUSH1 0x0 DUP4 ADD MSTORE PUSH2 0x134D DUP2 PUSH2 0x11A5 JUMP JUMPDEST SWAP1 POP SWAP2 SWAP1 POP JUMP JUMPDEST PUSH1 0x0 PUSH1 0x20 DUP3 ADD SWAP1 POP DUP2 DUP2 SUB PUSH1 0x0 DUP4 ADD MSTORE PUSH2 0x136D DUP2 PUSH2 0x11C8 JUMP JUMPDEST SWAP1 POP SWAP2 SWAP1 POP JUMP JUMPDEST PUSH1 0x0 PUSH1 0x20 DUP3 ADD SWAP1 POP DUP2 DUP2 SUB PUSH1 0x0 DUP4 ADD MSTORE PUSH2 0x138D DUP2 PUSH2 0x11EB JUMP JUMPDEST SWAP1 POP SWAP2 SWAP1 POP JUMP JUMPDEST PUSH1 0x0 PUSH1 0x20 DUP3 ADD SWAP1 POP DUP2 DUP2 SUB PUSH1 0x0 DUP4 ADD MSTORE PUSH2 0x13AD DUP2 PUSH2 0x1231 JUMP JUMPDEST SWAP1 POP SWAP2 SWAP1 POP JUMP JUMPDEST PUSH1 0x0 PUSH2 0x13BE PUSH2 0x13CF JUMP JUMPDEST SWAP1 POP PUSH2 0x13CA DUP3 DUP3 PUSH2 0x15E6 JUMP JUMPDEST SWAP2 SWAP1 POP JUMP JUMPDEST PUSH1 0x0 PUSH1 0x40 MLOAD SWAP1 POP SWAP1 JUMP JUMPDEST PUSH1 0x0 PUSH8 0xFFFFFFFFFFFFFFFF DUP3 GT ISZERO PUSH2 0x13F4 JUMPI PUSH2 0x13F3 PUSH2 0x174D JUMP JUMPDEST JUMPDEST PUSH2 0x13FD DUP3 PUSH2 0x1790 JUMP JUMPDEST SWAP1 POP PUSH1 0x20 DUP2 ADD SWAP1 POP SWAP2 SWAP1 POP JUMP JUMPDEST PUSH1 0x0 DUP2 SWAP1 POP PUSH1 0x20 DUP3 ADD SWAP1 POP SWAP2 SWAP1 POP JUMP JUMPDEST PUSH1 0x0 DUP2 MLOAD SWAP1 POP SWAP2 SWAP1 POP JUMP JUMPDEST PUSH1 0x0 DUP2 MLOAD SWAP1 POP SWAP2 SWAP1 POP JUMP JUMPDEST PUSH1 0x0 PUSH1 0x20 DUP3 ADD SWAP1 POP SWAP2 SWAP1 POP JUMP JUMPDEST PUSH1 0x0 DUP3 DUP3 MSTORE PUSH1 0x20 DUP3 ADD SWAP1 POP SWAP3 SWAP2 POP POP JUMP JUMPDEST PUSH1 0x0 DUP3 DUP3 MSTORE PUSH1 0x20 DUP3 ADD SWAP1 POP SWAP3 SWAP2 POP POP JUMP JUMPDEST PUSH1 0x0 DUP3 DUP3 MSTORE PUSH1 0x20 DUP3 ADD SWAP1 POP SWAP3 SWAP2 POP POP JUMP JUMPDEST PUSH1 0x0 DUP2 SWAP1 POP SWAP3 SWAP2 POP POP JUMP JUMPDEST PUSH1 0x0 PUSH2 0x1486 DUP3 PUSH2 0x1568 JUMP JUMPDEST SWAP2 POP PUSH2 0x1491 DUP4 PUSH2 0x1568 JUMP JUMPDEST SWAP3 POP DUP3 PUSH32 0xFFFFFFFFFFFFFFFFFFFFFFFFFFFFFFFFFFFFFFFFFFFFFFFFFFFFFFFFFFFFFFFF SUB DUP3 GT ISZERO PUSH2 0x14C6 JUMPI PUSH2 0x14C5 PUSH2 0x1691 JUMP JUMPDEST JUMPDEST DUP3 DUP3 ADD SWAP1 POP SWAP3 SWAP2 POP POP JUMP JUMPDEST PUSH1 0x0 PUSH2 0x14DC DUP3 PUSH2 0x1568 JUMP JUMPDEST SWAP2 POP PUSH2 0x14E7 DUP4 PUSH2 0x1568 JUMP JUMPDEST SWAP3 POP DUP3 PUSH2 0x14F7 JUMPI PUSH2 0x14F6 PUSH2 0x16C0 JUMP JUMPDEST JUMPDEST DUP3 DUP3 DIV SWAP1 POP SWAP3 SWAP2 POP POP JUMP JUMPDEST PUSH1 0x0 PUSH2 0x150D DUP3 PUSH2 0x1568 JUMP JUMPDEST SWAP2 POP PUSH2 0x1518 DUP4 PUSH2 0x1568 JUMP JUMPDEST SWAP3 POP DUP3 DUP3 LT ISZERO PUSH2 0x152B JUMPI PUSH2 0x152A PUSH2 0x1691 JUMP JUMPDEST JUMPDEST DUP3 DUP3 SUB SWAP1 POP SWAP3 SWAP2 POP POP JUMP JUMPDEST PUSH1 0x0 PUSH2 0x1541 DUP3 PUSH2 0x1548 JUMP JUMPDEST SWAP1 POP SWAP2 SWAP1 POP JUMP JUMPDEST PUSH1 0x0 PUSH20 0xFFFFFFFFFFFFFFFFFFFFFFFFFFFFFFFFFFFFFFFF DUP3 AND SWAP1 POP SWAP2 SWAP1 POP JUMP JUMPDEST PUSH1 0x0 DUP2 SWAP1 POP SWAP2 SWAP1 POP JUMP JUMPDEST DUP3 DUP2 DUP4 CALLDATACOPY PUSH1 0x0 DUP4 DUP4 ADD MSTORE POP POP POP JUMP JUMPDEST PUSH1 0x0 JUMPDEST DUP4 DUP2 LT ISZERO PUSH2 0x159F JUMPI DUP1 DUP3 ADD MLOAD DUP2 DUP5 ADD MSTORE PUSH1 0x20 DUP2 ADD SWAP1 POP PUSH2 0x1584 JUMP JUMPDEST DUP4 DUP2 GT ISZERO PUSH2 0x15AE JUMPI PUSH1 0x0 DUP5 DUP5 ADD MSTORE JUMPDEST POP POP POP POP JUMP JUMPDEST PUSH1 0x0 PUSH1 0x2 DUP3 DIV SWAP1 POP PUSH1 0x1 DUP3 AND DUP1 PUSH2 0x15CC JUMPI PUSH1 0x7F DUP3 AND SWAP2 POP JUMPDEST PUSH1 0x20 DUP3 LT DUP2 EQ ISZERO PUSH2 0x15E0 JUMPI PUSH2 0x15DF PUSH2 0x16EF JUMP JUMPDEST JUMPDEST POP SWAP2 SWAP1 POP JUMP JUMPDEST PUSH2 0x15EF DUP3 PUSH2 0x1790 JUMP JUMPDEST DUP2 ADD DUP2 DUP2 LT PUSH8 0xFFFFFFFFFFFFFFFF DUP3 GT OR ISZERO PUSH2 0x160E JUMPI PUSH2 0x160D PUSH2 0x174D JUMP JUMPDEST JUMPDEST DUP1 PUSH1 0x40 MSTORE POP POP POP JUMP JUMPDEST PUSH1 0x0 PUSH2 0x1622 DUP3 PUSH2 0x1568 JUMP JUMPDEST SWAP2 POP PUSH32 0xFFFFFFFFFFFFFFFFFFFFFFFFFFFFFFFFFFFFFFFFFFFFFFFFFFFFFFFFFFFFFFFF DUP3 EQ ISZERO PUSH2 0x1655 JUMPI PUSH2 0x1654 PUSH2 0x1691 JUMP JUMPDEST JUMPDEST PUSH1 0x1 DUP3 ADD SWAP1 POP SWAP2 SWAP1 POP JUMP JUMPDEST PUSH1 0x0 PUSH2 0x166B DUP3 PUSH2 0x1568 JUMP JUMPDEST SWAP2 POP PUSH2 0x1676 DUP4 PUSH2 0x1568 JUMP JUMPDEST SWAP3 POP DUP3 PUSH2 0x1686 JUMPI PUSH2 0x1685 PUSH2 0x16C0 JUMP JUMPDEST JUMPDEST DUP3 DUP3 MOD SWAP1 POP SWAP3 SWAP2 POP POP JUMP JUMPDEST PUSH32 0x4E487B7100000000000000000000000000000000000000000000000000000000 PUSH1 0x0 MSTORE PUSH1 0x11 PUSH1 0x4 MSTORE PUSH1 0x24 PUSH1 0x0 REVERT JUMPDEST PUSH32 0x4E487B7100000000000000000000000000000000000000000000000000000000 PUSH1 0x0 MSTORE PUSH1 0x12 PUSH1 0x4 MSTORE PUSH1 0x24 PUSH1 0x0 REVERT JUMPDEST PUSH32 0x4E487B7100000000000000000000000000000000000000000000000000000000 PUSH1 0x0 MSTORE PUSH1 0x22 PUSH1 0x4 MSTORE PUSH1 0x24 PUSH1 0x0 REVERT JUMPDEST PUSH32 0x4E487B7100000000000000000000000000000000000000000000000000000000 PUSH1 0x0 MSTORE PUSH1 0x32 PUSH1 0x4 MSTORE PUSH1 0x24 PUSH1 0x0 REVERT JUMPDEST PUSH32 0x4E487B7100000000000000000000000000000000000000000000000000000000 PUSH1 0x0 MSTORE PUSH1 0x41 PUSH1 0x4 MSTORE PUSH1 0x24 PUSH1 0x0 REVERT JUMPDEST PUSH1 0x0 DUP1 REVERT JUMPDEST PUSH1 0x0 DUP1 REVERT JUMPDEST PUSH1 0x0 DUP1 REVERT JUMPDEST PUSH1 0x0 DUP1 REVERT JUMPDEST PUSH1 0x0 PUSH1 0x1F NOT PUSH1 0x1F DUP4 ADD AND SWAP1 POP SWAP2 SWAP1 POP JUMP JUMPDEST PUSH32 0x566F746572206861766520616C72656164792068617320726967687420746F20 PUSH1 0x0 DUP3 ADD MSTORE PUSH32 0x766F74652E000000000000000000000000000000000000000000000000000000 PUSH1 0x20 DUP3 ADD MSTORE POP JUMP JUMPDEST PUSH32 0x43616E64696461746520796F752073656E7420646F6573206E6F742065786973 PUSH1 0x0 DUP3 ADD MSTORE PUSH32 0x7400000000000000000000000000000000000000000000000000000000000000 PUSH1 0x20 DUP3 ADD MSTORE POP JUMP JUMPDEST PUSH32 0x4D6178206163636F756E7420766F74657320697320726561636865642E204261 PUSH1 0x0 DUP3 ADD MSTORE PUSH32 0x6C6C6F7420697320434C4F5345442E0000000000000000000000000000000000 PUSH1 0x20 DUP3 ADD MSTORE POP JUMP JUMPDEST PUSH32 0x4F6E6C792074686520636F6E7472616374206F776E65722063616E2067697665 PUSH1 0x0 DUP3 ADD MSTORE PUSH32 0x20726967687420746F20766F74652E0000000000000000000000000000000000 PUSH1 0x20 DUP3 ADD MSTORE POP JUMP JUMPDEST PUSH32 0x2000000000000000000000000000000000000000000000000000000000000000 PUSH1 0x0 DUP3 ADD MSTORE POP JUMP JUMPDEST PUSH32 0x566F74657220616C726561647920766F7465642E000000000000000000000000 PUSH1 0x0 DUP3 ADD MSTORE POP JUMP JUMPDEST PUSH2 0x1938 DUP2 PUSH2 0x1536 JUMP JUMPDEST DUP2 EQ PUSH2 0x1943 JUMPI PUSH1 0x0 DUP1 REVERT JUMPDEST POP JUMP INVALID SLOAD PUSH9 0x657265206973206120 SLOAD 0x49 GASLIMIT KECCAK256 PUSH16 0x6E2042616C6C6F742E20596F75207368 PUSH16 0x756C642073746172742061206E657720 PUSH3 0x616C6C PUSH16 0x742077697468207469652063616E6469 PUSH5 0x617465733A LOG2 PUSH5 0x6970667358 0x22 SLT KECCAK256 PUSH25 0x8BB1FEF009E94D0AAE0DA3191922B8AABFE0A5847DC9E1498B EXTCODECOPY 0xEE ADDRESS 0x22 SIGNEXTEND 0xDE PUSH5 0x736F6C6343 STOP ADDMOD SMOD STOP CALLER "
				},
				"gasEstimates": {
					"creation": {
						"codeDepositCost": "1320000",
						"executionCost": "infinite",
						"totalCost": "infinite"
					},
					"external": {
						"getCandidatesListName()": "infinite",
						"getWinnerBallot()": "infinite",
						"giveRightToVote(address,string)": "infinite",
						"vote(string)": "infinite"
					},
					"internal": {
						"areYouContractOwner()": "2176",
						"areYouHaveRigthToVote()": "infinite",
						"concatenateStrings(string memory,string memory)": "infinite",
						"getCandidateExistRequire(bool)": "infinite",
						"getContractAddress()": "22",
						"getContractOwnerAddCandidateRequire()": "infinite",
						"getRightToVoteRequire(address)": "infinite",
						"getTieRequire(bool,string memory)": "infinite",
						"getTotalVotesCounterReachedRequire()": "infinite",
						"getVoterRigthToVote(address)": "infinite",
						"getVoterVoted(address)": "2316",
						"getVoterVotedRequire(address)": "infinite",
						"getWinnerCandidate()": "infinite",
						"getYouContractOwnerRequire()": "infinite",
						"getYouHaveRightToVoteRequire()": "infinite",
						"setCandidatesIntoStorage(string memory[] memory)": "infinite",
						"stringEqualTo(string memory,string memory)": "infinite"
					}
				},
				"methodIdentifiers": {
					"getCandidatesListName()": "011d1023",
					"getWinnerBallot()": "53f06ecd",
					"giveRightToVote(address,string)": "68957b20",
					"vote(string)": "fc36e15b"
				}
			},
			"storageLayout": {
				"storage": [
					{
						"astId": 242,
						"contract": "contracts/Ballot/Ballot.sol:MyBallot",
						"label": "contractOwner",
						"offset": 0,
						"slot": "0",
						"type": "t_address"
					},
					{
						"astId": 247,
						"contract": "contracts/Ballot/Ballot.sol:MyBallot",
						"label": "voters",
						"offset": 0,
						"slot": "1",
						"type": "t_mapping(t_address,t_struct(Voter)235_storage)"
					},
					{
						"astId": 251,
						"contract": "contracts/Ballot/Ballot.sol:MyBallot",
						"label": "candidates",
						"offset": 0,
						"slot": "2",
						"type": "t_array(t_struct(Candidate)240_storage)dyn_storage"
					},
					{
						"astId": 253,
						"contract": "contracts/Ballot/Ballot.sol:MyBallot",
						"label": "totalVotesCounter",
						"offset": 0,
						"slot": "3",
						"type": "t_uint256"
					},
					{
						"astId": 255,
						"contract": "contracts/Ballot/Ballot.sol:MyBallot",
						"label": "maxVotes",
						"offset": 0,
						"slot": "4",
						"type": "t_uint256"
					}
				],
				"types": {
					"t_address": {
						"encoding": "inplace",
						"label": "address",
						"numberOfBytes": "20"
					},
					"t_array(t_struct(Candidate)240_storage)dyn_storage": {
						"base": "t_struct(Candidate)240_storage",
						"encoding": "dynamic_array",
						"label": "struct MyBallot.Candidate[]",
						"numberOfBytes": "32"
					},
					"t_bool": {
						"encoding": "inplace",
						"label": "bool",
						"numberOfBytes": "1"
					},
					"t_mapping(t_address,t_struct(Voter)235_storage)": {
						"encoding": "mapping",
						"key": "t_address",
						"label": "mapping(address => struct MyBallot.Voter)",
						"numberOfBytes": "32",
						"value": "t_struct(Voter)235_storage"
					},
					"t_string_storage": {
						"encoding": "bytes",
						"label": "string",
						"numberOfBytes": "32"
					},
					"t_struct(Candidate)240_storage": {
						"encoding": "inplace",
						"label": "struct MyBallot.Candidate",
						"members": [
							{
								"astId": 237,
								"contract": "contracts/Ballot/Ballot.sol:MyBallot",
								"label": "nameProject",
								"offset": 0,
								"slot": "0",
								"type": "t_string_storage"
							},
							{
								"astId": 239,
								"contract": "contracts/Ballot/Ballot.sol:MyBallot",
								"label": "votesCount",
								"offset": 0,
								"slot": "1",
								"type": "t_uint256"
							}
						],
						"numberOfBytes": "64"
					},
					"t_struct(Voter)235_storage": {
						"encoding": "inplace",
						"label": "struct MyBallot.Voter",
						"members": [
							{
								"astId": 230,
								"contract": "contracts/Ballot/Ballot.sol:MyBallot",
								"label": "nameVoter",
								"offset": 0,
								"slot": "0",
								"type": "t_string_storage"
							},
							{
								"astId": 232,
								"contract": "contracts/Ballot/Ballot.sol:MyBallot",
								"label": "canVote",
								"offset": 0,
								"slot": "1",
								"type": "t_bool"
							},
							{
								"astId": 234,
								"contract": "contracts/Ballot/Ballot.sol:MyBallot",
								"label": "hasVoted",
								"offset": 1,
								"slot": "1",
								"type": "t_bool"
							}
						],
						"numberOfBytes": "64"
					},
					"t_uint256": {
						"encoding": "inplace",
						"label": "uint256",
						"numberOfBytes": "32"
					}
				}
			},
			"userdoc": {
				"kind": "user",
				"methods": {},
				"version": 1
			}
		}
	}
}