{
	"contracts/Ballot/Ballot.sol": {
		"MyBallot": {
			"abi": [
				{
					"inputs": [
						{
							"internalType": "string[]",
							"name": "_candidates",
							"type": "string[]"
						},
						{
							"internalType": "uint256",
							"name": "_maxVotes",
							"type": "uint256"
						}
					],
					"stateMutability": "nonpayable",
					"type": "constructor"
				},
				{
					"inputs": [],
					"name": "getCandidatesListName",
					"outputs": [
						{
							"internalType": "string[]",
							"name": "",
							"type": "string[]"
						}
					],
					"stateMutability": "view",
					"type": "function"
				},
				{
					"inputs": [],
					"name": "getWinnerBallot",
					"outputs": [
						{
							"internalType": "string",
							"name": "winnerName",
							"type": "string"
						},
						{
							"internalType": "uint256",
							"name": "amountWinningVotes",
							"type": "uint256"
						},
						{
							"internalType": "address",
							"name": "contractAddress",
							"type": "address"
						}
					],
					"stateMutability": "view",
					"type": "function"
				},
				{
					"inputs": [
						{
							"internalType": "address",
							"name": "voterAddress",
							"type": "address"
						},
						{
							"internalType": "string",
							"name": "_nameVoter",
							"type": "string"
						}
					],
					"name": "giveRightToVote",
					"outputs": [],
					"stateMutability": "nonpayable",
					"type": "function"
				},
				{
					"inputs": [
						{
							"internalType": "string",
							"name": "_nameProject",
							"type": "string"
						}
					],
					"name": "vote",
					"outputs": [],
					"stateMutability": "nonpayable",
					"type": "function"
				}
			],
			"devdoc": {
				"kind": "dev",
				"methods": {},
				"version": 1
			},
			"evm": {
				"assembly": "    /* \"contracts/Ballot/Ballot.sol\":70:7987  contract MyBallot {\r... */\n  mstore(0x40, 0x80)\n    /* \"contracts/Ballot/Ballot.sol\":535:724  constructor(string[] memory _candidates, uint _maxVotes) {\r... */\n  callvalue\n  dup1\n  iszero\n  tag_1\n  jumpi\n  0x00\n  dup1\n  revert\ntag_1:\n  pop\n  mload(0x40)\n  sub(codesize, bytecodeSize)\n  dup1\n  bytecodeSize\n  dup4\n  codecopy\n  dup2\n  dup2\n  add\n  0x40\n  mstore\n  dup2\n  add\n  swap1\n  tag_2\n  swap2\n  swap1\n  tag_3\n  jump\t// in\ntag_2:\n    /* \"contracts/Ballot/Ballot.sol\":619:629  msg.sender */\n  caller\n    /* \"contracts/Ballot/Ballot.sol\":603:616  contractOwner */\n  0x00\n  dup1\n    /* \"contracts/Ballot/Ballot.sol\":603:629  contractOwner = msg.sender */\n  0x0100\n  exp\n  dup2\n  sload\n  dup2\n  0xffffffffffffffffffffffffffffffffffffffff\n  mul\n  not\n  and\n  swap1\n  dup4\n  0xffffffffffffffffffffffffffffffffffffffff\n  and\n  mul\n  or\n  swap1\n  sstore\n  pop\n    /* \"contracts/Ballot/Ballot.sol\":640:677  setCandidatesIntoStorage(_candidates) */\n  tag_6\n    /* \"contracts/Ballot/Ballot.sol\":665:676  _candidates */\n  dup3\n    /* \"contracts/Ballot/Ballot.sol\":640:664  setCandidatesIntoStorage */\n  shl(0x20, tag_7)\n    /* \"contracts/Ballot/Ballot.sol\":640:677  setCandidatesIntoStorage(_candidates) */\n  0x20\n  shr\n  jump\t// in\ntag_6:\n    /* \"contracts/Ballot/Ballot.sol\":707:716  _maxVotes */\n  dup1\n    /* \"contracts/Ballot/Ballot.sol\":696:704  maxVotes */\n  0x04\n    /* \"contracts/Ballot/Ballot.sol\":696:716  maxVotes = _maxVotes */\n  dup2\n  swap1\n  sstore\n  pop\n    /* \"contracts/Ballot/Ballot.sol\":535:724  constructor(string[] memory _candidates, uint _maxVotes) {\r... */\n  pop\n  pop\n    /* \"contracts/Ballot/Ballot.sol\":70:7987  contract MyBallot {\r... */\n  jump(tag_8)\n    /* \"contracts/Ballot/Ballot.sol\":2982:3281  function setCandidatesIntoStorage(string[] memory _candidates) private {\r... */\ntag_7:\n    /* \"contracts/Ballot/Ballot.sol\":3069:3079  uint index */\n  0x00\n    /* \"contracts/Ballot/Ballot.sol\":3064:3274  for (uint index = 0; index < _candidates.length; index++) {\r... */\ntag_10:\n    /* \"contracts/Ballot/Ballot.sol\":3093:3104  _candidates */\n  dup2\n    /* \"contracts/Ballot/Ballot.sol\":3093:3111  _candidates.length */\n  mload\n    /* \"contracts/Ballot/Ballot.sol\":3085:3090  index */\n  dup2\n    /* \"contracts/Ballot/Ballot.sol\":3085:3111  index < _candidates.length */\n  lt\n    /* \"contracts/Ballot/Ballot.sol\":3064:3274  for (uint index = 0; index < _candidates.length; index++) {\r... */\n  iszero\n  tag_11\n  jumpi\n    /* \"contracts/Ballot/Ballot.sol\":3137:3147  candidates */\n  0x02\n    /* \"contracts/Ballot/Ballot.sol\":3153:3261  Candidate({\r... */\n  mload(0x40)\n  dup1\n  0x40\n  add\n  0x40\n  mstore\n  dup1\n    /* \"contracts/Ballot/Ballot.sol\":3195:3206  _candidates */\n  dup5\n    /* \"contracts/Ballot/Ballot.sol\":3207:3212  index */\n  dup5\n    /* \"contracts/Ballot/Ballot.sol\":3195:3213  _candidates[index] */\n  dup2\n  mload\n  dup2\n  lt\n  tag_13\n  jumpi\n  tag_14\n  tag_15\n  jump\t// in\ntag_14:\ntag_13:\n  0x20\n  mul\n  0x20\n  add\n  add\n  mload\n    /* \"contracts/Ballot/Ballot.sol\":3153:3261  Candidate({\r... */\n  dup2\n  mstore\n  0x20\n  add\n    /* \"contracts/Ballot/Ballot.sol\":3244:3245  0 */\n  0x00\n    /* \"contracts/Ballot/Ballot.sol\":3153:3261  Candidate({\r... */\n  dup2\n  mstore\n  pop\n    /* \"contracts/Ballot/Ballot.sol\":3137:3262  candidates.push(Candidate({\r... */\n  swap1\n  dup1\n  0x01\n  dup2\n  sload\n  add\n  dup1\n  dup3\n  sstore\n  dup1\n  swap2\n  pop\n  pop\n  0x01\n  swap1\n  sub\n  swap1\n  0x00\n  mstore\n  keccak256(0x00, 0x20)\n  swap1\n  0x02\n  mul\n  add\n  0x00\n  swap1\n  swap2\n  swap1\n  swap2\n  swap1\n  swap2\n  pop\n  0x00\n  dup3\n  add\n  mload\n  dup2\n  0x00\n  add\n  swap1\n  dup1\n  mload\n  swap1\n  0x20\n  add\n  swap1\n  tag_17\n  swap3\n  swap2\n  swap1\n  tag_18\n  jump\t// in\ntag_17:\n  pop\n  0x20\n  dup3\n  add\n  mload\n  dup2\n  0x01\n  add\n  sstore\n  pop\n  pop\n    /* \"contracts/Ballot/Ballot.sol\":3113:3120  index++ */\n  dup1\n  dup1\n  tag_19\n  swap1\n  tag_20\n  jump\t// in\ntag_19:\n  swap2\n  pop\n  pop\n    /* \"contracts/Ballot/Ballot.sol\":3064:3274  for (uint index = 0; index < _candidates.length; index++) {\r... */\n  jump(tag_10)\ntag_11:\n  pop\n    /* \"contracts/Ballot/Ballot.sol\":2982:3281  function setCandidatesIntoStorage(string[] memory _candidates) private {\r... */\n  pop\n  jump\t// out\n    /* \"contracts/Ballot/Ballot.sol\":70:7987  contract MyBallot {\r... */\ntag_18:\n  dup3\n  dup1\n  sload\n  tag_21\n  swap1\n  tag_22\n  jump\t// in\ntag_21:\n  swap1\n  0x00\n  mstore\n  keccak256(0x00, 0x20)\n  swap1\n  0x1f\n  add\n  0x20\n  swap1\n  div\n  dup2\n  add\n  swap3\n  dup3\n  tag_24\n  jumpi\n  0x00\n  dup6\n  sstore\n  jump(tag_23)\ntag_24:\n  dup3\n  0x1f\n  lt\n  tag_25\n  jumpi\n  dup1\n  mload\n  not(0xff)\n  and\n  dup4\n  dup1\n  add\n  or\n  dup6\n  sstore\n  jump(tag_23)\ntag_25:\n  dup3\n  dup1\n  add\n  0x01\n  add\n  dup6\n  sstore\n  dup3\n  iszero\n  tag_23\n  jumpi\n  swap2\n  dup3\n  add\ntag_26:\n  dup3\n  dup2\n  gt\n  iszero\n  tag_27\n  jumpi\n  dup3\n  mload\n  dup3\n  sstore\n  swap2\n  0x20\n  add\n  swap2\n  swap1\n  0x01\n  add\n  swap1\n  jump(tag_26)\ntag_27:\ntag_23:\n  pop\n  swap1\n  pop\n  tag_28\n  swap2\n  swap1\n  tag_29\n  jump\t// in\ntag_28:\n  pop\n  swap1\n  jump\t// out\ntag_29:\ntag_30:\n  dup1\n  dup3\n  gt\n  iszero\n  tag_31\n  jumpi\n  0x00\n  dup2\n  0x00\n  swap1\n  sstore\n  pop\n  0x01\n  add\n  jump(tag_30)\ntag_31:\n  pop\n  swap1\n  jump\t// out\n    /* \"#utility.yul\":23:995   */\ntag_33:\n    /* \"#utility.yul\":140:145   */\n  0x00\n    /* \"#utility.yul\":165:256   */\n  tag_35\n    /* \"#utility.yul\":181:255   */\n  tag_36\n    /* \"#utility.yul\":248:254   */\n  dup5\n    /* \"#utility.yul\":181:255   */\n  tag_37\n  jump\t// in\ntag_36:\n    /* \"#utility.yul\":165:256   */\n  tag_38\n  jump\t// in\ntag_35:\n    /* \"#utility.yul\":156:256   */\n  swap1\n  pop\n    /* \"#utility.yul\":276:281   */\n  dup1\n    /* \"#utility.yul\":305:311   */\n  dup4\n    /* \"#utility.yul\":298:303   */\n  dup3\n    /* \"#utility.yul\":291:312   */\n  mstore\n    /* \"#utility.yul\":339:343   */\n  0x20\n    /* \"#utility.yul\":332:337   */\n  dup3\n    /* \"#utility.yul\":328:344   */\n  add\n    /* \"#utility.yul\":321:344   */\n  swap1\n  pop\n    /* \"#utility.yul\":365:371   */\n  dup3\n    /* \"#utility.yul\":415:418   */\n  dup6\n    /* \"#utility.yul\":407:411   */\n  0x20\n    /* \"#utility.yul\":399:405   */\n  dup7\n    /* \"#utility.yul\":395:412   */\n  mul\n    /* \"#utility.yul\":390:393   */\n  dup3\n    /* \"#utility.yul\":386:413   */\n  add\n    /* \"#utility.yul\":383:419   */\n  gt\n    /* \"#utility.yul\":380:523   */\n  iszero\n  tag_39\n  jumpi\n    /* \"#utility.yul\":434:513   */\n  tag_40\n  tag_41\n  jump\t// in\ntag_40:\n    /* \"#utility.yul\":380:523   */\ntag_39:\n    /* \"#utility.yul\":547:548   */\n  0x00\n    /* \"#utility.yul\":532:989   */\ntag_42:\n    /* \"#utility.yul\":557:563   */\n  dup6\n    /* \"#utility.yul\":554:555   */\n  dup2\n    /* \"#utility.yul\":551:564   */\n  lt\n    /* \"#utility.yul\":532:989   */\n  iszero\n  tag_44\n  jumpi\n    /* \"#utility.yul\":632:635   */\n  dup2\n    /* \"#utility.yul\":626:636   */\n  mload\n    /* \"#utility.yul\":668:686   */\n  0xffffffffffffffff\n    /* \"#utility.yul\":655:666   */\n  dup2\n    /* \"#utility.yul\":652:687   */\n  gt\n    /* \"#utility.yul\":649:771   */\n  iszero\n  tag_45\n  jumpi\n    /* \"#utility.yul\":690:769   */\n  tag_46\n  tag_47\n  jump\t// in\ntag_46:\n    /* \"#utility.yul\":649:771   */\ntag_45:\n    /* \"#utility.yul\":814:825   */\n  dup1\n    /* \"#utility.yul\":806:812   */\n  dup7\n    /* \"#utility.yul\":802:826   */\n  add\n    /* \"#utility.yul\":852:910   */\n  tag_48\n    /* \"#utility.yul\":906:909   */\n  dup10\n    /* \"#utility.yul\":894:904   */\n  dup3\n    /* \"#utility.yul\":852:910   */\n  tag_49\n  jump\t// in\ntag_48:\n    /* \"#utility.yul\":847:850   */\n  dup6\n    /* \"#utility.yul\":840:911   */\n  mstore\n    /* \"#utility.yul\":940:944   */\n  0x20\n    /* \"#utility.yul\":935:938   */\n  dup6\n    /* \"#utility.yul\":931:945   */\n  add\n    /* \"#utility.yul\":924:945   */\n  swap5\n  pop\n    /* \"#utility.yul\":974:978   */\n  0x20\n    /* \"#utility.yul\":969:972   */\n  dup5\n    /* \"#utility.yul\":965:979   */\n  add\n    /* \"#utility.yul\":958:979   */\n  swap4\n  pop\n    /* \"#utility.yul\":592:989   */\n  pop\n  pop\n    /* \"#utility.yul\":579:580   */\n  0x01\n    /* \"#utility.yul\":576:577   */\n  dup2\n    /* \"#utility.yul\":572:581   */\n  add\n    /* \"#utility.yul\":567:581   */\n  swap1\n  pop\n    /* \"#utility.yul\":532:989   */\n  jump(tag_42)\ntag_44:\n    /* \"#utility.yul\":536:550   */\n  pop\n    /* \"#utility.yul\":146:995   */\n  pop\n  pop\n    /* \"#utility.yul\":23:995   */\n  swap4\n  swap3\n  pop\n  pop\n  pop\n  jump\t// out\n    /* \"#utility.yul\":1001:1422   */\ntag_50:\n    /* \"#utility.yul\":1090:1095   */\n  0x00\n    /* \"#utility.yul\":1115:1181   */\n  tag_52\n    /* \"#utility.yul\":1131:1180   */\n  tag_53\n    /* \"#utility.yul\":1173:1179   */\n  dup5\n    /* \"#utility.yul\":1131:1180   */\n  tag_54\n  jump\t// in\ntag_53:\n    /* \"#utility.yul\":1115:1181   */\n  tag_38\n  jump\t// in\ntag_52:\n    /* \"#utility.yul\":1106:1181   */\n  swap1\n  pop\n    /* \"#utility.yul\":1204:1210   */\n  dup3\n    /* \"#utility.yul\":1197:1202   */\n  dup2\n    /* \"#utility.yul\":1190:1211   */\n  mstore\n    /* \"#utility.yul\":1242:1246   */\n  0x20\n    /* \"#utility.yul\":1235:1240   */\n  dup2\n    /* \"#utility.yul\":1231:1247   */\n  add\n    /* \"#utility.yul\":1280:1283   */\n  dup5\n    /* \"#utility.yul\":1271:1277   */\n  dup5\n    /* \"#utility.yul\":1266:1269   */\n  dup5\n    /* \"#utility.yul\":1262:1278   */\n  add\n    /* \"#utility.yul\":1259:1284   */\n  gt\n    /* \"#utility.yul\":1256:1368   */\n  iszero\n  tag_55\n  jumpi\n    /* \"#utility.yul\":1287:1366   */\n  tag_56\n  tag_57\n  jump\t// in\ntag_56:\n    /* \"#utility.yul\":1256:1368   */\ntag_55:\n    /* \"#utility.yul\":1377:1416   */\n  tag_58\n    /* \"#utility.yul\":1409:1415   */\n  dup5\n    /* \"#utility.yul\":1404:1407   */\n  dup3\n    /* \"#utility.yul\":1399:1402   */\n  dup6\n    /* \"#utility.yul\":1377:1416   */\n  tag_59\n  jump\t// in\ntag_58:\n    /* \"#utility.yul\":1096:1422   */\n  pop\n    /* \"#utility.yul\":1001:1422   */\n  swap4\n  swap3\n  pop\n  pop\n  pop\n  jump\t// out\n    /* \"#utility.yul\":1444:1849   */\ntag_60:\n    /* \"#utility.yul\":1536:1541   */\n  0x00\n    /* \"#utility.yul\":1585:1588   */\n  dup3\n    /* \"#utility.yul\":1578:1582   */\n  0x1f\n    /* \"#utility.yul\":1570:1576   */\n  dup4\n    /* \"#utility.yul\":1566:1583   */\n  add\n    /* \"#utility.yul\":1562:1589   */\n  slt\n    /* \"#utility.yul\":1552:1674   */\n  tag_62\n  jumpi\n    /* \"#utility.yul\":1593:1672   */\n  tag_63\n  tag_47\n  jump\t// in\ntag_63:\n    /* \"#utility.yul\":1552:1674   */\ntag_62:\n    /* \"#utility.yul\":1703:1709   */\n  dup2\n    /* \"#utility.yul\":1697:1710   */\n  mload\n    /* \"#utility.yul\":1728:1843   */\n  tag_64\n    /* \"#utility.yul\":1839:1842   */\n  dup5\n    /* \"#utility.yul\":1831:1837   */\n  dup3\n    /* \"#utility.yul\":1824:1828   */\n  0x20\n    /* \"#utility.yul\":1816:1822   */\n  dup7\n    /* \"#utility.yul\":1812:1829   */\n  add\n    /* \"#utility.yul\":1728:1843   */\n  tag_33\n  jump\t// in\ntag_64:\n    /* \"#utility.yul\":1719:1843   */\n  swap2\n  pop\n    /* \"#utility.yul\":1542:1849   */\n  pop\n    /* \"#utility.yul\":1444:1849   */\n  swap3\n  swap2\n  pop\n  pop\n  jump\t// out\n    /* \"#utility.yul\":1869:2224   */\ntag_49:\n    /* \"#utility.yul\":1936:1941   */\n  0x00\n    /* \"#utility.yul\":1985:1988   */\n  dup3\n    /* \"#utility.yul\":1978:1982   */\n  0x1f\n    /* \"#utility.yul\":1970:1976   */\n  dup4\n    /* \"#utility.yul\":1966:1983   */\n  add\n    /* \"#utility.yul\":1962:1989   */\n  slt\n    /* \"#utility.yul\":1952:2074   */\n  tag_66\n  jumpi\n    /* \"#utility.yul\":1993:2072   */\n  tag_67\n  tag_47\n  jump\t// in\ntag_67:\n    /* \"#utility.yul\":1952:2074   */\ntag_66:\n    /* \"#utility.yul\":2103:2109   */\n  dup2\n    /* \"#utility.yul\":2097:2110   */\n  mload\n    /* \"#utility.yul\":2128:2218   */\n  tag_68\n    /* \"#utility.yul\":2214:2217   */\n  dup5\n    /* \"#utility.yul\":2206:2212   */\n  dup3\n    /* \"#utility.yul\":2199:2203   */\n  0x20\n    /* \"#utility.yul\":2191:2197   */\n  dup7\n    /* \"#utility.yul\":2187:2204   */\n  add\n    /* \"#utility.yul\":2128:2218   */\n  tag_50\n  jump\t// in\ntag_68:\n    /* \"#utility.yul\":2119:2218   */\n  swap2\n  pop\n    /* \"#utility.yul\":1942:2224   */\n  pop\n    /* \"#utility.yul\":1869:2224   */\n  swap3\n  swap2\n  pop\n  pop\n  jump\t// out\n    /* \"#utility.yul\":2230:2373   */\ntag_69:\n    /* \"#utility.yul\":2287:2292   */\n  0x00\n    /* \"#utility.yul\":2318:2324   */\n  dup2\n    /* \"#utility.yul\":2312:2325   */\n  mload\n    /* \"#utility.yul\":2303:2325   */\n  swap1\n  pop\n    /* \"#utility.yul\":2334:2367   */\n  tag_71\n    /* \"#utility.yul\":2361:2366   */\n  dup2\n    /* \"#utility.yul\":2334:2367   */\n  tag_72\n  jump\t// in\ntag_71:\n    /* \"#utility.yul\":2230:2373   */\n  swap3\n  swap2\n  pop\n  pop\n  jump\t// out\n    /* \"#utility.yul\":2379:3109   */\ntag_3:\n    /* \"#utility.yul\":2493:2499   */\n  0x00\n    /* \"#utility.yul\":2501:2507   */\n  dup1\n    /* \"#utility.yul\":2550:2552   */\n  0x40\n    /* \"#utility.yul\":2538:2547   */\n  dup4\n    /* \"#utility.yul\":2529:2536   */\n  dup6\n    /* \"#utility.yul\":2525:2548   */\n  sub\n    /* \"#utility.yul\":2521:2553   */\n  slt\n    /* \"#utility.yul\":2518:2637   */\n  iszero\n  tag_74\n  jumpi\n    /* \"#utility.yul\":2556:2635   */\n  tag_75\n  tag_76\n  jump\t// in\ntag_75:\n    /* \"#utility.yul\":2518:2637   */\ntag_74:\n    /* \"#utility.yul\":2697:2698   */\n  0x00\n    /* \"#utility.yul\":2686:2695   */\n  dup4\n    /* \"#utility.yul\":2682:2699   */\n  add\n    /* \"#utility.yul\":2676:2700   */\n  mload\n    /* \"#utility.yul\":2727:2745   */\n  0xffffffffffffffff\n    /* \"#utility.yul\":2719:2725   */\n  dup2\n    /* \"#utility.yul\":2716:2746   */\n  gt\n    /* \"#utility.yul\":2713:2830   */\n  iszero\n  tag_77\n  jumpi\n    /* \"#utility.yul\":2749:2828   */\n  tag_78\n  tag_79\n  jump\t// in\ntag_78:\n    /* \"#utility.yul\":2713:2830   */\ntag_77:\n    /* \"#utility.yul\":2854:2953   */\n  tag_80\n    /* \"#utility.yul\":2945:2952   */\n  dup6\n    /* \"#utility.yul\":2936:2942   */\n  dup3\n    /* \"#utility.yul\":2925:2934   */\n  dup7\n    /* \"#utility.yul\":2921:2943   */\n  add\n    /* \"#utility.yul\":2854:2953   */\n  tag_60\n  jump\t// in\ntag_80:\n    /* \"#utility.yul\":2844:2953   */\n  swap3\n  pop\n    /* \"#utility.yul\":2647:2963   */\n  pop\n    /* \"#utility.yul\":3002:3004   */\n  0x20\n    /* \"#utility.yul\":3028:3092   */\n  tag_81\n    /* \"#utility.yul\":3084:3091   */\n  dup6\n    /* \"#utility.yul\":3075:3081   */\n  dup3\n    /* \"#utility.yul\":3064:3073   */\n  dup7\n    /* \"#utility.yul\":3060:3082   */\n  add\n    /* \"#utility.yul\":3028:3092   */\n  tag_69\n  jump\t// in\ntag_81:\n    /* \"#utility.yul\":3018:3092   */\n  swap2\n  pop\n    /* \"#utility.yul\":2973:3102   */\n  pop\n    /* \"#utility.yul\":2379:3109   */\n  swap3\n  pop\n  swap3\n  swap1\n  pop\n  jump\t// out\n    /* \"#utility.yul\":3115:3244   */\ntag_38:\n    /* \"#utility.yul\":3149:3155   */\n  0x00\n    /* \"#utility.yul\":3176:3196   */\n  tag_83\n  tag_84\n  jump\t// in\ntag_83:\n    /* \"#utility.yul\":3166:3196   */\n  swap1\n  pop\n    /* \"#utility.yul\":3205:3238   */\n  tag_85\n    /* \"#utility.yul\":3233:3237   */\n  dup3\n    /* \"#utility.yul\":3225:3231   */\n  dup3\n    /* \"#utility.yul\":3205:3238   */\n  tag_86\n  jump\t// in\ntag_85:\n    /* \"#utility.yul\":3115:3244   */\n  swap2\n  swap1\n  pop\n  jump\t// out\n    /* \"#utility.yul\":3250:3325   */\ntag_84:\n    /* \"#utility.yul\":3283:3289   */\n  0x00\n    /* \"#utility.yul\":3316:3318   */\n  0x40\n    /* \"#utility.yul\":3310:3319   */\n  mload\n    /* \"#utility.yul\":3300:3319   */\n  swap1\n  pop\n    /* \"#utility.yul\":3250:3325   */\n  swap1\n  jump\t// out\n    /* \"#utility.yul\":3331:3652   */\ntag_37:\n    /* \"#utility.yul\":3418:3422   */\n  0x00\n    /* \"#utility.yul\":3508:3526   */\n  0xffffffffffffffff\n    /* \"#utility.yul\":3500:3506   */\n  dup3\n    /* \"#utility.yul\":3497:3527   */\n  gt\n    /* \"#utility.yul\":3494:3550   */\n  iszero\n  tag_89\n  jumpi\n    /* \"#utility.yul\":3530:3548   */\n  tag_90\n  tag_91\n  jump\t// in\ntag_90:\n    /* \"#utility.yul\":3494:3550   */\ntag_89:\n    /* \"#utility.yul\":3580:3584   */\n  0x20\n    /* \"#utility.yul\":3572:3578   */\n  dup3\n    /* \"#utility.yul\":3568:3585   */\n  mul\n    /* \"#utility.yul\":3560:3585   */\n  swap1\n  pop\n    /* \"#utility.yul\":3640:3644   */\n  0x20\n    /* \"#utility.yul\":3634:3638   */\n  dup2\n    /* \"#utility.yul\":3630:3645   */\n  add\n    /* \"#utility.yul\":3622:3645   */\n  swap1\n  pop\n    /* \"#utility.yul\":3331:3652   */\n  swap2\n  swap1\n  pop\n  jump\t// out\n    /* \"#utility.yul\":3658:3966   */\ntag_54:\n    /* \"#utility.yul\":3720:3724   */\n  0x00\n    /* \"#utility.yul\":3810:3828   */\n  0xffffffffffffffff\n    /* \"#utility.yul\":3802:3808   */\n  dup3\n    /* \"#utility.yul\":3799:3829   */\n  gt\n    /* \"#utility.yul\":3796:3852   */\n  iszero\n  tag_93\n  jumpi\n    /* \"#utility.yul\":3832:3850   */\n  tag_94\n  tag_91\n  jump\t// in\ntag_94:\n    /* \"#utility.yul\":3796:3852   */\ntag_93:\n    /* \"#utility.yul\":3870:3899   */\n  tag_95\n    /* \"#utility.yul\":3892:3898   */\n  dup3\n    /* \"#utility.yul\":3870:3899   */\n  tag_96\n  jump\t// in\ntag_95:\n    /* \"#utility.yul\":3862:3899   */\n  swap1\n  pop\n    /* \"#utility.yul\":3954:3958   */\n  0x20\n    /* \"#utility.yul\":3948:3952   */\n  dup2\n    /* \"#utility.yul\":3944:3959   */\n  add\n    /* \"#utility.yul\":3936:3959   */\n  swap1\n  pop\n    /* \"#utility.yul\":3658:3966   */\n  swap2\n  swap1\n  pop\n  jump\t// out\n    /* \"#utility.yul\":3972:4049   */\ntag_97:\n    /* \"#utility.yul\":4009:4016   */\n  0x00\n    /* \"#utility.yul\":4038:4043   */\n  dup2\n    /* \"#utility.yul\":4027:4043   */\n  swap1\n  pop\n    /* \"#utility.yul\":3972:4049   */\n  swap2\n  swap1\n  pop\n  jump\t// out\n    /* \"#utility.yul\":4055:4362   */\ntag_59:\n    /* \"#utility.yul\":4123:4124   */\n  0x00\n    /* \"#utility.yul\":4133:4246   */\ntag_100:\n    /* \"#utility.yul\":4147:4153   */\n  dup4\n    /* \"#utility.yul\":4144:4145   */\n  dup2\n    /* \"#utility.yul\":4141:4154   */\n  lt\n    /* \"#utility.yul\":4133:4246   */\n  iszero\n  tag_102\n  jumpi\n    /* \"#utility.yul\":4232:4233   */\n  dup1\n    /* \"#utility.yul\":4227:4230   */\n  dup3\n    /* \"#utility.yul\":4223:4234   */\n  add\n    /* \"#utility.yul\":4217:4235   */\n  mload\n    /* \"#utility.yul\":4213:4214   */\n  dup2\n    /* \"#utility.yul\":4208:4211   */\n  dup5\n    /* \"#utility.yul\":4204:4215   */\n  add\n    /* \"#utility.yul\":4197:4236   */\n  mstore\n    /* \"#utility.yul\":4169:4171   */\n  0x20\n    /* \"#utility.yul\":4166:4167   */\n  dup2\n    /* \"#utility.yul\":4162:4172   */\n  add\n    /* \"#utility.yul\":4157:4172   */\n  swap1\n  pop\n    /* \"#utility.yul\":4133:4246   */\n  jump(tag_100)\ntag_102:\n    /* \"#utility.yul\":4264:4270   */\n  dup4\n    /* \"#utility.yul\":4261:4262   */\n  dup2\n    /* \"#utility.yul\":4258:4271   */\n  gt\n    /* \"#utility.yul\":4255:4356   */\n  iszero\n  tag_103\n  jumpi\n    /* \"#utility.yul\":4344:4345   */\n  0x00\n    /* \"#utility.yul\":4335:4341   */\n  dup5\n    /* \"#utility.yul\":4330:4333   */\n  dup5\n    /* \"#utility.yul\":4326:4342   */\n  add\n    /* \"#utility.yul\":4319:4346   */\n  mstore\n    /* \"#utility.yul\":4255:4356   */\ntag_103:\n    /* \"#utility.yul\":4104:4362   */\n  pop\n    /* \"#utility.yul\":4055:4362   */\n  pop\n  pop\n  pop\n  jump\t// out\n    /* \"#utility.yul\":4368:4688   */\ntag_22:\n    /* \"#utility.yul\":4412:4418   */\n  0x00\n    /* \"#utility.yul\":4449:4450   */\n  0x02\n    /* \"#utility.yul\":4443:4447   */\n  dup3\n    /* \"#utility.yul\":4439:4451   */\n  div\n    /* \"#utility.yul\":4429:4451   */\n  swap1\n  pop\n    /* \"#utility.yul\":4496:4497   */\n  0x01\n    /* \"#utility.yul\":4490:4494   */\n  dup3\n    /* \"#utility.yul\":4486:4498   */\n  and\n    /* \"#utility.yul\":4517:4535   */\n  dup1\n    /* \"#utility.yul\":4507:4588   */\n  tag_105\n  jumpi\n    /* \"#utility.yul\":4573:4577   */\n  0x7f\n    /* \"#utility.yul\":4565:4571   */\n  dup3\n    /* \"#utility.yul\":4561:4578   */\n  and\n    /* \"#utility.yul\":4551:4578   */\n  swap2\n  pop\n    /* \"#utility.yul\":4507:4588   */\ntag_105:\n    /* \"#utility.yul\":4635:4637   */\n  0x20\n    /* \"#utility.yul\":4627:4633   */\n  dup3\n    /* \"#utility.yul\":4624:4638   */\n  lt\n    /* \"#utility.yul\":4604:4622   */\n  dup2\n    /* \"#utility.yul\":4601:4639   */\n  eq\n    /* \"#utility.yul\":4598:4682   */\n  iszero\n  tag_106\n  jumpi\n    /* \"#utility.yul\":4654:4672   */\n  tag_107\n  tag_108\n  jump\t// in\ntag_107:\n    /* \"#utility.yul\":4598:4682   */\ntag_106:\n    /* \"#utility.yul\":4419:4688   */\n  pop\n    /* \"#utility.yul\":4368:4688   */\n  swap2\n  swap1\n  pop\n  jump\t// out\n    /* \"#utility.yul\":4694:4975   */\ntag_86:\n    /* \"#utility.yul\":4777:4804   */\n  tag_110\n    /* \"#utility.yul\":4799:4803   */\n  dup3\n    /* \"#utility.yul\":4777:4804   */\n  tag_96\n  jump\t// in\ntag_110:\n    /* \"#utility.yul\":4769:4775   */\n  dup2\n    /* \"#utility.yul\":4765:4805   */\n  add\n    /* \"#utility.yul\":4907:4913   */\n  dup2\n    /* \"#utility.yul\":4895:4905   */\n  dup2\n    /* \"#utility.yul\":4892:4914   */\n  lt\n    /* \"#utility.yul\":4871:4889   */\n  0xffffffffffffffff\n    /* \"#utility.yul\":4859:4869   */\n  dup3\n    /* \"#utility.yul\":4856:4890   */\n  gt\n    /* \"#utility.yul\":4853:4915   */\n  or\n    /* \"#utility.yul\":4850:4938   */\n  iszero\n  tag_111\n  jumpi\n    /* \"#utility.yul\":4918:4936   */\n  tag_112\n  tag_91\n  jump\t// in\ntag_112:\n    /* \"#utility.yul\":4850:4938   */\ntag_111:\n    /* \"#utility.yul\":4958:4968   */\n  dup1\n    /* \"#utility.yul\":4954:4956   */\n  0x40\n    /* \"#utility.yul\":4947:4969   */\n  mstore\n    /* \"#utility.yul\":4737:4975   */\n  pop\n    /* \"#utility.yul\":4694:4975   */\n  pop\n  pop\n  jump\t// out\n    /* \"#utility.yul\":4981:5214   */\ntag_20:\n    /* \"#utility.yul\":5020:5023   */\n  0x00\n    /* \"#utility.yul\":5043:5067   */\n  tag_114\n    /* \"#utility.yul\":5061:5066   */\n  dup3\n    /* \"#utility.yul\":5043:5067   */\n  tag_97\n  jump\t// in\ntag_114:\n    /* \"#utility.yul\":5034:5067   */\n  swap2\n  pop\n    /* \"#utility.yul\":5089:5155   */\n  0xffffffffffffffffffffffffffffffffffffffffffffffffffffffffffffffff\n    /* \"#utility.yul\":5082:5087   */\n  dup3\n    /* \"#utility.yul\":5079:5156   */\n  eq\n    /* \"#utility.yul\":5076:5179   */\n  iszero\n  tag_115\n  jumpi\n    /* \"#utility.yul\":5159:5177   */\n  tag_116\n  tag_117\n  jump\t// in\ntag_116:\n    /* \"#utility.yul\":5076:5179   */\ntag_115:\n    /* \"#utility.yul\":5206:5207   */\n  0x01\n    /* \"#utility.yul\":5199:5204   */\n  dup3\n    /* \"#utility.yul\":5195:5208   */\n  add\n    /* \"#utility.yul\":5188:5208   */\n  swap1\n  pop\n    /* \"#utility.yul\":4981:5214   */\n  swap2\n  swap1\n  pop\n  jump\t// out\n    /* \"#utility.yul\":5220:5400   */\ntag_117:\n    /* \"#utility.yul\":5268:5345   */\n  0x4e487b7100000000000000000000000000000000000000000000000000000000\n    /* \"#utility.yul\":5265:5266   */\n  0x00\n    /* \"#utility.yul\":5258:5346   */\n  mstore\n    /* \"#utility.yul\":5365:5369   */\n  0x11\n    /* \"#utility.yul\":5362:5363   */\n  0x04\n    /* \"#utility.yul\":5355:5370   */\n  mstore\n    /* \"#utility.yul\":5389:5393   */\n  0x24\n    /* \"#utility.yul\":5386:5387   */\n  0x00\n    /* \"#utility.yul\":5379:5394   */\n  revert\n    /* \"#utility.yul\":5406:5586   */\ntag_108:\n    /* \"#utility.yul\":5454:5531   */\n  0x4e487b7100000000000000000000000000000000000000000000000000000000\n    /* \"#utility.yul\":5451:5452   */\n  0x00\n    /* \"#utility.yul\":5444:5532   */\n  mstore\n    /* \"#utility.yul\":5551:5555   */\n  0x22\n    /* \"#utility.yul\":5548:5549   */\n  0x04\n    /* \"#utility.yul\":5541:5556   */\n  mstore\n    /* \"#utility.yul\":5575:5579   */\n  0x24\n    /* \"#utility.yul\":5572:5573   */\n  0x00\n    /* \"#utility.yul\":5565:5580   */\n  revert\n    /* \"#utility.yul\":5592:5772   */\ntag_15:\n    /* \"#utility.yul\":5640:5717   */\n  0x4e487b7100000000000000000000000000000000000000000000000000000000\n    /* \"#utility.yul\":5637:5638   */\n  0x00\n    /* \"#utility.yul\":5630:5718   */\n  mstore\n    /* \"#utility.yul\":5737:5741   */\n  0x32\n    /* \"#utility.yul\":5734:5735   */\n  0x04\n    /* \"#utility.yul\":5727:5742   */\n  mstore\n    /* \"#utility.yul\":5761:5765   */\n  0x24\n    /* \"#utility.yul\":5758:5759   */\n  0x00\n    /* \"#utility.yul\":5751:5766   */\n  revert\n    /* \"#utility.yul\":5778:5958   */\ntag_91:\n    /* \"#utility.yul\":5826:5903   */\n  0x4e487b7100000000000000000000000000000000000000000000000000000000\n    /* \"#utility.yul\":5823:5824   */\n  0x00\n    /* \"#utility.yul\":5816:5904   */\n  mstore\n    /* \"#utility.yul\":5923:5927   */\n  0x41\n    /* \"#utility.yul\":5920:5921   */\n  0x04\n    /* \"#utility.yul\":5913:5928   */\n  mstore\n    /* \"#utility.yul\":5947:5951   */\n  0x24\n    /* \"#utility.yul\":5944:5945   */\n  0x00\n    /* \"#utility.yul\":5937:5952   */\n  revert\n    /* \"#utility.yul\":5964:6081   */\ntag_47:\n    /* \"#utility.yul\":6073:6074   */\n  0x00\n    /* \"#utility.yul\":6070:6071   */\n  dup1\n    /* \"#utility.yul\":6063:6075   */\n  revert\n    /* \"#utility.yul\":6087:6204   */\ntag_41:\n    /* \"#utility.yul\":6196:6197   */\n  0x00\n    /* \"#utility.yul\":6193:6194   */\n  dup1\n    /* \"#utility.yul\":6186:6198   */\n  revert\n    /* \"#utility.yul\":6210:6327   */\ntag_57:\n    /* \"#utility.yul\":6319:6320   */\n  0x00\n    /* \"#utility.yul\":6316:6317   */\n  dup1\n    /* \"#utility.yul\":6309:6321   */\n  revert\n    /* \"#utility.yul\":6333:6450   */\ntag_79:\n    /* \"#utility.yul\":6442:6443   */\n  0x00\n    /* \"#utility.yul\":6439:6440   */\n  dup1\n    /* \"#utility.yul\":6432:6444   */\n  revert\n    /* \"#utility.yul\":6456:6573   */\ntag_76:\n    /* \"#utility.yul\":6565:6566   */\n  0x00\n    /* \"#utility.yul\":6562:6563   */\n  dup1\n    /* \"#utility.yul\":6555:6567   */\n  revert\n    /* \"#utility.yul\":6579:6681   */\ntag_96:\n    /* \"#utility.yul\":6620:6626   */\n  0x00\n    /* \"#utility.yul\":6671:6673   */\n  0x1f\n    /* \"#utility.yul\":6667:6674   */\n  not\n    /* \"#utility.yul\":6662:6664   */\n  0x1f\n    /* \"#utility.yul\":6655:6660   */\n  dup4\n    /* \"#utility.yul\":6651:6665   */\n  add\n    /* \"#utility.yul\":6647:6675   */\n  and\n    /* \"#utility.yul\":6637:6675   */\n  swap1\n  pop\n    /* \"#utility.yul\":6579:6681   */\n  swap2\n  swap1\n  pop\n  jump\t// out\n    /* \"#utility.yul\":6687:6809   */\ntag_72:\n    /* \"#utility.yul\":6760:6784   */\n  tag_129\n    /* \"#utility.yul\":6778:6783   */\n  dup2\n    /* \"#utility.yul\":6760:6784   */\n  tag_97\n  jump\t// in\ntag_129:\n    /* \"#utility.yul\":6753:6758   */\n  dup2\n    /* \"#utility.yul\":6750:6785   */\n  eq\n    /* \"#utility.yul\":6740:6803   */\n  tag_130\n  jumpi\n    /* \"#utility.yul\":6799:6800   */\n  0x00\n    /* \"#utility.yul\":6796:6797   */\n  dup1\n    /* \"#utility.yul\":6789:6801   */\n  revert\n    /* \"#utility.yul\":6740:6803   */\ntag_130:\n    /* \"#utility.yul\":6687:6809   */\n  pop\n  jump\t// out\n    /* \"contracts/Ballot/Ballot.sol\":70:7987  contract MyBallot {\r... */\ntag_8:\n  dataSize(sub_0)\n  dup1\n  dataOffset(sub_0)\n  0x00\n  codecopy\n  0x00\n  return\nstop\n\nsub_0: assembly {\n        /* \"contracts/Ballot/Ballot.sol\":70:7987  contract MyBallot {\r... */\n      mstore(0x40, 0x80)\n      callvalue\n      dup1\n      iszero\n      tag_1\n      jumpi\n      0x00\n      dup1\n      revert\n    tag_1:\n      pop\n      jumpi(tag_2, lt(calldatasize, 0x04))\n      shr(0xe0, calldataload(0x00))\n      dup1\n      0x011d1023\n      eq\n      tag_3\n      jumpi\n      dup1\n      0x53f06ecd\n      eq\n      tag_4\n      jumpi\n      dup1\n      0x68957b20\n      eq\n      tag_5\n      jumpi\n      dup1\n      0xfc36e15b\n      eq\n      tag_6\n      jumpi\n    tag_2:\n      0x00\n      dup1\n      revert\n        /* \"contracts/Ballot/Ballot.sol\":6570:6977  function getCandidatesListName() public view returns (string[] memory) {\r... */\n    tag_3:\n      tag_7\n      tag_8\n      jump\t// in\n    tag_7:\n      mload(0x40)\n      tag_9\n      swap2\n      swap1\n      tag_10\n      jump\t// in\n    tag_9:\n      mload(0x40)\n      dup1\n      swap2\n      sub\n      swap1\n      return\n        /* \"contracts/Ballot/Ballot.sol\":4206:4567  function getWinnerBallot() public view returns (string memory winnerName, uint amountWinningVotes, address contractAddress) {\r... */\n    tag_4:\n      tag_11\n      tag_12\n      jump\t// in\n    tag_11:\n      mload(0x40)\n      tag_13\n      swap4\n      swap3\n      swap2\n      swap1\n      tag_14\n      jump\t// in\n    tag_13:\n      mload(0x40)\n      dup1\n      swap2\n      sub\n      swap1\n      return\n        /* \"contracts/Ballot/Ballot.sol\":3293:3519  function giveRightToVote(address voterAddress, string memory _nameVoter) public giveRightToVoteModifier(voterAddress) {\r... */\n    tag_5:\n      tag_15\n      0x04\n      dup1\n      calldatasize\n      sub\n      dup2\n      add\n      swap1\n      tag_16\n      swap2\n      swap1\n      tag_17\n      jump\t// in\n    tag_16:\n      tag_18\n      jump\t// in\n    tag_15:\n      stop\n        /* \"contracts/Ballot/Ballot.sol\":3527:4198  function vote(string memory _nameProject) public voteModifierBefore(msg.sender) {\r... */\n    tag_6:\n      tag_19\n      0x04\n      dup1\n      calldatasize\n      sub\n      dup2\n      add\n      swap1\n      tag_20\n      swap2\n      swap1\n      tag_21\n      jump\t// in\n    tag_20:\n      tag_22\n      jump\t// in\n    tag_19:\n      stop\n        /* \"contracts/Ballot/Ballot.sol\":6570:6977  function getCandidatesListName() public view returns (string[] memory) {\r... */\n    tag_8:\n        /* \"contracts/Ballot/Ballot.sol\":6624:6639  string[] memory */\n      0x60\n        /* \"contracts/Ballot/Ballot.sol\":6652:6673  uint candidatesLength */\n      0x00\n        /* \"contracts/Ballot/Ballot.sol\":6676:6686  candidates */\n      0x02\n        /* \"contracts/Ballot/Ballot.sol\":6676:6693  candidates.length */\n      dup1\n      sload\n      swap1\n      pop\n        /* \"contracts/Ballot/Ballot.sol\":6652:6693  uint candidatesLength = candidates.length */\n      swap1\n      pop\n        /* \"contracts/Ballot/Ballot.sol\":6704:6738  string[] memory candidatesListName */\n      0x00\n        /* \"contracts/Ballot/Ballot.sol\":6754:6770  candidatesLength */\n      dup2\n        /* \"contracts/Ballot/Ballot.sol\":6741:6771  new string[](candidatesLength) */\n      0xffffffffffffffff\n      dup2\n      gt\n      iszero\n      tag_24\n      jumpi\n      tag_25\n      tag_26\n      jump\t// in\n    tag_25:\n    tag_24:\n      mload(0x40)\n      swap1\n      dup1\n      dup3\n      mstore\n      dup1\n      0x20\n      mul\n      0x20\n      add\n      dup3\n      add\n      0x40\n      mstore\n      dup1\n      iszero\n      tag_27\n      jumpi\n      dup2\n      0x20\n      add\n    tag_28:\n      0x60\n      dup2\n      mstore\n      0x20\n      add\n      swap1\n      0x01\n      swap1\n      sub\n      swap1\n      dup2\n      tag_28\n      jumpi\n      swap1\n      pop\n    tag_27:\n      pop\n        /* \"contracts/Ballot/Ballot.sol\":6704:6771  string[] memory candidatesListName = new string[](candidatesLength) */\n      swap1\n      pop\n        /* \"contracts/Ballot/Ballot.sol\":6797:6807  uint index */\n      0x00\n        /* \"contracts/Ballot/Ballot.sol\":6792:6932  for (uint index = 0; index < candidatesLength; index++) {\r... */\n    tag_29:\n        /* \"contracts/Ballot/Ballot.sol\":6821:6837  candidatesLength */\n      dup3\n        /* \"contracts/Ballot/Ballot.sol\":6813:6818  index */\n      dup2\n        /* \"contracts/Ballot/Ballot.sol\":6813:6837  index < candidatesLength */\n      lt\n        /* \"contracts/Ballot/Ballot.sol\":6792:6932  for (uint index = 0; index < candidatesLength; index++) {\r... */\n      iszero\n      tag_30\n      jumpi\n        /* \"contracts/Ballot/Ballot.sol\":6891:6901  candidates */\n      0x02\n        /* \"contracts/Ballot/Ballot.sol\":6902:6907  index */\n      dup2\n        /* \"contracts/Ballot/Ballot.sol\":6891:6908  candidates[index] */\n      dup2\n      sload\n      dup2\n      lt\n      tag_32\n      jumpi\n      tag_33\n      tag_34\n      jump\t// in\n    tag_33:\n    tag_32:\n      swap1\n      0x00\n      mstore\n      keccak256(0x00, 0x20)\n      swap1\n      0x02\n      mul\n      add\n        /* \"contracts/Ballot/Ballot.sol\":6891:6920  candidates[index].nameProject */\n      0x00\n      add\n        /* \"contracts/Ballot/Ballot.sol\":6863:6920  candidatesListName[index] = candidates[index].nameProject */\n      dup1\n      sload\n      tag_36\n      swap1\n      tag_37\n      jump\t// in\n    tag_36:\n      dup1\n      0x1f\n      add\n      0x20\n      dup1\n      swap2\n      div\n      mul\n      0x20\n      add\n      mload(0x40)\n      swap1\n      dup2\n      add\n      0x40\n      mstore\n      dup1\n      swap3\n      swap2\n      swap1\n      dup2\n      dup2\n      mstore\n      0x20\n      add\n      dup3\n      dup1\n      sload\n      tag_38\n      swap1\n      tag_37\n      jump\t// in\n    tag_38:\n      dup1\n      iszero\n      tag_39\n      jumpi\n      dup1\n      0x1f\n      lt\n      tag_40\n      jumpi\n      0x0100\n      dup1\n      dup4\n      sload\n      div\n      mul\n      dup4\n      mstore\n      swap2\n      0x20\n      add\n      swap2\n      jump(tag_39)\n    tag_40:\n      dup3\n      add\n      swap2\n      swap1\n      0x00\n      mstore\n      keccak256(0x00, 0x20)\n      swap1\n    tag_41:\n      dup2\n      sload\n      dup2\n      mstore\n      swap1\n      0x01\n      add\n      swap1\n      0x20\n      add\n      dup1\n      dup4\n      gt\n      tag_41\n      jumpi\n      dup3\n      swap1\n      sub\n      0x1f\n      and\n      dup3\n      add\n      swap2\n    tag_39:\n      pop\n      pop\n      pop\n      pop\n      pop\n        /* \"contracts/Ballot/Ballot.sol\":6863:6881  candidatesListName */\n      dup3\n        /* \"contracts/Ballot/Ballot.sol\":6882:6887  index */\n      dup3\n        /* \"contracts/Ballot/Ballot.sol\":6863:6888  candidatesListName[index] */\n      dup2\n      mload\n      dup2\n      lt\n      tag_42\n      jumpi\n      tag_43\n      tag_34\n      jump\t// in\n    tag_43:\n    tag_42:\n      0x20\n      mul\n      0x20\n      add\n      add\n        /* \"contracts/Ballot/Ballot.sol\":6863:6920  candidatesListName[index] = candidates[index].nameProject */\n      dup2\n      swap1\n      mstore\n      pop\n        /* \"contracts/Ballot/Ballot.sol\":6839:6846  index++ */\n      dup1\n      dup1\n      tag_44\n      swap1\n      tag_45\n      jump\t// in\n    tag_44:\n      swap2\n      pop\n      pop\n        /* \"contracts/Ballot/Ballot.sol\":6792:6932  for (uint index = 0; index < candidatesLength; index++) {\r... */\n      jump(tag_29)\n    tag_30:\n      pop\n        /* \"contracts/Ballot/Ballot.sol\":6951:6969  candidatesListName */\n      dup1\n        /* \"contracts/Ballot/Ballot.sol\":6944:6969  return candidatesListName */\n      swap3\n      pop\n      pop\n      pop\n        /* \"contracts/Ballot/Ballot.sol\":6570:6977  function getCandidatesListName() public view returns (string[] memory) {\r... */\n      swap1\n      jump\t// out\n        /* \"contracts/Ballot/Ballot.sol\":4206:4567  function getWinnerBallot() public view returns (string memory winnerName, uint amountWinningVotes, address contractAddress) {\r... */\n    tag_12:\n        /* \"contracts/Ballot/Ballot.sol\":4254:4278  string memory winnerName */\n      0x60\n        /* \"contracts/Ballot/Ballot.sol\":4280:4303  uint amountWinningVotes */\n      0x00\n        /* \"contracts/Ballot/Ballot.sol\":4305:4328  address contractAddress */\n      dup1\n        /* \"contracts/Ballot/Ballot.sol\":4342:4375  Candidate memory winningCandidate */\n      0x00\n        /* \"contracts/Ballot/Ballot.sol\":4379:4399  getWinnerCandidate() */\n      tag_47\n        /* \"contracts/Ballot/Ballot.sol\":4379:4397  getWinnerCandidate */\n      tag_48\n        /* \"contracts/Ballot/Ballot.sol\":4379:4399  getWinnerCandidate() */\n      jump\t// in\n    tag_47:\n        /* \"contracts/Ballot/Ballot.sol\":4341:4399  (Candidate memory winningCandidate) = getWinnerCandidate() */\n      swap1\n      pop\n        /* \"contracts/Ballot/Ballot.sol\":4423:4439  winningCandidate */\n      dup1\n        /* \"contracts/Ballot/Ballot.sol\":4423:4451  winningCandidate.nameProject */\n      0x00\n      add\n      mload\n        /* \"contracts/Ballot/Ballot.sol\":4410:4451  winnerName = winningCandidate.nameProject */\n      swap4\n      pop\n        /* \"contracts/Ballot/Ballot.sol\":4483:4499  winningCandidate */\n      dup1\n        /* \"contracts/Ballot/Ballot.sol\":4483:4510  winningCandidate.votesCount */\n      0x20\n      add\n      mload\n        /* \"contracts/Ballot/Ballot.sol\":4462:4510  amountWinningVotes = winningCandidate.votesCount */\n      swap3\n      pop\n        /* \"contracts/Ballot/Ballot.sol\":4539:4559  getContractAddress() */\n      tag_49\n        /* \"contracts/Ballot/Ballot.sol\":4539:4557  getContractAddress */\n      tag_50\n        /* \"contracts/Ballot/Ballot.sol\":4539:4559  getContractAddress() */\n      jump\t// in\n    tag_49:\n        /* \"contracts/Ballot/Ballot.sol\":4521:4559  contractAddress = getContractAddress() */\n      swap2\n      pop\n        /* \"contracts/Ballot/Ballot.sol\":4330:4567  {\r... */\n      pop\n        /* \"contracts/Ballot/Ballot.sol\":4206:4567  function getWinnerBallot() public view returns (string memory winnerName, uint amountWinningVotes, address contractAddress) {\r... */\n      swap1\n      swap2\n      swap3\n      jump\t// out\n        /* \"contracts/Ballot/Ballot.sol\":3293:3519  function giveRightToVote(address voterAddress, string memory _nameVoter) public giveRightToVoteModifier(voterAddress) {\r... */\n    tag_18:\n        /* \"contracts/Ballot/Ballot.sol\":3397:3409  voterAddress */\n      dup2\n        /* \"contracts/Ballot/Ballot.sol\":935:971  getTotalVotesCounterReachedRequire() */\n      tag_52\n        /* \"contracts/Ballot/Ballot.sol\":935:969  getTotalVotesCounterReachedRequire */\n      tag_53\n        /* \"contracts/Ballot/Ballot.sol\":935:971  getTotalVotesCounterReachedRequire() */\n      jump\t// in\n    tag_52:\n        /* \"contracts/Ballot/Ballot.sol\":982:1010  getYouContractOwnerRequire() */\n      tag_54\n        /* \"contracts/Ballot/Ballot.sol\":982:1008  getYouContractOwnerRequire */\n      tag_55\n        /* \"contracts/Ballot/Ballot.sol\":982:1010  getYouContractOwnerRequire() */\n      jump\t// in\n    tag_54:\n        /* \"contracts/Ballot/Ballot.sol\":1021:1056  getRightToVoteRequire(voterAddress) */\n      tag_56\n        /* \"contracts/Ballot/Ballot.sol\":1043:1055  voterAddress */\n      dup2\n        /* \"contracts/Ballot/Ballot.sol\":1021:1042  getRightToVoteRequire */\n      tag_57\n        /* \"contracts/Ballot/Ballot.sol\":1021:1056  getRightToVoteRequire(voterAddress) */\n      jump\t// in\n    tag_56:\n        /* \"contracts/Ballot/Ballot.sol\":1067:1101  getVoterVotedRequire(voterAddress) */\n      tag_58\n        /* \"contracts/Ballot/Ballot.sol\":1088:1100  voterAddress */\n      dup2\n        /* \"contracts/Ballot/Ballot.sol\":1067:1087  getVoterVotedRequire */\n      tag_59\n        /* \"contracts/Ballot/Ballot.sol\":1067:1101  getVoterVotedRequire(voterAddress) */\n      jump\t// in\n    tag_58:\n        /* \"contracts/Ballot/Ballot.sol\":3455:3465  _nameVoter */\n      dup2\n        /* \"contracts/Ballot/Ballot.sol\":3422:3428  voters */\n      0x01\n        /* \"contracts/Ballot/Ballot.sol\":3422:3442  voters[voterAddress] */\n      0x00\n        /* \"contracts/Ballot/Ballot.sol\":3429:3441  voterAddress */\n      dup6\n        /* \"contracts/Ballot/Ballot.sol\":3422:3442  voters[voterAddress] */\n      0xffffffffffffffffffffffffffffffffffffffff\n      and\n      0xffffffffffffffffffffffffffffffffffffffff\n      and\n      dup2\n      mstore\n      0x20\n      add\n      swap1\n      dup2\n      mstore\n      0x20\n      add\n      0x00\n      keccak256\n        /* \"contracts/Ballot/Ballot.sol\":3422:3452  voters[voterAddress].nameVoter */\n      0x00\n      add\n        /* \"contracts/Ballot/Ballot.sol\":3422:3465  voters[voterAddress].nameVoter = _nameVoter */\n      swap1\n      dup1\n      mload\n      swap1\n      0x20\n      add\n      swap1\n      tag_61\n      swap3\n      swap2\n      swap1\n      tag_62\n      jump\t// in\n    tag_61:\n      pop\n        /* \"contracts/Ballot/Ballot.sol\":3507:3511  true */\n      0x01\n        /* \"contracts/Ballot/Ballot.sol\":3476:3482  voters */\n      dup1\n        /* \"contracts/Ballot/Ballot.sol\":3476:3496  voters[voterAddress] */\n      0x00\n        /* \"contracts/Ballot/Ballot.sol\":3483:3495  voterAddress */\n      dup6\n        /* \"contracts/Ballot/Ballot.sol\":3476:3496  voters[voterAddress] */\n      0xffffffffffffffffffffffffffffffffffffffff\n      and\n      0xffffffffffffffffffffffffffffffffffffffff\n      and\n      dup2\n      mstore\n      0x20\n      add\n      swap1\n      dup2\n      mstore\n      0x20\n      add\n      0x00\n      keccak256\n        /* \"contracts/Ballot/Ballot.sol\":3476:3504  voters[voterAddress].canVote */\n      0x01\n      add\n      0x00\n        /* \"contracts/Ballot/Ballot.sol\":3476:3511  voters[voterAddress].canVote = true */\n      0x0100\n      exp\n      dup2\n      sload\n      dup2\n      0xff\n      mul\n      not\n      and\n      swap1\n      dup4\n      iszero\n      iszero\n      mul\n      or\n      swap1\n      sstore\n      pop\n        /* \"contracts/Ballot/Ballot.sol\":3293:3519  function giveRightToVote(address voterAddress, string memory _nameVoter) public giveRightToVoteModifier(voterAddress) {\r... */\n      pop\n      pop\n      pop\n      jump\t// out\n        /* \"contracts/Ballot/Ballot.sol\":3527:4198  function vote(string memory _nameProject) public voteModifierBefore(msg.sender) {\r... */\n    tag_22:\n        /* \"contracts/Ballot/Ballot.sol\":3595:3605  msg.sender */\n      caller\n        /* \"contracts/Ballot/Ballot.sol\":1190:1226  getTotalVotesCounterReachedRequire() */\n      tag_64\n        /* \"contracts/Ballot/Ballot.sol\":1190:1224  getTotalVotesCounterReachedRequire */\n      tag_53\n        /* \"contracts/Ballot/Ballot.sol\":1190:1226  getTotalVotesCounterReachedRequire() */\n      jump\t// in\n    tag_64:\n        /* \"contracts/Ballot/Ballot.sol\":1237:1272  getRightToVoteRequire(voterAddress) */\n      tag_65\n        /* \"contracts/Ballot/Ballot.sol\":1259:1271  voterAddress */\n      dup2\n        /* \"contracts/Ballot/Ballot.sol\":1237:1258  getRightToVoteRequire */\n      tag_57\n        /* \"contracts/Ballot/Ballot.sol\":1237:1272  getRightToVoteRequire(voterAddress) */\n      jump\t// in\n    tag_65:\n        /* \"contracts/Ballot/Ballot.sol\":1283:1317  getVoterVotedRequire(voterAddress) */\n      tag_66\n        /* \"contracts/Ballot/Ballot.sol\":1304:1316  voterAddress */\n      dup2\n        /* \"contracts/Ballot/Ballot.sol\":1283:1303  getVoterVotedRequire */\n      tag_59\n        /* \"contracts/Ballot/Ballot.sol\":1283:1317  getVoterVotedRequire(voterAddress) */\n      jump\t// in\n    tag_66:\n        /* \"contracts/Ballot/Ballot.sol\":3618:3638  Voter storage sender */\n      0x00\n        /* \"contracts/Ballot/Ballot.sol\":3641:3647  voters */\n      0x01\n        /* \"contracts/Ballot/Ballot.sol\":3641:3659  voters[msg.sender] */\n      0x00\n        /* \"contracts/Ballot/Ballot.sol\":3648:3658  msg.sender */\n      caller\n        /* \"contracts/Ballot/Ballot.sol\":3641:3659  voters[msg.sender] */\n      0xffffffffffffffffffffffffffffffffffffffff\n      and\n      0xffffffffffffffffffffffffffffffffffffffff\n      and\n      dup2\n      mstore\n      0x20\n      add\n      swap1\n      dup2\n      mstore\n      0x20\n      add\n      0x00\n      keccak256\n        /* \"contracts/Ballot/Ballot.sol\":3618:3659  Voter storage sender = voters[msg.sender] */\n      swap1\n      pop\n        /* \"contracts/Ballot/Ballot.sol\":3761:3782  bool isCandidateExist */\n      0x00\n        /* \"contracts/Ballot/Ballot.sol\":3808:3818  uint index */\n      dup1\n        /* \"contracts/Ballot/Ballot.sol\":3821:3822  0 */\n      0x00\n        /* \"contracts/Ballot/Ballot.sol\":3808:3822  uint index = 0 */\n      swap1\n      pop\n        /* \"contracts/Ballot/Ballot.sol\":3803:4136  for (uint index = 0; index < candidates.length; index++) {\r... */\n    tag_68:\n        /* \"contracts/Ballot/Ballot.sol\":3832:3842  candidates */\n      0x02\n        /* \"contracts/Ballot/Ballot.sol\":3832:3849  candidates.length */\n      dup1\n      sload\n      swap1\n      pop\n        /* \"contracts/Ballot/Ballot.sol\":3824:3829  index */\n      dup2\n        /* \"contracts/Ballot/Ballot.sol\":3824:3849  index < candidates.length */\n      lt\n        /* \"contracts/Ballot/Ballot.sol\":3803:4136  for (uint index = 0; index < candidates.length; index++) {\r... */\n      iszero\n      tag_69\n      jumpi\n        /* \"contracts/Ballot/Ballot.sol\":3879:3937  stringEqualTo(candidates[index].nameProject, _nameProject) */\n      tag_71\n        /* \"contracts/Ballot/Ballot.sol\":3893:3903  candidates */\n      0x02\n        /* \"contracts/Ballot/Ballot.sol\":3904:3909  index */\n      dup3\n        /* \"contracts/Ballot/Ballot.sol\":3893:3910  candidates[index] */\n      dup2\n      sload\n      dup2\n      lt\n      tag_72\n      jumpi\n      tag_73\n      tag_34\n      jump\t// in\n    tag_73:\n    tag_72:\n      swap1\n      0x00\n      mstore\n      keccak256(0x00, 0x20)\n      swap1\n      0x02\n      mul\n      add\n        /* \"contracts/Ballot/Ballot.sol\":3893:3922  candidates[index].nameProject */\n      0x00\n      add\n        /* \"contracts/Ballot/Ballot.sol\":3879:3937  stringEqualTo(candidates[index].nameProject, _nameProject) */\n      dup1\n      sload\n      tag_75\n      swap1\n      tag_37\n      jump\t// in\n    tag_75:\n      dup1\n      0x1f\n      add\n      0x20\n      dup1\n      swap2\n      div\n      mul\n      0x20\n      add\n      mload(0x40)\n      swap1\n      dup2\n      add\n      0x40\n      mstore\n      dup1\n      swap3\n      swap2\n      swap1\n      dup2\n      dup2\n      mstore\n      0x20\n      add\n      dup3\n      dup1\n      sload\n      tag_76\n      swap1\n      tag_37\n      jump\t// in\n    tag_76:\n      dup1\n      iszero\n      tag_77\n      jumpi\n      dup1\n      0x1f\n      lt\n      tag_78\n      jumpi\n      0x0100\n      dup1\n      dup4\n      sload\n      div\n      mul\n      dup4\n      mstore\n      swap2\n      0x20\n      add\n      swap2\n      jump(tag_77)\n    tag_78:\n      dup3\n      add\n      swap2\n      swap1\n      0x00\n      mstore\n      keccak256(0x00, 0x20)\n      swap1\n    tag_79:\n      dup2\n      sload\n      dup2\n      mstore\n      swap1\n      0x01\n      add\n      swap1\n      0x20\n      add\n      dup1\n      dup4\n      gt\n      tag_79\n      jumpi\n      dup3\n      swap1\n      sub\n      0x1f\n      and\n      dup3\n      add\n      swap2\n    tag_77:\n      pop\n      pop\n      pop\n      pop\n      pop\n        /* \"contracts/Ballot/Ballot.sol\":3924:3936  _nameProject */\n      dup7\n        /* \"contracts/Ballot/Ballot.sol\":3879:3892  stringEqualTo */\n      tag_80\n        /* \"contracts/Ballot/Ballot.sol\":3879:3937  stringEqualTo(candidates[index].nameProject, _nameProject) */\n      jump\t// in\n    tag_71:\n        /* \"contracts/Ballot/Ballot.sol\":3875:4125  if (stringEqualTo(candidates[index].nameProject, _nameProject)) {\r... */\n      iszero\n      tag_81\n      jumpi\n        /* \"contracts/Ballot/Ballot.sol\":3958:3968  candidates */\n      0x02\n        /* \"contracts/Ballot/Ballot.sol\":3969:3974  index */\n      dup2\n        /* \"contracts/Ballot/Ballot.sol\":3958:3975  candidates[index] */\n      dup2\n      sload\n      dup2\n      lt\n      tag_82\n      jumpi\n      tag_83\n      tag_34\n      jump\t// in\n    tag_83:\n    tag_82:\n      swap1\n      0x00\n      mstore\n      keccak256(0x00, 0x20)\n      swap1\n      0x02\n      mul\n      add\n        /* \"contracts/Ballot/Ballot.sol\":3958:3986  candidates[index].votesCount */\n      0x01\n      add\n      0x00\n        /* \"contracts/Ballot/Ballot.sol\":3958:3988  candidates[index].votesCount++ */\n      dup2\n      sload\n      dup1\n      swap3\n      swap2\n      swap1\n      tag_85\n      swap1\n      tag_45\n      jump\t// in\n    tag_85:\n      swap2\n      swap1\n      pop\n      sstore\n      pop\n        /* \"contracts/Ballot/Ballot.sol\":4025:4029  true */\n      0x01\n        /* \"contracts/Ballot/Ballot.sol\":4007:4013  sender */\n      dup4\n        /* \"contracts/Ballot/Ballot.sol\":4007:4022  sender.hasVoted */\n      0x01\n      add\n      0x01\n        /* \"contracts/Ballot/Ballot.sol\":4007:4029  sender.hasVoted = true */\n      0x0100\n      exp\n      dup2\n      sload\n      dup2\n      0xff\n      mul\n      not\n      and\n      swap1\n      dup4\n      iszero\n      iszero\n      mul\n      or\n      swap1\n      sstore\n      pop\n        /* \"contracts/Ballot/Ballot.sol\":4048:4065  totalVotesCounter */\n      0x03\n      0x00\n        /* \"contracts/Ballot/Ballot.sol\":4048:4067  totalVotesCounter++ */\n      dup2\n      sload\n      dup1\n      swap3\n      swap2\n      swap1\n      tag_86\n      swap1\n      tag_45\n      jump\t// in\n    tag_86:\n      swap2\n      swap1\n      pop\n      sstore\n      pop\n        /* \"contracts/Ballot/Ballot.sol\":4105:4109  true */\n      0x01\n        /* \"contracts/Ballot/Ballot.sol\":4086:4109  isCandidateExist = true */\n      swap2\n      pop\n        /* \"contracts/Ballot/Ballot.sol\":3875:4125  if (stringEqualTo(candidates[index].nameProject, _nameProject)) {\r... */\n    tag_81:\n        /* \"contracts/Ballot/Ballot.sol\":3851:3858  index++ */\n      dup1\n      dup1\n      tag_87\n      swap1\n      tag_45\n      jump\t// in\n    tag_87:\n      swap2\n      pop\n      pop\n        /* \"contracts/Ballot/Ballot.sol\":3803:4136  for (uint index = 0; index < candidates.length; index++) {\r... */\n      jump(tag_68)\n    tag_69:\n      pop\n        /* \"contracts/Ballot/Ballot.sol\":4148:4190  getCandidateExistRequire(isCandidateExist) */\n      tag_88\n        /* \"contracts/Ballot/Ballot.sol\":4173:4189  isCandidateExist */\n      dup2\n        /* \"contracts/Ballot/Ballot.sol\":4148:4172  getCandidateExistRequire */\n      tag_89\n        /* \"contracts/Ballot/Ballot.sol\":4148:4190  getCandidateExistRequire(isCandidateExist) */\n      jump\t// in\n    tag_88:\n        /* \"contracts/Ballot/Ballot.sol\":3607:4198  {\r... */\n      pop\n      pop\n        /* \"contracts/Ballot/Ballot.sol\":3527:4198  function vote(string memory _nameProject) public voteModifierBefore(msg.sender) {\r... */\n      pop\n      pop\n      jump\t// out\n        /* \"contracts/Ballot/Ballot.sol\":4575:6562  function getWinnerCandidate() private view returns (Candidate memory winningCandidate) {        \r... */\n    tag_48:\n        /* \"contracts/Ballot/Ballot.sol\":4627:4660  Candidate memory winningCandidate */\n      tag_90\n      tag_91\n      jump\t// in\n    tag_90:\n        /* \"contracts/Ballot/Ballot.sol\":4681:4702  uint winningVoteCount */\n      0x00\n        /* \"contracts/Ballot/Ballot.sol\":4713:4739  uint winningCandidateIndex */\n      dup1\n        /* \"contracts/Ballot/Ballot.sol\":4752:4773  uint candidatesLength */\n      0x00\n        /* \"contracts/Ballot/Ballot.sol\":4776:4786  candidates */\n      0x02\n        /* \"contracts/Ballot/Ballot.sol\":4776:4793  candidates.length */\n      dup1\n      sload\n      swap1\n      pop\n        /* \"contracts/Ballot/Ballot.sol\":4752:4793  uint candidatesLength = candidates.length */\n      swap1\n      pop\n        /* \"contracts/Ballot/Ballot.sol\":4814:4847  string[] memory tieCandidatesList */\n      0x00\n        /* \"contracts/Ballot/Ballot.sol\":4863:4879  candidatesLength */\n      dup2\n        /* \"contracts/Ballot/Ballot.sol\":4850:4880  new string[](candidatesLength) */\n      0xffffffffffffffff\n      dup2\n      gt\n      iszero\n      tag_93\n      jumpi\n      tag_94\n      tag_26\n      jump\t// in\n    tag_94:\n    tag_93:\n      mload(0x40)\n      swap1\n      dup1\n      dup3\n      mstore\n      dup1\n      0x20\n      mul\n      0x20\n      add\n      dup3\n      add\n      0x40\n      mstore\n      dup1\n      iszero\n      tag_95\n      jumpi\n      dup2\n      0x20\n      add\n    tag_96:\n      0x60\n      dup2\n      mstore\n      0x20\n      add\n      swap1\n      0x01\n      swap1\n      sub\n      swap1\n      dup2\n      tag_96\n      jumpi\n      swap1\n      pop\n    tag_95:\n      pop\n        /* \"contracts/Ballot/Ballot.sol\":4814:4880  string[] memory tieCandidatesList = new string[](candidatesLength) */\n      swap1\n      pop\n        /* \"contracts/Ballot/Ballot.sol\":4891:4918  uint tieCandidatesListIndex */\n      0x00\n        /* \"contracts/Ballot/Ballot.sol\":4929:4939  bool isTie */\n      dup1\n        /* \"contracts/Ballot/Ballot.sol\":4942:4946  true */\n      0x01\n        /* \"contracts/Ballot/Ballot.sol\":4929:4946  bool isTie = true */\n      swap1\n      pop\n        /* \"contracts/Ballot/Ballot.sol\":4957:4993  string memory tieCandidatesListNames */\n      0x60\n        /* \"contracts/Ballot/Ballot.sol\":5011:5030  uint indexCandidate */\n      0x00\n        /* \"contracts/Ballot/Ballot.sol\":5006:5956  for (uint indexCandidate = 0; indexCandidate < candidatesLength; indexCandidate++) {\r... */\n    tag_97:\n        /* \"contracts/Ballot/Ballot.sol\":5053:5069  candidatesLength */\n      dup6\n        /* \"contracts/Ballot/Ballot.sol\":5036:5050  indexCandidate */\n      dup2\n        /* \"contracts/Ballot/Ballot.sol\":5036:5069  indexCandidate < candidatesLength */\n      lt\n        /* \"contracts/Ballot/Ballot.sol\":5006:5956  for (uint indexCandidate = 0; indexCandidate < candidatesLength; indexCandidate++) {\r... */\n      iszero\n      tag_98\n      jumpi\n        /* \"contracts/Ballot/Ballot.sol\":5148:5164  winningVoteCount */\n      dup8\n        /* \"contracts/Ballot/Ballot.sol\":5108:5118  candidates */\n      0x02\n        /* \"contracts/Ballot/Ballot.sol\":5119:5133  indexCandidate */\n      dup3\n        /* \"contracts/Ballot/Ballot.sol\":5108:5134  candidates[indexCandidate] */\n      dup2\n      sload\n      dup2\n      lt\n      tag_100\n      jumpi\n      tag_101\n      tag_34\n      jump\t// in\n    tag_101:\n    tag_100:\n      swap1\n      0x00\n      mstore\n      keccak256(0x00, 0x20)\n      swap1\n      0x02\n      mul\n      add\n        /* \"contracts/Ballot/Ballot.sol\":5108:5145  candidates[indexCandidate].votesCount */\n      0x01\n      add\n      sload\n        /* \"contracts/Ballot/Ballot.sol\":5108:5164  candidates[indexCandidate].votesCount > winningVoteCount */\n      gt\n        /* \"contracts/Ballot/Ballot.sol\":5104:5933  if (candidates[indexCandidate].votesCount > winningVoteCount) {\r... */\n      iszero\n      tag_103\n      jumpi\n        /* \"contracts/Ballot/Ballot.sol\":5204:5214  candidates */\n      0x02\n        /* \"contracts/Ballot/Ballot.sol\":5215:5229  indexCandidate */\n      dup2\n        /* \"contracts/Ballot/Ballot.sol\":5204:5230  candidates[indexCandidate] */\n      dup2\n      sload\n      dup2\n      lt\n      tag_104\n      jumpi\n      tag_105\n      tag_34\n      jump\t// in\n    tag_105:\n    tag_104:\n      swap1\n      0x00\n      mstore\n      keccak256(0x00, 0x20)\n      swap1\n      0x02\n      mul\n      add\n        /* \"contracts/Ballot/Ballot.sol\":5204:5241  candidates[indexCandidate].votesCount */\n      0x01\n      add\n      sload\n        /* \"contracts/Ballot/Ballot.sol\":5185:5241  winningVoteCount = candidates[indexCandidate].votesCount */\n      swap8\n      pop\n        /* \"contracts/Ballot/Ballot.sol\":5284:5298  indexCandidate */\n      dup1\n        /* \"contracts/Ballot/Ballot.sol\":5260:5298  winningCandidateIndex = indexCandidate */\n      swap7\n      pop\n        /* \"contracts/Ballot/Ballot.sol\":5321:5326  isTie */\n      dup3\n        /* \"contracts/Ballot/Ballot.sol\":5317:5658  if (isTie) {\r... */\n      iszero\n      tag_107\n      jumpi\n        /* \"contracts/Ballot/Ballot.sol\":5359:5364  false */\n      0x00\n        /* \"contracts/Ballot/Ballot.sol\":5351:5364  isTie = false */\n      swap3\n      pop\n        /* \"contracts/Ballot/Ballot.sol\":5412:5413  0 */\n      0x00\n        /* \"contracts/Ballot/Ballot.sol\":5387:5413  tieCandidatesListIndex = 0 */\n      swap4\n      pop\n        /* \"contracts/Ballot/Ballot.sol\":5469:5485  candidatesLength */\n      dup6\n        /* \"contracts/Ballot/Ballot.sol\":5456:5486  new string[](candidatesLength) */\n      0xffffffffffffffff\n      dup2\n      gt\n      iszero\n      tag_108\n      jumpi\n      tag_109\n      tag_26\n      jump\t// in\n    tag_109:\n    tag_108:\n      mload(0x40)\n      swap1\n      dup1\n      dup3\n      mstore\n      dup1\n      0x20\n      mul\n      0x20\n      add\n      dup3\n      add\n      0x40\n      mstore\n      dup1\n      iszero\n      tag_110\n      jumpi\n      dup2\n      0x20\n      add\n    tag_111:\n      0x60\n      dup2\n      mstore\n      0x20\n      add\n      swap1\n      0x01\n      swap1\n      sub\n      swap1\n      dup2\n      tag_111\n      jumpi\n      swap1\n      pop\n    tag_110:\n      pop\n        /* \"contracts/Ballot/Ballot.sol\":5436:5486  tieCandidatesList = new string[](candidatesLength) */\n      swap5\n      pop\n        /* \"contracts/Ballot/Ballot.sol\":5553:5563  candidates */\n      0x02\n        /* \"contracts/Ballot/Ballot.sol\":5564:5578  indexCandidate */\n      dup2\n        /* \"contracts/Ballot/Ballot.sol\":5553:5579  candidates[indexCandidate] */\n      dup2\n      sload\n      dup2\n      lt\n      tag_112\n      jumpi\n      tag_113\n      tag_34\n      jump\t// in\n    tag_113:\n    tag_112:\n      swap1\n      0x00\n      mstore\n      keccak256(0x00, 0x20)\n      swap1\n      0x02\n      mul\n      add\n        /* \"contracts/Ballot/Ballot.sol\":5553:5591  candidates[indexCandidate].nameProject */\n      0x00\n      add\n        /* \"contracts/Ballot/Ballot.sol\":5509:5591  tieCandidatesList[tieCandidatesListIndex] = candidates[indexCandidate].nameProject */\n      dup1\n      sload\n      tag_115\n      swap1\n      tag_37\n      jump\t// in\n    tag_115:\n      dup1\n      0x1f\n      add\n      0x20\n      dup1\n      swap2\n      div\n      mul\n      0x20\n      add\n      mload(0x40)\n      swap1\n      dup2\n      add\n      0x40\n      mstore\n      dup1\n      swap3\n      swap2\n      swap1\n      dup2\n      dup2\n      mstore\n      0x20\n      add\n      dup3\n      dup1\n      sload\n      tag_116\n      swap1\n      tag_37\n      jump\t// in\n    tag_116:\n      dup1\n      iszero\n      tag_117\n      jumpi\n      dup1\n      0x1f\n      lt\n      tag_118\n      jumpi\n      0x0100\n      dup1\n      dup4\n      sload\n      div\n      mul\n      dup4\n      mstore\n      swap2\n      0x20\n      add\n      swap2\n      jump(tag_117)\n    tag_118:\n      dup3\n      add\n      swap2\n      swap1\n      0x00\n      mstore\n      keccak256(0x00, 0x20)\n      swap1\n    tag_119:\n      dup2\n      sload\n      dup2\n      mstore\n      swap1\n      0x01\n      add\n      swap1\n      0x20\n      add\n      dup1\n      dup4\n      gt\n      tag_119\n      jumpi\n      dup3\n      swap1\n      sub\n      0x1f\n      and\n      dup3\n      add\n      swap2\n    tag_117:\n      pop\n      pop\n      pop\n      pop\n      pop\n        /* \"contracts/Ballot/Ballot.sol\":5509:5526  tieCandidatesList */\n      dup6\n        /* \"contracts/Ballot/Ballot.sol\":5527:5549  tieCandidatesListIndex */\n      dup6\n        /* \"contracts/Ballot/Ballot.sol\":5509:5550  tieCandidatesList[tieCandidatesListIndex] */\n      dup2\n      mload\n      dup2\n      lt\n      tag_120\n      jumpi\n      tag_121\n      tag_34\n      jump\t// in\n    tag_121:\n    tag_120:\n      0x20\n      mul\n      0x20\n      add\n      add\n        /* \"contracts/Ballot/Ballot.sol\":5509:5591  tieCandidatesList[tieCandidatesListIndex] = candidates[indexCandidate].nameProject */\n      dup2\n      swap1\n      mstore\n      pop\n        /* \"contracts/Ballot/Ballot.sol\":5614:5638  tieCandidatesListIndex++ */\n      dup4\n      dup1\n      tag_122\n      swap1\n      tag_45\n      jump\t// in\n    tag_122:\n      swap5\n      pop\n      pop\n        /* \"contracts/Ballot/Ballot.sol\":5317:5658  if (isTie) {\r... */\n    tag_107:\n        /* \"contracts/Ballot/Ballot.sol\":5104:5933  if (candidates[indexCandidate].votesCount > winningVoteCount) {\r... */\n      jump(tag_123)\n    tag_103:\n        /* \"contracts/Ballot/Ballot.sol\":5724:5740  winningVoteCount */\n      dup8\n        /* \"contracts/Ballot/Ballot.sol\":5683:5693  candidates */\n      0x02\n        /* \"contracts/Ballot/Ballot.sol\":5694:5708  indexCandidate */\n      dup3\n        /* \"contracts/Ballot/Ballot.sol\":5683:5709  candidates[indexCandidate] */\n      dup2\n      sload\n      dup2\n      lt\n      tag_124\n      jumpi\n      tag_125\n      tag_34\n      jump\t// in\n    tag_125:\n    tag_124:\n      swap1\n      0x00\n      mstore\n      keccak256(0x00, 0x20)\n      swap1\n      0x02\n      mul\n      add\n        /* \"contracts/Ballot/Ballot.sol\":5683:5720  candidates[indexCandidate].votesCount */\n      0x01\n      add\n      sload\n        /* \"contracts/Ballot/Ballot.sol\":5683:5740  candidates[indexCandidate].votesCount == winningVoteCount */\n      eq\n        /* \"contracts/Ballot/Ballot.sol\":5679:5933  if (candidates[indexCandidate].votesCount == winningVoteCount) {\r... */\n      iszero\n      tag_127\n      jumpi\n        /* \"contracts/Ballot/Ballot.sol\":5769:5773  true */\n      0x01\n        /* \"contracts/Ballot/Ballot.sol\":5761:5773  isTie = true */\n      swap3\n      pop\n        /* \"contracts/Ballot/Ballot.sol\":5836:5846  candidates */\n      0x02\n        /* \"contracts/Ballot/Ballot.sol\":5847:5861  indexCandidate */\n      dup2\n        /* \"contracts/Ballot/Ballot.sol\":5836:5862  candidates[indexCandidate] */\n      dup2\n      sload\n      dup2\n      lt\n      tag_128\n      jumpi\n      tag_129\n      tag_34\n      jump\t// in\n    tag_129:\n    tag_128:\n      swap1\n      0x00\n      mstore\n      keccak256(0x00, 0x20)\n      swap1\n      0x02\n      mul\n      add\n        /* \"contracts/Ballot/Ballot.sol\":5836:5874  candidates[indexCandidate].nameProject */\n      0x00\n      add\n        /* \"contracts/Ballot/Ballot.sol\":5792:5874  tieCandidatesList[tieCandidatesListIndex] = candidates[indexCandidate].nameProject */\n      dup1\n      sload\n      tag_131\n      swap1\n      tag_37\n      jump\t// in\n    tag_131:\n      dup1\n      0x1f\n      add\n      0x20\n      dup1\n      swap2\n      div\n      mul\n      0x20\n      add\n      mload(0x40)\n      swap1\n      dup2\n      add\n      0x40\n      mstore\n      dup1\n      swap3\n      swap2\n      swap1\n      dup2\n      dup2\n      mstore\n      0x20\n      add\n      dup3\n      dup1\n      sload\n      tag_132\n      swap1\n      tag_37\n      jump\t// in\n    tag_132:\n      dup1\n      iszero\n      tag_133\n      jumpi\n      dup1\n      0x1f\n      lt\n      tag_134\n      jumpi\n      0x0100\n      dup1\n      dup4\n      sload\n      div\n      mul\n      dup4\n      mstore\n      swap2\n      0x20\n      add\n      swap2\n      jump(tag_133)\n    tag_134:\n      dup3\n      add\n      swap2\n      swap1\n      0x00\n      mstore\n      keccak256(0x00, 0x20)\n      swap1\n    tag_135:\n      dup2\n      sload\n      dup2\n      mstore\n      swap1\n      0x01\n      add\n      swap1\n      0x20\n      add\n      dup1\n      dup4\n      gt\n      tag_135\n      jumpi\n      dup3\n      swap1\n      sub\n      0x1f\n      and\n      dup3\n      add\n      swap2\n    tag_133:\n      pop\n      pop\n      pop\n      pop\n      pop\n        /* \"contracts/Ballot/Ballot.sol\":5792:5809  tieCandidatesList */\n      dup6\n        /* \"contracts/Ballot/Ballot.sol\":5810:5832  tieCandidatesListIndex */\n      dup6\n        /* \"contracts/Ballot/Ballot.sol\":5792:5833  tieCandidatesList[tieCandidatesListIndex] */\n      dup2\n      mload\n      dup2\n      lt\n      tag_136\n      jumpi\n      tag_137\n      tag_34\n      jump\t// in\n    tag_137:\n    tag_136:\n      0x20\n      mul\n      0x20\n      add\n      add\n        /* \"contracts/Ballot/Ballot.sol\":5792:5874  tieCandidatesList[tieCandidatesListIndex] = candidates[indexCandidate].nameProject */\n      dup2\n      swap1\n      mstore\n      pop\n        /* \"contracts/Ballot/Ballot.sol\":5893:5917  tieCandidatesListIndex++ */\n      dup4\n      dup1\n      tag_138\n      swap1\n      tag_45\n      jump\t// in\n    tag_138:\n      swap5\n      pop\n      pop\n        /* \"contracts/Ballot/Ballot.sol\":5679:5933  if (candidates[indexCandidate].votesCount == winningVoteCount) {\r... */\n    tag_127:\n        /* \"contracts/Ballot/Ballot.sol\":5104:5933  if (candidates[indexCandidate].votesCount > winningVoteCount) {\r... */\n    tag_123:\n        /* \"contracts/Ballot/Ballot.sol\":5071:5087  indexCandidate++ */\n      dup1\n      dup1\n      tag_139\n      swap1\n      tag_45\n      jump\t// in\n    tag_139:\n      swap2\n      pop\n      pop\n        /* \"contracts/Ballot/Ballot.sol\":5006:5956  for (uint indexCandidate = 0; indexCandidate < candidatesLength; indexCandidate++) {\r... */\n      jump(tag_97)\n    tag_98:\n      pop\n        /* \"contracts/Ballot/Ballot.sol\":5974:5979  isTie */\n      dup2\n        /* \"contracts/Ballot/Ballot.sol\":5970:6555  if (isTie) {\r... */\n      iszero\n      tag_140\n      jumpi\n        /* \"contracts/Ballot/Ballot.sol\":6001:6020  uint indexCandidate */\n      0x00\n        /* \"contracts/Ballot/Ballot.sol\":5996:6223  for (uint indexCandidate = 0; indexCandidate < tieCandidatesList.length; indexCandidate++) {\r... */\n    tag_141:\n        /* \"contracts/Ballot/Ballot.sol\":6043:6060  tieCandidatesList */\n      dup5\n        /* \"contracts/Ballot/Ballot.sol\":6043:6067  tieCandidatesList.length */\n      mload\n        /* \"contracts/Ballot/Ballot.sol\":6026:6040  indexCandidate */\n      dup2\n        /* \"contracts/Ballot/Ballot.sol\":6026:6067  indexCandidate < tieCandidatesList.length */\n      lt\n        /* \"contracts/Ballot/Ballot.sol\":5996:6223  for (uint indexCandidate = 0; indexCandidate < tieCandidatesList.length; indexCandidate++) {\r... */\n      iszero\n      tag_142\n      jumpi\n        /* \"contracts/Ballot/Ballot.sol\":6131:6207  concatenateStrings(tieCandidatesListNames,tieCandidatesList[indexCandidate]) */\n      tag_144\n        /* \"contracts/Ballot/Ballot.sol\":6150:6172  tieCandidatesListNames */\n      dup3\n        /* \"contracts/Ballot/Ballot.sol\":6173:6190  tieCandidatesList */\n      dup7\n        /* \"contracts/Ballot/Ballot.sol\":6191:6205  indexCandidate */\n      dup4\n        /* \"contracts/Ballot/Ballot.sol\":6173:6206  tieCandidatesList[indexCandidate] */\n      dup2\n      mload\n      dup2\n      lt\n      tag_145\n      jumpi\n      tag_146\n      tag_34\n      jump\t// in\n    tag_146:\n    tag_145:\n      0x20\n      mul\n      0x20\n      add\n      add\n      mload\n        /* \"contracts/Ballot/Ballot.sol\":6131:6149  concatenateStrings */\n      tag_147\n        /* \"contracts/Ballot/Ballot.sol\":6131:6207  concatenateStrings(tieCandidatesListNames,tieCandidatesList[indexCandidate]) */\n      jump\t// in\n    tag_144:\n        /* \"contracts/Ballot/Ballot.sol\":6106:6207  tieCandidatesListNames = concatenateStrings(tieCandidatesListNames,tieCandidatesList[indexCandidate]) */\n      swap2\n      pop\n        /* \"contracts/Ballot/Ballot.sol\":6069:6085  indexCandidate++ */\n      dup1\n      dup1\n      tag_148\n      swap1\n      tag_45\n      jump\t// in\n    tag_148:\n      swap2\n      pop\n      pop\n        /* \"contracts/Ballot/Ballot.sol\":5996:6223  for (uint indexCandidate = 0; indexCandidate < tieCandidatesList.length; indexCandidate++) {\r... */\n      jump(tag_141)\n    tag_142:\n      pop\n        /* \"contracts/Ballot/Ballot.sol\":6251:6275  string memory tieMessage */\n      0x00\n        /* \"contracts/Ballot/Ballot.sol\":6278:6400  concatenateStrings(\"There is a tie on Ballot. You should start a new ballot with tie candidates:\", tieCandidatesListNames) */\n      tag_149\n      mload(0x40)\n      dup1\n      0x80\n      add\n      0x40\n      mstore\n      dup1\n      0x4c\n      dup2\n      mstore\n      0x20\n      add\n      data_2acf605e5cd1b7b0e6ec2502e1f86c81c25a2363f294a2e9f46595fbaefb5b6c\n      0x4c\n      swap2\n      codecopy\n        /* \"contracts/Ballot/Ballot.sol\":6377:6399  tieCandidatesListNames */\n      dup4\n        /* \"contracts/Ballot/Ballot.sol\":6278:6296  concatenateStrings */\n      tag_147\n        /* \"contracts/Ballot/Ballot.sol\":6278:6400  concatenateStrings(\"There is a tie on Ballot. You should start a new ballot with tie candidates:\", tieCandidatesListNames) */\n      jump\t// in\n    tag_149:\n        /* \"contracts/Ballot/Ballot.sol\":6251:6400  string memory tieMessage = concatenateStrings(\"There is a tie on Ballot. You should start a new ballot with tie candidates:\", tieCandidatesListNames) */\n      swap1\n      pop\n        /* \"contracts/Ballot/Ballot.sol\":6425:6458  getTieRequire(!isTie, tieMessage) */\n      tag_150\n        /* \"contracts/Ballot/Ballot.sol\":6440:6445  isTie */\n      dup4\n        /* \"contracts/Ballot/Ballot.sol\":6439:6445  !isTie */\n      iszero\n        /* \"contracts/Ballot/Ballot.sol\":6447:6457  tieMessage */\n      dup3\n        /* \"contracts/Ballot/Ballot.sol\":6425:6438  getTieRequire */\n      tag_151\n        /* \"contracts/Ballot/Ballot.sol\":6425:6458  getTieRequire(!isTie, tieMessage) */\n      jump\t// in\n    tag_150:\n        /* \"contracts/Ballot/Ballot.sol\":5981:6470  {\r... */\n      pop\n        /* \"contracts/Ballot/Ballot.sol\":5970:6555  if (isTie) {\r... */\n      jump(tag_152)\n    tag_140:\n        /* \"contracts/Ballot/Ballot.sol\":6510:6520  candidates */\n      0x02\n        /* \"contracts/Ballot/Ballot.sol\":6521:6542  winningCandidateIndex */\n      dup7\n        /* \"contracts/Ballot/Ballot.sol\":6510:6543  candidates[winningCandidateIndex] */\n      dup2\n      sload\n      dup2\n      lt\n      tag_153\n      jumpi\n      tag_154\n      tag_34\n      jump\t// in\n    tag_154:\n    tag_153:\n      swap1\n      0x00\n      mstore\n      keccak256(0x00, 0x20)\n      swap1\n      0x02\n      mul\n      add\n        /* \"contracts/Ballot/Ballot.sol\":6491:6543  winningCandidate = candidates[winningCandidateIndex] */\n      mload(0x40)\n      dup1\n      0x40\n      add\n      0x40\n      mstore\n      swap1\n      dup2\n      0x00\n      dup3\n      add\n      dup1\n      sload\n      tag_156\n      swap1\n      tag_37\n      jump\t// in\n    tag_156:\n      dup1\n      0x1f\n      add\n      0x20\n      dup1\n      swap2\n      div\n      mul\n      0x20\n      add\n      mload(0x40)\n      swap1\n      dup2\n      add\n      0x40\n      mstore\n      dup1\n      swap3\n      swap2\n      swap1\n      dup2\n      dup2\n      mstore\n      0x20\n      add\n      dup3\n      dup1\n      sload\n      tag_157\n      swap1\n      tag_37\n      jump\t// in\n    tag_157:\n      dup1\n      iszero\n      tag_158\n      jumpi\n      dup1\n      0x1f\n      lt\n      tag_159\n      jumpi\n      0x0100\n      dup1\n      dup4\n      sload\n      div\n      mul\n      dup4\n      mstore\n      swap2\n      0x20\n      add\n      swap2\n      jump(tag_158)\n    tag_159:\n      dup3\n      add\n      swap2\n      swap1\n      0x00\n      mstore\n      keccak256(0x00, 0x20)\n      swap1\n    tag_160:\n      dup2\n      sload\n      dup2\n      mstore\n      swap1\n      0x01\n      add\n      swap1\n      0x20\n      add\n      dup1\n      dup4\n      gt\n      tag_160\n      jumpi\n      dup3\n      swap1\n      sub\n      0x1f\n      and\n      dup3\n      add\n      swap2\n    tag_158:\n      pop\n      pop\n      pop\n      pop\n      pop\n      dup2\n      mstore\n      0x20\n      add\n      0x01\n      dup3\n      add\n      sload\n      dup2\n      mstore\n      pop\n      pop\n      swap8\n      pop\n        /* \"contracts/Ballot/Ballot.sol\":5970:6555  if (isTie) {\r... */\n    tag_152:\n        /* \"contracts/Ballot/Ballot.sol\":4662:6562  {        \r... */\n      pop\n      pop\n      pop\n      pop\n      pop\n      pop\n      pop\n        /* \"contracts/Ballot/Ballot.sol\":4575:6562  function getWinnerCandidate() private view returns (Candidate memory winningCandidate) {        \r... */\n      swap1\n      jump\t// out\n        /* \"contracts/Ballot/Ballot.sol\":6985:7085  function getContractAddress() private view returns (address) {\r... */\n    tag_50:\n        /* \"contracts/Ballot/Ballot.sol\":7037:7044  address */\n      0x00\n        /* \"contracts/Ballot/Ballot.sol\":7072:7076  this */\n      address\n        /* \"contracts/Ballot/Ballot.sol\":7057:7077  return address(this) */\n      swap1\n      pop\n        /* \"contracts/Ballot/Ballot.sol\":6985:7085  function getContractAddress() private view returns (address) {\r... */\n      swap1\n      jump\t// out\n        /* \"contracts/Ballot/Ballot.sol\":1571:1782  function getTotalVotesCounterReachedRequire() private view {\r... */\n    tag_53:\n        /* \"contracts/Ballot/Ballot.sol\":1690:1698  maxVotes */\n      sload(0x04)\n        /* \"contracts/Ballot/Ballot.sol\":1670:1687  totalVotesCounter */\n      sload(0x03)\n        /* \"contracts/Ballot/Ballot.sol\":1670:1698  totalVotesCounter < maxVotes */\n      lt\n        /* \"contracts/Ballot/Ballot.sol\":1648:1774  require(\r... */\n      tag_163\n      jumpi\n      mload(0x40)\n      0x08c379a000000000000000000000000000000000000000000000000000000000\n      dup2\n      mstore\n      0x04\n      add\n      tag_164\n      swap1\n      tag_165\n      jump\t// in\n    tag_164:\n      mload(0x40)\n      dup1\n      swap2\n      sub\n      swap1\n      revert\n    tag_163:\n        /* \"contracts/Ballot/Ballot.sol\":1571:1782  function getTotalVotesCounterReachedRequire() private view {\r... */\n      jump\t// out\n        /* \"contracts/Ballot/Ballot.sol\":2549:2744  function getYouContractOwnerRequire() private view {\r... */\n    tag_55:\n        /* \"contracts/Ballot/Ballot.sol\":2640:2661  areYouContractOwner() */\n      tag_167\n        /* \"contracts/Ballot/Ballot.sol\":2640:2659  areYouContractOwner */\n      tag_168\n        /* \"contracts/Ballot/Ballot.sol\":2640:2661  areYouContractOwner() */\n      jump\t// in\n    tag_167:\n        /* \"contracts/Ballot/Ballot.sol\":2618:2736  require(\r... */\n      tag_169\n      jumpi\n      mload(0x40)\n      0x08c379a000000000000000000000000000000000000000000000000000000000\n      dup2\n      mstore\n      0x04\n      add\n      tag_170\n      swap1\n      tag_171\n      jump\t// in\n    tag_170:\n      mload(0x40)\n      dup1\n      swap2\n      sub\n      swap1\n      revert\n    tag_169:\n        /* \"contracts/Ballot/Ballot.sol\":2549:2744  function getYouContractOwnerRequire() private view {\r... */\n      jump\t// out\n        /* \"contracts/Ballot/Ballot.sol\":2333:2541  function getRightToVoteRequire(address voterAddress) private view {\r... */\n    tag_57:\n        /* \"contracts/Ballot/Ballot.sol\":2440:2446  voters */\n      0x01\n        /* \"contracts/Ballot/Ballot.sol\":2440:2460  voters[voterAddress] */\n      0x00\n        /* \"contracts/Ballot/Ballot.sol\":2447:2459  voterAddress */\n      dup3\n        /* \"contracts/Ballot/Ballot.sol\":2440:2460  voters[voterAddress] */\n      0xffffffffffffffffffffffffffffffffffffffff\n      and\n      0xffffffffffffffffffffffffffffffffffffffff\n      and\n      dup2\n      mstore\n      0x20\n      add\n      swap1\n      dup2\n      mstore\n      0x20\n      add\n      0x00\n      keccak256\n        /* \"contracts/Ballot/Ballot.sol\":2440:2468  voters[voterAddress].canVote */\n      0x01\n      add\n      0x00\n      swap1\n      sload\n      swap1\n      0x0100\n      exp\n      swap1\n      div\n      0xff\n      and\n        /* \"contracts/Ballot/Ballot.sol\":2439:2468  !voters[voterAddress].canVote */\n      iszero\n        /* \"contracts/Ballot/Ballot.sol\":2417:2533  require(\r... */\n      tag_173\n      jumpi\n      mload(0x40)\n      0x08c379a000000000000000000000000000000000000000000000000000000000\n      dup2\n      mstore\n      0x04\n      add\n      tag_174\n      swap1\n      tag_175\n      jump\t// in\n    tag_174:\n      mload(0x40)\n      dup1\n      swap2\n      sub\n      swap1\n      revert\n    tag_173:\n        /* \"contracts/Ballot/Ballot.sol\":2333:2541  function getRightToVoteRequire(address voterAddress) private view {\r... */\n      pop\n      jump\t// out\n        /* \"contracts/Ballot/Ballot.sol\":1374:1563  function getVoterVotedRequire(address voterAddress) private view {\r... */\n    tag_59:\n        /* \"contracts/Ballot/Ballot.sol\":1480:1507  getVoterVoted(voterAddress) */\n      tag_177\n        /* \"contracts/Ballot/Ballot.sol\":1494:1506  voterAddress */\n      dup2\n        /* \"contracts/Ballot/Ballot.sol\":1480:1493  getVoterVoted */\n      tag_178\n        /* \"contracts/Ballot/Ballot.sol\":1480:1507  getVoterVoted(voterAddress) */\n      jump\t// in\n    tag_177:\n        /* \"contracts/Ballot/Ballot.sol\":1479:1507  !getVoterVoted(voterAddress) */\n      iszero\n        /* \"contracts/Ballot/Ballot.sol\":1457:1555  require(\r... */\n      tag_179\n      jumpi\n      mload(0x40)\n      0x08c379a000000000000000000000000000000000000000000000000000000000\n      dup2\n      mstore\n      0x04\n      add\n      tag_180\n      swap1\n      tag_181\n      jump\t// in\n    tag_180:\n      mload(0x40)\n      dup1\n      swap2\n      sub\n      swap1\n      revert\n    tag_179:\n        /* \"contracts/Ballot/Ballot.sol\":1374:1563  function getVoterVotedRequire(address voterAddress) private view {\r... */\n      pop\n      jump\t// out\n        /* \"contracts/Ballot/Ballot.sol\":7644:7811  function stringEqualTo(string memory s1, string memory s2) private pure returns (bool) {\r... */\n    tag_80:\n        /* \"contracts/Ballot/Ballot.sol\":7725:7729  bool */\n      0x00\n        /* \"contracts/Ballot/Ballot.sol\":7799:7801  s2 */\n      dup2\n        /* \"contracts/Ballot/Ballot.sol\":7788:7802  abi.encode(s2) */\n      add(0x20, mload(0x40))\n      tag_183\n      swap2\n      swap1\n      tag_184\n      jump\t// in\n    tag_183:\n      mload(0x40)\n      0x20\n      dup2\n      dup4\n      sub\n      sub\n      dup2\n      mstore\n      swap1\n      0x40\n      mstore\n        /* \"contracts/Ballot/Ballot.sol\":7778:7803  keccak256(abi.encode(s2)) */\n      dup1\n      mload\n      swap1\n      0x20\n      add\n      keccak256\n        /* \"contracts/Ballot/Ballot.sol\":7770:7772  s1 */\n      dup4\n        /* \"contracts/Ballot/Ballot.sol\":7759:7773  abi.encode(s1) */\n      add(0x20, mload(0x40))\n      tag_185\n      swap2\n      swap1\n      tag_184\n      jump\t// in\n    tag_185:\n      mload(0x40)\n      0x20\n      dup2\n      dup4\n      sub\n      sub\n      dup2\n      mstore\n      swap1\n      0x40\n      mstore\n        /* \"contracts/Ballot/Ballot.sol\":7749:7774  keccak256(abi.encode(s1)) */\n      dup1\n      mload\n      swap1\n      0x20\n      add\n      keccak256\n        /* \"contracts/Ballot/Ballot.sol\":7749:7803  keccak256(abi.encode(s1)) == keccak256(abi.encode(s2)) */\n      eq\n        /* \"contracts/Ballot/Ballot.sol\":7742:7803  return keccak256(abi.encode(s1)) == keccak256(abi.encode(s2)) */\n      swap1\n      pop\n        /* \"contracts/Ballot/Ballot.sol\":7644:7811  function stringEqualTo(string memory s1, string memory s2) private pure returns (bool) {\r... */\n      swap3\n      swap2\n      pop\n      pop\n      jump\t// out\n        /* \"contracts/Ballot/Ballot.sol\":1790:1967  function getCandidateExistRequire(bool isExist) private pure {\r... */\n    tag_89:\n        /* \"contracts/Ballot/Ballot.sol\":1891:1898  isExist */\n      dup1\n        /* \"contracts/Ballot/Ballot.sol\":1869:1959  require(\r... */\n      tag_187\n      jumpi\n      mload(0x40)\n      0x08c379a000000000000000000000000000000000000000000000000000000000\n      dup2\n      mstore\n      0x04\n      add\n      tag_188\n      swap1\n      tag_189\n      jump\t// in\n    tag_188:\n      mload(0x40)\n      dup1\n      swap2\n      sub\n      swap1\n      revert\n    tag_187:\n        /* \"contracts/Ballot/Ballot.sol\":1790:1967  function getCandidateExistRequire(bool isExist) private pure {\r... */\n      pop\n      jump\t// out\n        /* \"contracts/Ballot/Ballot.sol\":7819:7984  function concatenateStrings(string memory s1, string memory s2) private pure returns (string memory) {\r... */\n    tag_147:\n        /* \"contracts/Ballot/Ballot.sol\":7905:7918  string memory */\n      0x60\n        /* \"contracts/Ballot/Ballot.sol\":7962:7964  s1 */\n      dup3\n        /* \"contracts/Ballot/Ballot.sol\":7972:7974  s2 */\n      dup3\n        /* \"contracts/Ballot/Ballot.sol\":7945:7975  abi.encodePacked(s1, \" \" , s2) */\n      add(0x20, mload(0x40))\n      tag_191\n      swap3\n      swap2\n      swap1\n      tag_192\n      jump\t// in\n    tag_191:\n      mload(0x40)\n      0x20\n      dup2\n      dup4\n      sub\n      sub\n      dup2\n      mstore\n      swap1\n      0x40\n      mstore\n        /* \"contracts/Ballot/Ballot.sol\":7931:7976  return string(abi.encodePacked(s1, \" \" , s2)) */\n      swap1\n      pop\n        /* \"contracts/Ballot/Ballot.sol\":7819:7984  function concatenateStrings(string memory s1, string memory s2) private pure returns (string memory) {\r... */\n      swap3\n      swap2\n      pop\n      pop\n      jump\t// out\n        /* \"contracts/Ballot/Ballot.sol\":1975:2138  function getTieRequire(bool isTie, string memory tieMessage) private pure {\r... */\n    tag_151:\n        /* \"contracts/Ballot/Ballot.sol\":2089:2094  isTie */\n      dup2\n        /* \"contracts/Ballot/Ballot.sol\":2109:2119  tieMessage */\n      dup2\n        /* \"contracts/Ballot/Ballot.sol\":2067:2130  require(\r... */\n      swap1\n      tag_194\n      jumpi\n      mload(0x40)\n      0x08c379a000000000000000000000000000000000000000000000000000000000\n      dup2\n      mstore\n      0x04\n      add\n      tag_195\n      swap2\n      swap1\n      tag_184\n      jump\t// in\n    tag_195:\n      mload(0x40)\n      dup1\n      swap2\n      sub\n      swap1\n      revert\n    tag_194:\n      pop\n        /* \"contracts/Ballot/Ballot.sol\":1975:2138  function getTieRequire(bool isTie, string memory tieMessage) private pure {\r... */\n      pop\n      pop\n      jump\t// out\n        /* \"contracts/Ballot/Ballot.sol\":7093:7205  function areYouContractOwner() private view returns (bool) {\r... */\n    tag_168:\n        /* \"contracts/Ballot/Ballot.sol\":7146:7150  bool */\n      0x00\n        /* \"contracts/Ballot/Ballot.sol\":7184:7197  contractOwner */\n      dup1\n      0x00\n      swap1\n      sload\n      swap1\n      0x0100\n      exp\n      swap1\n      div\n      0xffffffffffffffffffffffffffffffffffffffff\n      and\n        /* \"contracts/Ballot/Ballot.sol\":7170:7197  msg.sender == contractOwner */\n      0xffffffffffffffffffffffffffffffffffffffff\n      and\n        /* \"contracts/Ballot/Ballot.sol\":7170:7180  msg.sender */\n      caller\n        /* \"contracts/Ballot/Ballot.sol\":7170:7197  msg.sender == contractOwner */\n      0xffffffffffffffffffffffffffffffffffffffff\n      and\n      eq\n        /* \"contracts/Ballot/Ballot.sol\":7163:7197  return msg.sender == contractOwner */\n      swap1\n      pop\n        /* \"contracts/Ballot/Ballot.sol\":7093:7205  function areYouContractOwner() private view returns (bool) {\r... */\n      swap1\n      jump\t// out\n        /* \"contracts/Ballot/Ballot.sol\":7480:7608  function getVoterVoted(address voterAddress) private view returns (bool) {\r... */\n    tag_178:\n        /* \"contracts/Ballot/Ballot.sol\":7547:7551  bool */\n      0x00\n        /* \"contracts/Ballot/Ballot.sol\":7571:7577  voters */\n      0x01\n        /* \"contracts/Ballot/Ballot.sol\":7571:7591  voters[voterAddress] */\n      0x00\n        /* \"contracts/Ballot/Ballot.sol\":7578:7590  voterAddress */\n      dup4\n        /* \"contracts/Ballot/Ballot.sol\":7571:7591  voters[voterAddress] */\n      0xffffffffffffffffffffffffffffffffffffffff\n      and\n      0xffffffffffffffffffffffffffffffffffffffff\n      and\n      dup2\n      mstore\n      0x20\n      add\n      swap1\n      dup2\n      mstore\n      0x20\n      add\n      0x00\n      keccak256\n        /* \"contracts/Ballot/Ballot.sol\":7571:7600  voters[voterAddress].hasVoted */\n      0x01\n      add\n      0x01\n      swap1\n      sload\n      swap1\n      0x0100\n      exp\n      swap1\n      div\n      0xff\n      and\n        /* \"contracts/Ballot/Ballot.sol\":7564:7600  return voters[voterAddress].hasVoted */\n      swap1\n      pop\n        /* \"contracts/Ballot/Ballot.sol\":7480:7608  function getVoterVoted(address voterAddress) private view returns (bool) {\r... */\n      swap2\n      swap1\n      pop\n      jump\t// out\n    tag_62:\n      dup3\n      dup1\n      sload\n      tag_198\n      swap1\n      tag_37\n      jump\t// in\n    tag_198:\n      swap1\n      0x00\n      mstore\n      keccak256(0x00, 0x20)\n      swap1\n      0x1f\n      add\n      0x20\n      swap1\n      div\n      dup2\n      add\n      swap3\n      dup3\n      tag_200\n      jumpi\n      0x00\n      dup6\n      sstore\n      jump(tag_199)\n    tag_200:\n      dup3\n      0x1f\n      lt\n      tag_201\n      jumpi\n      dup1\n      mload\n      not(0xff)\n      and\n      dup4\n      dup1\n      add\n      or\n      dup6\n      sstore\n      jump(tag_199)\n    tag_201:\n      dup3\n      dup1\n      add\n      0x01\n      add\n      dup6\n      sstore\n      dup3\n      iszero\n      tag_199\n      jumpi\n      swap2\n      dup3\n      add\n    tag_202:\n      dup3\n      dup2\n      gt\n      iszero\n      tag_203\n      jumpi\n      dup3\n      mload\n      dup3\n      sstore\n      swap2\n      0x20\n      add\n      swap2\n      swap1\n      0x01\n      add\n      swap1\n      jump(tag_202)\n    tag_203:\n    tag_199:\n      pop\n      swap1\n      pop\n      tag_204\n      swap2\n      swap1\n      tag_205\n      jump\t// in\n    tag_204:\n      pop\n      swap1\n      jump\t// out\n    tag_91:\n      mload(0x40)\n      dup1\n      0x40\n      add\n      0x40\n      mstore\n      dup1\n      0x60\n      dup2\n      mstore\n      0x20\n      add\n      0x00\n      dup2\n      mstore\n      pop\n      swap1\n      jump\t// out\n    tag_205:\n    tag_206:\n      dup1\n      dup3\n      gt\n      iszero\n      tag_207\n      jumpi\n      0x00\n      dup2\n      0x00\n      swap1\n      sstore\n      pop\n      0x01\n      add\n      jump(tag_206)\n    tag_207:\n      pop\n      swap1\n      jump\t// out\n        /* \"#utility.yul\":7:419   */\n    tag_209:\n        /* \"#utility.yul\":85:90   */\n      0x00\n        /* \"#utility.yul\":110:176   */\n      tag_211\n        /* \"#utility.yul\":126:175   */\n      tag_212\n        /* \"#utility.yul\":168:174   */\n      dup5\n        /* \"#utility.yul\":126:175   */\n      tag_213\n      jump\t// in\n    tag_212:\n        /* \"#utility.yul\":110:176   */\n      tag_214\n      jump\t// in\n    tag_211:\n        /* \"#utility.yul\":101:176   */\n      swap1\n      pop\n        /* \"#utility.yul\":199:205   */\n      dup3\n        /* \"#utility.yul\":192:197   */\n      dup2\n        /* \"#utility.yul\":185:206   */\n      mstore\n        /* \"#utility.yul\":237:241   */\n      0x20\n        /* \"#utility.yul\":230:235   */\n      dup2\n        /* \"#utility.yul\":226:242   */\n      add\n        /* \"#utility.yul\":275:278   */\n      dup5\n        /* \"#utility.yul\":266:272   */\n      dup5\n        /* \"#utility.yul\":261:264   */\n      dup5\n        /* \"#utility.yul\":257:273   */\n      add\n        /* \"#utility.yul\":254:279   */\n      gt\n        /* \"#utility.yul\":251:363   */\n      iszero\n      tag_215\n      jumpi\n        /* \"#utility.yul\":282:361   */\n      tag_216\n      tag_217\n      jump\t// in\n    tag_216:\n        /* \"#utility.yul\":251:363   */\n    tag_215:\n        /* \"#utility.yul\":372:413   */\n      tag_218\n        /* \"#utility.yul\":406:412   */\n      dup5\n        /* \"#utility.yul\":401:404   */\n      dup3\n        /* \"#utility.yul\":396:399   */\n      dup6\n        /* \"#utility.yul\":372:413   */\n      tag_219\n      jump\t// in\n    tag_218:\n        /* \"#utility.yul\":91:419   */\n      pop\n        /* \"#utility.yul\":7:419   */\n      swap4\n      swap3\n      pop\n      pop\n      pop\n      jump\t// out\n        /* \"#utility.yul\":425:564   */\n    tag_220:\n        /* \"#utility.yul\":471:476   */\n      0x00\n        /* \"#utility.yul\":509:515   */\n      dup2\n        /* \"#utility.yul\":496:516   */\n      calldataload\n        /* \"#utility.yul\":487:516   */\n      swap1\n      pop\n        /* \"#utility.yul\":525:558   */\n      tag_222\n        /* \"#utility.yul\":552:557   */\n      dup2\n        /* \"#utility.yul\":525:558   */\n      tag_223\n      jump\t// in\n    tag_222:\n        /* \"#utility.yul\":425:564   */\n      swap3\n      swap2\n      pop\n      pop\n      jump\t// out\n        /* \"#utility.yul\":584:924   */\n    tag_224:\n        /* \"#utility.yul\":640:645   */\n      0x00\n        /* \"#utility.yul\":689:692   */\n      dup3\n        /* \"#utility.yul\":682:686   */\n      0x1f\n        /* \"#utility.yul\":674:680   */\n      dup4\n        /* \"#utility.yul\":670:687   */\n      add\n        /* \"#utility.yul\":666:693   */\n      slt\n        /* \"#utility.yul\":656:778   */\n      tag_226\n      jumpi\n        /* \"#utility.yul\":697:776   */\n      tag_227\n      tag_228\n      jump\t// in\n    tag_227:\n        /* \"#utility.yul\":656:778   */\n    tag_226:\n        /* \"#utility.yul\":814:820   */\n      dup2\n        /* \"#utility.yul\":801:821   */\n      calldataload\n        /* \"#utility.yul\":839:918   */\n      tag_229\n        /* \"#utility.yul\":914:917   */\n      dup5\n        /* \"#utility.yul\":906:912   */\n      dup3\n        /* \"#utility.yul\":899:903   */\n      0x20\n        /* \"#utility.yul\":891:897   */\n      dup7\n        /* \"#utility.yul\":887:904   */\n      add\n        /* \"#utility.yul\":839:918   */\n      tag_209\n      jump\t// in\n    tag_229:\n        /* \"#utility.yul\":830:918   */\n      swap2\n      pop\n        /* \"#utility.yul\":646:924   */\n      pop\n        /* \"#utility.yul\":584:924   */\n      swap3\n      swap2\n      pop\n      pop\n      jump\t// out\n        /* \"#utility.yul\":930:1584   */\n    tag_17:\n        /* \"#utility.yul\":1008:1014   */\n      0x00\n        /* \"#utility.yul\":1016:1022   */\n      dup1\n        /* \"#utility.yul\":1065:1067   */\n      0x40\n        /* \"#utility.yul\":1053:1062   */\n      dup4\n        /* \"#utility.yul\":1044:1051   */\n      dup6\n        /* \"#utility.yul\":1040:1063   */\n      sub\n        /* \"#utility.yul\":1036:1068   */\n      slt\n        /* \"#utility.yul\":1033:1152   */\n      iszero\n      tag_231\n      jumpi\n        /* \"#utility.yul\":1071:1150   */\n      tag_232\n      tag_233\n      jump\t// in\n    tag_232:\n        /* \"#utility.yul\":1033:1152   */\n    tag_231:\n        /* \"#utility.yul\":1191:1192   */\n      0x00\n        /* \"#utility.yul\":1216:1269   */\n      tag_234\n        /* \"#utility.yul\":1261:1268   */\n      dup6\n        /* \"#utility.yul\":1252:1258   */\n      dup3\n        /* \"#utility.yul\":1241:1250   */\n      dup7\n        /* \"#utility.yul\":1237:1259   */\n      add\n        /* \"#utility.yul\":1216:1269   */\n      tag_220\n      jump\t// in\n    tag_234:\n        /* \"#utility.yul\":1206:1269   */\n      swap3\n      pop\n        /* \"#utility.yul\":1162:1279   */\n      pop\n        /* \"#utility.yul\":1346:1348   */\n      0x20\n        /* \"#utility.yul\":1335:1344   */\n      dup4\n        /* \"#utility.yul\":1331:1349   */\n      add\n        /* \"#utility.yul\":1318:1350   */\n      calldataload\n        /* \"#utility.yul\":1377:1395   */\n      0xffffffffffffffff\n        /* \"#utility.yul\":1369:1375   */\n      dup2\n        /* \"#utility.yul\":1366:1396   */\n      gt\n        /* \"#utility.yul\":1363:1480   */\n      iszero\n      tag_235\n      jumpi\n        /* \"#utility.yul\":1399:1478   */\n      tag_236\n      tag_237\n      jump\t// in\n    tag_236:\n        /* \"#utility.yul\":1363:1480   */\n    tag_235:\n        /* \"#utility.yul\":1504:1567   */\n      tag_238\n        /* \"#utility.yul\":1559:1566   */\n      dup6\n        /* \"#utility.yul\":1550:1556   */\n      dup3\n        /* \"#utility.yul\":1539:1548   */\n      dup7\n        /* \"#utility.yul\":1535:1557   */\n      add\n        /* \"#utility.yul\":1504:1567   */\n      tag_224\n      jump\t// in\n    tag_238:\n        /* \"#utility.yul\":1494:1567   */\n      swap2\n      pop\n        /* \"#utility.yul\":1289:1577   */\n      pop\n        /* \"#utility.yul\":930:1584   */\n      swap3\n      pop\n      swap3\n      swap1\n      pop\n      jump\t// out\n        /* \"#utility.yul\":1590:2099   */\n    tag_21:\n        /* \"#utility.yul\":1659:1665   */\n      0x00\n        /* \"#utility.yul\":1708:1710   */\n      0x20\n        /* \"#utility.yul\":1696:1705   */\n      dup3\n        /* \"#utility.yul\":1687:1694   */\n      dup5\n        /* \"#utility.yul\":1683:1706   */\n      sub\n        /* \"#utility.yul\":1679:1711   */\n      slt\n        /* \"#utility.yul\":1676:1795   */\n      iszero\n      tag_240\n      jumpi\n        /* \"#utility.yul\":1714:1793   */\n      tag_241\n      tag_233\n      jump\t// in\n    tag_241:\n        /* \"#utility.yul\":1676:1795   */\n    tag_240:\n        /* \"#utility.yul\":1862:1863   */\n      0x00\n        /* \"#utility.yul\":1851:1860   */\n      dup3\n        /* \"#utility.yul\":1847:1864   */\n      add\n        /* \"#utility.yul\":1834:1865   */\n      calldataload\n        /* \"#utility.yul\":1892:1910   */\n      0xffffffffffffffff\n        /* \"#utility.yul\":1884:1890   */\n      dup2\n        /* \"#utility.yul\":1881:1911   */\n      gt\n        /* \"#utility.yul\":1878:1995   */\n      iszero\n      tag_242\n      jumpi\n        /* \"#utility.yul\":1914:1993   */\n      tag_243\n      tag_237\n      jump\t// in\n    tag_243:\n        /* \"#utility.yul\":1878:1995   */\n    tag_242:\n        /* \"#utility.yul\":2019:2082   */\n      tag_244\n        /* \"#utility.yul\":2074:2081   */\n      dup5\n        /* \"#utility.yul\":2065:2071   */\n      dup3\n        /* \"#utility.yul\":2054:2063   */\n      dup6\n        /* \"#utility.yul\":2050:2072   */\n      add\n        /* \"#utility.yul\":2019:2082   */\n      tag_224\n      jump\t// in\n    tag_244:\n        /* \"#utility.yul\":2009:2082   */\n      swap2\n      pop\n        /* \"#utility.yul\":1805:2092   */\n      pop\n        /* \"#utility.yul\":1590:2099   */\n      swap3\n      swap2\n      pop\n      pop\n      jump\t// out\n        /* \"#utility.yul\":2105:2301   */\n    tag_245:\n        /* \"#utility.yul\":2194:2204   */\n      0x00\n        /* \"#utility.yul\":2229:2295   */\n      tag_247\n        /* \"#utility.yul\":2291:2294   */\n      dup4\n        /* \"#utility.yul\":2283:2289   */\n      dup4\n        /* \"#utility.yul\":2229:2295   */\n      tag_248\n      jump\t// in\n    tag_247:\n        /* \"#utility.yul\":2215:2295   */\n      swap1\n      pop\n        /* \"#utility.yul\":2105:2301   */\n      swap3\n      swap2\n      pop\n      pop\n      jump\t// out\n        /* \"#utility.yul\":2307:2425   */\n    tag_249:\n        /* \"#utility.yul\":2394:2418   */\n      tag_251\n        /* \"#utility.yul\":2412:2417   */\n      dup2\n        /* \"#utility.yul\":2394:2418   */\n      tag_252\n      jump\t// in\n    tag_251:\n        /* \"#utility.yul\":2389:2392   */\n      dup3\n        /* \"#utility.yul\":2382:2419   */\n      mstore\n        /* \"#utility.yul\":2307:2425   */\n      pop\n      pop\n      jump\t// out\n        /* \"#utility.yul\":2459:3450   */\n    tag_253:\n        /* \"#utility.yul\":2598:2601   */\n      0x00\n        /* \"#utility.yul\":2627:2691   */\n      tag_255\n        /* \"#utility.yul\":2685:2690   */\n      dup3\n        /* \"#utility.yul\":2627:2691   */\n      tag_256\n      jump\t// in\n    tag_255:\n        /* \"#utility.yul\":2707:2803   */\n      tag_257\n        /* \"#utility.yul\":2796:2802   */\n      dup2\n        /* \"#utility.yul\":2791:2794   */\n      dup6\n        /* \"#utility.yul\":2707:2803   */\n      tag_258\n      jump\t// in\n    tag_257:\n        /* \"#utility.yul\":2700:2803   */\n      swap4\n      pop\n        /* \"#utility.yul\":2829:2832   */\n      dup4\n        /* \"#utility.yul\":2874:2878   */\n      0x20\n        /* \"#utility.yul\":2866:2872   */\n      dup3\n        /* \"#utility.yul\":2862:2879   */\n      mul\n        /* \"#utility.yul\":2857:2860   */\n      dup6\n        /* \"#utility.yul\":2853:2880   */\n      add\n        /* \"#utility.yul\":2904:2970   */\n      tag_259\n        /* \"#utility.yul\":2964:2969   */\n      dup6\n        /* \"#utility.yul\":2904:2970   */\n      tag_260\n      jump\t// in\n    tag_259:\n        /* \"#utility.yul\":2993:3000   */\n      dup1\n        /* \"#utility.yul\":3024:3025   */\n      0x00\n        /* \"#utility.yul\":3009:3405   */\n    tag_261:\n        /* \"#utility.yul\":3034:3040   */\n      dup6\n        /* \"#utility.yul\":3031:3032   */\n      dup2\n        /* \"#utility.yul\":3028:3041   */\n      lt\n        /* \"#utility.yul\":3009:3405   */\n      iszero\n      tag_263\n      jumpi\n        /* \"#utility.yul\":3105:3114   */\n      dup5\n        /* \"#utility.yul\":3099:3103   */\n      dup5\n        /* \"#utility.yul\":3095:3115   */\n      sub\n        /* \"#utility.yul\":3090:3093   */\n      dup10\n        /* \"#utility.yul\":3083:3116   */\n      mstore\n        /* \"#utility.yul\":3156:3162   */\n      dup2\n        /* \"#utility.yul\":3150:3163   */\n      mload\n        /* \"#utility.yul\":3184:3268   */\n      tag_264\n        /* \"#utility.yul\":3263:3267   */\n      dup6\n        /* \"#utility.yul\":3248:3261   */\n      dup3\n        /* \"#utility.yul\":3184:3268   */\n      tag_245\n      jump\t// in\n    tag_264:\n        /* \"#utility.yul\":3176:3268   */\n      swap5\n      pop\n        /* \"#utility.yul\":3291:3361   */\n      tag_265\n        /* \"#utility.yul\":3354:3360   */\n      dup4\n        /* \"#utility.yul\":3291:3361   */\n      tag_266\n      jump\t// in\n    tag_265:\n        /* \"#utility.yul\":3281:3361   */\n      swap3\n      pop\n        /* \"#utility.yul\":3390:3394   */\n      0x20\n        /* \"#utility.yul\":3385:3388   */\n      dup11\n        /* \"#utility.yul\":3381:3395   */\n      add\n        /* \"#utility.yul\":3374:3395   */\n      swap10\n      pop\n        /* \"#utility.yul\":3069:3405   */\n      pop\n        /* \"#utility.yul\":3056:3057   */\n      0x01\n        /* \"#utility.yul\":3053:3054   */\n      dup2\n        /* \"#utility.yul\":3049:3058   */\n      add\n        /* \"#utility.yul\":3044:3058   */\n      swap1\n      pop\n        /* \"#utility.yul\":3009:3405   */\n      jump(tag_261)\n    tag_263:\n        /* \"#utility.yul\":3013:3027   */\n      pop\n        /* \"#utility.yul\":3421:3425   */\n      dup3\n        /* \"#utility.yul\":3414:3425   */\n      swap8\n      pop\n        /* \"#utility.yul\":3441:3444   */\n      dup8\n        /* \"#utility.yul\":3434:3444   */\n      swap6\n      pop\n        /* \"#utility.yul\":2603:3450   */\n      pop\n      pop\n      pop\n      pop\n      pop\n        /* \"#utility.yul\":2459:3450   */\n      swap3\n      swap2\n      pop\n      pop\n      jump\t// out\n        /* \"#utility.yul\":3456:3800   */\n    tag_248:\n        /* \"#utility.yul\":3534:3537   */\n      0x00\n        /* \"#utility.yul\":3562:3601   */\n      tag_268\n        /* \"#utility.yul\":3595:3600   */\n      dup3\n        /* \"#utility.yul\":3562:3601   */\n      tag_269\n      jump\t// in\n    tag_268:\n        /* \"#utility.yul\":3617:3678   */\n      tag_270\n        /* \"#utility.yul\":3671:3677   */\n      dup2\n        /* \"#utility.yul\":3666:3669   */\n      dup6\n        /* \"#utility.yul\":3617:3678   */\n      tag_271\n      jump\t// in\n    tag_270:\n        /* \"#utility.yul\":3610:3678   */\n      swap4\n      pop\n        /* \"#utility.yul\":3687:3739   */\n      tag_272\n        /* \"#utility.yul\":3732:3738   */\n      dup2\n        /* \"#utility.yul\":3727:3730   */\n      dup6\n        /* \"#utility.yul\":3720:3724   */\n      0x20\n        /* \"#utility.yul\":3713:3718   */\n      dup7\n        /* \"#utility.yul\":3709:3725   */\n      add\n        /* \"#utility.yul\":3687:3739   */\n      tag_273\n      jump\t// in\n    tag_272:\n        /* \"#utility.yul\":3764:3793   */\n      tag_274\n        /* \"#utility.yul\":3786:3792   */\n      dup2\n        /* \"#utility.yul\":3764:3793   */\n      tag_275\n      jump\t// in\n    tag_274:\n        /* \"#utility.yul\":3759:3762   */\n      dup5\n        /* \"#utility.yul\":3755:3794   */\n      add\n        /* \"#utility.yul\":3748:3794   */\n      swap2\n      pop\n        /* \"#utility.yul\":3538:3800   */\n      pop\n        /* \"#utility.yul\":3456:3800   */\n      swap3\n      swap2\n      pop\n      pop\n      jump\t// out\n        /* \"#utility.yul\":3806:4170   */\n    tag_276:\n        /* \"#utility.yul\":3894:3897   */\n      0x00\n        /* \"#utility.yul\":3922:3961   */\n      tag_278\n        /* \"#utility.yul\":3955:3960   */\n      dup3\n        /* \"#utility.yul\":3922:3961   */\n      tag_269\n      jump\t// in\n    tag_278:\n        /* \"#utility.yul\":3977:4048   */\n      tag_279\n        /* \"#utility.yul\":4041:4047   */\n      dup2\n        /* \"#utility.yul\":4036:4039   */\n      dup6\n        /* \"#utility.yul\":3977:4048   */\n      tag_280\n      jump\t// in\n    tag_279:\n        /* \"#utility.yul\":3970:4048   */\n      swap4\n      pop\n        /* \"#utility.yul\":4057:4109   */\n      tag_281\n        /* \"#utility.yul\":4102:4108   */\n      dup2\n        /* \"#utility.yul\":4097:4100   */\n      dup6\n        /* \"#utility.yul\":4090:4094   */\n      0x20\n        /* \"#utility.yul\":4083:4088   */\n      dup7\n        /* \"#utility.yul\":4079:4095   */\n      add\n        /* \"#utility.yul\":4057:4109   */\n      tag_273\n      jump\t// in\n    tag_281:\n        /* \"#utility.yul\":4134:4163   */\n      tag_282\n        /* \"#utility.yul\":4156:4162   */\n      dup2\n        /* \"#utility.yul\":4134:4163   */\n      tag_275\n      jump\t// in\n    tag_282:\n        /* \"#utility.yul\":4129:4132   */\n      dup5\n        /* \"#utility.yul\":4125:4164   */\n      add\n        /* \"#utility.yul\":4118:4164   */\n      swap2\n      pop\n        /* \"#utility.yul\":3898:4170   */\n      pop\n        /* \"#utility.yul\":3806:4170   */\n      swap3\n      swap2\n      pop\n      pop\n      jump\t// out\n        /* \"#utility.yul\":4176:4553   */\n    tag_283:\n        /* \"#utility.yul\":4282:4285   */\n      0x00\n        /* \"#utility.yul\":4310:4349   */\n      tag_285\n        /* \"#utility.yul\":4343:4348   */\n      dup3\n        /* \"#utility.yul\":4310:4349   */\n      tag_269\n      jump\t// in\n    tag_285:\n        /* \"#utility.yul\":4365:4454   */\n      tag_286\n        /* \"#utility.yul\":4447:4453   */\n      dup2\n        /* \"#utility.yul\":4442:4445   */\n      dup6\n        /* \"#utility.yul\":4365:4454   */\n      tag_287\n      jump\t// in\n    tag_286:\n        /* \"#utility.yul\":4358:4454   */\n      swap4\n      pop\n        /* \"#utility.yul\":4463:4515   */\n      tag_288\n        /* \"#utility.yul\":4508:4514   */\n      dup2\n        /* \"#utility.yul\":4503:4506   */\n      dup6\n        /* \"#utility.yul\":4496:4500   */\n      0x20\n        /* \"#utility.yul\":4489:4494   */\n      dup7\n        /* \"#utility.yul\":4485:4501   */\n      add\n        /* \"#utility.yul\":4463:4515   */\n      tag_273\n      jump\t// in\n    tag_288:\n        /* \"#utility.yul\":4540:4546   */\n      dup1\n        /* \"#utility.yul\":4535:4538   */\n      dup5\n        /* \"#utility.yul\":4531:4547   */\n      add\n        /* \"#utility.yul\":4524:4547   */\n      swap2\n      pop\n        /* \"#utility.yul\":4286:4553   */\n      pop\n        /* \"#utility.yul\":4176:4553   */\n      swap3\n      swap2\n      pop\n      pop\n      jump\t// out\n        /* \"#utility.yul\":4559:4925   */\n    tag_289:\n        /* \"#utility.yul\":4701:4704   */\n      0x00\n        /* \"#utility.yul\":4722:4789   */\n      tag_291\n        /* \"#utility.yul\":4786:4788   */\n      0x25\n        /* \"#utility.yul\":4781:4784   */\n      dup4\n        /* \"#utility.yul\":4722:4789   */\n      tag_280\n      jump\t// in\n    tag_291:\n        /* \"#utility.yul\":4715:4789   */\n      swap2\n      pop\n        /* \"#utility.yul\":4798:4891   */\n      tag_292\n        /* \"#utility.yul\":4887:4890   */\n      dup3\n        /* \"#utility.yul\":4798:4891   */\n      tag_293\n      jump\t// in\n    tag_292:\n        /* \"#utility.yul\":4916:4918   */\n      0x40\n        /* \"#utility.yul\":4911:4914   */\n      dup3\n        /* \"#utility.yul\":4907:4919   */\n      add\n        /* \"#utility.yul\":4900:4919   */\n      swap1\n      pop\n        /* \"#utility.yul\":4559:4925   */\n      swap2\n      swap1\n      pop\n      jump\t// out\n        /* \"#utility.yul\":4931:5297   */\n    tag_294:\n        /* \"#utility.yul\":5073:5076   */\n      0x00\n        /* \"#utility.yul\":5094:5161   */\n      tag_296\n        /* \"#utility.yul\":5158:5160   */\n      0x21\n        /* \"#utility.yul\":5153:5156   */\n      dup4\n        /* \"#utility.yul\":5094:5161   */\n      tag_280\n      jump\t// in\n    tag_296:\n        /* \"#utility.yul\":5087:5161   */\n      swap2\n      pop\n        /* \"#utility.yul\":5170:5263   */\n      tag_297\n        /* \"#utility.yul\":5259:5262   */\n      dup3\n        /* \"#utility.yul\":5170:5263   */\n      tag_298\n      jump\t// in\n    tag_297:\n        /* \"#utility.yul\":5288:5290   */\n      0x40\n        /* \"#utility.yul\":5283:5286   */\n      dup3\n        /* \"#utility.yul\":5279:5291   */\n      add\n        /* \"#utility.yul\":5272:5291   */\n      swap1\n      pop\n        /* \"#utility.yul\":4931:5297   */\n      swap2\n      swap1\n      pop\n      jump\t// out\n        /* \"#utility.yul\":5303:5669   */\n    tag_299:\n        /* \"#utility.yul\":5445:5448   */\n      0x00\n        /* \"#utility.yul\":5466:5533   */\n      tag_301\n        /* \"#utility.yul\":5530:5532   */\n      0x2f\n        /* \"#utility.yul\":5525:5528   */\n      dup4\n        /* \"#utility.yul\":5466:5533   */\n      tag_280\n      jump\t// in\n    tag_301:\n        /* \"#utility.yul\":5459:5533   */\n      swap2\n      pop\n        /* \"#utility.yul\":5542:5635   */\n      tag_302\n        /* \"#utility.yul\":5631:5634   */\n      dup3\n        /* \"#utility.yul\":5542:5635   */\n      tag_303\n      jump\t// in\n    tag_302:\n        /* \"#utility.yul\":5660:5662   */\n      0x40\n        /* \"#utility.yul\":5655:5658   */\n      dup3\n        /* \"#utility.yul\":5651:5663   */\n      add\n        /* \"#utility.yul\":5644:5663   */\n      swap1\n      pop\n        /* \"#utility.yul\":5303:5669   */\n      swap2\n      swap1\n      pop\n      jump\t// out\n        /* \"#utility.yul\":5675:6041   */\n    tag_304:\n        /* \"#utility.yul\":5817:5820   */\n      0x00\n        /* \"#utility.yul\":5838:5905   */\n      tag_306\n        /* \"#utility.yul\":5902:5904   */\n      0x2f\n        /* \"#utility.yul\":5897:5900   */\n      dup4\n        /* \"#utility.yul\":5838:5905   */\n      tag_280\n      jump\t// in\n    tag_306:\n        /* \"#utility.yul\":5831:5905   */\n      swap2\n      pop\n        /* \"#utility.yul\":5914:6007   */\n      tag_307\n        /* \"#utility.yul\":6003:6006   */\n      dup3\n        /* \"#utility.yul\":5914:6007   */\n      tag_308\n      jump\t// in\n    tag_307:\n        /* \"#utility.yul\":6032:6034   */\n      0x40\n        /* \"#utility.yul\":6027:6030   */\n      dup3\n        /* \"#utility.yul\":6023:6035   */\n      add\n        /* \"#utility.yul\":6016:6035   */\n      swap1\n      pop\n        /* \"#utility.yul\":5675:6041   */\n      swap2\n      swap1\n      pop\n      jump\t// out\n        /* \"#utility.yul\":6047:6447   */\n    tag_309:\n        /* \"#utility.yul\":6207:6210   */\n      0x00\n        /* \"#utility.yul\":6228:6312   */\n      tag_311\n        /* \"#utility.yul\":6310:6311   */\n      0x01\n        /* \"#utility.yul\":6305:6308   */\n      dup4\n        /* \"#utility.yul\":6228:6312   */\n      tag_287\n      jump\t// in\n    tag_311:\n        /* \"#utility.yul\":6221:6312   */\n      swap2\n      pop\n        /* \"#utility.yul\":6321:6414   */\n      tag_312\n        /* \"#utility.yul\":6410:6413   */\n      dup3\n        /* \"#utility.yul\":6321:6414   */\n      tag_313\n      jump\t// in\n    tag_312:\n        /* \"#utility.yul\":6439:6440   */\n      0x01\n        /* \"#utility.yul\":6434:6437   */\n      dup3\n        /* \"#utility.yul\":6430:6441   */\n      add\n        /* \"#utility.yul\":6423:6441   */\n      swap1\n      pop\n        /* \"#utility.yul\":6047:6447   */\n      swap2\n      swap1\n      pop\n      jump\t// out\n        /* \"#utility.yul\":6453:6819   */\n    tag_314:\n        /* \"#utility.yul\":6595:6598   */\n      0x00\n        /* \"#utility.yul\":6616:6683   */\n      tag_316\n        /* \"#utility.yul\":6680:6682   */\n      0x14\n        /* \"#utility.yul\":6675:6678   */\n      dup4\n        /* \"#utility.yul\":6616:6683   */\n      tag_280\n      jump\t// in\n    tag_316:\n        /* \"#utility.yul\":6609:6683   */\n      swap2\n      pop\n        /* \"#utility.yul\":6692:6785   */\n      tag_317\n        /* \"#utility.yul\":6781:6784   */\n      dup3\n        /* \"#utility.yul\":6692:6785   */\n      tag_318\n      jump\t// in\n    tag_317:\n        /* \"#utility.yul\":6810:6812   */\n      0x20\n        /* \"#utility.yul\":6805:6808   */\n      dup3\n        /* \"#utility.yul\":6801:6813   */\n      add\n        /* \"#utility.yul\":6794:6813   */\n      swap1\n      pop\n        /* \"#utility.yul\":6453:6819   */\n      swap2\n      swap1\n      pop\n      jump\t// out\n        /* \"#utility.yul\":6825:6943   */\n    tag_319:\n        /* \"#utility.yul\":6912:6936   */\n      tag_321\n        /* \"#utility.yul\":6930:6935   */\n      dup2\n        /* \"#utility.yul\":6912:6936   */\n      tag_322\n      jump\t// in\n    tag_321:\n        /* \"#utility.yul\":6907:6910   */\n      dup3\n        /* \"#utility.yul\":6900:6937   */\n      mstore\n        /* \"#utility.yul\":6825:6943   */\n      pop\n      pop\n      jump\t// out\n        /* \"#utility.yul\":6949:7650   */\n    tag_192:\n        /* \"#utility.yul\":7230:7233   */\n      0x00\n        /* \"#utility.yul\":7252:7347   */\n      tag_324\n        /* \"#utility.yul\":7343:7346   */\n      dup3\n        /* \"#utility.yul\":7334:7340   */\n      dup6\n        /* \"#utility.yul\":7252:7347   */\n      tag_283\n      jump\t// in\n    tag_324:\n        /* \"#utility.yul\":7245:7347   */\n      swap2\n      pop\n        /* \"#utility.yul\":7364:7512   */\n      tag_325\n        /* \"#utility.yul\":7508:7511   */\n      dup3\n        /* \"#utility.yul\":7364:7512   */\n      tag_309\n      jump\t// in\n    tag_325:\n        /* \"#utility.yul\":7357:7512   */\n      swap2\n      pop\n        /* \"#utility.yul\":7529:7624   */\n      tag_326\n        /* \"#utility.yul\":7620:7623   */\n      dup3\n        /* \"#utility.yul\":7611:7617   */\n      dup5\n        /* \"#utility.yul\":7529:7624   */\n      tag_283\n      jump\t// in\n    tag_326:\n        /* \"#utility.yul\":7522:7624   */\n      swap2\n      pop\n        /* \"#utility.yul\":7641:7644   */\n      dup2\n        /* \"#utility.yul\":7634:7644   */\n      swap1\n      pop\n        /* \"#utility.yul\":6949:7650   */\n      swap4\n      swap3\n      pop\n      pop\n      pop\n      jump\t// out\n        /* \"#utility.yul\":7656:8069   */\n    tag_10:\n        /* \"#utility.yul\":7819:7823   */\n      0x00\n        /* \"#utility.yul\":7857:7859   */\n      0x20\n        /* \"#utility.yul\":7846:7855   */\n      dup3\n        /* \"#utility.yul\":7842:7860   */\n      add\n        /* \"#utility.yul\":7834:7860   */\n      swap1\n      pop\n        /* \"#utility.yul\":7906:7915   */\n      dup2\n        /* \"#utility.yul\":7900:7904   */\n      dup2\n        /* \"#utility.yul\":7896:7916   */\n      sub\n        /* \"#utility.yul\":7892:7893   */\n      0x00\n        /* \"#utility.yul\":7881:7890   */\n      dup4\n        /* \"#utility.yul\":7877:7894   */\n      add\n        /* \"#utility.yul\":7870:7917   */\n      mstore\n        /* \"#utility.yul\":7934:8062   */\n      tag_328\n        /* \"#utility.yul\":8057:8061   */\n      dup2\n        /* \"#utility.yul\":8048:8054   */\n      dup5\n        /* \"#utility.yul\":7934:8062   */\n      tag_253\n      jump\t// in\n    tag_328:\n        /* \"#utility.yul\":7926:8062   */\n      swap1\n      pop\n        /* \"#utility.yul\":7656:8069   */\n      swap3\n      swap2\n      pop\n      pop\n      jump\t// out\n        /* \"#utility.yul\":8075:8388   */\n    tag_184:\n        /* \"#utility.yul\":8188:8192   */\n      0x00\n        /* \"#utility.yul\":8226:8228   */\n      0x20\n        /* \"#utility.yul\":8215:8224   */\n      dup3\n        /* \"#utility.yul\":8211:8229   */\n      add\n        /* \"#utility.yul\":8203:8229   */\n      swap1\n      pop\n        /* \"#utility.yul\":8275:8284   */\n      dup2\n        /* \"#utility.yul\":8269:8273   */\n      dup2\n        /* \"#utility.yul\":8265:8285   */\n      sub\n        /* \"#utility.yul\":8261:8262   */\n      0x00\n        /* \"#utility.yul\":8250:8259   */\n      dup4\n        /* \"#utility.yul\":8246:8263   */\n      add\n        /* \"#utility.yul\":8239:8286   */\n      mstore\n        /* \"#utility.yul\":8303:8381   */\n      tag_330\n        /* \"#utility.yul\":8376:8380   */\n      dup2\n        /* \"#utility.yul\":8367:8373   */\n      dup5\n        /* \"#utility.yul\":8303:8381   */\n      tag_276\n      jump\t// in\n    tag_330:\n        /* \"#utility.yul\":8295:8381   */\n      swap1\n      pop\n        /* \"#utility.yul\":8075:8388   */\n      swap3\n      swap2\n      pop\n      pop\n      jump\t// out\n        /* \"#utility.yul\":8394:8927   */\n    tag_14:\n        /* \"#utility.yul\":8563:8567   */\n      0x00\n        /* \"#utility.yul\":8601:8603   */\n      0x60\n        /* \"#utility.yul\":8590:8599   */\n      dup3\n        /* \"#utility.yul\":8586:8604   */\n      add\n        /* \"#utility.yul\":8578:8604   */\n      swap1\n      pop\n        /* \"#utility.yul\":8650:8659   */\n      dup2\n        /* \"#utility.yul\":8644:8648   */\n      dup2\n        /* \"#utility.yul\":8640:8660   */\n      sub\n        /* \"#utility.yul\":8636:8637   */\n      0x00\n        /* \"#utility.yul\":8625:8634   */\n      dup4\n        /* \"#utility.yul\":8621:8638   */\n      add\n        /* \"#utility.yul\":8614:8661   */\n      mstore\n        /* \"#utility.yul\":8678:8756   */\n      tag_332\n        /* \"#utility.yul\":8751:8755   */\n      dup2\n        /* \"#utility.yul\":8742:8748   */\n      dup7\n        /* \"#utility.yul\":8678:8756   */\n      tag_276\n      jump\t// in\n    tag_332:\n        /* \"#utility.yul\":8670:8756   */\n      swap1\n      pop\n        /* \"#utility.yul\":8766:8838   */\n      tag_333\n        /* \"#utility.yul\":8834:8836   */\n      0x20\n        /* \"#utility.yul\":8823:8832   */\n      dup4\n        /* \"#utility.yul\":8819:8837   */\n      add\n        /* \"#utility.yul\":8810:8816   */\n      dup6\n        /* \"#utility.yul\":8766:8838   */\n      tag_319\n      jump\t// in\n    tag_333:\n        /* \"#utility.yul\":8848:8920   */\n      tag_334\n        /* \"#utility.yul\":8916:8918   */\n      0x40\n        /* \"#utility.yul\":8905:8914   */\n      dup4\n        /* \"#utility.yul\":8901:8919   */\n      add\n        /* \"#utility.yul\":8892:8898   */\n      dup5\n        /* \"#utility.yul\":8848:8920   */\n      tag_249\n      jump\t// in\n    tag_334:\n        /* \"#utility.yul\":8394:8927   */\n      swap5\n      swap4\n      pop\n      pop\n      pop\n      pop\n      jump\t// out\n        /* \"#utility.yul\":8933:9352   */\n    tag_175:\n        /* \"#utility.yul\":9099:9103   */\n      0x00\n        /* \"#utility.yul\":9137:9139   */\n      0x20\n        /* \"#utility.yul\":9126:9135   */\n      dup3\n        /* \"#utility.yul\":9122:9140   */\n      add\n        /* \"#utility.yul\":9114:9140   */\n      swap1\n      pop\n        /* \"#utility.yul\":9186:9195   */\n      dup2\n        /* \"#utility.yul\":9180:9184   */\n      dup2\n        /* \"#utility.yul\":9176:9196   */\n      sub\n        /* \"#utility.yul\":9172:9173   */\n      0x00\n        /* \"#utility.yul\":9161:9170   */\n      dup4\n        /* \"#utility.yul\":9157:9174   */\n      add\n        /* \"#utility.yul\":9150:9197   */\n      mstore\n        /* \"#utility.yul\":9214:9345   */\n      tag_336\n        /* \"#utility.yul\":9340:9344   */\n      dup2\n        /* \"#utility.yul\":9214:9345   */\n      tag_289\n      jump\t// in\n    tag_336:\n        /* \"#utility.yul\":9206:9345   */\n      swap1\n      pop\n        /* \"#utility.yul\":8933:9352   */\n      swap2\n      swap1\n      pop\n      jump\t// out\n        /* \"#utility.yul\":9358:9777   */\n    tag_189:\n        /* \"#utility.yul\":9524:9528   */\n      0x00\n        /* \"#utility.yul\":9562:9564   */\n      0x20\n        /* \"#utility.yul\":9551:9560   */\n      dup3\n        /* \"#utility.yul\":9547:9565   */\n      add\n        /* \"#utility.yul\":9539:9565   */\n      swap1\n      pop\n        /* \"#utility.yul\":9611:9620   */\n      dup2\n        /* \"#utility.yul\":9605:9609   */\n      dup2\n        /* \"#utility.yul\":9601:9621   */\n      sub\n        /* \"#utility.yul\":9597:9598   */\n      0x00\n        /* \"#utility.yul\":9586:9595   */\n      dup4\n        /* \"#utility.yul\":9582:9599   */\n      add\n        /* \"#utility.yul\":9575:9622   */\n      mstore\n        /* \"#utility.yul\":9639:9770   */\n      tag_338\n        /* \"#utility.yul\":9765:9769   */\n      dup2\n        /* \"#utility.yul\":9639:9770   */\n      tag_294\n      jump\t// in\n    tag_338:\n        /* \"#utility.yul\":9631:9770   */\n      swap1\n      pop\n        /* \"#utility.yul\":9358:9777   */\n      swap2\n      swap1\n      pop\n      jump\t// out\n        /* \"#utility.yul\":9783:10202   */\n    tag_165:\n        /* \"#utility.yul\":9949:9953   */\n      0x00\n        /* \"#utility.yul\":9987:9989   */\n      0x20\n        /* \"#utility.yul\":9976:9985   */\n      dup3\n        /* \"#utility.yul\":9972:9990   */\n      add\n        /* \"#utility.yul\":9964:9990   */\n      swap1\n      pop\n        /* \"#utility.yul\":10036:10045   */\n      dup2\n        /* \"#utility.yul\":10030:10034   */\n      dup2\n        /* \"#utility.yul\":10026:10046   */\n      sub\n        /* \"#utility.yul\":10022:10023   */\n      0x00\n        /* \"#utility.yul\":10011:10020   */\n      dup4\n        /* \"#utility.yul\":10007:10024   */\n      add\n        /* \"#utility.yul\":10000:10047   */\n      mstore\n        /* \"#utility.yul\":10064:10195   */\n      tag_340\n        /* \"#utility.yul\":10190:10194   */\n      dup2\n        /* \"#utility.yul\":10064:10195   */\n      tag_299\n      jump\t// in\n    tag_340:\n        /* \"#utility.yul\":10056:10195   */\n      swap1\n      pop\n        /* \"#utility.yul\":9783:10202   */\n      swap2\n      swap1\n      pop\n      jump\t// out\n        /* \"#utility.yul\":10208:10627   */\n    tag_171:\n        /* \"#utility.yul\":10374:10378   */\n      0x00\n        /* \"#utility.yul\":10412:10414   */\n      0x20\n        /* \"#utility.yul\":10401:10410   */\n      dup3\n        /* \"#utility.yul\":10397:10415   */\n      add\n        /* \"#utility.yul\":10389:10415   */\n      swap1\n      pop\n        /* \"#utility.yul\":10461:10470   */\n      dup2\n        /* \"#utility.yul\":10455:10459   */\n      dup2\n        /* \"#utility.yul\":10451:10471   */\n      sub\n        /* \"#utility.yul\":10447:10448   */\n      0x00\n        /* \"#utility.yul\":10436:10445   */\n      dup4\n        /* \"#utility.yul\":10432:10449   */\n      add\n        /* \"#utility.yul\":10425:10472   */\n      mstore\n        /* \"#utility.yul\":10489:10620   */\n      tag_342\n        /* \"#utility.yul\":10615:10619   */\n      dup2\n        /* \"#utility.yul\":10489:10620   */\n      tag_304\n      jump\t// in\n    tag_342:\n        /* \"#utility.yul\":10481:10620   */\n      swap1\n      pop\n        /* \"#utility.yul\":10208:10627   */\n      swap2\n      swap1\n      pop\n      jump\t// out\n        /* \"#utility.yul\":10633:11052   */\n    tag_181:\n        /* \"#utility.yul\":10799:10803   */\n      0x00\n        /* \"#utility.yul\":10837:10839   */\n      0x20\n        /* \"#utility.yul\":10826:10835   */\n      dup3\n        /* \"#utility.yul\":10822:10840   */\n      add\n        /* \"#utility.yul\":10814:10840   */\n      swap1\n      pop\n        /* \"#utility.yul\":10886:10895   */\n      dup2\n        /* \"#utility.yul\":10880:10884   */\n      dup2\n        /* \"#utility.yul\":10876:10896   */\n      sub\n        /* \"#utility.yul\":10872:10873   */\n      0x00\n        /* \"#utility.yul\":10861:10870   */\n      dup4\n        /* \"#utility.yul\":10857:10874   */\n      add\n        /* \"#utility.yul\":10850:10897   */\n      mstore\n        /* \"#utility.yul\":10914:11045   */\n      tag_344\n        /* \"#utility.yul\":11040:11044   */\n      dup2\n        /* \"#utility.yul\":10914:11045   */\n      tag_314\n      jump\t// in\n    tag_344:\n        /* \"#utility.yul\":10906:11045   */\n      swap1\n      pop\n        /* \"#utility.yul\":10633:11052   */\n      swap2\n      swap1\n      pop\n      jump\t// out\n        /* \"#utility.yul\":11058:11187   */\n    tag_214:\n        /* \"#utility.yul\":11092:11098   */\n      0x00\n        /* \"#utility.yul\":11119:11139   */\n      tag_346\n      tag_347\n      jump\t// in\n    tag_346:\n        /* \"#utility.yul\":11109:11139   */\n      swap1\n      pop\n        /* \"#utility.yul\":11148:11181   */\n      tag_348\n        /* \"#utility.yul\":11176:11180   */\n      dup3\n        /* \"#utility.yul\":11168:11174   */\n      dup3\n        /* \"#utility.yul\":11148:11181   */\n      tag_349\n      jump\t// in\n    tag_348:\n        /* \"#utility.yul\":11058:11187   */\n      swap2\n      swap1\n      pop\n      jump\t// out\n        /* \"#utility.yul\":11193:11268   */\n    tag_347:\n        /* \"#utility.yul\":11226:11232   */\n      0x00\n        /* \"#utility.yul\":11259:11261   */\n      0x40\n        /* \"#utility.yul\":11253:11262   */\n      mload\n        /* \"#utility.yul\":11243:11262   */\n      swap1\n      pop\n        /* \"#utility.yul\":11193:11268   */\n      swap1\n      jump\t// out\n        /* \"#utility.yul\":11274:11582   */\n    tag_213:\n        /* \"#utility.yul\":11336:11340   */\n      0x00\n        /* \"#utility.yul\":11426:11444   */\n      0xffffffffffffffff\n        /* \"#utility.yul\":11418:11424   */\n      dup3\n        /* \"#utility.yul\":11415:11445   */\n      gt\n        /* \"#utility.yul\":11412:11468   */\n      iszero\n      tag_352\n      jumpi\n        /* \"#utility.yul\":11448:11466   */\n      tag_353\n      tag_26\n      jump\t// in\n    tag_353:\n        /* \"#utility.yul\":11412:11468   */\n    tag_352:\n        /* \"#utility.yul\":11486:11515   */\n      tag_354\n        /* \"#utility.yul\":11508:11514   */\n      dup3\n        /* \"#utility.yul\":11486:11515   */\n      tag_275\n      jump\t// in\n    tag_354:\n        /* \"#utility.yul\":11478:11515   */\n      swap1\n      pop\n        /* \"#utility.yul\":11570:11574   */\n      0x20\n        /* \"#utility.yul\":11564:11568   */\n      dup2\n        /* \"#utility.yul\":11560:11575   */\n      add\n        /* \"#utility.yul\":11552:11575   */\n      swap1\n      pop\n        /* \"#utility.yul\":11274:11582   */\n      swap2\n      swap1\n      pop\n      jump\t// out\n        /* \"#utility.yul\":11588:11730   */\n    tag_260:\n        /* \"#utility.yul\":11665:11669   */\n      0x00\n        /* \"#utility.yul\":11688:11691   */\n      dup2\n        /* \"#utility.yul\":11680:11691   */\n      swap1\n      pop\n        /* \"#utility.yul\":11718:11722   */\n      0x20\n        /* \"#utility.yul\":11713:11716   */\n      dup3\n        /* \"#utility.yul\":11709:11723   */\n      add\n        /* \"#utility.yul\":11701:11723   */\n      swap1\n      pop\n        /* \"#utility.yul\":11588:11730   */\n      swap2\n      swap1\n      pop\n      jump\t// out\n        /* \"#utility.yul\":11736:11860   */\n    tag_256:\n        /* \"#utility.yul\":11813:11819   */\n      0x00\n        /* \"#utility.yul\":11847:11852   */\n      dup2\n        /* \"#utility.yul\":11841:11853   */\n      mload\n        /* \"#utility.yul\":11831:11853   */\n      swap1\n      pop\n        /* \"#utility.yul\":11736:11860   */\n      swap2\n      swap1\n      pop\n      jump\t// out\n        /* \"#utility.yul\":11866:11965   */\n    tag_269:\n        /* \"#utility.yul\":11918:11924   */\n      0x00\n        /* \"#utility.yul\":11952:11957   */\n      dup2\n        /* \"#utility.yul\":11946:11958   */\n      mload\n        /* \"#utility.yul\":11936:11958   */\n      swap1\n      pop\n        /* \"#utility.yul\":11866:11965   */\n      swap2\n      swap1\n      pop\n      jump\t// out\n        /* \"#utility.yul\":11971:12094   */\n    tag_266:\n        /* \"#utility.yul\":12051:12055   */\n      0x00\n        /* \"#utility.yul\":12083:12087   */\n      0x20\n        /* \"#utility.yul\":12078:12081   */\n      dup3\n        /* \"#utility.yul\":12074:12088   */\n      add\n        /* \"#utility.yul\":12066:12088   */\n      swap1\n      pop\n        /* \"#utility.yul\":11971:12094   */\n      swap2\n      swap1\n      pop\n      jump\t// out\n        /* \"#utility.yul\":12100:12294   */\n    tag_258:\n        /* \"#utility.yul\":12209:12220   */\n      0x00\n        /* \"#utility.yul\":12243:12249   */\n      dup3\n        /* \"#utility.yul\":12238:12241   */\n      dup3\n        /* \"#utility.yul\":12231:12250   */\n      mstore\n        /* \"#utility.yul\":12283:12287   */\n      0x20\n        /* \"#utility.yul\":12278:12281   */\n      dup3\n        /* \"#utility.yul\":12274:12288   */\n      add\n        /* \"#utility.yul\":12259:12288   */\n      swap1\n      pop\n        /* \"#utility.yul\":12100:12294   */\n      swap3\n      swap2\n      pop\n      pop\n      jump\t// out\n        /* \"#utility.yul\":12300:12459   */\n    tag_271:\n        /* \"#utility.yul\":12374:12385   */\n      0x00\n        /* \"#utility.yul\":12408:12414   */\n      dup3\n        /* \"#utility.yul\":12403:12406   */\n      dup3\n        /* \"#utility.yul\":12396:12415   */\n      mstore\n        /* \"#utility.yul\":12448:12452   */\n      0x20\n        /* \"#utility.yul\":12443:12446   */\n      dup3\n        /* \"#utility.yul\":12439:12453   */\n      add\n        /* \"#utility.yul\":12424:12453   */\n      swap1\n      pop\n        /* \"#utility.yul\":12300:12459   */\n      swap3\n      swap2\n      pop\n      pop\n      jump\t// out\n        /* \"#utility.yul\":12465:12634   */\n    tag_280:\n        /* \"#utility.yul\":12549:12560   */\n      0x00\n        /* \"#utility.yul\":12583:12589   */\n      dup3\n        /* \"#utility.yul\":12578:12581   */\n      dup3\n        /* \"#utility.yul\":12571:12590   */\n      mstore\n        /* \"#utility.yul\":12623:12627   */\n      0x20\n        /* \"#utility.yul\":12618:12621   */\n      dup3\n        /* \"#utility.yul\":12614:12628   */\n      add\n        /* \"#utility.yul\":12599:12628   */\n      swap1\n      pop\n        /* \"#utility.yul\":12465:12634   */\n      swap3\n      swap2\n      pop\n      pop\n      jump\t// out\n        /* \"#utility.yul\":12640:12788   */\n    tag_287:\n        /* \"#utility.yul\":12742:12753   */\n      0x00\n        /* \"#utility.yul\":12779:12782   */\n      dup2\n        /* \"#utility.yul\":12764:12782   */\n      swap1\n      pop\n        /* \"#utility.yul\":12640:12788   */\n      swap3\n      swap2\n      pop\n      pop\n      jump\t// out\n        /* \"#utility.yul\":12794:12890   */\n    tag_252:\n        /* \"#utility.yul\":12831:12838   */\n      0x00\n        /* \"#utility.yul\":12860:12884   */\n      tag_364\n        /* \"#utility.yul\":12878:12883   */\n      dup3\n        /* \"#utility.yul\":12860:12884   */\n      tag_365\n      jump\t// in\n    tag_364:\n        /* \"#utility.yul\":12849:12884   */\n      swap1\n      pop\n        /* \"#utility.yul\":12794:12890   */\n      swap2\n      swap1\n      pop\n      jump\t// out\n        /* \"#utility.yul\":12896:13022   */\n    tag_365:\n        /* \"#utility.yul\":12933:12940   */\n      0x00\n        /* \"#utility.yul\":12973:13015   */\n      0xffffffffffffffffffffffffffffffffffffffff\n        /* \"#utility.yul\":12966:12971   */\n      dup3\n        /* \"#utility.yul\":12962:13016   */\n      and\n        /* \"#utility.yul\":12951:13016   */\n      swap1\n      pop\n        /* \"#utility.yul\":12896:13022   */\n      swap2\n      swap1\n      pop\n      jump\t// out\n        /* \"#utility.yul\":13028:13105   */\n    tag_322:\n        /* \"#utility.yul\":13065:13072   */\n      0x00\n        /* \"#utility.yul\":13094:13099   */\n      dup2\n        /* \"#utility.yul\":13083:13099   */\n      swap1\n      pop\n        /* \"#utility.yul\":13028:13105   */\n      swap2\n      swap1\n      pop\n      jump\t// out\n        /* \"#utility.yul\":13111:13265   */\n    tag_219:\n        /* \"#utility.yul\":13195:13201   */\n      dup3\n        /* \"#utility.yul\":13190:13193   */\n      dup2\n        /* \"#utility.yul\":13185:13188   */\n      dup4\n        /* \"#utility.yul\":13172:13202   */\n      calldatacopy\n        /* \"#utility.yul\":13257:13258   */\n      0x00\n        /* \"#utility.yul\":13248:13254   */\n      dup4\n        /* \"#utility.yul\":13243:13246   */\n      dup4\n        /* \"#utility.yul\":13239:13255   */\n      add\n        /* \"#utility.yul\":13232:13259   */\n      mstore\n        /* \"#utility.yul\":13111:13265   */\n      pop\n      pop\n      pop\n      jump\t// out\n        /* \"#utility.yul\":13271:13578   */\n    tag_273:\n        /* \"#utility.yul\":13339:13340   */\n      0x00\n        /* \"#utility.yul\":13349:13462   */\n    tag_370:\n        /* \"#utility.yul\":13363:13369   */\n      dup4\n        /* \"#utility.yul\":13360:13361   */\n      dup2\n        /* \"#utility.yul\":13357:13370   */\n      lt\n        /* \"#utility.yul\":13349:13462   */\n      iszero\n      tag_372\n      jumpi\n        /* \"#utility.yul\":13448:13449   */\n      dup1\n        /* \"#utility.yul\":13443:13446   */\n      dup3\n        /* \"#utility.yul\":13439:13450   */\n      add\n        /* \"#utility.yul\":13433:13451   */\n      mload\n        /* \"#utility.yul\":13429:13430   */\n      dup2\n        /* \"#utility.yul\":13424:13427   */\n      dup5\n        /* \"#utility.yul\":13420:13431   */\n      add\n        /* \"#utility.yul\":13413:13452   */\n      mstore\n        /* \"#utility.yul\":13385:13387   */\n      0x20\n        /* \"#utility.yul\":13382:13383   */\n      dup2\n        /* \"#utility.yul\":13378:13388   */\n      add\n        /* \"#utility.yul\":13373:13388   */\n      swap1\n      pop\n        /* \"#utility.yul\":13349:13462   */\n      jump(tag_370)\n    tag_372:\n        /* \"#utility.yul\":13480:13486   */\n      dup4\n        /* \"#utility.yul\":13477:13478   */\n      dup2\n        /* \"#utility.yul\":13474:13487   */\n      gt\n        /* \"#utility.yul\":13471:13572   */\n      iszero\n      tag_373\n      jumpi\n        /* \"#utility.yul\":13560:13561   */\n      0x00\n        /* \"#utility.yul\":13551:13557   */\n      dup5\n        /* \"#utility.yul\":13546:13549   */\n      dup5\n        /* \"#utility.yul\":13542:13558   */\n      add\n        /* \"#utility.yul\":13535:13562   */\n      mstore\n        /* \"#utility.yul\":13471:13572   */\n    tag_373:\n        /* \"#utility.yul\":13320:13578   */\n      pop\n        /* \"#utility.yul\":13271:13578   */\n      pop\n      pop\n      pop\n      jump\t// out\n        /* \"#utility.yul\":13584:13904   */\n    tag_37:\n        /* \"#utility.yul\":13628:13634   */\n      0x00\n        /* \"#utility.yul\":13665:13666   */\n      0x02\n        /* \"#utility.yul\":13659:13663   */\n      dup3\n        /* \"#utility.yul\":13655:13667   */\n      div\n        /* \"#utility.yul\":13645:13667   */\n      swap1\n      pop\n        /* \"#utility.yul\":13712:13713   */\n      0x01\n        /* \"#utility.yul\":13706:13710   */\n      dup3\n        /* \"#utility.yul\":13702:13714   */\n      and\n        /* \"#utility.yul\":13733:13751   */\n      dup1\n        /* \"#utility.yul\":13723:13804   */\n      tag_375\n      jumpi\n        /* \"#utility.yul\":13789:13793   */\n      0x7f\n        /* \"#utility.yul\":13781:13787   */\n      dup3\n        /* \"#utility.yul\":13777:13794   */\n      and\n        /* \"#utility.yul\":13767:13794   */\n      swap2\n      pop\n        /* \"#utility.yul\":13723:13804   */\n    tag_375:\n        /* \"#utility.yul\":13851:13853   */\n      0x20\n        /* \"#utility.yul\":13843:13849   */\n      dup3\n        /* \"#utility.yul\":13840:13854   */\n      lt\n        /* \"#utility.yul\":13820:13838   */\n      dup2\n        /* \"#utility.yul\":13817:13855   */\n      eq\n        /* \"#utility.yul\":13814:13898   */\n      iszero\n      tag_376\n      jumpi\n        /* \"#utility.yul\":13870:13888   */\n      tag_377\n      tag_378\n      jump\t// in\n    tag_377:\n        /* \"#utility.yul\":13814:13898   */\n    tag_376:\n        /* \"#utility.yul\":13635:13904   */\n      pop\n        /* \"#utility.yul\":13584:13904   */\n      swap2\n      swap1\n      pop\n      jump\t// out\n        /* \"#utility.yul\":13910:14191   */\n    tag_349:\n        /* \"#utility.yul\":13993:14020   */\n      tag_380\n        /* \"#utility.yul\":14015:14019   */\n      dup3\n        /* \"#utility.yul\":13993:14020   */\n      tag_275\n      jump\t// in\n    tag_380:\n        /* \"#utility.yul\":13985:13991   */\n      dup2\n        /* \"#utility.yul\":13981:14021   */\n      add\n        /* \"#utility.yul\":14123:14129   */\n      dup2\n        /* \"#utility.yul\":14111:14121   */\n      dup2\n        /* \"#utility.yul\":14108:14130   */\n      lt\n        /* \"#utility.yul\":14087:14105   */\n      0xffffffffffffffff\n        /* \"#utility.yul\":14075:14085   */\n      dup3\n        /* \"#utility.yul\":14072:14106   */\n      gt\n        /* \"#utility.yul\":14069:14131   */\n      or\n        /* \"#utility.yul\":14066:14154   */\n      iszero\n      tag_381\n      jumpi\n        /* \"#utility.yul\":14134:14152   */\n      tag_382\n      tag_26\n      jump\t// in\n    tag_382:\n        /* \"#utility.yul\":14066:14154   */\n    tag_381:\n        /* \"#utility.yul\":14174:14184   */\n      dup1\n        /* \"#utility.yul\":14170:14172   */\n      0x40\n        /* \"#utility.yul\":14163:14185   */\n      mstore\n        /* \"#utility.yul\":13953:14191   */\n      pop\n        /* \"#utility.yul\":13910:14191   */\n      pop\n      pop\n      jump\t// out\n        /* \"#utility.yul\":14197:14430   */\n    tag_45:\n        /* \"#utility.yul\":14236:14239   */\n      0x00\n        /* \"#utility.yul\":14259:14283   */\n      tag_384\n        /* \"#utility.yul\":14277:14282   */\n      dup3\n        /* \"#utility.yul\":14259:14283   */\n      tag_322\n      jump\t// in\n    tag_384:\n        /* \"#utility.yul\":14250:14283   */\n      swap2\n      pop\n        /* \"#utility.yul\":14305:14371   */\n      0xffffffffffffffffffffffffffffffffffffffffffffffffffffffffffffffff\n        /* \"#utility.yul\":14298:14303   */\n      dup3\n        /* \"#utility.yul\":14295:14372   */\n      eq\n        /* \"#utility.yul\":14292:14395   */\n      iszero\n      tag_385\n      jumpi\n        /* \"#utility.yul\":14375:14393   */\n      tag_386\n      tag_387\n      jump\t// in\n    tag_386:\n        /* \"#utility.yul\":14292:14395   */\n    tag_385:\n        /* \"#utility.yul\":14422:14423   */\n      0x01\n        /* \"#utility.yul\":14415:14420   */\n      dup3\n        /* \"#utility.yul\":14411:14424   */\n      add\n        /* \"#utility.yul\":14404:14424   */\n      swap1\n      pop\n        /* \"#utility.yul\":14197:14430   */\n      swap2\n      swap1\n      pop\n      jump\t// out\n        /* \"#utility.yul\":14436:14616   */\n    tag_387:\n        /* \"#utility.yul\":14484:14561   */\n      0x4e487b7100000000000000000000000000000000000000000000000000000000\n        /* \"#utility.yul\":14481:14482   */\n      0x00\n        /* \"#utility.yul\":14474:14562   */\n      mstore\n        /* \"#utility.yul\":14581:14585   */\n      0x11\n        /* \"#utility.yul\":14578:14579   */\n      0x04\n        /* \"#utility.yul\":14571:14586   */\n      mstore\n        /* \"#utility.yul\":14605:14609   */\n      0x24\n        /* \"#utility.yul\":14602:14603   */\n      0x00\n        /* \"#utility.yul\":14595:14610   */\n      revert\n        /* \"#utility.yul\":14622:14802   */\n    tag_378:\n        /* \"#utility.yul\":14670:14747   */\n      0x4e487b7100000000000000000000000000000000000000000000000000000000\n        /* \"#utility.yul\":14667:14668   */\n      0x00\n        /* \"#utility.yul\":14660:14748   */\n      mstore\n        /* \"#utility.yul\":14767:14771   */\n      0x22\n        /* \"#utility.yul\":14764:14765   */\n      0x04\n        /* \"#utility.yul\":14757:14772   */\n      mstore\n        /* \"#utility.yul\":14791:14795   */\n      0x24\n        /* \"#utility.yul\":14788:14789   */\n      0x00\n        /* \"#utility.yul\":14781:14796   */\n      revert\n        /* \"#utility.yul\":14808:14988   */\n    tag_34:\n        /* \"#utility.yul\":14856:14933   */\n      0x4e487b7100000000000000000000000000000000000000000000000000000000\n        /* \"#utility.yul\":14853:14854   */\n      0x00\n        /* \"#utility.yul\":14846:14934   */\n      mstore\n        /* \"#utility.yul\":14953:14957   */\n      0x32\n        /* \"#utility.yul\":14950:14951   */\n      0x04\n        /* \"#utility.yul\":14943:14958   */\n      mstore\n        /* \"#utility.yul\":14977:14981   */\n      0x24\n        /* \"#utility.yul\":14974:14975   */\n      0x00\n        /* \"#utility.yul\":14967:14982   */\n      revert\n        /* \"#utility.yul\":14994:15174   */\n    tag_26:\n        /* \"#utility.yul\":15042:15119   */\n      0x4e487b7100000000000000000000000000000000000000000000000000000000\n        /* \"#utility.yul\":15039:15040   */\n      0x00\n        /* \"#utility.yul\":15032:15120   */\n      mstore\n        /* \"#utility.yul\":15139:15143   */\n      0x41\n        /* \"#utility.yul\":15136:15137   */\n      0x04\n        /* \"#utility.yul\":15129:15144   */\n      mstore\n        /* \"#utility.yul\":15163:15167   */\n      0x24\n        /* \"#utility.yul\":15160:15161   */\n      0x00\n        /* \"#utility.yul\":15153:15168   */\n      revert\n        /* \"#utility.yul\":15180:15297   */\n    tag_228:\n        /* \"#utility.yul\":15289:15290   */\n      0x00\n        /* \"#utility.yul\":15286:15287   */\n      dup1\n        /* \"#utility.yul\":15279:15291   */\n      revert\n        /* \"#utility.yul\":15303:15420   */\n    tag_217:\n        /* \"#utility.yul\":15412:15413   */\n      0x00\n        /* \"#utility.yul\":15409:15410   */\n      dup1\n        /* \"#utility.yul\":15402:15414   */\n      revert\n        /* \"#utility.yul\":15426:15543   */\n    tag_237:\n        /* \"#utility.yul\":15535:15536   */\n      0x00\n        /* \"#utility.yul\":15532:15533   */\n      dup1\n        /* \"#utility.yul\":15525:15537   */\n      revert\n        /* \"#utility.yul\":15549:15666   */\n    tag_233:\n        /* \"#utility.yul\":15658:15659   */\n      0x00\n        /* \"#utility.yul\":15655:15656   */\n      dup1\n        /* \"#utility.yul\":15648:15660   */\n      revert\n        /* \"#utility.yul\":15672:15774   */\n    tag_275:\n        /* \"#utility.yul\":15713:15719   */\n      0x00\n        /* \"#utility.yul\":15764:15766   */\n      0x1f\n        /* \"#utility.yul\":15760:15767   */\n      not\n        /* \"#utility.yul\":15755:15757   */\n      0x1f\n        /* \"#utility.yul\":15748:15753   */\n      dup4\n        /* \"#utility.yul\":15744:15758   */\n      add\n        /* \"#utility.yul\":15740:15768   */\n      and\n        /* \"#utility.yul\":15730:15768   */\n      swap1\n      pop\n        /* \"#utility.yul\":15672:15774   */\n      swap2\n      swap1\n      pop\n      jump\t// out\n        /* \"#utility.yul\":15780:16004   */\n    tag_293:\n        /* \"#utility.yul\":15920:15954   */\n      0x566f746572206861766520616c72656164792068617320726967687420746f20\n        /* \"#utility.yul\":15916:15917   */\n      0x00\n        /* \"#utility.yul\":15908:15914   */\n      dup3\n        /* \"#utility.yul\":15904:15918   */\n      add\n        /* \"#utility.yul\":15897:15955   */\n      mstore\n        /* \"#utility.yul\":15989:15996   */\n      0x766f74652e000000000000000000000000000000000000000000000000000000\n        /* \"#utility.yul\":15984:15986   */\n      0x20\n        /* \"#utility.yul\":15976:15982   */\n      dup3\n        /* \"#utility.yul\":15972:15987   */\n      add\n        /* \"#utility.yul\":15965:15997   */\n      mstore\n        /* \"#utility.yul\":15780:16004   */\n      pop\n      jump\t// out\n        /* \"#utility.yul\":16010:16230   */\n    tag_298:\n        /* \"#utility.yul\":16150:16184   */\n      0x43616e64696461746520796f752073656e7420646f6573206e6f742065786973\n        /* \"#utility.yul\":16146:16147   */\n      0x00\n        /* \"#utility.yul\":16138:16144   */\n      dup3\n        /* \"#utility.yul\":16134:16148   */\n      add\n        /* \"#utility.yul\":16127:16185   */\n      mstore\n        /* \"#utility.yul\":16219:16222   */\n      0x7400000000000000000000000000000000000000000000000000000000000000\n        /* \"#utility.yul\":16214:16216   */\n      0x20\n        /* \"#utility.yul\":16206:16212   */\n      dup3\n        /* \"#utility.yul\":16202:16217   */\n      add\n        /* \"#utility.yul\":16195:16223   */\n      mstore\n        /* \"#utility.yul\":16010:16230   */\n      pop\n      jump\t// out\n        /* \"#utility.yul\":16236:16470   */\n    tag_303:\n        /* \"#utility.yul\":16376:16410   */\n      0x4d6178206163636f756e7420766f74657320697320726561636865642e204261\n        /* \"#utility.yul\":16372:16373   */\n      0x00\n        /* \"#utility.yul\":16364:16370   */\n      dup3\n        /* \"#utility.yul\":16360:16374   */\n      add\n        /* \"#utility.yul\":16353:16411   */\n      mstore\n        /* \"#utility.yul\":16445:16462   */\n      0x6c6c6f7420697320434c4f5345442e0000000000000000000000000000000000\n        /* \"#utility.yul\":16440:16442   */\n      0x20\n        /* \"#utility.yul\":16432:16438   */\n      dup3\n        /* \"#utility.yul\":16428:16443   */\n      add\n        /* \"#utility.yul\":16421:16463   */\n      mstore\n        /* \"#utility.yul\":16236:16470   */\n      pop\n      jump\t// out\n        /* \"#utility.yul\":16476:16710   */\n    tag_308:\n        /* \"#utility.yul\":16616:16650   */\n      0x4f6e6c792074686520636f6e7472616374206f776e65722063616e2067697665\n        /* \"#utility.yul\":16612:16613   */\n      0x00\n        /* \"#utility.yul\":16604:16610   */\n      dup3\n        /* \"#utility.yul\":16600:16614   */\n      add\n        /* \"#utility.yul\":16593:16651   */\n      mstore\n        /* \"#utility.yul\":16685:16702   */\n      0x20726967687420746f20766f74652e0000000000000000000000000000000000\n        /* \"#utility.yul\":16680:16682   */\n      0x20\n        /* \"#utility.yul\":16672:16678   */\n      dup3\n        /* \"#utility.yul\":16668:16683   */\n      add\n        /* \"#utility.yul\":16661:16703   */\n      mstore\n        /* \"#utility.yul\":16476:16710   */\n      pop\n      jump\t// out\n        /* \"#utility.yul\":16716:16867   */\n    tag_313:\n        /* \"#utility.yul\":16856:16859   */\n      0x2000000000000000000000000000000000000000000000000000000000000000\n        /* \"#utility.yul\":16852:16853   */\n      0x00\n        /* \"#utility.yul\":16844:16850   */\n      dup3\n        /* \"#utility.yul\":16840:16854   */\n      add\n        /* \"#utility.yul\":16833:16860   */\n      mstore\n        /* \"#utility.yul\":16716:16867   */\n      pop\n      jump\t// out\n        /* \"#utility.yul\":16873:17043   */\n    tag_318:\n        /* \"#utility.yul\":17013:17035   */\n      0x566f74657220616c726561647920766f7465642e000000000000000000000000\n        /* \"#utility.yul\":17009:17010   */\n      0x00\n        /* \"#utility.yul\":17001:17007   */\n      dup3\n        /* \"#utility.yul\":16997:17011   */\n      add\n        /* \"#utility.yul\":16990:17036   */\n      mstore\n        /* \"#utility.yul\":16873:17043   */\n      pop\n      jump\t// out\n        /* \"#utility.yul\":17049:17171   */\n    tag_223:\n        /* \"#utility.yul\":17122:17146   */\n      tag_404\n        /* \"#utility.yul\":17140:17145   */\n      dup2\n        /* \"#utility.yul\":17122:17146   */\n      tag_252\n      jump\t// in\n    tag_404:\n        /* \"#utility.yul\":17115:17120   */\n      dup2\n        /* \"#utility.yul\":17112:17147   */\n      eq\n        /* \"#utility.yul\":17102:17165   */\n      tag_405\n      jumpi\n        /* \"#utility.yul\":17161:17162   */\n      0x00\n        /* \"#utility.yul\":17158:17159   */\n      dup1\n        /* \"#utility.yul\":17151:17163   */\n      revert\n        /* \"#utility.yul\":17102:17165   */\n    tag_405:\n        /* \"#utility.yul\":17049:17171   */\n      pop\n      jump\t// out\n    stop\n    data_2acf605e5cd1b7b0e6ec2502e1f86c81c25a2363f294a2e9f46595fbaefb5b6c 5468657265206973206120746965206f6e2042616c6c6f742e20596f752073686f756c642073746172742061206e65772062616c6c6f742077697468207469652063616e646964617465733a\n\n    auxdata: 0xa2646970667358221220854afedc98206c2b2dc102e00a37df1c8195d69a6392bf0a01e083522bad65b764736f6c63430008070033\n}\n",
				"bytecode": {
					"linkReferences": {},
					"object": "60806040523480156200001157600080fd5b5060405162001d5038038062001d5083398181016040528101906200003791906200035b565b336000806101000a81548173ffffffffffffffffffffffffffffffffffffffff021916908373ffffffffffffffffffffffffffffffffffffffff16021790555062000088826200009760201b60201c565b80600481905550505062000649565b60005b8151811015620001435760026040518060400160405280848481518110620000c757620000c6620005a7565b5b602002602001015181526020016000815250908060018154018082558091505060019003906000526020600020906002020160009091909190915060008201518160000190805190602001906200012092919062000147565b5060208201518160010155505080806200013a90620004fb565b9150506200009a565b5050565b82805462000155906200048f565b90600052602060002090601f016020900481019282620001795760008555620001c5565b82601f106200019457805160ff1916838001178555620001c5565b82800160010185558215620001c5579182015b82811115620001c4578251825591602001919060010190620001a7565b5b509050620001d49190620001d8565b5090565b5b80821115620001f3576000816000905550600101620001d9565b5090565b60006200020e6200020884620003ea565b620003c1565b905080838252602082019050828560208602820111156200023457620002336200060a565b5b60005b858110156200028957815167ffffffffffffffff8111156200025e576200025d62000605565b5b8086016200026d898262000311565b8552602085019450602084019350505060018101905062000237565b5050509392505050565b6000620002aa620002a48462000419565b620003c1565b905082815260208101848484011115620002c957620002c86200060f565b5b620002d684828562000459565b509392505050565b600082601f830112620002f657620002f562000605565b5b815162000308848260208601620001f7565b91505092915050565b600082601f83011262000329576200032862000605565b5b81516200033b84826020860162000293565b91505092915050565b60008151905062000355816200062f565b92915050565b6000806040838503121562000375576200037462000619565b5b600083015167ffffffffffffffff81111562000396576200039562000614565b5b620003a485828601620002de565b9250506020620003b78582860162000344565b9150509250929050565b6000620003cd620003e0565b9050620003db8282620004c5565b919050565b6000604051905090565b600067ffffffffffffffff821115620004085762000407620005d6565b5b602082029050602081019050919050565b600067ffffffffffffffff821115620004375762000436620005d6565b5b62000442826200061e565b9050602081019050919050565b6000819050919050565b60005b83811015620004795780820151818401526020810190506200045c565b8381111562000489576000848401525b50505050565b60006002820490506001821680620004a857607f821691505b60208210811415620004bf57620004be62000578565b5b50919050565b620004d0826200061e565b810181811067ffffffffffffffff82111715620004f257620004f1620005d6565b5b80604052505050565b600062000508826200044f565b91507fffffffffffffffffffffffffffffffffffffffffffffffffffffffffffffffff8214156200053e576200053d62000549565b5b600182019050919050565b7f4e487b7100000000000000000000000000000000000000000000000000000000600052601160045260246000fd5b7f4e487b7100000000000000000000000000000000000000000000000000000000600052602260045260246000fd5b7f4e487b7100000000000000000000000000000000000000000000000000000000600052603260045260246000fd5b7f4e487b7100000000000000000000000000000000000000000000000000000000600052604160045260246000fd5b600080fd5b600080fd5b600080fd5b600080fd5b600080fd5b6000601f19601f8301169050919050565b6200063a816200044f565b81146200064657600080fd5b50565b6116f780620006596000396000f3fe608060405234801561001057600080fd5b506004361061004c5760003560e01c8063011d10231461005157806353f06ecd1461006f57806368957b201461008f578063fc36e15b146100ab575b600080fd5b6100596100c7565b60405161006691906110dc565b60405180910390f35b610077610218565b60405161008693929190611120565b60405180910390f35b6100a960048036038101906100a49190610dec565b610247565b005b6100c560048036038101906100c09190610e48565b610320565b005b60606000600280549050905060008167ffffffffffffffff8111156100ef576100ee61147c565b5b60405190808252806020026020018201604052801561012257816020015b606081526020019060019003908161010d5790505b50905060005b8281101561020f57600281815481106101445761014361144d565b5b9060005260206000209060020201600001805461016090611343565b80601f016020809104026020016040519081016040528092919081815260200182805461018c90611343565b80156101d95780601f106101ae576101008083540402835291602001916101d9565b820191906000526020600020905b8154815290600101906020018083116101bc57829003601f168201915b50505050508282815181106101f1576101f061144d565b5b60200260200101819052508080610207906113a6565b915050610128565b50809250505090565b606060008060006102276104e7565b9050806000015193508060200151925061023f610972565b915050909192565b8161025061097a565b6102586109c2565b61026181610a0b565b61026a81610a9e565b81600160008573ffffffffffffffffffffffffffffffffffffffff1673ffffffffffffffffffffffffffffffffffffffff16815260200190815260200160002060000190805190602001906102c0929190610caa565b5060018060008573ffffffffffffffffffffffffffffffffffffffff1673ffffffffffffffffffffffffffffffffffffffff16815260200190815260200160002060010160006101000a81548160ff021916908315150217905550505050565b3361032961097a565b61033281610a0b565b61033b81610a9e565b6000600160003373ffffffffffffffffffffffffffffffffffffffff1673ffffffffffffffffffffffffffffffffffffffff1681526020019081526020016000209050600080600090505b6002805490508110156104d75761044a600282815481106103aa576103a961144d565b5b906000526020600020906002020160000180546103c690611343565b80601f01602080910402602001604051908101604052809291908181526020018280546103f290611343565b801561043f5780601f106104145761010080835404028352916020019161043f565b820191906000526020600020905b81548152906001019060200180831161042257829003601f168201915b505050505086610aea565b156104c457600281815481106104635761046261144d565b5b90600052602060002090600202016001016000815480929190610485906113a6565b919050555060018360010160016101000a81548160ff021916908315150217905550600360008154809291906104ba906113a6565b9190505550600191505b80806104cf906113a6565b915050610386565b506104e181610b43565b50505050565b6104ef610d30565b6000806000600280549050905060008167ffffffffffffffff8111156105185761051761147c565b5b60405190808252806020026020018201604052801561054b57816020015b60608152602001906001900390816105365790505b50905060008060019050606060005b858110156108185787600282815481106105775761057661144d565b5b90600052602060002090600202016001015411156106f857600281815481106105a3576105a261144d565b5b906000526020600020906002020160010154975080965082156106f35760009250600093508567ffffffffffffffff8111156105e2576105e161147c565b5b60405190808252806020026020018201604052801561061557816020015b60608152602001906001900390816106005790505b5094506002818154811061062c5761062b61144d565b5b9060005260206000209060020201600001805461064890611343565b80601f016020809104026020016040519081016040528092919081815260200182805461067490611343565b80156106c15780601f10610696576101008083540402835291602001916106c1565b820191906000526020600020905b8154815290600101906020018083116106a457829003601f168201915b50505050508585815181106106d9576106d861144d565b5b602002602001018190525083806106ef906113a6565b9450505b610805565b876002828154811061070d5761070c61144d565b5b906000526020600020906002020160010154141561080457600192506002818154811061073d5761073c61144d565b5b9060005260206000209060020201600001805461075990611343565b80601f016020809104026020016040519081016040528092919081815260200182805461078590611343565b80156107d25780601f106107a7576101008083540402835291602001916107d2565b820191906000526020600020905b8154815290600101906020018083116107b557829003601f168201915b50505050508585815181106107ea576107e961144d565b5b60200260200101819052508380610800906113a6565b9450505b5b8080610810906113a6565b91505061055a565b50811561089c5760005b84518110156108645761084f828683815181106108425761084161144d565b5b6020026020010151610b86565b9150808061085c906113a6565b915050610822565b5060006108896040518060800160405280604c8152602001611676604c913983610b86565b9050610896831582610bb2565b50610968565b600286815481106108b0576108af61144d565b5b90600052602060002090600202016040518060400160405290816000820180546108d990611343565b80601f016020809104026020016040519081016040528092919081815260200182805461090590611343565b80156109525780601f1061092757610100808354040283529160200191610952565b820191906000526020600020905b81548152906001019060200180831161093557829003601f168201915b5050505050815260200160018201548152505097505b5050505050505090565b600030905090565b600454600354106109c0576040517f08c379a00000000000000000000000000000000000000000000000000000000081526004016109b79061119e565b60405180910390fd5b565b6109ca610bfa565b610a09576040517f08c379a0000000000000000000000000000000000000000000000000000000008152600401610a00906111be565b60405180910390fd5b565b600160008273ffffffffffffffffffffffffffffffffffffffff1673ffffffffffffffffffffffffffffffffffffffff16815260200190815260200160002060010160009054906101000a900460ff1615610a9b576040517f08c379a0000000000000000000000000000000000000000000000000000000008152600401610a929061115e565b60405180910390fd5b50565b610aa781610c51565b15610ae7576040517f08c379a0000000000000000000000000000000000000000000000000000000008152600401610ade906111de565b60405180910390fd5b50565b600081604051602001610afd91906110fe565b6040516020818303038152906040528051906020012083604051602001610b2491906110fe565b6040516020818303038152906040528051906020012014905092915050565b80610b83576040517f08c379a0000000000000000000000000000000000000000000000000000000008152600401610b7a9061117e565b60405180910390fd5b50565b60608282604051602001610b9b9291906110ad565b604051602081830303815290604052905092915050565b818190610bf5576040517f08c379a0000000000000000000000000000000000000000000000000000000008152600401610bec91906110fe565b60405180910390fd5b505050565b60008060009054906101000a900473ffffffffffffffffffffffffffffffffffffffff1673ffffffffffffffffffffffffffffffffffffffff163373ffffffffffffffffffffffffffffffffffffffff1614905090565b6000600160008373ffffffffffffffffffffffffffffffffffffffff1673ffffffffffffffffffffffffffffffffffffffff16815260200190815260200160002060010160019054906101000a900460ff169050919050565b828054610cb690611343565b90600052602060002090601f016020900481019282610cd85760008555610d1f565b82601f10610cf157805160ff1916838001178555610d1f565b82800160010185558215610d1f579182015b82811115610d1e578251825591602001919060010190610d03565b5b509050610d2c9190610d4a565b5090565b604051806040016040528060608152602001600081525090565b5b80821115610d63576000816000905550600101610d4b565b5090565b6000610d7a610d7584611223565b6111fe565b905082815260208101848484011115610d9657610d956114b0565b5b610da1848285611301565b509392505050565b600081359050610db88161165e565b92915050565b600082601f830112610dd357610dd26114ab565b5b8135610de3848260208601610d67565b91505092915050565b60008060408385031215610e0357610e026114ba565b5b6000610e1185828601610da9565b925050602083013567ffffffffffffffff811115610e3257610e316114b5565b5b610e3e85828601610dbe565b9150509250929050565b600060208284031215610e5e57610e5d6114ba565b5b600082013567ffffffffffffffff811115610e7c57610e7b6114b5565b5b610e8884828501610dbe565b91505092915050565b6000610e9d8383610f29565b905092915050565b610eae816112c5565b82525050565b6000610ebf82611264565b610ec98185611287565b935083602082028501610edb85611254565b8060005b85811015610f175784840389528151610ef88582610e91565b9450610f038361127a565b925060208a01995050600181019050610edf565b50829750879550505050505092915050565b6000610f348261126f565b610f3e8185611298565b9350610f4e818560208601611310565b610f57816114bf565b840191505092915050565b6000610f6d8261126f565b610f7781856112a9565b9350610f87818560208601611310565b610f90816114bf565b840191505092915050565b6000610fa68261126f565b610fb081856112ba565b9350610fc0818560208601611310565b80840191505092915050565b6000610fd96025836112a9565b9150610fe4826114d0565b604082019050919050565b6000610ffc6021836112a9565b91506110078261151f565b604082019050919050565b600061101f602f836112a9565b915061102a8261156e565b604082019050919050565b6000611042602f836112a9565b915061104d826115bd565b604082019050919050565b60006110656001836112ba565b91506110708261160c565b600182019050919050565b60006110886014836112a9565b915061109382611635565b602082019050919050565b6110a7816112f7565b82525050565b60006110b98285610f9b565b91506110c482611058565b91506110d08284610f9b565b91508190509392505050565b600060208201905081810360008301526110f68184610eb4565b905092915050565b600060208201905081810360008301526111188184610f62565b905092915050565b6000606082019050818103600083015261113a8186610f62565b9050611149602083018561109e565b6111566040830184610ea5565b949350505050565b6000602082019050818103600083015261117781610fcc565b9050919050565b6000602082019050818103600083015261119781610fef565b9050919050565b600060208201905081810360008301526111b781611012565b9050919050565b600060208201905081810360008301526111d781611035565b9050919050565b600060208201905081810360008301526111f78161107b565b9050919050565b6000611208611219565b90506112148282611375565b919050565b6000604051905090565b600067ffffffffffffffff82111561123e5761123d61147c565b5b611247826114bf565b9050602081019050919050565b6000819050602082019050919050565b600081519050919050565b600081519050919050565b6000602082019050919050565b600082825260208201905092915050565b600082825260208201905092915050565b600082825260208201905092915050565b600081905092915050565b60006112d0826112d7565b9050919050565b600073ffffffffffffffffffffffffffffffffffffffff82169050919050565b6000819050919050565b82818337600083830152505050565b60005b8381101561132e578082015181840152602081019050611313565b8381111561133d576000848401525b50505050565b6000600282049050600182168061135b57607f821691505b6020821081141561136f5761136e61141e565b5b50919050565b61137e826114bf565b810181811067ffffffffffffffff8211171561139d5761139c61147c565b5b80604052505050565b60006113b1826112f7565b91507fffffffffffffffffffffffffffffffffffffffffffffffffffffffffffffffff8214156113e4576113e36113ef565b5b600182019050919050565b7f4e487b7100000000000000000000000000000000000000000000000000000000600052601160045260246000fd5b7f4e487b7100000000000000000000000000000000000000000000000000000000600052602260045260246000fd5b7f4e487b7100000000000000000000000000000000000000000000000000000000600052603260045260246000fd5b7f4e487b7100000000000000000000000000000000000000000000000000000000600052604160045260246000fd5b600080fd5b600080fd5b600080fd5b600080fd5b6000601f19601f8301169050919050565b7f566f746572206861766520616c72656164792068617320726967687420746f2060008201527f766f74652e000000000000000000000000000000000000000000000000000000602082015250565b7f43616e64696461746520796f752073656e7420646f6573206e6f74206578697360008201527f7400000000000000000000000000000000000000000000000000000000000000602082015250565b7f4d6178206163636f756e7420766f74657320697320726561636865642e20426160008201527f6c6c6f7420697320434c4f5345442e0000000000000000000000000000000000602082015250565b7f4f6e6c792074686520636f6e7472616374206f776e65722063616e206769766560008201527f20726967687420746f20766f74652e0000000000000000000000000000000000602082015250565b7f2000000000000000000000000000000000000000000000000000000000000000600082015250565b7f566f74657220616c726561647920766f7465642e000000000000000000000000600082015250565b611667816112c5565b811461167257600080fd5b5056fe5468657265206973206120746965206f6e2042616c6c6f742e20596f752073686f756c642073746172742061206e65772062616c6c6f742077697468207469652063616e646964617465733aa2646970667358221220854afedc98206c2b2dc102e00a37df1c8195d69a6392bf0a01e083522bad65b764736f6c63430008070033",
					"opcodes": "PUSH1 0x80 PUSH1 0x40 MSTORE CALLVALUE DUP1 ISZERO PUSH3 0x11 JUMPI PUSH1 0x0 DUP1 REVERT JUMPDEST POP PUSH1 0x40 MLOAD PUSH3 0x1D50 CODESIZE SUB DUP1 PUSH3 0x1D50 DUP4 CODECOPY DUP2 DUP2 ADD PUSH1 0x40 MSTORE DUP2 ADD SWAP1 PUSH3 0x37 SWAP2 SWAP1 PUSH3 0x35B JUMP JUMPDEST CALLER PUSH1 0x0 DUP1 PUSH2 0x100 EXP DUP2 SLOAD DUP2 PUSH20 0xFFFFFFFFFFFFFFFFFFFFFFFFFFFFFFFFFFFFFFFF MUL NOT AND SWAP1 DUP4 PUSH20 0xFFFFFFFFFFFFFFFFFFFFFFFFFFFFFFFFFFFFFFFF AND MUL OR SWAP1 SSTORE POP PUSH3 0x88 DUP3 PUSH3 0x97 PUSH1 0x20 SHL PUSH1 0x20 SHR JUMP JUMPDEST DUP1 PUSH1 0x4 DUP2 SWAP1 SSTORE POP POP POP PUSH3 0x649 JUMP JUMPDEST PUSH1 0x0 JUMPDEST DUP2 MLOAD DUP2 LT ISZERO PUSH3 0x143 JUMPI PUSH1 0x2 PUSH1 0x40 MLOAD DUP1 PUSH1 0x40 ADD PUSH1 0x40 MSTORE DUP1 DUP5 DUP5 DUP2 MLOAD DUP2 LT PUSH3 0xC7 JUMPI PUSH3 0xC6 PUSH3 0x5A7 JUMP JUMPDEST JUMPDEST PUSH1 0x20 MUL PUSH1 0x20 ADD ADD MLOAD DUP2 MSTORE PUSH1 0x20 ADD PUSH1 0x0 DUP2 MSTORE POP SWAP1 DUP1 PUSH1 0x1 DUP2 SLOAD ADD DUP1 DUP3 SSTORE DUP1 SWAP2 POP POP PUSH1 0x1 SWAP1 SUB SWAP1 PUSH1 0x0 MSTORE PUSH1 0x20 PUSH1 0x0 KECCAK256 SWAP1 PUSH1 0x2 MUL ADD PUSH1 0x0 SWAP1 SWAP2 SWAP1 SWAP2 SWAP1 SWAP2 POP PUSH1 0x0 DUP3 ADD MLOAD DUP2 PUSH1 0x0 ADD SWAP1 DUP1 MLOAD SWAP1 PUSH1 0x20 ADD SWAP1 PUSH3 0x120 SWAP3 SWAP2 SWAP1 PUSH3 0x147 JUMP JUMPDEST POP PUSH1 0x20 DUP3 ADD MLOAD DUP2 PUSH1 0x1 ADD SSTORE POP POP DUP1 DUP1 PUSH3 0x13A SWAP1 PUSH3 0x4FB JUMP JUMPDEST SWAP2 POP POP PUSH3 0x9A JUMP JUMPDEST POP POP JUMP JUMPDEST DUP3 DUP1 SLOAD PUSH3 0x155 SWAP1 PUSH3 0x48F JUMP JUMPDEST SWAP1 PUSH1 0x0 MSTORE PUSH1 0x20 PUSH1 0x0 KECCAK256 SWAP1 PUSH1 0x1F ADD PUSH1 0x20 SWAP1 DIV DUP2 ADD SWAP3 DUP3 PUSH3 0x179 JUMPI PUSH1 0x0 DUP6 SSTORE PUSH3 0x1C5 JUMP JUMPDEST DUP3 PUSH1 0x1F LT PUSH3 0x194 JUMPI DUP1 MLOAD PUSH1 0xFF NOT AND DUP4 DUP1 ADD OR DUP6 SSTORE PUSH3 0x1C5 JUMP JUMPDEST DUP3 DUP1 ADD PUSH1 0x1 ADD DUP6 SSTORE DUP3 ISZERO PUSH3 0x1C5 JUMPI SWAP2 DUP3 ADD JUMPDEST DUP3 DUP2 GT ISZERO PUSH3 0x1C4 JUMPI DUP3 MLOAD DUP3 SSTORE SWAP2 PUSH1 0x20 ADD SWAP2 SWAP1 PUSH1 0x1 ADD SWAP1 PUSH3 0x1A7 JUMP JUMPDEST JUMPDEST POP SWAP1 POP PUSH3 0x1D4 SWAP2 SWAP1 PUSH3 0x1D8 JUMP JUMPDEST POP SWAP1 JUMP JUMPDEST JUMPDEST DUP1 DUP3 GT ISZERO PUSH3 0x1F3 JUMPI PUSH1 0x0 DUP2 PUSH1 0x0 SWAP1 SSTORE POP PUSH1 0x1 ADD PUSH3 0x1D9 JUMP JUMPDEST POP SWAP1 JUMP JUMPDEST PUSH1 0x0 PUSH3 0x20E PUSH3 0x208 DUP5 PUSH3 0x3EA JUMP JUMPDEST PUSH3 0x3C1 JUMP JUMPDEST SWAP1 POP DUP1 DUP4 DUP3 MSTORE PUSH1 0x20 DUP3 ADD SWAP1 POP DUP3 DUP6 PUSH1 0x20 DUP7 MUL DUP3 ADD GT ISZERO PUSH3 0x234 JUMPI PUSH3 0x233 PUSH3 0x60A JUMP JUMPDEST JUMPDEST PUSH1 0x0 JUMPDEST DUP6 DUP2 LT ISZERO PUSH3 0x289 JUMPI DUP2 MLOAD PUSH8 0xFFFFFFFFFFFFFFFF DUP2 GT ISZERO PUSH3 0x25E JUMPI PUSH3 0x25D PUSH3 0x605 JUMP JUMPDEST JUMPDEST DUP1 DUP7 ADD PUSH3 0x26D DUP10 DUP3 PUSH3 0x311 JUMP JUMPDEST DUP6 MSTORE PUSH1 0x20 DUP6 ADD SWAP5 POP PUSH1 0x20 DUP5 ADD SWAP4 POP POP POP PUSH1 0x1 DUP2 ADD SWAP1 POP PUSH3 0x237 JUMP JUMPDEST POP POP POP SWAP4 SWAP3 POP POP POP JUMP JUMPDEST PUSH1 0x0 PUSH3 0x2AA PUSH3 0x2A4 DUP5 PUSH3 0x419 JUMP JUMPDEST PUSH3 0x3C1 JUMP JUMPDEST SWAP1 POP DUP3 DUP2 MSTORE PUSH1 0x20 DUP2 ADD DUP5 DUP5 DUP5 ADD GT ISZERO PUSH3 0x2C9 JUMPI PUSH3 0x2C8 PUSH3 0x60F JUMP JUMPDEST JUMPDEST PUSH3 0x2D6 DUP5 DUP3 DUP6 PUSH3 0x459 JUMP JUMPDEST POP SWAP4 SWAP3 POP POP POP JUMP JUMPDEST PUSH1 0x0 DUP3 PUSH1 0x1F DUP4 ADD SLT PUSH3 0x2F6 JUMPI PUSH3 0x2F5 PUSH3 0x605 JUMP JUMPDEST JUMPDEST DUP2 MLOAD PUSH3 0x308 DUP5 DUP3 PUSH1 0x20 DUP7 ADD PUSH3 0x1F7 JUMP JUMPDEST SWAP2 POP POP SWAP3 SWAP2 POP POP JUMP JUMPDEST PUSH1 0x0 DUP3 PUSH1 0x1F DUP4 ADD SLT PUSH3 0x329 JUMPI PUSH3 0x328 PUSH3 0x605 JUMP JUMPDEST JUMPDEST DUP2 MLOAD PUSH3 0x33B DUP5 DUP3 PUSH1 0x20 DUP7 ADD PUSH3 0x293 JUMP JUMPDEST SWAP2 POP POP SWAP3 SWAP2 POP POP JUMP JUMPDEST PUSH1 0x0 DUP2 MLOAD SWAP1 POP PUSH3 0x355 DUP2 PUSH3 0x62F JUMP JUMPDEST SWAP3 SWAP2 POP POP JUMP JUMPDEST PUSH1 0x0 DUP1 PUSH1 0x40 DUP4 DUP6 SUB SLT ISZERO PUSH3 0x375 JUMPI PUSH3 0x374 PUSH3 0x619 JUMP JUMPDEST JUMPDEST PUSH1 0x0 DUP4 ADD MLOAD PUSH8 0xFFFFFFFFFFFFFFFF DUP2 GT ISZERO PUSH3 0x396 JUMPI PUSH3 0x395 PUSH3 0x614 JUMP JUMPDEST JUMPDEST PUSH3 0x3A4 DUP6 DUP3 DUP7 ADD PUSH3 0x2DE JUMP JUMPDEST SWAP3 POP POP PUSH1 0x20 PUSH3 0x3B7 DUP6 DUP3 DUP7 ADD PUSH3 0x344 JUMP JUMPDEST SWAP2 POP POP SWAP3 POP SWAP3 SWAP1 POP JUMP JUMPDEST PUSH1 0x0 PUSH3 0x3CD PUSH3 0x3E0 JUMP JUMPDEST SWAP1 POP PUSH3 0x3DB DUP3 DUP3 PUSH3 0x4C5 JUMP JUMPDEST SWAP2 SWAP1 POP JUMP JUMPDEST PUSH1 0x0 PUSH1 0x40 MLOAD SWAP1 POP SWAP1 JUMP JUMPDEST PUSH1 0x0 PUSH8 0xFFFFFFFFFFFFFFFF DUP3 GT ISZERO PUSH3 0x408 JUMPI PUSH3 0x407 PUSH3 0x5D6 JUMP JUMPDEST JUMPDEST PUSH1 0x20 DUP3 MUL SWAP1 POP PUSH1 0x20 DUP2 ADD SWAP1 POP SWAP2 SWAP1 POP JUMP JUMPDEST PUSH1 0x0 PUSH8 0xFFFFFFFFFFFFFFFF DUP3 GT ISZERO PUSH3 0x437 JUMPI PUSH3 0x436 PUSH3 0x5D6 JUMP JUMPDEST JUMPDEST PUSH3 0x442 DUP3 PUSH3 0x61E JUMP JUMPDEST SWAP1 POP PUSH1 0x20 DUP2 ADD SWAP1 POP SWAP2 SWAP1 POP JUMP JUMPDEST PUSH1 0x0 DUP2 SWAP1 POP SWAP2 SWAP1 POP JUMP JUMPDEST PUSH1 0x0 JUMPDEST DUP4 DUP2 LT ISZERO PUSH3 0x479 JUMPI DUP1 DUP3 ADD MLOAD DUP2 DUP5 ADD MSTORE PUSH1 0x20 DUP2 ADD SWAP1 POP PUSH3 0x45C JUMP JUMPDEST DUP4 DUP2 GT ISZERO PUSH3 0x489 JUMPI PUSH1 0x0 DUP5 DUP5 ADD MSTORE JUMPDEST POP POP POP POP JUMP JUMPDEST PUSH1 0x0 PUSH1 0x2 DUP3 DIV SWAP1 POP PUSH1 0x1 DUP3 AND DUP1 PUSH3 0x4A8 JUMPI PUSH1 0x7F DUP3 AND SWAP2 POP JUMPDEST PUSH1 0x20 DUP3 LT DUP2 EQ ISZERO PUSH3 0x4BF JUMPI PUSH3 0x4BE PUSH3 0x578 JUMP JUMPDEST JUMPDEST POP SWAP2 SWAP1 POP JUMP JUMPDEST PUSH3 0x4D0 DUP3 PUSH3 0x61E JUMP JUMPDEST DUP2 ADD DUP2 DUP2 LT PUSH8 0xFFFFFFFFFFFFFFFF DUP3 GT OR ISZERO PUSH3 0x4F2 JUMPI PUSH3 0x4F1 PUSH3 0x5D6 JUMP JUMPDEST JUMPDEST DUP1 PUSH1 0x40 MSTORE POP POP POP JUMP JUMPDEST PUSH1 0x0 PUSH3 0x508 DUP3 PUSH3 0x44F JUMP JUMPDEST SWAP2 POP PUSH32 0xFFFFFFFFFFFFFFFFFFFFFFFFFFFFFFFFFFFFFFFFFFFFFFFFFFFFFFFFFFFFFFFF DUP3 EQ ISZERO PUSH3 0x53E JUMPI PUSH3 0x53D PUSH3 0x549 JUMP JUMPDEST JUMPDEST PUSH1 0x1 DUP3 ADD SWAP1 POP SWAP2 SWAP1 POP JUMP JUMPDEST PUSH32 0x4E487B7100000000000000000000000000000000000000000000000000000000 PUSH1 0x0 MSTORE PUSH1 0x11 PUSH1 0x4 MSTORE PUSH1 0x24 PUSH1 0x0 REVERT JUMPDEST PUSH32 0x4E487B7100000000000000000000000000000000000000000000000000000000 PUSH1 0x0 MSTORE PUSH1 0x22 PUSH1 0x4 MSTORE PUSH1 0x24 PUSH1 0x0 REVERT JUMPDEST PUSH32 0x4E487B7100000000000000000000000000000000000000000000000000000000 PUSH1 0x0 MSTORE PUSH1 0x32 PUSH1 0x4 MSTORE PUSH1 0x24 PUSH1 0x0 REVERT JUMPDEST PUSH32 0x4E487B7100000000000000000000000000000000000000000000000000000000 PUSH1 0x0 MSTORE PUSH1 0x41 PUSH1 0x4 MSTORE PUSH1 0x24 PUSH1 0x0 REVERT JUMPDEST PUSH1 0x0 DUP1 REVERT JUMPDEST PUSH1 0x0 DUP1 REVERT JUMPDEST PUSH1 0x0 DUP1 REVERT JUMPDEST PUSH1 0x0 DUP1 REVERT JUMPDEST PUSH1 0x0 DUP1 REVERT JUMPDEST PUSH1 0x0 PUSH1 0x1F NOT PUSH1 0x1F DUP4 ADD AND SWAP1 POP SWAP2 SWAP1 POP JUMP JUMPDEST PUSH3 0x63A DUP2 PUSH3 0x44F JUMP JUMPDEST DUP2 EQ PUSH3 0x646 JUMPI PUSH1 0x0 DUP1 REVERT JUMPDEST POP JUMP JUMPDEST PUSH2 0x16F7 DUP1 PUSH3 0x659 PUSH1 0x0 CODECOPY PUSH1 0x0 RETURN INVALID PUSH1 0x80 PUSH1 0x40 MSTORE CALLVALUE DUP1 ISZERO PUSH2 0x10 JUMPI PUSH1 0x0 DUP1 REVERT JUMPDEST POP PUSH1 0x4 CALLDATASIZE LT PUSH2 0x4C JUMPI PUSH1 0x0 CALLDATALOAD PUSH1 0xE0 SHR DUP1 PUSH4 0x11D1023 EQ PUSH2 0x51 JUMPI DUP1 PUSH4 0x53F06ECD EQ PUSH2 0x6F JUMPI DUP1 PUSH4 0x68957B20 EQ PUSH2 0x8F JUMPI DUP1 PUSH4 0xFC36E15B EQ PUSH2 0xAB JUMPI JUMPDEST PUSH1 0x0 DUP1 REVERT JUMPDEST PUSH2 0x59 PUSH2 0xC7 JUMP JUMPDEST PUSH1 0x40 MLOAD PUSH2 0x66 SWAP2 SWAP1 PUSH2 0x10DC JUMP JUMPDEST PUSH1 0x40 MLOAD DUP1 SWAP2 SUB SWAP1 RETURN JUMPDEST PUSH2 0x77 PUSH2 0x218 JUMP JUMPDEST PUSH1 0x40 MLOAD PUSH2 0x86 SWAP4 SWAP3 SWAP2 SWAP1 PUSH2 0x1120 JUMP JUMPDEST PUSH1 0x40 MLOAD DUP1 SWAP2 SUB SWAP1 RETURN JUMPDEST PUSH2 0xA9 PUSH1 0x4 DUP1 CALLDATASIZE SUB DUP2 ADD SWAP1 PUSH2 0xA4 SWAP2 SWAP1 PUSH2 0xDEC JUMP JUMPDEST PUSH2 0x247 JUMP JUMPDEST STOP JUMPDEST PUSH2 0xC5 PUSH1 0x4 DUP1 CALLDATASIZE SUB DUP2 ADD SWAP1 PUSH2 0xC0 SWAP2 SWAP1 PUSH2 0xE48 JUMP JUMPDEST PUSH2 0x320 JUMP JUMPDEST STOP JUMPDEST PUSH1 0x60 PUSH1 0x0 PUSH1 0x2 DUP1 SLOAD SWAP1 POP SWAP1 POP PUSH1 0x0 DUP2 PUSH8 0xFFFFFFFFFFFFFFFF DUP2 GT ISZERO PUSH2 0xEF JUMPI PUSH2 0xEE PUSH2 0x147C JUMP JUMPDEST JUMPDEST PUSH1 0x40 MLOAD SWAP1 DUP1 DUP3 MSTORE DUP1 PUSH1 0x20 MUL PUSH1 0x20 ADD DUP3 ADD PUSH1 0x40 MSTORE DUP1 ISZERO PUSH2 0x122 JUMPI DUP2 PUSH1 0x20 ADD JUMPDEST PUSH1 0x60 DUP2 MSTORE PUSH1 0x20 ADD SWAP1 PUSH1 0x1 SWAP1 SUB SWAP1 DUP2 PUSH2 0x10D JUMPI SWAP1 POP JUMPDEST POP SWAP1 POP PUSH1 0x0 JUMPDEST DUP3 DUP2 LT ISZERO PUSH2 0x20F JUMPI PUSH1 0x2 DUP2 DUP2 SLOAD DUP2 LT PUSH2 0x144 JUMPI PUSH2 0x143 PUSH2 0x144D JUMP JUMPDEST JUMPDEST SWAP1 PUSH1 0x0 MSTORE PUSH1 0x20 PUSH1 0x0 KECCAK256 SWAP1 PUSH1 0x2 MUL ADD PUSH1 0x0 ADD DUP1 SLOAD PUSH2 0x160 SWAP1 PUSH2 0x1343 JUMP JUMPDEST DUP1 PUSH1 0x1F ADD PUSH1 0x20 DUP1 SWAP2 DIV MUL PUSH1 0x20 ADD PUSH1 0x40 MLOAD SWAP1 DUP2 ADD PUSH1 0x40 MSTORE DUP1 SWAP3 SWAP2 SWAP1 DUP2 DUP2 MSTORE PUSH1 0x20 ADD DUP3 DUP1 SLOAD PUSH2 0x18C SWAP1 PUSH2 0x1343 JUMP JUMPDEST DUP1 ISZERO PUSH2 0x1D9 JUMPI DUP1 PUSH1 0x1F LT PUSH2 0x1AE JUMPI PUSH2 0x100 DUP1 DUP4 SLOAD DIV MUL DUP4 MSTORE SWAP2 PUSH1 0x20 ADD SWAP2 PUSH2 0x1D9 JUMP JUMPDEST DUP3 ADD SWAP2 SWAP1 PUSH1 0x0 MSTORE PUSH1 0x20 PUSH1 0x0 KECCAK256 SWAP1 JUMPDEST DUP2 SLOAD DUP2 MSTORE SWAP1 PUSH1 0x1 ADD SWAP1 PUSH1 0x20 ADD DUP1 DUP4 GT PUSH2 0x1BC JUMPI DUP3 SWAP1 SUB PUSH1 0x1F AND DUP3 ADD SWAP2 JUMPDEST POP POP POP POP POP DUP3 DUP3 DUP2 MLOAD DUP2 LT PUSH2 0x1F1 JUMPI PUSH2 0x1F0 PUSH2 0x144D JUMP JUMPDEST JUMPDEST PUSH1 0x20 MUL PUSH1 0x20 ADD ADD DUP2 SWAP1 MSTORE POP DUP1 DUP1 PUSH2 0x207 SWAP1 PUSH2 0x13A6 JUMP JUMPDEST SWAP2 POP POP PUSH2 0x128 JUMP JUMPDEST POP DUP1 SWAP3 POP POP POP SWAP1 JUMP JUMPDEST PUSH1 0x60 PUSH1 0x0 DUP1 PUSH1 0x0 PUSH2 0x227 PUSH2 0x4E7 JUMP JUMPDEST SWAP1 POP DUP1 PUSH1 0x0 ADD MLOAD SWAP4 POP DUP1 PUSH1 0x20 ADD MLOAD SWAP3 POP PUSH2 0x23F PUSH2 0x972 JUMP JUMPDEST SWAP2 POP POP SWAP1 SWAP2 SWAP3 JUMP JUMPDEST DUP2 PUSH2 0x250 PUSH2 0x97A JUMP JUMPDEST PUSH2 0x258 PUSH2 0x9C2 JUMP JUMPDEST PUSH2 0x261 DUP2 PUSH2 0xA0B JUMP JUMPDEST PUSH2 0x26A DUP2 PUSH2 0xA9E JUMP JUMPDEST DUP2 PUSH1 0x1 PUSH1 0x0 DUP6 PUSH20 0xFFFFFFFFFFFFFFFFFFFFFFFFFFFFFFFFFFFFFFFF AND PUSH20 0xFFFFFFFFFFFFFFFFFFFFFFFFFFFFFFFFFFFFFFFF AND DUP2 MSTORE PUSH1 0x20 ADD SWAP1 DUP2 MSTORE PUSH1 0x20 ADD PUSH1 0x0 KECCAK256 PUSH1 0x0 ADD SWAP1 DUP1 MLOAD SWAP1 PUSH1 0x20 ADD SWAP1 PUSH2 0x2C0 SWAP3 SWAP2 SWAP1 PUSH2 0xCAA JUMP JUMPDEST POP PUSH1 0x1 DUP1 PUSH1 0x0 DUP6 PUSH20 0xFFFFFFFFFFFFFFFFFFFFFFFFFFFFFFFFFFFFFFFF AND PUSH20 0xFFFFFFFFFFFFFFFFFFFFFFFFFFFFFFFFFFFFFFFF AND DUP2 MSTORE PUSH1 0x20 ADD SWAP1 DUP2 MSTORE PUSH1 0x20 ADD PUSH1 0x0 KECCAK256 PUSH1 0x1 ADD PUSH1 0x0 PUSH2 0x100 EXP DUP2 SLOAD DUP2 PUSH1 0xFF MUL NOT AND SWAP1 DUP4 ISZERO ISZERO MUL OR SWAP1 SSTORE POP POP POP POP JUMP JUMPDEST CALLER PUSH2 0x329 PUSH2 0x97A JUMP JUMPDEST PUSH2 0x332 DUP2 PUSH2 0xA0B JUMP JUMPDEST PUSH2 0x33B DUP2 PUSH2 0xA9E JUMP JUMPDEST PUSH1 0x0 PUSH1 0x1 PUSH1 0x0 CALLER PUSH20 0xFFFFFFFFFFFFFFFFFFFFFFFFFFFFFFFFFFFFFFFF AND PUSH20 0xFFFFFFFFFFFFFFFFFFFFFFFFFFFFFFFFFFFFFFFF AND DUP2 MSTORE PUSH1 0x20 ADD SWAP1 DUP2 MSTORE PUSH1 0x20 ADD PUSH1 0x0 KECCAK256 SWAP1 POP PUSH1 0x0 DUP1 PUSH1 0x0 SWAP1 POP JUMPDEST PUSH1 0x2 DUP1 SLOAD SWAP1 POP DUP2 LT ISZERO PUSH2 0x4D7 JUMPI PUSH2 0x44A PUSH1 0x2 DUP3 DUP2 SLOAD DUP2 LT PUSH2 0x3AA JUMPI PUSH2 0x3A9 PUSH2 0x144D JUMP JUMPDEST JUMPDEST SWAP1 PUSH1 0x0 MSTORE PUSH1 0x20 PUSH1 0x0 KECCAK256 SWAP1 PUSH1 0x2 MUL ADD PUSH1 0x0 ADD DUP1 SLOAD PUSH2 0x3C6 SWAP1 PUSH2 0x1343 JUMP JUMPDEST DUP1 PUSH1 0x1F ADD PUSH1 0x20 DUP1 SWAP2 DIV MUL PUSH1 0x20 ADD PUSH1 0x40 MLOAD SWAP1 DUP2 ADD PUSH1 0x40 MSTORE DUP1 SWAP3 SWAP2 SWAP1 DUP2 DUP2 MSTORE PUSH1 0x20 ADD DUP3 DUP1 SLOAD PUSH2 0x3F2 SWAP1 PUSH2 0x1343 JUMP JUMPDEST DUP1 ISZERO PUSH2 0x43F JUMPI DUP1 PUSH1 0x1F LT PUSH2 0x414 JUMPI PUSH2 0x100 DUP1 DUP4 SLOAD DIV MUL DUP4 MSTORE SWAP2 PUSH1 0x20 ADD SWAP2 PUSH2 0x43F JUMP JUMPDEST DUP3 ADD SWAP2 SWAP1 PUSH1 0x0 MSTORE PUSH1 0x20 PUSH1 0x0 KECCAK256 SWAP1 JUMPDEST DUP2 SLOAD DUP2 MSTORE SWAP1 PUSH1 0x1 ADD SWAP1 PUSH1 0x20 ADD DUP1 DUP4 GT PUSH2 0x422 JUMPI DUP3 SWAP1 SUB PUSH1 0x1F AND DUP3 ADD SWAP2 JUMPDEST POP POP POP POP POP DUP7 PUSH2 0xAEA JUMP JUMPDEST ISZERO PUSH2 0x4C4 JUMPI PUSH1 0x2 DUP2 DUP2 SLOAD DUP2 LT PUSH2 0x463 JUMPI PUSH2 0x462 PUSH2 0x144D JUMP JUMPDEST JUMPDEST SWAP1 PUSH1 0x0 MSTORE PUSH1 0x20 PUSH1 0x0 KECCAK256 SWAP1 PUSH1 0x2 MUL ADD PUSH1 0x1 ADD PUSH1 0x0 DUP2 SLOAD DUP1 SWAP3 SWAP2 SWAP1 PUSH2 0x485 SWAP1 PUSH2 0x13A6 JUMP JUMPDEST SWAP2 SWAP1 POP SSTORE POP PUSH1 0x1 DUP4 PUSH1 0x1 ADD PUSH1 0x1 PUSH2 0x100 EXP DUP2 SLOAD DUP2 PUSH1 0xFF MUL NOT AND SWAP1 DUP4 ISZERO ISZERO MUL OR SWAP1 SSTORE POP PUSH1 0x3 PUSH1 0x0 DUP2 SLOAD DUP1 SWAP3 SWAP2 SWAP1 PUSH2 0x4BA SWAP1 PUSH2 0x13A6 JUMP JUMPDEST SWAP2 SWAP1 POP SSTORE POP PUSH1 0x1 SWAP2 POP JUMPDEST DUP1 DUP1 PUSH2 0x4CF SWAP1 PUSH2 0x13A6 JUMP JUMPDEST SWAP2 POP POP PUSH2 0x386 JUMP JUMPDEST POP PUSH2 0x4E1 DUP2 PUSH2 0xB43 JUMP JUMPDEST POP POP POP POP JUMP JUMPDEST PUSH2 0x4EF PUSH2 0xD30 JUMP JUMPDEST PUSH1 0x0 DUP1 PUSH1 0x0 PUSH1 0x2 DUP1 SLOAD SWAP1 POP SWAP1 POP PUSH1 0x0 DUP2 PUSH8 0xFFFFFFFFFFFFFFFF DUP2 GT ISZERO PUSH2 0x518 JUMPI PUSH2 0x517 PUSH2 0x147C JUMP JUMPDEST JUMPDEST PUSH1 0x40 MLOAD SWAP1 DUP1 DUP3 MSTORE DUP1 PUSH1 0x20 MUL PUSH1 0x20 ADD DUP3 ADD PUSH1 0x40 MSTORE DUP1 ISZERO PUSH2 0x54B JUMPI DUP2 PUSH1 0x20 ADD JUMPDEST PUSH1 0x60 DUP2 MSTORE PUSH1 0x20 ADD SWAP1 PUSH1 0x1 SWAP1 SUB SWAP1 DUP2 PUSH2 0x536 JUMPI SWAP1 POP JUMPDEST POP SWAP1 POP PUSH1 0x0 DUP1 PUSH1 0x1 SWAP1 POP PUSH1 0x60 PUSH1 0x0 JUMPDEST DUP6 DUP2 LT ISZERO PUSH2 0x818 JUMPI DUP8 PUSH1 0x2 DUP3 DUP2 SLOAD DUP2 LT PUSH2 0x577 JUMPI PUSH2 0x576 PUSH2 0x144D JUMP JUMPDEST JUMPDEST SWAP1 PUSH1 0x0 MSTORE PUSH1 0x20 PUSH1 0x0 KECCAK256 SWAP1 PUSH1 0x2 MUL ADD PUSH1 0x1 ADD SLOAD GT ISZERO PUSH2 0x6F8 JUMPI PUSH1 0x2 DUP2 DUP2 SLOAD DUP2 LT PUSH2 0x5A3 JUMPI PUSH2 0x5A2 PUSH2 0x144D JUMP JUMPDEST JUMPDEST SWAP1 PUSH1 0x0 MSTORE PUSH1 0x20 PUSH1 0x0 KECCAK256 SWAP1 PUSH1 0x2 MUL ADD PUSH1 0x1 ADD SLOAD SWAP8 POP DUP1 SWAP7 POP DUP3 ISZERO PUSH2 0x6F3 JUMPI PUSH1 0x0 SWAP3 POP PUSH1 0x0 SWAP4 POP DUP6 PUSH8 0xFFFFFFFFFFFFFFFF DUP2 GT ISZERO PUSH2 0x5E2 JUMPI PUSH2 0x5E1 PUSH2 0x147C JUMP JUMPDEST JUMPDEST PUSH1 0x40 MLOAD SWAP1 DUP1 DUP3 MSTORE DUP1 PUSH1 0x20 MUL PUSH1 0x20 ADD DUP3 ADD PUSH1 0x40 MSTORE DUP1 ISZERO PUSH2 0x615 JUMPI DUP2 PUSH1 0x20 ADD JUMPDEST PUSH1 0x60 DUP2 MSTORE PUSH1 0x20 ADD SWAP1 PUSH1 0x1 SWAP1 SUB SWAP1 DUP2 PUSH2 0x600 JUMPI SWAP1 POP JUMPDEST POP SWAP5 POP PUSH1 0x2 DUP2 DUP2 SLOAD DUP2 LT PUSH2 0x62C JUMPI PUSH2 0x62B PUSH2 0x144D JUMP JUMPDEST JUMPDEST SWAP1 PUSH1 0x0 MSTORE PUSH1 0x20 PUSH1 0x0 KECCAK256 SWAP1 PUSH1 0x2 MUL ADD PUSH1 0x0 ADD DUP1 SLOAD PUSH2 0x648 SWAP1 PUSH2 0x1343 JUMP JUMPDEST DUP1 PUSH1 0x1F ADD PUSH1 0x20 DUP1 SWAP2 DIV MUL PUSH1 0x20 ADD PUSH1 0x40 MLOAD SWAP1 DUP2 ADD PUSH1 0x40 MSTORE DUP1 SWAP3 SWAP2 SWAP1 DUP2 DUP2 MSTORE PUSH1 0x20 ADD DUP3 DUP1 SLOAD PUSH2 0x674 SWAP1 PUSH2 0x1343 JUMP JUMPDEST DUP1 ISZERO PUSH2 0x6C1 JUMPI DUP1 PUSH1 0x1F LT PUSH2 0x696 JUMPI PUSH2 0x100 DUP1 DUP4 SLOAD DIV MUL DUP4 MSTORE SWAP2 PUSH1 0x20 ADD SWAP2 PUSH2 0x6C1 JUMP JUMPDEST DUP3 ADD SWAP2 SWAP1 PUSH1 0x0 MSTORE PUSH1 0x20 PUSH1 0x0 KECCAK256 SWAP1 JUMPDEST DUP2 SLOAD DUP2 MSTORE SWAP1 PUSH1 0x1 ADD SWAP1 PUSH1 0x20 ADD DUP1 DUP4 GT PUSH2 0x6A4 JUMPI DUP3 SWAP1 SUB PUSH1 0x1F AND DUP3 ADD SWAP2 JUMPDEST POP POP POP POP POP DUP6 DUP6 DUP2 MLOAD DUP2 LT PUSH2 0x6D9 JUMPI PUSH2 0x6D8 PUSH2 0x144D JUMP JUMPDEST JUMPDEST PUSH1 0x20 MUL PUSH1 0x20 ADD ADD DUP2 SWAP1 MSTORE POP DUP4 DUP1 PUSH2 0x6EF SWAP1 PUSH2 0x13A6 JUMP JUMPDEST SWAP5 POP POP JUMPDEST PUSH2 0x805 JUMP JUMPDEST DUP8 PUSH1 0x2 DUP3 DUP2 SLOAD DUP2 LT PUSH2 0x70D JUMPI PUSH2 0x70C PUSH2 0x144D JUMP JUMPDEST JUMPDEST SWAP1 PUSH1 0x0 MSTORE PUSH1 0x20 PUSH1 0x0 KECCAK256 SWAP1 PUSH1 0x2 MUL ADD PUSH1 0x1 ADD SLOAD EQ ISZERO PUSH2 0x804 JUMPI PUSH1 0x1 SWAP3 POP PUSH1 0x2 DUP2 DUP2 SLOAD DUP2 LT PUSH2 0x73D JUMPI PUSH2 0x73C PUSH2 0x144D JUMP JUMPDEST JUMPDEST SWAP1 PUSH1 0x0 MSTORE PUSH1 0x20 PUSH1 0x0 KECCAK256 SWAP1 PUSH1 0x2 MUL ADD PUSH1 0x0 ADD DUP1 SLOAD PUSH2 0x759 SWAP1 PUSH2 0x1343 JUMP JUMPDEST DUP1 PUSH1 0x1F ADD PUSH1 0x20 DUP1 SWAP2 DIV MUL PUSH1 0x20 ADD PUSH1 0x40 MLOAD SWAP1 DUP2 ADD PUSH1 0x40 MSTORE DUP1 SWAP3 SWAP2 SWAP1 DUP2 DUP2 MSTORE PUSH1 0x20 ADD DUP3 DUP1 SLOAD PUSH2 0x785 SWAP1 PUSH2 0x1343 JUMP JUMPDEST DUP1 ISZERO PUSH2 0x7D2 JUMPI DUP1 PUSH1 0x1F LT PUSH2 0x7A7 JUMPI PUSH2 0x100 DUP1 DUP4 SLOAD DIV MUL DUP4 MSTORE SWAP2 PUSH1 0x20 ADD SWAP2 PUSH2 0x7D2 JUMP JUMPDEST DUP3 ADD SWAP2 SWAP1 PUSH1 0x0 MSTORE PUSH1 0x20 PUSH1 0x0 KECCAK256 SWAP1 JUMPDEST DUP2 SLOAD DUP2 MSTORE SWAP1 PUSH1 0x1 ADD SWAP1 PUSH1 0x20 ADD DUP1 DUP4 GT PUSH2 0x7B5 JUMPI DUP3 SWAP1 SUB PUSH1 0x1F AND DUP3 ADD SWAP2 JUMPDEST POP POP POP POP POP DUP6 DUP6 DUP2 MLOAD DUP2 LT PUSH2 0x7EA JUMPI PUSH2 0x7E9 PUSH2 0x144D JUMP JUMPDEST JUMPDEST PUSH1 0x20 MUL PUSH1 0x20 ADD ADD DUP2 SWAP1 MSTORE POP DUP4 DUP1 PUSH2 0x800 SWAP1 PUSH2 0x13A6 JUMP JUMPDEST SWAP5 POP POP JUMPDEST JUMPDEST DUP1 DUP1 PUSH2 0x810 SWAP1 PUSH2 0x13A6 JUMP JUMPDEST SWAP2 POP POP PUSH2 0x55A JUMP JUMPDEST POP DUP2 ISZERO PUSH2 0x89C JUMPI PUSH1 0x0 JUMPDEST DUP5 MLOAD DUP2 LT ISZERO PUSH2 0x864 JUMPI PUSH2 0x84F DUP3 DUP7 DUP4 DUP2 MLOAD DUP2 LT PUSH2 0x842 JUMPI PUSH2 0x841 PUSH2 0x144D JUMP JUMPDEST JUMPDEST PUSH1 0x20 MUL PUSH1 0x20 ADD ADD MLOAD PUSH2 0xB86 JUMP JUMPDEST SWAP2 POP DUP1 DUP1 PUSH2 0x85C SWAP1 PUSH2 0x13A6 JUMP JUMPDEST SWAP2 POP POP PUSH2 0x822 JUMP JUMPDEST POP PUSH1 0x0 PUSH2 0x889 PUSH1 0x40 MLOAD DUP1 PUSH1 0x80 ADD PUSH1 0x40 MSTORE DUP1 PUSH1 0x4C DUP2 MSTORE PUSH1 0x20 ADD PUSH2 0x1676 PUSH1 0x4C SWAP2 CODECOPY DUP4 PUSH2 0xB86 JUMP JUMPDEST SWAP1 POP PUSH2 0x896 DUP4 ISZERO DUP3 PUSH2 0xBB2 JUMP JUMPDEST POP PUSH2 0x968 JUMP JUMPDEST PUSH1 0x2 DUP7 DUP2 SLOAD DUP2 LT PUSH2 0x8B0 JUMPI PUSH2 0x8AF PUSH2 0x144D JUMP JUMPDEST JUMPDEST SWAP1 PUSH1 0x0 MSTORE PUSH1 0x20 PUSH1 0x0 KECCAK256 SWAP1 PUSH1 0x2 MUL ADD PUSH1 0x40 MLOAD DUP1 PUSH1 0x40 ADD PUSH1 0x40 MSTORE SWAP1 DUP2 PUSH1 0x0 DUP3 ADD DUP1 SLOAD PUSH2 0x8D9 SWAP1 PUSH2 0x1343 JUMP JUMPDEST DUP1 PUSH1 0x1F ADD PUSH1 0x20 DUP1 SWAP2 DIV MUL PUSH1 0x20 ADD PUSH1 0x40 MLOAD SWAP1 DUP2 ADD PUSH1 0x40 MSTORE DUP1 SWAP3 SWAP2 SWAP1 DUP2 DUP2 MSTORE PUSH1 0x20 ADD DUP3 DUP1 SLOAD PUSH2 0x905 SWAP1 PUSH2 0x1343 JUMP JUMPDEST DUP1 ISZERO PUSH2 0x952 JUMPI DUP1 PUSH1 0x1F LT PUSH2 0x927 JUMPI PUSH2 0x100 DUP1 DUP4 SLOAD DIV MUL DUP4 MSTORE SWAP2 PUSH1 0x20 ADD SWAP2 PUSH2 0x952 JUMP JUMPDEST DUP3 ADD SWAP2 SWAP1 PUSH1 0x0 MSTORE PUSH1 0x20 PUSH1 0x0 KECCAK256 SWAP1 JUMPDEST DUP2 SLOAD DUP2 MSTORE SWAP1 PUSH1 0x1 ADD SWAP1 PUSH1 0x20 ADD DUP1 DUP4 GT PUSH2 0x935 JUMPI DUP3 SWAP1 SUB PUSH1 0x1F AND DUP3 ADD SWAP2 JUMPDEST POP POP POP POP POP DUP2 MSTORE PUSH1 0x20 ADD PUSH1 0x1 DUP3 ADD SLOAD DUP2 MSTORE POP POP SWAP8 POP JUMPDEST POP POP POP POP POP POP POP SWAP1 JUMP JUMPDEST PUSH1 0x0 ADDRESS SWAP1 POP SWAP1 JUMP JUMPDEST PUSH1 0x4 SLOAD PUSH1 0x3 SLOAD LT PUSH2 0x9C0 JUMPI PUSH1 0x40 MLOAD PUSH32 0x8C379A000000000000000000000000000000000000000000000000000000000 DUP2 MSTORE PUSH1 0x4 ADD PUSH2 0x9B7 SWAP1 PUSH2 0x119E JUMP JUMPDEST PUSH1 0x40 MLOAD DUP1 SWAP2 SUB SWAP1 REVERT JUMPDEST JUMP JUMPDEST PUSH2 0x9CA PUSH2 0xBFA JUMP JUMPDEST PUSH2 0xA09 JUMPI PUSH1 0x40 MLOAD PUSH32 0x8C379A000000000000000000000000000000000000000000000000000000000 DUP2 MSTORE PUSH1 0x4 ADD PUSH2 0xA00 SWAP1 PUSH2 0x11BE JUMP JUMPDEST PUSH1 0x40 MLOAD DUP1 SWAP2 SUB SWAP1 REVERT JUMPDEST JUMP JUMPDEST PUSH1 0x1 PUSH1 0x0 DUP3 PUSH20 0xFFFFFFFFFFFFFFFFFFFFFFFFFFFFFFFFFFFFFFFF AND PUSH20 0xFFFFFFFFFFFFFFFFFFFFFFFFFFFFFFFFFFFFFFFF AND DUP2 MSTORE PUSH1 0x20 ADD SWAP1 DUP2 MSTORE PUSH1 0x20 ADD PUSH1 0x0 KECCAK256 PUSH1 0x1 ADD PUSH1 0x0 SWAP1 SLOAD SWAP1 PUSH2 0x100 EXP SWAP1 DIV PUSH1 0xFF AND ISZERO PUSH2 0xA9B JUMPI PUSH1 0x40 MLOAD PUSH32 0x8C379A000000000000000000000000000000000000000000000000000000000 DUP2 MSTORE PUSH1 0x4 ADD PUSH2 0xA92 SWAP1 PUSH2 0x115E JUMP JUMPDEST PUSH1 0x40 MLOAD DUP1 SWAP2 SUB SWAP1 REVERT JUMPDEST POP JUMP JUMPDEST PUSH2 0xAA7 DUP2 PUSH2 0xC51 JUMP JUMPDEST ISZERO PUSH2 0xAE7 JUMPI PUSH1 0x40 MLOAD PUSH32 0x8C379A000000000000000000000000000000000000000000000000000000000 DUP2 MSTORE PUSH1 0x4 ADD PUSH2 0xADE SWAP1 PUSH2 0x11DE JUMP JUMPDEST PUSH1 0x40 MLOAD DUP1 SWAP2 SUB SWAP1 REVERT JUMPDEST POP JUMP JUMPDEST PUSH1 0x0 DUP2 PUSH1 0x40 MLOAD PUSH1 0x20 ADD PUSH2 0xAFD SWAP2 SWAP1 PUSH2 0x10FE JUMP JUMPDEST PUSH1 0x40 MLOAD PUSH1 0x20 DUP2 DUP4 SUB SUB DUP2 MSTORE SWAP1 PUSH1 0x40 MSTORE DUP1 MLOAD SWAP1 PUSH1 0x20 ADD KECCAK256 DUP4 PUSH1 0x40 MLOAD PUSH1 0x20 ADD PUSH2 0xB24 SWAP2 SWAP1 PUSH2 0x10FE JUMP JUMPDEST PUSH1 0x40 MLOAD PUSH1 0x20 DUP2 DUP4 SUB SUB DUP2 MSTORE SWAP1 PUSH1 0x40 MSTORE DUP1 MLOAD SWAP1 PUSH1 0x20 ADD KECCAK256 EQ SWAP1 POP SWAP3 SWAP2 POP POP JUMP JUMPDEST DUP1 PUSH2 0xB83 JUMPI PUSH1 0x40 MLOAD PUSH32 0x8C379A000000000000000000000000000000000000000000000000000000000 DUP2 MSTORE PUSH1 0x4 ADD PUSH2 0xB7A SWAP1 PUSH2 0x117E JUMP JUMPDEST PUSH1 0x40 MLOAD DUP1 SWAP2 SUB SWAP1 REVERT JUMPDEST POP JUMP JUMPDEST PUSH1 0x60 DUP3 DUP3 PUSH1 0x40 MLOAD PUSH1 0x20 ADD PUSH2 0xB9B SWAP3 SWAP2 SWAP1 PUSH2 0x10AD JUMP JUMPDEST PUSH1 0x40 MLOAD PUSH1 0x20 DUP2 DUP4 SUB SUB DUP2 MSTORE SWAP1 PUSH1 0x40 MSTORE SWAP1 POP SWAP3 SWAP2 POP POP JUMP JUMPDEST DUP2 DUP2 SWAP1 PUSH2 0xBF5 JUMPI PUSH1 0x40 MLOAD PUSH32 0x8C379A000000000000000000000000000000000000000000000000000000000 DUP2 MSTORE PUSH1 0x4 ADD PUSH2 0xBEC SWAP2 SWAP1 PUSH2 0x10FE JUMP JUMPDEST PUSH1 0x40 MLOAD DUP1 SWAP2 SUB SWAP1 REVERT JUMPDEST POP POP POP JUMP JUMPDEST PUSH1 0x0 DUP1 PUSH1 0x0 SWAP1 SLOAD SWAP1 PUSH2 0x100 EXP SWAP1 DIV PUSH20 0xFFFFFFFFFFFFFFFFFFFFFFFFFFFFFFFFFFFFFFFF AND PUSH20 0xFFFFFFFFFFFFFFFFFFFFFFFFFFFFFFFFFFFFFFFF AND CALLER PUSH20 0xFFFFFFFFFFFFFFFFFFFFFFFFFFFFFFFFFFFFFFFF AND EQ SWAP1 POP SWAP1 JUMP JUMPDEST PUSH1 0x0 PUSH1 0x1 PUSH1 0x0 DUP4 PUSH20 0xFFFFFFFFFFFFFFFFFFFFFFFFFFFFFFFFFFFFFFFF AND PUSH20 0xFFFFFFFFFFFFFFFFFFFFFFFFFFFFFFFFFFFFFFFF AND DUP2 MSTORE PUSH1 0x20 ADD SWAP1 DUP2 MSTORE PUSH1 0x20 ADD PUSH1 0x0 KECCAK256 PUSH1 0x1 ADD PUSH1 0x1 SWAP1 SLOAD SWAP1 PUSH2 0x100 EXP SWAP1 DIV PUSH1 0xFF AND SWAP1 POP SWAP2 SWAP1 POP JUMP JUMPDEST DUP3 DUP1 SLOAD PUSH2 0xCB6 SWAP1 PUSH2 0x1343 JUMP JUMPDEST SWAP1 PUSH1 0x0 MSTORE PUSH1 0x20 PUSH1 0x0 KECCAK256 SWAP1 PUSH1 0x1F ADD PUSH1 0x20 SWAP1 DIV DUP2 ADD SWAP3 DUP3 PUSH2 0xCD8 JUMPI PUSH1 0x0 DUP6 SSTORE PUSH2 0xD1F JUMP JUMPDEST DUP3 PUSH1 0x1F LT PUSH2 0xCF1 JUMPI DUP1 MLOAD PUSH1 0xFF NOT AND DUP4 DUP1 ADD OR DUP6 SSTORE PUSH2 0xD1F JUMP JUMPDEST DUP3 DUP1 ADD PUSH1 0x1 ADD DUP6 SSTORE DUP3 ISZERO PUSH2 0xD1F JUMPI SWAP2 DUP3 ADD JUMPDEST DUP3 DUP2 GT ISZERO PUSH2 0xD1E JUMPI DUP3 MLOAD DUP3 SSTORE SWAP2 PUSH1 0x20 ADD SWAP2 SWAP1 PUSH1 0x1 ADD SWAP1 PUSH2 0xD03 JUMP JUMPDEST JUMPDEST POP SWAP1 POP PUSH2 0xD2C SWAP2 SWAP1 PUSH2 0xD4A JUMP JUMPDEST POP SWAP1 JUMP JUMPDEST PUSH1 0x40 MLOAD DUP1 PUSH1 0x40 ADD PUSH1 0x40 MSTORE DUP1 PUSH1 0x60 DUP2 MSTORE PUSH1 0x20 ADD PUSH1 0x0 DUP2 MSTORE POP SWAP1 JUMP JUMPDEST JUMPDEST DUP1 DUP3 GT ISZERO PUSH2 0xD63 JUMPI PUSH1 0x0 DUP2 PUSH1 0x0 SWAP1 SSTORE POP PUSH1 0x1 ADD PUSH2 0xD4B JUMP JUMPDEST POP SWAP1 JUMP JUMPDEST PUSH1 0x0 PUSH2 0xD7A PUSH2 0xD75 DUP5 PUSH2 0x1223 JUMP JUMPDEST PUSH2 0x11FE JUMP JUMPDEST SWAP1 POP DUP3 DUP2 MSTORE PUSH1 0x20 DUP2 ADD DUP5 DUP5 DUP5 ADD GT ISZERO PUSH2 0xD96 JUMPI PUSH2 0xD95 PUSH2 0x14B0 JUMP JUMPDEST JUMPDEST PUSH2 0xDA1 DUP5 DUP3 DUP6 PUSH2 0x1301 JUMP JUMPDEST POP SWAP4 SWAP3 POP POP POP JUMP JUMPDEST PUSH1 0x0 DUP2 CALLDATALOAD SWAP1 POP PUSH2 0xDB8 DUP2 PUSH2 0x165E JUMP JUMPDEST SWAP3 SWAP2 POP POP JUMP JUMPDEST PUSH1 0x0 DUP3 PUSH1 0x1F DUP4 ADD SLT PUSH2 0xDD3 JUMPI PUSH2 0xDD2 PUSH2 0x14AB JUMP JUMPDEST JUMPDEST DUP2 CALLDATALOAD PUSH2 0xDE3 DUP5 DUP3 PUSH1 0x20 DUP7 ADD PUSH2 0xD67 JUMP JUMPDEST SWAP2 POP POP SWAP3 SWAP2 POP POP JUMP JUMPDEST PUSH1 0x0 DUP1 PUSH1 0x40 DUP4 DUP6 SUB SLT ISZERO PUSH2 0xE03 JUMPI PUSH2 0xE02 PUSH2 0x14BA JUMP JUMPDEST JUMPDEST PUSH1 0x0 PUSH2 0xE11 DUP6 DUP3 DUP7 ADD PUSH2 0xDA9 JUMP JUMPDEST SWAP3 POP POP PUSH1 0x20 DUP4 ADD CALLDATALOAD PUSH8 0xFFFFFFFFFFFFFFFF DUP2 GT ISZERO PUSH2 0xE32 JUMPI PUSH2 0xE31 PUSH2 0x14B5 JUMP JUMPDEST JUMPDEST PUSH2 0xE3E DUP6 DUP3 DUP7 ADD PUSH2 0xDBE JUMP JUMPDEST SWAP2 POP POP SWAP3 POP SWAP3 SWAP1 POP JUMP JUMPDEST PUSH1 0x0 PUSH1 0x20 DUP3 DUP5 SUB SLT ISZERO PUSH2 0xE5E JUMPI PUSH2 0xE5D PUSH2 0x14BA JUMP JUMPDEST JUMPDEST PUSH1 0x0 DUP3 ADD CALLDATALOAD PUSH8 0xFFFFFFFFFFFFFFFF DUP2 GT ISZERO PUSH2 0xE7C JUMPI PUSH2 0xE7B PUSH2 0x14B5 JUMP JUMPDEST JUMPDEST PUSH2 0xE88 DUP5 DUP3 DUP6 ADD PUSH2 0xDBE JUMP JUMPDEST SWAP2 POP POP SWAP3 SWAP2 POP POP JUMP JUMPDEST PUSH1 0x0 PUSH2 0xE9D DUP4 DUP4 PUSH2 0xF29 JUMP JUMPDEST SWAP1 POP SWAP3 SWAP2 POP POP JUMP JUMPDEST PUSH2 0xEAE DUP2 PUSH2 0x12C5 JUMP JUMPDEST DUP3 MSTORE POP POP JUMP JUMPDEST PUSH1 0x0 PUSH2 0xEBF DUP3 PUSH2 0x1264 JUMP JUMPDEST PUSH2 0xEC9 DUP2 DUP6 PUSH2 0x1287 JUMP JUMPDEST SWAP4 POP DUP4 PUSH1 0x20 DUP3 MUL DUP6 ADD PUSH2 0xEDB DUP6 PUSH2 0x1254 JUMP JUMPDEST DUP1 PUSH1 0x0 JUMPDEST DUP6 DUP2 LT ISZERO PUSH2 0xF17 JUMPI DUP5 DUP5 SUB DUP10 MSTORE DUP2 MLOAD PUSH2 0xEF8 DUP6 DUP3 PUSH2 0xE91 JUMP JUMPDEST SWAP5 POP PUSH2 0xF03 DUP4 PUSH2 0x127A JUMP JUMPDEST SWAP3 POP PUSH1 0x20 DUP11 ADD SWAP10 POP POP PUSH1 0x1 DUP2 ADD SWAP1 POP PUSH2 0xEDF JUMP JUMPDEST POP DUP3 SWAP8 POP DUP8 SWAP6 POP POP POP POP POP POP SWAP3 SWAP2 POP POP JUMP JUMPDEST PUSH1 0x0 PUSH2 0xF34 DUP3 PUSH2 0x126F JUMP JUMPDEST PUSH2 0xF3E DUP2 DUP6 PUSH2 0x1298 JUMP JUMPDEST SWAP4 POP PUSH2 0xF4E DUP2 DUP6 PUSH1 0x20 DUP7 ADD PUSH2 0x1310 JUMP JUMPDEST PUSH2 0xF57 DUP2 PUSH2 0x14BF JUMP JUMPDEST DUP5 ADD SWAP2 POP POP SWAP3 SWAP2 POP POP JUMP JUMPDEST PUSH1 0x0 PUSH2 0xF6D DUP3 PUSH2 0x126F JUMP JUMPDEST PUSH2 0xF77 DUP2 DUP6 PUSH2 0x12A9 JUMP JUMPDEST SWAP4 POP PUSH2 0xF87 DUP2 DUP6 PUSH1 0x20 DUP7 ADD PUSH2 0x1310 JUMP JUMPDEST PUSH2 0xF90 DUP2 PUSH2 0x14BF JUMP JUMPDEST DUP5 ADD SWAP2 POP POP SWAP3 SWAP2 POP POP JUMP JUMPDEST PUSH1 0x0 PUSH2 0xFA6 DUP3 PUSH2 0x126F JUMP JUMPDEST PUSH2 0xFB0 DUP2 DUP6 PUSH2 0x12BA JUMP JUMPDEST SWAP4 POP PUSH2 0xFC0 DUP2 DUP6 PUSH1 0x20 DUP7 ADD PUSH2 0x1310 JUMP JUMPDEST DUP1 DUP5 ADD SWAP2 POP POP SWAP3 SWAP2 POP POP JUMP JUMPDEST PUSH1 0x0 PUSH2 0xFD9 PUSH1 0x25 DUP4 PUSH2 0x12A9 JUMP JUMPDEST SWAP2 POP PUSH2 0xFE4 DUP3 PUSH2 0x14D0 JUMP JUMPDEST PUSH1 0x40 DUP3 ADD SWAP1 POP SWAP2 SWAP1 POP JUMP JUMPDEST PUSH1 0x0 PUSH2 0xFFC PUSH1 0x21 DUP4 PUSH2 0x12A9 JUMP JUMPDEST SWAP2 POP PUSH2 0x1007 DUP3 PUSH2 0x151F JUMP JUMPDEST PUSH1 0x40 DUP3 ADD SWAP1 POP SWAP2 SWAP1 POP JUMP JUMPDEST PUSH1 0x0 PUSH2 0x101F PUSH1 0x2F DUP4 PUSH2 0x12A9 JUMP JUMPDEST SWAP2 POP PUSH2 0x102A DUP3 PUSH2 0x156E JUMP JUMPDEST PUSH1 0x40 DUP3 ADD SWAP1 POP SWAP2 SWAP1 POP JUMP JUMPDEST PUSH1 0x0 PUSH2 0x1042 PUSH1 0x2F DUP4 PUSH2 0x12A9 JUMP JUMPDEST SWAP2 POP PUSH2 0x104D DUP3 PUSH2 0x15BD JUMP JUMPDEST PUSH1 0x40 DUP3 ADD SWAP1 POP SWAP2 SWAP1 POP JUMP JUMPDEST PUSH1 0x0 PUSH2 0x1065 PUSH1 0x1 DUP4 PUSH2 0x12BA JUMP JUMPDEST SWAP2 POP PUSH2 0x1070 DUP3 PUSH2 0x160C JUMP JUMPDEST PUSH1 0x1 DUP3 ADD SWAP1 POP SWAP2 SWAP1 POP JUMP JUMPDEST PUSH1 0x0 PUSH2 0x1088 PUSH1 0x14 DUP4 PUSH2 0x12A9 JUMP JUMPDEST SWAP2 POP PUSH2 0x1093 DUP3 PUSH2 0x1635 JUMP JUMPDEST PUSH1 0x20 DUP3 ADD SWAP1 POP SWAP2 SWAP1 POP JUMP JUMPDEST PUSH2 0x10A7 DUP2 PUSH2 0x12F7 JUMP JUMPDEST DUP3 MSTORE POP POP JUMP JUMPDEST PUSH1 0x0 PUSH2 0x10B9 DUP3 DUP6 PUSH2 0xF9B JUMP JUMPDEST SWAP2 POP PUSH2 0x10C4 DUP3 PUSH2 0x1058 JUMP JUMPDEST SWAP2 POP PUSH2 0x10D0 DUP3 DUP5 PUSH2 0xF9B JUMP JUMPDEST SWAP2 POP DUP2 SWAP1 POP SWAP4 SWAP3 POP POP POP JUMP JUMPDEST PUSH1 0x0 PUSH1 0x20 DUP3 ADD SWAP1 POP DUP2 DUP2 SUB PUSH1 0x0 DUP4 ADD MSTORE PUSH2 0x10F6 DUP2 DUP5 PUSH2 0xEB4 JUMP JUMPDEST SWAP1 POP SWAP3 SWAP2 POP POP JUMP JUMPDEST PUSH1 0x0 PUSH1 0x20 DUP3 ADD SWAP1 POP DUP2 DUP2 SUB PUSH1 0x0 DUP4 ADD MSTORE PUSH2 0x1118 DUP2 DUP5 PUSH2 0xF62 JUMP JUMPDEST SWAP1 POP SWAP3 SWAP2 POP POP JUMP JUMPDEST PUSH1 0x0 PUSH1 0x60 DUP3 ADD SWAP1 POP DUP2 DUP2 SUB PUSH1 0x0 DUP4 ADD MSTORE PUSH2 0x113A DUP2 DUP7 PUSH2 0xF62 JUMP JUMPDEST SWAP1 POP PUSH2 0x1149 PUSH1 0x20 DUP4 ADD DUP6 PUSH2 0x109E JUMP JUMPDEST PUSH2 0x1156 PUSH1 0x40 DUP4 ADD DUP5 PUSH2 0xEA5 JUMP JUMPDEST SWAP5 SWAP4 POP POP POP POP JUMP JUMPDEST PUSH1 0x0 PUSH1 0x20 DUP3 ADD SWAP1 POP DUP2 DUP2 SUB PUSH1 0x0 DUP4 ADD MSTORE PUSH2 0x1177 DUP2 PUSH2 0xFCC JUMP JUMPDEST SWAP1 POP SWAP2 SWAP1 POP JUMP JUMPDEST PUSH1 0x0 PUSH1 0x20 DUP3 ADD SWAP1 POP DUP2 DUP2 SUB PUSH1 0x0 DUP4 ADD MSTORE PUSH2 0x1197 DUP2 PUSH2 0xFEF JUMP JUMPDEST SWAP1 POP SWAP2 SWAP1 POP JUMP JUMPDEST PUSH1 0x0 PUSH1 0x20 DUP3 ADD SWAP1 POP DUP2 DUP2 SUB PUSH1 0x0 DUP4 ADD MSTORE PUSH2 0x11B7 DUP2 PUSH2 0x1012 JUMP JUMPDEST SWAP1 POP SWAP2 SWAP1 POP JUMP JUMPDEST PUSH1 0x0 PUSH1 0x20 DUP3 ADD SWAP1 POP DUP2 DUP2 SUB PUSH1 0x0 DUP4 ADD MSTORE PUSH2 0x11D7 DUP2 PUSH2 0x1035 JUMP JUMPDEST SWAP1 POP SWAP2 SWAP1 POP JUMP JUMPDEST PUSH1 0x0 PUSH1 0x20 DUP3 ADD SWAP1 POP DUP2 DUP2 SUB PUSH1 0x0 DUP4 ADD MSTORE PUSH2 0x11F7 DUP2 PUSH2 0x107B JUMP JUMPDEST SWAP1 POP SWAP2 SWAP1 POP JUMP JUMPDEST PUSH1 0x0 PUSH2 0x1208 PUSH2 0x1219 JUMP JUMPDEST SWAP1 POP PUSH2 0x1214 DUP3 DUP3 PUSH2 0x1375 JUMP JUMPDEST SWAP2 SWAP1 POP JUMP JUMPDEST PUSH1 0x0 PUSH1 0x40 MLOAD SWAP1 POP SWAP1 JUMP JUMPDEST PUSH1 0x0 PUSH8 0xFFFFFFFFFFFFFFFF DUP3 GT ISZERO PUSH2 0x123E JUMPI PUSH2 0x123D PUSH2 0x147C JUMP JUMPDEST JUMPDEST PUSH2 0x1247 DUP3 PUSH2 0x14BF JUMP JUMPDEST SWAP1 POP PUSH1 0x20 DUP2 ADD SWAP1 POP SWAP2 SWAP1 POP JUMP JUMPDEST PUSH1 0x0 DUP2 SWAP1 POP PUSH1 0x20 DUP3 ADD SWAP1 POP SWAP2 SWAP1 POP JUMP JUMPDEST PUSH1 0x0 DUP2 MLOAD SWAP1 POP SWAP2 SWAP1 POP JUMP JUMPDEST PUSH1 0x0 DUP2 MLOAD SWAP1 POP SWAP2 SWAP1 POP JUMP JUMPDEST PUSH1 0x0 PUSH1 0x20 DUP3 ADD SWAP1 POP SWAP2 SWAP1 POP JUMP JUMPDEST PUSH1 0x0 DUP3 DUP3 MSTORE PUSH1 0x20 DUP3 ADD SWAP1 POP SWAP3 SWAP2 POP POP JUMP JUMPDEST PUSH1 0x0 DUP3 DUP3 MSTORE PUSH1 0x20 DUP3 ADD SWAP1 POP SWAP3 SWAP2 POP POP JUMP JUMPDEST PUSH1 0x0 DUP3 DUP3 MSTORE PUSH1 0x20 DUP3 ADD SWAP1 POP SWAP3 SWAP2 POP POP JUMP JUMPDEST PUSH1 0x0 DUP2 SWAP1 POP SWAP3 SWAP2 POP POP JUMP JUMPDEST PUSH1 0x0 PUSH2 0x12D0 DUP3 PUSH2 0x12D7 JUMP JUMPDEST SWAP1 POP SWAP2 SWAP1 POP JUMP JUMPDEST PUSH1 0x0 PUSH20 0xFFFFFFFFFFFFFFFFFFFFFFFFFFFFFFFFFFFFFFFF DUP3 AND SWAP1 POP SWAP2 SWAP1 POP JUMP JUMPDEST PUSH1 0x0 DUP2 SWAP1 POP SWAP2 SWAP1 POP JUMP JUMPDEST DUP3 DUP2 DUP4 CALLDATACOPY PUSH1 0x0 DUP4 DUP4 ADD MSTORE POP POP POP JUMP JUMPDEST PUSH1 0x0 JUMPDEST DUP4 DUP2 LT ISZERO PUSH2 0x132E JUMPI DUP1 DUP3 ADD MLOAD DUP2 DUP5 ADD MSTORE PUSH1 0x20 DUP2 ADD SWAP1 POP PUSH2 0x1313 JUMP JUMPDEST DUP4 DUP2 GT ISZERO PUSH2 0x133D JUMPI PUSH1 0x0 DUP5 DUP5 ADD MSTORE JUMPDEST POP POP POP POP JUMP JUMPDEST PUSH1 0x0 PUSH1 0x2 DUP3 DIV SWAP1 POP PUSH1 0x1 DUP3 AND DUP1 PUSH2 0x135B JUMPI PUSH1 0x7F DUP3 AND SWAP2 POP JUMPDEST PUSH1 0x20 DUP3 LT DUP2 EQ ISZERO PUSH2 0x136F JUMPI PUSH2 0x136E PUSH2 0x141E JUMP JUMPDEST JUMPDEST POP SWAP2 SWAP1 POP JUMP JUMPDEST PUSH2 0x137E DUP3 PUSH2 0x14BF JUMP JUMPDEST DUP2 ADD DUP2 DUP2 LT PUSH8 0xFFFFFFFFFFFFFFFF DUP3 GT OR ISZERO PUSH2 0x139D JUMPI PUSH2 0x139C PUSH2 0x147C JUMP JUMPDEST JUMPDEST DUP1 PUSH1 0x40 MSTORE POP POP POP JUMP JUMPDEST PUSH1 0x0 PUSH2 0x13B1 DUP3 PUSH2 0x12F7 JUMP JUMPDEST SWAP2 POP PUSH32 0xFFFFFFFFFFFFFFFFFFFFFFFFFFFFFFFFFFFFFFFFFFFFFFFFFFFFFFFFFFFFFFFF DUP3 EQ ISZERO PUSH2 0x13E4 JUMPI PUSH2 0x13E3 PUSH2 0x13EF JUMP JUMPDEST JUMPDEST PUSH1 0x1 DUP3 ADD SWAP1 POP SWAP2 SWAP1 POP JUMP JUMPDEST PUSH32 0x4E487B7100000000000000000000000000000000000000000000000000000000 PUSH1 0x0 MSTORE PUSH1 0x11 PUSH1 0x4 MSTORE PUSH1 0x24 PUSH1 0x0 REVERT JUMPDEST PUSH32 0x4E487B7100000000000000000000000000000000000000000000000000000000 PUSH1 0x0 MSTORE PUSH1 0x22 PUSH1 0x4 MSTORE PUSH1 0x24 PUSH1 0x0 REVERT JUMPDEST PUSH32 0x4E487B7100000000000000000000000000000000000000000000000000000000 PUSH1 0x0 MSTORE PUSH1 0x32 PUSH1 0x4 MSTORE PUSH1 0x24 PUSH1 0x0 REVERT JUMPDEST PUSH32 0x4E487B7100000000000000000000000000000000000000000000000000000000 PUSH1 0x0 MSTORE PUSH1 0x41 PUSH1 0x4 MSTORE PUSH1 0x24 PUSH1 0x0 REVERT JUMPDEST PUSH1 0x0 DUP1 REVERT JUMPDEST PUSH1 0x0 DUP1 REVERT JUMPDEST PUSH1 0x0 DUP1 REVERT JUMPDEST PUSH1 0x0 DUP1 REVERT JUMPDEST PUSH1 0x0 PUSH1 0x1F NOT PUSH1 0x1F DUP4 ADD AND SWAP1 POP SWAP2 SWAP1 POP JUMP JUMPDEST PUSH32 0x566F746572206861766520616C72656164792068617320726967687420746F20 PUSH1 0x0 DUP3 ADD MSTORE PUSH32 0x766F74652E000000000000000000000000000000000000000000000000000000 PUSH1 0x20 DUP3 ADD MSTORE POP JUMP JUMPDEST PUSH32 0x43616E64696461746520796F752073656E7420646F6573206E6F742065786973 PUSH1 0x0 DUP3 ADD MSTORE PUSH32 0x7400000000000000000000000000000000000000000000000000000000000000 PUSH1 0x20 DUP3 ADD MSTORE POP JUMP JUMPDEST PUSH32 0x4D6178206163636F756E7420766F74657320697320726561636865642E204261 PUSH1 0x0 DUP3 ADD MSTORE PUSH32 0x6C6C6F7420697320434C4F5345442E0000000000000000000000000000000000 PUSH1 0x20 DUP3 ADD MSTORE POP JUMP JUMPDEST PUSH32 0x4F6E6C792074686520636F6E7472616374206F776E65722063616E2067697665 PUSH1 0x0 DUP3 ADD MSTORE PUSH32 0x20726967687420746F20766F74652E0000000000000000000000000000000000 PUSH1 0x20 DUP3 ADD MSTORE POP JUMP JUMPDEST PUSH32 0x2000000000000000000000000000000000000000000000000000000000000000 PUSH1 0x0 DUP3 ADD MSTORE POP JUMP JUMPDEST PUSH32 0x566F74657220616C726561647920766F7465642E000000000000000000000000 PUSH1 0x0 DUP3 ADD MSTORE POP JUMP JUMPDEST PUSH2 0x1667 DUP2 PUSH2 0x12C5 JUMP JUMPDEST DUP2 EQ PUSH2 0x1672 JUMPI PUSH1 0x0 DUP1 REVERT JUMPDEST POP JUMP INVALID SLOAD PUSH9 0x657265206973206120 PUSH21 0x6965206F6E2042616C6C6F742E20596F752073686F PUSH22 0x6C642073746172742061206E65772062616C6C6F7420 PUSH24 0x697468207469652063616E646964617465733AA264697066 PUSH20 0x58221220854AFEDC98206C2B2DC102E00A37DF1C DUP2 SWAP6 0xD6 SWAP11 PUSH4 0x92BF0A01 0xE0 DUP4 MSTORE 0x2B 0xAD PUSH6 0xB764736F6C63 NUMBER STOP ADDMOD SMOD STOP CALLER "
				},
				"gasEstimates": {
					"creation": {
						"codeDepositCost": "1175800",
						"executionCost": "infinite",
						"totalCost": "infinite"
					},
					"external": {
						"getCandidatesListName()": "infinite",
						"getWinnerBallot()": "infinite",
						"giveRightToVote(address,string)": "infinite",
						"vote(string)": "infinite"
					},
					"internal": {
						"areYouContractOwner()": "2176",
						"areYouHaveRigthToVote()": "infinite",
						"concatenateStrings(string memory,string memory)": "infinite",
						"getCandidateExistRequire(bool)": "infinite",
						"getContractAddress()": "22",
						"getContractOwnerAddCandidateRequire()": "infinite",
						"getRightToVoteRequire(address)": "infinite",
						"getTieRequire(bool,string memory)": "infinite",
						"getTotalVotesCounterReachedRequire()": "infinite",
						"getVoterRigthToVote(address)": "infinite",
						"getVoterVoted(address)": "2316",
						"getVoterVotedRequire(address)": "infinite",
						"getWinnerCandidate()": "infinite",
						"getYouContractOwnerRequire()": "infinite",
						"getYouHaveRightToVoteRequire()": "infinite",
						"setCandidatesIntoStorage(string memory[] memory)": "infinite",
						"stringEqualTo(string memory,string memory)": "infinite"
					}
				},
				"methodIdentifiers": {
					"getCandidatesListName()": "011d1023",
					"getWinnerBallot()": "53f06ecd",
					"giveRightToVote(address,string)": "68957b20",
					"vote(string)": "fc36e15b"
				}
			},
			"storageLayout": {
				"storage": [
					{
						"astId": 15,
						"contract": "contracts/Ballot/Ballot.sol:MyBallot",
						"label": "contractOwner",
						"offset": 0,
						"slot": "0",
						"type": "t_address"
					},
					{
						"astId": 20,
						"contract": "contracts/Ballot/Ballot.sol:MyBallot",
						"label": "voters",
						"offset": 0,
						"slot": "1",
						"type": "t_mapping(t_address,t_struct(Voter)8_storage)"
					},
					{
						"astId": 24,
						"contract": "contracts/Ballot/Ballot.sol:MyBallot",
						"label": "candidates",
						"offset": 0,
						"slot": "2",
						"type": "t_array(t_struct(Candidate)13_storage)dyn_storage"
					},
					{
						"astId": 26,
						"contract": "contracts/Ballot/Ballot.sol:MyBallot",
						"label": "totalVotesCounter",
						"offset": 0,
						"slot": "3",
						"type": "t_uint256"
					},
					{
						"astId": 28,
						"contract": "contracts/Ballot/Ballot.sol:MyBallot",
						"label": "maxVotes",
						"offset": 0,
						"slot": "4",
						"type": "t_uint256"
					}
				],
				"types": {
					"t_address": {
						"encoding": "inplace",
						"label": "address",
						"numberOfBytes": "20"
					},
					"t_array(t_struct(Candidate)13_storage)dyn_storage": {
						"base": "t_struct(Candidate)13_storage",
						"encoding": "dynamic_array",
						"label": "struct MyBallot.Candidate[]",
						"numberOfBytes": "32"
					},
					"t_bool": {
						"encoding": "inplace",
						"label": "bool",
						"numberOfBytes": "1"
					},
					"t_mapping(t_address,t_struct(Voter)8_storage)": {
						"encoding": "mapping",
						"key": "t_address",
						"label": "mapping(address => struct MyBallot.Voter)",
						"numberOfBytes": "32",
						"value": "t_struct(Voter)8_storage"
					},
					"t_string_storage": {
						"encoding": "bytes",
						"label": "string",
						"numberOfBytes": "32"
					},
					"t_struct(Candidate)13_storage": {
						"encoding": "inplace",
						"label": "struct MyBallot.Candidate",
						"members": [
							{
								"astId": 10,
								"contract": "contracts/Ballot/Ballot.sol:MyBallot",
								"label": "nameProject",
								"offset": 0,
								"slot": "0",
								"type": "t_string_storage"
							},
							{
								"astId": 12,
								"contract": "contracts/Ballot/Ballot.sol:MyBallot",
								"label": "votesCount",
								"offset": 0,
								"slot": "1",
								"type": "t_uint256"
							}
						],
						"numberOfBytes": "64"
					},
					"t_struct(Voter)8_storage": {
						"encoding": "inplace",
						"label": "struct MyBallot.Voter",
						"members": [
							{
								"astId": 3,
								"contract": "contracts/Ballot/Ballot.sol:MyBallot",
								"label": "nameVoter",
								"offset": 0,
								"slot": "0",
								"type": "t_string_storage"
							},
							{
								"astId": 5,
								"contract": "contracts/Ballot/Ballot.sol:MyBallot",
								"label": "canVote",
								"offset": 0,
								"slot": "1",
								"type": "t_bool"
							},
							{
								"astId": 7,
								"contract": "contracts/Ballot/Ballot.sol:MyBallot",
								"label": "hasVoted",
								"offset": 1,
								"slot": "1",
								"type": "t_bool"
							}
						],
						"numberOfBytes": "64"
					},
					"t_uint256": {
						"encoding": "inplace",
						"label": "uint256",
						"numberOfBytes": "32"
					}
				}
			},
			"userdoc": {
				"kind": "user",
				"methods": {},
				"version": 1
			}
		}
	}
}