{
	"contracts/Ballot/Ballot.sol": {
		"MyBallot": {
			"abi": [
				{
					"inputs": [
						{
							"internalType": "string[]",
							"name": "_candidates",
							"type": "string[]"
						},
						{
							"internalType": "uint256",
							"name": "_maxVotes",
							"type": "uint256"
						}
					],
					"stateMutability": "nonpayable",
					"type": "constructor"
				},
				{
					"inputs": [],
					"name": "getCandidatesListName",
					"outputs": [
						{
							"internalType": "string[]",
							"name": "",
							"type": "string[]"
						}
					],
					"stateMutability": "view",
					"type": "function"
				},
				{
					"inputs": [],
					"name": "getWinnerName",
					"outputs": [
						{
							"internalType": "string",
							"name": "winnerName",
							"type": "string"
						},
						{
							"internalType": "address",
							"name": "",
							"type": "address"
						}
					],
					"stateMutability": "view",
					"type": "function"
				},
				{
					"inputs": [
						{
							"internalType": "address",
							"name": "voterAddress",
							"type": "address"
						}
					],
					"name": "giveRightToVote",
					"outputs": [],
					"stateMutability": "nonpayable",
					"type": "function"
				},
				{
					"inputs": [
						{
							"internalType": "string",
							"name": "_nameProject",
							"type": "string"
						}
					],
					"name": "vote",
					"outputs": [],
					"stateMutability": "nonpayable",
					"type": "function"
				}
			],
			"devdoc": {
				"kind": "dev",
				"methods": {},
				"version": 1
			},
			"evm": {
				"assembly": "    /* \"contracts/Ballot/Ballot.sol\":70:5370  contract MyBallot {\r... */\n  mstore(0x40, 0x80)\n    /* \"contracts/Ballot/Ballot.sol\":508:697  constructor(string[] memory _candidates, uint _maxVotes) {\r... */\n  callvalue\n  dup1\n  iszero\n  tag_1\n  jumpi\n  0x00\n  dup1\n  revert\ntag_1:\n  pop\n  mload(0x40)\n  sub(codesize, bytecodeSize)\n  dup1\n  bytecodeSize\n  dup4\n  codecopy\n  dup2\n  dup2\n  add\n  0x40\n  mstore\n  dup2\n  add\n  swap1\n  tag_2\n  swap2\n  swap1\n  tag_3\n  jump\t// in\ntag_2:\n    /* \"contracts/Ballot/Ballot.sol\":592:602  msg.sender */\n  caller\n    /* \"contracts/Ballot/Ballot.sol\":576:589  contractOwner */\n  0x00\n  dup1\n    /* \"contracts/Ballot/Ballot.sol\":576:602  contractOwner = msg.sender */\n  0x0100\n  exp\n  dup2\n  sload\n  dup2\n  0xffffffffffffffffffffffffffffffffffffffff\n  mul\n  not\n  and\n  swap1\n  dup4\n  0xffffffffffffffffffffffffffffffffffffffff\n  and\n  mul\n  or\n  swap1\n  sstore\n  pop\n    /* \"contracts/Ballot/Ballot.sol\":613:650  setCandidatesIntoStorage(_candidates) */\n  tag_6\n    /* \"contracts/Ballot/Ballot.sol\":638:649  _candidates */\n  dup3\n    /* \"contracts/Ballot/Ballot.sol\":613:637  setCandidatesIntoStorage */\n  shl(0x20, tag_7)\n    /* \"contracts/Ballot/Ballot.sol\":613:650  setCandidatesIntoStorage(_candidates) */\n  0x20\n  shr\n  jump\t// in\ntag_6:\n    /* \"contracts/Ballot/Ballot.sol\":680:689  _maxVotes */\n  dup1\n    /* \"contracts/Ballot/Ballot.sol\":669:677  maxVotes */\n  0x04\n    /* \"contracts/Ballot/Ballot.sol\":669:689  maxVotes = _maxVotes */\n  dup2\n  swap1\n  sstore\n  pop\n    /* \"contracts/Ballot/Ballot.sol\":508:697  constructor(string[] memory _candidates, uint _maxVotes) {\r... */\n  pop\n  pop\n    /* \"contracts/Ballot/Ballot.sol\":70:5370  contract MyBallot {\r... */\n  jump(tag_8)\n    /* \"contracts/Ballot/Ballot.sol\":1965:2264  function setCandidatesIntoStorage(string[] memory _candidates) private {\r... */\ntag_7:\n    /* \"contracts/Ballot/Ballot.sol\":2052:2062  uint index */\n  0x00\n    /* \"contracts/Ballot/Ballot.sol\":2047:2257  for (uint index = 0; index < _candidates.length; index++) {\r... */\ntag_10:\n    /* \"contracts/Ballot/Ballot.sol\":2076:2087  _candidates */\n  dup2\n    /* \"contracts/Ballot/Ballot.sol\":2076:2094  _candidates.length */\n  mload\n    /* \"contracts/Ballot/Ballot.sol\":2068:2073  index */\n  dup2\n    /* \"contracts/Ballot/Ballot.sol\":2068:2094  index < _candidates.length */\n  lt\n    /* \"contracts/Ballot/Ballot.sol\":2047:2257  for (uint index = 0; index < _candidates.length; index++) {\r... */\n  iszero\n  tag_11\n  jumpi\n    /* \"contracts/Ballot/Ballot.sol\":2120:2130  candidates */\n  0x02\n    /* \"contracts/Ballot/Ballot.sol\":2136:2244  Candidate({\r... */\n  mload(0x40)\n  dup1\n  0x40\n  add\n  0x40\n  mstore\n  dup1\n    /* \"contracts/Ballot/Ballot.sol\":2178:2189  _candidates */\n  dup5\n    /* \"contracts/Ballot/Ballot.sol\":2190:2195  index */\n  dup5\n    /* \"contracts/Ballot/Ballot.sol\":2178:2196  _candidates[index] */\n  dup2\n  mload\n  dup2\n  lt\n  tag_13\n  jumpi\n  tag_14\n  tag_15\n  jump\t// in\ntag_14:\ntag_13:\n  0x20\n  mul\n  0x20\n  add\n  add\n  mload\n    /* \"contracts/Ballot/Ballot.sol\":2136:2244  Candidate({\r... */\n  dup2\n  mstore\n  0x20\n  add\n    /* \"contracts/Ballot/Ballot.sol\":2227:2228  0 */\n  0x00\n    /* \"contracts/Ballot/Ballot.sol\":2136:2244  Candidate({\r... */\n  dup2\n  mstore\n  pop\n    /* \"contracts/Ballot/Ballot.sol\":2120:2245  candidates.push(Candidate({\r... */\n  swap1\n  dup1\n  0x01\n  dup2\n  sload\n  add\n  dup1\n  dup3\n  sstore\n  dup1\n  swap2\n  pop\n  pop\n  0x01\n  swap1\n  sub\n  swap1\n  0x00\n  mstore\n  keccak256(0x00, 0x20)\n  swap1\n  0x02\n  mul\n  add\n  0x00\n  swap1\n  swap2\n  swap1\n  swap2\n  swap1\n  swap2\n  pop\n  0x00\n  dup3\n  add\n  mload\n  dup2\n  0x00\n  add\n  swap1\n  dup1\n  mload\n  swap1\n  0x20\n  add\n  swap1\n  tag_17\n  swap3\n  swap2\n  swap1\n  tag_18\n  jump\t// in\ntag_17:\n  pop\n  0x20\n  dup3\n  add\n  mload\n  dup2\n  0x01\n  add\n  sstore\n  pop\n  pop\n    /* \"contracts/Ballot/Ballot.sol\":2096:2103  index++ */\n  dup1\n  dup1\n  tag_19\n  swap1\n  tag_20\n  jump\t// in\ntag_19:\n  swap2\n  pop\n  pop\n    /* \"contracts/Ballot/Ballot.sol\":2047:2257  for (uint index = 0; index < _candidates.length; index++) {\r... */\n  jump(tag_10)\ntag_11:\n  pop\n    /* \"contracts/Ballot/Ballot.sol\":1965:2264  function setCandidatesIntoStorage(string[] memory _candidates) private {\r... */\n  pop\n  jump\t// out\n    /* \"contracts/Ballot/Ballot.sol\":70:5370  contract MyBallot {\r... */\ntag_18:\n  dup3\n  dup1\n  sload\n  tag_21\n  swap1\n  tag_22\n  jump\t// in\ntag_21:\n  swap1\n  0x00\n  mstore\n  keccak256(0x00, 0x20)\n  swap1\n  0x1f\n  add\n  0x20\n  swap1\n  div\n  dup2\n  add\n  swap3\n  dup3\n  tag_24\n  jumpi\n  0x00\n  dup6\n  sstore\n  jump(tag_23)\ntag_24:\n  dup3\n  0x1f\n  lt\n  tag_25\n  jumpi\n  dup1\n  mload\n  not(0xff)\n  and\n  dup4\n  dup1\n  add\n  or\n  dup6\n  sstore\n  jump(tag_23)\ntag_25:\n  dup3\n  dup1\n  add\n  0x01\n  add\n  dup6\n  sstore\n  dup3\n  iszero\n  tag_23\n  jumpi\n  swap2\n  dup3\n  add\ntag_26:\n  dup3\n  dup2\n  gt\n  iszero\n  tag_27\n  jumpi\n  dup3\n  mload\n  dup3\n  sstore\n  swap2\n  0x20\n  add\n  swap2\n  swap1\n  0x01\n  add\n  swap1\n  jump(tag_26)\ntag_27:\ntag_23:\n  pop\n  swap1\n  pop\n  tag_28\n  swap2\n  swap1\n  tag_29\n  jump\t// in\ntag_28:\n  pop\n  swap1\n  jump\t// out\ntag_29:\ntag_30:\n  dup1\n  dup3\n  gt\n  iszero\n  tag_31\n  jumpi\n  0x00\n  dup2\n  0x00\n  swap1\n  sstore\n  pop\n  0x01\n  add\n  jump(tag_30)\ntag_31:\n  pop\n  swap1\n  jump\t// out\n    /* \"#utility.yul\":23:995   */\ntag_33:\n    /* \"#utility.yul\":140:145   */\n  0x00\n    /* \"#utility.yul\":165:256   */\n  tag_35\n    /* \"#utility.yul\":181:255   */\n  tag_36\n    /* \"#utility.yul\":248:254   */\n  dup5\n    /* \"#utility.yul\":181:255   */\n  tag_37\n  jump\t// in\ntag_36:\n    /* \"#utility.yul\":165:256   */\n  tag_38\n  jump\t// in\ntag_35:\n    /* \"#utility.yul\":156:256   */\n  swap1\n  pop\n    /* \"#utility.yul\":276:281   */\n  dup1\n    /* \"#utility.yul\":305:311   */\n  dup4\n    /* \"#utility.yul\":298:303   */\n  dup3\n    /* \"#utility.yul\":291:312   */\n  mstore\n    /* \"#utility.yul\":339:343   */\n  0x20\n    /* \"#utility.yul\":332:337   */\n  dup3\n    /* \"#utility.yul\":328:344   */\n  add\n    /* \"#utility.yul\":321:344   */\n  swap1\n  pop\n    /* \"#utility.yul\":365:371   */\n  dup3\n    /* \"#utility.yul\":415:418   */\n  dup6\n    /* \"#utility.yul\":407:411   */\n  0x20\n    /* \"#utility.yul\":399:405   */\n  dup7\n    /* \"#utility.yul\":395:412   */\n  mul\n    /* \"#utility.yul\":390:393   */\n  dup3\n    /* \"#utility.yul\":386:413   */\n  add\n    /* \"#utility.yul\":383:419   */\n  gt\n    /* \"#utility.yul\":380:523   */\n  iszero\n  tag_39\n  jumpi\n    /* \"#utility.yul\":434:513   */\n  tag_40\n  tag_41\n  jump\t// in\ntag_40:\n    /* \"#utility.yul\":380:523   */\ntag_39:\n    /* \"#utility.yul\":547:548   */\n  0x00\n    /* \"#utility.yul\":532:989   */\ntag_42:\n    /* \"#utility.yul\":557:563   */\n  dup6\n    /* \"#utility.yul\":554:555   */\n  dup2\n    /* \"#utility.yul\":551:564   */\n  lt\n    /* \"#utility.yul\":532:989   */\n  iszero\n  tag_44\n  jumpi\n    /* \"#utility.yul\":632:635   */\n  dup2\n    /* \"#utility.yul\":626:636   */\n  mload\n    /* \"#utility.yul\":668:686   */\n  0xffffffffffffffff\n    /* \"#utility.yul\":655:666   */\n  dup2\n    /* \"#utility.yul\":652:687   */\n  gt\n    /* \"#utility.yul\":649:771   */\n  iszero\n  tag_45\n  jumpi\n    /* \"#utility.yul\":690:769   */\n  tag_46\n  tag_47\n  jump\t// in\ntag_46:\n    /* \"#utility.yul\":649:771   */\ntag_45:\n    /* \"#utility.yul\":814:825   */\n  dup1\n    /* \"#utility.yul\":806:812   */\n  dup7\n    /* \"#utility.yul\":802:826   */\n  add\n    /* \"#utility.yul\":852:910   */\n  tag_48\n    /* \"#utility.yul\":906:909   */\n  dup10\n    /* \"#utility.yul\":894:904   */\n  dup3\n    /* \"#utility.yul\":852:910   */\n  tag_49\n  jump\t// in\ntag_48:\n    /* \"#utility.yul\":847:850   */\n  dup6\n    /* \"#utility.yul\":840:911   */\n  mstore\n    /* \"#utility.yul\":940:944   */\n  0x20\n    /* \"#utility.yul\":935:938   */\n  dup6\n    /* \"#utility.yul\":931:945   */\n  add\n    /* \"#utility.yul\":924:945   */\n  swap5\n  pop\n    /* \"#utility.yul\":974:978   */\n  0x20\n    /* \"#utility.yul\":969:972   */\n  dup5\n    /* \"#utility.yul\":965:979   */\n  add\n    /* \"#utility.yul\":958:979   */\n  swap4\n  pop\n    /* \"#utility.yul\":592:989   */\n  pop\n  pop\n    /* \"#utility.yul\":579:580   */\n  0x01\n    /* \"#utility.yul\":576:577   */\n  dup2\n    /* \"#utility.yul\":572:581   */\n  add\n    /* \"#utility.yul\":567:581   */\n  swap1\n  pop\n    /* \"#utility.yul\":532:989   */\n  jump(tag_42)\ntag_44:\n    /* \"#utility.yul\":536:550   */\n  pop\n    /* \"#utility.yul\":146:995   */\n  pop\n  pop\n    /* \"#utility.yul\":23:995   */\n  swap4\n  swap3\n  pop\n  pop\n  pop\n  jump\t// out\n    /* \"#utility.yul\":1001:1422   */\ntag_50:\n    /* \"#utility.yul\":1090:1095   */\n  0x00\n    /* \"#utility.yul\":1115:1181   */\n  tag_52\n    /* \"#utility.yul\":1131:1180   */\n  tag_53\n    /* \"#utility.yul\":1173:1179   */\n  dup5\n    /* \"#utility.yul\":1131:1180   */\n  tag_54\n  jump\t// in\ntag_53:\n    /* \"#utility.yul\":1115:1181   */\n  tag_38\n  jump\t// in\ntag_52:\n    /* \"#utility.yul\":1106:1181   */\n  swap1\n  pop\n    /* \"#utility.yul\":1204:1210   */\n  dup3\n    /* \"#utility.yul\":1197:1202   */\n  dup2\n    /* \"#utility.yul\":1190:1211   */\n  mstore\n    /* \"#utility.yul\":1242:1246   */\n  0x20\n    /* \"#utility.yul\":1235:1240   */\n  dup2\n    /* \"#utility.yul\":1231:1247   */\n  add\n    /* \"#utility.yul\":1280:1283   */\n  dup5\n    /* \"#utility.yul\":1271:1277   */\n  dup5\n    /* \"#utility.yul\":1266:1269   */\n  dup5\n    /* \"#utility.yul\":1262:1278   */\n  add\n    /* \"#utility.yul\":1259:1284   */\n  gt\n    /* \"#utility.yul\":1256:1368   */\n  iszero\n  tag_55\n  jumpi\n    /* \"#utility.yul\":1287:1366   */\n  tag_56\n  tag_57\n  jump\t// in\ntag_56:\n    /* \"#utility.yul\":1256:1368   */\ntag_55:\n    /* \"#utility.yul\":1377:1416   */\n  tag_58\n    /* \"#utility.yul\":1409:1415   */\n  dup5\n    /* \"#utility.yul\":1404:1407   */\n  dup3\n    /* \"#utility.yul\":1399:1402   */\n  dup6\n    /* \"#utility.yul\":1377:1416   */\n  tag_59\n  jump\t// in\ntag_58:\n    /* \"#utility.yul\":1096:1422   */\n  pop\n    /* \"#utility.yul\":1001:1422   */\n  swap4\n  swap3\n  pop\n  pop\n  pop\n  jump\t// out\n    /* \"#utility.yul\":1444:1849   */\ntag_60:\n    /* \"#utility.yul\":1536:1541   */\n  0x00\n    /* \"#utility.yul\":1585:1588   */\n  dup3\n    /* \"#utility.yul\":1578:1582   */\n  0x1f\n    /* \"#utility.yul\":1570:1576   */\n  dup4\n    /* \"#utility.yul\":1566:1583   */\n  add\n    /* \"#utility.yul\":1562:1589   */\n  slt\n    /* \"#utility.yul\":1552:1674   */\n  tag_62\n  jumpi\n    /* \"#utility.yul\":1593:1672   */\n  tag_63\n  tag_47\n  jump\t// in\ntag_63:\n    /* \"#utility.yul\":1552:1674   */\ntag_62:\n    /* \"#utility.yul\":1703:1709   */\n  dup2\n    /* \"#utility.yul\":1697:1710   */\n  mload\n    /* \"#utility.yul\":1728:1843   */\n  tag_64\n    /* \"#utility.yul\":1839:1842   */\n  dup5\n    /* \"#utility.yul\":1831:1837   */\n  dup3\n    /* \"#utility.yul\":1824:1828   */\n  0x20\n    /* \"#utility.yul\":1816:1822   */\n  dup7\n    /* \"#utility.yul\":1812:1829   */\n  add\n    /* \"#utility.yul\":1728:1843   */\n  tag_33\n  jump\t// in\ntag_64:\n    /* \"#utility.yul\":1719:1843   */\n  swap2\n  pop\n    /* \"#utility.yul\":1542:1849   */\n  pop\n    /* \"#utility.yul\":1444:1849   */\n  swap3\n  swap2\n  pop\n  pop\n  jump\t// out\n    /* \"#utility.yul\":1869:2224   */\ntag_49:\n    /* \"#utility.yul\":1936:1941   */\n  0x00\n    /* \"#utility.yul\":1985:1988   */\n  dup3\n    /* \"#utility.yul\":1978:1982   */\n  0x1f\n    /* \"#utility.yul\":1970:1976   */\n  dup4\n    /* \"#utility.yul\":1966:1983   */\n  add\n    /* \"#utility.yul\":1962:1989   */\n  slt\n    /* \"#utility.yul\":1952:2074   */\n  tag_66\n  jumpi\n    /* \"#utility.yul\":1993:2072   */\n  tag_67\n  tag_47\n  jump\t// in\ntag_67:\n    /* \"#utility.yul\":1952:2074   */\ntag_66:\n    /* \"#utility.yul\":2103:2109   */\n  dup2\n    /* \"#utility.yul\":2097:2110   */\n  mload\n    /* \"#utility.yul\":2128:2218   */\n  tag_68\n    /* \"#utility.yul\":2214:2217   */\n  dup5\n    /* \"#utility.yul\":2206:2212   */\n  dup3\n    /* \"#utility.yul\":2199:2203   */\n  0x20\n    /* \"#utility.yul\":2191:2197   */\n  dup7\n    /* \"#utility.yul\":2187:2204   */\n  add\n    /* \"#utility.yul\":2128:2218   */\n  tag_50\n  jump\t// in\ntag_68:\n    /* \"#utility.yul\":2119:2218   */\n  swap2\n  pop\n    /* \"#utility.yul\":1942:2224   */\n  pop\n    /* \"#utility.yul\":1869:2224   */\n  swap3\n  swap2\n  pop\n  pop\n  jump\t// out\n    /* \"#utility.yul\":2230:2373   */\ntag_69:\n    /* \"#utility.yul\":2287:2292   */\n  0x00\n    /* \"#utility.yul\":2318:2324   */\n  dup2\n    /* \"#utility.yul\":2312:2325   */\n  mload\n    /* \"#utility.yul\":2303:2325   */\n  swap1\n  pop\n    /* \"#utility.yul\":2334:2367   */\n  tag_71\n    /* \"#utility.yul\":2361:2366   */\n  dup2\n    /* \"#utility.yul\":2334:2367   */\n  tag_72\n  jump\t// in\ntag_71:\n    /* \"#utility.yul\":2230:2373   */\n  swap3\n  swap2\n  pop\n  pop\n  jump\t// out\n    /* \"#utility.yul\":2379:3109   */\ntag_3:\n    /* \"#utility.yul\":2493:2499   */\n  0x00\n    /* \"#utility.yul\":2501:2507   */\n  dup1\n    /* \"#utility.yul\":2550:2552   */\n  0x40\n    /* \"#utility.yul\":2538:2547   */\n  dup4\n    /* \"#utility.yul\":2529:2536   */\n  dup6\n    /* \"#utility.yul\":2525:2548   */\n  sub\n    /* \"#utility.yul\":2521:2553   */\n  slt\n    /* \"#utility.yul\":2518:2637   */\n  iszero\n  tag_74\n  jumpi\n    /* \"#utility.yul\":2556:2635   */\n  tag_75\n  tag_76\n  jump\t// in\ntag_75:\n    /* \"#utility.yul\":2518:2637   */\ntag_74:\n    /* \"#utility.yul\":2697:2698   */\n  0x00\n    /* \"#utility.yul\":2686:2695   */\n  dup4\n    /* \"#utility.yul\":2682:2699   */\n  add\n    /* \"#utility.yul\":2676:2700   */\n  mload\n    /* \"#utility.yul\":2727:2745   */\n  0xffffffffffffffff\n    /* \"#utility.yul\":2719:2725   */\n  dup2\n    /* \"#utility.yul\":2716:2746   */\n  gt\n    /* \"#utility.yul\":2713:2830   */\n  iszero\n  tag_77\n  jumpi\n    /* \"#utility.yul\":2749:2828   */\n  tag_78\n  tag_79\n  jump\t// in\ntag_78:\n    /* \"#utility.yul\":2713:2830   */\ntag_77:\n    /* \"#utility.yul\":2854:2953   */\n  tag_80\n    /* \"#utility.yul\":2945:2952   */\n  dup6\n    /* \"#utility.yul\":2936:2942   */\n  dup3\n    /* \"#utility.yul\":2925:2934   */\n  dup7\n    /* \"#utility.yul\":2921:2943   */\n  add\n    /* \"#utility.yul\":2854:2953   */\n  tag_60\n  jump\t// in\ntag_80:\n    /* \"#utility.yul\":2844:2953   */\n  swap3\n  pop\n    /* \"#utility.yul\":2647:2963   */\n  pop\n    /* \"#utility.yul\":3002:3004   */\n  0x20\n    /* \"#utility.yul\":3028:3092   */\n  tag_81\n    /* \"#utility.yul\":3084:3091   */\n  dup6\n    /* \"#utility.yul\":3075:3081   */\n  dup3\n    /* \"#utility.yul\":3064:3073   */\n  dup7\n    /* \"#utility.yul\":3060:3082   */\n  add\n    /* \"#utility.yul\":3028:3092   */\n  tag_69\n  jump\t// in\ntag_81:\n    /* \"#utility.yul\":3018:3092   */\n  swap2\n  pop\n    /* \"#utility.yul\":2973:3102   */\n  pop\n    /* \"#utility.yul\":2379:3109   */\n  swap3\n  pop\n  swap3\n  swap1\n  pop\n  jump\t// out\n    /* \"#utility.yul\":3115:3244   */\ntag_38:\n    /* \"#utility.yul\":3149:3155   */\n  0x00\n    /* \"#utility.yul\":3176:3196   */\n  tag_83\n  tag_84\n  jump\t// in\ntag_83:\n    /* \"#utility.yul\":3166:3196   */\n  swap1\n  pop\n    /* \"#utility.yul\":3205:3238   */\n  tag_85\n    /* \"#utility.yul\":3233:3237   */\n  dup3\n    /* \"#utility.yul\":3225:3231   */\n  dup3\n    /* \"#utility.yul\":3205:3238   */\n  tag_86\n  jump\t// in\ntag_85:\n    /* \"#utility.yul\":3115:3244   */\n  swap2\n  swap1\n  pop\n  jump\t// out\n    /* \"#utility.yul\":3250:3325   */\ntag_84:\n    /* \"#utility.yul\":3283:3289   */\n  0x00\n    /* \"#utility.yul\":3316:3318   */\n  0x40\n    /* \"#utility.yul\":3310:3319   */\n  mload\n    /* \"#utility.yul\":3300:3319   */\n  swap1\n  pop\n    /* \"#utility.yul\":3250:3325   */\n  swap1\n  jump\t// out\n    /* \"#utility.yul\":3331:3652   */\ntag_37:\n    /* \"#utility.yul\":3418:3422   */\n  0x00\n    /* \"#utility.yul\":3508:3526   */\n  0xffffffffffffffff\n    /* \"#utility.yul\":3500:3506   */\n  dup3\n    /* \"#utility.yul\":3497:3527   */\n  gt\n    /* \"#utility.yul\":3494:3550   */\n  iszero\n  tag_89\n  jumpi\n    /* \"#utility.yul\":3530:3548   */\n  tag_90\n  tag_91\n  jump\t// in\ntag_90:\n    /* \"#utility.yul\":3494:3550   */\ntag_89:\n    /* \"#utility.yul\":3580:3584   */\n  0x20\n    /* \"#utility.yul\":3572:3578   */\n  dup3\n    /* \"#utility.yul\":3568:3585   */\n  mul\n    /* \"#utility.yul\":3560:3585   */\n  swap1\n  pop\n    /* \"#utility.yul\":3640:3644   */\n  0x20\n    /* \"#utility.yul\":3634:3638   */\n  dup2\n    /* \"#utility.yul\":3630:3645   */\n  add\n    /* \"#utility.yul\":3622:3645   */\n  swap1\n  pop\n    /* \"#utility.yul\":3331:3652   */\n  swap2\n  swap1\n  pop\n  jump\t// out\n    /* \"#utility.yul\":3658:3966   */\ntag_54:\n    /* \"#utility.yul\":3720:3724   */\n  0x00\n    /* \"#utility.yul\":3810:3828   */\n  0xffffffffffffffff\n    /* \"#utility.yul\":3802:3808   */\n  dup3\n    /* \"#utility.yul\":3799:3829   */\n  gt\n    /* \"#utility.yul\":3796:3852   */\n  iszero\n  tag_93\n  jumpi\n    /* \"#utility.yul\":3832:3850   */\n  tag_94\n  tag_91\n  jump\t// in\ntag_94:\n    /* \"#utility.yul\":3796:3852   */\ntag_93:\n    /* \"#utility.yul\":3870:3899   */\n  tag_95\n    /* \"#utility.yul\":3892:3898   */\n  dup3\n    /* \"#utility.yul\":3870:3899   */\n  tag_96\n  jump\t// in\ntag_95:\n    /* \"#utility.yul\":3862:3899   */\n  swap1\n  pop\n    /* \"#utility.yul\":3954:3958   */\n  0x20\n    /* \"#utility.yul\":3948:3952   */\n  dup2\n    /* \"#utility.yul\":3944:3959   */\n  add\n    /* \"#utility.yul\":3936:3959   */\n  swap1\n  pop\n    /* \"#utility.yul\":3658:3966   */\n  swap2\n  swap1\n  pop\n  jump\t// out\n    /* \"#utility.yul\":3972:4049   */\ntag_97:\n    /* \"#utility.yul\":4009:4016   */\n  0x00\n    /* \"#utility.yul\":4038:4043   */\n  dup2\n    /* \"#utility.yul\":4027:4043   */\n  swap1\n  pop\n    /* \"#utility.yul\":3972:4049   */\n  swap2\n  swap1\n  pop\n  jump\t// out\n    /* \"#utility.yul\":4055:4362   */\ntag_59:\n    /* \"#utility.yul\":4123:4124   */\n  0x00\n    /* \"#utility.yul\":4133:4246   */\ntag_100:\n    /* \"#utility.yul\":4147:4153   */\n  dup4\n    /* \"#utility.yul\":4144:4145   */\n  dup2\n    /* \"#utility.yul\":4141:4154   */\n  lt\n    /* \"#utility.yul\":4133:4246   */\n  iszero\n  tag_102\n  jumpi\n    /* \"#utility.yul\":4232:4233   */\n  dup1\n    /* \"#utility.yul\":4227:4230   */\n  dup3\n    /* \"#utility.yul\":4223:4234   */\n  add\n    /* \"#utility.yul\":4217:4235   */\n  mload\n    /* \"#utility.yul\":4213:4214   */\n  dup2\n    /* \"#utility.yul\":4208:4211   */\n  dup5\n    /* \"#utility.yul\":4204:4215   */\n  add\n    /* \"#utility.yul\":4197:4236   */\n  mstore\n    /* \"#utility.yul\":4169:4171   */\n  0x20\n    /* \"#utility.yul\":4166:4167   */\n  dup2\n    /* \"#utility.yul\":4162:4172   */\n  add\n    /* \"#utility.yul\":4157:4172   */\n  swap1\n  pop\n    /* \"#utility.yul\":4133:4246   */\n  jump(tag_100)\ntag_102:\n    /* \"#utility.yul\":4264:4270   */\n  dup4\n    /* \"#utility.yul\":4261:4262   */\n  dup2\n    /* \"#utility.yul\":4258:4271   */\n  gt\n    /* \"#utility.yul\":4255:4356   */\n  iszero\n  tag_103\n  jumpi\n    /* \"#utility.yul\":4344:4345   */\n  0x00\n    /* \"#utility.yul\":4335:4341   */\n  dup5\n    /* \"#utility.yul\":4330:4333   */\n  dup5\n    /* \"#utility.yul\":4326:4342   */\n  add\n    /* \"#utility.yul\":4319:4346   */\n  mstore\n    /* \"#utility.yul\":4255:4356   */\ntag_103:\n    /* \"#utility.yul\":4104:4362   */\n  pop\n    /* \"#utility.yul\":4055:4362   */\n  pop\n  pop\n  pop\n  jump\t// out\n    /* \"#utility.yul\":4368:4688   */\ntag_22:\n    /* \"#utility.yul\":4412:4418   */\n  0x00\n    /* \"#utility.yul\":4449:4450   */\n  0x02\n    /* \"#utility.yul\":4443:4447   */\n  dup3\n    /* \"#utility.yul\":4439:4451   */\n  div\n    /* \"#utility.yul\":4429:4451   */\n  swap1\n  pop\n    /* \"#utility.yul\":4496:4497   */\n  0x01\n    /* \"#utility.yul\":4490:4494   */\n  dup3\n    /* \"#utility.yul\":4486:4498   */\n  and\n    /* \"#utility.yul\":4517:4535   */\n  dup1\n    /* \"#utility.yul\":4507:4588   */\n  tag_105\n  jumpi\n    /* \"#utility.yul\":4573:4577   */\n  0x7f\n    /* \"#utility.yul\":4565:4571   */\n  dup3\n    /* \"#utility.yul\":4561:4578   */\n  and\n    /* \"#utility.yul\":4551:4578   */\n  swap2\n  pop\n    /* \"#utility.yul\":4507:4588   */\ntag_105:\n    /* \"#utility.yul\":4635:4637   */\n  0x20\n    /* \"#utility.yul\":4627:4633   */\n  dup3\n    /* \"#utility.yul\":4624:4638   */\n  lt\n    /* \"#utility.yul\":4604:4622   */\n  dup2\n    /* \"#utility.yul\":4601:4639   */\n  eq\n    /* \"#utility.yul\":4598:4682   */\n  iszero\n  tag_106\n  jumpi\n    /* \"#utility.yul\":4654:4672   */\n  tag_107\n  tag_108\n  jump\t// in\ntag_107:\n    /* \"#utility.yul\":4598:4682   */\ntag_106:\n    /* \"#utility.yul\":4419:4688   */\n  pop\n    /* \"#utility.yul\":4368:4688   */\n  swap2\n  swap1\n  pop\n  jump\t// out\n    /* \"#utility.yul\":4694:4975   */\ntag_86:\n    /* \"#utility.yul\":4777:4804   */\n  tag_110\n    /* \"#utility.yul\":4799:4803   */\n  dup3\n    /* \"#utility.yul\":4777:4804   */\n  tag_96\n  jump\t// in\ntag_110:\n    /* \"#utility.yul\":4769:4775   */\n  dup2\n    /* \"#utility.yul\":4765:4805   */\n  add\n    /* \"#utility.yul\":4907:4913   */\n  dup2\n    /* \"#utility.yul\":4895:4905   */\n  dup2\n    /* \"#utility.yul\":4892:4914   */\n  lt\n    /* \"#utility.yul\":4871:4889   */\n  0xffffffffffffffff\n    /* \"#utility.yul\":4859:4869   */\n  dup3\n    /* \"#utility.yul\":4856:4890   */\n  gt\n    /* \"#utility.yul\":4853:4915   */\n  or\n    /* \"#utility.yul\":4850:4938   */\n  iszero\n  tag_111\n  jumpi\n    /* \"#utility.yul\":4918:4936   */\n  tag_112\n  tag_91\n  jump\t// in\ntag_112:\n    /* \"#utility.yul\":4850:4938   */\ntag_111:\n    /* \"#utility.yul\":4958:4968   */\n  dup1\n    /* \"#utility.yul\":4954:4956   */\n  0x40\n    /* \"#utility.yul\":4947:4969   */\n  mstore\n    /* \"#utility.yul\":4737:4975   */\n  pop\n    /* \"#utility.yul\":4694:4975   */\n  pop\n  pop\n  jump\t// out\n    /* \"#utility.yul\":4981:5214   */\ntag_20:\n    /* \"#utility.yul\":5020:5023   */\n  0x00\n    /* \"#utility.yul\":5043:5067   */\n  tag_114\n    /* \"#utility.yul\":5061:5066   */\n  dup3\n    /* \"#utility.yul\":5043:5067   */\n  tag_97\n  jump\t// in\ntag_114:\n    /* \"#utility.yul\":5034:5067   */\n  swap2\n  pop\n    /* \"#utility.yul\":5089:5155   */\n  0xffffffffffffffffffffffffffffffffffffffffffffffffffffffffffffffff\n    /* \"#utility.yul\":5082:5087   */\n  dup3\n    /* \"#utility.yul\":5079:5156   */\n  eq\n    /* \"#utility.yul\":5076:5179   */\n  iszero\n  tag_115\n  jumpi\n    /* \"#utility.yul\":5159:5177   */\n  tag_116\n  tag_117\n  jump\t// in\ntag_116:\n    /* \"#utility.yul\":5076:5179   */\ntag_115:\n    /* \"#utility.yul\":5206:5207   */\n  0x01\n    /* \"#utility.yul\":5199:5204   */\n  dup3\n    /* \"#utility.yul\":5195:5208   */\n  add\n    /* \"#utility.yul\":5188:5208   */\n  swap1\n  pop\n    /* \"#utility.yul\":4981:5214   */\n  swap2\n  swap1\n  pop\n  jump\t// out\n    /* \"#utility.yul\":5220:5400   */\ntag_117:\n    /* \"#utility.yul\":5268:5345   */\n  0x4e487b7100000000000000000000000000000000000000000000000000000000\n    /* \"#utility.yul\":5265:5266   */\n  0x00\n    /* \"#utility.yul\":5258:5346   */\n  mstore\n    /* \"#utility.yul\":5365:5369   */\n  0x11\n    /* \"#utility.yul\":5362:5363   */\n  0x04\n    /* \"#utility.yul\":5355:5370   */\n  mstore\n    /* \"#utility.yul\":5389:5393   */\n  0x24\n    /* \"#utility.yul\":5386:5387   */\n  0x00\n    /* \"#utility.yul\":5379:5394   */\n  revert\n    /* \"#utility.yul\":5406:5586   */\ntag_108:\n    /* \"#utility.yul\":5454:5531   */\n  0x4e487b7100000000000000000000000000000000000000000000000000000000\n    /* \"#utility.yul\":5451:5452   */\n  0x00\n    /* \"#utility.yul\":5444:5532   */\n  mstore\n    /* \"#utility.yul\":5551:5555   */\n  0x22\n    /* \"#utility.yul\":5548:5549   */\n  0x04\n    /* \"#utility.yul\":5541:5556   */\n  mstore\n    /* \"#utility.yul\":5575:5579   */\n  0x24\n    /* \"#utility.yul\":5572:5573   */\n  0x00\n    /* \"#utility.yul\":5565:5580   */\n  revert\n    /* \"#utility.yul\":5592:5772   */\ntag_15:\n    /* \"#utility.yul\":5640:5717   */\n  0x4e487b7100000000000000000000000000000000000000000000000000000000\n    /* \"#utility.yul\":5637:5638   */\n  0x00\n    /* \"#utility.yul\":5630:5718   */\n  mstore\n    /* \"#utility.yul\":5737:5741   */\n  0x32\n    /* \"#utility.yul\":5734:5735   */\n  0x04\n    /* \"#utility.yul\":5727:5742   */\n  mstore\n    /* \"#utility.yul\":5761:5765   */\n  0x24\n    /* \"#utility.yul\":5758:5759   */\n  0x00\n    /* \"#utility.yul\":5751:5766   */\n  revert\n    /* \"#utility.yul\":5778:5958   */\ntag_91:\n    /* \"#utility.yul\":5826:5903   */\n  0x4e487b7100000000000000000000000000000000000000000000000000000000\n    /* \"#utility.yul\":5823:5824   */\n  0x00\n    /* \"#utility.yul\":5816:5904   */\n  mstore\n    /* \"#utility.yul\":5923:5927   */\n  0x41\n    /* \"#utility.yul\":5920:5921   */\n  0x04\n    /* \"#utility.yul\":5913:5928   */\n  mstore\n    /* \"#utility.yul\":5947:5951   */\n  0x24\n    /* \"#utility.yul\":5944:5945   */\n  0x00\n    /* \"#utility.yul\":5937:5952   */\n  revert\n    /* \"#utility.yul\":5964:6081   */\ntag_47:\n    /* \"#utility.yul\":6073:6074   */\n  0x00\n    /* \"#utility.yul\":6070:6071   */\n  dup1\n    /* \"#utility.yul\":6063:6075   */\n  revert\n    /* \"#utility.yul\":6087:6204   */\ntag_41:\n    /* \"#utility.yul\":6196:6197   */\n  0x00\n    /* \"#utility.yul\":6193:6194   */\n  dup1\n    /* \"#utility.yul\":6186:6198   */\n  revert\n    /* \"#utility.yul\":6210:6327   */\ntag_57:\n    /* \"#utility.yul\":6319:6320   */\n  0x00\n    /* \"#utility.yul\":6316:6317   */\n  dup1\n    /* \"#utility.yul\":6309:6321   */\n  revert\n    /* \"#utility.yul\":6333:6450   */\ntag_79:\n    /* \"#utility.yul\":6442:6443   */\n  0x00\n    /* \"#utility.yul\":6439:6440   */\n  dup1\n    /* \"#utility.yul\":6432:6444   */\n  revert\n    /* \"#utility.yul\":6456:6573   */\ntag_76:\n    /* \"#utility.yul\":6565:6566   */\n  0x00\n    /* \"#utility.yul\":6562:6563   */\n  dup1\n    /* \"#utility.yul\":6555:6567   */\n  revert\n    /* \"#utility.yul\":6579:6681   */\ntag_96:\n    /* \"#utility.yul\":6620:6626   */\n  0x00\n    /* \"#utility.yul\":6671:6673   */\n  0x1f\n    /* \"#utility.yul\":6667:6674   */\n  not\n    /* \"#utility.yul\":6662:6664   */\n  0x1f\n    /* \"#utility.yul\":6655:6660   */\n  dup4\n    /* \"#utility.yul\":6651:6665   */\n  add\n    /* \"#utility.yul\":6647:6675   */\n  and\n    /* \"#utility.yul\":6637:6675   */\n  swap1\n  pop\n    /* \"#utility.yul\":6579:6681   */\n  swap2\n  swap1\n  pop\n  jump\t// out\n    /* \"#utility.yul\":6687:6809   */\ntag_72:\n    /* \"#utility.yul\":6760:6784   */\n  tag_129\n    /* \"#utility.yul\":6778:6783   */\n  dup2\n    /* \"#utility.yul\":6760:6784   */\n  tag_97\n  jump\t// in\ntag_129:\n    /* \"#utility.yul\":6753:6758   */\n  dup2\n    /* \"#utility.yul\":6750:6785   */\n  eq\n    /* \"#utility.yul\":6740:6803   */\n  tag_130\n  jumpi\n    /* \"#utility.yul\":6799:6800   */\n  0x00\n    /* \"#utility.yul\":6796:6797   */\n  dup1\n    /* \"#utility.yul\":6789:6801   */\n  revert\n    /* \"#utility.yul\":6740:6803   */\ntag_130:\n    /* \"#utility.yul\":6687:6809   */\n  pop\n  jump\t// out\n    /* \"contracts/Ballot/Ballot.sol\":70:5370  contract MyBallot {\r... */\ntag_8:\n  dataSize(sub_0)\n  dup1\n  dataOffset(sub_0)\n  0x00\n  codecopy\n  0x00\n  return\nstop\n\nsub_0: assembly {\n        /* \"contracts/Ballot/Ballot.sol\":70:5370  contract MyBallot {\r... */\n      mstore(0x40, 0x80)\n      callvalue\n      dup1\n      iszero\n      tag_1\n      jumpi\n      0x00\n      dup1\n      revert\n    tag_1:\n      pop\n      jumpi(tag_2, lt(calldatasize, 0x04))\n      shr(0xe0, calldataload(0x00))\n      dup1\n      0x011d1023\n      eq\n      tag_3\n      jumpi\n      dup1\n      0x2bfda515\n      eq\n      tag_4\n      jumpi\n      dup1\n      0x9e7b8d61\n      eq\n      tag_5\n      jumpi\n      dup1\n      0xfc36e15b\n      eq\n      tag_6\n      jumpi\n    tag_2:\n      0x00\n      dup1\n      revert\n        /* \"contracts/Ballot/Ballot.sol\":4015:4423  function getCandidatesListName() public view returns (string[] memory) {\r... */\n    tag_3:\n      tag_7\n      tag_8\n      jump\t// in\n    tag_7:\n      mload(0x40)\n      tag_9\n      swap2\n      swap1\n      tag_10\n      jump\t// in\n    tag_9:\n      mload(0x40)\n      dup1\n      swap2\n      sub\n      swap1\n      return\n        /* \"contracts/Ballot/Ballot.sol\":2974:3390  function getWinnerName() public view returns (string memory winnerName, address) {\r... */\n    tag_4:\n      tag_11\n      tag_12\n      jump\t// in\n    tag_11:\n      mload(0x40)\n      tag_13\n      swap3\n      swap2\n      swap1\n      tag_14\n      jump\t// in\n    tag_13:\n      mload(0x40)\n      dup1\n      swap2\n      sub\n      swap1\n      return\n        /* \"contracts/Ballot/Ballot.sol\":2276:2422  function giveRightToVote(address voterAddress) public giveRightToVoteModifier(voterAddress) {\r... */\n    tag_5:\n      tag_15\n      0x04\n      dup1\n      calldatasize\n      sub\n      dup2\n      add\n      swap1\n      tag_16\n      swap2\n      swap1\n      tag_17\n      jump\t// in\n    tag_16:\n      tag_18\n      jump\t// in\n    tag_15:\n      stop\n        /* \"contracts/Ballot/Ballot.sol\":2430:2966  function vote(string memory _nameProject) public voteModifier(msg.sender) {\r... */\n    tag_6:\n      tag_19\n      0x04\n      dup1\n      calldatasize\n      sub\n      dup2\n      add\n      swap1\n      tag_20\n      swap2\n      swap1\n      tag_21\n      jump\t// in\n    tag_20:\n      tag_22\n      jump\t// in\n    tag_19:\n      stop\n        /* \"contracts/Ballot/Ballot.sol\":4015:4423  function getCandidatesListName() public view returns (string[] memory) {\r... */\n    tag_8:\n        /* \"contracts/Ballot/Ballot.sol\":4069:4084  string[] memory */\n      0x60\n        /* \"contracts/Ballot/Ballot.sol\":4097:4118  uint candidatesLength */\n      0x00\n        /* \"contracts/Ballot/Ballot.sol\":4121:4131  candidates */\n      0x02\n        /* \"contracts/Ballot/Ballot.sol\":4121:4138  candidates.length */\n      dup1\n      sload\n      swap1\n      pop\n        /* \"contracts/Ballot/Ballot.sol\":4097:4138  uint candidatesLength = candidates.length */\n      swap1\n      pop\n        /* \"contracts/Ballot/Ballot.sol\":4149:4184  string[]  memory candidatesListName */\n      0x00\n        /* \"contracts/Ballot/Ballot.sol\":4200:4216  candidatesLength */\n      dup2\n        /* \"contracts/Ballot/Ballot.sol\":4187:4217  new string[](candidatesLength) */\n      0xffffffffffffffff\n      dup2\n      gt\n      iszero\n      tag_24\n      jumpi\n      tag_25\n      tag_26\n      jump\t// in\n    tag_25:\n    tag_24:\n      mload(0x40)\n      swap1\n      dup1\n      dup3\n      mstore\n      dup1\n      0x20\n      mul\n      0x20\n      add\n      dup3\n      add\n      0x40\n      mstore\n      dup1\n      iszero\n      tag_27\n      jumpi\n      dup2\n      0x20\n      add\n    tag_28:\n      0x60\n      dup2\n      mstore\n      0x20\n      add\n      swap1\n      0x01\n      swap1\n      sub\n      swap1\n      dup2\n      tag_28\n      jumpi\n      swap1\n      pop\n    tag_27:\n      pop\n        /* \"contracts/Ballot/Ballot.sol\":4149:4217  string[]  memory candidatesListName = new string[](candidatesLength) */\n      swap1\n      pop\n        /* \"contracts/Ballot/Ballot.sol\":4243:4253  uint index */\n      0x00\n        /* \"contracts/Ballot/Ballot.sol\":4238:4378  for (uint index = 0; index < candidatesLength; index++) {\r... */\n    tag_29:\n        /* \"contracts/Ballot/Ballot.sol\":4267:4283  candidatesLength */\n      dup3\n        /* \"contracts/Ballot/Ballot.sol\":4259:4264  index */\n      dup2\n        /* \"contracts/Ballot/Ballot.sol\":4259:4283  index < candidatesLength */\n      lt\n        /* \"contracts/Ballot/Ballot.sol\":4238:4378  for (uint index = 0; index < candidatesLength; index++) {\r... */\n      iszero\n      tag_30\n      jumpi\n        /* \"contracts/Ballot/Ballot.sol\":4337:4347  candidates */\n      0x02\n        /* \"contracts/Ballot/Ballot.sol\":4348:4353  index */\n      dup2\n        /* \"contracts/Ballot/Ballot.sol\":4337:4354  candidates[index] */\n      dup2\n      sload\n      dup2\n      lt\n      tag_32\n      jumpi\n      tag_33\n      tag_34\n      jump\t// in\n    tag_33:\n    tag_32:\n      swap1\n      0x00\n      mstore\n      keccak256(0x00, 0x20)\n      swap1\n      0x02\n      mul\n      add\n        /* \"contracts/Ballot/Ballot.sol\":4337:4366  candidates[index].nameProject */\n      0x00\n      add\n        /* \"contracts/Ballot/Ballot.sol\":4309:4366  candidatesListName[index] = candidates[index].nameProject */\n      dup1\n      sload\n      tag_36\n      swap1\n      tag_37\n      jump\t// in\n    tag_36:\n      dup1\n      0x1f\n      add\n      0x20\n      dup1\n      swap2\n      div\n      mul\n      0x20\n      add\n      mload(0x40)\n      swap1\n      dup2\n      add\n      0x40\n      mstore\n      dup1\n      swap3\n      swap2\n      swap1\n      dup2\n      dup2\n      mstore\n      0x20\n      add\n      dup3\n      dup1\n      sload\n      tag_38\n      swap1\n      tag_37\n      jump\t// in\n    tag_38:\n      dup1\n      iszero\n      tag_39\n      jumpi\n      dup1\n      0x1f\n      lt\n      tag_40\n      jumpi\n      0x0100\n      dup1\n      dup4\n      sload\n      div\n      mul\n      dup4\n      mstore\n      swap2\n      0x20\n      add\n      swap2\n      jump(tag_39)\n    tag_40:\n      dup3\n      add\n      swap2\n      swap1\n      0x00\n      mstore\n      keccak256(0x00, 0x20)\n      swap1\n    tag_41:\n      dup2\n      sload\n      dup2\n      mstore\n      swap1\n      0x01\n      add\n      swap1\n      0x20\n      add\n      dup1\n      dup4\n      gt\n      tag_41\n      jumpi\n      dup3\n      swap1\n      sub\n      0x1f\n      and\n      dup3\n      add\n      swap2\n    tag_39:\n      pop\n      pop\n      pop\n      pop\n      pop\n        /* \"contracts/Ballot/Ballot.sol\":4309:4327  candidatesListName */\n      dup3\n        /* \"contracts/Ballot/Ballot.sol\":4328:4333  index */\n      dup3\n        /* \"contracts/Ballot/Ballot.sol\":4309:4334  candidatesListName[index] */\n      dup2\n      mload\n      dup2\n      lt\n      tag_42\n      jumpi\n      tag_43\n      tag_34\n      jump\t// in\n    tag_43:\n    tag_42:\n      0x20\n      mul\n      0x20\n      add\n      add\n        /* \"contracts/Ballot/Ballot.sol\":4309:4366  candidatesListName[index] = candidates[index].nameProject */\n      dup2\n      swap1\n      mstore\n      pop\n        /* \"contracts/Ballot/Ballot.sol\":4285:4292  index++ */\n      dup1\n      dup1\n      tag_44\n      swap1\n      tag_45\n      jump\t// in\n    tag_44:\n      swap2\n      pop\n      pop\n        /* \"contracts/Ballot/Ballot.sol\":4238:4378  for (uint index = 0; index < candidatesLength; index++) {\r... */\n      jump(tag_29)\n    tag_30:\n      pop\n        /* \"contracts/Ballot/Ballot.sol\":4397:4415  candidatesListName */\n      dup1\n        /* \"contracts/Ballot/Ballot.sol\":4390:4415  return candidatesListName */\n      swap3\n      pop\n      pop\n      pop\n        /* \"contracts/Ballot/Ballot.sol\":4015:4423  function getCandidatesListName() public view returns (string[] memory) {\r... */\n      swap1\n      jump\t// out\n        /* \"contracts/Ballot/Ballot.sol\":2974:3390  function getWinnerName() public view returns (string memory winnerName, address) {\r... */\n    tag_12:\n        /* \"contracts/Ballot/Ballot.sol\":3020:3044  string memory winnerName */\n      0x60\n        /* \"contracts/Ballot/Ballot.sol\":3046:3053  address */\n      0x00\n        /* \"contracts/Ballot/Ballot.sol\":3067:3087  uint winningProposal */\n      dup1\n        /* \"contracts/Ballot/Ballot.sol\":3089:3099  bool isTie */\n      0x00\n        /* \"contracts/Ballot/Ballot.sol\":3103:3124  getWinningCandidate() */\n      tag_47\n        /* \"contracts/Ballot/Ballot.sol\":3103:3122  getWinningCandidate */\n      tag_48\n        /* \"contracts/Ballot/Ballot.sol\":3103:3124  getWinningCandidate() */\n      jump\t// in\n    tag_47:\n        /* \"contracts/Ballot/Ballot.sol\":3066:3124  (uint winningProposal, bool isTie) = getWinningCandidate() */\n      swap2\n      pop\n      swap2\n      pop\n        /* \"contracts/Ballot/Ballot.sol\":3158:3163  isTie */\n      dup1\n        /* \"contracts/Ballot/Ballot.sol\":3157:3163  !isTie */\n      iszero\n        /* \"contracts/Ballot/Ballot.sol\":3135:3267  require(\r... */\n      tag_49\n      jumpi\n      mload(0x40)\n      0x08c379a000000000000000000000000000000000000000000000000000000000\n      dup2\n      mstore\n      0x04\n      add\n      tag_50\n      swap1\n      tag_51\n      jump\t// in\n    tag_50:\n      mload(0x40)\n      dup1\n      swap2\n      sub\n      swap1\n      revert\n    tag_49:\n        /* \"contracts/Ballot/Ballot.sol\":3291:3301  candidates */\n      0x02\n        /* \"contracts/Ballot/Ballot.sol\":3302:3317  winningProposal */\n      dup3\n        /* \"contracts/Ballot/Ballot.sol\":3291:3318  candidates[winningProposal] */\n      dup2\n      sload\n      dup2\n      lt\n      tag_52\n      jumpi\n      tag_53\n      tag_34\n      jump\t// in\n    tag_53:\n    tag_52:\n      swap1\n      0x00\n      mstore\n      keccak256(0x00, 0x20)\n      swap1\n      0x02\n      mul\n      add\n        /* \"contracts/Ballot/Ballot.sol\":3291:3330  candidates[winningProposal].nameProject */\n      0x00\n      add\n        /* \"contracts/Ballot/Ballot.sol\":3278:3330  winnerName = candidates[winningProposal].nameProject */\n      dup1\n      sload\n      tag_55\n      swap1\n      tag_37\n      jump\t// in\n    tag_55:\n      dup1\n      0x1f\n      add\n      0x20\n      dup1\n      swap2\n      div\n      mul\n      0x20\n      add\n      mload(0x40)\n      swap1\n      dup2\n      add\n      0x40\n      mstore\n      dup1\n      swap3\n      swap2\n      swap1\n      dup2\n      dup2\n      mstore\n      0x20\n      add\n      dup3\n      dup1\n      sload\n      tag_56\n      swap1\n      tag_37\n      jump\t// in\n    tag_56:\n      dup1\n      iszero\n      tag_57\n      jumpi\n      dup1\n      0x1f\n      lt\n      tag_58\n      jumpi\n      0x0100\n      dup1\n      dup4\n      sload\n      div\n      mul\n      dup4\n      mstore\n      swap2\n      0x20\n      add\n      swap2\n      jump(tag_57)\n    tag_58:\n      dup3\n      add\n      swap2\n      swap1\n      0x00\n      mstore\n      keccak256(0x00, 0x20)\n      swap1\n    tag_59:\n      dup2\n      sload\n      dup2\n      mstore\n      swap1\n      0x01\n      add\n      swap1\n      0x20\n      add\n      dup1\n      dup4\n      gt\n      tag_59\n      jumpi\n      dup3\n      swap1\n      sub\n      0x1f\n      and\n      dup3\n      add\n      swap2\n    tag_57:\n      pop\n      pop\n      pop\n      pop\n      pop\n      swap4\n      pop\n        /* \"contracts/Ballot/Ballot.sol\":3349:3359  winnerName */\n      dup4\n        /* \"contracts/Ballot/Ballot.sol\":3361:3381  getContractAddress() */\n      tag_60\n        /* \"contracts/Ballot/Ballot.sol\":3361:3379  getContractAddress */\n      tag_61\n        /* \"contracts/Ballot/Ballot.sol\":3361:3381  getContractAddress() */\n      jump\t// in\n    tag_60:\n        /* \"contracts/Ballot/Ballot.sol\":3341:3382  return (winnerName, getContractAddress()) */\n      swap4\n      pop\n      swap4\n      pop\n      pop\n      pop\n        /* \"contracts/Ballot/Ballot.sol\":2974:3390  function getWinnerName() public view returns (string memory winnerName, address) {\r... */\n      swap1\n      swap2\n      jump\t// out\n        /* \"contracts/Ballot/Ballot.sol\":2276:2422  function giveRightToVote(address voterAddress) public giveRightToVoteModifier(voterAddress) {\r... */\n    tag_18:\n        /* \"contracts/Ballot/Ballot.sol\":2354:2366  voterAddress */\n      dup1\n        /* \"contracts/Ballot/Ballot.sol\":985:1021  getTotalVotesCounterReachedRequire() */\n      tag_63\n        /* \"contracts/Ballot/Ballot.sol\":985:1019  getTotalVotesCounterReachedRequire */\n      tag_64\n        /* \"contracts/Ballot/Ballot.sol\":985:1021  getTotalVotesCounterReachedRequire() */\n      jump\t// in\n    tag_63:\n        /* \"contracts/Ballot/Ballot.sol\":1054:1075  areYouContractOwner() */\n      tag_65\n        /* \"contracts/Ballot/Ballot.sol\":1054:1073  areYouContractOwner */\n      tag_66\n        /* \"contracts/Ballot/Ballot.sol\":1054:1075  areYouContractOwner() */\n      jump\t// in\n    tag_65:\n        /* \"contracts/Ballot/Ballot.sol\":1032:1150  require(\r... */\n      tag_67\n      jumpi\n      mload(0x40)\n      0x08c379a000000000000000000000000000000000000000000000000000000000\n      dup2\n      mstore\n      0x04\n      add\n      tag_68\n      swap1\n      tag_69\n      jump\t// in\n    tag_68:\n      mload(0x40)\n      dup1\n      swap2\n      sub\n      swap1\n      revert\n    tag_67:\n        /* \"contracts/Ballot/Ballot.sol\":1161:1195  getVoterVotedRequire(voterAddress) */\n      tag_70\n        /* \"contracts/Ballot/Ballot.sol\":1182:1194  voterAddress */\n      dup2\n        /* \"contracts/Ballot/Ballot.sol\":1161:1181  getVoterVotedRequire */\n      tag_71\n        /* \"contracts/Ballot/Ballot.sol\":1161:1195  getVoterVotedRequire(voterAddress) */\n      jump\t// in\n    tag_70:\n        /* \"contracts/Ballot/Ballot.sol\":2410:2414  true */\n      0x01\n        /* \"contracts/Ballot/Ballot.sol\":2379:2385  voters */\n      dup1\n        /* \"contracts/Ballot/Ballot.sol\":2379:2399  voters[voterAddress] */\n      0x00\n        /* \"contracts/Ballot/Ballot.sol\":2386:2398  voterAddress */\n      dup5\n        /* \"contracts/Ballot/Ballot.sol\":2379:2399  voters[voterAddress] */\n      0xffffffffffffffffffffffffffffffffffffffff\n      and\n      0xffffffffffffffffffffffffffffffffffffffff\n      and\n      dup2\n      mstore\n      0x20\n      add\n      swap1\n      dup2\n      mstore\n      0x20\n      add\n      0x00\n      keccak256\n        /* \"contracts/Ballot/Ballot.sol\":2379:2407  voters[voterAddress].canVote */\n      0x00\n      add\n      0x00\n        /* \"contracts/Ballot/Ballot.sol\":2379:2414  voters[voterAddress].canVote = true */\n      0x0100\n      exp\n      dup2\n      sload\n      dup2\n      0xff\n      mul\n      not\n      and\n      swap1\n      dup4\n      iszero\n      iszero\n      mul\n      or\n      swap1\n      sstore\n      pop\n        /* \"contracts/Ballot/Ballot.sol\":2276:2422  function giveRightToVote(address voterAddress) public giveRightToVoteModifier(voterAddress) {\r... */\n      pop\n      pop\n      jump\t// out\n        /* \"contracts/Ballot/Ballot.sol\":2430:2966  function vote(string memory _nameProject) public voteModifier(msg.sender) {\r... */\n    tag_22:\n        /* \"contracts/Ballot/Ballot.sol\":2492:2502  msg.sender */\n      caller\n        /* \"contracts/Ballot/Ballot.sol\":1278:1314  getTotalVotesCounterReachedRequire() */\n      tag_74\n        /* \"contracts/Ballot/Ballot.sol\":1278:1312  getTotalVotesCounterReachedRequire */\n      tag_64\n        /* \"contracts/Ballot/Ballot.sol\":1278:1314  getTotalVotesCounterReachedRequire() */\n      jump\t// in\n    tag_74:\n        /* \"contracts/Ballot/Ballot.sol\":1347:1370  areYouHaveRigthToVote() */\n      tag_75\n        /* \"contracts/Ballot/Ballot.sol\":1347:1368  areYouHaveRigthToVote */\n      tag_76\n        /* \"contracts/Ballot/Ballot.sol\":1347:1370  areYouHaveRigthToVote() */\n      jump\t// in\n    tag_75:\n        /* \"contracts/Ballot/Ballot.sol\":1325:1425  require(\r... */\n      tag_77\n      jumpi\n      mload(0x40)\n      0x08c379a000000000000000000000000000000000000000000000000000000000\n      dup2\n      mstore\n      0x04\n      add\n      tag_78\n      swap1\n      tag_79\n      jump\t// in\n    tag_78:\n      mload(0x40)\n      dup1\n      swap2\n      sub\n      swap1\n      revert\n    tag_77:\n        /* \"contracts/Ballot/Ballot.sol\":1436:1470  getVoterVotedRequire(voterAddress) */\n      tag_80\n        /* \"contracts/Ballot/Ballot.sol\":1457:1469  voterAddress */\n      dup2\n        /* \"contracts/Ballot/Ballot.sol\":1436:1456  getVoterVotedRequire */\n      tag_71\n        /* \"contracts/Ballot/Ballot.sol\":1436:1470  getVoterVotedRequire(voterAddress) */\n      jump\t// in\n    tag_80:\n        /* \"contracts/Ballot/Ballot.sol\":2515:2535  Voter storage sender */\n      0x00\n        /* \"contracts/Ballot/Ballot.sol\":2538:2544  voters */\n      0x01\n        /* \"contracts/Ballot/Ballot.sol\":2538:2556  voters[msg.sender] */\n      0x00\n        /* \"contracts/Ballot/Ballot.sol\":2545:2555  msg.sender */\n      caller\n        /* \"contracts/Ballot/Ballot.sol\":2538:2556  voters[msg.sender] */\n      0xffffffffffffffffffffffffffffffffffffffff\n      and\n      0xffffffffffffffffffffffffffffffffffffffff\n      and\n      dup2\n      mstore\n      0x20\n      add\n      swap1\n      dup2\n      mstore\n      0x20\n      add\n      0x00\n      keccak256\n        /* \"contracts/Ballot/Ballot.sol\":2515:2556  Voter storage sender = voters[msg.sender] */\n      swap1\n      pop\n        /* \"contracts/Ballot/Ballot.sol\":2673:2683  uint index */\n      0x00\n        /* \"contracts/Ballot/Ballot.sol\":2668:2959  for (uint index = 0; index < candidates.length; index++) {\r... */\n    tag_82:\n        /* \"contracts/Ballot/Ballot.sol\":2697:2707  candidates */\n      0x02\n        /* \"contracts/Ballot/Ballot.sol\":2697:2714  candidates.length */\n      dup1\n      sload\n      swap1\n      pop\n        /* \"contracts/Ballot/Ballot.sol\":2689:2694  index */\n      dup2\n        /* \"contracts/Ballot/Ballot.sol\":2689:2714  index < candidates.length */\n      lt\n        /* \"contracts/Ballot/Ballot.sol\":2668:2959  for (uint index = 0; index < candidates.length; index++) {\r... */\n      iszero\n      tag_83\n      jumpi\n        /* \"contracts/Ballot/Ballot.sol\":2744:2802  stringEqualTo(candidates[index].nameProject, _nameProject) */\n      tag_85\n        /* \"contracts/Ballot/Ballot.sol\":2758:2768  candidates */\n      0x02\n        /* \"contracts/Ballot/Ballot.sol\":2769:2774  index */\n      dup3\n        /* \"contracts/Ballot/Ballot.sol\":2758:2775  candidates[index] */\n      dup2\n      sload\n      dup2\n      lt\n      tag_86\n      jumpi\n      tag_87\n      tag_34\n      jump\t// in\n    tag_87:\n    tag_86:\n      swap1\n      0x00\n      mstore\n      keccak256(0x00, 0x20)\n      swap1\n      0x02\n      mul\n      add\n        /* \"contracts/Ballot/Ballot.sol\":2758:2787  candidates[index].nameProject */\n      0x00\n      add\n        /* \"contracts/Ballot/Ballot.sol\":2744:2802  stringEqualTo(candidates[index].nameProject, _nameProject) */\n      dup1\n      sload\n      tag_89\n      swap1\n      tag_37\n      jump\t// in\n    tag_89:\n      dup1\n      0x1f\n      add\n      0x20\n      dup1\n      swap2\n      div\n      mul\n      0x20\n      add\n      mload(0x40)\n      swap1\n      dup2\n      add\n      0x40\n      mstore\n      dup1\n      swap3\n      swap2\n      swap1\n      dup2\n      dup2\n      mstore\n      0x20\n      add\n      dup3\n      dup1\n      sload\n      tag_90\n      swap1\n      tag_37\n      jump\t// in\n    tag_90:\n      dup1\n      iszero\n      tag_91\n      jumpi\n      dup1\n      0x1f\n      lt\n      tag_92\n      jumpi\n      0x0100\n      dup1\n      dup4\n      sload\n      div\n      mul\n      dup4\n      mstore\n      swap2\n      0x20\n      add\n      swap2\n      jump(tag_91)\n    tag_92:\n      dup3\n      add\n      swap2\n      swap1\n      0x00\n      mstore\n      keccak256(0x00, 0x20)\n      swap1\n    tag_93:\n      dup2\n      sload\n      dup2\n      mstore\n      swap1\n      0x01\n      add\n      swap1\n      0x20\n      add\n      dup1\n      dup4\n      gt\n      tag_93\n      jumpi\n      dup3\n      swap1\n      sub\n      0x1f\n      and\n      dup3\n      add\n      swap2\n    tag_91:\n      pop\n      pop\n      pop\n      pop\n      pop\n        /* \"contracts/Ballot/Ballot.sol\":2789:2801  _nameProject */\n      dup6\n        /* \"contracts/Ballot/Ballot.sol\":2744:2757  stringEqualTo */\n      tag_94\n        /* \"contracts/Ballot/Ballot.sol\":2744:2802  stringEqualTo(candidates[index].nameProject, _nameProject) */\n      jump\t// in\n    tag_85:\n        /* \"contracts/Ballot/Ballot.sol\":2740:2948  if (stringEqualTo(candidates[index].nameProject, _nameProject)) {\r... */\n      iszero\n      tag_95\n      jumpi\n        /* \"contracts/Ballot/Ballot.sol\":2823:2833  candidates */\n      0x02\n        /* \"contracts/Ballot/Ballot.sol\":2834:2839  index */\n      dup2\n        /* \"contracts/Ballot/Ballot.sol\":2823:2840  candidates[index] */\n      dup2\n      sload\n      dup2\n      lt\n      tag_96\n      jumpi\n      tag_97\n      tag_34\n      jump\t// in\n    tag_97:\n    tag_96:\n      swap1\n      0x00\n      mstore\n      keccak256(0x00, 0x20)\n      swap1\n      0x02\n      mul\n      add\n        /* \"contracts/Ballot/Ballot.sol\":2823:2851  candidates[index].votesCount */\n      0x01\n      add\n      0x00\n        /* \"contracts/Ballot/Ballot.sol\":2823:2853  candidates[index].votesCount++ */\n      dup2\n      sload\n      dup1\n      swap3\n      swap2\n      swap1\n      tag_99\n      swap1\n      tag_45\n      jump\t// in\n    tag_99:\n      swap2\n      swap1\n      pop\n      sstore\n      pop\n        /* \"contracts/Ballot/Ballot.sol\":2890:2894  true */\n      0x01\n        /* \"contracts/Ballot/Ballot.sol\":2872:2878  sender */\n      dup3\n        /* \"contracts/Ballot/Ballot.sol\":2872:2887  sender.hasVoted */\n      0x00\n      add\n      0x01\n        /* \"contracts/Ballot/Ballot.sol\":2872:2894  sender.hasVoted = true */\n      0x0100\n      exp\n      dup2\n      sload\n      dup2\n      0xff\n      mul\n      not\n      and\n      swap1\n      dup4\n      iszero\n      iszero\n      mul\n      or\n      swap1\n      sstore\n      pop\n        /* \"contracts/Ballot/Ballot.sol\":2913:2930  totalVotesCounter */\n      0x03\n      0x00\n        /* \"contracts/Ballot/Ballot.sol\":2913:2932  totalVotesCounter++ */\n      dup2\n      sload\n      dup1\n      swap3\n      swap2\n      swap1\n      tag_100\n      swap1\n      tag_45\n      jump\t// in\n    tag_100:\n      swap2\n      swap1\n      pop\n      sstore\n      pop\n        /* \"contracts/Ballot/Ballot.sol\":2740:2948  if (stringEqualTo(candidates[index].nameProject, _nameProject)) {\r... */\n    tag_95:\n        /* \"contracts/Ballot/Ballot.sol\":2716:2723  index++ */\n      dup1\n      dup1\n      tag_101\n      swap1\n      tag_45\n      jump\t// in\n    tag_101:\n      swap2\n      pop\n      pop\n        /* \"contracts/Ballot/Ballot.sol\":2668:2959  for (uint index = 0; index < candidates.length; index++) {\r... */\n      jump(tag_82)\n    tag_83:\n      pop\n        /* \"contracts/Ballot/Ballot.sol\":2504:2966  {\r... */\n      pop\n        /* \"contracts/Ballot/Ballot.sol\":2430:2966  function vote(string memory _nameProject) public voteModifier(msg.sender) {\r... */\n      pop\n      pop\n      jump\t// out\n        /* \"contracts/Ballot/Ballot.sol\":3398:4007  function getWinningCandidate() private view returns (uint winningProposal, bool isTie) {        \r... */\n    tag_48:\n        /* \"contracts/Ballot/Ballot.sol\":3451:3471  uint winningProposal */\n      0x00\n        /* \"contracts/Ballot/Ballot.sol\":3473:3483  bool isTie */\n      dup1\n        /* \"contracts/Ballot/Ballot.sol\":3504:3525  uint winningVoteCount */\n      0x00\n        /* \"contracts/Ballot/Ballot.sol\":3543:3562  uint indexCandidate */\n      dup1\n        /* \"contracts/Ballot/Ballot.sol\":3565:3566  0 */\n      0x00\n        /* \"contracts/Ballot/Ballot.sol\":3543:3566  uint indexCandidate = 0 */\n      swap1\n      pop\n        /* \"contracts/Ballot/Ballot.sol\":3538:4000  for (uint indexCandidate = 0; indexCandidate < candidates.length; indexCandidate++) {\r... */\n    tag_103:\n        /* \"contracts/Ballot/Ballot.sol\":3585:3595  candidates */\n      0x02\n        /* \"contracts/Ballot/Ballot.sol\":3585:3602  candidates.length */\n      dup1\n      sload\n      swap1\n      pop\n        /* \"contracts/Ballot/Ballot.sol\":3568:3582  indexCandidate */\n      dup2\n        /* \"contracts/Ballot/Ballot.sol\":3568:3602  indexCandidate < candidates.length */\n      lt\n        /* \"contracts/Ballot/Ballot.sol\":3538:4000  for (uint indexCandidate = 0; indexCandidate < candidates.length; indexCandidate++) {\r... */\n      iszero\n      tag_104\n      jumpi\n        /* \"contracts/Ballot/Ballot.sol\":3681:3697  winningVoteCount */\n      dup2\n        /* \"contracts/Ballot/Ballot.sol\":3641:3651  candidates */\n      0x02\n        /* \"contracts/Ballot/Ballot.sol\":3652:3666  indexCandidate */\n      dup3\n        /* \"contracts/Ballot/Ballot.sol\":3641:3667  candidates[indexCandidate] */\n      dup2\n      sload\n      dup2\n      lt\n      tag_106\n      jumpi\n      tag_107\n      tag_34\n      jump\t// in\n    tag_107:\n    tag_106:\n      swap1\n      0x00\n      mstore\n      keccak256(0x00, 0x20)\n      swap1\n      0x02\n      mul\n      add\n        /* \"contracts/Ballot/Ballot.sol\":3641:3678  candidates[indexCandidate].votesCount */\n      0x01\n      add\n      sload\n        /* \"contracts/Ballot/Ballot.sol\":3641:3697  candidates[indexCandidate].votesCount > winningVoteCount */\n      gt\n        /* \"contracts/Ballot/Ballot.sol\":3637:3989  if (candidates[indexCandidate].votesCount > winningVoteCount) {\r... */\n      iszero\n      tag_109\n      jumpi\n        /* \"contracts/Ballot/Ballot.sol\":3737:3747  candidates */\n      0x02\n        /* \"contracts/Ballot/Ballot.sol\":3748:3762  indexCandidate */\n      dup2\n        /* \"contracts/Ballot/Ballot.sol\":3737:3763  candidates[indexCandidate] */\n      dup2\n      sload\n      dup2\n      lt\n      tag_110\n      jumpi\n      tag_111\n      tag_34\n      jump\t// in\n    tag_111:\n    tag_110:\n      swap1\n      0x00\n      mstore\n      keccak256(0x00, 0x20)\n      swap1\n      0x02\n      mul\n      add\n        /* \"contracts/Ballot/Ballot.sol\":3737:3774  candidates[indexCandidate].votesCount */\n      0x01\n      add\n      sload\n        /* \"contracts/Ballot/Ballot.sol\":3718:3774  winningVoteCount = candidates[indexCandidate].votesCount */\n      swap2\n      pop\n        /* \"contracts/Ballot/Ballot.sol\":3811:3825  indexCandidate */\n      dup1\n        /* \"contracts/Ballot/Ballot.sol\":3793:3825  winningProposal = indexCandidate */\n      swap4\n      pop\n        /* \"contracts/Ballot/Ballot.sol\":3852:3857  false */\n      0x00\n        /* \"contracts/Ballot/Ballot.sol\":3844:3857  isTie = false */\n      swap3\n      pop\n        /* \"contracts/Ballot/Ballot.sol\":3637:3989  if (candidates[indexCandidate].votesCount > winningVoteCount) {\r... */\n      jump(tag_113)\n    tag_109:\n        /* \"contracts/Ballot/Ballot.sol\":3924:3940  winningVoteCount */\n      dup2\n        /* \"contracts/Ballot/Ballot.sol\":3883:3893  candidates */\n      0x02\n        /* \"contracts/Ballot/Ballot.sol\":3894:3908  indexCandidate */\n      dup3\n        /* \"contracts/Ballot/Ballot.sol\":3883:3909  candidates[indexCandidate] */\n      dup2\n      sload\n      dup2\n      lt\n      tag_114\n      jumpi\n      tag_115\n      tag_34\n      jump\t// in\n    tag_115:\n    tag_114:\n      swap1\n      0x00\n      mstore\n      keccak256(0x00, 0x20)\n      swap1\n      0x02\n      mul\n      add\n        /* \"contracts/Ballot/Ballot.sol\":3883:3920  candidates[indexCandidate].votesCount */\n      0x01\n      add\n      sload\n        /* \"contracts/Ballot/Ballot.sol\":3883:3940  candidates[indexCandidate].votesCount == winningVoteCount */\n      eq\n        /* \"contracts/Ballot/Ballot.sol\":3879:3989  if (candidates[indexCandidate].votesCount == winningVoteCount) {\r... */\n      iszero\n      tag_117\n      jumpi\n        /* \"contracts/Ballot/Ballot.sol\":3969:3973  true */\n      0x01\n        /* \"contracts/Ballot/Ballot.sol\":3961:3973  isTie = true */\n      swap3\n      pop\n        /* \"contracts/Ballot/Ballot.sol\":3879:3989  if (candidates[indexCandidate].votesCount == winningVoteCount) {\r... */\n    tag_117:\n        /* \"contracts/Ballot/Ballot.sol\":3637:3989  if (candidates[indexCandidate].votesCount > winningVoteCount) {\r... */\n    tag_113:\n        /* \"contracts/Ballot/Ballot.sol\":3604:3620  indexCandidate++ */\n      dup1\n      dup1\n      tag_118\n      swap1\n      tag_45\n      jump\t// in\n    tag_118:\n      swap2\n      pop\n      pop\n        /* \"contracts/Ballot/Ballot.sol\":3538:4000  for (uint indexCandidate = 0; indexCandidate < candidates.length; indexCandidate++) {\r... */\n      jump(tag_103)\n    tag_104:\n      pop\n        /* \"contracts/Ballot/Ballot.sol\":3485:4007  {        \r... */\n      pop\n        /* \"contracts/Ballot/Ballot.sol\":3398:4007  function getWinningCandidate() private view returns (uint winningProposal, bool isTie) {        \r... */\n      swap1\n      swap2\n      jump\t// out\n        /* \"contracts/Ballot/Ballot.sol\":4431:4531  function getContractAddress() private view returns (address) {\r... */\n    tag_61:\n        /* \"contracts/Ballot/Ballot.sol\":4483:4490  address */\n      0x00\n        /* \"contracts/Ballot/Ballot.sol\":4518:4522  this */\n      address\n        /* \"contracts/Ballot/Ballot.sol\":4503:4523  return address(this) */\n      swap1\n      pop\n        /* \"contracts/Ballot/Ballot.sol\":4431:4531  function getContractAddress() private view returns (address) {\r... */\n      swap1\n      jump\t// out\n        /* \"contracts/Ballot/Ballot.sol\":1724:1935  function getTotalVotesCounterReachedRequire() private view {\r... */\n    tag_64:\n        /* \"contracts/Ballot/Ballot.sol\":1843:1851  maxVotes */\n      sload(0x04)\n        /* \"contracts/Ballot/Ballot.sol\":1823:1840  totalVotesCounter */\n      sload(0x03)\n        /* \"contracts/Ballot/Ballot.sol\":1823:1851  totalVotesCounter < maxVotes */\n      lt\n        /* \"contracts/Ballot/Ballot.sol\":1801:1927  require(\r... */\n      tag_121\n      jumpi\n      mload(0x40)\n      0x08c379a000000000000000000000000000000000000000000000000000000000\n      dup2\n      mstore\n      0x04\n      add\n      tag_122\n      swap1\n      tag_123\n      jump\t// in\n    tag_122:\n      mload(0x40)\n      dup1\n      swap2\n      sub\n      swap1\n      revert\n    tag_121:\n        /* \"contracts/Ballot/Ballot.sol\":1724:1935  function getTotalVotesCounterReachedRequire() private view {\r... */\n      jump\t// out\n        /* \"contracts/Ballot/Ballot.sol\":4539:4651  function areYouContractOwner() private view returns (bool) {\r... */\n    tag_66:\n        /* \"contracts/Ballot/Ballot.sol\":4592:4596  bool */\n      0x00\n        /* \"contracts/Ballot/Ballot.sol\":4630:4643  contractOwner */\n      dup1\n      0x00\n      swap1\n      sload\n      swap1\n      0x0100\n      exp\n      swap1\n      div\n      0xffffffffffffffffffffffffffffffffffffffff\n      and\n        /* \"contracts/Ballot/Ballot.sol\":4616:4643  msg.sender == contractOwner */\n      0xffffffffffffffffffffffffffffffffffffffff\n      and\n        /* \"contracts/Ballot/Ballot.sol\":4616:4626  msg.sender */\n      caller\n        /* \"contracts/Ballot/Ballot.sol\":4616:4643  msg.sender == contractOwner */\n      0xffffffffffffffffffffffffffffffffffffffff\n      and\n      eq\n        /* \"contracts/Ballot/Ballot.sol\":4609:4643  return msg.sender == contractOwner */\n      swap1\n      pop\n        /* \"contracts/Ballot/Ballot.sol\":4539:4651  function areYouContractOwner() private view returns (bool) {\r... */\n      swap1\n      jump\t// out\n        /* \"contracts/Ballot/Ballot.sol\":1527:1716  function getVoterVotedRequire(address voterAddress) private view {\r... */\n    tag_71:\n        /* \"contracts/Ballot/Ballot.sol\":1633:1660  getVoterVoted(voterAddress) */\n      tag_126\n        /* \"contracts/Ballot/Ballot.sol\":1647:1659  voterAddress */\n      dup2\n        /* \"contracts/Ballot/Ballot.sol\":1633:1646  getVoterVoted */\n      tag_127\n        /* \"contracts/Ballot/Ballot.sol\":1633:1660  getVoterVoted(voterAddress) */\n      jump\t// in\n    tag_126:\n        /* \"contracts/Ballot/Ballot.sol\":1632:1660  !getVoterVoted(voterAddress) */\n      iszero\n        /* \"contracts/Ballot/Ballot.sol\":1610:1708  require(\r... */\n      tag_128\n      jumpi\n      mload(0x40)\n      0x08c379a000000000000000000000000000000000000000000000000000000000\n      dup2\n      mstore\n      0x04\n      add\n      tag_129\n      swap1\n      tag_130\n      jump\t// in\n    tag_129:\n      mload(0x40)\n      dup1\n      swap2\n      sub\n      swap1\n      revert\n    tag_128:\n        /* \"contracts/Ballot/Ballot.sol\":1527:1716  function getVoterVotedRequire(address voterAddress) private view {\r... */\n      pop\n      jump\t// out\n        /* \"contracts/Ballot/Ballot.sol\":4659:4777  function areYouHaveRigthToVote() private view returns (bool) {\r... */\n    tag_76:\n        /* \"contracts/Ballot/Ballot.sol\":4714:4718  bool */\n      0x00\n        /* \"contracts/Ballot/Ballot.sol\":4738:4769  getVoterRigthToVote(msg.sender) */\n      tag_132\n        /* \"contracts/Ballot/Ballot.sol\":4758:4768  msg.sender */\n      caller\n        /* \"contracts/Ballot/Ballot.sol\":4738:4757  getVoterRigthToVote */\n      tag_133\n        /* \"contracts/Ballot/Ballot.sol\":4738:4769  getVoterRigthToVote(msg.sender) */\n      jump\t// in\n    tag_132:\n        /* \"contracts/Ballot/Ballot.sol\":4731:4769  return getVoterRigthToVote(msg.sender) */\n      swap1\n      pop\n        /* \"contracts/Ballot/Ballot.sol\":4659:4777  function areYouHaveRigthToVote() private view returns (bool) {\r... */\n      swap1\n      jump\t// out\n        /* \"contracts/Ballot/Ballot.sol\":5200:5367  function stringEqualTo(string memory s1, string memory s2) private pure returns (bool) {\r... */\n    tag_94:\n        /* \"contracts/Ballot/Ballot.sol\":5281:5285  bool */\n      0x00\n        /* \"contracts/Ballot/Ballot.sol\":5355:5357  s2 */\n      dup2\n        /* \"contracts/Ballot/Ballot.sol\":5344:5358  abi.encode(s2) */\n      add(0x20, mload(0x40))\n      tag_135\n      swap2\n      swap1\n      tag_136\n      jump\t// in\n    tag_135:\n      mload(0x40)\n      0x20\n      dup2\n      dup4\n      sub\n      sub\n      dup2\n      mstore\n      swap1\n      0x40\n      mstore\n        /* \"contracts/Ballot/Ballot.sol\":5334:5359  keccak256(abi.encode(s2)) */\n      dup1\n      mload\n      swap1\n      0x20\n      add\n      keccak256\n        /* \"contracts/Ballot/Ballot.sol\":5326:5328  s1 */\n      dup4\n        /* \"contracts/Ballot/Ballot.sol\":5315:5329  abi.encode(s1) */\n      add(0x20, mload(0x40))\n      tag_137\n      swap2\n      swap1\n      tag_136\n      jump\t// in\n    tag_137:\n      mload(0x40)\n      0x20\n      dup2\n      dup4\n      sub\n      sub\n      dup2\n      mstore\n      swap1\n      0x40\n      mstore\n        /* \"contracts/Ballot/Ballot.sol\":5305:5330  keccak256(abi.encode(s1)) */\n      dup1\n      mload\n      swap1\n      0x20\n      add\n      keccak256\n        /* \"contracts/Ballot/Ballot.sol\":5305:5359  keccak256(abi.encode(s1)) == keccak256(abi.encode(s2)) */\n      eq\n        /* \"contracts/Ballot/Ballot.sol\":5298:5359  return keccak256(abi.encode(s1)) == keccak256(abi.encode(s2)) */\n      swap1\n      pop\n        /* \"contracts/Ballot/Ballot.sol\":5200:5367  function stringEqualTo(string memory s1, string memory s2) private pure returns (bool) {\r... */\n      swap3\n      swap2\n      pop\n      pop\n      jump\t// out\n        /* \"contracts/Ballot/Ballot.sol\":5036:5164  function getVoterVoted(address voterAddress) private view returns (bool) {\r... */\n    tag_127:\n        /* \"contracts/Ballot/Ballot.sol\":5103:5107  bool */\n      0x00\n        /* \"contracts/Ballot/Ballot.sol\":5127:5133  voters */\n      0x01\n        /* \"contracts/Ballot/Ballot.sol\":5127:5147  voters[voterAddress] */\n      0x00\n        /* \"contracts/Ballot/Ballot.sol\":5134:5146  voterAddress */\n      dup4\n        /* \"contracts/Ballot/Ballot.sol\":5127:5147  voters[voterAddress] */\n      0xffffffffffffffffffffffffffffffffffffffff\n      and\n      0xffffffffffffffffffffffffffffffffffffffff\n      and\n      dup2\n      mstore\n      0x20\n      add\n      swap1\n      dup2\n      mstore\n      0x20\n      add\n      0x00\n      keccak256\n        /* \"contracts/Ballot/Ballot.sol\":5127:5156  voters[voterAddress].hasVoted */\n      0x00\n      add\n      0x01\n      swap1\n      sload\n      swap1\n      0x0100\n      exp\n      swap1\n      div\n      0xff\n      and\n        /* \"contracts/Ballot/Ballot.sol\":5120:5156  return voters[voterAddress].hasVoted */\n      swap1\n      pop\n        /* \"contracts/Ballot/Ballot.sol\":5036:5164  function getVoterVoted(address voterAddress) private view returns (bool) {\r... */\n      swap2\n      swap1\n      pop\n      jump\t// out\n        /* \"contracts/Ballot/Ballot.sol\":4785:4918  function getVoterRigthToVote(address voterAddress) private view returns (bool) {\r... */\n    tag_133:\n        /* \"contracts/Ballot/Ballot.sol\":4858:4862  bool */\n      0x00\n        /* \"contracts/Ballot/Ballot.sol\":4882:4888  voters */\n      0x01\n        /* \"contracts/Ballot/Ballot.sol\":4882:4902  voters[voterAddress] */\n      0x00\n        /* \"contracts/Ballot/Ballot.sol\":4889:4901  voterAddress */\n      dup4\n        /* \"contracts/Ballot/Ballot.sol\":4882:4902  voters[voterAddress] */\n      0xffffffffffffffffffffffffffffffffffffffff\n      and\n      0xffffffffffffffffffffffffffffffffffffffff\n      and\n      dup2\n      mstore\n      0x20\n      add\n      swap1\n      dup2\n      mstore\n      0x20\n      add\n      0x00\n      keccak256\n        /* \"contracts/Ballot/Ballot.sol\":4882:4910  voters[voterAddress].canVote */\n      0x00\n      add\n      0x00\n      swap1\n      sload\n      swap1\n      0x0100\n      exp\n      swap1\n      div\n      0xff\n      and\n        /* \"contracts/Ballot/Ballot.sol\":4875:4910  return voters[voterAddress].canVote */\n      swap1\n      pop\n        /* \"contracts/Ballot/Ballot.sol\":4785:4918  function getVoterRigthToVote(address voterAddress) private view returns (bool) {\r... */\n      swap2\n      swap1\n      pop\n      jump\t// out\n        /* \"#utility.yul\":7:419   */\n    tag_141:\n        /* \"#utility.yul\":85:90   */\n      0x00\n        /* \"#utility.yul\":110:176   */\n      tag_143\n        /* \"#utility.yul\":126:175   */\n      tag_144\n        /* \"#utility.yul\":168:174   */\n      dup5\n        /* \"#utility.yul\":126:175   */\n      tag_145\n      jump\t// in\n    tag_144:\n        /* \"#utility.yul\":110:176   */\n      tag_146\n      jump\t// in\n    tag_143:\n        /* \"#utility.yul\":101:176   */\n      swap1\n      pop\n        /* \"#utility.yul\":199:205   */\n      dup3\n        /* \"#utility.yul\":192:197   */\n      dup2\n        /* \"#utility.yul\":185:206   */\n      mstore\n        /* \"#utility.yul\":237:241   */\n      0x20\n        /* \"#utility.yul\":230:235   */\n      dup2\n        /* \"#utility.yul\":226:242   */\n      add\n        /* \"#utility.yul\":275:278   */\n      dup5\n        /* \"#utility.yul\":266:272   */\n      dup5\n        /* \"#utility.yul\":261:264   */\n      dup5\n        /* \"#utility.yul\":257:273   */\n      add\n        /* \"#utility.yul\":254:279   */\n      gt\n        /* \"#utility.yul\":251:363   */\n      iszero\n      tag_147\n      jumpi\n        /* \"#utility.yul\":282:361   */\n      tag_148\n      tag_149\n      jump\t// in\n    tag_148:\n        /* \"#utility.yul\":251:363   */\n    tag_147:\n        /* \"#utility.yul\":372:413   */\n      tag_150\n        /* \"#utility.yul\":406:412   */\n      dup5\n        /* \"#utility.yul\":401:404   */\n      dup3\n        /* \"#utility.yul\":396:399   */\n      dup6\n        /* \"#utility.yul\":372:413   */\n      tag_151\n      jump\t// in\n    tag_150:\n        /* \"#utility.yul\":91:419   */\n      pop\n        /* \"#utility.yul\":7:419   */\n      swap4\n      swap3\n      pop\n      pop\n      pop\n      jump\t// out\n        /* \"#utility.yul\":425:564   */\n    tag_152:\n        /* \"#utility.yul\":471:476   */\n      0x00\n        /* \"#utility.yul\":509:515   */\n      dup2\n        /* \"#utility.yul\":496:516   */\n      calldataload\n        /* \"#utility.yul\":487:516   */\n      swap1\n      pop\n        /* \"#utility.yul\":525:558   */\n      tag_154\n        /* \"#utility.yul\":552:557   */\n      dup2\n        /* \"#utility.yul\":525:558   */\n      tag_155\n      jump\t// in\n    tag_154:\n        /* \"#utility.yul\":425:564   */\n      swap3\n      swap2\n      pop\n      pop\n      jump\t// out\n        /* \"#utility.yul\":584:924   */\n    tag_156:\n        /* \"#utility.yul\":640:645   */\n      0x00\n        /* \"#utility.yul\":689:692   */\n      dup3\n        /* \"#utility.yul\":682:686   */\n      0x1f\n        /* \"#utility.yul\":674:680   */\n      dup4\n        /* \"#utility.yul\":670:687   */\n      add\n        /* \"#utility.yul\":666:693   */\n      slt\n        /* \"#utility.yul\":656:778   */\n      tag_158\n      jumpi\n        /* \"#utility.yul\":697:776   */\n      tag_159\n      tag_160\n      jump\t// in\n    tag_159:\n        /* \"#utility.yul\":656:778   */\n    tag_158:\n        /* \"#utility.yul\":814:820   */\n      dup2\n        /* \"#utility.yul\":801:821   */\n      calldataload\n        /* \"#utility.yul\":839:918   */\n      tag_161\n        /* \"#utility.yul\":914:917   */\n      dup5\n        /* \"#utility.yul\":906:912   */\n      dup3\n        /* \"#utility.yul\":899:903   */\n      0x20\n        /* \"#utility.yul\":891:897   */\n      dup7\n        /* \"#utility.yul\":887:904   */\n      add\n        /* \"#utility.yul\":839:918   */\n      tag_141\n      jump\t// in\n    tag_161:\n        /* \"#utility.yul\":830:918   */\n      swap2\n      pop\n        /* \"#utility.yul\":646:924   */\n      pop\n        /* \"#utility.yul\":584:924   */\n      swap3\n      swap2\n      pop\n      pop\n      jump\t// out\n        /* \"#utility.yul\":930:1259   */\n    tag_17:\n        /* \"#utility.yul\":989:995   */\n      0x00\n        /* \"#utility.yul\":1038:1040   */\n      0x20\n        /* \"#utility.yul\":1026:1035   */\n      dup3\n        /* \"#utility.yul\":1017:1024   */\n      dup5\n        /* \"#utility.yul\":1013:1036   */\n      sub\n        /* \"#utility.yul\":1009:1041   */\n      slt\n        /* \"#utility.yul\":1006:1125   */\n      iszero\n      tag_163\n      jumpi\n        /* \"#utility.yul\":1044:1123   */\n      tag_164\n      tag_165\n      jump\t// in\n    tag_164:\n        /* \"#utility.yul\":1006:1125   */\n    tag_163:\n        /* \"#utility.yul\":1164:1165   */\n      0x00\n        /* \"#utility.yul\":1189:1242   */\n      tag_166\n        /* \"#utility.yul\":1234:1241   */\n      dup5\n        /* \"#utility.yul\":1225:1231   */\n      dup3\n        /* \"#utility.yul\":1214:1223   */\n      dup6\n        /* \"#utility.yul\":1210:1232   */\n      add\n        /* \"#utility.yul\":1189:1242   */\n      tag_152\n      jump\t// in\n    tag_166:\n        /* \"#utility.yul\":1179:1242   */\n      swap2\n      pop\n        /* \"#utility.yul\":1135:1252   */\n      pop\n        /* \"#utility.yul\":930:1259   */\n      swap3\n      swap2\n      pop\n      pop\n      jump\t// out\n        /* \"#utility.yul\":1265:1774   */\n    tag_21:\n        /* \"#utility.yul\":1334:1340   */\n      0x00\n        /* \"#utility.yul\":1383:1385   */\n      0x20\n        /* \"#utility.yul\":1371:1380   */\n      dup3\n        /* \"#utility.yul\":1362:1369   */\n      dup5\n        /* \"#utility.yul\":1358:1381   */\n      sub\n        /* \"#utility.yul\":1354:1386   */\n      slt\n        /* \"#utility.yul\":1351:1470   */\n      iszero\n      tag_168\n      jumpi\n        /* \"#utility.yul\":1389:1468   */\n      tag_169\n      tag_165\n      jump\t// in\n    tag_169:\n        /* \"#utility.yul\":1351:1470   */\n    tag_168:\n        /* \"#utility.yul\":1537:1538   */\n      0x00\n        /* \"#utility.yul\":1526:1535   */\n      dup3\n        /* \"#utility.yul\":1522:1539   */\n      add\n        /* \"#utility.yul\":1509:1540   */\n      calldataload\n        /* \"#utility.yul\":1567:1585   */\n      0xffffffffffffffff\n        /* \"#utility.yul\":1559:1565   */\n      dup2\n        /* \"#utility.yul\":1556:1586   */\n      gt\n        /* \"#utility.yul\":1553:1670   */\n      iszero\n      tag_170\n      jumpi\n        /* \"#utility.yul\":1589:1668   */\n      tag_171\n      tag_172\n      jump\t// in\n    tag_171:\n        /* \"#utility.yul\":1553:1670   */\n    tag_170:\n        /* \"#utility.yul\":1694:1757   */\n      tag_173\n        /* \"#utility.yul\":1749:1756   */\n      dup5\n        /* \"#utility.yul\":1740:1746   */\n      dup3\n        /* \"#utility.yul\":1729:1738   */\n      dup6\n        /* \"#utility.yul\":1725:1747   */\n      add\n        /* \"#utility.yul\":1694:1757   */\n      tag_156\n      jump\t// in\n    tag_173:\n        /* \"#utility.yul\":1684:1757   */\n      swap2\n      pop\n        /* \"#utility.yul\":1480:1767   */\n      pop\n        /* \"#utility.yul\":1265:1774   */\n      swap3\n      swap2\n      pop\n      pop\n      jump\t// out\n        /* \"#utility.yul\":1780:1976   */\n    tag_174:\n        /* \"#utility.yul\":1869:1879   */\n      0x00\n        /* \"#utility.yul\":1904:1970   */\n      tag_176\n        /* \"#utility.yul\":1966:1969   */\n      dup4\n        /* \"#utility.yul\":1958:1964   */\n      dup4\n        /* \"#utility.yul\":1904:1970   */\n      tag_177\n      jump\t// in\n    tag_176:\n        /* \"#utility.yul\":1890:1970   */\n      swap1\n      pop\n        /* \"#utility.yul\":1780:1976   */\n      swap3\n      swap2\n      pop\n      pop\n      jump\t// out\n        /* \"#utility.yul\":1982:2100   */\n    tag_178:\n        /* \"#utility.yul\":2069:2093   */\n      tag_180\n        /* \"#utility.yul\":2087:2092   */\n      dup2\n        /* \"#utility.yul\":2069:2093   */\n      tag_181\n      jump\t// in\n    tag_180:\n        /* \"#utility.yul\":2064:2067   */\n      dup3\n        /* \"#utility.yul\":2057:2094   */\n      mstore\n        /* \"#utility.yul\":1982:2100   */\n      pop\n      pop\n      jump\t// out\n        /* \"#utility.yul\":2134:3125   */\n    tag_182:\n        /* \"#utility.yul\":2273:2276   */\n      0x00\n        /* \"#utility.yul\":2302:2366   */\n      tag_184\n        /* \"#utility.yul\":2360:2365   */\n      dup3\n        /* \"#utility.yul\":2302:2366   */\n      tag_185\n      jump\t// in\n    tag_184:\n        /* \"#utility.yul\":2382:2478   */\n      tag_186\n        /* \"#utility.yul\":2471:2477   */\n      dup2\n        /* \"#utility.yul\":2466:2469   */\n      dup6\n        /* \"#utility.yul\":2382:2478   */\n      tag_187\n      jump\t// in\n    tag_186:\n        /* \"#utility.yul\":2375:2478   */\n      swap4\n      pop\n        /* \"#utility.yul\":2504:2507   */\n      dup4\n        /* \"#utility.yul\":2549:2553   */\n      0x20\n        /* \"#utility.yul\":2541:2547   */\n      dup3\n        /* \"#utility.yul\":2537:2554   */\n      mul\n        /* \"#utility.yul\":2532:2535   */\n      dup6\n        /* \"#utility.yul\":2528:2555   */\n      add\n        /* \"#utility.yul\":2579:2645   */\n      tag_188\n        /* \"#utility.yul\":2639:2644   */\n      dup6\n        /* \"#utility.yul\":2579:2645   */\n      tag_189\n      jump\t// in\n    tag_188:\n        /* \"#utility.yul\":2668:2675   */\n      dup1\n        /* \"#utility.yul\":2699:2700   */\n      0x00\n        /* \"#utility.yul\":2684:3080   */\n    tag_190:\n        /* \"#utility.yul\":2709:2715   */\n      dup6\n        /* \"#utility.yul\":2706:2707   */\n      dup2\n        /* \"#utility.yul\":2703:2716   */\n      lt\n        /* \"#utility.yul\":2684:3080   */\n      iszero\n      tag_192\n      jumpi\n        /* \"#utility.yul\":2780:2789   */\n      dup5\n        /* \"#utility.yul\":2774:2778   */\n      dup5\n        /* \"#utility.yul\":2770:2790   */\n      sub\n        /* \"#utility.yul\":2765:2768   */\n      dup10\n        /* \"#utility.yul\":2758:2791   */\n      mstore\n        /* \"#utility.yul\":2831:2837   */\n      dup2\n        /* \"#utility.yul\":2825:2838   */\n      mload\n        /* \"#utility.yul\":2859:2943   */\n      tag_193\n        /* \"#utility.yul\":2938:2942   */\n      dup6\n        /* \"#utility.yul\":2923:2936   */\n      dup3\n        /* \"#utility.yul\":2859:2943   */\n      tag_174\n      jump\t// in\n    tag_193:\n        /* \"#utility.yul\":2851:2943   */\n      swap5\n      pop\n        /* \"#utility.yul\":2966:3036   */\n      tag_194\n        /* \"#utility.yul\":3029:3035   */\n      dup4\n        /* \"#utility.yul\":2966:3036   */\n      tag_195\n      jump\t// in\n    tag_194:\n        /* \"#utility.yul\":2956:3036   */\n      swap3\n      pop\n        /* \"#utility.yul\":3065:3069   */\n      0x20\n        /* \"#utility.yul\":3060:3063   */\n      dup11\n        /* \"#utility.yul\":3056:3070   */\n      add\n        /* \"#utility.yul\":3049:3070   */\n      swap10\n      pop\n        /* \"#utility.yul\":2744:3080   */\n      pop\n        /* \"#utility.yul\":2731:2732   */\n      0x01\n        /* \"#utility.yul\":2728:2729   */\n      dup2\n        /* \"#utility.yul\":2724:2733   */\n      add\n        /* \"#utility.yul\":2719:2733   */\n      swap1\n      pop\n        /* \"#utility.yul\":2684:3080   */\n      jump(tag_190)\n    tag_192:\n        /* \"#utility.yul\":2688:2702   */\n      pop\n        /* \"#utility.yul\":3096:3100   */\n      dup3\n        /* \"#utility.yul\":3089:3100   */\n      swap8\n      pop\n        /* \"#utility.yul\":3116:3119   */\n      dup8\n        /* \"#utility.yul\":3109:3119   */\n      swap6\n      pop\n        /* \"#utility.yul\":2278:3125   */\n      pop\n      pop\n      pop\n      pop\n      pop\n        /* \"#utility.yul\":2134:3125   */\n      swap3\n      swap2\n      pop\n      pop\n      jump\t// out\n        /* \"#utility.yul\":3131:3475   */\n    tag_177:\n        /* \"#utility.yul\":3209:3212   */\n      0x00\n        /* \"#utility.yul\":3237:3276   */\n      tag_197\n        /* \"#utility.yul\":3270:3275   */\n      dup3\n        /* \"#utility.yul\":3237:3276   */\n      tag_198\n      jump\t// in\n    tag_197:\n        /* \"#utility.yul\":3292:3353   */\n      tag_199\n        /* \"#utility.yul\":3346:3352   */\n      dup2\n        /* \"#utility.yul\":3341:3344   */\n      dup6\n        /* \"#utility.yul\":3292:3353   */\n      tag_200\n      jump\t// in\n    tag_199:\n        /* \"#utility.yul\":3285:3353   */\n      swap4\n      pop\n        /* \"#utility.yul\":3362:3414   */\n      tag_201\n        /* \"#utility.yul\":3407:3413   */\n      dup2\n        /* \"#utility.yul\":3402:3405   */\n      dup6\n        /* \"#utility.yul\":3395:3399   */\n      0x20\n        /* \"#utility.yul\":3388:3393   */\n      dup7\n        /* \"#utility.yul\":3384:3400   */\n      add\n        /* \"#utility.yul\":3362:3414   */\n      tag_202\n      jump\t// in\n    tag_201:\n        /* \"#utility.yul\":3439:3468   */\n      tag_203\n        /* \"#utility.yul\":3461:3467   */\n      dup2\n        /* \"#utility.yul\":3439:3468   */\n      tag_204\n      jump\t// in\n    tag_203:\n        /* \"#utility.yul\":3434:3437   */\n      dup5\n        /* \"#utility.yul\":3430:3469   */\n      add\n        /* \"#utility.yul\":3423:3469   */\n      swap2\n      pop\n        /* \"#utility.yul\":3213:3475   */\n      pop\n        /* \"#utility.yul\":3131:3475   */\n      swap3\n      swap2\n      pop\n      pop\n      jump\t// out\n        /* \"#utility.yul\":3481:3845   */\n    tag_205:\n        /* \"#utility.yul\":3569:3572   */\n      0x00\n        /* \"#utility.yul\":3597:3636   */\n      tag_207\n        /* \"#utility.yul\":3630:3635   */\n      dup3\n        /* \"#utility.yul\":3597:3636   */\n      tag_198\n      jump\t// in\n    tag_207:\n        /* \"#utility.yul\":3652:3723   */\n      tag_208\n        /* \"#utility.yul\":3716:3722   */\n      dup2\n        /* \"#utility.yul\":3711:3714   */\n      dup6\n        /* \"#utility.yul\":3652:3723   */\n      tag_209\n      jump\t// in\n    tag_208:\n        /* \"#utility.yul\":3645:3723   */\n      swap4\n      pop\n        /* \"#utility.yul\":3732:3784   */\n      tag_210\n        /* \"#utility.yul\":3777:3783   */\n      dup2\n        /* \"#utility.yul\":3772:3775   */\n      dup6\n        /* \"#utility.yul\":3765:3769   */\n      0x20\n        /* \"#utility.yul\":3758:3763   */\n      dup7\n        /* \"#utility.yul\":3754:3770   */\n      add\n        /* \"#utility.yul\":3732:3784   */\n      tag_202\n      jump\t// in\n    tag_210:\n        /* \"#utility.yul\":3809:3838   */\n      tag_211\n        /* \"#utility.yul\":3831:3837   */\n      dup2\n        /* \"#utility.yul\":3809:3838   */\n      tag_204\n      jump\t// in\n    tag_211:\n        /* \"#utility.yul\":3804:3807   */\n      dup5\n        /* \"#utility.yul\":3800:3839   */\n      add\n        /* \"#utility.yul\":3793:3839   */\n      swap2\n      pop\n        /* \"#utility.yul\":3573:3845   */\n      pop\n        /* \"#utility.yul\":3481:3845   */\n      swap3\n      swap2\n      pop\n      pop\n      jump\t// out\n        /* \"#utility.yul\":3851:4217   */\n    tag_212:\n        /* \"#utility.yul\":3993:3996   */\n      0x00\n        /* \"#utility.yul\":4014:4081   */\n      tag_214\n        /* \"#utility.yul\":4078:4080   */\n      0x2f\n        /* \"#utility.yul\":4073:4076   */\n      dup4\n        /* \"#utility.yul\":4014:4081   */\n      tag_209\n      jump\t// in\n    tag_214:\n        /* \"#utility.yul\":4007:4081   */\n      swap2\n      pop\n        /* \"#utility.yul\":4090:4183   */\n      tag_215\n        /* \"#utility.yul\":4179:4182   */\n      dup3\n        /* \"#utility.yul\":4090:4183   */\n      tag_216\n      jump\t// in\n    tag_215:\n        /* \"#utility.yul\":4208:4210   */\n      0x40\n        /* \"#utility.yul\":4203:4206   */\n      dup3\n        /* \"#utility.yul\":4199:4211   */\n      add\n        /* \"#utility.yul\":4192:4211   */\n      swap1\n      pop\n        /* \"#utility.yul\":3851:4217   */\n      swap2\n      swap1\n      pop\n      jump\t// out\n        /* \"#utility.yul\":4223:4589   */\n    tag_217:\n        /* \"#utility.yul\":4365:4368   */\n      0x00\n        /* \"#utility.yul\":4386:4453   */\n      tag_219\n        /* \"#utility.yul\":4450:4452   */\n      0x2f\n        /* \"#utility.yul\":4445:4448   */\n      dup4\n        /* \"#utility.yul\":4386:4453   */\n      tag_209\n      jump\t// in\n    tag_219:\n        /* \"#utility.yul\":4379:4453   */\n      swap2\n      pop\n        /* \"#utility.yul\":4462:4555   */\n      tag_220\n        /* \"#utility.yul\":4551:4554   */\n      dup3\n        /* \"#utility.yul\":4462:4555   */\n      tag_221\n      jump\t// in\n    tag_220:\n        /* \"#utility.yul\":4580:4582   */\n      0x40\n        /* \"#utility.yul\":4575:4578   */\n      dup3\n        /* \"#utility.yul\":4571:4583   */\n      add\n        /* \"#utility.yul\":4564:4583   */\n      swap1\n      pop\n        /* \"#utility.yul\":4223:4589   */\n      swap2\n      swap1\n      pop\n      jump\t// out\n        /* \"#utility.yul\":4595:4961   */\n    tag_222:\n        /* \"#utility.yul\":4737:4740   */\n      0x00\n        /* \"#utility.yul\":4758:4825   */\n      tag_224\n        /* \"#utility.yul\":4822:4824   */\n      0x14\n        /* \"#utility.yul\":4817:4820   */\n      dup4\n        /* \"#utility.yul\":4758:4825   */\n      tag_209\n      jump\t// in\n    tag_224:\n        /* \"#utility.yul\":4751:4825   */\n      swap2\n      pop\n        /* \"#utility.yul\":4834:4927   */\n      tag_225\n        /* \"#utility.yul\":4923:4926   */\n      dup3\n        /* \"#utility.yul\":4834:4927   */\n      tag_226\n      jump\t// in\n    tag_225:\n        /* \"#utility.yul\":4952:4954   */\n      0x20\n        /* \"#utility.yul\":4947:4950   */\n      dup3\n        /* \"#utility.yul\":4943:4955   */\n      add\n        /* \"#utility.yul\":4936:4955   */\n      swap1\n      pop\n        /* \"#utility.yul\":4595:4961   */\n      swap2\n      swap1\n      pop\n      jump\t// out\n        /* \"#utility.yul\":4967:5333   */\n    tag_227:\n        /* \"#utility.yul\":5109:5112   */\n      0x00\n        /* \"#utility.yul\":5130:5197   */\n      tag_229\n        /* \"#utility.yul\":5194:5196   */\n      0x1a\n        /* \"#utility.yul\":5189:5192   */\n      dup4\n        /* \"#utility.yul\":5130:5197   */\n      tag_209\n      jump\t// in\n    tag_229:\n        /* \"#utility.yul\":5123:5197   */\n      swap2\n      pop\n        /* \"#utility.yul\":5206:5299   */\n      tag_230\n        /* \"#utility.yul\":5295:5298   */\n      dup3\n        /* \"#utility.yul\":5206:5299   */\n      tag_231\n      jump\t// in\n    tag_230:\n        /* \"#utility.yul\":5324:5326   */\n      0x20\n        /* \"#utility.yul\":5319:5322   */\n      dup3\n        /* \"#utility.yul\":5315:5327   */\n      add\n        /* \"#utility.yul\":5308:5327   */\n      swap1\n      pop\n        /* \"#utility.yul\":4967:5333   */\n      swap2\n      swap1\n      pop\n      jump\t// out\n        /* \"#utility.yul\":5339:5705   */\n    tag_232:\n        /* \"#utility.yul\":5481:5484   */\n      0x00\n        /* \"#utility.yul\":5502:5569   */\n      tag_234\n        /* \"#utility.yul\":5566:5568   */\n      0x4c\n        /* \"#utility.yul\":5561:5564   */\n      dup4\n        /* \"#utility.yul\":5502:5569   */\n      tag_209\n      jump\t// in\n    tag_234:\n        /* \"#utility.yul\":5495:5569   */\n      swap2\n      pop\n        /* \"#utility.yul\":5578:5671   */\n      tag_235\n        /* \"#utility.yul\":5667:5670   */\n      dup3\n        /* \"#utility.yul\":5578:5671   */\n      tag_236\n      jump\t// in\n    tag_235:\n        /* \"#utility.yul\":5696:5698   */\n      0x60\n        /* \"#utility.yul\":5691:5694   */\n      dup3\n        /* \"#utility.yul\":5687:5699   */\n      add\n        /* \"#utility.yul\":5680:5699   */\n      swap1\n      pop\n        /* \"#utility.yul\":5339:5705   */\n      swap2\n      swap1\n      pop\n      jump\t// out\n        /* \"#utility.yul\":5711:6124   */\n    tag_10:\n        /* \"#utility.yul\":5874:5878   */\n      0x00\n        /* \"#utility.yul\":5912:5914   */\n      0x20\n        /* \"#utility.yul\":5901:5910   */\n      dup3\n        /* \"#utility.yul\":5897:5915   */\n      add\n        /* \"#utility.yul\":5889:5915   */\n      swap1\n      pop\n        /* \"#utility.yul\":5961:5970   */\n      dup2\n        /* \"#utility.yul\":5955:5959   */\n      dup2\n        /* \"#utility.yul\":5951:5971   */\n      sub\n        /* \"#utility.yul\":5947:5948   */\n      0x00\n        /* \"#utility.yul\":5936:5945   */\n      dup4\n        /* \"#utility.yul\":5932:5949   */\n      add\n        /* \"#utility.yul\":5925:5972   */\n      mstore\n        /* \"#utility.yul\":5989:6117   */\n      tag_238\n        /* \"#utility.yul\":6112:6116   */\n      dup2\n        /* \"#utility.yul\":6103:6109   */\n      dup5\n        /* \"#utility.yul\":5989:6117   */\n      tag_182\n      jump\t// in\n    tag_238:\n        /* \"#utility.yul\":5981:6117   */\n      swap1\n      pop\n        /* \"#utility.yul\":5711:6124   */\n      swap3\n      swap2\n      pop\n      pop\n      jump\t// out\n        /* \"#utility.yul\":6130:6443   */\n    tag_136:\n        /* \"#utility.yul\":6243:6247   */\n      0x00\n        /* \"#utility.yul\":6281:6283   */\n      0x20\n        /* \"#utility.yul\":6270:6279   */\n      dup3\n        /* \"#utility.yul\":6266:6284   */\n      add\n        /* \"#utility.yul\":6258:6284   */\n      swap1\n      pop\n        /* \"#utility.yul\":6330:6339   */\n      dup2\n        /* \"#utility.yul\":6324:6328   */\n      dup2\n        /* \"#utility.yul\":6320:6340   */\n      sub\n        /* \"#utility.yul\":6316:6317   */\n      0x00\n        /* \"#utility.yul\":6305:6314   */\n      dup4\n        /* \"#utility.yul\":6301:6318   */\n      add\n        /* \"#utility.yul\":6294:6341   */\n      mstore\n        /* \"#utility.yul\":6358:6436   */\n      tag_240\n        /* \"#utility.yul\":6431:6435   */\n      dup2\n        /* \"#utility.yul\":6422:6428   */\n      dup5\n        /* \"#utility.yul\":6358:6436   */\n      tag_205\n      jump\t// in\n    tag_240:\n        /* \"#utility.yul\":6350:6436   */\n      swap1\n      pop\n        /* \"#utility.yul\":6130:6443   */\n      swap3\n      swap2\n      pop\n      pop\n      jump\t// out\n        /* \"#utility.yul\":6449:6872   */\n    tag_14:\n        /* \"#utility.yul\":6590:6594   */\n      0x00\n        /* \"#utility.yul\":6628:6630   */\n      0x40\n        /* \"#utility.yul\":6617:6626   */\n      dup3\n        /* \"#utility.yul\":6613:6631   */\n      add\n        /* \"#utility.yul\":6605:6631   */\n      swap1\n      pop\n        /* \"#utility.yul\":6677:6686   */\n      dup2\n        /* \"#utility.yul\":6671:6675   */\n      dup2\n        /* \"#utility.yul\":6667:6687   */\n      sub\n        /* \"#utility.yul\":6663:6664   */\n      0x00\n        /* \"#utility.yul\":6652:6661   */\n      dup4\n        /* \"#utility.yul\":6648:6665   */\n      add\n        /* \"#utility.yul\":6641:6688   */\n      mstore\n        /* \"#utility.yul\":6705:6783   */\n      tag_242\n        /* \"#utility.yul\":6778:6782   */\n      dup2\n        /* \"#utility.yul\":6769:6775   */\n      dup6\n        /* \"#utility.yul\":6705:6783   */\n      tag_205\n      jump\t// in\n    tag_242:\n        /* \"#utility.yul\":6697:6783   */\n      swap1\n      pop\n        /* \"#utility.yul\":6793:6865   */\n      tag_243\n        /* \"#utility.yul\":6861:6863   */\n      0x20\n        /* \"#utility.yul\":6850:6859   */\n      dup4\n        /* \"#utility.yul\":6846:6864   */\n      add\n        /* \"#utility.yul\":6837:6843   */\n      dup5\n        /* \"#utility.yul\":6793:6865   */\n      tag_178\n      jump\t// in\n    tag_243:\n        /* \"#utility.yul\":6449:6872   */\n      swap4\n      swap3\n      pop\n      pop\n      pop\n      jump\t// out\n        /* \"#utility.yul\":6878:7297   */\n    tag_123:\n        /* \"#utility.yul\":7044:7048   */\n      0x00\n        /* \"#utility.yul\":7082:7084   */\n      0x20\n        /* \"#utility.yul\":7071:7080   */\n      dup3\n        /* \"#utility.yul\":7067:7085   */\n      add\n        /* \"#utility.yul\":7059:7085   */\n      swap1\n      pop\n        /* \"#utility.yul\":7131:7140   */\n      dup2\n        /* \"#utility.yul\":7125:7129   */\n      dup2\n        /* \"#utility.yul\":7121:7141   */\n      sub\n        /* \"#utility.yul\":7117:7118   */\n      0x00\n        /* \"#utility.yul\":7106:7115   */\n      dup4\n        /* \"#utility.yul\":7102:7119   */\n      add\n        /* \"#utility.yul\":7095:7142   */\n      mstore\n        /* \"#utility.yul\":7159:7290   */\n      tag_245\n        /* \"#utility.yul\":7285:7289   */\n      dup2\n        /* \"#utility.yul\":7159:7290   */\n      tag_212\n      jump\t// in\n    tag_245:\n        /* \"#utility.yul\":7151:7290   */\n      swap1\n      pop\n        /* \"#utility.yul\":6878:7297   */\n      swap2\n      swap1\n      pop\n      jump\t// out\n        /* \"#utility.yul\":7303:7722   */\n    tag_69:\n        /* \"#utility.yul\":7469:7473   */\n      0x00\n        /* \"#utility.yul\":7507:7509   */\n      0x20\n        /* \"#utility.yul\":7496:7505   */\n      dup3\n        /* \"#utility.yul\":7492:7510   */\n      add\n        /* \"#utility.yul\":7484:7510   */\n      swap1\n      pop\n        /* \"#utility.yul\":7556:7565   */\n      dup2\n        /* \"#utility.yul\":7550:7554   */\n      dup2\n        /* \"#utility.yul\":7546:7566   */\n      sub\n        /* \"#utility.yul\":7542:7543   */\n      0x00\n        /* \"#utility.yul\":7531:7540   */\n      dup4\n        /* \"#utility.yul\":7527:7544   */\n      add\n        /* \"#utility.yul\":7520:7567   */\n      mstore\n        /* \"#utility.yul\":7584:7715   */\n      tag_247\n        /* \"#utility.yul\":7710:7714   */\n      dup2\n        /* \"#utility.yul\":7584:7715   */\n      tag_217\n      jump\t// in\n    tag_247:\n        /* \"#utility.yul\":7576:7715   */\n      swap1\n      pop\n        /* \"#utility.yul\":7303:7722   */\n      swap2\n      swap1\n      pop\n      jump\t// out\n        /* \"#utility.yul\":7728:8147   */\n    tag_130:\n        /* \"#utility.yul\":7894:7898   */\n      0x00\n        /* \"#utility.yul\":7932:7934   */\n      0x20\n        /* \"#utility.yul\":7921:7930   */\n      dup3\n        /* \"#utility.yul\":7917:7935   */\n      add\n        /* \"#utility.yul\":7909:7935   */\n      swap1\n      pop\n        /* \"#utility.yul\":7981:7990   */\n      dup2\n        /* \"#utility.yul\":7975:7979   */\n      dup2\n        /* \"#utility.yul\":7971:7991   */\n      sub\n        /* \"#utility.yul\":7967:7968   */\n      0x00\n        /* \"#utility.yul\":7956:7965   */\n      dup4\n        /* \"#utility.yul\":7952:7969   */\n      add\n        /* \"#utility.yul\":7945:7992   */\n      mstore\n        /* \"#utility.yul\":8009:8140   */\n      tag_249\n        /* \"#utility.yul\":8135:8139   */\n      dup2\n        /* \"#utility.yul\":8009:8140   */\n      tag_222\n      jump\t// in\n    tag_249:\n        /* \"#utility.yul\":8001:8140   */\n      swap1\n      pop\n        /* \"#utility.yul\":7728:8147   */\n      swap2\n      swap1\n      pop\n      jump\t// out\n        /* \"#utility.yul\":8153:8572   */\n    tag_79:\n        /* \"#utility.yul\":8319:8323   */\n      0x00\n        /* \"#utility.yul\":8357:8359   */\n      0x20\n        /* \"#utility.yul\":8346:8355   */\n      dup3\n        /* \"#utility.yul\":8342:8360   */\n      add\n        /* \"#utility.yul\":8334:8360   */\n      swap1\n      pop\n        /* \"#utility.yul\":8406:8415   */\n      dup2\n        /* \"#utility.yul\":8400:8404   */\n      dup2\n        /* \"#utility.yul\":8396:8416   */\n      sub\n        /* \"#utility.yul\":8392:8393   */\n      0x00\n        /* \"#utility.yul\":8381:8390   */\n      dup4\n        /* \"#utility.yul\":8377:8394   */\n      add\n        /* \"#utility.yul\":8370:8417   */\n      mstore\n        /* \"#utility.yul\":8434:8565   */\n      tag_251\n        /* \"#utility.yul\":8560:8564   */\n      dup2\n        /* \"#utility.yul\":8434:8565   */\n      tag_227\n      jump\t// in\n    tag_251:\n        /* \"#utility.yul\":8426:8565   */\n      swap1\n      pop\n        /* \"#utility.yul\":8153:8572   */\n      swap2\n      swap1\n      pop\n      jump\t// out\n        /* \"#utility.yul\":8578:8997   */\n    tag_51:\n        /* \"#utility.yul\":8744:8748   */\n      0x00\n        /* \"#utility.yul\":8782:8784   */\n      0x20\n        /* \"#utility.yul\":8771:8780   */\n      dup3\n        /* \"#utility.yul\":8767:8785   */\n      add\n        /* \"#utility.yul\":8759:8785   */\n      swap1\n      pop\n        /* \"#utility.yul\":8831:8840   */\n      dup2\n        /* \"#utility.yul\":8825:8829   */\n      dup2\n        /* \"#utility.yul\":8821:8841   */\n      sub\n        /* \"#utility.yul\":8817:8818   */\n      0x00\n        /* \"#utility.yul\":8806:8815   */\n      dup4\n        /* \"#utility.yul\":8802:8819   */\n      add\n        /* \"#utility.yul\":8795:8842   */\n      mstore\n        /* \"#utility.yul\":8859:8990   */\n      tag_253\n        /* \"#utility.yul\":8985:8989   */\n      dup2\n        /* \"#utility.yul\":8859:8990   */\n      tag_232\n      jump\t// in\n    tag_253:\n        /* \"#utility.yul\":8851:8990   */\n      swap1\n      pop\n        /* \"#utility.yul\":8578:8997   */\n      swap2\n      swap1\n      pop\n      jump\t// out\n        /* \"#utility.yul\":9003:9132   */\n    tag_146:\n        /* \"#utility.yul\":9037:9043   */\n      0x00\n        /* \"#utility.yul\":9064:9084   */\n      tag_255\n      tag_256\n      jump\t// in\n    tag_255:\n        /* \"#utility.yul\":9054:9084   */\n      swap1\n      pop\n        /* \"#utility.yul\":9093:9126   */\n      tag_257\n        /* \"#utility.yul\":9121:9125   */\n      dup3\n        /* \"#utility.yul\":9113:9119   */\n      dup3\n        /* \"#utility.yul\":9093:9126   */\n      tag_258\n      jump\t// in\n    tag_257:\n        /* \"#utility.yul\":9003:9132   */\n      swap2\n      swap1\n      pop\n      jump\t// out\n        /* \"#utility.yul\":9138:9213   */\n    tag_256:\n        /* \"#utility.yul\":9171:9177   */\n      0x00\n        /* \"#utility.yul\":9204:9206   */\n      0x40\n        /* \"#utility.yul\":9198:9207   */\n      mload\n        /* \"#utility.yul\":9188:9207   */\n      swap1\n      pop\n        /* \"#utility.yul\":9138:9213   */\n      swap1\n      jump\t// out\n        /* \"#utility.yul\":9219:9527   */\n    tag_145:\n        /* \"#utility.yul\":9281:9285   */\n      0x00\n        /* \"#utility.yul\":9371:9389   */\n      0xffffffffffffffff\n        /* \"#utility.yul\":9363:9369   */\n      dup3\n        /* \"#utility.yul\":9360:9390   */\n      gt\n        /* \"#utility.yul\":9357:9413   */\n      iszero\n      tag_261\n      jumpi\n        /* \"#utility.yul\":9393:9411   */\n      tag_262\n      tag_26\n      jump\t// in\n    tag_262:\n        /* \"#utility.yul\":9357:9413   */\n    tag_261:\n        /* \"#utility.yul\":9431:9460   */\n      tag_263\n        /* \"#utility.yul\":9453:9459   */\n      dup3\n        /* \"#utility.yul\":9431:9460   */\n      tag_204\n      jump\t// in\n    tag_263:\n        /* \"#utility.yul\":9423:9460   */\n      swap1\n      pop\n        /* \"#utility.yul\":9515:9519   */\n      0x20\n        /* \"#utility.yul\":9509:9513   */\n      dup2\n        /* \"#utility.yul\":9505:9520   */\n      add\n        /* \"#utility.yul\":9497:9520   */\n      swap1\n      pop\n        /* \"#utility.yul\":9219:9527   */\n      swap2\n      swap1\n      pop\n      jump\t// out\n        /* \"#utility.yul\":9533:9675   */\n    tag_189:\n        /* \"#utility.yul\":9610:9614   */\n      0x00\n        /* \"#utility.yul\":9633:9636   */\n      dup2\n        /* \"#utility.yul\":9625:9636   */\n      swap1\n      pop\n        /* \"#utility.yul\":9663:9667   */\n      0x20\n        /* \"#utility.yul\":9658:9661   */\n      dup3\n        /* \"#utility.yul\":9654:9668   */\n      add\n        /* \"#utility.yul\":9646:9668   */\n      swap1\n      pop\n        /* \"#utility.yul\":9533:9675   */\n      swap2\n      swap1\n      pop\n      jump\t// out\n        /* \"#utility.yul\":9681:9805   */\n    tag_185:\n        /* \"#utility.yul\":9758:9764   */\n      0x00\n        /* \"#utility.yul\":9792:9797   */\n      dup2\n        /* \"#utility.yul\":9786:9798   */\n      mload\n        /* \"#utility.yul\":9776:9798   */\n      swap1\n      pop\n        /* \"#utility.yul\":9681:9805   */\n      swap2\n      swap1\n      pop\n      jump\t// out\n        /* \"#utility.yul\":9811:9910   */\n    tag_198:\n        /* \"#utility.yul\":9863:9869   */\n      0x00\n        /* \"#utility.yul\":9897:9902   */\n      dup2\n        /* \"#utility.yul\":9891:9903   */\n      mload\n        /* \"#utility.yul\":9881:9903   */\n      swap1\n      pop\n        /* \"#utility.yul\":9811:9910   */\n      swap2\n      swap1\n      pop\n      jump\t// out\n        /* \"#utility.yul\":9916:10039   */\n    tag_195:\n        /* \"#utility.yul\":9996:10000   */\n      0x00\n        /* \"#utility.yul\":10028:10032   */\n      0x20\n        /* \"#utility.yul\":10023:10026   */\n      dup3\n        /* \"#utility.yul\":10019:10033   */\n      add\n        /* \"#utility.yul\":10011:10033   */\n      swap1\n      pop\n        /* \"#utility.yul\":9916:10039   */\n      swap2\n      swap1\n      pop\n      jump\t// out\n        /* \"#utility.yul\":10045:10239   */\n    tag_187:\n        /* \"#utility.yul\":10154:10165   */\n      0x00\n        /* \"#utility.yul\":10188:10194   */\n      dup3\n        /* \"#utility.yul\":10183:10186   */\n      dup3\n        /* \"#utility.yul\":10176:10195   */\n      mstore\n        /* \"#utility.yul\":10228:10232   */\n      0x20\n        /* \"#utility.yul\":10223:10226   */\n      dup3\n        /* \"#utility.yul\":10219:10233   */\n      add\n        /* \"#utility.yul\":10204:10233   */\n      swap1\n      pop\n        /* \"#utility.yul\":10045:10239   */\n      swap3\n      swap2\n      pop\n      pop\n      jump\t// out\n        /* \"#utility.yul\":10245:10404   */\n    tag_200:\n        /* \"#utility.yul\":10319:10330   */\n      0x00\n        /* \"#utility.yul\":10353:10359   */\n      dup3\n        /* \"#utility.yul\":10348:10351   */\n      dup3\n        /* \"#utility.yul\":10341:10360   */\n      mstore\n        /* \"#utility.yul\":10393:10397   */\n      0x20\n        /* \"#utility.yul\":10388:10391   */\n      dup3\n        /* \"#utility.yul\":10384:10398   */\n      add\n        /* \"#utility.yul\":10369:10398   */\n      swap1\n      pop\n        /* \"#utility.yul\":10245:10404   */\n      swap3\n      swap2\n      pop\n      pop\n      jump\t// out\n        /* \"#utility.yul\":10410:10579   */\n    tag_209:\n        /* \"#utility.yul\":10494:10505   */\n      0x00\n        /* \"#utility.yul\":10528:10534   */\n      dup3\n        /* \"#utility.yul\":10523:10526   */\n      dup3\n        /* \"#utility.yul\":10516:10535   */\n      mstore\n        /* \"#utility.yul\":10568:10572   */\n      0x20\n        /* \"#utility.yul\":10563:10566   */\n      dup3\n        /* \"#utility.yul\":10559:10573   */\n      add\n        /* \"#utility.yul\":10544:10573   */\n      swap1\n      pop\n        /* \"#utility.yul\":10410:10579   */\n      swap3\n      swap2\n      pop\n      pop\n      jump\t// out\n        /* \"#utility.yul\":10585:10681   */\n    tag_181:\n        /* \"#utility.yul\":10622:10629   */\n      0x00\n        /* \"#utility.yul\":10651:10675   */\n      tag_272\n        /* \"#utility.yul\":10669:10674   */\n      dup3\n        /* \"#utility.yul\":10651:10675   */\n      tag_273\n      jump\t// in\n    tag_272:\n        /* \"#utility.yul\":10640:10675   */\n      swap1\n      pop\n        /* \"#utility.yul\":10585:10681   */\n      swap2\n      swap1\n      pop\n      jump\t// out\n        /* \"#utility.yul\":10687:10813   */\n    tag_273:\n        /* \"#utility.yul\":10724:10731   */\n      0x00\n        /* \"#utility.yul\":10764:10806   */\n      0xffffffffffffffffffffffffffffffffffffffff\n        /* \"#utility.yul\":10757:10762   */\n      dup3\n        /* \"#utility.yul\":10753:10807   */\n      and\n        /* \"#utility.yul\":10742:10807   */\n      swap1\n      pop\n        /* \"#utility.yul\":10687:10813   */\n      swap2\n      swap1\n      pop\n      jump\t// out\n        /* \"#utility.yul\":10819:10896   */\n    tag_275:\n        /* \"#utility.yul\":10856:10863   */\n      0x00\n        /* \"#utility.yul\":10885:10890   */\n      dup2\n        /* \"#utility.yul\":10874:10890   */\n      swap1\n      pop\n        /* \"#utility.yul\":10819:10896   */\n      swap2\n      swap1\n      pop\n      jump\t// out\n        /* \"#utility.yul\":10902:11056   */\n    tag_151:\n        /* \"#utility.yul\":10986:10992   */\n      dup3\n        /* \"#utility.yul\":10981:10984   */\n      dup2\n        /* \"#utility.yul\":10976:10979   */\n      dup4\n        /* \"#utility.yul\":10963:10993   */\n      calldatacopy\n        /* \"#utility.yul\":11048:11049   */\n      0x00\n        /* \"#utility.yul\":11039:11045   */\n      dup4\n        /* \"#utility.yul\":11034:11037   */\n      dup4\n        /* \"#utility.yul\":11030:11046   */\n      add\n        /* \"#utility.yul\":11023:11050   */\n      mstore\n        /* \"#utility.yul\":10902:11056   */\n      pop\n      pop\n      pop\n      jump\t// out\n        /* \"#utility.yul\":11062:11369   */\n    tag_202:\n        /* \"#utility.yul\":11130:11131   */\n      0x00\n        /* \"#utility.yul\":11140:11253   */\n    tag_279:\n        /* \"#utility.yul\":11154:11160   */\n      dup4\n        /* \"#utility.yul\":11151:11152   */\n      dup2\n        /* \"#utility.yul\":11148:11161   */\n      lt\n        /* \"#utility.yul\":11140:11253   */\n      iszero\n      tag_281\n      jumpi\n        /* \"#utility.yul\":11239:11240   */\n      dup1\n        /* \"#utility.yul\":11234:11237   */\n      dup3\n        /* \"#utility.yul\":11230:11241   */\n      add\n        /* \"#utility.yul\":11224:11242   */\n      mload\n        /* \"#utility.yul\":11220:11221   */\n      dup2\n        /* \"#utility.yul\":11215:11218   */\n      dup5\n        /* \"#utility.yul\":11211:11222   */\n      add\n        /* \"#utility.yul\":11204:11243   */\n      mstore\n        /* \"#utility.yul\":11176:11178   */\n      0x20\n        /* \"#utility.yul\":11173:11174   */\n      dup2\n        /* \"#utility.yul\":11169:11179   */\n      add\n        /* \"#utility.yul\":11164:11179   */\n      swap1\n      pop\n        /* \"#utility.yul\":11140:11253   */\n      jump(tag_279)\n    tag_281:\n        /* \"#utility.yul\":11271:11277   */\n      dup4\n        /* \"#utility.yul\":11268:11269   */\n      dup2\n        /* \"#utility.yul\":11265:11278   */\n      gt\n        /* \"#utility.yul\":11262:11363   */\n      iszero\n      tag_282\n      jumpi\n        /* \"#utility.yul\":11351:11352   */\n      0x00\n        /* \"#utility.yul\":11342:11348   */\n      dup5\n        /* \"#utility.yul\":11337:11340   */\n      dup5\n        /* \"#utility.yul\":11333:11349   */\n      add\n        /* \"#utility.yul\":11326:11353   */\n      mstore\n        /* \"#utility.yul\":11262:11363   */\n    tag_282:\n        /* \"#utility.yul\":11111:11369   */\n      pop\n        /* \"#utility.yul\":11062:11369   */\n      pop\n      pop\n      pop\n      jump\t// out\n        /* \"#utility.yul\":11375:11695   */\n    tag_37:\n        /* \"#utility.yul\":11419:11425   */\n      0x00\n        /* \"#utility.yul\":11456:11457   */\n      0x02\n        /* \"#utility.yul\":11450:11454   */\n      dup3\n        /* \"#utility.yul\":11446:11458   */\n      div\n        /* \"#utility.yul\":11436:11458   */\n      swap1\n      pop\n        /* \"#utility.yul\":11503:11504   */\n      0x01\n        /* \"#utility.yul\":11497:11501   */\n      dup3\n        /* \"#utility.yul\":11493:11505   */\n      and\n        /* \"#utility.yul\":11524:11542   */\n      dup1\n        /* \"#utility.yul\":11514:11595   */\n      tag_284\n      jumpi\n        /* \"#utility.yul\":11580:11584   */\n      0x7f\n        /* \"#utility.yul\":11572:11578   */\n      dup3\n        /* \"#utility.yul\":11568:11585   */\n      and\n        /* \"#utility.yul\":11558:11585   */\n      swap2\n      pop\n        /* \"#utility.yul\":11514:11595   */\n    tag_284:\n        /* \"#utility.yul\":11642:11644   */\n      0x20\n        /* \"#utility.yul\":11634:11640   */\n      dup3\n        /* \"#utility.yul\":11631:11645   */\n      lt\n        /* \"#utility.yul\":11611:11629   */\n      dup2\n        /* \"#utility.yul\":11608:11646   */\n      eq\n        /* \"#utility.yul\":11605:11689   */\n      iszero\n      tag_285\n      jumpi\n        /* \"#utility.yul\":11661:11679   */\n      tag_286\n      tag_287\n      jump\t// in\n    tag_286:\n        /* \"#utility.yul\":11605:11689   */\n    tag_285:\n        /* \"#utility.yul\":11426:11695   */\n      pop\n        /* \"#utility.yul\":11375:11695   */\n      swap2\n      swap1\n      pop\n      jump\t// out\n        /* \"#utility.yul\":11701:11982   */\n    tag_258:\n        /* \"#utility.yul\":11784:11811   */\n      tag_289\n        /* \"#utility.yul\":11806:11810   */\n      dup3\n        /* \"#utility.yul\":11784:11811   */\n      tag_204\n      jump\t// in\n    tag_289:\n        /* \"#utility.yul\":11776:11782   */\n      dup2\n        /* \"#utility.yul\":11772:11812   */\n      add\n        /* \"#utility.yul\":11914:11920   */\n      dup2\n        /* \"#utility.yul\":11902:11912   */\n      dup2\n        /* \"#utility.yul\":11899:11921   */\n      lt\n        /* \"#utility.yul\":11878:11896   */\n      0xffffffffffffffff\n        /* \"#utility.yul\":11866:11876   */\n      dup3\n        /* \"#utility.yul\":11863:11897   */\n      gt\n        /* \"#utility.yul\":11860:11922   */\n      or\n        /* \"#utility.yul\":11857:11945   */\n      iszero\n      tag_290\n      jumpi\n        /* \"#utility.yul\":11925:11943   */\n      tag_291\n      tag_26\n      jump\t// in\n    tag_291:\n        /* \"#utility.yul\":11857:11945   */\n    tag_290:\n        /* \"#utility.yul\":11965:11975   */\n      dup1\n        /* \"#utility.yul\":11961:11963   */\n      0x40\n        /* \"#utility.yul\":11954:11976   */\n      mstore\n        /* \"#utility.yul\":11744:11982   */\n      pop\n        /* \"#utility.yul\":11701:11982   */\n      pop\n      pop\n      jump\t// out\n        /* \"#utility.yul\":11988:12221   */\n    tag_45:\n        /* \"#utility.yul\":12027:12030   */\n      0x00\n        /* \"#utility.yul\":12050:12074   */\n      tag_293\n        /* \"#utility.yul\":12068:12073   */\n      dup3\n        /* \"#utility.yul\":12050:12074   */\n      tag_275\n      jump\t// in\n    tag_293:\n        /* \"#utility.yul\":12041:12074   */\n      swap2\n      pop\n        /* \"#utility.yul\":12096:12162   */\n      0xffffffffffffffffffffffffffffffffffffffffffffffffffffffffffffffff\n        /* \"#utility.yul\":12089:12094   */\n      dup3\n        /* \"#utility.yul\":12086:12163   */\n      eq\n        /* \"#utility.yul\":12083:12186   */\n      iszero\n      tag_294\n      jumpi\n        /* \"#utility.yul\":12166:12184   */\n      tag_295\n      tag_296\n      jump\t// in\n    tag_295:\n        /* \"#utility.yul\":12083:12186   */\n    tag_294:\n        /* \"#utility.yul\":12213:12214   */\n      0x01\n        /* \"#utility.yul\":12206:12211   */\n      dup3\n        /* \"#utility.yul\":12202:12215   */\n      add\n        /* \"#utility.yul\":12195:12215   */\n      swap1\n      pop\n        /* \"#utility.yul\":11988:12221   */\n      swap2\n      swap1\n      pop\n      jump\t// out\n        /* \"#utility.yul\":12227:12407   */\n    tag_296:\n        /* \"#utility.yul\":12275:12352   */\n      0x4e487b7100000000000000000000000000000000000000000000000000000000\n        /* \"#utility.yul\":12272:12273   */\n      0x00\n        /* \"#utility.yul\":12265:12353   */\n      mstore\n        /* \"#utility.yul\":12372:12376   */\n      0x11\n        /* \"#utility.yul\":12369:12370   */\n      0x04\n        /* \"#utility.yul\":12362:12377   */\n      mstore\n        /* \"#utility.yul\":12396:12400   */\n      0x24\n        /* \"#utility.yul\":12393:12394   */\n      0x00\n        /* \"#utility.yul\":12386:12401   */\n      revert\n        /* \"#utility.yul\":12413:12593   */\n    tag_287:\n        /* \"#utility.yul\":12461:12538   */\n      0x4e487b7100000000000000000000000000000000000000000000000000000000\n        /* \"#utility.yul\":12458:12459   */\n      0x00\n        /* \"#utility.yul\":12451:12539   */\n      mstore\n        /* \"#utility.yul\":12558:12562   */\n      0x22\n        /* \"#utility.yul\":12555:12556   */\n      0x04\n        /* \"#utility.yul\":12548:12563   */\n      mstore\n        /* \"#utility.yul\":12582:12586   */\n      0x24\n        /* \"#utility.yul\":12579:12580   */\n      0x00\n        /* \"#utility.yul\":12572:12587   */\n      revert\n        /* \"#utility.yul\":12599:12779   */\n    tag_34:\n        /* \"#utility.yul\":12647:12724   */\n      0x4e487b7100000000000000000000000000000000000000000000000000000000\n        /* \"#utility.yul\":12644:12645   */\n      0x00\n        /* \"#utility.yul\":12637:12725   */\n      mstore\n        /* \"#utility.yul\":12744:12748   */\n      0x32\n        /* \"#utility.yul\":12741:12742   */\n      0x04\n        /* \"#utility.yul\":12734:12749   */\n      mstore\n        /* \"#utility.yul\":12768:12772   */\n      0x24\n        /* \"#utility.yul\":12765:12766   */\n      0x00\n        /* \"#utility.yul\":12758:12773   */\n      revert\n        /* \"#utility.yul\":12785:12965   */\n    tag_26:\n        /* \"#utility.yul\":12833:12910   */\n      0x4e487b7100000000000000000000000000000000000000000000000000000000\n        /* \"#utility.yul\":12830:12831   */\n      0x00\n        /* \"#utility.yul\":12823:12911   */\n      mstore\n        /* \"#utility.yul\":12930:12934   */\n      0x41\n        /* \"#utility.yul\":12927:12928   */\n      0x04\n        /* \"#utility.yul\":12920:12935   */\n      mstore\n        /* \"#utility.yul\":12954:12958   */\n      0x24\n        /* \"#utility.yul\":12951:12952   */\n      0x00\n        /* \"#utility.yul\":12944:12959   */\n      revert\n        /* \"#utility.yul\":12971:13088   */\n    tag_160:\n        /* \"#utility.yul\":13080:13081   */\n      0x00\n        /* \"#utility.yul\":13077:13078   */\n      dup1\n        /* \"#utility.yul\":13070:13082   */\n      revert\n        /* \"#utility.yul\":13094:13211   */\n    tag_149:\n        /* \"#utility.yul\":13203:13204   */\n      0x00\n        /* \"#utility.yul\":13200:13201   */\n      dup1\n        /* \"#utility.yul\":13193:13205   */\n      revert\n        /* \"#utility.yul\":13217:13334   */\n    tag_172:\n        /* \"#utility.yul\":13326:13327   */\n      0x00\n        /* \"#utility.yul\":13323:13324   */\n      dup1\n        /* \"#utility.yul\":13316:13328   */\n      revert\n        /* \"#utility.yul\":13340:13457   */\n    tag_165:\n        /* \"#utility.yul\":13449:13450   */\n      0x00\n        /* \"#utility.yul\":13446:13447   */\n      dup1\n        /* \"#utility.yul\":13439:13451   */\n      revert\n        /* \"#utility.yul\":13463:13565   */\n    tag_204:\n        /* \"#utility.yul\":13504:13510   */\n      0x00\n        /* \"#utility.yul\":13555:13557   */\n      0x1f\n        /* \"#utility.yul\":13551:13558   */\n      not\n        /* \"#utility.yul\":13546:13548   */\n      0x1f\n        /* \"#utility.yul\":13539:13544   */\n      dup4\n        /* \"#utility.yul\":13535:13549   */\n      add\n        /* \"#utility.yul\":13531:13559   */\n      and\n        /* \"#utility.yul\":13521:13559   */\n      swap1\n      pop\n        /* \"#utility.yul\":13463:13565   */\n      swap2\n      swap1\n      pop\n      jump\t// out\n        /* \"#utility.yul\":13571:13805   */\n    tag_216:\n        /* \"#utility.yul\":13711:13745   */\n      0x4d6178206163636f756e7420766f74657320697320726561636865642e204261\n        /* \"#utility.yul\":13707:13708   */\n      0x00\n        /* \"#utility.yul\":13699:13705   */\n      dup3\n        /* \"#utility.yul\":13695:13709   */\n      add\n        /* \"#utility.yul\":13688:13746   */\n      mstore\n        /* \"#utility.yul\":13780:13797   */\n      0x6c6c6f7420697320434c4f5345442e0000000000000000000000000000000000\n        /* \"#utility.yul\":13775:13777   */\n      0x20\n        /* \"#utility.yul\":13767:13773   */\n      dup3\n        /* \"#utility.yul\":13763:13778   */\n      add\n        /* \"#utility.yul\":13756:13798   */\n      mstore\n        /* \"#utility.yul\":13571:13805   */\n      pop\n      jump\t// out\n        /* \"#utility.yul\":13811:14045   */\n    tag_221:\n        /* \"#utility.yul\":13951:13985   */\n      0x4f6e6c792074686520636f6e7472616374206f776e65722063616e2067697665\n        /* \"#utility.yul\":13947:13948   */\n      0x00\n        /* \"#utility.yul\":13939:13945   */\n      dup3\n        /* \"#utility.yul\":13935:13949   */\n      add\n        /* \"#utility.yul\":13928:13986   */\n      mstore\n        /* \"#utility.yul\":14020:14037   */\n      0x20726967687420746f20766f74652e0000000000000000000000000000000000\n        /* \"#utility.yul\":14015:14017   */\n      0x20\n        /* \"#utility.yul\":14007:14013   */\n      dup3\n        /* \"#utility.yul\":14003:14018   */\n      add\n        /* \"#utility.yul\":13996:14038   */\n      mstore\n        /* \"#utility.yul\":13811:14045   */\n      pop\n      jump\t// out\n        /* \"#utility.yul\":14051:14221   */\n    tag_226:\n        /* \"#utility.yul\":14191:14213   */\n      0x566f74657220616c726561647920766f7465642e000000000000000000000000\n        /* \"#utility.yul\":14187:14188   */\n      0x00\n        /* \"#utility.yul\":14179:14185   */\n      dup3\n        /* \"#utility.yul\":14175:14189   */\n      add\n        /* \"#utility.yul\":14168:14214   */\n      mstore\n        /* \"#utility.yul\":14051:14221   */\n      pop\n      jump\t// out\n        /* \"#utility.yul\":14227:14403   */\n    tag_231:\n        /* \"#utility.yul\":14367:14395   */\n      0x596f752068617665206e6f7420726967687420746f20766f7465000000000000\n        /* \"#utility.yul\":14363:14364   */\n      0x00\n        /* \"#utility.yul\":14355:14361   */\n      dup3\n        /* \"#utility.yul\":14351:14365   */\n      add\n        /* \"#utility.yul\":14344:14396   */\n      mstore\n        /* \"#utility.yul\":14227:14403   */\n      pop\n      jump\t// out\n        /* \"#utility.yul\":14409:14709   */\n    tag_236:\n        /* \"#utility.yul\":14549:14583   */\n      0x5468657265206973206120746965206f6e2042616c6c6f742e20596f75207368\n        /* \"#utility.yul\":14545:14546   */\n      0x00\n        /* \"#utility.yul\":14537:14543   */\n      dup3\n        /* \"#utility.yul\":14533:14547   */\n      add\n        /* \"#utility.yul\":14526:14584   */\n      mstore\n        /* \"#utility.yul\":14618:14652   */\n      0x6f756c642073746172742061206e65772062616c6c6f74207769746820746965\n        /* \"#utility.yul\":14613:14615   */\n      0x20\n        /* \"#utility.yul\":14605:14611   */\n      dup3\n        /* \"#utility.yul\":14601:14616   */\n      add\n        /* \"#utility.yul\":14594:14653   */\n      mstore\n        /* \"#utility.yul\":14687:14701   */\n      0x2063616e646964617465732e0000000000000000000000000000000000000000\n        /* \"#utility.yul\":14682:14684   */\n      0x40\n        /* \"#utility.yul\":14674:14680   */\n      dup3\n        /* \"#utility.yul\":14670:14685   */\n      add\n        /* \"#utility.yul\":14663:14702   */\n      mstore\n        /* \"#utility.yul\":14409:14709   */\n      pop\n      jump\t// out\n        /* \"#utility.yul\":14715:14837   */\n    tag_155:\n        /* \"#utility.yul\":14788:14812   */\n      tag_312\n        /* \"#utility.yul\":14806:14811   */\n      dup2\n        /* \"#utility.yul\":14788:14812   */\n      tag_181\n      jump\t// in\n    tag_312:\n        /* \"#utility.yul\":14781:14786   */\n      dup2\n        /* \"#utility.yul\":14778:14813   */\n      eq\n        /* \"#utility.yul\":14768:14831   */\n      tag_313\n      jumpi\n        /* \"#utility.yul\":14827:14828   */\n      0x00\n        /* \"#utility.yul\":14824:14825   */\n      dup1\n        /* \"#utility.yul\":14817:14829   */\n      revert\n        /* \"#utility.yul\":14768:14831   */\n    tag_313:\n        /* \"#utility.yul\":14715:14837   */\n      pop\n      jump\t// out\n\n    auxdata: 0xa26469706673582212205165e945cc7075e2dd197cc0c9581e66d101fe87eddf58cf2b30e28a43c7b8ea64736f6c63430008070033\n}\n",
				"bytecode": {
					"linkReferences": {},
					"object": "60806040523480156200001157600080fd5b50604051620017443803806200174483398181016040528101906200003791906200035b565b336000806101000a81548173ffffffffffffffffffffffffffffffffffffffff021916908373ffffffffffffffffffffffffffffffffffffffff16021790555062000088826200009760201b60201c565b80600481905550505062000649565b60005b8151811015620001435760026040518060400160405280848481518110620000c757620000c6620005a7565b5b602002602001015181526020016000815250908060018154018082558091505060019003906000526020600020906002020160009091909190915060008201518160000190805190602001906200012092919062000147565b5060208201518160010155505080806200013a90620004fb565b9150506200009a565b5050565b82805462000155906200048f565b90600052602060002090601f016020900481019282620001795760008555620001c5565b82601f106200019457805160ff1916838001178555620001c5565b82800160010185558215620001c5579182015b82811115620001c4578251825591602001919060010190620001a7565b5b509050620001d49190620001d8565b5090565b5b80821115620001f3576000816000905550600101620001d9565b5090565b60006200020e6200020884620003ea565b620003c1565b905080838252602082019050828560208602820111156200023457620002336200060a565b5b60005b858110156200028957815167ffffffffffffffff8111156200025e576200025d62000605565b5b8086016200026d898262000311565b8552602085019450602084019350505060018101905062000237565b5050509392505050565b6000620002aa620002a48462000419565b620003c1565b905082815260208101848484011115620002c957620002c86200060f565b5b620002d684828562000459565b509392505050565b600082601f830112620002f657620002f562000605565b5b815162000308848260208601620001f7565b91505092915050565b600082601f83011262000329576200032862000605565b5b81516200033b84826020860162000293565b91505092915050565b60008151905062000355816200062f565b92915050565b6000806040838503121562000375576200037462000619565b5b600083015167ffffffffffffffff81111562000396576200039562000614565b5b620003a485828601620002de565b9250506020620003b78582860162000344565b9150509250929050565b6000620003cd620003e0565b9050620003db8282620004c5565b919050565b6000604051905090565b600067ffffffffffffffff821115620004085762000407620005d6565b5b602082029050602081019050919050565b600067ffffffffffffffff821115620004375762000436620005d6565b5b62000442826200061e565b9050602081019050919050565b6000819050919050565b60005b83811015620004795780820151818401526020810190506200045c565b8381111562000489576000848401525b50505050565b60006002820490506001821680620004a857607f821691505b60208210811415620004bf57620004be62000578565b5b50919050565b620004d0826200061e565b810181811067ffffffffffffffff82111715620004f257620004f1620005d6565b5b80604052505050565b600062000508826200044f565b91507fffffffffffffffffffffffffffffffffffffffffffffffffffffffffffffffff8214156200053e576200053d62000549565b5b600182019050919050565b7f4e487b7100000000000000000000000000000000000000000000000000000000600052601160045260246000fd5b7f4e487b7100000000000000000000000000000000000000000000000000000000600052602260045260246000fd5b7f4e487b7100000000000000000000000000000000000000000000000000000000600052603260045260246000fd5b7f4e487b7100000000000000000000000000000000000000000000000000000000600052604160045260246000fd5b600080fd5b600080fd5b600080fd5b600080fd5b600080fd5b6000601f19601f8301169050919050565b6200063a816200044f565b81146200064657600080fd5b50565b6110eb80620006596000396000f3fe608060405234801561001057600080fd5b506004361061004c5760003560e01c8063011d1023146100515780632bfda5151461006f5780639e7b8d611461008e578063fc36e15b146100aa575b600080fd5b6100596100c6565b6040516100669190610b5e565b60405180910390f35b610077610217565b604051610085929190610ba2565b60405180910390f35b6100a860048036038101906100a3919061092f565b61032e565b005b6100c460048036038101906100bf919061095c565b6103e5565b005b60606000600280549050905060008167ffffffffffffffff8111156100ee576100ed610ee5565b5b60405190808252806020026020018201604052801561012157816020015b606081526020019060019003908161010c5790505b50905060005b8281101561020e576002818154811061014357610142610eb6565b5b9060005260206000209060020201600001805461015f90610dac565b80601f016020809104026020016040519081016040528092919081815260200182805461018b90610dac565b80156101d85780601f106101ad576101008083540402835291602001916101d8565b820191906000526020600020905b8154815290600101906020018083116101bb57829003601f168201915b50505050508282815181106101f0576101ef610eb6565b5b6020026020010181905250808061020690610e0f565b915050610127565b50809250505090565b606060008060006102266105d7565b91509150801561026b576040517f08c379a000000000000000000000000000000000000000000000000000000000815260040161026290610c52565b60405180910390fd5b6002828154811061027f5761027e610eb6565b5b9060005260206000209060020201600001805461029b90610dac565b80601f01602080910402602001604051908101604052809291908181526020018280546102c790610dac565b80156103145780601f106102e957610100808354040283529160200191610314565b820191906000526020600020905b8154815290600101906020018083116102f757829003601f168201915b505050505093508361032461069c565b9350935050509091565b806103376106a4565b61033f6106ec565b61037e576040517f08c379a000000000000000000000000000000000000000000000000000000000815260040161037590610bf2565b60405180910390fd5b61038781610743565b60018060008473ffffffffffffffffffffffffffffffffffffffff1673ffffffffffffffffffffffffffffffffffffffff16815260200190815260200160002060000160006101000a81548160ff0219169083151502179055505050565b336103ee6106a4565b6103f661078f565b610435576040517f08c379a000000000000000000000000000000000000000000000000000000000815260040161042c90610c32565b60405180910390fd5b61043e81610743565b6000600160003373ffffffffffffffffffffffffffffffffffffffff1673ffffffffffffffffffffffffffffffffffffffff168152602001908152602001600020905060005b6002805490508110156105d157610548600282815481106104a8576104a7610eb6565b5b906000526020600020906002020160000180546104c490610dac565b80601f01602080910402602001604051908101604052809291908181526020018280546104f090610dac565b801561053d5780601f106105125761010080835404028352916020019161053d565b820191906000526020600020905b81548152906001019060200180831161052057829003601f168201915b50505050508561079f565b156105be576002818154811061056157610560610eb6565b5b9060005260206000209060020201600101600081548092919061058390610e0f565b919050555060018260000160016101000a81548160ff021916908315150217905550600360008154809291906105b890610e0f565b91905055505b80806105c990610e0f565b915050610484565b50505050565b600080600080600090505b60028054905081101561069657816002828154811061060457610603610eb6565b5b906000526020600020906002020160010154111561065057600281815481106106305761062f610eb6565b5b906000526020600020906002020160010154915080935060009250610683565b816002828154811061066557610664610eb6565b5b906000526020600020906002020160010154141561068257600192505b5b808061068e90610e0f565b9150506105e2565b50509091565b600030905090565b600454600354106106ea576040517f08c379a00000000000000000000000000000000000000000000000000000000081526004016106e190610bd2565b60405180910390fd5b565b60008060009054906101000a900473ffffffffffffffffffffffffffffffffffffffff1673ffffffffffffffffffffffffffffffffffffffff163373ffffffffffffffffffffffffffffffffffffffff1614905090565b61074c816107f8565b1561078c576040517f08c379a000000000000000000000000000000000000000000000000000000000815260040161078390610c12565b60405180910390fd5b50565b600061079a33610851565b905090565b6000816040516020016107b29190610b80565b60405160208183030381529060405280519060200120836040516020016107d99190610b80565b6040516020818303038152906040528051906020012014905092915050565b6000600160008373ffffffffffffffffffffffffffffffffffffffff1673ffffffffffffffffffffffffffffffffffffffff16815260200190815260200160002060000160019054906101000a900460ff169050919050565b6000600160008373ffffffffffffffffffffffffffffffffffffffff1673ffffffffffffffffffffffffffffffffffffffff16815260200190815260200160002060000160009054906101000a900460ff169050919050565b60006108bd6108b884610c97565b610c72565b9050828152602081018484840111156108d9576108d8610f19565b5b6108e4848285610d6a565b509392505050565b6000813590506108fb8161109e565b92915050565b600082601f83011261091657610915610f14565b5b81356109268482602086016108aa565b91505092915050565b60006020828403121561094557610944610f23565b5b6000610953848285016108ec565b91505092915050565b60006020828403121561097257610971610f23565b5b600082013567ffffffffffffffff8111156109905761098f610f1e565b5b61099c84828501610901565b91505092915050565b60006109b18383610a3d565b905092915050565b6109c281610d2e565b82525050565b60006109d382610cd8565b6109dd8185610cfb565b9350836020820285016109ef85610cc8565b8060005b85811015610a2b5784840389528151610a0c85826109a5565b9450610a1783610cee565b925060208a019950506001810190506109f3565b50829750879550505050505092915050565b6000610a4882610ce3565b610a528185610d0c565b9350610a62818560208601610d79565b610a6b81610f28565b840191505092915050565b6000610a8182610ce3565b610a8b8185610d1d565b9350610a9b818560208601610d79565b610aa481610f28565b840191505092915050565b6000610abc602f83610d1d565b9150610ac782610f39565b604082019050919050565b6000610adf602f83610d1d565b9150610aea82610f88565b604082019050919050565b6000610b02601483610d1d565b9150610b0d82610fd7565b602082019050919050565b6000610b25601a83610d1d565b9150610b3082611000565b602082019050919050565b6000610b48604c83610d1d565b9150610b5382611029565b606082019050919050565b60006020820190508181036000830152610b7881846109c8565b905092915050565b60006020820190508181036000830152610b9a8184610a76565b905092915050565b60006040820190508181036000830152610bbc8185610a76565b9050610bcb60208301846109b9565b9392505050565b60006020820190508181036000830152610beb81610aaf565b9050919050565b60006020820190508181036000830152610c0b81610ad2565b9050919050565b60006020820190508181036000830152610c2b81610af5565b9050919050565b60006020820190508181036000830152610c4b81610b18565b9050919050565b60006020820190508181036000830152610c6b81610b3b565b9050919050565b6000610c7c610c8d565b9050610c888282610dde565b919050565b6000604051905090565b600067ffffffffffffffff821115610cb257610cb1610ee5565b5b610cbb82610f28565b9050602081019050919050565b6000819050602082019050919050565b600081519050919050565b600081519050919050565b6000602082019050919050565b600082825260208201905092915050565b600082825260208201905092915050565b600082825260208201905092915050565b6000610d3982610d40565b9050919050565b600073ffffffffffffffffffffffffffffffffffffffff82169050919050565b6000819050919050565b82818337600083830152505050565b60005b83811015610d97578082015181840152602081019050610d7c565b83811115610da6576000848401525b50505050565b60006002820490506001821680610dc457607f821691505b60208210811415610dd857610dd7610e87565b5b50919050565b610de782610f28565b810181811067ffffffffffffffff82111715610e0657610e05610ee5565b5b80604052505050565b6000610e1a82610d60565b91507fffffffffffffffffffffffffffffffffffffffffffffffffffffffffffffffff821415610e4d57610e4c610e58565b5b600182019050919050565b7f4e487b7100000000000000000000000000000000000000000000000000000000600052601160045260246000fd5b7f4e487b7100000000000000000000000000000000000000000000000000000000600052602260045260246000fd5b7f4e487b7100000000000000000000000000000000000000000000000000000000600052603260045260246000fd5b7f4e487b7100000000000000000000000000000000000000000000000000000000600052604160045260246000fd5b600080fd5b600080fd5b600080fd5b600080fd5b6000601f19601f8301169050919050565b7f4d6178206163636f756e7420766f74657320697320726561636865642e20426160008201527f6c6c6f7420697320434c4f5345442e0000000000000000000000000000000000602082015250565b7f4f6e6c792074686520636f6e7472616374206f776e65722063616e206769766560008201527f20726967687420746f20766f74652e0000000000000000000000000000000000602082015250565b7f566f74657220616c726561647920766f7465642e000000000000000000000000600082015250565b7f596f752068617665206e6f7420726967687420746f20766f7465000000000000600082015250565b7f5468657265206973206120746965206f6e2042616c6c6f742e20596f7520736860008201527f6f756c642073746172742061206e65772062616c6c6f7420776974682074696560208201527f2063616e646964617465732e0000000000000000000000000000000000000000604082015250565b6110a781610d2e565b81146110b257600080fd5b5056fea26469706673582212205165e945cc7075e2dd197cc0c9581e66d101fe87eddf58cf2b30e28a43c7b8ea64736f6c63430008070033",
					"opcodes": "PUSH1 0x80 PUSH1 0x40 MSTORE CALLVALUE DUP1 ISZERO PUSH3 0x11 JUMPI PUSH1 0x0 DUP1 REVERT JUMPDEST POP PUSH1 0x40 MLOAD PUSH3 0x1744 CODESIZE SUB DUP1 PUSH3 0x1744 DUP4 CODECOPY DUP2 DUP2 ADD PUSH1 0x40 MSTORE DUP2 ADD SWAP1 PUSH3 0x37 SWAP2 SWAP1 PUSH3 0x35B JUMP JUMPDEST CALLER PUSH1 0x0 DUP1 PUSH2 0x100 EXP DUP2 SLOAD DUP2 PUSH20 0xFFFFFFFFFFFFFFFFFFFFFFFFFFFFFFFFFFFFFFFF MUL NOT AND SWAP1 DUP4 PUSH20 0xFFFFFFFFFFFFFFFFFFFFFFFFFFFFFFFFFFFFFFFF AND MUL OR SWAP1 SSTORE POP PUSH3 0x88 DUP3 PUSH3 0x97 PUSH1 0x20 SHL PUSH1 0x20 SHR JUMP JUMPDEST DUP1 PUSH1 0x4 DUP2 SWAP1 SSTORE POP POP POP PUSH3 0x649 JUMP JUMPDEST PUSH1 0x0 JUMPDEST DUP2 MLOAD DUP2 LT ISZERO PUSH3 0x143 JUMPI PUSH1 0x2 PUSH1 0x40 MLOAD DUP1 PUSH1 0x40 ADD PUSH1 0x40 MSTORE DUP1 DUP5 DUP5 DUP2 MLOAD DUP2 LT PUSH3 0xC7 JUMPI PUSH3 0xC6 PUSH3 0x5A7 JUMP JUMPDEST JUMPDEST PUSH1 0x20 MUL PUSH1 0x20 ADD ADD MLOAD DUP2 MSTORE PUSH1 0x20 ADD PUSH1 0x0 DUP2 MSTORE POP SWAP1 DUP1 PUSH1 0x1 DUP2 SLOAD ADD DUP1 DUP3 SSTORE DUP1 SWAP2 POP POP PUSH1 0x1 SWAP1 SUB SWAP1 PUSH1 0x0 MSTORE PUSH1 0x20 PUSH1 0x0 KECCAK256 SWAP1 PUSH1 0x2 MUL ADD PUSH1 0x0 SWAP1 SWAP2 SWAP1 SWAP2 SWAP1 SWAP2 POP PUSH1 0x0 DUP3 ADD MLOAD DUP2 PUSH1 0x0 ADD SWAP1 DUP1 MLOAD SWAP1 PUSH1 0x20 ADD SWAP1 PUSH3 0x120 SWAP3 SWAP2 SWAP1 PUSH3 0x147 JUMP JUMPDEST POP PUSH1 0x20 DUP3 ADD MLOAD DUP2 PUSH1 0x1 ADD SSTORE POP POP DUP1 DUP1 PUSH3 0x13A SWAP1 PUSH3 0x4FB JUMP JUMPDEST SWAP2 POP POP PUSH3 0x9A JUMP JUMPDEST POP POP JUMP JUMPDEST DUP3 DUP1 SLOAD PUSH3 0x155 SWAP1 PUSH3 0x48F JUMP JUMPDEST SWAP1 PUSH1 0x0 MSTORE PUSH1 0x20 PUSH1 0x0 KECCAK256 SWAP1 PUSH1 0x1F ADD PUSH1 0x20 SWAP1 DIV DUP2 ADD SWAP3 DUP3 PUSH3 0x179 JUMPI PUSH1 0x0 DUP6 SSTORE PUSH3 0x1C5 JUMP JUMPDEST DUP3 PUSH1 0x1F LT PUSH3 0x194 JUMPI DUP1 MLOAD PUSH1 0xFF NOT AND DUP4 DUP1 ADD OR DUP6 SSTORE PUSH3 0x1C5 JUMP JUMPDEST DUP3 DUP1 ADD PUSH1 0x1 ADD DUP6 SSTORE DUP3 ISZERO PUSH3 0x1C5 JUMPI SWAP2 DUP3 ADD JUMPDEST DUP3 DUP2 GT ISZERO PUSH3 0x1C4 JUMPI DUP3 MLOAD DUP3 SSTORE SWAP2 PUSH1 0x20 ADD SWAP2 SWAP1 PUSH1 0x1 ADD SWAP1 PUSH3 0x1A7 JUMP JUMPDEST JUMPDEST POP SWAP1 POP PUSH3 0x1D4 SWAP2 SWAP1 PUSH3 0x1D8 JUMP JUMPDEST POP SWAP1 JUMP JUMPDEST JUMPDEST DUP1 DUP3 GT ISZERO PUSH3 0x1F3 JUMPI PUSH1 0x0 DUP2 PUSH1 0x0 SWAP1 SSTORE POP PUSH1 0x1 ADD PUSH3 0x1D9 JUMP JUMPDEST POP SWAP1 JUMP JUMPDEST PUSH1 0x0 PUSH3 0x20E PUSH3 0x208 DUP5 PUSH3 0x3EA JUMP JUMPDEST PUSH3 0x3C1 JUMP JUMPDEST SWAP1 POP DUP1 DUP4 DUP3 MSTORE PUSH1 0x20 DUP3 ADD SWAP1 POP DUP3 DUP6 PUSH1 0x20 DUP7 MUL DUP3 ADD GT ISZERO PUSH3 0x234 JUMPI PUSH3 0x233 PUSH3 0x60A JUMP JUMPDEST JUMPDEST PUSH1 0x0 JUMPDEST DUP6 DUP2 LT ISZERO PUSH3 0x289 JUMPI DUP2 MLOAD PUSH8 0xFFFFFFFFFFFFFFFF DUP2 GT ISZERO PUSH3 0x25E JUMPI PUSH3 0x25D PUSH3 0x605 JUMP JUMPDEST JUMPDEST DUP1 DUP7 ADD PUSH3 0x26D DUP10 DUP3 PUSH3 0x311 JUMP JUMPDEST DUP6 MSTORE PUSH1 0x20 DUP6 ADD SWAP5 POP PUSH1 0x20 DUP5 ADD SWAP4 POP POP POP PUSH1 0x1 DUP2 ADD SWAP1 POP PUSH3 0x237 JUMP JUMPDEST POP POP POP SWAP4 SWAP3 POP POP POP JUMP JUMPDEST PUSH1 0x0 PUSH3 0x2AA PUSH3 0x2A4 DUP5 PUSH3 0x419 JUMP JUMPDEST PUSH3 0x3C1 JUMP JUMPDEST SWAP1 POP DUP3 DUP2 MSTORE PUSH1 0x20 DUP2 ADD DUP5 DUP5 DUP5 ADD GT ISZERO PUSH3 0x2C9 JUMPI PUSH3 0x2C8 PUSH3 0x60F JUMP JUMPDEST JUMPDEST PUSH3 0x2D6 DUP5 DUP3 DUP6 PUSH3 0x459 JUMP JUMPDEST POP SWAP4 SWAP3 POP POP POP JUMP JUMPDEST PUSH1 0x0 DUP3 PUSH1 0x1F DUP4 ADD SLT PUSH3 0x2F6 JUMPI PUSH3 0x2F5 PUSH3 0x605 JUMP JUMPDEST JUMPDEST DUP2 MLOAD PUSH3 0x308 DUP5 DUP3 PUSH1 0x20 DUP7 ADD PUSH3 0x1F7 JUMP JUMPDEST SWAP2 POP POP SWAP3 SWAP2 POP POP JUMP JUMPDEST PUSH1 0x0 DUP3 PUSH1 0x1F DUP4 ADD SLT PUSH3 0x329 JUMPI PUSH3 0x328 PUSH3 0x605 JUMP JUMPDEST JUMPDEST DUP2 MLOAD PUSH3 0x33B DUP5 DUP3 PUSH1 0x20 DUP7 ADD PUSH3 0x293 JUMP JUMPDEST SWAP2 POP POP SWAP3 SWAP2 POP POP JUMP JUMPDEST PUSH1 0x0 DUP2 MLOAD SWAP1 POP PUSH3 0x355 DUP2 PUSH3 0x62F JUMP JUMPDEST SWAP3 SWAP2 POP POP JUMP JUMPDEST PUSH1 0x0 DUP1 PUSH1 0x40 DUP4 DUP6 SUB SLT ISZERO PUSH3 0x375 JUMPI PUSH3 0x374 PUSH3 0x619 JUMP JUMPDEST JUMPDEST PUSH1 0x0 DUP4 ADD MLOAD PUSH8 0xFFFFFFFFFFFFFFFF DUP2 GT ISZERO PUSH3 0x396 JUMPI PUSH3 0x395 PUSH3 0x614 JUMP JUMPDEST JUMPDEST PUSH3 0x3A4 DUP6 DUP3 DUP7 ADD PUSH3 0x2DE JUMP JUMPDEST SWAP3 POP POP PUSH1 0x20 PUSH3 0x3B7 DUP6 DUP3 DUP7 ADD PUSH3 0x344 JUMP JUMPDEST SWAP2 POP POP SWAP3 POP SWAP3 SWAP1 POP JUMP JUMPDEST PUSH1 0x0 PUSH3 0x3CD PUSH3 0x3E0 JUMP JUMPDEST SWAP1 POP PUSH3 0x3DB DUP3 DUP3 PUSH3 0x4C5 JUMP JUMPDEST SWAP2 SWAP1 POP JUMP JUMPDEST PUSH1 0x0 PUSH1 0x40 MLOAD SWAP1 POP SWAP1 JUMP JUMPDEST PUSH1 0x0 PUSH8 0xFFFFFFFFFFFFFFFF DUP3 GT ISZERO PUSH3 0x408 JUMPI PUSH3 0x407 PUSH3 0x5D6 JUMP JUMPDEST JUMPDEST PUSH1 0x20 DUP3 MUL SWAP1 POP PUSH1 0x20 DUP2 ADD SWAP1 POP SWAP2 SWAP1 POP JUMP JUMPDEST PUSH1 0x0 PUSH8 0xFFFFFFFFFFFFFFFF DUP3 GT ISZERO PUSH3 0x437 JUMPI PUSH3 0x436 PUSH3 0x5D6 JUMP JUMPDEST JUMPDEST PUSH3 0x442 DUP3 PUSH3 0x61E JUMP JUMPDEST SWAP1 POP PUSH1 0x20 DUP2 ADD SWAP1 POP SWAP2 SWAP1 POP JUMP JUMPDEST PUSH1 0x0 DUP2 SWAP1 POP SWAP2 SWAP1 POP JUMP JUMPDEST PUSH1 0x0 JUMPDEST DUP4 DUP2 LT ISZERO PUSH3 0x479 JUMPI DUP1 DUP3 ADD MLOAD DUP2 DUP5 ADD MSTORE PUSH1 0x20 DUP2 ADD SWAP1 POP PUSH3 0x45C JUMP JUMPDEST DUP4 DUP2 GT ISZERO PUSH3 0x489 JUMPI PUSH1 0x0 DUP5 DUP5 ADD MSTORE JUMPDEST POP POP POP POP JUMP JUMPDEST PUSH1 0x0 PUSH1 0x2 DUP3 DIV SWAP1 POP PUSH1 0x1 DUP3 AND DUP1 PUSH3 0x4A8 JUMPI PUSH1 0x7F DUP3 AND SWAP2 POP JUMPDEST PUSH1 0x20 DUP3 LT DUP2 EQ ISZERO PUSH3 0x4BF JUMPI PUSH3 0x4BE PUSH3 0x578 JUMP JUMPDEST JUMPDEST POP SWAP2 SWAP1 POP JUMP JUMPDEST PUSH3 0x4D0 DUP3 PUSH3 0x61E JUMP JUMPDEST DUP2 ADD DUP2 DUP2 LT PUSH8 0xFFFFFFFFFFFFFFFF DUP3 GT OR ISZERO PUSH3 0x4F2 JUMPI PUSH3 0x4F1 PUSH3 0x5D6 JUMP JUMPDEST JUMPDEST DUP1 PUSH1 0x40 MSTORE POP POP POP JUMP JUMPDEST PUSH1 0x0 PUSH3 0x508 DUP3 PUSH3 0x44F JUMP JUMPDEST SWAP2 POP PUSH32 0xFFFFFFFFFFFFFFFFFFFFFFFFFFFFFFFFFFFFFFFFFFFFFFFFFFFFFFFFFFFFFFFF DUP3 EQ ISZERO PUSH3 0x53E JUMPI PUSH3 0x53D PUSH3 0x549 JUMP JUMPDEST JUMPDEST PUSH1 0x1 DUP3 ADD SWAP1 POP SWAP2 SWAP1 POP JUMP JUMPDEST PUSH32 0x4E487B7100000000000000000000000000000000000000000000000000000000 PUSH1 0x0 MSTORE PUSH1 0x11 PUSH1 0x4 MSTORE PUSH1 0x24 PUSH1 0x0 REVERT JUMPDEST PUSH32 0x4E487B7100000000000000000000000000000000000000000000000000000000 PUSH1 0x0 MSTORE PUSH1 0x22 PUSH1 0x4 MSTORE PUSH1 0x24 PUSH1 0x0 REVERT JUMPDEST PUSH32 0x4E487B7100000000000000000000000000000000000000000000000000000000 PUSH1 0x0 MSTORE PUSH1 0x32 PUSH1 0x4 MSTORE PUSH1 0x24 PUSH1 0x0 REVERT JUMPDEST PUSH32 0x4E487B7100000000000000000000000000000000000000000000000000000000 PUSH1 0x0 MSTORE PUSH1 0x41 PUSH1 0x4 MSTORE PUSH1 0x24 PUSH1 0x0 REVERT JUMPDEST PUSH1 0x0 DUP1 REVERT JUMPDEST PUSH1 0x0 DUP1 REVERT JUMPDEST PUSH1 0x0 DUP1 REVERT JUMPDEST PUSH1 0x0 DUP1 REVERT JUMPDEST PUSH1 0x0 DUP1 REVERT JUMPDEST PUSH1 0x0 PUSH1 0x1F NOT PUSH1 0x1F DUP4 ADD AND SWAP1 POP SWAP2 SWAP1 POP JUMP JUMPDEST PUSH3 0x63A DUP2 PUSH3 0x44F JUMP JUMPDEST DUP2 EQ PUSH3 0x646 JUMPI PUSH1 0x0 DUP1 REVERT JUMPDEST POP JUMP JUMPDEST PUSH2 0x10EB DUP1 PUSH3 0x659 PUSH1 0x0 CODECOPY PUSH1 0x0 RETURN INVALID PUSH1 0x80 PUSH1 0x40 MSTORE CALLVALUE DUP1 ISZERO PUSH2 0x10 JUMPI PUSH1 0x0 DUP1 REVERT JUMPDEST POP PUSH1 0x4 CALLDATASIZE LT PUSH2 0x4C JUMPI PUSH1 0x0 CALLDATALOAD PUSH1 0xE0 SHR DUP1 PUSH4 0x11D1023 EQ PUSH2 0x51 JUMPI DUP1 PUSH4 0x2BFDA515 EQ PUSH2 0x6F JUMPI DUP1 PUSH4 0x9E7B8D61 EQ PUSH2 0x8E JUMPI DUP1 PUSH4 0xFC36E15B EQ PUSH2 0xAA JUMPI JUMPDEST PUSH1 0x0 DUP1 REVERT JUMPDEST PUSH2 0x59 PUSH2 0xC6 JUMP JUMPDEST PUSH1 0x40 MLOAD PUSH2 0x66 SWAP2 SWAP1 PUSH2 0xB5E JUMP JUMPDEST PUSH1 0x40 MLOAD DUP1 SWAP2 SUB SWAP1 RETURN JUMPDEST PUSH2 0x77 PUSH2 0x217 JUMP JUMPDEST PUSH1 0x40 MLOAD PUSH2 0x85 SWAP3 SWAP2 SWAP1 PUSH2 0xBA2 JUMP JUMPDEST PUSH1 0x40 MLOAD DUP1 SWAP2 SUB SWAP1 RETURN JUMPDEST PUSH2 0xA8 PUSH1 0x4 DUP1 CALLDATASIZE SUB DUP2 ADD SWAP1 PUSH2 0xA3 SWAP2 SWAP1 PUSH2 0x92F JUMP JUMPDEST PUSH2 0x32E JUMP JUMPDEST STOP JUMPDEST PUSH2 0xC4 PUSH1 0x4 DUP1 CALLDATASIZE SUB DUP2 ADD SWAP1 PUSH2 0xBF SWAP2 SWAP1 PUSH2 0x95C JUMP JUMPDEST PUSH2 0x3E5 JUMP JUMPDEST STOP JUMPDEST PUSH1 0x60 PUSH1 0x0 PUSH1 0x2 DUP1 SLOAD SWAP1 POP SWAP1 POP PUSH1 0x0 DUP2 PUSH8 0xFFFFFFFFFFFFFFFF DUP2 GT ISZERO PUSH2 0xEE JUMPI PUSH2 0xED PUSH2 0xEE5 JUMP JUMPDEST JUMPDEST PUSH1 0x40 MLOAD SWAP1 DUP1 DUP3 MSTORE DUP1 PUSH1 0x20 MUL PUSH1 0x20 ADD DUP3 ADD PUSH1 0x40 MSTORE DUP1 ISZERO PUSH2 0x121 JUMPI DUP2 PUSH1 0x20 ADD JUMPDEST PUSH1 0x60 DUP2 MSTORE PUSH1 0x20 ADD SWAP1 PUSH1 0x1 SWAP1 SUB SWAP1 DUP2 PUSH2 0x10C JUMPI SWAP1 POP JUMPDEST POP SWAP1 POP PUSH1 0x0 JUMPDEST DUP3 DUP2 LT ISZERO PUSH2 0x20E JUMPI PUSH1 0x2 DUP2 DUP2 SLOAD DUP2 LT PUSH2 0x143 JUMPI PUSH2 0x142 PUSH2 0xEB6 JUMP JUMPDEST JUMPDEST SWAP1 PUSH1 0x0 MSTORE PUSH1 0x20 PUSH1 0x0 KECCAK256 SWAP1 PUSH1 0x2 MUL ADD PUSH1 0x0 ADD DUP1 SLOAD PUSH2 0x15F SWAP1 PUSH2 0xDAC JUMP JUMPDEST DUP1 PUSH1 0x1F ADD PUSH1 0x20 DUP1 SWAP2 DIV MUL PUSH1 0x20 ADD PUSH1 0x40 MLOAD SWAP1 DUP2 ADD PUSH1 0x40 MSTORE DUP1 SWAP3 SWAP2 SWAP1 DUP2 DUP2 MSTORE PUSH1 0x20 ADD DUP3 DUP1 SLOAD PUSH2 0x18B SWAP1 PUSH2 0xDAC JUMP JUMPDEST DUP1 ISZERO PUSH2 0x1D8 JUMPI DUP1 PUSH1 0x1F LT PUSH2 0x1AD JUMPI PUSH2 0x100 DUP1 DUP4 SLOAD DIV MUL DUP4 MSTORE SWAP2 PUSH1 0x20 ADD SWAP2 PUSH2 0x1D8 JUMP JUMPDEST DUP3 ADD SWAP2 SWAP1 PUSH1 0x0 MSTORE PUSH1 0x20 PUSH1 0x0 KECCAK256 SWAP1 JUMPDEST DUP2 SLOAD DUP2 MSTORE SWAP1 PUSH1 0x1 ADD SWAP1 PUSH1 0x20 ADD DUP1 DUP4 GT PUSH2 0x1BB JUMPI DUP3 SWAP1 SUB PUSH1 0x1F AND DUP3 ADD SWAP2 JUMPDEST POP POP POP POP POP DUP3 DUP3 DUP2 MLOAD DUP2 LT PUSH2 0x1F0 JUMPI PUSH2 0x1EF PUSH2 0xEB6 JUMP JUMPDEST JUMPDEST PUSH1 0x20 MUL PUSH1 0x20 ADD ADD DUP2 SWAP1 MSTORE POP DUP1 DUP1 PUSH2 0x206 SWAP1 PUSH2 0xE0F JUMP JUMPDEST SWAP2 POP POP PUSH2 0x127 JUMP JUMPDEST POP DUP1 SWAP3 POP POP POP SWAP1 JUMP JUMPDEST PUSH1 0x60 PUSH1 0x0 DUP1 PUSH1 0x0 PUSH2 0x226 PUSH2 0x5D7 JUMP JUMPDEST SWAP2 POP SWAP2 POP DUP1 ISZERO PUSH2 0x26B JUMPI PUSH1 0x40 MLOAD PUSH32 0x8C379A000000000000000000000000000000000000000000000000000000000 DUP2 MSTORE PUSH1 0x4 ADD PUSH2 0x262 SWAP1 PUSH2 0xC52 JUMP JUMPDEST PUSH1 0x40 MLOAD DUP1 SWAP2 SUB SWAP1 REVERT JUMPDEST PUSH1 0x2 DUP3 DUP2 SLOAD DUP2 LT PUSH2 0x27F JUMPI PUSH2 0x27E PUSH2 0xEB6 JUMP JUMPDEST JUMPDEST SWAP1 PUSH1 0x0 MSTORE PUSH1 0x20 PUSH1 0x0 KECCAK256 SWAP1 PUSH1 0x2 MUL ADD PUSH1 0x0 ADD DUP1 SLOAD PUSH2 0x29B SWAP1 PUSH2 0xDAC JUMP JUMPDEST DUP1 PUSH1 0x1F ADD PUSH1 0x20 DUP1 SWAP2 DIV MUL PUSH1 0x20 ADD PUSH1 0x40 MLOAD SWAP1 DUP2 ADD PUSH1 0x40 MSTORE DUP1 SWAP3 SWAP2 SWAP1 DUP2 DUP2 MSTORE PUSH1 0x20 ADD DUP3 DUP1 SLOAD PUSH2 0x2C7 SWAP1 PUSH2 0xDAC JUMP JUMPDEST DUP1 ISZERO PUSH2 0x314 JUMPI DUP1 PUSH1 0x1F LT PUSH2 0x2E9 JUMPI PUSH2 0x100 DUP1 DUP4 SLOAD DIV MUL DUP4 MSTORE SWAP2 PUSH1 0x20 ADD SWAP2 PUSH2 0x314 JUMP JUMPDEST DUP3 ADD SWAP2 SWAP1 PUSH1 0x0 MSTORE PUSH1 0x20 PUSH1 0x0 KECCAK256 SWAP1 JUMPDEST DUP2 SLOAD DUP2 MSTORE SWAP1 PUSH1 0x1 ADD SWAP1 PUSH1 0x20 ADD DUP1 DUP4 GT PUSH2 0x2F7 JUMPI DUP3 SWAP1 SUB PUSH1 0x1F AND DUP3 ADD SWAP2 JUMPDEST POP POP POP POP POP SWAP4 POP DUP4 PUSH2 0x324 PUSH2 0x69C JUMP JUMPDEST SWAP4 POP SWAP4 POP POP POP SWAP1 SWAP2 JUMP JUMPDEST DUP1 PUSH2 0x337 PUSH2 0x6A4 JUMP JUMPDEST PUSH2 0x33F PUSH2 0x6EC JUMP JUMPDEST PUSH2 0x37E JUMPI PUSH1 0x40 MLOAD PUSH32 0x8C379A000000000000000000000000000000000000000000000000000000000 DUP2 MSTORE PUSH1 0x4 ADD PUSH2 0x375 SWAP1 PUSH2 0xBF2 JUMP JUMPDEST PUSH1 0x40 MLOAD DUP1 SWAP2 SUB SWAP1 REVERT JUMPDEST PUSH2 0x387 DUP2 PUSH2 0x743 JUMP JUMPDEST PUSH1 0x1 DUP1 PUSH1 0x0 DUP5 PUSH20 0xFFFFFFFFFFFFFFFFFFFFFFFFFFFFFFFFFFFFFFFF AND PUSH20 0xFFFFFFFFFFFFFFFFFFFFFFFFFFFFFFFFFFFFFFFF AND DUP2 MSTORE PUSH1 0x20 ADD SWAP1 DUP2 MSTORE PUSH1 0x20 ADD PUSH1 0x0 KECCAK256 PUSH1 0x0 ADD PUSH1 0x0 PUSH2 0x100 EXP DUP2 SLOAD DUP2 PUSH1 0xFF MUL NOT AND SWAP1 DUP4 ISZERO ISZERO MUL OR SWAP1 SSTORE POP POP POP JUMP JUMPDEST CALLER PUSH2 0x3EE PUSH2 0x6A4 JUMP JUMPDEST PUSH2 0x3F6 PUSH2 0x78F JUMP JUMPDEST PUSH2 0x435 JUMPI PUSH1 0x40 MLOAD PUSH32 0x8C379A000000000000000000000000000000000000000000000000000000000 DUP2 MSTORE PUSH1 0x4 ADD PUSH2 0x42C SWAP1 PUSH2 0xC32 JUMP JUMPDEST PUSH1 0x40 MLOAD DUP1 SWAP2 SUB SWAP1 REVERT JUMPDEST PUSH2 0x43E DUP2 PUSH2 0x743 JUMP JUMPDEST PUSH1 0x0 PUSH1 0x1 PUSH1 0x0 CALLER PUSH20 0xFFFFFFFFFFFFFFFFFFFFFFFFFFFFFFFFFFFFFFFF AND PUSH20 0xFFFFFFFFFFFFFFFFFFFFFFFFFFFFFFFFFFFFFFFF AND DUP2 MSTORE PUSH1 0x20 ADD SWAP1 DUP2 MSTORE PUSH1 0x20 ADD PUSH1 0x0 KECCAK256 SWAP1 POP PUSH1 0x0 JUMPDEST PUSH1 0x2 DUP1 SLOAD SWAP1 POP DUP2 LT ISZERO PUSH2 0x5D1 JUMPI PUSH2 0x548 PUSH1 0x2 DUP3 DUP2 SLOAD DUP2 LT PUSH2 0x4A8 JUMPI PUSH2 0x4A7 PUSH2 0xEB6 JUMP JUMPDEST JUMPDEST SWAP1 PUSH1 0x0 MSTORE PUSH1 0x20 PUSH1 0x0 KECCAK256 SWAP1 PUSH1 0x2 MUL ADD PUSH1 0x0 ADD DUP1 SLOAD PUSH2 0x4C4 SWAP1 PUSH2 0xDAC JUMP JUMPDEST DUP1 PUSH1 0x1F ADD PUSH1 0x20 DUP1 SWAP2 DIV MUL PUSH1 0x20 ADD PUSH1 0x40 MLOAD SWAP1 DUP2 ADD PUSH1 0x40 MSTORE DUP1 SWAP3 SWAP2 SWAP1 DUP2 DUP2 MSTORE PUSH1 0x20 ADD DUP3 DUP1 SLOAD PUSH2 0x4F0 SWAP1 PUSH2 0xDAC JUMP JUMPDEST DUP1 ISZERO PUSH2 0x53D JUMPI DUP1 PUSH1 0x1F LT PUSH2 0x512 JUMPI PUSH2 0x100 DUP1 DUP4 SLOAD DIV MUL DUP4 MSTORE SWAP2 PUSH1 0x20 ADD SWAP2 PUSH2 0x53D JUMP JUMPDEST DUP3 ADD SWAP2 SWAP1 PUSH1 0x0 MSTORE PUSH1 0x20 PUSH1 0x0 KECCAK256 SWAP1 JUMPDEST DUP2 SLOAD DUP2 MSTORE SWAP1 PUSH1 0x1 ADD SWAP1 PUSH1 0x20 ADD DUP1 DUP4 GT PUSH2 0x520 JUMPI DUP3 SWAP1 SUB PUSH1 0x1F AND DUP3 ADD SWAP2 JUMPDEST POP POP POP POP POP DUP6 PUSH2 0x79F JUMP JUMPDEST ISZERO PUSH2 0x5BE JUMPI PUSH1 0x2 DUP2 DUP2 SLOAD DUP2 LT PUSH2 0x561 JUMPI PUSH2 0x560 PUSH2 0xEB6 JUMP JUMPDEST JUMPDEST SWAP1 PUSH1 0x0 MSTORE PUSH1 0x20 PUSH1 0x0 KECCAK256 SWAP1 PUSH1 0x2 MUL ADD PUSH1 0x1 ADD PUSH1 0x0 DUP2 SLOAD DUP1 SWAP3 SWAP2 SWAP1 PUSH2 0x583 SWAP1 PUSH2 0xE0F JUMP JUMPDEST SWAP2 SWAP1 POP SSTORE POP PUSH1 0x1 DUP3 PUSH1 0x0 ADD PUSH1 0x1 PUSH2 0x100 EXP DUP2 SLOAD DUP2 PUSH1 0xFF MUL NOT AND SWAP1 DUP4 ISZERO ISZERO MUL OR SWAP1 SSTORE POP PUSH1 0x3 PUSH1 0x0 DUP2 SLOAD DUP1 SWAP3 SWAP2 SWAP1 PUSH2 0x5B8 SWAP1 PUSH2 0xE0F JUMP JUMPDEST SWAP2 SWAP1 POP SSTORE POP JUMPDEST DUP1 DUP1 PUSH2 0x5C9 SWAP1 PUSH2 0xE0F JUMP JUMPDEST SWAP2 POP POP PUSH2 0x484 JUMP JUMPDEST POP POP POP POP JUMP JUMPDEST PUSH1 0x0 DUP1 PUSH1 0x0 DUP1 PUSH1 0x0 SWAP1 POP JUMPDEST PUSH1 0x2 DUP1 SLOAD SWAP1 POP DUP2 LT ISZERO PUSH2 0x696 JUMPI DUP2 PUSH1 0x2 DUP3 DUP2 SLOAD DUP2 LT PUSH2 0x604 JUMPI PUSH2 0x603 PUSH2 0xEB6 JUMP JUMPDEST JUMPDEST SWAP1 PUSH1 0x0 MSTORE PUSH1 0x20 PUSH1 0x0 KECCAK256 SWAP1 PUSH1 0x2 MUL ADD PUSH1 0x1 ADD SLOAD GT ISZERO PUSH2 0x650 JUMPI PUSH1 0x2 DUP2 DUP2 SLOAD DUP2 LT PUSH2 0x630 JUMPI PUSH2 0x62F PUSH2 0xEB6 JUMP JUMPDEST JUMPDEST SWAP1 PUSH1 0x0 MSTORE PUSH1 0x20 PUSH1 0x0 KECCAK256 SWAP1 PUSH1 0x2 MUL ADD PUSH1 0x1 ADD SLOAD SWAP2 POP DUP1 SWAP4 POP PUSH1 0x0 SWAP3 POP PUSH2 0x683 JUMP JUMPDEST DUP2 PUSH1 0x2 DUP3 DUP2 SLOAD DUP2 LT PUSH2 0x665 JUMPI PUSH2 0x664 PUSH2 0xEB6 JUMP JUMPDEST JUMPDEST SWAP1 PUSH1 0x0 MSTORE PUSH1 0x20 PUSH1 0x0 KECCAK256 SWAP1 PUSH1 0x2 MUL ADD PUSH1 0x1 ADD SLOAD EQ ISZERO PUSH2 0x682 JUMPI PUSH1 0x1 SWAP3 POP JUMPDEST JUMPDEST DUP1 DUP1 PUSH2 0x68E SWAP1 PUSH2 0xE0F JUMP JUMPDEST SWAP2 POP POP PUSH2 0x5E2 JUMP JUMPDEST POP POP SWAP1 SWAP2 JUMP JUMPDEST PUSH1 0x0 ADDRESS SWAP1 POP SWAP1 JUMP JUMPDEST PUSH1 0x4 SLOAD PUSH1 0x3 SLOAD LT PUSH2 0x6EA JUMPI PUSH1 0x40 MLOAD PUSH32 0x8C379A000000000000000000000000000000000000000000000000000000000 DUP2 MSTORE PUSH1 0x4 ADD PUSH2 0x6E1 SWAP1 PUSH2 0xBD2 JUMP JUMPDEST PUSH1 0x40 MLOAD DUP1 SWAP2 SUB SWAP1 REVERT JUMPDEST JUMP JUMPDEST PUSH1 0x0 DUP1 PUSH1 0x0 SWAP1 SLOAD SWAP1 PUSH2 0x100 EXP SWAP1 DIV PUSH20 0xFFFFFFFFFFFFFFFFFFFFFFFFFFFFFFFFFFFFFFFF AND PUSH20 0xFFFFFFFFFFFFFFFFFFFFFFFFFFFFFFFFFFFFFFFF AND CALLER PUSH20 0xFFFFFFFFFFFFFFFFFFFFFFFFFFFFFFFFFFFFFFFF AND EQ SWAP1 POP SWAP1 JUMP JUMPDEST PUSH2 0x74C DUP2 PUSH2 0x7F8 JUMP JUMPDEST ISZERO PUSH2 0x78C JUMPI PUSH1 0x40 MLOAD PUSH32 0x8C379A000000000000000000000000000000000000000000000000000000000 DUP2 MSTORE PUSH1 0x4 ADD PUSH2 0x783 SWAP1 PUSH2 0xC12 JUMP JUMPDEST PUSH1 0x40 MLOAD DUP1 SWAP2 SUB SWAP1 REVERT JUMPDEST POP JUMP JUMPDEST PUSH1 0x0 PUSH2 0x79A CALLER PUSH2 0x851 JUMP JUMPDEST SWAP1 POP SWAP1 JUMP JUMPDEST PUSH1 0x0 DUP2 PUSH1 0x40 MLOAD PUSH1 0x20 ADD PUSH2 0x7B2 SWAP2 SWAP1 PUSH2 0xB80 JUMP JUMPDEST PUSH1 0x40 MLOAD PUSH1 0x20 DUP2 DUP4 SUB SUB DUP2 MSTORE SWAP1 PUSH1 0x40 MSTORE DUP1 MLOAD SWAP1 PUSH1 0x20 ADD KECCAK256 DUP4 PUSH1 0x40 MLOAD PUSH1 0x20 ADD PUSH2 0x7D9 SWAP2 SWAP1 PUSH2 0xB80 JUMP JUMPDEST PUSH1 0x40 MLOAD PUSH1 0x20 DUP2 DUP4 SUB SUB DUP2 MSTORE SWAP1 PUSH1 0x40 MSTORE DUP1 MLOAD SWAP1 PUSH1 0x20 ADD KECCAK256 EQ SWAP1 POP SWAP3 SWAP2 POP POP JUMP JUMPDEST PUSH1 0x0 PUSH1 0x1 PUSH1 0x0 DUP4 PUSH20 0xFFFFFFFFFFFFFFFFFFFFFFFFFFFFFFFFFFFFFFFF AND PUSH20 0xFFFFFFFFFFFFFFFFFFFFFFFFFFFFFFFFFFFFFFFF AND DUP2 MSTORE PUSH1 0x20 ADD SWAP1 DUP2 MSTORE PUSH1 0x20 ADD PUSH1 0x0 KECCAK256 PUSH1 0x0 ADD PUSH1 0x1 SWAP1 SLOAD SWAP1 PUSH2 0x100 EXP SWAP1 DIV PUSH1 0xFF AND SWAP1 POP SWAP2 SWAP1 POP JUMP JUMPDEST PUSH1 0x0 PUSH1 0x1 PUSH1 0x0 DUP4 PUSH20 0xFFFFFFFFFFFFFFFFFFFFFFFFFFFFFFFFFFFFFFFF AND PUSH20 0xFFFFFFFFFFFFFFFFFFFFFFFFFFFFFFFFFFFFFFFF AND DUP2 MSTORE PUSH1 0x20 ADD SWAP1 DUP2 MSTORE PUSH1 0x20 ADD PUSH1 0x0 KECCAK256 PUSH1 0x0 ADD PUSH1 0x0 SWAP1 SLOAD SWAP1 PUSH2 0x100 EXP SWAP1 DIV PUSH1 0xFF AND SWAP1 POP SWAP2 SWAP1 POP JUMP JUMPDEST PUSH1 0x0 PUSH2 0x8BD PUSH2 0x8B8 DUP5 PUSH2 0xC97 JUMP JUMPDEST PUSH2 0xC72 JUMP JUMPDEST SWAP1 POP DUP3 DUP2 MSTORE PUSH1 0x20 DUP2 ADD DUP5 DUP5 DUP5 ADD GT ISZERO PUSH2 0x8D9 JUMPI PUSH2 0x8D8 PUSH2 0xF19 JUMP JUMPDEST JUMPDEST PUSH2 0x8E4 DUP5 DUP3 DUP6 PUSH2 0xD6A JUMP JUMPDEST POP SWAP4 SWAP3 POP POP POP JUMP JUMPDEST PUSH1 0x0 DUP2 CALLDATALOAD SWAP1 POP PUSH2 0x8FB DUP2 PUSH2 0x109E JUMP JUMPDEST SWAP3 SWAP2 POP POP JUMP JUMPDEST PUSH1 0x0 DUP3 PUSH1 0x1F DUP4 ADD SLT PUSH2 0x916 JUMPI PUSH2 0x915 PUSH2 0xF14 JUMP JUMPDEST JUMPDEST DUP2 CALLDATALOAD PUSH2 0x926 DUP5 DUP3 PUSH1 0x20 DUP7 ADD PUSH2 0x8AA JUMP JUMPDEST SWAP2 POP POP SWAP3 SWAP2 POP POP JUMP JUMPDEST PUSH1 0x0 PUSH1 0x20 DUP3 DUP5 SUB SLT ISZERO PUSH2 0x945 JUMPI PUSH2 0x944 PUSH2 0xF23 JUMP JUMPDEST JUMPDEST PUSH1 0x0 PUSH2 0x953 DUP5 DUP3 DUP6 ADD PUSH2 0x8EC JUMP JUMPDEST SWAP2 POP POP SWAP3 SWAP2 POP POP JUMP JUMPDEST PUSH1 0x0 PUSH1 0x20 DUP3 DUP5 SUB SLT ISZERO PUSH2 0x972 JUMPI PUSH2 0x971 PUSH2 0xF23 JUMP JUMPDEST JUMPDEST PUSH1 0x0 DUP3 ADD CALLDATALOAD PUSH8 0xFFFFFFFFFFFFFFFF DUP2 GT ISZERO PUSH2 0x990 JUMPI PUSH2 0x98F PUSH2 0xF1E JUMP JUMPDEST JUMPDEST PUSH2 0x99C DUP5 DUP3 DUP6 ADD PUSH2 0x901 JUMP JUMPDEST SWAP2 POP POP SWAP3 SWAP2 POP POP JUMP JUMPDEST PUSH1 0x0 PUSH2 0x9B1 DUP4 DUP4 PUSH2 0xA3D JUMP JUMPDEST SWAP1 POP SWAP3 SWAP2 POP POP JUMP JUMPDEST PUSH2 0x9C2 DUP2 PUSH2 0xD2E JUMP JUMPDEST DUP3 MSTORE POP POP JUMP JUMPDEST PUSH1 0x0 PUSH2 0x9D3 DUP3 PUSH2 0xCD8 JUMP JUMPDEST PUSH2 0x9DD DUP2 DUP6 PUSH2 0xCFB JUMP JUMPDEST SWAP4 POP DUP4 PUSH1 0x20 DUP3 MUL DUP6 ADD PUSH2 0x9EF DUP6 PUSH2 0xCC8 JUMP JUMPDEST DUP1 PUSH1 0x0 JUMPDEST DUP6 DUP2 LT ISZERO PUSH2 0xA2B JUMPI DUP5 DUP5 SUB DUP10 MSTORE DUP2 MLOAD PUSH2 0xA0C DUP6 DUP3 PUSH2 0x9A5 JUMP JUMPDEST SWAP5 POP PUSH2 0xA17 DUP4 PUSH2 0xCEE JUMP JUMPDEST SWAP3 POP PUSH1 0x20 DUP11 ADD SWAP10 POP POP PUSH1 0x1 DUP2 ADD SWAP1 POP PUSH2 0x9F3 JUMP JUMPDEST POP DUP3 SWAP8 POP DUP8 SWAP6 POP POP POP POP POP POP SWAP3 SWAP2 POP POP JUMP JUMPDEST PUSH1 0x0 PUSH2 0xA48 DUP3 PUSH2 0xCE3 JUMP JUMPDEST PUSH2 0xA52 DUP2 DUP6 PUSH2 0xD0C JUMP JUMPDEST SWAP4 POP PUSH2 0xA62 DUP2 DUP6 PUSH1 0x20 DUP7 ADD PUSH2 0xD79 JUMP JUMPDEST PUSH2 0xA6B DUP2 PUSH2 0xF28 JUMP JUMPDEST DUP5 ADD SWAP2 POP POP SWAP3 SWAP2 POP POP JUMP JUMPDEST PUSH1 0x0 PUSH2 0xA81 DUP3 PUSH2 0xCE3 JUMP JUMPDEST PUSH2 0xA8B DUP2 DUP6 PUSH2 0xD1D JUMP JUMPDEST SWAP4 POP PUSH2 0xA9B DUP2 DUP6 PUSH1 0x20 DUP7 ADD PUSH2 0xD79 JUMP JUMPDEST PUSH2 0xAA4 DUP2 PUSH2 0xF28 JUMP JUMPDEST DUP5 ADD SWAP2 POP POP SWAP3 SWAP2 POP POP JUMP JUMPDEST PUSH1 0x0 PUSH2 0xABC PUSH1 0x2F DUP4 PUSH2 0xD1D JUMP JUMPDEST SWAP2 POP PUSH2 0xAC7 DUP3 PUSH2 0xF39 JUMP JUMPDEST PUSH1 0x40 DUP3 ADD SWAP1 POP SWAP2 SWAP1 POP JUMP JUMPDEST PUSH1 0x0 PUSH2 0xADF PUSH1 0x2F DUP4 PUSH2 0xD1D JUMP JUMPDEST SWAP2 POP PUSH2 0xAEA DUP3 PUSH2 0xF88 JUMP JUMPDEST PUSH1 0x40 DUP3 ADD SWAP1 POP SWAP2 SWAP1 POP JUMP JUMPDEST PUSH1 0x0 PUSH2 0xB02 PUSH1 0x14 DUP4 PUSH2 0xD1D JUMP JUMPDEST SWAP2 POP PUSH2 0xB0D DUP3 PUSH2 0xFD7 JUMP JUMPDEST PUSH1 0x20 DUP3 ADD SWAP1 POP SWAP2 SWAP1 POP JUMP JUMPDEST PUSH1 0x0 PUSH2 0xB25 PUSH1 0x1A DUP4 PUSH2 0xD1D JUMP JUMPDEST SWAP2 POP PUSH2 0xB30 DUP3 PUSH2 0x1000 JUMP JUMPDEST PUSH1 0x20 DUP3 ADD SWAP1 POP SWAP2 SWAP1 POP JUMP JUMPDEST PUSH1 0x0 PUSH2 0xB48 PUSH1 0x4C DUP4 PUSH2 0xD1D JUMP JUMPDEST SWAP2 POP PUSH2 0xB53 DUP3 PUSH2 0x1029 JUMP JUMPDEST PUSH1 0x60 DUP3 ADD SWAP1 POP SWAP2 SWAP1 POP JUMP JUMPDEST PUSH1 0x0 PUSH1 0x20 DUP3 ADD SWAP1 POP DUP2 DUP2 SUB PUSH1 0x0 DUP4 ADD MSTORE PUSH2 0xB78 DUP2 DUP5 PUSH2 0x9C8 JUMP JUMPDEST SWAP1 POP SWAP3 SWAP2 POP POP JUMP JUMPDEST PUSH1 0x0 PUSH1 0x20 DUP3 ADD SWAP1 POP DUP2 DUP2 SUB PUSH1 0x0 DUP4 ADD MSTORE PUSH2 0xB9A DUP2 DUP5 PUSH2 0xA76 JUMP JUMPDEST SWAP1 POP SWAP3 SWAP2 POP POP JUMP JUMPDEST PUSH1 0x0 PUSH1 0x40 DUP3 ADD SWAP1 POP DUP2 DUP2 SUB PUSH1 0x0 DUP4 ADD MSTORE PUSH2 0xBBC DUP2 DUP6 PUSH2 0xA76 JUMP JUMPDEST SWAP1 POP PUSH2 0xBCB PUSH1 0x20 DUP4 ADD DUP5 PUSH2 0x9B9 JUMP JUMPDEST SWAP4 SWAP3 POP POP POP JUMP JUMPDEST PUSH1 0x0 PUSH1 0x20 DUP3 ADD SWAP1 POP DUP2 DUP2 SUB PUSH1 0x0 DUP4 ADD MSTORE PUSH2 0xBEB DUP2 PUSH2 0xAAF JUMP JUMPDEST SWAP1 POP SWAP2 SWAP1 POP JUMP JUMPDEST PUSH1 0x0 PUSH1 0x20 DUP3 ADD SWAP1 POP DUP2 DUP2 SUB PUSH1 0x0 DUP4 ADD MSTORE PUSH2 0xC0B DUP2 PUSH2 0xAD2 JUMP JUMPDEST SWAP1 POP SWAP2 SWAP1 POP JUMP JUMPDEST PUSH1 0x0 PUSH1 0x20 DUP3 ADD SWAP1 POP DUP2 DUP2 SUB PUSH1 0x0 DUP4 ADD MSTORE PUSH2 0xC2B DUP2 PUSH2 0xAF5 JUMP JUMPDEST SWAP1 POP SWAP2 SWAP1 POP JUMP JUMPDEST PUSH1 0x0 PUSH1 0x20 DUP3 ADD SWAP1 POP DUP2 DUP2 SUB PUSH1 0x0 DUP4 ADD MSTORE PUSH2 0xC4B DUP2 PUSH2 0xB18 JUMP JUMPDEST SWAP1 POP SWAP2 SWAP1 POP JUMP JUMPDEST PUSH1 0x0 PUSH1 0x20 DUP3 ADD SWAP1 POP DUP2 DUP2 SUB PUSH1 0x0 DUP4 ADD MSTORE PUSH2 0xC6B DUP2 PUSH2 0xB3B JUMP JUMPDEST SWAP1 POP SWAP2 SWAP1 POP JUMP JUMPDEST PUSH1 0x0 PUSH2 0xC7C PUSH2 0xC8D JUMP JUMPDEST SWAP1 POP PUSH2 0xC88 DUP3 DUP3 PUSH2 0xDDE JUMP JUMPDEST SWAP2 SWAP1 POP JUMP JUMPDEST PUSH1 0x0 PUSH1 0x40 MLOAD SWAP1 POP SWAP1 JUMP JUMPDEST PUSH1 0x0 PUSH8 0xFFFFFFFFFFFFFFFF DUP3 GT ISZERO PUSH2 0xCB2 JUMPI PUSH2 0xCB1 PUSH2 0xEE5 JUMP JUMPDEST JUMPDEST PUSH2 0xCBB DUP3 PUSH2 0xF28 JUMP JUMPDEST SWAP1 POP PUSH1 0x20 DUP2 ADD SWAP1 POP SWAP2 SWAP1 POP JUMP JUMPDEST PUSH1 0x0 DUP2 SWAP1 POP PUSH1 0x20 DUP3 ADD SWAP1 POP SWAP2 SWAP1 POP JUMP JUMPDEST PUSH1 0x0 DUP2 MLOAD SWAP1 POP SWAP2 SWAP1 POP JUMP JUMPDEST PUSH1 0x0 DUP2 MLOAD SWAP1 POP SWAP2 SWAP1 POP JUMP JUMPDEST PUSH1 0x0 PUSH1 0x20 DUP3 ADD SWAP1 POP SWAP2 SWAP1 POP JUMP JUMPDEST PUSH1 0x0 DUP3 DUP3 MSTORE PUSH1 0x20 DUP3 ADD SWAP1 POP SWAP3 SWAP2 POP POP JUMP JUMPDEST PUSH1 0x0 DUP3 DUP3 MSTORE PUSH1 0x20 DUP3 ADD SWAP1 POP SWAP3 SWAP2 POP POP JUMP JUMPDEST PUSH1 0x0 DUP3 DUP3 MSTORE PUSH1 0x20 DUP3 ADD SWAP1 POP SWAP3 SWAP2 POP POP JUMP JUMPDEST PUSH1 0x0 PUSH2 0xD39 DUP3 PUSH2 0xD40 JUMP JUMPDEST SWAP1 POP SWAP2 SWAP1 POP JUMP JUMPDEST PUSH1 0x0 PUSH20 0xFFFFFFFFFFFFFFFFFFFFFFFFFFFFFFFFFFFFFFFF DUP3 AND SWAP1 POP SWAP2 SWAP1 POP JUMP JUMPDEST PUSH1 0x0 DUP2 SWAP1 POP SWAP2 SWAP1 POP JUMP JUMPDEST DUP3 DUP2 DUP4 CALLDATACOPY PUSH1 0x0 DUP4 DUP4 ADD MSTORE POP POP POP JUMP JUMPDEST PUSH1 0x0 JUMPDEST DUP4 DUP2 LT ISZERO PUSH2 0xD97 JUMPI DUP1 DUP3 ADD MLOAD DUP2 DUP5 ADD MSTORE PUSH1 0x20 DUP2 ADD SWAP1 POP PUSH2 0xD7C JUMP JUMPDEST DUP4 DUP2 GT ISZERO PUSH2 0xDA6 JUMPI PUSH1 0x0 DUP5 DUP5 ADD MSTORE JUMPDEST POP POP POP POP JUMP JUMPDEST PUSH1 0x0 PUSH1 0x2 DUP3 DIV SWAP1 POP PUSH1 0x1 DUP3 AND DUP1 PUSH2 0xDC4 JUMPI PUSH1 0x7F DUP3 AND SWAP2 POP JUMPDEST PUSH1 0x20 DUP3 LT DUP2 EQ ISZERO PUSH2 0xDD8 JUMPI PUSH2 0xDD7 PUSH2 0xE87 JUMP JUMPDEST JUMPDEST POP SWAP2 SWAP1 POP JUMP JUMPDEST PUSH2 0xDE7 DUP3 PUSH2 0xF28 JUMP JUMPDEST DUP2 ADD DUP2 DUP2 LT PUSH8 0xFFFFFFFFFFFFFFFF DUP3 GT OR ISZERO PUSH2 0xE06 JUMPI PUSH2 0xE05 PUSH2 0xEE5 JUMP JUMPDEST JUMPDEST DUP1 PUSH1 0x40 MSTORE POP POP POP JUMP JUMPDEST PUSH1 0x0 PUSH2 0xE1A DUP3 PUSH2 0xD60 JUMP JUMPDEST SWAP2 POP PUSH32 0xFFFFFFFFFFFFFFFFFFFFFFFFFFFFFFFFFFFFFFFFFFFFFFFFFFFFFFFFFFFFFFFF DUP3 EQ ISZERO PUSH2 0xE4D JUMPI PUSH2 0xE4C PUSH2 0xE58 JUMP JUMPDEST JUMPDEST PUSH1 0x1 DUP3 ADD SWAP1 POP SWAP2 SWAP1 POP JUMP JUMPDEST PUSH32 0x4E487B7100000000000000000000000000000000000000000000000000000000 PUSH1 0x0 MSTORE PUSH1 0x11 PUSH1 0x4 MSTORE PUSH1 0x24 PUSH1 0x0 REVERT JUMPDEST PUSH32 0x4E487B7100000000000000000000000000000000000000000000000000000000 PUSH1 0x0 MSTORE PUSH1 0x22 PUSH1 0x4 MSTORE PUSH1 0x24 PUSH1 0x0 REVERT JUMPDEST PUSH32 0x4E487B7100000000000000000000000000000000000000000000000000000000 PUSH1 0x0 MSTORE PUSH1 0x32 PUSH1 0x4 MSTORE PUSH1 0x24 PUSH1 0x0 REVERT JUMPDEST PUSH32 0x4E487B7100000000000000000000000000000000000000000000000000000000 PUSH1 0x0 MSTORE PUSH1 0x41 PUSH1 0x4 MSTORE PUSH1 0x24 PUSH1 0x0 REVERT JUMPDEST PUSH1 0x0 DUP1 REVERT JUMPDEST PUSH1 0x0 DUP1 REVERT JUMPDEST PUSH1 0x0 DUP1 REVERT JUMPDEST PUSH1 0x0 DUP1 REVERT JUMPDEST PUSH1 0x0 PUSH1 0x1F NOT PUSH1 0x1F DUP4 ADD AND SWAP1 POP SWAP2 SWAP1 POP JUMP JUMPDEST PUSH32 0x4D6178206163636F756E7420766F74657320697320726561636865642E204261 PUSH1 0x0 DUP3 ADD MSTORE PUSH32 0x6C6C6F7420697320434C4F5345442E0000000000000000000000000000000000 PUSH1 0x20 DUP3 ADD MSTORE POP JUMP JUMPDEST PUSH32 0x4F6E6C792074686520636F6E7472616374206F776E65722063616E2067697665 PUSH1 0x0 DUP3 ADD MSTORE PUSH32 0x20726967687420746F20766F74652E0000000000000000000000000000000000 PUSH1 0x20 DUP3 ADD MSTORE POP JUMP JUMPDEST PUSH32 0x566F74657220616C726561647920766F7465642E000000000000000000000000 PUSH1 0x0 DUP3 ADD MSTORE POP JUMP JUMPDEST PUSH32 0x596F752068617665206E6F7420726967687420746F20766F7465000000000000 PUSH1 0x0 DUP3 ADD MSTORE POP JUMP JUMPDEST PUSH32 0x5468657265206973206120746965206F6E2042616C6C6F742E20596F75207368 PUSH1 0x0 DUP3 ADD MSTORE PUSH32 0x6F756C642073746172742061206E65772062616C6C6F74207769746820746965 PUSH1 0x20 DUP3 ADD MSTORE PUSH32 0x2063616E646964617465732E0000000000000000000000000000000000000000 PUSH1 0x40 DUP3 ADD MSTORE POP JUMP JUMPDEST PUSH2 0x10A7 DUP2 PUSH2 0xD2E JUMP JUMPDEST DUP2 EQ PUSH2 0x10B2 JUMPI PUSH1 0x0 DUP1 REVERT JUMPDEST POP JUMP INVALID LOG2 PUSH5 0x6970667358 0x22 SLT KECCAK256 MLOAD PUSH6 0xE945CC7075E2 0xDD NOT PUSH29 0xC0C9581E66D101FE87EDDF58CF2B30E28A43C7B8EA64736F6C63430008 SMOD STOP CALLER "
				},
				"gasEstimates": {
					"creation": {
						"codeDepositCost": "866200",
						"executionCost": "infinite",
						"totalCost": "infinite"
					},
					"external": {
						"getCandidatesListName()": "infinite",
						"getWinnerName()": "infinite",
						"giveRightToVote(address)": "33671",
						"vote(string)": "infinite"
					},
					"internal": {
						"areYouContractOwner()": "2176",
						"areYouHaveRigthToVote()": "2303",
						"areYouVoted()": "infinite",
						"getContractAddress()": "22",
						"getTotalVotesCounterReachedRequire()": "infinite",
						"getVoterRigthToVote(address)": "2266",
						"getVoterVoted(address)": "2316",
						"getVoterVotedRequire(address)": "infinite",
						"getWinningCandidate()": "infinite",
						"setCandidatesIntoStorage(string memory[] memory)": "infinite",
						"stringEqualTo(string memory,string memory)": "infinite"
					}
				},
				"methodIdentifiers": {
					"getCandidatesListName()": "011d1023",
					"getWinnerName()": "2bfda515",
					"giveRightToVote(address)": "9e7b8d61",
					"vote(string)": "fc36e15b"
				}
			},
			"storageLayout": {
				"storage": [
					{
						"astId": 13,
						"contract": "contracts/Ballot/Ballot.sol:MyBallot",
						"label": "contractOwner",
						"offset": 0,
						"slot": "0",
						"type": "t_address"
					},
					{
						"astId": 18,
						"contract": "contracts/Ballot/Ballot.sol:MyBallot",
						"label": "voters",
						"offset": 0,
						"slot": "1",
						"type": "t_mapping(t_address,t_struct(Voter)6_storage)"
					},
					{
						"astId": 22,
						"contract": "contracts/Ballot/Ballot.sol:MyBallot",
						"label": "candidates",
						"offset": 0,
						"slot": "2",
						"type": "t_array(t_struct(Candidate)11_storage)dyn_storage"
					},
					{
						"astId": 24,
						"contract": "contracts/Ballot/Ballot.sol:MyBallot",
						"label": "totalVotesCounter",
						"offset": 0,
						"slot": "3",
						"type": "t_uint256"
					},
					{
						"astId": 26,
						"contract": "contracts/Ballot/Ballot.sol:MyBallot",
						"label": "maxVotes",
						"offset": 0,
						"slot": "4",
						"type": "t_uint256"
					}
				],
				"types": {
					"t_address": {
						"encoding": "inplace",
						"label": "address",
						"numberOfBytes": "20"
					},
					"t_array(t_struct(Candidate)11_storage)dyn_storage": {
						"base": "t_struct(Candidate)11_storage",
						"encoding": "dynamic_array",
						"label": "struct MyBallot.Candidate[]",
						"numberOfBytes": "32"
					},
					"t_bool": {
						"encoding": "inplace",
						"label": "bool",
						"numberOfBytes": "1"
					},
					"t_mapping(t_address,t_struct(Voter)6_storage)": {
						"encoding": "mapping",
						"key": "t_address",
						"label": "mapping(address => struct MyBallot.Voter)",
						"numberOfBytes": "32",
						"value": "t_struct(Voter)6_storage"
					},
					"t_string_storage": {
						"encoding": "bytes",
						"label": "string",
						"numberOfBytes": "32"
					},
					"t_struct(Candidate)11_storage": {
						"encoding": "inplace",
						"label": "struct MyBallot.Candidate",
						"members": [
							{
								"astId": 8,
								"contract": "contracts/Ballot/Ballot.sol:MyBallot",
								"label": "nameProject",
								"offset": 0,
								"slot": "0",
								"type": "t_string_storage"
							},
							{
								"astId": 10,
								"contract": "contracts/Ballot/Ballot.sol:MyBallot",
								"label": "votesCount",
								"offset": 0,
								"slot": "1",
								"type": "t_uint256"
							}
						],
						"numberOfBytes": "64"
					},
					"t_struct(Voter)6_storage": {
						"encoding": "inplace",
						"label": "struct MyBallot.Voter",
						"members": [
							{
								"astId": 3,
								"contract": "contracts/Ballot/Ballot.sol:MyBallot",
								"label": "canVote",
								"offset": 0,
								"slot": "0",
								"type": "t_bool"
							},
							{
								"astId": 5,
								"contract": "contracts/Ballot/Ballot.sol:MyBallot",
								"label": "hasVoted",
								"offset": 1,
								"slot": "0",
								"type": "t_bool"
							}
						],
						"numberOfBytes": "32"
					},
					"t_uint256": {
						"encoding": "inplace",
						"label": "uint256",
						"numberOfBytes": "32"
					}
				}
			},
			"userdoc": {
				"kind": "user",
				"methods": {},
				"version": 1
			}
		}
	}
}