{
	"contracts/Ballot/Ballot.sol": {
		"MyBallot": {
			"abi": [
				{
					"inputs": [
						{
							"internalType": "string[]",
							"name": "_candidates",
							"type": "string[]"
						},
						{
							"internalType": "uint256",
							"name": "_maxVotes",
							"type": "uint256"
						}
					],
					"stateMutability": "nonpayable",
					"type": "constructor"
				},
				{
					"inputs": [
						{
							"internalType": "uint256",
							"name": "",
							"type": "uint256"
						}
					],
					"name": "candidates",
					"outputs": [
						{
							"internalType": "string",
							"name": "nameProject",
							"type": "string"
						},
						{
							"internalType": "uint256",
							"name": "votesCount",
							"type": "uint256"
						}
					],
					"stateMutability": "view",
					"type": "function"
				},
				{
					"inputs": [],
					"name": "contractOwner",
					"outputs": [
						{
							"internalType": "address",
							"name": "",
							"type": "address"
						}
					],
					"stateMutability": "view",
					"type": "function"
				},
				{
					"inputs": [],
					"name": "getCandidatesListName",
					"outputs": [
						{
							"internalType": "string[]",
							"name": "",
							"type": "string[]"
						}
					],
					"stateMutability": "view",
					"type": "function"
				},
				{
					"inputs": [],
					"name": "getWinnerName",
					"outputs": [
						{
							"internalType": "string",
							"name": "winnerName",
							"type": "string"
						},
						{
							"internalType": "address",
							"name": "",
							"type": "address"
						}
					],
					"stateMutability": "view",
					"type": "function"
				},
				{
					"inputs": [
						{
							"internalType": "address",
							"name": "voterAddress",
							"type": "address"
						}
					],
					"name": "giveRightToVote",
					"outputs": [],
					"stateMutability": "nonpayable",
					"type": "function"
				},
				{
					"inputs": [
						{
							"internalType": "string",
							"name": "_nameProject",
							"type": "string"
						}
					],
					"name": "vote",
					"outputs": [],
					"stateMutability": "nonpayable",
					"type": "function"
				},
				{
					"inputs": [
						{
							"internalType": "address",
							"name": "",
							"type": "address"
						}
					],
					"name": "voters",
					"outputs": [
						{
							"internalType": "bool",
							"name": "canVote",
							"type": "bool"
						},
						{
							"internalType": "bool",
							"name": "hasVoted",
							"type": "bool"
						}
					],
					"stateMutability": "view",
					"type": "function"
				}
			],
			"devdoc": {
				"kind": "dev",
				"methods": {},
				"version": 1
			},
			"evm": {
				"assembly": "    /* \"contracts/Ballot/Ballot.sol\":70:5716  contract MyBallot {\r... */\n  mstore(0x40, 0x80)\n    /* \"contracts/Ballot/Ballot.sol\":505:694  constructor(string[] memory _candidates, uint _maxVotes) {\r... */\n  callvalue\n  dup1\n  iszero\n  tag_1\n  jumpi\n  0x00\n  dup1\n  revert\ntag_1:\n  pop\n  mload(0x40)\n  sub(codesize, bytecodeSize)\n  dup1\n  bytecodeSize\n  dup4\n  codecopy\n  dup2\n  dup2\n  add\n  0x40\n  mstore\n  dup2\n  add\n  swap1\n  tag_2\n  swap2\n  swap1\n  tag_3\n  jump\t// in\ntag_2:\n    /* \"contracts/Ballot/Ballot.sol\":589:599  msg.sender */\n  caller\n    /* \"contracts/Ballot/Ballot.sol\":573:586  contractOwner */\n  0x00\n  dup1\n    /* \"contracts/Ballot/Ballot.sol\":573:599  contractOwner = msg.sender */\n  0x0100\n  exp\n  dup2\n  sload\n  dup2\n  0xffffffffffffffffffffffffffffffffffffffff\n  mul\n  not\n  and\n  swap1\n  dup4\n  0xffffffffffffffffffffffffffffffffffffffff\n  and\n  mul\n  or\n  swap1\n  sstore\n  pop\n    /* \"contracts/Ballot/Ballot.sol\":610:647  setCandidatesIntoStorage(_candidates) */\n  tag_6\n    /* \"contracts/Ballot/Ballot.sol\":635:646  _candidates */\n  dup3\n    /* \"contracts/Ballot/Ballot.sol\":610:634  setCandidatesIntoStorage */\n  shl(0x20, tag_7)\n    /* \"contracts/Ballot/Ballot.sol\":610:647  setCandidatesIntoStorage(_candidates) */\n  0x20\n  shr\n  jump\t// in\ntag_6:\n    /* \"contracts/Ballot/Ballot.sol\":677:686  _maxVotes */\n  dup1\n    /* \"contracts/Ballot/Ballot.sol\":666:674  maxVotes */\n  0x04\n    /* \"contracts/Ballot/Ballot.sol\":666:686  maxVotes = _maxVotes */\n  dup2\n  swap1\n  sstore\n  pop\n    /* \"contracts/Ballot/Ballot.sol\":505:694  constructor(string[] memory _candidates, uint _maxVotes) {\r... */\n  pop\n  pop\n    /* \"contracts/Ballot/Ballot.sol\":70:5716  contract MyBallot {\r... */\n  jump(tag_8)\n    /* \"contracts/Ballot/Ballot.sol\":1962:2261  function setCandidatesIntoStorage(string[] memory _candidates) private {\r... */\ntag_7:\n    /* \"contracts/Ballot/Ballot.sol\":2049:2059  uint index */\n  0x00\n    /* \"contracts/Ballot/Ballot.sol\":2044:2254  for (uint index = 0; index < _candidates.length; index++) {\r... */\ntag_10:\n    /* \"contracts/Ballot/Ballot.sol\":2073:2084  _candidates */\n  dup2\n    /* \"contracts/Ballot/Ballot.sol\":2073:2091  _candidates.length */\n  mload\n    /* \"contracts/Ballot/Ballot.sol\":2065:2070  index */\n  dup2\n    /* \"contracts/Ballot/Ballot.sol\":2065:2091  index < _candidates.length */\n  lt\n    /* \"contracts/Ballot/Ballot.sol\":2044:2254  for (uint index = 0; index < _candidates.length; index++) {\r... */\n  iszero\n  tag_11\n  jumpi\n    /* \"contracts/Ballot/Ballot.sol\":2117:2127  candidates */\n  0x02\n    /* \"contracts/Ballot/Ballot.sol\":2133:2241  Candidate({\r... */\n  mload(0x40)\n  dup1\n  0x40\n  add\n  0x40\n  mstore\n  dup1\n    /* \"contracts/Ballot/Ballot.sol\":2175:2186  _candidates */\n  dup5\n    /* \"contracts/Ballot/Ballot.sol\":2187:2192  index */\n  dup5\n    /* \"contracts/Ballot/Ballot.sol\":2175:2193  _candidates[index] */\n  dup2\n  mload\n  dup2\n  lt\n  tag_13\n  jumpi\n  tag_14\n  tag_15\n  jump\t// in\ntag_14:\ntag_13:\n  0x20\n  mul\n  0x20\n  add\n  add\n  mload\n    /* \"contracts/Ballot/Ballot.sol\":2133:2241  Candidate({\r... */\n  dup2\n  mstore\n  0x20\n  add\n    /* \"contracts/Ballot/Ballot.sol\":2224:2225  0 */\n  0x00\n    /* \"contracts/Ballot/Ballot.sol\":2133:2241  Candidate({\r... */\n  dup2\n  mstore\n  pop\n    /* \"contracts/Ballot/Ballot.sol\":2117:2242  candidates.push(Candidate({\r... */\n  swap1\n  dup1\n  0x01\n  dup2\n  sload\n  add\n  dup1\n  dup3\n  sstore\n  dup1\n  swap2\n  pop\n  pop\n  0x01\n  swap1\n  sub\n  swap1\n  0x00\n  mstore\n  keccak256(0x00, 0x20)\n  swap1\n  0x02\n  mul\n  add\n  0x00\n  swap1\n  swap2\n  swap1\n  swap2\n  swap1\n  swap2\n  pop\n  0x00\n  dup3\n  add\n  mload\n  dup2\n  0x00\n  add\n  swap1\n  dup1\n  mload\n  swap1\n  0x20\n  add\n  swap1\n  tag_17\n  swap3\n  swap2\n  swap1\n  tag_18\n  jump\t// in\ntag_17:\n  pop\n  0x20\n  dup3\n  add\n  mload\n  dup2\n  0x01\n  add\n  sstore\n  pop\n  pop\n    /* \"contracts/Ballot/Ballot.sol\":2093:2100  index++ */\n  dup1\n  dup1\n  tag_19\n  swap1\n  tag_20\n  jump\t// in\ntag_19:\n  swap2\n  pop\n  pop\n    /* \"contracts/Ballot/Ballot.sol\":2044:2254  for (uint index = 0; index < _candidates.length; index++) {\r... */\n  jump(tag_10)\ntag_11:\n  pop\n    /* \"contracts/Ballot/Ballot.sol\":1962:2261  function setCandidatesIntoStorage(string[] memory _candidates) private {\r... */\n  pop\n  jump\t// out\n    /* \"contracts/Ballot/Ballot.sol\":70:5716  contract MyBallot {\r... */\ntag_18:\n  dup3\n  dup1\n  sload\n  tag_21\n  swap1\n  tag_22\n  jump\t// in\ntag_21:\n  swap1\n  0x00\n  mstore\n  keccak256(0x00, 0x20)\n  swap1\n  0x1f\n  add\n  0x20\n  swap1\n  div\n  dup2\n  add\n  swap3\n  dup3\n  tag_24\n  jumpi\n  0x00\n  dup6\n  sstore\n  jump(tag_23)\ntag_24:\n  dup3\n  0x1f\n  lt\n  tag_25\n  jumpi\n  dup1\n  mload\n  not(0xff)\n  and\n  dup4\n  dup1\n  add\n  or\n  dup6\n  sstore\n  jump(tag_23)\ntag_25:\n  dup3\n  dup1\n  add\n  0x01\n  add\n  dup6\n  sstore\n  dup3\n  iszero\n  tag_23\n  jumpi\n  swap2\n  dup3\n  add\ntag_26:\n  dup3\n  dup2\n  gt\n  iszero\n  tag_27\n  jumpi\n  dup3\n  mload\n  dup3\n  sstore\n  swap2\n  0x20\n  add\n  swap2\n  swap1\n  0x01\n  add\n  swap1\n  jump(tag_26)\ntag_27:\ntag_23:\n  pop\n  swap1\n  pop\n  tag_28\n  swap2\n  swap1\n  tag_29\n  jump\t// in\ntag_28:\n  pop\n  swap1\n  jump\t// out\ntag_29:\ntag_30:\n  dup1\n  dup3\n  gt\n  iszero\n  tag_31\n  jumpi\n  0x00\n  dup2\n  0x00\n  swap1\n  sstore\n  pop\n  0x01\n  add\n  jump(tag_30)\ntag_31:\n  pop\n  swap1\n  jump\t// out\n    /* \"#utility.yul\":23:995   */\ntag_33:\n    /* \"#utility.yul\":140:145   */\n  0x00\n    /* \"#utility.yul\":165:256   */\n  tag_35\n    /* \"#utility.yul\":181:255   */\n  tag_36\n    /* \"#utility.yul\":248:254   */\n  dup5\n    /* \"#utility.yul\":181:255   */\n  tag_37\n  jump\t// in\ntag_36:\n    /* \"#utility.yul\":165:256   */\n  tag_38\n  jump\t// in\ntag_35:\n    /* \"#utility.yul\":156:256   */\n  swap1\n  pop\n    /* \"#utility.yul\":276:281   */\n  dup1\n    /* \"#utility.yul\":305:311   */\n  dup4\n    /* \"#utility.yul\":298:303   */\n  dup3\n    /* \"#utility.yul\":291:312   */\n  mstore\n    /* \"#utility.yul\":339:343   */\n  0x20\n    /* \"#utility.yul\":332:337   */\n  dup3\n    /* \"#utility.yul\":328:344   */\n  add\n    /* \"#utility.yul\":321:344   */\n  swap1\n  pop\n    /* \"#utility.yul\":365:371   */\n  dup3\n    /* \"#utility.yul\":415:418   */\n  dup6\n    /* \"#utility.yul\":407:411   */\n  0x20\n    /* \"#utility.yul\":399:405   */\n  dup7\n    /* \"#utility.yul\":395:412   */\n  mul\n    /* \"#utility.yul\":390:393   */\n  dup3\n    /* \"#utility.yul\":386:413   */\n  add\n    /* \"#utility.yul\":383:419   */\n  gt\n    /* \"#utility.yul\":380:523   */\n  iszero\n  tag_39\n  jumpi\n    /* \"#utility.yul\":434:513   */\n  tag_40\n  tag_41\n  jump\t// in\ntag_40:\n    /* \"#utility.yul\":380:523   */\ntag_39:\n    /* \"#utility.yul\":547:548   */\n  0x00\n    /* \"#utility.yul\":532:989   */\ntag_42:\n    /* \"#utility.yul\":557:563   */\n  dup6\n    /* \"#utility.yul\":554:555   */\n  dup2\n    /* \"#utility.yul\":551:564   */\n  lt\n    /* \"#utility.yul\":532:989   */\n  iszero\n  tag_44\n  jumpi\n    /* \"#utility.yul\":632:635   */\n  dup2\n    /* \"#utility.yul\":626:636   */\n  mload\n    /* \"#utility.yul\":668:686   */\n  0xffffffffffffffff\n    /* \"#utility.yul\":655:666   */\n  dup2\n    /* \"#utility.yul\":652:687   */\n  gt\n    /* \"#utility.yul\":649:771   */\n  iszero\n  tag_45\n  jumpi\n    /* \"#utility.yul\":690:769   */\n  tag_46\n  tag_47\n  jump\t// in\ntag_46:\n    /* \"#utility.yul\":649:771   */\ntag_45:\n    /* \"#utility.yul\":814:825   */\n  dup1\n    /* \"#utility.yul\":806:812   */\n  dup7\n    /* \"#utility.yul\":802:826   */\n  add\n    /* \"#utility.yul\":852:910   */\n  tag_48\n    /* \"#utility.yul\":906:909   */\n  dup10\n    /* \"#utility.yul\":894:904   */\n  dup3\n    /* \"#utility.yul\":852:910   */\n  tag_49\n  jump\t// in\ntag_48:\n    /* \"#utility.yul\":847:850   */\n  dup6\n    /* \"#utility.yul\":840:911   */\n  mstore\n    /* \"#utility.yul\":940:944   */\n  0x20\n    /* \"#utility.yul\":935:938   */\n  dup6\n    /* \"#utility.yul\":931:945   */\n  add\n    /* \"#utility.yul\":924:945   */\n  swap5\n  pop\n    /* \"#utility.yul\":974:978   */\n  0x20\n    /* \"#utility.yul\":969:972   */\n  dup5\n    /* \"#utility.yul\":965:979   */\n  add\n    /* \"#utility.yul\":958:979   */\n  swap4\n  pop\n    /* \"#utility.yul\":592:989   */\n  pop\n  pop\n    /* \"#utility.yul\":579:580   */\n  0x01\n    /* \"#utility.yul\":576:577   */\n  dup2\n    /* \"#utility.yul\":572:581   */\n  add\n    /* \"#utility.yul\":567:581   */\n  swap1\n  pop\n    /* \"#utility.yul\":532:989   */\n  jump(tag_42)\ntag_44:\n    /* \"#utility.yul\":536:550   */\n  pop\n    /* \"#utility.yul\":146:995   */\n  pop\n  pop\n    /* \"#utility.yul\":23:995   */\n  swap4\n  swap3\n  pop\n  pop\n  pop\n  jump\t// out\n    /* \"#utility.yul\":1001:1422   */\ntag_50:\n    /* \"#utility.yul\":1090:1095   */\n  0x00\n    /* \"#utility.yul\":1115:1181   */\n  tag_52\n    /* \"#utility.yul\":1131:1180   */\n  tag_53\n    /* \"#utility.yul\":1173:1179   */\n  dup5\n    /* \"#utility.yul\":1131:1180   */\n  tag_54\n  jump\t// in\ntag_53:\n    /* \"#utility.yul\":1115:1181   */\n  tag_38\n  jump\t// in\ntag_52:\n    /* \"#utility.yul\":1106:1181   */\n  swap1\n  pop\n    /* \"#utility.yul\":1204:1210   */\n  dup3\n    /* \"#utility.yul\":1197:1202   */\n  dup2\n    /* \"#utility.yul\":1190:1211   */\n  mstore\n    /* \"#utility.yul\":1242:1246   */\n  0x20\n    /* \"#utility.yul\":1235:1240   */\n  dup2\n    /* \"#utility.yul\":1231:1247   */\n  add\n    /* \"#utility.yul\":1280:1283   */\n  dup5\n    /* \"#utility.yul\":1271:1277   */\n  dup5\n    /* \"#utility.yul\":1266:1269   */\n  dup5\n    /* \"#utility.yul\":1262:1278   */\n  add\n    /* \"#utility.yul\":1259:1284   */\n  gt\n    /* \"#utility.yul\":1256:1368   */\n  iszero\n  tag_55\n  jumpi\n    /* \"#utility.yul\":1287:1366   */\n  tag_56\n  tag_57\n  jump\t// in\ntag_56:\n    /* \"#utility.yul\":1256:1368   */\ntag_55:\n    /* \"#utility.yul\":1377:1416   */\n  tag_58\n    /* \"#utility.yul\":1409:1415   */\n  dup5\n    /* \"#utility.yul\":1404:1407   */\n  dup3\n    /* \"#utility.yul\":1399:1402   */\n  dup6\n    /* \"#utility.yul\":1377:1416   */\n  tag_59\n  jump\t// in\ntag_58:\n    /* \"#utility.yul\":1096:1422   */\n  pop\n    /* \"#utility.yul\":1001:1422   */\n  swap4\n  swap3\n  pop\n  pop\n  pop\n  jump\t// out\n    /* \"#utility.yul\":1444:1849   */\ntag_60:\n    /* \"#utility.yul\":1536:1541   */\n  0x00\n    /* \"#utility.yul\":1585:1588   */\n  dup3\n    /* \"#utility.yul\":1578:1582   */\n  0x1f\n    /* \"#utility.yul\":1570:1576   */\n  dup4\n    /* \"#utility.yul\":1566:1583   */\n  add\n    /* \"#utility.yul\":1562:1589   */\n  slt\n    /* \"#utility.yul\":1552:1674   */\n  tag_62\n  jumpi\n    /* \"#utility.yul\":1593:1672   */\n  tag_63\n  tag_47\n  jump\t// in\ntag_63:\n    /* \"#utility.yul\":1552:1674   */\ntag_62:\n    /* \"#utility.yul\":1703:1709   */\n  dup2\n    /* \"#utility.yul\":1697:1710   */\n  mload\n    /* \"#utility.yul\":1728:1843   */\n  tag_64\n    /* \"#utility.yul\":1839:1842   */\n  dup5\n    /* \"#utility.yul\":1831:1837   */\n  dup3\n    /* \"#utility.yul\":1824:1828   */\n  0x20\n    /* \"#utility.yul\":1816:1822   */\n  dup7\n    /* \"#utility.yul\":1812:1829   */\n  add\n    /* \"#utility.yul\":1728:1843   */\n  tag_33\n  jump\t// in\ntag_64:\n    /* \"#utility.yul\":1719:1843   */\n  swap2\n  pop\n    /* \"#utility.yul\":1542:1849   */\n  pop\n    /* \"#utility.yul\":1444:1849   */\n  swap3\n  swap2\n  pop\n  pop\n  jump\t// out\n    /* \"#utility.yul\":1869:2224   */\ntag_49:\n    /* \"#utility.yul\":1936:1941   */\n  0x00\n    /* \"#utility.yul\":1985:1988   */\n  dup3\n    /* \"#utility.yul\":1978:1982   */\n  0x1f\n    /* \"#utility.yul\":1970:1976   */\n  dup4\n    /* \"#utility.yul\":1966:1983   */\n  add\n    /* \"#utility.yul\":1962:1989   */\n  slt\n    /* \"#utility.yul\":1952:2074   */\n  tag_66\n  jumpi\n    /* \"#utility.yul\":1993:2072   */\n  tag_67\n  tag_47\n  jump\t// in\ntag_67:\n    /* \"#utility.yul\":1952:2074   */\ntag_66:\n    /* \"#utility.yul\":2103:2109   */\n  dup2\n    /* \"#utility.yul\":2097:2110   */\n  mload\n    /* \"#utility.yul\":2128:2218   */\n  tag_68\n    /* \"#utility.yul\":2214:2217   */\n  dup5\n    /* \"#utility.yul\":2206:2212   */\n  dup3\n    /* \"#utility.yul\":2199:2203   */\n  0x20\n    /* \"#utility.yul\":2191:2197   */\n  dup7\n    /* \"#utility.yul\":2187:2204   */\n  add\n    /* \"#utility.yul\":2128:2218   */\n  tag_50\n  jump\t// in\ntag_68:\n    /* \"#utility.yul\":2119:2218   */\n  swap2\n  pop\n    /* \"#utility.yul\":1942:2224   */\n  pop\n    /* \"#utility.yul\":1869:2224   */\n  swap3\n  swap2\n  pop\n  pop\n  jump\t// out\n    /* \"#utility.yul\":2230:2373   */\ntag_69:\n    /* \"#utility.yul\":2287:2292   */\n  0x00\n    /* \"#utility.yul\":2318:2324   */\n  dup2\n    /* \"#utility.yul\":2312:2325   */\n  mload\n    /* \"#utility.yul\":2303:2325   */\n  swap1\n  pop\n    /* \"#utility.yul\":2334:2367   */\n  tag_71\n    /* \"#utility.yul\":2361:2366   */\n  dup2\n    /* \"#utility.yul\":2334:2367   */\n  tag_72\n  jump\t// in\ntag_71:\n    /* \"#utility.yul\":2230:2373   */\n  swap3\n  swap2\n  pop\n  pop\n  jump\t// out\n    /* \"#utility.yul\":2379:3109   */\ntag_3:\n    /* \"#utility.yul\":2493:2499   */\n  0x00\n    /* \"#utility.yul\":2501:2507   */\n  dup1\n    /* \"#utility.yul\":2550:2552   */\n  0x40\n    /* \"#utility.yul\":2538:2547   */\n  dup4\n    /* \"#utility.yul\":2529:2536   */\n  dup6\n    /* \"#utility.yul\":2525:2548   */\n  sub\n    /* \"#utility.yul\":2521:2553   */\n  slt\n    /* \"#utility.yul\":2518:2637   */\n  iszero\n  tag_74\n  jumpi\n    /* \"#utility.yul\":2556:2635   */\n  tag_75\n  tag_76\n  jump\t// in\ntag_75:\n    /* \"#utility.yul\":2518:2637   */\ntag_74:\n    /* \"#utility.yul\":2697:2698   */\n  0x00\n    /* \"#utility.yul\":2686:2695   */\n  dup4\n    /* \"#utility.yul\":2682:2699   */\n  add\n    /* \"#utility.yul\":2676:2700   */\n  mload\n    /* \"#utility.yul\":2727:2745   */\n  0xffffffffffffffff\n    /* \"#utility.yul\":2719:2725   */\n  dup2\n    /* \"#utility.yul\":2716:2746   */\n  gt\n    /* \"#utility.yul\":2713:2830   */\n  iszero\n  tag_77\n  jumpi\n    /* \"#utility.yul\":2749:2828   */\n  tag_78\n  tag_79\n  jump\t// in\ntag_78:\n    /* \"#utility.yul\":2713:2830   */\ntag_77:\n    /* \"#utility.yul\":2854:2953   */\n  tag_80\n    /* \"#utility.yul\":2945:2952   */\n  dup6\n    /* \"#utility.yul\":2936:2942   */\n  dup3\n    /* \"#utility.yul\":2925:2934   */\n  dup7\n    /* \"#utility.yul\":2921:2943   */\n  add\n    /* \"#utility.yul\":2854:2953   */\n  tag_60\n  jump\t// in\ntag_80:\n    /* \"#utility.yul\":2844:2953   */\n  swap3\n  pop\n    /* \"#utility.yul\":2647:2963   */\n  pop\n    /* \"#utility.yul\":3002:3004   */\n  0x20\n    /* \"#utility.yul\":3028:3092   */\n  tag_81\n    /* \"#utility.yul\":3084:3091   */\n  dup6\n    /* \"#utility.yul\":3075:3081   */\n  dup3\n    /* \"#utility.yul\":3064:3073   */\n  dup7\n    /* \"#utility.yul\":3060:3082   */\n  add\n    /* \"#utility.yul\":3028:3092   */\n  tag_69\n  jump\t// in\ntag_81:\n    /* \"#utility.yul\":3018:3092   */\n  swap2\n  pop\n    /* \"#utility.yul\":2973:3102   */\n  pop\n    /* \"#utility.yul\":2379:3109   */\n  swap3\n  pop\n  swap3\n  swap1\n  pop\n  jump\t// out\n    /* \"#utility.yul\":3115:3244   */\ntag_38:\n    /* \"#utility.yul\":3149:3155   */\n  0x00\n    /* \"#utility.yul\":3176:3196   */\n  tag_83\n  tag_84\n  jump\t// in\ntag_83:\n    /* \"#utility.yul\":3166:3196   */\n  swap1\n  pop\n    /* \"#utility.yul\":3205:3238   */\n  tag_85\n    /* \"#utility.yul\":3233:3237   */\n  dup3\n    /* \"#utility.yul\":3225:3231   */\n  dup3\n    /* \"#utility.yul\":3205:3238   */\n  tag_86\n  jump\t// in\ntag_85:\n    /* \"#utility.yul\":3115:3244   */\n  swap2\n  swap1\n  pop\n  jump\t// out\n    /* \"#utility.yul\":3250:3325   */\ntag_84:\n    /* \"#utility.yul\":3283:3289   */\n  0x00\n    /* \"#utility.yul\":3316:3318   */\n  0x40\n    /* \"#utility.yul\":3310:3319   */\n  mload\n    /* \"#utility.yul\":3300:3319   */\n  swap1\n  pop\n    /* \"#utility.yul\":3250:3325   */\n  swap1\n  jump\t// out\n    /* \"#utility.yul\":3331:3652   */\ntag_37:\n    /* \"#utility.yul\":3418:3422   */\n  0x00\n    /* \"#utility.yul\":3508:3526   */\n  0xffffffffffffffff\n    /* \"#utility.yul\":3500:3506   */\n  dup3\n    /* \"#utility.yul\":3497:3527   */\n  gt\n    /* \"#utility.yul\":3494:3550   */\n  iszero\n  tag_89\n  jumpi\n    /* \"#utility.yul\":3530:3548   */\n  tag_90\n  tag_91\n  jump\t// in\ntag_90:\n    /* \"#utility.yul\":3494:3550   */\ntag_89:\n    /* \"#utility.yul\":3580:3584   */\n  0x20\n    /* \"#utility.yul\":3572:3578   */\n  dup3\n    /* \"#utility.yul\":3568:3585   */\n  mul\n    /* \"#utility.yul\":3560:3585   */\n  swap1\n  pop\n    /* \"#utility.yul\":3640:3644   */\n  0x20\n    /* \"#utility.yul\":3634:3638   */\n  dup2\n    /* \"#utility.yul\":3630:3645   */\n  add\n    /* \"#utility.yul\":3622:3645   */\n  swap1\n  pop\n    /* \"#utility.yul\":3331:3652   */\n  swap2\n  swap1\n  pop\n  jump\t// out\n    /* \"#utility.yul\":3658:3966   */\ntag_54:\n    /* \"#utility.yul\":3720:3724   */\n  0x00\n    /* \"#utility.yul\":3810:3828   */\n  0xffffffffffffffff\n    /* \"#utility.yul\":3802:3808   */\n  dup3\n    /* \"#utility.yul\":3799:3829   */\n  gt\n    /* \"#utility.yul\":3796:3852   */\n  iszero\n  tag_93\n  jumpi\n    /* \"#utility.yul\":3832:3850   */\n  tag_94\n  tag_91\n  jump\t// in\ntag_94:\n    /* \"#utility.yul\":3796:3852   */\ntag_93:\n    /* \"#utility.yul\":3870:3899   */\n  tag_95\n    /* \"#utility.yul\":3892:3898   */\n  dup3\n    /* \"#utility.yul\":3870:3899   */\n  tag_96\n  jump\t// in\ntag_95:\n    /* \"#utility.yul\":3862:3899   */\n  swap1\n  pop\n    /* \"#utility.yul\":3954:3958   */\n  0x20\n    /* \"#utility.yul\":3948:3952   */\n  dup2\n    /* \"#utility.yul\":3944:3959   */\n  add\n    /* \"#utility.yul\":3936:3959   */\n  swap1\n  pop\n    /* \"#utility.yul\":3658:3966   */\n  swap2\n  swap1\n  pop\n  jump\t// out\n    /* \"#utility.yul\":3972:4049   */\ntag_97:\n    /* \"#utility.yul\":4009:4016   */\n  0x00\n    /* \"#utility.yul\":4038:4043   */\n  dup2\n    /* \"#utility.yul\":4027:4043   */\n  swap1\n  pop\n    /* \"#utility.yul\":3972:4049   */\n  swap2\n  swap1\n  pop\n  jump\t// out\n    /* \"#utility.yul\":4055:4362   */\ntag_59:\n    /* \"#utility.yul\":4123:4124   */\n  0x00\n    /* \"#utility.yul\":4133:4246   */\ntag_100:\n    /* \"#utility.yul\":4147:4153   */\n  dup4\n    /* \"#utility.yul\":4144:4145   */\n  dup2\n    /* \"#utility.yul\":4141:4154   */\n  lt\n    /* \"#utility.yul\":4133:4246   */\n  iszero\n  tag_102\n  jumpi\n    /* \"#utility.yul\":4232:4233   */\n  dup1\n    /* \"#utility.yul\":4227:4230   */\n  dup3\n    /* \"#utility.yul\":4223:4234   */\n  add\n    /* \"#utility.yul\":4217:4235   */\n  mload\n    /* \"#utility.yul\":4213:4214   */\n  dup2\n    /* \"#utility.yul\":4208:4211   */\n  dup5\n    /* \"#utility.yul\":4204:4215   */\n  add\n    /* \"#utility.yul\":4197:4236   */\n  mstore\n    /* \"#utility.yul\":4169:4171   */\n  0x20\n    /* \"#utility.yul\":4166:4167   */\n  dup2\n    /* \"#utility.yul\":4162:4172   */\n  add\n    /* \"#utility.yul\":4157:4172   */\n  swap1\n  pop\n    /* \"#utility.yul\":4133:4246   */\n  jump(tag_100)\ntag_102:\n    /* \"#utility.yul\":4264:4270   */\n  dup4\n    /* \"#utility.yul\":4261:4262   */\n  dup2\n    /* \"#utility.yul\":4258:4271   */\n  gt\n    /* \"#utility.yul\":4255:4356   */\n  iszero\n  tag_103\n  jumpi\n    /* \"#utility.yul\":4344:4345   */\n  0x00\n    /* \"#utility.yul\":4335:4341   */\n  dup5\n    /* \"#utility.yul\":4330:4333   */\n  dup5\n    /* \"#utility.yul\":4326:4342   */\n  add\n    /* \"#utility.yul\":4319:4346   */\n  mstore\n    /* \"#utility.yul\":4255:4356   */\ntag_103:\n    /* \"#utility.yul\":4104:4362   */\n  pop\n    /* \"#utility.yul\":4055:4362   */\n  pop\n  pop\n  pop\n  jump\t// out\n    /* \"#utility.yul\":4368:4688   */\ntag_22:\n    /* \"#utility.yul\":4412:4418   */\n  0x00\n    /* \"#utility.yul\":4449:4450   */\n  0x02\n    /* \"#utility.yul\":4443:4447   */\n  dup3\n    /* \"#utility.yul\":4439:4451   */\n  div\n    /* \"#utility.yul\":4429:4451   */\n  swap1\n  pop\n    /* \"#utility.yul\":4496:4497   */\n  0x01\n    /* \"#utility.yul\":4490:4494   */\n  dup3\n    /* \"#utility.yul\":4486:4498   */\n  and\n    /* \"#utility.yul\":4517:4535   */\n  dup1\n    /* \"#utility.yul\":4507:4588   */\n  tag_105\n  jumpi\n    /* \"#utility.yul\":4573:4577   */\n  0x7f\n    /* \"#utility.yul\":4565:4571   */\n  dup3\n    /* \"#utility.yul\":4561:4578   */\n  and\n    /* \"#utility.yul\":4551:4578   */\n  swap2\n  pop\n    /* \"#utility.yul\":4507:4588   */\ntag_105:\n    /* \"#utility.yul\":4635:4637   */\n  0x20\n    /* \"#utility.yul\":4627:4633   */\n  dup3\n    /* \"#utility.yul\":4624:4638   */\n  lt\n    /* \"#utility.yul\":4604:4622   */\n  dup2\n    /* \"#utility.yul\":4601:4639   */\n  eq\n    /* \"#utility.yul\":4598:4682   */\n  iszero\n  tag_106\n  jumpi\n    /* \"#utility.yul\":4654:4672   */\n  tag_107\n  tag_108\n  jump\t// in\ntag_107:\n    /* \"#utility.yul\":4598:4682   */\ntag_106:\n    /* \"#utility.yul\":4419:4688   */\n  pop\n    /* \"#utility.yul\":4368:4688   */\n  swap2\n  swap1\n  pop\n  jump\t// out\n    /* \"#utility.yul\":4694:4975   */\ntag_86:\n    /* \"#utility.yul\":4777:4804   */\n  tag_110\n    /* \"#utility.yul\":4799:4803   */\n  dup3\n    /* \"#utility.yul\":4777:4804   */\n  tag_96\n  jump\t// in\ntag_110:\n    /* \"#utility.yul\":4769:4775   */\n  dup2\n    /* \"#utility.yul\":4765:4805   */\n  add\n    /* \"#utility.yul\":4907:4913   */\n  dup2\n    /* \"#utility.yul\":4895:4905   */\n  dup2\n    /* \"#utility.yul\":4892:4914   */\n  lt\n    /* \"#utility.yul\":4871:4889   */\n  0xffffffffffffffff\n    /* \"#utility.yul\":4859:4869   */\n  dup3\n    /* \"#utility.yul\":4856:4890   */\n  gt\n    /* \"#utility.yul\":4853:4915   */\n  or\n    /* \"#utility.yul\":4850:4938   */\n  iszero\n  tag_111\n  jumpi\n    /* \"#utility.yul\":4918:4936   */\n  tag_112\n  tag_91\n  jump\t// in\ntag_112:\n    /* \"#utility.yul\":4850:4938   */\ntag_111:\n    /* \"#utility.yul\":4958:4968   */\n  dup1\n    /* \"#utility.yul\":4954:4956   */\n  0x40\n    /* \"#utility.yul\":4947:4969   */\n  mstore\n    /* \"#utility.yul\":4737:4975   */\n  pop\n    /* \"#utility.yul\":4694:4975   */\n  pop\n  pop\n  jump\t// out\n    /* \"#utility.yul\":4981:5214   */\ntag_20:\n    /* \"#utility.yul\":5020:5023   */\n  0x00\n    /* \"#utility.yul\":5043:5067   */\n  tag_114\n    /* \"#utility.yul\":5061:5066   */\n  dup3\n    /* \"#utility.yul\":5043:5067   */\n  tag_97\n  jump\t// in\ntag_114:\n    /* \"#utility.yul\":5034:5067   */\n  swap2\n  pop\n    /* \"#utility.yul\":5089:5155   */\n  0xffffffffffffffffffffffffffffffffffffffffffffffffffffffffffffffff\n    /* \"#utility.yul\":5082:5087   */\n  dup3\n    /* \"#utility.yul\":5079:5156   */\n  eq\n    /* \"#utility.yul\":5076:5179   */\n  iszero\n  tag_115\n  jumpi\n    /* \"#utility.yul\":5159:5177   */\n  tag_116\n  tag_117\n  jump\t// in\ntag_116:\n    /* \"#utility.yul\":5076:5179   */\ntag_115:\n    /* \"#utility.yul\":5206:5207   */\n  0x01\n    /* \"#utility.yul\":5199:5204   */\n  dup3\n    /* \"#utility.yul\":5195:5208   */\n  add\n    /* \"#utility.yul\":5188:5208   */\n  swap1\n  pop\n    /* \"#utility.yul\":4981:5214   */\n  swap2\n  swap1\n  pop\n  jump\t// out\n    /* \"#utility.yul\":5220:5400   */\ntag_117:\n    /* \"#utility.yul\":5268:5345   */\n  0x4e487b7100000000000000000000000000000000000000000000000000000000\n    /* \"#utility.yul\":5265:5266   */\n  0x00\n    /* \"#utility.yul\":5258:5346   */\n  mstore\n    /* \"#utility.yul\":5365:5369   */\n  0x11\n    /* \"#utility.yul\":5362:5363   */\n  0x04\n    /* \"#utility.yul\":5355:5370   */\n  mstore\n    /* \"#utility.yul\":5389:5393   */\n  0x24\n    /* \"#utility.yul\":5386:5387   */\n  0x00\n    /* \"#utility.yul\":5379:5394   */\n  revert\n    /* \"#utility.yul\":5406:5586   */\ntag_108:\n    /* \"#utility.yul\":5454:5531   */\n  0x4e487b7100000000000000000000000000000000000000000000000000000000\n    /* \"#utility.yul\":5451:5452   */\n  0x00\n    /* \"#utility.yul\":5444:5532   */\n  mstore\n    /* \"#utility.yul\":5551:5555   */\n  0x22\n    /* \"#utility.yul\":5548:5549   */\n  0x04\n    /* \"#utility.yul\":5541:5556   */\n  mstore\n    /* \"#utility.yul\":5575:5579   */\n  0x24\n    /* \"#utility.yul\":5572:5573   */\n  0x00\n    /* \"#utility.yul\":5565:5580   */\n  revert\n    /* \"#utility.yul\":5592:5772   */\ntag_15:\n    /* \"#utility.yul\":5640:5717   */\n  0x4e487b7100000000000000000000000000000000000000000000000000000000\n    /* \"#utility.yul\":5637:5638   */\n  0x00\n    /* \"#utility.yul\":5630:5718   */\n  mstore\n    /* \"#utility.yul\":5737:5741   */\n  0x32\n    /* \"#utility.yul\":5734:5735   */\n  0x04\n    /* \"#utility.yul\":5727:5742   */\n  mstore\n    /* \"#utility.yul\":5761:5765   */\n  0x24\n    /* \"#utility.yul\":5758:5759   */\n  0x00\n    /* \"#utility.yul\":5751:5766   */\n  revert\n    /* \"#utility.yul\":5778:5958   */\ntag_91:\n    /* \"#utility.yul\":5826:5903   */\n  0x4e487b7100000000000000000000000000000000000000000000000000000000\n    /* \"#utility.yul\":5823:5824   */\n  0x00\n    /* \"#utility.yul\":5816:5904   */\n  mstore\n    /* \"#utility.yul\":5923:5927   */\n  0x41\n    /* \"#utility.yul\":5920:5921   */\n  0x04\n    /* \"#utility.yul\":5913:5928   */\n  mstore\n    /* \"#utility.yul\":5947:5951   */\n  0x24\n    /* \"#utility.yul\":5944:5945   */\n  0x00\n    /* \"#utility.yul\":5937:5952   */\n  revert\n    /* \"#utility.yul\":5964:6081   */\ntag_47:\n    /* \"#utility.yul\":6073:6074   */\n  0x00\n    /* \"#utility.yul\":6070:6071   */\n  dup1\n    /* \"#utility.yul\":6063:6075   */\n  revert\n    /* \"#utility.yul\":6087:6204   */\ntag_41:\n    /* \"#utility.yul\":6196:6197   */\n  0x00\n    /* \"#utility.yul\":6193:6194   */\n  dup1\n    /* \"#utility.yul\":6186:6198   */\n  revert\n    /* \"#utility.yul\":6210:6327   */\ntag_57:\n    /* \"#utility.yul\":6319:6320   */\n  0x00\n    /* \"#utility.yul\":6316:6317   */\n  dup1\n    /* \"#utility.yul\":6309:6321   */\n  revert\n    /* \"#utility.yul\":6333:6450   */\ntag_79:\n    /* \"#utility.yul\":6442:6443   */\n  0x00\n    /* \"#utility.yul\":6439:6440   */\n  dup1\n    /* \"#utility.yul\":6432:6444   */\n  revert\n    /* \"#utility.yul\":6456:6573   */\ntag_76:\n    /* \"#utility.yul\":6565:6566   */\n  0x00\n    /* \"#utility.yul\":6562:6563   */\n  dup1\n    /* \"#utility.yul\":6555:6567   */\n  revert\n    /* \"#utility.yul\":6579:6681   */\ntag_96:\n    /* \"#utility.yul\":6620:6626   */\n  0x00\n    /* \"#utility.yul\":6671:6673   */\n  0x1f\n    /* \"#utility.yul\":6667:6674   */\n  not\n    /* \"#utility.yul\":6662:6664   */\n  0x1f\n    /* \"#utility.yul\":6655:6660   */\n  dup4\n    /* \"#utility.yul\":6651:6665   */\n  add\n    /* \"#utility.yul\":6647:6675   */\n  and\n    /* \"#utility.yul\":6637:6675   */\n  swap1\n  pop\n    /* \"#utility.yul\":6579:6681   */\n  swap2\n  swap1\n  pop\n  jump\t// out\n    /* \"#utility.yul\":6687:6809   */\ntag_72:\n    /* \"#utility.yul\":6760:6784   */\n  tag_129\n    /* \"#utility.yul\":6778:6783   */\n  dup2\n    /* \"#utility.yul\":6760:6784   */\n  tag_97\n  jump\t// in\ntag_129:\n    /* \"#utility.yul\":6753:6758   */\n  dup2\n    /* \"#utility.yul\":6750:6785   */\n  eq\n    /* \"#utility.yul\":6740:6803   */\n  tag_130\n  jumpi\n    /* \"#utility.yul\":6799:6800   */\n  0x00\n    /* \"#utility.yul\":6796:6797   */\n  dup1\n    /* \"#utility.yul\":6789:6801   */\n  revert\n    /* \"#utility.yul\":6740:6803   */\ntag_130:\n    /* \"#utility.yul\":6687:6809   */\n  pop\n  jump\t// out\n    /* \"contracts/Ballot/Ballot.sol\":70:5716  contract MyBallot {\r... */\ntag_8:\n  dataSize(sub_0)\n  dup1\n  dataOffset(sub_0)\n  0x00\n  codecopy\n  0x00\n  return\nstop\n\nsub_0: assembly {\n        /* \"contracts/Ballot/Ballot.sol\":70:5716  contract MyBallot {\r... */\n      mstore(0x40, 0x80)\n      callvalue\n      dup1\n      iszero\n      tag_1\n      jumpi\n      0x00\n      dup1\n      revert\n    tag_1:\n      pop\n      jumpi(tag_2, lt(calldatasize, 0x04))\n      shr(0xe0, calldataload(0x00))\n      dup1\n      0x9e7b8d61\n      gt\n      tag_10\n      jumpi\n      dup1\n      0x9e7b8d61\n      eq\n      tag_6\n      jumpi\n      dup1\n      0xa3ec138d\n      eq\n      tag_7\n      jumpi\n      dup1\n      0xce606ee0\n      eq\n      tag_8\n      jumpi\n      dup1\n      0xfc36e15b\n      eq\n      tag_9\n      jumpi\n      jump(tag_2)\n    tag_10:\n      dup1\n      0x011d1023\n      eq\n      tag_3\n      jumpi\n      dup1\n      0x2bfda515\n      eq\n      tag_4\n      jumpi\n      dup1\n      0x3477ee2e\n      eq\n      tag_5\n      jumpi\n    tag_2:\n      0x00\n      dup1\n      revert\n        /* \"contracts/Ballot/Ballot.sol\":4012:4769  function getCandidatesListName() public view returns (string[] memory) {\r... */\n    tag_3:\n      tag_11\n      tag_12\n      jump\t// in\n    tag_11:\n      mload(0x40)\n      tag_13\n      swap2\n      swap1\n      tag_14\n      jump\t// in\n    tag_13:\n      mload(0x40)\n      dup1\n      swap2\n      sub\n      swap1\n      return\n        /* \"contracts/Ballot/Ballot.sol\":2971:3387  function getWinnerName() public view returns (string memory winnerName, address) {\r... */\n    tag_4:\n      tag_15\n      tag_16\n      jump\t// in\n    tag_15:\n      mload(0x40)\n      tag_17\n      swap3\n      swap2\n      swap1\n      tag_18\n      jump\t// in\n    tag_17:\n      mload(0x40)\n      dup1\n      swap2\n      sub\n      swap1\n      return\n        /* \"contracts/Ballot/Ballot.sol\":374:403  Candidate[] public candidates */\n    tag_5:\n      tag_19\n      0x04\n      dup1\n      calldatasize\n      sub\n      dup2\n      add\n      swap1\n      tag_20\n      swap2\n      swap1\n      tag_21\n      jump\t// in\n    tag_20:\n      tag_22\n      jump\t// in\n    tag_19:\n      mload(0x40)\n      tag_23\n      swap3\n      swap2\n      swap1\n      tag_24\n      jump\t// in\n    tag_23:\n      mload(0x40)\n      dup1\n      swap2\n      sub\n      swap1\n      return\n        /* \"contracts/Ballot/Ballot.sol\":2273:2419  function giveRightToVote(address voterAddress) public giveRightToVoteModifier(voterAddress) {\r... */\n    tag_6:\n      tag_25\n      0x04\n      dup1\n      calldatasize\n      sub\n      dup2\n      add\n      swap1\n      tag_26\n      swap2\n      swap1\n      tag_27\n      jump\t// in\n    tag_26:\n      tag_28\n      jump\t// in\n    tag_25:\n      stop\n        /* \"contracts/Ballot/Ballot.sol\":326:365  mapping(address => Voter) public voters */\n    tag_7:\n      tag_29\n      0x04\n      dup1\n      calldatasize\n      sub\n      dup2\n      add\n      swap1\n      tag_30\n      swap2\n      swap1\n      tag_27\n      jump\t// in\n    tag_30:\n      tag_31\n      jump\t// in\n    tag_29:\n      mload(0x40)\n      tag_32\n      swap3\n      swap2\n      swap1\n      tag_33\n      jump\t// in\n    tag_32:\n      mload(0x40)\n      dup1\n      swap2\n      sub\n      swap1\n      return\n        /* \"contracts/Ballot/Ballot.sol\":289:317  address public contractOwner */\n    tag_8:\n      tag_34\n      tag_35\n      jump\t// in\n    tag_34:\n      mload(0x40)\n      tag_36\n      swap2\n      swap1\n      tag_37\n      jump\t// in\n    tag_36:\n      mload(0x40)\n      dup1\n      swap2\n      sub\n      swap1\n      return\n        /* \"contracts/Ballot/Ballot.sol\":2427:2963  function vote(string memory _nameProject) public voteModifier(msg.sender) {\r... */\n    tag_9:\n      tag_38\n      0x04\n      dup1\n      calldatasize\n      sub\n      dup2\n      add\n      swap1\n      tag_39\n      swap2\n      swap1\n      tag_40\n      jump\t// in\n    tag_39:\n      tag_41\n      jump\t// in\n    tag_38:\n      stop\n        /* \"contracts/Ballot/Ballot.sol\":4012:4769  function getCandidatesListName() public view returns (string[] memory) {\r... */\n    tag_12:\n        /* \"contracts/Ballot/Ballot.sol\":4066:4081  string[] memory */\n      0x60\n        /* \"contracts/Ballot/Ballot.sol\":4094:4115  uint candidatesLength */\n      0x00\n        /* \"contracts/Ballot/Ballot.sol\":4118:4128  candidates */\n      0x02\n        /* \"contracts/Ballot/Ballot.sol\":4118:4135  candidates.length */\n      dup1\n      sload\n      swap1\n      pop\n        /* \"contracts/Ballot/Ballot.sol\":4094:4135  uint candidatesLength = candidates.length */\n      swap1\n      pop\n        /* \"contracts/Ballot/Ballot.sol\":4307:4342  string[]  memory candidatesListName */\n      0x00\n        /* \"contracts/Ballot/Ballot.sol\":4358:4374  candidatesLength */\n      dup2\n        /* \"contracts/Ballot/Ballot.sol\":4345:4375  new string[](candidatesLength) */\n      0xffffffffffffffff\n      dup2\n      gt\n      iszero\n      tag_43\n      jumpi\n      tag_44\n      tag_45\n      jump\t// in\n    tag_44:\n    tag_43:\n      mload(0x40)\n      swap1\n      dup1\n      dup3\n      mstore\n      dup1\n      0x20\n      mul\n      0x20\n      add\n      dup3\n      add\n      0x40\n      mstore\n      dup1\n      iszero\n      tag_46\n      jumpi\n      dup2\n      0x20\n      add\n    tag_47:\n      0x60\n      dup2\n      mstore\n      0x20\n      add\n      swap1\n      0x01\n      swap1\n      sub\n      swap1\n      dup2\n      tag_47\n      jumpi\n      swap1\n      pop\n    tag_46:\n      pop\n        /* \"contracts/Ballot/Ballot.sol\":4307:4375  string[]  memory candidatesListName = new string[](candidatesLength) */\n      swap1\n      pop\n        /* \"contracts/Ballot/Ballot.sol\":4589:4599  uint index */\n      0x00\n        /* \"contracts/Ballot/Ballot.sol\":4584:4724  for (uint index = 0; index < candidatesLength; index++) {\r... */\n    tag_48:\n        /* \"contracts/Ballot/Ballot.sol\":4613:4629  candidatesLength */\n      dup3\n        /* \"contracts/Ballot/Ballot.sol\":4605:4610  index */\n      dup2\n        /* \"contracts/Ballot/Ballot.sol\":4605:4629  index < candidatesLength */\n      lt\n        /* \"contracts/Ballot/Ballot.sol\":4584:4724  for (uint index = 0; index < candidatesLength; index++) {\r... */\n      iszero\n      tag_49\n      jumpi\n        /* \"contracts/Ballot/Ballot.sol\":4683:4693  candidates */\n      0x02\n        /* \"contracts/Ballot/Ballot.sol\":4694:4699  index */\n      dup2\n        /* \"contracts/Ballot/Ballot.sol\":4683:4700  candidates[index] */\n      dup2\n      sload\n      dup2\n      lt\n      tag_51\n      jumpi\n      tag_52\n      tag_53\n      jump\t// in\n    tag_52:\n    tag_51:\n      swap1\n      0x00\n      mstore\n      keccak256(0x00, 0x20)\n      swap1\n      0x02\n      mul\n      add\n        /* \"contracts/Ballot/Ballot.sol\":4683:4712  candidates[index].nameProject */\n      0x00\n      add\n        /* \"contracts/Ballot/Ballot.sol\":4655:4712  candidatesListName[index] = candidates[index].nameProject */\n      dup1\n      sload\n      tag_55\n      swap1\n      tag_56\n      jump\t// in\n    tag_55:\n      dup1\n      0x1f\n      add\n      0x20\n      dup1\n      swap2\n      div\n      mul\n      0x20\n      add\n      mload(0x40)\n      swap1\n      dup2\n      add\n      0x40\n      mstore\n      dup1\n      swap3\n      swap2\n      swap1\n      dup2\n      dup2\n      mstore\n      0x20\n      add\n      dup3\n      dup1\n      sload\n      tag_57\n      swap1\n      tag_56\n      jump\t// in\n    tag_57:\n      dup1\n      iszero\n      tag_58\n      jumpi\n      dup1\n      0x1f\n      lt\n      tag_59\n      jumpi\n      0x0100\n      dup1\n      dup4\n      sload\n      div\n      mul\n      dup4\n      mstore\n      swap2\n      0x20\n      add\n      swap2\n      jump(tag_58)\n    tag_59:\n      dup3\n      add\n      swap2\n      swap1\n      0x00\n      mstore\n      keccak256(0x00, 0x20)\n      swap1\n    tag_60:\n      dup2\n      sload\n      dup2\n      mstore\n      swap1\n      0x01\n      add\n      swap1\n      0x20\n      add\n      dup1\n      dup4\n      gt\n      tag_60\n      jumpi\n      dup3\n      swap1\n      sub\n      0x1f\n      and\n      dup3\n      add\n      swap2\n    tag_58:\n      pop\n      pop\n      pop\n      pop\n      pop\n        /* \"contracts/Ballot/Ballot.sol\":4655:4673  candidatesListName */\n      dup3\n        /* \"contracts/Ballot/Ballot.sol\":4674:4679  index */\n      dup3\n        /* \"contracts/Ballot/Ballot.sol\":4655:4680  candidatesListName[index] */\n      dup2\n      mload\n      dup2\n      lt\n      tag_61\n      jumpi\n      tag_62\n      tag_53\n      jump\t// in\n    tag_62:\n    tag_61:\n      0x20\n      mul\n      0x20\n      add\n      add\n        /* \"contracts/Ballot/Ballot.sol\":4655:4712  candidatesListName[index] = candidates[index].nameProject */\n      dup2\n      swap1\n      mstore\n      pop\n        /* \"contracts/Ballot/Ballot.sol\":4631:4638  index++ */\n      dup1\n      dup1\n      tag_63\n      swap1\n      tag_64\n      jump\t// in\n    tag_63:\n      swap2\n      pop\n      pop\n        /* \"contracts/Ballot/Ballot.sol\":4584:4724  for (uint index = 0; index < candidatesLength; index++) {\r... */\n      jump(tag_48)\n    tag_49:\n      pop\n        /* \"contracts/Ballot/Ballot.sol\":4743:4761  candidatesListName */\n      dup1\n        /* \"contracts/Ballot/Ballot.sol\":4736:4761  return candidatesListName */\n      swap3\n      pop\n      pop\n      pop\n        /* \"contracts/Ballot/Ballot.sol\":4012:4769  function getCandidatesListName() public view returns (string[] memory) {\r... */\n      swap1\n      jump\t// out\n        /* \"contracts/Ballot/Ballot.sol\":2971:3387  function getWinnerName() public view returns (string memory winnerName, address) {\r... */\n    tag_16:\n        /* \"contracts/Ballot/Ballot.sol\":3017:3041  string memory winnerName */\n      0x60\n        /* \"contracts/Ballot/Ballot.sol\":3043:3050  address */\n      0x00\n        /* \"contracts/Ballot/Ballot.sol\":3064:3084  uint winningProposal */\n      dup1\n        /* \"contracts/Ballot/Ballot.sol\":3086:3096  bool isTie */\n      0x00\n        /* \"contracts/Ballot/Ballot.sol\":3100:3121  getWinningCandidate() */\n      tag_66\n        /* \"contracts/Ballot/Ballot.sol\":3100:3119  getWinningCandidate */\n      tag_67\n        /* \"contracts/Ballot/Ballot.sol\":3100:3121  getWinningCandidate() */\n      jump\t// in\n    tag_66:\n        /* \"contracts/Ballot/Ballot.sol\":3063:3121  (uint winningProposal, bool isTie) = getWinningCandidate() */\n      swap2\n      pop\n      swap2\n      pop\n        /* \"contracts/Ballot/Ballot.sol\":3155:3160  isTie */\n      dup1\n        /* \"contracts/Ballot/Ballot.sol\":3154:3160  !isTie */\n      iszero\n        /* \"contracts/Ballot/Ballot.sol\":3132:3264  require(\r... */\n      tag_68\n      jumpi\n      mload(0x40)\n      0x08c379a000000000000000000000000000000000000000000000000000000000\n      dup2\n      mstore\n      0x04\n      add\n      tag_69\n      swap1\n      tag_70\n      jump\t// in\n    tag_69:\n      mload(0x40)\n      dup1\n      swap2\n      sub\n      swap1\n      revert\n    tag_68:\n        /* \"contracts/Ballot/Ballot.sol\":3288:3298  candidates */\n      0x02\n        /* \"contracts/Ballot/Ballot.sol\":3299:3314  winningProposal */\n      dup3\n        /* \"contracts/Ballot/Ballot.sol\":3288:3315  candidates[winningProposal] */\n      dup2\n      sload\n      dup2\n      lt\n      tag_71\n      jumpi\n      tag_72\n      tag_53\n      jump\t// in\n    tag_72:\n    tag_71:\n      swap1\n      0x00\n      mstore\n      keccak256(0x00, 0x20)\n      swap1\n      0x02\n      mul\n      add\n        /* \"contracts/Ballot/Ballot.sol\":3288:3327  candidates[winningProposal].nameProject */\n      0x00\n      add\n        /* \"contracts/Ballot/Ballot.sol\":3275:3327  winnerName = candidates[winningProposal].nameProject */\n      dup1\n      sload\n      tag_74\n      swap1\n      tag_56\n      jump\t// in\n    tag_74:\n      dup1\n      0x1f\n      add\n      0x20\n      dup1\n      swap2\n      div\n      mul\n      0x20\n      add\n      mload(0x40)\n      swap1\n      dup2\n      add\n      0x40\n      mstore\n      dup1\n      swap3\n      swap2\n      swap1\n      dup2\n      dup2\n      mstore\n      0x20\n      add\n      dup3\n      dup1\n      sload\n      tag_75\n      swap1\n      tag_56\n      jump\t// in\n    tag_75:\n      dup1\n      iszero\n      tag_76\n      jumpi\n      dup1\n      0x1f\n      lt\n      tag_77\n      jumpi\n      0x0100\n      dup1\n      dup4\n      sload\n      div\n      mul\n      dup4\n      mstore\n      swap2\n      0x20\n      add\n      swap2\n      jump(tag_76)\n    tag_77:\n      dup3\n      add\n      swap2\n      swap1\n      0x00\n      mstore\n      keccak256(0x00, 0x20)\n      swap1\n    tag_78:\n      dup2\n      sload\n      dup2\n      mstore\n      swap1\n      0x01\n      add\n      swap1\n      0x20\n      add\n      dup1\n      dup4\n      gt\n      tag_78\n      jumpi\n      dup3\n      swap1\n      sub\n      0x1f\n      and\n      dup3\n      add\n      swap2\n    tag_76:\n      pop\n      pop\n      pop\n      pop\n      pop\n      swap4\n      pop\n        /* \"contracts/Ballot/Ballot.sol\":3346:3356  winnerName */\n      dup4\n        /* \"contracts/Ballot/Ballot.sol\":3358:3378  getContractAddress() */\n      tag_79\n        /* \"contracts/Ballot/Ballot.sol\":3358:3376  getContractAddress */\n      tag_80\n        /* \"contracts/Ballot/Ballot.sol\":3358:3378  getContractAddress() */\n      jump\t// in\n    tag_79:\n        /* \"contracts/Ballot/Ballot.sol\":3338:3379  return (winnerName, getContractAddress()) */\n      swap4\n      pop\n      swap4\n      pop\n      pop\n      pop\n        /* \"contracts/Ballot/Ballot.sol\":2971:3387  function getWinnerName() public view returns (string memory winnerName, address) {\r... */\n      swap1\n      swap2\n      jump\t// out\n        /* \"contracts/Ballot/Ballot.sol\":374:403  Candidate[] public candidates */\n    tag_22:\n      0x02\n      dup2\n      dup2\n      sload\n      dup2\n      lt\n      tag_81\n      jumpi\n      0x00\n      dup1\n      revert\n    tag_81:\n      swap1\n      0x00\n      mstore\n      keccak256(0x00, 0x20)\n      swap1\n      0x02\n      mul\n      add\n      0x00\n      swap2\n      pop\n      swap1\n      pop\n      dup1\n      0x00\n      add\n      dup1\n      sload\n      tag_83\n      swap1\n      tag_56\n      jump\t// in\n    tag_83:\n      dup1\n      0x1f\n      add\n      0x20\n      dup1\n      swap2\n      div\n      mul\n      0x20\n      add\n      mload(0x40)\n      swap1\n      dup2\n      add\n      0x40\n      mstore\n      dup1\n      swap3\n      swap2\n      swap1\n      dup2\n      dup2\n      mstore\n      0x20\n      add\n      dup3\n      dup1\n      sload\n      tag_84\n      swap1\n      tag_56\n      jump\t// in\n    tag_84:\n      dup1\n      iszero\n      tag_85\n      jumpi\n      dup1\n      0x1f\n      lt\n      tag_86\n      jumpi\n      0x0100\n      dup1\n      dup4\n      sload\n      div\n      mul\n      dup4\n      mstore\n      swap2\n      0x20\n      add\n      swap2\n      jump(tag_85)\n    tag_86:\n      dup3\n      add\n      swap2\n      swap1\n      0x00\n      mstore\n      keccak256(0x00, 0x20)\n      swap1\n    tag_87:\n      dup2\n      sload\n      dup2\n      mstore\n      swap1\n      0x01\n      add\n      swap1\n      0x20\n      add\n      dup1\n      dup4\n      gt\n      tag_87\n      jumpi\n      dup3\n      swap1\n      sub\n      0x1f\n      and\n      dup3\n      add\n      swap2\n    tag_85:\n      pop\n      pop\n      pop\n      pop\n      pop\n      swap1\n      dup1\n      0x01\n      add\n      sload\n      swap1\n      pop\n      dup3\n      jump\t// out\n        /* \"contracts/Ballot/Ballot.sol\":2273:2419  function giveRightToVote(address voterAddress) public giveRightToVoteModifier(voterAddress) {\r... */\n    tag_28:\n        /* \"contracts/Ballot/Ballot.sol\":2351:2363  voterAddress */\n      dup1\n        /* \"contracts/Ballot/Ballot.sol\":982:1018  getTotalVotesCounterReachedRequire() */\n      tag_89\n        /* \"contracts/Ballot/Ballot.sol\":982:1016  getTotalVotesCounterReachedRequire */\n      tag_90\n        /* \"contracts/Ballot/Ballot.sol\":982:1018  getTotalVotesCounterReachedRequire() */\n      jump\t// in\n    tag_89:\n        /* \"contracts/Ballot/Ballot.sol\":1051:1072  areYouContractOwner() */\n      tag_91\n        /* \"contracts/Ballot/Ballot.sol\":1051:1070  areYouContractOwner */\n      tag_92\n        /* \"contracts/Ballot/Ballot.sol\":1051:1072  areYouContractOwner() */\n      jump\t// in\n    tag_91:\n        /* \"contracts/Ballot/Ballot.sol\":1029:1147  require(\r... */\n      tag_93\n      jumpi\n      mload(0x40)\n      0x08c379a000000000000000000000000000000000000000000000000000000000\n      dup2\n      mstore\n      0x04\n      add\n      tag_94\n      swap1\n      tag_95\n      jump\t// in\n    tag_94:\n      mload(0x40)\n      dup1\n      swap2\n      sub\n      swap1\n      revert\n    tag_93:\n        /* \"contracts/Ballot/Ballot.sol\":1158:1192  getVoterVotedRequire(voterAddress) */\n      tag_96\n        /* \"contracts/Ballot/Ballot.sol\":1179:1191  voterAddress */\n      dup2\n        /* \"contracts/Ballot/Ballot.sol\":1158:1178  getVoterVotedRequire */\n      tag_97\n        /* \"contracts/Ballot/Ballot.sol\":1158:1192  getVoterVotedRequire(voterAddress) */\n      jump\t// in\n    tag_96:\n        /* \"contracts/Ballot/Ballot.sol\":2407:2411  true */\n      0x01\n        /* \"contracts/Ballot/Ballot.sol\":2376:2382  voters */\n      dup1\n        /* \"contracts/Ballot/Ballot.sol\":2376:2396  voters[voterAddress] */\n      0x00\n        /* \"contracts/Ballot/Ballot.sol\":2383:2395  voterAddress */\n      dup5\n        /* \"contracts/Ballot/Ballot.sol\":2376:2396  voters[voterAddress] */\n      0xffffffffffffffffffffffffffffffffffffffff\n      and\n      0xffffffffffffffffffffffffffffffffffffffff\n      and\n      dup2\n      mstore\n      0x20\n      add\n      swap1\n      dup2\n      mstore\n      0x20\n      add\n      0x00\n      keccak256\n        /* \"contracts/Ballot/Ballot.sol\":2376:2404  voters[voterAddress].canVote */\n      0x00\n      add\n      0x00\n        /* \"contracts/Ballot/Ballot.sol\":2376:2411  voters[voterAddress].canVote = true */\n      0x0100\n      exp\n      dup2\n      sload\n      dup2\n      0xff\n      mul\n      not\n      and\n      swap1\n      dup4\n      iszero\n      iszero\n      mul\n      or\n      swap1\n      sstore\n      pop\n        /* \"contracts/Ballot/Ballot.sol\":2273:2419  function giveRightToVote(address voterAddress) public giveRightToVoteModifier(voterAddress) {\r... */\n      pop\n      pop\n      jump\t// out\n        /* \"contracts/Ballot/Ballot.sol\":326:365  mapping(address => Voter) public voters */\n    tag_31:\n      mstore(0x20, 0x01)\n      dup1\n      0x00\n      mstore\n      keccak256(0x00, 0x40)\n      0x00\n      swap2\n      pop\n      swap1\n      pop\n      dup1\n      0x00\n      add\n      0x00\n      swap1\n      sload\n      swap1\n      0x0100\n      exp\n      swap1\n      div\n      0xff\n      and\n      swap1\n      dup1\n      0x00\n      add\n      0x01\n      swap1\n      sload\n      swap1\n      0x0100\n      exp\n      swap1\n      div\n      0xff\n      and\n      swap1\n      pop\n      dup3\n      jump\t// out\n        /* \"contracts/Ballot/Ballot.sol\":289:317  address public contractOwner */\n    tag_35:\n      0x00\n      dup1\n      sload\n      swap1\n      0x0100\n      exp\n      swap1\n      div\n      0xffffffffffffffffffffffffffffffffffffffff\n      and\n      dup2\n      jump\t// out\n        /* \"contracts/Ballot/Ballot.sol\":2427:2963  function vote(string memory _nameProject) public voteModifier(msg.sender) {\r... */\n    tag_41:\n        /* \"contracts/Ballot/Ballot.sol\":2489:2499  msg.sender */\n      caller\n        /* \"contracts/Ballot/Ballot.sol\":1275:1311  getTotalVotesCounterReachedRequire() */\n      tag_100\n        /* \"contracts/Ballot/Ballot.sol\":1275:1309  getTotalVotesCounterReachedRequire */\n      tag_90\n        /* \"contracts/Ballot/Ballot.sol\":1275:1311  getTotalVotesCounterReachedRequire() */\n      jump\t// in\n    tag_100:\n        /* \"contracts/Ballot/Ballot.sol\":1344:1367  areYouHaveRigthToVote() */\n      tag_101\n        /* \"contracts/Ballot/Ballot.sol\":1344:1365  areYouHaveRigthToVote */\n      tag_102\n        /* \"contracts/Ballot/Ballot.sol\":1344:1367  areYouHaveRigthToVote() */\n      jump\t// in\n    tag_101:\n        /* \"contracts/Ballot/Ballot.sol\":1322:1422  require(\r... */\n      tag_103\n      jumpi\n      mload(0x40)\n      0x08c379a000000000000000000000000000000000000000000000000000000000\n      dup2\n      mstore\n      0x04\n      add\n      tag_104\n      swap1\n      tag_105\n      jump\t// in\n    tag_104:\n      mload(0x40)\n      dup1\n      swap2\n      sub\n      swap1\n      revert\n    tag_103:\n        /* \"contracts/Ballot/Ballot.sol\":1433:1467  getVoterVotedRequire(voterAddress) */\n      tag_106\n        /* \"contracts/Ballot/Ballot.sol\":1454:1466  voterAddress */\n      dup2\n        /* \"contracts/Ballot/Ballot.sol\":1433:1453  getVoterVotedRequire */\n      tag_97\n        /* \"contracts/Ballot/Ballot.sol\":1433:1467  getVoterVotedRequire(voterAddress) */\n      jump\t// in\n    tag_106:\n        /* \"contracts/Ballot/Ballot.sol\":2512:2532  Voter storage sender */\n      0x00\n        /* \"contracts/Ballot/Ballot.sol\":2535:2541  voters */\n      0x01\n        /* \"contracts/Ballot/Ballot.sol\":2535:2553  voters[msg.sender] */\n      0x00\n        /* \"contracts/Ballot/Ballot.sol\":2542:2552  msg.sender */\n      caller\n        /* \"contracts/Ballot/Ballot.sol\":2535:2553  voters[msg.sender] */\n      0xffffffffffffffffffffffffffffffffffffffff\n      and\n      0xffffffffffffffffffffffffffffffffffffffff\n      and\n      dup2\n      mstore\n      0x20\n      add\n      swap1\n      dup2\n      mstore\n      0x20\n      add\n      0x00\n      keccak256\n        /* \"contracts/Ballot/Ballot.sol\":2512:2553  Voter storage sender = voters[msg.sender] */\n      swap1\n      pop\n        /* \"contracts/Ballot/Ballot.sol\":2670:2680  uint index */\n      0x00\n        /* \"contracts/Ballot/Ballot.sol\":2665:2956  for (uint index = 0; index < candidates.length; index++) {\r... */\n    tag_108:\n        /* \"contracts/Ballot/Ballot.sol\":2694:2704  candidates */\n      0x02\n        /* \"contracts/Ballot/Ballot.sol\":2694:2711  candidates.length */\n      dup1\n      sload\n      swap1\n      pop\n        /* \"contracts/Ballot/Ballot.sol\":2686:2691  index */\n      dup2\n        /* \"contracts/Ballot/Ballot.sol\":2686:2711  index < candidates.length */\n      lt\n        /* \"contracts/Ballot/Ballot.sol\":2665:2956  for (uint index = 0; index < candidates.length; index++) {\r... */\n      iszero\n      tag_109\n      jumpi\n        /* \"contracts/Ballot/Ballot.sol\":2741:2799  stringEqualTo(candidates[index].nameProject, _nameProject) */\n      tag_111\n        /* \"contracts/Ballot/Ballot.sol\":2755:2765  candidates */\n      0x02\n        /* \"contracts/Ballot/Ballot.sol\":2766:2771  index */\n      dup3\n        /* \"contracts/Ballot/Ballot.sol\":2755:2772  candidates[index] */\n      dup2\n      sload\n      dup2\n      lt\n      tag_112\n      jumpi\n      tag_113\n      tag_53\n      jump\t// in\n    tag_113:\n    tag_112:\n      swap1\n      0x00\n      mstore\n      keccak256(0x00, 0x20)\n      swap1\n      0x02\n      mul\n      add\n        /* \"contracts/Ballot/Ballot.sol\":2755:2784  candidates[index].nameProject */\n      0x00\n      add\n        /* \"contracts/Ballot/Ballot.sol\":2741:2799  stringEqualTo(candidates[index].nameProject, _nameProject) */\n      dup1\n      sload\n      tag_115\n      swap1\n      tag_56\n      jump\t// in\n    tag_115:\n      dup1\n      0x1f\n      add\n      0x20\n      dup1\n      swap2\n      div\n      mul\n      0x20\n      add\n      mload(0x40)\n      swap1\n      dup2\n      add\n      0x40\n      mstore\n      dup1\n      swap3\n      swap2\n      swap1\n      dup2\n      dup2\n      mstore\n      0x20\n      add\n      dup3\n      dup1\n      sload\n      tag_116\n      swap1\n      tag_56\n      jump\t// in\n    tag_116:\n      dup1\n      iszero\n      tag_117\n      jumpi\n      dup1\n      0x1f\n      lt\n      tag_118\n      jumpi\n      0x0100\n      dup1\n      dup4\n      sload\n      div\n      mul\n      dup4\n      mstore\n      swap2\n      0x20\n      add\n      swap2\n      jump(tag_117)\n    tag_118:\n      dup3\n      add\n      swap2\n      swap1\n      0x00\n      mstore\n      keccak256(0x00, 0x20)\n      swap1\n    tag_119:\n      dup2\n      sload\n      dup2\n      mstore\n      swap1\n      0x01\n      add\n      swap1\n      0x20\n      add\n      dup1\n      dup4\n      gt\n      tag_119\n      jumpi\n      dup3\n      swap1\n      sub\n      0x1f\n      and\n      dup3\n      add\n      swap2\n    tag_117:\n      pop\n      pop\n      pop\n      pop\n      pop\n        /* \"contracts/Ballot/Ballot.sol\":2786:2798  _nameProject */\n      dup6\n        /* \"contracts/Ballot/Ballot.sol\":2741:2754  stringEqualTo */\n      tag_120\n        /* \"contracts/Ballot/Ballot.sol\":2741:2799  stringEqualTo(candidates[index].nameProject, _nameProject) */\n      jump\t// in\n    tag_111:\n        /* \"contracts/Ballot/Ballot.sol\":2737:2945  if (stringEqualTo(candidates[index].nameProject, _nameProject)) {\r... */\n      iszero\n      tag_121\n      jumpi\n        /* \"contracts/Ballot/Ballot.sol\":2820:2830  candidates */\n      0x02\n        /* \"contracts/Ballot/Ballot.sol\":2831:2836  index */\n      dup2\n        /* \"contracts/Ballot/Ballot.sol\":2820:2837  candidates[index] */\n      dup2\n      sload\n      dup2\n      lt\n      tag_122\n      jumpi\n      tag_123\n      tag_53\n      jump\t// in\n    tag_123:\n    tag_122:\n      swap1\n      0x00\n      mstore\n      keccak256(0x00, 0x20)\n      swap1\n      0x02\n      mul\n      add\n        /* \"contracts/Ballot/Ballot.sol\":2820:2848  candidates[index].votesCount */\n      0x01\n      add\n      0x00\n        /* \"contracts/Ballot/Ballot.sol\":2820:2850  candidates[index].votesCount++ */\n      dup2\n      sload\n      dup1\n      swap3\n      swap2\n      swap1\n      tag_125\n      swap1\n      tag_64\n      jump\t// in\n    tag_125:\n      swap2\n      swap1\n      pop\n      sstore\n      pop\n        /* \"contracts/Ballot/Ballot.sol\":2887:2891  true */\n      0x01\n        /* \"contracts/Ballot/Ballot.sol\":2869:2875  sender */\n      dup3\n        /* \"contracts/Ballot/Ballot.sol\":2869:2884  sender.hasVoted */\n      0x00\n      add\n      0x01\n        /* \"contracts/Ballot/Ballot.sol\":2869:2891  sender.hasVoted = true */\n      0x0100\n      exp\n      dup2\n      sload\n      dup2\n      0xff\n      mul\n      not\n      and\n      swap1\n      dup4\n      iszero\n      iszero\n      mul\n      or\n      swap1\n      sstore\n      pop\n        /* \"contracts/Ballot/Ballot.sol\":2910:2927  totalVotesCounter */\n      0x03\n      0x00\n        /* \"contracts/Ballot/Ballot.sol\":2910:2929  totalVotesCounter++ */\n      dup2\n      sload\n      dup1\n      swap3\n      swap2\n      swap1\n      tag_126\n      swap1\n      tag_64\n      jump\t// in\n    tag_126:\n      swap2\n      swap1\n      pop\n      sstore\n      pop\n        /* \"contracts/Ballot/Ballot.sol\":2737:2945  if (stringEqualTo(candidates[index].nameProject, _nameProject)) {\r... */\n    tag_121:\n        /* \"contracts/Ballot/Ballot.sol\":2713:2720  index++ */\n      dup1\n      dup1\n      tag_127\n      swap1\n      tag_64\n      jump\t// in\n    tag_127:\n      swap2\n      pop\n      pop\n        /* \"contracts/Ballot/Ballot.sol\":2665:2956  for (uint index = 0; index < candidates.length; index++) {\r... */\n      jump(tag_108)\n    tag_109:\n      pop\n        /* \"contracts/Ballot/Ballot.sol\":2501:2963  {\r... */\n      pop\n        /* \"contracts/Ballot/Ballot.sol\":2427:2963  function vote(string memory _nameProject) public voteModifier(msg.sender) {\r... */\n      pop\n      pop\n      jump\t// out\n        /* \"contracts/Ballot/Ballot.sol\":3395:4004  function getWinningCandidate() private view returns (uint winningProposal, bool isTie) {        \r... */\n    tag_67:\n        /* \"contracts/Ballot/Ballot.sol\":3448:3468  uint winningProposal */\n      0x00\n        /* \"contracts/Ballot/Ballot.sol\":3470:3480  bool isTie */\n      dup1\n        /* \"contracts/Ballot/Ballot.sol\":3501:3522  uint winningVoteCount */\n      0x00\n        /* \"contracts/Ballot/Ballot.sol\":3540:3559  uint indexCandidate */\n      dup1\n        /* \"contracts/Ballot/Ballot.sol\":3562:3563  0 */\n      0x00\n        /* \"contracts/Ballot/Ballot.sol\":3540:3563  uint indexCandidate = 0 */\n      swap1\n      pop\n        /* \"contracts/Ballot/Ballot.sol\":3535:3997  for (uint indexCandidate = 0; indexCandidate < candidates.length; indexCandidate++) {\r... */\n    tag_129:\n        /* \"contracts/Ballot/Ballot.sol\":3582:3592  candidates */\n      0x02\n        /* \"contracts/Ballot/Ballot.sol\":3582:3599  candidates.length */\n      dup1\n      sload\n      swap1\n      pop\n        /* \"contracts/Ballot/Ballot.sol\":3565:3579  indexCandidate */\n      dup2\n        /* \"contracts/Ballot/Ballot.sol\":3565:3599  indexCandidate < candidates.length */\n      lt\n        /* \"contracts/Ballot/Ballot.sol\":3535:3997  for (uint indexCandidate = 0; indexCandidate < candidates.length; indexCandidate++) {\r... */\n      iszero\n      tag_130\n      jumpi\n        /* \"contracts/Ballot/Ballot.sol\":3678:3694  winningVoteCount */\n      dup2\n        /* \"contracts/Ballot/Ballot.sol\":3638:3648  candidates */\n      0x02\n        /* \"contracts/Ballot/Ballot.sol\":3649:3663  indexCandidate */\n      dup3\n        /* \"contracts/Ballot/Ballot.sol\":3638:3664  candidates[indexCandidate] */\n      dup2\n      sload\n      dup2\n      lt\n      tag_132\n      jumpi\n      tag_133\n      tag_53\n      jump\t// in\n    tag_133:\n    tag_132:\n      swap1\n      0x00\n      mstore\n      keccak256(0x00, 0x20)\n      swap1\n      0x02\n      mul\n      add\n        /* \"contracts/Ballot/Ballot.sol\":3638:3675  candidates[indexCandidate].votesCount */\n      0x01\n      add\n      sload\n        /* \"contracts/Ballot/Ballot.sol\":3638:3694  candidates[indexCandidate].votesCount > winningVoteCount */\n      gt\n        /* \"contracts/Ballot/Ballot.sol\":3634:3986  if (candidates[indexCandidate].votesCount > winningVoteCount) {\r... */\n      iszero\n      tag_135\n      jumpi\n        /* \"contracts/Ballot/Ballot.sol\":3734:3744  candidates */\n      0x02\n        /* \"contracts/Ballot/Ballot.sol\":3745:3759  indexCandidate */\n      dup2\n        /* \"contracts/Ballot/Ballot.sol\":3734:3760  candidates[indexCandidate] */\n      dup2\n      sload\n      dup2\n      lt\n      tag_136\n      jumpi\n      tag_137\n      tag_53\n      jump\t// in\n    tag_137:\n    tag_136:\n      swap1\n      0x00\n      mstore\n      keccak256(0x00, 0x20)\n      swap1\n      0x02\n      mul\n      add\n        /* \"contracts/Ballot/Ballot.sol\":3734:3771  candidates[indexCandidate].votesCount */\n      0x01\n      add\n      sload\n        /* \"contracts/Ballot/Ballot.sol\":3715:3771  winningVoteCount = candidates[indexCandidate].votesCount */\n      swap2\n      pop\n        /* \"contracts/Ballot/Ballot.sol\":3808:3822  indexCandidate */\n      dup1\n        /* \"contracts/Ballot/Ballot.sol\":3790:3822  winningProposal = indexCandidate */\n      swap4\n      pop\n        /* \"contracts/Ballot/Ballot.sol\":3849:3854  false */\n      0x00\n        /* \"contracts/Ballot/Ballot.sol\":3841:3854  isTie = false */\n      swap3\n      pop\n        /* \"contracts/Ballot/Ballot.sol\":3634:3986  if (candidates[indexCandidate].votesCount > winningVoteCount) {\r... */\n      jump(tag_139)\n    tag_135:\n        /* \"contracts/Ballot/Ballot.sol\":3921:3937  winningVoteCount */\n      dup2\n        /* \"contracts/Ballot/Ballot.sol\":3880:3890  candidates */\n      0x02\n        /* \"contracts/Ballot/Ballot.sol\":3891:3905  indexCandidate */\n      dup3\n        /* \"contracts/Ballot/Ballot.sol\":3880:3906  candidates[indexCandidate] */\n      dup2\n      sload\n      dup2\n      lt\n      tag_140\n      jumpi\n      tag_141\n      tag_53\n      jump\t// in\n    tag_141:\n    tag_140:\n      swap1\n      0x00\n      mstore\n      keccak256(0x00, 0x20)\n      swap1\n      0x02\n      mul\n      add\n        /* \"contracts/Ballot/Ballot.sol\":3880:3917  candidates[indexCandidate].votesCount */\n      0x01\n      add\n      sload\n        /* \"contracts/Ballot/Ballot.sol\":3880:3937  candidates[indexCandidate].votesCount == winningVoteCount */\n      eq\n        /* \"contracts/Ballot/Ballot.sol\":3876:3986  if (candidates[indexCandidate].votesCount == winningVoteCount) {\r... */\n      iszero\n      tag_143\n      jumpi\n        /* \"contracts/Ballot/Ballot.sol\":3966:3970  true */\n      0x01\n        /* \"contracts/Ballot/Ballot.sol\":3958:3970  isTie = true */\n      swap3\n      pop\n        /* \"contracts/Ballot/Ballot.sol\":3876:3986  if (candidates[indexCandidate].votesCount == winningVoteCount) {\r... */\n    tag_143:\n        /* \"contracts/Ballot/Ballot.sol\":3634:3986  if (candidates[indexCandidate].votesCount > winningVoteCount) {\r... */\n    tag_139:\n        /* \"contracts/Ballot/Ballot.sol\":3601:3617  indexCandidate++ */\n      dup1\n      dup1\n      tag_144\n      swap1\n      tag_64\n      jump\t// in\n    tag_144:\n      swap2\n      pop\n      pop\n        /* \"contracts/Ballot/Ballot.sol\":3535:3997  for (uint indexCandidate = 0; indexCandidate < candidates.length; indexCandidate++) {\r... */\n      jump(tag_129)\n    tag_130:\n      pop\n        /* \"contracts/Ballot/Ballot.sol\":3482:4004  {        \r... */\n      pop\n        /* \"contracts/Ballot/Ballot.sol\":3395:4004  function getWinningCandidate() private view returns (uint winningProposal, bool isTie) {        \r... */\n      swap1\n      swap2\n      jump\t// out\n        /* \"contracts/Ballot/Ballot.sol\":4777:4877  function getContractAddress() private view returns (address) {\r... */\n    tag_80:\n        /* \"contracts/Ballot/Ballot.sol\":4829:4836  address */\n      0x00\n        /* \"contracts/Ballot/Ballot.sol\":4864:4868  this */\n      address\n        /* \"contracts/Ballot/Ballot.sol\":4849:4869  return address(this) */\n      swap1\n      pop\n        /* \"contracts/Ballot/Ballot.sol\":4777:4877  function getContractAddress() private view returns (address) {\r... */\n      swap1\n      jump\t// out\n        /* \"contracts/Ballot/Ballot.sol\":1721:1932  function getTotalVotesCounterReachedRequire() private view {\r... */\n    tag_90:\n        /* \"contracts/Ballot/Ballot.sol\":1840:1848  maxVotes */\n      sload(0x04)\n        /* \"contracts/Ballot/Ballot.sol\":1820:1837  totalVotesCounter */\n      sload(0x03)\n        /* \"contracts/Ballot/Ballot.sol\":1820:1848  totalVotesCounter < maxVotes */\n      lt\n        /* \"contracts/Ballot/Ballot.sol\":1798:1924  require(\r... */\n      tag_147\n      jumpi\n      mload(0x40)\n      0x08c379a000000000000000000000000000000000000000000000000000000000\n      dup2\n      mstore\n      0x04\n      add\n      tag_148\n      swap1\n      tag_149\n      jump\t// in\n    tag_148:\n      mload(0x40)\n      dup1\n      swap2\n      sub\n      swap1\n      revert\n    tag_147:\n        /* \"contracts/Ballot/Ballot.sol\":1721:1932  function getTotalVotesCounterReachedRequire() private view {\r... */\n      jump\t// out\n        /* \"contracts/Ballot/Ballot.sol\":4885:4997  function areYouContractOwner() private view returns (bool) {\r... */\n    tag_92:\n        /* \"contracts/Ballot/Ballot.sol\":4938:4942  bool */\n      0x00\n        /* \"contracts/Ballot/Ballot.sol\":4976:4989  contractOwner */\n      dup1\n      0x00\n      swap1\n      sload\n      swap1\n      0x0100\n      exp\n      swap1\n      div\n      0xffffffffffffffffffffffffffffffffffffffff\n      and\n        /* \"contracts/Ballot/Ballot.sol\":4962:4989  msg.sender == contractOwner */\n      0xffffffffffffffffffffffffffffffffffffffff\n      and\n        /* \"contracts/Ballot/Ballot.sol\":4962:4972  msg.sender */\n      caller\n        /* \"contracts/Ballot/Ballot.sol\":4962:4989  msg.sender == contractOwner */\n      0xffffffffffffffffffffffffffffffffffffffff\n      and\n      eq\n        /* \"contracts/Ballot/Ballot.sol\":4955:4989  return msg.sender == contractOwner */\n      swap1\n      pop\n        /* \"contracts/Ballot/Ballot.sol\":4885:4997  function areYouContractOwner() private view returns (bool) {\r... */\n      swap1\n      jump\t// out\n        /* \"contracts/Ballot/Ballot.sol\":1524:1713  function getVoterVotedRequire(address voterAddress) private view {\r... */\n    tag_97:\n        /* \"contracts/Ballot/Ballot.sol\":1630:1657  getVoterVoted(voterAddress) */\n      tag_152\n        /* \"contracts/Ballot/Ballot.sol\":1644:1656  voterAddress */\n      dup2\n        /* \"contracts/Ballot/Ballot.sol\":1630:1643  getVoterVoted */\n      tag_153\n        /* \"contracts/Ballot/Ballot.sol\":1630:1657  getVoterVoted(voterAddress) */\n      jump\t// in\n    tag_152:\n        /* \"contracts/Ballot/Ballot.sol\":1629:1657  !getVoterVoted(voterAddress) */\n      iszero\n        /* \"contracts/Ballot/Ballot.sol\":1607:1705  require(\r... */\n      tag_154\n      jumpi\n      mload(0x40)\n      0x08c379a000000000000000000000000000000000000000000000000000000000\n      dup2\n      mstore\n      0x04\n      add\n      tag_155\n      swap1\n      tag_156\n      jump\t// in\n    tag_155:\n      mload(0x40)\n      dup1\n      swap2\n      sub\n      swap1\n      revert\n    tag_154:\n        /* \"contracts/Ballot/Ballot.sol\":1524:1713  function getVoterVotedRequire(address voterAddress) private view {\r... */\n      pop\n      jump\t// out\n        /* \"contracts/Ballot/Ballot.sol\":5005:5123  function areYouHaveRigthToVote() private view returns (bool) {\r... */\n    tag_102:\n        /* \"contracts/Ballot/Ballot.sol\":5060:5064  bool */\n      0x00\n        /* \"contracts/Ballot/Ballot.sol\":5084:5115  getVoterRigthToVote(msg.sender) */\n      tag_158\n        /* \"contracts/Ballot/Ballot.sol\":5104:5114  msg.sender */\n      caller\n        /* \"contracts/Ballot/Ballot.sol\":5084:5103  getVoterRigthToVote */\n      tag_159\n        /* \"contracts/Ballot/Ballot.sol\":5084:5115  getVoterRigthToVote(msg.sender) */\n      jump\t// in\n    tag_158:\n        /* \"contracts/Ballot/Ballot.sol\":5077:5115  return getVoterRigthToVote(msg.sender) */\n      swap1\n      pop\n        /* \"contracts/Ballot/Ballot.sol\":5005:5123  function areYouHaveRigthToVote() private view returns (bool) {\r... */\n      swap1\n      jump\t// out\n        /* \"contracts/Ballot/Ballot.sol\":5546:5713  function stringEqualTo(string memory s1, string memory s2) private pure returns (bool) {\r... */\n    tag_120:\n        /* \"contracts/Ballot/Ballot.sol\":5627:5631  bool */\n      0x00\n        /* \"contracts/Ballot/Ballot.sol\":5701:5703  s2 */\n      dup2\n        /* \"contracts/Ballot/Ballot.sol\":5690:5704  abi.encode(s2) */\n      add(0x20, mload(0x40))\n      tag_161\n      swap2\n      swap1\n      tag_162\n      jump\t// in\n    tag_161:\n      mload(0x40)\n      0x20\n      dup2\n      dup4\n      sub\n      sub\n      dup2\n      mstore\n      swap1\n      0x40\n      mstore\n        /* \"contracts/Ballot/Ballot.sol\":5680:5705  keccak256(abi.encode(s2)) */\n      dup1\n      mload\n      swap1\n      0x20\n      add\n      keccak256\n        /* \"contracts/Ballot/Ballot.sol\":5672:5674  s1 */\n      dup4\n        /* \"contracts/Ballot/Ballot.sol\":5661:5675  abi.encode(s1) */\n      add(0x20, mload(0x40))\n      tag_163\n      swap2\n      swap1\n      tag_162\n      jump\t// in\n    tag_163:\n      mload(0x40)\n      0x20\n      dup2\n      dup4\n      sub\n      sub\n      dup2\n      mstore\n      swap1\n      0x40\n      mstore\n        /* \"contracts/Ballot/Ballot.sol\":5651:5676  keccak256(abi.encode(s1)) */\n      dup1\n      mload\n      swap1\n      0x20\n      add\n      keccak256\n        /* \"contracts/Ballot/Ballot.sol\":5651:5705  keccak256(abi.encode(s1)) == keccak256(abi.encode(s2)) */\n      eq\n        /* \"contracts/Ballot/Ballot.sol\":5644:5705  return keccak256(abi.encode(s1)) == keccak256(abi.encode(s2)) */\n      swap1\n      pop\n        /* \"contracts/Ballot/Ballot.sol\":5546:5713  function stringEqualTo(string memory s1, string memory s2) private pure returns (bool) {\r... */\n      swap3\n      swap2\n      pop\n      pop\n      jump\t// out\n        /* \"contracts/Ballot/Ballot.sol\":5382:5510  function getVoterVoted(address voterAddress) private view returns (bool) {\r... */\n    tag_153:\n        /* \"contracts/Ballot/Ballot.sol\":5449:5453  bool */\n      0x00\n        /* \"contracts/Ballot/Ballot.sol\":5473:5479  voters */\n      0x01\n        /* \"contracts/Ballot/Ballot.sol\":5473:5493  voters[voterAddress] */\n      0x00\n        /* \"contracts/Ballot/Ballot.sol\":5480:5492  voterAddress */\n      dup4\n        /* \"contracts/Ballot/Ballot.sol\":5473:5493  voters[voterAddress] */\n      0xffffffffffffffffffffffffffffffffffffffff\n      and\n      0xffffffffffffffffffffffffffffffffffffffff\n      and\n      dup2\n      mstore\n      0x20\n      add\n      swap1\n      dup2\n      mstore\n      0x20\n      add\n      0x00\n      keccak256\n        /* \"contracts/Ballot/Ballot.sol\":5473:5502  voters[voterAddress].hasVoted */\n      0x00\n      add\n      0x01\n      swap1\n      sload\n      swap1\n      0x0100\n      exp\n      swap1\n      div\n      0xff\n      and\n        /* \"contracts/Ballot/Ballot.sol\":5466:5502  return voters[voterAddress].hasVoted */\n      swap1\n      pop\n        /* \"contracts/Ballot/Ballot.sol\":5382:5510  function getVoterVoted(address voterAddress) private view returns (bool) {\r... */\n      swap2\n      swap1\n      pop\n      jump\t// out\n        /* \"contracts/Ballot/Ballot.sol\":5131:5264  function getVoterRigthToVote(address voterAddress) private view returns (bool) {\r... */\n    tag_159:\n        /* \"contracts/Ballot/Ballot.sol\":5204:5208  bool */\n      0x00\n        /* \"contracts/Ballot/Ballot.sol\":5228:5234  voters */\n      0x01\n        /* \"contracts/Ballot/Ballot.sol\":5228:5248  voters[voterAddress] */\n      0x00\n        /* \"contracts/Ballot/Ballot.sol\":5235:5247  voterAddress */\n      dup4\n        /* \"contracts/Ballot/Ballot.sol\":5228:5248  voters[voterAddress] */\n      0xffffffffffffffffffffffffffffffffffffffff\n      and\n      0xffffffffffffffffffffffffffffffffffffffff\n      and\n      dup2\n      mstore\n      0x20\n      add\n      swap1\n      dup2\n      mstore\n      0x20\n      add\n      0x00\n      keccak256\n        /* \"contracts/Ballot/Ballot.sol\":5228:5256  voters[voterAddress].canVote */\n      0x00\n      add\n      0x00\n      swap1\n      sload\n      swap1\n      0x0100\n      exp\n      swap1\n      div\n      0xff\n      and\n        /* \"contracts/Ballot/Ballot.sol\":5221:5256  return voters[voterAddress].canVote */\n      swap1\n      pop\n        /* \"contracts/Ballot/Ballot.sol\":5131:5264  function getVoterRigthToVote(address voterAddress) private view returns (bool) {\r... */\n      swap2\n      swap1\n      pop\n      jump\t// out\n        /* \"#utility.yul\":7:419   */\n    tag_167:\n        /* \"#utility.yul\":85:90   */\n      0x00\n        /* \"#utility.yul\":110:176   */\n      tag_169\n        /* \"#utility.yul\":126:175   */\n      tag_170\n        /* \"#utility.yul\":168:174   */\n      dup5\n        /* \"#utility.yul\":126:175   */\n      tag_171\n      jump\t// in\n    tag_170:\n        /* \"#utility.yul\":110:176   */\n      tag_172\n      jump\t// in\n    tag_169:\n        /* \"#utility.yul\":101:176   */\n      swap1\n      pop\n        /* \"#utility.yul\":199:205   */\n      dup3\n        /* \"#utility.yul\":192:197   */\n      dup2\n        /* \"#utility.yul\":185:206   */\n      mstore\n        /* \"#utility.yul\":237:241   */\n      0x20\n        /* \"#utility.yul\":230:235   */\n      dup2\n        /* \"#utility.yul\":226:242   */\n      add\n        /* \"#utility.yul\":275:278   */\n      dup5\n        /* \"#utility.yul\":266:272   */\n      dup5\n        /* \"#utility.yul\":261:264   */\n      dup5\n        /* \"#utility.yul\":257:273   */\n      add\n        /* \"#utility.yul\":254:279   */\n      gt\n        /* \"#utility.yul\":251:363   */\n      iszero\n      tag_173\n      jumpi\n        /* \"#utility.yul\":282:361   */\n      tag_174\n      tag_175\n      jump\t// in\n    tag_174:\n        /* \"#utility.yul\":251:363   */\n    tag_173:\n        /* \"#utility.yul\":372:413   */\n      tag_176\n        /* \"#utility.yul\":406:412   */\n      dup5\n        /* \"#utility.yul\":401:404   */\n      dup3\n        /* \"#utility.yul\":396:399   */\n      dup6\n        /* \"#utility.yul\":372:413   */\n      tag_177\n      jump\t// in\n    tag_176:\n        /* \"#utility.yul\":91:419   */\n      pop\n        /* \"#utility.yul\":7:419   */\n      swap4\n      swap3\n      pop\n      pop\n      pop\n      jump\t// out\n        /* \"#utility.yul\":425:564   */\n    tag_178:\n        /* \"#utility.yul\":471:476   */\n      0x00\n        /* \"#utility.yul\":509:515   */\n      dup2\n        /* \"#utility.yul\":496:516   */\n      calldataload\n        /* \"#utility.yul\":487:516   */\n      swap1\n      pop\n        /* \"#utility.yul\":525:558   */\n      tag_180\n        /* \"#utility.yul\":552:557   */\n      dup2\n        /* \"#utility.yul\":525:558   */\n      tag_181\n      jump\t// in\n    tag_180:\n        /* \"#utility.yul\":425:564   */\n      swap3\n      swap2\n      pop\n      pop\n      jump\t// out\n        /* \"#utility.yul\":584:924   */\n    tag_182:\n        /* \"#utility.yul\":640:645   */\n      0x00\n        /* \"#utility.yul\":689:692   */\n      dup3\n        /* \"#utility.yul\":682:686   */\n      0x1f\n        /* \"#utility.yul\":674:680   */\n      dup4\n        /* \"#utility.yul\":670:687   */\n      add\n        /* \"#utility.yul\":666:693   */\n      slt\n        /* \"#utility.yul\":656:778   */\n      tag_184\n      jumpi\n        /* \"#utility.yul\":697:776   */\n      tag_185\n      tag_186\n      jump\t// in\n    tag_185:\n        /* \"#utility.yul\":656:778   */\n    tag_184:\n        /* \"#utility.yul\":814:820   */\n      dup2\n        /* \"#utility.yul\":801:821   */\n      calldataload\n        /* \"#utility.yul\":839:918   */\n      tag_187\n        /* \"#utility.yul\":914:917   */\n      dup5\n        /* \"#utility.yul\":906:912   */\n      dup3\n        /* \"#utility.yul\":899:903   */\n      0x20\n        /* \"#utility.yul\":891:897   */\n      dup7\n        /* \"#utility.yul\":887:904   */\n      add\n        /* \"#utility.yul\":839:918   */\n      tag_167\n      jump\t// in\n    tag_187:\n        /* \"#utility.yul\":830:918   */\n      swap2\n      pop\n        /* \"#utility.yul\":646:924   */\n      pop\n        /* \"#utility.yul\":584:924   */\n      swap3\n      swap2\n      pop\n      pop\n      jump\t// out\n        /* \"#utility.yul\":930:1069   */\n    tag_188:\n        /* \"#utility.yul\":976:981   */\n      0x00\n        /* \"#utility.yul\":1014:1020   */\n      dup2\n        /* \"#utility.yul\":1001:1021   */\n      calldataload\n        /* \"#utility.yul\":992:1021   */\n      swap1\n      pop\n        /* \"#utility.yul\":1030:1063   */\n      tag_190\n        /* \"#utility.yul\":1057:1062   */\n      dup2\n        /* \"#utility.yul\":1030:1063   */\n      tag_191\n      jump\t// in\n    tag_190:\n        /* \"#utility.yul\":930:1069   */\n      swap3\n      swap2\n      pop\n      pop\n      jump\t// out\n        /* \"#utility.yul\":1075:1404   */\n    tag_27:\n        /* \"#utility.yul\":1134:1140   */\n      0x00\n        /* \"#utility.yul\":1183:1185   */\n      0x20\n        /* \"#utility.yul\":1171:1180   */\n      dup3\n        /* \"#utility.yul\":1162:1169   */\n      dup5\n        /* \"#utility.yul\":1158:1181   */\n      sub\n        /* \"#utility.yul\":1154:1186   */\n      slt\n        /* \"#utility.yul\":1151:1270   */\n      iszero\n      tag_193\n      jumpi\n        /* \"#utility.yul\":1189:1268   */\n      tag_194\n      tag_195\n      jump\t// in\n    tag_194:\n        /* \"#utility.yul\":1151:1270   */\n    tag_193:\n        /* \"#utility.yul\":1309:1310   */\n      0x00\n        /* \"#utility.yul\":1334:1387   */\n      tag_196\n        /* \"#utility.yul\":1379:1386   */\n      dup5\n        /* \"#utility.yul\":1370:1376   */\n      dup3\n        /* \"#utility.yul\":1359:1368   */\n      dup6\n        /* \"#utility.yul\":1355:1377   */\n      add\n        /* \"#utility.yul\":1334:1387   */\n      tag_178\n      jump\t// in\n    tag_196:\n        /* \"#utility.yul\":1324:1387   */\n      swap2\n      pop\n        /* \"#utility.yul\":1280:1397   */\n      pop\n        /* \"#utility.yul\":1075:1404   */\n      swap3\n      swap2\n      pop\n      pop\n      jump\t// out\n        /* \"#utility.yul\":1410:1919   */\n    tag_40:\n        /* \"#utility.yul\":1479:1485   */\n      0x00\n        /* \"#utility.yul\":1528:1530   */\n      0x20\n        /* \"#utility.yul\":1516:1525   */\n      dup3\n        /* \"#utility.yul\":1507:1514   */\n      dup5\n        /* \"#utility.yul\":1503:1526   */\n      sub\n        /* \"#utility.yul\":1499:1531   */\n      slt\n        /* \"#utility.yul\":1496:1615   */\n      iszero\n      tag_198\n      jumpi\n        /* \"#utility.yul\":1534:1613   */\n      tag_199\n      tag_195\n      jump\t// in\n    tag_199:\n        /* \"#utility.yul\":1496:1615   */\n    tag_198:\n        /* \"#utility.yul\":1682:1683   */\n      0x00\n        /* \"#utility.yul\":1671:1680   */\n      dup3\n        /* \"#utility.yul\":1667:1684   */\n      add\n        /* \"#utility.yul\":1654:1685   */\n      calldataload\n        /* \"#utility.yul\":1712:1730   */\n      0xffffffffffffffff\n        /* \"#utility.yul\":1704:1710   */\n      dup2\n        /* \"#utility.yul\":1701:1731   */\n      gt\n        /* \"#utility.yul\":1698:1815   */\n      iszero\n      tag_200\n      jumpi\n        /* \"#utility.yul\":1734:1813   */\n      tag_201\n      tag_202\n      jump\t// in\n    tag_201:\n        /* \"#utility.yul\":1698:1815   */\n    tag_200:\n        /* \"#utility.yul\":1839:1902   */\n      tag_203\n        /* \"#utility.yul\":1894:1901   */\n      dup5\n        /* \"#utility.yul\":1885:1891   */\n      dup3\n        /* \"#utility.yul\":1874:1883   */\n      dup6\n        /* \"#utility.yul\":1870:1892   */\n      add\n        /* \"#utility.yul\":1839:1902   */\n      tag_182\n      jump\t// in\n    tag_203:\n        /* \"#utility.yul\":1829:1902   */\n      swap2\n      pop\n        /* \"#utility.yul\":1625:1912   */\n      pop\n        /* \"#utility.yul\":1410:1919   */\n      swap3\n      swap2\n      pop\n      pop\n      jump\t// out\n        /* \"#utility.yul\":1925:2254   */\n    tag_21:\n        /* \"#utility.yul\":1984:1990   */\n      0x00\n        /* \"#utility.yul\":2033:2035   */\n      0x20\n        /* \"#utility.yul\":2021:2030   */\n      dup3\n        /* \"#utility.yul\":2012:2019   */\n      dup5\n        /* \"#utility.yul\":2008:2031   */\n      sub\n        /* \"#utility.yul\":2004:2036   */\n      slt\n        /* \"#utility.yul\":2001:2120   */\n      iszero\n      tag_205\n      jumpi\n        /* \"#utility.yul\":2039:2118   */\n      tag_206\n      tag_195\n      jump\t// in\n    tag_206:\n        /* \"#utility.yul\":2001:2120   */\n    tag_205:\n        /* \"#utility.yul\":2159:2160   */\n      0x00\n        /* \"#utility.yul\":2184:2237   */\n      tag_207\n        /* \"#utility.yul\":2229:2236   */\n      dup5\n        /* \"#utility.yul\":2220:2226   */\n      dup3\n        /* \"#utility.yul\":2209:2218   */\n      dup6\n        /* \"#utility.yul\":2205:2227   */\n      add\n        /* \"#utility.yul\":2184:2237   */\n      tag_188\n      jump\t// in\n    tag_207:\n        /* \"#utility.yul\":2174:2237   */\n      swap2\n      pop\n        /* \"#utility.yul\":2130:2247   */\n      pop\n        /* \"#utility.yul\":1925:2254   */\n      swap3\n      swap2\n      pop\n      pop\n      jump\t// out\n        /* \"#utility.yul\":2260:2456   */\n    tag_208:\n        /* \"#utility.yul\":2349:2359   */\n      0x00\n        /* \"#utility.yul\":2384:2450   */\n      tag_210\n        /* \"#utility.yul\":2446:2449   */\n      dup4\n        /* \"#utility.yul\":2438:2444   */\n      dup4\n        /* \"#utility.yul\":2384:2450   */\n      tag_211\n      jump\t// in\n    tag_210:\n        /* \"#utility.yul\":2370:2450   */\n      swap1\n      pop\n        /* \"#utility.yul\":2260:2456   */\n      swap3\n      swap2\n      pop\n      pop\n      jump\t// out\n        /* \"#utility.yul\":2462:2580   */\n    tag_212:\n        /* \"#utility.yul\":2549:2573   */\n      tag_214\n        /* \"#utility.yul\":2567:2572   */\n      dup2\n        /* \"#utility.yul\":2549:2573   */\n      tag_215\n      jump\t// in\n    tag_214:\n        /* \"#utility.yul\":2544:2547   */\n      dup3\n        /* \"#utility.yul\":2537:2574   */\n      mstore\n        /* \"#utility.yul\":2462:2580   */\n      pop\n      pop\n      jump\t// out\n        /* \"#utility.yul\":2614:3605   */\n    tag_216:\n        /* \"#utility.yul\":2753:2756   */\n      0x00\n        /* \"#utility.yul\":2782:2846   */\n      tag_218\n        /* \"#utility.yul\":2840:2845   */\n      dup3\n        /* \"#utility.yul\":2782:2846   */\n      tag_219\n      jump\t// in\n    tag_218:\n        /* \"#utility.yul\":2862:2958   */\n      tag_220\n        /* \"#utility.yul\":2951:2957   */\n      dup2\n        /* \"#utility.yul\":2946:2949   */\n      dup6\n        /* \"#utility.yul\":2862:2958   */\n      tag_221\n      jump\t// in\n    tag_220:\n        /* \"#utility.yul\":2855:2958   */\n      swap4\n      pop\n        /* \"#utility.yul\":2984:2987   */\n      dup4\n        /* \"#utility.yul\":3029:3033   */\n      0x20\n        /* \"#utility.yul\":3021:3027   */\n      dup3\n        /* \"#utility.yul\":3017:3034   */\n      mul\n        /* \"#utility.yul\":3012:3015   */\n      dup6\n        /* \"#utility.yul\":3008:3035   */\n      add\n        /* \"#utility.yul\":3059:3125   */\n      tag_222\n        /* \"#utility.yul\":3119:3124   */\n      dup6\n        /* \"#utility.yul\":3059:3125   */\n      tag_223\n      jump\t// in\n    tag_222:\n        /* \"#utility.yul\":3148:3155   */\n      dup1\n        /* \"#utility.yul\":3179:3180   */\n      0x00\n        /* \"#utility.yul\":3164:3560   */\n    tag_224:\n        /* \"#utility.yul\":3189:3195   */\n      dup6\n        /* \"#utility.yul\":3186:3187   */\n      dup2\n        /* \"#utility.yul\":3183:3196   */\n      lt\n        /* \"#utility.yul\":3164:3560   */\n      iszero\n      tag_226\n      jumpi\n        /* \"#utility.yul\":3260:3269   */\n      dup5\n        /* \"#utility.yul\":3254:3258   */\n      dup5\n        /* \"#utility.yul\":3250:3270   */\n      sub\n        /* \"#utility.yul\":3245:3248   */\n      dup10\n        /* \"#utility.yul\":3238:3271   */\n      mstore\n        /* \"#utility.yul\":3311:3317   */\n      dup2\n        /* \"#utility.yul\":3305:3318   */\n      mload\n        /* \"#utility.yul\":3339:3423   */\n      tag_227\n        /* \"#utility.yul\":3418:3422   */\n      dup6\n        /* \"#utility.yul\":3403:3416   */\n      dup3\n        /* \"#utility.yul\":3339:3423   */\n      tag_208\n      jump\t// in\n    tag_227:\n        /* \"#utility.yul\":3331:3423   */\n      swap5\n      pop\n        /* \"#utility.yul\":3446:3516   */\n      tag_228\n        /* \"#utility.yul\":3509:3515   */\n      dup4\n        /* \"#utility.yul\":3446:3516   */\n      tag_229\n      jump\t// in\n    tag_228:\n        /* \"#utility.yul\":3436:3516   */\n      swap3\n      pop\n        /* \"#utility.yul\":3545:3549   */\n      0x20\n        /* \"#utility.yul\":3540:3543   */\n      dup11\n        /* \"#utility.yul\":3536:3550   */\n      add\n        /* \"#utility.yul\":3529:3550   */\n      swap10\n      pop\n        /* \"#utility.yul\":3224:3560   */\n      pop\n        /* \"#utility.yul\":3211:3212   */\n      0x01\n        /* \"#utility.yul\":3208:3209   */\n      dup2\n        /* \"#utility.yul\":3204:3213   */\n      add\n        /* \"#utility.yul\":3199:3213   */\n      swap1\n      pop\n        /* \"#utility.yul\":3164:3560   */\n      jump(tag_224)\n    tag_226:\n        /* \"#utility.yul\":3168:3182   */\n      pop\n        /* \"#utility.yul\":3576:3580   */\n      dup3\n        /* \"#utility.yul\":3569:3580   */\n      swap8\n      pop\n        /* \"#utility.yul\":3596:3599   */\n      dup8\n        /* \"#utility.yul\":3589:3599   */\n      swap6\n      pop\n        /* \"#utility.yul\":2758:3605   */\n      pop\n      pop\n      pop\n      pop\n      pop\n        /* \"#utility.yul\":2614:3605   */\n      swap3\n      swap2\n      pop\n      pop\n      jump\t// out\n        /* \"#utility.yul\":3611:3720   */\n    tag_230:\n        /* \"#utility.yul\":3692:3713   */\n      tag_232\n        /* \"#utility.yul\":3707:3712   */\n      dup2\n        /* \"#utility.yul\":3692:3713   */\n      tag_233\n      jump\t// in\n    tag_232:\n        /* \"#utility.yul\":3687:3690   */\n      dup3\n        /* \"#utility.yul\":3680:3714   */\n      mstore\n        /* \"#utility.yul\":3611:3720   */\n      pop\n      pop\n      jump\t// out\n        /* \"#utility.yul\":3726:4070   */\n    tag_211:\n        /* \"#utility.yul\":3804:3807   */\n      0x00\n        /* \"#utility.yul\":3832:3871   */\n      tag_235\n        /* \"#utility.yul\":3865:3870   */\n      dup3\n        /* \"#utility.yul\":3832:3871   */\n      tag_236\n      jump\t// in\n    tag_235:\n        /* \"#utility.yul\":3887:3948   */\n      tag_237\n        /* \"#utility.yul\":3941:3947   */\n      dup2\n        /* \"#utility.yul\":3936:3939   */\n      dup6\n        /* \"#utility.yul\":3887:3948   */\n      tag_238\n      jump\t// in\n    tag_237:\n        /* \"#utility.yul\":3880:3948   */\n      swap4\n      pop\n        /* \"#utility.yul\":3957:4009   */\n      tag_239\n        /* \"#utility.yul\":4002:4008   */\n      dup2\n        /* \"#utility.yul\":3997:4000   */\n      dup6\n        /* \"#utility.yul\":3990:3994   */\n      0x20\n        /* \"#utility.yul\":3983:3988   */\n      dup7\n        /* \"#utility.yul\":3979:3995   */\n      add\n        /* \"#utility.yul\":3957:4009   */\n      tag_240\n      jump\t// in\n    tag_239:\n        /* \"#utility.yul\":4034:4063   */\n      tag_241\n        /* \"#utility.yul\":4056:4062   */\n      dup2\n        /* \"#utility.yul\":4034:4063   */\n      tag_242\n      jump\t// in\n    tag_241:\n        /* \"#utility.yul\":4029:4032   */\n      dup5\n        /* \"#utility.yul\":4025:4064   */\n      add\n        /* \"#utility.yul\":4018:4064   */\n      swap2\n      pop\n        /* \"#utility.yul\":3808:4070   */\n      pop\n        /* \"#utility.yul\":3726:4070   */\n      swap3\n      swap2\n      pop\n      pop\n      jump\t// out\n        /* \"#utility.yul\":4076:4440   */\n    tag_243:\n        /* \"#utility.yul\":4164:4167   */\n      0x00\n        /* \"#utility.yul\":4192:4231   */\n      tag_245\n        /* \"#utility.yul\":4225:4230   */\n      dup3\n        /* \"#utility.yul\":4192:4231   */\n      tag_236\n      jump\t// in\n    tag_245:\n        /* \"#utility.yul\":4247:4318   */\n      tag_246\n        /* \"#utility.yul\":4311:4317   */\n      dup2\n        /* \"#utility.yul\":4306:4309   */\n      dup6\n        /* \"#utility.yul\":4247:4318   */\n      tag_247\n      jump\t// in\n    tag_246:\n        /* \"#utility.yul\":4240:4318   */\n      swap4\n      pop\n        /* \"#utility.yul\":4327:4379   */\n      tag_248\n        /* \"#utility.yul\":4372:4378   */\n      dup2\n        /* \"#utility.yul\":4367:4370   */\n      dup6\n        /* \"#utility.yul\":4360:4364   */\n      0x20\n        /* \"#utility.yul\":4353:4358   */\n      dup7\n        /* \"#utility.yul\":4349:4365   */\n      add\n        /* \"#utility.yul\":4327:4379   */\n      tag_240\n      jump\t// in\n    tag_248:\n        /* \"#utility.yul\":4404:4433   */\n      tag_249\n        /* \"#utility.yul\":4426:4432   */\n      dup2\n        /* \"#utility.yul\":4404:4433   */\n      tag_242\n      jump\t// in\n    tag_249:\n        /* \"#utility.yul\":4399:4402   */\n      dup5\n        /* \"#utility.yul\":4395:4434   */\n      add\n        /* \"#utility.yul\":4388:4434   */\n      swap2\n      pop\n        /* \"#utility.yul\":4168:4440   */\n      pop\n        /* \"#utility.yul\":4076:4440   */\n      swap3\n      swap2\n      pop\n      pop\n      jump\t// out\n        /* \"#utility.yul\":4446:4812   */\n    tag_250:\n        /* \"#utility.yul\":4588:4591   */\n      0x00\n        /* \"#utility.yul\":4609:4676   */\n      tag_252\n        /* \"#utility.yul\":4673:4675   */\n      0x2f\n        /* \"#utility.yul\":4668:4671   */\n      dup4\n        /* \"#utility.yul\":4609:4676   */\n      tag_247\n      jump\t// in\n    tag_252:\n        /* \"#utility.yul\":4602:4676   */\n      swap2\n      pop\n        /* \"#utility.yul\":4685:4778   */\n      tag_253\n        /* \"#utility.yul\":4774:4777   */\n      dup3\n        /* \"#utility.yul\":4685:4778   */\n      tag_254\n      jump\t// in\n    tag_253:\n        /* \"#utility.yul\":4803:4805   */\n      0x40\n        /* \"#utility.yul\":4798:4801   */\n      dup3\n        /* \"#utility.yul\":4794:4806   */\n      add\n        /* \"#utility.yul\":4787:4806   */\n      swap1\n      pop\n        /* \"#utility.yul\":4446:4812   */\n      swap2\n      swap1\n      pop\n      jump\t// out\n        /* \"#utility.yul\":4818:5184   */\n    tag_255:\n        /* \"#utility.yul\":4960:4963   */\n      0x00\n        /* \"#utility.yul\":4981:5048   */\n      tag_257\n        /* \"#utility.yul\":5045:5047   */\n      0x2f\n        /* \"#utility.yul\":5040:5043   */\n      dup4\n        /* \"#utility.yul\":4981:5048   */\n      tag_247\n      jump\t// in\n    tag_257:\n        /* \"#utility.yul\":4974:5048   */\n      swap2\n      pop\n        /* \"#utility.yul\":5057:5150   */\n      tag_258\n        /* \"#utility.yul\":5146:5149   */\n      dup3\n        /* \"#utility.yul\":5057:5150   */\n      tag_259\n      jump\t// in\n    tag_258:\n        /* \"#utility.yul\":5175:5177   */\n      0x40\n        /* \"#utility.yul\":5170:5173   */\n      dup3\n        /* \"#utility.yul\":5166:5178   */\n      add\n        /* \"#utility.yul\":5159:5178   */\n      swap1\n      pop\n        /* \"#utility.yul\":4818:5184   */\n      swap2\n      swap1\n      pop\n      jump\t// out\n        /* \"#utility.yul\":5190:5556   */\n    tag_260:\n        /* \"#utility.yul\":5332:5335   */\n      0x00\n        /* \"#utility.yul\":5353:5420   */\n      tag_262\n        /* \"#utility.yul\":5417:5419   */\n      0x14\n        /* \"#utility.yul\":5412:5415   */\n      dup4\n        /* \"#utility.yul\":5353:5420   */\n      tag_247\n      jump\t// in\n    tag_262:\n        /* \"#utility.yul\":5346:5420   */\n      swap2\n      pop\n        /* \"#utility.yul\":5429:5522   */\n      tag_263\n        /* \"#utility.yul\":5518:5521   */\n      dup3\n        /* \"#utility.yul\":5429:5522   */\n      tag_264\n      jump\t// in\n    tag_263:\n        /* \"#utility.yul\":5547:5549   */\n      0x20\n        /* \"#utility.yul\":5542:5545   */\n      dup3\n        /* \"#utility.yul\":5538:5550   */\n      add\n        /* \"#utility.yul\":5531:5550   */\n      swap1\n      pop\n        /* \"#utility.yul\":5190:5556   */\n      swap2\n      swap1\n      pop\n      jump\t// out\n        /* \"#utility.yul\":5562:5928   */\n    tag_265:\n        /* \"#utility.yul\":5704:5707   */\n      0x00\n        /* \"#utility.yul\":5725:5792   */\n      tag_267\n        /* \"#utility.yul\":5789:5791   */\n      0x1a\n        /* \"#utility.yul\":5784:5787   */\n      dup4\n        /* \"#utility.yul\":5725:5792   */\n      tag_247\n      jump\t// in\n    tag_267:\n        /* \"#utility.yul\":5718:5792   */\n      swap2\n      pop\n        /* \"#utility.yul\":5801:5894   */\n      tag_268\n        /* \"#utility.yul\":5890:5893   */\n      dup3\n        /* \"#utility.yul\":5801:5894   */\n      tag_269\n      jump\t// in\n    tag_268:\n        /* \"#utility.yul\":5919:5921   */\n      0x20\n        /* \"#utility.yul\":5914:5917   */\n      dup3\n        /* \"#utility.yul\":5910:5922   */\n      add\n        /* \"#utility.yul\":5903:5922   */\n      swap1\n      pop\n        /* \"#utility.yul\":5562:5928   */\n      swap2\n      swap1\n      pop\n      jump\t// out\n        /* \"#utility.yul\":5934:6300   */\n    tag_270:\n        /* \"#utility.yul\":6076:6079   */\n      0x00\n        /* \"#utility.yul\":6097:6164   */\n      tag_272\n        /* \"#utility.yul\":6161:6163   */\n      0x4c\n        /* \"#utility.yul\":6156:6159   */\n      dup4\n        /* \"#utility.yul\":6097:6164   */\n      tag_247\n      jump\t// in\n    tag_272:\n        /* \"#utility.yul\":6090:6164   */\n      swap2\n      pop\n        /* \"#utility.yul\":6173:6266   */\n      tag_273\n        /* \"#utility.yul\":6262:6265   */\n      dup3\n        /* \"#utility.yul\":6173:6266   */\n      tag_274\n      jump\t// in\n    tag_273:\n        /* \"#utility.yul\":6291:6293   */\n      0x60\n        /* \"#utility.yul\":6286:6289   */\n      dup3\n        /* \"#utility.yul\":6282:6294   */\n      add\n        /* \"#utility.yul\":6275:6294   */\n      swap1\n      pop\n        /* \"#utility.yul\":5934:6300   */\n      swap2\n      swap1\n      pop\n      jump\t// out\n        /* \"#utility.yul\":6306:6424   */\n    tag_275:\n        /* \"#utility.yul\":6393:6417   */\n      tag_277\n        /* \"#utility.yul\":6411:6416   */\n      dup2\n        /* \"#utility.yul\":6393:6417   */\n      tag_278\n      jump\t// in\n    tag_277:\n        /* \"#utility.yul\":6388:6391   */\n      dup3\n        /* \"#utility.yul\":6381:6418   */\n      mstore\n        /* \"#utility.yul\":6306:6424   */\n      pop\n      pop\n      jump\t// out\n        /* \"#utility.yul\":6430:6652   */\n    tag_37:\n        /* \"#utility.yul\":6523:6527   */\n      0x00\n        /* \"#utility.yul\":6561:6563   */\n      0x20\n        /* \"#utility.yul\":6550:6559   */\n      dup3\n        /* \"#utility.yul\":6546:6564   */\n      add\n        /* \"#utility.yul\":6538:6564   */\n      swap1\n      pop\n        /* \"#utility.yul\":6574:6645   */\n      tag_280\n        /* \"#utility.yul\":6642:6643   */\n      0x00\n        /* \"#utility.yul\":6631:6640   */\n      dup4\n        /* \"#utility.yul\":6627:6644   */\n      add\n        /* \"#utility.yul\":6618:6624   */\n      dup5\n        /* \"#utility.yul\":6574:6645   */\n      tag_212\n      jump\t// in\n    tag_280:\n        /* \"#utility.yul\":6430:6652   */\n      swap3\n      swap2\n      pop\n      pop\n      jump\t// out\n        /* \"#utility.yul\":6658:7071   */\n    tag_14:\n        /* \"#utility.yul\":6821:6825   */\n      0x00\n        /* \"#utility.yul\":6859:6861   */\n      0x20\n        /* \"#utility.yul\":6848:6857   */\n      dup3\n        /* \"#utility.yul\":6844:6862   */\n      add\n        /* \"#utility.yul\":6836:6862   */\n      swap1\n      pop\n        /* \"#utility.yul\":6908:6917   */\n      dup2\n        /* \"#utility.yul\":6902:6906   */\n      dup2\n        /* \"#utility.yul\":6898:6918   */\n      sub\n        /* \"#utility.yul\":6894:6895   */\n      0x00\n        /* \"#utility.yul\":6883:6892   */\n      dup4\n        /* \"#utility.yul\":6879:6896   */\n      add\n        /* \"#utility.yul\":6872:6919   */\n      mstore\n        /* \"#utility.yul\":6936:7064   */\n      tag_282\n        /* \"#utility.yul\":7059:7063   */\n      dup2\n        /* \"#utility.yul\":7050:7056   */\n      dup5\n        /* \"#utility.yul\":6936:7064   */\n      tag_216\n      jump\t// in\n    tag_282:\n        /* \"#utility.yul\":6928:7064   */\n      swap1\n      pop\n        /* \"#utility.yul\":6658:7071   */\n      swap3\n      swap2\n      pop\n      pop\n      jump\t// out\n        /* \"#utility.yul\":7077:7385   */\n    tag_33:\n        /* \"#utility.yul\":7186:7190   */\n      0x00\n        /* \"#utility.yul\":7224:7226   */\n      0x40\n        /* \"#utility.yul\":7213:7222   */\n      dup3\n        /* \"#utility.yul\":7209:7227   */\n      add\n        /* \"#utility.yul\":7201:7227   */\n      swap1\n      pop\n        /* \"#utility.yul\":7237:7302   */\n      tag_284\n        /* \"#utility.yul\":7299:7300   */\n      0x00\n        /* \"#utility.yul\":7288:7297   */\n      dup4\n        /* \"#utility.yul\":7284:7301   */\n      add\n        /* \"#utility.yul\":7275:7281   */\n      dup6\n        /* \"#utility.yul\":7237:7302   */\n      tag_230\n      jump\t// in\n    tag_284:\n        /* \"#utility.yul\":7312:7378   */\n      tag_285\n        /* \"#utility.yul\":7374:7376   */\n      0x20\n        /* \"#utility.yul\":7363:7372   */\n      dup4\n        /* \"#utility.yul\":7359:7377   */\n      add\n        /* \"#utility.yul\":7350:7356   */\n      dup5\n        /* \"#utility.yul\":7312:7378   */\n      tag_230\n      jump\t// in\n    tag_285:\n        /* \"#utility.yul\":7077:7385   */\n      swap4\n      swap3\n      pop\n      pop\n      pop\n      jump\t// out\n        /* \"#utility.yul\":7391:7704   */\n    tag_162:\n        /* \"#utility.yul\":7504:7508   */\n      0x00\n        /* \"#utility.yul\":7542:7544   */\n      0x20\n        /* \"#utility.yul\":7531:7540   */\n      dup3\n        /* \"#utility.yul\":7527:7545   */\n      add\n        /* \"#utility.yul\":7519:7545   */\n      swap1\n      pop\n        /* \"#utility.yul\":7591:7600   */\n      dup2\n        /* \"#utility.yul\":7585:7589   */\n      dup2\n        /* \"#utility.yul\":7581:7601   */\n      sub\n        /* \"#utility.yul\":7577:7578   */\n      0x00\n        /* \"#utility.yul\":7566:7575   */\n      dup4\n        /* \"#utility.yul\":7562:7579   */\n      add\n        /* \"#utility.yul\":7555:7602   */\n      mstore\n        /* \"#utility.yul\":7619:7697   */\n      tag_287\n        /* \"#utility.yul\":7692:7696   */\n      dup2\n        /* \"#utility.yul\":7683:7689   */\n      dup5\n        /* \"#utility.yul\":7619:7697   */\n      tag_243\n      jump\t// in\n    tag_287:\n        /* \"#utility.yul\":7611:7697   */\n      swap1\n      pop\n        /* \"#utility.yul\":7391:7704   */\n      swap3\n      swap2\n      pop\n      pop\n      jump\t// out\n        /* \"#utility.yul\":7710:8133   */\n    tag_18:\n        /* \"#utility.yul\":7851:7855   */\n      0x00\n        /* \"#utility.yul\":7889:7891   */\n      0x40\n        /* \"#utility.yul\":7878:7887   */\n      dup3\n        /* \"#utility.yul\":7874:7892   */\n      add\n        /* \"#utility.yul\":7866:7892   */\n      swap1\n      pop\n        /* \"#utility.yul\":7938:7947   */\n      dup2\n        /* \"#utility.yul\":7932:7936   */\n      dup2\n        /* \"#utility.yul\":7928:7948   */\n      sub\n        /* \"#utility.yul\":7924:7925   */\n      0x00\n        /* \"#utility.yul\":7913:7922   */\n      dup4\n        /* \"#utility.yul\":7909:7926   */\n      add\n        /* \"#utility.yul\":7902:7949   */\n      mstore\n        /* \"#utility.yul\":7966:8044   */\n      tag_289\n        /* \"#utility.yul\":8039:8043   */\n      dup2\n        /* \"#utility.yul\":8030:8036   */\n      dup6\n        /* \"#utility.yul\":7966:8044   */\n      tag_243\n      jump\t// in\n    tag_289:\n        /* \"#utility.yul\":7958:8044   */\n      swap1\n      pop\n        /* \"#utility.yul\":8054:8126   */\n      tag_290\n        /* \"#utility.yul\":8122:8124   */\n      0x20\n        /* \"#utility.yul\":8111:8120   */\n      dup4\n        /* \"#utility.yul\":8107:8125   */\n      add\n        /* \"#utility.yul\":8098:8104   */\n      dup5\n        /* \"#utility.yul\":8054:8126   */\n      tag_212\n      jump\t// in\n    tag_290:\n        /* \"#utility.yul\":7710:8133   */\n      swap4\n      swap3\n      pop\n      pop\n      pop\n      jump\t// out\n        /* \"#utility.yul\":8139:8562   */\n    tag_24:\n        /* \"#utility.yul\":8280:8284   */\n      0x00\n        /* \"#utility.yul\":8318:8320   */\n      0x40\n        /* \"#utility.yul\":8307:8316   */\n      dup3\n        /* \"#utility.yul\":8303:8321   */\n      add\n        /* \"#utility.yul\":8295:8321   */\n      swap1\n      pop\n        /* \"#utility.yul\":8367:8376   */\n      dup2\n        /* \"#utility.yul\":8361:8365   */\n      dup2\n        /* \"#utility.yul\":8357:8377   */\n      sub\n        /* \"#utility.yul\":8353:8354   */\n      0x00\n        /* \"#utility.yul\":8342:8351   */\n      dup4\n        /* \"#utility.yul\":8338:8355   */\n      add\n        /* \"#utility.yul\":8331:8378   */\n      mstore\n        /* \"#utility.yul\":8395:8473   */\n      tag_292\n        /* \"#utility.yul\":8468:8472   */\n      dup2\n        /* \"#utility.yul\":8459:8465   */\n      dup6\n        /* \"#utility.yul\":8395:8473   */\n      tag_243\n      jump\t// in\n    tag_292:\n        /* \"#utility.yul\":8387:8473   */\n      swap1\n      pop\n        /* \"#utility.yul\":8483:8555   */\n      tag_293\n        /* \"#utility.yul\":8551:8553   */\n      0x20\n        /* \"#utility.yul\":8540:8549   */\n      dup4\n        /* \"#utility.yul\":8536:8554   */\n      add\n        /* \"#utility.yul\":8527:8533   */\n      dup5\n        /* \"#utility.yul\":8483:8555   */\n      tag_275\n      jump\t// in\n    tag_293:\n        /* \"#utility.yul\":8139:8562   */\n      swap4\n      swap3\n      pop\n      pop\n      pop\n      jump\t// out\n        /* \"#utility.yul\":8568:8987   */\n    tag_149:\n        /* \"#utility.yul\":8734:8738   */\n      0x00\n        /* \"#utility.yul\":8772:8774   */\n      0x20\n        /* \"#utility.yul\":8761:8770   */\n      dup3\n        /* \"#utility.yul\":8757:8775   */\n      add\n        /* \"#utility.yul\":8749:8775   */\n      swap1\n      pop\n        /* \"#utility.yul\":8821:8830   */\n      dup2\n        /* \"#utility.yul\":8815:8819   */\n      dup2\n        /* \"#utility.yul\":8811:8831   */\n      sub\n        /* \"#utility.yul\":8807:8808   */\n      0x00\n        /* \"#utility.yul\":8796:8805   */\n      dup4\n        /* \"#utility.yul\":8792:8809   */\n      add\n        /* \"#utility.yul\":8785:8832   */\n      mstore\n        /* \"#utility.yul\":8849:8980   */\n      tag_295\n        /* \"#utility.yul\":8975:8979   */\n      dup2\n        /* \"#utility.yul\":8849:8980   */\n      tag_250\n      jump\t// in\n    tag_295:\n        /* \"#utility.yul\":8841:8980   */\n      swap1\n      pop\n        /* \"#utility.yul\":8568:8987   */\n      swap2\n      swap1\n      pop\n      jump\t// out\n        /* \"#utility.yul\":8993:9412   */\n    tag_95:\n        /* \"#utility.yul\":9159:9163   */\n      0x00\n        /* \"#utility.yul\":9197:9199   */\n      0x20\n        /* \"#utility.yul\":9186:9195   */\n      dup3\n        /* \"#utility.yul\":9182:9200   */\n      add\n        /* \"#utility.yul\":9174:9200   */\n      swap1\n      pop\n        /* \"#utility.yul\":9246:9255   */\n      dup2\n        /* \"#utility.yul\":9240:9244   */\n      dup2\n        /* \"#utility.yul\":9236:9256   */\n      sub\n        /* \"#utility.yul\":9232:9233   */\n      0x00\n        /* \"#utility.yul\":9221:9230   */\n      dup4\n        /* \"#utility.yul\":9217:9234   */\n      add\n        /* \"#utility.yul\":9210:9257   */\n      mstore\n        /* \"#utility.yul\":9274:9405   */\n      tag_297\n        /* \"#utility.yul\":9400:9404   */\n      dup2\n        /* \"#utility.yul\":9274:9405   */\n      tag_255\n      jump\t// in\n    tag_297:\n        /* \"#utility.yul\":9266:9405   */\n      swap1\n      pop\n        /* \"#utility.yul\":8993:9412   */\n      swap2\n      swap1\n      pop\n      jump\t// out\n        /* \"#utility.yul\":9418:9837   */\n    tag_156:\n        /* \"#utility.yul\":9584:9588   */\n      0x00\n        /* \"#utility.yul\":9622:9624   */\n      0x20\n        /* \"#utility.yul\":9611:9620   */\n      dup3\n        /* \"#utility.yul\":9607:9625   */\n      add\n        /* \"#utility.yul\":9599:9625   */\n      swap1\n      pop\n        /* \"#utility.yul\":9671:9680   */\n      dup2\n        /* \"#utility.yul\":9665:9669   */\n      dup2\n        /* \"#utility.yul\":9661:9681   */\n      sub\n        /* \"#utility.yul\":9657:9658   */\n      0x00\n        /* \"#utility.yul\":9646:9655   */\n      dup4\n        /* \"#utility.yul\":9642:9659   */\n      add\n        /* \"#utility.yul\":9635:9682   */\n      mstore\n        /* \"#utility.yul\":9699:9830   */\n      tag_299\n        /* \"#utility.yul\":9825:9829   */\n      dup2\n        /* \"#utility.yul\":9699:9830   */\n      tag_260\n      jump\t// in\n    tag_299:\n        /* \"#utility.yul\":9691:9830   */\n      swap1\n      pop\n        /* \"#utility.yul\":9418:9837   */\n      swap2\n      swap1\n      pop\n      jump\t// out\n        /* \"#utility.yul\":9843:10262   */\n    tag_105:\n        /* \"#utility.yul\":10009:10013   */\n      0x00\n        /* \"#utility.yul\":10047:10049   */\n      0x20\n        /* \"#utility.yul\":10036:10045   */\n      dup3\n        /* \"#utility.yul\":10032:10050   */\n      add\n        /* \"#utility.yul\":10024:10050   */\n      swap1\n      pop\n        /* \"#utility.yul\":10096:10105   */\n      dup2\n        /* \"#utility.yul\":10090:10094   */\n      dup2\n        /* \"#utility.yul\":10086:10106   */\n      sub\n        /* \"#utility.yul\":10082:10083   */\n      0x00\n        /* \"#utility.yul\":10071:10080   */\n      dup4\n        /* \"#utility.yul\":10067:10084   */\n      add\n        /* \"#utility.yul\":10060:10107   */\n      mstore\n        /* \"#utility.yul\":10124:10255   */\n      tag_301\n        /* \"#utility.yul\":10250:10254   */\n      dup2\n        /* \"#utility.yul\":10124:10255   */\n      tag_265\n      jump\t// in\n    tag_301:\n        /* \"#utility.yul\":10116:10255   */\n      swap1\n      pop\n        /* \"#utility.yul\":9843:10262   */\n      swap2\n      swap1\n      pop\n      jump\t// out\n        /* \"#utility.yul\":10268:10687   */\n    tag_70:\n        /* \"#utility.yul\":10434:10438   */\n      0x00\n        /* \"#utility.yul\":10472:10474   */\n      0x20\n        /* \"#utility.yul\":10461:10470   */\n      dup3\n        /* \"#utility.yul\":10457:10475   */\n      add\n        /* \"#utility.yul\":10449:10475   */\n      swap1\n      pop\n        /* \"#utility.yul\":10521:10530   */\n      dup2\n        /* \"#utility.yul\":10515:10519   */\n      dup2\n        /* \"#utility.yul\":10511:10531   */\n      sub\n        /* \"#utility.yul\":10507:10508   */\n      0x00\n        /* \"#utility.yul\":10496:10505   */\n      dup4\n        /* \"#utility.yul\":10492:10509   */\n      add\n        /* \"#utility.yul\":10485:10532   */\n      mstore\n        /* \"#utility.yul\":10549:10680   */\n      tag_303\n        /* \"#utility.yul\":10675:10679   */\n      dup2\n        /* \"#utility.yul\":10549:10680   */\n      tag_270\n      jump\t// in\n    tag_303:\n        /* \"#utility.yul\":10541:10680   */\n      swap1\n      pop\n        /* \"#utility.yul\":10268:10687   */\n      swap2\n      swap1\n      pop\n      jump\t// out\n        /* \"#utility.yul\":10693:10822   */\n    tag_172:\n        /* \"#utility.yul\":10727:10733   */\n      0x00\n        /* \"#utility.yul\":10754:10774   */\n      tag_305\n      tag_306\n      jump\t// in\n    tag_305:\n        /* \"#utility.yul\":10744:10774   */\n      swap1\n      pop\n        /* \"#utility.yul\":10783:10816   */\n      tag_307\n        /* \"#utility.yul\":10811:10815   */\n      dup3\n        /* \"#utility.yul\":10803:10809   */\n      dup3\n        /* \"#utility.yul\":10783:10816   */\n      tag_308\n      jump\t// in\n    tag_307:\n        /* \"#utility.yul\":10693:10822   */\n      swap2\n      swap1\n      pop\n      jump\t// out\n        /* \"#utility.yul\":10828:10903   */\n    tag_306:\n        /* \"#utility.yul\":10861:10867   */\n      0x00\n        /* \"#utility.yul\":10894:10896   */\n      0x40\n        /* \"#utility.yul\":10888:10897   */\n      mload\n        /* \"#utility.yul\":10878:10897   */\n      swap1\n      pop\n        /* \"#utility.yul\":10828:10903   */\n      swap1\n      jump\t// out\n        /* \"#utility.yul\":10909:11217   */\n    tag_171:\n        /* \"#utility.yul\":10971:10975   */\n      0x00\n        /* \"#utility.yul\":11061:11079   */\n      0xffffffffffffffff\n        /* \"#utility.yul\":11053:11059   */\n      dup3\n        /* \"#utility.yul\":11050:11080   */\n      gt\n        /* \"#utility.yul\":11047:11103   */\n      iszero\n      tag_311\n      jumpi\n        /* \"#utility.yul\":11083:11101   */\n      tag_312\n      tag_45\n      jump\t// in\n    tag_312:\n        /* \"#utility.yul\":11047:11103   */\n    tag_311:\n        /* \"#utility.yul\":11121:11150   */\n      tag_313\n        /* \"#utility.yul\":11143:11149   */\n      dup3\n        /* \"#utility.yul\":11121:11150   */\n      tag_242\n      jump\t// in\n    tag_313:\n        /* \"#utility.yul\":11113:11150   */\n      swap1\n      pop\n        /* \"#utility.yul\":11205:11209   */\n      0x20\n        /* \"#utility.yul\":11199:11203   */\n      dup2\n        /* \"#utility.yul\":11195:11210   */\n      add\n        /* \"#utility.yul\":11187:11210   */\n      swap1\n      pop\n        /* \"#utility.yul\":10909:11217   */\n      swap2\n      swap1\n      pop\n      jump\t// out\n        /* \"#utility.yul\":11223:11365   */\n    tag_223:\n        /* \"#utility.yul\":11300:11304   */\n      0x00\n        /* \"#utility.yul\":11323:11326   */\n      dup2\n        /* \"#utility.yul\":11315:11326   */\n      swap1\n      pop\n        /* \"#utility.yul\":11353:11357   */\n      0x20\n        /* \"#utility.yul\":11348:11351   */\n      dup3\n        /* \"#utility.yul\":11344:11358   */\n      add\n        /* \"#utility.yul\":11336:11358   */\n      swap1\n      pop\n        /* \"#utility.yul\":11223:11365   */\n      swap2\n      swap1\n      pop\n      jump\t// out\n        /* \"#utility.yul\":11371:11495   */\n    tag_219:\n        /* \"#utility.yul\":11448:11454   */\n      0x00\n        /* \"#utility.yul\":11482:11487   */\n      dup2\n        /* \"#utility.yul\":11476:11488   */\n      mload\n        /* \"#utility.yul\":11466:11488   */\n      swap1\n      pop\n        /* \"#utility.yul\":11371:11495   */\n      swap2\n      swap1\n      pop\n      jump\t// out\n        /* \"#utility.yul\":11501:11600   */\n    tag_236:\n        /* \"#utility.yul\":11553:11559   */\n      0x00\n        /* \"#utility.yul\":11587:11592   */\n      dup2\n        /* \"#utility.yul\":11581:11593   */\n      mload\n        /* \"#utility.yul\":11571:11593   */\n      swap1\n      pop\n        /* \"#utility.yul\":11501:11600   */\n      swap2\n      swap1\n      pop\n      jump\t// out\n        /* \"#utility.yul\":11606:11729   */\n    tag_229:\n        /* \"#utility.yul\":11686:11690   */\n      0x00\n        /* \"#utility.yul\":11718:11722   */\n      0x20\n        /* \"#utility.yul\":11713:11716   */\n      dup3\n        /* \"#utility.yul\":11709:11723   */\n      add\n        /* \"#utility.yul\":11701:11723   */\n      swap1\n      pop\n        /* \"#utility.yul\":11606:11729   */\n      swap2\n      swap1\n      pop\n      jump\t// out\n        /* \"#utility.yul\":11735:11929   */\n    tag_221:\n        /* \"#utility.yul\":11844:11855   */\n      0x00\n        /* \"#utility.yul\":11878:11884   */\n      dup3\n        /* \"#utility.yul\":11873:11876   */\n      dup3\n        /* \"#utility.yul\":11866:11885   */\n      mstore\n        /* \"#utility.yul\":11918:11922   */\n      0x20\n        /* \"#utility.yul\":11913:11916   */\n      dup3\n        /* \"#utility.yul\":11909:11923   */\n      add\n        /* \"#utility.yul\":11894:11923   */\n      swap1\n      pop\n        /* \"#utility.yul\":11735:11929   */\n      swap3\n      swap2\n      pop\n      pop\n      jump\t// out\n        /* \"#utility.yul\":11935:12094   */\n    tag_238:\n        /* \"#utility.yul\":12009:12020   */\n      0x00\n        /* \"#utility.yul\":12043:12049   */\n      dup3\n        /* \"#utility.yul\":12038:12041   */\n      dup3\n        /* \"#utility.yul\":12031:12050   */\n      mstore\n        /* \"#utility.yul\":12083:12087   */\n      0x20\n        /* \"#utility.yul\":12078:12081   */\n      dup3\n        /* \"#utility.yul\":12074:12088   */\n      add\n        /* \"#utility.yul\":12059:12088   */\n      swap1\n      pop\n        /* \"#utility.yul\":11935:12094   */\n      swap3\n      swap2\n      pop\n      pop\n      jump\t// out\n        /* \"#utility.yul\":12100:12269   */\n    tag_247:\n        /* \"#utility.yul\":12184:12195   */\n      0x00\n        /* \"#utility.yul\":12218:12224   */\n      dup3\n        /* \"#utility.yul\":12213:12216   */\n      dup3\n        /* \"#utility.yul\":12206:12225   */\n      mstore\n        /* \"#utility.yul\":12258:12262   */\n      0x20\n        /* \"#utility.yul\":12253:12256   */\n      dup3\n        /* \"#utility.yul\":12249:12263   */\n      add\n        /* \"#utility.yul\":12234:12263   */\n      swap1\n      pop\n        /* \"#utility.yul\":12100:12269   */\n      swap3\n      swap2\n      pop\n      pop\n      jump\t// out\n        /* \"#utility.yul\":12275:12371   */\n    tag_215:\n        /* \"#utility.yul\":12312:12319   */\n      0x00\n        /* \"#utility.yul\":12341:12365   */\n      tag_322\n        /* \"#utility.yul\":12359:12364   */\n      dup3\n        /* \"#utility.yul\":12341:12365   */\n      tag_323\n      jump\t// in\n    tag_322:\n        /* \"#utility.yul\":12330:12365   */\n      swap1\n      pop\n        /* \"#utility.yul\":12275:12371   */\n      swap2\n      swap1\n      pop\n      jump\t// out\n        /* \"#utility.yul\":12377:12467   */\n    tag_233:\n        /* \"#utility.yul\":12411:12418   */\n      0x00\n        /* \"#utility.yul\":12454:12459   */\n      dup2\n        /* \"#utility.yul\":12447:12460   */\n      iszero\n        /* \"#utility.yul\":12440:12461   */\n      iszero\n        /* \"#utility.yul\":12429:12461   */\n      swap1\n      pop\n        /* \"#utility.yul\":12377:12467   */\n      swap2\n      swap1\n      pop\n      jump\t// out\n        /* \"#utility.yul\":12473:12599   */\n    tag_323:\n        /* \"#utility.yul\":12510:12517   */\n      0x00\n        /* \"#utility.yul\":12550:12592   */\n      0xffffffffffffffffffffffffffffffffffffffff\n        /* \"#utility.yul\":12543:12548   */\n      dup3\n        /* \"#utility.yul\":12539:12593   */\n      and\n        /* \"#utility.yul\":12528:12593   */\n      swap1\n      pop\n        /* \"#utility.yul\":12473:12599   */\n      swap2\n      swap1\n      pop\n      jump\t// out\n        /* \"#utility.yul\":12605:12682   */\n    tag_278:\n        /* \"#utility.yul\":12642:12649   */\n      0x00\n        /* \"#utility.yul\":12671:12676   */\n      dup2\n        /* \"#utility.yul\":12660:12676   */\n      swap1\n      pop\n        /* \"#utility.yul\":12605:12682   */\n      swap2\n      swap1\n      pop\n      jump\t// out\n        /* \"#utility.yul\":12688:12842   */\n    tag_177:\n        /* \"#utility.yul\":12772:12778   */\n      dup3\n        /* \"#utility.yul\":12767:12770   */\n      dup2\n        /* \"#utility.yul\":12762:12765   */\n      dup4\n        /* \"#utility.yul\":12749:12779   */\n      calldatacopy\n        /* \"#utility.yul\":12834:12835   */\n      0x00\n        /* \"#utility.yul\":12825:12831   */\n      dup4\n        /* \"#utility.yul\":12820:12823   */\n      dup4\n        /* \"#utility.yul\":12816:12832   */\n      add\n        /* \"#utility.yul\":12809:12836   */\n      mstore\n        /* \"#utility.yul\":12688:12842   */\n      pop\n      pop\n      pop\n      jump\t// out\n        /* \"#utility.yul\":12848:13155   */\n    tag_240:\n        /* \"#utility.yul\":12916:12917   */\n      0x00\n        /* \"#utility.yul\":12926:13039   */\n    tag_329:\n        /* \"#utility.yul\":12940:12946   */\n      dup4\n        /* \"#utility.yul\":12937:12938   */\n      dup2\n        /* \"#utility.yul\":12934:12947   */\n      lt\n        /* \"#utility.yul\":12926:13039   */\n      iszero\n      tag_331\n      jumpi\n        /* \"#utility.yul\":13025:13026   */\n      dup1\n        /* \"#utility.yul\":13020:13023   */\n      dup3\n        /* \"#utility.yul\":13016:13027   */\n      add\n        /* \"#utility.yul\":13010:13028   */\n      mload\n        /* \"#utility.yul\":13006:13007   */\n      dup2\n        /* \"#utility.yul\":13001:13004   */\n      dup5\n        /* \"#utility.yul\":12997:13008   */\n      add\n        /* \"#utility.yul\":12990:13029   */\n      mstore\n        /* \"#utility.yul\":12962:12964   */\n      0x20\n        /* \"#utility.yul\":12959:12960   */\n      dup2\n        /* \"#utility.yul\":12955:12965   */\n      add\n        /* \"#utility.yul\":12950:12965   */\n      swap1\n      pop\n        /* \"#utility.yul\":12926:13039   */\n      jump(tag_329)\n    tag_331:\n        /* \"#utility.yul\":13057:13063   */\n      dup4\n        /* \"#utility.yul\":13054:13055   */\n      dup2\n        /* \"#utility.yul\":13051:13064   */\n      gt\n        /* \"#utility.yul\":13048:13149   */\n      iszero\n      tag_332\n      jumpi\n        /* \"#utility.yul\":13137:13138   */\n      0x00\n        /* \"#utility.yul\":13128:13134   */\n      dup5\n        /* \"#utility.yul\":13123:13126   */\n      dup5\n        /* \"#utility.yul\":13119:13135   */\n      add\n        /* \"#utility.yul\":13112:13139   */\n      mstore\n        /* \"#utility.yul\":13048:13149   */\n    tag_332:\n        /* \"#utility.yul\":12897:13155   */\n      pop\n        /* \"#utility.yul\":12848:13155   */\n      pop\n      pop\n      pop\n      jump\t// out\n        /* \"#utility.yul\":13161:13481   */\n    tag_56:\n        /* \"#utility.yul\":13205:13211   */\n      0x00\n        /* \"#utility.yul\":13242:13243   */\n      0x02\n        /* \"#utility.yul\":13236:13240   */\n      dup3\n        /* \"#utility.yul\":13232:13244   */\n      div\n        /* \"#utility.yul\":13222:13244   */\n      swap1\n      pop\n        /* \"#utility.yul\":13289:13290   */\n      0x01\n        /* \"#utility.yul\":13283:13287   */\n      dup3\n        /* \"#utility.yul\":13279:13291   */\n      and\n        /* \"#utility.yul\":13310:13328   */\n      dup1\n        /* \"#utility.yul\":13300:13381   */\n      tag_334\n      jumpi\n        /* \"#utility.yul\":13366:13370   */\n      0x7f\n        /* \"#utility.yul\":13358:13364   */\n      dup3\n        /* \"#utility.yul\":13354:13371   */\n      and\n        /* \"#utility.yul\":13344:13371   */\n      swap2\n      pop\n        /* \"#utility.yul\":13300:13381   */\n    tag_334:\n        /* \"#utility.yul\":13428:13430   */\n      0x20\n        /* \"#utility.yul\":13420:13426   */\n      dup3\n        /* \"#utility.yul\":13417:13431   */\n      lt\n        /* \"#utility.yul\":13397:13415   */\n      dup2\n        /* \"#utility.yul\":13394:13432   */\n      eq\n        /* \"#utility.yul\":13391:13475   */\n      iszero\n      tag_335\n      jumpi\n        /* \"#utility.yul\":13447:13465   */\n      tag_336\n      tag_337\n      jump\t// in\n    tag_336:\n        /* \"#utility.yul\":13391:13475   */\n    tag_335:\n        /* \"#utility.yul\":13212:13481   */\n      pop\n        /* \"#utility.yul\":13161:13481   */\n      swap2\n      swap1\n      pop\n      jump\t// out\n        /* \"#utility.yul\":13487:13768   */\n    tag_308:\n        /* \"#utility.yul\":13570:13597   */\n      tag_339\n        /* \"#utility.yul\":13592:13596   */\n      dup3\n        /* \"#utility.yul\":13570:13597   */\n      tag_242\n      jump\t// in\n    tag_339:\n        /* \"#utility.yul\":13562:13568   */\n      dup2\n        /* \"#utility.yul\":13558:13598   */\n      add\n        /* \"#utility.yul\":13700:13706   */\n      dup2\n        /* \"#utility.yul\":13688:13698   */\n      dup2\n        /* \"#utility.yul\":13685:13707   */\n      lt\n        /* \"#utility.yul\":13664:13682   */\n      0xffffffffffffffff\n        /* \"#utility.yul\":13652:13662   */\n      dup3\n        /* \"#utility.yul\":13649:13683   */\n      gt\n        /* \"#utility.yul\":13646:13708   */\n      or\n        /* \"#utility.yul\":13643:13731   */\n      iszero\n      tag_340\n      jumpi\n        /* \"#utility.yul\":13711:13729   */\n      tag_341\n      tag_45\n      jump\t// in\n    tag_341:\n        /* \"#utility.yul\":13643:13731   */\n    tag_340:\n        /* \"#utility.yul\":13751:13761   */\n      dup1\n        /* \"#utility.yul\":13747:13749   */\n      0x40\n        /* \"#utility.yul\":13740:13762   */\n      mstore\n        /* \"#utility.yul\":13530:13768   */\n      pop\n        /* \"#utility.yul\":13487:13768   */\n      pop\n      pop\n      jump\t// out\n        /* \"#utility.yul\":13774:14007   */\n    tag_64:\n        /* \"#utility.yul\":13813:13816   */\n      0x00\n        /* \"#utility.yul\":13836:13860   */\n      tag_343\n        /* \"#utility.yul\":13854:13859   */\n      dup3\n        /* \"#utility.yul\":13836:13860   */\n      tag_278\n      jump\t// in\n    tag_343:\n        /* \"#utility.yul\":13827:13860   */\n      swap2\n      pop\n        /* \"#utility.yul\":13882:13948   */\n      0xffffffffffffffffffffffffffffffffffffffffffffffffffffffffffffffff\n        /* \"#utility.yul\":13875:13880   */\n      dup3\n        /* \"#utility.yul\":13872:13949   */\n      eq\n        /* \"#utility.yul\":13869:13972   */\n      iszero\n      tag_344\n      jumpi\n        /* \"#utility.yul\":13952:13970   */\n      tag_345\n      tag_346\n      jump\t// in\n    tag_345:\n        /* \"#utility.yul\":13869:13972   */\n    tag_344:\n        /* \"#utility.yul\":13999:14000   */\n      0x01\n        /* \"#utility.yul\":13992:13997   */\n      dup3\n        /* \"#utility.yul\":13988:14001   */\n      add\n        /* \"#utility.yul\":13981:14001   */\n      swap1\n      pop\n        /* \"#utility.yul\":13774:14007   */\n      swap2\n      swap1\n      pop\n      jump\t// out\n        /* \"#utility.yul\":14013:14193   */\n    tag_346:\n        /* \"#utility.yul\":14061:14138   */\n      0x4e487b7100000000000000000000000000000000000000000000000000000000\n        /* \"#utility.yul\":14058:14059   */\n      0x00\n        /* \"#utility.yul\":14051:14139   */\n      mstore\n        /* \"#utility.yul\":14158:14162   */\n      0x11\n        /* \"#utility.yul\":14155:14156   */\n      0x04\n        /* \"#utility.yul\":14148:14163   */\n      mstore\n        /* \"#utility.yul\":14182:14186   */\n      0x24\n        /* \"#utility.yul\":14179:14180   */\n      0x00\n        /* \"#utility.yul\":14172:14187   */\n      revert\n        /* \"#utility.yul\":14199:14379   */\n    tag_337:\n        /* \"#utility.yul\":14247:14324   */\n      0x4e487b7100000000000000000000000000000000000000000000000000000000\n        /* \"#utility.yul\":14244:14245   */\n      0x00\n        /* \"#utility.yul\":14237:14325   */\n      mstore\n        /* \"#utility.yul\":14344:14348   */\n      0x22\n        /* \"#utility.yul\":14341:14342   */\n      0x04\n        /* \"#utility.yul\":14334:14349   */\n      mstore\n        /* \"#utility.yul\":14368:14372   */\n      0x24\n        /* \"#utility.yul\":14365:14366   */\n      0x00\n        /* \"#utility.yul\":14358:14373   */\n      revert\n        /* \"#utility.yul\":14385:14565   */\n    tag_53:\n        /* \"#utility.yul\":14433:14510   */\n      0x4e487b7100000000000000000000000000000000000000000000000000000000\n        /* \"#utility.yul\":14430:14431   */\n      0x00\n        /* \"#utility.yul\":14423:14511   */\n      mstore\n        /* \"#utility.yul\":14530:14534   */\n      0x32\n        /* \"#utility.yul\":14527:14528   */\n      0x04\n        /* \"#utility.yul\":14520:14535   */\n      mstore\n        /* \"#utility.yul\":14554:14558   */\n      0x24\n        /* \"#utility.yul\":14551:14552   */\n      0x00\n        /* \"#utility.yul\":14544:14559   */\n      revert\n        /* \"#utility.yul\":14571:14751   */\n    tag_45:\n        /* \"#utility.yul\":14619:14696   */\n      0x4e487b7100000000000000000000000000000000000000000000000000000000\n        /* \"#utility.yul\":14616:14617   */\n      0x00\n        /* \"#utility.yul\":14609:14697   */\n      mstore\n        /* \"#utility.yul\":14716:14720   */\n      0x41\n        /* \"#utility.yul\":14713:14714   */\n      0x04\n        /* \"#utility.yul\":14706:14721   */\n      mstore\n        /* \"#utility.yul\":14740:14744   */\n      0x24\n        /* \"#utility.yul\":14737:14738   */\n      0x00\n        /* \"#utility.yul\":14730:14745   */\n      revert\n        /* \"#utility.yul\":14757:14874   */\n    tag_186:\n        /* \"#utility.yul\":14866:14867   */\n      0x00\n        /* \"#utility.yul\":14863:14864   */\n      dup1\n        /* \"#utility.yul\":14856:14868   */\n      revert\n        /* \"#utility.yul\":14880:14997   */\n    tag_175:\n        /* \"#utility.yul\":14989:14990   */\n      0x00\n        /* \"#utility.yul\":14986:14987   */\n      dup1\n        /* \"#utility.yul\":14979:14991   */\n      revert\n        /* \"#utility.yul\":15003:15120   */\n    tag_202:\n        /* \"#utility.yul\":15112:15113   */\n      0x00\n        /* \"#utility.yul\":15109:15110   */\n      dup1\n        /* \"#utility.yul\":15102:15114   */\n      revert\n        /* \"#utility.yul\":15126:15243   */\n    tag_195:\n        /* \"#utility.yul\":15235:15236   */\n      0x00\n        /* \"#utility.yul\":15232:15233   */\n      dup1\n        /* \"#utility.yul\":15225:15237   */\n      revert\n        /* \"#utility.yul\":15249:15351   */\n    tag_242:\n        /* \"#utility.yul\":15290:15296   */\n      0x00\n        /* \"#utility.yul\":15341:15343   */\n      0x1f\n        /* \"#utility.yul\":15337:15344   */\n      not\n        /* \"#utility.yul\":15332:15334   */\n      0x1f\n        /* \"#utility.yul\":15325:15330   */\n      dup4\n        /* \"#utility.yul\":15321:15335   */\n      add\n        /* \"#utility.yul\":15317:15345   */\n      and\n        /* \"#utility.yul\":15307:15345   */\n      swap1\n      pop\n        /* \"#utility.yul\":15249:15351   */\n      swap2\n      swap1\n      pop\n      jump\t// out\n        /* \"#utility.yul\":15357:15591   */\n    tag_254:\n        /* \"#utility.yul\":15497:15531   */\n      0x4d6178206163636f756e7420766f74657320697320726561636865642e204261\n        /* \"#utility.yul\":15493:15494   */\n      0x00\n        /* \"#utility.yul\":15485:15491   */\n      dup3\n        /* \"#utility.yul\":15481:15495   */\n      add\n        /* \"#utility.yul\":15474:15532   */\n      mstore\n        /* \"#utility.yul\":15566:15583   */\n      0x6c6c6f7420697320434c4f5345442e0000000000000000000000000000000000\n        /* \"#utility.yul\":15561:15563   */\n      0x20\n        /* \"#utility.yul\":15553:15559   */\n      dup3\n        /* \"#utility.yul\":15549:15564   */\n      add\n        /* \"#utility.yul\":15542:15584   */\n      mstore\n        /* \"#utility.yul\":15357:15591   */\n      pop\n      jump\t// out\n        /* \"#utility.yul\":15597:15831   */\n    tag_259:\n        /* \"#utility.yul\":15737:15771   */\n      0x4f6e6c792074686520636f6e7472616374206f776e65722063616e2067697665\n        /* \"#utility.yul\":15733:15734   */\n      0x00\n        /* \"#utility.yul\":15725:15731   */\n      dup3\n        /* \"#utility.yul\":15721:15735   */\n      add\n        /* \"#utility.yul\":15714:15772   */\n      mstore\n        /* \"#utility.yul\":15806:15823   */\n      0x20726967687420746f20766f74652e0000000000000000000000000000000000\n        /* \"#utility.yul\":15801:15803   */\n      0x20\n        /* \"#utility.yul\":15793:15799   */\n      dup3\n        /* \"#utility.yul\":15789:15804   */\n      add\n        /* \"#utility.yul\":15782:15824   */\n      mstore\n        /* \"#utility.yul\":15597:15831   */\n      pop\n      jump\t// out\n        /* \"#utility.yul\":15837:16007   */\n    tag_264:\n        /* \"#utility.yul\":15977:15999   */\n      0x566f74657220616c726561647920766f7465642e000000000000000000000000\n        /* \"#utility.yul\":15973:15974   */\n      0x00\n        /* \"#utility.yul\":15965:15971   */\n      dup3\n        /* \"#utility.yul\":15961:15975   */\n      add\n        /* \"#utility.yul\":15954:16000   */\n      mstore\n        /* \"#utility.yul\":15837:16007   */\n      pop\n      jump\t// out\n        /* \"#utility.yul\":16013:16189   */\n    tag_269:\n        /* \"#utility.yul\":16153:16181   */\n      0x596f752068617665206e6f7420726967687420746f20766f7465000000000000\n        /* \"#utility.yul\":16149:16150   */\n      0x00\n        /* \"#utility.yul\":16141:16147   */\n      dup3\n        /* \"#utility.yul\":16137:16151   */\n      add\n        /* \"#utility.yul\":16130:16182   */\n      mstore\n        /* \"#utility.yul\":16013:16189   */\n      pop\n      jump\t// out\n        /* \"#utility.yul\":16195:16495   */\n    tag_274:\n        /* \"#utility.yul\":16335:16369   */\n      0x5468657265206973206120746965206f6e2042616c6c6f742e20596f75207368\n        /* \"#utility.yul\":16331:16332   */\n      0x00\n        /* \"#utility.yul\":16323:16329   */\n      dup3\n        /* \"#utility.yul\":16319:16333   */\n      add\n        /* \"#utility.yul\":16312:16370   */\n      mstore\n        /* \"#utility.yul\":16404:16438   */\n      0x6f756c642073746172742061206e65772062616c6c6f74207769746820746965\n        /* \"#utility.yul\":16399:16401   */\n      0x20\n        /* \"#utility.yul\":16391:16397   */\n      dup3\n        /* \"#utility.yul\":16387:16402   */\n      add\n        /* \"#utility.yul\":16380:16439   */\n      mstore\n        /* \"#utility.yul\":16473:16487   */\n      0x2063616e646964617465732e0000000000000000000000000000000000000000\n        /* \"#utility.yul\":16468:16470   */\n      0x40\n        /* \"#utility.yul\":16460:16466   */\n      dup3\n        /* \"#utility.yul\":16456:16471   */\n      add\n        /* \"#utility.yul\":16449:16488   */\n      mstore\n        /* \"#utility.yul\":16195:16495   */\n      pop\n      jump\t// out\n        /* \"#utility.yul\":16501:16623   */\n    tag_181:\n        /* \"#utility.yul\":16574:16598   */\n      tag_362\n        /* \"#utility.yul\":16592:16597   */\n      dup2\n        /* \"#utility.yul\":16574:16598   */\n      tag_215\n      jump\t// in\n    tag_362:\n        /* \"#utility.yul\":16567:16572   */\n      dup2\n        /* \"#utility.yul\":16564:16599   */\n      eq\n        /* \"#utility.yul\":16554:16617   */\n      tag_363\n      jumpi\n        /* \"#utility.yul\":16613:16614   */\n      0x00\n        /* \"#utility.yul\":16610:16611   */\n      dup1\n        /* \"#utility.yul\":16603:16615   */\n      revert\n        /* \"#utility.yul\":16554:16617   */\n    tag_363:\n        /* \"#utility.yul\":16501:16623   */\n      pop\n      jump\t// out\n        /* \"#utility.yul\":16629:16751   */\n    tag_191:\n        /* \"#utility.yul\":16702:16726   */\n      tag_365\n        /* \"#utility.yul\":16720:16725   */\n      dup2\n        /* \"#utility.yul\":16702:16726   */\n      tag_278\n      jump\t// in\n    tag_365:\n        /* \"#utility.yul\":16695:16700   */\n      dup2\n        /* \"#utility.yul\":16692:16727   */\n      eq\n        /* \"#utility.yul\":16682:16745   */\n      tag_366\n      jumpi\n        /* \"#utility.yul\":16741:16742   */\n      0x00\n        /* \"#utility.yul\":16738:16739   */\n      dup1\n        /* \"#utility.yul\":16731:16743   */\n      revert\n        /* \"#utility.yul\":16682:16745   */\n    tag_366:\n        /* \"#utility.yul\":16629:16751   */\n      pop\n      jump\t// out\n\n    auxdata: 0xa264697066735822122095ad9885bb76e08bd620b985b97fc366504f11595a52acb56921e6874da7187a64736f6c63430008070033\n}\n",
				"bytecode": {
					"linkReferences": {},
					"object": "60806040523480156200001157600080fd5b5060405162001a0a38038062001a0a83398181016040528101906200003791906200035b565b336000806101000a81548173ffffffffffffffffffffffffffffffffffffffff021916908373ffffffffffffffffffffffffffffffffffffffff16021790555062000088826200009760201b60201c565b80600481905550505062000649565b60005b8151811015620001435760026040518060400160405280848481518110620000c757620000c6620005a7565b5b602002602001015181526020016000815250908060018154018082558091505060019003906000526020600020906002020160009091909190915060008201518160000190805190602001906200012092919062000147565b5060208201518160010155505080806200013a90620004fb565b9150506200009a565b5050565b82805462000155906200048f565b90600052602060002090601f016020900481019282620001795760008555620001c5565b82601f106200019457805160ff1916838001178555620001c5565b82800160010185558215620001c5579182015b82811115620001c4578251825591602001919060010190620001a7565b5b509050620001d49190620001d8565b5090565b5b80821115620001f3576000816000905550600101620001d9565b5090565b60006200020e6200020884620003ea565b620003c1565b905080838252602082019050828560208602820111156200023457620002336200060a565b5b60005b858110156200028957815167ffffffffffffffff8111156200025e576200025d62000605565b5b8086016200026d898262000311565b8552602085019450602084019350505060018101905062000237565b5050509392505050565b6000620002aa620002a48462000419565b620003c1565b905082815260208101848484011115620002c957620002c86200060f565b5b620002d684828562000459565b509392505050565b600082601f830112620002f657620002f562000605565b5b815162000308848260208601620001f7565b91505092915050565b600082601f83011262000329576200032862000605565b5b81516200033b84826020860162000293565b91505092915050565b60008151905062000355816200062f565b92915050565b6000806040838503121562000375576200037462000619565b5b600083015167ffffffffffffffff81111562000396576200039562000614565b5b620003a485828601620002de565b9250506020620003b78582860162000344565b9150509250929050565b6000620003cd620003e0565b9050620003db8282620004c5565b919050565b6000604051905090565b600067ffffffffffffffff821115620004085762000407620005d6565b5b602082029050602081019050919050565b600067ffffffffffffffff821115620004375762000436620005d6565b5b62000442826200061e565b9050602081019050919050565b6000819050919050565b60005b83811015620004795780820151818401526020810190506200045c565b8381111562000489576000848401525b50505050565b60006002820490506001821680620004a857607f821691505b60208210811415620004bf57620004be62000578565b5b50919050565b620004d0826200061e565b810181811067ffffffffffffffff82111715620004f257620004f1620005d6565b5b80604052505050565b600062000508826200044f565b91507fffffffffffffffffffffffffffffffffffffffffffffffffffffffffffffffff8214156200053e576200053d62000549565b5b600182019050919050565b7f4e487b7100000000000000000000000000000000000000000000000000000000600052601160045260246000fd5b7f4e487b7100000000000000000000000000000000000000000000000000000000600052602260045260246000fd5b7f4e487b7100000000000000000000000000000000000000000000000000000000600052603260045260246000fd5b7f4e487b7100000000000000000000000000000000000000000000000000000000600052604160045260246000fd5b600080fd5b600080fd5b600080fd5b600080fd5b600080fd5b6000601f19601f8301169050919050565b6200063a816200044f565b81146200064657600080fd5b50565b6113b180620006596000396000f3fe608060405234801561001057600080fd5b506004361061007d5760003560e01c80639e7b8d611161005b5780639e7b8d61146100f0578063a3ec138d1461010c578063ce606ee01461013d578063fc36e15b1461015b5761007d565b8063011d1023146100825780632bfda515146100a05780633477ee2e146100bf575b600080fd5b61008a610177565b6040516100979190610da8565b60405180910390f35b6100a86102c8565b6040516100b6929190610e15565b60405180910390f35b6100d960048036038101906100d49190610b89565b6103df565b6040516100e7929190610e45565b60405180910390f35b61010a60048036038101906101059190610b13565b61049b565b005b61012660048036038101906101219190610b13565b610552565b604051610134929190610dca565b60405180910390f35b610145610590565b6040516101529190610d8d565b60405180910390f35b61017560048036038101906101709190610b40565b6105b4565b005b60606000600280549050905060008167ffffffffffffffff81111561019f5761019e611194565b5b6040519080825280602002602001820160405280156101d257816020015b60608152602001906001900390816101bd5790505b50905060005b828110156102bf57600281815481106101f4576101f3611165565b5b906000526020600020906002020160000180546102109061105b565b80601f016020809104026020016040519081016040528092919081815260200182805461023c9061105b565b80156102895780601f1061025e57610100808354040283529160200191610289565b820191906000526020600020905b81548152906001019060200180831161026c57829003601f168201915b50505050508282815181106102a1576102a0611165565b5b602002602001018190525080806102b7906110be565b9150506101d8565b50809250505090565b606060008060006102d76107a6565b91509150801561031c576040517f08c379a000000000000000000000000000000000000000000000000000000000815260040161031390610ef5565b60405180910390fd5b600282815481106103305761032f611165565b5b9060005260206000209060020201600001805461034c9061105b565b80601f01602080910402602001604051908101604052809291908181526020018280546103789061105b565b80156103c55780601f1061039a576101008083540402835291602001916103c5565b820191906000526020600020905b8154815290600101906020018083116103a857829003601f168201915b50505050509350836103d561086b565b9350935050509091565b600281815481106103ef57600080fd5b90600052602060002090600202016000915090508060000180546104129061105b565b80601f016020809104026020016040519081016040528092919081815260200182805461043e9061105b565b801561048b5780601f106104605761010080835404028352916020019161048b565b820191906000526020600020905b81548152906001019060200180831161046e57829003601f168201915b5050505050908060010154905082565b806104a4610873565b6104ac6108bb565b6104eb576040517f08c379a00000000000000000000000000000000000000000000000000000000081526004016104e290610e95565b60405180910390fd5b6104f481610912565b60018060008473ffffffffffffffffffffffffffffffffffffffff1673ffffffffffffffffffffffffffffffffffffffff16815260200190815260200160002060000160006101000a81548160ff0219169083151502179055505050565b60016020528060005260406000206000915090508060000160009054906101000a900460ff16908060000160019054906101000a900460ff16905082565b60008054906101000a900473ffffffffffffffffffffffffffffffffffffffff1681565b336105bd610873565b6105c561095e565b610604576040517f08c379a00000000000000000000000000000000000000000000000000000000081526004016105fb90610ed5565b60405180910390fd5b61060d81610912565b6000600160003373ffffffffffffffffffffffffffffffffffffffff1673ffffffffffffffffffffffffffffffffffffffff168152602001908152602001600020905060005b6002805490508110156107a0576107176002828154811061067757610676611165565b5b906000526020600020906002020160000180546106939061105b565b80601f01602080910402602001604051908101604052809291908181526020018280546106bf9061105b565b801561070c5780601f106106e15761010080835404028352916020019161070c565b820191906000526020600020905b8154815290600101906020018083116106ef57829003601f168201915b50505050508561096e565b1561078d57600281815481106107305761072f611165565b5b90600052602060002090600202016001016000815480929190610752906110be565b919050555060018260000160016101000a81548160ff02191690831515021790555060036000815480929190610787906110be565b91905055505b8080610798906110be565b915050610653565b50505050565b600080600080600090505b6002805490508110156108655781600282815481106107d3576107d2611165565b5b906000526020600020906002020160010154111561081f57600281815481106107ff576107fe611165565b5b906000526020600020906002020160010154915080935060009250610852565b816002828154811061083457610833611165565b5b906000526020600020906002020160010154141561085157600192505b5b808061085d906110be565b9150506107b1565b50509091565b600030905090565b600454600354106108b9576040517f08c379a00000000000000000000000000000000000000000000000000000000081526004016108b090610e75565b60405180910390fd5b565b60008060009054906101000a900473ffffffffffffffffffffffffffffffffffffffff1673ffffffffffffffffffffffffffffffffffffffff163373ffffffffffffffffffffffffffffffffffffffff1614905090565b61091b816109c7565b1561095b576040517f08c379a000000000000000000000000000000000000000000000000000000000815260040161095290610eb5565b60405180910390fd5b50565b600061096933610a20565b905090565b6000816040516020016109819190610df3565b60405160208183030381529060405280519060200120836040516020016109a89190610df3565b6040516020818303038152906040528051906020012014905092915050565b6000600160008373ffffffffffffffffffffffffffffffffffffffff1673ffffffffffffffffffffffffffffffffffffffff16815260200190815260200160002060000160019054906101000a900460ff169050919050565b6000600160008373ffffffffffffffffffffffffffffffffffffffff1673ffffffffffffffffffffffffffffffffffffffff16815260200190815260200160002060000160009054906101000a900460ff169050919050565b6000610a8c610a8784610f3a565b610f15565b905082815260208101848484011115610aa857610aa76111c8565b5b610ab3848285611019565b509392505050565b600081359050610aca8161134d565b92915050565b600082601f830112610ae557610ae46111c3565b5b8135610af5848260208601610a79565b91505092915050565b600081359050610b0d81611364565b92915050565b600060208284031215610b2957610b286111d2565b5b6000610b3784828501610abb565b91505092915050565b600060208284031215610b5657610b556111d2565b5b600082013567ffffffffffffffff811115610b7457610b736111cd565b5b610b8084828501610ad0565b91505092915050565b600060208284031215610b9f57610b9e6111d2565b5b6000610bad84828501610afe565b91505092915050565b6000610bc28383610c5d565b905092915050565b610bd381610fd1565b82525050565b6000610be482610f7b565b610bee8185610f9e565b935083602082028501610c0085610f6b565b8060005b85811015610c3c5784840389528151610c1d8582610bb6565b9450610c2883610f91565b925060208a01995050600181019050610c04565b50829750879550505050505092915050565b610c5781610fe3565b82525050565b6000610c6882610f86565b610c728185610faf565b9350610c82818560208601611028565b610c8b816111d7565b840191505092915050565b6000610ca182610f86565b610cab8185610fc0565b9350610cbb818560208601611028565b610cc4816111d7565b840191505092915050565b6000610cdc602f83610fc0565b9150610ce7826111e8565b604082019050919050565b6000610cff602f83610fc0565b9150610d0a82611237565b604082019050919050565b6000610d22601483610fc0565b9150610d2d82611286565b602082019050919050565b6000610d45601a83610fc0565b9150610d50826112af565b602082019050919050565b6000610d68604c83610fc0565b9150610d73826112d8565b606082019050919050565b610d878161100f565b82525050565b6000602082019050610da26000830184610bca565b92915050565b60006020820190508181036000830152610dc28184610bd9565b905092915050565b6000604082019050610ddf6000830185610c4e565b610dec6020830184610c4e565b9392505050565b60006020820190508181036000830152610e0d8184610c96565b905092915050565b60006040820190508181036000830152610e2f8185610c96565b9050610e3e6020830184610bca565b9392505050565b60006040820190508181036000830152610e5f8185610c96565b9050610e6e6020830184610d7e565b9392505050565b60006020820190508181036000830152610e8e81610ccf565b9050919050565b60006020820190508181036000830152610eae81610cf2565b9050919050565b60006020820190508181036000830152610ece81610d15565b9050919050565b60006020820190508181036000830152610eee81610d38565b9050919050565b60006020820190508181036000830152610f0e81610d5b565b9050919050565b6000610f1f610f30565b9050610f2b828261108d565b919050565b6000604051905090565b600067ffffffffffffffff821115610f5557610f54611194565b5b610f5e826111d7565b9050602081019050919050565b6000819050602082019050919050565b600081519050919050565b600081519050919050565b6000602082019050919050565b600082825260208201905092915050565b600082825260208201905092915050565b600082825260208201905092915050565b6000610fdc82610fef565b9050919050565b60008115159050919050565b600073ffffffffffffffffffffffffffffffffffffffff82169050919050565b6000819050919050565b82818337600083830152505050565b60005b8381101561104657808201518184015260208101905061102b565b83811115611055576000848401525b50505050565b6000600282049050600182168061107357607f821691505b6020821081141561108757611086611136565b5b50919050565b611096826111d7565b810181811067ffffffffffffffff821117156110b5576110b4611194565b5b80604052505050565b60006110c98261100f565b91507fffffffffffffffffffffffffffffffffffffffffffffffffffffffffffffffff8214156110fc576110fb611107565b5b600182019050919050565b7f4e487b7100000000000000000000000000000000000000000000000000000000600052601160045260246000fd5b7f4e487b7100000000000000000000000000000000000000000000000000000000600052602260045260246000fd5b7f4e487b7100000000000000000000000000000000000000000000000000000000600052603260045260246000fd5b7f4e487b7100000000000000000000000000000000000000000000000000000000600052604160045260246000fd5b600080fd5b600080fd5b600080fd5b600080fd5b6000601f19601f8301169050919050565b7f4d6178206163636f756e7420766f74657320697320726561636865642e20426160008201527f6c6c6f7420697320434c4f5345442e0000000000000000000000000000000000602082015250565b7f4f6e6c792074686520636f6e7472616374206f776e65722063616e206769766560008201527f20726967687420746f20766f74652e0000000000000000000000000000000000602082015250565b7f566f74657220616c726561647920766f7465642e000000000000000000000000600082015250565b7f596f752068617665206e6f7420726967687420746f20766f7465000000000000600082015250565b7f5468657265206973206120746965206f6e2042616c6c6f742e20596f7520736860008201527f6f756c642073746172742061206e65772062616c6c6f7420776974682074696560208201527f2063616e646964617465732e0000000000000000000000000000000000000000604082015250565b61135681610fd1565b811461136157600080fd5b50565b61136d8161100f565b811461137857600080fd5b5056fea264697066735822122095ad9885bb76e08bd620b985b97fc366504f11595a52acb56921e6874da7187a64736f6c63430008070033",
					"opcodes": "PUSH1 0x80 PUSH1 0x40 MSTORE CALLVALUE DUP1 ISZERO PUSH3 0x11 JUMPI PUSH1 0x0 DUP1 REVERT JUMPDEST POP PUSH1 0x40 MLOAD PUSH3 0x1A0A CODESIZE SUB DUP1 PUSH3 0x1A0A DUP4 CODECOPY DUP2 DUP2 ADD PUSH1 0x40 MSTORE DUP2 ADD SWAP1 PUSH3 0x37 SWAP2 SWAP1 PUSH3 0x35B JUMP JUMPDEST CALLER PUSH1 0x0 DUP1 PUSH2 0x100 EXP DUP2 SLOAD DUP2 PUSH20 0xFFFFFFFFFFFFFFFFFFFFFFFFFFFFFFFFFFFFFFFF MUL NOT AND SWAP1 DUP4 PUSH20 0xFFFFFFFFFFFFFFFFFFFFFFFFFFFFFFFFFFFFFFFF AND MUL OR SWAP1 SSTORE POP PUSH3 0x88 DUP3 PUSH3 0x97 PUSH1 0x20 SHL PUSH1 0x20 SHR JUMP JUMPDEST DUP1 PUSH1 0x4 DUP2 SWAP1 SSTORE POP POP POP PUSH3 0x649 JUMP JUMPDEST PUSH1 0x0 JUMPDEST DUP2 MLOAD DUP2 LT ISZERO PUSH3 0x143 JUMPI PUSH1 0x2 PUSH1 0x40 MLOAD DUP1 PUSH1 0x40 ADD PUSH1 0x40 MSTORE DUP1 DUP5 DUP5 DUP2 MLOAD DUP2 LT PUSH3 0xC7 JUMPI PUSH3 0xC6 PUSH3 0x5A7 JUMP JUMPDEST JUMPDEST PUSH1 0x20 MUL PUSH1 0x20 ADD ADD MLOAD DUP2 MSTORE PUSH1 0x20 ADD PUSH1 0x0 DUP2 MSTORE POP SWAP1 DUP1 PUSH1 0x1 DUP2 SLOAD ADD DUP1 DUP3 SSTORE DUP1 SWAP2 POP POP PUSH1 0x1 SWAP1 SUB SWAP1 PUSH1 0x0 MSTORE PUSH1 0x20 PUSH1 0x0 KECCAK256 SWAP1 PUSH1 0x2 MUL ADD PUSH1 0x0 SWAP1 SWAP2 SWAP1 SWAP2 SWAP1 SWAP2 POP PUSH1 0x0 DUP3 ADD MLOAD DUP2 PUSH1 0x0 ADD SWAP1 DUP1 MLOAD SWAP1 PUSH1 0x20 ADD SWAP1 PUSH3 0x120 SWAP3 SWAP2 SWAP1 PUSH3 0x147 JUMP JUMPDEST POP PUSH1 0x20 DUP3 ADD MLOAD DUP2 PUSH1 0x1 ADD SSTORE POP POP DUP1 DUP1 PUSH3 0x13A SWAP1 PUSH3 0x4FB JUMP JUMPDEST SWAP2 POP POP PUSH3 0x9A JUMP JUMPDEST POP POP JUMP JUMPDEST DUP3 DUP1 SLOAD PUSH3 0x155 SWAP1 PUSH3 0x48F JUMP JUMPDEST SWAP1 PUSH1 0x0 MSTORE PUSH1 0x20 PUSH1 0x0 KECCAK256 SWAP1 PUSH1 0x1F ADD PUSH1 0x20 SWAP1 DIV DUP2 ADD SWAP3 DUP3 PUSH3 0x179 JUMPI PUSH1 0x0 DUP6 SSTORE PUSH3 0x1C5 JUMP JUMPDEST DUP3 PUSH1 0x1F LT PUSH3 0x194 JUMPI DUP1 MLOAD PUSH1 0xFF NOT AND DUP4 DUP1 ADD OR DUP6 SSTORE PUSH3 0x1C5 JUMP JUMPDEST DUP3 DUP1 ADD PUSH1 0x1 ADD DUP6 SSTORE DUP3 ISZERO PUSH3 0x1C5 JUMPI SWAP2 DUP3 ADD JUMPDEST DUP3 DUP2 GT ISZERO PUSH3 0x1C4 JUMPI DUP3 MLOAD DUP3 SSTORE SWAP2 PUSH1 0x20 ADD SWAP2 SWAP1 PUSH1 0x1 ADD SWAP1 PUSH3 0x1A7 JUMP JUMPDEST JUMPDEST POP SWAP1 POP PUSH3 0x1D4 SWAP2 SWAP1 PUSH3 0x1D8 JUMP JUMPDEST POP SWAP1 JUMP JUMPDEST JUMPDEST DUP1 DUP3 GT ISZERO PUSH3 0x1F3 JUMPI PUSH1 0x0 DUP2 PUSH1 0x0 SWAP1 SSTORE POP PUSH1 0x1 ADD PUSH3 0x1D9 JUMP JUMPDEST POP SWAP1 JUMP JUMPDEST PUSH1 0x0 PUSH3 0x20E PUSH3 0x208 DUP5 PUSH3 0x3EA JUMP JUMPDEST PUSH3 0x3C1 JUMP JUMPDEST SWAP1 POP DUP1 DUP4 DUP3 MSTORE PUSH1 0x20 DUP3 ADD SWAP1 POP DUP3 DUP6 PUSH1 0x20 DUP7 MUL DUP3 ADD GT ISZERO PUSH3 0x234 JUMPI PUSH3 0x233 PUSH3 0x60A JUMP JUMPDEST JUMPDEST PUSH1 0x0 JUMPDEST DUP6 DUP2 LT ISZERO PUSH3 0x289 JUMPI DUP2 MLOAD PUSH8 0xFFFFFFFFFFFFFFFF DUP2 GT ISZERO PUSH3 0x25E JUMPI PUSH3 0x25D PUSH3 0x605 JUMP JUMPDEST JUMPDEST DUP1 DUP7 ADD PUSH3 0x26D DUP10 DUP3 PUSH3 0x311 JUMP JUMPDEST DUP6 MSTORE PUSH1 0x20 DUP6 ADD SWAP5 POP PUSH1 0x20 DUP5 ADD SWAP4 POP POP POP PUSH1 0x1 DUP2 ADD SWAP1 POP PUSH3 0x237 JUMP JUMPDEST POP POP POP SWAP4 SWAP3 POP POP POP JUMP JUMPDEST PUSH1 0x0 PUSH3 0x2AA PUSH3 0x2A4 DUP5 PUSH3 0x419 JUMP JUMPDEST PUSH3 0x3C1 JUMP JUMPDEST SWAP1 POP DUP3 DUP2 MSTORE PUSH1 0x20 DUP2 ADD DUP5 DUP5 DUP5 ADD GT ISZERO PUSH3 0x2C9 JUMPI PUSH3 0x2C8 PUSH3 0x60F JUMP JUMPDEST JUMPDEST PUSH3 0x2D6 DUP5 DUP3 DUP6 PUSH3 0x459 JUMP JUMPDEST POP SWAP4 SWAP3 POP POP POP JUMP JUMPDEST PUSH1 0x0 DUP3 PUSH1 0x1F DUP4 ADD SLT PUSH3 0x2F6 JUMPI PUSH3 0x2F5 PUSH3 0x605 JUMP JUMPDEST JUMPDEST DUP2 MLOAD PUSH3 0x308 DUP5 DUP3 PUSH1 0x20 DUP7 ADD PUSH3 0x1F7 JUMP JUMPDEST SWAP2 POP POP SWAP3 SWAP2 POP POP JUMP JUMPDEST PUSH1 0x0 DUP3 PUSH1 0x1F DUP4 ADD SLT PUSH3 0x329 JUMPI PUSH3 0x328 PUSH3 0x605 JUMP JUMPDEST JUMPDEST DUP2 MLOAD PUSH3 0x33B DUP5 DUP3 PUSH1 0x20 DUP7 ADD PUSH3 0x293 JUMP JUMPDEST SWAP2 POP POP SWAP3 SWAP2 POP POP JUMP JUMPDEST PUSH1 0x0 DUP2 MLOAD SWAP1 POP PUSH3 0x355 DUP2 PUSH3 0x62F JUMP JUMPDEST SWAP3 SWAP2 POP POP JUMP JUMPDEST PUSH1 0x0 DUP1 PUSH1 0x40 DUP4 DUP6 SUB SLT ISZERO PUSH3 0x375 JUMPI PUSH3 0x374 PUSH3 0x619 JUMP JUMPDEST JUMPDEST PUSH1 0x0 DUP4 ADD MLOAD PUSH8 0xFFFFFFFFFFFFFFFF DUP2 GT ISZERO PUSH3 0x396 JUMPI PUSH3 0x395 PUSH3 0x614 JUMP JUMPDEST JUMPDEST PUSH3 0x3A4 DUP6 DUP3 DUP7 ADD PUSH3 0x2DE JUMP JUMPDEST SWAP3 POP POP PUSH1 0x20 PUSH3 0x3B7 DUP6 DUP3 DUP7 ADD PUSH3 0x344 JUMP JUMPDEST SWAP2 POP POP SWAP3 POP SWAP3 SWAP1 POP JUMP JUMPDEST PUSH1 0x0 PUSH3 0x3CD PUSH3 0x3E0 JUMP JUMPDEST SWAP1 POP PUSH3 0x3DB DUP3 DUP3 PUSH3 0x4C5 JUMP JUMPDEST SWAP2 SWAP1 POP JUMP JUMPDEST PUSH1 0x0 PUSH1 0x40 MLOAD SWAP1 POP SWAP1 JUMP JUMPDEST PUSH1 0x0 PUSH8 0xFFFFFFFFFFFFFFFF DUP3 GT ISZERO PUSH3 0x408 JUMPI PUSH3 0x407 PUSH3 0x5D6 JUMP JUMPDEST JUMPDEST PUSH1 0x20 DUP3 MUL SWAP1 POP PUSH1 0x20 DUP2 ADD SWAP1 POP SWAP2 SWAP1 POP JUMP JUMPDEST PUSH1 0x0 PUSH8 0xFFFFFFFFFFFFFFFF DUP3 GT ISZERO PUSH3 0x437 JUMPI PUSH3 0x436 PUSH3 0x5D6 JUMP JUMPDEST JUMPDEST PUSH3 0x442 DUP3 PUSH3 0x61E JUMP JUMPDEST SWAP1 POP PUSH1 0x20 DUP2 ADD SWAP1 POP SWAP2 SWAP1 POP JUMP JUMPDEST PUSH1 0x0 DUP2 SWAP1 POP SWAP2 SWAP1 POP JUMP JUMPDEST PUSH1 0x0 JUMPDEST DUP4 DUP2 LT ISZERO PUSH3 0x479 JUMPI DUP1 DUP3 ADD MLOAD DUP2 DUP5 ADD MSTORE PUSH1 0x20 DUP2 ADD SWAP1 POP PUSH3 0x45C JUMP JUMPDEST DUP4 DUP2 GT ISZERO PUSH3 0x489 JUMPI PUSH1 0x0 DUP5 DUP5 ADD MSTORE JUMPDEST POP POP POP POP JUMP JUMPDEST PUSH1 0x0 PUSH1 0x2 DUP3 DIV SWAP1 POP PUSH1 0x1 DUP3 AND DUP1 PUSH3 0x4A8 JUMPI PUSH1 0x7F DUP3 AND SWAP2 POP JUMPDEST PUSH1 0x20 DUP3 LT DUP2 EQ ISZERO PUSH3 0x4BF JUMPI PUSH3 0x4BE PUSH3 0x578 JUMP JUMPDEST JUMPDEST POP SWAP2 SWAP1 POP JUMP JUMPDEST PUSH3 0x4D0 DUP3 PUSH3 0x61E JUMP JUMPDEST DUP2 ADD DUP2 DUP2 LT PUSH8 0xFFFFFFFFFFFFFFFF DUP3 GT OR ISZERO PUSH3 0x4F2 JUMPI PUSH3 0x4F1 PUSH3 0x5D6 JUMP JUMPDEST JUMPDEST DUP1 PUSH1 0x40 MSTORE POP POP POP JUMP JUMPDEST PUSH1 0x0 PUSH3 0x508 DUP3 PUSH3 0x44F JUMP JUMPDEST SWAP2 POP PUSH32 0xFFFFFFFFFFFFFFFFFFFFFFFFFFFFFFFFFFFFFFFFFFFFFFFFFFFFFFFFFFFFFFFF DUP3 EQ ISZERO PUSH3 0x53E JUMPI PUSH3 0x53D PUSH3 0x549 JUMP JUMPDEST JUMPDEST PUSH1 0x1 DUP3 ADD SWAP1 POP SWAP2 SWAP1 POP JUMP JUMPDEST PUSH32 0x4E487B7100000000000000000000000000000000000000000000000000000000 PUSH1 0x0 MSTORE PUSH1 0x11 PUSH1 0x4 MSTORE PUSH1 0x24 PUSH1 0x0 REVERT JUMPDEST PUSH32 0x4E487B7100000000000000000000000000000000000000000000000000000000 PUSH1 0x0 MSTORE PUSH1 0x22 PUSH1 0x4 MSTORE PUSH1 0x24 PUSH1 0x0 REVERT JUMPDEST PUSH32 0x4E487B7100000000000000000000000000000000000000000000000000000000 PUSH1 0x0 MSTORE PUSH1 0x32 PUSH1 0x4 MSTORE PUSH1 0x24 PUSH1 0x0 REVERT JUMPDEST PUSH32 0x4E487B7100000000000000000000000000000000000000000000000000000000 PUSH1 0x0 MSTORE PUSH1 0x41 PUSH1 0x4 MSTORE PUSH1 0x24 PUSH1 0x0 REVERT JUMPDEST PUSH1 0x0 DUP1 REVERT JUMPDEST PUSH1 0x0 DUP1 REVERT JUMPDEST PUSH1 0x0 DUP1 REVERT JUMPDEST PUSH1 0x0 DUP1 REVERT JUMPDEST PUSH1 0x0 DUP1 REVERT JUMPDEST PUSH1 0x0 PUSH1 0x1F NOT PUSH1 0x1F DUP4 ADD AND SWAP1 POP SWAP2 SWAP1 POP JUMP JUMPDEST PUSH3 0x63A DUP2 PUSH3 0x44F JUMP JUMPDEST DUP2 EQ PUSH3 0x646 JUMPI PUSH1 0x0 DUP1 REVERT JUMPDEST POP JUMP JUMPDEST PUSH2 0x13B1 DUP1 PUSH3 0x659 PUSH1 0x0 CODECOPY PUSH1 0x0 RETURN INVALID PUSH1 0x80 PUSH1 0x40 MSTORE CALLVALUE DUP1 ISZERO PUSH2 0x10 JUMPI PUSH1 0x0 DUP1 REVERT JUMPDEST POP PUSH1 0x4 CALLDATASIZE LT PUSH2 0x7D JUMPI PUSH1 0x0 CALLDATALOAD PUSH1 0xE0 SHR DUP1 PUSH4 0x9E7B8D61 GT PUSH2 0x5B JUMPI DUP1 PUSH4 0x9E7B8D61 EQ PUSH2 0xF0 JUMPI DUP1 PUSH4 0xA3EC138D EQ PUSH2 0x10C JUMPI DUP1 PUSH4 0xCE606EE0 EQ PUSH2 0x13D JUMPI DUP1 PUSH4 0xFC36E15B EQ PUSH2 0x15B JUMPI PUSH2 0x7D JUMP JUMPDEST DUP1 PUSH4 0x11D1023 EQ PUSH2 0x82 JUMPI DUP1 PUSH4 0x2BFDA515 EQ PUSH2 0xA0 JUMPI DUP1 PUSH4 0x3477EE2E EQ PUSH2 0xBF JUMPI JUMPDEST PUSH1 0x0 DUP1 REVERT JUMPDEST PUSH2 0x8A PUSH2 0x177 JUMP JUMPDEST PUSH1 0x40 MLOAD PUSH2 0x97 SWAP2 SWAP1 PUSH2 0xDA8 JUMP JUMPDEST PUSH1 0x40 MLOAD DUP1 SWAP2 SUB SWAP1 RETURN JUMPDEST PUSH2 0xA8 PUSH2 0x2C8 JUMP JUMPDEST PUSH1 0x40 MLOAD PUSH2 0xB6 SWAP3 SWAP2 SWAP1 PUSH2 0xE15 JUMP JUMPDEST PUSH1 0x40 MLOAD DUP1 SWAP2 SUB SWAP1 RETURN JUMPDEST PUSH2 0xD9 PUSH1 0x4 DUP1 CALLDATASIZE SUB DUP2 ADD SWAP1 PUSH2 0xD4 SWAP2 SWAP1 PUSH2 0xB89 JUMP JUMPDEST PUSH2 0x3DF JUMP JUMPDEST PUSH1 0x40 MLOAD PUSH2 0xE7 SWAP3 SWAP2 SWAP1 PUSH2 0xE45 JUMP JUMPDEST PUSH1 0x40 MLOAD DUP1 SWAP2 SUB SWAP1 RETURN JUMPDEST PUSH2 0x10A PUSH1 0x4 DUP1 CALLDATASIZE SUB DUP2 ADD SWAP1 PUSH2 0x105 SWAP2 SWAP1 PUSH2 0xB13 JUMP JUMPDEST PUSH2 0x49B JUMP JUMPDEST STOP JUMPDEST PUSH2 0x126 PUSH1 0x4 DUP1 CALLDATASIZE SUB DUP2 ADD SWAP1 PUSH2 0x121 SWAP2 SWAP1 PUSH2 0xB13 JUMP JUMPDEST PUSH2 0x552 JUMP JUMPDEST PUSH1 0x40 MLOAD PUSH2 0x134 SWAP3 SWAP2 SWAP1 PUSH2 0xDCA JUMP JUMPDEST PUSH1 0x40 MLOAD DUP1 SWAP2 SUB SWAP1 RETURN JUMPDEST PUSH2 0x145 PUSH2 0x590 JUMP JUMPDEST PUSH1 0x40 MLOAD PUSH2 0x152 SWAP2 SWAP1 PUSH2 0xD8D JUMP JUMPDEST PUSH1 0x40 MLOAD DUP1 SWAP2 SUB SWAP1 RETURN JUMPDEST PUSH2 0x175 PUSH1 0x4 DUP1 CALLDATASIZE SUB DUP2 ADD SWAP1 PUSH2 0x170 SWAP2 SWAP1 PUSH2 0xB40 JUMP JUMPDEST PUSH2 0x5B4 JUMP JUMPDEST STOP JUMPDEST PUSH1 0x60 PUSH1 0x0 PUSH1 0x2 DUP1 SLOAD SWAP1 POP SWAP1 POP PUSH1 0x0 DUP2 PUSH8 0xFFFFFFFFFFFFFFFF DUP2 GT ISZERO PUSH2 0x19F JUMPI PUSH2 0x19E PUSH2 0x1194 JUMP JUMPDEST JUMPDEST PUSH1 0x40 MLOAD SWAP1 DUP1 DUP3 MSTORE DUP1 PUSH1 0x20 MUL PUSH1 0x20 ADD DUP3 ADD PUSH1 0x40 MSTORE DUP1 ISZERO PUSH2 0x1D2 JUMPI DUP2 PUSH1 0x20 ADD JUMPDEST PUSH1 0x60 DUP2 MSTORE PUSH1 0x20 ADD SWAP1 PUSH1 0x1 SWAP1 SUB SWAP1 DUP2 PUSH2 0x1BD JUMPI SWAP1 POP JUMPDEST POP SWAP1 POP PUSH1 0x0 JUMPDEST DUP3 DUP2 LT ISZERO PUSH2 0x2BF JUMPI PUSH1 0x2 DUP2 DUP2 SLOAD DUP2 LT PUSH2 0x1F4 JUMPI PUSH2 0x1F3 PUSH2 0x1165 JUMP JUMPDEST JUMPDEST SWAP1 PUSH1 0x0 MSTORE PUSH1 0x20 PUSH1 0x0 KECCAK256 SWAP1 PUSH1 0x2 MUL ADD PUSH1 0x0 ADD DUP1 SLOAD PUSH2 0x210 SWAP1 PUSH2 0x105B JUMP JUMPDEST DUP1 PUSH1 0x1F ADD PUSH1 0x20 DUP1 SWAP2 DIV MUL PUSH1 0x20 ADD PUSH1 0x40 MLOAD SWAP1 DUP2 ADD PUSH1 0x40 MSTORE DUP1 SWAP3 SWAP2 SWAP1 DUP2 DUP2 MSTORE PUSH1 0x20 ADD DUP3 DUP1 SLOAD PUSH2 0x23C SWAP1 PUSH2 0x105B JUMP JUMPDEST DUP1 ISZERO PUSH2 0x289 JUMPI DUP1 PUSH1 0x1F LT PUSH2 0x25E JUMPI PUSH2 0x100 DUP1 DUP4 SLOAD DIV MUL DUP4 MSTORE SWAP2 PUSH1 0x20 ADD SWAP2 PUSH2 0x289 JUMP JUMPDEST DUP3 ADD SWAP2 SWAP1 PUSH1 0x0 MSTORE PUSH1 0x20 PUSH1 0x0 KECCAK256 SWAP1 JUMPDEST DUP2 SLOAD DUP2 MSTORE SWAP1 PUSH1 0x1 ADD SWAP1 PUSH1 0x20 ADD DUP1 DUP4 GT PUSH2 0x26C JUMPI DUP3 SWAP1 SUB PUSH1 0x1F AND DUP3 ADD SWAP2 JUMPDEST POP POP POP POP POP DUP3 DUP3 DUP2 MLOAD DUP2 LT PUSH2 0x2A1 JUMPI PUSH2 0x2A0 PUSH2 0x1165 JUMP JUMPDEST JUMPDEST PUSH1 0x20 MUL PUSH1 0x20 ADD ADD DUP2 SWAP1 MSTORE POP DUP1 DUP1 PUSH2 0x2B7 SWAP1 PUSH2 0x10BE JUMP JUMPDEST SWAP2 POP POP PUSH2 0x1D8 JUMP JUMPDEST POP DUP1 SWAP3 POP POP POP SWAP1 JUMP JUMPDEST PUSH1 0x60 PUSH1 0x0 DUP1 PUSH1 0x0 PUSH2 0x2D7 PUSH2 0x7A6 JUMP JUMPDEST SWAP2 POP SWAP2 POP DUP1 ISZERO PUSH2 0x31C JUMPI PUSH1 0x40 MLOAD PUSH32 0x8C379A000000000000000000000000000000000000000000000000000000000 DUP2 MSTORE PUSH1 0x4 ADD PUSH2 0x313 SWAP1 PUSH2 0xEF5 JUMP JUMPDEST PUSH1 0x40 MLOAD DUP1 SWAP2 SUB SWAP1 REVERT JUMPDEST PUSH1 0x2 DUP3 DUP2 SLOAD DUP2 LT PUSH2 0x330 JUMPI PUSH2 0x32F PUSH2 0x1165 JUMP JUMPDEST JUMPDEST SWAP1 PUSH1 0x0 MSTORE PUSH1 0x20 PUSH1 0x0 KECCAK256 SWAP1 PUSH1 0x2 MUL ADD PUSH1 0x0 ADD DUP1 SLOAD PUSH2 0x34C SWAP1 PUSH2 0x105B JUMP JUMPDEST DUP1 PUSH1 0x1F ADD PUSH1 0x20 DUP1 SWAP2 DIV MUL PUSH1 0x20 ADD PUSH1 0x40 MLOAD SWAP1 DUP2 ADD PUSH1 0x40 MSTORE DUP1 SWAP3 SWAP2 SWAP1 DUP2 DUP2 MSTORE PUSH1 0x20 ADD DUP3 DUP1 SLOAD PUSH2 0x378 SWAP1 PUSH2 0x105B JUMP JUMPDEST DUP1 ISZERO PUSH2 0x3C5 JUMPI DUP1 PUSH1 0x1F LT PUSH2 0x39A JUMPI PUSH2 0x100 DUP1 DUP4 SLOAD DIV MUL DUP4 MSTORE SWAP2 PUSH1 0x20 ADD SWAP2 PUSH2 0x3C5 JUMP JUMPDEST DUP3 ADD SWAP2 SWAP1 PUSH1 0x0 MSTORE PUSH1 0x20 PUSH1 0x0 KECCAK256 SWAP1 JUMPDEST DUP2 SLOAD DUP2 MSTORE SWAP1 PUSH1 0x1 ADD SWAP1 PUSH1 0x20 ADD DUP1 DUP4 GT PUSH2 0x3A8 JUMPI DUP3 SWAP1 SUB PUSH1 0x1F AND DUP3 ADD SWAP2 JUMPDEST POP POP POP POP POP SWAP4 POP DUP4 PUSH2 0x3D5 PUSH2 0x86B JUMP JUMPDEST SWAP4 POP SWAP4 POP POP POP SWAP1 SWAP2 JUMP JUMPDEST PUSH1 0x2 DUP2 DUP2 SLOAD DUP2 LT PUSH2 0x3EF JUMPI PUSH1 0x0 DUP1 REVERT JUMPDEST SWAP1 PUSH1 0x0 MSTORE PUSH1 0x20 PUSH1 0x0 KECCAK256 SWAP1 PUSH1 0x2 MUL ADD PUSH1 0x0 SWAP2 POP SWAP1 POP DUP1 PUSH1 0x0 ADD DUP1 SLOAD PUSH2 0x412 SWAP1 PUSH2 0x105B JUMP JUMPDEST DUP1 PUSH1 0x1F ADD PUSH1 0x20 DUP1 SWAP2 DIV MUL PUSH1 0x20 ADD PUSH1 0x40 MLOAD SWAP1 DUP2 ADD PUSH1 0x40 MSTORE DUP1 SWAP3 SWAP2 SWAP1 DUP2 DUP2 MSTORE PUSH1 0x20 ADD DUP3 DUP1 SLOAD PUSH2 0x43E SWAP1 PUSH2 0x105B JUMP JUMPDEST DUP1 ISZERO PUSH2 0x48B JUMPI DUP1 PUSH1 0x1F LT PUSH2 0x460 JUMPI PUSH2 0x100 DUP1 DUP4 SLOAD DIV MUL DUP4 MSTORE SWAP2 PUSH1 0x20 ADD SWAP2 PUSH2 0x48B JUMP JUMPDEST DUP3 ADD SWAP2 SWAP1 PUSH1 0x0 MSTORE PUSH1 0x20 PUSH1 0x0 KECCAK256 SWAP1 JUMPDEST DUP2 SLOAD DUP2 MSTORE SWAP1 PUSH1 0x1 ADD SWAP1 PUSH1 0x20 ADD DUP1 DUP4 GT PUSH2 0x46E JUMPI DUP3 SWAP1 SUB PUSH1 0x1F AND DUP3 ADD SWAP2 JUMPDEST POP POP POP POP POP SWAP1 DUP1 PUSH1 0x1 ADD SLOAD SWAP1 POP DUP3 JUMP JUMPDEST DUP1 PUSH2 0x4A4 PUSH2 0x873 JUMP JUMPDEST PUSH2 0x4AC PUSH2 0x8BB JUMP JUMPDEST PUSH2 0x4EB JUMPI PUSH1 0x40 MLOAD PUSH32 0x8C379A000000000000000000000000000000000000000000000000000000000 DUP2 MSTORE PUSH1 0x4 ADD PUSH2 0x4E2 SWAP1 PUSH2 0xE95 JUMP JUMPDEST PUSH1 0x40 MLOAD DUP1 SWAP2 SUB SWAP1 REVERT JUMPDEST PUSH2 0x4F4 DUP2 PUSH2 0x912 JUMP JUMPDEST PUSH1 0x1 DUP1 PUSH1 0x0 DUP5 PUSH20 0xFFFFFFFFFFFFFFFFFFFFFFFFFFFFFFFFFFFFFFFF AND PUSH20 0xFFFFFFFFFFFFFFFFFFFFFFFFFFFFFFFFFFFFFFFF AND DUP2 MSTORE PUSH1 0x20 ADD SWAP1 DUP2 MSTORE PUSH1 0x20 ADD PUSH1 0x0 KECCAK256 PUSH1 0x0 ADD PUSH1 0x0 PUSH2 0x100 EXP DUP2 SLOAD DUP2 PUSH1 0xFF MUL NOT AND SWAP1 DUP4 ISZERO ISZERO MUL OR SWAP1 SSTORE POP POP POP JUMP JUMPDEST PUSH1 0x1 PUSH1 0x20 MSTORE DUP1 PUSH1 0x0 MSTORE PUSH1 0x40 PUSH1 0x0 KECCAK256 PUSH1 0x0 SWAP2 POP SWAP1 POP DUP1 PUSH1 0x0 ADD PUSH1 0x0 SWAP1 SLOAD SWAP1 PUSH2 0x100 EXP SWAP1 DIV PUSH1 0xFF AND SWAP1 DUP1 PUSH1 0x0 ADD PUSH1 0x1 SWAP1 SLOAD SWAP1 PUSH2 0x100 EXP SWAP1 DIV PUSH1 0xFF AND SWAP1 POP DUP3 JUMP JUMPDEST PUSH1 0x0 DUP1 SLOAD SWAP1 PUSH2 0x100 EXP SWAP1 DIV PUSH20 0xFFFFFFFFFFFFFFFFFFFFFFFFFFFFFFFFFFFFFFFF AND DUP2 JUMP JUMPDEST CALLER PUSH2 0x5BD PUSH2 0x873 JUMP JUMPDEST PUSH2 0x5C5 PUSH2 0x95E JUMP JUMPDEST PUSH2 0x604 JUMPI PUSH1 0x40 MLOAD PUSH32 0x8C379A000000000000000000000000000000000000000000000000000000000 DUP2 MSTORE PUSH1 0x4 ADD PUSH2 0x5FB SWAP1 PUSH2 0xED5 JUMP JUMPDEST PUSH1 0x40 MLOAD DUP1 SWAP2 SUB SWAP1 REVERT JUMPDEST PUSH2 0x60D DUP2 PUSH2 0x912 JUMP JUMPDEST PUSH1 0x0 PUSH1 0x1 PUSH1 0x0 CALLER PUSH20 0xFFFFFFFFFFFFFFFFFFFFFFFFFFFFFFFFFFFFFFFF AND PUSH20 0xFFFFFFFFFFFFFFFFFFFFFFFFFFFFFFFFFFFFFFFF AND DUP2 MSTORE PUSH1 0x20 ADD SWAP1 DUP2 MSTORE PUSH1 0x20 ADD PUSH1 0x0 KECCAK256 SWAP1 POP PUSH1 0x0 JUMPDEST PUSH1 0x2 DUP1 SLOAD SWAP1 POP DUP2 LT ISZERO PUSH2 0x7A0 JUMPI PUSH2 0x717 PUSH1 0x2 DUP3 DUP2 SLOAD DUP2 LT PUSH2 0x677 JUMPI PUSH2 0x676 PUSH2 0x1165 JUMP JUMPDEST JUMPDEST SWAP1 PUSH1 0x0 MSTORE PUSH1 0x20 PUSH1 0x0 KECCAK256 SWAP1 PUSH1 0x2 MUL ADD PUSH1 0x0 ADD DUP1 SLOAD PUSH2 0x693 SWAP1 PUSH2 0x105B JUMP JUMPDEST DUP1 PUSH1 0x1F ADD PUSH1 0x20 DUP1 SWAP2 DIV MUL PUSH1 0x20 ADD PUSH1 0x40 MLOAD SWAP1 DUP2 ADD PUSH1 0x40 MSTORE DUP1 SWAP3 SWAP2 SWAP1 DUP2 DUP2 MSTORE PUSH1 0x20 ADD DUP3 DUP1 SLOAD PUSH2 0x6BF SWAP1 PUSH2 0x105B JUMP JUMPDEST DUP1 ISZERO PUSH2 0x70C JUMPI DUP1 PUSH1 0x1F LT PUSH2 0x6E1 JUMPI PUSH2 0x100 DUP1 DUP4 SLOAD DIV MUL DUP4 MSTORE SWAP2 PUSH1 0x20 ADD SWAP2 PUSH2 0x70C JUMP JUMPDEST DUP3 ADD SWAP2 SWAP1 PUSH1 0x0 MSTORE PUSH1 0x20 PUSH1 0x0 KECCAK256 SWAP1 JUMPDEST DUP2 SLOAD DUP2 MSTORE SWAP1 PUSH1 0x1 ADD SWAP1 PUSH1 0x20 ADD DUP1 DUP4 GT PUSH2 0x6EF JUMPI DUP3 SWAP1 SUB PUSH1 0x1F AND DUP3 ADD SWAP2 JUMPDEST POP POP POP POP POP DUP6 PUSH2 0x96E JUMP JUMPDEST ISZERO PUSH2 0x78D JUMPI PUSH1 0x2 DUP2 DUP2 SLOAD DUP2 LT PUSH2 0x730 JUMPI PUSH2 0x72F PUSH2 0x1165 JUMP JUMPDEST JUMPDEST SWAP1 PUSH1 0x0 MSTORE PUSH1 0x20 PUSH1 0x0 KECCAK256 SWAP1 PUSH1 0x2 MUL ADD PUSH1 0x1 ADD PUSH1 0x0 DUP2 SLOAD DUP1 SWAP3 SWAP2 SWAP1 PUSH2 0x752 SWAP1 PUSH2 0x10BE JUMP JUMPDEST SWAP2 SWAP1 POP SSTORE POP PUSH1 0x1 DUP3 PUSH1 0x0 ADD PUSH1 0x1 PUSH2 0x100 EXP DUP2 SLOAD DUP2 PUSH1 0xFF MUL NOT AND SWAP1 DUP4 ISZERO ISZERO MUL OR SWAP1 SSTORE POP PUSH1 0x3 PUSH1 0x0 DUP2 SLOAD DUP1 SWAP3 SWAP2 SWAP1 PUSH2 0x787 SWAP1 PUSH2 0x10BE JUMP JUMPDEST SWAP2 SWAP1 POP SSTORE POP JUMPDEST DUP1 DUP1 PUSH2 0x798 SWAP1 PUSH2 0x10BE JUMP JUMPDEST SWAP2 POP POP PUSH2 0x653 JUMP JUMPDEST POP POP POP POP JUMP JUMPDEST PUSH1 0x0 DUP1 PUSH1 0x0 DUP1 PUSH1 0x0 SWAP1 POP JUMPDEST PUSH1 0x2 DUP1 SLOAD SWAP1 POP DUP2 LT ISZERO PUSH2 0x865 JUMPI DUP2 PUSH1 0x2 DUP3 DUP2 SLOAD DUP2 LT PUSH2 0x7D3 JUMPI PUSH2 0x7D2 PUSH2 0x1165 JUMP JUMPDEST JUMPDEST SWAP1 PUSH1 0x0 MSTORE PUSH1 0x20 PUSH1 0x0 KECCAK256 SWAP1 PUSH1 0x2 MUL ADD PUSH1 0x1 ADD SLOAD GT ISZERO PUSH2 0x81F JUMPI PUSH1 0x2 DUP2 DUP2 SLOAD DUP2 LT PUSH2 0x7FF JUMPI PUSH2 0x7FE PUSH2 0x1165 JUMP JUMPDEST JUMPDEST SWAP1 PUSH1 0x0 MSTORE PUSH1 0x20 PUSH1 0x0 KECCAK256 SWAP1 PUSH1 0x2 MUL ADD PUSH1 0x1 ADD SLOAD SWAP2 POP DUP1 SWAP4 POP PUSH1 0x0 SWAP3 POP PUSH2 0x852 JUMP JUMPDEST DUP2 PUSH1 0x2 DUP3 DUP2 SLOAD DUP2 LT PUSH2 0x834 JUMPI PUSH2 0x833 PUSH2 0x1165 JUMP JUMPDEST JUMPDEST SWAP1 PUSH1 0x0 MSTORE PUSH1 0x20 PUSH1 0x0 KECCAK256 SWAP1 PUSH1 0x2 MUL ADD PUSH1 0x1 ADD SLOAD EQ ISZERO PUSH2 0x851 JUMPI PUSH1 0x1 SWAP3 POP JUMPDEST JUMPDEST DUP1 DUP1 PUSH2 0x85D SWAP1 PUSH2 0x10BE JUMP JUMPDEST SWAP2 POP POP PUSH2 0x7B1 JUMP JUMPDEST POP POP SWAP1 SWAP2 JUMP JUMPDEST PUSH1 0x0 ADDRESS SWAP1 POP SWAP1 JUMP JUMPDEST PUSH1 0x4 SLOAD PUSH1 0x3 SLOAD LT PUSH2 0x8B9 JUMPI PUSH1 0x40 MLOAD PUSH32 0x8C379A000000000000000000000000000000000000000000000000000000000 DUP2 MSTORE PUSH1 0x4 ADD PUSH2 0x8B0 SWAP1 PUSH2 0xE75 JUMP JUMPDEST PUSH1 0x40 MLOAD DUP1 SWAP2 SUB SWAP1 REVERT JUMPDEST JUMP JUMPDEST PUSH1 0x0 DUP1 PUSH1 0x0 SWAP1 SLOAD SWAP1 PUSH2 0x100 EXP SWAP1 DIV PUSH20 0xFFFFFFFFFFFFFFFFFFFFFFFFFFFFFFFFFFFFFFFF AND PUSH20 0xFFFFFFFFFFFFFFFFFFFFFFFFFFFFFFFFFFFFFFFF AND CALLER PUSH20 0xFFFFFFFFFFFFFFFFFFFFFFFFFFFFFFFFFFFFFFFF AND EQ SWAP1 POP SWAP1 JUMP JUMPDEST PUSH2 0x91B DUP2 PUSH2 0x9C7 JUMP JUMPDEST ISZERO PUSH2 0x95B JUMPI PUSH1 0x40 MLOAD PUSH32 0x8C379A000000000000000000000000000000000000000000000000000000000 DUP2 MSTORE PUSH1 0x4 ADD PUSH2 0x952 SWAP1 PUSH2 0xEB5 JUMP JUMPDEST PUSH1 0x40 MLOAD DUP1 SWAP2 SUB SWAP1 REVERT JUMPDEST POP JUMP JUMPDEST PUSH1 0x0 PUSH2 0x969 CALLER PUSH2 0xA20 JUMP JUMPDEST SWAP1 POP SWAP1 JUMP JUMPDEST PUSH1 0x0 DUP2 PUSH1 0x40 MLOAD PUSH1 0x20 ADD PUSH2 0x981 SWAP2 SWAP1 PUSH2 0xDF3 JUMP JUMPDEST PUSH1 0x40 MLOAD PUSH1 0x20 DUP2 DUP4 SUB SUB DUP2 MSTORE SWAP1 PUSH1 0x40 MSTORE DUP1 MLOAD SWAP1 PUSH1 0x20 ADD KECCAK256 DUP4 PUSH1 0x40 MLOAD PUSH1 0x20 ADD PUSH2 0x9A8 SWAP2 SWAP1 PUSH2 0xDF3 JUMP JUMPDEST PUSH1 0x40 MLOAD PUSH1 0x20 DUP2 DUP4 SUB SUB DUP2 MSTORE SWAP1 PUSH1 0x40 MSTORE DUP1 MLOAD SWAP1 PUSH1 0x20 ADD KECCAK256 EQ SWAP1 POP SWAP3 SWAP2 POP POP JUMP JUMPDEST PUSH1 0x0 PUSH1 0x1 PUSH1 0x0 DUP4 PUSH20 0xFFFFFFFFFFFFFFFFFFFFFFFFFFFFFFFFFFFFFFFF AND PUSH20 0xFFFFFFFFFFFFFFFFFFFFFFFFFFFFFFFFFFFFFFFF AND DUP2 MSTORE PUSH1 0x20 ADD SWAP1 DUP2 MSTORE PUSH1 0x20 ADD PUSH1 0x0 KECCAK256 PUSH1 0x0 ADD PUSH1 0x1 SWAP1 SLOAD SWAP1 PUSH2 0x100 EXP SWAP1 DIV PUSH1 0xFF AND SWAP1 POP SWAP2 SWAP1 POP JUMP JUMPDEST PUSH1 0x0 PUSH1 0x1 PUSH1 0x0 DUP4 PUSH20 0xFFFFFFFFFFFFFFFFFFFFFFFFFFFFFFFFFFFFFFFF AND PUSH20 0xFFFFFFFFFFFFFFFFFFFFFFFFFFFFFFFFFFFFFFFF AND DUP2 MSTORE PUSH1 0x20 ADD SWAP1 DUP2 MSTORE PUSH1 0x20 ADD PUSH1 0x0 KECCAK256 PUSH1 0x0 ADD PUSH1 0x0 SWAP1 SLOAD SWAP1 PUSH2 0x100 EXP SWAP1 DIV PUSH1 0xFF AND SWAP1 POP SWAP2 SWAP1 POP JUMP JUMPDEST PUSH1 0x0 PUSH2 0xA8C PUSH2 0xA87 DUP5 PUSH2 0xF3A JUMP JUMPDEST PUSH2 0xF15 JUMP JUMPDEST SWAP1 POP DUP3 DUP2 MSTORE PUSH1 0x20 DUP2 ADD DUP5 DUP5 DUP5 ADD GT ISZERO PUSH2 0xAA8 JUMPI PUSH2 0xAA7 PUSH2 0x11C8 JUMP JUMPDEST JUMPDEST PUSH2 0xAB3 DUP5 DUP3 DUP6 PUSH2 0x1019 JUMP JUMPDEST POP SWAP4 SWAP3 POP POP POP JUMP JUMPDEST PUSH1 0x0 DUP2 CALLDATALOAD SWAP1 POP PUSH2 0xACA DUP2 PUSH2 0x134D JUMP JUMPDEST SWAP3 SWAP2 POP POP JUMP JUMPDEST PUSH1 0x0 DUP3 PUSH1 0x1F DUP4 ADD SLT PUSH2 0xAE5 JUMPI PUSH2 0xAE4 PUSH2 0x11C3 JUMP JUMPDEST JUMPDEST DUP2 CALLDATALOAD PUSH2 0xAF5 DUP5 DUP3 PUSH1 0x20 DUP7 ADD PUSH2 0xA79 JUMP JUMPDEST SWAP2 POP POP SWAP3 SWAP2 POP POP JUMP JUMPDEST PUSH1 0x0 DUP2 CALLDATALOAD SWAP1 POP PUSH2 0xB0D DUP2 PUSH2 0x1364 JUMP JUMPDEST SWAP3 SWAP2 POP POP JUMP JUMPDEST PUSH1 0x0 PUSH1 0x20 DUP3 DUP5 SUB SLT ISZERO PUSH2 0xB29 JUMPI PUSH2 0xB28 PUSH2 0x11D2 JUMP JUMPDEST JUMPDEST PUSH1 0x0 PUSH2 0xB37 DUP5 DUP3 DUP6 ADD PUSH2 0xABB JUMP JUMPDEST SWAP2 POP POP SWAP3 SWAP2 POP POP JUMP JUMPDEST PUSH1 0x0 PUSH1 0x20 DUP3 DUP5 SUB SLT ISZERO PUSH2 0xB56 JUMPI PUSH2 0xB55 PUSH2 0x11D2 JUMP JUMPDEST JUMPDEST PUSH1 0x0 DUP3 ADD CALLDATALOAD PUSH8 0xFFFFFFFFFFFFFFFF DUP2 GT ISZERO PUSH2 0xB74 JUMPI PUSH2 0xB73 PUSH2 0x11CD JUMP JUMPDEST JUMPDEST PUSH2 0xB80 DUP5 DUP3 DUP6 ADD PUSH2 0xAD0 JUMP JUMPDEST SWAP2 POP POP SWAP3 SWAP2 POP POP JUMP JUMPDEST PUSH1 0x0 PUSH1 0x20 DUP3 DUP5 SUB SLT ISZERO PUSH2 0xB9F JUMPI PUSH2 0xB9E PUSH2 0x11D2 JUMP JUMPDEST JUMPDEST PUSH1 0x0 PUSH2 0xBAD DUP5 DUP3 DUP6 ADD PUSH2 0xAFE JUMP JUMPDEST SWAP2 POP POP SWAP3 SWAP2 POP POP JUMP JUMPDEST PUSH1 0x0 PUSH2 0xBC2 DUP4 DUP4 PUSH2 0xC5D JUMP JUMPDEST SWAP1 POP SWAP3 SWAP2 POP POP JUMP JUMPDEST PUSH2 0xBD3 DUP2 PUSH2 0xFD1 JUMP JUMPDEST DUP3 MSTORE POP POP JUMP JUMPDEST PUSH1 0x0 PUSH2 0xBE4 DUP3 PUSH2 0xF7B JUMP JUMPDEST PUSH2 0xBEE DUP2 DUP6 PUSH2 0xF9E JUMP JUMPDEST SWAP4 POP DUP4 PUSH1 0x20 DUP3 MUL DUP6 ADD PUSH2 0xC00 DUP6 PUSH2 0xF6B JUMP JUMPDEST DUP1 PUSH1 0x0 JUMPDEST DUP6 DUP2 LT ISZERO PUSH2 0xC3C JUMPI DUP5 DUP5 SUB DUP10 MSTORE DUP2 MLOAD PUSH2 0xC1D DUP6 DUP3 PUSH2 0xBB6 JUMP JUMPDEST SWAP5 POP PUSH2 0xC28 DUP4 PUSH2 0xF91 JUMP JUMPDEST SWAP3 POP PUSH1 0x20 DUP11 ADD SWAP10 POP POP PUSH1 0x1 DUP2 ADD SWAP1 POP PUSH2 0xC04 JUMP JUMPDEST POP DUP3 SWAP8 POP DUP8 SWAP6 POP POP POP POP POP POP SWAP3 SWAP2 POP POP JUMP JUMPDEST PUSH2 0xC57 DUP2 PUSH2 0xFE3 JUMP JUMPDEST DUP3 MSTORE POP POP JUMP JUMPDEST PUSH1 0x0 PUSH2 0xC68 DUP3 PUSH2 0xF86 JUMP JUMPDEST PUSH2 0xC72 DUP2 DUP6 PUSH2 0xFAF JUMP JUMPDEST SWAP4 POP PUSH2 0xC82 DUP2 DUP6 PUSH1 0x20 DUP7 ADD PUSH2 0x1028 JUMP JUMPDEST PUSH2 0xC8B DUP2 PUSH2 0x11D7 JUMP JUMPDEST DUP5 ADD SWAP2 POP POP SWAP3 SWAP2 POP POP JUMP JUMPDEST PUSH1 0x0 PUSH2 0xCA1 DUP3 PUSH2 0xF86 JUMP JUMPDEST PUSH2 0xCAB DUP2 DUP6 PUSH2 0xFC0 JUMP JUMPDEST SWAP4 POP PUSH2 0xCBB DUP2 DUP6 PUSH1 0x20 DUP7 ADD PUSH2 0x1028 JUMP JUMPDEST PUSH2 0xCC4 DUP2 PUSH2 0x11D7 JUMP JUMPDEST DUP5 ADD SWAP2 POP POP SWAP3 SWAP2 POP POP JUMP JUMPDEST PUSH1 0x0 PUSH2 0xCDC PUSH1 0x2F DUP4 PUSH2 0xFC0 JUMP JUMPDEST SWAP2 POP PUSH2 0xCE7 DUP3 PUSH2 0x11E8 JUMP JUMPDEST PUSH1 0x40 DUP3 ADD SWAP1 POP SWAP2 SWAP1 POP JUMP JUMPDEST PUSH1 0x0 PUSH2 0xCFF PUSH1 0x2F DUP4 PUSH2 0xFC0 JUMP JUMPDEST SWAP2 POP PUSH2 0xD0A DUP3 PUSH2 0x1237 JUMP JUMPDEST PUSH1 0x40 DUP3 ADD SWAP1 POP SWAP2 SWAP1 POP JUMP JUMPDEST PUSH1 0x0 PUSH2 0xD22 PUSH1 0x14 DUP4 PUSH2 0xFC0 JUMP JUMPDEST SWAP2 POP PUSH2 0xD2D DUP3 PUSH2 0x1286 JUMP JUMPDEST PUSH1 0x20 DUP3 ADD SWAP1 POP SWAP2 SWAP1 POP JUMP JUMPDEST PUSH1 0x0 PUSH2 0xD45 PUSH1 0x1A DUP4 PUSH2 0xFC0 JUMP JUMPDEST SWAP2 POP PUSH2 0xD50 DUP3 PUSH2 0x12AF JUMP JUMPDEST PUSH1 0x20 DUP3 ADD SWAP1 POP SWAP2 SWAP1 POP JUMP JUMPDEST PUSH1 0x0 PUSH2 0xD68 PUSH1 0x4C DUP4 PUSH2 0xFC0 JUMP JUMPDEST SWAP2 POP PUSH2 0xD73 DUP3 PUSH2 0x12D8 JUMP JUMPDEST PUSH1 0x60 DUP3 ADD SWAP1 POP SWAP2 SWAP1 POP JUMP JUMPDEST PUSH2 0xD87 DUP2 PUSH2 0x100F JUMP JUMPDEST DUP3 MSTORE POP POP JUMP JUMPDEST PUSH1 0x0 PUSH1 0x20 DUP3 ADD SWAP1 POP PUSH2 0xDA2 PUSH1 0x0 DUP4 ADD DUP5 PUSH2 0xBCA JUMP JUMPDEST SWAP3 SWAP2 POP POP JUMP JUMPDEST PUSH1 0x0 PUSH1 0x20 DUP3 ADD SWAP1 POP DUP2 DUP2 SUB PUSH1 0x0 DUP4 ADD MSTORE PUSH2 0xDC2 DUP2 DUP5 PUSH2 0xBD9 JUMP JUMPDEST SWAP1 POP SWAP3 SWAP2 POP POP JUMP JUMPDEST PUSH1 0x0 PUSH1 0x40 DUP3 ADD SWAP1 POP PUSH2 0xDDF PUSH1 0x0 DUP4 ADD DUP6 PUSH2 0xC4E JUMP JUMPDEST PUSH2 0xDEC PUSH1 0x20 DUP4 ADD DUP5 PUSH2 0xC4E JUMP JUMPDEST SWAP4 SWAP3 POP POP POP JUMP JUMPDEST PUSH1 0x0 PUSH1 0x20 DUP3 ADD SWAP1 POP DUP2 DUP2 SUB PUSH1 0x0 DUP4 ADD MSTORE PUSH2 0xE0D DUP2 DUP5 PUSH2 0xC96 JUMP JUMPDEST SWAP1 POP SWAP3 SWAP2 POP POP JUMP JUMPDEST PUSH1 0x0 PUSH1 0x40 DUP3 ADD SWAP1 POP DUP2 DUP2 SUB PUSH1 0x0 DUP4 ADD MSTORE PUSH2 0xE2F DUP2 DUP6 PUSH2 0xC96 JUMP JUMPDEST SWAP1 POP PUSH2 0xE3E PUSH1 0x20 DUP4 ADD DUP5 PUSH2 0xBCA JUMP JUMPDEST SWAP4 SWAP3 POP POP POP JUMP JUMPDEST PUSH1 0x0 PUSH1 0x40 DUP3 ADD SWAP1 POP DUP2 DUP2 SUB PUSH1 0x0 DUP4 ADD MSTORE PUSH2 0xE5F DUP2 DUP6 PUSH2 0xC96 JUMP JUMPDEST SWAP1 POP PUSH2 0xE6E PUSH1 0x20 DUP4 ADD DUP5 PUSH2 0xD7E JUMP JUMPDEST SWAP4 SWAP3 POP POP POP JUMP JUMPDEST PUSH1 0x0 PUSH1 0x20 DUP3 ADD SWAP1 POP DUP2 DUP2 SUB PUSH1 0x0 DUP4 ADD MSTORE PUSH2 0xE8E DUP2 PUSH2 0xCCF JUMP JUMPDEST SWAP1 POP SWAP2 SWAP1 POP JUMP JUMPDEST PUSH1 0x0 PUSH1 0x20 DUP3 ADD SWAP1 POP DUP2 DUP2 SUB PUSH1 0x0 DUP4 ADD MSTORE PUSH2 0xEAE DUP2 PUSH2 0xCF2 JUMP JUMPDEST SWAP1 POP SWAP2 SWAP1 POP JUMP JUMPDEST PUSH1 0x0 PUSH1 0x20 DUP3 ADD SWAP1 POP DUP2 DUP2 SUB PUSH1 0x0 DUP4 ADD MSTORE PUSH2 0xECE DUP2 PUSH2 0xD15 JUMP JUMPDEST SWAP1 POP SWAP2 SWAP1 POP JUMP JUMPDEST PUSH1 0x0 PUSH1 0x20 DUP3 ADD SWAP1 POP DUP2 DUP2 SUB PUSH1 0x0 DUP4 ADD MSTORE PUSH2 0xEEE DUP2 PUSH2 0xD38 JUMP JUMPDEST SWAP1 POP SWAP2 SWAP1 POP JUMP JUMPDEST PUSH1 0x0 PUSH1 0x20 DUP3 ADD SWAP1 POP DUP2 DUP2 SUB PUSH1 0x0 DUP4 ADD MSTORE PUSH2 0xF0E DUP2 PUSH2 0xD5B JUMP JUMPDEST SWAP1 POP SWAP2 SWAP1 POP JUMP JUMPDEST PUSH1 0x0 PUSH2 0xF1F PUSH2 0xF30 JUMP JUMPDEST SWAP1 POP PUSH2 0xF2B DUP3 DUP3 PUSH2 0x108D JUMP JUMPDEST SWAP2 SWAP1 POP JUMP JUMPDEST PUSH1 0x0 PUSH1 0x40 MLOAD SWAP1 POP SWAP1 JUMP JUMPDEST PUSH1 0x0 PUSH8 0xFFFFFFFFFFFFFFFF DUP3 GT ISZERO PUSH2 0xF55 JUMPI PUSH2 0xF54 PUSH2 0x1194 JUMP JUMPDEST JUMPDEST PUSH2 0xF5E DUP3 PUSH2 0x11D7 JUMP JUMPDEST SWAP1 POP PUSH1 0x20 DUP2 ADD SWAP1 POP SWAP2 SWAP1 POP JUMP JUMPDEST PUSH1 0x0 DUP2 SWAP1 POP PUSH1 0x20 DUP3 ADD SWAP1 POP SWAP2 SWAP1 POP JUMP JUMPDEST PUSH1 0x0 DUP2 MLOAD SWAP1 POP SWAP2 SWAP1 POP JUMP JUMPDEST PUSH1 0x0 DUP2 MLOAD SWAP1 POP SWAP2 SWAP1 POP JUMP JUMPDEST PUSH1 0x0 PUSH1 0x20 DUP3 ADD SWAP1 POP SWAP2 SWAP1 POP JUMP JUMPDEST PUSH1 0x0 DUP3 DUP3 MSTORE PUSH1 0x20 DUP3 ADD SWAP1 POP SWAP3 SWAP2 POP POP JUMP JUMPDEST PUSH1 0x0 DUP3 DUP3 MSTORE PUSH1 0x20 DUP3 ADD SWAP1 POP SWAP3 SWAP2 POP POP JUMP JUMPDEST PUSH1 0x0 DUP3 DUP3 MSTORE PUSH1 0x20 DUP3 ADD SWAP1 POP SWAP3 SWAP2 POP POP JUMP JUMPDEST PUSH1 0x0 PUSH2 0xFDC DUP3 PUSH2 0xFEF JUMP JUMPDEST SWAP1 POP SWAP2 SWAP1 POP JUMP JUMPDEST PUSH1 0x0 DUP2 ISZERO ISZERO SWAP1 POP SWAP2 SWAP1 POP JUMP JUMPDEST PUSH1 0x0 PUSH20 0xFFFFFFFFFFFFFFFFFFFFFFFFFFFFFFFFFFFFFFFF DUP3 AND SWAP1 POP SWAP2 SWAP1 POP JUMP JUMPDEST PUSH1 0x0 DUP2 SWAP1 POP SWAP2 SWAP1 POP JUMP JUMPDEST DUP3 DUP2 DUP4 CALLDATACOPY PUSH1 0x0 DUP4 DUP4 ADD MSTORE POP POP POP JUMP JUMPDEST PUSH1 0x0 JUMPDEST DUP4 DUP2 LT ISZERO PUSH2 0x1046 JUMPI DUP1 DUP3 ADD MLOAD DUP2 DUP5 ADD MSTORE PUSH1 0x20 DUP2 ADD SWAP1 POP PUSH2 0x102B JUMP JUMPDEST DUP4 DUP2 GT ISZERO PUSH2 0x1055 JUMPI PUSH1 0x0 DUP5 DUP5 ADD MSTORE JUMPDEST POP POP POP POP JUMP JUMPDEST PUSH1 0x0 PUSH1 0x2 DUP3 DIV SWAP1 POP PUSH1 0x1 DUP3 AND DUP1 PUSH2 0x1073 JUMPI PUSH1 0x7F DUP3 AND SWAP2 POP JUMPDEST PUSH1 0x20 DUP3 LT DUP2 EQ ISZERO PUSH2 0x1087 JUMPI PUSH2 0x1086 PUSH2 0x1136 JUMP JUMPDEST JUMPDEST POP SWAP2 SWAP1 POP JUMP JUMPDEST PUSH2 0x1096 DUP3 PUSH2 0x11D7 JUMP JUMPDEST DUP2 ADD DUP2 DUP2 LT PUSH8 0xFFFFFFFFFFFFFFFF DUP3 GT OR ISZERO PUSH2 0x10B5 JUMPI PUSH2 0x10B4 PUSH2 0x1194 JUMP JUMPDEST JUMPDEST DUP1 PUSH1 0x40 MSTORE POP POP POP JUMP JUMPDEST PUSH1 0x0 PUSH2 0x10C9 DUP3 PUSH2 0x100F JUMP JUMPDEST SWAP2 POP PUSH32 0xFFFFFFFFFFFFFFFFFFFFFFFFFFFFFFFFFFFFFFFFFFFFFFFFFFFFFFFFFFFFFFFF DUP3 EQ ISZERO PUSH2 0x10FC JUMPI PUSH2 0x10FB PUSH2 0x1107 JUMP JUMPDEST JUMPDEST PUSH1 0x1 DUP3 ADD SWAP1 POP SWAP2 SWAP1 POP JUMP JUMPDEST PUSH32 0x4E487B7100000000000000000000000000000000000000000000000000000000 PUSH1 0x0 MSTORE PUSH1 0x11 PUSH1 0x4 MSTORE PUSH1 0x24 PUSH1 0x0 REVERT JUMPDEST PUSH32 0x4E487B7100000000000000000000000000000000000000000000000000000000 PUSH1 0x0 MSTORE PUSH1 0x22 PUSH1 0x4 MSTORE PUSH1 0x24 PUSH1 0x0 REVERT JUMPDEST PUSH32 0x4E487B7100000000000000000000000000000000000000000000000000000000 PUSH1 0x0 MSTORE PUSH1 0x32 PUSH1 0x4 MSTORE PUSH1 0x24 PUSH1 0x0 REVERT JUMPDEST PUSH32 0x4E487B7100000000000000000000000000000000000000000000000000000000 PUSH1 0x0 MSTORE PUSH1 0x41 PUSH1 0x4 MSTORE PUSH1 0x24 PUSH1 0x0 REVERT JUMPDEST PUSH1 0x0 DUP1 REVERT JUMPDEST PUSH1 0x0 DUP1 REVERT JUMPDEST PUSH1 0x0 DUP1 REVERT JUMPDEST PUSH1 0x0 DUP1 REVERT JUMPDEST PUSH1 0x0 PUSH1 0x1F NOT PUSH1 0x1F DUP4 ADD AND SWAP1 POP SWAP2 SWAP1 POP JUMP JUMPDEST PUSH32 0x4D6178206163636F756E7420766F74657320697320726561636865642E204261 PUSH1 0x0 DUP3 ADD MSTORE PUSH32 0x6C6C6F7420697320434C4F5345442E0000000000000000000000000000000000 PUSH1 0x20 DUP3 ADD MSTORE POP JUMP JUMPDEST PUSH32 0x4F6E6C792074686520636F6E7472616374206F776E65722063616E2067697665 PUSH1 0x0 DUP3 ADD MSTORE PUSH32 0x20726967687420746F20766F74652E0000000000000000000000000000000000 PUSH1 0x20 DUP3 ADD MSTORE POP JUMP JUMPDEST PUSH32 0x566F74657220616C726561647920766F7465642E000000000000000000000000 PUSH1 0x0 DUP3 ADD MSTORE POP JUMP JUMPDEST PUSH32 0x596F752068617665206E6F7420726967687420746F20766F7465000000000000 PUSH1 0x0 DUP3 ADD MSTORE POP JUMP JUMPDEST PUSH32 0x5468657265206973206120746965206F6E2042616C6C6F742E20596F75207368 PUSH1 0x0 DUP3 ADD MSTORE PUSH32 0x6F756C642073746172742061206E65772062616C6C6F74207769746820746965 PUSH1 0x20 DUP3 ADD MSTORE PUSH32 0x2063616E646964617465732E0000000000000000000000000000000000000000 PUSH1 0x40 DUP3 ADD MSTORE POP JUMP JUMPDEST PUSH2 0x1356 DUP2 PUSH2 0xFD1 JUMP JUMPDEST DUP2 EQ PUSH2 0x1361 JUMPI PUSH1 0x0 DUP1 REVERT JUMPDEST POP JUMP JUMPDEST PUSH2 0x136D DUP2 PUSH2 0x100F JUMP JUMPDEST DUP2 EQ PUSH2 0x1378 JUMPI PUSH1 0x0 DUP1 REVERT JUMPDEST POP JUMP INVALID LOG2 PUSH5 0x6970667358 0x22 SLT KECCAK256 SWAP6 0xAD SWAP9 DUP6 0xBB PUSH23 0xE08BD620B985B97FC366504F11595A52ACB56921E6874D 0xA7 XOR PUSH27 0x64736F6C6343000807003300000000000000000000000000000000 "
				},
				"gasEstimates": {
					"creation": {
						"codeDepositCost": "1008200",
						"executionCost": "infinite",
						"totalCost": "infinite"
					},
					"external": {
						"candidates(uint256)": "infinite",
						"contractOwner()": "2555",
						"getCandidatesListName()": "infinite",
						"getWinnerName()": "infinite",
						"giveRightToVote(address)": "33649",
						"vote(string)": "infinite",
						"voters(address)": "infinite"
					},
					"internal": {
						"areYouContractOwner()": "2176",
						"areYouHaveRigthToVote()": "2303",
						"areYouVoted()": "infinite",
						"getContractAddress()": "22",
						"getTotalVotesCounterReachedRequire()": "infinite",
						"getVoterRigthToVote(address)": "2266",
						"getVoterVoted(address)": "2316",
						"getVoterVotedRequire(address)": "infinite",
						"getWinningCandidate()": "infinite",
						"setCandidatesIntoStorage(string memory[] memory)": "infinite",
						"stringEqualTo(string memory,string memory)": "infinite"
					}
				},
				"methodIdentifiers": {
					"candidates(uint256)": "3477ee2e",
					"contractOwner()": "ce606ee0",
					"getCandidatesListName()": "011d1023",
					"getWinnerName()": "2bfda515",
					"giveRightToVote(address)": "9e7b8d61",
					"vote(string)": "fc36e15b",
					"voters(address)": "a3ec138d"
				}
			},
			"storageLayout": {
				"storage": [
					{
						"astId": 13,
						"contract": "contracts/Ballot/Ballot.sol:MyBallot",
						"label": "contractOwner",
						"offset": 0,
						"slot": "0",
						"type": "t_address"
					},
					{
						"astId": 18,
						"contract": "contracts/Ballot/Ballot.sol:MyBallot",
						"label": "voters",
						"offset": 0,
						"slot": "1",
						"type": "t_mapping(t_address,t_struct(Voter)6_storage)"
					},
					{
						"astId": 22,
						"contract": "contracts/Ballot/Ballot.sol:MyBallot",
						"label": "candidates",
						"offset": 0,
						"slot": "2",
						"type": "t_array(t_struct(Candidate)11_storage)dyn_storage"
					},
					{
						"astId": 24,
						"contract": "contracts/Ballot/Ballot.sol:MyBallot",
						"label": "totalVotesCounter",
						"offset": 0,
						"slot": "3",
						"type": "t_uint256"
					},
					{
						"astId": 26,
						"contract": "contracts/Ballot/Ballot.sol:MyBallot",
						"label": "maxVotes",
						"offset": 0,
						"slot": "4",
						"type": "t_uint256"
					}
				],
				"types": {
					"t_address": {
						"encoding": "inplace",
						"label": "address",
						"numberOfBytes": "20"
					},
					"t_array(t_struct(Candidate)11_storage)dyn_storage": {
						"base": "t_struct(Candidate)11_storage",
						"encoding": "dynamic_array",
						"label": "struct MyBallot.Candidate[]",
						"numberOfBytes": "32"
					},
					"t_bool": {
						"encoding": "inplace",
						"label": "bool",
						"numberOfBytes": "1"
					},
					"t_mapping(t_address,t_struct(Voter)6_storage)": {
						"encoding": "mapping",
						"key": "t_address",
						"label": "mapping(address => struct MyBallot.Voter)",
						"numberOfBytes": "32",
						"value": "t_struct(Voter)6_storage"
					},
					"t_string_storage": {
						"encoding": "bytes",
						"label": "string",
						"numberOfBytes": "32"
					},
					"t_struct(Candidate)11_storage": {
						"encoding": "inplace",
						"label": "struct MyBallot.Candidate",
						"members": [
							{
								"astId": 8,
								"contract": "contracts/Ballot/Ballot.sol:MyBallot",
								"label": "nameProject",
								"offset": 0,
								"slot": "0",
								"type": "t_string_storage"
							},
							{
								"astId": 10,
								"contract": "contracts/Ballot/Ballot.sol:MyBallot",
								"label": "votesCount",
								"offset": 0,
								"slot": "1",
								"type": "t_uint256"
							}
						],
						"numberOfBytes": "64"
					},
					"t_struct(Voter)6_storage": {
						"encoding": "inplace",
						"label": "struct MyBallot.Voter",
						"members": [
							{
								"astId": 3,
								"contract": "contracts/Ballot/Ballot.sol:MyBallot",
								"label": "canVote",
								"offset": 0,
								"slot": "0",
								"type": "t_bool"
							},
							{
								"astId": 5,
								"contract": "contracts/Ballot/Ballot.sol:MyBallot",
								"label": "hasVoted",
								"offset": 1,
								"slot": "0",
								"type": "t_bool"
							}
						],
						"numberOfBytes": "32"
					},
					"t_uint256": {
						"encoding": "inplace",
						"label": "uint256",
						"numberOfBytes": "32"
					}
				}
			},
			"userdoc": {
				"kind": "user",
				"methods": {},
				"version": 1
			}
		}
	}
}